{
	"contracts/Petisi.sol": {
		"Petisi": {
			"abi": [
				{
					"inputs": [
						{
							"internalType": "address",
							"name": "_profileContract",
							"type": "address"
						}
					],
					"stateMutability": "nonpayable",
					"type": "constructor"
				},
				{
					"inputs": [
						{
							"internalType": "address",
							"name": "owner",
							"type": "address"
						}
					],
					"name": "OwnableInvalidOwner",
					"type": "error"
				},
				{
					"inputs": [
						{
							"internalType": "address",
							"name": "account",
							"type": "address"
						}
					],
					"name": "OwnableUnauthorizedAccount",
					"type": "error"
				},
				{
					"anonymous": false,
					"inputs": [
						{
							"indexed": true,
							"internalType": "address",
							"name": "previousOwner",
							"type": "address"
						},
						{
							"indexed": true,
							"internalType": "address",
							"name": "newOwner",
							"type": "address"
						}
					],
					"name": "OwnershipTransferred",
					"type": "event"
				},
				{
					"anonymous": false,
					"inputs": [
						{
							"indexed": false,
							"internalType": "uint256",
							"name": "id",
							"type": "uint256"
						},
						{
							"indexed": false,
							"internalType": "string",
							"name": "title",
							"type": "string"
						},
						{
							"indexed": false,
							"internalType": "string",
							"name": "description",
							"type": "string"
						},
						{
							"indexed": false,
							"internalType": "uint256",
							"name": "votes",
							"type": "uint256"
						},
						{
							"indexed": false,
							"internalType": "string",
							"name": "_imgUrl",
							"type": "string"
						},
						{
							"indexed": false,
							"internalType": "uint256",
							"name": "_deadline",
							"type": "uint256"
						},
						{
							"indexed": false,
							"internalType": "address",
							"name": "author",
							"type": "address"
						}
					],
					"name": "proposalCreated",
					"type": "event"
				},
				{
					"inputs": [
						{
							"internalType": "string",
							"name": "_title",
							"type": "string"
						},
						{
							"internalType": "string",
							"name": "_description",
							"type": "string"
						},
						{
							"internalType": "string",
							"name": "_imgUrl",
							"type": "string"
						},
						{
							"internalType": "uint256",
							"name": "_deadline",
							"type": "uint256"
						}
					],
					"name": "createProposal",
					"outputs": [],
					"stateMutability": "nonpayable",
					"type": "function"
				},
				{
					"inputs": [],
					"name": "gerAllProposal",
					"outputs": [
						{
							"components": [
								{
									"internalType": "uint256",
									"name": "id",
									"type": "uint256"
								},
								{
									"internalType": "string",
									"name": "title",
									"type": "string"
								},
								{
									"internalType": "string",
									"name": "description",
									"type": "string"
								},
								{
									"internalType": "uint256",
									"name": "votes",
									"type": "uint256"
								},
								{
									"internalType": "string",
									"name": "imgUrl",
									"type": "string"
								},
								{
									"internalType": "uint256",
									"name": "deadline",
									"type": "uint256"
								},
								{
									"internalType": "address",
									"name": "author",
									"type": "address"
								}
							],
							"internalType": "struct Petisi.Proposal[]",
							"name": "",
							"type": "tuple[]"
						}
					],
					"stateMutability": "view",
					"type": "function"
				},
				{
					"inputs": [
						{
							"internalType": "address",
							"name": "_user",
							"type": "address"
						}
					],
					"name": "getMyProposal",
					"outputs": [
						{
							"components": [
								{
									"internalType": "uint256",
									"name": "id",
									"type": "uint256"
								},
								{
									"internalType": "string",
									"name": "title",
									"type": "string"
								},
								{
									"internalType": "string",
									"name": "description",
									"type": "string"
								},
								{
									"internalType": "uint256",
									"name": "votes",
									"type": "uint256"
								},
								{
									"internalType": "string",
									"name": "imgUrl",
									"type": "string"
								},
								{
									"internalType": "uint256",
									"name": "deadline",
									"type": "uint256"
								},
								{
									"internalType": "address",
									"name": "author",
									"type": "address"
								}
							],
							"internalType": "struct Petisi.Proposal[]",
							"name": "",
							"type": "tuple[]"
						}
					],
					"stateMutability": "view",
					"type": "function"
				},
				{
					"inputs": [
						{
							"internalType": "uint256",
							"name": "_id",
							"type": "uint256"
						}
					],
					"name": "getProposal",
					"outputs": [
						{
							"internalType": "string",
							"name": "",
							"type": "string"
						},
						{
							"internalType": "string",
							"name": "",
							"type": "string"
						}
					],
					"stateMutability": "view",
					"type": "function"
				},
				{
					"inputs": [
						{
							"internalType": "address",
							"name": "",
							"type": "address"
						}
					],
					"name": "hasvoted",
					"outputs": [
						{
							"internalType": "bool",
							"name": "",
							"type": "bool"
						}
					],
					"stateMutability": "view",
					"type": "function"
				},
				{
					"inputs": [
						{
							"internalType": "address",
							"name": "",
							"type": "address"
						},
						{
							"internalType": "uint256",
							"name": "",
							"type": "uint256"
						}
					],
					"name": "myProposal",
					"outputs": [
						{
							"internalType": "uint256",
							"name": "id",
							"type": "uint256"
						},
						{
							"internalType": "string",
							"name": "title",
							"type": "string"
						},
						{
							"internalType": "string",
							"name": "description",
							"type": "string"
						},
						{
							"internalType": "uint256",
							"name": "votes",
							"type": "uint256"
						},
						{
							"internalType": "string",
							"name": "imgUrl",
							"type": "string"
						},
						{
							"internalType": "uint256",
							"name": "deadline",
							"type": "uint256"
						},
						{
							"internalType": "address",
							"name": "author",
							"type": "address"
						}
					],
					"stateMutability": "view",
					"type": "function"
				},
				{
					"inputs": [],
					"name": "owner",
					"outputs": [
						{
							"internalType": "address",
							"name": "",
							"type": "address"
						}
					],
					"stateMutability": "view",
					"type": "function"
				},
				{
					"inputs": [
						{
							"internalType": "uint256",
							"name": "",
							"type": "uint256"
						}
					],
					"name": "proposalList",
					"outputs": [
						{
							"internalType": "uint256",
							"name": "id",
							"type": "uint256"
						},
						{
							"internalType": "string",
							"name": "title",
							"type": "string"
						},
						{
							"internalType": "string",
							"name": "description",
							"type": "string"
						},
						{
							"internalType": "uint256",
							"name": "votes",
							"type": "uint256"
						},
						{
							"internalType": "string",
							"name": "imgUrl",
							"type": "string"
						},
						{
							"internalType": "uint256",
							"name": "deadline",
							"type": "uint256"
						},
						{
							"internalType": "address",
							"name": "author",
							"type": "address"
						}
					],
					"stateMutability": "view",
					"type": "function"
				},
				{
					"inputs": [
						{
							"internalType": "uint256",
							"name": "",
							"type": "uint256"
						}
					],
					"name": "proposals",
					"outputs": [
						{
							"internalType": "uint256",
							"name": "id",
							"type": "uint256"
						},
						{
							"internalType": "string",
							"name": "title",
							"type": "string"
						},
						{
							"internalType": "string",
							"name": "description",
							"type": "string"
						},
						{
							"internalType": "uint256",
							"name": "votes",
							"type": "uint256"
						},
						{
							"internalType": "string",
							"name": "imgUrl",
							"type": "string"
						},
						{
							"internalType": "uint256",
							"name": "deadline",
							"type": "uint256"
						},
						{
							"internalType": "address",
							"name": "author",
							"type": "address"
						}
					],
					"stateMutability": "view",
					"type": "function"
				},
				{
					"inputs": [],
					"name": "renounceOwnership",
					"outputs": [],
					"stateMutability": "nonpayable",
					"type": "function"
				},
				{
					"inputs": [
						{
							"internalType": "address",
							"name": "newOwner",
							"type": "address"
						}
					],
					"name": "transferOwnership",
					"outputs": [],
					"stateMutability": "nonpayable",
					"type": "function"
				},
				{
					"inputs": [
						{
							"internalType": "uint256",
							"name": "_id",
							"type": "uint256"
						}
					],
					"name": "vote",
					"outputs": [],
					"stateMutability": "nonpayable",
					"type": "function"
				}
			],
			"devdoc": {
				"errors": {
					"OwnableInvalidOwner(address)": [
						{
							"details": "The owner is not a valid owner account. (eg. `address(0)`)"
						}
					],
					"OwnableUnauthorizedAccount(address)": [
						{
							"details": "The caller account is not authorized to perform an operation."
						}
					]
				},
				"kind": "dev",
				"methods": {
					"owner()": {
						"details": "Returns the address of the current owner."
					},
					"renounceOwnership()": {
						"details": "Leaves the contract without owner. It will not be possible to call `onlyOwner` functions. Can only be called by the current owner. NOTE: Renouncing ownership will leave the contract without an owner, thereby disabling any functionality that is only available to the owner."
					},
					"transferOwnership(address)": {
						"details": "Transfers ownership of the contract to a new account (`newOwner`). Can only be called by the current owner."
					}
				},
				"version": 1
			},
			"evm": {
				"assembly": "    /* \"contracts/Petisi.sol\":145:2501  contract Petisi is Ownable { ... */\n  mstore(0x40, 0x80)\n    /* \"contracts/Petisi.sol\":563:564  0 */\n  0x00\n    /* \"contracts/Petisi.sol\":537:564  uint256 counterProposal = 0 */\n  0x02\n  sstore\n    /* \"contracts/Petisi.sol\":218:336  constructor(address _profileContract) Ownable(msg.sender){... */\n  callvalue\n  dup1\n  iszero\n  tag_1\n  jumpi\n  0x00\n  dup1\n  revert\ntag_1:\n  pop\n  mload(0x40)\n  sub(codesize, bytecodeSize)\n  dup1\n  bytecodeSize\n  dup4\n  codecopy\n  dup2\n  dup2\n  add\n  0x40\n  mstore\n  dup2\n  add\n  swap1\n  tag_2\n  swap2\n  swap1\n  tag_3\n  jump\t// in\ntag_2:\n    /* \"contracts/Petisi.sol\":264:274  msg.sender */\n  caller\n    /* \"@openzeppelin/contracts/access/Ownable.sol\":1297:1298  0 */\n  0x00\n    /* \"@openzeppelin/contracts/access/Ownable.sol\":1273:1299  initialOwner == address(0) */\n  0xffffffffffffffffffffffffffffffffffffffff\n  and\n    /* \"@openzeppelin/contracts/access/Ownable.sol\":1273:1285  initialOwner */\n  dup2\n    /* \"@openzeppelin/contracts/access/Ownable.sol\":1273:1299  initialOwner == address(0) */\n  0xffffffffffffffffffffffffffffffffffffffff\n  and\n  sub\n    /* \"@openzeppelin/contracts/access/Ownable.sol\":1269:1364  if (initialOwner == address(0)) {... */\n  tag_7\n  jumpi\n    /* \"@openzeppelin/contracts/access/Ownable.sol\":1350:1351  0 */\n  0x00\n    /* \"@openzeppelin/contracts/access/Ownable.sol\":1322:1353  OwnableInvalidOwner(address(0)) */\n  mload(0x40)\n  0x1e4fbdf700000000000000000000000000000000000000000000000000000000\n  dup2\n  mstore\n  0x04\n  add\n  tag_8\n  swap2\n  swap1\n  tag_9\n  jump\t// in\ntag_8:\n  mload(0x40)\n  dup1\n  swap2\n  sub\n  swap1\n  revert\n    /* \"@openzeppelin/contracts/access/Ownable.sol\":1269:1364  if (initialOwner == address(0)) {... */\ntag_7:\n    /* \"@openzeppelin/contracts/access/Ownable.sol\":1373:1405  _transferOwnership(initialOwner) */\n  tag_10\n    /* \"@openzeppelin/contracts/access/Ownable.sol\":1392:1404  initialOwner */\n  dup2\n    /* \"@openzeppelin/contracts/access/Ownable.sol\":1373:1391  _transferOwnership */\n  shl(0x20, tag_11)\n    /* \"@openzeppelin/contracts/access/Ownable.sol\":1373:1405  _transferOwnership(initialOwner) */\n  0x20\n  shr\n  jump\t// in\ntag_10:\n    /* \"@openzeppelin/contracts/access/Ownable.sol\":1225:1412  constructor(address initialOwner) {... */\n  pop\n    /* \"contracts/Petisi.sol\":312:328  _profileContract */\n  dup1\n    /* \"contracts/Petisi.sol\":285:300  profileContract */\n  0x01\n  0x00\n    /* \"contracts/Petisi.sol\":285:329  profileContract = IProfile(_profileContract) */\n  0x0100\n  exp\n  dup2\n  sload\n  dup2\n  0xffffffffffffffffffffffffffffffffffffffff\n  mul\n  not\n  and\n  swap1\n  dup4\n  0xffffffffffffffffffffffffffffffffffffffff\n  and\n  mul\n  or\n  swap1\n  sstore\n  pop\n    /* \"contracts/Petisi.sol\":218:336  constructor(address _profileContract) Ownable(msg.sender){... */\n  pop\n    /* \"contracts/Petisi.sol\":145:2501  contract Petisi is Ownable { ... */\n  jump(tag_13)\n    /* \"@openzeppelin/contracts/access/Ownable.sol\":2912:3099  function _transferOwnership(address newOwner) internal virtual {... */\ntag_11:\n    /* \"@openzeppelin/contracts/access/Ownable.sol\":2985:3001  address oldOwner */\n  0x00\n    /* \"@openzeppelin/contracts/access/Ownable.sol\":3004:3010  _owner */\n  dup1\n  0x00\n  swap1\n  sload\n  swap1\n  0x0100\n  exp\n  swap1\n  div\n  0xffffffffffffffffffffffffffffffffffffffff\n  and\n    /* \"@openzeppelin/contracts/access/Ownable.sol\":2985:3010  address oldOwner = _owner */\n  swap1\n  pop\n    /* \"@openzeppelin/contracts/access/Ownable.sol\":3029:3037  newOwner */\n  dup2\n    /* \"@openzeppelin/contracts/access/Ownable.sol\":3020:3026  _owner */\n  0x00\n  dup1\n    /* \"@openzeppelin/contracts/access/Ownable.sol\":3020:3037  _owner = newOwner */\n  0x0100\n  exp\n  dup2\n  sload\n  dup2\n  0xffffffffffffffffffffffffffffffffffffffff\n  mul\n  not\n  and\n  swap1\n  dup4\n  0xffffffffffffffffffffffffffffffffffffffff\n  and\n  mul\n  or\n  swap1\n  sstore\n  pop\n    /* \"@openzeppelin/contracts/access/Ownable.sol\":3083:3091  newOwner */\n  dup2\n    /* \"@openzeppelin/contracts/access/Ownable.sol\":3052:3092  OwnershipTransferred(oldOwner, newOwner) */\n  0xffffffffffffffffffffffffffffffffffffffff\n  and\n    /* \"@openzeppelin/contracts/access/Ownable.sol\":3073:3081  oldOwner */\n  dup2\n    /* \"@openzeppelin/contracts/access/Ownable.sol\":3052:3092  OwnershipTransferred(oldOwner, newOwner) */\n  0xffffffffffffffffffffffffffffffffffffffff\n  and\n  0x8be0079c531659141344cd1fd0a4f28419497f9722a3daafe3b4186f6b6457e0\n  mload(0x40)\n  mload(0x40)\n  dup1\n  swap2\n  sub\n  swap1\n  log3\n    /* \"@openzeppelin/contracts/access/Ownable.sol\":2975:3099  {... */\n  pop\n    /* \"@openzeppelin/contracts/access/Ownable.sol\":2912:3099  function _transferOwnership(address newOwner) internal virtual {... */\n  pop\n  jump\t// out\n    /* \"#utility.yul\":88:205   */\ntag_16:\n    /* \"#utility.yul\":197:198   */\n  0x00\n    /* \"#utility.yul\":194:195   */\n  dup1\n    /* \"#utility.yul\":187:199   */\n  revert\n    /* \"#utility.yul\":334:460   */\ntag_18:\n    /* \"#utility.yul\":371:378   */\n  0x00\n    /* \"#utility.yul\":411:453   */\n  0xffffffffffffffffffffffffffffffffffffffff\n    /* \"#utility.yul\":404:409   */\n  dup3\n    /* \"#utility.yul\":400:454   */\n  and\n    /* \"#utility.yul\":389:454   */\n  swap1\n  pop\n    /* \"#utility.yul\":334:460   */\n  swap2\n  swap1\n  pop\n  jump\t// out\n    /* \"#utility.yul\":466:562   */\ntag_19:\n    /* \"#utility.yul\":503:510   */\n  0x00\n    /* \"#utility.yul\":532:556   */\n  tag_29\n    /* \"#utility.yul\":550:555   */\n  dup3\n    /* \"#utility.yul\":532:556   */\n  tag_18\n  jump\t// in\ntag_29:\n    /* \"#utility.yul\":521:556   */\n  swap1\n  pop\n    /* \"#utility.yul\":466:562   */\n  swap2\n  swap1\n  pop\n  jump\t// out\n    /* \"#utility.yul\":568:690   */\ntag_20:\n    /* \"#utility.yul\":641:665   */\n  tag_31\n    /* \"#utility.yul\":659:664   */\n  dup2\n    /* \"#utility.yul\":641:665   */\n  tag_19\n  jump\t// in\ntag_31:\n    /* \"#utility.yul\":634:639   */\n  dup2\n    /* \"#utility.yul\":631:666   */\n  eq\n    /* \"#utility.yul\":621:684   */\n  tag_32\n  jumpi\n    /* \"#utility.yul\":680:681   */\n  0x00\n    /* \"#utility.yul\":677:678   */\n  dup1\n    /* \"#utility.yul\":670:682   */\n  revert\n    /* \"#utility.yul\":621:684   */\ntag_32:\n    /* \"#utility.yul\":568:690   */\n  pop\n  jump\t// out\n    /* \"#utility.yul\":696:839   */\ntag_21:\n    /* \"#utility.yul\":753:758   */\n  0x00\n    /* \"#utility.yul\":784:790   */\n  dup2\n    /* \"#utility.yul\":778:791   */\n  mload\n    /* \"#utility.yul\":769:791   */\n  swap1\n  pop\n    /* \"#utility.yul\":800:833   */\n  tag_34\n    /* \"#utility.yul\":827:832   */\n  dup2\n    /* \"#utility.yul\":800:833   */\n  tag_20\n  jump\t// in\ntag_34:\n    /* \"#utility.yul\":696:839   */\n  swap3\n  swap2\n  pop\n  pop\n  jump\t// out\n    /* \"#utility.yul\":845:1196   */\ntag_3:\n    /* \"#utility.yul\":915:921   */\n  0x00\n    /* \"#utility.yul\":964:966   */\n  0x20\n    /* \"#utility.yul\":952:961   */\n  dup3\n    /* \"#utility.yul\":943:950   */\n  dup5\n    /* \"#utility.yul\":939:962   */\n  sub\n    /* \"#utility.yul\":935:967   */\n  slt\n    /* \"#utility.yul\":932:1051   */\n  iszero\n  tag_36\n  jumpi\n    /* \"#utility.yul\":970:1049   */\n  tag_37\n  tag_16\n  jump\t// in\ntag_37:\n    /* \"#utility.yul\":932:1051   */\ntag_36:\n    /* \"#utility.yul\":1090:1091   */\n  0x00\n    /* \"#utility.yul\":1115:1179   */\n  tag_38\n    /* \"#utility.yul\":1171:1178   */\n  dup5\n    /* \"#utility.yul\":1162:1168   */\n  dup3\n    /* \"#utility.yul\":1151:1160   */\n  dup6\n    /* \"#utility.yul\":1147:1169   */\n  add\n    /* \"#utility.yul\":1115:1179   */\n  tag_21\n  jump\t// in\ntag_38:\n    /* \"#utility.yul\":1105:1179   */\n  swap2\n  pop\n    /* \"#utility.yul\":1061:1189   */\n  pop\n    /* \"#utility.yul\":845:1196   */\n  swap3\n  swap2\n  pop\n  pop\n  jump\t// out\n    /* \"#utility.yul\":1202:1320   */\ntag_22:\n    /* \"#utility.yul\":1289:1313   */\n  tag_40\n    /* \"#utility.yul\":1307:1312   */\n  dup2\n    /* \"#utility.yul\":1289:1313   */\n  tag_19\n  jump\t// in\ntag_40:\n    /* \"#utility.yul\":1284:1287   */\n  dup3\n    /* \"#utility.yul\":1277:1314   */\n  mstore\n    /* \"#utility.yul\":1202:1320   */\n  pop\n  pop\n  jump\t// out\n    /* \"#utility.yul\":1326:1548   */\ntag_9:\n    /* \"#utility.yul\":1419:1423   */\n  0x00\n    /* \"#utility.yul\":1457:1459   */\n  0x20\n    /* \"#utility.yul\":1446:1455   */\n  dup3\n    /* \"#utility.yul\":1442:1460   */\n  add\n    /* \"#utility.yul\":1434:1460   */\n  swap1\n  pop\n    /* \"#utility.yul\":1470:1541   */\n  tag_42\n    /* \"#utility.yul\":1538:1539   */\n  0x00\n    /* \"#utility.yul\":1527:1536   */\n  dup4\n    /* \"#utility.yul\":1523:1540   */\n  add\n    /* \"#utility.yul\":1514:1520   */\n  dup5\n    /* \"#utility.yul\":1470:1541   */\n  tag_22\n  jump\t// in\ntag_42:\n    /* \"#utility.yul\":1326:1548   */\n  swap3\n  swap2\n  pop\n  pop\n  jump\t// out\n    /* \"contracts/Petisi.sol\":145:2501  contract Petisi is Ownable { ... */\ntag_13:\n  dataSize(sub_0)\n  dup1\n  dataOffset(sub_0)\n  0x00\n  codecopy\n  0x00\n  return\nstop\n\nsub_0: assembly {\n        /* \"contracts/Petisi.sol\":145:2501  contract Petisi is Ownable { ... */\n      mstore(0x40, 0x80)\n      callvalue\n      dup1\n      iszero\n      tag_1\n      jumpi\n      0x00\n      dup1\n      revert\n    tag_1:\n      pop\n      jumpi(tag_2, lt(calldatasize, 0x04))\n      shr(0xe0, calldataload(0x00))\n      dup1\n      0x8da5cb5b\n      gt\n      tag_15\n      jumpi\n      dup1\n      0x8da5cb5b\n      eq\n      tag_9\n      jumpi\n      dup1\n      0xbe07d1d9\n      eq\n      tag_10\n      jumpi\n      dup1\n      0xc6311e3f\n      eq\n      tag_11\n      jumpi\n      dup1\n      0xc7f758a8\n      eq\n      tag_12\n      jumpi\n      dup1\n      0xf2fde38b\n      eq\n      tag_13\n      jumpi\n      dup1\n      0xf30282a1\n      eq\n      tag_14\n      jumpi\n      jump(tag_2)\n    tag_15:\n      dup1\n      0x0121b93f\n      eq\n      tag_3\n      jumpi\n      dup1\n      0x013cf08b\n      eq\n      tag_4\n      jumpi\n      dup1\n      0x159428d1\n      eq\n      tag_5\n      jumpi\n      dup1\n      0x2b499cab\n      eq\n      tag_6\n      jumpi\n      dup1\n      0x4c15676b\n      eq\n      tag_7\n      jumpi\n      dup1\n      0x715018a6\n      eq\n      tag_8\n      jumpi\n    tag_2:\n      0x00\n      dup1\n      revert\n        /* \"contracts/Petisi.sol\":2354:2498  function vote(uint256 _id) public onlyRegisterd onlyHasNoVoted{... */\n    tag_3:\n      tag_16\n      0x04\n      dup1\n      calldatasize\n      sub\n      dup2\n      add\n      swap1\n      tag_17\n      swap2\n      swap1\n      tag_18\n      jump\t// in\n    tag_17:\n      tag_19\n      jump\t// in\n    tag_16:\n      stop\n        /* \"contracts/Petisi.sol\":791:836  mapping(uint256 => Proposal) public proposals */\n    tag_4:\n      tag_20\n      0x04\n      dup1\n      calldatasize\n      sub\n      dup2\n      add\n      swap1\n      tag_21\n      swap2\n      swap1\n      tag_18\n      jump\t// in\n    tag_21:\n      tag_22\n      jump\t// in\n    tag_20:\n      mload(0x40)\n      tag_23\n      swap8\n      swap7\n      swap6\n      swap5\n      swap4\n      swap3\n      swap2\n      swap1\n      tag_24\n      jump\t// in\n    tag_23:\n      mload(0x40)\n      dup1\n      swap2\n      sub\n      swap1\n      return\n        /* \"contracts/Petisi.sol\":2016:2134  function getMyProposal(address _user) public view returns (Proposal[] memory){... */\n    tag_5:\n      tag_25\n      0x04\n      dup1\n      calldatasize\n      sub\n      dup2\n      add\n      swap1\n      tag_26\n      swap2\n      swap1\n      tag_27\n      jump\t// in\n    tag_26:\n      tag_28\n      jump\t// in\n    tag_25:\n      mload(0x40)\n      tag_29\n      swap2\n      swap1\n      tag_30\n      jump\t// in\n    tag_29:\n      mload(0x40)\n      dup1\n      swap2\n      sub\n      swap1\n      return\n        /* \"contracts/Petisi.sol\":842:882  mapping(address => bool) public hasvoted */\n    tag_6:\n      tag_31\n      0x04\n      dup1\n      calldatasize\n      sub\n      dup2\n      add\n      swap1\n      tag_32\n      swap2\n      swap1\n      tag_27\n      jump\t// in\n    tag_32:\n      tag_33\n      jump\t// in\n    tag_31:\n      mload(0x40)\n      tag_34\n      swap2\n      swap1\n      tag_35\n      jump\t// in\n    tag_34:\n      mload(0x40)\n      dup1\n      swap2\n      sub\n      swap1\n      return\n        /* \"contracts/Petisi.sol\":1263:1903  function createProposal(string memory _title, string memory _description, string memory _imgUrl, uint256 _deadline) onlyRegisterd public {... */\n    tag_7:\n      tag_36\n      0x04\n      dup1\n      calldatasize\n      sub\n      dup2\n      add\n      swap1\n      tag_37\n      swap2\n      swap1\n      tag_38\n      jump\t// in\n    tag_37:\n      tag_39\n      jump\t// in\n    tag_36:\n      stop\n        /* \"@openzeppelin/contracts/access/Ownable.sol\":2293:2394  function renounceOwnership() public virtual onlyOwner {... */\n    tag_8:\n      tag_40\n      tag_41\n      jump\t// in\n    tag_40:\n      stop\n        /* \"@openzeppelin/contracts/access/Ownable.sol\":1638:1723  function owner() public view virtual returns (address) {... */\n    tag_9:\n      tag_42\n      tag_43\n      jump\t// in\n    tag_42:\n      mload(0x40)\n      tag_44\n      swap2\n      swap1\n      tag_45\n      jump\t// in\n    tag_44:\n      mload(0x40)\n      dup1\n      swap2\n      sub\n      swap1\n      return\n        /* \"contracts/Petisi.sol\":736:785  mapping (address => Proposal[]) public myProposal */\n    tag_10:\n      tag_46\n      0x04\n      dup1\n      calldatasize\n      sub\n      dup2\n      add\n      swap1\n      tag_47\n      swap2\n      swap1\n      tag_48\n      jump\t// in\n    tag_47:\n      tag_49\n      jump\t// in\n    tag_46:\n      mload(0x40)\n      tag_50\n      swap8\n      swap7\n      swap6\n      swap5\n      swap4\n      swap3\n      swap2\n      swap1\n      tag_24\n      jump\t// in\n    tag_50:\n      mload(0x40)\n      dup1\n      swap2\n      sub\n      swap1\n      return\n        /* \"contracts/Petisi.sol\":901:931  Proposal[] public proposalList */\n    tag_11:\n      tag_51\n      0x04\n      dup1\n      calldatasize\n      sub\n      dup2\n      add\n      swap1\n      tag_52\n      swap2\n      swap1\n      tag_18\n      jump\t// in\n    tag_52:\n      tag_53\n      jump\t// in\n    tag_51:\n      mload(0x40)\n      tag_54\n      swap8\n      swap7\n      swap6\n      swap5\n      swap4\n      swap3\n      swap2\n      swap1\n      tag_24\n      jump\t// in\n    tag_54:\n      mload(0x40)\n      dup1\n      swap2\n      sub\n      swap1\n      return\n        /* \"contracts/Petisi.sol\":2140:2348  function getProposal(uint256 _id) public view returns(string memory, string memory){... */\n    tag_12:\n      tag_55\n      0x04\n      dup1\n      calldatasize\n      sub\n      dup2\n      add\n      swap1\n      tag_56\n      swap2\n      swap1\n      tag_18\n      jump\t// in\n    tag_56:\n      tag_57\n      jump\t// in\n    tag_55:\n      mload(0x40)\n      tag_58\n      swap3\n      swap2\n      swap1\n      tag_59\n      jump\t// in\n    tag_58:\n      mload(0x40)\n      dup1\n      swap2\n      sub\n      swap1\n      return\n        /* \"@openzeppelin/contracts/access/Ownable.sol\":2543:2758  function transferOwnership(address newOwner) public virtual onlyOwner {... */\n    tag_13:\n      tag_60\n      0x04\n      dup1\n      calldatasize\n      sub\n      dup2\n      add\n      swap1\n      tag_61\n      swap2\n      swap1\n      tag_27\n      jump\t// in\n    tag_61:\n      tag_62\n      jump\t// in\n    tag_60:\n      stop\n        /* \"contracts/Petisi.sol\":1909:2010  function gerAllProposal() public view returns (Proposal[] memory){... */\n    tag_14:\n      tag_63\n      tag_64\n      jump\t// in\n    tag_63:\n      mload(0x40)\n      tag_65\n      swap2\n      swap1\n      tag_30\n      jump\t// in\n    tag_65:\n      mload(0x40)\n      dup1\n      swap2\n      sub\n      swap1\n      return\n        /* \"contracts/Petisi.sol\":2354:2498  function vote(uint256 _id) public onlyRegisterd onlyHasNoVoted{... */\n    tag_19:\n        /* \"contracts/Petisi.sol\":972:1007  IProfile.profile memory profileTemp */\n      0x00\n        /* \"contracts/Petisi.sol\":1011:1026  profileContract */\n      0x01\n      0x00\n      swap1\n      sload\n      swap1\n      0x0100\n      exp\n      swap1\n      div\n      0xffffffffffffffffffffffffffffffffffffffff\n      and\n        /* \"contracts/Petisi.sol\":1011:1037  profileContract.getProfile */\n      0xffffffffffffffffffffffffffffffffffffffff\n      and\n      0x0f53a470\n        /* \"contracts/Petisi.sol\":1038:1048  msg.sender */\n      caller\n        /* \"contracts/Petisi.sol\":1011:1049  profileContract.getProfile(msg.sender) */\n      mload(0x40)\n      dup3\n      0xffffffff\n      and\n      0xe0\n      shl\n      dup2\n      mstore\n      0x04\n      add\n      tag_67\n      swap2\n      swap1\n      tag_45\n      jump\t// in\n    tag_67:\n      0x00\n      mload(0x40)\n      dup1\n      dup4\n      sub\n      dup2\n      dup7\n      gas\n      staticcall\n      iszero\n      dup1\n      iszero\n      tag_69\n      jumpi\n      returndatasize\n      0x00\n      dup1\n      returndatacopy\n      revert(0x00, returndatasize)\n    tag_69:\n      pop\n      pop\n      pop\n      pop\n      mload(0x40)\n      returndatasize\n      0x00\n      dup3\n      returndatacopy\n      returndatasize\n      not(0x1f)\n      0x1f\n      dup3\n      add\n      and\n      dup3\n      add\n      dup1\n      0x40\n      mstore\n      pop\n      dup2\n      add\n      swap1\n      tag_70\n      swap2\n      swap1\n      tag_71\n      jump\t// in\n    tag_70:\n        /* \"contracts/Petisi.sol\":972:1049  IProfile.profile memory profileTemp =  profileContract.getProfile(msg.sender) */\n      swap1\n      pop\n        /* \"contracts/Petisi.sol\":1067:1078  profileTemp */\n      dup1\n        /* \"contracts/Petisi.sol\":1067:1091  profileTemp.isRegistered */\n      0x40\n      add\n      mload\n        /* \"contracts/Petisi.sol\":1059:1117  require(profileTemp.isRegistered, \"You have to Registerd\") */\n      tag_72\n      jumpi\n      mload(0x40)\n      0x08c379a000000000000000000000000000000000000000000000000000000000\n      dup2\n      mstore\n      0x04\n      add\n      tag_73\n      swap1\n      tag_74\n      jump\t// in\n    tag_73:\n      mload(0x40)\n      dup1\n      swap2\n      sub\n      swap1\n      revert\n    tag_72:\n        /* \"contracts/Petisi.sol\":1185:1193  hasvoted */\n      0x05\n        /* \"contracts/Petisi.sol\":1185:1206  hasvoted[msg.sender ] */\n      0x00\n        /* \"contracts/Petisi.sol\":1194:1204  msg.sender */\n      caller\n        /* \"contracts/Petisi.sol\":1185:1206  hasvoted[msg.sender ] */\n      0xffffffffffffffffffffffffffffffffffffffff\n      and\n      0xffffffffffffffffffffffffffffffffffffffff\n      and\n      dup2\n      mstore\n      0x20\n      add\n      swap1\n      dup2\n      mstore\n      0x20\n      add\n      0x00\n      keccak256\n      0x00\n      swap1\n      sload\n      swap1\n      0x0100\n      exp\n      swap1\n      div\n      0xff\n      and\n        /* \"contracts/Petisi.sol\":1184:1206  !hasvoted[msg.sender ] */\n      iszero\n        /* \"contracts/Petisi.sol\":1176:1233  require(!hasvoted[msg.sender ], \"You are already Voted!\") */\n      tag_76\n      jumpi\n      mload(0x40)\n      0x08c379a000000000000000000000000000000000000000000000000000000000\n      dup2\n      mstore\n      0x04\n      add\n      tag_77\n      swap1\n      tag_78\n      jump\t// in\n    tag_77:\n      mload(0x40)\n      dup1\n      swap2\n      sub\n      swap1\n      revert\n    tag_76:\n        /* \"contracts/Petisi.sol\":2450:2451  1 */\n      0x01\n        /* \"contracts/Petisi.sol\":2426:2435  proposals */\n      0x04\n        /* \"contracts/Petisi.sol\":2426:2440  proposals[_id] */\n      0x00\n        /* \"contracts/Petisi.sol\":2436:2439  _id */\n      dup5\n        /* \"contracts/Petisi.sol\":2426:2440  proposals[_id] */\n      dup2\n      mstore\n      0x20\n      add\n      swap1\n      dup2\n      mstore\n      0x20\n      add\n      0x00\n      keccak256\n        /* \"contracts/Petisi.sol\":2426:2446  proposals[_id].votes */\n      0x03\n      add\n      0x00\n        /* \"contracts/Petisi.sol\":2426:2451  proposals[_id].votes += 1 */\n      dup3\n      dup3\n      sload\n      tag_80\n      swap2\n      swap1\n      tag_81\n      jump\t// in\n    tag_80:\n      swap3\n      pop\n      pop\n      dup2\n      swap1\n      sstore\n      pop\n        /* \"contracts/Petisi.sol\":2484:2488  true */\n      0x01\n        /* \"contracts/Petisi.sol\":2461:2469  hasvoted */\n      0x05\n        /* \"contracts/Petisi.sol\":2461:2481  hasvoted[msg.sender] */\n      0x00\n        /* \"contracts/Petisi.sol\":2470:2480  msg.sender */\n      caller\n        /* \"contracts/Petisi.sol\":2461:2481  hasvoted[msg.sender] */\n      0xffffffffffffffffffffffffffffffffffffffff\n      and\n      0xffffffffffffffffffffffffffffffffffffffff\n      and\n      dup2\n      mstore\n      0x20\n      add\n      swap1\n      dup2\n      mstore\n      0x20\n      add\n      0x00\n      keccak256\n      0x00\n        /* \"contracts/Petisi.sol\":2461:2488  hasvoted[msg.sender] = true */\n      0x0100\n      exp\n      dup2\n      sload\n      dup2\n      0xff\n      mul\n      not\n      and\n      swap1\n      dup4\n      iszero\n      iszero\n      mul\n      or\n      swap1\n      sstore\n      pop\n        /* \"contracts/Petisi.sol\":962:1135  {... */\n      pop\n        /* \"contracts/Petisi.sol\":2354:2498  function vote(uint256 _id) public onlyRegisterd onlyHasNoVoted{... */\n      pop\n      jump\t// out\n        /* \"contracts/Petisi.sol\":791:836  mapping(uint256 => Proposal) public proposals */\n    tag_22:\n      mstore(0x20, 0x04)\n      dup1\n      0x00\n      mstore\n      keccak256(0x00, 0x40)\n      0x00\n      swap2\n      pop\n      swap1\n      pop\n      dup1\n      0x00\n      add\n      sload\n      swap1\n      dup1\n      0x01\n      add\n      dup1\n      sload\n      tag_82\n      swap1\n      tag_83\n      jump\t// in\n    tag_82:\n      dup1\n      0x1f\n      add\n      0x20\n      dup1\n      swap2\n      div\n      mul\n      0x20\n      add\n      mload(0x40)\n      swap1\n      dup2\n      add\n      0x40\n      mstore\n      dup1\n      swap3\n      swap2\n      swap1\n      dup2\n      dup2\n      mstore\n      0x20\n      add\n      dup3\n      dup1\n      sload\n      tag_84\n      swap1\n      tag_83\n      jump\t// in\n    tag_84:\n      dup1\n      iszero\n      tag_85\n      jumpi\n      dup1\n      0x1f\n      lt\n      tag_86\n      jumpi\n      0x0100\n      dup1\n      dup4\n      sload\n      div\n      mul\n      dup4\n      mstore\n      swap2\n      0x20\n      add\n      swap2\n      jump(tag_85)\n    tag_86:\n      dup3\n      add\n      swap2\n      swap1\n      0x00\n      mstore\n      keccak256(0x00, 0x20)\n      swap1\n    tag_87:\n      dup2\n      sload\n      dup2\n      mstore\n      swap1\n      0x01\n      add\n      swap1\n      0x20\n      add\n      dup1\n      dup4\n      gt\n      tag_87\n      jumpi\n      dup3\n      swap1\n      sub\n      0x1f\n      and\n      dup3\n      add\n      swap2\n    tag_85:\n      pop\n      pop\n      pop\n      pop\n      pop\n      swap1\n      dup1\n      0x02\n      add\n      dup1\n      sload\n      tag_88\n      swap1\n      tag_83\n      jump\t// in\n    tag_88:\n      dup1\n      0x1f\n      add\n      0x20\n      dup1\n      swap2\n      div\n      mul\n      0x20\n      add\n      mload(0x40)\n      swap1\n      dup2\n      add\n      0x40\n      mstore\n      dup1\n      swap3\n      swap2\n      swap1\n      dup2\n      dup2\n      mstore\n      0x20\n      add\n      dup3\n      dup1\n      sload\n      tag_89\n      swap1\n      tag_83\n      jump\t// in\n    tag_89:\n      dup1\n      iszero\n      tag_90\n      jumpi\n      dup1\n      0x1f\n      lt\n      tag_91\n      jumpi\n      0x0100\n      dup1\n      dup4\n      sload\n      div\n      mul\n      dup4\n      mstore\n      swap2\n      0x20\n      add\n      swap2\n      jump(tag_90)\n    tag_91:\n      dup3\n      add\n      swap2\n      swap1\n      0x00\n      mstore\n      keccak256(0x00, 0x20)\n      swap1\n    tag_92:\n      dup2\n      sload\n      dup2\n      mstore\n      swap1\n      0x01\n      add\n      swap1\n      0x20\n      add\n      dup1\n      dup4\n      gt\n      tag_92\n      jumpi\n      dup3\n      swap1\n      sub\n      0x1f\n      and\n      dup3\n      add\n      swap2\n    tag_90:\n      pop\n      pop\n      pop\n      pop\n      pop\n      swap1\n      dup1\n      0x03\n      add\n      sload\n      swap1\n      dup1\n      0x04\n      add\n      dup1\n      sload\n      tag_93\n      swap1\n      tag_83\n      jump\t// in\n    tag_93:\n      dup1\n      0x1f\n      add\n      0x20\n      dup1\n      swap2\n      div\n      mul\n      0x20\n      add\n      mload(0x40)\n      swap1\n      dup2\n      add\n      0x40\n      mstore\n      dup1\n      swap3\n      swap2\n      swap1\n      dup2\n      dup2\n      mstore\n      0x20\n      add\n      dup3\n      dup1\n      sload\n      tag_94\n      swap1\n      tag_83\n      jump\t// in\n    tag_94:\n      dup1\n      iszero\n      tag_95\n      jumpi\n      dup1\n      0x1f\n      lt\n      tag_96\n      jumpi\n      0x0100\n      dup1\n      dup4\n      sload\n      div\n      mul\n      dup4\n      mstore\n      swap2\n      0x20\n      add\n      swap2\n      jump(tag_95)\n    tag_96:\n      dup3\n      add\n      swap2\n      swap1\n      0x00\n      mstore\n      keccak256(0x00, 0x20)\n      swap1\n    tag_97:\n      dup2\n      sload\n      dup2\n      mstore\n      swap1\n      0x01\n      add\n      swap1\n      0x20\n      add\n      dup1\n      dup4\n      gt\n      tag_97\n      jumpi\n      dup3\n      swap1\n      sub\n      0x1f\n      and\n      dup3\n      add\n      swap2\n    tag_95:\n      pop\n      pop\n      pop\n      pop\n      pop\n      swap1\n      dup1\n      0x05\n      add\n      sload\n      swap1\n      dup1\n      0x06\n      add\n      0x00\n      swap1\n      sload\n      swap1\n      0x0100\n      exp\n      swap1\n      div\n      0xffffffffffffffffffffffffffffffffffffffff\n      and\n      swap1\n      pop\n      dup8\n      jump\t// out\n        /* \"contracts/Petisi.sol\":2016:2134  function getMyProposal(address _user) public view returns (Proposal[] memory){... */\n    tag_28:\n        /* \"contracts/Petisi.sol\":2075:2092  Proposal[] memory */\n      0x60\n        /* \"contracts/Petisi.sol\":2110:2120  myProposal */\n      0x03\n        /* \"contracts/Petisi.sol\":2110:2127  myProposal[_user] */\n      0x00\n        /* \"contracts/Petisi.sol\":2121:2126  _user */\n      dup4\n        /* \"contracts/Petisi.sol\":2110:2127  myProposal[_user] */\n      0xffffffffffffffffffffffffffffffffffffffff\n      and\n      0xffffffffffffffffffffffffffffffffffffffff\n      and\n      dup2\n      mstore\n      0x20\n      add\n      swap1\n      dup2\n      mstore\n      0x20\n      add\n      0x00\n      keccak256\n        /* \"contracts/Petisi.sol\":2103:2127  return myProposal[_user] */\n      dup1\n      sload\n      dup1\n      0x20\n      mul\n      0x20\n      add\n      mload(0x40)\n      swap1\n      dup2\n      add\n      0x40\n      mstore\n      dup1\n      swap3\n      swap2\n      swap1\n      dup2\n      dup2\n      mstore\n      0x20\n      add\n      0x00\n      swap1\n    tag_99:\n      dup3\n      dup3\n      lt\n      iszero\n      tag_100\n      jumpi\n      dup4\n      dup3\n      swap1\n      0x00\n      mstore\n      keccak256(0x00, 0x20)\n      swap1\n      0x07\n      mul\n      add\n      mload(0x40)\n      dup1\n      0xe0\n      add\n      0x40\n      mstore\n      swap1\n      dup2\n      0x00\n      dup3\n      add\n      sload\n      dup2\n      mstore\n      0x20\n      add\n      0x01\n      dup3\n      add\n      dup1\n      sload\n      tag_102\n      swap1\n      tag_83\n      jump\t// in\n    tag_102:\n      dup1\n      0x1f\n      add\n      0x20\n      dup1\n      swap2\n      div\n      mul\n      0x20\n      add\n      mload(0x40)\n      swap1\n      dup2\n      add\n      0x40\n      mstore\n      dup1\n      swap3\n      swap2\n      swap1\n      dup2\n      dup2\n      mstore\n      0x20\n      add\n      dup3\n      dup1\n      sload\n      tag_103\n      swap1\n      tag_83\n      jump\t// in\n    tag_103:\n      dup1\n      iszero\n      tag_104\n      jumpi\n      dup1\n      0x1f\n      lt\n      tag_105\n      jumpi\n      0x0100\n      dup1\n      dup4\n      sload\n      div\n      mul\n      dup4\n      mstore\n      swap2\n      0x20\n      add\n      swap2\n      jump(tag_104)\n    tag_105:\n      dup3\n      add\n      swap2\n      swap1\n      0x00\n      mstore\n      keccak256(0x00, 0x20)\n      swap1\n    tag_106:\n      dup2\n      sload\n      dup2\n      mstore\n      swap1\n      0x01\n      add\n      swap1\n      0x20\n      add\n      dup1\n      dup4\n      gt\n      tag_106\n      jumpi\n      dup3\n      swap1\n      sub\n      0x1f\n      and\n      dup3\n      add\n      swap2\n    tag_104:\n      pop\n      pop\n      pop\n      pop\n      pop\n      dup2\n      mstore\n      0x20\n      add\n      0x02\n      dup3\n      add\n      dup1\n      sload\n      tag_107\n      swap1\n      tag_83\n      jump\t// in\n    tag_107:\n      dup1\n      0x1f\n      add\n      0x20\n      dup1\n      swap2\n      div\n      mul\n      0x20\n      add\n      mload(0x40)\n      swap1\n      dup2\n      add\n      0x40\n      mstore\n      dup1\n      swap3\n      swap2\n      swap1\n      dup2\n      dup2\n      mstore\n      0x20\n      add\n      dup3\n      dup1\n      sload\n      tag_108\n      swap1\n      tag_83\n      jump\t// in\n    tag_108:\n      dup1\n      iszero\n      tag_109\n      jumpi\n      dup1\n      0x1f\n      lt\n      tag_110\n      jumpi\n      0x0100\n      dup1\n      dup4\n      sload\n      div\n      mul\n      dup4\n      mstore\n      swap2\n      0x20\n      add\n      swap2\n      jump(tag_109)\n    tag_110:\n      dup3\n      add\n      swap2\n      swap1\n      0x00\n      mstore\n      keccak256(0x00, 0x20)\n      swap1\n    tag_111:\n      dup2\n      sload\n      dup2\n      mstore\n      swap1\n      0x01\n      add\n      swap1\n      0x20\n      add\n      dup1\n      dup4\n      gt\n      tag_111\n      jumpi\n      dup3\n      swap1\n      sub\n      0x1f\n      and\n      dup3\n      add\n      swap2\n    tag_109:\n      pop\n      pop\n      pop\n      pop\n      pop\n      dup2\n      mstore\n      0x20\n      add\n      0x03\n      dup3\n      add\n      sload\n      dup2\n      mstore\n      0x20\n      add\n      0x04\n      dup3\n      add\n      dup1\n      sload\n      tag_112\n      swap1\n      tag_83\n      jump\t// in\n    tag_112:\n      dup1\n      0x1f\n      add\n      0x20\n      dup1\n      swap2\n      div\n      mul\n      0x20\n      add\n      mload(0x40)\n      swap1\n      dup2\n      add\n      0x40\n      mstore\n      dup1\n      swap3\n      swap2\n      swap1\n      dup2\n      dup2\n      mstore\n      0x20\n      add\n      dup3\n      dup1\n      sload\n      tag_113\n      swap1\n      tag_83\n      jump\t// in\n    tag_113:\n      dup1\n      iszero\n      tag_114\n      jumpi\n      dup1\n      0x1f\n      lt\n      tag_115\n      jumpi\n      0x0100\n      dup1\n      dup4\n      sload\n      div\n      mul\n      dup4\n      mstore\n      swap2\n      0x20\n      add\n      swap2\n      jump(tag_114)\n    tag_115:\n      dup3\n      add\n      swap2\n      swap1\n      0x00\n      mstore\n      keccak256(0x00, 0x20)\n      swap1\n    tag_116:\n      dup2\n      sload\n      dup2\n      mstore\n      swap1\n      0x01\n      add\n      swap1\n      0x20\n      add\n      dup1\n      dup4\n      gt\n      tag_116\n      jumpi\n      dup3\n      swap1\n      sub\n      0x1f\n      and\n      dup3\n      add\n      swap2\n    tag_114:\n      pop\n      pop\n      pop\n      pop\n      pop\n      dup2\n      mstore\n      0x20\n      add\n      0x05\n      dup3\n      add\n      sload\n      dup2\n      mstore\n      0x20\n      add\n      0x06\n      dup3\n      add\n      0x00\n      swap1\n      sload\n      swap1\n      0x0100\n      exp\n      swap1\n      div\n      0xffffffffffffffffffffffffffffffffffffffff\n      and\n      0xffffffffffffffffffffffffffffffffffffffff\n      and\n      0xffffffffffffffffffffffffffffffffffffffff\n      and\n      dup2\n      mstore\n      pop\n      pop\n      dup2\n      mstore\n      0x20\n      add\n      swap1\n      0x01\n      add\n      swap1\n      jump(tag_99)\n    tag_100:\n      pop\n      pop\n      pop\n      pop\n      swap1\n      pop\n        /* \"contracts/Petisi.sol\":2016:2134  function getMyProposal(address _user) public view returns (Proposal[] memory){... */\n      swap2\n      swap1\n      pop\n      jump\t// out\n        /* \"contracts/Petisi.sol\":842:882  mapping(address => bool) public hasvoted */\n    tag_33:\n      mstore(0x20, 0x05)\n      dup1\n      0x00\n      mstore\n      keccak256(0x00, 0x40)\n      0x00\n      swap2\n      pop\n      sload\n      swap1\n      0x0100\n      exp\n      swap1\n      div\n      0xff\n      and\n      dup2\n      jump\t// out\n        /* \"contracts/Petisi.sol\":1263:1903  function createProposal(string memory _title, string memory _description, string memory _imgUrl, uint256 _deadline) onlyRegisterd public {... */\n    tag_39:\n        /* \"contracts/Petisi.sol\":972:1007  IProfile.profile memory profileTemp */\n      0x00\n        /* \"contracts/Petisi.sol\":1011:1026  profileContract */\n      0x01\n      0x00\n      swap1\n      sload\n      swap1\n      0x0100\n      exp\n      swap1\n      div\n      0xffffffffffffffffffffffffffffffffffffffff\n      and\n        /* \"contracts/Petisi.sol\":1011:1037  profileContract.getProfile */\n      0xffffffffffffffffffffffffffffffffffffffff\n      and\n      0x0f53a470\n        /* \"contracts/Petisi.sol\":1038:1048  msg.sender */\n      caller\n        /* \"contracts/Petisi.sol\":1011:1049  profileContract.getProfile(msg.sender) */\n      mload(0x40)\n      dup3\n      0xffffffff\n      and\n      0xe0\n      shl\n      dup2\n      mstore\n      0x04\n      add\n      tag_118\n      swap2\n      swap1\n      tag_45\n      jump\t// in\n    tag_118:\n      0x00\n      mload(0x40)\n      dup1\n      dup4\n      sub\n      dup2\n      dup7\n      gas\n      staticcall\n      iszero\n      dup1\n      iszero\n      tag_120\n      jumpi\n      returndatasize\n      0x00\n      dup1\n      returndatacopy\n      revert(0x00, returndatasize)\n    tag_120:\n      pop\n      pop\n      pop\n      pop\n      mload(0x40)\n      returndatasize\n      0x00\n      dup3\n      returndatacopy\n      returndatasize\n      not(0x1f)\n      0x1f\n      dup3\n      add\n      and\n      dup3\n      add\n      dup1\n      0x40\n      mstore\n      pop\n      dup2\n      add\n      swap1\n      tag_121\n      swap2\n      swap1\n      tag_71\n      jump\t// in\n    tag_121:\n        /* \"contracts/Petisi.sol\":972:1049  IProfile.profile memory profileTemp =  profileContract.getProfile(msg.sender) */\n      swap1\n      pop\n        /* \"contracts/Petisi.sol\":1067:1078  profileTemp */\n      dup1\n        /* \"contracts/Petisi.sol\":1067:1091  profileTemp.isRegistered */\n      0x40\n      add\n      mload\n        /* \"contracts/Petisi.sol\":1059:1117  require(profileTemp.isRegistered, \"You have to Registerd\") */\n      tag_122\n      jumpi\n      mload(0x40)\n      0x08c379a000000000000000000000000000000000000000000000000000000000\n      dup2\n      mstore\n      0x04\n      add\n      tag_123\n      swap1\n      tag_74\n      jump\t// in\n    tag_123:\n      mload(0x40)\n      dup1\n      swap2\n      sub\n      swap1\n      revert\n    tag_122:\n        /* \"contracts/Petisi.sol\":1410:1433  uint256 durationMinutes */\n      0x00\n        /* \"contracts/Petisi.sol\":1466:1475  1 minutes */\n      0x3c\n        /* \"contracts/Petisi.sol\":1455:1464  _deadline */\n      dup4\n        /* \"contracts/Petisi.sol\":1455:1475  _deadline* 1 minutes */\n      tag_125\n      swap2\n      swap1\n      tag_126\n      jump\t// in\n    tag_125:\n        /* \"contracts/Petisi.sol\":1436:1451  block.timestamp */\n      timestamp\n        /* \"contracts/Petisi.sol\":1436:1476  block.timestamp + (_deadline* 1 minutes) */\n      tag_127\n      swap2\n      swap1\n      tag_81\n      jump\t// in\n    tag_127:\n        /* \"contracts/Petisi.sol\":1410:1476  uint256 durationMinutes = block.timestamp + (_deadline* 1 minutes) */\n      swap1\n      pop\n        /* \"contracts/Petisi.sol\":1486:1513  Proposal memory newProposal */\n      0x00\n        /* \"contracts/Petisi.sol\":1516:1604  Proposal(counterProposal, _title, _description, 0, _imgUrl, durationMinutes, msg.sender) */\n      mload(0x40)\n      dup1\n      0xe0\n      add\n      0x40\n      mstore\n      dup1\n        /* \"contracts/Petisi.sol\":1525:1540  counterProposal */\n      sload(0x02)\n        /* \"contracts/Petisi.sol\":1516:1604  Proposal(counterProposal, _title, _description, 0, _imgUrl, durationMinutes, msg.sender) */\n      dup2\n      mstore\n      0x20\n      add\n        /* \"contracts/Petisi.sol\":1542:1548  _title */\n      dup9\n        /* \"contracts/Petisi.sol\":1516:1604  Proposal(counterProposal, _title, _description, 0, _imgUrl, durationMinutes, msg.sender) */\n      dup2\n      mstore\n      0x20\n      add\n        /* \"contracts/Petisi.sol\":1550:1562  _description */\n      dup8\n        /* \"contracts/Petisi.sol\":1516:1604  Proposal(counterProposal, _title, _description, 0, _imgUrl, durationMinutes, msg.sender) */\n      dup2\n      mstore\n      0x20\n      add\n        /* \"contracts/Petisi.sol\":1564:1565  0 */\n      0x00\n        /* \"contracts/Petisi.sol\":1516:1604  Proposal(counterProposal, _title, _description, 0, _imgUrl, durationMinutes, msg.sender) */\n      dup2\n      mstore\n      0x20\n      add\n        /* \"contracts/Petisi.sol\":1567:1574  _imgUrl */\n      dup7\n        /* \"contracts/Petisi.sol\":1516:1604  Proposal(counterProposal, _title, _description, 0, _imgUrl, durationMinutes, msg.sender) */\n      dup2\n      mstore\n      0x20\n      add\n        /* \"contracts/Petisi.sol\":1576:1591  durationMinutes */\n      dup4\n        /* \"contracts/Petisi.sol\":1516:1604  Proposal(counterProposal, _title, _description, 0, _imgUrl, durationMinutes, msg.sender) */\n      dup2\n      mstore\n      0x20\n      add\n        /* \"contracts/Petisi.sol\":1593:1603  msg.sender */\n      caller\n        /* \"contracts/Petisi.sol\":1516:1604  Proposal(counterProposal, _title, _description, 0, _imgUrl, durationMinutes, msg.sender) */\n      0xffffffffffffffffffffffffffffffffffffffff\n      and\n      dup2\n      mstore\n      pop\n        /* \"contracts/Petisi.sol\":1486:1604  Proposal memory newProposal = Proposal(counterProposal, _title, _description, 0, _imgUrl, durationMinutes, msg.sender) */\n      swap1\n      pop\n        /* \"contracts/Petisi.sol\":1643:1654  newProposal */\n      dup1\n        /* \"contracts/Petisi.sol\":1614:1623  proposals */\n      0x04\n        /* \"contracts/Petisi.sol\":1614:1640  proposals[counterProposal] */\n      0x00\n        /* \"contracts/Petisi.sol\":1624:1639  counterProposal */\n      sload(0x02)\n        /* \"contracts/Petisi.sol\":1614:1640  proposals[counterProposal] */\n      dup2\n      mstore\n      0x20\n      add\n      swap1\n      dup2\n      mstore\n      0x20\n      add\n      0x00\n      keccak256\n        /* \"contracts/Petisi.sol\":1614:1654  proposals[counterProposal] = newProposal */\n      0x00\n      dup3\n      add\n      mload\n      dup2\n      0x00\n      add\n      sstore\n      0x20\n      dup3\n      add\n      mload\n      dup2\n      0x01\n      add\n      swap1\n      dup2\n      tag_128\n      swap2\n      swap1\n      tag_129\n      jump\t// in\n    tag_128:\n      pop\n      0x40\n      dup3\n      add\n      mload\n      dup2\n      0x02\n      add\n      swap1\n      dup2\n      tag_130\n      swap2\n      swap1\n      tag_129\n      jump\t// in\n    tag_130:\n      pop\n      0x60\n      dup3\n      add\n      mload\n      dup2\n      0x03\n      add\n      sstore\n      0x80\n      dup3\n      add\n      mload\n      dup2\n      0x04\n      add\n      swap1\n      dup2\n      tag_131\n      swap2\n      swap1\n      tag_129\n      jump\t// in\n    tag_131:\n      pop\n      0xa0\n      dup3\n      add\n      mload\n      dup2\n      0x05\n      add\n      sstore\n      0xc0\n      dup3\n      add\n      mload\n      dup2\n      0x06\n      add\n      exp(0x0100, 0x00)\n      dup2\n      sload\n      dup2\n      0xffffffffffffffffffffffffffffffffffffffff\n      mul\n      not\n      and\n      swap1\n      dup4\n      0xffffffffffffffffffffffffffffffffffffffff\n      and\n      mul\n      or\n      swap1\n      sstore\n      pop\n      swap1\n      pop\n      pop\n        /* \"contracts/Petisi.sol\":1664:1674  myProposal */\n      0x03\n        /* \"contracts/Petisi.sol\":1664:1686  myProposal[msg.sender] */\n      0x00\n        /* \"contracts/Petisi.sol\":1675:1685  msg.sender */\n      caller\n        /* \"contracts/Petisi.sol\":1664:1686  myProposal[msg.sender] */\n      0xffffffffffffffffffffffffffffffffffffffff\n      and\n      0xffffffffffffffffffffffffffffffffffffffff\n      and\n      dup2\n      mstore\n      0x20\n      add\n      swap1\n      dup2\n      mstore\n      0x20\n      add\n      0x00\n      keccak256\n        /* \"contracts/Petisi.sol\":1692:1703  newProposal */\n      dup2\n        /* \"contracts/Petisi.sol\":1664:1704  myProposal[msg.sender].push(newProposal) */\n      swap1\n      dup1\n      0x01\n      dup2\n      sload\n      add\n      dup1\n      dup3\n      sstore\n      dup1\n      swap2\n      pop\n      pop\n      0x01\n      swap1\n      sub\n      swap1\n      0x00\n      mstore\n      keccak256(0x00, 0x20)\n      swap1\n      0x07\n      mul\n      add\n      0x00\n      swap1\n      swap2\n      swap1\n      swap2\n      swap1\n      swap2\n      pop\n      0x00\n      dup3\n      add\n      mload\n      dup2\n      0x00\n      add\n      sstore\n      0x20\n      dup3\n      add\n      mload\n      dup2\n      0x01\n      add\n      swap1\n      dup2\n      tag_133\n      swap2\n      swap1\n      tag_129\n      jump\t// in\n    tag_133:\n      pop\n      0x40\n      dup3\n      add\n      mload\n      dup2\n      0x02\n      add\n      swap1\n      dup2\n      tag_134\n      swap2\n      swap1\n      tag_129\n      jump\t// in\n    tag_134:\n      pop\n      0x60\n      dup3\n      add\n      mload\n      dup2\n      0x03\n      add\n      sstore\n      0x80\n      dup3\n      add\n      mload\n      dup2\n      0x04\n      add\n      swap1\n      dup2\n      tag_135\n      swap2\n      swap1\n      tag_129\n      jump\t// in\n    tag_135:\n      pop\n      0xa0\n      dup3\n      add\n      mload\n      dup2\n      0x05\n      add\n      sstore\n      0xc0\n      dup3\n      add\n      mload\n      dup2\n      0x06\n      add\n      exp(0x0100, 0x00)\n      dup2\n      sload\n      dup2\n      0xffffffffffffffffffffffffffffffffffffffff\n      mul\n      not\n      and\n      swap1\n      dup4\n      0xffffffffffffffffffffffffffffffffffffffff\n      and\n      mul\n      or\n      swap1\n      sstore\n      pop\n      pop\n      pop\n        /* \"contracts/Petisi.sol\":1714:1726  proposalList */\n      0x06\n        /* \"contracts/Petisi.sol\":1732:1741  proposals */\n      0x04\n        /* \"contracts/Petisi.sol\":1732:1758  proposals[counterProposal] */\n      0x00\n        /* \"contracts/Petisi.sol\":1742:1757  counterProposal */\n      sload(0x02)\n        /* \"contracts/Petisi.sol\":1732:1758  proposals[counterProposal] */\n      dup2\n      mstore\n      0x20\n      add\n      swap1\n      dup2\n      mstore\n      0x20\n      add\n      0x00\n      keccak256\n        /* \"contracts/Petisi.sol\":1714:1759  proposalList.push(proposals[counterProposal]) */\n      swap1\n      dup1\n      0x01\n      dup2\n      sload\n      add\n      dup1\n      dup3\n      sstore\n      dup1\n      swap2\n      pop\n      pop\n      0x01\n      swap1\n      sub\n      swap1\n      0x00\n      mstore\n      keccak256(0x00, 0x20)\n      swap1\n      0x07\n      mul\n      add\n      0x00\n      swap1\n      swap2\n      swap1\n      swap2\n      swap1\n      swap2\n      pop\n      0x00\n      dup3\n      add\n      sload\n      dup2\n      0x00\n      add\n      sstore\n      0x01\n      dup3\n      add\n      dup2\n      0x01\n      add\n      swap1\n      dup2\n      tag_137\n      swap2\n      swap1\n      tag_138\n      jump\t// in\n    tag_137:\n      pop\n      0x02\n      dup3\n      add\n      dup2\n      0x02\n      add\n      swap1\n      dup2\n      tag_139\n      swap2\n      swap1\n      tag_138\n      jump\t// in\n    tag_139:\n      pop\n      0x03\n      dup3\n      add\n      sload\n      dup2\n      0x03\n      add\n      sstore\n      0x04\n      dup3\n      add\n      dup2\n      0x04\n      add\n      swap1\n      dup2\n      tag_140\n      swap2\n      swap1\n      tag_138\n      jump\t// in\n    tag_140:\n      pop\n      0x05\n      dup3\n      add\n      sload\n      dup2\n      0x05\n      add\n      sstore\n      0x06\n      dup3\n      add\n      0x00\n      swap1\n      sload\n      swap1\n      0x0100\n      exp\n      swap1\n      div\n      0xffffffffffffffffffffffffffffffffffffffff\n      and\n      dup2\n      0x06\n      add\n      exp(0x0100, 0x00)\n      dup2\n      sload\n      dup2\n      0xffffffffffffffffffffffffffffffffffffffff\n      mul\n      not\n      and\n      swap1\n      dup4\n      0xffffffffffffffffffffffffffffffffffffffff\n      and\n      mul\n      or\n      swap1\n      sstore\n      pop\n      pop\n      pop\n        /* \"contracts/Petisi.sol\":1774:1869  proposalCreated(counterProposal, _title, _description, 0, _imgUrl, durationMinutes, msg.sender) */\n      0x1961f6452621f42ceb4621cac123d1a782ecd2620c2d8c755fbf8f7c849b24a4\n        /* \"contracts/Petisi.sol\":1790:1805  counterProposal */\n      sload(0x02)\n        /* \"contracts/Petisi.sol\":1807:1813  _title */\n      dup9\n        /* \"contracts/Petisi.sol\":1815:1827  _description */\n      dup9\n        /* \"contracts/Petisi.sol\":1829:1830  0 */\n      0x00\n        /* \"contracts/Petisi.sol\":1832:1839  _imgUrl */\n      dup10\n        /* \"contracts/Petisi.sol\":1841:1856  durationMinutes */\n      dup8\n        /* \"contracts/Petisi.sol\":1858:1868  msg.sender */\n      caller\n        /* \"contracts/Petisi.sol\":1774:1869  proposalCreated(counterProposal, _title, _description, 0, _imgUrl, durationMinutes, msg.sender) */\n      mload(0x40)\n      tag_141\n      swap8\n      swap7\n      swap6\n      swap5\n      swap4\n      swap3\n      swap2\n      swap1\n      tag_142\n      jump\t// in\n    tag_141:\n      mload(0x40)\n      dup1\n      swap2\n      sub\n      swap1\n      log1\n        /* \"contracts/Petisi.sol\":1879:1894  counterProposal */\n      0x02\n      0x00\n        /* \"contracts/Petisi.sol\":1879:1896  counterProposal++ */\n      dup2\n      sload\n      dup1\n      swap3\n      swap2\n      swap1\n      tag_143\n      swap1\n      tag_144\n      jump\t// in\n    tag_143:\n      swap2\n      swap1\n      pop\n      sstore\n      pop\n        /* \"contracts/Petisi.sol\":1400:1903  {... */\n      pop\n      pop\n        /* \"contracts/Petisi.sol\":962:1135  {... */\n      pop\n        /* \"contracts/Petisi.sol\":1263:1903  function createProposal(string memory _title, string memory _description, string memory _imgUrl, uint256 _deadline) onlyRegisterd public {... */\n      pop\n      pop\n      pop\n      pop\n      jump\t// out\n        /* \"@openzeppelin/contracts/access/Ownable.sol\":2293:2394  function renounceOwnership() public virtual onlyOwner {... */\n    tag_41:\n        /* \"@openzeppelin/contracts/access/Ownable.sol\":1531:1544  _checkOwner() */\n      tag_146\n        /* \"@openzeppelin/contracts/access/Ownable.sol\":1531:1542  _checkOwner */\n      tag_147\n        /* \"@openzeppelin/contracts/access/Ownable.sol\":1531:1544  _checkOwner() */\n      jump\t// in\n    tag_146:\n        /* \"@openzeppelin/contracts/access/Ownable.sol\":2357:2387  _transferOwnership(address(0)) */\n      tag_149\n        /* \"@openzeppelin/contracts/access/Ownable.sol\":2384:2385  0 */\n      0x00\n        /* \"@openzeppelin/contracts/access/Ownable.sol\":2357:2375  _transferOwnership */\n      tag_150\n        /* \"@openzeppelin/contracts/access/Ownable.sol\":2357:2387  _transferOwnership(address(0)) */\n      jump\t// in\n    tag_149:\n        /* \"@openzeppelin/contracts/access/Ownable.sol\":2293:2394  function renounceOwnership() public virtual onlyOwner {... */\n      jump\t// out\n        /* \"@openzeppelin/contracts/access/Ownable.sol\":1638:1723  function owner() public view virtual returns (address) {... */\n    tag_43:\n        /* \"@openzeppelin/contracts/access/Ownable.sol\":1684:1691  address */\n      0x00\n        /* \"@openzeppelin/contracts/access/Ownable.sol\":1710:1716  _owner */\n      dup1\n      0x00\n      swap1\n      sload\n      swap1\n      0x0100\n      exp\n      swap1\n      div\n      0xffffffffffffffffffffffffffffffffffffffff\n      and\n        /* \"@openzeppelin/contracts/access/Ownable.sol\":1703:1716  return _owner */\n      swap1\n      pop\n        /* \"@openzeppelin/contracts/access/Ownable.sol\":1638:1723  function owner() public view virtual returns (address) {... */\n      swap1\n      jump\t// out\n        /* \"contracts/Petisi.sol\":736:785  mapping (address => Proposal[]) public myProposal */\n    tag_49:\n      mstore(0x20, 0x03)\n      dup2\n      0x00\n      mstore\n      keccak256(0x00, 0x40)\n      dup2\n      dup2\n      sload\n      dup2\n      lt\n      tag_152\n      jumpi\n      0x00\n      dup1\n      revert\n    tag_152:\n      swap1\n      0x00\n      mstore\n      keccak256(0x00, 0x20)\n      swap1\n      0x07\n      mul\n      add\n      0x00\n      swap2\n      pop\n      swap2\n      pop\n      pop\n      dup1\n      0x00\n      add\n      sload\n      swap1\n      dup1\n      0x01\n      add\n      dup1\n      sload\n      tag_154\n      swap1\n      tag_83\n      jump\t// in\n    tag_154:\n      dup1\n      0x1f\n      add\n      0x20\n      dup1\n      swap2\n      div\n      mul\n      0x20\n      add\n      mload(0x40)\n      swap1\n      dup2\n      add\n      0x40\n      mstore\n      dup1\n      swap3\n      swap2\n      swap1\n      dup2\n      dup2\n      mstore\n      0x20\n      add\n      dup3\n      dup1\n      sload\n      tag_155\n      swap1\n      tag_83\n      jump\t// in\n    tag_155:\n      dup1\n      iszero\n      tag_156\n      jumpi\n      dup1\n      0x1f\n      lt\n      tag_157\n      jumpi\n      0x0100\n      dup1\n      dup4\n      sload\n      div\n      mul\n      dup4\n      mstore\n      swap2\n      0x20\n      add\n      swap2\n      jump(tag_156)\n    tag_157:\n      dup3\n      add\n      swap2\n      swap1\n      0x00\n      mstore\n      keccak256(0x00, 0x20)\n      swap1\n    tag_158:\n      dup2\n      sload\n      dup2\n      mstore\n      swap1\n      0x01\n      add\n      swap1\n      0x20\n      add\n      dup1\n      dup4\n      gt\n      tag_158\n      jumpi\n      dup3\n      swap1\n      sub\n      0x1f\n      and\n      dup3\n      add\n      swap2\n    tag_156:\n      pop\n      pop\n      pop\n      pop\n      pop\n      swap1\n      dup1\n      0x02\n      add\n      dup1\n      sload\n      tag_159\n      swap1\n      tag_83\n      jump\t// in\n    tag_159:\n      dup1\n      0x1f\n      add\n      0x20\n      dup1\n      swap2\n      div\n      mul\n      0x20\n      add\n      mload(0x40)\n      swap1\n      dup2\n      add\n      0x40\n      mstore\n      dup1\n      swap3\n      swap2\n      swap1\n      dup2\n      dup2\n      mstore\n      0x20\n      add\n      dup3\n      dup1\n      sload\n      tag_160\n      swap1\n      tag_83\n      jump\t// in\n    tag_160:\n      dup1\n      iszero\n      tag_161\n      jumpi\n      dup1\n      0x1f\n      lt\n      tag_162\n      jumpi\n      0x0100\n      dup1\n      dup4\n      sload\n      div\n      mul\n      dup4\n      mstore\n      swap2\n      0x20\n      add\n      swap2\n      jump(tag_161)\n    tag_162:\n      dup3\n      add\n      swap2\n      swap1\n      0x00\n      mstore\n      keccak256(0x00, 0x20)\n      swap1\n    tag_163:\n      dup2\n      sload\n      dup2\n      mstore\n      swap1\n      0x01\n      add\n      swap1\n      0x20\n      add\n      dup1\n      dup4\n      gt\n      tag_163\n      jumpi\n      dup3\n      swap1\n      sub\n      0x1f\n      and\n      dup3\n      add\n      swap2\n    tag_161:\n      pop\n      pop\n      pop\n      pop\n      pop\n      swap1\n      dup1\n      0x03\n      add\n      sload\n      swap1\n      dup1\n      0x04\n      add\n      dup1\n      sload\n      tag_164\n      swap1\n      tag_83\n      jump\t// in\n    tag_164:\n      dup1\n      0x1f\n      add\n      0x20\n      dup1\n      swap2\n      div\n      mul\n      0x20\n      add\n      mload(0x40)\n      swap1\n      dup2\n      add\n      0x40\n      mstore\n      dup1\n      swap3\n      swap2\n      swap1\n      dup2\n      dup2\n      mstore\n      0x20\n      add\n      dup3\n      dup1\n      sload\n      tag_165\n      swap1\n      tag_83\n      jump\t// in\n    tag_165:\n      dup1\n      iszero\n      tag_166\n      jumpi\n      dup1\n      0x1f\n      lt\n      tag_167\n      jumpi\n      0x0100\n      dup1\n      dup4\n      sload\n      div\n      mul\n      dup4\n      mstore\n      swap2\n      0x20\n      add\n      swap2\n      jump(tag_166)\n    tag_167:\n      dup3\n      add\n      swap2\n      swap1\n      0x00\n      mstore\n      keccak256(0x00, 0x20)\n      swap1\n    tag_168:\n      dup2\n      sload\n      dup2\n      mstore\n      swap1\n      0x01\n      add\n      swap1\n      0x20\n      add\n      dup1\n      dup4\n      gt\n      tag_168\n      jumpi\n      dup3\n      swap1\n      sub\n      0x1f\n      and\n      dup3\n      add\n      swap2\n    tag_166:\n      pop\n      pop\n      pop\n      pop\n      pop\n      swap1\n      dup1\n      0x05\n      add\n      sload\n      swap1\n      dup1\n      0x06\n      add\n      0x00\n      swap1\n      sload\n      swap1\n      0x0100\n      exp\n      swap1\n      div\n      0xffffffffffffffffffffffffffffffffffffffff\n      and\n      swap1\n      pop\n      dup8\n      jump\t// out\n        /* \"contracts/Petisi.sol\":901:931  Proposal[] public proposalList */\n    tag_53:\n      0x06\n      dup2\n      dup2\n      sload\n      dup2\n      lt\n      tag_169\n      jumpi\n      0x00\n      dup1\n      revert\n    tag_169:\n      swap1\n      0x00\n      mstore\n      keccak256(0x00, 0x20)\n      swap1\n      0x07\n      mul\n      add\n      0x00\n      swap2\n      pop\n      swap1\n      pop\n      dup1\n      0x00\n      add\n      sload\n      swap1\n      dup1\n      0x01\n      add\n      dup1\n      sload\n      tag_171\n      swap1\n      tag_83\n      jump\t// in\n    tag_171:\n      dup1\n      0x1f\n      add\n      0x20\n      dup1\n      swap2\n      div\n      mul\n      0x20\n      add\n      mload(0x40)\n      swap1\n      dup2\n      add\n      0x40\n      mstore\n      dup1\n      swap3\n      swap2\n      swap1\n      dup2\n      dup2\n      mstore\n      0x20\n      add\n      dup3\n      dup1\n      sload\n      tag_172\n      swap1\n      tag_83\n      jump\t// in\n    tag_172:\n      dup1\n      iszero\n      tag_173\n      jumpi\n      dup1\n      0x1f\n      lt\n      tag_174\n      jumpi\n      0x0100\n      dup1\n      dup4\n      sload\n      div\n      mul\n      dup4\n      mstore\n      swap2\n      0x20\n      add\n      swap2\n      jump(tag_173)\n    tag_174:\n      dup3\n      add\n      swap2\n      swap1\n      0x00\n      mstore\n      keccak256(0x00, 0x20)\n      swap1\n    tag_175:\n      dup2\n      sload\n      dup2\n      mstore\n      swap1\n      0x01\n      add\n      swap1\n      0x20\n      add\n      dup1\n      dup4\n      gt\n      tag_175\n      jumpi\n      dup3\n      swap1\n      sub\n      0x1f\n      and\n      dup3\n      add\n      swap2\n    tag_173:\n      pop\n      pop\n      pop\n      pop\n      pop\n      swap1\n      dup1\n      0x02\n      add\n      dup1\n      sload\n      tag_176\n      swap1\n      tag_83\n      jump\t// in\n    tag_176:\n      dup1\n      0x1f\n      add\n      0x20\n      dup1\n      swap2\n      div\n      mul\n      0x20\n      add\n      mload(0x40)\n      swap1\n      dup2\n      add\n      0x40\n      mstore\n      dup1\n      swap3\n      swap2\n      swap1\n      dup2\n      dup2\n      mstore\n      0x20\n      add\n      dup3\n      dup1\n      sload\n      tag_177\n      swap1\n      tag_83\n      jump\t// in\n    tag_177:\n      dup1\n      iszero\n      tag_178\n      jumpi\n      dup1\n      0x1f\n      lt\n      tag_179\n      jumpi\n      0x0100\n      dup1\n      dup4\n      sload\n      div\n      mul\n      dup4\n      mstore\n      swap2\n      0x20\n      add\n      swap2\n      jump(tag_178)\n    tag_179:\n      dup3\n      add\n      swap2\n      swap1\n      0x00\n      mstore\n      keccak256(0x00, 0x20)\n      swap1\n    tag_180:\n      dup2\n      sload\n      dup2\n      mstore\n      swap1\n      0x01\n      add\n      swap1\n      0x20\n      add\n      dup1\n      dup4\n      gt\n      tag_180\n      jumpi\n      dup3\n      swap1\n      sub\n      0x1f\n      and\n      dup3\n      add\n      swap2\n    tag_178:\n      pop\n      pop\n      pop\n      pop\n      pop\n      swap1\n      dup1\n      0x03\n      add\n      sload\n      swap1\n      dup1\n      0x04\n      add\n      dup1\n      sload\n      tag_181\n      swap1\n      tag_83\n      jump\t// in\n    tag_181:\n      dup1\n      0x1f\n      add\n      0x20\n      dup1\n      swap2\n      div\n      mul\n      0x20\n      add\n      mload(0x40)\n      swap1\n      dup2\n      add\n      0x40\n      mstore\n      dup1\n      swap3\n      swap2\n      swap1\n      dup2\n      dup2\n      mstore\n      0x20\n      add\n      dup3\n      dup1\n      sload\n      tag_182\n      swap1\n      tag_83\n      jump\t// in\n    tag_182:\n      dup1\n      iszero\n      tag_183\n      jumpi\n      dup1\n      0x1f\n      lt\n      tag_184\n      jumpi\n      0x0100\n      dup1\n      dup4\n      sload\n      div\n      mul\n      dup4\n      mstore\n      swap2\n      0x20\n      add\n      swap2\n      jump(tag_183)\n    tag_184:\n      dup3\n      add\n      swap2\n      swap1\n      0x00\n      mstore\n      keccak256(0x00, 0x20)\n      swap1\n    tag_185:\n      dup2\n      sload\n      dup2\n      mstore\n      swap1\n      0x01\n      add\n      swap1\n      0x20\n      add\n      dup1\n      dup4\n      gt\n      tag_185\n      jumpi\n      dup3\n      swap1\n      sub\n      0x1f\n      and\n      dup3\n      add\n      swap2\n    tag_183:\n      pop\n      pop\n      pop\n      pop\n      pop\n      swap1\n      dup1\n      0x05\n      add\n      sload\n      swap1\n      dup1\n      0x06\n      add\n      0x00\n      swap1\n      sload\n      swap1\n      0x0100\n      exp\n      swap1\n      div\n      0xffffffffffffffffffffffffffffffffffffffff\n      and\n      swap1\n      pop\n      dup8\n      jump\t// out\n        /* \"contracts/Petisi.sol\":2140:2348  function getProposal(uint256 _id) public view returns(string memory, string memory){... */\n    tag_57:\n        /* \"contracts/Petisi.sol\":2194:2207  string memory */\n      0x60\n        /* \"contracts/Petisi.sol\":2209:2222  string memory */\n      dup1\n        /* \"contracts/Petisi.sol\":2233:2261  Proposal memory proposalTemp */\n      0x00\n        /* \"contracts/Petisi.sol\":2264:2273  proposals */\n      0x04\n        /* \"contracts/Petisi.sol\":2264:2278  proposals[_id] */\n      0x00\n        /* \"contracts/Petisi.sol\":2274:2277  _id */\n      dup6\n        /* \"contracts/Petisi.sol\":2264:2278  proposals[_id] */\n      dup2\n      mstore\n      0x20\n      add\n      swap1\n      dup2\n      mstore\n      0x20\n      add\n      0x00\n      keccak256\n        /* \"contracts/Petisi.sol\":2233:2278  Proposal memory proposalTemp = proposals[_id] */\n      mload(0x40)\n      dup1\n      0xe0\n      add\n      0x40\n      mstore\n      swap1\n      dup2\n      0x00\n      dup3\n      add\n      sload\n      dup2\n      mstore\n      0x20\n      add\n      0x01\n      dup3\n      add\n      dup1\n      sload\n      tag_187\n      swap1\n      tag_83\n      jump\t// in\n    tag_187:\n      dup1\n      0x1f\n      add\n      0x20\n      dup1\n      swap2\n      div\n      mul\n      0x20\n      add\n      mload(0x40)\n      swap1\n      dup2\n      add\n      0x40\n      mstore\n      dup1\n      swap3\n      swap2\n      swap1\n      dup2\n      dup2\n      mstore\n      0x20\n      add\n      dup3\n      dup1\n      sload\n      tag_188\n      swap1\n      tag_83\n      jump\t// in\n    tag_188:\n      dup1\n      iszero\n      tag_189\n      jumpi\n      dup1\n      0x1f\n      lt\n      tag_190\n      jumpi\n      0x0100\n      dup1\n      dup4\n      sload\n      div\n      mul\n      dup4\n      mstore\n      swap2\n      0x20\n      add\n      swap2\n      jump(tag_189)\n    tag_190:\n      dup3\n      add\n      swap2\n      swap1\n      0x00\n      mstore\n      keccak256(0x00, 0x20)\n      swap1\n    tag_191:\n      dup2\n      sload\n      dup2\n      mstore\n      swap1\n      0x01\n      add\n      swap1\n      0x20\n      add\n      dup1\n      dup4\n      gt\n      tag_191\n      jumpi\n      dup3\n      swap1\n      sub\n      0x1f\n      and\n      dup3\n      add\n      swap2\n    tag_189:\n      pop\n      pop\n      pop\n      pop\n      pop\n      dup2\n      mstore\n      0x20\n      add\n      0x02\n      dup3\n      add\n      dup1\n      sload\n      tag_192\n      swap1\n      tag_83\n      jump\t// in\n    tag_192:\n      dup1\n      0x1f\n      add\n      0x20\n      dup1\n      swap2\n      div\n      mul\n      0x20\n      add\n      mload(0x40)\n      swap1\n      dup2\n      add\n      0x40\n      mstore\n      dup1\n      swap3\n      swap2\n      swap1\n      dup2\n      dup2\n      mstore\n      0x20\n      add\n      dup3\n      dup1\n      sload\n      tag_193\n      swap1\n      tag_83\n      jump\t// in\n    tag_193:\n      dup1\n      iszero\n      tag_194\n      jumpi\n      dup1\n      0x1f\n      lt\n      tag_195\n      jumpi\n      0x0100\n      dup1\n      dup4\n      sload\n      div\n      mul\n      dup4\n      mstore\n      swap2\n      0x20\n      add\n      swap2\n      jump(tag_194)\n    tag_195:\n      dup3\n      add\n      swap2\n      swap1\n      0x00\n      mstore\n      keccak256(0x00, 0x20)\n      swap1\n    tag_196:\n      dup2\n      sload\n      dup2\n      mstore\n      swap1\n      0x01\n      add\n      swap1\n      0x20\n      add\n      dup1\n      dup4\n      gt\n      tag_196\n      jumpi\n      dup3\n      swap1\n      sub\n      0x1f\n      and\n      dup3\n      add\n      swap2\n    tag_194:\n      pop\n      pop\n      pop\n      pop\n      pop\n      dup2\n      mstore\n      0x20\n      add\n      0x03\n      dup3\n      add\n      sload\n      dup2\n      mstore\n      0x20\n      add\n      0x04\n      dup3\n      add\n      dup1\n      sload\n      tag_197\n      swap1\n      tag_83\n      jump\t// in\n    tag_197:\n      dup1\n      0x1f\n      add\n      0x20\n      dup1\n      swap2\n      div\n      mul\n      0x20\n      add\n      mload(0x40)\n      swap1\n      dup2\n      add\n      0x40\n      mstore\n      dup1\n      swap3\n      swap2\n      swap1\n      dup2\n      dup2\n      mstore\n      0x20\n      add\n      dup3\n      dup1\n      sload\n      tag_198\n      swap1\n      tag_83\n      jump\t// in\n    tag_198:\n      dup1\n      iszero\n      tag_199\n      jumpi\n      dup1\n      0x1f\n      lt\n      tag_200\n      jumpi\n      0x0100\n      dup1\n      dup4\n      sload\n      div\n      mul\n      dup4\n      mstore\n      swap2\n      0x20\n      add\n      swap2\n      jump(tag_199)\n    tag_200:\n      dup3\n      add\n      swap2\n      swap1\n      0x00\n      mstore\n      keccak256(0x00, 0x20)\n      swap1\n    tag_201:\n      dup2\n      sload\n      dup2\n      mstore\n      swap1\n      0x01\n      add\n      swap1\n      0x20\n      add\n      dup1\n      dup4\n      gt\n      tag_201\n      jumpi\n      dup3\n      swap1\n      sub\n      0x1f\n      and\n      dup3\n      add\n      swap2\n    tag_199:\n      pop\n      pop\n      pop\n      pop\n      pop\n      dup2\n      mstore\n      0x20\n      add\n      0x05\n      dup3\n      add\n      sload\n      dup2\n      mstore\n      0x20\n      add\n      0x06\n      dup3\n      add\n      0x00\n      swap1\n      sload\n      swap1\n      0x0100\n      exp\n      swap1\n      div\n      0xffffffffffffffffffffffffffffffffffffffff\n      and\n      0xffffffffffffffffffffffffffffffffffffffff\n      and\n      0xffffffffffffffffffffffffffffffffffffffff\n      and\n      dup2\n      mstore\n      pop\n      pop\n      swap1\n      pop\n        /* \"contracts/Petisi.sol\":2296:2308  proposalTemp */\n      dup1\n        /* \"contracts/Petisi.sol\":2296:2314  proposalTemp.title */\n      0x20\n      add\n      mload\n        /* \"contracts/Petisi.sol\":2316:2328  proposalTemp */\n      dup2\n        /* \"contracts/Petisi.sol\":2316:2340  proposalTemp.description */\n      0x40\n      add\n      mload\n        /* \"contracts/Petisi.sol\":2288:2341  return (proposalTemp.title, proposalTemp.description) */\n      swap3\n      pop\n      swap3\n      pop\n      pop\n        /* \"contracts/Petisi.sol\":2140:2348  function getProposal(uint256 _id) public view returns(string memory, string memory){... */\n      swap2\n      pop\n      swap2\n      jump\t// out\n        /* \"@openzeppelin/contracts/access/Ownable.sol\":2543:2758  function transferOwnership(address newOwner) public virtual onlyOwner {... */\n    tag_62:\n        /* \"@openzeppelin/contracts/access/Ownable.sol\":1531:1544  _checkOwner() */\n      tag_203\n        /* \"@openzeppelin/contracts/access/Ownable.sol\":1531:1542  _checkOwner */\n      tag_147\n        /* \"@openzeppelin/contracts/access/Ownable.sol\":1531:1544  _checkOwner() */\n      jump\t// in\n    tag_203:\n        /* \"@openzeppelin/contracts/access/Ownable.sol\":2647:2648  0 */\n      0x00\n        /* \"@openzeppelin/contracts/access/Ownable.sol\":2627:2649  newOwner == address(0) */\n      0xffffffffffffffffffffffffffffffffffffffff\n      and\n        /* \"@openzeppelin/contracts/access/Ownable.sol\":2627:2635  newOwner */\n      dup2\n        /* \"@openzeppelin/contracts/access/Ownable.sol\":2627:2649  newOwner == address(0) */\n      0xffffffffffffffffffffffffffffffffffffffff\n      and\n      sub\n        /* \"@openzeppelin/contracts/access/Ownable.sol\":2623:2714  if (newOwner == address(0)) {... */\n      tag_205\n      jumpi\n        /* \"@openzeppelin/contracts/access/Ownable.sol\":2700:2701  0 */\n      0x00\n        /* \"@openzeppelin/contracts/access/Ownable.sol\":2672:2703  OwnableInvalidOwner(address(0)) */\n      mload(0x40)\n      0x1e4fbdf700000000000000000000000000000000000000000000000000000000\n      dup2\n      mstore\n      0x04\n      add\n      tag_206\n      swap2\n      swap1\n      tag_45\n      jump\t// in\n    tag_206:\n      mload(0x40)\n      dup1\n      swap2\n      sub\n      swap1\n      revert\n        /* \"@openzeppelin/contracts/access/Ownable.sol\":2623:2714  if (newOwner == address(0)) {... */\n    tag_205:\n        /* \"@openzeppelin/contracts/access/Ownable.sol\":2723:2751  _transferOwnership(newOwner) */\n      tag_207\n        /* \"@openzeppelin/contracts/access/Ownable.sol\":2742:2750  newOwner */\n      dup2\n        /* \"@openzeppelin/contracts/access/Ownable.sol\":2723:2741  _transferOwnership */\n      tag_150\n        /* \"@openzeppelin/contracts/access/Ownable.sol\":2723:2751  _transferOwnership(newOwner) */\n      jump\t// in\n    tag_207:\n        /* \"@openzeppelin/contracts/access/Ownable.sol\":2543:2758  function transferOwnership(address newOwner) public virtual onlyOwner {... */\n      pop\n      jump\t// out\n        /* \"contracts/Petisi.sol\":1909:2010  function gerAllProposal() public view returns (Proposal[] memory){... */\n    tag_64:\n        /* \"contracts/Petisi.sol\":1956:1973  Proposal[] memory */\n      0x60\n        /* \"contracts/Petisi.sol\":1991:2003  proposalList */\n      0x06\n        /* \"contracts/Petisi.sol\":1984:2003  return proposalList */\n      dup1\n      sload\n      dup1\n      0x20\n      mul\n      0x20\n      add\n      mload(0x40)\n      swap1\n      dup2\n      add\n      0x40\n      mstore\n      dup1\n      swap3\n      swap2\n      swap1\n      dup2\n      dup2\n      mstore\n      0x20\n      add\n      0x00\n      swap1\n    tag_209:\n      dup3\n      dup3\n      lt\n      iszero\n      tag_210\n      jumpi\n      dup4\n      dup3\n      swap1\n      0x00\n      mstore\n      keccak256(0x00, 0x20)\n      swap1\n      0x07\n      mul\n      add\n      mload(0x40)\n      dup1\n      0xe0\n      add\n      0x40\n      mstore\n      swap1\n      dup2\n      0x00\n      dup3\n      add\n      sload\n      dup2\n      mstore\n      0x20\n      add\n      0x01\n      dup3\n      add\n      dup1\n      sload\n      tag_212\n      swap1\n      tag_83\n      jump\t// in\n    tag_212:\n      dup1\n      0x1f\n      add\n      0x20\n      dup1\n      swap2\n      div\n      mul\n      0x20\n      add\n      mload(0x40)\n      swap1\n      dup2\n      add\n      0x40\n      mstore\n      dup1\n      swap3\n      swap2\n      swap1\n      dup2\n      dup2\n      mstore\n      0x20\n      add\n      dup3\n      dup1\n      sload\n      tag_213\n      swap1\n      tag_83\n      jump\t// in\n    tag_213:\n      dup1\n      iszero\n      tag_214\n      jumpi\n      dup1\n      0x1f\n      lt\n      tag_215\n      jumpi\n      0x0100\n      dup1\n      dup4\n      sload\n      div\n      mul\n      dup4\n      mstore\n      swap2\n      0x20\n      add\n      swap2\n      jump(tag_214)\n    tag_215:\n      dup3\n      add\n      swap2\n      swap1\n      0x00\n      mstore\n      keccak256(0x00, 0x20)\n      swap1\n    tag_216:\n      dup2\n      sload\n      dup2\n      mstore\n      swap1\n      0x01\n      add\n      swap1\n      0x20\n      add\n      dup1\n      dup4\n      gt\n      tag_216\n      jumpi\n      dup3\n      swap1\n      sub\n      0x1f\n      and\n      dup3\n      add\n      swap2\n    tag_214:\n      pop\n      pop\n      pop\n      pop\n      pop\n      dup2\n      mstore\n      0x20\n      add\n      0x02\n      dup3\n      add\n      dup1\n      sload\n      tag_217\n      swap1\n      tag_83\n      jump\t// in\n    tag_217:\n      dup1\n      0x1f\n      add\n      0x20\n      dup1\n      swap2\n      div\n      mul\n      0x20\n      add\n      mload(0x40)\n      swap1\n      dup2\n      add\n      0x40\n      mstore\n      dup1\n      swap3\n      swap2\n      swap1\n      dup2\n      dup2\n      mstore\n      0x20\n      add\n      dup3\n      dup1\n      sload\n      tag_218\n      swap1\n      tag_83\n      jump\t// in\n    tag_218:\n      dup1\n      iszero\n      tag_219\n      jumpi\n      dup1\n      0x1f\n      lt\n      tag_220\n      jumpi\n      0x0100\n      dup1\n      dup4\n      sload\n      div\n      mul\n      dup4\n      mstore\n      swap2\n      0x20\n      add\n      swap2\n      jump(tag_219)\n    tag_220:\n      dup3\n      add\n      swap2\n      swap1\n      0x00\n      mstore\n      keccak256(0x00, 0x20)\n      swap1\n    tag_221:\n      dup2\n      sload\n      dup2\n      mstore\n      swap1\n      0x01\n      add\n      swap1\n      0x20\n      add\n      dup1\n      dup4\n      gt\n      tag_221\n      jumpi\n      dup3\n      swap1\n      sub\n      0x1f\n      and\n      dup3\n      add\n      swap2\n    tag_219:\n      pop\n      pop\n      pop\n      pop\n      pop\n      dup2\n      mstore\n      0x20\n      add\n      0x03\n      dup3\n      add\n      sload\n      dup2\n      mstore\n      0x20\n      add\n      0x04\n      dup3\n      add\n      dup1\n      sload\n      tag_222\n      swap1\n      tag_83\n      jump\t// in\n    tag_222:\n      dup1\n      0x1f\n      add\n      0x20\n      dup1\n      swap2\n      div\n      mul\n      0x20\n      add\n      mload(0x40)\n      swap1\n      dup2\n      add\n      0x40\n      mstore\n      dup1\n      swap3\n      swap2\n      swap1\n      dup2\n      dup2\n      mstore\n      0x20\n      add\n      dup3\n      dup1\n      sload\n      tag_223\n      swap1\n      tag_83\n      jump\t// in\n    tag_223:\n      dup1\n      iszero\n      tag_224\n      jumpi\n      dup1\n      0x1f\n      lt\n      tag_225\n      jumpi\n      0x0100\n      dup1\n      dup4\n      sload\n      div\n      mul\n      dup4\n      mstore\n      swap2\n      0x20\n      add\n      swap2\n      jump(tag_224)\n    tag_225:\n      dup3\n      add\n      swap2\n      swap1\n      0x00\n      mstore\n      keccak256(0x00, 0x20)\n      swap1\n    tag_226:\n      dup2\n      sload\n      dup2\n      mstore\n      swap1\n      0x01\n      add\n      swap1\n      0x20\n      add\n      dup1\n      dup4\n      gt\n      tag_226\n      jumpi\n      dup3\n      swap1\n      sub\n      0x1f\n      and\n      dup3\n      add\n      swap2\n    tag_224:\n      pop\n      pop\n      pop\n      pop\n      pop\n      dup2\n      mstore\n      0x20\n      add\n      0x05\n      dup3\n      add\n      sload\n      dup2\n      mstore\n      0x20\n      add\n      0x06\n      dup3\n      add\n      0x00\n      swap1\n      sload\n      swap1\n      0x0100\n      exp\n      swap1\n      div\n      0xffffffffffffffffffffffffffffffffffffffff\n      and\n      0xffffffffffffffffffffffffffffffffffffffff\n      and\n      0xffffffffffffffffffffffffffffffffffffffff\n      and\n      dup2\n      mstore\n      pop\n      pop\n      dup2\n      mstore\n      0x20\n      add\n      swap1\n      0x01\n      add\n      swap1\n      jump(tag_209)\n    tag_210:\n      pop\n      pop\n      pop\n      pop\n      swap1\n      pop\n        /* \"contracts/Petisi.sol\":1909:2010  function gerAllProposal() public view returns (Proposal[] memory){... */\n      swap1\n      jump\t// out\n        /* \"@openzeppelin/contracts/access/Ownable.sol\":1796:1958  function _checkOwner() internal view virtual {... */\n    tag_147:\n        /* \"@openzeppelin/contracts/access/Ownable.sol\":1866:1878  _msgSender() */\n      tag_228\n        /* \"@openzeppelin/contracts/access/Ownable.sol\":1866:1876  _msgSender */\n      tag_229\n        /* \"@openzeppelin/contracts/access/Ownable.sol\":1866:1878  _msgSender() */\n      jump\t// in\n    tag_228:\n        /* \"@openzeppelin/contracts/access/Ownable.sol\":1855:1878  owner() != _msgSender() */\n      0xffffffffffffffffffffffffffffffffffffffff\n      and\n        /* \"@openzeppelin/contracts/access/Ownable.sol\":1855:1862  owner() */\n      tag_230\n        /* \"@openzeppelin/contracts/access/Ownable.sol\":1855:1860  owner */\n      tag_43\n        /* \"@openzeppelin/contracts/access/Ownable.sol\":1855:1862  owner() */\n      jump\t// in\n    tag_230:\n        /* \"@openzeppelin/contracts/access/Ownable.sol\":1855:1878  owner() != _msgSender() */\n      0xffffffffffffffffffffffffffffffffffffffff\n      and\n      eq\n        /* \"@openzeppelin/contracts/access/Ownable.sol\":1851:1952  if (owner() != _msgSender()) {... */\n      tag_231\n      jumpi\n        /* \"@openzeppelin/contracts/access/Ownable.sol\":1928:1940  _msgSender() */\n      tag_232\n        /* \"@openzeppelin/contracts/access/Ownable.sol\":1928:1938  _msgSender */\n      tag_229\n        /* \"@openzeppelin/contracts/access/Ownable.sol\":1928:1940  _msgSender() */\n      jump\t// in\n    tag_232:\n        /* \"@openzeppelin/contracts/access/Ownable.sol\":1901:1941  OwnableUnauthorizedAccount(_msgSender()) */\n      mload(0x40)\n      0x118cdaa700000000000000000000000000000000000000000000000000000000\n      dup2\n      mstore\n      0x04\n      add\n      tag_233\n      swap2\n      swap1\n      tag_45\n      jump\t// in\n    tag_233:\n      mload(0x40)\n      dup1\n      swap2\n      sub\n      swap1\n      revert\n        /* \"@openzeppelin/contracts/access/Ownable.sol\":1851:1952  if (owner() != _msgSender()) {... */\n    tag_231:\n        /* \"@openzeppelin/contracts/access/Ownable.sol\":1796:1958  function _checkOwner() internal view virtual {... */\n      jump\t// out\n        /* \"@openzeppelin/contracts/access/Ownable.sol\":2912:3099  function _transferOwnership(address newOwner) internal virtual {... */\n    tag_150:\n        /* \"@openzeppelin/contracts/access/Ownable.sol\":2985:3001  address oldOwner */\n      0x00\n        /* \"@openzeppelin/contracts/access/Ownable.sol\":3004:3010  _owner */\n      dup1\n      0x00\n      swap1\n      sload\n      swap1\n      0x0100\n      exp\n      swap1\n      div\n      0xffffffffffffffffffffffffffffffffffffffff\n      and\n        /* \"@openzeppelin/contracts/access/Ownable.sol\":2985:3010  address oldOwner = _owner */\n      swap1\n      pop\n        /* \"@openzeppelin/contracts/access/Ownable.sol\":3029:3037  newOwner */\n      dup2\n        /* \"@openzeppelin/contracts/access/Ownable.sol\":3020:3026  _owner */\n      0x00\n      dup1\n        /* \"@openzeppelin/contracts/access/Ownable.sol\":3020:3037  _owner = newOwner */\n      0x0100\n      exp\n      dup2\n      sload\n      dup2\n      0xffffffffffffffffffffffffffffffffffffffff\n      mul\n      not\n      and\n      swap1\n      dup4\n      0xffffffffffffffffffffffffffffffffffffffff\n      and\n      mul\n      or\n      swap1\n      sstore\n      pop\n        /* \"@openzeppelin/contracts/access/Ownable.sol\":3083:3091  newOwner */\n      dup2\n        /* \"@openzeppelin/contracts/access/Ownable.sol\":3052:3092  OwnershipTransferred(oldOwner, newOwner) */\n      0xffffffffffffffffffffffffffffffffffffffff\n      and\n        /* \"@openzeppelin/contracts/access/Ownable.sol\":3073:3081  oldOwner */\n      dup2\n        /* \"@openzeppelin/contracts/access/Ownable.sol\":3052:3092  OwnershipTransferred(oldOwner, newOwner) */\n      0xffffffffffffffffffffffffffffffffffffffff\n      and\n      0x8be0079c531659141344cd1fd0a4f28419497f9722a3daafe3b4186f6b6457e0\n      mload(0x40)\n      mload(0x40)\n      dup1\n      swap2\n      sub\n      swap1\n      log3\n        /* \"@openzeppelin/contracts/access/Ownable.sol\":2975:3099  {... */\n      pop\n        /* \"@openzeppelin/contracts/access/Ownable.sol\":2912:3099  function _transferOwnership(address newOwner) internal virtual {... */\n      pop\n      jump\t// out\n        /* \"@openzeppelin/contracts/utils/Context.sol\":656:752  function _msgSender() internal view virtual returns (address) {... */\n    tag_229:\n        /* \"@openzeppelin/contracts/utils/Context.sol\":709:716  address */\n      0x00\n        /* \"@openzeppelin/contracts/utils/Context.sol\":735:745  msg.sender */\n      caller\n        /* \"@openzeppelin/contracts/utils/Context.sol\":728:745  return msg.sender */\n      swap1\n      pop\n        /* \"@openzeppelin/contracts/utils/Context.sol\":656:752  function _msgSender() internal view virtual returns (address) {... */\n      swap1\n      jump\t// out\n        /* \"#utility.yul\":7:82   */\n    tag_236:\n        /* \"#utility.yul\":40:46   */\n      0x00\n        /* \"#utility.yul\":73:75   */\n      0x40\n        /* \"#utility.yul\":67:76   */\n      mload\n        /* \"#utility.yul\":57:76   */\n      swap1\n      pop\n        /* \"#utility.yul\":7:82   */\n      swap1\n      jump\t// out\n        /* \"#utility.yul\":88:205   */\n    tag_237:\n        /* \"#utility.yul\":197:198   */\n      0x00\n        /* \"#utility.yul\":194:195   */\n      dup1\n        /* \"#utility.yul\":187:199   */\n      revert\n        /* \"#utility.yul\":211:328   */\n    tag_238:\n        /* \"#utility.yul\":320:321   */\n      0x00\n        /* \"#utility.yul\":317:318   */\n      dup1\n        /* \"#utility.yul\":310:322   */\n      revert\n        /* \"#utility.yul\":334:411   */\n    tag_239:\n        /* \"#utility.yul\":371:378   */\n      0x00\n        /* \"#utility.yul\":400:405   */\n      dup2\n        /* \"#utility.yul\":389:405   */\n      swap1\n      pop\n        /* \"#utility.yul\":334:411   */\n      swap2\n      swap1\n      pop\n      jump\t// out\n        /* \"#utility.yul\":417:539   */\n    tag_240:\n        /* \"#utility.yul\":490:514   */\n      tag_313\n        /* \"#utility.yul\":508:513   */\n      dup2\n        /* \"#utility.yul\":490:514   */\n      tag_239\n      jump\t// in\n    tag_313:\n        /* \"#utility.yul\":483:488   */\n      dup2\n        /* \"#utility.yul\":480:515   */\n      eq\n        /* \"#utility.yul\":470:533   */\n      tag_314\n      jumpi\n        /* \"#utility.yul\":529:530   */\n      0x00\n        /* \"#utility.yul\":526:527   */\n      dup1\n        /* \"#utility.yul\":519:531   */\n      revert\n        /* \"#utility.yul\":470:533   */\n    tag_314:\n        /* \"#utility.yul\":417:539   */\n      pop\n      jump\t// out\n        /* \"#utility.yul\":545:684   */\n    tag_241:\n        /* \"#utility.yul\":591:596   */\n      0x00\n        /* \"#utility.yul\":629:635   */\n      dup2\n        /* \"#utility.yul\":616:636   */\n      calldataload\n        /* \"#utility.yul\":607:636   */\n      swap1\n      pop\n        /* \"#utility.yul\":645:678   */\n      tag_316\n        /* \"#utility.yul\":672:677   */\n      dup2\n        /* \"#utility.yul\":645:678   */\n      tag_240\n      jump\t// in\n    tag_316:\n        /* \"#utility.yul\":545:684   */\n      swap3\n      swap2\n      pop\n      pop\n      jump\t// out\n        /* \"#utility.yul\":690:1019   */\n    tag_18:\n        /* \"#utility.yul\":749:755   */\n      0x00\n        /* \"#utility.yul\":798:800   */\n      0x20\n        /* \"#utility.yul\":786:795   */\n      dup3\n        /* \"#utility.yul\":777:784   */\n      dup5\n        /* \"#utility.yul\":773:796   */\n      sub\n        /* \"#utility.yul\":769:801   */\n      slt\n        /* \"#utility.yul\":766:885   */\n      iszero\n      tag_318\n      jumpi\n        /* \"#utility.yul\":804:883   */\n      tag_319\n      tag_237\n      jump\t// in\n    tag_319:\n        /* \"#utility.yul\":766:885   */\n    tag_318:\n        /* \"#utility.yul\":924:925   */\n      0x00\n        /* \"#utility.yul\":949:1002   */\n      tag_320\n        /* \"#utility.yul\":994:1001   */\n      dup5\n        /* \"#utility.yul\":985:991   */\n      dup3\n        /* \"#utility.yul\":974:983   */\n      dup6\n        /* \"#utility.yul\":970:992   */\n      add\n        /* \"#utility.yul\":949:1002   */\n      tag_241\n      jump\t// in\n    tag_320:\n        /* \"#utility.yul\":939:1002   */\n      swap2\n      pop\n        /* \"#utility.yul\":895:1012   */\n      pop\n        /* \"#utility.yul\":690:1019   */\n      swap3\n      swap2\n      pop\n      pop\n      jump\t// out\n        /* \"#utility.yul\":1025:1143   */\n    tag_242:\n        /* \"#utility.yul\":1112:1136   */\n      tag_322\n        /* \"#utility.yul\":1130:1135   */\n      dup2\n        /* \"#utility.yul\":1112:1136   */\n      tag_239\n      jump\t// in\n    tag_322:\n        /* \"#utility.yul\":1107:1110   */\n      dup3\n        /* \"#utility.yul\":1100:1137   */\n      mstore\n        /* \"#utility.yul\":1025:1143   */\n      pop\n      pop\n      jump\t// out\n        /* \"#utility.yul\":1149:1248   */\n    tag_243:\n        /* \"#utility.yul\":1201:1207   */\n      0x00\n        /* \"#utility.yul\":1235:1240   */\n      dup2\n        /* \"#utility.yul\":1229:1241   */\n      mload\n        /* \"#utility.yul\":1219:1241   */\n      swap1\n      pop\n        /* \"#utility.yul\":1149:1248   */\n      swap2\n      swap1\n      pop\n      jump\t// out\n        /* \"#utility.yul\":1254:1423   */\n    tag_244:\n        /* \"#utility.yul\":1338:1349   */\n      0x00\n        /* \"#utility.yul\":1372:1378   */\n      dup3\n        /* \"#utility.yul\":1367:1370   */\n      dup3\n        /* \"#utility.yul\":1360:1379   */\n      mstore\n        /* \"#utility.yul\":1412:1416   */\n      0x20\n        /* \"#utility.yul\":1407:1410   */\n      dup3\n        /* \"#utility.yul\":1403:1417   */\n      add\n        /* \"#utility.yul\":1388:1417   */\n      swap1\n      pop\n        /* \"#utility.yul\":1254:1423   */\n      swap3\n      swap2\n      pop\n      pop\n      jump\t// out\n        /* \"#utility.yul\":1429:1568   */\n    tag_245:\n        /* \"#utility.yul\":1518:1524   */\n      dup3\n        /* \"#utility.yul\":1513:1516   */\n      dup2\n        /* \"#utility.yul\":1508:1511   */\n      dup4\n        /* \"#utility.yul\":1502:1525   */\n      mcopy\n        /* \"#utility.yul\":1559:1560   */\n      0x00\n        /* \"#utility.yul\":1550:1556   */\n      dup4\n        /* \"#utility.yul\":1545:1548   */\n      dup4\n        /* \"#utility.yul\":1541:1557   */\n      add\n        /* \"#utility.yul\":1534:1561   */\n      mstore\n        /* \"#utility.yul\":1429:1568   */\n      pop\n      pop\n      pop\n      jump\t// out\n        /* \"#utility.yul\":1574:1676   */\n    tag_246:\n        /* \"#utility.yul\":1615:1621   */\n      0x00\n        /* \"#utility.yul\":1666:1668   */\n      0x1f\n        /* \"#utility.yul\":1662:1669   */\n      not\n        /* \"#utility.yul\":1657:1659   */\n      0x1f\n        /* \"#utility.yul\":1650:1655   */\n      dup4\n        /* \"#utility.yul\":1646:1660   */\n      add\n        /* \"#utility.yul\":1642:1670   */\n      and\n        /* \"#utility.yul\":1632:1670   */\n      swap1\n      pop\n        /* \"#utility.yul\":1574:1676   */\n      swap2\n      swap1\n      pop\n      jump\t// out\n        /* \"#utility.yul\":1682:2059   */\n    tag_247:\n        /* \"#utility.yul\":1770:1773   */\n      0x00\n        /* \"#utility.yul\":1798:1837   */\n      tag_328\n        /* \"#utility.yul\":1831:1836   */\n      dup3\n        /* \"#utility.yul\":1798:1837   */\n      tag_243\n      jump\t// in\n    tag_328:\n        /* \"#utility.yul\":1853:1924   */\n      tag_329\n        /* \"#utility.yul\":1917:1923   */\n      dup2\n        /* \"#utility.yul\":1912:1915   */\n      dup6\n        /* \"#utility.yul\":1853:1924   */\n      tag_244\n      jump\t// in\n    tag_329:\n        /* \"#utility.yul\":1846:1924   */\n      swap4\n      pop\n        /* \"#utility.yul\":1933:1998   */\n      tag_330\n        /* \"#utility.yul\":1991:1997   */\n      dup2\n        /* \"#utility.yul\":1986:1989   */\n      dup6\n        /* \"#utility.yul\":1979:1983   */\n      0x20\n        /* \"#utility.yul\":1972:1977   */\n      dup7\n        /* \"#utility.yul\":1968:1984   */\n      add\n        /* \"#utility.yul\":1933:1998   */\n      tag_245\n      jump\t// in\n    tag_330:\n        /* \"#utility.yul\":2023:2052   */\n      tag_331\n        /* \"#utility.yul\":2045:2051   */\n      dup2\n        /* \"#utility.yul\":2023:2052   */\n      tag_246\n      jump\t// in\n    tag_331:\n        /* \"#utility.yul\":2018:2021   */\n      dup5\n        /* \"#utility.yul\":2014:2053   */\n      add\n        /* \"#utility.yul\":2007:2053   */\n      swap2\n      pop\n        /* \"#utility.yul\":1774:2059   */\n      pop\n        /* \"#utility.yul\":1682:2059   */\n      swap3\n      swap2\n      pop\n      pop\n      jump\t// out\n        /* \"#utility.yul\":2065:2191   */\n    tag_248:\n        /* \"#utility.yul\":2102:2109   */\n      0x00\n        /* \"#utility.yul\":2142:2184   */\n      0xffffffffffffffffffffffffffffffffffffffff\n        /* \"#utility.yul\":2135:2140   */\n      dup3\n        /* \"#utility.yul\":2131:2185   */\n      and\n        /* \"#utility.yul\":2120:2185   */\n      swap1\n      pop\n        /* \"#utility.yul\":2065:2191   */\n      swap2\n      swap1\n      pop\n      jump\t// out\n        /* \"#utility.yul\":2197:2293   */\n    tag_249:\n        /* \"#utility.yul\":2234:2241   */\n      0x00\n        /* \"#utility.yul\":2263:2287   */\n      tag_334\n        /* \"#utility.yul\":2281:2286   */\n      dup3\n        /* \"#utility.yul\":2263:2287   */\n      tag_248\n      jump\t// in\n    tag_334:\n        /* \"#utility.yul\":2252:2287   */\n      swap1\n      pop\n        /* \"#utility.yul\":2197:2293   */\n      swap2\n      swap1\n      pop\n      jump\t// out\n        /* \"#utility.yul\":2299:2417   */\n    tag_250:\n        /* \"#utility.yul\":2386:2410   */\n      tag_336\n        /* \"#utility.yul\":2404:2409   */\n      dup2\n        /* \"#utility.yul\":2386:2410   */\n      tag_249\n      jump\t// in\n    tag_336:\n        /* \"#utility.yul\":2381:2384   */\n      dup3\n        /* \"#utility.yul\":2374:2411   */\n      mstore\n        /* \"#utility.yul\":2299:2417   */\n      pop\n      pop\n      jump\t// out\n        /* \"#utility.yul\":2423:3582   */\n    tag_24:\n        /* \"#utility.yul\":2744:2748   */\n      0x00\n        /* \"#utility.yul\":2782:2785   */\n      0xe0\n        /* \"#utility.yul\":2771:2780   */\n      dup3\n        /* \"#utility.yul\":2767:2786   */\n      add\n        /* \"#utility.yul\":2759:2786   */\n      swap1\n      pop\n        /* \"#utility.yul\":2796:2867   */\n      tag_338\n        /* \"#utility.yul\":2864:2865   */\n      0x00\n        /* \"#utility.yul\":2853:2862   */\n      dup4\n        /* \"#utility.yul\":2849:2866   */\n      add\n        /* \"#utility.yul\":2840:2846   */\n      dup11\n        /* \"#utility.yul\":2796:2867   */\n      tag_242\n      jump\t// in\n    tag_338:\n        /* \"#utility.yul\":2914:2923   */\n      dup2\n        /* \"#utility.yul\":2908:2912   */\n      dup2\n        /* \"#utility.yul\":2904:2924   */\n      sub\n        /* \"#utility.yul\":2899:2901   */\n      0x20\n        /* \"#utility.yul\":2888:2897   */\n      dup4\n        /* \"#utility.yul\":2884:2902   */\n      add\n        /* \"#utility.yul\":2877:2925   */\n      mstore\n        /* \"#utility.yul\":2942:3020   */\n      tag_339\n        /* \"#utility.yul\":3015:3019   */\n      dup2\n        /* \"#utility.yul\":3006:3012   */\n      dup10\n        /* \"#utility.yul\":2942:3020   */\n      tag_247\n      jump\t// in\n    tag_339:\n        /* \"#utility.yul\":2934:3020   */\n      swap1\n      pop\n        /* \"#utility.yul\":3067:3076   */\n      dup2\n        /* \"#utility.yul\":3061:3065   */\n      dup2\n        /* \"#utility.yul\":3057:3077   */\n      sub\n        /* \"#utility.yul\":3052:3054   */\n      0x40\n        /* \"#utility.yul\":3041:3050   */\n      dup4\n        /* \"#utility.yul\":3037:3055   */\n      add\n        /* \"#utility.yul\":3030:3078   */\n      mstore\n        /* \"#utility.yul\":3095:3173   */\n      tag_340\n        /* \"#utility.yul\":3168:3172   */\n      dup2\n        /* \"#utility.yul\":3159:3165   */\n      dup9\n        /* \"#utility.yul\":3095:3173   */\n      tag_247\n      jump\t// in\n    tag_340:\n        /* \"#utility.yul\":3087:3173   */\n      swap1\n      pop\n        /* \"#utility.yul\":3183:3255   */\n      tag_341\n        /* \"#utility.yul\":3251:3253   */\n      0x60\n        /* \"#utility.yul\":3240:3249   */\n      dup4\n        /* \"#utility.yul\":3236:3254   */\n      add\n        /* \"#utility.yul\":3227:3233   */\n      dup8\n        /* \"#utility.yul\":3183:3255   */\n      tag_242\n      jump\t// in\n    tag_341:\n        /* \"#utility.yul\":3303:3312   */\n      dup2\n        /* \"#utility.yul\":3297:3301   */\n      dup2\n        /* \"#utility.yul\":3293:3313   */\n      sub\n        /* \"#utility.yul\":3287:3290   */\n      0x80\n        /* \"#utility.yul\":3276:3285   */\n      dup4\n        /* \"#utility.yul\":3272:3291   */\n      add\n        /* \"#utility.yul\":3265:3314   */\n      mstore\n        /* \"#utility.yul\":3331:3409   */\n      tag_342\n        /* \"#utility.yul\":3404:3408   */\n      dup2\n        /* \"#utility.yul\":3395:3401   */\n      dup7\n        /* \"#utility.yul\":3331:3409   */\n      tag_247\n      jump\t// in\n    tag_342:\n        /* \"#utility.yul\":3323:3409   */\n      swap1\n      pop\n        /* \"#utility.yul\":3419:3492   */\n      tag_343\n        /* \"#utility.yul\":3487:3490   */\n      0xa0\n        /* \"#utility.yul\":3476:3485   */\n      dup4\n        /* \"#utility.yul\":3472:3491   */\n      add\n        /* \"#utility.yul\":3463:3469   */\n      dup6\n        /* \"#utility.yul\":3419:3492   */\n      tag_242\n      jump\t// in\n    tag_343:\n        /* \"#utility.yul\":3502:3575   */\n      tag_344\n        /* \"#utility.yul\":3570:3573   */\n      0xc0\n        /* \"#utility.yul\":3559:3568   */\n      dup4\n        /* \"#utility.yul\":3555:3574   */\n      add\n        /* \"#utility.yul\":3546:3552   */\n      dup5\n        /* \"#utility.yul\":3502:3575   */\n      tag_250\n      jump\t// in\n    tag_344:\n        /* \"#utility.yul\":2423:3582   */\n      swap9\n      swap8\n      pop\n      pop\n      pop\n      pop\n      pop\n      pop\n      pop\n      pop\n      jump\t// out\n        /* \"#utility.yul\":3588:3710   */\n    tag_251:\n        /* \"#utility.yul\":3661:3685   */\n      tag_346\n        /* \"#utility.yul\":3679:3684   */\n      dup2\n        /* \"#utility.yul\":3661:3685   */\n      tag_249\n      jump\t// in\n    tag_346:\n        /* \"#utility.yul\":3654:3659   */\n      dup2\n        /* \"#utility.yul\":3651:3686   */\n      eq\n        /* \"#utility.yul\":3641:3704   */\n      tag_347\n      jumpi\n        /* \"#utility.yul\":3700:3701   */\n      0x00\n        /* \"#utility.yul\":3697:3698   */\n      dup1\n        /* \"#utility.yul\":3690:3702   */\n      revert\n        /* \"#utility.yul\":3641:3704   */\n    tag_347:\n        /* \"#utility.yul\":3588:3710   */\n      pop\n      jump\t// out\n        /* \"#utility.yul\":3716:3855   */\n    tag_252:\n        /* \"#utility.yul\":3762:3767   */\n      0x00\n        /* \"#utility.yul\":3800:3806   */\n      dup2\n        /* \"#utility.yul\":3787:3807   */\n      calldataload\n        /* \"#utility.yul\":3778:3807   */\n      swap1\n      pop\n        /* \"#utility.yul\":3816:3849   */\n      tag_349\n        /* \"#utility.yul\":3843:3848   */\n      dup2\n        /* \"#utility.yul\":3816:3849   */\n      tag_251\n      jump\t// in\n    tag_349:\n        /* \"#utility.yul\":3716:3855   */\n      swap3\n      swap2\n      pop\n      pop\n      jump\t// out\n        /* \"#utility.yul\":3861:4190   */\n    tag_27:\n        /* \"#utility.yul\":3920:3926   */\n      0x00\n        /* \"#utility.yul\":3969:3971   */\n      0x20\n        /* \"#utility.yul\":3957:3966   */\n      dup3\n        /* \"#utility.yul\":3948:3955   */\n      dup5\n        /* \"#utility.yul\":3944:3967   */\n      sub\n        /* \"#utility.yul\":3940:3972   */\n      slt\n        /* \"#utility.yul\":3937:4056   */\n      iszero\n      tag_351\n      jumpi\n        /* \"#utility.yul\":3975:4054   */\n      tag_352\n      tag_237\n      jump\t// in\n    tag_352:\n        /* \"#utility.yul\":3937:4056   */\n    tag_351:\n        /* \"#utility.yul\":4095:4096   */\n      0x00\n        /* \"#utility.yul\":4120:4173   */\n      tag_353\n        /* \"#utility.yul\":4165:4172   */\n      dup5\n        /* \"#utility.yul\":4156:4162   */\n      dup3\n        /* \"#utility.yul\":4145:4154   */\n      dup6\n        /* \"#utility.yul\":4141:4163   */\n      add\n        /* \"#utility.yul\":4120:4173   */\n      tag_252\n      jump\t// in\n    tag_353:\n        /* \"#utility.yul\":4110:4173   */\n      swap2\n      pop\n        /* \"#utility.yul\":4066:4183   */\n      pop\n        /* \"#utility.yul\":3861:4190   */\n      swap3\n      swap2\n      pop\n      pop\n      jump\t// out\n        /* \"#utility.yul\":4196:4335   */\n    tag_253:\n        /* \"#utility.yul\":4288:4294   */\n      0x00\n        /* \"#utility.yul\":4322:4327   */\n      dup2\n        /* \"#utility.yul\":4316:4328   */\n      mload\n        /* \"#utility.yul\":4306:4328   */\n      swap1\n      pop\n        /* \"#utility.yul\":4196:4335   */\n      swap2\n      swap1\n      pop\n      jump\t// out\n        /* \"#utility.yul\":4341:4550   */\n    tag_254:\n        /* \"#utility.yul\":4465:4476   */\n      0x00\n        /* \"#utility.yul\":4499:4505   */\n      dup3\n        /* \"#utility.yul\":4494:4497   */\n      dup3\n        /* \"#utility.yul\":4487:4506   */\n      mstore\n        /* \"#utility.yul\":4539:4543   */\n      0x20\n        /* \"#utility.yul\":4534:4537   */\n      dup3\n        /* \"#utility.yul\":4530:4544   */\n      add\n        /* \"#utility.yul\":4515:4544   */\n      swap1\n      pop\n        /* \"#utility.yul\":4341:4550   */\n      swap3\n      swap2\n      pop\n      pop\n      jump\t// out\n        /* \"#utility.yul\":4556:4713   */\n    tag_255:\n        /* \"#utility.yul\":4648:4652   */\n      0x00\n        /* \"#utility.yul\":4671:4674   */\n      dup2\n        /* \"#utility.yul\":4663:4674   */\n      swap1\n      pop\n        /* \"#utility.yul\":4701:4705   */\n      0x20\n        /* \"#utility.yul\":4696:4699   */\n      dup3\n        /* \"#utility.yul\":4692:4706   */\n      add\n        /* \"#utility.yul\":4684:4706   */\n      swap1\n      pop\n        /* \"#utility.yul\":4556:4713   */\n      swap2\n      swap1\n      pop\n      jump\t// out\n        /* \"#utility.yul\":4719:4827   */\n    tag_256:\n        /* \"#utility.yul\":4796:4820   */\n      tag_358\n        /* \"#utility.yul\":4814:4819   */\n      dup2\n        /* \"#utility.yul\":4796:4820   */\n      tag_239\n      jump\t// in\n    tag_358:\n        /* \"#utility.yul\":4791:4794   */\n      dup3\n        /* \"#utility.yul\":4784:4821   */\n      mstore\n        /* \"#utility.yul\":4719:4827   */\n      pop\n      pop\n      jump\t// out\n        /* \"#utility.yul\":4833:4992   */\n    tag_257:\n        /* \"#utility.yul\":4907:4918   */\n      0x00\n        /* \"#utility.yul\":4941:4947   */\n      dup3\n        /* \"#utility.yul\":4936:4939   */\n      dup3\n        /* \"#utility.yul\":4929:4948   */\n      mstore\n        /* \"#utility.yul\":4981:4985   */\n      0x20\n        /* \"#utility.yul\":4976:4979   */\n      dup3\n        /* \"#utility.yul\":4972:4986   */\n      add\n        /* \"#utility.yul\":4957:4986   */\n      swap1\n      pop\n        /* \"#utility.yul\":4833:4992   */\n      swap3\n      swap2\n      pop\n      pop\n      jump\t// out\n        /* \"#utility.yul\":4998:5355   */\n    tag_258:\n        /* \"#utility.yul\":5076:5079   */\n      0x00\n        /* \"#utility.yul\":5104:5143   */\n      tag_361\n        /* \"#utility.yul\":5137:5142   */\n      dup3\n        /* \"#utility.yul\":5104:5143   */\n      tag_243\n      jump\t// in\n    tag_361:\n        /* \"#utility.yul\":5159:5220   */\n      tag_362\n        /* \"#utility.yul\":5213:5219   */\n      dup2\n        /* \"#utility.yul\":5208:5211   */\n      dup6\n        /* \"#utility.yul\":5159:5220   */\n      tag_257\n      jump\t// in\n    tag_362:\n        /* \"#utility.yul\":5152:5220   */\n      swap4\n      pop\n        /* \"#utility.yul\":5229:5294   */\n      tag_363\n        /* \"#utility.yul\":5287:5293   */\n      dup2\n        /* \"#utility.yul\":5282:5285   */\n      dup6\n        /* \"#utility.yul\":5275:5279   */\n      0x20\n        /* \"#utility.yul\":5268:5273   */\n      dup7\n        /* \"#utility.yul\":5264:5280   */\n      add\n        /* \"#utility.yul\":5229:5294   */\n      tag_245\n      jump\t// in\n    tag_363:\n        /* \"#utility.yul\":5319:5348   */\n      tag_364\n        /* \"#utility.yul\":5341:5347   */\n      dup2\n        /* \"#utility.yul\":5319:5348   */\n      tag_246\n      jump\t// in\n    tag_364:\n        /* \"#utility.yul\":5314:5317   */\n      dup5\n        /* \"#utility.yul\":5310:5349   */\n      add\n        /* \"#utility.yul\":5303:5349   */\n      swap2\n      pop\n        /* \"#utility.yul\":5080:5355   */\n      pop\n        /* \"#utility.yul\":4998:5355   */\n      swap3\n      swap2\n      pop\n      pop\n      jump\t// out\n        /* \"#utility.yul\":5361:5469   */\n    tag_259:\n        /* \"#utility.yul\":5438:5462   */\n      tag_366\n        /* \"#utility.yul\":5456:5461   */\n      dup2\n        /* \"#utility.yul\":5438:5462   */\n      tag_249\n      jump\t// in\n    tag_366:\n        /* \"#utility.yul\":5433:5436   */\n      dup3\n        /* \"#utility.yul\":5426:5463   */\n      mstore\n        /* \"#utility.yul\":5361:5469   */\n      pop\n      pop\n      jump\t// out\n        /* \"#utility.yul\":5531:7154   */\n    tag_260:\n        /* \"#utility.yul\":5640:5643   */\n      0x00\n        /* \"#utility.yul\":5676:5680   */\n      0xe0\n        /* \"#utility.yul\":5671:5674   */\n      dup4\n        /* \"#utility.yul\":5667:5681   */\n      add\n        /* \"#utility.yul\":5761:5765   */\n      0x00\n        /* \"#utility.yul\":5754:5759   */\n      dup4\n        /* \"#utility.yul\":5750:5766   */\n      add\n        /* \"#utility.yul\":5744:5767   */\n      mload\n        /* \"#utility.yul\":5780:5843   */\n      tag_368\n        /* \"#utility.yul\":5837:5841   */\n      0x00\n        /* \"#utility.yul\":5832:5835   */\n      dup7\n        /* \"#utility.yul\":5828:5842   */\n      add\n        /* \"#utility.yul\":5814:5826   */\n      dup3\n        /* \"#utility.yul\":5780:5843   */\n      tag_256\n      jump\t// in\n    tag_368:\n        /* \"#utility.yul\":5691:5853   */\n      pop\n        /* \"#utility.yul\":5936:5940   */\n      0x20\n        /* \"#utility.yul\":5929:5934   */\n      dup4\n        /* \"#utility.yul\":5925:5941   */\n      add\n        /* \"#utility.yul\":5919:5942   */\n      mload\n        /* \"#utility.yul\":5989:5992   */\n      dup5\n        /* \"#utility.yul\":5983:5987   */\n      dup3\n        /* \"#utility.yul\":5979:5993   */\n      sub\n        /* \"#utility.yul\":5972:5976   */\n      0x20\n        /* \"#utility.yul\":5967:5970   */\n      dup7\n        /* \"#utility.yul\":5963:5977   */\n      add\n        /* \"#utility.yul\":5956:5994   */\n      mstore\n        /* \"#utility.yul\":6015:6088   */\n      tag_369\n        /* \"#utility.yul\":6083:6087   */\n      dup3\n        /* \"#utility.yul\":6069:6081   */\n      dup3\n        /* \"#utility.yul\":6015:6088   */\n      tag_258\n      jump\t// in\n    tag_369:\n        /* \"#utility.yul\":6007:6088   */\n      swap2\n      pop\n        /* \"#utility.yul\":5863:6099   */\n      pop\n        /* \"#utility.yul\":6188:6192   */\n      0x40\n        /* \"#utility.yul\":6181:6186   */\n      dup4\n        /* \"#utility.yul\":6177:6193   */\n      add\n        /* \"#utility.yul\":6171:6194   */\n      mload\n        /* \"#utility.yul\":6241:6244   */\n      dup5\n        /* \"#utility.yul\":6235:6239   */\n      dup3\n        /* \"#utility.yul\":6231:6245   */\n      sub\n        /* \"#utility.yul\":6224:6228   */\n      0x40\n        /* \"#utility.yul\":6219:6222   */\n      dup7\n        /* \"#utility.yul\":6215:6229   */\n      add\n        /* \"#utility.yul\":6208:6246   */\n      mstore\n        /* \"#utility.yul\":6267:6340   */\n      tag_370\n        /* \"#utility.yul\":6335:6339   */\n      dup3\n        /* \"#utility.yul\":6321:6333   */\n      dup3\n        /* \"#utility.yul\":6267:6340   */\n      tag_258\n      jump\t// in\n    tag_370:\n        /* \"#utility.yul\":6259:6340   */\n      swap2\n      pop\n        /* \"#utility.yul\":6109:6351   */\n      pop\n        /* \"#utility.yul\":6434:6438   */\n      0x60\n        /* \"#utility.yul\":6427:6432   */\n      dup4\n        /* \"#utility.yul\":6423:6439   */\n      add\n        /* \"#utility.yul\":6417:6440   */\n      mload\n        /* \"#utility.yul\":6453:6516   */\n      tag_371\n        /* \"#utility.yul\":6510:6514   */\n      0x60\n        /* \"#utility.yul\":6505:6508   */\n      dup7\n        /* \"#utility.yul\":6501:6515   */\n      add\n        /* \"#utility.yul\":6487:6499   */\n      dup3\n        /* \"#utility.yul\":6453:6516   */\n      tag_256\n      jump\t// in\n    tag_371:\n        /* \"#utility.yul\":6361:6526   */\n      pop\n        /* \"#utility.yul\":6610:6614   */\n      0x80\n        /* \"#utility.yul\":6603:6608   */\n      dup4\n        /* \"#utility.yul\":6599:6615   */\n      add\n        /* \"#utility.yul\":6593:6616   */\n      mload\n        /* \"#utility.yul\":6663:6666   */\n      dup5\n        /* \"#utility.yul\":6657:6661   */\n      dup3\n        /* \"#utility.yul\":6653:6667   */\n      sub\n        /* \"#utility.yul\":6646:6650   */\n      0x80\n        /* \"#utility.yul\":6641:6644   */\n      dup7\n        /* \"#utility.yul\":6637:6651   */\n      add\n        /* \"#utility.yul\":6630:6668   */\n      mstore\n        /* \"#utility.yul\":6689:6762   */\n      tag_372\n        /* \"#utility.yul\":6757:6761   */\n      dup3\n        /* \"#utility.yul\":6743:6755   */\n      dup3\n        /* \"#utility.yul\":6689:6762   */\n      tag_258\n      jump\t// in\n    tag_372:\n        /* \"#utility.yul\":6681:6762   */\n      swap2\n      pop\n        /* \"#utility.yul\":6536:6773   */\n      pop\n        /* \"#utility.yul\":6859:6863   */\n      0xa0\n        /* \"#utility.yul\":6852:6857   */\n      dup4\n        /* \"#utility.yul\":6848:6864   */\n      add\n        /* \"#utility.yul\":6842:6865   */\n      mload\n        /* \"#utility.yul\":6878:6941   */\n      tag_373\n        /* \"#utility.yul\":6935:6939   */\n      0xa0\n        /* \"#utility.yul\":6930:6933   */\n      dup7\n        /* \"#utility.yul\":6926:6940   */\n      add\n        /* \"#utility.yul\":6912:6924   */\n      dup3\n        /* \"#utility.yul\":6878:6941   */\n      tag_256\n      jump\t// in\n    tag_373:\n        /* \"#utility.yul\":6783:6951   */\n      pop\n        /* \"#utility.yul\":7035:7039   */\n      0xc0\n        /* \"#utility.yul\":7028:7033   */\n      dup4\n        /* \"#utility.yul\":7024:7040   */\n      add\n        /* \"#utility.yul\":7018:7041   */\n      mload\n        /* \"#utility.yul\":7054:7117   */\n      tag_374\n        /* \"#utility.yul\":7111:7115   */\n      0xc0\n        /* \"#utility.yul\":7106:7109   */\n      dup7\n        /* \"#utility.yul\":7102:7116   */\n      add\n        /* \"#utility.yul\":7088:7100   */\n      dup3\n        /* \"#utility.yul\":7054:7117   */\n      tag_259\n      jump\t// in\n    tag_374:\n        /* \"#utility.yul\":6961:7127   */\n      pop\n        /* \"#utility.yul\":7144:7148   */\n      dup1\n        /* \"#utility.yul\":7137:7148   */\n      swap2\n      pop\n        /* \"#utility.yul\":5645:7154   */\n      pop\n        /* \"#utility.yul\":5531:7154   */\n      swap3\n      swap2\n      pop\n      pop\n      jump\t// out\n        /* \"#utility.yul\":7160:7416   */\n    tag_261:\n        /* \"#utility.yul\":7279:7289   */\n      0x00\n        /* \"#utility.yul\":7314:7410   */\n      tag_376\n        /* \"#utility.yul\":7406:7409   */\n      dup4\n        /* \"#utility.yul\":7398:7404   */\n      dup4\n        /* \"#utility.yul\":7314:7410   */\n      tag_260\n      jump\t// in\n    tag_376:\n        /* \"#utility.yul\":7300:7410   */\n      swap1\n      pop\n        /* \"#utility.yul\":7160:7416   */\n      swap3\n      swap2\n      pop\n      pop\n      jump\t// out\n        /* \"#utility.yul\":7422:7560   */\n    tag_262:\n        /* \"#utility.yul\":7517:7521   */\n      0x00\n        /* \"#utility.yul\":7549:7553   */\n      0x20\n        /* \"#utility.yul\":7544:7547   */\n      dup3\n        /* \"#utility.yul\":7540:7554   */\n      add\n        /* \"#utility.yul\":7532:7554   */\n      swap1\n      pop\n        /* \"#utility.yul\":7422:7560   */\n      swap2\n      swap1\n      pop\n      jump\t// out\n        /* \"#utility.yul\":7626:8737   */\n    tag_263:\n        /* \"#utility.yul\":7795:7798   */\n      0x00\n        /* \"#utility.yul\":7824:7903   */\n      tag_379\n        /* \"#utility.yul\":7897:7902   */\n      dup3\n        /* \"#utility.yul\":7824:7903   */\n      tag_253\n      jump\t// in\n    tag_379:\n        /* \"#utility.yul\":7919:8030   */\n      tag_380\n        /* \"#utility.yul\":8023:8029   */\n      dup2\n        /* \"#utility.yul\":8018:8021   */\n      dup6\n        /* \"#utility.yul\":7919:8030   */\n      tag_254\n      jump\t// in\n    tag_380:\n        /* \"#utility.yul\":7912:8030   */\n      swap4\n      pop\n        /* \"#utility.yul\":8056:8059   */\n      dup4\n        /* \"#utility.yul\":8101:8105   */\n      0x20\n        /* \"#utility.yul\":8093:8099   */\n      dup3\n        /* \"#utility.yul\":8089:8106   */\n      mul\n        /* \"#utility.yul\":8084:8087   */\n      dup6\n        /* \"#utility.yul\":8080:8107   */\n      add\n        /* \"#utility.yul\":8131:8212   */\n      tag_381\n        /* \"#utility.yul\":8206:8211   */\n      dup6\n        /* \"#utility.yul\":8131:8212   */\n      tag_255\n      jump\t// in\n    tag_381:\n        /* \"#utility.yul\":8235:8242   */\n      dup1\n        /* \"#utility.yul\":8266:8267   */\n      0x00\n        /* \"#utility.yul\":8251:8692   */\n    tag_382:\n        /* \"#utility.yul\":8276:8282   */\n      dup6\n        /* \"#utility.yul\":8273:8274   */\n      dup2\n        /* \"#utility.yul\":8270:8283   */\n      lt\n        /* \"#utility.yul\":8251:8692   */\n      iszero\n      tag_384\n      jumpi\n        /* \"#utility.yul\":8347:8356   */\n      dup5\n        /* \"#utility.yul\":8341:8345   */\n      dup5\n        /* \"#utility.yul\":8337:8357   */\n      sub\n        /* \"#utility.yul\":8332:8335   */\n      dup10\n        /* \"#utility.yul\":8325:8358   */\n      mstore\n        /* \"#utility.yul\":8398:8404   */\n      dup2\n        /* \"#utility.yul\":8392:8405   */\n      mload\n        /* \"#utility.yul\":8426:8540   */\n      tag_385\n        /* \"#utility.yul\":8535:8539   */\n      dup6\n        /* \"#utility.yul\":8520:8533   */\n      dup3\n        /* \"#utility.yul\":8426:8540   */\n      tag_261\n      jump\t// in\n    tag_385:\n        /* \"#utility.yul\":8418:8540   */\n      swap5\n      pop\n        /* \"#utility.yul\":8563:8648   */\n      tag_386\n        /* \"#utility.yul\":8641:8647   */\n      dup4\n        /* \"#utility.yul\":8563:8648   */\n      tag_262\n      jump\t// in\n    tag_386:\n        /* \"#utility.yul\":8553:8648   */\n      swap3\n      pop\n        /* \"#utility.yul\":8677:8681   */\n      0x20\n        /* \"#utility.yul\":8672:8675   */\n      dup11\n        /* \"#utility.yul\":8668:8682   */\n      add\n        /* \"#utility.yul\":8661:8682   */\n      swap10\n      pop\n        /* \"#utility.yul\":8311:8692   */\n      pop\n        /* \"#utility.yul\":8298:8299   */\n      0x01\n        /* \"#utility.yul\":8295:8296   */\n      dup2\n        /* \"#utility.yul\":8291:8300   */\n      add\n        /* \"#utility.yul\":8286:8300   */\n      swap1\n      pop\n        /* \"#utility.yul\":8251:8692   */\n      jump(tag_382)\n    tag_384:\n        /* \"#utility.yul\":8255:8269   */\n      pop\n        /* \"#utility.yul\":8708:8712   */\n      dup3\n        /* \"#utility.yul\":8701:8712   */\n      swap8\n      pop\n        /* \"#utility.yul\":8728:8731   */\n      dup8\n        /* \"#utility.yul\":8721:8731   */\n      swap6\n      pop\n        /* \"#utility.yul\":7800:8737   */\n      pop\n      pop\n      pop\n      pop\n      pop\n        /* \"#utility.yul\":7626:8737   */\n      swap3\n      swap2\n      pop\n      pop\n      jump\t// out\n        /* \"#utility.yul\":8743:9216   */\n    tag_30:\n        /* \"#utility.yul\":8936:8940   */\n      0x00\n        /* \"#utility.yul\":8974:8976   */\n      0x20\n        /* \"#utility.yul\":8963:8972   */\n      dup3\n        /* \"#utility.yul\":8959:8977   */\n      add\n        /* \"#utility.yul\":8951:8977   */\n      swap1\n      pop\n        /* \"#utility.yul\":9023:9032   */\n      dup2\n        /* \"#utility.yul\":9017:9021   */\n      dup2\n        /* \"#utility.yul\":9013:9033   */\n      sub\n        /* \"#utility.yul\":9009:9010   */\n      0x00\n        /* \"#utility.yul\":8998:9007   */\n      dup4\n        /* \"#utility.yul\":8994:9011   */\n      add\n        /* \"#utility.yul\":8987:9034   */\n      mstore\n        /* \"#utility.yul\":9051:9209   */\n      tag_388\n        /* \"#utility.yul\":9204:9208   */\n      dup2\n        /* \"#utility.yul\":9195:9201   */\n      dup5\n        /* \"#utility.yul\":9051:9209   */\n      tag_263\n      jump\t// in\n    tag_388:\n        /* \"#utility.yul\":9043:9209   */\n      swap1\n      pop\n        /* \"#utility.yul\":8743:9216   */\n      swap3\n      swap2\n      pop\n      pop\n      jump\t// out\n        /* \"#utility.yul\":9222:9312   */\n    tag_264:\n        /* \"#utility.yul\":9256:9263   */\n      0x00\n        /* \"#utility.yul\":9299:9304   */\n      dup2\n        /* \"#utility.yul\":9292:9305   */\n      iszero\n        /* \"#utility.yul\":9285:9306   */\n      iszero\n        /* \"#utility.yul\":9274:9306   */\n      swap1\n      pop\n        /* \"#utility.yul\":9222:9312   */\n      swap2\n      swap1\n      pop\n      jump\t// out\n        /* \"#utility.yul\":9318:9427   */\n    tag_265:\n        /* \"#utility.yul\":9399:9420   */\n      tag_391\n        /* \"#utility.yul\":9414:9419   */\n      dup2\n        /* \"#utility.yul\":9399:9420   */\n      tag_264\n      jump\t// in\n    tag_391:\n        /* \"#utility.yul\":9394:9397   */\n      dup3\n        /* \"#utility.yul\":9387:9421   */\n      mstore\n        /* \"#utility.yul\":9318:9427   */\n      pop\n      pop\n      jump\t// out\n        /* \"#utility.yul\":9433:9643   */\n    tag_35:\n        /* \"#utility.yul\":9520:9524   */\n      0x00\n        /* \"#utility.yul\":9558:9560   */\n      0x20\n        /* \"#utility.yul\":9547:9556   */\n      dup3\n        /* \"#utility.yul\":9543:9561   */\n      add\n        /* \"#utility.yul\":9535:9561   */\n      swap1\n      pop\n        /* \"#utility.yul\":9571:9636   */\n      tag_393\n        /* \"#utility.yul\":9633:9634   */\n      0x00\n        /* \"#utility.yul\":9622:9631   */\n      dup4\n        /* \"#utility.yul\":9618:9635   */\n      add\n        /* \"#utility.yul\":9609:9615   */\n      dup5\n        /* \"#utility.yul\":9571:9636   */\n      tag_265\n      jump\t// in\n    tag_393:\n        /* \"#utility.yul\":9433:9643   */\n      swap3\n      swap2\n      pop\n      pop\n      jump\t// out\n        /* \"#utility.yul\":9649:9766   */\n    tag_266:\n        /* \"#utility.yul\":9758:9759   */\n      0x00\n        /* \"#utility.yul\":9755:9756   */\n      dup1\n        /* \"#utility.yul\":9748:9760   */\n      revert\n        /* \"#utility.yul\":9772:9889   */\n    tag_267:\n        /* \"#utility.yul\":9881:9882   */\n      0x00\n        /* \"#utility.yul\":9878:9879   */\n      dup1\n        /* \"#utility.yul\":9871:9883   */\n      revert\n        /* \"#utility.yul\":9895:10075   */\n    tag_268:\n        /* \"#utility.yul\":9943:10020   */\n      0x4e487b7100000000000000000000000000000000000000000000000000000000\n        /* \"#utility.yul\":9940:9941   */\n      0x00\n        /* \"#utility.yul\":9933:10021   */\n      mstore\n        /* \"#utility.yul\":10040:10044   */\n      0x41\n        /* \"#utility.yul\":10037:10038   */\n      0x04\n        /* \"#utility.yul\":10030:10045   */\n      mstore\n        /* \"#utility.yul\":10064:10068   */\n      0x24\n        /* \"#utility.yul\":10061:10062   */\n      0x00\n        /* \"#utility.yul\":10054:10069   */\n      revert\n        /* \"#utility.yul\":10081:10362   */\n    tag_269:\n        /* \"#utility.yul\":10164:10191   */\n      tag_398\n        /* \"#utility.yul\":10186:10190   */\n      dup3\n        /* \"#utility.yul\":10164:10191   */\n      tag_246\n      jump\t// in\n    tag_398:\n        /* \"#utility.yul\":10156:10162   */\n      dup2\n        /* \"#utility.yul\":10152:10192   */\n      add\n        /* \"#utility.yul\":10294:10300   */\n      dup2\n        /* \"#utility.yul\":10282:10292   */\n      dup2\n        /* \"#utility.yul\":10279:10301   */\n      lt\n        /* \"#utility.yul\":10258:10276   */\n      0xffffffffffffffff\n        /* \"#utility.yul\":10246:10256   */\n      dup3\n        /* \"#utility.yul\":10243:10277   */\n      gt\n        /* \"#utility.yul\":10240:10302   */\n      or\n        /* \"#utility.yul\":10237:10325   */\n      iszero\n      tag_399\n      jumpi\n        /* \"#utility.yul\":10305:10323   */\n      tag_400\n      tag_268\n      jump\t// in\n    tag_400:\n        /* \"#utility.yul\":10237:10325   */\n    tag_399:\n        /* \"#utility.yul\":10345:10355   */\n      dup1\n        /* \"#utility.yul\":10341:10343   */\n      0x40\n        /* \"#utility.yul\":10334:10356   */\n      mstore\n        /* \"#utility.yul\":10124:10362   */\n      pop\n        /* \"#utility.yul\":10081:10362   */\n      pop\n      pop\n      jump\t// out\n        /* \"#utility.yul\":10368:10497   */\n    tag_270:\n        /* \"#utility.yul\":10402:10408   */\n      0x00\n        /* \"#utility.yul\":10429:10449   */\n      tag_402\n      tag_236\n      jump\t// in\n    tag_402:\n        /* \"#utility.yul\":10419:10449   */\n      swap1\n      pop\n        /* \"#utility.yul\":10458:10491   */\n      tag_403\n        /* \"#utility.yul\":10486:10490   */\n      dup3\n        /* \"#utility.yul\":10478:10484   */\n      dup3\n        /* \"#utility.yul\":10458:10491   */\n      tag_269\n      jump\t// in\n    tag_403:\n        /* \"#utility.yul\":10368:10497   */\n      swap2\n      swap1\n      pop\n      jump\t// out\n        /* \"#utility.yul\":10503:10811   */\n    tag_271:\n        /* \"#utility.yul\":10565:10569   */\n      0x00\n        /* \"#utility.yul\":10655:10673   */\n      0xffffffffffffffff\n        /* \"#utility.yul\":10647:10653   */\n      dup3\n        /* \"#utility.yul\":10644:10674   */\n      gt\n        /* \"#utility.yul\":10641:10697   */\n      iszero\n      tag_405\n      jumpi\n        /* \"#utility.yul\":10677:10695   */\n      tag_406\n      tag_268\n      jump\t// in\n    tag_406:\n        /* \"#utility.yul\":10641:10697   */\n    tag_405:\n        /* \"#utility.yul\":10715:10744   */\n      tag_407\n        /* \"#utility.yul\":10737:10743   */\n      dup3\n        /* \"#utility.yul\":10715:10744   */\n      tag_246\n      jump\t// in\n    tag_407:\n        /* \"#utility.yul\":10707:10744   */\n      swap1\n      pop\n        /* \"#utility.yul\":10799:10803   */\n      0x20\n        /* \"#utility.yul\":10793:10797   */\n      dup2\n        /* \"#utility.yul\":10789:10804   */\n      add\n        /* \"#utility.yul\":10781:10804   */\n      swap1\n      pop\n        /* \"#utility.yul\":10503:10811   */\n      swap2\n      swap1\n      pop\n      jump\t// out\n        /* \"#utility.yul\":10817:10965   */\n    tag_272:\n        /* \"#utility.yul\":10915:10921   */\n      dup3\n        /* \"#utility.yul\":10910:10913   */\n      dup2\n        /* \"#utility.yul\":10905:10908   */\n      dup4\n        /* \"#utility.yul\":10892:10922   */\n      calldatacopy\n        /* \"#utility.yul\":10956:10957   */\n      0x00\n        /* \"#utility.yul\":10947:10953   */\n      dup4\n        /* \"#utility.yul\":10942:10945   */\n      dup4\n        /* \"#utility.yul\":10938:10954   */\n      add\n        /* \"#utility.yul\":10931:10958   */\n      mstore\n        /* \"#utility.yul\":10817:10965   */\n      pop\n      pop\n      pop\n      jump\t// out\n        /* \"#utility.yul\":10971:11396   */\n    tag_273:\n        /* \"#utility.yul\":11049:11054   */\n      0x00\n        /* \"#utility.yul\":11074:11140   */\n      tag_410\n        /* \"#utility.yul\":11090:11139   */\n      tag_411\n        /* \"#utility.yul\":11132:11138   */\n      dup5\n        /* \"#utility.yul\":11090:11139   */\n      tag_271\n      jump\t// in\n    tag_411:\n        /* \"#utility.yul\":11074:11140   */\n      tag_270\n      jump\t// in\n    tag_410:\n        /* \"#utility.yul\":11065:11140   */\n      swap1\n      pop\n        /* \"#utility.yul\":11163:11169   */\n      dup3\n        /* \"#utility.yul\":11156:11161   */\n      dup2\n        /* \"#utility.yul\":11149:11170   */\n      mstore\n        /* \"#utility.yul\":11201:11205   */\n      0x20\n        /* \"#utility.yul\":11194:11199   */\n      dup2\n        /* \"#utility.yul\":11190:11206   */\n      add\n        /* \"#utility.yul\":11239:11242   */\n      dup5\n        /* \"#utility.yul\":11230:11236   */\n      dup5\n        /* \"#utility.yul\":11225:11228   */\n      dup5\n        /* \"#utility.yul\":11221:11237   */\n      add\n        /* \"#utility.yul\":11218:11243   */\n      gt\n        /* \"#utility.yul\":11215:11327   */\n      iszero\n      tag_412\n      jumpi\n        /* \"#utility.yul\":11246:11325   */\n      tag_413\n      tag_267\n      jump\t// in\n    tag_413:\n        /* \"#utility.yul\":11215:11327   */\n    tag_412:\n        /* \"#utility.yul\":11336:11390   */\n      tag_414\n        /* \"#utility.yul\":11383:11389   */\n      dup5\n        /* \"#utility.yul\":11378:11381   */\n      dup3\n        /* \"#utility.yul\":11373:11376   */\n      dup6\n        /* \"#utility.yul\":11336:11390   */\n      tag_272\n      jump\t// in\n    tag_414:\n        /* \"#utility.yul\":11055:11396   */\n      pop\n        /* \"#utility.yul\":10971:11396   */\n      swap4\n      swap3\n      pop\n      pop\n      pop\n      jump\t// out\n        /* \"#utility.yul\":11416:11756   */\n    tag_274:\n        /* \"#utility.yul\":11472:11477   */\n      0x00\n        /* \"#utility.yul\":11521:11524   */\n      dup3\n        /* \"#utility.yul\":11514:11518   */\n      0x1f\n        /* \"#utility.yul\":11506:11512   */\n      dup4\n        /* \"#utility.yul\":11502:11519   */\n      add\n        /* \"#utility.yul\":11498:11525   */\n      slt\n        /* \"#utility.yul\":11488:11610   */\n      tag_416\n      jumpi\n        /* \"#utility.yul\":11529:11608   */\n      tag_417\n      tag_266\n      jump\t// in\n    tag_417:\n        /* \"#utility.yul\":11488:11610   */\n    tag_416:\n        /* \"#utility.yul\":11646:11652   */\n      dup2\n        /* \"#utility.yul\":11633:11653   */\n      calldataload\n        /* \"#utility.yul\":11671:11750   */\n      tag_418\n        /* \"#utility.yul\":11746:11749   */\n      dup5\n        /* \"#utility.yul\":11738:11744   */\n      dup3\n        /* \"#utility.yul\":11731:11735   */\n      0x20\n        /* \"#utility.yul\":11723:11729   */\n      dup7\n        /* \"#utility.yul\":11719:11736   */\n      add\n        /* \"#utility.yul\":11671:11750   */\n      tag_273\n      jump\t// in\n    tag_418:\n        /* \"#utility.yul\":11662:11750   */\n      swap2\n      pop\n        /* \"#utility.yul\":11478:11756   */\n      pop\n        /* \"#utility.yul\":11416:11756   */\n      swap3\n      swap2\n      pop\n      pop\n      jump\t// out\n        /* \"#utility.yul\":11762:13067   */\n    tag_38:\n        /* \"#utility.yul\":11878:11884   */\n      0x00\n        /* \"#utility.yul\":11886:11892   */\n      dup1\n        /* \"#utility.yul\":11894:11900   */\n      0x00\n        /* \"#utility.yul\":11902:11908   */\n      dup1\n        /* \"#utility.yul\":11951:11954   */\n      0x80\n        /* \"#utility.yul\":11939:11948   */\n      dup6\n        /* \"#utility.yul\":11930:11937   */\n      dup8\n        /* \"#utility.yul\":11926:11949   */\n      sub\n        /* \"#utility.yul\":11922:11955   */\n      slt\n        /* \"#utility.yul\":11919:12039   */\n      iszero\n      tag_420\n      jumpi\n        /* \"#utility.yul\":11958:12037   */\n      tag_421\n      tag_237\n      jump\t// in\n    tag_421:\n        /* \"#utility.yul\":11919:12039   */\n    tag_420:\n        /* \"#utility.yul\":12106:12107   */\n      0x00\n        /* \"#utility.yul\":12095:12104   */\n      dup6\n        /* \"#utility.yul\":12091:12108   */\n      add\n        /* \"#utility.yul\":12078:12109   */\n      calldataload\n        /* \"#utility.yul\":12136:12154   */\n      0xffffffffffffffff\n        /* \"#utility.yul\":12128:12134   */\n      dup2\n        /* \"#utility.yul\":12125:12155   */\n      gt\n        /* \"#utility.yul\":12122:12239   */\n      iszero\n      tag_422\n      jumpi\n        /* \"#utility.yul\":12158:12237   */\n      tag_423\n      tag_238\n      jump\t// in\n    tag_423:\n        /* \"#utility.yul\":12122:12239   */\n    tag_422:\n        /* \"#utility.yul\":12263:12326   */\n      tag_424\n        /* \"#utility.yul\":12318:12325   */\n      dup8\n        /* \"#utility.yul\":12309:12315   */\n      dup3\n        /* \"#utility.yul\":12298:12307   */\n      dup9\n        /* \"#utility.yul\":12294:12316   */\n      add\n        /* \"#utility.yul\":12263:12326   */\n      tag_274\n      jump\t// in\n    tag_424:\n        /* \"#utility.yul\":12253:12326   */\n      swap5\n      pop\n        /* \"#utility.yul\":12049:12336   */\n      pop\n        /* \"#utility.yul\":12403:12405   */\n      0x20\n        /* \"#utility.yul\":12392:12401   */\n      dup6\n        /* \"#utility.yul\":12388:12406   */\n      add\n        /* \"#utility.yul\":12375:12407   */\n      calldataload\n        /* \"#utility.yul\":12434:12452   */\n      0xffffffffffffffff\n        /* \"#utility.yul\":12426:12432   */\n      dup2\n        /* \"#utility.yul\":12423:12453   */\n      gt\n        /* \"#utility.yul\":12420:12537   */\n      iszero\n      tag_425\n      jumpi\n        /* \"#utility.yul\":12456:12535   */\n      tag_426\n      tag_238\n      jump\t// in\n    tag_426:\n        /* \"#utility.yul\":12420:12537   */\n    tag_425:\n        /* \"#utility.yul\":12561:12624   */\n      tag_427\n        /* \"#utility.yul\":12616:12623   */\n      dup8\n        /* \"#utility.yul\":12607:12613   */\n      dup3\n        /* \"#utility.yul\":12596:12605   */\n      dup9\n        /* \"#utility.yul\":12592:12614   */\n      add\n        /* \"#utility.yul\":12561:12624   */\n      tag_274\n      jump\t// in\n    tag_427:\n        /* \"#utility.yul\":12551:12624   */\n      swap4\n      pop\n        /* \"#utility.yul\":12346:12634   */\n      pop\n        /* \"#utility.yul\":12701:12703   */\n      0x40\n        /* \"#utility.yul\":12690:12699   */\n      dup6\n        /* \"#utility.yul\":12686:12704   */\n      add\n        /* \"#utility.yul\":12673:12705   */\n      calldataload\n        /* \"#utility.yul\":12732:12750   */\n      0xffffffffffffffff\n        /* \"#utility.yul\":12724:12730   */\n      dup2\n        /* \"#utility.yul\":12721:12751   */\n      gt\n        /* \"#utility.yul\":12718:12835   */\n      iszero\n      tag_428\n      jumpi\n        /* \"#utility.yul\":12754:12833   */\n      tag_429\n      tag_238\n      jump\t// in\n    tag_429:\n        /* \"#utility.yul\":12718:12835   */\n    tag_428:\n        /* \"#utility.yul\":12859:12922   */\n      tag_430\n        /* \"#utility.yul\":12914:12921   */\n      dup8\n        /* \"#utility.yul\":12905:12911   */\n      dup3\n        /* \"#utility.yul\":12894:12903   */\n      dup9\n        /* \"#utility.yul\":12890:12912   */\n      add\n        /* \"#utility.yul\":12859:12922   */\n      tag_274\n      jump\t// in\n    tag_430:\n        /* \"#utility.yul\":12849:12922   */\n      swap3\n      pop\n        /* \"#utility.yul\":12644:12932   */\n      pop\n        /* \"#utility.yul\":12971:12973   */\n      0x60\n        /* \"#utility.yul\":12997:13050   */\n      tag_431\n        /* \"#utility.yul\":13042:13049   */\n      dup8\n        /* \"#utility.yul\":13033:13039   */\n      dup3\n        /* \"#utility.yul\":13022:13031   */\n      dup9\n        /* \"#utility.yul\":13018:13040   */\n      add\n        /* \"#utility.yul\":12997:13050   */\n      tag_241\n      jump\t// in\n    tag_431:\n        /* \"#utility.yul\":12987:13050   */\n      swap2\n      pop\n        /* \"#utility.yul\":12942:13060   */\n      pop\n        /* \"#utility.yul\":11762:13067   */\n      swap3\n      swap6\n      swap2\n      swap5\n      pop\n      swap3\n      pop\n      jump\t// out\n        /* \"#utility.yul\":13073:13295   */\n    tag_45:\n        /* \"#utility.yul\":13166:13170   */\n      0x00\n        /* \"#utility.yul\":13204:13206   */\n      0x20\n        /* \"#utility.yul\":13193:13202   */\n      dup3\n        /* \"#utility.yul\":13189:13207   */\n      add\n        /* \"#utility.yul\":13181:13207   */\n      swap1\n      pop\n        /* \"#utility.yul\":13217:13288   */\n      tag_433\n        /* \"#utility.yul\":13285:13286   */\n      0x00\n        /* \"#utility.yul\":13274:13283   */\n      dup4\n        /* \"#utility.yul\":13270:13287   */\n      add\n        /* \"#utility.yul\":13261:13267   */\n      dup5\n        /* \"#utility.yul\":13217:13288   */\n      tag_250\n      jump\t// in\n    tag_433:\n        /* \"#utility.yul\":13073:13295   */\n      swap3\n      swap2\n      pop\n      pop\n      jump\t// out\n        /* \"#utility.yul\":13301:13775   */\n    tag_48:\n        /* \"#utility.yul\":13369:13375   */\n      0x00\n        /* \"#utility.yul\":13377:13383   */\n      dup1\n        /* \"#utility.yul\":13426:13428   */\n      0x40\n        /* \"#utility.yul\":13414:13423   */\n      dup4\n        /* \"#utility.yul\":13405:13412   */\n      dup6\n        /* \"#utility.yul\":13401:13424   */\n      sub\n        /* \"#utility.yul\":13397:13429   */\n      slt\n        /* \"#utility.yul\":13394:13513   */\n      iszero\n      tag_435\n      jumpi\n        /* \"#utility.yul\":13432:13511   */\n      tag_436\n      tag_237\n      jump\t// in\n    tag_436:\n        /* \"#utility.yul\":13394:13513   */\n    tag_435:\n        /* \"#utility.yul\":13552:13553   */\n      0x00\n        /* \"#utility.yul\":13577:13630   */\n      tag_437\n        /* \"#utility.yul\":13622:13629   */\n      dup6\n        /* \"#utility.yul\":13613:13619   */\n      dup3\n        /* \"#utility.yul\":13602:13611   */\n      dup7\n        /* \"#utility.yul\":13598:13620   */\n      add\n        /* \"#utility.yul\":13577:13630   */\n      tag_252\n      jump\t// in\n    tag_437:\n        /* \"#utility.yul\":13567:13630   */\n      swap3\n      pop\n        /* \"#utility.yul\":13523:13640   */\n      pop\n        /* \"#utility.yul\":13679:13681   */\n      0x20\n        /* \"#utility.yul\":13705:13758   */\n      tag_438\n        /* \"#utility.yul\":13750:13757   */\n      dup6\n        /* \"#utility.yul\":13741:13747   */\n      dup3\n        /* \"#utility.yul\":13730:13739   */\n      dup7\n        /* \"#utility.yul\":13726:13748   */\n      add\n        /* \"#utility.yul\":13705:13758   */\n      tag_241\n      jump\t// in\n    tag_438:\n        /* \"#utility.yul\":13695:13758   */\n      swap2\n      pop\n        /* \"#utility.yul\":13650:13768   */\n      pop\n        /* \"#utility.yul\":13301:13775   */\n      swap3\n      pop\n      swap3\n      swap1\n      pop\n      jump\t// out\n        /* \"#utility.yul\":13781:14295   */\n    tag_59:\n        /* \"#utility.yul\":13942:13946   */\n      0x00\n        /* \"#utility.yul\":13980:13982   */\n      0x40\n        /* \"#utility.yul\":13969:13978   */\n      dup3\n        /* \"#utility.yul\":13965:13983   */\n      add\n        /* \"#utility.yul\":13957:13983   */\n      swap1\n      pop\n        /* \"#utility.yul\":14029:14038   */\n      dup2\n        /* \"#utility.yul\":14023:14027   */\n      dup2\n        /* \"#utility.yul\":14019:14039   */\n      sub\n        /* \"#utility.yul\":14015:14016   */\n      0x00\n        /* \"#utility.yul\":14004:14013   */\n      dup4\n        /* \"#utility.yul\":14000:14017   */\n      add\n        /* \"#utility.yul\":13993:14040   */\n      mstore\n        /* \"#utility.yul\":14057:14135   */\n      tag_440\n        /* \"#utility.yul\":14130:14134   */\n      dup2\n        /* \"#utility.yul\":14121:14127   */\n      dup6\n        /* \"#utility.yul\":14057:14135   */\n      tag_247\n      jump\t// in\n    tag_440:\n        /* \"#utility.yul\":14049:14135   */\n      swap1\n      pop\n        /* \"#utility.yul\":14182:14191   */\n      dup2\n        /* \"#utility.yul\":14176:14180   */\n      dup2\n        /* \"#utility.yul\":14172:14192   */\n      sub\n        /* \"#utility.yul\":14167:14169   */\n      0x20\n        /* \"#utility.yul\":14156:14165   */\n      dup4\n        /* \"#utility.yul\":14152:14170   */\n      add\n        /* \"#utility.yul\":14145:14193   */\n      mstore\n        /* \"#utility.yul\":14210:14288   */\n      tag_441\n        /* \"#utility.yul\":14283:14287   */\n      dup2\n        /* \"#utility.yul\":14274:14280   */\n      dup5\n        /* \"#utility.yul\":14210:14288   */\n      tag_247\n      jump\t// in\n    tag_441:\n        /* \"#utility.yul\":14202:14288   */\n      swap1\n      pop\n        /* \"#utility.yul\":13781:14295   */\n      swap4\n      swap3\n      pop\n      pop\n      pop\n      jump\t// out\n        /* \"#utility.yul\":14301:14418   */\n    tag_275:\n        /* \"#utility.yul\":14410:14411   */\n      0x00\n        /* \"#utility.yul\":14407:14408   */\n      dup1\n        /* \"#utility.yul\":14400:14412   */\n      revert\n        /* \"#utility.yul\":14424:14541   */\n    tag_276:\n        /* \"#utility.yul\":14533:14534   */\n      0x00\n        /* \"#utility.yul\":14530:14531   */\n      dup1\n        /* \"#utility.yul\":14523:14535   */\n      revert\n        /* \"#utility.yul\":14547:14981   */\n    tag_277:\n        /* \"#utility.yul\":14636:14641   */\n      0x00\n        /* \"#utility.yul\":14661:14727   */\n      tag_445\n        /* \"#utility.yul\":14677:14726   */\n      tag_446\n        /* \"#utility.yul\":14719:14725   */\n      dup5\n        /* \"#utility.yul\":14677:14726   */\n      tag_271\n      jump\t// in\n    tag_446:\n        /* \"#utility.yul\":14661:14727   */\n      tag_270\n      jump\t// in\n    tag_445:\n        /* \"#utility.yul\":14652:14727   */\n      swap1\n      pop\n        /* \"#utility.yul\":14750:14756   */\n      dup3\n        /* \"#utility.yul\":14743:14748   */\n      dup2\n        /* \"#utility.yul\":14736:14757   */\n      mstore\n        /* \"#utility.yul\":14788:14792   */\n      0x20\n        /* \"#utility.yul\":14781:14786   */\n      dup2\n        /* \"#utility.yul\":14777:14793   */\n      add\n        /* \"#utility.yul\":14826:14829   */\n      dup5\n        /* \"#utility.yul\":14817:14823   */\n      dup5\n        /* \"#utility.yul\":14812:14815   */\n      dup5\n        /* \"#utility.yul\":14808:14824   */\n      add\n        /* \"#utility.yul\":14805:14830   */\n      gt\n        /* \"#utility.yul\":14802:14914   */\n      iszero\n      tag_447\n      jumpi\n        /* \"#utility.yul\":14833:14912   */\n      tag_448\n      tag_267\n      jump\t// in\n    tag_448:\n        /* \"#utility.yul\":14802:14914   */\n    tag_447:\n        /* \"#utility.yul\":14923:14975   */\n      tag_449\n        /* \"#utility.yul\":14968:14974   */\n      dup5\n        /* \"#utility.yul\":14963:14966   */\n      dup3\n        /* \"#utility.yul\":14958:14961   */\n      dup6\n        /* \"#utility.yul\":14923:14975   */\n      tag_245\n      jump\t// in\n    tag_449:\n        /* \"#utility.yul\":14642:14981   */\n      pop\n        /* \"#utility.yul\":14547:14981   */\n      swap4\n      swap3\n      pop\n      pop\n      pop\n      jump\t// out\n        /* \"#utility.yul\":15001:15356   */\n    tag_278:\n        /* \"#utility.yul\":15068:15073   */\n      0x00\n        /* \"#utility.yul\":15117:15120   */\n      dup3\n        /* \"#utility.yul\":15110:15114   */\n      0x1f\n        /* \"#utility.yul\":15102:15108   */\n      dup4\n        /* \"#utility.yul\":15098:15115   */\n      add\n        /* \"#utility.yul\":15094:15121   */\n      slt\n        /* \"#utility.yul\":15084:15206   */\n      tag_451\n      jumpi\n        /* \"#utility.yul\":15125:15204   */\n      tag_452\n      tag_266\n      jump\t// in\n    tag_452:\n        /* \"#utility.yul\":15084:15206   */\n    tag_451:\n        /* \"#utility.yul\":15235:15241   */\n      dup2\n        /* \"#utility.yul\":15229:15242   */\n      mload\n        /* \"#utility.yul\":15260:15350   */\n      tag_453\n        /* \"#utility.yul\":15346:15349   */\n      dup5\n        /* \"#utility.yul\":15338:15344   */\n      dup3\n        /* \"#utility.yul\":15331:15335   */\n      0x20\n        /* \"#utility.yul\":15323:15329   */\n      dup7\n        /* \"#utility.yul\":15319:15336   */\n      add\n        /* \"#utility.yul\":15260:15350   */\n      tag_277\n      jump\t// in\n    tag_453:\n        /* \"#utility.yul\":15251:15350   */\n      swap2\n      pop\n        /* \"#utility.yul\":15074:15356   */\n      pop\n        /* \"#utility.yul\":15001:15356   */\n      swap3\n      swap2\n      pop\n      pop\n      jump\t// out\n        /* \"#utility.yul\":15362:15478   */\n    tag_279:\n        /* \"#utility.yul\":15432:15453   */\n      tag_455\n        /* \"#utility.yul\":15447:15452   */\n      dup2\n        /* \"#utility.yul\":15432:15453   */\n      tag_264\n      jump\t// in\n    tag_455:\n        /* \"#utility.yul\":15425:15430   */\n      dup2\n        /* \"#utility.yul\":15422:15454   */\n      eq\n        /* \"#utility.yul\":15412:15472   */\n      tag_456\n      jumpi\n        /* \"#utility.yul\":15468:15469   */\n      0x00\n        /* \"#utility.yul\":15465:15466   */\n      dup1\n        /* \"#utility.yul\":15458:15470   */\n      revert\n        /* \"#utility.yul\":15412:15472   */\n    tag_456:\n        /* \"#utility.yul\":15362:15478   */\n      pop\n      jump\t// out\n        /* \"#utility.yul\":15484:15621   */\n    tag_280:\n        /* \"#utility.yul\":15538:15543   */\n      0x00\n        /* \"#utility.yul\":15569:15575   */\n      dup2\n        /* \"#utility.yul\":15563:15576   */\n      mload\n        /* \"#utility.yul\":15554:15576   */\n      swap1\n      pop\n        /* \"#utility.yul\":15585:15615   */\n      tag_458\n        /* \"#utility.yul\":15609:15614   */\n      dup2\n        /* \"#utility.yul\":15585:15615   */\n      tag_279\n      jump\t// in\n    tag_458:\n        /* \"#utility.yul\":15484:15621   */\n      swap3\n      swap2\n      pop\n      pop\n      jump\t// out\n        /* \"#utility.yul\":15658:16770   */\n    tag_281:\n        /* \"#utility.yul\":15742:15747   */\n      0x00\n        /* \"#utility.yul\":15786:15790   */\n      0x60\n        /* \"#utility.yul\":15774:15783   */\n      dup3\n        /* \"#utility.yul\":15769:15772   */\n      dup5\n        /* \"#utility.yul\":15765:15784   */\n      sub\n        /* \"#utility.yul\":15761:15791   */\n      slt\n        /* \"#utility.yul\":15758:15875   */\n      iszero\n      tag_460\n      jumpi\n        /* \"#utility.yul\":15794:15873   */\n      tag_461\n      tag_275\n      jump\t// in\n    tag_461:\n        /* \"#utility.yul\":15758:15875   */\n    tag_460:\n        /* \"#utility.yul\":15893:15914   */\n      tag_462\n        /* \"#utility.yul\":15909:15913   */\n      0x60\n        /* \"#utility.yul\":15893:15914   */\n      tag_270\n      jump\t// in\n    tag_462:\n        /* \"#utility.yul\":15884:15914   */\n      swap1\n      pop\n        /* \"#utility.yul\":15998:15999   */\n      0x00\n        /* \"#utility.yul\":15987:15996   */\n      dup3\n        /* \"#utility.yul\":15983:16000   */\n      add\n        /* \"#utility.yul\":15977:16001   */\n      mload\n        /* \"#utility.yul\":16028:16046   */\n      0xffffffffffffffff\n        /* \"#utility.yul\":16020:16026   */\n      dup2\n        /* \"#utility.yul\":16017:16047   */\n      gt\n        /* \"#utility.yul\":16014:16131   */\n      iszero\n      tag_463\n      jumpi\n        /* \"#utility.yul\":16050:16129   */\n      tag_464\n      tag_276\n      jump\t// in\n    tag_464:\n        /* \"#utility.yul\":16014:16131   */\n    tag_463:\n        /* \"#utility.yul\":16170:16240   */\n      tag_465\n        /* \"#utility.yul\":16236:16239   */\n      dup5\n        /* \"#utility.yul\":16227:16233   */\n      dup3\n        /* \"#utility.yul\":16216:16225   */\n      dup6\n        /* \"#utility.yul\":16212:16234   */\n      add\n        /* \"#utility.yul\":16170:16240   */\n      tag_278\n      jump\t// in\n    tag_465:\n        /* \"#utility.yul\":16163:16167   */\n      0x00\n        /* \"#utility.yul\":16156:16161   */\n      dup4\n        /* \"#utility.yul\":16152:16168   */\n      add\n        /* \"#utility.yul\":16145:16241   */\n      mstore\n        /* \"#utility.yul\":15924:16252   */\n      pop\n        /* \"#utility.yul\":16331:16333   */\n      0x20\n        /* \"#utility.yul\":16320:16329   */\n      dup3\n        /* \"#utility.yul\":16316:16334   */\n      add\n        /* \"#utility.yul\":16310:16335   */\n      mload\n        /* \"#utility.yul\":16362:16380   */\n      0xffffffffffffffff\n        /* \"#utility.yul\":16354:16360   */\n      dup2\n        /* \"#utility.yul\":16351:16381   */\n      gt\n        /* \"#utility.yul\":16348:16465   */\n      iszero\n      tag_466\n      jumpi\n        /* \"#utility.yul\":16384:16463   */\n      tag_467\n      tag_276\n      jump\t// in\n    tag_467:\n        /* \"#utility.yul\":16348:16465   */\n    tag_466:\n        /* \"#utility.yul\":16504:16574   */\n      tag_468\n        /* \"#utility.yul\":16570:16573   */\n      dup5\n        /* \"#utility.yul\":16561:16567   */\n      dup3\n        /* \"#utility.yul\":16550:16559   */\n      dup6\n        /* \"#utility.yul\":16546:16568   */\n      add\n        /* \"#utility.yul\":16504:16574   */\n      tag_278\n      jump\t// in\n    tag_468:\n        /* \"#utility.yul\":16497:16501   */\n      0x20\n        /* \"#utility.yul\":16490:16495   */\n      dup4\n        /* \"#utility.yul\":16486:16502   */\n      add\n        /* \"#utility.yul\":16479:16575   */\n      mstore\n        /* \"#utility.yul\":16262:16586   */\n      pop\n        /* \"#utility.yul\":16653:16655   */\n      0x40\n        /* \"#utility.yul\":16694:16751   */\n      tag_469\n        /* \"#utility.yul\":16747:16750   */\n      dup5\n        /* \"#utility.yul\":16738:16744   */\n      dup3\n        /* \"#utility.yul\":16727:16736   */\n      dup6\n        /* \"#utility.yul\":16723:16745   */\n      add\n        /* \"#utility.yul\":16694:16751   */\n      tag_280\n      jump\t// in\n    tag_469:\n        /* \"#utility.yul\":16687:16691   */\n      0x40\n        /* \"#utility.yul\":16680:16685   */\n      dup4\n        /* \"#utility.yul\":16676:16692   */\n      add\n        /* \"#utility.yul\":16669:16752   */\n      mstore\n        /* \"#utility.yul\":16596:16763   */\n      pop\n        /* \"#utility.yul\":15658:16770   */\n      swap3\n      swap2\n      pop\n      pop\n      jump\t// out\n        /* \"#utility.yul\":16776:17328   */\n    tag_71:\n        /* \"#utility.yul\":16870:16876   */\n      0x00\n        /* \"#utility.yul\":16919:16921   */\n      0x20\n        /* \"#utility.yul\":16907:16916   */\n      dup3\n        /* \"#utility.yul\":16898:16905   */\n      dup5\n        /* \"#utility.yul\":16894:16917   */\n      sub\n        /* \"#utility.yul\":16890:16922   */\n      slt\n        /* \"#utility.yul\":16887:17006   */\n      iszero\n      tag_471\n      jumpi\n        /* \"#utility.yul\":16925:17004   */\n      tag_472\n      tag_237\n      jump\t// in\n    tag_472:\n        /* \"#utility.yul\":16887:17006   */\n    tag_471:\n        /* \"#utility.yul\":17066:17067   */\n      0x00\n        /* \"#utility.yul\":17055:17064   */\n      dup3\n        /* \"#utility.yul\":17051:17068   */\n      add\n        /* \"#utility.yul\":17045:17069   */\n      mload\n        /* \"#utility.yul\":17096:17114   */\n      0xffffffffffffffff\n        /* \"#utility.yul\":17088:17094   */\n      dup2\n        /* \"#utility.yul\":17085:17115   */\n      gt\n        /* \"#utility.yul\":17082:17199   */\n      iszero\n      tag_473\n      jumpi\n        /* \"#utility.yul\":17118:17197   */\n      tag_474\n      tag_238\n      jump\t// in\n    tag_474:\n        /* \"#utility.yul\":17082:17199   */\n    tag_473:\n        /* \"#utility.yul\":17223:17311   */\n      tag_475\n        /* \"#utility.yul\":17303:17310   */\n      dup5\n        /* \"#utility.yul\":17294:17300   */\n      dup3\n        /* \"#utility.yul\":17283:17292   */\n      dup6\n        /* \"#utility.yul\":17279:17301   */\n      add\n        /* \"#utility.yul\":17223:17311   */\n      tag_281\n      jump\t// in\n    tag_475:\n        /* \"#utility.yul\":17213:17311   */\n      swap2\n      pop\n        /* \"#utility.yul\":17016:17321   */\n      pop\n        /* \"#utility.yul\":16776:17328   */\n      swap3\n      swap2\n      pop\n      pop\n      jump\t// out\n        /* \"#utility.yul\":17334:17505   */\n    tag_282:\n        /* \"#utility.yul\":17474:17497   */\n      0x596f75206861766520746f205265676973746572640000000000000000000000\n        /* \"#utility.yul\":17470:17471   */\n      0x00\n        /* \"#utility.yul\":17462:17468   */\n      dup3\n        /* \"#utility.yul\":17458:17472   */\n      add\n        /* \"#utility.yul\":17451:17498   */\n      mstore\n        /* \"#utility.yul\":17334:17505   */\n      pop\n      jump\t// out\n        /* \"#utility.yul\":17511:17877   */\n    tag_283:\n        /* \"#utility.yul\":17653:17656   */\n      0x00\n        /* \"#utility.yul\":17674:17741   */\n      tag_478\n        /* \"#utility.yul\":17738:17740   */\n      0x15\n        /* \"#utility.yul\":17733:17736   */\n      dup4\n        /* \"#utility.yul\":17674:17741   */\n      tag_244\n      jump\t// in\n    tag_478:\n        /* \"#utility.yul\":17667:17741   */\n      swap2\n      pop\n        /* \"#utility.yul\":17750:17843   */\n      tag_479\n        /* \"#utility.yul\":17839:17842   */\n      dup3\n        /* \"#utility.yul\":17750:17843   */\n      tag_282\n      jump\t// in\n    tag_479:\n        /* \"#utility.yul\":17868:17870   */\n      0x20\n        /* \"#utility.yul\":17863:17866   */\n      dup3\n        /* \"#utility.yul\":17859:17871   */\n      add\n        /* \"#utility.yul\":17852:17871   */\n      swap1\n      pop\n        /* \"#utility.yul\":17511:17877   */\n      swap2\n      swap1\n      pop\n      jump\t// out\n        /* \"#utility.yul\":17883:18302   */\n    tag_74:\n        /* \"#utility.yul\":18049:18053   */\n      0x00\n        /* \"#utility.yul\":18087:18089   */\n      0x20\n        /* \"#utility.yul\":18076:18085   */\n      dup3\n        /* \"#utility.yul\":18072:18090   */\n      add\n        /* \"#utility.yul\":18064:18090   */\n      swap1\n      pop\n        /* \"#utility.yul\":18136:18145   */\n      dup2\n        /* \"#utility.yul\":18130:18134   */\n      dup2\n        /* \"#utility.yul\":18126:18146   */\n      sub\n        /* \"#utility.yul\":18122:18123   */\n      0x00\n        /* \"#utility.yul\":18111:18120   */\n      dup4\n        /* \"#utility.yul\":18107:18124   */\n      add\n        /* \"#utility.yul\":18100:18147   */\n      mstore\n        /* \"#utility.yul\":18164:18295   */\n      tag_481\n        /* \"#utility.yul\":18290:18294   */\n      dup2\n        /* \"#utility.yul\":18164:18295   */\n      tag_283\n      jump\t// in\n    tag_481:\n        /* \"#utility.yul\":18156:18295   */\n      swap1\n      pop\n        /* \"#utility.yul\":17883:18302   */\n      swap2\n      swap1\n      pop\n      jump\t// out\n        /* \"#utility.yul\":18308:18480   */\n    tag_284:\n        /* \"#utility.yul\":18448:18472   */\n      0x596f752061726520616c726561647920566f7465642100000000000000000000\n        /* \"#utility.yul\":18444:18445   */\n      0x00\n        /* \"#utility.yul\":18436:18442   */\n      dup3\n        /* \"#utility.yul\":18432:18446   */\n      add\n        /* \"#utility.yul\":18425:18473   */\n      mstore\n        /* \"#utility.yul\":18308:18480   */\n      pop\n      jump\t// out\n        /* \"#utility.yul\":18486:18852   */\n    tag_285:\n        /* \"#utility.yul\":18628:18631   */\n      0x00\n        /* \"#utility.yul\":18649:18716   */\n      tag_484\n        /* \"#utility.yul\":18713:18715   */\n      0x16\n        /* \"#utility.yul\":18708:18711   */\n      dup4\n        /* \"#utility.yul\":18649:18716   */\n      tag_244\n      jump\t// in\n    tag_484:\n        /* \"#utility.yul\":18642:18716   */\n      swap2\n      pop\n        /* \"#utility.yul\":18725:18818   */\n      tag_485\n        /* \"#utility.yul\":18814:18817   */\n      dup3\n        /* \"#utility.yul\":18725:18818   */\n      tag_284\n      jump\t// in\n    tag_485:\n        /* \"#utility.yul\":18843:18845   */\n      0x20\n        /* \"#utility.yul\":18838:18841   */\n      dup3\n        /* \"#utility.yul\":18834:18846   */\n      add\n        /* \"#utility.yul\":18827:18846   */\n      swap1\n      pop\n        /* \"#utility.yul\":18486:18852   */\n      swap2\n      swap1\n      pop\n      jump\t// out\n        /* \"#utility.yul\":18858:19277   */\n    tag_78:\n        /* \"#utility.yul\":19024:19028   */\n      0x00\n        /* \"#utility.yul\":19062:19064   */\n      0x20\n        /* \"#utility.yul\":19051:19060   */\n      dup3\n        /* \"#utility.yul\":19047:19065   */\n      add\n        /* \"#utility.yul\":19039:19065   */\n      swap1\n      pop\n        /* \"#utility.yul\":19111:19120   */\n      dup2\n        /* \"#utility.yul\":19105:19109   */\n      dup2\n        /* \"#utility.yul\":19101:19121   */\n      sub\n        /* \"#utility.yul\":19097:19098   */\n      0x00\n        /* \"#utility.yul\":19086:19095   */\n      dup4\n        /* \"#utility.yul\":19082:19099   */\n      add\n        /* \"#utility.yul\":19075:19122   */\n      mstore\n        /* \"#utility.yul\":19139:19270   */\n      tag_487\n        /* \"#utility.yul\":19265:19269   */\n      dup2\n        /* \"#utility.yul\":19139:19270   */\n      tag_285\n      jump\t// in\n    tag_487:\n        /* \"#utility.yul\":19131:19270   */\n      swap1\n      pop\n        /* \"#utility.yul\":18858:19277   */\n      swap2\n      swap1\n      pop\n      jump\t// out\n        /* \"#utility.yul\":19283:19463   */\n    tag_286:\n        /* \"#utility.yul\":19331:19408   */\n      0x4e487b7100000000000000000000000000000000000000000000000000000000\n        /* \"#utility.yul\":19328:19329   */\n      0x00\n        /* \"#utility.yul\":19321:19409   */\n      mstore\n        /* \"#utility.yul\":19428:19432   */\n      0x11\n        /* \"#utility.yul\":19425:19426   */\n      0x04\n        /* \"#utility.yul\":19418:19433   */\n      mstore\n        /* \"#utility.yul\":19452:19456   */\n      0x24\n        /* \"#utility.yul\":19449:19450   */\n      0x00\n        /* \"#utility.yul\":19442:19457   */\n      revert\n        /* \"#utility.yul\":19469:19660   */\n    tag_81:\n        /* \"#utility.yul\":19509:19512   */\n      0x00\n        /* \"#utility.yul\":19528:19548   */\n      tag_490\n        /* \"#utility.yul\":19546:19547   */\n      dup3\n        /* \"#utility.yul\":19528:19548   */\n      tag_239\n      jump\t// in\n    tag_490:\n        /* \"#utility.yul\":19523:19548   */\n      swap2\n      pop\n        /* \"#utility.yul\":19562:19582   */\n      tag_491\n        /* \"#utility.yul\":19580:19581   */\n      dup4\n        /* \"#utility.yul\":19562:19582   */\n      tag_239\n      jump\t// in\n    tag_491:\n        /* \"#utility.yul\":19557:19582   */\n      swap3\n      pop\n        /* \"#utility.yul\":19605:19606   */\n      dup3\n        /* \"#utility.yul\":19602:19603   */\n      dup3\n        /* \"#utility.yul\":19598:19607   */\n      add\n        /* \"#utility.yul\":19591:19607   */\n      swap1\n      pop\n        /* \"#utility.yul\":19626:19629   */\n      dup1\n        /* \"#utility.yul\":19623:19624   */\n      dup3\n        /* \"#utility.yul\":19620:19630   */\n      gt\n        /* \"#utility.yul\":19617:19653   */\n      iszero\n      tag_492\n      jumpi\n        /* \"#utility.yul\":19633:19651   */\n      tag_493\n      tag_286\n      jump\t// in\n    tag_493:\n        /* \"#utility.yul\":19617:19653   */\n    tag_492:\n        /* \"#utility.yul\":19469:19660   */\n      swap3\n      swap2\n      pop\n      pop\n      jump\t// out\n        /* \"#utility.yul\":19666:19846   */\n    tag_287:\n        /* \"#utility.yul\":19714:19791   */\n      0x4e487b7100000000000000000000000000000000000000000000000000000000\n        /* \"#utility.yul\":19711:19712   */\n      0x00\n        /* \"#utility.yul\":19704:19792   */\n      mstore\n        /* \"#utility.yul\":19811:19815   */\n      0x22\n        /* \"#utility.yul\":19808:19809   */\n      0x04\n        /* \"#utility.yul\":19801:19816   */\n      mstore\n        /* \"#utility.yul\":19835:19839   */\n      0x24\n        /* \"#utility.yul\":19832:19833   */\n      0x00\n        /* \"#utility.yul\":19825:19840   */\n      revert\n        /* \"#utility.yul\":19852:20172   */\n    tag_83:\n        /* \"#utility.yul\":19896:19902   */\n      0x00\n        /* \"#utility.yul\":19933:19934   */\n      0x02\n        /* \"#utility.yul\":19927:19931   */\n      dup3\n        /* \"#utility.yul\":19923:19935   */\n      div\n        /* \"#utility.yul\":19913:19935   */\n      swap1\n      pop\n        /* \"#utility.yul\":19980:19981   */\n      0x01\n        /* \"#utility.yul\":19974:19978   */\n      dup3\n        /* \"#utility.yul\":19970:19982   */\n      and\n        /* \"#utility.yul\":20001:20019   */\n      dup1\n        /* \"#utility.yul\":19991:20072   */\n      tag_496\n      jumpi\n        /* \"#utility.yul\":20057:20061   */\n      0x7f\n        /* \"#utility.yul\":20049:20055   */\n      dup3\n        /* \"#utility.yul\":20045:20062   */\n      and\n        /* \"#utility.yul\":20035:20062   */\n      swap2\n      pop\n        /* \"#utility.yul\":19991:20072   */\n    tag_496:\n        /* \"#utility.yul\":20119:20121   */\n      0x20\n        /* \"#utility.yul\":20111:20117   */\n      dup3\n        /* \"#utility.yul\":20108:20122   */\n      lt\n        /* \"#utility.yul\":20088:20106   */\n      dup2\n        /* \"#utility.yul\":20085:20123   */\n      sub\n        /* \"#utility.yul\":20082:20166   */\n      tag_497\n      jumpi\n        /* \"#utility.yul\":20138:20156   */\n      tag_498\n      tag_287\n      jump\t// in\n    tag_498:\n        /* \"#utility.yul\":20082:20166   */\n    tag_497:\n        /* \"#utility.yul\":19903:20172   */\n      pop\n        /* \"#utility.yul\":19852:20172   */\n      swap2\n      swap1\n      pop\n      jump\t// out\n        /* \"#utility.yul\":20178:20588   */\n    tag_126:\n        /* \"#utility.yul\":20218:20225   */\n      0x00\n        /* \"#utility.yul\":20241:20261   */\n      tag_500\n        /* \"#utility.yul\":20259:20260   */\n      dup3\n        /* \"#utility.yul\":20241:20261   */\n      tag_239\n      jump\t// in\n    tag_500:\n        /* \"#utility.yul\":20236:20261   */\n      swap2\n      pop\n        /* \"#utility.yul\":20275:20295   */\n      tag_501\n        /* \"#utility.yul\":20293:20294   */\n      dup4\n        /* \"#utility.yul\":20275:20295   */\n      tag_239\n      jump\t// in\n    tag_501:\n        /* \"#utility.yul\":20270:20295   */\n      swap3\n      pop\n        /* \"#utility.yul\":20330:20331   */\n      dup3\n        /* \"#utility.yul\":20327:20328   */\n      dup3\n        /* \"#utility.yul\":20323:20332   */\n      mul\n        /* \"#utility.yul\":20352:20382   */\n      tag_502\n        /* \"#utility.yul\":20370:20381   */\n      dup2\n        /* \"#utility.yul\":20352:20382   */\n      tag_239\n      jump\t// in\n    tag_502:\n        /* \"#utility.yul\":20341:20382   */\n      swap2\n      pop\n        /* \"#utility.yul\":20531:20532   */\n      dup3\n        /* \"#utility.yul\":20522:20529   */\n      dup3\n        /* \"#utility.yul\":20518:20533   */\n      div\n        /* \"#utility.yul\":20515:20516   */\n      dup5\n        /* \"#utility.yul\":20512:20534   */\n      eq\n        /* \"#utility.yul\":20492:20493   */\n      dup4\n        /* \"#utility.yul\":20485:20494   */\n      iszero\n        /* \"#utility.yul\":20465:20548   */\n      or\n        /* \"#utility.yul\":20442:20581   */\n      tag_503\n      jumpi\n        /* \"#utility.yul\":20561:20579   */\n      tag_504\n      tag_286\n      jump\t// in\n    tag_504:\n        /* \"#utility.yul\":20442:20581   */\n    tag_503:\n        /* \"#utility.yul\":20226:20588   */\n      pop\n        /* \"#utility.yul\":20178:20588   */\n      swap3\n      swap2\n      pop\n      pop\n      jump\t// out\n        /* \"#utility.yul\":20594:20735   */\n    tag_288:\n        /* \"#utility.yul\":20643:20647   */\n      0x00\n        /* \"#utility.yul\":20666:20669   */\n      dup2\n        /* \"#utility.yul\":20658:20669   */\n      swap1\n      pop\n        /* \"#utility.yul\":20689:20692   */\n      dup2\n        /* \"#utility.yul\":20686:20687   */\n      0x00\n        /* \"#utility.yul\":20679:20693   */\n      mstore\n        /* \"#utility.yul\":20723:20727   */\n      0x20\n        /* \"#utility.yul\":20720:20721   */\n      0x00\n        /* \"#utility.yul\":20710:20728   */\n      keccak256\n        /* \"#utility.yul\":20702:20728   */\n      swap1\n      pop\n        /* \"#utility.yul\":20594:20735   */\n      swap2\n      swap1\n      pop\n      jump\t// out\n        /* \"#utility.yul\":20741:20834   */\n    tag_289:\n        /* \"#utility.yul\":20778:20784   */\n      0x00\n        /* \"#utility.yul\":20825:20827   */\n      0x20\n        /* \"#utility.yul\":20820:20822   */\n      0x1f\n        /* \"#utility.yul\":20813:20818   */\n      dup4\n        /* \"#utility.yul\":20809:20823   */\n      add\n        /* \"#utility.yul\":20805:20828   */\n      div\n        /* \"#utility.yul\":20795:20828   */\n      swap1\n      pop\n        /* \"#utility.yul\":20741:20834   */\n      swap2\n      swap1\n      pop\n      jump\t// out\n        /* \"#utility.yul\":20840:20947   */\n    tag_290:\n        /* \"#utility.yul\":20884:20892   */\n      0x00\n        /* \"#utility.yul\":20934:20939   */\n      dup3\n        /* \"#utility.yul\":20928:20932   */\n      dup3\n        /* \"#utility.yul\":20924:20940   */\n      shl\n        /* \"#utility.yul\":20903:20940   */\n      swap1\n      pop\n        /* \"#utility.yul\":20840:20947   */\n      swap3\n      swap2\n      pop\n      pop\n      jump\t// out\n        /* \"#utility.yul\":20953:21346   */\n    tag_291:\n        /* \"#utility.yul\":21022:21028   */\n      0x00\n        /* \"#utility.yul\":21072:21073   */\n      0x08\n        /* \"#utility.yul\":21060:21070   */\n      dup4\n        /* \"#utility.yul\":21056:21074   */\n      mul\n        /* \"#utility.yul\":21095:21192   */\n      tag_509\n        /* \"#utility.yul\":21125:21191   */\n      0xffffffffffffffffffffffffffffffffffffffffffffffffffffffffffffffff\n        /* \"#utility.yul\":21114:21123   */\n      dup3\n        /* \"#utility.yul\":21095:21192   */\n      tag_290\n      jump\t// in\n    tag_509:\n        /* \"#utility.yul\":21213:21252   */\n      tag_510\n        /* \"#utility.yul\":21243:21251   */\n      dup7\n        /* \"#utility.yul\":21232:21241   */\n      dup4\n        /* \"#utility.yul\":21213:21252   */\n      tag_290\n      jump\t// in\n    tag_510:\n        /* \"#utility.yul\":21201:21252   */\n      swap6\n      pop\n        /* \"#utility.yul\":21285:21289   */\n      dup1\n        /* \"#utility.yul\":21281:21290   */\n      not\n        /* \"#utility.yul\":21274:21279   */\n      dup5\n        /* \"#utility.yul\":21270:21291   */\n      and\n        /* \"#utility.yul\":21261:21291   */\n      swap4\n      pop\n        /* \"#utility.yul\":21334:21338   */\n      dup1\n        /* \"#utility.yul\":21324:21332   */\n      dup7\n        /* \"#utility.yul\":21320:21339   */\n      and\n        /* \"#utility.yul\":21313:21318   */\n      dup5\n        /* \"#utility.yul\":21310:21340   */\n      or\n        /* \"#utility.yul\":21300:21340   */\n      swap3\n      pop\n        /* \"#utility.yul\":21029:21346   */\n      pop\n      pop\n        /* \"#utility.yul\":20953:21346   */\n      swap4\n      swap3\n      pop\n      pop\n      pop\n      jump\t// out\n        /* \"#utility.yul\":21352:21412   */\n    tag_292:\n        /* \"#utility.yul\":21380:21383   */\n      0x00\n        /* \"#utility.yul\":21401:21406   */\n      dup2\n        /* \"#utility.yul\":21394:21406   */\n      swap1\n      pop\n        /* \"#utility.yul\":21352:21412   */\n      swap2\n      swap1\n      pop\n      jump\t// out\n        /* \"#utility.yul\":21418:21560   */\n    tag_293:\n        /* \"#utility.yul\":21468:21477   */\n      0x00\n        /* \"#utility.yul\":21501:21554   */\n      tag_513\n        /* \"#utility.yul\":21519:21553   */\n      tag_514\n        /* \"#utility.yul\":21528:21552   */\n      tag_515\n        /* \"#utility.yul\":21546:21551   */\n      dup5\n        /* \"#utility.yul\":21528:21552   */\n      tag_239\n      jump\t// in\n    tag_515:\n        /* \"#utility.yul\":21519:21553   */\n      tag_292\n      jump\t// in\n    tag_514:\n        /* \"#utility.yul\":21501:21554   */\n      tag_239\n      jump\t// in\n    tag_513:\n        /* \"#utility.yul\":21488:21554   */\n      swap1\n      pop\n        /* \"#utility.yul\":21418:21560   */\n      swap2\n      swap1\n      pop\n      jump\t// out\n        /* \"#utility.yul\":21566:21641   */\n    tag_294:\n        /* \"#utility.yul\":21609:21612   */\n      0x00\n        /* \"#utility.yul\":21630:21635   */\n      dup2\n        /* \"#utility.yul\":21623:21635   */\n      swap1\n      pop\n        /* \"#utility.yul\":21566:21641   */\n      swap2\n      swap1\n      pop\n      jump\t// out\n        /* \"#utility.yul\":21647:21916   */\n    tag_295:\n        /* \"#utility.yul\":21757:21796   */\n      tag_518\n        /* \"#utility.yul\":21788:21795   */\n      dup4\n        /* \"#utility.yul\":21757:21796   */\n      tag_293\n      jump\t// in\n    tag_518:\n        /* \"#utility.yul\":21818:21909   */\n      tag_519\n        /* \"#utility.yul\":21867:21908   */\n      tag_520\n        /* \"#utility.yul\":21891:21907   */\n      dup3\n        /* \"#utility.yul\":21867:21908   */\n      tag_294\n      jump\t// in\n    tag_520:\n        /* \"#utility.yul\":21859:21865   */\n      dup5\n        /* \"#utility.yul\":21852:21856   */\n      dup5\n        /* \"#utility.yul\":21846:21857   */\n      sload\n        /* \"#utility.yul\":21818:21909   */\n      tag_291\n      jump\t// in\n    tag_519:\n        /* \"#utility.yul\":21812:21816   */\n      dup3\n        /* \"#utility.yul\":21805:21910   */\n      sstore\n        /* \"#utility.yul\":21723:21916   */\n      pop\n        /* \"#utility.yul\":21647:21916   */\n      pop\n      pop\n      pop\n      jump\t// out\n        /* \"#utility.yul\":21922:21995   */\n    tag_296:\n        /* \"#utility.yul\":21967:21970   */\n      0x00\n        /* \"#utility.yul\":21922:21995   */\n      swap1\n      jump\t// out\n        /* \"#utility.yul\":22001:22190   */\n    tag_297:\n        /* \"#utility.yul\":22078:22110   */\n      tag_523\n      tag_296\n      jump\t// in\n    tag_523:\n        /* \"#utility.yul\":22119:22184   */\n      tag_524\n        /* \"#utility.yul\":22177:22183   */\n      dup2\n        /* \"#utility.yul\":22169:22175   */\n      dup5\n        /* \"#utility.yul\":22163:22167   */\n      dup5\n        /* \"#utility.yul\":22119:22184   */\n      tag_295\n      jump\t// in\n    tag_524:\n        /* \"#utility.yul\":22054:22190   */\n      pop\n        /* \"#utility.yul\":22001:22190   */\n      pop\n      pop\n      jump\t// out\n        /* \"#utility.yul\":22196:22382   */\n    tag_298:\n        /* \"#utility.yul\":22256:22376   */\n    tag_526:\n        /* \"#utility.yul\":22273:22276   */\n      dup2\n        /* \"#utility.yul\":22266:22271   */\n      dup2\n        /* \"#utility.yul\":22263:22277   */\n      lt\n        /* \"#utility.yul\":22256:22376   */\n      iszero\n      tag_528\n      jumpi\n        /* \"#utility.yul\":22327:22366   */\n      tag_529\n        /* \"#utility.yul\":22364:22365   */\n      0x00\n        /* \"#utility.yul\":22357:22362   */\n      dup3\n        /* \"#utility.yul\":22327:22366   */\n      tag_297\n      jump\t// in\n    tag_529:\n        /* \"#utility.yul\":22300:22301   */\n      0x01\n        /* \"#utility.yul\":22293:22298   */\n      dup2\n        /* \"#utility.yul\":22289:22302   */\n      add\n        /* \"#utility.yul\":22280:22302   */\n      swap1\n      pop\n        /* \"#utility.yul\":22256:22376   */\n      jump(tag_526)\n    tag_528:\n        /* \"#utility.yul\":22196:22382   */\n      pop\n      pop\n      jump\t// out\n        /* \"#utility.yul\":22388:22931   */\n    tag_299:\n        /* \"#utility.yul\":22489:22491   */\n      0x1f\n        /* \"#utility.yul\":22484:22487   */\n      dup3\n        /* \"#utility.yul\":22481:22492   */\n      gt\n        /* \"#utility.yul\":22478:22924   */\n      iszero\n      tag_531\n      jumpi\n        /* \"#utility.yul\":22523:22561   */\n      tag_532\n        /* \"#utility.yul\":22555:22560   */\n      dup2\n        /* \"#utility.yul\":22523:22561   */\n      tag_288\n      jump\t// in\n    tag_532:\n        /* \"#utility.yul\":22607:22636   */\n      tag_533\n        /* \"#utility.yul\":22625:22635   */\n      dup5\n        /* \"#utility.yul\":22607:22636   */\n      tag_289\n      jump\t// in\n    tag_533:\n        /* \"#utility.yul\":22597:22605   */\n      dup2\n        /* \"#utility.yul\":22593:22637   */\n      add\n        /* \"#utility.yul\":22790:22792   */\n      0x20\n        /* \"#utility.yul\":22778:22788   */\n      dup6\n        /* \"#utility.yul\":22775:22793   */\n      lt\n        /* \"#utility.yul\":22772:22821   */\n      iszero\n      tag_534\n      jumpi\n        /* \"#utility.yul\":22811:22819   */\n      dup2\n        /* \"#utility.yul\":22796:22819   */\n      swap1\n      pop\n        /* \"#utility.yul\":22772:22821   */\n    tag_534:\n        /* \"#utility.yul\":22834:22914   */\n      tag_535\n        /* \"#utility.yul\":22890:22912   */\n      tag_536\n        /* \"#utility.yul\":22908:22911   */\n      dup6\n        /* \"#utility.yul\":22890:22912   */\n      tag_289\n      jump\t// in\n    tag_536:\n        /* \"#utility.yul\":22880:22888   */\n      dup4\n        /* \"#utility.yul\":22876:22913   */\n      add\n        /* \"#utility.yul\":22863:22874   */\n      dup3\n        /* \"#utility.yul\":22834:22914   */\n      tag_298\n      jump\t// in\n    tag_535:\n        /* \"#utility.yul\":22493:22924   */\n      pop\n      pop\n        /* \"#utility.yul\":22478:22924   */\n    tag_531:\n        /* \"#utility.yul\":22388:22931   */\n      pop\n      pop\n      pop\n      jump\t// out\n        /* \"#utility.yul\":22937:23054   */\n    tag_300:\n        /* \"#utility.yul\":22991:22999   */\n      0x00\n        /* \"#utility.yul\":23041:23046   */\n      dup3\n        /* \"#utility.yul\":23035:23039   */\n      dup3\n        /* \"#utility.yul\":23031:23047   */\n      shr\n        /* \"#utility.yul\":23010:23047   */\n      swap1\n      pop\n        /* \"#utility.yul\":22937:23054   */\n      swap3\n      swap2\n      pop\n      pop\n      jump\t// out\n        /* \"#utility.yul\":23060:23229   */\n    tag_301:\n        /* \"#utility.yul\":23104:23110   */\n      0x00\n        /* \"#utility.yul\":23137:23188   */\n      tag_539\n        /* \"#utility.yul\":23185:23186   */\n      0x00\n        /* \"#utility.yul\":23181:23187   */\n      not\n        /* \"#utility.yul\":23173:23178   */\n      dup5\n        /* \"#utility.yul\":23170:23171   */\n      0x08\n        /* \"#utility.yul\":23166:23179   */\n      mul\n        /* \"#utility.yul\":23137:23188   */\n      tag_300\n      jump\t// in\n    tag_539:\n        /* \"#utility.yul\":23133:23189   */\n      not\n        /* \"#utility.yul\":23218:23222   */\n      dup1\n        /* \"#utility.yul\":23212:23216   */\n      dup4\n        /* \"#utility.yul\":23208:23223   */\n      and\n        /* \"#utility.yul\":23198:23223   */\n      swap2\n      pop\n        /* \"#utility.yul\":23111:23229   */\n      pop\n        /* \"#utility.yul\":23060:23229   */\n      swap3\n      swap2\n      pop\n      pop\n      jump\t// out\n        /* \"#utility.yul\":23234:23529   */\n    tag_302:\n        /* \"#utility.yul\":23310:23314   */\n      0x00\n        /* \"#utility.yul\":23456:23485   */\n      tag_541\n        /* \"#utility.yul\":23481:23484   */\n      dup4\n        /* \"#utility.yul\":23475:23479   */\n      dup4\n        /* \"#utility.yul\":23456:23485   */\n      tag_301\n      jump\t// in\n    tag_541:\n        /* \"#utility.yul\":23448:23485   */\n      swap2\n      pop\n        /* \"#utility.yul\":23518:23521   */\n      dup3\n        /* \"#utility.yul\":23515:23516   */\n      0x02\n        /* \"#utility.yul\":23511:23522   */\n      mul\n        /* \"#utility.yul\":23505:23509   */\n      dup3\n        /* \"#utility.yul\":23502:23523   */\n      or\n        /* \"#utility.yul\":23494:23523   */\n      swap1\n      pop\n        /* \"#utility.yul\":23234:23529   */\n      swap3\n      swap2\n      pop\n      pop\n      jump\t// out\n        /* \"#utility.yul\":23534:24929   */\n    tag_129:\n        /* \"#utility.yul\":23651:23688   */\n      tag_543\n        /* \"#utility.yul\":23684:23687   */\n      dup3\n        /* \"#utility.yul\":23651:23688   */\n      tag_243\n      jump\t// in\n    tag_543:\n        /* \"#utility.yul\":23753:23771   */\n      0xffffffffffffffff\n        /* \"#utility.yul\":23745:23751   */\n      dup2\n        /* \"#utility.yul\":23742:23772   */\n      gt\n        /* \"#utility.yul\":23739:23795   */\n      iszero\n      tag_544\n      jumpi\n        /* \"#utility.yul\":23775:23793   */\n      tag_545\n      tag_268\n      jump\t// in\n    tag_545:\n        /* \"#utility.yul\":23739:23795   */\n    tag_544:\n        /* \"#utility.yul\":23819:23857   */\n      tag_546\n        /* \"#utility.yul\":23851:23855   */\n      dup3\n        /* \"#utility.yul\":23845:23856   */\n      sload\n        /* \"#utility.yul\":23819:23857   */\n      tag_83\n      jump\t// in\n    tag_546:\n        /* \"#utility.yul\":23904:23971   */\n      tag_547\n        /* \"#utility.yul\":23964:23970   */\n      dup3\n        /* \"#utility.yul\":23956:23962   */\n      dup3\n        /* \"#utility.yul\":23950:23954   */\n      dup6\n        /* \"#utility.yul\":23904:23971   */\n      tag_299\n      jump\t// in\n    tag_547:\n        /* \"#utility.yul\":23998:23999   */\n      0x00\n        /* \"#utility.yul\":24022:24026   */\n      0x20\n        /* \"#utility.yul\":24009:24026   */\n      swap1\n      pop\n        /* \"#utility.yul\":24054:24056   */\n      0x1f\n        /* \"#utility.yul\":24046:24052   */\n      dup4\n        /* \"#utility.yul\":24043:24057   */\n      gt\n        /* \"#utility.yul\":24071:24072   */\n      0x01\n        /* \"#utility.yul\":24066:24684   */\n      dup2\n      eq\n      tag_549\n      jumpi\n        /* \"#utility.yul\":24728:24729   */\n      0x00\n        /* \"#utility.yul\":24745:24751   */\n      dup5\n        /* \"#utility.yul\":24742:24819   */\n      iszero\n      tag_550\n      jumpi\n        /* \"#utility.yul\":24794:24803   */\n      dup3\n        /* \"#utility.yul\":24789:24792   */\n      dup8\n        /* \"#utility.yul\":24785:24804   */\n      add\n        /* \"#utility.yul\":24779:24805   */\n      mload\n        /* \"#utility.yul\":24770:24805   */\n      swap1\n      pop\n        /* \"#utility.yul\":24742:24819   */\n    tag_550:\n        /* \"#utility.yul\":24845:24912   */\n      tag_551\n        /* \"#utility.yul\":24905:24911   */\n      dup6\n        /* \"#utility.yul\":24898:24903   */\n      dup3\n        /* \"#utility.yul\":24845:24912   */\n      tag_302\n      jump\t// in\n    tag_551:\n        /* \"#utility.yul\":24839:24843   */\n      dup7\n        /* \"#utility.yul\":24832:24913   */\n      sstore\n        /* \"#utility.yul\":24701:24923   */\n      pop\n        /* \"#utility.yul\":24036:24923   */\n      jump(tag_548)\n        /* \"#utility.yul\":24066:24684   */\n    tag_549:\n        /* \"#utility.yul\":24118:24122   */\n      0x1f\n        /* \"#utility.yul\":24114:24123   */\n      not\n        /* \"#utility.yul\":24106:24112   */\n      dup5\n        /* \"#utility.yul\":24102:24124   */\n      and\n        /* \"#utility.yul\":24152:24189   */\n      tag_552\n        /* \"#utility.yul\":24184:24188   */\n      dup7\n        /* \"#utility.yul\":24152:24189   */\n      tag_288\n      jump\t// in\n    tag_552:\n        /* \"#utility.yul\":24211:24212   */\n      0x00\n        /* \"#utility.yul\":24225:24433   */\n    tag_553:\n        /* \"#utility.yul\":24239:24246   */\n      dup3\n        /* \"#utility.yul\":24236:24237   */\n      dup2\n        /* \"#utility.yul\":24233:24247   */\n      lt\n        /* \"#utility.yul\":24225:24433   */\n      iszero\n      tag_555\n      jumpi\n        /* \"#utility.yul\":24318:24327   */\n      dup5\n        /* \"#utility.yul\":24313:24316   */\n      dup10\n        /* \"#utility.yul\":24309:24328   */\n      add\n        /* \"#utility.yul\":24303:24329   */\n      mload\n        /* \"#utility.yul\":24295:24301   */\n      dup3\n        /* \"#utility.yul\":24288:24330   */\n      sstore\n        /* \"#utility.yul\":24369:24370   */\n      0x01\n        /* \"#utility.yul\":24361:24367   */\n      dup3\n        /* \"#utility.yul\":24357:24371   */\n      add\n        /* \"#utility.yul\":24347:24371   */\n      swap2\n      pop\n        /* \"#utility.yul\":24416:24418   */\n      0x20\n        /* \"#utility.yul\":24405:24414   */\n      dup6\n        /* \"#utility.yul\":24401:24419   */\n      add\n        /* \"#utility.yul\":24388:24419   */\n      swap5\n      pop\n        /* \"#utility.yul\":24262:24266   */\n      0x20\n        /* \"#utility.yul\":24259:24260   */\n      dup2\n        /* \"#utility.yul\":24255:24267   */\n      add\n        /* \"#utility.yul\":24250:24267   */\n      swap1\n      pop\n        /* \"#utility.yul\":24225:24433   */\n      jump(tag_553)\n    tag_555:\n        /* \"#utility.yul\":24461:24467   */\n      dup7\n        /* \"#utility.yul\":24452:24459   */\n      dup4\n        /* \"#utility.yul\":24449:24468   */\n      lt\n        /* \"#utility.yul\":24446:24625   */\n      iszero\n      tag_556\n      jumpi\n        /* \"#utility.yul\":24519:24528   */\n      dup5\n        /* \"#utility.yul\":24514:24517   */\n      dup10\n        /* \"#utility.yul\":24510:24529   */\n      add\n        /* \"#utility.yul\":24504:24530   */\n      mload\n        /* \"#utility.yul\":24562:24610   */\n      tag_557\n        /* \"#utility.yul\":24604:24608   */\n      0x1f\n        /* \"#utility.yul\":24596:24602   */\n      dup10\n        /* \"#utility.yul\":24592:24609   */\n      and\n        /* \"#utility.yul\":24581:24590   */\n      dup3\n        /* \"#utility.yul\":24562:24610   */\n      tag_301\n      jump\t// in\n    tag_557:\n        /* \"#utility.yul\":24554:24560   */\n      dup4\n        /* \"#utility.yul\":24547:24611   */\n      sstore\n        /* \"#utility.yul\":24469:24625   */\n      pop\n        /* \"#utility.yul\":24446:24625   */\n    tag_556:\n        /* \"#utility.yul\":24671:24672   */\n      0x01\n        /* \"#utility.yul\":24667:24668   */\n      0x02\n        /* \"#utility.yul\":24659:24665   */\n      dup9\n        /* \"#utility.yul\":24655:24669   */\n      mul\n        /* \"#utility.yul\":24651:24673   */\n      add\n        /* \"#utility.yul\":24645:24649   */\n      dup9\n        /* \"#utility.yul\":24638:24674   */\n      sstore\n        /* \"#utility.yul\":24073:24684   */\n      pop\n      pop\n      pop\n        /* \"#utility.yul\":24036:24923   */\n    tag_548:\n      pop\n        /* \"#utility.yul\":23626:24929   */\n      pop\n      pop\n      pop\n        /* \"#utility.yul\":23534:24929   */\n      pop\n      pop\n      jump\t// out\n        /* \"#utility.yul\":24935:25084   */\n    tag_303:\n        /* \"#utility.yul\":24984:24990   */\n      0x00\n        /* \"#utility.yul\":25018:25023   */\n      dup2\n        /* \"#utility.yul\":25012:25024   */\n      sload\n        /* \"#utility.yul\":25002:25024   */\n      swap1\n      pop\n        /* \"#utility.yul\":25044:25077   */\n      tag_559\n        /* \"#utility.yul\":25070:25076   */\n      dup2\n        /* \"#utility.yul\":25044:25077   */\n      tag_83\n      jump\t// in\n    tag_559:\n        /* \"#utility.yul\":25034:25077   */\n      swap1\n      pop\n        /* \"#utility.yul\":24935:25084   */\n      swap2\n      swap1\n      pop\n      jump\t// out\n        /* \"#utility.yul\":25090:26541   */\n    tag_138:\n        /* \"#utility.yul\":25201:25204   */\n      dup2\n        /* \"#utility.yul\":25195:25199   */\n      dup2\n        /* \"#utility.yul\":25192:25205   */\n      sub\n        /* \"#utility.yul\":25189:25215   */\n      tag_561\n      jumpi\n        /* \"#utility.yul\":25208:25213   */\n      pop\n      pop\n      jump(tag_560)\n        /* \"#utility.yul\":25189:25215   */\n    tag_561:\n        /* \"#utility.yul\":25239:25273   */\n      tag_562\n        /* \"#utility.yul\":25269:25272   */\n      dup3\n        /* \"#utility.yul\":25239:25273   */\n      tag_303\n      jump\t// in\n    tag_562:\n        /* \"#utility.yul\":25338:25356   */\n      0xffffffffffffffff\n        /* \"#utility.yul\":25330:25336   */\n      dup2\n        /* \"#utility.yul\":25327:25357   */\n      gt\n        /* \"#utility.yul\":25324:25380   */\n      iszero\n      tag_563\n      jumpi\n        /* \"#utility.yul\":25360:25378   */\n      tag_564\n      tag_268\n      jump\t// in\n    tag_564:\n        /* \"#utility.yul\":25324:25380   */\n    tag_563:\n        /* \"#utility.yul\":25404:25442   */\n      tag_565\n        /* \"#utility.yul\":25436:25440   */\n      dup3\n        /* \"#utility.yul\":25430:25441   */\n      sload\n        /* \"#utility.yul\":25404:25442   */\n      tag_83\n      jump\t// in\n    tag_565:\n        /* \"#utility.yul\":25489:25556   */\n      tag_566\n        /* \"#utility.yul\":25549:25555   */\n      dup3\n        /* \"#utility.yul\":25541:25547   */\n      dup3\n        /* \"#utility.yul\":25535:25539   */\n      dup6\n        /* \"#utility.yul\":25489:25556   */\n      tag_299\n      jump\t// in\n    tag_566:\n        /* \"#utility.yul\":25583:25584   */\n      0x00\n        /* \"#utility.yul\":25612:25614   */\n      0x1f\n        /* \"#utility.yul\":25604:25610   */\n      dup4\n        /* \"#utility.yul\":25601:25615   */\n      gt\n        /* \"#utility.yul\":25629:25630   */\n      0x01\n        /* \"#utility.yul\":25624:26296   */\n      dup2\n      eq\n      tag_568\n      jumpi\n        /* \"#utility.yul\":26340:26341   */\n      0x00\n        /* \"#utility.yul\":26357:26363   */\n      dup5\n        /* \"#utility.yul\":26354:26431   */\n      iszero\n      tag_569\n      jumpi\n        /* \"#utility.yul\":26406:26415   */\n      dup3\n        /* \"#utility.yul\":26401:26404   */\n      dup8\n        /* \"#utility.yul\":26397:26416   */\n      add\n        /* \"#utility.yul\":26391:26417   */\n      sload\n        /* \"#utility.yul\":26382:26417   */\n      swap1\n      pop\n        /* \"#utility.yul\":26354:26431   */\n    tag_569:\n        /* \"#utility.yul\":26457:26524   */\n      tag_570\n        /* \"#utility.yul\":26517:26523   */\n      dup6\n        /* \"#utility.yul\":26510:26515   */\n      dup3\n        /* \"#utility.yul\":26457:26524   */\n      tag_302\n      jump\t// in\n    tag_570:\n        /* \"#utility.yul\":26451:26455   */\n      dup7\n        /* \"#utility.yul\":26444:26525   */\n      sstore\n        /* \"#utility.yul\":26313:26535   */\n      pop\n        /* \"#utility.yul\":25594:26535   */\n      jump(tag_567)\n        /* \"#utility.yul\":25624:26296   */\n    tag_568:\n        /* \"#utility.yul\":25676:25680   */\n      0x1f\n        /* \"#utility.yul\":25672:25681   */\n      not\n        /* \"#utility.yul\":25664:25670   */\n      dup5\n        /* \"#utility.yul\":25660:25682   */\n      and\n        /* \"#utility.yul\":25702:25738   */\n      tag_571\n        /* \"#utility.yul\":25734:25737   */\n      dup8\n        /* \"#utility.yul\":25702:25738   */\n      tag_288\n      jump\t// in\n    tag_571:\n        /* \"#utility.yul\":25695:25738   */\n      swap7\n      pop\n        /* \"#utility.yul\":25765:25802   */\n      tag_572\n        /* \"#utility.yul\":25797:25801   */\n      dup7\n        /* \"#utility.yul\":25765:25802   */\n      tag_288\n      jump\t// in\n    tag_572:\n        /* \"#utility.yul\":25824:25825   */\n      0x00\n        /* \"#utility.yul\":25838:26045   */\n    tag_573:\n        /* \"#utility.yul\":25852:25859   */\n      dup3\n        /* \"#utility.yul\":25849:25850   */\n      dup2\n        /* \"#utility.yul\":25846:25860   */\n      lt\n        /* \"#utility.yul\":25838:26045   */\n      iszero\n      tag_575\n      jumpi\n        /* \"#utility.yul\":25931:25940   */\n      dup5\n        /* \"#utility.yul\":25926:25929   */\n      dup10\n        /* \"#utility.yul\":25922:25941   */\n      add\n        /* \"#utility.yul\":25916:25942   */\n      sload\n        /* \"#utility.yul\":25908:25914   */\n      dup3\n        /* \"#utility.yul\":25901:25943   */\n      sstore\n        /* \"#utility.yul\":25982:25983   */\n      0x01\n        /* \"#utility.yul\":25974:25980   */\n      dup3\n        /* \"#utility.yul\":25970:25984   */\n      add\n        /* \"#utility.yul\":25960:25984   */\n      swap2\n      pop\n        /* \"#utility.yul\":26029:26030   */\n      0x01\n        /* \"#utility.yul\":26018:26027   */\n      dup6\n        /* \"#utility.yul\":26014:26031   */\n      add\n        /* \"#utility.yul\":26001:26031   */\n      swap5\n      pop\n        /* \"#utility.yul\":25875:25879   */\n      0x20\n        /* \"#utility.yul\":25872:25873   */\n      dup2\n        /* \"#utility.yul\":25868:25880   */\n      add\n        /* \"#utility.yul\":25863:25880   */\n      swap1\n      pop\n        /* \"#utility.yul\":25838:26045   */\n      jump(tag_573)\n    tag_575:\n        /* \"#utility.yul\":26073:26079   */\n      dup7\n        /* \"#utility.yul\":26064:26071   */\n      dup4\n        /* \"#utility.yul\":26061:26080   */\n      lt\n        /* \"#utility.yul\":26058:26237   */\n      iszero\n      tag_576\n      jumpi\n        /* \"#utility.yul\":26131:26140   */\n      dup5\n        /* \"#utility.yul\":26126:26129   */\n      dup10\n        /* \"#utility.yul\":26122:26141   */\n      add\n        /* \"#utility.yul\":26116:26142   */\n      sload\n        /* \"#utility.yul\":26174:26222   */\n      tag_577\n        /* \"#utility.yul\":26216:26220   */\n      0x1f\n        /* \"#utility.yul\":26208:26214   */\n      dup10\n        /* \"#utility.yul\":26204:26221   */\n      and\n        /* \"#utility.yul\":26193:26202   */\n      dup3\n        /* \"#utility.yul\":26174:26222   */\n      tag_301\n      jump\t// in\n    tag_577:\n        /* \"#utility.yul\":26166:26172   */\n      dup4\n        /* \"#utility.yul\":26159:26223   */\n      sstore\n        /* \"#utility.yul\":26081:26237   */\n      pop\n        /* \"#utility.yul\":26058:26237   */\n    tag_576:\n        /* \"#utility.yul\":26283:26284   */\n      0x01\n        /* \"#utility.yul\":26279:26280   */\n      0x02\n        /* \"#utility.yul\":26271:26277   */\n      dup9\n        /* \"#utility.yul\":26267:26281   */\n      mul\n        /* \"#utility.yul\":26263:26285   */\n      add\n        /* \"#utility.yul\":26257:26261   */\n      dup9\n        /* \"#utility.yul\":26250:26286   */\n      sstore\n        /* \"#utility.yul\":25631:26296   */\n      pop\n      pop\n      pop\n        /* \"#utility.yul\":25594:26535   */\n    tag_567:\n      pop\n        /* \"#utility.yul\":25179:26541   */\n      pop\n      pop\n      pop\n        /* \"#utility.yul\":25090:26541   */\n      pop\n      pop\n    tag_560:\n      jump\t// out\n        /* \"#utility.yul\":26547:26632   */\n    tag_304:\n        /* \"#utility.yul\":26592:26599   */\n      0x00\n        /* \"#utility.yul\":26621:26626   */\n      dup2\n        /* \"#utility.yul\":26610:26626   */\n      swap1\n      pop\n        /* \"#utility.yul\":26547:26632   */\n      swap2\n      swap1\n      pop\n      jump\t// out\n        /* \"#utility.yul\":26638:26796   */\n    tag_305:\n        /* \"#utility.yul\":26696:26705   */\n      0x00\n        /* \"#utility.yul\":26729:26790   */\n      tag_580\n        /* \"#utility.yul\":26747:26789   */\n      tag_581\n        /* \"#utility.yul\":26756:26788   */\n      tag_582\n        /* \"#utility.yul\":26782:26787   */\n      dup5\n        /* \"#utility.yul\":26756:26788   */\n      tag_304\n      jump\t// in\n    tag_582:\n        /* \"#utility.yul\":26747:26789   */\n      tag_292\n      jump\t// in\n    tag_581:\n        /* \"#utility.yul\":26729:26790   */\n      tag_239\n      jump\t// in\n    tag_580:\n        /* \"#utility.yul\":26716:26790   */\n      swap1\n      pop\n        /* \"#utility.yul\":26638:26796   */\n      swap2\n      swap1\n      pop\n      jump\t// out\n        /* \"#utility.yul\":26802:26949   */\n    tag_306:\n        /* \"#utility.yul\":26897:26942   */\n      tag_584\n        /* \"#utility.yul\":26936:26941   */\n      dup2\n        /* \"#utility.yul\":26897:26942   */\n      tag_305\n      jump\t// in\n    tag_584:\n        /* \"#utility.yul\":26892:26895   */\n      dup3\n        /* \"#utility.yul\":26885:26943   */\n      mstore\n        /* \"#utility.yul\":26802:26949   */\n      pop\n      pop\n      jump\t// out\n        /* \"#utility.yul\":26955:28130   */\n    tag_142:\n        /* \"#utility.yul\":27284:27288   */\n      0x00\n        /* \"#utility.yul\":27322:27325   */\n      0xe0\n        /* \"#utility.yul\":27311:27320   */\n      dup3\n        /* \"#utility.yul\":27307:27326   */\n      add\n        /* \"#utility.yul\":27299:27326   */\n      swap1\n      pop\n        /* \"#utility.yul\":27336:27407   */\n      tag_586\n        /* \"#utility.yul\":27404:27405   */\n      0x00\n        /* \"#utility.yul\":27393:27402   */\n      dup4\n        /* \"#utility.yul\":27389:27406   */\n      add\n        /* \"#utility.yul\":27380:27386   */\n      dup11\n        /* \"#utility.yul\":27336:27407   */\n      tag_242\n      jump\t// in\n    tag_586:\n        /* \"#utility.yul\":27454:27463   */\n      dup2\n        /* \"#utility.yul\":27448:27452   */\n      dup2\n        /* \"#utility.yul\":27444:27464   */\n      sub\n        /* \"#utility.yul\":27439:27441   */\n      0x20\n        /* \"#utility.yul\":27428:27437   */\n      dup4\n        /* \"#utility.yul\":27424:27442   */\n      add\n        /* \"#utility.yul\":27417:27465   */\n      mstore\n        /* \"#utility.yul\":27482:27560   */\n      tag_587\n        /* \"#utility.yul\":27555:27559   */\n      dup2\n        /* \"#utility.yul\":27546:27552   */\n      dup10\n        /* \"#utility.yul\":27482:27560   */\n      tag_247\n      jump\t// in\n    tag_587:\n        /* \"#utility.yul\":27474:27560   */\n      swap1\n      pop\n        /* \"#utility.yul\":27607:27616   */\n      dup2\n        /* \"#utility.yul\":27601:27605   */\n      dup2\n        /* \"#utility.yul\":27597:27617   */\n      sub\n        /* \"#utility.yul\":27592:27594   */\n      0x40\n        /* \"#utility.yul\":27581:27590   */\n      dup4\n        /* \"#utility.yul\":27577:27595   */\n      add\n        /* \"#utility.yul\":27570:27618   */\n      mstore\n        /* \"#utility.yul\":27635:27713   */\n      tag_588\n        /* \"#utility.yul\":27708:27712   */\n      dup2\n        /* \"#utility.yul\":27699:27705   */\n      dup9\n        /* \"#utility.yul\":27635:27713   */\n      tag_247\n      jump\t// in\n    tag_588:\n        /* \"#utility.yul\":27627:27713   */\n      swap1\n      pop\n        /* \"#utility.yul\":27723:27803   */\n      tag_589\n        /* \"#utility.yul\":27799:27801   */\n      0x60\n        /* \"#utility.yul\":27788:27797   */\n      dup4\n        /* \"#utility.yul\":27784:27802   */\n      add\n        /* \"#utility.yul\":27775:27781   */\n      dup8\n        /* \"#utility.yul\":27723:27803   */\n      tag_306\n      jump\t// in\n    tag_589:\n        /* \"#utility.yul\":27851:27860   */\n      dup2\n        /* \"#utility.yul\":27845:27849   */\n      dup2\n        /* \"#utility.yul\":27841:27861   */\n      sub\n        /* \"#utility.yul\":27835:27838   */\n      0x80\n        /* \"#utility.yul\":27824:27833   */\n      dup4\n        /* \"#utility.yul\":27820:27839   */\n      add\n        /* \"#utility.yul\":27813:27862   */\n      mstore\n        /* \"#utility.yul\":27879:27957   */\n      tag_590\n        /* \"#utility.yul\":27952:27956   */\n      dup2\n        /* \"#utility.yul\":27943:27949   */\n      dup7\n        /* \"#utility.yul\":27879:27957   */\n      tag_247\n      jump\t// in\n    tag_590:\n        /* \"#utility.yul\":27871:27957   */\n      swap1\n      pop\n        /* \"#utility.yul\":27967:28040   */\n      tag_591\n        /* \"#utility.yul\":28035:28038   */\n      0xa0\n        /* \"#utility.yul\":28024:28033   */\n      dup4\n        /* \"#utility.yul\":28020:28039   */\n      add\n        /* \"#utility.yul\":28011:28017   */\n      dup6\n        /* \"#utility.yul\":27967:28040   */\n      tag_242\n      jump\t// in\n    tag_591:\n        /* \"#utility.yul\":28050:28123   */\n      tag_592\n        /* \"#utility.yul\":28118:28121   */\n      0xc0\n        /* \"#utility.yul\":28107:28116   */\n      dup4\n        /* \"#utility.yul\":28103:28122   */\n      add\n        /* \"#utility.yul\":28094:28100   */\n      dup5\n        /* \"#utility.yul\":28050:28123   */\n      tag_250\n      jump\t// in\n    tag_592:\n        /* \"#utility.yul\":26955:28130   */\n      swap9\n      swap8\n      pop\n      pop\n      pop\n      pop\n      pop\n      pop\n      pop\n      pop\n      jump\t// out\n        /* \"#utility.yul\":28136:28369   */\n    tag_144:\n        /* \"#utility.yul\":28175:28178   */\n      0x00\n        /* \"#utility.yul\":28198:28222   */\n      tag_594\n        /* \"#utility.yul\":28216:28221   */\n      dup3\n        /* \"#utility.yul\":28198:28222   */\n      tag_239\n      jump\t// in\n    tag_594:\n        /* \"#utility.yul\":28189:28222   */\n      swap2\n      pop\n        /* \"#utility.yul\":28244:28310   */\n      0xffffffffffffffffffffffffffffffffffffffffffffffffffffffffffffffff\n        /* \"#utility.yul\":28237:28242   */\n      dup3\n        /* \"#utility.yul\":28234:28311   */\n      sub\n        /* \"#utility.yul\":28231:28334   */\n      tag_595\n      jumpi\n        /* \"#utility.yul\":28314:28332   */\n      tag_596\n      tag_286\n      jump\t// in\n    tag_596:\n        /* \"#utility.yul\":28231:28334   */\n    tag_595:\n        /* \"#utility.yul\":28361:28362   */\n      0x01\n        /* \"#utility.yul\":28354:28359   */\n      dup3\n        /* \"#utility.yul\":28350:28363   */\n      add\n        /* \"#utility.yul\":28343:28363   */\n      swap1\n      pop\n        /* \"#utility.yul\":28136:28369   */\n      swap2\n      swap1\n      pop\n      jump\t// out\n\n    auxdata: 0xa2646970667358221220cbcb14c83010ed2d450607ce925aeeccc5a91d11fd30698fc0e1b7b7b16418af64736f6c634300081a0033\n}\n",
				"bytecode": {
					"linkReferences": {},
					"object": "60806040525f600255348015610013575f80fd5b5060405161298e38038061298e8339818101604052810190610035919061021b565b335f73ffffffffffffffffffffffffffffffffffffffff168173ffffffffffffffffffffffffffffffffffffffff16036100a6575f6040517f1e4fbdf700000000000000000000000000000000000000000000000000000000815260040161009d9190610255565b60405180910390fd5b6100b5816100fc60201b60201c565b508060015f6101000a81548173ffffffffffffffffffffffffffffffffffffffff021916908373ffffffffffffffffffffffffffffffffffffffff1602179055505061026e565b5f805f9054906101000a900473ffffffffffffffffffffffffffffffffffffffff169050815f806101000a81548173ffffffffffffffffffffffffffffffffffffffff021916908373ffffffffffffffffffffffffffffffffffffffff1602179055508173ffffffffffffffffffffffffffffffffffffffff168173ffffffffffffffffffffffffffffffffffffffff167f8be0079c531659141344cd1fd0a4f28419497f9722a3daafe3b4186f6b6457e060405160405180910390a35050565b5f80fd5b5f73ffffffffffffffffffffffffffffffffffffffff82169050919050565b5f6101ea826101c1565b9050919050565b6101fa816101e0565b8114610204575f80fd5b50565b5f81519050610215816101f1565b92915050565b5f602082840312156102305761022f6101bd565b5b5f61023d84828501610207565b91505092915050565b61024f816101e0565b82525050565b5f6020820190506102685f830184610246565b92915050565b6127138061027b5f395ff3fe608060405234801561000f575f80fd5b50600436106100b2575f3560e01c80638da5cb5b1161006f5780638da5cb5b1461018e578063be07d1d9146101ac578063c6311e3f146101e2578063c7f758a814610218578063f2fde38b14610249578063f30282a114610265576100b2565b80630121b93f146100b6578063013cf08b146100d2578063159428d1146101085780632b499cab146101385780634c15676b14610168578063715018a614610184575b5f80fd5b6100d060048036038101906100cb91906118dc565b610283565b005b6100ec60048036038101906100e791906118dc565b610474565b6040516100ff97969594939291906119c5565b60405180910390f35b610122600480360381019061011d9190611a71565b610663565b60405161012f9190611c64565b60405180910390f35b610152600480360381019061014d9190611a71565b61091e565b60405161015f9190611c9e565b60405180910390f35b610182600480360381019061017d9190611de3565b61093b565b005b61018c610dae565b005b610196610dc1565b6040516101a39190611e9b565b60405180910390f35b6101c660048036038101906101c19190611eb4565b610de8565b6040516101d997969594939291906119c5565b60405180910390f35b6101fc60048036038101906101f791906118dc565b610ff1565b60405161020f97969594939291906119c5565b60405180910390f35b610232600480360381019061022d91906118dc565b6111ef565b604051610240929190611ef2565b60405180910390f35b610263600480360381019061025e9190611a71565b611447565b005b61026d6114cb565b60405161027a9190611c64565b60405180910390f35b5f60015f9054906101000a900473ffffffffffffffffffffffffffffffffffffffff1673ffffffffffffffffffffffffffffffffffffffff16630f53a470336040518263ffffffff1660e01b81526004016102de9190611e9b565b5f60405180830381865afa1580156102f8573d5f803e3d5ffd5b505050506040513d5f823e3d601f19601f820116820180604052508101906103209190612060565b90508060400151610366576040517f08c379a000000000000000000000000000000000000000000000000000000000815260040161035d906120f1565b60405180910390fd5b60055f3373ffffffffffffffffffffffffffffffffffffffff1673ffffffffffffffffffffffffffffffffffffffff1681526020019081526020015f205f9054906101000a900460ff16156103f0576040517f08c379a00000000000000000000000000000000000000000000000000000000081526004016103e790612159565b60405180910390fd5b600160045f8481526020019081526020015f206003015f82825461041491906121a4565b92505081905550600160055f3373ffffffffffffffffffffffffffffffffffffffff1673ffffffffffffffffffffffffffffffffffffffff1681526020019081526020015f205f6101000a81548160ff0219169083151502179055505050565b6004602052805f5260405f205f91509050805f01549080600101805461049990612204565b80601f01602080910402602001604051908101604052809291908181526020018280546104c590612204565b80156105105780601f106104e757610100808354040283529160200191610510565b820191905f5260205f20905b8154815290600101906020018083116104f357829003601f168201915b50505050509080600201805461052590612204565b80601f016020809104026020016040519081016040528092919081815260200182805461055190612204565b801561059c5780601f106105735761010080835404028352916020019161059c565b820191905f5260205f20905b81548152906001019060200180831161057f57829003601f168201915b5050505050908060030154908060040180546105b790612204565b80601f01602080910402602001604051908101604052809291908181526020018280546105e390612204565b801561062e5780601f106106055761010080835404028352916020019161062e565b820191905f5260205f20905b81548152906001019060200180831161061157829003601f168201915b505050505090806005015490806006015f9054906101000a900473ffffffffffffffffffffffffffffffffffffffff16905087565b606060035f8373ffffffffffffffffffffffffffffffffffffffff1673ffffffffffffffffffffffffffffffffffffffff1681526020019081526020015f20805480602002602001604051908101604052809291908181526020015f905b82821015610913578382905f5260205f2090600702016040518060e00160405290815f82015481526020016001820180546106fb90612204565b80601f016020809104026020016040519081016040528092919081815260200182805461072790612204565b80156107725780601f1061074957610100808354040283529160200191610772565b820191905f5260205f20905b81548152906001019060200180831161075557829003601f168201915b5050505050815260200160028201805461078b90612204565b80601f01602080910402602001604051908101604052809291908181526020018280546107b790612204565b80156108025780601f106107d957610100808354040283529160200191610802565b820191905f5260205f20905b8154815290600101906020018083116107e557829003601f168201915b505050505081526020016003820154815260200160048201805461082590612204565b80601f016020809104026020016040519081016040528092919081815260200182805461085190612204565b801561089c5780601f106108735761010080835404028352916020019161089c565b820191905f5260205f20905b81548152906001019060200180831161087f57829003601f168201915b5050505050815260200160058201548152602001600682015f9054906101000a900473ffffffffffffffffffffffffffffffffffffffff1673ffffffffffffffffffffffffffffffffffffffff1673ffffffffffffffffffffffffffffffffffffffff1681525050815260200190600101906106c1565b505050509050919050565b6005602052805f5260405f205f915054906101000a900460ff1681565b5f60015f9054906101000a900473ffffffffffffffffffffffffffffffffffffffff1673ffffffffffffffffffffffffffffffffffffffff16630f53a470336040518263ffffffff1660e01b81526004016109969190611e9b565b5f60405180830381865afa1580156109b0573d5f803e3d5ffd5b505050506040513d5f823e3d601f19601f820116820180604052508101906109d89190612060565b90508060400151610a1e576040517f08c379a0000000000000000000000000000000000000000000000000000000008152600401610a15906120f1565b60405180910390fd5b5f603c83610a2c9190612234565b42610a3791906121a4565b90505f6040518060e0016040528060025481526020018881526020018781526020015f81526020018681526020018381526020013373ffffffffffffffffffffffffffffffffffffffff1681525090508060045f60025481526020019081526020015f205f820151815f01556020820151816001019081610ab89190612412565b506040820151816002019081610ace9190612412565b50606082015181600301556080820151816004019081610aee9190612412565b5060a0820151816005015560c0820151816006015f6101000a81548173ffffffffffffffffffffffffffffffffffffffff021916908373ffffffffffffffffffffffffffffffffffffffff16021790555090505060035f3373ffffffffffffffffffffffffffffffffffffffff1673ffffffffffffffffffffffffffffffffffffffff1681526020019081526020015f2081908060018154018082558091505060019003905f5260205f2090600702015f909190919091505f820151815f01556020820151816001019081610bc39190612412565b506040820151816002019081610bd99190612412565b50606082015181600301556080820151816004019081610bf99190612412565b5060a0820151816005015560c0820151816006015f6101000a81548173ffffffffffffffffffffffffffffffffffffffff021916908373ffffffffffffffffffffffffffffffffffffffff1602179055505050600660045f60025481526020019081526020015f20908060018154018082558091505060019003905f5260205f2090600702015f909190919091505f820154815f015560018201816001019081610ca391906124f6565b5060028201816002019081610cb891906124f6565b506003820154816003015560048201816004019081610cd791906124f6565b5060058201548160050155600682015f9054906101000a900473ffffffffffffffffffffffffffffffffffffffff16816006015f6101000a81548173ffffffffffffffffffffffffffffffffffffffff021916908373ffffffffffffffffffffffffffffffffffffffff16021790555050507f1961f6452621f42ceb4621cac123d1a782ecd2620c2d8c755fbf8f7c849b24a460025488885f898733604051610d869796959493929190612614565b60405180910390a160025f815480929190610da090612696565b919050555050505050505050565b610db6611749565b610dbf5f6117d0565b565b5f805f9054906101000a900473ffffffffffffffffffffffffffffffffffffffff16905090565b6003602052815f5260405f208181548110610e01575f80fd5b905f5260205f2090600702015f9150915050805f015490806001018054610e2790612204565b80601f0160208091040260200160405190810160405280929190818152602001828054610e5390612204565b8015610e9e5780601f10610e7557610100808354040283529160200191610e9e565b820191905f5260205f20905b815481529060010190602001808311610e8157829003601f168201915b505050505090806002018054610eb390612204565b80601f0160208091040260200160405190810160405280929190818152602001828054610edf90612204565b8015610f2a5780601f10610f0157610100808354040283529160200191610f2a565b820191905f5260205f20905b815481529060010190602001808311610f0d57829003601f168201915b505050505090806003015490806004018054610f4590612204565b80601f0160208091040260200160405190810160405280929190818152602001828054610f7190612204565b8015610fbc5780601f10610f9357610100808354040283529160200191610fbc565b820191905f5260205f20905b815481529060010190602001808311610f9f57829003601f168201915b505050505090806005015490806006015f9054906101000a900473ffffffffffffffffffffffffffffffffffffffff16905087565b60068181548110611000575f80fd5b905f5260205f2090600702015f91509050805f01549080600101805461102590612204565b80601f016020809104026020016040519081016040528092919081815260200182805461105190612204565b801561109c5780601f106110735761010080835404028352916020019161109c565b820191905f5260205f20905b81548152906001019060200180831161107f57829003601f168201915b5050505050908060020180546110b190612204565b80601f01602080910402602001604051908101604052809291908181526020018280546110dd90612204565b80156111285780601f106110ff57610100808354040283529160200191611128565b820191905f5260205f20905b81548152906001019060200180831161110b57829003601f168201915b50505050509080600301549080600401805461114390612204565b80601f016020809104026020016040519081016040528092919081815260200182805461116f90612204565b80156111ba5780601f10611191576101008083540402835291602001916111ba565b820191905f5260205f20905b81548152906001019060200180831161119d57829003601f168201915b505050505090806005015490806006015f9054906101000a900473ffffffffffffffffffffffffffffffffffffffff16905087565b6060805f60045f8581526020019081526020015f206040518060e00160405290815f820154815260200160018201805461122890612204565b80601f016020809104026020016040519081016040528092919081815260200182805461125490612204565b801561129f5780601f106112765761010080835404028352916020019161129f565b820191905f5260205f20905b81548152906001019060200180831161128257829003601f168201915b505050505081526020016002820180546112b890612204565b80601f01602080910402602001604051908101604052809291908181526020018280546112e490612204565b801561132f5780601f106113065761010080835404028352916020019161132f565b820191905f5260205f20905b81548152906001019060200180831161131257829003601f168201915b505050505081526020016003820154815260200160048201805461135290612204565b80601f016020809104026020016040519081016040528092919081815260200182805461137e90612204565b80156113c95780601f106113a0576101008083540402835291602001916113c9565b820191905f5260205f20905b8154815290600101906020018083116113ac57829003601f168201915b5050505050815260200160058201548152602001600682015f9054906101000a900473ffffffffffffffffffffffffffffffffffffffff1673ffffffffffffffffffffffffffffffffffffffff1673ffffffffffffffffffffffffffffffffffffffff16815250509050806020015181604001519250925050915091565b61144f611749565b5f73ffffffffffffffffffffffffffffffffffffffff168173ffffffffffffffffffffffffffffffffffffffff16036114bf575f6040517f1e4fbdf70000000000000000000000000000000000000000000000000000000081526004016114b69190611e9b565b60405180910390fd5b6114c8816117d0565b50565b60606006805480602002602001604051908101604052809291908181526020015f905b82821015611740578382905f5260205f2090600702016040518060e00160405290815f820154815260200160018201805461152890612204565b80601f016020809104026020016040519081016040528092919081815260200182805461155490612204565b801561159f5780601f106115765761010080835404028352916020019161159f565b820191905f5260205f20905b81548152906001019060200180831161158257829003601f168201915b505050505081526020016002820180546115b890612204565b80601f01602080910402602001604051908101604052809291908181526020018280546115e490612204565b801561162f5780601f106116065761010080835404028352916020019161162f565b820191905f5260205f20905b81548152906001019060200180831161161257829003601f168201915b505050505081526020016003820154815260200160048201805461165290612204565b80601f016020809104026020016040519081016040528092919081815260200182805461167e90612204565b80156116c95780601f106116a0576101008083540402835291602001916116c9565b820191905f5260205f20905b8154815290600101906020018083116116ac57829003601f168201915b5050505050815260200160058201548152602001600682015f9054906101000a900473ffffffffffffffffffffffffffffffffffffffff1673ffffffffffffffffffffffffffffffffffffffff1673ffffffffffffffffffffffffffffffffffffffff1681525050815260200190600101906114ee565b50505050905090565b611751611891565b73ffffffffffffffffffffffffffffffffffffffff1661176f610dc1565b73ffffffffffffffffffffffffffffffffffffffff16146117ce57611792611891565b6040517f118cdaa70000000000000000000000000000000000000000000000000000000081526004016117c59190611e9b565b60405180910390fd5b565b5f805f9054906101000a900473ffffffffffffffffffffffffffffffffffffffff169050815f806101000a81548173ffffffffffffffffffffffffffffffffffffffff021916908373ffffffffffffffffffffffffffffffffffffffff1602179055508173ffffffffffffffffffffffffffffffffffffffff168173ffffffffffffffffffffffffffffffffffffffff167f8be0079c531659141344cd1fd0a4f28419497f9722a3daafe3b4186f6b6457e060405160405180910390a35050565b5f33905090565b5f604051905090565b5f80fd5b5f80fd5b5f819050919050565b6118bb816118a9565b81146118c5575f80fd5b50565b5f813590506118d6816118b2565b92915050565b5f602082840312156118f1576118f06118a1565b5b5f6118fe848285016118c8565b91505092915050565b611910816118a9565b82525050565b5f81519050919050565b5f82825260208201905092915050565b8281835e5f83830152505050565b5f601f19601f8301169050919050565b5f61195882611916565b6119628185611920565b9350611972818560208601611930565b61197b8161193e565b840191505092915050565b5f73ffffffffffffffffffffffffffffffffffffffff82169050919050565b5f6119af82611986565b9050919050565b6119bf816119a5565b82525050565b5f60e0820190506119d85f83018a611907565b81810360208301526119ea818961194e565b905081810360408301526119fe818861194e565b9050611a0d6060830187611907565b8181036080830152611a1f818661194e565b9050611a2e60a0830185611907565b611a3b60c08301846119b6565b98975050505050505050565b611a50816119a5565b8114611a5a575f80fd5b50565b5f81359050611a6b81611a47565b92915050565b5f60208284031215611a8657611a856118a1565b5b5f611a9384828501611a5d565b91505092915050565b5f81519050919050565b5f82825260208201905092915050565b5f819050602082019050919050565b611ace816118a9565b82525050565b5f82825260208201905092915050565b5f611aee82611916565b611af88185611ad4565b9350611b08818560208601611930565b611b118161193e565b840191505092915050565b611b25816119a5565b82525050565b5f60e083015f830151611b405f860182611ac5565b5060208301518482036020860152611b588282611ae4565b91505060408301518482036040860152611b728282611ae4565b9150506060830151611b876060860182611ac5565b5060808301518482036080860152611b9f8282611ae4565b91505060a0830151611bb460a0860182611ac5565b5060c0830151611bc760c0860182611b1c565b508091505092915050565b5f611bdd8383611b2b565b905092915050565b5f602082019050919050565b5f611bfb82611a9c565b611c058185611aa6565b935083602082028501611c1785611ab6565b805f5b85811015611c525784840389528151611c338582611bd2565b9450611c3e83611be5565b925060208a01995050600181019050611c1a565b50829750879550505050505092915050565b5f6020820190508181035f830152611c7c8184611bf1565b905092915050565b5f8115159050919050565b611c9881611c84565b82525050565b5f602082019050611cb15f830184611c8f565b92915050565b5f80fd5b5f80fd5b7f4e487b71000000000000000000000000000000000000000000000000000000005f52604160045260245ffd5b611cf58261193e565b810181811067ffffffffffffffff82111715611d1457611d13611cbf565b5b80604052505050565b5f611d26611898565b9050611d328282611cec565b919050565b5f67ffffffffffffffff821115611d5157611d50611cbf565b5b611d5a8261193e565b9050602081019050919050565b828183375f83830152505050565b5f611d87611d8284611d37565b611d1d565b905082815260208101848484011115611da357611da2611cbb565b5b611dae848285611d67565b509392505050565b5f82601f830112611dca57611dc9611cb7565b5b8135611dda848260208601611d75565b91505092915050565b5f805f8060808587031215611dfb57611dfa6118a1565b5b5f85013567ffffffffffffffff811115611e1857611e176118a5565b5b611e2487828801611db6565b945050602085013567ffffffffffffffff811115611e4557611e446118a5565b5b611e5187828801611db6565b935050604085013567ffffffffffffffff811115611e7257611e716118a5565b5b611e7e87828801611db6565b9250506060611e8f878288016118c8565b91505092959194509250565b5f602082019050611eae5f8301846119b6565b92915050565b5f8060408385031215611eca57611ec96118a1565b5b5f611ed785828601611a5d565b9250506020611ee8858286016118c8565b9150509250929050565b5f6040820190508181035f830152611f0a818561194e565b90508181036020830152611f1e818461194e565b90509392505050565b5f80fd5b5f80fd5b5f611f41611f3c84611d37565b611d1d565b905082815260208101848484011115611f5d57611f5c611cbb565b5b611f68848285611930565b509392505050565b5f82601f830112611f8457611f83611cb7565b5b8151611f94848260208601611f2f565b91505092915050565b611fa681611c84565b8114611fb0575f80fd5b50565b5f81519050611fc181611f9d565b92915050565b5f60608284031215611fdc57611fdb611f27565b5b611fe66060611d1d565b90505f82015167ffffffffffffffff81111561200557612004611f2b565b5b61201184828501611f70565b5f83015250602082015167ffffffffffffffff81111561203457612033611f2b565b5b61204084828501611f70565b602083015250604061205484828501611fb3565b60408301525092915050565b5f60208284031215612075576120746118a1565b5b5f82015167ffffffffffffffff811115612092576120916118a5565b5b61209e84828501611fc7565b91505092915050565b7f596f75206861766520746f2052656769737465726400000000000000000000005f82015250565b5f6120db601583611920565b91506120e6826120a7565b602082019050919050565b5f6020820190508181035f830152612108816120cf565b9050919050565b7f596f752061726520616c726561647920566f74656421000000000000000000005f82015250565b5f612143601683611920565b915061214e8261210f565b602082019050919050565b5f6020820190508181035f83015261217081612137565b9050919050565b7f4e487b71000000000000000000000000000000000000000000000000000000005f52601160045260245ffd5b5f6121ae826118a9565b91506121b9836118a9565b92508282019050808211156121d1576121d0612177565b5b92915050565b7f4e487b71000000000000000000000000000000000000000000000000000000005f52602260045260245ffd5b5f600282049050600182168061221b57607f821691505b60208210810361222e5761222d6121d7565b5b50919050565b5f61223e826118a9565b9150612249836118a9565b9250828202612257816118a9565b9150828204841483151761226e5761226d612177565b5b5092915050565b5f819050815f5260205f209050919050565b5f6020601f8301049050919050565b5f82821b905092915050565b5f600883026122d17fffffffffffffffffffffffffffffffffffffffffffffffffffffffffffffffff82612296565b6122db8683612296565b95508019841693508086168417925050509392505050565b5f819050919050565b5f61231661231161230c846118a9565b6122f3565b6118a9565b9050919050565b5f819050919050565b61232f836122fc565b61234361233b8261231d565b8484546122a2565b825550505050565b5f90565b61235761234b565b612362818484612326565b505050565b5b818110156123855761237a5f8261234f565b600181019050612368565b5050565b601f8211156123ca5761239b81612275565b6123a484612287565b810160208510156123b3578190505b6123c76123bf85612287565b830182612367565b50505b505050565b5f82821c905092915050565b5f6123ea5f19846008026123cf565b1980831691505092915050565b5f61240283836123db565b9150826002028217905092915050565b61241b82611916565b67ffffffffffffffff81111561243457612433611cbf565b5b61243e8254612204565b612449828285612389565b5f60209050601f83116001811461247a575f8415612468578287015190505b61247285826123f7565b8655506124d9565b601f19841661248886612275565b5f5b828110156124af5784890151825560018201915060208501945060208101905061248a565b868310156124cc57848901516124c8601f8916826123db565b8355505b6001600288020188555050505b505050505050565b5f815490506124ef81612204565b9050919050565b8181036125045750506125d9565b61250d826124e1565b67ffffffffffffffff81111561252657612525611cbf565b5b6125308254612204565b61253b828285612389565b5f601f831160018114612568575f8415612556578287015490505b61256085826123f7565b8655506125d2565b601f19841661257687612275565b965061258186612275565b5f5b828110156125a857848901548255600182019150600185019450602081019050612583565b868310156125c557848901546125c1601f8916826123db565b8355505b6001600288020188555050505b5050505050505b565b5f819050919050565b5f6125fe6125f96125f4846125db565b6122f3565b6118a9565b9050919050565b61260e816125e4565b82525050565b5f60e0820190506126275f83018a611907565b8181036020830152612639818961194e565b9050818103604083015261264d818861194e565b905061265c6060830187612605565b818103608083015261266e818661194e565b905061267d60a0830185611907565b61268a60c08301846119b6565b98975050505050505050565b5f6126a0826118a9565b91507fffffffffffffffffffffffffffffffffffffffffffffffffffffffffffffffff82036126d2576126d1612177565b5b60018201905091905056fea2646970667358221220cbcb14c83010ed2d450607ce925aeeccc5a91d11fd30698fc0e1b7b7b16418af64736f6c634300081a0033",
					"opcodes": "PUSH1 0x80 PUSH1 0x40 MSTORE PUSH0 PUSH1 0x2 SSTORE CALLVALUE DUP1 ISZERO PUSH2 0x13 JUMPI PUSH0 DUP1 REVERT JUMPDEST POP PUSH1 0x40 MLOAD PUSH2 0x298E CODESIZE SUB DUP1 PUSH2 0x298E DUP4 CODECOPY DUP2 DUP2 ADD PUSH1 0x40 MSTORE DUP2 ADD SWAP1 PUSH2 0x35 SWAP2 SWAP1 PUSH2 0x21B JUMP JUMPDEST CALLER PUSH0 PUSH20 0xFFFFFFFFFFFFFFFFFFFFFFFFFFFFFFFFFFFFFFFF AND DUP2 PUSH20 0xFFFFFFFFFFFFFFFFFFFFFFFFFFFFFFFFFFFFFFFF AND SUB PUSH2 0xA6 JUMPI PUSH0 PUSH1 0x40 MLOAD PUSH32 0x1E4FBDF700000000000000000000000000000000000000000000000000000000 DUP2 MSTORE PUSH1 0x4 ADD PUSH2 0x9D SWAP2 SWAP1 PUSH2 0x255 JUMP JUMPDEST PUSH1 0x40 MLOAD DUP1 SWAP2 SUB SWAP1 REVERT JUMPDEST PUSH2 0xB5 DUP2 PUSH2 0xFC PUSH1 0x20 SHL PUSH1 0x20 SHR JUMP JUMPDEST POP DUP1 PUSH1 0x1 PUSH0 PUSH2 0x100 EXP DUP2 SLOAD DUP2 PUSH20 0xFFFFFFFFFFFFFFFFFFFFFFFFFFFFFFFFFFFFFFFF MUL NOT AND SWAP1 DUP4 PUSH20 0xFFFFFFFFFFFFFFFFFFFFFFFFFFFFFFFFFFFFFFFF AND MUL OR SWAP1 SSTORE POP POP PUSH2 0x26E JUMP JUMPDEST PUSH0 DUP1 PUSH0 SWAP1 SLOAD SWAP1 PUSH2 0x100 EXP SWAP1 DIV PUSH20 0xFFFFFFFFFFFFFFFFFFFFFFFFFFFFFFFFFFFFFFFF AND SWAP1 POP DUP2 PUSH0 DUP1 PUSH2 0x100 EXP DUP2 SLOAD DUP2 PUSH20 0xFFFFFFFFFFFFFFFFFFFFFFFFFFFFFFFFFFFFFFFF MUL NOT AND SWAP1 DUP4 PUSH20 0xFFFFFFFFFFFFFFFFFFFFFFFFFFFFFFFFFFFFFFFF AND MUL OR SWAP1 SSTORE POP DUP2 PUSH20 0xFFFFFFFFFFFFFFFFFFFFFFFFFFFFFFFFFFFFFFFF AND DUP2 PUSH20 0xFFFFFFFFFFFFFFFFFFFFFFFFFFFFFFFFFFFFFFFF AND PUSH32 0x8BE0079C531659141344CD1FD0A4F28419497F9722A3DAAFE3B4186F6B6457E0 PUSH1 0x40 MLOAD PUSH1 0x40 MLOAD DUP1 SWAP2 SUB SWAP1 LOG3 POP POP JUMP JUMPDEST PUSH0 DUP1 REVERT JUMPDEST PUSH0 PUSH20 0xFFFFFFFFFFFFFFFFFFFFFFFFFFFFFFFFFFFFFFFF DUP3 AND SWAP1 POP SWAP2 SWAP1 POP JUMP JUMPDEST PUSH0 PUSH2 0x1EA DUP3 PUSH2 0x1C1 JUMP JUMPDEST SWAP1 POP SWAP2 SWAP1 POP JUMP JUMPDEST PUSH2 0x1FA DUP2 PUSH2 0x1E0 JUMP JUMPDEST DUP2 EQ PUSH2 0x204 JUMPI PUSH0 DUP1 REVERT JUMPDEST POP JUMP JUMPDEST PUSH0 DUP2 MLOAD SWAP1 POP PUSH2 0x215 DUP2 PUSH2 0x1F1 JUMP JUMPDEST SWAP3 SWAP2 POP POP JUMP JUMPDEST PUSH0 PUSH1 0x20 DUP3 DUP5 SUB SLT ISZERO PUSH2 0x230 JUMPI PUSH2 0x22F PUSH2 0x1BD JUMP JUMPDEST JUMPDEST PUSH0 PUSH2 0x23D DUP5 DUP3 DUP6 ADD PUSH2 0x207 JUMP JUMPDEST SWAP2 POP POP SWAP3 SWAP2 POP POP JUMP JUMPDEST PUSH2 0x24F DUP2 PUSH2 0x1E0 JUMP JUMPDEST DUP3 MSTORE POP POP JUMP JUMPDEST PUSH0 PUSH1 0x20 DUP3 ADD SWAP1 POP PUSH2 0x268 PUSH0 DUP4 ADD DUP5 PUSH2 0x246 JUMP JUMPDEST SWAP3 SWAP2 POP POP JUMP JUMPDEST PUSH2 0x2713 DUP1 PUSH2 0x27B PUSH0 CODECOPY PUSH0 RETURN INVALID PUSH1 0x80 PUSH1 0x40 MSTORE CALLVALUE DUP1 ISZERO PUSH2 0xF JUMPI PUSH0 DUP1 REVERT JUMPDEST POP PUSH1 0x4 CALLDATASIZE LT PUSH2 0xB2 JUMPI PUSH0 CALLDATALOAD PUSH1 0xE0 SHR DUP1 PUSH4 0x8DA5CB5B GT PUSH2 0x6F JUMPI DUP1 PUSH4 0x8DA5CB5B EQ PUSH2 0x18E JUMPI DUP1 PUSH4 0xBE07D1D9 EQ PUSH2 0x1AC JUMPI DUP1 PUSH4 0xC6311E3F EQ PUSH2 0x1E2 JUMPI DUP1 PUSH4 0xC7F758A8 EQ PUSH2 0x218 JUMPI DUP1 PUSH4 0xF2FDE38B EQ PUSH2 0x249 JUMPI DUP1 PUSH4 0xF30282A1 EQ PUSH2 0x265 JUMPI PUSH2 0xB2 JUMP JUMPDEST DUP1 PUSH4 0x121B93F EQ PUSH2 0xB6 JUMPI DUP1 PUSH4 0x13CF08B EQ PUSH2 0xD2 JUMPI DUP1 PUSH4 0x159428D1 EQ PUSH2 0x108 JUMPI DUP1 PUSH4 0x2B499CAB EQ PUSH2 0x138 JUMPI DUP1 PUSH4 0x4C15676B EQ PUSH2 0x168 JUMPI DUP1 PUSH4 0x715018A6 EQ PUSH2 0x184 JUMPI JUMPDEST PUSH0 DUP1 REVERT JUMPDEST PUSH2 0xD0 PUSH1 0x4 DUP1 CALLDATASIZE SUB DUP2 ADD SWAP1 PUSH2 0xCB SWAP2 SWAP1 PUSH2 0x18DC JUMP JUMPDEST PUSH2 0x283 JUMP JUMPDEST STOP JUMPDEST PUSH2 0xEC PUSH1 0x4 DUP1 CALLDATASIZE SUB DUP2 ADD SWAP1 PUSH2 0xE7 SWAP2 SWAP1 PUSH2 0x18DC JUMP JUMPDEST PUSH2 0x474 JUMP JUMPDEST PUSH1 0x40 MLOAD PUSH2 0xFF SWAP8 SWAP7 SWAP6 SWAP5 SWAP4 SWAP3 SWAP2 SWAP1 PUSH2 0x19C5 JUMP JUMPDEST PUSH1 0x40 MLOAD DUP1 SWAP2 SUB SWAP1 RETURN JUMPDEST PUSH2 0x122 PUSH1 0x4 DUP1 CALLDATASIZE SUB DUP2 ADD SWAP1 PUSH2 0x11D SWAP2 SWAP1 PUSH2 0x1A71 JUMP JUMPDEST PUSH2 0x663 JUMP JUMPDEST PUSH1 0x40 MLOAD PUSH2 0x12F SWAP2 SWAP1 PUSH2 0x1C64 JUMP JUMPDEST PUSH1 0x40 MLOAD DUP1 SWAP2 SUB SWAP1 RETURN JUMPDEST PUSH2 0x152 PUSH1 0x4 DUP1 CALLDATASIZE SUB DUP2 ADD SWAP1 PUSH2 0x14D SWAP2 SWAP1 PUSH2 0x1A71 JUMP JUMPDEST PUSH2 0x91E JUMP JUMPDEST PUSH1 0x40 MLOAD PUSH2 0x15F SWAP2 SWAP1 PUSH2 0x1C9E JUMP JUMPDEST PUSH1 0x40 MLOAD DUP1 SWAP2 SUB SWAP1 RETURN JUMPDEST PUSH2 0x182 PUSH1 0x4 DUP1 CALLDATASIZE SUB DUP2 ADD SWAP1 PUSH2 0x17D SWAP2 SWAP1 PUSH2 0x1DE3 JUMP JUMPDEST PUSH2 0x93B JUMP JUMPDEST STOP JUMPDEST PUSH2 0x18C PUSH2 0xDAE JUMP JUMPDEST STOP JUMPDEST PUSH2 0x196 PUSH2 0xDC1 JUMP JUMPDEST PUSH1 0x40 MLOAD PUSH2 0x1A3 SWAP2 SWAP1 PUSH2 0x1E9B JUMP JUMPDEST PUSH1 0x40 MLOAD DUP1 SWAP2 SUB SWAP1 RETURN JUMPDEST PUSH2 0x1C6 PUSH1 0x4 DUP1 CALLDATASIZE SUB DUP2 ADD SWAP1 PUSH2 0x1C1 SWAP2 SWAP1 PUSH2 0x1EB4 JUMP JUMPDEST PUSH2 0xDE8 JUMP JUMPDEST PUSH1 0x40 MLOAD PUSH2 0x1D9 SWAP8 SWAP7 SWAP6 SWAP5 SWAP4 SWAP3 SWAP2 SWAP1 PUSH2 0x19C5 JUMP JUMPDEST PUSH1 0x40 MLOAD DUP1 SWAP2 SUB SWAP1 RETURN JUMPDEST PUSH2 0x1FC PUSH1 0x4 DUP1 CALLDATASIZE SUB DUP2 ADD SWAP1 PUSH2 0x1F7 SWAP2 SWAP1 PUSH2 0x18DC JUMP JUMPDEST PUSH2 0xFF1 JUMP JUMPDEST PUSH1 0x40 MLOAD PUSH2 0x20F SWAP8 SWAP7 SWAP6 SWAP5 SWAP4 SWAP3 SWAP2 SWAP1 PUSH2 0x19C5 JUMP JUMPDEST PUSH1 0x40 MLOAD DUP1 SWAP2 SUB SWAP1 RETURN JUMPDEST PUSH2 0x232 PUSH1 0x4 DUP1 CALLDATASIZE SUB DUP2 ADD SWAP1 PUSH2 0x22D SWAP2 SWAP1 PUSH2 0x18DC JUMP JUMPDEST PUSH2 0x11EF JUMP JUMPDEST PUSH1 0x40 MLOAD PUSH2 0x240 SWAP3 SWAP2 SWAP1 PUSH2 0x1EF2 JUMP JUMPDEST PUSH1 0x40 MLOAD DUP1 SWAP2 SUB SWAP1 RETURN JUMPDEST PUSH2 0x263 PUSH1 0x4 DUP1 CALLDATASIZE SUB DUP2 ADD SWAP1 PUSH2 0x25E SWAP2 SWAP1 PUSH2 0x1A71 JUMP JUMPDEST PUSH2 0x1447 JUMP JUMPDEST STOP JUMPDEST PUSH2 0x26D PUSH2 0x14CB JUMP JUMPDEST PUSH1 0x40 MLOAD PUSH2 0x27A SWAP2 SWAP1 PUSH2 0x1C64 JUMP JUMPDEST PUSH1 0x40 MLOAD DUP1 SWAP2 SUB SWAP1 RETURN JUMPDEST PUSH0 PUSH1 0x1 PUSH0 SWAP1 SLOAD SWAP1 PUSH2 0x100 EXP SWAP1 DIV PUSH20 0xFFFFFFFFFFFFFFFFFFFFFFFFFFFFFFFFFFFFFFFF AND PUSH20 0xFFFFFFFFFFFFFFFFFFFFFFFFFFFFFFFFFFFFFFFF AND PUSH4 0xF53A470 CALLER PUSH1 0x40 MLOAD DUP3 PUSH4 0xFFFFFFFF AND PUSH1 0xE0 SHL DUP2 MSTORE PUSH1 0x4 ADD PUSH2 0x2DE SWAP2 SWAP1 PUSH2 0x1E9B JUMP JUMPDEST PUSH0 PUSH1 0x40 MLOAD DUP1 DUP4 SUB DUP2 DUP7 GAS STATICCALL ISZERO DUP1 ISZERO PUSH2 0x2F8 JUMPI RETURNDATASIZE PUSH0 DUP1 RETURNDATACOPY RETURNDATASIZE PUSH0 REVERT JUMPDEST POP POP POP POP PUSH1 0x40 MLOAD RETURNDATASIZE PUSH0 DUP3 RETURNDATACOPY RETURNDATASIZE PUSH1 0x1F NOT PUSH1 0x1F DUP3 ADD AND DUP3 ADD DUP1 PUSH1 0x40 MSTORE POP DUP2 ADD SWAP1 PUSH2 0x320 SWAP2 SWAP1 PUSH2 0x2060 JUMP JUMPDEST SWAP1 POP DUP1 PUSH1 0x40 ADD MLOAD PUSH2 0x366 JUMPI PUSH1 0x40 MLOAD PUSH32 0x8C379A000000000000000000000000000000000000000000000000000000000 DUP2 MSTORE PUSH1 0x4 ADD PUSH2 0x35D SWAP1 PUSH2 0x20F1 JUMP JUMPDEST PUSH1 0x40 MLOAD DUP1 SWAP2 SUB SWAP1 REVERT JUMPDEST PUSH1 0x5 PUSH0 CALLER PUSH20 0xFFFFFFFFFFFFFFFFFFFFFFFFFFFFFFFFFFFFFFFF AND PUSH20 0xFFFFFFFFFFFFFFFFFFFFFFFFFFFFFFFFFFFFFFFF AND DUP2 MSTORE PUSH1 0x20 ADD SWAP1 DUP2 MSTORE PUSH1 0x20 ADD PUSH0 KECCAK256 PUSH0 SWAP1 SLOAD SWAP1 PUSH2 0x100 EXP SWAP1 DIV PUSH1 0xFF AND ISZERO PUSH2 0x3F0 JUMPI PUSH1 0x40 MLOAD PUSH32 0x8C379A000000000000000000000000000000000000000000000000000000000 DUP2 MSTORE PUSH1 0x4 ADD PUSH2 0x3E7 SWAP1 PUSH2 0x2159 JUMP JUMPDEST PUSH1 0x40 MLOAD DUP1 SWAP2 SUB SWAP1 REVERT JUMPDEST PUSH1 0x1 PUSH1 0x4 PUSH0 DUP5 DUP2 MSTORE PUSH1 0x20 ADD SWAP1 DUP2 MSTORE PUSH1 0x20 ADD PUSH0 KECCAK256 PUSH1 0x3 ADD PUSH0 DUP3 DUP3 SLOAD PUSH2 0x414 SWAP2 SWAP1 PUSH2 0x21A4 JUMP JUMPDEST SWAP3 POP POP DUP2 SWAP1 SSTORE POP PUSH1 0x1 PUSH1 0x5 PUSH0 CALLER PUSH20 0xFFFFFFFFFFFFFFFFFFFFFFFFFFFFFFFFFFFFFFFF AND PUSH20 0xFFFFFFFFFFFFFFFFFFFFFFFFFFFFFFFFFFFFFFFF AND DUP2 MSTORE PUSH1 0x20 ADD SWAP1 DUP2 MSTORE PUSH1 0x20 ADD PUSH0 KECCAK256 PUSH0 PUSH2 0x100 EXP DUP2 SLOAD DUP2 PUSH1 0xFF MUL NOT AND SWAP1 DUP4 ISZERO ISZERO MUL OR SWAP1 SSTORE POP POP POP JUMP JUMPDEST PUSH1 0x4 PUSH1 0x20 MSTORE DUP1 PUSH0 MSTORE PUSH1 0x40 PUSH0 KECCAK256 PUSH0 SWAP2 POP SWAP1 POP DUP1 PUSH0 ADD SLOAD SWAP1 DUP1 PUSH1 0x1 ADD DUP1 SLOAD PUSH2 0x499 SWAP1 PUSH2 0x2204 JUMP JUMPDEST DUP1 PUSH1 0x1F ADD PUSH1 0x20 DUP1 SWAP2 DIV MUL PUSH1 0x20 ADD PUSH1 0x40 MLOAD SWAP1 DUP2 ADD PUSH1 0x40 MSTORE DUP1 SWAP3 SWAP2 SWAP1 DUP2 DUP2 MSTORE PUSH1 0x20 ADD DUP3 DUP1 SLOAD PUSH2 0x4C5 SWAP1 PUSH2 0x2204 JUMP JUMPDEST DUP1 ISZERO PUSH2 0x510 JUMPI DUP1 PUSH1 0x1F LT PUSH2 0x4E7 JUMPI PUSH2 0x100 DUP1 DUP4 SLOAD DIV MUL DUP4 MSTORE SWAP2 PUSH1 0x20 ADD SWAP2 PUSH2 0x510 JUMP JUMPDEST DUP3 ADD SWAP2 SWAP1 PUSH0 MSTORE PUSH1 0x20 PUSH0 KECCAK256 SWAP1 JUMPDEST DUP2 SLOAD DUP2 MSTORE SWAP1 PUSH1 0x1 ADD SWAP1 PUSH1 0x20 ADD DUP1 DUP4 GT PUSH2 0x4F3 JUMPI DUP3 SWAP1 SUB PUSH1 0x1F AND DUP3 ADD SWAP2 JUMPDEST POP POP POP POP POP SWAP1 DUP1 PUSH1 0x2 ADD DUP1 SLOAD PUSH2 0x525 SWAP1 PUSH2 0x2204 JUMP JUMPDEST DUP1 PUSH1 0x1F ADD PUSH1 0x20 DUP1 SWAP2 DIV MUL PUSH1 0x20 ADD PUSH1 0x40 MLOAD SWAP1 DUP2 ADD PUSH1 0x40 MSTORE DUP1 SWAP3 SWAP2 SWAP1 DUP2 DUP2 MSTORE PUSH1 0x20 ADD DUP3 DUP1 SLOAD PUSH2 0x551 SWAP1 PUSH2 0x2204 JUMP JUMPDEST DUP1 ISZERO PUSH2 0x59C JUMPI DUP1 PUSH1 0x1F LT PUSH2 0x573 JUMPI PUSH2 0x100 DUP1 DUP4 SLOAD DIV MUL DUP4 MSTORE SWAP2 PUSH1 0x20 ADD SWAP2 PUSH2 0x59C JUMP JUMPDEST DUP3 ADD SWAP2 SWAP1 PUSH0 MSTORE PUSH1 0x20 PUSH0 KECCAK256 SWAP1 JUMPDEST DUP2 SLOAD DUP2 MSTORE SWAP1 PUSH1 0x1 ADD SWAP1 PUSH1 0x20 ADD DUP1 DUP4 GT PUSH2 0x57F JUMPI DUP3 SWAP1 SUB PUSH1 0x1F AND DUP3 ADD SWAP2 JUMPDEST POP POP POP POP POP SWAP1 DUP1 PUSH1 0x3 ADD SLOAD SWAP1 DUP1 PUSH1 0x4 ADD DUP1 SLOAD PUSH2 0x5B7 SWAP1 PUSH2 0x2204 JUMP JUMPDEST DUP1 PUSH1 0x1F ADD PUSH1 0x20 DUP1 SWAP2 DIV MUL PUSH1 0x20 ADD PUSH1 0x40 MLOAD SWAP1 DUP2 ADD PUSH1 0x40 MSTORE DUP1 SWAP3 SWAP2 SWAP1 DUP2 DUP2 MSTORE PUSH1 0x20 ADD DUP3 DUP1 SLOAD PUSH2 0x5E3 SWAP1 PUSH2 0x2204 JUMP JUMPDEST DUP1 ISZERO PUSH2 0x62E JUMPI DUP1 PUSH1 0x1F LT PUSH2 0x605 JUMPI PUSH2 0x100 DUP1 DUP4 SLOAD DIV MUL DUP4 MSTORE SWAP2 PUSH1 0x20 ADD SWAP2 PUSH2 0x62E JUMP JUMPDEST DUP3 ADD SWAP2 SWAP1 PUSH0 MSTORE PUSH1 0x20 PUSH0 KECCAK256 SWAP1 JUMPDEST DUP2 SLOAD DUP2 MSTORE SWAP1 PUSH1 0x1 ADD SWAP1 PUSH1 0x20 ADD DUP1 DUP4 GT PUSH2 0x611 JUMPI DUP3 SWAP1 SUB PUSH1 0x1F AND DUP3 ADD SWAP2 JUMPDEST POP POP POP POP POP SWAP1 DUP1 PUSH1 0x5 ADD SLOAD SWAP1 DUP1 PUSH1 0x6 ADD PUSH0 SWAP1 SLOAD SWAP1 PUSH2 0x100 EXP SWAP1 DIV PUSH20 0xFFFFFFFFFFFFFFFFFFFFFFFFFFFFFFFFFFFFFFFF AND SWAP1 POP DUP8 JUMP JUMPDEST PUSH1 0x60 PUSH1 0x3 PUSH0 DUP4 PUSH20 0xFFFFFFFFFFFFFFFFFFFFFFFFFFFFFFFFFFFFFFFF AND PUSH20 0xFFFFFFFFFFFFFFFFFFFFFFFFFFFFFFFFFFFFFFFF AND DUP2 MSTORE PUSH1 0x20 ADD SWAP1 DUP2 MSTORE PUSH1 0x20 ADD PUSH0 KECCAK256 DUP1 SLOAD DUP1 PUSH1 0x20 MUL PUSH1 0x20 ADD PUSH1 0x40 MLOAD SWAP1 DUP2 ADD PUSH1 0x40 MSTORE DUP1 SWAP3 SWAP2 SWAP1 DUP2 DUP2 MSTORE PUSH1 0x20 ADD PUSH0 SWAP1 JUMPDEST DUP3 DUP3 LT ISZERO PUSH2 0x913 JUMPI DUP4 DUP3 SWAP1 PUSH0 MSTORE PUSH1 0x20 PUSH0 KECCAK256 SWAP1 PUSH1 0x7 MUL ADD PUSH1 0x40 MLOAD DUP1 PUSH1 0xE0 ADD PUSH1 0x40 MSTORE SWAP1 DUP2 PUSH0 DUP3 ADD SLOAD DUP2 MSTORE PUSH1 0x20 ADD PUSH1 0x1 DUP3 ADD DUP1 SLOAD PUSH2 0x6FB SWAP1 PUSH2 0x2204 JUMP JUMPDEST DUP1 PUSH1 0x1F ADD PUSH1 0x20 DUP1 SWAP2 DIV MUL PUSH1 0x20 ADD PUSH1 0x40 MLOAD SWAP1 DUP2 ADD PUSH1 0x40 MSTORE DUP1 SWAP3 SWAP2 SWAP1 DUP2 DUP2 MSTORE PUSH1 0x20 ADD DUP3 DUP1 SLOAD PUSH2 0x727 SWAP1 PUSH2 0x2204 JUMP JUMPDEST DUP1 ISZERO PUSH2 0x772 JUMPI DUP1 PUSH1 0x1F LT PUSH2 0x749 JUMPI PUSH2 0x100 DUP1 DUP4 SLOAD DIV MUL DUP4 MSTORE SWAP2 PUSH1 0x20 ADD SWAP2 PUSH2 0x772 JUMP JUMPDEST DUP3 ADD SWAP2 SWAP1 PUSH0 MSTORE PUSH1 0x20 PUSH0 KECCAK256 SWAP1 JUMPDEST DUP2 SLOAD DUP2 MSTORE SWAP1 PUSH1 0x1 ADD SWAP1 PUSH1 0x20 ADD DUP1 DUP4 GT PUSH2 0x755 JUMPI DUP3 SWAP1 SUB PUSH1 0x1F AND DUP3 ADD SWAP2 JUMPDEST POP POP POP POP POP DUP2 MSTORE PUSH1 0x20 ADD PUSH1 0x2 DUP3 ADD DUP1 SLOAD PUSH2 0x78B SWAP1 PUSH2 0x2204 JUMP JUMPDEST DUP1 PUSH1 0x1F ADD PUSH1 0x20 DUP1 SWAP2 DIV MUL PUSH1 0x20 ADD PUSH1 0x40 MLOAD SWAP1 DUP2 ADD PUSH1 0x40 MSTORE DUP1 SWAP3 SWAP2 SWAP1 DUP2 DUP2 MSTORE PUSH1 0x20 ADD DUP3 DUP1 SLOAD PUSH2 0x7B7 SWAP1 PUSH2 0x2204 JUMP JUMPDEST DUP1 ISZERO PUSH2 0x802 JUMPI DUP1 PUSH1 0x1F LT PUSH2 0x7D9 JUMPI PUSH2 0x100 DUP1 DUP4 SLOAD DIV MUL DUP4 MSTORE SWAP2 PUSH1 0x20 ADD SWAP2 PUSH2 0x802 JUMP JUMPDEST DUP3 ADD SWAP2 SWAP1 PUSH0 MSTORE PUSH1 0x20 PUSH0 KECCAK256 SWAP1 JUMPDEST DUP2 SLOAD DUP2 MSTORE SWAP1 PUSH1 0x1 ADD SWAP1 PUSH1 0x20 ADD DUP1 DUP4 GT PUSH2 0x7E5 JUMPI DUP3 SWAP1 SUB PUSH1 0x1F AND DUP3 ADD SWAP2 JUMPDEST POP POP POP POP POP DUP2 MSTORE PUSH1 0x20 ADD PUSH1 0x3 DUP3 ADD SLOAD DUP2 MSTORE PUSH1 0x20 ADD PUSH1 0x4 DUP3 ADD DUP1 SLOAD PUSH2 0x825 SWAP1 PUSH2 0x2204 JUMP JUMPDEST DUP1 PUSH1 0x1F ADD PUSH1 0x20 DUP1 SWAP2 DIV MUL PUSH1 0x20 ADD PUSH1 0x40 MLOAD SWAP1 DUP2 ADD PUSH1 0x40 MSTORE DUP1 SWAP3 SWAP2 SWAP1 DUP2 DUP2 MSTORE PUSH1 0x20 ADD DUP3 DUP1 SLOAD PUSH2 0x851 SWAP1 PUSH2 0x2204 JUMP JUMPDEST DUP1 ISZERO PUSH2 0x89C JUMPI DUP1 PUSH1 0x1F LT PUSH2 0x873 JUMPI PUSH2 0x100 DUP1 DUP4 SLOAD DIV MUL DUP4 MSTORE SWAP2 PUSH1 0x20 ADD SWAP2 PUSH2 0x89C JUMP JUMPDEST DUP3 ADD SWAP2 SWAP1 PUSH0 MSTORE PUSH1 0x20 PUSH0 KECCAK256 SWAP1 JUMPDEST DUP2 SLOAD DUP2 MSTORE SWAP1 PUSH1 0x1 ADD SWAP1 PUSH1 0x20 ADD DUP1 DUP4 GT PUSH2 0x87F JUMPI DUP3 SWAP1 SUB PUSH1 0x1F AND DUP3 ADD SWAP2 JUMPDEST POP POP POP POP POP DUP2 MSTORE PUSH1 0x20 ADD PUSH1 0x5 DUP3 ADD SLOAD DUP2 MSTORE PUSH1 0x20 ADD PUSH1 0x6 DUP3 ADD PUSH0 SWAP1 SLOAD SWAP1 PUSH2 0x100 EXP SWAP1 DIV PUSH20 0xFFFFFFFFFFFFFFFFFFFFFFFFFFFFFFFFFFFFFFFF AND PUSH20 0xFFFFFFFFFFFFFFFFFFFFFFFFFFFFFFFFFFFFFFFF AND PUSH20 0xFFFFFFFFFFFFFFFFFFFFFFFFFFFFFFFFFFFFFFFF AND DUP2 MSTORE POP POP DUP2 MSTORE PUSH1 0x20 ADD SWAP1 PUSH1 0x1 ADD SWAP1 PUSH2 0x6C1 JUMP JUMPDEST POP POP POP POP SWAP1 POP SWAP2 SWAP1 POP JUMP JUMPDEST PUSH1 0x5 PUSH1 0x20 MSTORE DUP1 PUSH0 MSTORE PUSH1 0x40 PUSH0 KECCAK256 PUSH0 SWAP2 POP SLOAD SWAP1 PUSH2 0x100 EXP SWAP1 DIV PUSH1 0xFF AND DUP2 JUMP JUMPDEST PUSH0 PUSH1 0x1 PUSH0 SWAP1 SLOAD SWAP1 PUSH2 0x100 EXP SWAP1 DIV PUSH20 0xFFFFFFFFFFFFFFFFFFFFFFFFFFFFFFFFFFFFFFFF AND PUSH20 0xFFFFFFFFFFFFFFFFFFFFFFFFFFFFFFFFFFFFFFFF AND PUSH4 0xF53A470 CALLER PUSH1 0x40 MLOAD DUP3 PUSH4 0xFFFFFFFF AND PUSH1 0xE0 SHL DUP2 MSTORE PUSH1 0x4 ADD PUSH2 0x996 SWAP2 SWAP1 PUSH2 0x1E9B JUMP JUMPDEST PUSH0 PUSH1 0x40 MLOAD DUP1 DUP4 SUB DUP2 DUP7 GAS STATICCALL ISZERO DUP1 ISZERO PUSH2 0x9B0 JUMPI RETURNDATASIZE PUSH0 DUP1 RETURNDATACOPY RETURNDATASIZE PUSH0 REVERT JUMPDEST POP POP POP POP PUSH1 0x40 MLOAD RETURNDATASIZE PUSH0 DUP3 RETURNDATACOPY RETURNDATASIZE PUSH1 0x1F NOT PUSH1 0x1F DUP3 ADD AND DUP3 ADD DUP1 PUSH1 0x40 MSTORE POP DUP2 ADD SWAP1 PUSH2 0x9D8 SWAP2 SWAP1 PUSH2 0x2060 JUMP JUMPDEST SWAP1 POP DUP1 PUSH1 0x40 ADD MLOAD PUSH2 0xA1E JUMPI PUSH1 0x40 MLOAD PUSH32 0x8C379A000000000000000000000000000000000000000000000000000000000 DUP2 MSTORE PUSH1 0x4 ADD PUSH2 0xA15 SWAP1 PUSH2 0x20F1 JUMP JUMPDEST PUSH1 0x40 MLOAD DUP1 SWAP2 SUB SWAP1 REVERT JUMPDEST PUSH0 PUSH1 0x3C DUP4 PUSH2 0xA2C SWAP2 SWAP1 PUSH2 0x2234 JUMP JUMPDEST TIMESTAMP PUSH2 0xA37 SWAP2 SWAP1 PUSH2 0x21A4 JUMP JUMPDEST SWAP1 POP PUSH0 PUSH1 0x40 MLOAD DUP1 PUSH1 0xE0 ADD PUSH1 0x40 MSTORE DUP1 PUSH1 0x2 SLOAD DUP2 MSTORE PUSH1 0x20 ADD DUP9 DUP2 MSTORE PUSH1 0x20 ADD DUP8 DUP2 MSTORE PUSH1 0x20 ADD PUSH0 DUP2 MSTORE PUSH1 0x20 ADD DUP7 DUP2 MSTORE PUSH1 0x20 ADD DUP4 DUP2 MSTORE PUSH1 0x20 ADD CALLER PUSH20 0xFFFFFFFFFFFFFFFFFFFFFFFFFFFFFFFFFFFFFFFF AND DUP2 MSTORE POP SWAP1 POP DUP1 PUSH1 0x4 PUSH0 PUSH1 0x2 SLOAD DUP2 MSTORE PUSH1 0x20 ADD SWAP1 DUP2 MSTORE PUSH1 0x20 ADD PUSH0 KECCAK256 PUSH0 DUP3 ADD MLOAD DUP2 PUSH0 ADD SSTORE PUSH1 0x20 DUP3 ADD MLOAD DUP2 PUSH1 0x1 ADD SWAP1 DUP2 PUSH2 0xAB8 SWAP2 SWAP1 PUSH2 0x2412 JUMP JUMPDEST POP PUSH1 0x40 DUP3 ADD MLOAD DUP2 PUSH1 0x2 ADD SWAP1 DUP2 PUSH2 0xACE SWAP2 SWAP1 PUSH2 0x2412 JUMP JUMPDEST POP PUSH1 0x60 DUP3 ADD MLOAD DUP2 PUSH1 0x3 ADD SSTORE PUSH1 0x80 DUP3 ADD MLOAD DUP2 PUSH1 0x4 ADD SWAP1 DUP2 PUSH2 0xAEE SWAP2 SWAP1 PUSH2 0x2412 JUMP JUMPDEST POP PUSH1 0xA0 DUP3 ADD MLOAD DUP2 PUSH1 0x5 ADD SSTORE PUSH1 0xC0 DUP3 ADD MLOAD DUP2 PUSH1 0x6 ADD PUSH0 PUSH2 0x100 EXP DUP2 SLOAD DUP2 PUSH20 0xFFFFFFFFFFFFFFFFFFFFFFFFFFFFFFFFFFFFFFFF MUL NOT AND SWAP1 DUP4 PUSH20 0xFFFFFFFFFFFFFFFFFFFFFFFFFFFFFFFFFFFFFFFF AND MUL OR SWAP1 SSTORE POP SWAP1 POP POP PUSH1 0x3 PUSH0 CALLER PUSH20 0xFFFFFFFFFFFFFFFFFFFFFFFFFFFFFFFFFFFFFFFF AND PUSH20 0xFFFFFFFFFFFFFFFFFFFFFFFFFFFFFFFFFFFFFFFF AND DUP2 MSTORE PUSH1 0x20 ADD SWAP1 DUP2 MSTORE PUSH1 0x20 ADD PUSH0 KECCAK256 DUP2 SWAP1 DUP1 PUSH1 0x1 DUP2 SLOAD ADD DUP1 DUP3 SSTORE DUP1 SWAP2 POP POP PUSH1 0x1 SWAP1 SUB SWAP1 PUSH0 MSTORE PUSH1 0x20 PUSH0 KECCAK256 SWAP1 PUSH1 0x7 MUL ADD PUSH0 SWAP1 SWAP2 SWAP1 SWAP2 SWAP1 SWAP2 POP PUSH0 DUP3 ADD MLOAD DUP2 PUSH0 ADD SSTORE PUSH1 0x20 DUP3 ADD MLOAD DUP2 PUSH1 0x1 ADD SWAP1 DUP2 PUSH2 0xBC3 SWAP2 SWAP1 PUSH2 0x2412 JUMP JUMPDEST POP PUSH1 0x40 DUP3 ADD MLOAD DUP2 PUSH1 0x2 ADD SWAP1 DUP2 PUSH2 0xBD9 SWAP2 SWAP1 PUSH2 0x2412 JUMP JUMPDEST POP PUSH1 0x60 DUP3 ADD MLOAD DUP2 PUSH1 0x3 ADD SSTORE PUSH1 0x80 DUP3 ADD MLOAD DUP2 PUSH1 0x4 ADD SWAP1 DUP2 PUSH2 0xBF9 SWAP2 SWAP1 PUSH2 0x2412 JUMP JUMPDEST POP PUSH1 0xA0 DUP3 ADD MLOAD DUP2 PUSH1 0x5 ADD SSTORE PUSH1 0xC0 DUP3 ADD MLOAD DUP2 PUSH1 0x6 ADD PUSH0 PUSH2 0x100 EXP DUP2 SLOAD DUP2 PUSH20 0xFFFFFFFFFFFFFFFFFFFFFFFFFFFFFFFFFFFFFFFF MUL NOT AND SWAP1 DUP4 PUSH20 0xFFFFFFFFFFFFFFFFFFFFFFFFFFFFFFFFFFFFFFFF AND MUL OR SWAP1 SSTORE POP POP POP PUSH1 0x6 PUSH1 0x4 PUSH0 PUSH1 0x2 SLOAD DUP2 MSTORE PUSH1 0x20 ADD SWAP1 DUP2 MSTORE PUSH1 0x20 ADD PUSH0 KECCAK256 SWAP1 DUP1 PUSH1 0x1 DUP2 SLOAD ADD DUP1 DUP3 SSTORE DUP1 SWAP2 POP POP PUSH1 0x1 SWAP1 SUB SWAP1 PUSH0 MSTORE PUSH1 0x20 PUSH0 KECCAK256 SWAP1 PUSH1 0x7 MUL ADD PUSH0 SWAP1 SWAP2 SWAP1 SWAP2 SWAP1 SWAP2 POP PUSH0 DUP3 ADD SLOAD DUP2 PUSH0 ADD SSTORE PUSH1 0x1 DUP3 ADD DUP2 PUSH1 0x1 ADD SWAP1 DUP2 PUSH2 0xCA3 SWAP2 SWAP1 PUSH2 0x24F6 JUMP JUMPDEST POP PUSH1 0x2 DUP3 ADD DUP2 PUSH1 0x2 ADD SWAP1 DUP2 PUSH2 0xCB8 SWAP2 SWAP1 PUSH2 0x24F6 JUMP JUMPDEST POP PUSH1 0x3 DUP3 ADD SLOAD DUP2 PUSH1 0x3 ADD SSTORE PUSH1 0x4 DUP3 ADD DUP2 PUSH1 0x4 ADD SWAP1 DUP2 PUSH2 0xCD7 SWAP2 SWAP1 PUSH2 0x24F6 JUMP JUMPDEST POP PUSH1 0x5 DUP3 ADD SLOAD DUP2 PUSH1 0x5 ADD SSTORE PUSH1 0x6 DUP3 ADD PUSH0 SWAP1 SLOAD SWAP1 PUSH2 0x100 EXP SWAP1 DIV PUSH20 0xFFFFFFFFFFFFFFFFFFFFFFFFFFFFFFFFFFFFFFFF AND DUP2 PUSH1 0x6 ADD PUSH0 PUSH2 0x100 EXP DUP2 SLOAD DUP2 PUSH20 0xFFFFFFFFFFFFFFFFFFFFFFFFFFFFFFFFFFFFFFFF MUL NOT AND SWAP1 DUP4 PUSH20 0xFFFFFFFFFFFFFFFFFFFFFFFFFFFFFFFFFFFFFFFF AND MUL OR SWAP1 SSTORE POP POP POP PUSH32 0x1961F6452621F42CEB4621CAC123D1A782ECD2620C2D8C755FBF8F7C849B24A4 PUSH1 0x2 SLOAD DUP9 DUP9 PUSH0 DUP10 DUP8 CALLER PUSH1 0x40 MLOAD PUSH2 0xD86 SWAP8 SWAP7 SWAP6 SWAP5 SWAP4 SWAP3 SWAP2 SWAP1 PUSH2 0x2614 JUMP JUMPDEST PUSH1 0x40 MLOAD DUP1 SWAP2 SUB SWAP1 LOG1 PUSH1 0x2 PUSH0 DUP2 SLOAD DUP1 SWAP3 SWAP2 SWAP1 PUSH2 0xDA0 SWAP1 PUSH2 0x2696 JUMP JUMPDEST SWAP2 SWAP1 POP SSTORE POP POP POP POP POP POP POP POP JUMP JUMPDEST PUSH2 0xDB6 PUSH2 0x1749 JUMP JUMPDEST PUSH2 0xDBF PUSH0 PUSH2 0x17D0 JUMP JUMPDEST JUMP JUMPDEST PUSH0 DUP1 PUSH0 SWAP1 SLOAD SWAP1 PUSH2 0x100 EXP SWAP1 DIV PUSH20 0xFFFFFFFFFFFFFFFFFFFFFFFFFFFFFFFFFFFFFFFF AND SWAP1 POP SWAP1 JUMP JUMPDEST PUSH1 0x3 PUSH1 0x20 MSTORE DUP2 PUSH0 MSTORE PUSH1 0x40 PUSH0 KECCAK256 DUP2 DUP2 SLOAD DUP2 LT PUSH2 0xE01 JUMPI PUSH0 DUP1 REVERT JUMPDEST SWAP1 PUSH0 MSTORE PUSH1 0x20 PUSH0 KECCAK256 SWAP1 PUSH1 0x7 MUL ADD PUSH0 SWAP2 POP SWAP2 POP POP DUP1 PUSH0 ADD SLOAD SWAP1 DUP1 PUSH1 0x1 ADD DUP1 SLOAD PUSH2 0xE27 SWAP1 PUSH2 0x2204 JUMP JUMPDEST DUP1 PUSH1 0x1F ADD PUSH1 0x20 DUP1 SWAP2 DIV MUL PUSH1 0x20 ADD PUSH1 0x40 MLOAD SWAP1 DUP2 ADD PUSH1 0x40 MSTORE DUP1 SWAP3 SWAP2 SWAP1 DUP2 DUP2 MSTORE PUSH1 0x20 ADD DUP3 DUP1 SLOAD PUSH2 0xE53 SWAP1 PUSH2 0x2204 JUMP JUMPDEST DUP1 ISZERO PUSH2 0xE9E JUMPI DUP1 PUSH1 0x1F LT PUSH2 0xE75 JUMPI PUSH2 0x100 DUP1 DUP4 SLOAD DIV MUL DUP4 MSTORE SWAP2 PUSH1 0x20 ADD SWAP2 PUSH2 0xE9E JUMP JUMPDEST DUP3 ADD SWAP2 SWAP1 PUSH0 MSTORE PUSH1 0x20 PUSH0 KECCAK256 SWAP1 JUMPDEST DUP2 SLOAD DUP2 MSTORE SWAP1 PUSH1 0x1 ADD SWAP1 PUSH1 0x20 ADD DUP1 DUP4 GT PUSH2 0xE81 JUMPI DUP3 SWAP1 SUB PUSH1 0x1F AND DUP3 ADD SWAP2 JUMPDEST POP POP POP POP POP SWAP1 DUP1 PUSH1 0x2 ADD DUP1 SLOAD PUSH2 0xEB3 SWAP1 PUSH2 0x2204 JUMP JUMPDEST DUP1 PUSH1 0x1F ADD PUSH1 0x20 DUP1 SWAP2 DIV MUL PUSH1 0x20 ADD PUSH1 0x40 MLOAD SWAP1 DUP2 ADD PUSH1 0x40 MSTORE DUP1 SWAP3 SWAP2 SWAP1 DUP2 DUP2 MSTORE PUSH1 0x20 ADD DUP3 DUP1 SLOAD PUSH2 0xEDF SWAP1 PUSH2 0x2204 JUMP JUMPDEST DUP1 ISZERO PUSH2 0xF2A JUMPI DUP1 PUSH1 0x1F LT PUSH2 0xF01 JUMPI PUSH2 0x100 DUP1 DUP4 SLOAD DIV MUL DUP4 MSTORE SWAP2 PUSH1 0x20 ADD SWAP2 PUSH2 0xF2A JUMP JUMPDEST DUP3 ADD SWAP2 SWAP1 PUSH0 MSTORE PUSH1 0x20 PUSH0 KECCAK256 SWAP1 JUMPDEST DUP2 SLOAD DUP2 MSTORE SWAP1 PUSH1 0x1 ADD SWAP1 PUSH1 0x20 ADD DUP1 DUP4 GT PUSH2 0xF0D JUMPI DUP3 SWAP1 SUB PUSH1 0x1F AND DUP3 ADD SWAP2 JUMPDEST POP POP POP POP POP SWAP1 DUP1 PUSH1 0x3 ADD SLOAD SWAP1 DUP1 PUSH1 0x4 ADD DUP1 SLOAD PUSH2 0xF45 SWAP1 PUSH2 0x2204 JUMP JUMPDEST DUP1 PUSH1 0x1F ADD PUSH1 0x20 DUP1 SWAP2 DIV MUL PUSH1 0x20 ADD PUSH1 0x40 MLOAD SWAP1 DUP2 ADD PUSH1 0x40 MSTORE DUP1 SWAP3 SWAP2 SWAP1 DUP2 DUP2 MSTORE PUSH1 0x20 ADD DUP3 DUP1 SLOAD PUSH2 0xF71 SWAP1 PUSH2 0x2204 JUMP JUMPDEST DUP1 ISZERO PUSH2 0xFBC JUMPI DUP1 PUSH1 0x1F LT PUSH2 0xF93 JUMPI PUSH2 0x100 DUP1 DUP4 SLOAD DIV MUL DUP4 MSTORE SWAP2 PUSH1 0x20 ADD SWAP2 PUSH2 0xFBC JUMP JUMPDEST DUP3 ADD SWAP2 SWAP1 PUSH0 MSTORE PUSH1 0x20 PUSH0 KECCAK256 SWAP1 JUMPDEST DUP2 SLOAD DUP2 MSTORE SWAP1 PUSH1 0x1 ADD SWAP1 PUSH1 0x20 ADD DUP1 DUP4 GT PUSH2 0xF9F JUMPI DUP3 SWAP1 SUB PUSH1 0x1F AND DUP3 ADD SWAP2 JUMPDEST POP POP POP POP POP SWAP1 DUP1 PUSH1 0x5 ADD SLOAD SWAP1 DUP1 PUSH1 0x6 ADD PUSH0 SWAP1 SLOAD SWAP1 PUSH2 0x100 EXP SWAP1 DIV PUSH20 0xFFFFFFFFFFFFFFFFFFFFFFFFFFFFFFFFFFFFFFFF AND SWAP1 POP DUP8 JUMP JUMPDEST PUSH1 0x6 DUP2 DUP2 SLOAD DUP2 LT PUSH2 0x1000 JUMPI PUSH0 DUP1 REVERT JUMPDEST SWAP1 PUSH0 MSTORE PUSH1 0x20 PUSH0 KECCAK256 SWAP1 PUSH1 0x7 MUL ADD PUSH0 SWAP2 POP SWAP1 POP DUP1 PUSH0 ADD SLOAD SWAP1 DUP1 PUSH1 0x1 ADD DUP1 SLOAD PUSH2 0x1025 SWAP1 PUSH2 0x2204 JUMP JUMPDEST DUP1 PUSH1 0x1F ADD PUSH1 0x20 DUP1 SWAP2 DIV MUL PUSH1 0x20 ADD PUSH1 0x40 MLOAD SWAP1 DUP2 ADD PUSH1 0x40 MSTORE DUP1 SWAP3 SWAP2 SWAP1 DUP2 DUP2 MSTORE PUSH1 0x20 ADD DUP3 DUP1 SLOAD PUSH2 0x1051 SWAP1 PUSH2 0x2204 JUMP JUMPDEST DUP1 ISZERO PUSH2 0x109C JUMPI DUP1 PUSH1 0x1F LT PUSH2 0x1073 JUMPI PUSH2 0x100 DUP1 DUP4 SLOAD DIV MUL DUP4 MSTORE SWAP2 PUSH1 0x20 ADD SWAP2 PUSH2 0x109C JUMP JUMPDEST DUP3 ADD SWAP2 SWAP1 PUSH0 MSTORE PUSH1 0x20 PUSH0 KECCAK256 SWAP1 JUMPDEST DUP2 SLOAD DUP2 MSTORE SWAP1 PUSH1 0x1 ADD SWAP1 PUSH1 0x20 ADD DUP1 DUP4 GT PUSH2 0x107F JUMPI DUP3 SWAP1 SUB PUSH1 0x1F AND DUP3 ADD SWAP2 JUMPDEST POP POP POP POP POP SWAP1 DUP1 PUSH1 0x2 ADD DUP1 SLOAD PUSH2 0x10B1 SWAP1 PUSH2 0x2204 JUMP JUMPDEST DUP1 PUSH1 0x1F ADD PUSH1 0x20 DUP1 SWAP2 DIV MUL PUSH1 0x20 ADD PUSH1 0x40 MLOAD SWAP1 DUP2 ADD PUSH1 0x40 MSTORE DUP1 SWAP3 SWAP2 SWAP1 DUP2 DUP2 MSTORE PUSH1 0x20 ADD DUP3 DUP1 SLOAD PUSH2 0x10DD SWAP1 PUSH2 0x2204 JUMP JUMPDEST DUP1 ISZERO PUSH2 0x1128 JUMPI DUP1 PUSH1 0x1F LT PUSH2 0x10FF JUMPI PUSH2 0x100 DUP1 DUP4 SLOAD DIV MUL DUP4 MSTORE SWAP2 PUSH1 0x20 ADD SWAP2 PUSH2 0x1128 JUMP JUMPDEST DUP3 ADD SWAP2 SWAP1 PUSH0 MSTORE PUSH1 0x20 PUSH0 KECCAK256 SWAP1 JUMPDEST DUP2 SLOAD DUP2 MSTORE SWAP1 PUSH1 0x1 ADD SWAP1 PUSH1 0x20 ADD DUP1 DUP4 GT PUSH2 0x110B JUMPI DUP3 SWAP1 SUB PUSH1 0x1F AND DUP3 ADD SWAP2 JUMPDEST POP POP POP POP POP SWAP1 DUP1 PUSH1 0x3 ADD SLOAD SWAP1 DUP1 PUSH1 0x4 ADD DUP1 SLOAD PUSH2 0x1143 SWAP1 PUSH2 0x2204 JUMP JUMPDEST DUP1 PUSH1 0x1F ADD PUSH1 0x20 DUP1 SWAP2 DIV MUL PUSH1 0x20 ADD PUSH1 0x40 MLOAD SWAP1 DUP2 ADD PUSH1 0x40 MSTORE DUP1 SWAP3 SWAP2 SWAP1 DUP2 DUP2 MSTORE PUSH1 0x20 ADD DUP3 DUP1 SLOAD PUSH2 0x116F SWAP1 PUSH2 0x2204 JUMP JUMPDEST DUP1 ISZERO PUSH2 0x11BA JUMPI DUP1 PUSH1 0x1F LT PUSH2 0x1191 JUMPI PUSH2 0x100 DUP1 DUP4 SLOAD DIV MUL DUP4 MSTORE SWAP2 PUSH1 0x20 ADD SWAP2 PUSH2 0x11BA JUMP JUMPDEST DUP3 ADD SWAP2 SWAP1 PUSH0 MSTORE PUSH1 0x20 PUSH0 KECCAK256 SWAP1 JUMPDEST DUP2 SLOAD DUP2 MSTORE SWAP1 PUSH1 0x1 ADD SWAP1 PUSH1 0x20 ADD DUP1 DUP4 GT PUSH2 0x119D JUMPI DUP3 SWAP1 SUB PUSH1 0x1F AND DUP3 ADD SWAP2 JUMPDEST POP POP POP POP POP SWAP1 DUP1 PUSH1 0x5 ADD SLOAD SWAP1 DUP1 PUSH1 0x6 ADD PUSH0 SWAP1 SLOAD SWAP1 PUSH2 0x100 EXP SWAP1 DIV PUSH20 0xFFFFFFFFFFFFFFFFFFFFFFFFFFFFFFFFFFFFFFFF AND SWAP1 POP DUP8 JUMP JUMPDEST PUSH1 0x60 DUP1 PUSH0 PUSH1 0x4 PUSH0 DUP6 DUP2 MSTORE PUSH1 0x20 ADD SWAP1 DUP2 MSTORE PUSH1 0x20 ADD PUSH0 KECCAK256 PUSH1 0x40 MLOAD DUP1 PUSH1 0xE0 ADD PUSH1 0x40 MSTORE SWAP1 DUP2 PUSH0 DUP3 ADD SLOAD DUP2 MSTORE PUSH1 0x20 ADD PUSH1 0x1 DUP3 ADD DUP1 SLOAD PUSH2 0x1228 SWAP1 PUSH2 0x2204 JUMP JUMPDEST DUP1 PUSH1 0x1F ADD PUSH1 0x20 DUP1 SWAP2 DIV MUL PUSH1 0x20 ADD PUSH1 0x40 MLOAD SWAP1 DUP2 ADD PUSH1 0x40 MSTORE DUP1 SWAP3 SWAP2 SWAP1 DUP2 DUP2 MSTORE PUSH1 0x20 ADD DUP3 DUP1 SLOAD PUSH2 0x1254 SWAP1 PUSH2 0x2204 JUMP JUMPDEST DUP1 ISZERO PUSH2 0x129F JUMPI DUP1 PUSH1 0x1F LT PUSH2 0x1276 JUMPI PUSH2 0x100 DUP1 DUP4 SLOAD DIV MUL DUP4 MSTORE SWAP2 PUSH1 0x20 ADD SWAP2 PUSH2 0x129F JUMP JUMPDEST DUP3 ADD SWAP2 SWAP1 PUSH0 MSTORE PUSH1 0x20 PUSH0 KECCAK256 SWAP1 JUMPDEST DUP2 SLOAD DUP2 MSTORE SWAP1 PUSH1 0x1 ADD SWAP1 PUSH1 0x20 ADD DUP1 DUP4 GT PUSH2 0x1282 JUMPI DUP3 SWAP1 SUB PUSH1 0x1F AND DUP3 ADD SWAP2 JUMPDEST POP POP POP POP POP DUP2 MSTORE PUSH1 0x20 ADD PUSH1 0x2 DUP3 ADD DUP1 SLOAD PUSH2 0x12B8 SWAP1 PUSH2 0x2204 JUMP JUMPDEST DUP1 PUSH1 0x1F ADD PUSH1 0x20 DUP1 SWAP2 DIV MUL PUSH1 0x20 ADD PUSH1 0x40 MLOAD SWAP1 DUP2 ADD PUSH1 0x40 MSTORE DUP1 SWAP3 SWAP2 SWAP1 DUP2 DUP2 MSTORE PUSH1 0x20 ADD DUP3 DUP1 SLOAD PUSH2 0x12E4 SWAP1 PUSH2 0x2204 JUMP JUMPDEST DUP1 ISZERO PUSH2 0x132F JUMPI DUP1 PUSH1 0x1F LT PUSH2 0x1306 JUMPI PUSH2 0x100 DUP1 DUP4 SLOAD DIV MUL DUP4 MSTORE SWAP2 PUSH1 0x20 ADD SWAP2 PUSH2 0x132F JUMP JUMPDEST DUP3 ADD SWAP2 SWAP1 PUSH0 MSTORE PUSH1 0x20 PUSH0 KECCAK256 SWAP1 JUMPDEST DUP2 SLOAD DUP2 MSTORE SWAP1 PUSH1 0x1 ADD SWAP1 PUSH1 0x20 ADD DUP1 DUP4 GT PUSH2 0x1312 JUMPI DUP3 SWAP1 SUB PUSH1 0x1F AND DUP3 ADD SWAP2 JUMPDEST POP POP POP POP POP DUP2 MSTORE PUSH1 0x20 ADD PUSH1 0x3 DUP3 ADD SLOAD DUP2 MSTORE PUSH1 0x20 ADD PUSH1 0x4 DUP3 ADD DUP1 SLOAD PUSH2 0x1352 SWAP1 PUSH2 0x2204 JUMP JUMPDEST DUP1 PUSH1 0x1F ADD PUSH1 0x20 DUP1 SWAP2 DIV MUL PUSH1 0x20 ADD PUSH1 0x40 MLOAD SWAP1 DUP2 ADD PUSH1 0x40 MSTORE DUP1 SWAP3 SWAP2 SWAP1 DUP2 DUP2 MSTORE PUSH1 0x20 ADD DUP3 DUP1 SLOAD PUSH2 0x137E SWAP1 PUSH2 0x2204 JUMP JUMPDEST DUP1 ISZERO PUSH2 0x13C9 JUMPI DUP1 PUSH1 0x1F LT PUSH2 0x13A0 JUMPI PUSH2 0x100 DUP1 DUP4 SLOAD DIV MUL DUP4 MSTORE SWAP2 PUSH1 0x20 ADD SWAP2 PUSH2 0x13C9 JUMP JUMPDEST DUP3 ADD SWAP2 SWAP1 PUSH0 MSTORE PUSH1 0x20 PUSH0 KECCAK256 SWAP1 JUMPDEST DUP2 SLOAD DUP2 MSTORE SWAP1 PUSH1 0x1 ADD SWAP1 PUSH1 0x20 ADD DUP1 DUP4 GT PUSH2 0x13AC JUMPI DUP3 SWAP1 SUB PUSH1 0x1F AND DUP3 ADD SWAP2 JUMPDEST POP POP POP POP POP DUP2 MSTORE PUSH1 0x20 ADD PUSH1 0x5 DUP3 ADD SLOAD DUP2 MSTORE PUSH1 0x20 ADD PUSH1 0x6 DUP3 ADD PUSH0 SWAP1 SLOAD SWAP1 PUSH2 0x100 EXP SWAP1 DIV PUSH20 0xFFFFFFFFFFFFFFFFFFFFFFFFFFFFFFFFFFFFFFFF AND PUSH20 0xFFFFFFFFFFFFFFFFFFFFFFFFFFFFFFFFFFFFFFFF AND PUSH20 0xFFFFFFFFFFFFFFFFFFFFFFFFFFFFFFFFFFFFFFFF AND DUP2 MSTORE POP POP SWAP1 POP DUP1 PUSH1 0x20 ADD MLOAD DUP2 PUSH1 0x40 ADD MLOAD SWAP3 POP SWAP3 POP POP SWAP2 POP SWAP2 JUMP JUMPDEST PUSH2 0x144F PUSH2 0x1749 JUMP JUMPDEST PUSH0 PUSH20 0xFFFFFFFFFFFFFFFFFFFFFFFFFFFFFFFFFFFFFFFF AND DUP2 PUSH20 0xFFFFFFFFFFFFFFFFFFFFFFFFFFFFFFFFFFFFFFFF AND SUB PUSH2 0x14BF JUMPI PUSH0 PUSH1 0x40 MLOAD PUSH32 0x1E4FBDF700000000000000000000000000000000000000000000000000000000 DUP2 MSTORE PUSH1 0x4 ADD PUSH2 0x14B6 SWAP2 SWAP1 PUSH2 0x1E9B JUMP JUMPDEST PUSH1 0x40 MLOAD DUP1 SWAP2 SUB SWAP1 REVERT JUMPDEST PUSH2 0x14C8 DUP2 PUSH2 0x17D0 JUMP JUMPDEST POP JUMP JUMPDEST PUSH1 0x60 PUSH1 0x6 DUP1 SLOAD DUP1 PUSH1 0x20 MUL PUSH1 0x20 ADD PUSH1 0x40 MLOAD SWAP1 DUP2 ADD PUSH1 0x40 MSTORE DUP1 SWAP3 SWAP2 SWAP1 DUP2 DUP2 MSTORE PUSH1 0x20 ADD PUSH0 SWAP1 JUMPDEST DUP3 DUP3 LT ISZERO PUSH2 0x1740 JUMPI DUP4 DUP3 SWAP1 PUSH0 MSTORE PUSH1 0x20 PUSH0 KECCAK256 SWAP1 PUSH1 0x7 MUL ADD PUSH1 0x40 MLOAD DUP1 PUSH1 0xE0 ADD PUSH1 0x40 MSTORE SWAP1 DUP2 PUSH0 DUP3 ADD SLOAD DUP2 MSTORE PUSH1 0x20 ADD PUSH1 0x1 DUP3 ADD DUP1 SLOAD PUSH2 0x1528 SWAP1 PUSH2 0x2204 JUMP JUMPDEST DUP1 PUSH1 0x1F ADD PUSH1 0x20 DUP1 SWAP2 DIV MUL PUSH1 0x20 ADD PUSH1 0x40 MLOAD SWAP1 DUP2 ADD PUSH1 0x40 MSTORE DUP1 SWAP3 SWAP2 SWAP1 DUP2 DUP2 MSTORE PUSH1 0x20 ADD DUP3 DUP1 SLOAD PUSH2 0x1554 SWAP1 PUSH2 0x2204 JUMP JUMPDEST DUP1 ISZERO PUSH2 0x159F JUMPI DUP1 PUSH1 0x1F LT PUSH2 0x1576 JUMPI PUSH2 0x100 DUP1 DUP4 SLOAD DIV MUL DUP4 MSTORE SWAP2 PUSH1 0x20 ADD SWAP2 PUSH2 0x159F JUMP JUMPDEST DUP3 ADD SWAP2 SWAP1 PUSH0 MSTORE PUSH1 0x20 PUSH0 KECCAK256 SWAP1 JUMPDEST DUP2 SLOAD DUP2 MSTORE SWAP1 PUSH1 0x1 ADD SWAP1 PUSH1 0x20 ADD DUP1 DUP4 GT PUSH2 0x1582 JUMPI DUP3 SWAP1 SUB PUSH1 0x1F AND DUP3 ADD SWAP2 JUMPDEST POP POP POP POP POP DUP2 MSTORE PUSH1 0x20 ADD PUSH1 0x2 DUP3 ADD DUP1 SLOAD PUSH2 0x15B8 SWAP1 PUSH2 0x2204 JUMP JUMPDEST DUP1 PUSH1 0x1F ADD PUSH1 0x20 DUP1 SWAP2 DIV MUL PUSH1 0x20 ADD PUSH1 0x40 MLOAD SWAP1 DUP2 ADD PUSH1 0x40 MSTORE DUP1 SWAP3 SWAP2 SWAP1 DUP2 DUP2 MSTORE PUSH1 0x20 ADD DUP3 DUP1 SLOAD PUSH2 0x15E4 SWAP1 PUSH2 0x2204 JUMP JUMPDEST DUP1 ISZERO PUSH2 0x162F JUMPI DUP1 PUSH1 0x1F LT PUSH2 0x1606 JUMPI PUSH2 0x100 DUP1 DUP4 SLOAD DIV MUL DUP4 MSTORE SWAP2 PUSH1 0x20 ADD SWAP2 PUSH2 0x162F JUMP JUMPDEST DUP3 ADD SWAP2 SWAP1 PUSH0 MSTORE PUSH1 0x20 PUSH0 KECCAK256 SWAP1 JUMPDEST DUP2 SLOAD DUP2 MSTORE SWAP1 PUSH1 0x1 ADD SWAP1 PUSH1 0x20 ADD DUP1 DUP4 GT PUSH2 0x1612 JUMPI DUP3 SWAP1 SUB PUSH1 0x1F AND DUP3 ADD SWAP2 JUMPDEST POP POP POP POP POP DUP2 MSTORE PUSH1 0x20 ADD PUSH1 0x3 DUP3 ADD SLOAD DUP2 MSTORE PUSH1 0x20 ADD PUSH1 0x4 DUP3 ADD DUP1 SLOAD PUSH2 0x1652 SWAP1 PUSH2 0x2204 JUMP JUMPDEST DUP1 PUSH1 0x1F ADD PUSH1 0x20 DUP1 SWAP2 DIV MUL PUSH1 0x20 ADD PUSH1 0x40 MLOAD SWAP1 DUP2 ADD PUSH1 0x40 MSTORE DUP1 SWAP3 SWAP2 SWAP1 DUP2 DUP2 MSTORE PUSH1 0x20 ADD DUP3 DUP1 SLOAD PUSH2 0x167E SWAP1 PUSH2 0x2204 JUMP JUMPDEST DUP1 ISZERO PUSH2 0x16C9 JUMPI DUP1 PUSH1 0x1F LT PUSH2 0x16A0 JUMPI PUSH2 0x100 DUP1 DUP4 SLOAD DIV MUL DUP4 MSTORE SWAP2 PUSH1 0x20 ADD SWAP2 PUSH2 0x16C9 JUMP JUMPDEST DUP3 ADD SWAP2 SWAP1 PUSH0 MSTORE PUSH1 0x20 PUSH0 KECCAK256 SWAP1 JUMPDEST DUP2 SLOAD DUP2 MSTORE SWAP1 PUSH1 0x1 ADD SWAP1 PUSH1 0x20 ADD DUP1 DUP4 GT PUSH2 0x16AC JUMPI DUP3 SWAP1 SUB PUSH1 0x1F AND DUP3 ADD SWAP2 JUMPDEST POP POP POP POP POP DUP2 MSTORE PUSH1 0x20 ADD PUSH1 0x5 DUP3 ADD SLOAD DUP2 MSTORE PUSH1 0x20 ADD PUSH1 0x6 DUP3 ADD PUSH0 SWAP1 SLOAD SWAP1 PUSH2 0x100 EXP SWAP1 DIV PUSH20 0xFFFFFFFFFFFFFFFFFFFFFFFFFFFFFFFFFFFFFFFF AND PUSH20 0xFFFFFFFFFFFFFFFFFFFFFFFFFFFFFFFFFFFFFFFF AND PUSH20 0xFFFFFFFFFFFFFFFFFFFFFFFFFFFFFFFFFFFFFFFF AND DUP2 MSTORE POP POP DUP2 MSTORE PUSH1 0x20 ADD SWAP1 PUSH1 0x1 ADD SWAP1 PUSH2 0x14EE JUMP JUMPDEST POP POP POP POP SWAP1 POP SWAP1 JUMP JUMPDEST PUSH2 0x1751 PUSH2 0x1891 JUMP JUMPDEST PUSH20 0xFFFFFFFFFFFFFFFFFFFFFFFFFFFFFFFFFFFFFFFF AND PUSH2 0x176F PUSH2 0xDC1 JUMP JUMPDEST PUSH20 0xFFFFFFFFFFFFFFFFFFFFFFFFFFFFFFFFFFFFFFFF AND EQ PUSH2 0x17CE JUMPI PUSH2 0x1792 PUSH2 0x1891 JUMP JUMPDEST PUSH1 0x40 MLOAD PUSH32 0x118CDAA700000000000000000000000000000000000000000000000000000000 DUP2 MSTORE PUSH1 0x4 ADD PUSH2 0x17C5 SWAP2 SWAP1 PUSH2 0x1E9B JUMP JUMPDEST PUSH1 0x40 MLOAD DUP1 SWAP2 SUB SWAP1 REVERT JUMPDEST JUMP JUMPDEST PUSH0 DUP1 PUSH0 SWAP1 SLOAD SWAP1 PUSH2 0x100 EXP SWAP1 DIV PUSH20 0xFFFFFFFFFFFFFFFFFFFFFFFFFFFFFFFFFFFFFFFF AND SWAP1 POP DUP2 PUSH0 DUP1 PUSH2 0x100 EXP DUP2 SLOAD DUP2 PUSH20 0xFFFFFFFFFFFFFFFFFFFFFFFFFFFFFFFFFFFFFFFF MUL NOT AND SWAP1 DUP4 PUSH20 0xFFFFFFFFFFFFFFFFFFFFFFFFFFFFFFFFFFFFFFFF AND MUL OR SWAP1 SSTORE POP DUP2 PUSH20 0xFFFFFFFFFFFFFFFFFFFFFFFFFFFFFFFFFFFFFFFF AND DUP2 PUSH20 0xFFFFFFFFFFFFFFFFFFFFFFFFFFFFFFFFFFFFFFFF AND PUSH32 0x8BE0079C531659141344CD1FD0A4F28419497F9722A3DAAFE3B4186F6B6457E0 PUSH1 0x40 MLOAD PUSH1 0x40 MLOAD DUP1 SWAP2 SUB SWAP1 LOG3 POP POP JUMP JUMPDEST PUSH0 CALLER SWAP1 POP SWAP1 JUMP JUMPDEST PUSH0 PUSH1 0x40 MLOAD SWAP1 POP SWAP1 JUMP JUMPDEST PUSH0 DUP1 REVERT JUMPDEST PUSH0 DUP1 REVERT JUMPDEST PUSH0 DUP2 SWAP1 POP SWAP2 SWAP1 POP JUMP JUMPDEST PUSH2 0x18BB DUP2 PUSH2 0x18A9 JUMP JUMPDEST DUP2 EQ PUSH2 0x18C5 JUMPI PUSH0 DUP1 REVERT JUMPDEST POP JUMP JUMPDEST PUSH0 DUP2 CALLDATALOAD SWAP1 POP PUSH2 0x18D6 DUP2 PUSH2 0x18B2 JUMP JUMPDEST SWAP3 SWAP2 POP POP JUMP JUMPDEST PUSH0 PUSH1 0x20 DUP3 DUP5 SUB SLT ISZERO PUSH2 0x18F1 JUMPI PUSH2 0x18F0 PUSH2 0x18A1 JUMP JUMPDEST JUMPDEST PUSH0 PUSH2 0x18FE DUP5 DUP3 DUP6 ADD PUSH2 0x18C8 JUMP JUMPDEST SWAP2 POP POP SWAP3 SWAP2 POP POP JUMP JUMPDEST PUSH2 0x1910 DUP2 PUSH2 0x18A9 JUMP JUMPDEST DUP3 MSTORE POP POP JUMP JUMPDEST PUSH0 DUP2 MLOAD SWAP1 POP SWAP2 SWAP1 POP JUMP JUMPDEST PUSH0 DUP3 DUP3 MSTORE PUSH1 0x20 DUP3 ADD SWAP1 POP SWAP3 SWAP2 POP POP JUMP JUMPDEST DUP3 DUP2 DUP4 MCOPY PUSH0 DUP4 DUP4 ADD MSTORE POP POP POP JUMP JUMPDEST PUSH0 PUSH1 0x1F NOT PUSH1 0x1F DUP4 ADD AND SWAP1 POP SWAP2 SWAP1 POP JUMP JUMPDEST PUSH0 PUSH2 0x1958 DUP3 PUSH2 0x1916 JUMP JUMPDEST PUSH2 0x1962 DUP2 DUP6 PUSH2 0x1920 JUMP JUMPDEST SWAP4 POP PUSH2 0x1972 DUP2 DUP6 PUSH1 0x20 DUP7 ADD PUSH2 0x1930 JUMP JUMPDEST PUSH2 0x197B DUP2 PUSH2 0x193E JUMP JUMPDEST DUP5 ADD SWAP2 POP POP SWAP3 SWAP2 POP POP JUMP JUMPDEST PUSH0 PUSH20 0xFFFFFFFFFFFFFFFFFFFFFFFFFFFFFFFFFFFFFFFF DUP3 AND SWAP1 POP SWAP2 SWAP1 POP JUMP JUMPDEST PUSH0 PUSH2 0x19AF DUP3 PUSH2 0x1986 JUMP JUMPDEST SWAP1 POP SWAP2 SWAP1 POP JUMP JUMPDEST PUSH2 0x19BF DUP2 PUSH2 0x19A5 JUMP JUMPDEST DUP3 MSTORE POP POP JUMP JUMPDEST PUSH0 PUSH1 0xE0 DUP3 ADD SWAP1 POP PUSH2 0x19D8 PUSH0 DUP4 ADD DUP11 PUSH2 0x1907 JUMP JUMPDEST DUP2 DUP2 SUB PUSH1 0x20 DUP4 ADD MSTORE PUSH2 0x19EA DUP2 DUP10 PUSH2 0x194E JUMP JUMPDEST SWAP1 POP DUP2 DUP2 SUB PUSH1 0x40 DUP4 ADD MSTORE PUSH2 0x19FE DUP2 DUP9 PUSH2 0x194E JUMP JUMPDEST SWAP1 POP PUSH2 0x1A0D PUSH1 0x60 DUP4 ADD DUP8 PUSH2 0x1907 JUMP JUMPDEST DUP2 DUP2 SUB PUSH1 0x80 DUP4 ADD MSTORE PUSH2 0x1A1F DUP2 DUP7 PUSH2 0x194E JUMP JUMPDEST SWAP1 POP PUSH2 0x1A2E PUSH1 0xA0 DUP4 ADD DUP6 PUSH2 0x1907 JUMP JUMPDEST PUSH2 0x1A3B PUSH1 0xC0 DUP4 ADD DUP5 PUSH2 0x19B6 JUMP JUMPDEST SWAP9 SWAP8 POP POP POP POP POP POP POP POP JUMP JUMPDEST PUSH2 0x1A50 DUP2 PUSH2 0x19A5 JUMP JUMPDEST DUP2 EQ PUSH2 0x1A5A JUMPI PUSH0 DUP1 REVERT JUMPDEST POP JUMP JUMPDEST PUSH0 DUP2 CALLDATALOAD SWAP1 POP PUSH2 0x1A6B DUP2 PUSH2 0x1A47 JUMP JUMPDEST SWAP3 SWAP2 POP POP JUMP JUMPDEST PUSH0 PUSH1 0x20 DUP3 DUP5 SUB SLT ISZERO PUSH2 0x1A86 JUMPI PUSH2 0x1A85 PUSH2 0x18A1 JUMP JUMPDEST JUMPDEST PUSH0 PUSH2 0x1A93 DUP5 DUP3 DUP6 ADD PUSH2 0x1A5D JUMP JUMPDEST SWAP2 POP POP SWAP3 SWAP2 POP POP JUMP JUMPDEST PUSH0 DUP2 MLOAD SWAP1 POP SWAP2 SWAP1 POP JUMP JUMPDEST PUSH0 DUP3 DUP3 MSTORE PUSH1 0x20 DUP3 ADD SWAP1 POP SWAP3 SWAP2 POP POP JUMP JUMPDEST PUSH0 DUP2 SWAP1 POP PUSH1 0x20 DUP3 ADD SWAP1 POP SWAP2 SWAP1 POP JUMP JUMPDEST PUSH2 0x1ACE DUP2 PUSH2 0x18A9 JUMP JUMPDEST DUP3 MSTORE POP POP JUMP JUMPDEST PUSH0 DUP3 DUP3 MSTORE PUSH1 0x20 DUP3 ADD SWAP1 POP SWAP3 SWAP2 POP POP JUMP JUMPDEST PUSH0 PUSH2 0x1AEE DUP3 PUSH2 0x1916 JUMP JUMPDEST PUSH2 0x1AF8 DUP2 DUP6 PUSH2 0x1AD4 JUMP JUMPDEST SWAP4 POP PUSH2 0x1B08 DUP2 DUP6 PUSH1 0x20 DUP7 ADD PUSH2 0x1930 JUMP JUMPDEST PUSH2 0x1B11 DUP2 PUSH2 0x193E JUMP JUMPDEST DUP5 ADD SWAP2 POP POP SWAP3 SWAP2 POP POP JUMP JUMPDEST PUSH2 0x1B25 DUP2 PUSH2 0x19A5 JUMP JUMPDEST DUP3 MSTORE POP POP JUMP JUMPDEST PUSH0 PUSH1 0xE0 DUP4 ADD PUSH0 DUP4 ADD MLOAD PUSH2 0x1B40 PUSH0 DUP7 ADD DUP3 PUSH2 0x1AC5 JUMP JUMPDEST POP PUSH1 0x20 DUP4 ADD MLOAD DUP5 DUP3 SUB PUSH1 0x20 DUP7 ADD MSTORE PUSH2 0x1B58 DUP3 DUP3 PUSH2 0x1AE4 JUMP JUMPDEST SWAP2 POP POP PUSH1 0x40 DUP4 ADD MLOAD DUP5 DUP3 SUB PUSH1 0x40 DUP7 ADD MSTORE PUSH2 0x1B72 DUP3 DUP3 PUSH2 0x1AE4 JUMP JUMPDEST SWAP2 POP POP PUSH1 0x60 DUP4 ADD MLOAD PUSH2 0x1B87 PUSH1 0x60 DUP7 ADD DUP3 PUSH2 0x1AC5 JUMP JUMPDEST POP PUSH1 0x80 DUP4 ADD MLOAD DUP5 DUP3 SUB PUSH1 0x80 DUP7 ADD MSTORE PUSH2 0x1B9F DUP3 DUP3 PUSH2 0x1AE4 JUMP JUMPDEST SWAP2 POP POP PUSH1 0xA0 DUP4 ADD MLOAD PUSH2 0x1BB4 PUSH1 0xA0 DUP7 ADD DUP3 PUSH2 0x1AC5 JUMP JUMPDEST POP PUSH1 0xC0 DUP4 ADD MLOAD PUSH2 0x1BC7 PUSH1 0xC0 DUP7 ADD DUP3 PUSH2 0x1B1C JUMP JUMPDEST POP DUP1 SWAP2 POP POP SWAP3 SWAP2 POP POP JUMP JUMPDEST PUSH0 PUSH2 0x1BDD DUP4 DUP4 PUSH2 0x1B2B JUMP JUMPDEST SWAP1 POP SWAP3 SWAP2 POP POP JUMP JUMPDEST PUSH0 PUSH1 0x20 DUP3 ADD SWAP1 POP SWAP2 SWAP1 POP JUMP JUMPDEST PUSH0 PUSH2 0x1BFB DUP3 PUSH2 0x1A9C JUMP JUMPDEST PUSH2 0x1C05 DUP2 DUP6 PUSH2 0x1AA6 JUMP JUMPDEST SWAP4 POP DUP4 PUSH1 0x20 DUP3 MUL DUP6 ADD PUSH2 0x1C17 DUP6 PUSH2 0x1AB6 JUMP JUMPDEST DUP1 PUSH0 JUMPDEST DUP6 DUP2 LT ISZERO PUSH2 0x1C52 JUMPI DUP5 DUP5 SUB DUP10 MSTORE DUP2 MLOAD PUSH2 0x1C33 DUP6 DUP3 PUSH2 0x1BD2 JUMP JUMPDEST SWAP5 POP PUSH2 0x1C3E DUP4 PUSH2 0x1BE5 JUMP JUMPDEST SWAP3 POP PUSH1 0x20 DUP11 ADD SWAP10 POP POP PUSH1 0x1 DUP2 ADD SWAP1 POP PUSH2 0x1C1A JUMP JUMPDEST POP DUP3 SWAP8 POP DUP8 SWAP6 POP POP POP POP POP POP SWAP3 SWAP2 POP POP JUMP JUMPDEST PUSH0 PUSH1 0x20 DUP3 ADD SWAP1 POP DUP2 DUP2 SUB PUSH0 DUP4 ADD MSTORE PUSH2 0x1C7C DUP2 DUP5 PUSH2 0x1BF1 JUMP JUMPDEST SWAP1 POP SWAP3 SWAP2 POP POP JUMP JUMPDEST PUSH0 DUP2 ISZERO ISZERO SWAP1 POP SWAP2 SWAP1 POP JUMP JUMPDEST PUSH2 0x1C98 DUP2 PUSH2 0x1C84 JUMP JUMPDEST DUP3 MSTORE POP POP JUMP JUMPDEST PUSH0 PUSH1 0x20 DUP3 ADD SWAP1 POP PUSH2 0x1CB1 PUSH0 DUP4 ADD DUP5 PUSH2 0x1C8F JUMP JUMPDEST SWAP3 SWAP2 POP POP JUMP JUMPDEST PUSH0 DUP1 REVERT JUMPDEST PUSH0 DUP1 REVERT JUMPDEST PUSH32 0x4E487B7100000000000000000000000000000000000000000000000000000000 PUSH0 MSTORE PUSH1 0x41 PUSH1 0x4 MSTORE PUSH1 0x24 PUSH0 REVERT JUMPDEST PUSH2 0x1CF5 DUP3 PUSH2 0x193E JUMP JUMPDEST DUP2 ADD DUP2 DUP2 LT PUSH8 0xFFFFFFFFFFFFFFFF DUP3 GT OR ISZERO PUSH2 0x1D14 JUMPI PUSH2 0x1D13 PUSH2 0x1CBF JUMP JUMPDEST JUMPDEST DUP1 PUSH1 0x40 MSTORE POP POP POP JUMP JUMPDEST PUSH0 PUSH2 0x1D26 PUSH2 0x1898 JUMP JUMPDEST SWAP1 POP PUSH2 0x1D32 DUP3 DUP3 PUSH2 0x1CEC JUMP JUMPDEST SWAP2 SWAP1 POP JUMP JUMPDEST PUSH0 PUSH8 0xFFFFFFFFFFFFFFFF DUP3 GT ISZERO PUSH2 0x1D51 JUMPI PUSH2 0x1D50 PUSH2 0x1CBF JUMP JUMPDEST JUMPDEST PUSH2 0x1D5A DUP3 PUSH2 0x193E JUMP JUMPDEST SWAP1 POP PUSH1 0x20 DUP2 ADD SWAP1 POP SWAP2 SWAP1 POP JUMP JUMPDEST DUP3 DUP2 DUP4 CALLDATACOPY PUSH0 DUP4 DUP4 ADD MSTORE POP POP POP JUMP JUMPDEST PUSH0 PUSH2 0x1D87 PUSH2 0x1D82 DUP5 PUSH2 0x1D37 JUMP JUMPDEST PUSH2 0x1D1D JUMP JUMPDEST SWAP1 POP DUP3 DUP2 MSTORE PUSH1 0x20 DUP2 ADD DUP5 DUP5 DUP5 ADD GT ISZERO PUSH2 0x1DA3 JUMPI PUSH2 0x1DA2 PUSH2 0x1CBB JUMP JUMPDEST JUMPDEST PUSH2 0x1DAE DUP5 DUP3 DUP6 PUSH2 0x1D67 JUMP JUMPDEST POP SWAP4 SWAP3 POP POP POP JUMP JUMPDEST PUSH0 DUP3 PUSH1 0x1F DUP4 ADD SLT PUSH2 0x1DCA JUMPI PUSH2 0x1DC9 PUSH2 0x1CB7 JUMP JUMPDEST JUMPDEST DUP2 CALLDATALOAD PUSH2 0x1DDA DUP5 DUP3 PUSH1 0x20 DUP7 ADD PUSH2 0x1D75 JUMP JUMPDEST SWAP2 POP POP SWAP3 SWAP2 POP POP JUMP JUMPDEST PUSH0 DUP1 PUSH0 DUP1 PUSH1 0x80 DUP6 DUP8 SUB SLT ISZERO PUSH2 0x1DFB JUMPI PUSH2 0x1DFA PUSH2 0x18A1 JUMP JUMPDEST JUMPDEST PUSH0 DUP6 ADD CALLDATALOAD PUSH8 0xFFFFFFFFFFFFFFFF DUP2 GT ISZERO PUSH2 0x1E18 JUMPI PUSH2 0x1E17 PUSH2 0x18A5 JUMP JUMPDEST JUMPDEST PUSH2 0x1E24 DUP8 DUP3 DUP9 ADD PUSH2 0x1DB6 JUMP JUMPDEST SWAP5 POP POP PUSH1 0x20 DUP6 ADD CALLDATALOAD PUSH8 0xFFFFFFFFFFFFFFFF DUP2 GT ISZERO PUSH2 0x1E45 JUMPI PUSH2 0x1E44 PUSH2 0x18A5 JUMP JUMPDEST JUMPDEST PUSH2 0x1E51 DUP8 DUP3 DUP9 ADD PUSH2 0x1DB6 JUMP JUMPDEST SWAP4 POP POP PUSH1 0x40 DUP6 ADD CALLDATALOAD PUSH8 0xFFFFFFFFFFFFFFFF DUP2 GT ISZERO PUSH2 0x1E72 JUMPI PUSH2 0x1E71 PUSH2 0x18A5 JUMP JUMPDEST JUMPDEST PUSH2 0x1E7E DUP8 DUP3 DUP9 ADD PUSH2 0x1DB6 JUMP JUMPDEST SWAP3 POP POP PUSH1 0x60 PUSH2 0x1E8F DUP8 DUP3 DUP9 ADD PUSH2 0x18C8 JUMP JUMPDEST SWAP2 POP POP SWAP3 SWAP6 SWAP2 SWAP5 POP SWAP3 POP JUMP JUMPDEST PUSH0 PUSH1 0x20 DUP3 ADD SWAP1 POP PUSH2 0x1EAE PUSH0 DUP4 ADD DUP5 PUSH2 0x19B6 JUMP JUMPDEST SWAP3 SWAP2 POP POP JUMP JUMPDEST PUSH0 DUP1 PUSH1 0x40 DUP4 DUP6 SUB SLT ISZERO PUSH2 0x1ECA JUMPI PUSH2 0x1EC9 PUSH2 0x18A1 JUMP JUMPDEST JUMPDEST PUSH0 PUSH2 0x1ED7 DUP6 DUP3 DUP7 ADD PUSH2 0x1A5D JUMP JUMPDEST SWAP3 POP POP PUSH1 0x20 PUSH2 0x1EE8 DUP6 DUP3 DUP7 ADD PUSH2 0x18C8 JUMP JUMPDEST SWAP2 POP POP SWAP3 POP SWAP3 SWAP1 POP JUMP JUMPDEST PUSH0 PUSH1 0x40 DUP3 ADD SWAP1 POP DUP2 DUP2 SUB PUSH0 DUP4 ADD MSTORE PUSH2 0x1F0A DUP2 DUP6 PUSH2 0x194E JUMP JUMPDEST SWAP1 POP DUP2 DUP2 SUB PUSH1 0x20 DUP4 ADD MSTORE PUSH2 0x1F1E DUP2 DUP5 PUSH2 0x194E JUMP JUMPDEST SWAP1 POP SWAP4 SWAP3 POP POP POP JUMP JUMPDEST PUSH0 DUP1 REVERT JUMPDEST PUSH0 DUP1 REVERT JUMPDEST PUSH0 PUSH2 0x1F41 PUSH2 0x1F3C DUP5 PUSH2 0x1D37 JUMP JUMPDEST PUSH2 0x1D1D JUMP JUMPDEST SWAP1 POP DUP3 DUP2 MSTORE PUSH1 0x20 DUP2 ADD DUP5 DUP5 DUP5 ADD GT ISZERO PUSH2 0x1F5D JUMPI PUSH2 0x1F5C PUSH2 0x1CBB JUMP JUMPDEST JUMPDEST PUSH2 0x1F68 DUP5 DUP3 DUP6 PUSH2 0x1930 JUMP JUMPDEST POP SWAP4 SWAP3 POP POP POP JUMP JUMPDEST PUSH0 DUP3 PUSH1 0x1F DUP4 ADD SLT PUSH2 0x1F84 JUMPI PUSH2 0x1F83 PUSH2 0x1CB7 JUMP JUMPDEST JUMPDEST DUP2 MLOAD PUSH2 0x1F94 DUP5 DUP3 PUSH1 0x20 DUP7 ADD PUSH2 0x1F2F JUMP JUMPDEST SWAP2 POP POP SWAP3 SWAP2 POP POP JUMP JUMPDEST PUSH2 0x1FA6 DUP2 PUSH2 0x1C84 JUMP JUMPDEST DUP2 EQ PUSH2 0x1FB0 JUMPI PUSH0 DUP1 REVERT JUMPDEST POP JUMP JUMPDEST PUSH0 DUP2 MLOAD SWAP1 POP PUSH2 0x1FC1 DUP2 PUSH2 0x1F9D JUMP JUMPDEST SWAP3 SWAP2 POP POP JUMP JUMPDEST PUSH0 PUSH1 0x60 DUP3 DUP5 SUB SLT ISZERO PUSH2 0x1FDC JUMPI PUSH2 0x1FDB PUSH2 0x1F27 JUMP JUMPDEST JUMPDEST PUSH2 0x1FE6 PUSH1 0x60 PUSH2 0x1D1D JUMP JUMPDEST SWAP1 POP PUSH0 DUP3 ADD MLOAD PUSH8 0xFFFFFFFFFFFFFFFF DUP2 GT ISZERO PUSH2 0x2005 JUMPI PUSH2 0x2004 PUSH2 0x1F2B JUMP JUMPDEST JUMPDEST PUSH2 0x2011 DUP5 DUP3 DUP6 ADD PUSH2 0x1F70 JUMP JUMPDEST PUSH0 DUP4 ADD MSTORE POP PUSH1 0x20 DUP3 ADD MLOAD PUSH8 0xFFFFFFFFFFFFFFFF DUP2 GT ISZERO PUSH2 0x2034 JUMPI PUSH2 0x2033 PUSH2 0x1F2B JUMP JUMPDEST JUMPDEST PUSH2 0x2040 DUP5 DUP3 DUP6 ADD PUSH2 0x1F70 JUMP JUMPDEST PUSH1 0x20 DUP4 ADD MSTORE POP PUSH1 0x40 PUSH2 0x2054 DUP5 DUP3 DUP6 ADD PUSH2 0x1FB3 JUMP JUMPDEST PUSH1 0x40 DUP4 ADD MSTORE POP SWAP3 SWAP2 POP POP JUMP JUMPDEST PUSH0 PUSH1 0x20 DUP3 DUP5 SUB SLT ISZERO PUSH2 0x2075 JUMPI PUSH2 0x2074 PUSH2 0x18A1 JUMP JUMPDEST JUMPDEST PUSH0 DUP3 ADD MLOAD PUSH8 0xFFFFFFFFFFFFFFFF DUP2 GT ISZERO PUSH2 0x2092 JUMPI PUSH2 0x2091 PUSH2 0x18A5 JUMP JUMPDEST JUMPDEST PUSH2 0x209E DUP5 DUP3 DUP6 ADD PUSH2 0x1FC7 JUMP JUMPDEST SWAP2 POP POP SWAP3 SWAP2 POP POP JUMP JUMPDEST PUSH32 0x596F75206861766520746F205265676973746572640000000000000000000000 PUSH0 DUP3 ADD MSTORE POP JUMP JUMPDEST PUSH0 PUSH2 0x20DB PUSH1 0x15 DUP4 PUSH2 0x1920 JUMP JUMPDEST SWAP2 POP PUSH2 0x20E6 DUP3 PUSH2 0x20A7 JUMP JUMPDEST PUSH1 0x20 DUP3 ADD SWAP1 POP SWAP2 SWAP1 POP JUMP JUMPDEST PUSH0 PUSH1 0x20 DUP3 ADD SWAP1 POP DUP2 DUP2 SUB PUSH0 DUP4 ADD MSTORE PUSH2 0x2108 DUP2 PUSH2 0x20CF JUMP JUMPDEST SWAP1 POP SWAP2 SWAP1 POP JUMP JUMPDEST PUSH32 0x596F752061726520616C726561647920566F7465642100000000000000000000 PUSH0 DUP3 ADD MSTORE POP JUMP JUMPDEST PUSH0 PUSH2 0x2143 PUSH1 0x16 DUP4 PUSH2 0x1920 JUMP JUMPDEST SWAP2 POP PUSH2 0x214E DUP3 PUSH2 0x210F JUMP JUMPDEST PUSH1 0x20 DUP3 ADD SWAP1 POP SWAP2 SWAP1 POP JUMP JUMPDEST PUSH0 PUSH1 0x20 DUP3 ADD SWAP1 POP DUP2 DUP2 SUB PUSH0 DUP4 ADD MSTORE PUSH2 0x2170 DUP2 PUSH2 0x2137 JUMP JUMPDEST SWAP1 POP SWAP2 SWAP1 POP JUMP JUMPDEST PUSH32 0x4E487B7100000000000000000000000000000000000000000000000000000000 PUSH0 MSTORE PUSH1 0x11 PUSH1 0x4 MSTORE PUSH1 0x24 PUSH0 REVERT JUMPDEST PUSH0 PUSH2 0x21AE DUP3 PUSH2 0x18A9 JUMP JUMPDEST SWAP2 POP PUSH2 0x21B9 DUP4 PUSH2 0x18A9 JUMP JUMPDEST SWAP3 POP DUP3 DUP3 ADD SWAP1 POP DUP1 DUP3 GT ISZERO PUSH2 0x21D1 JUMPI PUSH2 0x21D0 PUSH2 0x2177 JUMP JUMPDEST JUMPDEST SWAP3 SWAP2 POP POP JUMP JUMPDEST PUSH32 0x4E487B7100000000000000000000000000000000000000000000000000000000 PUSH0 MSTORE PUSH1 0x22 PUSH1 0x4 MSTORE PUSH1 0x24 PUSH0 REVERT JUMPDEST PUSH0 PUSH1 0x2 DUP3 DIV SWAP1 POP PUSH1 0x1 DUP3 AND DUP1 PUSH2 0x221B JUMPI PUSH1 0x7F DUP3 AND SWAP2 POP JUMPDEST PUSH1 0x20 DUP3 LT DUP2 SUB PUSH2 0x222E JUMPI PUSH2 0x222D PUSH2 0x21D7 JUMP JUMPDEST JUMPDEST POP SWAP2 SWAP1 POP JUMP JUMPDEST PUSH0 PUSH2 0x223E DUP3 PUSH2 0x18A9 JUMP JUMPDEST SWAP2 POP PUSH2 0x2249 DUP4 PUSH2 0x18A9 JUMP JUMPDEST SWAP3 POP DUP3 DUP3 MUL PUSH2 0x2257 DUP2 PUSH2 0x18A9 JUMP JUMPDEST SWAP2 POP DUP3 DUP3 DIV DUP5 EQ DUP4 ISZERO OR PUSH2 0x226E JUMPI PUSH2 0x226D PUSH2 0x2177 JUMP JUMPDEST JUMPDEST POP SWAP3 SWAP2 POP POP JUMP JUMPDEST PUSH0 DUP2 SWAP1 POP DUP2 PUSH0 MSTORE PUSH1 0x20 PUSH0 KECCAK256 SWAP1 POP SWAP2 SWAP1 POP JUMP JUMPDEST PUSH0 PUSH1 0x20 PUSH1 0x1F DUP4 ADD DIV SWAP1 POP SWAP2 SWAP1 POP JUMP JUMPDEST PUSH0 DUP3 DUP3 SHL SWAP1 POP SWAP3 SWAP2 POP POP JUMP JUMPDEST PUSH0 PUSH1 0x8 DUP4 MUL PUSH2 0x22D1 PUSH32 0xFFFFFFFFFFFFFFFFFFFFFFFFFFFFFFFFFFFFFFFFFFFFFFFFFFFFFFFFFFFFFFFF DUP3 PUSH2 0x2296 JUMP JUMPDEST PUSH2 0x22DB DUP7 DUP4 PUSH2 0x2296 JUMP JUMPDEST SWAP6 POP DUP1 NOT DUP5 AND SWAP4 POP DUP1 DUP7 AND DUP5 OR SWAP3 POP POP POP SWAP4 SWAP3 POP POP POP JUMP JUMPDEST PUSH0 DUP2 SWAP1 POP SWAP2 SWAP1 POP JUMP JUMPDEST PUSH0 PUSH2 0x2316 PUSH2 0x2311 PUSH2 0x230C DUP5 PUSH2 0x18A9 JUMP JUMPDEST PUSH2 0x22F3 JUMP JUMPDEST PUSH2 0x18A9 JUMP JUMPDEST SWAP1 POP SWAP2 SWAP1 POP JUMP JUMPDEST PUSH0 DUP2 SWAP1 POP SWAP2 SWAP1 POP JUMP JUMPDEST PUSH2 0x232F DUP4 PUSH2 0x22FC JUMP JUMPDEST PUSH2 0x2343 PUSH2 0x233B DUP3 PUSH2 0x231D JUMP JUMPDEST DUP5 DUP5 SLOAD PUSH2 0x22A2 JUMP JUMPDEST DUP3 SSTORE POP POP POP POP JUMP JUMPDEST PUSH0 SWAP1 JUMP JUMPDEST PUSH2 0x2357 PUSH2 0x234B JUMP JUMPDEST PUSH2 0x2362 DUP2 DUP5 DUP5 PUSH2 0x2326 JUMP JUMPDEST POP POP POP JUMP JUMPDEST JUMPDEST DUP2 DUP2 LT ISZERO PUSH2 0x2385 JUMPI PUSH2 0x237A PUSH0 DUP3 PUSH2 0x234F JUMP JUMPDEST PUSH1 0x1 DUP2 ADD SWAP1 POP PUSH2 0x2368 JUMP JUMPDEST POP POP JUMP JUMPDEST PUSH1 0x1F DUP3 GT ISZERO PUSH2 0x23CA JUMPI PUSH2 0x239B DUP2 PUSH2 0x2275 JUMP JUMPDEST PUSH2 0x23A4 DUP5 PUSH2 0x2287 JUMP JUMPDEST DUP2 ADD PUSH1 0x20 DUP6 LT ISZERO PUSH2 0x23B3 JUMPI DUP2 SWAP1 POP JUMPDEST PUSH2 0x23C7 PUSH2 0x23BF DUP6 PUSH2 0x2287 JUMP JUMPDEST DUP4 ADD DUP3 PUSH2 0x2367 JUMP JUMPDEST POP POP JUMPDEST POP POP POP JUMP JUMPDEST PUSH0 DUP3 DUP3 SHR SWAP1 POP SWAP3 SWAP2 POP POP JUMP JUMPDEST PUSH0 PUSH2 0x23EA PUSH0 NOT DUP5 PUSH1 0x8 MUL PUSH2 0x23CF JUMP JUMPDEST NOT DUP1 DUP4 AND SWAP2 POP POP SWAP3 SWAP2 POP POP JUMP JUMPDEST PUSH0 PUSH2 0x2402 DUP4 DUP4 PUSH2 0x23DB JUMP JUMPDEST SWAP2 POP DUP3 PUSH1 0x2 MUL DUP3 OR SWAP1 POP SWAP3 SWAP2 POP POP JUMP JUMPDEST PUSH2 0x241B DUP3 PUSH2 0x1916 JUMP JUMPDEST PUSH8 0xFFFFFFFFFFFFFFFF DUP2 GT ISZERO PUSH2 0x2434 JUMPI PUSH2 0x2433 PUSH2 0x1CBF JUMP JUMPDEST JUMPDEST PUSH2 0x243E DUP3 SLOAD PUSH2 0x2204 JUMP JUMPDEST PUSH2 0x2449 DUP3 DUP3 DUP6 PUSH2 0x2389 JUMP JUMPDEST PUSH0 PUSH1 0x20 SWAP1 POP PUSH1 0x1F DUP4 GT PUSH1 0x1 DUP2 EQ PUSH2 0x247A JUMPI PUSH0 DUP5 ISZERO PUSH2 0x2468 JUMPI DUP3 DUP8 ADD MLOAD SWAP1 POP JUMPDEST PUSH2 0x2472 DUP6 DUP3 PUSH2 0x23F7 JUMP JUMPDEST DUP7 SSTORE POP PUSH2 0x24D9 JUMP JUMPDEST PUSH1 0x1F NOT DUP5 AND PUSH2 0x2488 DUP7 PUSH2 0x2275 JUMP JUMPDEST PUSH0 JUMPDEST DUP3 DUP2 LT ISZERO PUSH2 0x24AF JUMPI DUP5 DUP10 ADD MLOAD DUP3 SSTORE PUSH1 0x1 DUP3 ADD SWAP2 POP PUSH1 0x20 DUP6 ADD SWAP5 POP PUSH1 0x20 DUP2 ADD SWAP1 POP PUSH2 0x248A JUMP JUMPDEST DUP7 DUP4 LT ISZERO PUSH2 0x24CC JUMPI DUP5 DUP10 ADD MLOAD PUSH2 0x24C8 PUSH1 0x1F DUP10 AND DUP3 PUSH2 0x23DB JUMP JUMPDEST DUP4 SSTORE POP JUMPDEST PUSH1 0x1 PUSH1 0x2 DUP9 MUL ADD DUP9 SSTORE POP POP POP JUMPDEST POP POP POP POP POP POP JUMP JUMPDEST PUSH0 DUP2 SLOAD SWAP1 POP PUSH2 0x24EF DUP2 PUSH2 0x2204 JUMP JUMPDEST SWAP1 POP SWAP2 SWAP1 POP JUMP JUMPDEST DUP2 DUP2 SUB PUSH2 0x2504 JUMPI POP POP PUSH2 0x25D9 JUMP JUMPDEST PUSH2 0x250D DUP3 PUSH2 0x24E1 JUMP JUMPDEST PUSH8 0xFFFFFFFFFFFFFFFF DUP2 GT ISZERO PUSH2 0x2526 JUMPI PUSH2 0x2525 PUSH2 0x1CBF JUMP JUMPDEST JUMPDEST PUSH2 0x2530 DUP3 SLOAD PUSH2 0x2204 JUMP JUMPDEST PUSH2 0x253B DUP3 DUP3 DUP6 PUSH2 0x2389 JUMP JUMPDEST PUSH0 PUSH1 0x1F DUP4 GT PUSH1 0x1 DUP2 EQ PUSH2 0x2568 JUMPI PUSH0 DUP5 ISZERO PUSH2 0x2556 JUMPI DUP3 DUP8 ADD SLOAD SWAP1 POP JUMPDEST PUSH2 0x2560 DUP6 DUP3 PUSH2 0x23F7 JUMP JUMPDEST DUP7 SSTORE POP PUSH2 0x25D2 JUMP JUMPDEST PUSH1 0x1F NOT DUP5 AND PUSH2 0x2576 DUP8 PUSH2 0x2275 JUMP JUMPDEST SWAP7 POP PUSH2 0x2581 DUP7 PUSH2 0x2275 JUMP JUMPDEST PUSH0 JUMPDEST DUP3 DUP2 LT ISZERO PUSH2 0x25A8 JUMPI DUP5 DUP10 ADD SLOAD DUP3 SSTORE PUSH1 0x1 DUP3 ADD SWAP2 POP PUSH1 0x1 DUP6 ADD SWAP5 POP PUSH1 0x20 DUP2 ADD SWAP1 POP PUSH2 0x2583 JUMP JUMPDEST DUP7 DUP4 LT ISZERO PUSH2 0x25C5 JUMPI DUP5 DUP10 ADD SLOAD PUSH2 0x25C1 PUSH1 0x1F DUP10 AND DUP3 PUSH2 0x23DB JUMP JUMPDEST DUP4 SSTORE POP JUMPDEST PUSH1 0x1 PUSH1 0x2 DUP9 MUL ADD DUP9 SSTORE POP POP POP JUMPDEST POP POP POP POP POP POP JUMPDEST JUMP JUMPDEST PUSH0 DUP2 SWAP1 POP SWAP2 SWAP1 POP JUMP JUMPDEST PUSH0 PUSH2 0x25FE PUSH2 0x25F9 PUSH2 0x25F4 DUP5 PUSH2 0x25DB JUMP JUMPDEST PUSH2 0x22F3 JUMP JUMPDEST PUSH2 0x18A9 JUMP JUMPDEST SWAP1 POP SWAP2 SWAP1 POP JUMP JUMPDEST PUSH2 0x260E DUP2 PUSH2 0x25E4 JUMP JUMPDEST DUP3 MSTORE POP POP JUMP JUMPDEST PUSH0 PUSH1 0xE0 DUP3 ADD SWAP1 POP PUSH2 0x2627 PUSH0 DUP4 ADD DUP11 PUSH2 0x1907 JUMP JUMPDEST DUP2 DUP2 SUB PUSH1 0x20 DUP4 ADD MSTORE PUSH2 0x2639 DUP2 DUP10 PUSH2 0x194E JUMP JUMPDEST SWAP1 POP DUP2 DUP2 SUB PUSH1 0x40 DUP4 ADD MSTORE PUSH2 0x264D DUP2 DUP9 PUSH2 0x194E JUMP JUMPDEST SWAP1 POP PUSH2 0x265C PUSH1 0x60 DUP4 ADD DUP8 PUSH2 0x2605 JUMP JUMPDEST DUP2 DUP2 SUB PUSH1 0x80 DUP4 ADD MSTORE PUSH2 0x266E DUP2 DUP7 PUSH2 0x194E JUMP JUMPDEST SWAP1 POP PUSH2 0x267D PUSH1 0xA0 DUP4 ADD DUP6 PUSH2 0x1907 JUMP JUMPDEST PUSH2 0x268A PUSH1 0xC0 DUP4 ADD DUP5 PUSH2 0x19B6 JUMP JUMPDEST SWAP9 SWAP8 POP POP POP POP POP POP POP POP JUMP JUMPDEST PUSH0 PUSH2 0x26A0 DUP3 PUSH2 0x18A9 JUMP JUMPDEST SWAP2 POP PUSH32 0xFFFFFFFFFFFFFFFFFFFFFFFFFFFFFFFFFFFFFFFFFFFFFFFFFFFFFFFFFFFFFFFF DUP3 SUB PUSH2 0x26D2 JUMPI PUSH2 0x26D1 PUSH2 0x2177 JUMP JUMPDEST JUMPDEST PUSH1 0x1 DUP3 ADD SWAP1 POP SWAP2 SWAP1 POP JUMP INVALID LOG2 PUSH5 0x6970667358 0x22 SLT KECCAK256 0xCB 0xCB EQ 0xC8 ADDRESS LT 0xED 0x2D GASLIMIT MOD SMOD 0xCE SWAP3 GAS 0xEE 0xCC 0xC5 0xA9 SAR GT REVERT ADDRESS PUSH10 0x8FC0E1B7B7B16418AF64 PUSH20 0x6F6C634300081A00330000000000000000000000 "
				},
				"gasEstimates": {
					"creation": {
						"codeDepositCost": "2000600",
						"executionCost": "infinite",
						"totalCost": "infinite"
					},
					"external": {
						"createProposal(string,string,string,uint256)": "infinite",
						"gerAllProposal()": "infinite",
						"getMyProposal(address)": "infinite",
						"getProposal(uint256)": "infinite",
						"hasvoted(address)": "2900",
						"myProposal(address,uint256)": "infinite",
						"owner()": "2515",
						"proposalList(uint256)": "infinite",
						"proposals(uint256)": "infinite",
						"renounceOwnership()": "infinite",
						"transferOwnership(address)": "infinite",
						"vote(uint256)": "infinite"
					}
				},
				"methodIdentifiers": {
					"createProposal(string,string,string,uint256)": "4c15676b",
					"gerAllProposal()": "f30282a1",
					"getMyProposal(address)": "159428d1",
					"getProposal(uint256)": "c7f758a8",
					"hasvoted(address)": "2b499cab",
					"myProposal(address,uint256)": "be07d1d9",
					"owner()": "8da5cb5b",
					"proposalList(uint256)": "c6311e3f",
					"proposals(uint256)": "013cf08b",
					"renounceOwnership()": "715018a6",
					"transferOwnership(address)": "f2fde38b",
					"vote(uint256)": "0121b93f"
				}
			},
			"storageLayout": {
				"storage": [
					{
						"astId": 8,
						"contract": "contracts/Petisi.sol:Petisi",
						"label": "_owner",
						"offset": 0,
						"slot": "0",
						"type": "t_address"
					},
					{
						"astId": 211,
						"contract": "contracts/Petisi.sol:Petisi",
						"label": "profileContract",
						"offset": 0,
						"slot": "1",
						"type": "t_contract(IProfile)202"
					},
					{
						"astId": 245,
						"contract": "contracts/Petisi.sol:Petisi",
						"label": "counterProposal",
						"offset": 0,
						"slot": "2",
						"type": "t_uint256"
					},
					{
						"astId": 267,
						"contract": "contracts/Petisi.sol:Petisi",
						"label": "myProposal",
						"offset": 0,
						"slot": "3",
						"type": "t_mapping(t_address,t_array(t_struct(Proposal)242_storage)dyn_storage)"
					},
					{
						"astId": 272,
						"contract": "contracts/Petisi.sol:Petisi",
						"label": "proposals",
						"offset": 0,
						"slot": "4",
						"type": "t_mapping(t_uint256,t_struct(Proposal)242_storage)"
					},
					{
						"astId": 276,
						"contract": "contracts/Petisi.sol:Petisi",
						"label": "hasvoted",
						"offset": 0,
						"slot": "5",
						"type": "t_mapping(t_address,t_bool)"
					},
					{
						"astId": 280,
						"contract": "contracts/Petisi.sol:Petisi",
						"label": "proposalList",
						"offset": 0,
						"slot": "6",
						"type": "t_array(t_struct(Proposal)242_storage)dyn_storage"
					}
				],
				"types": {
					"t_address": {
						"encoding": "inplace",
						"label": "address",
						"numberOfBytes": "20"
					},
					"t_array(t_struct(Proposal)242_storage)dyn_storage": {
						"base": "t_struct(Proposal)242_storage",
						"encoding": "dynamic_array",
						"label": "struct Petisi.Proposal[]",
						"numberOfBytes": "32"
					},
					"t_bool": {
						"encoding": "inplace",
						"label": "bool",
						"numberOfBytes": "1"
					},
					"t_contract(IProfile)202": {
						"encoding": "inplace",
						"label": "contract IProfile",
						"numberOfBytes": "20"
					},
					"t_mapping(t_address,t_array(t_struct(Proposal)242_storage)dyn_storage)": {
						"encoding": "mapping",
						"key": "t_address",
						"label": "mapping(address => struct Petisi.Proposal[])",
						"numberOfBytes": "32",
						"value": "t_array(t_struct(Proposal)242_storage)dyn_storage"
					},
					"t_mapping(t_address,t_bool)": {
						"encoding": "mapping",
						"key": "t_address",
						"label": "mapping(address => bool)",
						"numberOfBytes": "32",
						"value": "t_bool"
					},
					"t_mapping(t_uint256,t_struct(Proposal)242_storage)": {
						"encoding": "mapping",
						"key": "t_uint256",
						"label": "mapping(uint256 => struct Petisi.Proposal)",
						"numberOfBytes": "32",
						"value": "t_struct(Proposal)242_storage"
					},
					"t_string_storage": {
						"encoding": "bytes",
						"label": "string",
						"numberOfBytes": "32"
					},
					"t_struct(Proposal)242_storage": {
						"encoding": "inplace",
						"label": "struct Petisi.Proposal",
						"members": [
							{
								"astId": 229,
								"contract": "contracts/Petisi.sol:Petisi",
								"label": "id",
								"offset": 0,
								"slot": "0",
								"type": "t_uint256"
							},
							{
								"astId": 231,
								"contract": "contracts/Petisi.sol:Petisi",
								"label": "title",
								"offset": 0,
								"slot": "1",
								"type": "t_string_storage"
							},
							{
								"astId": 233,
								"contract": "contracts/Petisi.sol:Petisi",
								"label": "description",
								"offset": 0,
								"slot": "2",
								"type": "t_string_storage"
							},
							{
								"astId": 235,
								"contract": "contracts/Petisi.sol:Petisi",
								"label": "votes",
								"offset": 0,
								"slot": "3",
								"type": "t_uint256"
							},
							{
								"astId": 237,
								"contract": "contracts/Petisi.sol:Petisi",
								"label": "imgUrl",
								"offset": 0,
								"slot": "4",
								"type": "t_string_storage"
							},
							{
								"astId": 239,
								"contract": "contracts/Petisi.sol:Petisi",
								"label": "deadline",
								"offset": 0,
								"slot": "5",
								"type": "t_uint256"
							},
							{
								"astId": 241,
								"contract": "contracts/Petisi.sol:Petisi",
								"label": "author",
								"offset": 0,
								"slot": "6",
								"type": "t_address"
							}
						],
						"numberOfBytes": "224"
					},
					"t_uint256": {
						"encoding": "inplace",
						"label": "uint256",
						"numberOfBytes": "32"
					}
				}
			},
			"userdoc": {
				"kind": "user",
				"methods": {},
				"version": 1
			}
		}
	}
}