{
	"contracts/PetisiProfile.sol": {
		"PetisiProfile": {
			"abi": [
				{
					"inputs": [
						{
							"internalType": "address",
							"name": "_user",
							"type": "address"
						}
					],
					"name": "getImgProfile",
					"outputs": [
						{
							"internalType": "string",
							"name": "",
							"type": "string"
						}
					],
					"stateMutability": "view",
					"type": "function"
				},
				{
					"inputs": [
						{
							"internalType": "address",
							"name": "_user",
							"type": "address"
						}
					],
					"name": "getProfile",
					"outputs": [
						{
							"components": [
								{
									"internalType": "string",
									"name": "username",
									"type": "string"
								},
								{
									"internalType": "string",
									"name": "bio",
									"type": "string"
								},
								{
									"internalType": "string",
									"name": "imgProfile",
									"type": "string"
								},
								{
									"internalType": "bool",
									"name": "isRegistered",
									"type": "bool"
								}
							],
							"internalType": "struct PetisiProfile.UserProfile",
							"name": "",
							"type": "tuple"
						}
					],
					"stateMutability": "view",
					"type": "function"
				},
				{
					"inputs": [
						{
							"internalType": "address",
							"name": "_user",
							"type": "address"
						}
					],
					"name": "getUsernameProfile",
					"outputs": [
						{
							"internalType": "string",
							"name": "",
							"type": "string"
						}
					],
					"stateMutability": "view",
					"type": "function"
				},
				{
					"inputs": [
						{
							"internalType": "address",
							"name": "",
							"type": "address"
						}
					],
					"name": "profile",
					"outputs": [
						{
							"internalType": "string",
							"name": "username",
							"type": "string"
						},
						{
							"internalType": "string",
							"name": "bio",
							"type": "string"
						},
						{
							"internalType": "string",
							"name": "imgProfile",
							"type": "string"
						},
						{
							"internalType": "bool",
							"name": "isRegistered",
							"type": "bool"
						}
					],
					"stateMutability": "view",
					"type": "function"
				},
				{
					"inputs": [
						{
							"internalType": "string",
							"name": "_username",
							"type": "string"
						},
						{
							"internalType": "string",
							"name": "_bio",
							"type": "string"
						},
						{
							"internalType": "string",
							"name": "_imgProfile",
							"type": "string"
						}
					],
					"name": "setProfile",
					"outputs": [],
					"stateMutability": "nonpayable",
					"type": "function"
				}
			],
			"devdoc": {
				"kind": "dev",
				"methods": {},
				"version": 1
			},
			"evm": {
				"assembly": "    /* \"contracts/PetisiProfile.sol\":58:836  contract PetisiProfile {... */\n  mstore(0x40, 0x80)\n  callvalue\n  dup1\n  iszero\n  tag_1\n  jumpi\n  0x00\n  dup1\n  revert\ntag_1:\n  pop\n  dataSize(sub_0)\n  dup1\n  dataOffset(sub_0)\n  0x00\n  codecopy\n  0x00\n  return\nstop\n\nsub_0: assembly {\n        /* \"contracts/PetisiProfile.sol\":58:836  contract PetisiProfile {... */\n      mstore(0x40, 0x80)\n      callvalue\n      dup1\n      iszero\n      tag_1\n      jumpi\n      0x00\n      dup1\n      revert\n    tag_1:\n      pop\n      jumpi(tag_2, lt(calldatasize, 0x04))\n      shr(0xe0, calldataload(0x00))\n      dup1\n      0x04386432\n      eq\n      tag_3\n      jumpi\n      dup1\n      0x0f53a470\n      eq\n      tag_4\n      jumpi\n      dup1\n      0x52640314\n      eq\n      tag_5\n      jumpi\n      dup1\n      0x9dd9d0fd\n      eq\n      tag_6\n      jumpi\n      dup1\n      0xa2e84e6e\n      eq\n      tag_7\n      jumpi\n    tag_2:\n      0x00\n      dup1\n      revert\n        /* \"contracts/PetisiProfile.sol\":587:712  function getUsernameProfile(address _user) public view returns (string memory){... */\n    tag_3:\n      tag_8\n      0x04\n      dup1\n      calldatasize\n      sub\n      dup2\n      add\n      swap1\n      tag_9\n      swap2\n      swap1\n      tag_10\n      jump\t// in\n    tag_9:\n      tag_11\n      jump\t// in\n    tag_8:\n      mload(0x40)\n      tag_12\n      swap2\n      swap1\n      tag_13\n      jump\t// in\n    tag_12:\n      mload(0x40)\n      dup1\n      swap2\n      sub\n      swap1\n      return\n        /* \"contracts/PetisiProfile.sol\":718:831  function getProfile(address _user) public view returns(UserProfile memory){... */\n    tag_4:\n      tag_14\n      0x04\n      dup1\n      calldatasize\n      sub\n      dup2\n      add\n      swap1\n      tag_15\n      swap2\n      swap1\n      tag_10\n      jump\t// in\n    tag_15:\n      tag_16\n      jump\t// in\n    tag_14:\n      mload(0x40)\n      tag_17\n      swap2\n      swap1\n      tag_18\n      jump\t// in\n    tag_17:\n      mload(0x40)\n      dup1\n      swap2\n      sub\n      swap1\n      return\n        /* \"contracts/PetisiProfile.sol\":270:454  function setProfile(string memory _username, string memory _bio, string memory _imgProfile) public {... */\n    tag_5:\n      tag_19\n      0x04\n      dup1\n      calldatasize\n      sub\n      dup2\n      add\n      swap1\n      tag_20\n      swap2\n      swap1\n      tag_21\n      jump\t// in\n    tag_20:\n      tag_22\n      jump\t// in\n    tag_19:\n      stop\n        /* \"contracts/PetisiProfile.sol\":217:263  mapping(address => UserProfile) public profile */\n    tag_6:\n      tag_23\n      0x04\n      dup1\n      calldatasize\n      sub\n      dup2\n      add\n      swap1\n      tag_24\n      swap2\n      swap1\n      tag_10\n      jump\t// in\n    tag_24:\n      tag_25\n      jump\t// in\n    tag_23:\n      mload(0x40)\n      tag_26\n      swap5\n      swap4\n      swap3\n      swap2\n      swap1\n      tag_27\n      jump\t// in\n    tag_26:\n      mload(0x40)\n      dup1\n      swap2\n      sub\n      swap1\n      return\n        /* \"contracts/PetisiProfile.sol\":459:581  function getImgProfile(address _user) public  view returns(string memory){... */\n    tag_7:\n      tag_28\n      0x04\n      dup1\n      calldatasize\n      sub\n      dup2\n      add\n      swap1\n      tag_29\n      swap2\n      swap1\n      tag_10\n      jump\t// in\n    tag_29:\n      tag_30\n      jump\t// in\n    tag_28:\n      mload(0x40)\n      tag_31\n      swap2\n      swap1\n      tag_13\n      jump\t// in\n    tag_31:\n      mload(0x40)\n      dup1\n      swap2\n      sub\n      swap1\n      return\n        /* \"contracts/PetisiProfile.sol\":587:712  function getUsernameProfile(address _user) public view returns (string memory){... */\n    tag_11:\n        /* \"contracts/PetisiProfile.sol\":651:664  string memory */\n      0x60\n        /* \"contracts/PetisiProfile.sol\":682:689  profile */\n      0x00\n        /* \"contracts/PetisiProfile.sol\":682:696  profile[_user] */\n      dup1\n        /* \"contracts/PetisiProfile.sol\":690:695  _user */\n      dup4\n        /* \"contracts/PetisiProfile.sol\":682:696  profile[_user] */\n      0xffffffffffffffffffffffffffffffffffffffff\n      and\n      0xffffffffffffffffffffffffffffffffffffffff\n      and\n      dup2\n      mstore\n      0x20\n      add\n      swap1\n      dup2\n      mstore\n      0x20\n      add\n      0x00\n      keccak256\n        /* \"contracts/PetisiProfile.sol\":682:705  profile[_user].username */\n      0x00\n      add\n        /* \"contracts/PetisiProfile.sol\":675:705  return profile[_user].username */\n      dup1\n      sload\n      tag_33\n      swap1\n      tag_34\n      jump\t// in\n    tag_33:\n      dup1\n      0x1f\n      add\n      0x20\n      dup1\n      swap2\n      div\n      mul\n      0x20\n      add\n      mload(0x40)\n      swap1\n      dup2\n      add\n      0x40\n      mstore\n      dup1\n      swap3\n      swap2\n      swap1\n      dup2\n      dup2\n      mstore\n      0x20\n      add\n      dup3\n      dup1\n      sload\n      tag_35\n      swap1\n      tag_34\n      jump\t// in\n    tag_35:\n      dup1\n      iszero\n      tag_36\n      jumpi\n      dup1\n      0x1f\n      lt\n      tag_37\n      jumpi\n      0x0100\n      dup1\n      dup4\n      sload\n      div\n      mul\n      dup4\n      mstore\n      swap2\n      0x20\n      add\n      swap2\n      jump(tag_36)\n    tag_37:\n      dup3\n      add\n      swap2\n      swap1\n      0x00\n      mstore\n      keccak256(0x00, 0x20)\n      swap1\n    tag_38:\n      dup2\n      sload\n      dup2\n      mstore\n      swap1\n      0x01\n      add\n      swap1\n      0x20\n      add\n      dup1\n      dup4\n      gt\n      tag_38\n      jumpi\n      dup3\n      swap1\n      sub\n      0x1f\n      and\n      dup3\n      add\n      swap2\n    tag_36:\n      pop\n      pop\n      pop\n      pop\n      pop\n      swap1\n      pop\n        /* \"contracts/PetisiProfile.sol\":587:712  function getUsernameProfile(address _user) public view returns (string memory){... */\n      swap2\n      swap1\n      pop\n      jump\t// out\n        /* \"contracts/PetisiProfile.sol\":718:831  function getProfile(address _user) public view returns(UserProfile memory){... */\n    tag_16:\n        /* \"contracts/PetisiProfile.sol\":773:791  UserProfile memory */\n      tag_39\n      tag_40\n      jump\t// in\n    tag_39:\n        /* \"contracts/PetisiProfile.sol\":810:817  profile */\n      0x00\n        /* \"contracts/PetisiProfile.sol\":810:824  profile[_user] */\n      dup1\n        /* \"contracts/PetisiProfile.sol\":818:823  _user */\n      dup4\n        /* \"contracts/PetisiProfile.sol\":810:824  profile[_user] */\n      0xffffffffffffffffffffffffffffffffffffffff\n      and\n      0xffffffffffffffffffffffffffffffffffffffff\n      and\n      dup2\n      mstore\n      0x20\n      add\n      swap1\n      dup2\n      mstore\n      0x20\n      add\n      0x00\n      keccak256\n        /* \"contracts/PetisiProfile.sol\":802:824  return  profile[_user] */\n      mload(0x40)\n      dup1\n      0x80\n      add\n      0x40\n      mstore\n      swap1\n      dup2\n      0x00\n      dup3\n      add\n      dup1\n      sload\n      tag_42\n      swap1\n      tag_34\n      jump\t// in\n    tag_42:\n      dup1\n      0x1f\n      add\n      0x20\n      dup1\n      swap2\n      div\n      mul\n      0x20\n      add\n      mload(0x40)\n      swap1\n      dup2\n      add\n      0x40\n      mstore\n      dup1\n      swap3\n      swap2\n      swap1\n      dup2\n      dup2\n      mstore\n      0x20\n      add\n      dup3\n      dup1\n      sload\n      tag_43\n      swap1\n      tag_34\n      jump\t// in\n    tag_43:\n      dup1\n      iszero\n      tag_44\n      jumpi\n      dup1\n      0x1f\n      lt\n      tag_45\n      jumpi\n      0x0100\n      dup1\n      dup4\n      sload\n      div\n      mul\n      dup4\n      mstore\n      swap2\n      0x20\n      add\n      swap2\n      jump(tag_44)\n    tag_45:\n      dup3\n      add\n      swap2\n      swap1\n      0x00\n      mstore\n      keccak256(0x00, 0x20)\n      swap1\n    tag_46:\n      dup2\n      sload\n      dup2\n      mstore\n      swap1\n      0x01\n      add\n      swap1\n      0x20\n      add\n      dup1\n      dup4\n      gt\n      tag_46\n      jumpi\n      dup3\n      swap1\n      sub\n      0x1f\n      and\n      dup3\n      add\n      swap2\n    tag_44:\n      pop\n      pop\n      pop\n      pop\n      pop\n      dup2\n      mstore\n      0x20\n      add\n      0x01\n      dup3\n      add\n      dup1\n      sload\n      tag_47\n      swap1\n      tag_34\n      jump\t// in\n    tag_47:\n      dup1\n      0x1f\n      add\n      0x20\n      dup1\n      swap2\n      div\n      mul\n      0x20\n      add\n      mload(0x40)\n      swap1\n      dup2\n      add\n      0x40\n      mstore\n      dup1\n      swap3\n      swap2\n      swap1\n      dup2\n      dup2\n      mstore\n      0x20\n      add\n      dup3\n      dup1\n      sload\n      tag_48\n      swap1\n      tag_34\n      jump\t// in\n    tag_48:\n      dup1\n      iszero\n      tag_49\n      jumpi\n      dup1\n      0x1f\n      lt\n      tag_50\n      jumpi\n      0x0100\n      dup1\n      dup4\n      sload\n      div\n      mul\n      dup4\n      mstore\n      swap2\n      0x20\n      add\n      swap2\n      jump(tag_49)\n    tag_50:\n      dup3\n      add\n      swap2\n      swap1\n      0x00\n      mstore\n      keccak256(0x00, 0x20)\n      swap1\n    tag_51:\n      dup2\n      sload\n      dup2\n      mstore\n      swap1\n      0x01\n      add\n      swap1\n      0x20\n      add\n      dup1\n      dup4\n      gt\n      tag_51\n      jumpi\n      dup3\n      swap1\n      sub\n      0x1f\n      and\n      dup3\n      add\n      swap2\n    tag_49:\n      pop\n      pop\n      pop\n      pop\n      pop\n      dup2\n      mstore\n      0x20\n      add\n      0x02\n      dup3\n      add\n      dup1\n      sload\n      tag_52\n      swap1\n      tag_34\n      jump\t// in\n    tag_52:\n      dup1\n      0x1f\n      add\n      0x20\n      dup1\n      swap2\n      div\n      mul\n      0x20\n      add\n      mload(0x40)\n      swap1\n      dup2\n      add\n      0x40\n      mstore\n      dup1\n      swap3\n      swap2\n      swap1\n      dup2\n      dup2\n      mstore\n      0x20\n      add\n      dup3\n      dup1\n      sload\n      tag_53\n      swap1\n      tag_34\n      jump\t// in\n    tag_53:\n      dup1\n      iszero\n      tag_54\n      jumpi\n      dup1\n      0x1f\n      lt\n      tag_55\n      jumpi\n      0x0100\n      dup1\n      dup4\n      sload\n      div\n      mul\n      dup4\n      mstore\n      swap2\n      0x20\n      add\n      swap2\n      jump(tag_54)\n    tag_55:\n      dup3\n      add\n      swap2\n      swap1\n      0x00\n      mstore\n      keccak256(0x00, 0x20)\n      swap1\n    tag_56:\n      dup2\n      sload\n      dup2\n      mstore\n      swap1\n      0x01\n      add\n      swap1\n      0x20\n      add\n      dup1\n      dup4\n      gt\n      tag_56\n      jumpi\n      dup3\n      swap1\n      sub\n      0x1f\n      and\n      dup3\n      add\n      swap2\n    tag_54:\n      pop\n      pop\n      pop\n      pop\n      pop\n      dup2\n      mstore\n      0x20\n      add\n      0x03\n      dup3\n      add\n      0x00\n      swap1\n      sload\n      swap1\n      0x0100\n      exp\n      swap1\n      div\n      0xff\n      and\n      iszero\n      iszero\n      iszero\n      iszero\n      dup2\n      mstore\n      pop\n      pop\n      swap1\n      pop\n        /* \"contracts/PetisiProfile.sol\":718:831  function getProfile(address _user) public view returns(UserProfile memory){... */\n      swap2\n      swap1\n      pop\n      jump\t// out\n        /* \"contracts/PetisiProfile.sol\":270:454  function setProfile(string memory _username, string memory _bio, string memory _imgProfile) public {... */\n    tag_22:\n        /* \"contracts/PetisiProfile.sol\":401:447  UserProfile(_username, _bio, _imgProfile,true) */\n      mload(0x40)\n      dup1\n      0x80\n      add\n      0x40\n      mstore\n      dup1\n        /* \"contracts/PetisiProfile.sol\":413:422  _username */\n      dup5\n        /* \"contracts/PetisiProfile.sol\":401:447  UserProfile(_username, _bio, _imgProfile,true) */\n      dup2\n      mstore\n      0x20\n      add\n        /* \"contracts/PetisiProfile.sol\":424:428  _bio */\n      dup4\n        /* \"contracts/PetisiProfile.sol\":401:447  UserProfile(_username, _bio, _imgProfile,true) */\n      dup2\n      mstore\n      0x20\n      add\n        /* \"contracts/PetisiProfile.sol\":430:441  _imgProfile */\n      dup3\n        /* \"contracts/PetisiProfile.sol\":401:447  UserProfile(_username, _bio, _imgProfile,true) */\n      dup2\n      mstore\n      0x20\n      add\n        /* \"contracts/PetisiProfile.sol\":442:446  true */\n      0x01\n        /* \"contracts/PetisiProfile.sol\":401:447  UserProfile(_username, _bio, _imgProfile,true) */\n      iszero\n      iszero\n      dup2\n      mstore\n      pop\n        /* \"contracts/PetisiProfile.sol\":379:386  profile */\n      0x00\n        /* \"contracts/PetisiProfile.sol\":379:398  profile[msg.sender] */\n      dup1\n        /* \"contracts/PetisiProfile.sol\":387:397  msg.sender */\n      caller\n        /* \"contracts/PetisiProfile.sol\":379:398  profile[msg.sender] */\n      0xffffffffffffffffffffffffffffffffffffffff\n      and\n      0xffffffffffffffffffffffffffffffffffffffff\n      and\n      dup2\n      mstore\n      0x20\n      add\n      swap1\n      dup2\n      mstore\n      0x20\n      add\n      0x00\n      keccak256\n        /* \"contracts/PetisiProfile.sol\":379:447  profile[msg.sender] = UserProfile(_username, _bio, _imgProfile,true) */\n      0x00\n      dup3\n      add\n      mload\n      dup2\n      0x00\n      add\n      swap1\n      dup2\n      tag_58\n      swap2\n      swap1\n      tag_59\n      jump\t// in\n    tag_58:\n      pop\n      0x20\n      dup3\n      add\n      mload\n      dup2\n      0x01\n      add\n      swap1\n      dup2\n      tag_60\n      swap2\n      swap1\n      tag_59\n      jump\t// in\n    tag_60:\n      pop\n      0x40\n      dup3\n      add\n      mload\n      dup2\n      0x02\n      add\n      swap1\n      dup2\n      tag_61\n      swap2\n      swap1\n      tag_59\n      jump\t// in\n    tag_61:\n      pop\n      0x60\n      dup3\n      add\n      mload\n      dup2\n      0x03\n      add\n      exp(0x0100, 0x00)\n      dup2\n      sload\n      dup2\n      0xff\n      mul\n      not\n      and\n      swap1\n      dup4\n      iszero\n      iszero\n      mul\n      or\n      swap1\n      sstore\n      pop\n      swap1\n      pop\n      pop\n        /* \"contracts/PetisiProfile.sol\":270:454  function setProfile(string memory _username, string memory _bio, string memory _imgProfile) public {... */\n      pop\n      pop\n      pop\n      jump\t// out\n        /* \"contracts/PetisiProfile.sol\":217:263  mapping(address => UserProfile) public profile */\n    tag_25:\n      mstore(0x20, 0x00)\n      dup1\n      0x00\n      mstore\n      keccak256(0x00, 0x40)\n      0x00\n      swap2\n      pop\n      swap1\n      pop\n      dup1\n      0x00\n      add\n      dup1\n      sload\n      tag_62\n      swap1\n      tag_34\n      jump\t// in\n    tag_62:\n      dup1\n      0x1f\n      add\n      0x20\n      dup1\n      swap2\n      div\n      mul\n      0x20\n      add\n      mload(0x40)\n      swap1\n      dup2\n      add\n      0x40\n      mstore\n      dup1\n      swap3\n      swap2\n      swap1\n      dup2\n      dup2\n      mstore\n      0x20\n      add\n      dup3\n      dup1\n      sload\n      tag_63\n      swap1\n      tag_34\n      jump\t// in\n    tag_63:\n      dup1\n      iszero\n      tag_64\n      jumpi\n      dup1\n      0x1f\n      lt\n      tag_65\n      jumpi\n      0x0100\n      dup1\n      dup4\n      sload\n      div\n      mul\n      dup4\n      mstore\n      swap2\n      0x20\n      add\n      swap2\n      jump(tag_64)\n    tag_65:\n      dup3\n      add\n      swap2\n      swap1\n      0x00\n      mstore\n      keccak256(0x00, 0x20)\n      swap1\n    tag_66:\n      dup2\n      sload\n      dup2\n      mstore\n      swap1\n      0x01\n      add\n      swap1\n      0x20\n      add\n      dup1\n      dup4\n      gt\n      tag_66\n      jumpi\n      dup3\n      swap1\n      sub\n      0x1f\n      and\n      dup3\n      add\n      swap2\n    tag_64:\n      pop\n      pop\n      pop\n      pop\n      pop\n      swap1\n      dup1\n      0x01\n      add\n      dup1\n      sload\n      tag_67\n      swap1\n      tag_34\n      jump\t// in\n    tag_67:\n      dup1\n      0x1f\n      add\n      0x20\n      dup1\n      swap2\n      div\n      mul\n      0x20\n      add\n      mload(0x40)\n      swap1\n      dup2\n      add\n      0x40\n      mstore\n      dup1\n      swap3\n      swap2\n      swap1\n      dup2\n      dup2\n      mstore\n      0x20\n      add\n      dup3\n      dup1\n      sload\n      tag_68\n      swap1\n      tag_34\n      jump\t// in\n    tag_68:\n      dup1\n      iszero\n      tag_69\n      jumpi\n      dup1\n      0x1f\n      lt\n      tag_70\n      jumpi\n      0x0100\n      dup1\n      dup4\n      sload\n      div\n      mul\n      dup4\n      mstore\n      swap2\n      0x20\n      add\n      swap2\n      jump(tag_69)\n    tag_70:\n      dup3\n      add\n      swap2\n      swap1\n      0x00\n      mstore\n      keccak256(0x00, 0x20)\n      swap1\n    tag_71:\n      dup2\n      sload\n      dup2\n      mstore\n      swap1\n      0x01\n      add\n      swap1\n      0x20\n      add\n      dup1\n      dup4\n      gt\n      tag_71\n      jumpi\n      dup3\n      swap1\n      sub\n      0x1f\n      and\n      dup3\n      add\n      swap2\n    tag_69:\n      pop\n      pop\n      pop\n      pop\n      pop\n      swap1\n      dup1\n      0x02\n      add\n      dup1\n      sload\n      tag_72\n      swap1\n      tag_34\n      jump\t// in\n    tag_72:\n      dup1\n      0x1f\n      add\n      0x20\n      dup1\n      swap2\n      div\n      mul\n      0x20\n      add\n      mload(0x40)\n      swap1\n      dup2\n      add\n      0x40\n      mstore\n      dup1\n      swap3\n      swap2\n      swap1\n      dup2\n      dup2\n      mstore\n      0x20\n      add\n      dup3\n      dup1\n      sload\n      tag_73\n      swap1\n      tag_34\n      jump\t// in\n    tag_73:\n      dup1\n      iszero\n      tag_74\n      jumpi\n      dup1\n      0x1f\n      lt\n      tag_75\n      jumpi\n      0x0100\n      dup1\n      dup4\n      sload\n      div\n      mul\n      dup4\n      mstore\n      swap2\n      0x20\n      add\n      swap2\n      jump(tag_74)\n    tag_75:\n      dup3\n      add\n      swap2\n      swap1\n      0x00\n      mstore\n      keccak256(0x00, 0x20)\n      swap1\n    tag_76:\n      dup2\n      sload\n      dup2\n      mstore\n      swap1\n      0x01\n      add\n      swap1\n      0x20\n      add\n      dup1\n      dup4\n      gt\n      tag_76\n      jumpi\n      dup3\n      swap1\n      sub\n      0x1f\n      and\n      dup3\n      add\n      swap2\n    tag_74:\n      pop\n      pop\n      pop\n      pop\n      pop\n      swap1\n      dup1\n      0x03\n      add\n      0x00\n      swap1\n      sload\n      swap1\n      0x0100\n      exp\n      swap1\n      div\n      0xff\n      and\n      swap1\n      pop\n      dup5\n      jump\t// out\n        /* \"contracts/PetisiProfile.sol\":459:581  function getImgProfile(address _user) public  view returns(string memory){... */\n    tag_30:\n        /* \"contracts/PetisiProfile.sol\":518:531  string memory */\n      0x60\n        /* \"contracts/PetisiProfile.sol\":549:556  profile */\n      0x00\n        /* \"contracts/PetisiProfile.sol\":549:563  profile[_user] */\n      dup1\n        /* \"contracts/PetisiProfile.sol\":557:562  _user */\n      dup4\n        /* \"contracts/PetisiProfile.sol\":549:563  profile[_user] */\n      0xffffffffffffffffffffffffffffffffffffffff\n      and\n      0xffffffffffffffffffffffffffffffffffffffff\n      and\n      dup2\n      mstore\n      0x20\n      add\n      swap1\n      dup2\n      mstore\n      0x20\n      add\n      0x00\n      keccak256\n        /* \"contracts/PetisiProfile.sol\":549:574  profile[_user].imgProfile */\n      0x02\n      add\n        /* \"contracts/PetisiProfile.sol\":542:574  return profile[_user].imgProfile */\n      dup1\n      sload\n      tag_78\n      swap1\n      tag_34\n      jump\t// in\n    tag_78:\n      dup1\n      0x1f\n      add\n      0x20\n      dup1\n      swap2\n      div\n      mul\n      0x20\n      add\n      mload(0x40)\n      swap1\n      dup2\n      add\n      0x40\n      mstore\n      dup1\n      swap3\n      swap2\n      swap1\n      dup2\n      dup2\n      mstore\n      0x20\n      add\n      dup3\n      dup1\n      sload\n      tag_79\n      swap1\n      tag_34\n      jump\t// in\n    tag_79:\n      dup1\n      iszero\n      tag_80\n      jumpi\n      dup1\n      0x1f\n      lt\n      tag_81\n      jumpi\n      0x0100\n      dup1\n      dup4\n      sload\n      div\n      mul\n      dup4\n      mstore\n      swap2\n      0x20\n      add\n      swap2\n      jump(tag_80)\n    tag_81:\n      dup3\n      add\n      swap2\n      swap1\n      0x00\n      mstore\n      keccak256(0x00, 0x20)\n      swap1\n    tag_82:\n      dup2\n      sload\n      dup2\n      mstore\n      swap1\n      0x01\n      add\n      swap1\n      0x20\n      add\n      dup1\n      dup4\n      gt\n      tag_82\n      jumpi\n      dup3\n      swap1\n      sub\n      0x1f\n      and\n      dup3\n      add\n      swap2\n    tag_80:\n      pop\n      pop\n      pop\n      pop\n      pop\n      swap1\n      pop\n        /* \"contracts/PetisiProfile.sol\":459:581  function getImgProfile(address _user) public  view returns(string memory){... */\n      swap2\n      swap1\n      pop\n      jump\t// out\n    tag_40:\n      mload(0x40)\n      dup1\n      0x80\n      add\n      0x40\n      mstore\n      dup1\n      0x60\n      dup2\n      mstore\n      0x20\n      add\n      0x60\n      dup2\n      mstore\n      0x20\n      add\n      0x60\n      dup2\n      mstore\n      0x20\n      add\n      iszero(iszero(0x00))\n      dup2\n      mstore\n      pop\n      swap1\n      jump\t// out\n        /* \"#utility.yul\":7:82   */\n    tag_83:\n        /* \"#utility.yul\":40:46   */\n      0x00\n        /* \"#utility.yul\":73:75   */\n      0x40\n        /* \"#utility.yul\":67:76   */\n      mload\n        /* \"#utility.yul\":57:76   */\n      swap1\n      pop\n        /* \"#utility.yul\":7:82   */\n      swap1\n      jump\t// out\n        /* \"#utility.yul\":88:205   */\n    tag_84:\n        /* \"#utility.yul\":197:198   */\n      0x00\n        /* \"#utility.yul\":194:195   */\n      dup1\n        /* \"#utility.yul\":187:199   */\n      revert\n        /* \"#utility.yul\":211:328   */\n    tag_85:\n        /* \"#utility.yul\":320:321   */\n      0x00\n        /* \"#utility.yul\":317:318   */\n      dup1\n        /* \"#utility.yul\":310:322   */\n      revert\n        /* \"#utility.yul\":334:460   */\n    tag_86:\n        /* \"#utility.yul\":371:378   */\n      0x00\n        /* \"#utility.yul\":411:453   */\n      0xffffffffffffffffffffffffffffffffffffffff\n        /* \"#utility.yul\":404:409   */\n      dup3\n        /* \"#utility.yul\":400:454   */\n      and\n        /* \"#utility.yul\":389:454   */\n      swap1\n      pop\n        /* \"#utility.yul\":334:460   */\n      swap2\n      swap1\n      pop\n      jump\t// out\n        /* \"#utility.yul\":466:562   */\n    tag_87:\n        /* \"#utility.yul\":503:510   */\n      0x00\n        /* \"#utility.yul\":532:556   */\n      tag_133\n        /* \"#utility.yul\":550:555   */\n      dup3\n        /* \"#utility.yul\":532:556   */\n      tag_86\n      jump\t// in\n    tag_133:\n        /* \"#utility.yul\":521:556   */\n      swap1\n      pop\n        /* \"#utility.yul\":466:562   */\n      swap2\n      swap1\n      pop\n      jump\t// out\n        /* \"#utility.yul\":568:690   */\n    tag_88:\n        /* \"#utility.yul\":641:665   */\n      tag_135\n        /* \"#utility.yul\":659:664   */\n      dup2\n        /* \"#utility.yul\":641:665   */\n      tag_87\n      jump\t// in\n    tag_135:\n        /* \"#utility.yul\":634:639   */\n      dup2\n        /* \"#utility.yul\":631:666   */\n      eq\n        /* \"#utility.yul\":621:684   */\n      tag_136\n      jumpi\n        /* \"#utility.yul\":680:681   */\n      0x00\n        /* \"#utility.yul\":677:678   */\n      dup1\n        /* \"#utility.yul\":670:682   */\n      revert\n        /* \"#utility.yul\":621:684   */\n    tag_136:\n        /* \"#utility.yul\":568:690   */\n      pop\n      jump\t// out\n        /* \"#utility.yul\":696:835   */\n    tag_89:\n        /* \"#utility.yul\":742:747   */\n      0x00\n        /* \"#utility.yul\":780:786   */\n      dup2\n        /* \"#utility.yul\":767:787   */\n      calldataload\n        /* \"#utility.yul\":758:787   */\n      swap1\n      pop\n        /* \"#utility.yul\":796:829   */\n      tag_138\n        /* \"#utility.yul\":823:828   */\n      dup2\n        /* \"#utility.yul\":796:829   */\n      tag_88\n      jump\t// in\n    tag_138:\n        /* \"#utility.yul\":696:835   */\n      swap3\n      swap2\n      pop\n      pop\n      jump\t// out\n        /* \"#utility.yul\":841:1170   */\n    tag_10:\n        /* \"#utility.yul\":900:906   */\n      0x00\n        /* \"#utility.yul\":949:951   */\n      0x20\n        /* \"#utility.yul\":937:946   */\n      dup3\n        /* \"#utility.yul\":928:935   */\n      dup5\n        /* \"#utility.yul\":924:947   */\n      sub\n        /* \"#utility.yul\":920:952   */\n      slt\n        /* \"#utility.yul\":917:1036   */\n      iszero\n      tag_140\n      jumpi\n        /* \"#utility.yul\":955:1034   */\n      tag_141\n      tag_84\n      jump\t// in\n    tag_141:\n        /* \"#utility.yul\":917:1036   */\n    tag_140:\n        /* \"#utility.yul\":1075:1076   */\n      0x00\n        /* \"#utility.yul\":1100:1153   */\n      tag_142\n        /* \"#utility.yul\":1145:1152   */\n      dup5\n        /* \"#utility.yul\":1136:1142   */\n      dup3\n        /* \"#utility.yul\":1125:1134   */\n      dup6\n        /* \"#utility.yul\":1121:1143   */\n      add\n        /* \"#utility.yul\":1100:1153   */\n      tag_89\n      jump\t// in\n    tag_142:\n        /* \"#utility.yul\":1090:1153   */\n      swap2\n      pop\n        /* \"#utility.yul\":1046:1163   */\n      pop\n        /* \"#utility.yul\":841:1170   */\n      swap3\n      swap2\n      pop\n      pop\n      jump\t// out\n        /* \"#utility.yul\":1176:1275   */\n    tag_90:\n        /* \"#utility.yul\":1228:1234   */\n      0x00\n        /* \"#utility.yul\":1262:1267   */\n      dup2\n        /* \"#utility.yul\":1256:1268   */\n      mload\n        /* \"#utility.yul\":1246:1268   */\n      swap1\n      pop\n        /* \"#utility.yul\":1176:1275   */\n      swap2\n      swap1\n      pop\n      jump\t// out\n        /* \"#utility.yul\":1281:1450   */\n    tag_91:\n        /* \"#utility.yul\":1365:1376   */\n      0x00\n        /* \"#utility.yul\":1399:1405   */\n      dup3\n        /* \"#utility.yul\":1394:1397   */\n      dup3\n        /* \"#utility.yul\":1387:1406   */\n      mstore\n        /* \"#utility.yul\":1439:1443   */\n      0x20\n        /* \"#utility.yul\":1434:1437   */\n      dup3\n        /* \"#utility.yul\":1430:1444   */\n      add\n        /* \"#utility.yul\":1415:1444   */\n      swap1\n      pop\n        /* \"#utility.yul\":1281:1450   */\n      swap3\n      swap2\n      pop\n      pop\n      jump\t// out\n        /* \"#utility.yul\":1456:1595   */\n    tag_92:\n        /* \"#utility.yul\":1545:1551   */\n      dup3\n        /* \"#utility.yul\":1540:1543   */\n      dup2\n        /* \"#utility.yul\":1535:1538   */\n      dup4\n        /* \"#utility.yul\":1529:1552   */\n      mcopy\n        /* \"#utility.yul\":1586:1587   */\n      0x00\n        /* \"#utility.yul\":1577:1583   */\n      dup4\n        /* \"#utility.yul\":1572:1575   */\n      dup4\n        /* \"#utility.yul\":1568:1584   */\n      add\n        /* \"#utility.yul\":1561:1588   */\n      mstore\n        /* \"#utility.yul\":1456:1595   */\n      pop\n      pop\n      pop\n      jump\t// out\n        /* \"#utility.yul\":1601:1703   */\n    tag_93:\n        /* \"#utility.yul\":1642:1648   */\n      0x00\n        /* \"#utility.yul\":1693:1695   */\n      0x1f\n        /* \"#utility.yul\":1689:1696   */\n      not\n        /* \"#utility.yul\":1684:1686   */\n      0x1f\n        /* \"#utility.yul\":1677:1682   */\n      dup4\n        /* \"#utility.yul\":1673:1687   */\n      add\n        /* \"#utility.yul\":1669:1697   */\n      and\n        /* \"#utility.yul\":1659:1697   */\n      swap1\n      pop\n        /* \"#utility.yul\":1601:1703   */\n      swap2\n      swap1\n      pop\n      jump\t// out\n        /* \"#utility.yul\":1709:2086   */\n    tag_94:\n        /* \"#utility.yul\":1797:1800   */\n      0x00\n        /* \"#utility.yul\":1825:1864   */\n      tag_148\n        /* \"#utility.yul\":1858:1863   */\n      dup3\n        /* \"#utility.yul\":1825:1864   */\n      tag_90\n      jump\t// in\n    tag_148:\n        /* \"#utility.yul\":1880:1951   */\n      tag_149\n        /* \"#utility.yul\":1944:1950   */\n      dup2\n        /* \"#utility.yul\":1939:1942   */\n      dup6\n        /* \"#utility.yul\":1880:1951   */\n      tag_91\n      jump\t// in\n    tag_149:\n        /* \"#utility.yul\":1873:1951   */\n      swap4\n      pop\n        /* \"#utility.yul\":1960:2025   */\n      tag_150\n        /* \"#utility.yul\":2018:2024   */\n      dup2\n        /* \"#utility.yul\":2013:2016   */\n      dup6\n        /* \"#utility.yul\":2006:2010   */\n      0x20\n        /* \"#utility.yul\":1999:2004   */\n      dup7\n        /* \"#utility.yul\":1995:2011   */\n      add\n        /* \"#utility.yul\":1960:2025   */\n      tag_92\n      jump\t// in\n    tag_150:\n        /* \"#utility.yul\":2050:2079   */\n      tag_151\n        /* \"#utility.yul\":2072:2078   */\n      dup2\n        /* \"#utility.yul\":2050:2079   */\n      tag_93\n      jump\t// in\n    tag_151:\n        /* \"#utility.yul\":2045:2048   */\n      dup5\n        /* \"#utility.yul\":2041:2080   */\n      add\n        /* \"#utility.yul\":2034:2080   */\n      swap2\n      pop\n        /* \"#utility.yul\":1801:2086   */\n      pop\n        /* \"#utility.yul\":1709:2086   */\n      swap3\n      swap2\n      pop\n      pop\n      jump\t// out\n        /* \"#utility.yul\":2092:2405   */\n    tag_13:\n        /* \"#utility.yul\":2205:2209   */\n      0x00\n        /* \"#utility.yul\":2243:2245   */\n      0x20\n        /* \"#utility.yul\":2232:2241   */\n      dup3\n        /* \"#utility.yul\":2228:2246   */\n      add\n        /* \"#utility.yul\":2220:2246   */\n      swap1\n      pop\n        /* \"#utility.yul\":2292:2301   */\n      dup2\n        /* \"#utility.yul\":2286:2290   */\n      dup2\n        /* \"#utility.yul\":2282:2302   */\n      sub\n        /* \"#utility.yul\":2278:2279   */\n      0x00\n        /* \"#utility.yul\":2267:2276   */\n      dup4\n        /* \"#utility.yul\":2263:2280   */\n      add\n        /* \"#utility.yul\":2256:2303   */\n      mstore\n        /* \"#utility.yul\":2320:2398   */\n      tag_153\n        /* \"#utility.yul\":2393:2397   */\n      dup2\n        /* \"#utility.yul\":2384:2390   */\n      dup5\n        /* \"#utility.yul\":2320:2398   */\n      tag_94\n      jump\t// in\n    tag_153:\n        /* \"#utility.yul\":2312:2398   */\n      swap1\n      pop\n        /* \"#utility.yul\":2092:2405   */\n      swap3\n      swap2\n      pop\n      pop\n      jump\t// out\n        /* \"#utility.yul\":2411:2570   */\n    tag_95:\n        /* \"#utility.yul\":2485:2496   */\n      0x00\n        /* \"#utility.yul\":2519:2525   */\n      dup3\n        /* \"#utility.yul\":2514:2517   */\n      dup3\n        /* \"#utility.yul\":2507:2526   */\n      mstore\n        /* \"#utility.yul\":2559:2563   */\n      0x20\n        /* \"#utility.yul\":2554:2557   */\n      dup3\n        /* \"#utility.yul\":2550:2564   */\n      add\n        /* \"#utility.yul\":2535:2564   */\n      swap1\n      pop\n        /* \"#utility.yul\":2411:2570   */\n      swap3\n      swap2\n      pop\n      pop\n      jump\t// out\n        /* \"#utility.yul\":2576:2933   */\n    tag_96:\n        /* \"#utility.yul\":2654:2657   */\n      0x00\n        /* \"#utility.yul\":2682:2721   */\n      tag_156\n        /* \"#utility.yul\":2715:2720   */\n      dup3\n        /* \"#utility.yul\":2682:2721   */\n      tag_90\n      jump\t// in\n    tag_156:\n        /* \"#utility.yul\":2737:2798   */\n      tag_157\n        /* \"#utility.yul\":2791:2797   */\n      dup2\n        /* \"#utility.yul\":2786:2789   */\n      dup6\n        /* \"#utility.yul\":2737:2798   */\n      tag_95\n      jump\t// in\n    tag_157:\n        /* \"#utility.yul\":2730:2798   */\n      swap4\n      pop\n        /* \"#utility.yul\":2807:2872   */\n      tag_158\n        /* \"#utility.yul\":2865:2871   */\n      dup2\n        /* \"#utility.yul\":2860:2863   */\n      dup6\n        /* \"#utility.yul\":2853:2857   */\n      0x20\n        /* \"#utility.yul\":2846:2851   */\n      dup7\n        /* \"#utility.yul\":2842:2858   */\n      add\n        /* \"#utility.yul\":2807:2872   */\n      tag_92\n      jump\t// in\n    tag_158:\n        /* \"#utility.yul\":2897:2926   */\n      tag_159\n        /* \"#utility.yul\":2919:2925   */\n      dup2\n        /* \"#utility.yul\":2897:2926   */\n      tag_93\n      jump\t// in\n    tag_159:\n        /* \"#utility.yul\":2892:2895   */\n      dup5\n        /* \"#utility.yul\":2888:2927   */\n      add\n        /* \"#utility.yul\":2881:2927   */\n      swap2\n      pop\n        /* \"#utility.yul\":2658:2933   */\n      pop\n        /* \"#utility.yul\":2576:2933   */\n      swap3\n      swap2\n      pop\n      pop\n      jump\t// out\n        /* \"#utility.yul\":2939:3029   */\n    tag_97:\n        /* \"#utility.yul\":2973:2980   */\n      0x00\n        /* \"#utility.yul\":3016:3021   */\n      dup2\n        /* \"#utility.yul\":3009:3022   */\n      iszero\n        /* \"#utility.yul\":3002:3023   */\n      iszero\n        /* \"#utility.yul\":2991:3023   */\n      swap1\n      pop\n        /* \"#utility.yul\":2939:3029   */\n      swap2\n      swap1\n      pop\n      jump\t// out\n        /* \"#utility.yul\":3035:3134   */\n    tag_98:\n        /* \"#utility.yul\":3106:3127   */\n      tag_162\n        /* \"#utility.yul\":3121:3126   */\n      dup2\n        /* \"#utility.yul\":3106:3127   */\n      tag_97\n      jump\t// in\n    tag_162:\n        /* \"#utility.yul\":3101:3104   */\n      dup3\n        /* \"#utility.yul\":3094:3128   */\n      mstore\n        /* \"#utility.yul\":3035:3134   */\n      pop\n      pop\n      jump\t// out\n        /* \"#utility.yul\":3216:4327   */\n    tag_99:\n        /* \"#utility.yul\":3339:3342   */\n      0x00\n        /* \"#utility.yul\":3375:3379   */\n      0x80\n        /* \"#utility.yul\":3370:3373   */\n      dup4\n        /* \"#utility.yul\":3366:3380   */\n      add\n        /* \"#utility.yul\":3466:3470   */\n      0x00\n        /* \"#utility.yul\":3459:3464   */\n      dup4\n        /* \"#utility.yul\":3455:3471   */\n      add\n        /* \"#utility.yul\":3449:3472   */\n      mload\n        /* \"#utility.yul\":3519:3522   */\n      dup5\n        /* \"#utility.yul\":3513:3517   */\n      dup3\n        /* \"#utility.yul\":3509:3523   */\n      sub\n        /* \"#utility.yul\":3502:3506   */\n      0x00\n        /* \"#utility.yul\":3497:3500   */\n      dup7\n        /* \"#utility.yul\":3493:3507   */\n      add\n        /* \"#utility.yul\":3486:3524   */\n      mstore\n        /* \"#utility.yul\":3545:3618   */\n      tag_164\n        /* \"#utility.yul\":3613:3617   */\n      dup3\n        /* \"#utility.yul\":3599:3611   */\n      dup3\n        /* \"#utility.yul\":3545:3618   */\n      tag_96\n      jump\t// in\n    tag_164:\n        /* \"#utility.yul\":3537:3618   */\n      swap2\n      pop\n        /* \"#utility.yul\":3390:3629   */\n      pop\n        /* \"#utility.yul\":3710:3714   */\n      0x20\n        /* \"#utility.yul\":3703:3708   */\n      dup4\n        /* \"#utility.yul\":3699:3715   */\n      add\n        /* \"#utility.yul\":3693:3716   */\n      mload\n        /* \"#utility.yul\":3763:3766   */\n      dup5\n        /* \"#utility.yul\":3757:3761   */\n      dup3\n        /* \"#utility.yul\":3753:3767   */\n      sub\n        /* \"#utility.yul\":3746:3750   */\n      0x20\n        /* \"#utility.yul\":3741:3744   */\n      dup7\n        /* \"#utility.yul\":3737:3751   */\n      add\n        /* \"#utility.yul\":3730:3768   */\n      mstore\n        /* \"#utility.yul\":3789:3862   */\n      tag_165\n        /* \"#utility.yul\":3857:3861   */\n      dup3\n        /* \"#utility.yul\":3843:3855   */\n      dup3\n        /* \"#utility.yul\":3789:3862   */\n      tag_96\n      jump\t// in\n    tag_165:\n        /* \"#utility.yul\":3781:3862   */\n      swap2\n      pop\n        /* \"#utility.yul\":3639:3873   */\n      pop\n        /* \"#utility.yul\":3961:3965   */\n      0x40\n        /* \"#utility.yul\":3954:3959   */\n      dup4\n        /* \"#utility.yul\":3950:3966   */\n      add\n        /* \"#utility.yul\":3944:3967   */\n      mload\n        /* \"#utility.yul\":4014:4017   */\n      dup5\n        /* \"#utility.yul\":4008:4012   */\n      dup3\n        /* \"#utility.yul\":4004:4018   */\n      sub\n        /* \"#utility.yul\":3997:4001   */\n      0x40\n        /* \"#utility.yul\":3992:3995   */\n      dup7\n        /* \"#utility.yul\":3988:4002   */\n      add\n        /* \"#utility.yul\":3981:4019   */\n      mstore\n        /* \"#utility.yul\":4040:4113   */\n      tag_166\n        /* \"#utility.yul\":4108:4112   */\n      dup3\n        /* \"#utility.yul\":4094:4106   */\n      dup3\n        /* \"#utility.yul\":4040:4113   */\n      tag_96\n      jump\t// in\n    tag_166:\n        /* \"#utility.yul\":4032:4113   */\n      swap2\n      pop\n        /* \"#utility.yul\":3883:4124   */\n      pop\n        /* \"#utility.yul\":4214:4218   */\n      0x60\n        /* \"#utility.yul\":4207:4212   */\n      dup4\n        /* \"#utility.yul\":4203:4219   */\n      add\n        /* \"#utility.yul\":4197:4220   */\n      mload\n        /* \"#utility.yul\":4233:4290   */\n      tag_167\n        /* \"#utility.yul\":4284:4288   */\n      0x60\n        /* \"#utility.yul\":4279:4282   */\n      dup7\n        /* \"#utility.yul\":4275:4289   */\n      add\n        /* \"#utility.yul\":4261:4273   */\n      dup3\n        /* \"#utility.yul\":4233:4290   */\n      tag_98\n      jump\t// in\n    tag_167:\n        /* \"#utility.yul\":4134:4300   */\n      pop\n        /* \"#utility.yul\":4317:4321   */\n      dup1\n        /* \"#utility.yul\":4310:4321   */\n      swap2\n      pop\n        /* \"#utility.yul\":3344:4327   */\n      pop\n        /* \"#utility.yul\":3216:4327   */\n      swap3\n      swap2\n      pop\n      pop\n      jump\t// out\n        /* \"#utility.yul\":4333:4714   */\n    tag_18:\n        /* \"#utility.yul\":4480:4484   */\n      0x00\n        /* \"#utility.yul\":4518:4520   */\n      0x20\n        /* \"#utility.yul\":4507:4516   */\n      dup3\n        /* \"#utility.yul\":4503:4521   */\n      add\n        /* \"#utility.yul\":4495:4521   */\n      swap1\n      pop\n        /* \"#utility.yul\":4567:4576   */\n      dup2\n        /* \"#utility.yul\":4561:4565   */\n      dup2\n        /* \"#utility.yul\":4557:4577   */\n      sub\n        /* \"#utility.yul\":4553:4554   */\n      0x00\n        /* \"#utility.yul\":4542:4551   */\n      dup4\n        /* \"#utility.yul\":4538:4555   */\n      add\n        /* \"#utility.yul\":4531:4578   */\n      mstore\n        /* \"#utility.yul\":4595:4707   */\n      tag_169\n        /* \"#utility.yul\":4702:4706   */\n      dup2\n        /* \"#utility.yul\":4693:4699   */\n      dup5\n        /* \"#utility.yul\":4595:4707   */\n      tag_99\n      jump\t// in\n    tag_169:\n        /* \"#utility.yul\":4587:4707   */\n      swap1\n      pop\n        /* \"#utility.yul\":4333:4714   */\n      swap3\n      swap2\n      pop\n      pop\n      jump\t// out\n        /* \"#utility.yul\":4720:4837   */\n    tag_100:\n        /* \"#utility.yul\":4829:4830   */\n      0x00\n        /* \"#utility.yul\":4826:4827   */\n      dup1\n        /* \"#utility.yul\":4819:4831   */\n      revert\n        /* \"#utility.yul\":4843:4960   */\n    tag_101:\n        /* \"#utility.yul\":4952:4953   */\n      0x00\n        /* \"#utility.yul\":4949:4950   */\n      dup1\n        /* \"#utility.yul\":4942:4954   */\n      revert\n        /* \"#utility.yul\":4966:5146   */\n    tag_102:\n        /* \"#utility.yul\":5014:5091   */\n      0x4e487b7100000000000000000000000000000000000000000000000000000000\n        /* \"#utility.yul\":5011:5012   */\n      0x00\n        /* \"#utility.yul\":5004:5092   */\n      mstore\n        /* \"#utility.yul\":5111:5115   */\n      0x41\n        /* \"#utility.yul\":5108:5109   */\n      0x04\n        /* \"#utility.yul\":5101:5116   */\n      mstore\n        /* \"#utility.yul\":5135:5139   */\n      0x24\n        /* \"#utility.yul\":5132:5133   */\n      0x00\n        /* \"#utility.yul\":5125:5140   */\n      revert\n        /* \"#utility.yul\":5152:5433   */\n    tag_103:\n        /* \"#utility.yul\":5235:5262   */\n      tag_174\n        /* \"#utility.yul\":5257:5261   */\n      dup3\n        /* \"#utility.yul\":5235:5262   */\n      tag_93\n      jump\t// in\n    tag_174:\n        /* \"#utility.yul\":5227:5233   */\n      dup2\n        /* \"#utility.yul\":5223:5263   */\n      add\n        /* \"#utility.yul\":5365:5371   */\n      dup2\n        /* \"#utility.yul\":5353:5363   */\n      dup2\n        /* \"#utility.yul\":5350:5372   */\n      lt\n        /* \"#utility.yul\":5329:5347   */\n      0xffffffffffffffff\n        /* \"#utility.yul\":5317:5327   */\n      dup3\n        /* \"#utility.yul\":5314:5348   */\n      gt\n        /* \"#utility.yul\":5311:5373   */\n      or\n        /* \"#utility.yul\":5308:5396   */\n      iszero\n      tag_175\n      jumpi\n        /* \"#utility.yul\":5376:5394   */\n      tag_176\n      tag_102\n      jump\t// in\n    tag_176:\n        /* \"#utility.yul\":5308:5396   */\n    tag_175:\n        /* \"#utility.yul\":5416:5426   */\n      dup1\n        /* \"#utility.yul\":5412:5414   */\n      0x40\n        /* \"#utility.yul\":5405:5427   */\n      mstore\n        /* \"#utility.yul\":5195:5433   */\n      pop\n        /* \"#utility.yul\":5152:5433   */\n      pop\n      pop\n      jump\t// out\n        /* \"#utility.yul\":5439:5568   */\n    tag_104:\n        /* \"#utility.yul\":5473:5479   */\n      0x00\n        /* \"#utility.yul\":5500:5520   */\n      tag_178\n      tag_83\n      jump\t// in\n    tag_178:\n        /* \"#utility.yul\":5490:5520   */\n      swap1\n      pop\n        /* \"#utility.yul\":5529:5562   */\n      tag_179\n        /* \"#utility.yul\":5557:5561   */\n      dup3\n        /* \"#utility.yul\":5549:5555   */\n      dup3\n        /* \"#utility.yul\":5529:5562   */\n      tag_103\n      jump\t// in\n    tag_179:\n        /* \"#utility.yul\":5439:5568   */\n      swap2\n      swap1\n      pop\n      jump\t// out\n        /* \"#utility.yul\":5574:5882   */\n    tag_105:\n        /* \"#utility.yul\":5636:5640   */\n      0x00\n        /* \"#utility.yul\":5726:5744   */\n      0xffffffffffffffff\n        /* \"#utility.yul\":5718:5724   */\n      dup3\n        /* \"#utility.yul\":5715:5745   */\n      gt\n        /* \"#utility.yul\":5712:5768   */\n      iszero\n      tag_181\n      jumpi\n        /* \"#utility.yul\":5748:5766   */\n      tag_182\n      tag_102\n      jump\t// in\n    tag_182:\n        /* \"#utility.yul\":5712:5768   */\n    tag_181:\n        /* \"#utility.yul\":5786:5815   */\n      tag_183\n        /* \"#utility.yul\":5808:5814   */\n      dup3\n        /* \"#utility.yul\":5786:5815   */\n      tag_93\n      jump\t// in\n    tag_183:\n        /* \"#utility.yul\":5778:5815   */\n      swap1\n      pop\n        /* \"#utility.yul\":5870:5874   */\n      0x20\n        /* \"#utility.yul\":5864:5868   */\n      dup2\n        /* \"#utility.yul\":5860:5875   */\n      add\n        /* \"#utility.yul\":5852:5875   */\n      swap1\n      pop\n        /* \"#utility.yul\":5574:5882   */\n      swap2\n      swap1\n      pop\n      jump\t// out\n        /* \"#utility.yul\":5888:6036   */\n    tag_106:\n        /* \"#utility.yul\":5986:5992   */\n      dup3\n        /* \"#utility.yul\":5981:5984   */\n      dup2\n        /* \"#utility.yul\":5976:5979   */\n      dup4\n        /* \"#utility.yul\":5963:5993   */\n      calldatacopy\n        /* \"#utility.yul\":6027:6028   */\n      0x00\n        /* \"#utility.yul\":6018:6024   */\n      dup4\n        /* \"#utility.yul\":6013:6016   */\n      dup4\n        /* \"#utility.yul\":6009:6025   */\n      add\n        /* \"#utility.yul\":6002:6029   */\n      mstore\n        /* \"#utility.yul\":5888:6036   */\n      pop\n      pop\n      pop\n      jump\t// out\n        /* \"#utility.yul\":6042:6467   */\n    tag_107:\n        /* \"#utility.yul\":6120:6125   */\n      0x00\n        /* \"#utility.yul\":6145:6211   */\n      tag_186\n        /* \"#utility.yul\":6161:6210   */\n      tag_187\n        /* \"#utility.yul\":6203:6209   */\n      dup5\n        /* \"#utility.yul\":6161:6210   */\n      tag_105\n      jump\t// in\n    tag_187:\n        /* \"#utility.yul\":6145:6211   */\n      tag_104\n      jump\t// in\n    tag_186:\n        /* \"#utility.yul\":6136:6211   */\n      swap1\n      pop\n        /* \"#utility.yul\":6234:6240   */\n      dup3\n        /* \"#utility.yul\":6227:6232   */\n      dup2\n        /* \"#utility.yul\":6220:6241   */\n      mstore\n        /* \"#utility.yul\":6272:6276   */\n      0x20\n        /* \"#utility.yul\":6265:6270   */\n      dup2\n        /* \"#utility.yul\":6261:6277   */\n      add\n        /* \"#utility.yul\":6310:6313   */\n      dup5\n        /* \"#utility.yul\":6301:6307   */\n      dup5\n        /* \"#utility.yul\":6296:6299   */\n      dup5\n        /* \"#utility.yul\":6292:6308   */\n      add\n        /* \"#utility.yul\":6289:6314   */\n      gt\n        /* \"#utility.yul\":6286:6398   */\n      iszero\n      tag_188\n      jumpi\n        /* \"#utility.yul\":6317:6396   */\n      tag_189\n      tag_101\n      jump\t// in\n    tag_189:\n        /* \"#utility.yul\":6286:6398   */\n    tag_188:\n        /* \"#utility.yul\":6407:6461   */\n      tag_190\n        /* \"#utility.yul\":6454:6460   */\n      dup5\n        /* \"#utility.yul\":6449:6452   */\n      dup3\n        /* \"#utility.yul\":6444:6447   */\n      dup6\n        /* \"#utility.yul\":6407:6461   */\n      tag_106\n      jump\t// in\n    tag_190:\n        /* \"#utility.yul\":6126:6467   */\n      pop\n        /* \"#utility.yul\":6042:6467   */\n      swap4\n      swap3\n      pop\n      pop\n      pop\n      jump\t// out\n        /* \"#utility.yul\":6487:6827   */\n    tag_108:\n        /* \"#utility.yul\":6543:6548   */\n      0x00\n        /* \"#utility.yul\":6592:6595   */\n      dup3\n        /* \"#utility.yul\":6585:6589   */\n      0x1f\n        /* \"#utility.yul\":6577:6583   */\n      dup4\n        /* \"#utility.yul\":6573:6590   */\n      add\n        /* \"#utility.yul\":6569:6596   */\n      slt\n        /* \"#utility.yul\":6559:6681   */\n      tag_192\n      jumpi\n        /* \"#utility.yul\":6600:6679   */\n      tag_193\n      tag_100\n      jump\t// in\n    tag_193:\n        /* \"#utility.yul\":6559:6681   */\n    tag_192:\n        /* \"#utility.yul\":6717:6723   */\n      dup2\n        /* \"#utility.yul\":6704:6724   */\n      calldataload\n        /* \"#utility.yul\":6742:6821   */\n      tag_194\n        /* \"#utility.yul\":6817:6820   */\n      dup5\n        /* \"#utility.yul\":6809:6815   */\n      dup3\n        /* \"#utility.yul\":6802:6806   */\n      0x20\n        /* \"#utility.yul\":6794:6800   */\n      dup7\n        /* \"#utility.yul\":6790:6807   */\n      add\n        /* \"#utility.yul\":6742:6821   */\n      tag_107\n      jump\t// in\n    tag_194:\n        /* \"#utility.yul\":6733:6821   */\n      swap2\n      pop\n        /* \"#utility.yul\":6549:6827   */\n      pop\n        /* \"#utility.yul\":6487:6827   */\n      swap3\n      swap2\n      pop\n      pop\n      jump\t// out\n        /* \"#utility.yul\":6833:7992   */\n    tag_21:\n        /* \"#utility.yul\":6940:6946   */\n      0x00\n        /* \"#utility.yul\":6948:6954   */\n      dup1\n        /* \"#utility.yul\":6956:6962   */\n      0x00\n        /* \"#utility.yul\":7005:7007   */\n      0x60\n        /* \"#utility.yul\":6993:7002   */\n      dup5\n        /* \"#utility.yul\":6984:6991   */\n      dup7\n        /* \"#utility.yul\":6980:7003   */\n      sub\n        /* \"#utility.yul\":6976:7008   */\n      slt\n        /* \"#utility.yul\":6973:7092   */\n      iszero\n      tag_196\n      jumpi\n        /* \"#utility.yul\":7011:7090   */\n      tag_197\n      tag_84\n      jump\t// in\n    tag_197:\n        /* \"#utility.yul\":6973:7092   */\n    tag_196:\n        /* \"#utility.yul\":7159:7160   */\n      0x00\n        /* \"#utility.yul\":7148:7157   */\n      dup5\n        /* \"#utility.yul\":7144:7161   */\n      add\n        /* \"#utility.yul\":7131:7162   */\n      calldataload\n        /* \"#utility.yul\":7189:7207   */\n      0xffffffffffffffff\n        /* \"#utility.yul\":7181:7187   */\n      dup2\n        /* \"#utility.yul\":7178:7208   */\n      gt\n        /* \"#utility.yul\":7175:7292   */\n      iszero\n      tag_198\n      jumpi\n        /* \"#utility.yul\":7211:7290   */\n      tag_199\n      tag_85\n      jump\t// in\n    tag_199:\n        /* \"#utility.yul\":7175:7292   */\n    tag_198:\n        /* \"#utility.yul\":7316:7379   */\n      tag_200\n        /* \"#utility.yul\":7371:7378   */\n      dup7\n        /* \"#utility.yul\":7362:7368   */\n      dup3\n        /* \"#utility.yul\":7351:7360   */\n      dup8\n        /* \"#utility.yul\":7347:7369   */\n      add\n        /* \"#utility.yul\":7316:7379   */\n      tag_108\n      jump\t// in\n    tag_200:\n        /* \"#utility.yul\":7306:7379   */\n      swap4\n      pop\n        /* \"#utility.yul\":7102:7389   */\n      pop\n        /* \"#utility.yul\":7456:7458   */\n      0x20\n        /* \"#utility.yul\":7445:7454   */\n      dup5\n        /* \"#utility.yul\":7441:7459   */\n      add\n        /* \"#utility.yul\":7428:7460   */\n      calldataload\n        /* \"#utility.yul\":7487:7505   */\n      0xffffffffffffffff\n        /* \"#utility.yul\":7479:7485   */\n      dup2\n        /* \"#utility.yul\":7476:7506   */\n      gt\n        /* \"#utility.yul\":7473:7590   */\n      iszero\n      tag_201\n      jumpi\n        /* \"#utility.yul\":7509:7588   */\n      tag_202\n      tag_85\n      jump\t// in\n    tag_202:\n        /* \"#utility.yul\":7473:7590   */\n    tag_201:\n        /* \"#utility.yul\":7614:7677   */\n      tag_203\n        /* \"#utility.yul\":7669:7676   */\n      dup7\n        /* \"#utility.yul\":7660:7666   */\n      dup3\n        /* \"#utility.yul\":7649:7658   */\n      dup8\n        /* \"#utility.yul\":7645:7667   */\n      add\n        /* \"#utility.yul\":7614:7677   */\n      tag_108\n      jump\t// in\n    tag_203:\n        /* \"#utility.yul\":7604:7677   */\n      swap3\n      pop\n        /* \"#utility.yul\":7399:7687   */\n      pop\n        /* \"#utility.yul\":7754:7756   */\n      0x40\n        /* \"#utility.yul\":7743:7752   */\n      dup5\n        /* \"#utility.yul\":7739:7757   */\n      add\n        /* \"#utility.yul\":7726:7758   */\n      calldataload\n        /* \"#utility.yul\":7785:7803   */\n      0xffffffffffffffff\n        /* \"#utility.yul\":7777:7783   */\n      dup2\n        /* \"#utility.yul\":7774:7804   */\n      gt\n        /* \"#utility.yul\":7771:7888   */\n      iszero\n      tag_204\n      jumpi\n        /* \"#utility.yul\":7807:7886   */\n      tag_205\n      tag_85\n      jump\t// in\n    tag_205:\n        /* \"#utility.yul\":7771:7888   */\n    tag_204:\n        /* \"#utility.yul\":7912:7975   */\n      tag_206\n        /* \"#utility.yul\":7967:7974   */\n      dup7\n        /* \"#utility.yul\":7958:7964   */\n      dup3\n        /* \"#utility.yul\":7947:7956   */\n      dup8\n        /* \"#utility.yul\":7943:7965   */\n      add\n        /* \"#utility.yul\":7912:7975   */\n      tag_108\n      jump\t// in\n    tag_206:\n        /* \"#utility.yul\":7902:7975   */\n      swap2\n      pop\n        /* \"#utility.yul\":7697:7985   */\n      pop\n        /* \"#utility.yul\":6833:7992   */\n      swap3\n      pop\n      swap3\n      pop\n      swap3\n      jump\t// out\n        /* \"#utility.yul\":7998:8107   */\n    tag_109:\n        /* \"#utility.yul\":8079:8100   */\n      tag_208\n        /* \"#utility.yul\":8094:8099   */\n      dup2\n        /* \"#utility.yul\":8079:8100   */\n      tag_97\n      jump\t// in\n    tag_208:\n        /* \"#utility.yul\":8074:8077   */\n      dup3\n        /* \"#utility.yul\":8067:8101   */\n      mstore\n        /* \"#utility.yul\":7998:8107   */\n      pop\n      pop\n      jump\t// out\n        /* \"#utility.yul\":8113:8927   */\n    tag_27:\n        /* \"#utility.yul\":8344:8348   */\n      0x00\n        /* \"#utility.yul\":8382:8385   */\n      0x80\n        /* \"#utility.yul\":8371:8380   */\n      dup3\n        /* \"#utility.yul\":8367:8386   */\n      add\n        /* \"#utility.yul\":8359:8386   */\n      swap1\n      pop\n        /* \"#utility.yul\":8432:8441   */\n      dup2\n        /* \"#utility.yul\":8426:8430   */\n      dup2\n        /* \"#utility.yul\":8422:8442   */\n      sub\n        /* \"#utility.yul\":8418:8419   */\n      0x00\n        /* \"#utility.yul\":8407:8416   */\n      dup4\n        /* \"#utility.yul\":8403:8420   */\n      add\n        /* \"#utility.yul\":8396:8443   */\n      mstore\n        /* \"#utility.yul\":8460:8538   */\n      tag_210\n        /* \"#utility.yul\":8533:8537   */\n      dup2\n        /* \"#utility.yul\":8524:8530   */\n      dup8\n        /* \"#utility.yul\":8460:8538   */\n      tag_94\n      jump\t// in\n    tag_210:\n        /* \"#utility.yul\":8452:8538   */\n      swap1\n      pop\n        /* \"#utility.yul\":8585:8594   */\n      dup2\n        /* \"#utility.yul\":8579:8583   */\n      dup2\n        /* \"#utility.yul\":8575:8595   */\n      sub\n        /* \"#utility.yul\":8570:8572   */\n      0x20\n        /* \"#utility.yul\":8559:8568   */\n      dup4\n        /* \"#utility.yul\":8555:8573   */\n      add\n        /* \"#utility.yul\":8548:8596   */\n      mstore\n        /* \"#utility.yul\":8613:8691   */\n      tag_211\n        /* \"#utility.yul\":8686:8690   */\n      dup2\n        /* \"#utility.yul\":8677:8683   */\n      dup7\n        /* \"#utility.yul\":8613:8691   */\n      tag_94\n      jump\t// in\n    tag_211:\n        /* \"#utility.yul\":8605:8691   */\n      swap1\n      pop\n        /* \"#utility.yul\":8738:8747   */\n      dup2\n        /* \"#utility.yul\":8732:8736   */\n      dup2\n        /* \"#utility.yul\":8728:8748   */\n      sub\n        /* \"#utility.yul\":8723:8725   */\n      0x40\n        /* \"#utility.yul\":8712:8721   */\n      dup4\n        /* \"#utility.yul\":8708:8726   */\n      add\n        /* \"#utility.yul\":8701:8749   */\n      mstore\n        /* \"#utility.yul\":8766:8844   */\n      tag_212\n        /* \"#utility.yul\":8839:8843   */\n      dup2\n        /* \"#utility.yul\":8830:8836   */\n      dup6\n        /* \"#utility.yul\":8766:8844   */\n      tag_94\n      jump\t// in\n    tag_212:\n        /* \"#utility.yul\":8758:8844   */\n      swap1\n      pop\n        /* \"#utility.yul\":8854:8920   */\n      tag_213\n        /* \"#utility.yul\":8916:8918   */\n      0x60\n        /* \"#utility.yul\":8905:8914   */\n      dup4\n        /* \"#utility.yul\":8901:8919   */\n      add\n        /* \"#utility.yul\":8892:8898   */\n      dup5\n        /* \"#utility.yul\":8854:8920   */\n      tag_109\n      jump\t// in\n    tag_213:\n        /* \"#utility.yul\":8113:8927   */\n      swap6\n      swap5\n      pop\n      pop\n      pop\n      pop\n      pop\n      jump\t// out\n        /* \"#utility.yul\":8933:9113   */\n    tag_110:\n        /* \"#utility.yul\":8981:9058   */\n      0x4e487b7100000000000000000000000000000000000000000000000000000000\n        /* \"#utility.yul\":8978:8979   */\n      0x00\n        /* \"#utility.yul\":8971:9059   */\n      mstore\n        /* \"#utility.yul\":9078:9082   */\n      0x22\n        /* \"#utility.yul\":9075:9076   */\n      0x04\n        /* \"#utility.yul\":9068:9083   */\n      mstore\n        /* \"#utility.yul\":9102:9106   */\n      0x24\n        /* \"#utility.yul\":9099:9100   */\n      0x00\n        /* \"#utility.yul\":9092:9107   */\n      revert\n        /* \"#utility.yul\":9119:9439   */\n    tag_34:\n        /* \"#utility.yul\":9163:9169   */\n      0x00\n        /* \"#utility.yul\":9200:9201   */\n      0x02\n        /* \"#utility.yul\":9194:9198   */\n      dup3\n        /* \"#utility.yul\":9190:9202   */\n      div\n        /* \"#utility.yul\":9180:9202   */\n      swap1\n      pop\n        /* \"#utility.yul\":9247:9248   */\n      0x01\n        /* \"#utility.yul\":9241:9245   */\n      dup3\n        /* \"#utility.yul\":9237:9249   */\n      and\n        /* \"#utility.yul\":9268:9286   */\n      dup1\n        /* \"#utility.yul\":9258:9339   */\n      tag_216\n      jumpi\n        /* \"#utility.yul\":9324:9328   */\n      0x7f\n        /* \"#utility.yul\":9316:9322   */\n      dup3\n        /* \"#utility.yul\":9312:9329   */\n      and\n        /* \"#utility.yul\":9302:9329   */\n      swap2\n      pop\n        /* \"#utility.yul\":9258:9339   */\n    tag_216:\n        /* \"#utility.yul\":9386:9388   */\n      0x20\n        /* \"#utility.yul\":9378:9384   */\n      dup3\n        /* \"#utility.yul\":9375:9389   */\n      lt\n        /* \"#utility.yul\":9355:9373   */\n      dup2\n        /* \"#utility.yul\":9352:9390   */\n      sub\n        /* \"#utility.yul\":9349:9433   */\n      tag_217\n      jumpi\n        /* \"#utility.yul\":9405:9423   */\n      tag_218\n      tag_110\n      jump\t// in\n    tag_218:\n        /* \"#utility.yul\":9349:9433   */\n    tag_217:\n        /* \"#utility.yul\":9170:9439   */\n      pop\n        /* \"#utility.yul\":9119:9439   */\n      swap2\n      swap1\n      pop\n      jump\t// out\n        /* \"#utility.yul\":9445:9586   */\n    tag_111:\n        /* \"#utility.yul\":9494:9498   */\n      0x00\n        /* \"#utility.yul\":9517:9520   */\n      dup2\n        /* \"#utility.yul\":9509:9520   */\n      swap1\n      pop\n        /* \"#utility.yul\":9540:9543   */\n      dup2\n        /* \"#utility.yul\":9537:9538   */\n      0x00\n        /* \"#utility.yul\":9530:9544   */\n      mstore\n        /* \"#utility.yul\":9574:9578   */\n      0x20\n        /* \"#utility.yul\":9571:9572   */\n      0x00\n        /* \"#utility.yul\":9561:9579   */\n      keccak256\n        /* \"#utility.yul\":9553:9579   */\n      swap1\n      pop\n        /* \"#utility.yul\":9445:9586   */\n      swap2\n      swap1\n      pop\n      jump\t// out\n        /* \"#utility.yul\":9592:9685   */\n    tag_112:\n        /* \"#utility.yul\":9629:9635   */\n      0x00\n        /* \"#utility.yul\":9676:9678   */\n      0x20\n        /* \"#utility.yul\":9671:9673   */\n      0x1f\n        /* \"#utility.yul\":9664:9669   */\n      dup4\n        /* \"#utility.yul\":9660:9674   */\n      add\n        /* \"#utility.yul\":9656:9679   */\n      div\n        /* \"#utility.yul\":9646:9679   */\n      swap1\n      pop\n        /* \"#utility.yul\":9592:9685   */\n      swap2\n      swap1\n      pop\n      jump\t// out\n        /* \"#utility.yul\":9691:9798   */\n    tag_113:\n        /* \"#utility.yul\":9735:9743   */\n      0x00\n        /* \"#utility.yul\":9785:9790   */\n      dup3\n        /* \"#utility.yul\":9779:9783   */\n      dup3\n        /* \"#utility.yul\":9775:9791   */\n      shl\n        /* \"#utility.yul\":9754:9791   */\n      swap1\n      pop\n        /* \"#utility.yul\":9691:9798   */\n      swap3\n      swap2\n      pop\n      pop\n      jump\t// out\n        /* \"#utility.yul\":9804:10197   */\n    tag_114:\n        /* \"#utility.yul\":9873:9879   */\n      0x00\n        /* \"#utility.yul\":9923:9924   */\n      0x08\n        /* \"#utility.yul\":9911:9921   */\n      dup4\n        /* \"#utility.yul\":9907:9925   */\n      mul\n        /* \"#utility.yul\":9946:10043   */\n      tag_223\n        /* \"#utility.yul\":9976:10042   */\n      0xffffffffffffffffffffffffffffffffffffffffffffffffffffffffffffffff\n        /* \"#utility.yul\":9965:9974   */\n      dup3\n        /* \"#utility.yul\":9946:10043   */\n      tag_113\n      jump\t// in\n    tag_223:\n        /* \"#utility.yul\":10064:10103   */\n      tag_224\n        /* \"#utility.yul\":10094:10102   */\n      dup7\n        /* \"#utility.yul\":10083:10092   */\n      dup4\n        /* \"#utility.yul\":10064:10103   */\n      tag_113\n      jump\t// in\n    tag_224:\n        /* \"#utility.yul\":10052:10103   */\n      swap6\n      pop\n        /* \"#utility.yul\":10136:10140   */\n      dup1\n        /* \"#utility.yul\":10132:10141   */\n      not\n        /* \"#utility.yul\":10125:10130   */\n      dup5\n        /* \"#utility.yul\":10121:10142   */\n      and\n        /* \"#utility.yul\":10112:10142   */\n      swap4\n      pop\n        /* \"#utility.yul\":10185:10189   */\n      dup1\n        /* \"#utility.yul\":10175:10183   */\n      dup7\n        /* \"#utility.yul\":10171:10190   */\n      and\n        /* \"#utility.yul\":10164:10169   */\n      dup5\n        /* \"#utility.yul\":10161:10191   */\n      or\n        /* \"#utility.yul\":10151:10191   */\n      swap3\n      pop\n        /* \"#utility.yul\":9880:10197   */\n      pop\n      pop\n        /* \"#utility.yul\":9804:10197   */\n      swap4\n      swap3\n      pop\n      pop\n      pop\n      jump\t// out\n        /* \"#utility.yul\":10203:10280   */\n    tag_115:\n        /* \"#utility.yul\":10240:10247   */\n      0x00\n        /* \"#utility.yul\":10269:10274   */\n      dup2\n        /* \"#utility.yul\":10258:10274   */\n      swap1\n      pop\n        /* \"#utility.yul\":10203:10280   */\n      swap2\n      swap1\n      pop\n      jump\t// out\n        /* \"#utility.yul\":10286:10346   */\n    tag_116:\n        /* \"#utility.yul\":10314:10317   */\n      0x00\n        /* \"#utility.yul\":10335:10340   */\n      dup2\n        /* \"#utility.yul\":10328:10340   */\n      swap1\n      pop\n        /* \"#utility.yul\":10286:10346   */\n      swap2\n      swap1\n      pop\n      jump\t// out\n        /* \"#utility.yul\":10352:10494   */\n    tag_117:\n        /* \"#utility.yul\":10402:10411   */\n      0x00\n        /* \"#utility.yul\":10435:10488   */\n      tag_228\n        /* \"#utility.yul\":10453:10487   */\n      tag_229\n        /* \"#utility.yul\":10462:10486   */\n      tag_230\n        /* \"#utility.yul\":10480:10485   */\n      dup5\n        /* \"#utility.yul\":10462:10486   */\n      tag_115\n      jump\t// in\n    tag_230:\n        /* \"#utility.yul\":10453:10487   */\n      tag_116\n      jump\t// in\n    tag_229:\n        /* \"#utility.yul\":10435:10488   */\n      tag_115\n      jump\t// in\n    tag_228:\n        /* \"#utility.yul\":10422:10488   */\n      swap1\n      pop\n        /* \"#utility.yul\":10352:10494   */\n      swap2\n      swap1\n      pop\n      jump\t// out\n        /* \"#utility.yul\":10500:10575   */\n    tag_118:\n        /* \"#utility.yul\":10543:10546   */\n      0x00\n        /* \"#utility.yul\":10564:10569   */\n      dup2\n        /* \"#utility.yul\":10557:10569   */\n      swap1\n      pop\n        /* \"#utility.yul\":10500:10575   */\n      swap2\n      swap1\n      pop\n      jump\t// out\n        /* \"#utility.yul\":10581:10850   */\n    tag_119:\n        /* \"#utility.yul\":10691:10730   */\n      tag_233\n        /* \"#utility.yul\":10722:10729   */\n      dup4\n        /* \"#utility.yul\":10691:10730   */\n      tag_117\n      jump\t// in\n    tag_233:\n        /* \"#utility.yul\":10752:10843   */\n      tag_234\n        /* \"#utility.yul\":10801:10842   */\n      tag_235\n        /* \"#utility.yul\":10825:10841   */\n      dup3\n        /* \"#utility.yul\":10801:10842   */\n      tag_118\n      jump\t// in\n    tag_235:\n        /* \"#utility.yul\":10793:10799   */\n      dup5\n        /* \"#utility.yul\":10786:10790   */\n      dup5\n        /* \"#utility.yul\":10780:10791   */\n      sload\n        /* \"#utility.yul\":10752:10843   */\n      tag_114\n      jump\t// in\n    tag_234:\n        /* \"#utility.yul\":10746:10750   */\n      dup3\n        /* \"#utility.yul\":10739:10844   */\n      sstore\n        /* \"#utility.yul\":10657:10850   */\n      pop\n        /* \"#utility.yul\":10581:10850   */\n      pop\n      pop\n      pop\n      jump\t// out\n        /* \"#utility.yul\":10856:10929   */\n    tag_120:\n        /* \"#utility.yul\":10901:10904   */\n      0x00\n        /* \"#utility.yul\":10856:10929   */\n      swap1\n      jump\t// out\n        /* \"#utility.yul\":10935:11124   */\n    tag_121:\n        /* \"#utility.yul\":11012:11044   */\n      tag_238\n      tag_120\n      jump\t// in\n    tag_238:\n        /* \"#utility.yul\":11053:11118   */\n      tag_239\n        /* \"#utility.yul\":11111:11117   */\n      dup2\n        /* \"#utility.yul\":11103:11109   */\n      dup5\n        /* \"#utility.yul\":11097:11101   */\n      dup5\n        /* \"#utility.yul\":11053:11118   */\n      tag_119\n      jump\t// in\n    tag_239:\n        /* \"#utility.yul\":10988:11124   */\n      pop\n        /* \"#utility.yul\":10935:11124   */\n      pop\n      pop\n      jump\t// out\n        /* \"#utility.yul\":11130:11316   */\n    tag_122:\n        /* \"#utility.yul\":11190:11310   */\n    tag_241:\n        /* \"#utility.yul\":11207:11210   */\n      dup2\n        /* \"#utility.yul\":11200:11205   */\n      dup2\n        /* \"#utility.yul\":11197:11211   */\n      lt\n        /* \"#utility.yul\":11190:11310   */\n      iszero\n      tag_243\n      jumpi\n        /* \"#utility.yul\":11261:11300   */\n      tag_244\n        /* \"#utility.yul\":11298:11299   */\n      0x00\n        /* \"#utility.yul\":11291:11296   */\n      dup3\n        /* \"#utility.yul\":11261:11300   */\n      tag_121\n      jump\t// in\n    tag_244:\n        /* \"#utility.yul\":11234:11235   */\n      0x01\n        /* \"#utility.yul\":11227:11232   */\n      dup2\n        /* \"#utility.yul\":11223:11236   */\n      add\n        /* \"#utility.yul\":11214:11236   */\n      swap1\n      pop\n        /* \"#utility.yul\":11190:11310   */\n      jump(tag_241)\n    tag_243:\n        /* \"#utility.yul\":11130:11316   */\n      pop\n      pop\n      jump\t// out\n        /* \"#utility.yul\":11322:11865   */\n    tag_123:\n        /* \"#utility.yul\":11423:11425   */\n      0x1f\n        /* \"#utility.yul\":11418:11421   */\n      dup3\n        /* \"#utility.yul\":11415:11426   */\n      gt\n        /* \"#utility.yul\":11412:11858   */\n      iszero\n      tag_246\n      jumpi\n        /* \"#utility.yul\":11457:11495   */\n      tag_247\n        /* \"#utility.yul\":11489:11494   */\n      dup2\n        /* \"#utility.yul\":11457:11495   */\n      tag_111\n      jump\t// in\n    tag_247:\n        /* \"#utility.yul\":11541:11570   */\n      tag_248\n        /* \"#utility.yul\":11559:11569   */\n      dup5\n        /* \"#utility.yul\":11541:11570   */\n      tag_112\n      jump\t// in\n    tag_248:\n        /* \"#utility.yul\":11531:11539   */\n      dup2\n        /* \"#utility.yul\":11527:11571   */\n      add\n        /* \"#utility.yul\":11724:11726   */\n      0x20\n        /* \"#utility.yul\":11712:11722   */\n      dup6\n        /* \"#utility.yul\":11709:11727   */\n      lt\n        /* \"#utility.yul\":11706:11755   */\n      iszero\n      tag_249\n      jumpi\n        /* \"#utility.yul\":11745:11753   */\n      dup2\n        /* \"#utility.yul\":11730:11753   */\n      swap1\n      pop\n        /* \"#utility.yul\":11706:11755   */\n    tag_249:\n        /* \"#utility.yul\":11768:11848   */\n      tag_250\n        /* \"#utility.yul\":11824:11846   */\n      tag_251\n        /* \"#utility.yul\":11842:11845   */\n      dup6\n        /* \"#utility.yul\":11824:11846   */\n      tag_112\n      jump\t// in\n    tag_251:\n        /* \"#utility.yul\":11814:11822   */\n      dup4\n        /* \"#utility.yul\":11810:11847   */\n      add\n        /* \"#utility.yul\":11797:11808   */\n      dup3\n        /* \"#utility.yul\":11768:11848   */\n      tag_122\n      jump\t// in\n    tag_250:\n        /* \"#utility.yul\":11427:11858   */\n      pop\n      pop\n        /* \"#utility.yul\":11412:11858   */\n    tag_246:\n        /* \"#utility.yul\":11322:11865   */\n      pop\n      pop\n      pop\n      jump\t// out\n        /* \"#utility.yul\":11871:11988   */\n    tag_124:\n        /* \"#utility.yul\":11925:11933   */\n      0x00\n        /* \"#utility.yul\":11975:11980   */\n      dup3\n        /* \"#utility.yul\":11969:11973   */\n      dup3\n        /* \"#utility.yul\":11965:11981   */\n      shr\n        /* \"#utility.yul\":11944:11981   */\n      swap1\n      pop\n        /* \"#utility.yul\":11871:11988   */\n      swap3\n      swap2\n      pop\n      pop\n      jump\t// out\n        /* \"#utility.yul\":11994:12163   */\n    tag_125:\n        /* \"#utility.yul\":12038:12044   */\n      0x00\n        /* \"#utility.yul\":12071:12122   */\n      tag_254\n        /* \"#utility.yul\":12119:12120   */\n      0x00\n        /* \"#utility.yul\":12115:12121   */\n      not\n        /* \"#utility.yul\":12107:12112   */\n      dup5\n        /* \"#utility.yul\":12104:12105   */\n      0x08\n        /* \"#utility.yul\":12100:12113   */\n      mul\n        /* \"#utility.yul\":12071:12122   */\n      tag_124\n      jump\t// in\n    tag_254:\n        /* \"#utility.yul\":12067:12123   */\n      not\n        /* \"#utility.yul\":12152:12156   */\n      dup1\n        /* \"#utility.yul\":12146:12150   */\n      dup4\n        /* \"#utility.yul\":12142:12157   */\n      and\n        /* \"#utility.yul\":12132:12157   */\n      swap2\n      pop\n        /* \"#utility.yul\":12045:12163   */\n      pop\n        /* \"#utility.yul\":11994:12163   */\n      swap3\n      swap2\n      pop\n      pop\n      jump\t// out\n        /* \"#utility.yul\":12168:12463   */\n    tag_126:\n        /* \"#utility.yul\":12244:12248   */\n      0x00\n        /* \"#utility.yul\":12390:12419   */\n      tag_256\n        /* \"#utility.yul\":12415:12418   */\n      dup4\n        /* \"#utility.yul\":12409:12413   */\n      dup4\n        /* \"#utility.yul\":12390:12419   */\n      tag_125\n      jump\t// in\n    tag_256:\n        /* \"#utility.yul\":12382:12419   */\n      swap2\n      pop\n        /* \"#utility.yul\":12452:12455   */\n      dup3\n        /* \"#utility.yul\":12449:12450   */\n      0x02\n        /* \"#utility.yul\":12445:12456   */\n      mul\n        /* \"#utility.yul\":12439:12443   */\n      dup3\n        /* \"#utility.yul\":12436:12457   */\n      or\n        /* \"#utility.yul\":12428:12457   */\n      swap1\n      pop\n        /* \"#utility.yul\":12168:12463   */\n      swap3\n      swap2\n      pop\n      pop\n      jump\t// out\n        /* \"#utility.yul\":12468:13863   */\n    tag_59:\n        /* \"#utility.yul\":12585:12622   */\n      tag_258\n        /* \"#utility.yul\":12618:12621   */\n      dup3\n        /* \"#utility.yul\":12585:12622   */\n      tag_90\n      jump\t// in\n    tag_258:\n        /* \"#utility.yul\":12687:12705   */\n      0xffffffffffffffff\n        /* \"#utility.yul\":12679:12685   */\n      dup2\n        /* \"#utility.yul\":12676:12706   */\n      gt\n        /* \"#utility.yul\":12673:12729   */\n      iszero\n      tag_259\n      jumpi\n        /* \"#utility.yul\":12709:12727   */\n      tag_260\n      tag_102\n      jump\t// in\n    tag_260:\n        /* \"#utility.yul\":12673:12729   */\n    tag_259:\n        /* \"#utility.yul\":12753:12791   */\n      tag_261\n        /* \"#utility.yul\":12785:12789   */\n      dup3\n        /* \"#utility.yul\":12779:12790   */\n      sload\n        /* \"#utility.yul\":12753:12791   */\n      tag_34\n      jump\t// in\n    tag_261:\n        /* \"#utility.yul\":12838:12905   */\n      tag_262\n        /* \"#utility.yul\":12898:12904   */\n      dup3\n        /* \"#utility.yul\":12890:12896   */\n      dup3\n        /* \"#utility.yul\":12884:12888   */\n      dup6\n        /* \"#utility.yul\":12838:12905   */\n      tag_123\n      jump\t// in\n    tag_262:\n        /* \"#utility.yul\":12932:12933   */\n      0x00\n        /* \"#utility.yul\":12956:12960   */\n      0x20\n        /* \"#utility.yul\":12943:12960   */\n      swap1\n      pop\n        /* \"#utility.yul\":12988:12990   */\n      0x1f\n        /* \"#utility.yul\":12980:12986   */\n      dup4\n        /* \"#utility.yul\":12977:12991   */\n      gt\n        /* \"#utility.yul\":13005:13006   */\n      0x01\n        /* \"#utility.yul\":13000:13618   */\n      dup2\n      eq\n      tag_264\n      jumpi\n        /* \"#utility.yul\":13662:13663   */\n      0x00\n        /* \"#utility.yul\":13679:13685   */\n      dup5\n        /* \"#utility.yul\":13676:13753   */\n      iszero\n      tag_265\n      jumpi\n        /* \"#utility.yul\":13728:13737   */\n      dup3\n        /* \"#utility.yul\":13723:13726   */\n      dup8\n        /* \"#utility.yul\":13719:13738   */\n      add\n        /* \"#utility.yul\":13713:13739   */\n      mload\n        /* \"#utility.yul\":13704:13739   */\n      swap1\n      pop\n        /* \"#utility.yul\":13676:13753   */\n    tag_265:\n        /* \"#utility.yul\":13779:13846   */\n      tag_266\n        /* \"#utility.yul\":13839:13845   */\n      dup6\n        /* \"#utility.yul\":13832:13837   */\n      dup3\n        /* \"#utility.yul\":13779:13846   */\n      tag_126\n      jump\t// in\n    tag_266:\n        /* \"#utility.yul\":13773:13777   */\n      dup7\n        /* \"#utility.yul\":13766:13847   */\n      sstore\n        /* \"#utility.yul\":13635:13857   */\n      pop\n        /* \"#utility.yul\":12970:13857   */\n      jump(tag_263)\n        /* \"#utility.yul\":13000:13618   */\n    tag_264:\n        /* \"#utility.yul\":13052:13056   */\n      0x1f\n        /* \"#utility.yul\":13048:13057   */\n      not\n        /* \"#utility.yul\":13040:13046   */\n      dup5\n        /* \"#utility.yul\":13036:13058   */\n      and\n        /* \"#utility.yul\":13086:13123   */\n      tag_267\n        /* \"#utility.yul\":13118:13122   */\n      dup7\n        /* \"#utility.yul\":13086:13123   */\n      tag_111\n      jump\t// in\n    tag_267:\n        /* \"#utility.yul\":13145:13146   */\n      0x00\n        /* \"#utility.yul\":13159:13367   */\n    tag_268:\n        /* \"#utility.yul\":13173:13180   */\n      dup3\n        /* \"#utility.yul\":13170:13171   */\n      dup2\n        /* \"#utility.yul\":13167:13181   */\n      lt\n        /* \"#utility.yul\":13159:13367   */\n      iszero\n      tag_270\n      jumpi\n        /* \"#utility.yul\":13252:13261   */\n      dup5\n        /* \"#utility.yul\":13247:13250   */\n      dup10\n        /* \"#utility.yul\":13243:13262   */\n      add\n        /* \"#utility.yul\":13237:13263   */\n      mload\n        /* \"#utility.yul\":13229:13235   */\n      dup3\n        /* \"#utility.yul\":13222:13264   */\n      sstore\n        /* \"#utility.yul\":13303:13304   */\n      0x01\n        /* \"#utility.yul\":13295:13301   */\n      dup3\n        /* \"#utility.yul\":13291:13305   */\n      add\n        /* \"#utility.yul\":13281:13305   */\n      swap2\n      pop\n        /* \"#utility.yul\":13350:13352   */\n      0x20\n        /* \"#utility.yul\":13339:13348   */\n      dup6\n        /* \"#utility.yul\":13335:13353   */\n      add\n        /* \"#utility.yul\":13322:13353   */\n      swap5\n      pop\n        /* \"#utility.yul\":13196:13200   */\n      0x20\n        /* \"#utility.yul\":13193:13194   */\n      dup2\n        /* \"#utility.yul\":13189:13201   */\n      add\n        /* \"#utility.yul\":13184:13201   */\n      swap1\n      pop\n        /* \"#utility.yul\":13159:13367   */\n      jump(tag_268)\n    tag_270:\n        /* \"#utility.yul\":13395:13401   */\n      dup7\n        /* \"#utility.yul\":13386:13393   */\n      dup4\n        /* \"#utility.yul\":13383:13402   */\n      lt\n        /* \"#utility.yul\":13380:13559   */\n      iszero\n      tag_271\n      jumpi\n        /* \"#utility.yul\":13453:13462   */\n      dup5\n        /* \"#utility.yul\":13448:13451   */\n      dup10\n        /* \"#utility.yul\":13444:13463   */\n      add\n        /* \"#utility.yul\":13438:13464   */\n      mload\n        /* \"#utility.yul\":13496:13544   */\n      tag_272\n        /* \"#utility.yul\":13538:13542   */\n      0x1f\n        /* \"#utility.yul\":13530:13536   */\n      dup10\n        /* \"#utility.yul\":13526:13543   */\n      and\n        /* \"#utility.yul\":13515:13524   */\n      dup3\n        /* \"#utility.yul\":13496:13544   */\n      tag_125\n      jump\t// in\n    tag_272:\n        /* \"#utility.yul\":13488:13494   */\n      dup4\n        /* \"#utility.yul\":13481:13545   */\n      sstore\n        /* \"#utility.yul\":13403:13559   */\n      pop\n        /* \"#utility.yul\":13380:13559   */\n    tag_271:\n        /* \"#utility.yul\":13605:13606   */\n      0x01\n        /* \"#utility.yul\":13601:13602   */\n      0x02\n        /* \"#utility.yul\":13593:13599   */\n      dup9\n        /* \"#utility.yul\":13589:13603   */\n      mul\n        /* \"#utility.yul\":13585:13607   */\n      add\n        /* \"#utility.yul\":13579:13583   */\n      dup9\n        /* \"#utility.yul\":13572:13608   */\n      sstore\n        /* \"#utility.yul\":13007:13618   */\n      pop\n      pop\n      pop\n        /* \"#utility.yul\":12970:13857   */\n    tag_263:\n      pop\n        /* \"#utility.yul\":12560:13863   */\n      pop\n      pop\n      pop\n        /* \"#utility.yul\":12468:13863   */\n      pop\n      pop\n      jump\t// out\n\n    auxdata: 0xa26469706673582212209f4366b5271c26d68aa230c972b072a7b6607ccf895794ef41759a82d7bb5c3564736f6c634300081a0033\n}\n",
				"bytecode": {
					"linkReferences": {},
					"object": "6080604052348015600e575f80fd5b50610f028061001c5f395ff3fe608060405234801561000f575f80fd5b5060043610610055575f3560e01c806304386432146100595780630f53a4701461008957806352640314146100b95780639dd9d0fd146100d5578063a2e84e6e14610108575b5f80fd5b610073600480360381019061006e9190610818565b610138565b60405161008091906108b3565b60405180910390f35b6100a3600480360381019061009e9190610818565b610206565b6040516100b091906109a3565b60405180910390f35b6100d360048036038101906100ce9190610aef565b610425565b005b6100ef60048036038101906100ea9190610818565b6104ec565b6040516100ff9493929190610ba2565b60405180910390f35b610122600480360381019061011d9190610818565b6106b5565b60405161012f91906108b3565b60405180910390f35b60605f808373ffffffffffffffffffffffffffffffffffffffff1673ffffffffffffffffffffffffffffffffffffffff1681526020019081526020015f205f01805461018390610c27565b80601f01602080910402602001604051908101604052809291908181526020018280546101af90610c27565b80156101fa5780601f106101d1576101008083540402835291602001916101fa565b820191905f5260205f20905b8154815290600101906020018083116101dd57829003601f168201915b50505050509050919050565b61020e610784565b5f808373ffffffffffffffffffffffffffffffffffffffff1673ffffffffffffffffffffffffffffffffffffffff1681526020019081526020015f206040518060800160405290815f8201805461026490610c27565b80601f016020809104026020016040519081016040528092919081815260200182805461029090610c27565b80156102db5780601f106102b2576101008083540402835291602001916102db565b820191905f5260205f20905b8154815290600101906020018083116102be57829003601f168201915b505050505081526020016001820180546102f490610c27565b80601f016020809104026020016040519081016040528092919081815260200182805461032090610c27565b801561036b5780601f106103425761010080835404028352916020019161036b565b820191905f5260205f20905b81548152906001019060200180831161034e57829003601f168201915b5050505050815260200160028201805461038490610c27565b80601f01602080910402602001604051908101604052809291908181526020018280546103b090610c27565b80156103fb5780601f106103d2576101008083540402835291602001916103fb565b820191905f5260205f20905b8154815290600101906020018083116103de57829003601f168201915b50505050508152602001600382015f9054906101000a900460ff1615151515815250509050919050565b6040518060800160405280848152602001838152602001828152602001600115158152505f803373ffffffffffffffffffffffffffffffffffffffff1673ffffffffffffffffffffffffffffffffffffffff1681526020019081526020015f205f820151815f0190816104989190610dfd565b5060208201518160010190816104ae9190610dfd565b5060408201518160020190816104c49190610dfd565b506060820151816003015f6101000a81548160ff021916908315150217905550905050505050565b5f602052805f5260405f205f91509050805f01805461050a90610c27565b80601f016020809104026020016040519081016040528092919081815260200182805461053690610c27565b80156105815780601f1061055857610100808354040283529160200191610581565b820191905f5260205f20905b81548152906001019060200180831161056457829003601f168201915b50505050509080600101805461059690610c27565b80601f01602080910402602001604051908101604052809291908181526020018280546105c290610c27565b801561060d5780601f106105e45761010080835404028352916020019161060d565b820191905f5260205f20905b8154815290600101906020018083116105f057829003601f168201915b50505050509080600201805461062290610c27565b80601f016020809104026020016040519081016040528092919081815260200182805461064e90610c27565b80156106995780601f1061067057610100808354040283529160200191610699565b820191905f5260205f20905b81548152906001019060200180831161067c57829003601f168201915b505050505090806003015f9054906101000a900460ff16905084565b60605f808373ffffffffffffffffffffffffffffffffffffffff1673ffffffffffffffffffffffffffffffffffffffff1681526020019081526020015f20600201805461070190610c27565b80601f016020809104026020016040519081016040528092919081815260200182805461072d90610c27565b80156107785780601f1061074f57610100808354040283529160200191610778565b820191905f5260205f20905b81548152906001019060200180831161075b57829003601f168201915b50505050509050919050565b60405180608001604052806060815260200160608152602001606081526020015f151581525090565b5f604051905090565b5f80fd5b5f80fd5b5f73ffffffffffffffffffffffffffffffffffffffff82169050919050565b5f6107e7826107be565b9050919050565b6107f7816107dd565b8114610801575f80fd5b50565b5f81359050610812816107ee565b92915050565b5f6020828403121561082d5761082c6107b6565b5b5f61083a84828501610804565b91505092915050565b5f81519050919050565b5f82825260208201905092915050565b8281835e5f83830152505050565b5f601f19601f8301169050919050565b5f61088582610843565b61088f818561084d565b935061089f81856020860161085d565b6108a88161086b565b840191505092915050565b5f6020820190508181035f8301526108cb818461087b565b905092915050565b5f82825260208201905092915050565b5f6108ed82610843565b6108f781856108d3565b935061090781856020860161085d565b6109108161086b565b840191505092915050565b5f8115159050919050565b61092f8161091b565b82525050565b5f608083015f8301518482035f86015261094f82826108e3565b9150506020830151848203602086015261096982826108e3565b9150506040830151848203604086015261098382826108e3565b91505060608301516109986060860182610926565b508091505092915050565b5f6020820190508181035f8301526109bb8184610935565b905092915050565b5f80fd5b5f80fd5b7f4e487b71000000000000000000000000000000000000000000000000000000005f52604160045260245ffd5b610a018261086b565b810181811067ffffffffffffffff82111715610a2057610a1f6109cb565b5b80604052505050565b5f610a326107ad565b9050610a3e82826109f8565b919050565b5f67ffffffffffffffff821115610a5d57610a5c6109cb565b5b610a668261086b565b9050602081019050919050565b828183375f83830152505050565b5f610a93610a8e84610a43565b610a29565b905082815260208101848484011115610aaf57610aae6109c7565b5b610aba848285610a73565b509392505050565b5f82601f830112610ad657610ad56109c3565b5b8135610ae6848260208601610a81565b91505092915050565b5f805f60608486031215610b0657610b056107b6565b5b5f84013567ffffffffffffffff811115610b2357610b226107ba565b5b610b2f86828701610ac2565b935050602084013567ffffffffffffffff811115610b5057610b4f6107ba565b5b610b5c86828701610ac2565b925050604084013567ffffffffffffffff811115610b7d57610b7c6107ba565b5b610b8986828701610ac2565b9150509250925092565b610b9c8161091b565b82525050565b5f6080820190508181035f830152610bba818761087b565b90508181036020830152610bce818661087b565b90508181036040830152610be2818561087b565b9050610bf16060830184610b93565b95945050505050565b7f4e487b71000000000000000000000000000000000000000000000000000000005f52602260045260245ffd5b5f6002820490506001821680610c3e57607f821691505b602082108103610c5157610c50610bfa565b5b50919050565b5f819050815f5260205f209050919050565b5f6020601f8301049050919050565b5f82821b905092915050565b5f60088302610cb37fffffffffffffffffffffffffffffffffffffffffffffffffffffffffffffffff82610c78565b610cbd8683610c78565b95508019841693508086168417925050509392505050565b5f819050919050565b5f819050919050565b5f610d01610cfc610cf784610cd5565b610cde565b610cd5565b9050919050565b5f819050919050565b610d1a83610ce7565b610d2e610d2682610d08565b848454610c84565b825550505050565b5f90565b610d42610d36565b610d4d818484610d11565b505050565b5b81811015610d7057610d655f82610d3a565b600181019050610d53565b5050565b601f821115610db557610d8681610c57565b610d8f84610c69565b81016020851015610d9e578190505b610db2610daa85610c69565b830182610d52565b50505b505050565b5f82821c905092915050565b5f610dd55f1984600802610dba565b1980831691505092915050565b5f610ded8383610dc6565b9150826002028217905092915050565b610e0682610843565b67ffffffffffffffff811115610e1f57610e1e6109cb565b5b610e298254610c27565b610e34828285610d74565b5f60209050601f831160018114610e65575f8415610e53578287015190505b610e5d8582610de2565b865550610ec4565b601f198416610e7386610c57565b5f5b82811015610e9a57848901518255600182019150602085019450602081019050610e75565b86831015610eb75784890151610eb3601f891682610dc6565b8355505b6001600288020188555050505b50505050505056fea26469706673582212209f4366b5271c26d68aa230c972b072a7b6607ccf895794ef41759a82d7bb5c3564736f6c634300081a0033",
					"opcodes": "PUSH1 0x80 PUSH1 0x40 MSTORE CALLVALUE DUP1 ISZERO PUSH1 0xE JUMPI PUSH0 DUP1 REVERT JUMPDEST POP PUSH2 0xF02 DUP1 PUSH2 0x1C PUSH0 CODECOPY PUSH0 RETURN INVALID PUSH1 0x80 PUSH1 0x40 MSTORE CALLVALUE DUP1 ISZERO PUSH2 0xF JUMPI PUSH0 DUP1 REVERT JUMPDEST POP PUSH1 0x4 CALLDATASIZE LT PUSH2 0x55 JUMPI PUSH0 CALLDATALOAD PUSH1 0xE0 SHR DUP1 PUSH4 0x4386432 EQ PUSH2 0x59 JUMPI DUP1 PUSH4 0xF53A470 EQ PUSH2 0x89 JUMPI DUP1 PUSH4 0x52640314 EQ PUSH2 0xB9 JUMPI DUP1 PUSH4 0x9DD9D0FD EQ PUSH2 0xD5 JUMPI DUP1 PUSH4 0xA2E84E6E EQ PUSH2 0x108 JUMPI JUMPDEST PUSH0 DUP1 REVERT JUMPDEST PUSH2 0x73 PUSH1 0x4 DUP1 CALLDATASIZE SUB DUP2 ADD SWAP1 PUSH2 0x6E SWAP2 SWAP1 PUSH2 0x818 JUMP JUMPDEST PUSH2 0x138 JUMP JUMPDEST PUSH1 0x40 MLOAD PUSH2 0x80 SWAP2 SWAP1 PUSH2 0x8B3 JUMP JUMPDEST PUSH1 0x40 MLOAD DUP1 SWAP2 SUB SWAP1 RETURN JUMPDEST PUSH2 0xA3 PUSH1 0x4 DUP1 CALLDATASIZE SUB DUP2 ADD SWAP1 PUSH2 0x9E SWAP2 SWAP1 PUSH2 0x818 JUMP JUMPDEST PUSH2 0x206 JUMP JUMPDEST PUSH1 0x40 MLOAD PUSH2 0xB0 SWAP2 SWAP1 PUSH2 0x9A3 JUMP JUMPDEST PUSH1 0x40 MLOAD DUP1 SWAP2 SUB SWAP1 RETURN JUMPDEST PUSH2 0xD3 PUSH1 0x4 DUP1 CALLDATASIZE SUB DUP2 ADD SWAP1 PUSH2 0xCE SWAP2 SWAP1 PUSH2 0xAEF JUMP JUMPDEST PUSH2 0x425 JUMP JUMPDEST STOP JUMPDEST PUSH2 0xEF PUSH1 0x4 DUP1 CALLDATASIZE SUB DUP2 ADD SWAP1 PUSH2 0xEA SWAP2 SWAP1 PUSH2 0x818 JUMP JUMPDEST PUSH2 0x4EC JUMP JUMPDEST PUSH1 0x40 MLOAD PUSH2 0xFF SWAP5 SWAP4 SWAP3 SWAP2 SWAP1 PUSH2 0xBA2 JUMP JUMPDEST PUSH1 0x40 MLOAD DUP1 SWAP2 SUB SWAP1 RETURN JUMPDEST PUSH2 0x122 PUSH1 0x4 DUP1 CALLDATASIZE SUB DUP2 ADD SWAP1 PUSH2 0x11D SWAP2 SWAP1 PUSH2 0x818 JUMP JUMPDEST PUSH2 0x6B5 JUMP JUMPDEST PUSH1 0x40 MLOAD PUSH2 0x12F SWAP2 SWAP1 PUSH2 0x8B3 JUMP JUMPDEST PUSH1 0x40 MLOAD DUP1 SWAP2 SUB SWAP1 RETURN JUMPDEST PUSH1 0x60 PUSH0 DUP1 DUP4 PUSH20 0xFFFFFFFFFFFFFFFFFFFFFFFFFFFFFFFFFFFFFFFF AND PUSH20 0xFFFFFFFFFFFFFFFFFFFFFFFFFFFFFFFFFFFFFFFF AND DUP2 MSTORE PUSH1 0x20 ADD SWAP1 DUP2 MSTORE PUSH1 0x20 ADD PUSH0 KECCAK256 PUSH0 ADD DUP1 SLOAD PUSH2 0x183 SWAP1 PUSH2 0xC27 JUMP JUMPDEST DUP1 PUSH1 0x1F ADD PUSH1 0x20 DUP1 SWAP2 DIV MUL PUSH1 0x20 ADD PUSH1 0x40 MLOAD SWAP1 DUP2 ADD PUSH1 0x40 MSTORE DUP1 SWAP3 SWAP2 SWAP1 DUP2 DUP2 MSTORE PUSH1 0x20 ADD DUP3 DUP1 SLOAD PUSH2 0x1AF SWAP1 PUSH2 0xC27 JUMP JUMPDEST DUP1 ISZERO PUSH2 0x1FA JUMPI DUP1 PUSH1 0x1F LT PUSH2 0x1D1 JUMPI PUSH2 0x100 DUP1 DUP4 SLOAD DIV MUL DUP4 MSTORE SWAP2 PUSH1 0x20 ADD SWAP2 PUSH2 0x1FA JUMP JUMPDEST DUP3 ADD SWAP2 SWAP1 PUSH0 MSTORE PUSH1 0x20 PUSH0 KECCAK256 SWAP1 JUMPDEST DUP2 SLOAD DUP2 MSTORE SWAP1 PUSH1 0x1 ADD SWAP1 PUSH1 0x20 ADD DUP1 DUP4 GT PUSH2 0x1DD JUMPI DUP3 SWAP1 SUB PUSH1 0x1F AND DUP3 ADD SWAP2 JUMPDEST POP POP POP POP POP SWAP1 POP SWAP2 SWAP1 POP JUMP JUMPDEST PUSH2 0x20E PUSH2 0x784 JUMP JUMPDEST PUSH0 DUP1 DUP4 PUSH20 0xFFFFFFFFFFFFFFFFFFFFFFFFFFFFFFFFFFFFFFFF AND PUSH20 0xFFFFFFFFFFFFFFFFFFFFFFFFFFFFFFFFFFFFFFFF AND DUP2 MSTORE PUSH1 0x20 ADD SWAP1 DUP2 MSTORE PUSH1 0x20 ADD PUSH0 KECCAK256 PUSH1 0x40 MLOAD DUP1 PUSH1 0x80 ADD PUSH1 0x40 MSTORE SWAP1 DUP2 PUSH0 DUP3 ADD DUP1 SLOAD PUSH2 0x264 SWAP1 PUSH2 0xC27 JUMP JUMPDEST DUP1 PUSH1 0x1F ADD PUSH1 0x20 DUP1 SWAP2 DIV MUL PUSH1 0x20 ADD PUSH1 0x40 MLOAD SWAP1 DUP2 ADD PUSH1 0x40 MSTORE DUP1 SWAP3 SWAP2 SWAP1 DUP2 DUP2 MSTORE PUSH1 0x20 ADD DUP3 DUP1 SLOAD PUSH2 0x290 SWAP1 PUSH2 0xC27 JUMP JUMPDEST DUP1 ISZERO PUSH2 0x2DB JUMPI DUP1 PUSH1 0x1F LT PUSH2 0x2B2 JUMPI PUSH2 0x100 DUP1 DUP4 SLOAD DIV MUL DUP4 MSTORE SWAP2 PUSH1 0x20 ADD SWAP2 PUSH2 0x2DB JUMP JUMPDEST DUP3 ADD SWAP2 SWAP1 PUSH0 MSTORE PUSH1 0x20 PUSH0 KECCAK256 SWAP1 JUMPDEST DUP2 SLOAD DUP2 MSTORE SWAP1 PUSH1 0x1 ADD SWAP1 PUSH1 0x20 ADD DUP1 DUP4 GT PUSH2 0x2BE JUMPI DUP3 SWAP1 SUB PUSH1 0x1F AND DUP3 ADD SWAP2 JUMPDEST POP POP POP POP POP DUP2 MSTORE PUSH1 0x20 ADD PUSH1 0x1 DUP3 ADD DUP1 SLOAD PUSH2 0x2F4 SWAP1 PUSH2 0xC27 JUMP JUMPDEST DUP1 PUSH1 0x1F ADD PUSH1 0x20 DUP1 SWAP2 DIV MUL PUSH1 0x20 ADD PUSH1 0x40 MLOAD SWAP1 DUP2 ADD PUSH1 0x40 MSTORE DUP1 SWAP3 SWAP2 SWAP1 DUP2 DUP2 MSTORE PUSH1 0x20 ADD DUP3 DUP1 SLOAD PUSH2 0x320 SWAP1 PUSH2 0xC27 JUMP JUMPDEST DUP1 ISZERO PUSH2 0x36B JUMPI DUP1 PUSH1 0x1F LT PUSH2 0x342 JUMPI PUSH2 0x100 DUP1 DUP4 SLOAD DIV MUL DUP4 MSTORE SWAP2 PUSH1 0x20 ADD SWAP2 PUSH2 0x36B JUMP JUMPDEST DUP3 ADD SWAP2 SWAP1 PUSH0 MSTORE PUSH1 0x20 PUSH0 KECCAK256 SWAP1 JUMPDEST DUP2 SLOAD DUP2 MSTORE SWAP1 PUSH1 0x1 ADD SWAP1 PUSH1 0x20 ADD DUP1 DUP4 GT PUSH2 0x34E JUMPI DUP3 SWAP1 SUB PUSH1 0x1F AND DUP3 ADD SWAP2 JUMPDEST POP POP POP POP POP DUP2 MSTORE PUSH1 0x20 ADD PUSH1 0x2 DUP3 ADD DUP1 SLOAD PUSH2 0x384 SWAP1 PUSH2 0xC27 JUMP JUMPDEST DUP1 PUSH1 0x1F ADD PUSH1 0x20 DUP1 SWAP2 DIV MUL PUSH1 0x20 ADD PUSH1 0x40 MLOAD SWAP1 DUP2 ADD PUSH1 0x40 MSTORE DUP1 SWAP3 SWAP2 SWAP1 DUP2 DUP2 MSTORE PUSH1 0x20 ADD DUP3 DUP1 SLOAD PUSH2 0x3B0 SWAP1 PUSH2 0xC27 JUMP JUMPDEST DUP1 ISZERO PUSH2 0x3FB JUMPI DUP1 PUSH1 0x1F LT PUSH2 0x3D2 JUMPI PUSH2 0x100 DUP1 DUP4 SLOAD DIV MUL DUP4 MSTORE SWAP2 PUSH1 0x20 ADD SWAP2 PUSH2 0x3FB JUMP JUMPDEST DUP3 ADD SWAP2 SWAP1 PUSH0 MSTORE PUSH1 0x20 PUSH0 KECCAK256 SWAP1 JUMPDEST DUP2 SLOAD DUP2 MSTORE SWAP1 PUSH1 0x1 ADD SWAP1 PUSH1 0x20 ADD DUP1 DUP4 GT PUSH2 0x3DE JUMPI DUP3 SWAP1 SUB PUSH1 0x1F AND DUP3 ADD SWAP2 JUMPDEST POP POP POP POP POP DUP2 MSTORE PUSH1 0x20 ADD PUSH1 0x3 DUP3 ADD PUSH0 SWAP1 SLOAD SWAP1 PUSH2 0x100 EXP SWAP1 DIV PUSH1 0xFF AND ISZERO ISZERO ISZERO ISZERO DUP2 MSTORE POP POP SWAP1 POP SWAP2 SWAP1 POP JUMP JUMPDEST PUSH1 0x40 MLOAD DUP1 PUSH1 0x80 ADD PUSH1 0x40 MSTORE DUP1 DUP5 DUP2 MSTORE PUSH1 0x20 ADD DUP4 DUP2 MSTORE PUSH1 0x20 ADD DUP3 DUP2 MSTORE PUSH1 0x20 ADD PUSH1 0x1 ISZERO ISZERO DUP2 MSTORE POP PUSH0 DUP1 CALLER PUSH20 0xFFFFFFFFFFFFFFFFFFFFFFFFFFFFFFFFFFFFFFFF AND PUSH20 0xFFFFFFFFFFFFFFFFFFFFFFFFFFFFFFFFFFFFFFFF AND DUP2 MSTORE PUSH1 0x20 ADD SWAP1 DUP2 MSTORE PUSH1 0x20 ADD PUSH0 KECCAK256 PUSH0 DUP3 ADD MLOAD DUP2 PUSH0 ADD SWAP1 DUP2 PUSH2 0x498 SWAP2 SWAP1 PUSH2 0xDFD JUMP JUMPDEST POP PUSH1 0x20 DUP3 ADD MLOAD DUP2 PUSH1 0x1 ADD SWAP1 DUP2 PUSH2 0x4AE SWAP2 SWAP1 PUSH2 0xDFD JUMP JUMPDEST POP PUSH1 0x40 DUP3 ADD MLOAD DUP2 PUSH1 0x2 ADD SWAP1 DUP2 PUSH2 0x4C4 SWAP2 SWAP1 PUSH2 0xDFD JUMP JUMPDEST POP PUSH1 0x60 DUP3 ADD MLOAD DUP2 PUSH1 0x3 ADD PUSH0 PUSH2 0x100 EXP DUP2 SLOAD DUP2 PUSH1 0xFF MUL NOT AND SWAP1 DUP4 ISZERO ISZERO MUL OR SWAP1 SSTORE POP SWAP1 POP POP POP POP POP JUMP JUMPDEST PUSH0 PUSH1 0x20 MSTORE DUP1 PUSH0 MSTORE PUSH1 0x40 PUSH0 KECCAK256 PUSH0 SWAP2 POP SWAP1 POP DUP1 PUSH0 ADD DUP1 SLOAD PUSH2 0x50A SWAP1 PUSH2 0xC27 JUMP JUMPDEST DUP1 PUSH1 0x1F ADD PUSH1 0x20 DUP1 SWAP2 DIV MUL PUSH1 0x20 ADD PUSH1 0x40 MLOAD SWAP1 DUP2 ADD PUSH1 0x40 MSTORE DUP1 SWAP3 SWAP2 SWAP1 DUP2 DUP2 MSTORE PUSH1 0x20 ADD DUP3 DUP1 SLOAD PUSH2 0x536 SWAP1 PUSH2 0xC27 JUMP JUMPDEST DUP1 ISZERO PUSH2 0x581 JUMPI DUP1 PUSH1 0x1F LT PUSH2 0x558 JUMPI PUSH2 0x100 DUP1 DUP4 SLOAD DIV MUL DUP4 MSTORE SWAP2 PUSH1 0x20 ADD SWAP2 PUSH2 0x581 JUMP JUMPDEST DUP3 ADD SWAP2 SWAP1 PUSH0 MSTORE PUSH1 0x20 PUSH0 KECCAK256 SWAP1 JUMPDEST DUP2 SLOAD DUP2 MSTORE SWAP1 PUSH1 0x1 ADD SWAP1 PUSH1 0x20 ADD DUP1 DUP4 GT PUSH2 0x564 JUMPI DUP3 SWAP1 SUB PUSH1 0x1F AND DUP3 ADD SWAP2 JUMPDEST POP POP POP POP POP SWAP1 DUP1 PUSH1 0x1 ADD DUP1 SLOAD PUSH2 0x596 SWAP1 PUSH2 0xC27 JUMP JUMPDEST DUP1 PUSH1 0x1F ADD PUSH1 0x20 DUP1 SWAP2 DIV MUL PUSH1 0x20 ADD PUSH1 0x40 MLOAD SWAP1 DUP2 ADD PUSH1 0x40 MSTORE DUP1 SWAP3 SWAP2 SWAP1 DUP2 DUP2 MSTORE PUSH1 0x20 ADD DUP3 DUP1 SLOAD PUSH2 0x5C2 SWAP1 PUSH2 0xC27 JUMP JUMPDEST DUP1 ISZERO PUSH2 0x60D JUMPI DUP1 PUSH1 0x1F LT PUSH2 0x5E4 JUMPI PUSH2 0x100 DUP1 DUP4 SLOAD DIV MUL DUP4 MSTORE SWAP2 PUSH1 0x20 ADD SWAP2 PUSH2 0x60D JUMP JUMPDEST DUP3 ADD SWAP2 SWAP1 PUSH0 MSTORE PUSH1 0x20 PUSH0 KECCAK256 SWAP1 JUMPDEST DUP2 SLOAD DUP2 MSTORE SWAP1 PUSH1 0x1 ADD SWAP1 PUSH1 0x20 ADD DUP1 DUP4 GT PUSH2 0x5F0 JUMPI DUP3 SWAP1 SUB PUSH1 0x1F AND DUP3 ADD SWAP2 JUMPDEST POP POP POP POP POP SWAP1 DUP1 PUSH1 0x2 ADD DUP1 SLOAD PUSH2 0x622 SWAP1 PUSH2 0xC27 JUMP JUMPDEST DUP1 PUSH1 0x1F ADD PUSH1 0x20 DUP1 SWAP2 DIV MUL PUSH1 0x20 ADD PUSH1 0x40 MLOAD SWAP1 DUP2 ADD PUSH1 0x40 MSTORE DUP1 SWAP3 SWAP2 SWAP1 DUP2 DUP2 MSTORE PUSH1 0x20 ADD DUP3 DUP1 SLOAD PUSH2 0x64E SWAP1 PUSH2 0xC27 JUMP JUMPDEST DUP1 ISZERO PUSH2 0x699 JUMPI DUP1 PUSH1 0x1F LT PUSH2 0x670 JUMPI PUSH2 0x100 DUP1 DUP4 SLOAD DIV MUL DUP4 MSTORE SWAP2 PUSH1 0x20 ADD SWAP2 PUSH2 0x699 JUMP JUMPDEST DUP3 ADD SWAP2 SWAP1 PUSH0 MSTORE PUSH1 0x20 PUSH0 KECCAK256 SWAP1 JUMPDEST DUP2 SLOAD DUP2 MSTORE SWAP1 PUSH1 0x1 ADD SWAP1 PUSH1 0x20 ADD DUP1 DUP4 GT PUSH2 0x67C JUMPI DUP3 SWAP1 SUB PUSH1 0x1F AND DUP3 ADD SWAP2 JUMPDEST POP POP POP POP POP SWAP1 DUP1 PUSH1 0x3 ADD PUSH0 SWAP1 SLOAD SWAP1 PUSH2 0x100 EXP SWAP1 DIV PUSH1 0xFF AND SWAP1 POP DUP5 JUMP JUMPDEST PUSH1 0x60 PUSH0 DUP1 DUP4 PUSH20 0xFFFFFFFFFFFFFFFFFFFFFFFFFFFFFFFFFFFFFFFF AND PUSH20 0xFFFFFFFFFFFFFFFFFFFFFFFFFFFFFFFFFFFFFFFF AND DUP2 MSTORE PUSH1 0x20 ADD SWAP1 DUP2 MSTORE PUSH1 0x20 ADD PUSH0 KECCAK256 PUSH1 0x2 ADD DUP1 SLOAD PUSH2 0x701 SWAP1 PUSH2 0xC27 JUMP JUMPDEST DUP1 PUSH1 0x1F ADD PUSH1 0x20 DUP1 SWAP2 DIV MUL PUSH1 0x20 ADD PUSH1 0x40 MLOAD SWAP1 DUP2 ADD PUSH1 0x40 MSTORE DUP1 SWAP3 SWAP2 SWAP1 DUP2 DUP2 MSTORE PUSH1 0x20 ADD DUP3 DUP1 SLOAD PUSH2 0x72D SWAP1 PUSH2 0xC27 JUMP JUMPDEST DUP1 ISZERO PUSH2 0x778 JUMPI DUP1 PUSH1 0x1F LT PUSH2 0x74F JUMPI PUSH2 0x100 DUP1 DUP4 SLOAD DIV MUL DUP4 MSTORE SWAP2 PUSH1 0x20 ADD SWAP2 PUSH2 0x778 JUMP JUMPDEST DUP3 ADD SWAP2 SWAP1 PUSH0 MSTORE PUSH1 0x20 PUSH0 KECCAK256 SWAP1 JUMPDEST DUP2 SLOAD DUP2 MSTORE SWAP1 PUSH1 0x1 ADD SWAP1 PUSH1 0x20 ADD DUP1 DUP4 GT PUSH2 0x75B JUMPI DUP3 SWAP1 SUB PUSH1 0x1F AND DUP3 ADD SWAP2 JUMPDEST POP POP POP POP POP SWAP1 POP SWAP2 SWAP1 POP JUMP JUMPDEST PUSH1 0x40 MLOAD DUP1 PUSH1 0x80 ADD PUSH1 0x40 MSTORE DUP1 PUSH1 0x60 DUP2 MSTORE PUSH1 0x20 ADD PUSH1 0x60 DUP2 MSTORE PUSH1 0x20 ADD PUSH1 0x60 DUP2 MSTORE PUSH1 0x20 ADD PUSH0 ISZERO ISZERO DUP2 MSTORE POP SWAP1 JUMP JUMPDEST PUSH0 PUSH1 0x40 MLOAD SWAP1 POP SWAP1 JUMP JUMPDEST PUSH0 DUP1 REVERT JUMPDEST PUSH0 DUP1 REVERT JUMPDEST PUSH0 PUSH20 0xFFFFFFFFFFFFFFFFFFFFFFFFFFFFFFFFFFFFFFFF DUP3 AND SWAP1 POP SWAP2 SWAP1 POP JUMP JUMPDEST PUSH0 PUSH2 0x7E7 DUP3 PUSH2 0x7BE JUMP JUMPDEST SWAP1 POP SWAP2 SWAP1 POP JUMP JUMPDEST PUSH2 0x7F7 DUP2 PUSH2 0x7DD JUMP JUMPDEST DUP2 EQ PUSH2 0x801 JUMPI PUSH0 DUP1 REVERT JUMPDEST POP JUMP JUMPDEST PUSH0 DUP2 CALLDATALOAD SWAP1 POP PUSH2 0x812 DUP2 PUSH2 0x7EE JUMP JUMPDEST SWAP3 SWAP2 POP POP JUMP JUMPDEST PUSH0 PUSH1 0x20 DUP3 DUP5 SUB SLT ISZERO PUSH2 0x82D JUMPI PUSH2 0x82C PUSH2 0x7B6 JUMP JUMPDEST JUMPDEST PUSH0 PUSH2 0x83A DUP5 DUP3 DUP6 ADD PUSH2 0x804 JUMP JUMPDEST SWAP2 POP POP SWAP3 SWAP2 POP POP JUMP JUMPDEST PUSH0 DUP2 MLOAD SWAP1 POP SWAP2 SWAP1 POP JUMP JUMPDEST PUSH0 DUP3 DUP3 MSTORE PUSH1 0x20 DUP3 ADD SWAP1 POP SWAP3 SWAP2 POP POP JUMP JUMPDEST DUP3 DUP2 DUP4 MCOPY PUSH0 DUP4 DUP4 ADD MSTORE POP POP POP JUMP JUMPDEST PUSH0 PUSH1 0x1F NOT PUSH1 0x1F DUP4 ADD AND SWAP1 POP SWAP2 SWAP1 POP JUMP JUMPDEST PUSH0 PUSH2 0x885 DUP3 PUSH2 0x843 JUMP JUMPDEST PUSH2 0x88F DUP2 DUP6 PUSH2 0x84D JUMP JUMPDEST SWAP4 POP PUSH2 0x89F DUP2 DUP6 PUSH1 0x20 DUP7 ADD PUSH2 0x85D JUMP JUMPDEST PUSH2 0x8A8 DUP2 PUSH2 0x86B JUMP JUMPDEST DUP5 ADD SWAP2 POP POP SWAP3 SWAP2 POP POP JUMP JUMPDEST PUSH0 PUSH1 0x20 DUP3 ADD SWAP1 POP DUP2 DUP2 SUB PUSH0 DUP4 ADD MSTORE PUSH2 0x8CB DUP2 DUP5 PUSH2 0x87B JUMP JUMPDEST SWAP1 POP SWAP3 SWAP2 POP POP JUMP JUMPDEST PUSH0 DUP3 DUP3 MSTORE PUSH1 0x20 DUP3 ADD SWAP1 POP SWAP3 SWAP2 POP POP JUMP JUMPDEST PUSH0 PUSH2 0x8ED DUP3 PUSH2 0x843 JUMP JUMPDEST PUSH2 0x8F7 DUP2 DUP6 PUSH2 0x8D3 JUMP JUMPDEST SWAP4 POP PUSH2 0x907 DUP2 DUP6 PUSH1 0x20 DUP7 ADD PUSH2 0x85D JUMP JUMPDEST PUSH2 0x910 DUP2 PUSH2 0x86B JUMP JUMPDEST DUP5 ADD SWAP2 POP POP SWAP3 SWAP2 POP POP JUMP JUMPDEST PUSH0 DUP2 ISZERO ISZERO SWAP1 POP SWAP2 SWAP1 POP JUMP JUMPDEST PUSH2 0x92F DUP2 PUSH2 0x91B JUMP JUMPDEST DUP3 MSTORE POP POP JUMP JUMPDEST PUSH0 PUSH1 0x80 DUP4 ADD PUSH0 DUP4 ADD MLOAD DUP5 DUP3 SUB PUSH0 DUP7 ADD MSTORE PUSH2 0x94F DUP3 DUP3 PUSH2 0x8E3 JUMP JUMPDEST SWAP2 POP POP PUSH1 0x20 DUP4 ADD MLOAD DUP5 DUP3 SUB PUSH1 0x20 DUP7 ADD MSTORE PUSH2 0x969 DUP3 DUP3 PUSH2 0x8E3 JUMP JUMPDEST SWAP2 POP POP PUSH1 0x40 DUP4 ADD MLOAD DUP5 DUP3 SUB PUSH1 0x40 DUP7 ADD MSTORE PUSH2 0x983 DUP3 DUP3 PUSH2 0x8E3 JUMP JUMPDEST SWAP2 POP POP PUSH1 0x60 DUP4 ADD MLOAD PUSH2 0x998 PUSH1 0x60 DUP7 ADD DUP3 PUSH2 0x926 JUMP JUMPDEST POP DUP1 SWAP2 POP POP SWAP3 SWAP2 POP POP JUMP JUMPDEST PUSH0 PUSH1 0x20 DUP3 ADD SWAP1 POP DUP2 DUP2 SUB PUSH0 DUP4 ADD MSTORE PUSH2 0x9BB DUP2 DUP5 PUSH2 0x935 JUMP JUMPDEST SWAP1 POP SWAP3 SWAP2 POP POP JUMP JUMPDEST PUSH0 DUP1 REVERT JUMPDEST PUSH0 DUP1 REVERT JUMPDEST PUSH32 0x4E487B7100000000000000000000000000000000000000000000000000000000 PUSH0 MSTORE PUSH1 0x41 PUSH1 0x4 MSTORE PUSH1 0x24 PUSH0 REVERT JUMPDEST PUSH2 0xA01 DUP3 PUSH2 0x86B JUMP JUMPDEST DUP2 ADD DUP2 DUP2 LT PUSH8 0xFFFFFFFFFFFFFFFF DUP3 GT OR ISZERO PUSH2 0xA20 JUMPI PUSH2 0xA1F PUSH2 0x9CB JUMP JUMPDEST JUMPDEST DUP1 PUSH1 0x40 MSTORE POP POP POP JUMP JUMPDEST PUSH0 PUSH2 0xA32 PUSH2 0x7AD JUMP JUMPDEST SWAP1 POP PUSH2 0xA3E DUP3 DUP3 PUSH2 0x9F8 JUMP JUMPDEST SWAP2 SWAP1 POP JUMP JUMPDEST PUSH0 PUSH8 0xFFFFFFFFFFFFFFFF DUP3 GT ISZERO PUSH2 0xA5D JUMPI PUSH2 0xA5C PUSH2 0x9CB JUMP JUMPDEST JUMPDEST PUSH2 0xA66 DUP3 PUSH2 0x86B JUMP JUMPDEST SWAP1 POP PUSH1 0x20 DUP2 ADD SWAP1 POP SWAP2 SWAP1 POP JUMP JUMPDEST DUP3 DUP2 DUP4 CALLDATACOPY PUSH0 DUP4 DUP4 ADD MSTORE POP POP POP JUMP JUMPDEST PUSH0 PUSH2 0xA93 PUSH2 0xA8E DUP5 PUSH2 0xA43 JUMP JUMPDEST PUSH2 0xA29 JUMP JUMPDEST SWAP1 POP DUP3 DUP2 MSTORE PUSH1 0x20 DUP2 ADD DUP5 DUP5 DUP5 ADD GT ISZERO PUSH2 0xAAF JUMPI PUSH2 0xAAE PUSH2 0x9C7 JUMP JUMPDEST JUMPDEST PUSH2 0xABA DUP5 DUP3 DUP6 PUSH2 0xA73 JUMP JUMPDEST POP SWAP4 SWAP3 POP POP POP JUMP JUMPDEST PUSH0 DUP3 PUSH1 0x1F DUP4 ADD SLT PUSH2 0xAD6 JUMPI PUSH2 0xAD5 PUSH2 0x9C3 JUMP JUMPDEST JUMPDEST DUP2 CALLDATALOAD PUSH2 0xAE6 DUP5 DUP3 PUSH1 0x20 DUP7 ADD PUSH2 0xA81 JUMP JUMPDEST SWAP2 POP POP SWAP3 SWAP2 POP POP JUMP JUMPDEST PUSH0 DUP1 PUSH0 PUSH1 0x60 DUP5 DUP7 SUB SLT ISZERO PUSH2 0xB06 JUMPI PUSH2 0xB05 PUSH2 0x7B6 JUMP JUMPDEST JUMPDEST PUSH0 DUP5 ADD CALLDATALOAD PUSH8 0xFFFFFFFFFFFFFFFF DUP2 GT ISZERO PUSH2 0xB23 JUMPI PUSH2 0xB22 PUSH2 0x7BA JUMP JUMPDEST JUMPDEST PUSH2 0xB2F DUP7 DUP3 DUP8 ADD PUSH2 0xAC2 JUMP JUMPDEST SWAP4 POP POP PUSH1 0x20 DUP5 ADD CALLDATALOAD PUSH8 0xFFFFFFFFFFFFFFFF DUP2 GT ISZERO PUSH2 0xB50 JUMPI PUSH2 0xB4F PUSH2 0x7BA JUMP JUMPDEST JUMPDEST PUSH2 0xB5C DUP7 DUP3 DUP8 ADD PUSH2 0xAC2 JUMP JUMPDEST SWAP3 POP POP PUSH1 0x40 DUP5 ADD CALLDATALOAD PUSH8 0xFFFFFFFFFFFFFFFF DUP2 GT ISZERO PUSH2 0xB7D JUMPI PUSH2 0xB7C PUSH2 0x7BA JUMP JUMPDEST JUMPDEST PUSH2 0xB89 DUP7 DUP3 DUP8 ADD PUSH2 0xAC2 JUMP JUMPDEST SWAP2 POP POP SWAP3 POP SWAP3 POP SWAP3 JUMP JUMPDEST PUSH2 0xB9C DUP2 PUSH2 0x91B JUMP JUMPDEST DUP3 MSTORE POP POP JUMP JUMPDEST PUSH0 PUSH1 0x80 DUP3 ADD SWAP1 POP DUP2 DUP2 SUB PUSH0 DUP4 ADD MSTORE PUSH2 0xBBA DUP2 DUP8 PUSH2 0x87B JUMP JUMPDEST SWAP1 POP DUP2 DUP2 SUB PUSH1 0x20 DUP4 ADD MSTORE PUSH2 0xBCE DUP2 DUP7 PUSH2 0x87B JUMP JUMPDEST SWAP1 POP DUP2 DUP2 SUB PUSH1 0x40 DUP4 ADD MSTORE PUSH2 0xBE2 DUP2 DUP6 PUSH2 0x87B JUMP JUMPDEST SWAP1 POP PUSH2 0xBF1 PUSH1 0x60 DUP4 ADD DUP5 PUSH2 0xB93 JUMP JUMPDEST SWAP6 SWAP5 POP POP POP POP POP JUMP JUMPDEST PUSH32 0x4E487B7100000000000000000000000000000000000000000000000000000000 PUSH0 MSTORE PUSH1 0x22 PUSH1 0x4 MSTORE PUSH1 0x24 PUSH0 REVERT JUMPDEST PUSH0 PUSH1 0x2 DUP3 DIV SWAP1 POP PUSH1 0x1 DUP3 AND DUP1 PUSH2 0xC3E JUMPI PUSH1 0x7F DUP3 AND SWAP2 POP JUMPDEST PUSH1 0x20 DUP3 LT DUP2 SUB PUSH2 0xC51 JUMPI PUSH2 0xC50 PUSH2 0xBFA JUMP JUMPDEST JUMPDEST POP SWAP2 SWAP1 POP JUMP JUMPDEST PUSH0 DUP2 SWAP1 POP DUP2 PUSH0 MSTORE PUSH1 0x20 PUSH0 KECCAK256 SWAP1 POP SWAP2 SWAP1 POP JUMP JUMPDEST PUSH0 PUSH1 0x20 PUSH1 0x1F DUP4 ADD DIV SWAP1 POP SWAP2 SWAP1 POP JUMP JUMPDEST PUSH0 DUP3 DUP3 SHL SWAP1 POP SWAP3 SWAP2 POP POP JUMP JUMPDEST PUSH0 PUSH1 0x8 DUP4 MUL PUSH2 0xCB3 PUSH32 0xFFFFFFFFFFFFFFFFFFFFFFFFFFFFFFFFFFFFFFFFFFFFFFFFFFFFFFFFFFFFFFFF DUP3 PUSH2 0xC78 JUMP JUMPDEST PUSH2 0xCBD DUP7 DUP4 PUSH2 0xC78 JUMP JUMPDEST SWAP6 POP DUP1 NOT DUP5 AND SWAP4 POP DUP1 DUP7 AND DUP5 OR SWAP3 POP POP POP SWAP4 SWAP3 POP POP POP JUMP JUMPDEST PUSH0 DUP2 SWAP1 POP SWAP2 SWAP1 POP JUMP JUMPDEST PUSH0 DUP2 SWAP1 POP SWAP2 SWAP1 POP JUMP JUMPDEST PUSH0 PUSH2 0xD01 PUSH2 0xCFC PUSH2 0xCF7 DUP5 PUSH2 0xCD5 JUMP JUMPDEST PUSH2 0xCDE JUMP JUMPDEST PUSH2 0xCD5 JUMP JUMPDEST SWAP1 POP SWAP2 SWAP1 POP JUMP JUMPDEST PUSH0 DUP2 SWAP1 POP SWAP2 SWAP1 POP JUMP JUMPDEST PUSH2 0xD1A DUP4 PUSH2 0xCE7 JUMP JUMPDEST PUSH2 0xD2E PUSH2 0xD26 DUP3 PUSH2 0xD08 JUMP JUMPDEST DUP5 DUP5 SLOAD PUSH2 0xC84 JUMP JUMPDEST DUP3 SSTORE POP POP POP POP JUMP JUMPDEST PUSH0 SWAP1 JUMP JUMPDEST PUSH2 0xD42 PUSH2 0xD36 JUMP JUMPDEST PUSH2 0xD4D DUP2 DUP5 DUP5 PUSH2 0xD11 JUMP JUMPDEST POP POP POP JUMP JUMPDEST JUMPDEST DUP2 DUP2 LT ISZERO PUSH2 0xD70 JUMPI PUSH2 0xD65 PUSH0 DUP3 PUSH2 0xD3A JUMP JUMPDEST PUSH1 0x1 DUP2 ADD SWAP1 POP PUSH2 0xD53 JUMP JUMPDEST POP POP JUMP JUMPDEST PUSH1 0x1F DUP3 GT ISZERO PUSH2 0xDB5 JUMPI PUSH2 0xD86 DUP2 PUSH2 0xC57 JUMP JUMPDEST PUSH2 0xD8F DUP5 PUSH2 0xC69 JUMP JUMPDEST DUP2 ADD PUSH1 0x20 DUP6 LT ISZERO PUSH2 0xD9E JUMPI DUP2 SWAP1 POP JUMPDEST PUSH2 0xDB2 PUSH2 0xDAA DUP6 PUSH2 0xC69 JUMP JUMPDEST DUP4 ADD DUP3 PUSH2 0xD52 JUMP JUMPDEST POP POP JUMPDEST POP POP POP JUMP JUMPDEST PUSH0 DUP3 DUP3 SHR SWAP1 POP SWAP3 SWAP2 POP POP JUMP JUMPDEST PUSH0 PUSH2 0xDD5 PUSH0 NOT DUP5 PUSH1 0x8 MUL PUSH2 0xDBA JUMP JUMPDEST NOT DUP1 DUP4 AND SWAP2 POP POP SWAP3 SWAP2 POP POP JUMP JUMPDEST PUSH0 PUSH2 0xDED DUP4 DUP4 PUSH2 0xDC6 JUMP JUMPDEST SWAP2 POP DUP3 PUSH1 0x2 MUL DUP3 OR SWAP1 POP SWAP3 SWAP2 POP POP JUMP JUMPDEST PUSH2 0xE06 DUP3 PUSH2 0x843 JUMP JUMPDEST PUSH8 0xFFFFFFFFFFFFFFFF DUP2 GT ISZERO PUSH2 0xE1F JUMPI PUSH2 0xE1E PUSH2 0x9CB JUMP JUMPDEST JUMPDEST PUSH2 0xE29 DUP3 SLOAD PUSH2 0xC27 JUMP JUMPDEST PUSH2 0xE34 DUP3 DUP3 DUP6 PUSH2 0xD74 JUMP JUMPDEST PUSH0 PUSH1 0x20 SWAP1 POP PUSH1 0x1F DUP4 GT PUSH1 0x1 DUP2 EQ PUSH2 0xE65 JUMPI PUSH0 DUP5 ISZERO PUSH2 0xE53 JUMPI DUP3 DUP8 ADD MLOAD SWAP1 POP JUMPDEST PUSH2 0xE5D DUP6 DUP3 PUSH2 0xDE2 JUMP JUMPDEST DUP7 SSTORE POP PUSH2 0xEC4 JUMP JUMPDEST PUSH1 0x1F NOT DUP5 AND PUSH2 0xE73 DUP7 PUSH2 0xC57 JUMP JUMPDEST PUSH0 JUMPDEST DUP3 DUP2 LT ISZERO PUSH2 0xE9A JUMPI DUP5 DUP10 ADD MLOAD DUP3 SSTORE PUSH1 0x1 DUP3 ADD SWAP2 POP PUSH1 0x20 DUP6 ADD SWAP5 POP PUSH1 0x20 DUP2 ADD SWAP1 POP PUSH2 0xE75 JUMP JUMPDEST DUP7 DUP4 LT ISZERO PUSH2 0xEB7 JUMPI DUP5 DUP10 ADD MLOAD PUSH2 0xEB3 PUSH1 0x1F DUP10 AND DUP3 PUSH2 0xDC6 JUMP JUMPDEST DUP4 SSTORE POP JUMPDEST PUSH1 0x1 PUSH1 0x2 DUP9 MUL ADD DUP9 SSTORE POP POP POP JUMPDEST POP POP POP POP POP POP JUMP INVALID LOG2 PUSH5 0x6970667358 0x22 SLT KECCAK256 SWAP16 NUMBER PUSH7 0xB5271C26D68AA2 ADDRESS 0xC9 PUSH19 0xB072A7B6607CCF895794EF41759A82D7BB5C35 PUSH5 0x736F6C6343 STOP ADDMOD BYTE STOP CALLER "
				},
				"gasEstimates": {
					"creation": {
						"codeDepositCost": "768400",
						"executionCost": "803",
						"totalCost": "769203"
					},
					"external": {
						"getImgProfile(address)": "infinite",
						"getProfile(address)": "infinite",
						"getUsernameProfile(address)": "infinite",
						"profile(address)": "infinite",
						"setProfile(string,string,string)": "infinite"
					}
				},
				"methodIdentifiers": {
					"getImgProfile(address)": "a2e84e6e",
					"getProfile(address)": "0f53a470",
					"getUsernameProfile(address)": "04386432",
					"profile(address)": "9dd9d0fd",
					"setProfile(string,string,string)": "52640314"
				}
			},
			"storageLayout": {
				"storage": [
					{
						"astId": 15,
						"contract": "contracts/PetisiProfile.sol:PetisiProfile",
						"label": "profile",
						"offset": 0,
						"slot": "0",
						"type": "t_mapping(t_address,t_struct(UserProfile)10_storage)"
					}
				],
				"types": {
					"t_address": {
						"encoding": "inplace",
						"label": "address",
						"numberOfBytes": "20"
					},
					"t_bool": {
						"encoding": "inplace",
						"label": "bool",
						"numberOfBytes": "1"
					},
					"t_mapping(t_address,t_struct(UserProfile)10_storage)": {
						"encoding": "mapping",
						"key": "t_address",
						"label": "mapping(address => struct PetisiProfile.UserProfile)",
						"numberOfBytes": "32",
						"value": "t_struct(UserProfile)10_storage"
					},
					"t_string_storage": {
						"encoding": "bytes",
						"label": "string",
						"numberOfBytes": "32"
					},
					"t_struct(UserProfile)10_storage": {
						"encoding": "inplace",
						"label": "struct PetisiProfile.UserProfile",
						"members": [
							{
								"astId": 3,
								"contract": "contracts/PetisiProfile.sol:PetisiProfile",
								"label": "username",
								"offset": 0,
								"slot": "0",
								"type": "t_string_storage"
							},
							{
								"astId": 5,
								"contract": "contracts/PetisiProfile.sol:PetisiProfile",
								"label": "bio",
								"offset": 0,
								"slot": "1",
								"type": "t_string_storage"
							},
							{
								"astId": 7,
								"contract": "contracts/PetisiProfile.sol:PetisiProfile",
								"label": "imgProfile",
								"offset": 0,
								"slot": "2",
								"type": "t_string_storage"
							},
							{
								"astId": 9,
								"contract": "contracts/PetisiProfile.sol:PetisiProfile",
								"label": "isRegistered",
								"offset": 0,
								"slot": "3",
								"type": "t_bool"
							}
						],
						"numberOfBytes": "128"
					}
				}
			},
			"userdoc": {
				"kind": "user",
				"methods": {},
				"version": 1
			}
		}
	}
}