{
	"contracts/Petisi.sol": {
		"Petisi": {
			"abi": [
				{
					"inputs": [
						{
							"internalType": "address",
							"name": "_profileContract",
							"type": "address"
						}
					],
					"stateMutability": "nonpayable",
					"type": "constructor"
				},
				{
					"inputs": [
						{
							"internalType": "address",
							"name": "owner",
							"type": "address"
						}
					],
					"name": "OwnableInvalidOwner",
					"type": "error"
				},
				{
					"inputs": [
						{
							"internalType": "address",
							"name": "account",
							"type": "address"
						}
					],
					"name": "OwnableUnauthorizedAccount",
					"type": "error"
				},
				{
					"anonymous": false,
					"inputs": [
						{
							"indexed": true,
							"internalType": "address",
							"name": "previousOwner",
							"type": "address"
						},
						{
							"indexed": true,
							"internalType": "address",
							"name": "newOwner",
							"type": "address"
						}
					],
					"name": "OwnershipTransferred",
					"type": "event"
				},
				{
					"anonymous": false,
					"inputs": [
						{
							"indexed": false,
							"internalType": "bool",
							"name": "_isVoted",
							"type": "bool"
						}
					],
					"name": "SignSuccess",
					"type": "event"
				},
				{
					"anonymous": false,
					"inputs": [
						{
							"indexed": false,
							"internalType": "uint256",
							"name": "id",
							"type": "uint256"
						},
						{
							"indexed": false,
							"internalType": "string",
							"name": "title",
							"type": "string"
						},
						{
							"indexed": false,
							"internalType": "string",
							"name": "description",
							"type": "string"
						},
						{
							"indexed": false,
							"internalType": "uint256",
							"name": "votes",
							"type": "uint256"
						},
						{
							"indexed": false,
							"internalType": "string",
							"name": "_imgUrl",
							"type": "string"
						},
						{
							"indexed": false,
							"internalType": "uint256",
							"name": "_deadline",
							"type": "uint256"
						},
						{
							"indexed": false,
							"internalType": "address",
							"name": "author",
							"type": "address"
						}
					],
					"name": "proposalCreated",
					"type": "event"
				},
				{
					"inputs": [
						{
							"internalType": "string",
							"name": "_title",
							"type": "string"
						},
						{
							"internalType": "string",
							"name": "_description",
							"type": "string"
						},
						{
							"internalType": "string",
							"name": "_imgUrl",
							"type": "string"
						},
						{
							"internalType": "uint256",
							"name": "_deadline",
							"type": "uint256"
						}
					],
					"name": "createProposal",
					"outputs": [],
					"stateMutability": "nonpayable",
					"type": "function"
				},
				{
					"inputs": [],
					"name": "gerAllProposal",
					"outputs": [
						{
							"components": [
								{
									"internalType": "uint256",
									"name": "id",
									"type": "uint256"
								},
								{
									"internalType": "string",
									"name": "title",
									"type": "string"
								},
								{
									"internalType": "string",
									"name": "description",
									"type": "string"
								},
								{
									"internalType": "uint256",
									"name": "votes",
									"type": "uint256"
								},
								{
									"internalType": "string",
									"name": "imgUrl",
									"type": "string"
								},
								{
									"internalType": "uint256",
									"name": "deadline",
									"type": "uint256"
								},
								{
									"internalType": "address",
									"name": "author",
									"type": "address"
								},
								{
									"internalType": "string",
									"name": "usernameAuthor",
									"type": "string"
								},
								{
									"internalType": "string",
									"name": "imgAuthore",
									"type": "string"
								},
								{
									"internalType": "uint256",
									"name": "created",
									"type": "uint256"
								}
							],
							"internalType": "struct Petisi.Proposal[]",
							"name": "",
							"type": "tuple[]"
						}
					],
					"stateMutability": "view",
					"type": "function"
				},
				{
					"inputs": [
						{
							"internalType": "address",
							"name": "_user",
							"type": "address"
						}
					],
					"name": "getMyProposal",
					"outputs": [
						{
							"components": [
								{
									"internalType": "uint256",
									"name": "id",
									"type": "uint256"
								},
								{
									"internalType": "string",
									"name": "title",
									"type": "string"
								},
								{
									"internalType": "string",
									"name": "description",
									"type": "string"
								},
								{
									"internalType": "uint256",
									"name": "votes",
									"type": "uint256"
								},
								{
									"internalType": "string",
									"name": "imgUrl",
									"type": "string"
								},
								{
									"internalType": "uint256",
									"name": "deadline",
									"type": "uint256"
								},
								{
									"internalType": "address",
									"name": "author",
									"type": "address"
								},
								{
									"internalType": "string",
									"name": "usernameAuthor",
									"type": "string"
								},
								{
									"internalType": "string",
									"name": "imgAuthore",
									"type": "string"
								},
								{
									"internalType": "uint256",
									"name": "created",
									"type": "uint256"
								}
							],
							"internalType": "struct Petisi.Proposal[]",
							"name": "",
							"type": "tuple[]"
						}
					],
					"stateMutability": "view",
					"type": "function"
				},
				{
					"inputs": [
						{
							"internalType": "uint256",
							"name": "_id",
							"type": "uint256"
						}
					],
					"name": "getProposal",
					"outputs": [
						{
							"components": [
								{
									"internalType": "uint256",
									"name": "id",
									"type": "uint256"
								},
								{
									"internalType": "string",
									"name": "title",
									"type": "string"
								},
								{
									"internalType": "string",
									"name": "description",
									"type": "string"
								},
								{
									"internalType": "uint256",
									"name": "votes",
									"type": "uint256"
								},
								{
									"internalType": "string",
									"name": "imgUrl",
									"type": "string"
								},
								{
									"internalType": "uint256",
									"name": "deadline",
									"type": "uint256"
								},
								{
									"internalType": "address",
									"name": "author",
									"type": "address"
								},
								{
									"internalType": "string",
									"name": "usernameAuthor",
									"type": "string"
								},
								{
									"internalType": "string",
									"name": "imgAuthore",
									"type": "string"
								},
								{
									"internalType": "uint256",
									"name": "created",
									"type": "uint256"
								}
							],
							"internalType": "struct Petisi.Proposal",
							"name": "",
							"type": "tuple"
						}
					],
					"stateMutability": "view",
					"type": "function"
				},
				{
					"inputs": [
						{
							"internalType": "uint256",
							"name": "_id",
							"type": "uint256"
						}
					],
					"name": "getSigner",
					"outputs": [
						{
							"internalType": "address[]",
							"name": "",
							"type": "address[]"
						}
					],
					"stateMutability": "view",
					"type": "function"
				},
				{
					"inputs": [
						{
							"internalType": "uint256",
							"name": "",
							"type": "uint256"
						},
						{
							"internalType": "address",
							"name": "",
							"type": "address"
						}
					],
					"name": "hasvoted",
					"outputs": [
						{
							"internalType": "bool",
							"name": "",
							"type": "bool"
						}
					],
					"stateMutability": "view",
					"type": "function"
				},
				{
					"inputs": [
						{
							"internalType": "address",
							"name": "",
							"type": "address"
						},
						{
							"internalType": "uint256",
							"name": "",
							"type": "uint256"
						}
					],
					"name": "myProposal",
					"outputs": [
						{
							"internalType": "uint256",
							"name": "id",
							"type": "uint256"
						},
						{
							"internalType": "string",
							"name": "title",
							"type": "string"
						},
						{
							"internalType": "string",
							"name": "description",
							"type": "string"
						},
						{
							"internalType": "uint256",
							"name": "votes",
							"type": "uint256"
						},
						{
							"internalType": "string",
							"name": "imgUrl",
							"type": "string"
						},
						{
							"internalType": "uint256",
							"name": "deadline",
							"type": "uint256"
						},
						{
							"internalType": "address",
							"name": "author",
							"type": "address"
						},
						{
							"internalType": "string",
							"name": "usernameAuthor",
							"type": "string"
						},
						{
							"internalType": "string",
							"name": "imgAuthore",
							"type": "string"
						},
						{
							"internalType": "uint256",
							"name": "created",
							"type": "uint256"
						}
					],
					"stateMutability": "view",
					"type": "function"
				},
				{
					"inputs": [],
					"name": "owner",
					"outputs": [
						{
							"internalType": "address",
							"name": "",
							"type": "address"
						}
					],
					"stateMutability": "view",
					"type": "function"
				},
				{
					"inputs": [
						{
							"internalType": "uint256",
							"name": "",
							"type": "uint256"
						}
					],
					"name": "proposalList",
					"outputs": [
						{
							"internalType": "uint256",
							"name": "id",
							"type": "uint256"
						},
						{
							"internalType": "string",
							"name": "title",
							"type": "string"
						},
						{
							"internalType": "string",
							"name": "description",
							"type": "string"
						},
						{
							"internalType": "uint256",
							"name": "votes",
							"type": "uint256"
						},
						{
							"internalType": "string",
							"name": "imgUrl",
							"type": "string"
						},
						{
							"internalType": "uint256",
							"name": "deadline",
							"type": "uint256"
						},
						{
							"internalType": "address",
							"name": "author",
							"type": "address"
						},
						{
							"internalType": "string",
							"name": "usernameAuthor",
							"type": "string"
						},
						{
							"internalType": "string",
							"name": "imgAuthore",
							"type": "string"
						},
						{
							"internalType": "uint256",
							"name": "created",
							"type": "uint256"
						}
					],
					"stateMutability": "view",
					"type": "function"
				},
				{
					"inputs": [
						{
							"internalType": "uint256",
							"name": "",
							"type": "uint256"
						}
					],
					"name": "proposals",
					"outputs": [
						{
							"internalType": "uint256",
							"name": "id",
							"type": "uint256"
						},
						{
							"internalType": "string",
							"name": "title",
							"type": "string"
						},
						{
							"internalType": "string",
							"name": "description",
							"type": "string"
						},
						{
							"internalType": "uint256",
							"name": "votes",
							"type": "uint256"
						},
						{
							"internalType": "string",
							"name": "imgUrl",
							"type": "string"
						},
						{
							"internalType": "uint256",
							"name": "deadline",
							"type": "uint256"
						},
						{
							"internalType": "address",
							"name": "author",
							"type": "address"
						},
						{
							"internalType": "string",
							"name": "usernameAuthor",
							"type": "string"
						},
						{
							"internalType": "string",
							"name": "imgAuthore",
							"type": "string"
						},
						{
							"internalType": "uint256",
							"name": "created",
							"type": "uint256"
						}
					],
					"stateMutability": "view",
					"type": "function"
				},
				{
					"inputs": [],
					"name": "renounceOwnership",
					"outputs": [],
					"stateMutability": "nonpayable",
					"type": "function"
				},
				{
					"inputs": [
						{
							"internalType": "uint256",
							"name": "_id",
							"type": "uint256"
						}
					],
					"name": "signing",
					"outputs": [],
					"stateMutability": "nonpayable",
					"type": "function"
				},
				{
					"inputs": [
						{
							"internalType": "address",
							"name": "newOwner",
							"type": "address"
						}
					],
					"name": "transferOwnership",
					"outputs": [],
					"stateMutability": "nonpayable",
					"type": "function"
				},
				{
					"inputs": [
						{
							"internalType": "uint256",
							"name": "",
							"type": "uint256"
						},
						{
							"internalType": "uint256",
							"name": "",
							"type": "uint256"
						}
					],
					"name": "voter",
					"outputs": [
						{
							"internalType": "address",
							"name": "",
							"type": "address"
						}
					],
					"stateMutability": "view",
					"type": "function"
				}
			],
			"devdoc": {
				"errors": {
					"OwnableInvalidOwner(address)": [
						{
							"details": "The owner is not a valid owner account. (eg. `address(0)`)"
						}
					],
					"OwnableUnauthorizedAccount(address)": [
						{
							"details": "The caller account is not authorized to perform an operation."
						}
					]
				},
				"kind": "dev",
				"methods": {
					"owner()": {
						"details": "Returns the address of the current owner."
					},
					"renounceOwnership()": {
						"details": "Leaves the contract without owner. It will not be possible to call `onlyOwner` functions. Can only be called by the current owner. NOTE: Renouncing ownership will leave the contract without an owner, thereby disabling any functionality that is only available to the owner."
					},
					"transferOwnership(address)": {
						"details": "Transfers ownership of the contract to a new account (`newOwner`). Can only be called by the current owner."
					}
				},
				"version": 1
			},
			"evm": {
				"assembly": "    /* \"contracts/Petisi.sol\":145:2999  contract Petisi is Ownable { ... */\n  mstore(0x40, 0x80)\n    /* \"contracts/Petisi.sol\":646:647  0 */\n  0x00\n    /* \"contracts/Petisi.sol\":620:647  uint256 counterProposal = 0 */\n  0x02\n  sstore\n    /* \"contracts/Petisi.sol\":218:336  constructor(address _profileContract) Ownable(msg.sender){... */\n  callvalue\n  dup1\n  iszero\n  tag_1\n  jumpi\n  0x00\n  dup1\n  revert\ntag_1:\n  pop\n  mload(0x40)\n  sub(codesize, bytecodeSize)\n  dup1\n  bytecodeSize\n  dup4\n  codecopy\n  dup2\n  dup2\n  add\n  0x40\n  mstore\n  dup2\n  add\n  swap1\n  tag_2\n  swap2\n  swap1\n  tag_3\n  jump\t// in\ntag_2:\n    /* \"contracts/Petisi.sol\":264:274  msg.sender */\n  caller\n    /* \"@openzeppelin/contracts/access/Ownable.sol\":1297:1298  0 */\n  0x00\n    /* \"@openzeppelin/contracts/access/Ownable.sol\":1273:1299  initialOwner == address(0) */\n  0xffffffffffffffffffffffffffffffffffffffff\n  and\n    /* \"@openzeppelin/contracts/access/Ownable.sol\":1273:1285  initialOwner */\n  dup2\n    /* \"@openzeppelin/contracts/access/Ownable.sol\":1273:1299  initialOwner == address(0) */\n  0xffffffffffffffffffffffffffffffffffffffff\n  and\n  sub\n    /* \"@openzeppelin/contracts/access/Ownable.sol\":1269:1364  if (initialOwner == address(0)) {... */\n  tag_7\n  jumpi\n    /* \"@openzeppelin/contracts/access/Ownable.sol\":1350:1351  0 */\n  0x00\n    /* \"@openzeppelin/contracts/access/Ownable.sol\":1322:1353  OwnableInvalidOwner(address(0)) */\n  mload(0x40)\n  0x1e4fbdf700000000000000000000000000000000000000000000000000000000\n  dup2\n  mstore\n  0x04\n  add\n  tag_8\n  swap2\n  swap1\n  tag_9\n  jump\t// in\ntag_8:\n  mload(0x40)\n  dup1\n  swap2\n  sub\n  swap1\n  revert\n    /* \"@openzeppelin/contracts/access/Ownable.sol\":1269:1364  if (initialOwner == address(0)) {... */\ntag_7:\n    /* \"@openzeppelin/contracts/access/Ownable.sol\":1373:1405  _transferOwnership(initialOwner) */\n  tag_10\n    /* \"@openzeppelin/contracts/access/Ownable.sol\":1392:1404  initialOwner */\n  dup2\n    /* \"@openzeppelin/contracts/access/Ownable.sol\":1373:1391  _transferOwnership */\n  shl(0x20, tag_11)\n    /* \"@openzeppelin/contracts/access/Ownable.sol\":1373:1405  _transferOwnership(initialOwner) */\n  0x20\n  shr\n  jump\t// in\ntag_10:\n    /* \"@openzeppelin/contracts/access/Ownable.sol\":1225:1412  constructor(address initialOwner) {... */\n  pop\n    /* \"contracts/Petisi.sol\":312:328  _profileContract */\n  dup1\n    /* \"contracts/Petisi.sol\":285:300  profileContract */\n  0x01\n  0x00\n    /* \"contracts/Petisi.sol\":285:329  profileContract = IProfile(_profileContract) */\n  0x0100\n  exp\n  dup2\n  sload\n  dup2\n  0xffffffffffffffffffffffffffffffffffffffff\n  mul\n  not\n  and\n  swap1\n  dup4\n  0xffffffffffffffffffffffffffffffffffffffff\n  and\n  mul\n  or\n  swap1\n  sstore\n  pop\n    /* \"contracts/Petisi.sol\":218:336  constructor(address _profileContract) Ownable(msg.sender){... */\n  pop\n    /* \"contracts/Petisi.sol\":145:2999  contract Petisi is Ownable { ... */\n  jump(tag_13)\n    /* \"@openzeppelin/contracts/access/Ownable.sol\":2912:3099  function _transferOwnership(address newOwner) internal virtual {... */\ntag_11:\n    /* \"@openzeppelin/contracts/access/Ownable.sol\":2985:3001  address oldOwner */\n  0x00\n    /* \"@openzeppelin/contracts/access/Ownable.sol\":3004:3010  _owner */\n  dup1\n  0x00\n  swap1\n  sload\n  swap1\n  0x0100\n  exp\n  swap1\n  div\n  0xffffffffffffffffffffffffffffffffffffffff\n  and\n    /* \"@openzeppelin/contracts/access/Ownable.sol\":2985:3010  address oldOwner = _owner */\n  swap1\n  pop\n    /* \"@openzeppelin/contracts/access/Ownable.sol\":3029:3037  newOwner */\n  dup2\n    /* \"@openzeppelin/contracts/access/Ownable.sol\":3020:3026  _owner */\n  0x00\n  dup1\n    /* \"@openzeppelin/contracts/access/Ownable.sol\":3020:3037  _owner = newOwner */\n  0x0100\n  exp\n  dup2\n  sload\n  dup2\n  0xffffffffffffffffffffffffffffffffffffffff\n  mul\n  not\n  and\n  swap1\n  dup4\n  0xffffffffffffffffffffffffffffffffffffffff\n  and\n  mul\n  or\n  swap1\n  sstore\n  pop\n    /* \"@openzeppelin/contracts/access/Ownable.sol\":3083:3091  newOwner */\n  dup2\n    /* \"@openzeppelin/contracts/access/Ownable.sol\":3052:3092  OwnershipTransferred(oldOwner, newOwner) */\n  0xffffffffffffffffffffffffffffffffffffffff\n  and\n    /* \"@openzeppelin/contracts/access/Ownable.sol\":3073:3081  oldOwner */\n  dup2\n    /* \"@openzeppelin/contracts/access/Ownable.sol\":3052:3092  OwnershipTransferred(oldOwner, newOwner) */\n  0xffffffffffffffffffffffffffffffffffffffff\n  and\n  0x8be0079c531659141344cd1fd0a4f28419497f9722a3daafe3b4186f6b6457e0\n  mload(0x40)\n  mload(0x40)\n  dup1\n  swap2\n  sub\n  swap1\n  log3\n    /* \"@openzeppelin/contracts/access/Ownable.sol\":2975:3099  {... */\n  pop\n    /* \"@openzeppelin/contracts/access/Ownable.sol\":2912:3099  function _transferOwnership(address newOwner) internal virtual {... */\n  pop\n  jump\t// out\n    /* \"#utility.yul\":88:205   */\ntag_16:\n    /* \"#utility.yul\":197:198   */\n  0x00\n    /* \"#utility.yul\":194:195   */\n  dup1\n    /* \"#utility.yul\":187:199   */\n  revert\n    /* \"#utility.yul\":334:460   */\ntag_18:\n    /* \"#utility.yul\":371:378   */\n  0x00\n    /* \"#utility.yul\":411:453   */\n  0xffffffffffffffffffffffffffffffffffffffff\n    /* \"#utility.yul\":404:409   */\n  dup3\n    /* \"#utility.yul\":400:454   */\n  and\n    /* \"#utility.yul\":389:454   */\n  swap1\n  pop\n    /* \"#utility.yul\":334:460   */\n  swap2\n  swap1\n  pop\n  jump\t// out\n    /* \"#utility.yul\":466:562   */\ntag_19:\n    /* \"#utility.yul\":503:510   */\n  0x00\n    /* \"#utility.yul\":532:556   */\n  tag_29\n    /* \"#utility.yul\":550:555   */\n  dup3\n    /* \"#utility.yul\":532:556   */\n  tag_18\n  jump\t// in\ntag_29:\n    /* \"#utility.yul\":521:556   */\n  swap1\n  pop\n    /* \"#utility.yul\":466:562   */\n  swap2\n  swap1\n  pop\n  jump\t// out\n    /* \"#utility.yul\":568:690   */\ntag_20:\n    /* \"#utility.yul\":641:665   */\n  tag_31\n    /* \"#utility.yul\":659:664   */\n  dup2\n    /* \"#utility.yul\":641:665   */\n  tag_19\n  jump\t// in\ntag_31:\n    /* \"#utility.yul\":634:639   */\n  dup2\n    /* \"#utility.yul\":631:666   */\n  eq\n    /* \"#utility.yul\":621:684   */\n  tag_32\n  jumpi\n    /* \"#utility.yul\":680:681   */\n  0x00\n    /* \"#utility.yul\":677:678   */\n  dup1\n    /* \"#utility.yul\":670:682   */\n  revert\n    /* \"#utility.yul\":621:684   */\ntag_32:\n    /* \"#utility.yul\":568:690   */\n  pop\n  jump\t// out\n    /* \"#utility.yul\":696:839   */\ntag_21:\n    /* \"#utility.yul\":753:758   */\n  0x00\n    /* \"#utility.yul\":784:790   */\n  dup2\n    /* \"#utility.yul\":778:791   */\n  mload\n    /* \"#utility.yul\":769:791   */\n  swap1\n  pop\n    /* \"#utility.yul\":800:833   */\n  tag_34\n    /* \"#utility.yul\":827:832   */\n  dup2\n    /* \"#utility.yul\":800:833   */\n  tag_20\n  jump\t// in\ntag_34:\n    /* \"#utility.yul\":696:839   */\n  swap3\n  swap2\n  pop\n  pop\n  jump\t// out\n    /* \"#utility.yul\":845:1196   */\ntag_3:\n    /* \"#utility.yul\":915:921   */\n  0x00\n    /* \"#utility.yul\":964:966   */\n  0x20\n    /* \"#utility.yul\":952:961   */\n  dup3\n    /* \"#utility.yul\":943:950   */\n  dup5\n    /* \"#utility.yul\":939:962   */\n  sub\n    /* \"#utility.yul\":935:967   */\n  slt\n    /* \"#utility.yul\":932:1051   */\n  iszero\n  tag_36\n  jumpi\n    /* \"#utility.yul\":970:1049   */\n  tag_37\n  tag_16\n  jump\t// in\ntag_37:\n    /* \"#utility.yul\":932:1051   */\ntag_36:\n    /* \"#utility.yul\":1090:1091   */\n  0x00\n    /* \"#utility.yul\":1115:1179   */\n  tag_38\n    /* \"#utility.yul\":1171:1178   */\n  dup5\n    /* \"#utility.yul\":1162:1168   */\n  dup3\n    /* \"#utility.yul\":1151:1160   */\n  dup6\n    /* \"#utility.yul\":1147:1169   */\n  add\n    /* \"#utility.yul\":1115:1179   */\n  tag_21\n  jump\t// in\ntag_38:\n    /* \"#utility.yul\":1105:1179   */\n  swap2\n  pop\n    /* \"#utility.yul\":1061:1189   */\n  pop\n    /* \"#utility.yul\":845:1196   */\n  swap3\n  swap2\n  pop\n  pop\n  jump\t// out\n    /* \"#utility.yul\":1202:1320   */\ntag_22:\n    /* \"#utility.yul\":1289:1313   */\n  tag_40\n    /* \"#utility.yul\":1307:1312   */\n  dup2\n    /* \"#utility.yul\":1289:1313   */\n  tag_19\n  jump\t// in\ntag_40:\n    /* \"#utility.yul\":1284:1287   */\n  dup3\n    /* \"#utility.yul\":1277:1314   */\n  mstore\n    /* \"#utility.yul\":1202:1320   */\n  pop\n  pop\n  jump\t// out\n    /* \"#utility.yul\":1326:1548   */\ntag_9:\n    /* \"#utility.yul\":1419:1423   */\n  0x00\n    /* \"#utility.yul\":1457:1459   */\n  0x20\n    /* \"#utility.yul\":1446:1455   */\n  dup3\n    /* \"#utility.yul\":1442:1460   */\n  add\n    /* \"#utility.yul\":1434:1460   */\n  swap1\n  pop\n    /* \"#utility.yul\":1470:1541   */\n  tag_42\n    /* \"#utility.yul\":1538:1539   */\n  0x00\n    /* \"#utility.yul\":1527:1536   */\n  dup4\n    /* \"#utility.yul\":1523:1540   */\n  add\n    /* \"#utility.yul\":1514:1520   */\n  dup5\n    /* \"#utility.yul\":1470:1541   */\n  tag_22\n  jump\t// in\ntag_42:\n    /* \"#utility.yul\":1326:1548   */\n  swap3\n  swap2\n  pop\n  pop\n  jump\t// out\n    /* \"contracts/Petisi.sol\":145:2999  contract Petisi is Ownable { ... */\ntag_13:\n  dataSize(sub_0)\n  dup1\n  dataOffset(sub_0)\n  0x00\n  codecopy\n  0x00\n  return\nstop\n\nsub_0: assembly {\n        /* \"contracts/Petisi.sol\":145:2999  contract Petisi is Ownable { ... */\n      mstore(0x40, 0x80)\n      callvalue\n      dup1\n      iszero\n      tag_1\n      jumpi\n      0x00\n      dup1\n      revert\n    tag_1:\n      pop\n      jumpi(tag_2, lt(calldatasize, 0x04))\n      shr(0xe0, calldataload(0x00))\n      dup1\n      0x8da5cb5b\n      gt\n      tag_17\n      jumpi\n      dup1\n      0xc7f758a8\n      gt\n      tag_18\n      jumpi\n      dup1\n      0xc7f758a8\n      eq\n      tag_13\n      jumpi\n      dup1\n      0xd3856f3b\n      eq\n      tag_14\n      jumpi\n      dup1\n      0xf2fde38b\n      eq\n      tag_15\n      jumpi\n      dup1\n      0xf30282a1\n      eq\n      tag_16\n      jumpi\n      jump(tag_2)\n    tag_18:\n      dup1\n      0x8da5cb5b\n      eq\n      tag_10\n      jumpi\n      dup1\n      0xbe07d1d9\n      eq\n      tag_11\n      jumpi\n      dup1\n      0xc6311e3f\n      eq\n      tag_12\n      jumpi\n      jump(tag_2)\n    tag_17:\n      dup1\n      0x3ffefe4e\n      gt\n      tag_19\n      jumpi\n      dup1\n      0x3ffefe4e\n      eq\n      tag_6\n      jumpi\n      dup1\n      0x4c15676b\n      eq\n      tag_7\n      jumpi\n      dup1\n      0x4c50d2fb\n      eq\n      tag_8\n      jumpi\n      dup1\n      0x715018a6\n      eq\n      tag_9\n      jumpi\n      jump(tag_2)\n    tag_19:\n      dup1\n      0x013cf08b\n      eq\n      tag_3\n      jumpi\n      dup1\n      0x0f1a9d51\n      eq\n      tag_4\n      jumpi\n      dup1\n      0x159428d1\n      eq\n      tag_5\n      jumpi\n    tag_2:\n      0x00\n      dup1\n      revert\n        /* \"contracts/Petisi.sol\":912:957  mapping(uint256 => Proposal) public proposals */\n    tag_3:\n      tag_20\n      0x04\n      dup1\n      calldatasize\n      sub\n      dup2\n      add\n      swap1\n      tag_21\n      swap2\n      swap1\n      tag_22\n      jump\t// in\n    tag_21:\n      tag_23\n      jump\t// in\n    tag_20:\n      mload(0x40)\n      tag_24\n      swap11\n      swap10\n      swap9\n      swap8\n      swap7\n      swap6\n      swap5\n      swap4\n      swap3\n      swap2\n      swap1\n      tag_25\n      jump\t// in\n    tag_24:\n      mload(0x40)\n      dup1\n      swap2\n      sub\n      swap1\n      return\n        /* \"contracts/Petisi.sol\":2585:2886  function signing(uint256 _id) public onlyRegisterd onlyHasNoVoted(_id){... */\n    tag_4:\n      tag_26\n      0x04\n      dup1\n      calldatasize\n      sub\n      dup2\n      add\n      swap1\n      tag_27\n      swap2\n      swap1\n      tag_22\n      jump\t// in\n    tag_27:\n      tag_28\n      jump\t// in\n    tag_26:\n      stop\n        /* \"contracts/Petisi.sol\":2339:2457  function getMyProposal(address _user) public view returns (Proposal[] memory){... */\n    tag_5:\n      tag_29\n      0x04\n      dup1\n      calldatasize\n      sub\n      dup2\n      add\n      swap1\n      tag_30\n      swap2\n      swap1\n      tag_31\n      jump\t// in\n    tag_30:\n      tag_32\n      jump\t// in\n    tag_29:\n      mload(0x40)\n      tag_33\n      swap2\n      swap1\n      tag_34\n      jump\t// in\n    tag_33:\n      mload(0x40)\n      dup1\n      swap2\n      sub\n      swap1\n      return\n        /* \"contracts/Petisi.sol\":2892:2996  function getSigner(uint256 _id) public view returns (address[] memory){... */\n    tag_6:\n      tag_35\n      0x04\n      dup1\n      calldatasize\n      sub\n      dup2\n      add\n      swap1\n      tag_36\n      swap2\n      swap1\n      tag_22\n      jump\t// in\n    tag_36:\n      tag_37\n      jump\t// in\n    tag_35:\n      mload(0x40)\n      tag_38\n      swap2\n      swap1\n      tag_39\n      jump\t// in\n    tag_38:\n      mload(0x40)\n      dup1\n      swap2\n      sub\n      swap1\n      return\n        /* \"contracts/Petisi.sol\":1471:2226  function createProposal(string memory _title, string memory _description, string memory _imgUrl, uint256 _deadline) onlyRegisterd public {... */\n    tag_7:\n      tag_40\n      0x04\n      dup1\n      calldatasize\n      sub\n      dup2\n      add\n      swap1\n      tag_41\n      swap2\n      swap1\n      tag_42\n      jump\t// in\n    tag_41:\n      tag_43\n      jump\t// in\n    tag_40:\n      stop\n        /* \"contracts/Petisi.sol\":963:1024  mapping(uint256 => mapping (address => bool)) public hasvoted */\n    tag_8:\n      tag_44\n      0x04\n      dup1\n      calldatasize\n      sub\n      dup2\n      add\n      swap1\n      tag_45\n      swap2\n      swap1\n      tag_46\n      jump\t// in\n    tag_45:\n      tag_47\n      jump\t// in\n    tag_44:\n      mload(0x40)\n      tag_48\n      swap2\n      swap1\n      tag_49\n      jump\t// in\n    tag_48:\n      mload(0x40)\n      dup1\n      swap2\n      sub\n      swap1\n      return\n        /* \"@openzeppelin/contracts/access/Ownable.sol\":2293:2394  function renounceOwnership() public virtual onlyOwner {... */\n    tag_9:\n      tag_50\n      tag_51\n      jump\t// in\n    tag_50:\n      stop\n        /* \"@openzeppelin/contracts/access/Ownable.sol\":1638:1723  function owner() public view virtual returns (address) {... */\n    tag_10:\n      tag_52\n      tag_53\n      jump\t// in\n    tag_52:\n      mload(0x40)\n      tag_54\n      swap2\n      swap1\n      tag_55\n      jump\t// in\n    tag_54:\n      mload(0x40)\n      dup1\n      swap2\n      sub\n      swap1\n      return\n        /* \"contracts/Petisi.sol\":857:906  mapping (address => Proposal[]) public myProposal */\n    tag_11:\n      tag_56\n      0x04\n      dup1\n      calldatasize\n      sub\n      dup2\n      add\n      swap1\n      tag_57\n      swap2\n      swap1\n      tag_58\n      jump\t// in\n    tag_57:\n      tag_59\n      jump\t// in\n    tag_56:\n      mload(0x40)\n      tag_60\n      swap11\n      swap10\n      swap9\n      swap8\n      swap7\n      swap6\n      swap5\n      swap4\n      swap3\n      swap2\n      swap1\n      tag_25\n      jump\t// in\n    tag_60:\n      mload(0x40)\n      dup1\n      swap2\n      sub\n      swap1\n      return\n        /* \"contracts/Petisi.sol\":1097:1127  Proposal[] public proposalList */\n    tag_12:\n      tag_61\n      0x04\n      dup1\n      calldatasize\n      sub\n      dup2\n      add\n      swap1\n      tag_62\n      swap2\n      swap1\n      tag_22\n      jump\t// in\n    tag_62:\n      tag_63\n      jump\t// in\n    tag_61:\n      mload(0x40)\n      tag_64\n      swap11\n      swap10\n      swap9\n      swap8\n      swap7\n      swap6\n      swap5\n      swap4\n      swap3\n      swap2\n      swap1\n      tag_25\n      jump\t// in\n    tag_64:\n      mload(0x40)\n      dup1\n      swap2\n      sub\n      swap1\n      return\n        /* \"contracts/Petisi.sol\":2463:2579  function getProposal(uint256 _id) public view returns(Proposal memory){... */\n    tag_13:\n      tag_65\n      0x04\n      dup1\n      calldatasize\n      sub\n      dup2\n      add\n      swap1\n      tag_66\n      swap2\n      swap1\n      tag_22\n      jump\t// in\n    tag_66:\n      tag_67\n      jump\t// in\n    tag_65:\n      mload(0x40)\n      tag_68\n      swap2\n      swap1\n      tag_69\n      jump\t// in\n    tag_68:\n      mload(0x40)\n      dup1\n      swap2\n      sub\n      swap1\n      return\n        /* \"contracts/Petisi.sol\":1030:1073  mapping (uint256 => address[]) public voter */\n    tag_14:\n      tag_70\n      0x04\n      dup1\n      calldatasize\n      sub\n      dup2\n      add\n      swap1\n      tag_71\n      swap2\n      swap1\n      tag_72\n      jump\t// in\n    tag_71:\n      tag_73\n      jump\t// in\n    tag_70:\n      mload(0x40)\n      tag_74\n      swap2\n      swap1\n      tag_55\n      jump\t// in\n    tag_74:\n      mload(0x40)\n      dup1\n      swap2\n      sub\n      swap1\n      return\n        /* \"@openzeppelin/contracts/access/Ownable.sol\":2543:2758  function transferOwnership(address newOwner) public virtual onlyOwner {... */\n    tag_15:\n      tag_75\n      0x04\n      dup1\n      calldatasize\n      sub\n      dup2\n      add\n      swap1\n      tag_76\n      swap2\n      swap1\n      tag_31\n      jump\t// in\n    tag_76:\n      tag_77\n      jump\t// in\n    tag_75:\n      stop\n        /* \"contracts/Petisi.sol\":2232:2333  function gerAllProposal() public view returns (Proposal[] memory){... */\n    tag_16:\n      tag_78\n      tag_79\n      jump\t// in\n    tag_78:\n      mload(0x40)\n      tag_80\n      swap2\n      swap1\n      tag_34\n      jump\t// in\n    tag_80:\n      mload(0x40)\n      dup1\n      swap2\n      sub\n      swap1\n      return\n        /* \"contracts/Petisi.sol\":912:957  mapping(uint256 => Proposal) public proposals */\n    tag_23:\n      mstore(0x20, 0x04)\n      dup1\n      0x00\n      mstore\n      keccak256(0x00, 0x40)\n      0x00\n      swap2\n      pop\n      swap1\n      pop\n      dup1\n      0x00\n      add\n      sload\n      swap1\n      dup1\n      0x01\n      add\n      dup1\n      sload\n      tag_81\n      swap1\n      tag_82\n      jump\t// in\n    tag_81:\n      dup1\n      0x1f\n      add\n      0x20\n      dup1\n      swap2\n      div\n      mul\n      0x20\n      add\n      mload(0x40)\n      swap1\n      dup2\n      add\n      0x40\n      mstore\n      dup1\n      swap3\n      swap2\n      swap1\n      dup2\n      dup2\n      mstore\n      0x20\n      add\n      dup3\n      dup1\n      sload\n      tag_83\n      swap1\n      tag_82\n      jump\t// in\n    tag_83:\n      dup1\n      iszero\n      tag_84\n      jumpi\n      dup1\n      0x1f\n      lt\n      tag_85\n      jumpi\n      0x0100\n      dup1\n      dup4\n      sload\n      div\n      mul\n      dup4\n      mstore\n      swap2\n      0x20\n      add\n      swap2\n      jump(tag_84)\n    tag_85:\n      dup3\n      add\n      swap2\n      swap1\n      0x00\n      mstore\n      keccak256(0x00, 0x20)\n      swap1\n    tag_86:\n      dup2\n      sload\n      dup2\n      mstore\n      swap1\n      0x01\n      add\n      swap1\n      0x20\n      add\n      dup1\n      dup4\n      gt\n      tag_86\n      jumpi\n      dup3\n      swap1\n      sub\n      0x1f\n      and\n      dup3\n      add\n      swap2\n    tag_84:\n      pop\n      pop\n      pop\n      pop\n      pop\n      swap1\n      dup1\n      0x02\n      add\n      dup1\n      sload\n      tag_87\n      swap1\n      tag_82\n      jump\t// in\n    tag_87:\n      dup1\n      0x1f\n      add\n      0x20\n      dup1\n      swap2\n      div\n      mul\n      0x20\n      add\n      mload(0x40)\n      swap1\n      dup2\n      add\n      0x40\n      mstore\n      dup1\n      swap3\n      swap2\n      swap1\n      dup2\n      dup2\n      mstore\n      0x20\n      add\n      dup3\n      dup1\n      sload\n      tag_88\n      swap1\n      tag_82\n      jump\t// in\n    tag_88:\n      dup1\n      iszero\n      tag_89\n      jumpi\n      dup1\n      0x1f\n      lt\n      tag_90\n      jumpi\n      0x0100\n      dup1\n      dup4\n      sload\n      div\n      mul\n      dup4\n      mstore\n      swap2\n      0x20\n      add\n      swap2\n      jump(tag_89)\n    tag_90:\n      dup3\n      add\n      swap2\n      swap1\n      0x00\n      mstore\n      keccak256(0x00, 0x20)\n      swap1\n    tag_91:\n      dup2\n      sload\n      dup2\n      mstore\n      swap1\n      0x01\n      add\n      swap1\n      0x20\n      add\n      dup1\n      dup4\n      gt\n      tag_91\n      jumpi\n      dup3\n      swap1\n      sub\n      0x1f\n      and\n      dup3\n      add\n      swap2\n    tag_89:\n      pop\n      pop\n      pop\n      pop\n      pop\n      swap1\n      dup1\n      0x03\n      add\n      sload\n      swap1\n      dup1\n      0x04\n      add\n      dup1\n      sload\n      tag_92\n      swap1\n      tag_82\n      jump\t// in\n    tag_92:\n      dup1\n      0x1f\n      add\n      0x20\n      dup1\n      swap2\n      div\n      mul\n      0x20\n      add\n      mload(0x40)\n      swap1\n      dup2\n      add\n      0x40\n      mstore\n      dup1\n      swap3\n      swap2\n      swap1\n      dup2\n      dup2\n      mstore\n      0x20\n      add\n      dup3\n      dup1\n      sload\n      tag_93\n      swap1\n      tag_82\n      jump\t// in\n    tag_93:\n      dup1\n      iszero\n      tag_94\n      jumpi\n      dup1\n      0x1f\n      lt\n      tag_95\n      jumpi\n      0x0100\n      dup1\n      dup4\n      sload\n      div\n      mul\n      dup4\n      mstore\n      swap2\n      0x20\n      add\n      swap2\n      jump(tag_94)\n    tag_95:\n      dup3\n      add\n      swap2\n      swap1\n      0x00\n      mstore\n      keccak256(0x00, 0x20)\n      swap1\n    tag_96:\n      dup2\n      sload\n      dup2\n      mstore\n      swap1\n      0x01\n      add\n      swap1\n      0x20\n      add\n      dup1\n      dup4\n      gt\n      tag_96\n      jumpi\n      dup3\n      swap1\n      sub\n      0x1f\n      and\n      dup3\n      add\n      swap2\n    tag_94:\n      pop\n      pop\n      pop\n      pop\n      pop\n      swap1\n      dup1\n      0x05\n      add\n      sload\n      swap1\n      dup1\n      0x06\n      add\n      0x00\n      swap1\n      sload\n      swap1\n      0x0100\n      exp\n      swap1\n      div\n      0xffffffffffffffffffffffffffffffffffffffff\n      and\n      swap1\n      dup1\n      0x07\n      add\n      dup1\n      sload\n      tag_97\n      swap1\n      tag_82\n      jump\t// in\n    tag_97:\n      dup1\n      0x1f\n      add\n      0x20\n      dup1\n      swap2\n      div\n      mul\n      0x20\n      add\n      mload(0x40)\n      swap1\n      dup2\n      add\n      0x40\n      mstore\n      dup1\n      swap3\n      swap2\n      swap1\n      dup2\n      dup2\n      mstore\n      0x20\n      add\n      dup3\n      dup1\n      sload\n      tag_98\n      swap1\n      tag_82\n      jump\t// in\n    tag_98:\n      dup1\n      iszero\n      tag_99\n      jumpi\n      dup1\n      0x1f\n      lt\n      tag_100\n      jumpi\n      0x0100\n      dup1\n      dup4\n      sload\n      div\n      mul\n      dup4\n      mstore\n      swap2\n      0x20\n      add\n      swap2\n      jump(tag_99)\n    tag_100:\n      dup3\n      add\n      swap2\n      swap1\n      0x00\n      mstore\n      keccak256(0x00, 0x20)\n      swap1\n    tag_101:\n      dup2\n      sload\n      dup2\n      mstore\n      swap1\n      0x01\n      add\n      swap1\n      0x20\n      add\n      dup1\n      dup4\n      gt\n      tag_101\n      jumpi\n      dup3\n      swap1\n      sub\n      0x1f\n      and\n      dup3\n      add\n      swap2\n    tag_99:\n      pop\n      pop\n      pop\n      pop\n      pop\n      swap1\n      dup1\n      0x08\n      add\n      dup1\n      sload\n      tag_102\n      swap1\n      tag_82\n      jump\t// in\n    tag_102:\n      dup1\n      0x1f\n      add\n      0x20\n      dup1\n      swap2\n      div\n      mul\n      0x20\n      add\n      mload(0x40)\n      swap1\n      dup2\n      add\n      0x40\n      mstore\n      dup1\n      swap3\n      swap2\n      swap1\n      dup2\n      dup2\n      mstore\n      0x20\n      add\n      dup3\n      dup1\n      sload\n      tag_103\n      swap1\n      tag_82\n      jump\t// in\n    tag_103:\n      dup1\n      iszero\n      tag_104\n      jumpi\n      dup1\n      0x1f\n      lt\n      tag_105\n      jumpi\n      0x0100\n      dup1\n      dup4\n      sload\n      div\n      mul\n      dup4\n      mstore\n      swap2\n      0x20\n      add\n      swap2\n      jump(tag_104)\n    tag_105:\n      dup3\n      add\n      swap2\n      swap1\n      0x00\n      mstore\n      keccak256(0x00, 0x20)\n      swap1\n    tag_106:\n      dup2\n      sload\n      dup2\n      mstore\n      swap1\n      0x01\n      add\n      swap1\n      0x20\n      add\n      dup1\n      dup4\n      gt\n      tag_106\n      jumpi\n      dup3\n      swap1\n      sub\n      0x1f\n      and\n      dup3\n      add\n      swap2\n    tag_104:\n      pop\n      pop\n      pop\n      pop\n      pop\n      swap1\n      dup1\n      0x09\n      add\n      sload\n      swap1\n      pop\n      dup11\n      jump\t// out\n        /* \"contracts/Petisi.sol\":2585:2886  function signing(uint256 _id) public onlyRegisterd onlyHasNoVoted(_id){... */\n    tag_28:\n        /* \"contracts/Petisi.sol\":1168:1203  IProfile.profile memory profileTemp */\n      0x00\n        /* \"contracts/Petisi.sol\":1207:1222  profileContract */\n      0x01\n      0x00\n      swap1\n      sload\n      swap1\n      0x0100\n      exp\n      swap1\n      div\n      0xffffffffffffffffffffffffffffffffffffffff\n      and\n        /* \"contracts/Petisi.sol\":1207:1233  profileContract.getProfile */\n      0xffffffffffffffffffffffffffffffffffffffff\n      and\n      0x0f53a470\n        /* \"contracts/Petisi.sol\":1234:1244  msg.sender */\n      caller\n        /* \"contracts/Petisi.sol\":1207:1245  profileContract.getProfile(msg.sender) */\n      mload(0x40)\n      dup3\n      0xffffffff\n      and\n      0xe0\n      shl\n      dup2\n      mstore\n      0x04\n      add\n      tag_108\n      swap2\n      swap1\n      tag_55\n      jump\t// in\n    tag_108:\n      0x00\n      mload(0x40)\n      dup1\n      dup4\n      sub\n      dup2\n      dup7\n      gas\n      staticcall\n      iszero\n      dup1\n      iszero\n      tag_110\n      jumpi\n      returndatasize\n      0x00\n      dup1\n      returndatacopy\n      revert(0x00, returndatasize)\n    tag_110:\n      pop\n      pop\n      pop\n      pop\n      mload(0x40)\n      returndatasize\n      0x00\n      dup3\n      returndatacopy\n      returndatasize\n      not(0x1f)\n      0x1f\n      dup3\n      add\n      and\n      dup3\n      add\n      dup1\n      0x40\n      mstore\n      pop\n      dup2\n      add\n      swap1\n      tag_111\n      swap2\n      swap1\n      tag_112\n      jump\t// in\n    tag_111:\n        /* \"contracts/Petisi.sol\":1168:1245  IProfile.profile memory profileTemp =  profileContract.getProfile(msg.sender) */\n      swap1\n      pop\n        /* \"contracts/Petisi.sol\":1263:1274  profileTemp */\n      dup1\n        /* \"contracts/Petisi.sol\":1263:1287  profileTemp.isRegistered */\n      0x60\n      add\n      mload\n        /* \"contracts/Petisi.sol\":1255:1313  require(profileTemp.isRegistered, \"You have to Registerd\") */\n      tag_113\n      jumpi\n      mload(0x40)\n      0x08c379a000000000000000000000000000000000000000000000000000000000\n      dup2\n      mstore\n      0x04\n      add\n      tag_114\n      swap1\n      tag_115\n      jump\t// in\n    tag_114:\n      mload(0x40)\n      dup1\n      swap2\n      sub\n      swap1\n      revert\n    tag_113:\n        /* \"contracts/Petisi.sol\":2651:2654  _id */\n      dup2\n        /* \"contracts/Petisi.sol\":1389:1397  hasvoted */\n      0x05\n        /* \"contracts/Petisi.sol\":1389:1402  hasvoted[_id] */\n      0x00\n        /* \"contracts/Petisi.sol\":1398:1401  _id */\n      dup3\n        /* \"contracts/Petisi.sol\":1389:1402  hasvoted[_id] */\n      dup2\n      mstore\n      0x20\n      add\n      swap1\n      dup2\n      mstore\n      0x20\n      add\n      0x00\n      keccak256\n        /* \"contracts/Petisi.sol\":1389:1414  hasvoted[_id][msg.sender] */\n      0x00\n        /* \"contracts/Petisi.sol\":1403:1413  msg.sender */\n      caller\n        /* \"contracts/Petisi.sol\":1389:1414  hasvoted[_id][msg.sender] */\n      0xffffffffffffffffffffffffffffffffffffffff\n      and\n      0xffffffffffffffffffffffffffffffffffffffff\n      and\n      dup2\n      mstore\n      0x20\n      add\n      swap1\n      dup2\n      mstore\n      0x20\n      add\n      0x00\n      keccak256\n      0x00\n      swap1\n      sload\n      swap1\n      0x0100\n      exp\n      swap1\n      div\n      0xff\n      and\n        /* \"contracts/Petisi.sol\":1388:1414  !hasvoted[_id][msg.sender] */\n      iszero\n        /* \"contracts/Petisi.sol\":1380:1441  require(!hasvoted[_id][msg.sender], \"You are already Voted!\") */\n      tag_117\n      jumpi\n      mload(0x40)\n      0x08c379a000000000000000000000000000000000000000000000000000000000\n      dup2\n      mstore\n      0x04\n      add\n      tag_118\n      swap1\n      tag_119\n      jump\t// in\n    tag_118:\n      mload(0x40)\n      dup1\n      swap2\n      sub\n      swap1\n      revert\n    tag_117:\n        /* \"contracts/Petisi.sol\":2689:2690  1 */\n      0x01\n        /* \"contracts/Petisi.sol\":2665:2674  proposals */\n      0x04\n        /* \"contracts/Petisi.sol\":2665:2679  proposals[_id] */\n      0x00\n        /* \"contracts/Petisi.sol\":2675:2678  _id */\n      dup6\n        /* \"contracts/Petisi.sol\":2665:2679  proposals[_id] */\n      dup2\n      mstore\n      0x20\n      add\n      swap1\n      dup2\n      mstore\n      0x20\n      add\n      0x00\n      keccak256\n        /* \"contracts/Petisi.sol\":2665:2685  proposals[_id].votes */\n      0x03\n      add\n      0x00\n        /* \"contracts/Petisi.sol\":2665:2690  proposals[_id].votes += 1 */\n      dup3\n      dup3\n      sload\n      tag_121\n      swap2\n      swap1\n      tag_122\n      jump\t// in\n    tag_121:\n      swap3\n      pop\n      pop\n      dup2\n      swap1\n      sstore\n      pop\n        /* \"contracts/Petisi.sol\":2726:2735  proposals */\n      0x04\n        /* \"contracts/Petisi.sol\":2726:2740  proposals[_id] */\n      0x00\n        /* \"contracts/Petisi.sol\":2736:2739  _id */\n      dup5\n        /* \"contracts/Petisi.sol\":2726:2740  proposals[_id] */\n      dup2\n      mstore\n      0x20\n      add\n      swap1\n      dup2\n      mstore\n      0x20\n      add\n      0x00\n      keccak256\n        /* \"contracts/Petisi.sol\":2726:2746  proposals[_id].votes */\n      0x03\n      add\n      sload\n        /* \"contracts/Petisi.sol\":2700:2712  proposalList */\n      0x07\n        /* \"contracts/Petisi.sol\":2713:2716  _id */\n      dup5\n        /* \"contracts/Petisi.sol\":2700:2717  proposalList[_id] */\n      dup2\n      sload\n      dup2\n      lt\n      tag_123\n      jumpi\n      tag_124\n      tag_125\n      jump\t// in\n    tag_124:\n    tag_123:\n      swap1\n      0x00\n      mstore\n      keccak256(0x00, 0x20)\n      swap1\n      0x0a\n      mul\n      add\n        /* \"contracts/Petisi.sol\":2700:2723  proposalList[_id].votes */\n      0x03\n      add\n        /* \"contracts/Petisi.sol\":2700:2746  proposalList[_id].votes = proposals[_id].votes */\n      dup2\n      swap1\n      sstore\n      pop\n        /* \"contracts/Petisi.sol\":2785:2789  true */\n      0x01\n        /* \"contracts/Petisi.sol\":2757:2765  hasvoted */\n      0x05\n        /* \"contracts/Petisi.sol\":2757:2770  hasvoted[_id] */\n      0x00\n        /* \"contracts/Petisi.sol\":2766:2769  _id */\n      dup6\n        /* \"contracts/Petisi.sol\":2757:2770  hasvoted[_id] */\n      dup2\n      mstore\n      0x20\n      add\n      swap1\n      dup2\n      mstore\n      0x20\n      add\n      0x00\n      keccak256\n        /* \"contracts/Petisi.sol\":2757:2782  hasvoted[_id][msg.sender] */\n      0x00\n        /* \"contracts/Petisi.sol\":2771:2781  msg.sender */\n      caller\n        /* \"contracts/Petisi.sol\":2757:2782  hasvoted[_id][msg.sender] */\n      0xffffffffffffffffffffffffffffffffffffffff\n      and\n      0xffffffffffffffffffffffffffffffffffffffff\n      and\n      dup2\n      mstore\n      0x20\n      add\n      swap1\n      dup2\n      mstore\n      0x20\n      add\n      0x00\n      keccak256\n      0x00\n        /* \"contracts/Petisi.sol\":2757:2789  hasvoted[_id][msg.sender] = true */\n      0x0100\n      exp\n      dup2\n      sload\n      dup2\n      0xff\n      mul\n      not\n      and\n      swap1\n      dup4\n      iszero\n      iszero\n      mul\n      or\n      swap1\n      sstore\n      pop\n        /* \"contracts/Petisi.sol\":2799:2804  voter */\n      0x06\n        /* \"contracts/Petisi.sol\":2799:2809  voter[_id] */\n      0x00\n        /* \"contracts/Petisi.sol\":2805:2808  _id */\n      dup5\n        /* \"contracts/Petisi.sol\":2799:2809  voter[_id] */\n      dup2\n      mstore\n      0x20\n      add\n      swap1\n      dup2\n      mstore\n      0x20\n      add\n      0x00\n      keccak256\n        /* \"contracts/Petisi.sol\":2815:2825  msg.sender */\n      caller\n        /* \"contracts/Petisi.sol\":2799:2826  voter[_id].push(msg.sender) */\n      swap1\n      dup1\n      0x01\n      dup2\n      sload\n      add\n      dup1\n      dup3\n      sstore\n      dup1\n      swap2\n      pop\n      pop\n      0x01\n      swap1\n      sub\n      swap1\n      0x00\n      mstore\n      keccak256(0x00, 0x20)\n      add\n      0x00\n      swap1\n      swap2\n      swap1\n      swap2\n      swap1\n      swap2\n      0x0100\n      exp\n      dup2\n      sload\n      dup2\n      0xffffffffffffffffffffffffffffffffffffffff\n      mul\n      not\n      and\n      swap1\n      dup4\n      0xffffffffffffffffffffffffffffffffffffffff\n      and\n      mul\n      or\n      swap1\n      sstore\n      pop\n        /* \"contracts/Petisi.sol\":2841:2879  SignSuccess(hasvoted[_id][msg.sender]) */\n      0x3819d91b2efa54f01ee20099da12a4ef79fec68f323d52f38368f3e72a695acc\n        /* \"contracts/Petisi.sol\":2853:2861  hasvoted */\n      0x05\n        /* \"contracts/Petisi.sol\":2853:2866  hasvoted[_id] */\n      0x00\n        /* \"contracts/Petisi.sol\":2862:2865  _id */\n      dup6\n        /* \"contracts/Petisi.sol\":2853:2866  hasvoted[_id] */\n      dup2\n      mstore\n      0x20\n      add\n      swap1\n      dup2\n      mstore\n      0x20\n      add\n      0x00\n      keccak256\n        /* \"contracts/Petisi.sol\":2853:2878  hasvoted[_id][msg.sender] */\n      0x00\n        /* \"contracts/Petisi.sol\":2867:2877  msg.sender */\n      caller\n        /* \"contracts/Petisi.sol\":2853:2878  hasvoted[_id][msg.sender] */\n      0xffffffffffffffffffffffffffffffffffffffff\n      and\n      0xffffffffffffffffffffffffffffffffffffffff\n      and\n      dup2\n      mstore\n      0x20\n      add\n      swap1\n      dup2\n      mstore\n      0x20\n      add\n      0x00\n      keccak256\n      0x00\n      swap1\n      sload\n      swap1\n      0x0100\n      exp\n      swap1\n      div\n      0xff\n      and\n        /* \"contracts/Petisi.sol\":2841:2879  SignSuccess(hasvoted[_id][msg.sender]) */\n      mload(0x40)\n      tag_128\n      swap2\n      swap1\n      tag_49\n      jump\t// in\n    tag_128:\n      mload(0x40)\n      dup1\n      swap2\n      sub\n      swap1\n      log1\n        /* \"contracts/Petisi.sol\":1323:1324  _ */\n      pop\n        /* \"contracts/Petisi.sol\":1158:1331  {... */\n      pop\n        /* \"contracts/Petisi.sol\":2585:2886  function signing(uint256 _id) public onlyRegisterd onlyHasNoVoted(_id){... */\n      pop\n      jump\t// out\n        /* \"contracts/Petisi.sol\":2339:2457  function getMyProposal(address _user) public view returns (Proposal[] memory){... */\n    tag_32:\n        /* \"contracts/Petisi.sol\":2398:2415  Proposal[] memory */\n      0x60\n        /* \"contracts/Petisi.sol\":2433:2443  myProposal */\n      0x03\n        /* \"contracts/Petisi.sol\":2433:2450  myProposal[_user] */\n      0x00\n        /* \"contracts/Petisi.sol\":2444:2449  _user */\n      dup4\n        /* \"contracts/Petisi.sol\":2433:2450  myProposal[_user] */\n      0xffffffffffffffffffffffffffffffffffffffff\n      and\n      0xffffffffffffffffffffffffffffffffffffffff\n      and\n      dup2\n      mstore\n      0x20\n      add\n      swap1\n      dup2\n      mstore\n      0x20\n      add\n      0x00\n      keccak256\n        /* \"contracts/Petisi.sol\":2426:2450  return myProposal[_user] */\n      dup1\n      sload\n      dup1\n      0x20\n      mul\n      0x20\n      add\n      mload(0x40)\n      swap1\n      dup2\n      add\n      0x40\n      mstore\n      dup1\n      swap3\n      swap2\n      swap1\n      dup2\n      dup2\n      mstore\n      0x20\n      add\n      0x00\n      swap1\n    tag_130:\n      dup3\n      dup3\n      lt\n      iszero\n      tag_131\n      jumpi\n      dup4\n      dup3\n      swap1\n      0x00\n      mstore\n      keccak256(0x00, 0x20)\n      swap1\n      0x0a\n      mul\n      add\n      mload(0x40)\n      dup1\n      0x0140\n      add\n      0x40\n      mstore\n      swap1\n      dup2\n      0x00\n      dup3\n      add\n      sload\n      dup2\n      mstore\n      0x20\n      add\n      0x01\n      dup3\n      add\n      dup1\n      sload\n      tag_133\n      swap1\n      tag_82\n      jump\t// in\n    tag_133:\n      dup1\n      0x1f\n      add\n      0x20\n      dup1\n      swap2\n      div\n      mul\n      0x20\n      add\n      mload(0x40)\n      swap1\n      dup2\n      add\n      0x40\n      mstore\n      dup1\n      swap3\n      swap2\n      swap1\n      dup2\n      dup2\n      mstore\n      0x20\n      add\n      dup3\n      dup1\n      sload\n      tag_134\n      swap1\n      tag_82\n      jump\t// in\n    tag_134:\n      dup1\n      iszero\n      tag_135\n      jumpi\n      dup1\n      0x1f\n      lt\n      tag_136\n      jumpi\n      0x0100\n      dup1\n      dup4\n      sload\n      div\n      mul\n      dup4\n      mstore\n      swap2\n      0x20\n      add\n      swap2\n      jump(tag_135)\n    tag_136:\n      dup3\n      add\n      swap2\n      swap1\n      0x00\n      mstore\n      keccak256(0x00, 0x20)\n      swap1\n    tag_137:\n      dup2\n      sload\n      dup2\n      mstore\n      swap1\n      0x01\n      add\n      swap1\n      0x20\n      add\n      dup1\n      dup4\n      gt\n      tag_137\n      jumpi\n      dup3\n      swap1\n      sub\n      0x1f\n      and\n      dup3\n      add\n      swap2\n    tag_135:\n      pop\n      pop\n      pop\n      pop\n      pop\n      dup2\n      mstore\n      0x20\n      add\n      0x02\n      dup3\n      add\n      dup1\n      sload\n      tag_138\n      swap1\n      tag_82\n      jump\t// in\n    tag_138:\n      dup1\n      0x1f\n      add\n      0x20\n      dup1\n      swap2\n      div\n      mul\n      0x20\n      add\n      mload(0x40)\n      swap1\n      dup2\n      add\n      0x40\n      mstore\n      dup1\n      swap3\n      swap2\n      swap1\n      dup2\n      dup2\n      mstore\n      0x20\n      add\n      dup3\n      dup1\n      sload\n      tag_139\n      swap1\n      tag_82\n      jump\t// in\n    tag_139:\n      dup1\n      iszero\n      tag_140\n      jumpi\n      dup1\n      0x1f\n      lt\n      tag_141\n      jumpi\n      0x0100\n      dup1\n      dup4\n      sload\n      div\n      mul\n      dup4\n      mstore\n      swap2\n      0x20\n      add\n      swap2\n      jump(tag_140)\n    tag_141:\n      dup3\n      add\n      swap2\n      swap1\n      0x00\n      mstore\n      keccak256(0x00, 0x20)\n      swap1\n    tag_142:\n      dup2\n      sload\n      dup2\n      mstore\n      swap1\n      0x01\n      add\n      swap1\n      0x20\n      add\n      dup1\n      dup4\n      gt\n      tag_142\n      jumpi\n      dup3\n      swap1\n      sub\n      0x1f\n      and\n      dup3\n      add\n      swap2\n    tag_140:\n      pop\n      pop\n      pop\n      pop\n      pop\n      dup2\n      mstore\n      0x20\n      add\n      0x03\n      dup3\n      add\n      sload\n      dup2\n      mstore\n      0x20\n      add\n      0x04\n      dup3\n      add\n      dup1\n      sload\n      tag_143\n      swap1\n      tag_82\n      jump\t// in\n    tag_143:\n      dup1\n      0x1f\n      add\n      0x20\n      dup1\n      swap2\n      div\n      mul\n      0x20\n      add\n      mload(0x40)\n      swap1\n      dup2\n      add\n      0x40\n      mstore\n      dup1\n      swap3\n      swap2\n      swap1\n      dup2\n      dup2\n      mstore\n      0x20\n      add\n      dup3\n      dup1\n      sload\n      tag_144\n      swap1\n      tag_82\n      jump\t// in\n    tag_144:\n      dup1\n      iszero\n      tag_145\n      jumpi\n      dup1\n      0x1f\n      lt\n      tag_146\n      jumpi\n      0x0100\n      dup1\n      dup4\n      sload\n      div\n      mul\n      dup4\n      mstore\n      swap2\n      0x20\n      add\n      swap2\n      jump(tag_145)\n    tag_146:\n      dup3\n      add\n      swap2\n      swap1\n      0x00\n      mstore\n      keccak256(0x00, 0x20)\n      swap1\n    tag_147:\n      dup2\n      sload\n      dup2\n      mstore\n      swap1\n      0x01\n      add\n      swap1\n      0x20\n      add\n      dup1\n      dup4\n      gt\n      tag_147\n      jumpi\n      dup3\n      swap1\n      sub\n      0x1f\n      and\n      dup3\n      add\n      swap2\n    tag_145:\n      pop\n      pop\n      pop\n      pop\n      pop\n      dup2\n      mstore\n      0x20\n      add\n      0x05\n      dup3\n      add\n      sload\n      dup2\n      mstore\n      0x20\n      add\n      0x06\n      dup3\n      add\n      0x00\n      swap1\n      sload\n      swap1\n      0x0100\n      exp\n      swap1\n      div\n      0xffffffffffffffffffffffffffffffffffffffff\n      and\n      0xffffffffffffffffffffffffffffffffffffffff\n      and\n      0xffffffffffffffffffffffffffffffffffffffff\n      and\n      dup2\n      mstore\n      0x20\n      add\n      0x07\n      dup3\n      add\n      dup1\n      sload\n      tag_148\n      swap1\n      tag_82\n      jump\t// in\n    tag_148:\n      dup1\n      0x1f\n      add\n      0x20\n      dup1\n      swap2\n      div\n      mul\n      0x20\n      add\n      mload(0x40)\n      swap1\n      dup2\n      add\n      0x40\n      mstore\n      dup1\n      swap3\n      swap2\n      swap1\n      dup2\n      dup2\n      mstore\n      0x20\n      add\n      dup3\n      dup1\n      sload\n      tag_149\n      swap1\n      tag_82\n      jump\t// in\n    tag_149:\n      dup1\n      iszero\n      tag_150\n      jumpi\n      dup1\n      0x1f\n      lt\n      tag_151\n      jumpi\n      0x0100\n      dup1\n      dup4\n      sload\n      div\n      mul\n      dup4\n      mstore\n      swap2\n      0x20\n      add\n      swap2\n      jump(tag_150)\n    tag_151:\n      dup3\n      add\n      swap2\n      swap1\n      0x00\n      mstore\n      keccak256(0x00, 0x20)\n      swap1\n    tag_152:\n      dup2\n      sload\n      dup2\n      mstore\n      swap1\n      0x01\n      add\n      swap1\n      0x20\n      add\n      dup1\n      dup4\n      gt\n      tag_152\n      jumpi\n      dup3\n      swap1\n      sub\n      0x1f\n      and\n      dup3\n      add\n      swap2\n    tag_150:\n      pop\n      pop\n      pop\n      pop\n      pop\n      dup2\n      mstore\n      0x20\n      add\n      0x08\n      dup3\n      add\n      dup1\n      sload\n      tag_153\n      swap1\n      tag_82\n      jump\t// in\n    tag_153:\n      dup1\n      0x1f\n      add\n      0x20\n      dup1\n      swap2\n      div\n      mul\n      0x20\n      add\n      mload(0x40)\n      swap1\n      dup2\n      add\n      0x40\n      mstore\n      dup1\n      swap3\n      swap2\n      swap1\n      dup2\n      dup2\n      mstore\n      0x20\n      add\n      dup3\n      dup1\n      sload\n      tag_154\n      swap1\n      tag_82\n      jump\t// in\n    tag_154:\n      dup1\n      iszero\n      tag_155\n      jumpi\n      dup1\n      0x1f\n      lt\n      tag_156\n      jumpi\n      0x0100\n      dup1\n      dup4\n      sload\n      div\n      mul\n      dup4\n      mstore\n      swap2\n      0x20\n      add\n      swap2\n      jump(tag_155)\n    tag_156:\n      dup3\n      add\n      swap2\n      swap1\n      0x00\n      mstore\n      keccak256(0x00, 0x20)\n      swap1\n    tag_157:\n      dup2\n      sload\n      dup2\n      mstore\n      swap1\n      0x01\n      add\n      swap1\n      0x20\n      add\n      dup1\n      dup4\n      gt\n      tag_157\n      jumpi\n      dup3\n      swap1\n      sub\n      0x1f\n      and\n      dup3\n      add\n      swap2\n    tag_155:\n      pop\n      pop\n      pop\n      pop\n      pop\n      dup2\n      mstore\n      0x20\n      add\n      0x09\n      dup3\n      add\n      sload\n      dup2\n      mstore\n      pop\n      pop\n      dup2\n      mstore\n      0x20\n      add\n      swap1\n      0x01\n      add\n      swap1\n      jump(tag_130)\n    tag_131:\n      pop\n      pop\n      pop\n      pop\n      swap1\n      pop\n        /* \"contracts/Petisi.sol\":2339:2457  function getMyProposal(address _user) public view returns (Proposal[] memory){... */\n      swap2\n      swap1\n      pop\n      jump\t// out\n        /* \"contracts/Petisi.sol\":2892:2996  function getSigner(uint256 _id) public view returns (address[] memory){... */\n    tag_37:\n        /* \"contracts/Petisi.sol\":2945:2961  address[] memory */\n      0x60\n        /* \"contracts/Petisi.sol\":2979:2984  voter */\n      0x06\n        /* \"contracts/Petisi.sol\":2979:2989  voter[_id] */\n      0x00\n        /* \"contracts/Petisi.sol\":2985:2988  _id */\n      dup4\n        /* \"contracts/Petisi.sol\":2979:2989  voter[_id] */\n      dup2\n      mstore\n      0x20\n      add\n      swap1\n      dup2\n      mstore\n      0x20\n      add\n      0x00\n      keccak256\n        /* \"contracts/Petisi.sol\":2972:2989  return voter[_id] */\n      dup1\n      sload\n      dup1\n      0x20\n      mul\n      0x20\n      add\n      mload(0x40)\n      swap1\n      dup2\n      add\n      0x40\n      mstore\n      dup1\n      swap3\n      swap2\n      swap1\n      dup2\n      dup2\n      mstore\n      0x20\n      add\n      dup3\n      dup1\n      sload\n      dup1\n      iszero\n      tag_159\n      jumpi\n      0x20\n      mul\n      dup3\n      add\n      swap2\n      swap1\n      0x00\n      mstore\n      keccak256(0x00, 0x20)\n      swap1\n    tag_160:\n      dup2\n      0x00\n      swap1\n      sload\n      swap1\n      0x0100\n      exp\n      swap1\n      div\n      0xffffffffffffffffffffffffffffffffffffffff\n      and\n      0xffffffffffffffffffffffffffffffffffffffff\n      and\n      dup2\n      mstore\n      0x20\n      add\n      swap1\n      0x01\n      add\n      swap1\n      dup1\n      dup4\n      gt\n      tag_160\n      jumpi\n    tag_159:\n      pop\n      pop\n      pop\n      pop\n      pop\n      swap1\n      pop\n        /* \"contracts/Petisi.sol\":2892:2996  function getSigner(uint256 _id) public view returns (address[] memory){... */\n      swap2\n      swap1\n      pop\n      jump\t// out\n        /* \"contracts/Petisi.sol\":1471:2226  function createProposal(string memory _title, string memory _description, string memory _imgUrl, uint256 _deadline) onlyRegisterd public {... */\n    tag_43:\n        /* \"contracts/Petisi.sol\":1168:1203  IProfile.profile memory profileTemp */\n      0x00\n        /* \"contracts/Petisi.sol\":1207:1222  profileContract */\n      0x01\n      0x00\n      swap1\n      sload\n      swap1\n      0x0100\n      exp\n      swap1\n      div\n      0xffffffffffffffffffffffffffffffffffffffff\n      and\n        /* \"contracts/Petisi.sol\":1207:1233  profileContract.getProfile */\n      0xffffffffffffffffffffffffffffffffffffffff\n      and\n      0x0f53a470\n        /* \"contracts/Petisi.sol\":1234:1244  msg.sender */\n      caller\n        /* \"contracts/Petisi.sol\":1207:1245  profileContract.getProfile(msg.sender) */\n      mload(0x40)\n      dup3\n      0xffffffff\n      and\n      0xe0\n      shl\n      dup2\n      mstore\n      0x04\n      add\n      tag_162\n      swap2\n      swap1\n      tag_55\n      jump\t// in\n    tag_162:\n      0x00\n      mload(0x40)\n      dup1\n      dup4\n      sub\n      dup2\n      dup7\n      gas\n      staticcall\n      iszero\n      dup1\n      iszero\n      tag_164\n      jumpi\n      returndatasize\n      0x00\n      dup1\n      returndatacopy\n      revert(0x00, returndatasize)\n    tag_164:\n      pop\n      pop\n      pop\n      pop\n      mload(0x40)\n      returndatasize\n      0x00\n      dup3\n      returndatacopy\n      returndatasize\n      not(0x1f)\n      0x1f\n      dup3\n      add\n      and\n      dup3\n      add\n      dup1\n      0x40\n      mstore\n      pop\n      dup2\n      add\n      swap1\n      tag_165\n      swap2\n      swap1\n      tag_112\n      jump\t// in\n    tag_165:\n        /* \"contracts/Petisi.sol\":1168:1245  IProfile.profile memory profileTemp =  profileContract.getProfile(msg.sender) */\n      swap1\n      pop\n        /* \"contracts/Petisi.sol\":1263:1274  profileTemp */\n      dup1\n        /* \"contracts/Petisi.sol\":1263:1287  profileTemp.isRegistered */\n      0x60\n      add\n      mload\n        /* \"contracts/Petisi.sol\":1255:1313  require(profileTemp.isRegistered, \"You have to Registerd\") */\n      tag_166\n      jumpi\n      mload(0x40)\n      0x08c379a000000000000000000000000000000000000000000000000000000000\n      dup2\n      mstore\n      0x04\n      add\n      tag_167\n      swap1\n      tag_115\n      jump\t// in\n    tag_167:\n      mload(0x40)\n      dup1\n      swap2\n      sub\n      swap1\n      revert\n    tag_166:\n        /* \"contracts/Petisi.sol\":1618:1644  string memory usernameUser */\n      0x00\n        /* \"contracts/Petisi.sol\":1648:1663  profileContract */\n      0x01\n      0x00\n      swap1\n      sload\n      swap1\n      0x0100\n      exp\n      swap1\n      div\n      0xffffffffffffffffffffffffffffffffffffffff\n      and\n        /* \"contracts/Petisi.sol\":1648:1682  profileContract.getUsernameProfile */\n      0xffffffffffffffffffffffffffffffffffffffff\n      and\n      0x04386432\n        /* \"contracts/Petisi.sol\":1683:1693  msg.sender */\n      caller\n        /* \"contracts/Petisi.sol\":1648:1694  profileContract.getUsernameProfile(msg.sender) */\n      mload(0x40)\n      dup3\n      0xffffffff\n      and\n      0xe0\n      shl\n      dup2\n      mstore\n      0x04\n      add\n      tag_169\n      swap2\n      swap1\n      tag_55\n      jump\t// in\n    tag_169:\n      0x00\n      mload(0x40)\n      dup1\n      dup4\n      sub\n      dup2\n      dup7\n      gas\n      staticcall\n      iszero\n      dup1\n      iszero\n      tag_171\n      jumpi\n      returndatasize\n      0x00\n      dup1\n      returndatacopy\n      revert(0x00, returndatasize)\n    tag_171:\n      pop\n      pop\n      pop\n      pop\n      mload(0x40)\n      returndatasize\n      0x00\n      dup3\n      returndatacopy\n      returndatasize\n      not(0x1f)\n      0x1f\n      dup3\n      add\n      and\n      dup3\n      add\n      dup1\n      0x40\n      mstore\n      pop\n      dup2\n      add\n      swap1\n      tag_172\n      swap2\n      swap1\n      tag_173\n      jump\t// in\n    tag_172:\n        /* \"contracts/Petisi.sol\":1618:1694  string memory usernameUser =  profileContract.getUsernameProfile(msg.sender) */\n      swap1\n      pop\n        /* \"contracts/Petisi.sol\":1704:1725  string memory imgUser */\n      0x00\n        /* \"contracts/Petisi.sol\":1729:1744  profileContract */\n      0x01\n      0x00\n      swap1\n      sload\n      swap1\n      0x0100\n      exp\n      swap1\n      div\n      0xffffffffffffffffffffffffffffffffffffffff\n      and\n        /* \"contracts/Petisi.sol\":1729:1758  profileContract.getImgProfile */\n      0xffffffffffffffffffffffffffffffffffffffff\n      and\n      0xa2e84e6e\n        /* \"contracts/Petisi.sol\":1759:1769  msg.sender */\n      caller\n        /* \"contracts/Petisi.sol\":1729:1770  profileContract.getImgProfile(msg.sender) */\n      mload(0x40)\n      dup3\n      0xffffffff\n      and\n      0xe0\n      shl\n      dup2\n      mstore\n      0x04\n      add\n      tag_174\n      swap2\n      swap1\n      tag_55\n      jump\t// in\n    tag_174:\n      0x00\n      mload(0x40)\n      dup1\n      dup4\n      sub\n      dup2\n      dup7\n      gas\n      staticcall\n      iszero\n      dup1\n      iszero\n      tag_176\n      jumpi\n      returndatasize\n      0x00\n      dup1\n      returndatacopy\n      revert(0x00, returndatasize)\n    tag_176:\n      pop\n      pop\n      pop\n      pop\n      mload(0x40)\n      returndatasize\n      0x00\n      dup3\n      returndatacopy\n      returndatasize\n      not(0x1f)\n      0x1f\n      dup3\n      add\n      and\n      dup3\n      add\n      dup1\n      0x40\n      mstore\n      pop\n      dup2\n      add\n      swap1\n      tag_177\n      swap2\n      swap1\n      tag_173\n      jump\t// in\n    tag_177:\n        /* \"contracts/Petisi.sol\":1704:1770  string memory imgUser =  profileContract.getImgProfile(msg.sender) */\n      swap1\n      pop\n        /* \"contracts/Petisi.sol\":1780:1807  Proposal memory newProposal */\n      0x00\n        /* \"contracts/Petisi.sol\":1810:1932  Proposal(counterProposal, _title, _description, 0, _imgUrl, _deadline, msg.sender, usernameUser, imgUser, block.timestamp) */\n      mload(0x40)\n      dup1\n      0x0140\n      add\n      0x40\n      mstore\n      dup1\n        /* \"contracts/Petisi.sol\":1819:1834  counterProposal */\n      sload(0x02)\n        /* \"contracts/Petisi.sol\":1810:1932  Proposal(counterProposal, _title, _description, 0, _imgUrl, _deadline, msg.sender, usernameUser, imgUser, block.timestamp) */\n      dup2\n      mstore\n      0x20\n      add\n        /* \"contracts/Petisi.sol\":1836:1842  _title */\n      dup10\n        /* \"contracts/Petisi.sol\":1810:1932  Proposal(counterProposal, _title, _description, 0, _imgUrl, _deadline, msg.sender, usernameUser, imgUser, block.timestamp) */\n      dup2\n      mstore\n      0x20\n      add\n        /* \"contracts/Petisi.sol\":1844:1856  _description */\n      dup9\n        /* \"contracts/Petisi.sol\":1810:1932  Proposal(counterProposal, _title, _description, 0, _imgUrl, _deadline, msg.sender, usernameUser, imgUser, block.timestamp) */\n      dup2\n      mstore\n      0x20\n      add\n        /* \"contracts/Petisi.sol\":1858:1859  0 */\n      0x00\n        /* \"contracts/Petisi.sol\":1810:1932  Proposal(counterProposal, _title, _description, 0, _imgUrl, _deadline, msg.sender, usernameUser, imgUser, block.timestamp) */\n      dup2\n      mstore\n      0x20\n      add\n        /* \"contracts/Petisi.sol\":1861:1868  _imgUrl */\n      dup8\n        /* \"contracts/Petisi.sol\":1810:1932  Proposal(counterProposal, _title, _description, 0, _imgUrl, _deadline, msg.sender, usernameUser, imgUser, block.timestamp) */\n      dup2\n      mstore\n      0x20\n      add\n        /* \"contracts/Petisi.sol\":1870:1879  _deadline */\n      dup7\n        /* \"contracts/Petisi.sol\":1810:1932  Proposal(counterProposal, _title, _description, 0, _imgUrl, _deadline, msg.sender, usernameUser, imgUser, block.timestamp) */\n      dup2\n      mstore\n      0x20\n      add\n        /* \"contracts/Petisi.sol\":1881:1891  msg.sender */\n      caller\n        /* \"contracts/Petisi.sol\":1810:1932  Proposal(counterProposal, _title, _description, 0, _imgUrl, _deadline, msg.sender, usernameUser, imgUser, block.timestamp) */\n      0xffffffffffffffffffffffffffffffffffffffff\n      and\n      dup2\n      mstore\n      0x20\n      add\n        /* \"contracts/Petisi.sol\":1893:1905  usernameUser */\n      dup5\n        /* \"contracts/Petisi.sol\":1810:1932  Proposal(counterProposal, _title, _description, 0, _imgUrl, _deadline, msg.sender, usernameUser, imgUser, block.timestamp) */\n      dup2\n      mstore\n      0x20\n      add\n        /* \"contracts/Petisi.sol\":1907:1914  imgUser */\n      dup4\n        /* \"contracts/Petisi.sol\":1810:1932  Proposal(counterProposal, _title, _description, 0, _imgUrl, _deadline, msg.sender, usernameUser, imgUser, block.timestamp) */\n      dup2\n      mstore\n      0x20\n      add\n        /* \"contracts/Petisi.sol\":1916:1931  block.timestamp */\n      timestamp\n        /* \"contracts/Petisi.sol\":1810:1932  Proposal(counterProposal, _title, _description, 0, _imgUrl, _deadline, msg.sender, usernameUser, imgUser, block.timestamp) */\n      dup2\n      mstore\n      pop\n        /* \"contracts/Petisi.sol\":1780:1932  Proposal memory newProposal = Proposal(counterProposal, _title, _description, 0, _imgUrl, _deadline, msg.sender, usernameUser, imgUser, block.timestamp) */\n      swap1\n      pop\n        /* \"contracts/Petisi.sol\":1972:1983  newProposal */\n      dup1\n        /* \"contracts/Petisi.sol\":1943:1952  proposals */\n      0x04\n        /* \"contracts/Petisi.sol\":1943:1969  proposals[counterProposal] */\n      0x00\n        /* \"contracts/Petisi.sol\":1953:1968  counterProposal */\n      sload(0x02)\n        /* \"contracts/Petisi.sol\":1943:1969  proposals[counterProposal] */\n      dup2\n      mstore\n      0x20\n      add\n      swap1\n      dup2\n      mstore\n      0x20\n      add\n      0x00\n      keccak256\n        /* \"contracts/Petisi.sol\":1943:1983  proposals[counterProposal] = newProposal */\n      0x00\n      dup3\n      add\n      mload\n      dup2\n      0x00\n      add\n      sstore\n      0x20\n      dup3\n      add\n      mload\n      dup2\n      0x01\n      add\n      swap1\n      dup2\n      tag_178\n      swap2\n      swap1\n      tag_179\n      jump\t// in\n    tag_178:\n      pop\n      0x40\n      dup3\n      add\n      mload\n      dup2\n      0x02\n      add\n      swap1\n      dup2\n      tag_180\n      swap2\n      swap1\n      tag_179\n      jump\t// in\n    tag_180:\n      pop\n      0x60\n      dup3\n      add\n      mload\n      dup2\n      0x03\n      add\n      sstore\n      0x80\n      dup3\n      add\n      mload\n      dup2\n      0x04\n      add\n      swap1\n      dup2\n      tag_181\n      swap2\n      swap1\n      tag_179\n      jump\t// in\n    tag_181:\n      pop\n      0xa0\n      dup3\n      add\n      mload\n      dup2\n      0x05\n      add\n      sstore\n      0xc0\n      dup3\n      add\n      mload\n      dup2\n      0x06\n      add\n      exp(0x0100, 0x00)\n      dup2\n      sload\n      dup2\n      0xffffffffffffffffffffffffffffffffffffffff\n      mul\n      not\n      and\n      swap1\n      dup4\n      0xffffffffffffffffffffffffffffffffffffffff\n      and\n      mul\n      or\n      swap1\n      sstore\n      pop\n      0xe0\n      dup3\n      add\n      mload\n      dup2\n      0x07\n      add\n      swap1\n      dup2\n      tag_182\n      swap2\n      swap1\n      tag_179\n      jump\t// in\n    tag_182:\n      pop\n      0x0100\n      dup3\n      add\n      mload\n      dup2\n      0x08\n      add\n      swap1\n      dup2\n      tag_183\n      swap2\n      swap1\n      tag_179\n      jump\t// in\n    tag_183:\n      pop\n      0x0120\n      dup3\n      add\n      mload\n      dup2\n      0x09\n      add\n      sstore\n      swap1\n      pop\n      pop\n        /* \"contracts/Petisi.sol\":1993:2003  myProposal */\n      0x03\n        /* \"contracts/Petisi.sol\":1993:2015  myProposal[msg.sender] */\n      0x00\n        /* \"contracts/Petisi.sol\":2004:2014  msg.sender */\n      caller\n        /* \"contracts/Petisi.sol\":1993:2015  myProposal[msg.sender] */\n      0xffffffffffffffffffffffffffffffffffffffff\n      and\n      0xffffffffffffffffffffffffffffffffffffffff\n      and\n      dup2\n      mstore\n      0x20\n      add\n      swap1\n      dup2\n      mstore\n      0x20\n      add\n      0x00\n      keccak256\n        /* \"contracts/Petisi.sol\":2021:2032  newProposal */\n      dup2\n        /* \"contracts/Petisi.sol\":1993:2033  myProposal[msg.sender].push(newProposal) */\n      swap1\n      dup1\n      0x01\n      dup2\n      sload\n      add\n      dup1\n      dup3\n      sstore\n      dup1\n      swap2\n      pop\n      pop\n      0x01\n      swap1\n      sub\n      swap1\n      0x00\n      mstore\n      keccak256(0x00, 0x20)\n      swap1\n      0x0a\n      mul\n      add\n      0x00\n      swap1\n      swap2\n      swap1\n      swap2\n      swap1\n      swap2\n      pop\n      0x00\n      dup3\n      add\n      mload\n      dup2\n      0x00\n      add\n      sstore\n      0x20\n      dup3\n      add\n      mload\n      dup2\n      0x01\n      add\n      swap1\n      dup2\n      tag_185\n      swap2\n      swap1\n      tag_179\n      jump\t// in\n    tag_185:\n      pop\n      0x40\n      dup3\n      add\n      mload\n      dup2\n      0x02\n      add\n      swap1\n      dup2\n      tag_186\n      swap2\n      swap1\n      tag_179\n      jump\t// in\n    tag_186:\n      pop\n      0x60\n      dup3\n      add\n      mload\n      dup2\n      0x03\n      add\n      sstore\n      0x80\n      dup3\n      add\n      mload\n      dup2\n      0x04\n      add\n      swap1\n      dup2\n      tag_187\n      swap2\n      swap1\n      tag_179\n      jump\t// in\n    tag_187:\n      pop\n      0xa0\n      dup3\n      add\n      mload\n      dup2\n      0x05\n      add\n      sstore\n      0xc0\n      dup3\n      add\n      mload\n      dup2\n      0x06\n      add\n      exp(0x0100, 0x00)\n      dup2\n      sload\n      dup2\n      0xffffffffffffffffffffffffffffffffffffffff\n      mul\n      not\n      and\n      swap1\n      dup4\n      0xffffffffffffffffffffffffffffffffffffffff\n      and\n      mul\n      or\n      swap1\n      sstore\n      pop\n      0xe0\n      dup3\n      add\n      mload\n      dup2\n      0x07\n      add\n      swap1\n      dup2\n      tag_188\n      swap2\n      swap1\n      tag_179\n      jump\t// in\n    tag_188:\n      pop\n      0x0100\n      dup3\n      add\n      mload\n      dup2\n      0x08\n      add\n      swap1\n      dup2\n      tag_189\n      swap2\n      swap1\n      tag_179\n      jump\t// in\n    tag_189:\n      pop\n      0x0120\n      dup3\n      add\n      mload\n      dup2\n      0x09\n      add\n      sstore\n      pop\n      pop\n        /* \"contracts/Petisi.sol\":2043:2055  proposalList */\n      0x07\n        /* \"contracts/Petisi.sol\":2061:2070  proposals */\n      0x04\n        /* \"contracts/Petisi.sol\":2061:2087  proposals[counterProposal] */\n      0x00\n        /* \"contracts/Petisi.sol\":2071:2086  counterProposal */\n      sload(0x02)\n        /* \"contracts/Petisi.sol\":2061:2087  proposals[counterProposal] */\n      dup2\n      mstore\n      0x20\n      add\n      swap1\n      dup2\n      mstore\n      0x20\n      add\n      0x00\n      keccak256\n        /* \"contracts/Petisi.sol\":2043:2088  proposalList.push(proposals[counterProposal]) */\n      swap1\n      dup1\n      0x01\n      dup2\n      sload\n      add\n      dup1\n      dup3\n      sstore\n      dup1\n      swap2\n      pop\n      pop\n      0x01\n      swap1\n      sub\n      swap1\n      0x00\n      mstore\n      keccak256(0x00, 0x20)\n      swap1\n      0x0a\n      mul\n      add\n      0x00\n      swap1\n      swap2\n      swap1\n      swap2\n      swap1\n      swap2\n      pop\n      0x00\n      dup3\n      add\n      sload\n      dup2\n      0x00\n      add\n      sstore\n      0x01\n      dup3\n      add\n      dup2\n      0x01\n      add\n      swap1\n      dup2\n      tag_191\n      swap2\n      swap1\n      tag_192\n      jump\t// in\n    tag_191:\n      pop\n      0x02\n      dup3\n      add\n      dup2\n      0x02\n      add\n      swap1\n      dup2\n      tag_193\n      swap2\n      swap1\n      tag_192\n      jump\t// in\n    tag_193:\n      pop\n      0x03\n      dup3\n      add\n      sload\n      dup2\n      0x03\n      add\n      sstore\n      0x04\n      dup3\n      add\n      dup2\n      0x04\n      add\n      swap1\n      dup2\n      tag_194\n      swap2\n      swap1\n      tag_192\n      jump\t// in\n    tag_194:\n      pop\n      0x05\n      dup3\n      add\n      sload\n      dup2\n      0x05\n      add\n      sstore\n      0x06\n      dup3\n      add\n      0x00\n      swap1\n      sload\n      swap1\n      0x0100\n      exp\n      swap1\n      div\n      0xffffffffffffffffffffffffffffffffffffffff\n      and\n      dup2\n      0x06\n      add\n      exp(0x0100, 0x00)\n      dup2\n      sload\n      dup2\n      0xffffffffffffffffffffffffffffffffffffffff\n      mul\n      not\n      and\n      swap1\n      dup4\n      0xffffffffffffffffffffffffffffffffffffffff\n      and\n      mul\n      or\n      swap1\n      sstore\n      pop\n      0x07\n      dup3\n      add\n      dup2\n      0x07\n      add\n      swap1\n      dup2\n      tag_195\n      swap2\n      swap1\n      tag_192\n      jump\t// in\n    tag_195:\n      pop\n      0x08\n      dup3\n      add\n      dup2\n      0x08\n      add\n      swap1\n      dup2\n      tag_196\n      swap2\n      swap1\n      tag_192\n      jump\t// in\n    tag_196:\n      pop\n      0x09\n      dup3\n      add\n      sload\n      dup2\n      0x09\n      add\n      sstore\n      pop\n      pop\n        /* \"contracts/Petisi.sol\":2103:2192  proposalCreated(counterProposal, _title, _description, 0, _imgUrl, _deadline, msg.sender) */\n      0x1961f6452621f42ceb4621cac123d1a782ecd2620c2d8c755fbf8f7c849b24a4\n        /* \"contracts/Petisi.sol\":2119:2134  counterProposal */\n      sload(0x02)\n        /* \"contracts/Petisi.sol\":2136:2142  _title */\n      dup10\n        /* \"contracts/Petisi.sol\":2144:2156  _description */\n      dup10\n        /* \"contracts/Petisi.sol\":2158:2159  0 */\n      0x00\n        /* \"contracts/Petisi.sol\":2161:2168  _imgUrl */\n      dup11\n        /* \"contracts/Petisi.sol\":2170:2179  _deadline */\n      dup11\n        /* \"contracts/Petisi.sol\":2181:2191  msg.sender */\n      caller\n        /* \"contracts/Petisi.sol\":2103:2192  proposalCreated(counterProposal, _title, _description, 0, _imgUrl, _deadline, msg.sender) */\n      mload(0x40)\n      tag_197\n      swap8\n      swap7\n      swap6\n      swap5\n      swap4\n      swap3\n      swap2\n      swap1\n      tag_198\n      jump\t// in\n    tag_197:\n      mload(0x40)\n      dup1\n      swap2\n      sub\n      swap1\n      log1\n        /* \"contracts/Petisi.sol\":2202:2217  counterProposal */\n      0x02\n      0x00\n        /* \"contracts/Petisi.sol\":2202:2219  counterProposal++ */\n      dup2\n      sload\n      dup1\n      swap3\n      swap2\n      swap1\n      tag_199\n      swap1\n      tag_200\n      jump\t// in\n    tag_199:\n      swap2\n      swap1\n      pop\n      sstore\n      pop\n        /* \"contracts/Petisi.sol\":1608:2226  {... */\n      pop\n      pop\n      pop\n        /* \"contracts/Petisi.sol\":1158:1331  {... */\n      pop\n        /* \"contracts/Petisi.sol\":1471:2226  function createProposal(string memory _title, string memory _description, string memory _imgUrl, uint256 _deadline) onlyRegisterd public {... */\n      pop\n      pop\n      pop\n      pop\n      jump\t// out\n        /* \"contracts/Petisi.sol\":963:1024  mapping(uint256 => mapping (address => bool)) public hasvoted */\n    tag_47:\n      mstore(0x20, 0x05)\n      dup2\n      0x00\n      mstore\n      mstore(0x20, keccak256(0x00, 0x40))\n      dup1\n      0x00\n      mstore\n      keccak256(0x00, 0x40)\n      0x00\n      swap2\n      pop\n      swap2\n      pop\n      swap1\n      sload\n      swap1\n      0x0100\n      exp\n      swap1\n      div\n      0xff\n      and\n      dup2\n      jump\t// out\n        /* \"@openzeppelin/contracts/access/Ownable.sol\":2293:2394  function renounceOwnership() public virtual onlyOwner {... */\n    tag_51:\n        /* \"@openzeppelin/contracts/access/Ownable.sol\":1531:1544  _checkOwner() */\n      tag_202\n        /* \"@openzeppelin/contracts/access/Ownable.sol\":1531:1542  _checkOwner */\n      tag_203\n        /* \"@openzeppelin/contracts/access/Ownable.sol\":1531:1544  _checkOwner() */\n      jump\t// in\n    tag_202:\n        /* \"@openzeppelin/contracts/access/Ownable.sol\":2357:2387  _transferOwnership(address(0)) */\n      tag_205\n        /* \"@openzeppelin/contracts/access/Ownable.sol\":2384:2385  0 */\n      0x00\n        /* \"@openzeppelin/contracts/access/Ownable.sol\":2357:2375  _transferOwnership */\n      tag_206\n        /* \"@openzeppelin/contracts/access/Ownable.sol\":2357:2387  _transferOwnership(address(0)) */\n      jump\t// in\n    tag_205:\n        /* \"@openzeppelin/contracts/access/Ownable.sol\":2293:2394  function renounceOwnership() public virtual onlyOwner {... */\n      jump\t// out\n        /* \"@openzeppelin/contracts/access/Ownable.sol\":1638:1723  function owner() public view virtual returns (address) {... */\n    tag_53:\n        /* \"@openzeppelin/contracts/access/Ownable.sol\":1684:1691  address */\n      0x00\n        /* \"@openzeppelin/contracts/access/Ownable.sol\":1710:1716  _owner */\n      dup1\n      0x00\n      swap1\n      sload\n      swap1\n      0x0100\n      exp\n      swap1\n      div\n      0xffffffffffffffffffffffffffffffffffffffff\n      and\n        /* \"@openzeppelin/contracts/access/Ownable.sol\":1703:1716  return _owner */\n      swap1\n      pop\n        /* \"@openzeppelin/contracts/access/Ownable.sol\":1638:1723  function owner() public view virtual returns (address) {... */\n      swap1\n      jump\t// out\n        /* \"contracts/Petisi.sol\":857:906  mapping (address => Proposal[]) public myProposal */\n    tag_59:\n      mstore(0x20, 0x03)\n      dup2\n      0x00\n      mstore\n      keccak256(0x00, 0x40)\n      dup2\n      dup2\n      sload\n      dup2\n      lt\n      tag_208\n      jumpi\n      0x00\n      dup1\n      revert\n    tag_208:\n      swap1\n      0x00\n      mstore\n      keccak256(0x00, 0x20)\n      swap1\n      0x0a\n      mul\n      add\n      0x00\n      swap2\n      pop\n      swap2\n      pop\n      pop\n      dup1\n      0x00\n      add\n      sload\n      swap1\n      dup1\n      0x01\n      add\n      dup1\n      sload\n      tag_210\n      swap1\n      tag_82\n      jump\t// in\n    tag_210:\n      dup1\n      0x1f\n      add\n      0x20\n      dup1\n      swap2\n      div\n      mul\n      0x20\n      add\n      mload(0x40)\n      swap1\n      dup2\n      add\n      0x40\n      mstore\n      dup1\n      swap3\n      swap2\n      swap1\n      dup2\n      dup2\n      mstore\n      0x20\n      add\n      dup3\n      dup1\n      sload\n      tag_211\n      swap1\n      tag_82\n      jump\t// in\n    tag_211:\n      dup1\n      iszero\n      tag_212\n      jumpi\n      dup1\n      0x1f\n      lt\n      tag_213\n      jumpi\n      0x0100\n      dup1\n      dup4\n      sload\n      div\n      mul\n      dup4\n      mstore\n      swap2\n      0x20\n      add\n      swap2\n      jump(tag_212)\n    tag_213:\n      dup3\n      add\n      swap2\n      swap1\n      0x00\n      mstore\n      keccak256(0x00, 0x20)\n      swap1\n    tag_214:\n      dup2\n      sload\n      dup2\n      mstore\n      swap1\n      0x01\n      add\n      swap1\n      0x20\n      add\n      dup1\n      dup4\n      gt\n      tag_214\n      jumpi\n      dup3\n      swap1\n      sub\n      0x1f\n      and\n      dup3\n      add\n      swap2\n    tag_212:\n      pop\n      pop\n      pop\n      pop\n      pop\n      swap1\n      dup1\n      0x02\n      add\n      dup1\n      sload\n      tag_215\n      swap1\n      tag_82\n      jump\t// in\n    tag_215:\n      dup1\n      0x1f\n      add\n      0x20\n      dup1\n      swap2\n      div\n      mul\n      0x20\n      add\n      mload(0x40)\n      swap1\n      dup2\n      add\n      0x40\n      mstore\n      dup1\n      swap3\n      swap2\n      swap1\n      dup2\n      dup2\n      mstore\n      0x20\n      add\n      dup3\n      dup1\n      sload\n      tag_216\n      swap1\n      tag_82\n      jump\t// in\n    tag_216:\n      dup1\n      iszero\n      tag_217\n      jumpi\n      dup1\n      0x1f\n      lt\n      tag_218\n      jumpi\n      0x0100\n      dup1\n      dup4\n      sload\n      div\n      mul\n      dup4\n      mstore\n      swap2\n      0x20\n      add\n      swap2\n      jump(tag_217)\n    tag_218:\n      dup3\n      add\n      swap2\n      swap1\n      0x00\n      mstore\n      keccak256(0x00, 0x20)\n      swap1\n    tag_219:\n      dup2\n      sload\n      dup2\n      mstore\n      swap1\n      0x01\n      add\n      swap1\n      0x20\n      add\n      dup1\n      dup4\n      gt\n      tag_219\n      jumpi\n      dup3\n      swap1\n      sub\n      0x1f\n      and\n      dup3\n      add\n      swap2\n    tag_217:\n      pop\n      pop\n      pop\n      pop\n      pop\n      swap1\n      dup1\n      0x03\n      add\n      sload\n      swap1\n      dup1\n      0x04\n      add\n      dup1\n      sload\n      tag_220\n      swap1\n      tag_82\n      jump\t// in\n    tag_220:\n      dup1\n      0x1f\n      add\n      0x20\n      dup1\n      swap2\n      div\n      mul\n      0x20\n      add\n      mload(0x40)\n      swap1\n      dup2\n      add\n      0x40\n      mstore\n      dup1\n      swap3\n      swap2\n      swap1\n      dup2\n      dup2\n      mstore\n      0x20\n      add\n      dup3\n      dup1\n      sload\n      tag_221\n      swap1\n      tag_82\n      jump\t// in\n    tag_221:\n      dup1\n      iszero\n      tag_222\n      jumpi\n      dup1\n      0x1f\n      lt\n      tag_223\n      jumpi\n      0x0100\n      dup1\n      dup4\n      sload\n      div\n      mul\n      dup4\n      mstore\n      swap2\n      0x20\n      add\n      swap2\n      jump(tag_222)\n    tag_223:\n      dup3\n      add\n      swap2\n      swap1\n      0x00\n      mstore\n      keccak256(0x00, 0x20)\n      swap1\n    tag_224:\n      dup2\n      sload\n      dup2\n      mstore\n      swap1\n      0x01\n      add\n      swap1\n      0x20\n      add\n      dup1\n      dup4\n      gt\n      tag_224\n      jumpi\n      dup3\n      swap1\n      sub\n      0x1f\n      and\n      dup3\n      add\n      swap2\n    tag_222:\n      pop\n      pop\n      pop\n      pop\n      pop\n      swap1\n      dup1\n      0x05\n      add\n      sload\n      swap1\n      dup1\n      0x06\n      add\n      0x00\n      swap1\n      sload\n      swap1\n      0x0100\n      exp\n      swap1\n      div\n      0xffffffffffffffffffffffffffffffffffffffff\n      and\n      swap1\n      dup1\n      0x07\n      add\n      dup1\n      sload\n      tag_225\n      swap1\n      tag_82\n      jump\t// in\n    tag_225:\n      dup1\n      0x1f\n      add\n      0x20\n      dup1\n      swap2\n      div\n      mul\n      0x20\n      add\n      mload(0x40)\n      swap1\n      dup2\n      add\n      0x40\n      mstore\n      dup1\n      swap3\n      swap2\n      swap1\n      dup2\n      dup2\n      mstore\n      0x20\n      add\n      dup3\n      dup1\n      sload\n      tag_226\n      swap1\n      tag_82\n      jump\t// in\n    tag_226:\n      dup1\n      iszero\n      tag_227\n      jumpi\n      dup1\n      0x1f\n      lt\n      tag_228\n      jumpi\n      0x0100\n      dup1\n      dup4\n      sload\n      div\n      mul\n      dup4\n      mstore\n      swap2\n      0x20\n      add\n      swap2\n      jump(tag_227)\n    tag_228:\n      dup3\n      add\n      swap2\n      swap1\n      0x00\n      mstore\n      keccak256(0x00, 0x20)\n      swap1\n    tag_229:\n      dup2\n      sload\n      dup2\n      mstore\n      swap1\n      0x01\n      add\n      swap1\n      0x20\n      add\n      dup1\n      dup4\n      gt\n      tag_229\n      jumpi\n      dup3\n      swap1\n      sub\n      0x1f\n      and\n      dup3\n      add\n      swap2\n    tag_227:\n      pop\n      pop\n      pop\n      pop\n      pop\n      swap1\n      dup1\n      0x08\n      add\n      dup1\n      sload\n      tag_230\n      swap1\n      tag_82\n      jump\t// in\n    tag_230:\n      dup1\n      0x1f\n      add\n      0x20\n      dup1\n      swap2\n      div\n      mul\n      0x20\n      add\n      mload(0x40)\n      swap1\n      dup2\n      add\n      0x40\n      mstore\n      dup1\n      swap3\n      swap2\n      swap1\n      dup2\n      dup2\n      mstore\n      0x20\n      add\n      dup3\n      dup1\n      sload\n      tag_231\n      swap1\n      tag_82\n      jump\t// in\n    tag_231:\n      dup1\n      iszero\n      tag_232\n      jumpi\n      dup1\n      0x1f\n      lt\n      tag_233\n      jumpi\n      0x0100\n      dup1\n      dup4\n      sload\n      div\n      mul\n      dup4\n      mstore\n      swap2\n      0x20\n      add\n      swap2\n      jump(tag_232)\n    tag_233:\n      dup3\n      add\n      swap2\n      swap1\n      0x00\n      mstore\n      keccak256(0x00, 0x20)\n      swap1\n    tag_234:\n      dup2\n      sload\n      dup2\n      mstore\n      swap1\n      0x01\n      add\n      swap1\n      0x20\n      add\n      dup1\n      dup4\n      gt\n      tag_234\n      jumpi\n      dup3\n      swap1\n      sub\n      0x1f\n      and\n      dup3\n      add\n      swap2\n    tag_232:\n      pop\n      pop\n      pop\n      pop\n      pop\n      swap1\n      dup1\n      0x09\n      add\n      sload\n      swap1\n      pop\n      dup11\n      jump\t// out\n        /* \"contracts/Petisi.sol\":1097:1127  Proposal[] public proposalList */\n    tag_63:\n      0x07\n      dup2\n      dup2\n      sload\n      dup2\n      lt\n      tag_235\n      jumpi\n      0x00\n      dup1\n      revert\n    tag_235:\n      swap1\n      0x00\n      mstore\n      keccak256(0x00, 0x20)\n      swap1\n      0x0a\n      mul\n      add\n      0x00\n      swap2\n      pop\n      swap1\n      pop\n      dup1\n      0x00\n      add\n      sload\n      swap1\n      dup1\n      0x01\n      add\n      dup1\n      sload\n      tag_237\n      swap1\n      tag_82\n      jump\t// in\n    tag_237:\n      dup1\n      0x1f\n      add\n      0x20\n      dup1\n      swap2\n      div\n      mul\n      0x20\n      add\n      mload(0x40)\n      swap1\n      dup2\n      add\n      0x40\n      mstore\n      dup1\n      swap3\n      swap2\n      swap1\n      dup2\n      dup2\n      mstore\n      0x20\n      add\n      dup3\n      dup1\n      sload\n      tag_238\n      swap1\n      tag_82\n      jump\t// in\n    tag_238:\n      dup1\n      iszero\n      tag_239\n      jumpi\n      dup1\n      0x1f\n      lt\n      tag_240\n      jumpi\n      0x0100\n      dup1\n      dup4\n      sload\n      div\n      mul\n      dup4\n      mstore\n      swap2\n      0x20\n      add\n      swap2\n      jump(tag_239)\n    tag_240:\n      dup3\n      add\n      swap2\n      swap1\n      0x00\n      mstore\n      keccak256(0x00, 0x20)\n      swap1\n    tag_241:\n      dup2\n      sload\n      dup2\n      mstore\n      swap1\n      0x01\n      add\n      swap1\n      0x20\n      add\n      dup1\n      dup4\n      gt\n      tag_241\n      jumpi\n      dup3\n      swap1\n      sub\n      0x1f\n      and\n      dup3\n      add\n      swap2\n    tag_239:\n      pop\n      pop\n      pop\n      pop\n      pop\n      swap1\n      dup1\n      0x02\n      add\n      dup1\n      sload\n      tag_242\n      swap1\n      tag_82\n      jump\t// in\n    tag_242:\n      dup1\n      0x1f\n      add\n      0x20\n      dup1\n      swap2\n      div\n      mul\n      0x20\n      add\n      mload(0x40)\n      swap1\n      dup2\n      add\n      0x40\n      mstore\n      dup1\n      swap3\n      swap2\n      swap1\n      dup2\n      dup2\n      mstore\n      0x20\n      add\n      dup3\n      dup1\n      sload\n      tag_243\n      swap1\n      tag_82\n      jump\t// in\n    tag_243:\n      dup1\n      iszero\n      tag_244\n      jumpi\n      dup1\n      0x1f\n      lt\n      tag_245\n      jumpi\n      0x0100\n      dup1\n      dup4\n      sload\n      div\n      mul\n      dup4\n      mstore\n      swap2\n      0x20\n      add\n      swap2\n      jump(tag_244)\n    tag_245:\n      dup3\n      add\n      swap2\n      swap1\n      0x00\n      mstore\n      keccak256(0x00, 0x20)\n      swap1\n    tag_246:\n      dup2\n      sload\n      dup2\n      mstore\n      swap1\n      0x01\n      add\n      swap1\n      0x20\n      add\n      dup1\n      dup4\n      gt\n      tag_246\n      jumpi\n      dup3\n      swap1\n      sub\n      0x1f\n      and\n      dup3\n      add\n      swap2\n    tag_244:\n      pop\n      pop\n      pop\n      pop\n      pop\n      swap1\n      dup1\n      0x03\n      add\n      sload\n      swap1\n      dup1\n      0x04\n      add\n      dup1\n      sload\n      tag_247\n      swap1\n      tag_82\n      jump\t// in\n    tag_247:\n      dup1\n      0x1f\n      add\n      0x20\n      dup1\n      swap2\n      div\n      mul\n      0x20\n      add\n      mload(0x40)\n      swap1\n      dup2\n      add\n      0x40\n      mstore\n      dup1\n      swap3\n      swap2\n      swap1\n      dup2\n      dup2\n      mstore\n      0x20\n      add\n      dup3\n      dup1\n      sload\n      tag_248\n      swap1\n      tag_82\n      jump\t// in\n    tag_248:\n      dup1\n      iszero\n      tag_249\n      jumpi\n      dup1\n      0x1f\n      lt\n      tag_250\n      jumpi\n      0x0100\n      dup1\n      dup4\n      sload\n      div\n      mul\n      dup4\n      mstore\n      swap2\n      0x20\n      add\n      swap2\n      jump(tag_249)\n    tag_250:\n      dup3\n      add\n      swap2\n      swap1\n      0x00\n      mstore\n      keccak256(0x00, 0x20)\n      swap1\n    tag_251:\n      dup2\n      sload\n      dup2\n      mstore\n      swap1\n      0x01\n      add\n      swap1\n      0x20\n      add\n      dup1\n      dup4\n      gt\n      tag_251\n      jumpi\n      dup3\n      swap1\n      sub\n      0x1f\n      and\n      dup3\n      add\n      swap2\n    tag_249:\n      pop\n      pop\n      pop\n      pop\n      pop\n      swap1\n      dup1\n      0x05\n      add\n      sload\n      swap1\n      dup1\n      0x06\n      add\n      0x00\n      swap1\n      sload\n      swap1\n      0x0100\n      exp\n      swap1\n      div\n      0xffffffffffffffffffffffffffffffffffffffff\n      and\n      swap1\n      dup1\n      0x07\n      add\n      dup1\n      sload\n      tag_252\n      swap1\n      tag_82\n      jump\t// in\n    tag_252:\n      dup1\n      0x1f\n      add\n      0x20\n      dup1\n      swap2\n      div\n      mul\n      0x20\n      add\n      mload(0x40)\n      swap1\n      dup2\n      add\n      0x40\n      mstore\n      dup1\n      swap3\n      swap2\n      swap1\n      dup2\n      dup2\n      mstore\n      0x20\n      add\n      dup3\n      dup1\n      sload\n      tag_253\n      swap1\n      tag_82\n      jump\t// in\n    tag_253:\n      dup1\n      iszero\n      tag_254\n      jumpi\n      dup1\n      0x1f\n      lt\n      tag_255\n      jumpi\n      0x0100\n      dup1\n      dup4\n      sload\n      div\n      mul\n      dup4\n      mstore\n      swap2\n      0x20\n      add\n      swap2\n      jump(tag_254)\n    tag_255:\n      dup3\n      add\n      swap2\n      swap1\n      0x00\n      mstore\n      keccak256(0x00, 0x20)\n      swap1\n    tag_256:\n      dup2\n      sload\n      dup2\n      mstore\n      swap1\n      0x01\n      add\n      swap1\n      0x20\n      add\n      dup1\n      dup4\n      gt\n      tag_256\n      jumpi\n      dup3\n      swap1\n      sub\n      0x1f\n      and\n      dup3\n      add\n      swap2\n    tag_254:\n      pop\n      pop\n      pop\n      pop\n      pop\n      swap1\n      dup1\n      0x08\n      add\n      dup1\n      sload\n      tag_257\n      swap1\n      tag_82\n      jump\t// in\n    tag_257:\n      dup1\n      0x1f\n      add\n      0x20\n      dup1\n      swap2\n      div\n      mul\n      0x20\n      add\n      mload(0x40)\n      swap1\n      dup2\n      add\n      0x40\n      mstore\n      dup1\n      swap3\n      swap2\n      swap1\n      dup2\n      dup2\n      mstore\n      0x20\n      add\n      dup3\n      dup1\n      sload\n      tag_258\n      swap1\n      tag_82\n      jump\t// in\n    tag_258:\n      dup1\n      iszero\n      tag_259\n      jumpi\n      dup1\n      0x1f\n      lt\n      tag_260\n      jumpi\n      0x0100\n      dup1\n      dup4\n      sload\n      div\n      mul\n      dup4\n      mstore\n      swap2\n      0x20\n      add\n      swap2\n      jump(tag_259)\n    tag_260:\n      dup3\n      add\n      swap2\n      swap1\n      0x00\n      mstore\n      keccak256(0x00, 0x20)\n      swap1\n    tag_261:\n      dup2\n      sload\n      dup2\n      mstore\n      swap1\n      0x01\n      add\n      swap1\n      0x20\n      add\n      dup1\n      dup4\n      gt\n      tag_261\n      jumpi\n      dup3\n      swap1\n      sub\n      0x1f\n      and\n      dup3\n      add\n      swap2\n    tag_259:\n      pop\n      pop\n      pop\n      pop\n      pop\n      swap1\n      dup1\n      0x09\n      add\n      sload\n      swap1\n      pop\n      dup11\n      jump\t// out\n        /* \"contracts/Petisi.sol\":2463:2579  function getProposal(uint256 _id) public view returns(Proposal memory){... */\n    tag_67:\n        /* \"contracts/Petisi.sol\":2517:2532  Proposal memory */\n      tag_262\n      tag_263\n      jump\t// in\n    tag_262:\n        /* \"contracts/Petisi.sol\":2551:2560  proposals */\n      0x04\n        /* \"contracts/Petisi.sol\":2551:2565  proposals[_id] */\n      0x00\n        /* \"contracts/Petisi.sol\":2561:2564  _id */\n      dup4\n        /* \"contracts/Petisi.sol\":2551:2565  proposals[_id] */\n      dup2\n      mstore\n      0x20\n      add\n      swap1\n      dup2\n      mstore\n      0x20\n      add\n      0x00\n      keccak256\n        /* \"contracts/Petisi.sol\":2544:2565  return proposals[_id] */\n      mload(0x40)\n      dup1\n      0x0140\n      add\n      0x40\n      mstore\n      swap1\n      dup2\n      0x00\n      dup3\n      add\n      sload\n      dup2\n      mstore\n      0x20\n      add\n      0x01\n      dup3\n      add\n      dup1\n      sload\n      tag_265\n      swap1\n      tag_82\n      jump\t// in\n    tag_265:\n      dup1\n      0x1f\n      add\n      0x20\n      dup1\n      swap2\n      div\n      mul\n      0x20\n      add\n      mload(0x40)\n      swap1\n      dup2\n      add\n      0x40\n      mstore\n      dup1\n      swap3\n      swap2\n      swap1\n      dup2\n      dup2\n      mstore\n      0x20\n      add\n      dup3\n      dup1\n      sload\n      tag_266\n      swap1\n      tag_82\n      jump\t// in\n    tag_266:\n      dup1\n      iszero\n      tag_267\n      jumpi\n      dup1\n      0x1f\n      lt\n      tag_268\n      jumpi\n      0x0100\n      dup1\n      dup4\n      sload\n      div\n      mul\n      dup4\n      mstore\n      swap2\n      0x20\n      add\n      swap2\n      jump(tag_267)\n    tag_268:\n      dup3\n      add\n      swap2\n      swap1\n      0x00\n      mstore\n      keccak256(0x00, 0x20)\n      swap1\n    tag_269:\n      dup2\n      sload\n      dup2\n      mstore\n      swap1\n      0x01\n      add\n      swap1\n      0x20\n      add\n      dup1\n      dup4\n      gt\n      tag_269\n      jumpi\n      dup3\n      swap1\n      sub\n      0x1f\n      and\n      dup3\n      add\n      swap2\n    tag_267:\n      pop\n      pop\n      pop\n      pop\n      pop\n      dup2\n      mstore\n      0x20\n      add\n      0x02\n      dup3\n      add\n      dup1\n      sload\n      tag_270\n      swap1\n      tag_82\n      jump\t// in\n    tag_270:\n      dup1\n      0x1f\n      add\n      0x20\n      dup1\n      swap2\n      div\n      mul\n      0x20\n      add\n      mload(0x40)\n      swap1\n      dup2\n      add\n      0x40\n      mstore\n      dup1\n      swap3\n      swap2\n      swap1\n      dup2\n      dup2\n      mstore\n      0x20\n      add\n      dup3\n      dup1\n      sload\n      tag_271\n      swap1\n      tag_82\n      jump\t// in\n    tag_271:\n      dup1\n      iszero\n      tag_272\n      jumpi\n      dup1\n      0x1f\n      lt\n      tag_273\n      jumpi\n      0x0100\n      dup1\n      dup4\n      sload\n      div\n      mul\n      dup4\n      mstore\n      swap2\n      0x20\n      add\n      swap2\n      jump(tag_272)\n    tag_273:\n      dup3\n      add\n      swap2\n      swap1\n      0x00\n      mstore\n      keccak256(0x00, 0x20)\n      swap1\n    tag_274:\n      dup2\n      sload\n      dup2\n      mstore\n      swap1\n      0x01\n      add\n      swap1\n      0x20\n      add\n      dup1\n      dup4\n      gt\n      tag_274\n      jumpi\n      dup3\n      swap1\n      sub\n      0x1f\n      and\n      dup3\n      add\n      swap2\n    tag_272:\n      pop\n      pop\n      pop\n      pop\n      pop\n      dup2\n      mstore\n      0x20\n      add\n      0x03\n      dup3\n      add\n      sload\n      dup2\n      mstore\n      0x20\n      add\n      0x04\n      dup3\n      add\n      dup1\n      sload\n      tag_275\n      swap1\n      tag_82\n      jump\t// in\n    tag_275:\n      dup1\n      0x1f\n      add\n      0x20\n      dup1\n      swap2\n      div\n      mul\n      0x20\n      add\n      mload(0x40)\n      swap1\n      dup2\n      add\n      0x40\n      mstore\n      dup1\n      swap3\n      swap2\n      swap1\n      dup2\n      dup2\n      mstore\n      0x20\n      add\n      dup3\n      dup1\n      sload\n      tag_276\n      swap1\n      tag_82\n      jump\t// in\n    tag_276:\n      dup1\n      iszero\n      tag_277\n      jumpi\n      dup1\n      0x1f\n      lt\n      tag_278\n      jumpi\n      0x0100\n      dup1\n      dup4\n      sload\n      div\n      mul\n      dup4\n      mstore\n      swap2\n      0x20\n      add\n      swap2\n      jump(tag_277)\n    tag_278:\n      dup3\n      add\n      swap2\n      swap1\n      0x00\n      mstore\n      keccak256(0x00, 0x20)\n      swap1\n    tag_279:\n      dup2\n      sload\n      dup2\n      mstore\n      swap1\n      0x01\n      add\n      swap1\n      0x20\n      add\n      dup1\n      dup4\n      gt\n      tag_279\n      jumpi\n      dup3\n      swap1\n      sub\n      0x1f\n      and\n      dup3\n      add\n      swap2\n    tag_277:\n      pop\n      pop\n      pop\n      pop\n      pop\n      dup2\n      mstore\n      0x20\n      add\n      0x05\n      dup3\n      add\n      sload\n      dup2\n      mstore\n      0x20\n      add\n      0x06\n      dup3\n      add\n      0x00\n      swap1\n      sload\n      swap1\n      0x0100\n      exp\n      swap1\n      div\n      0xffffffffffffffffffffffffffffffffffffffff\n      and\n      0xffffffffffffffffffffffffffffffffffffffff\n      and\n      0xffffffffffffffffffffffffffffffffffffffff\n      and\n      dup2\n      mstore\n      0x20\n      add\n      0x07\n      dup3\n      add\n      dup1\n      sload\n      tag_280\n      swap1\n      tag_82\n      jump\t// in\n    tag_280:\n      dup1\n      0x1f\n      add\n      0x20\n      dup1\n      swap2\n      div\n      mul\n      0x20\n      add\n      mload(0x40)\n      swap1\n      dup2\n      add\n      0x40\n      mstore\n      dup1\n      swap3\n      swap2\n      swap1\n      dup2\n      dup2\n      mstore\n      0x20\n      add\n      dup3\n      dup1\n      sload\n      tag_281\n      swap1\n      tag_82\n      jump\t// in\n    tag_281:\n      dup1\n      iszero\n      tag_282\n      jumpi\n      dup1\n      0x1f\n      lt\n      tag_283\n      jumpi\n      0x0100\n      dup1\n      dup4\n      sload\n      div\n      mul\n      dup4\n      mstore\n      swap2\n      0x20\n      add\n      swap2\n      jump(tag_282)\n    tag_283:\n      dup3\n      add\n      swap2\n      swap1\n      0x00\n      mstore\n      keccak256(0x00, 0x20)\n      swap1\n    tag_284:\n      dup2\n      sload\n      dup2\n      mstore\n      swap1\n      0x01\n      add\n      swap1\n      0x20\n      add\n      dup1\n      dup4\n      gt\n      tag_284\n      jumpi\n      dup3\n      swap1\n      sub\n      0x1f\n      and\n      dup3\n      add\n      swap2\n    tag_282:\n      pop\n      pop\n      pop\n      pop\n      pop\n      dup2\n      mstore\n      0x20\n      add\n      0x08\n      dup3\n      add\n      dup1\n      sload\n      tag_285\n      swap1\n      tag_82\n      jump\t// in\n    tag_285:\n      dup1\n      0x1f\n      add\n      0x20\n      dup1\n      swap2\n      div\n      mul\n      0x20\n      add\n      mload(0x40)\n      swap1\n      dup2\n      add\n      0x40\n      mstore\n      dup1\n      swap3\n      swap2\n      swap1\n      dup2\n      dup2\n      mstore\n      0x20\n      add\n      dup3\n      dup1\n      sload\n      tag_286\n      swap1\n      tag_82\n      jump\t// in\n    tag_286:\n      dup1\n      iszero\n      tag_287\n      jumpi\n      dup1\n      0x1f\n      lt\n      tag_288\n      jumpi\n      0x0100\n      dup1\n      dup4\n      sload\n      div\n      mul\n      dup4\n      mstore\n      swap2\n      0x20\n      add\n      swap2\n      jump(tag_287)\n    tag_288:\n      dup3\n      add\n      swap2\n      swap1\n      0x00\n      mstore\n      keccak256(0x00, 0x20)\n      swap1\n    tag_289:\n      dup2\n      sload\n      dup2\n      mstore\n      swap1\n      0x01\n      add\n      swap1\n      0x20\n      add\n      dup1\n      dup4\n      gt\n      tag_289\n      jumpi\n      dup3\n      swap1\n      sub\n      0x1f\n      and\n      dup3\n      add\n      swap2\n    tag_287:\n      pop\n      pop\n      pop\n      pop\n      pop\n      dup2\n      mstore\n      0x20\n      add\n      0x09\n      dup3\n      add\n      sload\n      dup2\n      mstore\n      pop\n      pop\n      swap1\n      pop\n        /* \"contracts/Petisi.sol\":2463:2579  function getProposal(uint256 _id) public view returns(Proposal memory){... */\n      swap2\n      swap1\n      pop\n      jump\t// out\n        /* \"contracts/Petisi.sol\":1030:1073  mapping (uint256 => address[]) public voter */\n    tag_73:\n      mstore(0x20, 0x06)\n      dup2\n      0x00\n      mstore\n      keccak256(0x00, 0x40)\n      dup2\n      dup2\n      sload\n      dup2\n      lt\n      tag_290\n      jumpi\n      0x00\n      dup1\n      revert\n    tag_290:\n      swap1\n      0x00\n      mstore\n      keccak256(0x00, 0x20)\n      add\n      0x00\n      swap2\n      pop\n      swap2\n      pop\n      swap1\n      sload\n      swap1\n      0x0100\n      exp\n      swap1\n      div\n      0xffffffffffffffffffffffffffffffffffffffff\n      and\n      dup2\n      jump\t// out\n        /* \"@openzeppelin/contracts/access/Ownable.sol\":2543:2758  function transferOwnership(address newOwner) public virtual onlyOwner {... */\n    tag_77:\n        /* \"@openzeppelin/contracts/access/Ownable.sol\":1531:1544  _checkOwner() */\n      tag_293\n        /* \"@openzeppelin/contracts/access/Ownable.sol\":1531:1542  _checkOwner */\n      tag_203\n        /* \"@openzeppelin/contracts/access/Ownable.sol\":1531:1544  _checkOwner() */\n      jump\t// in\n    tag_293:\n        /* \"@openzeppelin/contracts/access/Ownable.sol\":2647:2648  0 */\n      0x00\n        /* \"@openzeppelin/contracts/access/Ownable.sol\":2627:2649  newOwner == address(0) */\n      0xffffffffffffffffffffffffffffffffffffffff\n      and\n        /* \"@openzeppelin/contracts/access/Ownable.sol\":2627:2635  newOwner */\n      dup2\n        /* \"@openzeppelin/contracts/access/Ownable.sol\":2627:2649  newOwner == address(0) */\n      0xffffffffffffffffffffffffffffffffffffffff\n      and\n      sub\n        /* \"@openzeppelin/contracts/access/Ownable.sol\":2623:2714  if (newOwner == address(0)) {... */\n      tag_295\n      jumpi\n        /* \"@openzeppelin/contracts/access/Ownable.sol\":2700:2701  0 */\n      0x00\n        /* \"@openzeppelin/contracts/access/Ownable.sol\":2672:2703  OwnableInvalidOwner(address(0)) */\n      mload(0x40)\n      0x1e4fbdf700000000000000000000000000000000000000000000000000000000\n      dup2\n      mstore\n      0x04\n      add\n      tag_296\n      swap2\n      swap1\n      tag_55\n      jump\t// in\n    tag_296:\n      mload(0x40)\n      dup1\n      swap2\n      sub\n      swap1\n      revert\n        /* \"@openzeppelin/contracts/access/Ownable.sol\":2623:2714  if (newOwner == address(0)) {... */\n    tag_295:\n        /* \"@openzeppelin/contracts/access/Ownable.sol\":2723:2751  _transferOwnership(newOwner) */\n      tag_297\n        /* \"@openzeppelin/contracts/access/Ownable.sol\":2742:2750  newOwner */\n      dup2\n        /* \"@openzeppelin/contracts/access/Ownable.sol\":2723:2741  _transferOwnership */\n      tag_206\n        /* \"@openzeppelin/contracts/access/Ownable.sol\":2723:2751  _transferOwnership(newOwner) */\n      jump\t// in\n    tag_297:\n        /* \"@openzeppelin/contracts/access/Ownable.sol\":2543:2758  function transferOwnership(address newOwner) public virtual onlyOwner {... */\n      pop\n      jump\t// out\n        /* \"contracts/Petisi.sol\":2232:2333  function gerAllProposal() public view returns (Proposal[] memory){... */\n    tag_79:\n        /* \"contracts/Petisi.sol\":2279:2296  Proposal[] memory */\n      0x60\n        /* \"contracts/Petisi.sol\":2314:2326  proposalList */\n      0x07\n        /* \"contracts/Petisi.sol\":2307:2326  return proposalList */\n      dup1\n      sload\n      dup1\n      0x20\n      mul\n      0x20\n      add\n      mload(0x40)\n      swap1\n      dup2\n      add\n      0x40\n      mstore\n      dup1\n      swap3\n      swap2\n      swap1\n      dup2\n      dup2\n      mstore\n      0x20\n      add\n      0x00\n      swap1\n    tag_299:\n      dup3\n      dup3\n      lt\n      iszero\n      tag_300\n      jumpi\n      dup4\n      dup3\n      swap1\n      0x00\n      mstore\n      keccak256(0x00, 0x20)\n      swap1\n      0x0a\n      mul\n      add\n      mload(0x40)\n      dup1\n      0x0140\n      add\n      0x40\n      mstore\n      swap1\n      dup2\n      0x00\n      dup3\n      add\n      sload\n      dup2\n      mstore\n      0x20\n      add\n      0x01\n      dup3\n      add\n      dup1\n      sload\n      tag_302\n      swap1\n      tag_82\n      jump\t// in\n    tag_302:\n      dup1\n      0x1f\n      add\n      0x20\n      dup1\n      swap2\n      div\n      mul\n      0x20\n      add\n      mload(0x40)\n      swap1\n      dup2\n      add\n      0x40\n      mstore\n      dup1\n      swap3\n      swap2\n      swap1\n      dup2\n      dup2\n      mstore\n      0x20\n      add\n      dup3\n      dup1\n      sload\n      tag_303\n      swap1\n      tag_82\n      jump\t// in\n    tag_303:\n      dup1\n      iszero\n      tag_304\n      jumpi\n      dup1\n      0x1f\n      lt\n      tag_305\n      jumpi\n      0x0100\n      dup1\n      dup4\n      sload\n      div\n      mul\n      dup4\n      mstore\n      swap2\n      0x20\n      add\n      swap2\n      jump(tag_304)\n    tag_305:\n      dup3\n      add\n      swap2\n      swap1\n      0x00\n      mstore\n      keccak256(0x00, 0x20)\n      swap1\n    tag_306:\n      dup2\n      sload\n      dup2\n      mstore\n      swap1\n      0x01\n      add\n      swap1\n      0x20\n      add\n      dup1\n      dup4\n      gt\n      tag_306\n      jumpi\n      dup3\n      swap1\n      sub\n      0x1f\n      and\n      dup3\n      add\n      swap2\n    tag_304:\n      pop\n      pop\n      pop\n      pop\n      pop\n      dup2\n      mstore\n      0x20\n      add\n      0x02\n      dup3\n      add\n      dup1\n      sload\n      tag_307\n      swap1\n      tag_82\n      jump\t// in\n    tag_307:\n      dup1\n      0x1f\n      add\n      0x20\n      dup1\n      swap2\n      div\n      mul\n      0x20\n      add\n      mload(0x40)\n      swap1\n      dup2\n      add\n      0x40\n      mstore\n      dup1\n      swap3\n      swap2\n      swap1\n      dup2\n      dup2\n      mstore\n      0x20\n      add\n      dup3\n      dup1\n      sload\n      tag_308\n      swap1\n      tag_82\n      jump\t// in\n    tag_308:\n      dup1\n      iszero\n      tag_309\n      jumpi\n      dup1\n      0x1f\n      lt\n      tag_310\n      jumpi\n      0x0100\n      dup1\n      dup4\n      sload\n      div\n      mul\n      dup4\n      mstore\n      swap2\n      0x20\n      add\n      swap2\n      jump(tag_309)\n    tag_310:\n      dup3\n      add\n      swap2\n      swap1\n      0x00\n      mstore\n      keccak256(0x00, 0x20)\n      swap1\n    tag_311:\n      dup2\n      sload\n      dup2\n      mstore\n      swap1\n      0x01\n      add\n      swap1\n      0x20\n      add\n      dup1\n      dup4\n      gt\n      tag_311\n      jumpi\n      dup3\n      swap1\n      sub\n      0x1f\n      and\n      dup3\n      add\n      swap2\n    tag_309:\n      pop\n      pop\n      pop\n      pop\n      pop\n      dup2\n      mstore\n      0x20\n      add\n      0x03\n      dup3\n      add\n      sload\n      dup2\n      mstore\n      0x20\n      add\n      0x04\n      dup3\n      add\n      dup1\n      sload\n      tag_312\n      swap1\n      tag_82\n      jump\t// in\n    tag_312:\n      dup1\n      0x1f\n      add\n      0x20\n      dup1\n      swap2\n      div\n      mul\n      0x20\n      add\n      mload(0x40)\n      swap1\n      dup2\n      add\n      0x40\n      mstore\n      dup1\n      swap3\n      swap2\n      swap1\n      dup2\n      dup2\n      mstore\n      0x20\n      add\n      dup3\n      dup1\n      sload\n      tag_313\n      swap1\n      tag_82\n      jump\t// in\n    tag_313:\n      dup1\n      iszero\n      tag_314\n      jumpi\n      dup1\n      0x1f\n      lt\n      tag_315\n      jumpi\n      0x0100\n      dup1\n      dup4\n      sload\n      div\n      mul\n      dup4\n      mstore\n      swap2\n      0x20\n      add\n      swap2\n      jump(tag_314)\n    tag_315:\n      dup3\n      add\n      swap2\n      swap1\n      0x00\n      mstore\n      keccak256(0x00, 0x20)\n      swap1\n    tag_316:\n      dup2\n      sload\n      dup2\n      mstore\n      swap1\n      0x01\n      add\n      swap1\n      0x20\n      add\n      dup1\n      dup4\n      gt\n      tag_316\n      jumpi\n      dup3\n      swap1\n      sub\n      0x1f\n      and\n      dup3\n      add\n      swap2\n    tag_314:\n      pop\n      pop\n      pop\n      pop\n      pop\n      dup2\n      mstore\n      0x20\n      add\n      0x05\n      dup3\n      add\n      sload\n      dup2\n      mstore\n      0x20\n      add\n      0x06\n      dup3\n      add\n      0x00\n      swap1\n      sload\n      swap1\n      0x0100\n      exp\n      swap1\n      div\n      0xffffffffffffffffffffffffffffffffffffffff\n      and\n      0xffffffffffffffffffffffffffffffffffffffff\n      and\n      0xffffffffffffffffffffffffffffffffffffffff\n      and\n      dup2\n      mstore\n      0x20\n      add\n      0x07\n      dup3\n      add\n      dup1\n      sload\n      tag_317\n      swap1\n      tag_82\n      jump\t// in\n    tag_317:\n      dup1\n      0x1f\n      add\n      0x20\n      dup1\n      swap2\n      div\n      mul\n      0x20\n      add\n      mload(0x40)\n      swap1\n      dup2\n      add\n      0x40\n      mstore\n      dup1\n      swap3\n      swap2\n      swap1\n      dup2\n      dup2\n      mstore\n      0x20\n      add\n      dup3\n      dup1\n      sload\n      tag_318\n      swap1\n      tag_82\n      jump\t// in\n    tag_318:\n      dup1\n      iszero\n      tag_319\n      jumpi\n      dup1\n      0x1f\n      lt\n      tag_320\n      jumpi\n      0x0100\n      dup1\n      dup4\n      sload\n      div\n      mul\n      dup4\n      mstore\n      swap2\n      0x20\n      add\n      swap2\n      jump(tag_319)\n    tag_320:\n      dup3\n      add\n      swap2\n      swap1\n      0x00\n      mstore\n      keccak256(0x00, 0x20)\n      swap1\n    tag_321:\n      dup2\n      sload\n      dup2\n      mstore\n      swap1\n      0x01\n      add\n      swap1\n      0x20\n      add\n      dup1\n      dup4\n      gt\n      tag_321\n      jumpi\n      dup3\n      swap1\n      sub\n      0x1f\n      and\n      dup3\n      add\n      swap2\n    tag_319:\n      pop\n      pop\n      pop\n      pop\n      pop\n      dup2\n      mstore\n      0x20\n      add\n      0x08\n      dup3\n      add\n      dup1\n      sload\n      tag_322\n      swap1\n      tag_82\n      jump\t// in\n    tag_322:\n      dup1\n      0x1f\n      add\n      0x20\n      dup1\n      swap2\n      div\n      mul\n      0x20\n      add\n      mload(0x40)\n      swap1\n      dup2\n      add\n      0x40\n      mstore\n      dup1\n      swap3\n      swap2\n      swap1\n      dup2\n      dup2\n      mstore\n      0x20\n      add\n      dup3\n      dup1\n      sload\n      tag_323\n      swap1\n      tag_82\n      jump\t// in\n    tag_323:\n      dup1\n      iszero\n      tag_324\n      jumpi\n      dup1\n      0x1f\n      lt\n      tag_325\n      jumpi\n      0x0100\n      dup1\n      dup4\n      sload\n      div\n      mul\n      dup4\n      mstore\n      swap2\n      0x20\n      add\n      swap2\n      jump(tag_324)\n    tag_325:\n      dup3\n      add\n      swap2\n      swap1\n      0x00\n      mstore\n      keccak256(0x00, 0x20)\n      swap1\n    tag_326:\n      dup2\n      sload\n      dup2\n      mstore\n      swap1\n      0x01\n      add\n      swap1\n      0x20\n      add\n      dup1\n      dup4\n      gt\n      tag_326\n      jumpi\n      dup3\n      swap1\n      sub\n      0x1f\n      and\n      dup3\n      add\n      swap2\n    tag_324:\n      pop\n      pop\n      pop\n      pop\n      pop\n      dup2\n      mstore\n      0x20\n      add\n      0x09\n      dup3\n      add\n      sload\n      dup2\n      mstore\n      pop\n      pop\n      dup2\n      mstore\n      0x20\n      add\n      swap1\n      0x01\n      add\n      swap1\n      jump(tag_299)\n    tag_300:\n      pop\n      pop\n      pop\n      pop\n      swap1\n      pop\n        /* \"contracts/Petisi.sol\":2232:2333  function gerAllProposal() public view returns (Proposal[] memory){... */\n      swap1\n      jump\t// out\n        /* \"@openzeppelin/contracts/access/Ownable.sol\":1796:1958  function _checkOwner() internal view virtual {... */\n    tag_203:\n        /* \"@openzeppelin/contracts/access/Ownable.sol\":1866:1878  _msgSender() */\n      tag_328\n        /* \"@openzeppelin/contracts/access/Ownable.sol\":1866:1876  _msgSender */\n      tag_329\n        /* \"@openzeppelin/contracts/access/Ownable.sol\":1866:1878  _msgSender() */\n      jump\t// in\n    tag_328:\n        /* \"@openzeppelin/contracts/access/Ownable.sol\":1855:1878  owner() != _msgSender() */\n      0xffffffffffffffffffffffffffffffffffffffff\n      and\n        /* \"@openzeppelin/contracts/access/Ownable.sol\":1855:1862  owner() */\n      tag_330\n        /* \"@openzeppelin/contracts/access/Ownable.sol\":1855:1860  owner */\n      tag_53\n        /* \"@openzeppelin/contracts/access/Ownable.sol\":1855:1862  owner() */\n      jump\t// in\n    tag_330:\n        /* \"@openzeppelin/contracts/access/Ownable.sol\":1855:1878  owner() != _msgSender() */\n      0xffffffffffffffffffffffffffffffffffffffff\n      and\n      eq\n        /* \"@openzeppelin/contracts/access/Ownable.sol\":1851:1952  if (owner() != _msgSender()) {... */\n      tag_331\n      jumpi\n        /* \"@openzeppelin/contracts/access/Ownable.sol\":1928:1940  _msgSender() */\n      tag_332\n        /* \"@openzeppelin/contracts/access/Ownable.sol\":1928:1938  _msgSender */\n      tag_329\n        /* \"@openzeppelin/contracts/access/Ownable.sol\":1928:1940  _msgSender() */\n      jump\t// in\n    tag_332:\n        /* \"@openzeppelin/contracts/access/Ownable.sol\":1901:1941  OwnableUnauthorizedAccount(_msgSender()) */\n      mload(0x40)\n      0x118cdaa700000000000000000000000000000000000000000000000000000000\n      dup2\n      mstore\n      0x04\n      add\n      tag_333\n      swap2\n      swap1\n      tag_55\n      jump\t// in\n    tag_333:\n      mload(0x40)\n      dup1\n      swap2\n      sub\n      swap1\n      revert\n        /* \"@openzeppelin/contracts/access/Ownable.sol\":1851:1952  if (owner() != _msgSender()) {... */\n    tag_331:\n        /* \"@openzeppelin/contracts/access/Ownable.sol\":1796:1958  function _checkOwner() internal view virtual {... */\n      jump\t// out\n        /* \"@openzeppelin/contracts/access/Ownable.sol\":2912:3099  function _transferOwnership(address newOwner) internal virtual {... */\n    tag_206:\n        /* \"@openzeppelin/contracts/access/Ownable.sol\":2985:3001  address oldOwner */\n      0x00\n        /* \"@openzeppelin/contracts/access/Ownable.sol\":3004:3010  _owner */\n      dup1\n      0x00\n      swap1\n      sload\n      swap1\n      0x0100\n      exp\n      swap1\n      div\n      0xffffffffffffffffffffffffffffffffffffffff\n      and\n        /* \"@openzeppelin/contracts/access/Ownable.sol\":2985:3010  address oldOwner = _owner */\n      swap1\n      pop\n        /* \"@openzeppelin/contracts/access/Ownable.sol\":3029:3037  newOwner */\n      dup2\n        /* \"@openzeppelin/contracts/access/Ownable.sol\":3020:3026  _owner */\n      0x00\n      dup1\n        /* \"@openzeppelin/contracts/access/Ownable.sol\":3020:3037  _owner = newOwner */\n      0x0100\n      exp\n      dup2\n      sload\n      dup2\n      0xffffffffffffffffffffffffffffffffffffffff\n      mul\n      not\n      and\n      swap1\n      dup4\n      0xffffffffffffffffffffffffffffffffffffffff\n      and\n      mul\n      or\n      swap1\n      sstore\n      pop\n        /* \"@openzeppelin/contracts/access/Ownable.sol\":3083:3091  newOwner */\n      dup2\n        /* \"@openzeppelin/contracts/access/Ownable.sol\":3052:3092  OwnershipTransferred(oldOwner, newOwner) */\n      0xffffffffffffffffffffffffffffffffffffffff\n      and\n        /* \"@openzeppelin/contracts/access/Ownable.sol\":3073:3081  oldOwner */\n      dup2\n        /* \"@openzeppelin/contracts/access/Ownable.sol\":3052:3092  OwnershipTransferred(oldOwner, newOwner) */\n      0xffffffffffffffffffffffffffffffffffffffff\n      and\n      0x8be0079c531659141344cd1fd0a4f28419497f9722a3daafe3b4186f6b6457e0\n      mload(0x40)\n      mload(0x40)\n      dup1\n      swap2\n      sub\n      swap1\n      log3\n        /* \"@openzeppelin/contracts/access/Ownable.sol\":2975:3099  {... */\n      pop\n        /* \"@openzeppelin/contracts/access/Ownable.sol\":2912:3099  function _transferOwnership(address newOwner) internal virtual {... */\n      pop\n      jump\t// out\n        /* \"@openzeppelin/contracts/utils/Context.sol\":656:752  function _msgSender() internal view virtual returns (address) {... */\n    tag_329:\n        /* \"@openzeppelin/contracts/utils/Context.sol\":709:716  address */\n      0x00\n        /* \"@openzeppelin/contracts/utils/Context.sol\":735:745  msg.sender */\n      caller\n        /* \"@openzeppelin/contracts/utils/Context.sol\":728:745  return msg.sender */\n      swap1\n      pop\n        /* \"@openzeppelin/contracts/utils/Context.sol\":656:752  function _msgSender() internal view virtual returns (address) {... */\n      swap1\n      jump\t// out\n    tag_263:\n      mload(0x40)\n      dup1\n      0x0140\n      add\n      0x40\n      mstore\n      dup1\n      0x00\n      dup2\n      mstore\n      0x20\n      add\n      0x60\n      dup2\n      mstore\n      0x20\n      add\n      0x60\n      dup2\n      mstore\n      0x20\n      add\n      0x00\n      dup2\n      mstore\n      0x20\n      add\n      0x60\n      dup2\n      mstore\n      0x20\n      add\n      0x00\n      dup2\n      mstore\n      0x20\n      add\n      and(0xffffffffffffffffffffffffffffffffffffffff, 0x00)\n      dup2\n      mstore\n      0x20\n      add\n      0x60\n      dup2\n      mstore\n      0x20\n      add\n      0x60\n      dup2\n      mstore\n      0x20\n      add\n      0x00\n      dup2\n      mstore\n      pop\n      swap1\n      jump\t// out\n        /* \"#utility.yul\":7:82   */\n    tag_336:\n        /* \"#utility.yul\":40:46   */\n      0x00\n        /* \"#utility.yul\":73:75   */\n      0x40\n        /* \"#utility.yul\":67:76   */\n      mload\n        /* \"#utility.yul\":57:76   */\n      swap1\n      pop\n        /* \"#utility.yul\":7:82   */\n      swap1\n      jump\t// out\n        /* \"#utility.yul\":88:205   */\n    tag_337:\n        /* \"#utility.yul\":197:198   */\n      0x00\n        /* \"#utility.yul\":194:195   */\n      dup1\n        /* \"#utility.yul\":187:199   */\n      revert\n        /* \"#utility.yul\":211:328   */\n    tag_338:\n        /* \"#utility.yul\":320:321   */\n      0x00\n        /* \"#utility.yul\":317:318   */\n      dup1\n        /* \"#utility.yul\":310:322   */\n      revert\n        /* \"#utility.yul\":334:411   */\n    tag_339:\n        /* \"#utility.yul\":371:378   */\n      0x00\n        /* \"#utility.yul\":400:405   */\n      dup2\n        /* \"#utility.yul\":389:405   */\n      swap1\n      pop\n        /* \"#utility.yul\":334:411   */\n      swap2\n      swap1\n      pop\n      jump\t// out\n        /* \"#utility.yul\":417:539   */\n    tag_340:\n        /* \"#utility.yul\":490:514   */\n      tag_420\n        /* \"#utility.yul\":508:513   */\n      dup2\n        /* \"#utility.yul\":490:514   */\n      tag_339\n      jump\t// in\n    tag_420:\n        /* \"#utility.yul\":483:488   */\n      dup2\n        /* \"#utility.yul\":480:515   */\n      eq\n        /* \"#utility.yul\":470:533   */\n      tag_421\n      jumpi\n        /* \"#utility.yul\":529:530   */\n      0x00\n        /* \"#utility.yul\":526:527   */\n      dup1\n        /* \"#utility.yul\":519:531   */\n      revert\n        /* \"#utility.yul\":470:533   */\n    tag_421:\n        /* \"#utility.yul\":417:539   */\n      pop\n      jump\t// out\n        /* \"#utility.yul\":545:684   */\n    tag_341:\n        /* \"#utility.yul\":591:596   */\n      0x00\n        /* \"#utility.yul\":629:635   */\n      dup2\n        /* \"#utility.yul\":616:636   */\n      calldataload\n        /* \"#utility.yul\":607:636   */\n      swap1\n      pop\n        /* \"#utility.yul\":645:678   */\n      tag_423\n        /* \"#utility.yul\":672:677   */\n      dup2\n        /* \"#utility.yul\":645:678   */\n      tag_340\n      jump\t// in\n    tag_423:\n        /* \"#utility.yul\":545:684   */\n      swap3\n      swap2\n      pop\n      pop\n      jump\t// out\n        /* \"#utility.yul\":690:1019   */\n    tag_22:\n        /* \"#utility.yul\":749:755   */\n      0x00\n        /* \"#utility.yul\":798:800   */\n      0x20\n        /* \"#utility.yul\":786:795   */\n      dup3\n        /* \"#utility.yul\":777:784   */\n      dup5\n        /* \"#utility.yul\":773:796   */\n      sub\n        /* \"#utility.yul\":769:801   */\n      slt\n        /* \"#utility.yul\":766:885   */\n      iszero\n      tag_425\n      jumpi\n        /* \"#utility.yul\":804:883   */\n      tag_426\n      tag_337\n      jump\t// in\n    tag_426:\n        /* \"#utility.yul\":766:885   */\n    tag_425:\n        /* \"#utility.yul\":924:925   */\n      0x00\n        /* \"#utility.yul\":949:1002   */\n      tag_427\n        /* \"#utility.yul\":994:1001   */\n      dup5\n        /* \"#utility.yul\":985:991   */\n      dup3\n        /* \"#utility.yul\":974:983   */\n      dup6\n        /* \"#utility.yul\":970:992   */\n      add\n        /* \"#utility.yul\":949:1002   */\n      tag_341\n      jump\t// in\n    tag_427:\n        /* \"#utility.yul\":939:1002   */\n      swap2\n      pop\n        /* \"#utility.yul\":895:1012   */\n      pop\n        /* \"#utility.yul\":690:1019   */\n      swap3\n      swap2\n      pop\n      pop\n      jump\t// out\n        /* \"#utility.yul\":1025:1143   */\n    tag_342:\n        /* \"#utility.yul\":1112:1136   */\n      tag_429\n        /* \"#utility.yul\":1130:1135   */\n      dup2\n        /* \"#utility.yul\":1112:1136   */\n      tag_339\n      jump\t// in\n    tag_429:\n        /* \"#utility.yul\":1107:1110   */\n      dup3\n        /* \"#utility.yul\":1100:1137   */\n      mstore\n        /* \"#utility.yul\":1025:1143   */\n      pop\n      pop\n      jump\t// out\n        /* \"#utility.yul\":1149:1248   */\n    tag_343:\n        /* \"#utility.yul\":1201:1207   */\n      0x00\n        /* \"#utility.yul\":1235:1240   */\n      dup2\n        /* \"#utility.yul\":1229:1241   */\n      mload\n        /* \"#utility.yul\":1219:1241   */\n      swap1\n      pop\n        /* \"#utility.yul\":1149:1248   */\n      swap2\n      swap1\n      pop\n      jump\t// out\n        /* \"#utility.yul\":1254:1423   */\n    tag_344:\n        /* \"#utility.yul\":1338:1349   */\n      0x00\n        /* \"#utility.yul\":1372:1378   */\n      dup3\n        /* \"#utility.yul\":1367:1370   */\n      dup3\n        /* \"#utility.yul\":1360:1379   */\n      mstore\n        /* \"#utility.yul\":1412:1416   */\n      0x20\n        /* \"#utility.yul\":1407:1410   */\n      dup3\n        /* \"#utility.yul\":1403:1417   */\n      add\n        /* \"#utility.yul\":1388:1417   */\n      swap1\n      pop\n        /* \"#utility.yul\":1254:1423   */\n      swap3\n      swap2\n      pop\n      pop\n      jump\t// out\n        /* \"#utility.yul\":1429:1568   */\n    tag_345:\n        /* \"#utility.yul\":1518:1524   */\n      dup3\n        /* \"#utility.yul\":1513:1516   */\n      dup2\n        /* \"#utility.yul\":1508:1511   */\n      dup4\n        /* \"#utility.yul\":1502:1525   */\n      mcopy\n        /* \"#utility.yul\":1559:1560   */\n      0x00\n        /* \"#utility.yul\":1550:1556   */\n      dup4\n        /* \"#utility.yul\":1545:1548   */\n      dup4\n        /* \"#utility.yul\":1541:1557   */\n      add\n        /* \"#utility.yul\":1534:1561   */\n      mstore\n        /* \"#utility.yul\":1429:1568   */\n      pop\n      pop\n      pop\n      jump\t// out\n        /* \"#utility.yul\":1574:1676   */\n    tag_346:\n        /* \"#utility.yul\":1615:1621   */\n      0x00\n        /* \"#utility.yul\":1666:1668   */\n      0x1f\n        /* \"#utility.yul\":1662:1669   */\n      not\n        /* \"#utility.yul\":1657:1659   */\n      0x1f\n        /* \"#utility.yul\":1650:1655   */\n      dup4\n        /* \"#utility.yul\":1646:1660   */\n      add\n        /* \"#utility.yul\":1642:1670   */\n      and\n        /* \"#utility.yul\":1632:1670   */\n      swap1\n      pop\n        /* \"#utility.yul\":1574:1676   */\n      swap2\n      swap1\n      pop\n      jump\t// out\n        /* \"#utility.yul\":1682:2059   */\n    tag_347:\n        /* \"#utility.yul\":1770:1773   */\n      0x00\n        /* \"#utility.yul\":1798:1837   */\n      tag_435\n        /* \"#utility.yul\":1831:1836   */\n      dup3\n        /* \"#utility.yul\":1798:1837   */\n      tag_343\n      jump\t// in\n    tag_435:\n        /* \"#utility.yul\":1853:1924   */\n      tag_436\n        /* \"#utility.yul\":1917:1923   */\n      dup2\n        /* \"#utility.yul\":1912:1915   */\n      dup6\n        /* \"#utility.yul\":1853:1924   */\n      tag_344\n      jump\t// in\n    tag_436:\n        /* \"#utility.yul\":1846:1924   */\n      swap4\n      pop\n        /* \"#utility.yul\":1933:1998   */\n      tag_437\n        /* \"#utility.yul\":1991:1997   */\n      dup2\n        /* \"#utility.yul\":1986:1989   */\n      dup6\n        /* \"#utility.yul\":1979:1983   */\n      0x20\n        /* \"#utility.yul\":1972:1977   */\n      dup7\n        /* \"#utility.yul\":1968:1984   */\n      add\n        /* \"#utility.yul\":1933:1998   */\n      tag_345\n      jump\t// in\n    tag_437:\n        /* \"#utility.yul\":2023:2052   */\n      tag_438\n        /* \"#utility.yul\":2045:2051   */\n      dup2\n        /* \"#utility.yul\":2023:2052   */\n      tag_346\n      jump\t// in\n    tag_438:\n        /* \"#utility.yul\":2018:2021   */\n      dup5\n        /* \"#utility.yul\":2014:2053   */\n      add\n        /* \"#utility.yul\":2007:2053   */\n      swap2\n      pop\n        /* \"#utility.yul\":1774:2059   */\n      pop\n        /* \"#utility.yul\":1682:2059   */\n      swap3\n      swap2\n      pop\n      pop\n      jump\t// out\n        /* \"#utility.yul\":2065:2191   */\n    tag_348:\n        /* \"#utility.yul\":2102:2109   */\n      0x00\n        /* \"#utility.yul\":2142:2184   */\n      0xffffffffffffffffffffffffffffffffffffffff\n        /* \"#utility.yul\":2135:2140   */\n      dup3\n        /* \"#utility.yul\":2131:2185   */\n      and\n        /* \"#utility.yul\":2120:2185   */\n      swap1\n      pop\n        /* \"#utility.yul\":2065:2191   */\n      swap2\n      swap1\n      pop\n      jump\t// out\n        /* \"#utility.yul\":2197:2293   */\n    tag_349:\n        /* \"#utility.yul\":2234:2241   */\n      0x00\n        /* \"#utility.yul\":2263:2287   */\n      tag_441\n        /* \"#utility.yul\":2281:2286   */\n      dup3\n        /* \"#utility.yul\":2263:2287   */\n      tag_348\n      jump\t// in\n    tag_441:\n        /* \"#utility.yul\":2252:2287   */\n      swap1\n      pop\n        /* \"#utility.yul\":2197:2293   */\n      swap2\n      swap1\n      pop\n      jump\t// out\n        /* \"#utility.yul\":2299:2417   */\n    tag_350:\n        /* \"#utility.yul\":2386:2410   */\n      tag_443\n        /* \"#utility.yul\":2404:2409   */\n      dup2\n        /* \"#utility.yul\":2386:2410   */\n      tag_349\n      jump\t// in\n    tag_443:\n        /* \"#utility.yul\":2381:2384   */\n      dup3\n        /* \"#utility.yul\":2374:2411   */\n      mstore\n        /* \"#utility.yul\":2299:2417   */\n      pop\n      pop\n      jump\t// out\n        /* \"#utility.yul\":2423:4097   */\n    tag_25:\n        /* \"#utility.yul\":2868:2872   */\n      0x00\n        /* \"#utility.yul\":2906:2909   */\n      0x0140\n        /* \"#utility.yul\":2895:2904   */\n      dup3\n        /* \"#utility.yul\":2891:2910   */\n      add\n        /* \"#utility.yul\":2883:2910   */\n      swap1\n      pop\n        /* \"#utility.yul\":2920:2991   */\n      tag_445\n        /* \"#utility.yul\":2988:2989   */\n      0x00\n        /* \"#utility.yul\":2977:2986   */\n      dup4\n        /* \"#utility.yul\":2973:2990   */\n      add\n        /* \"#utility.yul\":2964:2970   */\n      dup14\n        /* \"#utility.yul\":2920:2991   */\n      tag_342\n      jump\t// in\n    tag_445:\n        /* \"#utility.yul\":3038:3047   */\n      dup2\n        /* \"#utility.yul\":3032:3036   */\n      dup2\n        /* \"#utility.yul\":3028:3048   */\n      sub\n        /* \"#utility.yul\":3023:3025   */\n      0x20\n        /* \"#utility.yul\":3012:3021   */\n      dup4\n        /* \"#utility.yul\":3008:3026   */\n      add\n        /* \"#utility.yul\":3001:3049   */\n      mstore\n        /* \"#utility.yul\":3066:3144   */\n      tag_446\n        /* \"#utility.yul\":3139:3143   */\n      dup2\n        /* \"#utility.yul\":3130:3136   */\n      dup13\n        /* \"#utility.yul\":3066:3144   */\n      tag_347\n      jump\t// in\n    tag_446:\n        /* \"#utility.yul\":3058:3144   */\n      swap1\n      pop\n        /* \"#utility.yul\":3191:3200   */\n      dup2\n        /* \"#utility.yul\":3185:3189   */\n      dup2\n        /* \"#utility.yul\":3181:3201   */\n      sub\n        /* \"#utility.yul\":3176:3178   */\n      0x40\n        /* \"#utility.yul\":3165:3174   */\n      dup4\n        /* \"#utility.yul\":3161:3179   */\n      add\n        /* \"#utility.yul\":3154:3202   */\n      mstore\n        /* \"#utility.yul\":3219:3297   */\n      tag_447\n        /* \"#utility.yul\":3292:3296   */\n      dup2\n        /* \"#utility.yul\":3283:3289   */\n      dup12\n        /* \"#utility.yul\":3219:3297   */\n      tag_347\n      jump\t// in\n    tag_447:\n        /* \"#utility.yul\":3211:3297   */\n      swap1\n      pop\n        /* \"#utility.yul\":3307:3379   */\n      tag_448\n        /* \"#utility.yul\":3375:3377   */\n      0x60\n        /* \"#utility.yul\":3364:3373   */\n      dup4\n        /* \"#utility.yul\":3360:3378   */\n      add\n        /* \"#utility.yul\":3351:3357   */\n      dup11\n        /* \"#utility.yul\":3307:3379   */\n      tag_342\n      jump\t// in\n    tag_448:\n        /* \"#utility.yul\":3427:3436   */\n      dup2\n        /* \"#utility.yul\":3421:3425   */\n      dup2\n        /* \"#utility.yul\":3417:3437   */\n      sub\n        /* \"#utility.yul\":3411:3414   */\n      0x80\n        /* \"#utility.yul\":3400:3409   */\n      dup4\n        /* \"#utility.yul\":3396:3415   */\n      add\n        /* \"#utility.yul\":3389:3438   */\n      mstore\n        /* \"#utility.yul\":3455:3533   */\n      tag_449\n        /* \"#utility.yul\":3528:3532   */\n      dup2\n        /* \"#utility.yul\":3519:3525   */\n      dup10\n        /* \"#utility.yul\":3455:3533   */\n      tag_347\n      jump\t// in\n    tag_449:\n        /* \"#utility.yul\":3447:3533   */\n      swap1\n      pop\n        /* \"#utility.yul\":3543:3616   */\n      tag_450\n        /* \"#utility.yul\":3611:3614   */\n      0xa0\n        /* \"#utility.yul\":3600:3609   */\n      dup4\n        /* \"#utility.yul\":3596:3615   */\n      add\n        /* \"#utility.yul\":3587:3593   */\n      dup9\n        /* \"#utility.yul\":3543:3616   */\n      tag_342\n      jump\t// in\n    tag_450:\n        /* \"#utility.yul\":3626:3699   */\n      tag_451\n        /* \"#utility.yul\":3694:3697   */\n      0xc0\n        /* \"#utility.yul\":3683:3692   */\n      dup4\n        /* \"#utility.yul\":3679:3698   */\n      add\n        /* \"#utility.yul\":3670:3676   */\n      dup8\n        /* \"#utility.yul\":3626:3699   */\n      tag_350\n      jump\t// in\n    tag_451:\n        /* \"#utility.yul\":3747:3756   */\n      dup2\n        /* \"#utility.yul\":3741:3745   */\n      dup2\n        /* \"#utility.yul\":3737:3757   */\n      sub\n        /* \"#utility.yul\":3731:3734   */\n      0xe0\n        /* \"#utility.yul\":3720:3729   */\n      dup4\n        /* \"#utility.yul\":3716:3735   */\n      add\n        /* \"#utility.yul\":3709:3758   */\n      mstore\n        /* \"#utility.yul\":3775:3853   */\n      tag_452\n        /* \"#utility.yul\":3848:3852   */\n      dup2\n        /* \"#utility.yul\":3839:3845   */\n      dup7\n        /* \"#utility.yul\":3775:3853   */\n      tag_347\n      jump\t// in\n    tag_452:\n        /* \"#utility.yul\":3767:3853   */\n      swap1\n      pop\n        /* \"#utility.yul\":3901:3910   */\n      dup2\n        /* \"#utility.yul\":3895:3899   */\n      dup2\n        /* \"#utility.yul\":3891:3911   */\n      sub\n        /* \"#utility.yul\":3885:3888   */\n      0x0100\n        /* \"#utility.yul\":3874:3883   */\n      dup4\n        /* \"#utility.yul\":3870:3889   */\n      add\n        /* \"#utility.yul\":3863:3912   */\n      mstore\n        /* \"#utility.yul\":3929:4007   */\n      tag_453\n        /* \"#utility.yul\":4002:4006   */\n      dup2\n        /* \"#utility.yul\":3993:3999   */\n      dup6\n        /* \"#utility.yul\":3929:4007   */\n      tag_347\n      jump\t// in\n    tag_453:\n        /* \"#utility.yul\":3921:4007   */\n      swap1\n      pop\n        /* \"#utility.yul\":4017:4090   */\n      tag_454\n        /* \"#utility.yul\":4085:4088   */\n      0x0120\n        /* \"#utility.yul\":4074:4083   */\n      dup4\n        /* \"#utility.yul\":4070:4089   */\n      add\n        /* \"#utility.yul\":4061:4067   */\n      dup5\n        /* \"#utility.yul\":4017:4090   */\n      tag_342\n      jump\t// in\n    tag_454:\n        /* \"#utility.yul\":2423:4097   */\n      swap12\n      swap11\n      pop\n      pop\n      pop\n      pop\n      pop\n      pop\n      pop\n      pop\n      pop\n      pop\n      pop\n      jump\t// out\n        /* \"#utility.yul\":4103:4225   */\n    tag_351:\n        /* \"#utility.yul\":4176:4200   */\n      tag_456\n        /* \"#utility.yul\":4194:4199   */\n      dup2\n        /* \"#utility.yul\":4176:4200   */\n      tag_349\n      jump\t// in\n    tag_456:\n        /* \"#utility.yul\":4169:4174   */\n      dup2\n        /* \"#utility.yul\":4166:4201   */\n      eq\n        /* \"#utility.yul\":4156:4219   */\n      tag_457\n      jumpi\n        /* \"#utility.yul\":4215:4216   */\n      0x00\n        /* \"#utility.yul\":4212:4213   */\n      dup1\n        /* \"#utility.yul\":4205:4217   */\n      revert\n        /* \"#utility.yul\":4156:4219   */\n    tag_457:\n        /* \"#utility.yul\":4103:4225   */\n      pop\n      jump\t// out\n        /* \"#utility.yul\":4231:4370   */\n    tag_352:\n        /* \"#utility.yul\":4277:4282   */\n      0x00\n        /* \"#utility.yul\":4315:4321   */\n      dup2\n        /* \"#utility.yul\":4302:4322   */\n      calldataload\n        /* \"#utility.yul\":4293:4322   */\n      swap1\n      pop\n        /* \"#utility.yul\":4331:4364   */\n      tag_459\n        /* \"#utility.yul\":4358:4363   */\n      dup2\n        /* \"#utility.yul\":4331:4364   */\n      tag_351\n      jump\t// in\n    tag_459:\n        /* \"#utility.yul\":4231:4370   */\n      swap3\n      swap2\n      pop\n      pop\n      jump\t// out\n        /* \"#utility.yul\":4376:4705   */\n    tag_31:\n        /* \"#utility.yul\":4435:4441   */\n      0x00\n        /* \"#utility.yul\":4484:4486   */\n      0x20\n        /* \"#utility.yul\":4472:4481   */\n      dup3\n        /* \"#utility.yul\":4463:4470   */\n      dup5\n        /* \"#utility.yul\":4459:4482   */\n      sub\n        /* \"#utility.yul\":4455:4487   */\n      slt\n        /* \"#utility.yul\":4452:4571   */\n      iszero\n      tag_461\n      jumpi\n        /* \"#utility.yul\":4490:4569   */\n      tag_462\n      tag_337\n      jump\t// in\n    tag_462:\n        /* \"#utility.yul\":4452:4571   */\n    tag_461:\n        /* \"#utility.yul\":4610:4611   */\n      0x00\n        /* \"#utility.yul\":4635:4688   */\n      tag_463\n        /* \"#utility.yul\":4680:4687   */\n      dup5\n        /* \"#utility.yul\":4671:4677   */\n      dup3\n        /* \"#utility.yul\":4660:4669   */\n      dup6\n        /* \"#utility.yul\":4656:4678   */\n      add\n        /* \"#utility.yul\":4635:4688   */\n      tag_352\n      jump\t// in\n    tag_463:\n        /* \"#utility.yul\":4625:4688   */\n      swap2\n      pop\n        /* \"#utility.yul\":4581:4698   */\n      pop\n        /* \"#utility.yul\":4376:4705   */\n      swap3\n      swap2\n      pop\n      pop\n      jump\t// out\n        /* \"#utility.yul\":4711:4850   */\n    tag_353:\n        /* \"#utility.yul\":4803:4809   */\n      0x00\n        /* \"#utility.yul\":4837:4842   */\n      dup2\n        /* \"#utility.yul\":4831:4843   */\n      mload\n        /* \"#utility.yul\":4821:4843   */\n      swap1\n      pop\n        /* \"#utility.yul\":4711:4850   */\n      swap2\n      swap1\n      pop\n      jump\t// out\n        /* \"#utility.yul\":4856:5065   */\n    tag_354:\n        /* \"#utility.yul\":4980:4991   */\n      0x00\n        /* \"#utility.yul\":5014:5020   */\n      dup3\n        /* \"#utility.yul\":5009:5012   */\n      dup3\n        /* \"#utility.yul\":5002:5021   */\n      mstore\n        /* \"#utility.yul\":5054:5058   */\n      0x20\n        /* \"#utility.yul\":5049:5052   */\n      dup3\n        /* \"#utility.yul\":5045:5059   */\n      add\n        /* \"#utility.yul\":5030:5059   */\n      swap1\n      pop\n        /* \"#utility.yul\":4856:5065   */\n      swap3\n      swap2\n      pop\n      pop\n      jump\t// out\n        /* \"#utility.yul\":5071:5228   */\n    tag_355:\n        /* \"#utility.yul\":5163:5167   */\n      0x00\n        /* \"#utility.yul\":5186:5189   */\n      dup2\n        /* \"#utility.yul\":5178:5189   */\n      swap1\n      pop\n        /* \"#utility.yul\":5216:5220   */\n      0x20\n        /* \"#utility.yul\":5211:5214   */\n      dup3\n        /* \"#utility.yul\":5207:5221   */\n      add\n        /* \"#utility.yul\":5199:5221   */\n      swap1\n      pop\n        /* \"#utility.yul\":5071:5228   */\n      swap2\n      swap1\n      pop\n      jump\t// out\n        /* \"#utility.yul\":5234:5342   */\n    tag_356:\n        /* \"#utility.yul\":5311:5335   */\n      tag_468\n        /* \"#utility.yul\":5329:5334   */\n      dup2\n        /* \"#utility.yul\":5311:5335   */\n      tag_339\n      jump\t// in\n    tag_468:\n        /* \"#utility.yul\":5306:5309   */\n      dup3\n        /* \"#utility.yul\":5299:5336   */\n      mstore\n        /* \"#utility.yul\":5234:5342   */\n      pop\n      pop\n      jump\t// out\n        /* \"#utility.yul\":5348:5507   */\n    tag_357:\n        /* \"#utility.yul\":5422:5433   */\n      0x00\n        /* \"#utility.yul\":5456:5462   */\n      dup3\n        /* \"#utility.yul\":5451:5454   */\n      dup3\n        /* \"#utility.yul\":5444:5463   */\n      mstore\n        /* \"#utility.yul\":5496:5500   */\n      0x20\n        /* \"#utility.yul\":5491:5494   */\n      dup3\n        /* \"#utility.yul\":5487:5501   */\n      add\n        /* \"#utility.yul\":5472:5501   */\n      swap1\n      pop\n        /* \"#utility.yul\":5348:5507   */\n      swap3\n      swap2\n      pop\n      pop\n      jump\t// out\n        /* \"#utility.yul\":5513:5870   */\n    tag_358:\n        /* \"#utility.yul\":5591:5594   */\n      0x00\n        /* \"#utility.yul\":5619:5658   */\n      tag_471\n        /* \"#utility.yul\":5652:5657   */\n      dup3\n        /* \"#utility.yul\":5619:5658   */\n      tag_343\n      jump\t// in\n    tag_471:\n        /* \"#utility.yul\":5674:5735   */\n      tag_472\n        /* \"#utility.yul\":5728:5734   */\n      dup2\n        /* \"#utility.yul\":5723:5726   */\n      dup6\n        /* \"#utility.yul\":5674:5735   */\n      tag_357\n      jump\t// in\n    tag_472:\n        /* \"#utility.yul\":5667:5735   */\n      swap4\n      pop\n        /* \"#utility.yul\":5744:5809   */\n      tag_473\n        /* \"#utility.yul\":5802:5808   */\n      dup2\n        /* \"#utility.yul\":5797:5800   */\n      dup6\n        /* \"#utility.yul\":5790:5794   */\n      0x20\n        /* \"#utility.yul\":5783:5788   */\n      dup7\n        /* \"#utility.yul\":5779:5795   */\n      add\n        /* \"#utility.yul\":5744:5809   */\n      tag_345\n      jump\t// in\n    tag_473:\n        /* \"#utility.yul\":5834:5863   */\n      tag_474\n        /* \"#utility.yul\":5856:5862   */\n      dup2\n        /* \"#utility.yul\":5834:5863   */\n      tag_346\n      jump\t// in\n    tag_474:\n        /* \"#utility.yul\":5829:5832   */\n      dup5\n        /* \"#utility.yul\":5825:5864   */\n      add\n        /* \"#utility.yul\":5818:5864   */\n      swap2\n      pop\n        /* \"#utility.yul\":5595:5870   */\n      pop\n        /* \"#utility.yul\":5513:5870   */\n      swap3\n      swap2\n      pop\n      pop\n      jump\t// out\n        /* \"#utility.yul\":5876:5984   */\n    tag_359:\n        /* \"#utility.yul\":5953:5977   */\n      tag_476\n        /* \"#utility.yul\":5971:5976   */\n      dup2\n        /* \"#utility.yul\":5953:5977   */\n      tag_349\n      jump\t// in\n    tag_476:\n        /* \"#utility.yul\":5948:5951   */\n      dup3\n        /* \"#utility.yul\":5941:5978   */\n      mstore\n        /* \"#utility.yul\":5876:5984   */\n      pop\n      pop\n      jump\t// out\n        /* \"#utility.yul\":6046:8362   */\n    tag_360:\n        /* \"#utility.yul\":6155:6158   */\n      0x00\n        /* \"#utility.yul\":6191:6197   */\n      0x0140\n        /* \"#utility.yul\":6186:6189   */\n      dup4\n        /* \"#utility.yul\":6182:6198   */\n      add\n        /* \"#utility.yul\":6278:6282   */\n      0x00\n        /* \"#utility.yul\":6271:6276   */\n      dup4\n        /* \"#utility.yul\":6267:6283   */\n      add\n        /* \"#utility.yul\":6261:6284   */\n      mload\n        /* \"#utility.yul\":6297:6360   */\n      tag_478\n        /* \"#utility.yul\":6354:6358   */\n      0x00\n        /* \"#utility.yul\":6349:6352   */\n      dup7\n        /* \"#utility.yul\":6345:6359   */\n      add\n        /* \"#utility.yul\":6331:6343   */\n      dup3\n        /* \"#utility.yul\":6297:6360   */\n      tag_356\n      jump\t// in\n    tag_478:\n        /* \"#utility.yul\":6208:6370   */\n      pop\n        /* \"#utility.yul\":6453:6457   */\n      0x20\n        /* \"#utility.yul\":6446:6451   */\n      dup4\n        /* \"#utility.yul\":6442:6458   */\n      add\n        /* \"#utility.yul\":6436:6459   */\n      mload\n        /* \"#utility.yul\":6506:6509   */\n      dup5\n        /* \"#utility.yul\":6500:6504   */\n      dup3\n        /* \"#utility.yul\":6496:6510   */\n      sub\n        /* \"#utility.yul\":6489:6493   */\n      0x20\n        /* \"#utility.yul\":6484:6487   */\n      dup7\n        /* \"#utility.yul\":6480:6494   */\n      add\n        /* \"#utility.yul\":6473:6511   */\n      mstore\n        /* \"#utility.yul\":6532:6605   */\n      tag_479\n        /* \"#utility.yul\":6600:6604   */\n      dup3\n        /* \"#utility.yul\":6586:6598   */\n      dup3\n        /* \"#utility.yul\":6532:6605   */\n      tag_358\n      jump\t// in\n    tag_479:\n        /* \"#utility.yul\":6524:6605   */\n      swap2\n      pop\n        /* \"#utility.yul\":6380:6616   */\n      pop\n        /* \"#utility.yul\":6705:6709   */\n      0x40\n        /* \"#utility.yul\":6698:6703   */\n      dup4\n        /* \"#utility.yul\":6694:6710   */\n      add\n        /* \"#utility.yul\":6688:6711   */\n      mload\n        /* \"#utility.yul\":6758:6761   */\n      dup5\n        /* \"#utility.yul\":6752:6756   */\n      dup3\n        /* \"#utility.yul\":6748:6762   */\n      sub\n        /* \"#utility.yul\":6741:6745   */\n      0x40\n        /* \"#utility.yul\":6736:6739   */\n      dup7\n        /* \"#utility.yul\":6732:6746   */\n      add\n        /* \"#utility.yul\":6725:6763   */\n      mstore\n        /* \"#utility.yul\":6784:6857   */\n      tag_480\n        /* \"#utility.yul\":6852:6856   */\n      dup3\n        /* \"#utility.yul\":6838:6850   */\n      dup3\n        /* \"#utility.yul\":6784:6857   */\n      tag_358\n      jump\t// in\n    tag_480:\n        /* \"#utility.yul\":6776:6857   */\n      swap2\n      pop\n        /* \"#utility.yul\":6626:6868   */\n      pop\n        /* \"#utility.yul\":6951:6955   */\n      0x60\n        /* \"#utility.yul\":6944:6949   */\n      dup4\n        /* \"#utility.yul\":6940:6956   */\n      add\n        /* \"#utility.yul\":6934:6957   */\n      mload\n        /* \"#utility.yul\":6970:7033   */\n      tag_481\n        /* \"#utility.yul\":7027:7031   */\n      0x60\n        /* \"#utility.yul\":7022:7025   */\n      dup7\n        /* \"#utility.yul\":7018:7032   */\n      add\n        /* \"#utility.yul\":7004:7016   */\n      dup3\n        /* \"#utility.yul\":6970:7033   */\n      tag_356\n      jump\t// in\n    tag_481:\n        /* \"#utility.yul\":6878:7043   */\n      pop\n        /* \"#utility.yul\":7127:7131   */\n      0x80\n        /* \"#utility.yul\":7120:7125   */\n      dup4\n        /* \"#utility.yul\":7116:7132   */\n      add\n        /* \"#utility.yul\":7110:7133   */\n      mload\n        /* \"#utility.yul\":7180:7183   */\n      dup5\n        /* \"#utility.yul\":7174:7178   */\n      dup3\n        /* \"#utility.yul\":7170:7184   */\n      sub\n        /* \"#utility.yul\":7163:7167   */\n      0x80\n        /* \"#utility.yul\":7158:7161   */\n      dup7\n        /* \"#utility.yul\":7154:7168   */\n      add\n        /* \"#utility.yul\":7147:7185   */\n      mstore\n        /* \"#utility.yul\":7206:7279   */\n      tag_482\n        /* \"#utility.yul\":7274:7278   */\n      dup3\n        /* \"#utility.yul\":7260:7272   */\n      dup3\n        /* \"#utility.yul\":7206:7279   */\n      tag_358\n      jump\t// in\n    tag_482:\n        /* \"#utility.yul\":7198:7279   */\n      swap2\n      pop\n        /* \"#utility.yul\":7053:7290   */\n      pop\n        /* \"#utility.yul\":7376:7380   */\n      0xa0\n        /* \"#utility.yul\":7369:7374   */\n      dup4\n        /* \"#utility.yul\":7365:7381   */\n      add\n        /* \"#utility.yul\":7359:7382   */\n      mload\n        /* \"#utility.yul\":7395:7458   */\n      tag_483\n        /* \"#utility.yul\":7452:7456   */\n      0xa0\n        /* \"#utility.yul\":7447:7450   */\n      dup7\n        /* \"#utility.yul\":7443:7457   */\n      add\n        /* \"#utility.yul\":7429:7441   */\n      dup3\n        /* \"#utility.yul\":7395:7458   */\n      tag_356\n      jump\t// in\n    tag_483:\n        /* \"#utility.yul\":7300:7468   */\n      pop\n        /* \"#utility.yul\":7552:7556   */\n      0xc0\n        /* \"#utility.yul\":7545:7550   */\n      dup4\n        /* \"#utility.yul\":7541:7557   */\n      add\n        /* \"#utility.yul\":7535:7558   */\n      mload\n        /* \"#utility.yul\":7571:7634   */\n      tag_484\n        /* \"#utility.yul\":7628:7632   */\n      0xc0\n        /* \"#utility.yul\":7623:7626   */\n      dup7\n        /* \"#utility.yul\":7619:7633   */\n      add\n        /* \"#utility.yul\":7605:7617   */\n      dup3\n        /* \"#utility.yul\":7571:7634   */\n      tag_359\n      jump\t// in\n    tag_484:\n        /* \"#utility.yul\":7478:7644   */\n      pop\n        /* \"#utility.yul\":7736:7740   */\n      0xe0\n        /* \"#utility.yul\":7729:7734   */\n      dup4\n        /* \"#utility.yul\":7725:7741   */\n      add\n        /* \"#utility.yul\":7719:7742   */\n      mload\n        /* \"#utility.yul\":7789:7792   */\n      dup5\n        /* \"#utility.yul\":7783:7787   */\n      dup3\n        /* \"#utility.yul\":7779:7793   */\n      sub\n        /* \"#utility.yul\":7772:7776   */\n      0xe0\n        /* \"#utility.yul\":7767:7770   */\n      dup7\n        /* \"#utility.yul\":7763:7777   */\n      add\n        /* \"#utility.yul\":7756:7794   */\n      mstore\n        /* \"#utility.yul\":7815:7888   */\n      tag_485\n        /* \"#utility.yul\":7883:7887   */\n      dup3\n        /* \"#utility.yul\":7869:7881   */\n      dup3\n        /* \"#utility.yul\":7815:7888   */\n      tag_358\n      jump\t// in\n    tag_485:\n        /* \"#utility.yul\":7807:7888   */\n      swap2\n      pop\n        /* \"#utility.yul\":7654:7899   */\n      pop\n        /* \"#utility.yul\":7987:7993   */\n      0x0100\n        /* \"#utility.yul\":7980:7985   */\n      dup4\n        /* \"#utility.yul\":7976:7994   */\n      add\n        /* \"#utility.yul\":7970:7995   */\n      mload\n        /* \"#utility.yul\":8044:8047   */\n      dup5\n        /* \"#utility.yul\":8038:8042   */\n      dup3\n        /* \"#utility.yul\":8034:8048   */\n      sub\n        /* \"#utility.yul\":8025:8031   */\n      0x0100\n        /* \"#utility.yul\":8020:8023   */\n      dup7\n        /* \"#utility.yul\":8016:8032   */\n      add\n        /* \"#utility.yul\":8009:8049   */\n      mstore\n        /* \"#utility.yul\":8070:8143   */\n      tag_486\n        /* \"#utility.yul\":8138:8142   */\n      dup3\n        /* \"#utility.yul\":8124:8136   */\n      dup3\n        /* \"#utility.yul\":8070:8143   */\n      tag_358\n      jump\t// in\n    tag_486:\n        /* \"#utility.yul\":8062:8143   */\n      swap2\n      pop\n        /* \"#utility.yul\":7909:8154   */\n      pop\n        /* \"#utility.yul\":8239:8245   */\n      0x0120\n        /* \"#utility.yul\":8232:8237   */\n      dup4\n        /* \"#utility.yul\":8228:8246   */\n      add\n        /* \"#utility.yul\":8222:8247   */\n      mload\n        /* \"#utility.yul\":8260:8325   */\n      tag_487\n        /* \"#utility.yul\":8317:8323   */\n      0x0120\n        /* \"#utility.yul\":8312:8315   */\n      dup7\n        /* \"#utility.yul\":8308:8324   */\n      add\n        /* \"#utility.yul\":8294:8306   */\n      dup3\n        /* \"#utility.yul\":8260:8325   */\n      tag_356\n      jump\t// in\n    tag_487:\n        /* \"#utility.yul\":8164:8335   */\n      pop\n        /* \"#utility.yul\":8352:8356   */\n      dup1\n        /* \"#utility.yul\":8345:8356   */\n      swap2\n      pop\n        /* \"#utility.yul\":6160:8362   */\n      pop\n        /* \"#utility.yul\":6046:8362   */\n      swap3\n      swap2\n      pop\n      pop\n      jump\t// out\n        /* \"#utility.yul\":8368:8624   */\n    tag_361:\n        /* \"#utility.yul\":8487:8497   */\n      0x00\n        /* \"#utility.yul\":8522:8618   */\n      tag_489\n        /* \"#utility.yul\":8614:8617   */\n      dup4\n        /* \"#utility.yul\":8606:8612   */\n      dup4\n        /* \"#utility.yul\":8522:8618   */\n      tag_360\n      jump\t// in\n    tag_489:\n        /* \"#utility.yul\":8508:8618   */\n      swap1\n      pop\n        /* \"#utility.yul\":8368:8624   */\n      swap3\n      swap2\n      pop\n      pop\n      jump\t// out\n        /* \"#utility.yul\":8630:8768   */\n    tag_362:\n        /* \"#utility.yul\":8725:8729   */\n      0x00\n        /* \"#utility.yul\":8757:8761   */\n      0x20\n        /* \"#utility.yul\":8752:8755   */\n      dup3\n        /* \"#utility.yul\":8748:8762   */\n      add\n        /* \"#utility.yul\":8740:8762   */\n      swap1\n      pop\n        /* \"#utility.yul\":8630:8768   */\n      swap2\n      swap1\n      pop\n      jump\t// out\n        /* \"#utility.yul\":8834:9945   */\n    tag_363:\n        /* \"#utility.yul\":9003:9006   */\n      0x00\n        /* \"#utility.yul\":9032:9111   */\n      tag_492\n        /* \"#utility.yul\":9105:9110   */\n      dup3\n        /* \"#utility.yul\":9032:9111   */\n      tag_353\n      jump\t// in\n    tag_492:\n        /* \"#utility.yul\":9127:9238   */\n      tag_493\n        /* \"#utility.yul\":9231:9237   */\n      dup2\n        /* \"#utility.yul\":9226:9229   */\n      dup6\n        /* \"#utility.yul\":9127:9238   */\n      tag_354\n      jump\t// in\n    tag_493:\n        /* \"#utility.yul\":9120:9238   */\n      swap4\n      pop\n        /* \"#utility.yul\":9264:9267   */\n      dup4\n        /* \"#utility.yul\":9309:9313   */\n      0x20\n        /* \"#utility.yul\":9301:9307   */\n      dup3\n        /* \"#utility.yul\":9297:9314   */\n      mul\n        /* \"#utility.yul\":9292:9295   */\n      dup6\n        /* \"#utility.yul\":9288:9315   */\n      add\n        /* \"#utility.yul\":9339:9420   */\n      tag_494\n        /* \"#utility.yul\":9414:9419   */\n      dup6\n        /* \"#utility.yul\":9339:9420   */\n      tag_355\n      jump\t// in\n    tag_494:\n        /* \"#utility.yul\":9443:9450   */\n      dup1\n        /* \"#utility.yul\":9474:9475   */\n      0x00\n        /* \"#utility.yul\":9459:9900   */\n    tag_495:\n        /* \"#utility.yul\":9484:9490   */\n      dup6\n        /* \"#utility.yul\":9481:9482   */\n      dup2\n        /* \"#utility.yul\":9478:9491   */\n      lt\n        /* \"#utility.yul\":9459:9900   */\n      iszero\n      tag_497\n      jumpi\n        /* \"#utility.yul\":9555:9564   */\n      dup5\n        /* \"#utility.yul\":9549:9553   */\n      dup5\n        /* \"#utility.yul\":9545:9565   */\n      sub\n        /* \"#utility.yul\":9540:9543   */\n      dup10\n        /* \"#utility.yul\":9533:9566   */\n      mstore\n        /* \"#utility.yul\":9606:9612   */\n      dup2\n        /* \"#utility.yul\":9600:9613   */\n      mload\n        /* \"#utility.yul\":9634:9748   */\n      tag_498\n        /* \"#utility.yul\":9743:9747   */\n      dup6\n        /* \"#utility.yul\":9728:9741   */\n      dup3\n        /* \"#utility.yul\":9634:9748   */\n      tag_361\n      jump\t// in\n    tag_498:\n        /* \"#utility.yul\":9626:9748   */\n      swap5\n      pop\n        /* \"#utility.yul\":9771:9856   */\n      tag_499\n        /* \"#utility.yul\":9849:9855   */\n      dup4\n        /* \"#utility.yul\":9771:9856   */\n      tag_362\n      jump\t// in\n    tag_499:\n        /* \"#utility.yul\":9761:9856   */\n      swap3\n      pop\n        /* \"#utility.yul\":9885:9889   */\n      0x20\n        /* \"#utility.yul\":9880:9883   */\n      dup11\n        /* \"#utility.yul\":9876:9890   */\n      add\n        /* \"#utility.yul\":9869:9890   */\n      swap10\n      pop\n        /* \"#utility.yul\":9519:9900   */\n      pop\n        /* \"#utility.yul\":9506:9507   */\n      0x01\n        /* \"#utility.yul\":9503:9504   */\n      dup2\n        /* \"#utility.yul\":9499:9508   */\n      add\n        /* \"#utility.yul\":9494:9508   */\n      swap1\n      pop\n        /* \"#utility.yul\":9459:9900   */\n      jump(tag_495)\n    tag_497:\n        /* \"#utility.yul\":9463:9477   */\n      pop\n        /* \"#utility.yul\":9916:9920   */\n      dup3\n        /* \"#utility.yul\":9909:9920   */\n      swap8\n      pop\n        /* \"#utility.yul\":9936:9939   */\n      dup8\n        /* \"#utility.yul\":9929:9939   */\n      swap6\n      pop\n        /* \"#utility.yul\":9008:9945   */\n      pop\n      pop\n      pop\n      pop\n      pop\n        /* \"#utility.yul\":8834:9945   */\n      swap3\n      swap2\n      pop\n      pop\n      jump\t// out\n        /* \"#utility.yul\":9951:10424   */\n    tag_34:\n        /* \"#utility.yul\":10144:10148   */\n      0x00\n        /* \"#utility.yul\":10182:10184   */\n      0x20\n        /* \"#utility.yul\":10171:10180   */\n      dup3\n        /* \"#utility.yul\":10167:10185   */\n      add\n        /* \"#utility.yul\":10159:10185   */\n      swap1\n      pop\n        /* \"#utility.yul\":10231:10240   */\n      dup2\n        /* \"#utility.yul\":10225:10229   */\n      dup2\n        /* \"#utility.yul\":10221:10241   */\n      sub\n        /* \"#utility.yul\":10217:10218   */\n      0x00\n        /* \"#utility.yul\":10206:10215   */\n      dup4\n        /* \"#utility.yul\":10202:10219   */\n      add\n        /* \"#utility.yul\":10195:10242   */\n      mstore\n        /* \"#utility.yul\":10259:10417   */\n      tag_501\n        /* \"#utility.yul\":10412:10416   */\n      dup2\n        /* \"#utility.yul\":10403:10409   */\n      dup5\n        /* \"#utility.yul\":10259:10417   */\n      tag_363\n      jump\t// in\n    tag_501:\n        /* \"#utility.yul\":10251:10417   */\n      swap1\n      pop\n        /* \"#utility.yul\":9951:10424   */\n      swap3\n      swap2\n      pop\n      pop\n      jump\t// out\n        /* \"#utility.yul\":10430:10544   */\n    tag_364:\n        /* \"#utility.yul\":10497:10503   */\n      0x00\n        /* \"#utility.yul\":10531:10536   */\n      dup2\n        /* \"#utility.yul\":10525:10537   */\n      mload\n        /* \"#utility.yul\":10515:10537   */\n      swap1\n      pop\n        /* \"#utility.yul\":10430:10544   */\n      swap2\n      swap1\n      pop\n      jump\t// out\n        /* \"#utility.yul\":10550:10734   */\n    tag_365:\n        /* \"#utility.yul\":10649:10660   */\n      0x00\n        /* \"#utility.yul\":10683:10689   */\n      dup3\n        /* \"#utility.yul\":10678:10681   */\n      dup3\n        /* \"#utility.yul\":10671:10690   */\n      mstore\n        /* \"#utility.yul\":10723:10727   */\n      0x20\n        /* \"#utility.yul\":10718:10721   */\n      dup3\n        /* \"#utility.yul\":10714:10728   */\n      add\n        /* \"#utility.yul\":10699:10728   */\n      swap1\n      pop\n        /* \"#utility.yul\":10550:10734   */\n      swap3\n      swap2\n      pop\n      pop\n      jump\t// out\n        /* \"#utility.yul\":10740:10872   */\n    tag_366:\n        /* \"#utility.yul\":10807:10811   */\n      0x00\n        /* \"#utility.yul\":10830:10833   */\n      dup2\n        /* \"#utility.yul\":10822:10833   */\n      swap1\n      pop\n        /* \"#utility.yul\":10860:10864   */\n      0x20\n        /* \"#utility.yul\":10855:10858   */\n      dup3\n        /* \"#utility.yul\":10851:10865   */\n      add\n        /* \"#utility.yul\":10843:10865   */\n      swap1\n      pop\n        /* \"#utility.yul\":10740:10872   */\n      swap2\n      swap1\n      pop\n      jump\t// out\n        /* \"#utility.yul\":10878:11057   */\n    tag_367:\n        /* \"#utility.yul\":10947:10957   */\n      0x00\n        /* \"#utility.yul\":10968:11014   */\n      tag_506\n        /* \"#utility.yul\":11010:11013   */\n      dup4\n        /* \"#utility.yul\":11002:11008   */\n      dup4\n        /* \"#utility.yul\":10968:11014   */\n      tag_359\n      jump\t// in\n    tag_506:\n        /* \"#utility.yul\":11046:11050   */\n      0x20\n        /* \"#utility.yul\":11041:11044   */\n      dup4\n        /* \"#utility.yul\":11037:11051   */\n      add\n        /* \"#utility.yul\":11023:11051   */\n      swap1\n      pop\n        /* \"#utility.yul\":10878:11057   */\n      swap3\n      swap2\n      pop\n      pop\n      jump\t// out\n        /* \"#utility.yul\":11063:11176   */\n    tag_368:\n        /* \"#utility.yul\":11133:11137   */\n      0x00\n        /* \"#utility.yul\":11165:11169   */\n      0x20\n        /* \"#utility.yul\":11160:11163   */\n      dup3\n        /* \"#utility.yul\":11156:11170   */\n      add\n        /* \"#utility.yul\":11148:11170   */\n      swap1\n      pop\n        /* \"#utility.yul\":11063:11176   */\n      swap2\n      swap1\n      pop\n      jump\t// out\n        /* \"#utility.yul\":11212:11944   */\n    tag_369:\n        /* \"#utility.yul\":11331:11334   */\n      0x00\n        /* \"#utility.yul\":11360:11414   */\n      tag_509\n        /* \"#utility.yul\":11408:11413   */\n      dup3\n        /* \"#utility.yul\":11360:11414   */\n      tag_364\n      jump\t// in\n    tag_509:\n        /* \"#utility.yul\":11430:11516   */\n      tag_510\n        /* \"#utility.yul\":11509:11515   */\n      dup2\n        /* \"#utility.yul\":11504:11507   */\n      dup6\n        /* \"#utility.yul\":11430:11516   */\n      tag_365\n      jump\t// in\n    tag_510:\n        /* \"#utility.yul\":11423:11516   */\n      swap4\n      pop\n        /* \"#utility.yul\":11540:11596   */\n      tag_511\n        /* \"#utility.yul\":11590:11595   */\n      dup4\n        /* \"#utility.yul\":11540:11596   */\n      tag_366\n      jump\t// in\n    tag_511:\n        /* \"#utility.yul\":11619:11626   */\n      dup1\n        /* \"#utility.yul\":11650:11651   */\n      0x00\n        /* \"#utility.yul\":11635:11919   */\n    tag_512:\n        /* \"#utility.yul\":11660:11666   */\n      dup4\n        /* \"#utility.yul\":11657:11658   */\n      dup2\n        /* \"#utility.yul\":11654:11667   */\n      lt\n        /* \"#utility.yul\":11635:11919   */\n      iszero\n      tag_514\n      jumpi\n        /* \"#utility.yul\":11736:11742   */\n      dup2\n        /* \"#utility.yul\":11730:11743   */\n      mload\n        /* \"#utility.yul\":11763:11826   */\n      tag_515\n        /* \"#utility.yul\":11822:11825   */\n      dup9\n        /* \"#utility.yul\":11807:11820   */\n      dup3\n        /* \"#utility.yul\":11763:11826   */\n      tag_367\n      jump\t// in\n    tag_515:\n        /* \"#utility.yul\":11756:11826   */\n      swap8\n      pop\n        /* \"#utility.yul\":11849:11909   */\n      tag_516\n        /* \"#utility.yul\":11902:11908   */\n      dup4\n        /* \"#utility.yul\":11849:11909   */\n      tag_368\n      jump\t// in\n    tag_516:\n        /* \"#utility.yul\":11839:11909   */\n      swap3\n      pop\n        /* \"#utility.yul\":11695:11919   */\n      pop\n        /* \"#utility.yul\":11682:11683   */\n      0x01\n        /* \"#utility.yul\":11679:11680   */\n      dup2\n        /* \"#utility.yul\":11675:11684   */\n      add\n        /* \"#utility.yul\":11670:11684   */\n      swap1\n      pop\n        /* \"#utility.yul\":11635:11919   */\n      jump(tag_512)\n    tag_514:\n        /* \"#utility.yul\":11639:11653   */\n      pop\n        /* \"#utility.yul\":11935:11938   */\n      dup6\n        /* \"#utility.yul\":11928:11938   */\n      swap4\n      pop\n        /* \"#utility.yul\":11336:11944   */\n      pop\n      pop\n      pop\n        /* \"#utility.yul\":11212:11944   */\n      swap3\n      swap2\n      pop\n      pop\n      jump\t// out\n        /* \"#utility.yul\":11950:12323   */\n    tag_39:\n        /* \"#utility.yul\":12093:12097   */\n      0x00\n        /* \"#utility.yul\":12131:12133   */\n      0x20\n        /* \"#utility.yul\":12120:12129   */\n      dup3\n        /* \"#utility.yul\":12116:12134   */\n      add\n        /* \"#utility.yul\":12108:12134   */\n      swap1\n      pop\n        /* \"#utility.yul\":12180:12189   */\n      dup2\n        /* \"#utility.yul\":12174:12178   */\n      dup2\n        /* \"#utility.yul\":12170:12190   */\n      sub\n        /* \"#utility.yul\":12166:12167   */\n      0x00\n        /* \"#utility.yul\":12155:12164   */\n      dup4\n        /* \"#utility.yul\":12151:12168   */\n      add\n        /* \"#utility.yul\":12144:12191   */\n      mstore\n        /* \"#utility.yul\":12208:12316   */\n      tag_518\n        /* \"#utility.yul\":12311:12315   */\n      dup2\n        /* \"#utility.yul\":12302:12308   */\n      dup5\n        /* \"#utility.yul\":12208:12316   */\n      tag_369\n      jump\t// in\n    tag_518:\n        /* \"#utility.yul\":12200:12316   */\n      swap1\n      pop\n        /* \"#utility.yul\":11950:12323   */\n      swap3\n      swap2\n      pop\n      pop\n      jump\t// out\n        /* \"#utility.yul\":12329:12446   */\n    tag_370:\n        /* \"#utility.yul\":12438:12439   */\n      0x00\n        /* \"#utility.yul\":12435:12436   */\n      dup1\n        /* \"#utility.yul\":12428:12440   */\n      revert\n        /* \"#utility.yul\":12452:12569   */\n    tag_371:\n        /* \"#utility.yul\":12561:12562   */\n      0x00\n        /* \"#utility.yul\":12558:12559   */\n      dup1\n        /* \"#utility.yul\":12551:12563   */\n      revert\n        /* \"#utility.yul\":12575:12755   */\n    tag_372:\n        /* \"#utility.yul\":12623:12700   */\n      0x4e487b7100000000000000000000000000000000000000000000000000000000\n        /* \"#utility.yul\":12620:12621   */\n      0x00\n        /* \"#utility.yul\":12613:12701   */\n      mstore\n        /* \"#utility.yul\":12720:12724   */\n      0x41\n        /* \"#utility.yul\":12717:12718   */\n      0x04\n        /* \"#utility.yul\":12710:12725   */\n      mstore\n        /* \"#utility.yul\":12744:12748   */\n      0x24\n        /* \"#utility.yul\":12741:12742   */\n      0x00\n        /* \"#utility.yul\":12734:12749   */\n      revert\n        /* \"#utility.yul\":12761:13042   */\n    tag_373:\n        /* \"#utility.yul\":12844:12871   */\n      tag_523\n        /* \"#utility.yul\":12866:12870   */\n      dup3\n        /* \"#utility.yul\":12844:12871   */\n      tag_346\n      jump\t// in\n    tag_523:\n        /* \"#utility.yul\":12836:12842   */\n      dup2\n        /* \"#utility.yul\":12832:12872   */\n      add\n        /* \"#utility.yul\":12974:12980   */\n      dup2\n        /* \"#utility.yul\":12962:12972   */\n      dup2\n        /* \"#utility.yul\":12959:12981   */\n      lt\n        /* \"#utility.yul\":12938:12956   */\n      0xffffffffffffffff\n        /* \"#utility.yul\":12926:12936   */\n      dup3\n        /* \"#utility.yul\":12923:12957   */\n      gt\n        /* \"#utility.yul\":12920:12982   */\n      or\n        /* \"#utility.yul\":12917:13005   */\n      iszero\n      tag_524\n      jumpi\n        /* \"#utility.yul\":12985:13003   */\n      tag_525\n      tag_372\n      jump\t// in\n    tag_525:\n        /* \"#utility.yul\":12917:13005   */\n    tag_524:\n        /* \"#utility.yul\":13025:13035   */\n      dup1\n        /* \"#utility.yul\":13021:13023   */\n      0x40\n        /* \"#utility.yul\":13014:13036   */\n      mstore\n        /* \"#utility.yul\":12804:13042   */\n      pop\n        /* \"#utility.yul\":12761:13042   */\n      pop\n      pop\n      jump\t// out\n        /* \"#utility.yul\":13048:13177   */\n    tag_374:\n        /* \"#utility.yul\":13082:13088   */\n      0x00\n        /* \"#utility.yul\":13109:13129   */\n      tag_527\n      tag_336\n      jump\t// in\n    tag_527:\n        /* \"#utility.yul\":13099:13129   */\n      swap1\n      pop\n        /* \"#utility.yul\":13138:13171   */\n      tag_528\n        /* \"#utility.yul\":13166:13170   */\n      dup3\n        /* \"#utility.yul\":13158:13164   */\n      dup3\n        /* \"#utility.yul\":13138:13171   */\n      tag_373\n      jump\t// in\n    tag_528:\n        /* \"#utility.yul\":13048:13177   */\n      swap2\n      swap1\n      pop\n      jump\t// out\n        /* \"#utility.yul\":13183:13491   */\n    tag_375:\n        /* \"#utility.yul\":13245:13249   */\n      0x00\n        /* \"#utility.yul\":13335:13353   */\n      0xffffffffffffffff\n        /* \"#utility.yul\":13327:13333   */\n      dup3\n        /* \"#utility.yul\":13324:13354   */\n      gt\n        /* \"#utility.yul\":13321:13377   */\n      iszero\n      tag_530\n      jumpi\n        /* \"#utility.yul\":13357:13375   */\n      tag_531\n      tag_372\n      jump\t// in\n    tag_531:\n        /* \"#utility.yul\":13321:13377   */\n    tag_530:\n        /* \"#utility.yul\":13395:13424   */\n      tag_532\n        /* \"#utility.yul\":13417:13423   */\n      dup3\n        /* \"#utility.yul\":13395:13424   */\n      tag_346\n      jump\t// in\n    tag_532:\n        /* \"#utility.yul\":13387:13424   */\n      swap1\n      pop\n        /* \"#utility.yul\":13479:13483   */\n      0x20\n        /* \"#utility.yul\":13473:13477   */\n      dup2\n        /* \"#utility.yul\":13469:13484   */\n      add\n        /* \"#utility.yul\":13461:13484   */\n      swap1\n      pop\n        /* \"#utility.yul\":13183:13491   */\n      swap2\n      swap1\n      pop\n      jump\t// out\n        /* \"#utility.yul\":13497:13645   */\n    tag_376:\n        /* \"#utility.yul\":13595:13601   */\n      dup3\n        /* \"#utility.yul\":13590:13593   */\n      dup2\n        /* \"#utility.yul\":13585:13588   */\n      dup4\n        /* \"#utility.yul\":13572:13602   */\n      calldatacopy\n        /* \"#utility.yul\":13636:13637   */\n      0x00\n        /* \"#utility.yul\":13627:13633   */\n      dup4\n        /* \"#utility.yul\":13622:13625   */\n      dup4\n        /* \"#utility.yul\":13618:13634   */\n      add\n        /* \"#utility.yul\":13611:13638   */\n      mstore\n        /* \"#utility.yul\":13497:13645   */\n      pop\n      pop\n      pop\n      jump\t// out\n        /* \"#utility.yul\":13651:14076   */\n    tag_377:\n        /* \"#utility.yul\":13729:13734   */\n      0x00\n        /* \"#utility.yul\":13754:13820   */\n      tag_535\n        /* \"#utility.yul\":13770:13819   */\n      tag_536\n        /* \"#utility.yul\":13812:13818   */\n      dup5\n        /* \"#utility.yul\":13770:13819   */\n      tag_375\n      jump\t// in\n    tag_536:\n        /* \"#utility.yul\":13754:13820   */\n      tag_374\n      jump\t// in\n    tag_535:\n        /* \"#utility.yul\":13745:13820   */\n      swap1\n      pop\n        /* \"#utility.yul\":13843:13849   */\n      dup3\n        /* \"#utility.yul\":13836:13841   */\n      dup2\n        /* \"#utility.yul\":13829:13850   */\n      mstore\n        /* \"#utility.yul\":13881:13885   */\n      0x20\n        /* \"#utility.yul\":13874:13879   */\n      dup2\n        /* \"#utility.yul\":13870:13886   */\n      add\n        /* \"#utility.yul\":13919:13922   */\n      dup5\n        /* \"#utility.yul\":13910:13916   */\n      dup5\n        /* \"#utility.yul\":13905:13908   */\n      dup5\n        /* \"#utility.yul\":13901:13917   */\n      add\n        /* \"#utility.yul\":13898:13923   */\n      gt\n        /* \"#utility.yul\":13895:14007   */\n      iszero\n      tag_537\n      jumpi\n        /* \"#utility.yul\":13926:14005   */\n      tag_538\n      tag_371\n      jump\t// in\n    tag_538:\n        /* \"#utility.yul\":13895:14007   */\n    tag_537:\n        /* \"#utility.yul\":14016:14070   */\n      tag_539\n        /* \"#utility.yul\":14063:14069   */\n      dup5\n        /* \"#utility.yul\":14058:14061   */\n      dup3\n        /* \"#utility.yul\":14053:14056   */\n      dup6\n        /* \"#utility.yul\":14016:14070   */\n      tag_376\n      jump\t// in\n    tag_539:\n        /* \"#utility.yul\":13735:14076   */\n      pop\n        /* \"#utility.yul\":13651:14076   */\n      swap4\n      swap3\n      pop\n      pop\n      pop\n      jump\t// out\n        /* \"#utility.yul\":14096:14436   */\n    tag_378:\n        /* \"#utility.yul\":14152:14157   */\n      0x00\n        /* \"#utility.yul\":14201:14204   */\n      dup3\n        /* \"#utility.yul\":14194:14198   */\n      0x1f\n        /* \"#utility.yul\":14186:14192   */\n      dup4\n        /* \"#utility.yul\":14182:14199   */\n      add\n        /* \"#utility.yul\":14178:14205   */\n      slt\n        /* \"#utility.yul\":14168:14290   */\n      tag_541\n      jumpi\n        /* \"#utility.yul\":14209:14288   */\n      tag_542\n      tag_370\n      jump\t// in\n    tag_542:\n        /* \"#utility.yul\":14168:14290   */\n    tag_541:\n        /* \"#utility.yul\":14326:14332   */\n      dup2\n        /* \"#utility.yul\":14313:14333   */\n      calldataload\n        /* \"#utility.yul\":14351:14430   */\n      tag_543\n        /* \"#utility.yul\":14426:14429   */\n      dup5\n        /* \"#utility.yul\":14418:14424   */\n      dup3\n        /* \"#utility.yul\":14411:14415   */\n      0x20\n        /* \"#utility.yul\":14403:14409   */\n      dup7\n        /* \"#utility.yul\":14399:14416   */\n      add\n        /* \"#utility.yul\":14351:14430   */\n      tag_377\n      jump\t// in\n    tag_543:\n        /* \"#utility.yul\":14342:14430   */\n      swap2\n      pop\n        /* \"#utility.yul\":14158:14436   */\n      pop\n        /* \"#utility.yul\":14096:14436   */\n      swap3\n      swap2\n      pop\n      pop\n      jump\t// out\n        /* \"#utility.yul\":14442:15747   */\n    tag_42:\n        /* \"#utility.yul\":14558:14564   */\n      0x00\n        /* \"#utility.yul\":14566:14572   */\n      dup1\n        /* \"#utility.yul\":14574:14580   */\n      0x00\n        /* \"#utility.yul\":14582:14588   */\n      dup1\n        /* \"#utility.yul\":14631:14634   */\n      0x80\n        /* \"#utility.yul\":14619:14628   */\n      dup6\n        /* \"#utility.yul\":14610:14617   */\n      dup8\n        /* \"#utility.yul\":14606:14629   */\n      sub\n        /* \"#utility.yul\":14602:14635   */\n      slt\n        /* \"#utility.yul\":14599:14719   */\n      iszero\n      tag_545\n      jumpi\n        /* \"#utility.yul\":14638:14717   */\n      tag_546\n      tag_337\n      jump\t// in\n    tag_546:\n        /* \"#utility.yul\":14599:14719   */\n    tag_545:\n        /* \"#utility.yul\":14786:14787   */\n      0x00\n        /* \"#utility.yul\":14775:14784   */\n      dup6\n        /* \"#utility.yul\":14771:14788   */\n      add\n        /* \"#utility.yul\":14758:14789   */\n      calldataload\n        /* \"#utility.yul\":14816:14834   */\n      0xffffffffffffffff\n        /* \"#utility.yul\":14808:14814   */\n      dup2\n        /* \"#utility.yul\":14805:14835   */\n      gt\n        /* \"#utility.yul\":14802:14919   */\n      iszero\n      tag_547\n      jumpi\n        /* \"#utility.yul\":14838:14917   */\n      tag_548\n      tag_338\n      jump\t// in\n    tag_548:\n        /* \"#utility.yul\":14802:14919   */\n    tag_547:\n        /* \"#utility.yul\":14943:15006   */\n      tag_549\n        /* \"#utility.yul\":14998:15005   */\n      dup8\n        /* \"#utility.yul\":14989:14995   */\n      dup3\n        /* \"#utility.yul\":14978:14987   */\n      dup9\n        /* \"#utility.yul\":14974:14996   */\n      add\n        /* \"#utility.yul\":14943:15006   */\n      tag_378\n      jump\t// in\n    tag_549:\n        /* \"#utility.yul\":14933:15006   */\n      swap5\n      pop\n        /* \"#utility.yul\":14729:15016   */\n      pop\n        /* \"#utility.yul\":15083:15085   */\n      0x20\n        /* \"#utility.yul\":15072:15081   */\n      dup6\n        /* \"#utility.yul\":15068:15086   */\n      add\n        /* \"#utility.yul\":15055:15087   */\n      calldataload\n        /* \"#utility.yul\":15114:15132   */\n      0xffffffffffffffff\n        /* \"#utility.yul\":15106:15112   */\n      dup2\n        /* \"#utility.yul\":15103:15133   */\n      gt\n        /* \"#utility.yul\":15100:15217   */\n      iszero\n      tag_550\n      jumpi\n        /* \"#utility.yul\":15136:15215   */\n      tag_551\n      tag_338\n      jump\t// in\n    tag_551:\n        /* \"#utility.yul\":15100:15217   */\n    tag_550:\n        /* \"#utility.yul\":15241:15304   */\n      tag_552\n        /* \"#utility.yul\":15296:15303   */\n      dup8\n        /* \"#utility.yul\":15287:15293   */\n      dup3\n        /* \"#utility.yul\":15276:15285   */\n      dup9\n        /* \"#utility.yul\":15272:15294   */\n      add\n        /* \"#utility.yul\":15241:15304   */\n      tag_378\n      jump\t// in\n    tag_552:\n        /* \"#utility.yul\":15231:15304   */\n      swap4\n      pop\n        /* \"#utility.yul\":15026:15314   */\n      pop\n        /* \"#utility.yul\":15381:15383   */\n      0x40\n        /* \"#utility.yul\":15370:15379   */\n      dup6\n        /* \"#utility.yul\":15366:15384   */\n      add\n        /* \"#utility.yul\":15353:15385   */\n      calldataload\n        /* \"#utility.yul\":15412:15430   */\n      0xffffffffffffffff\n        /* \"#utility.yul\":15404:15410   */\n      dup2\n        /* \"#utility.yul\":15401:15431   */\n      gt\n        /* \"#utility.yul\":15398:15515   */\n      iszero\n      tag_553\n      jumpi\n        /* \"#utility.yul\":15434:15513   */\n      tag_554\n      tag_338\n      jump\t// in\n    tag_554:\n        /* \"#utility.yul\":15398:15515   */\n    tag_553:\n        /* \"#utility.yul\":15539:15602   */\n      tag_555\n        /* \"#utility.yul\":15594:15601   */\n      dup8\n        /* \"#utility.yul\":15585:15591   */\n      dup3\n        /* \"#utility.yul\":15574:15583   */\n      dup9\n        /* \"#utility.yul\":15570:15592   */\n      add\n        /* \"#utility.yul\":15539:15602   */\n      tag_378\n      jump\t// in\n    tag_555:\n        /* \"#utility.yul\":15529:15602   */\n      swap3\n      pop\n        /* \"#utility.yul\":15324:15612   */\n      pop\n        /* \"#utility.yul\":15651:15653   */\n      0x60\n        /* \"#utility.yul\":15677:15730   */\n      tag_556\n        /* \"#utility.yul\":15722:15729   */\n      dup8\n        /* \"#utility.yul\":15713:15719   */\n      dup3\n        /* \"#utility.yul\":15702:15711   */\n      dup9\n        /* \"#utility.yul\":15698:15720   */\n      add\n        /* \"#utility.yul\":15677:15730   */\n      tag_341\n      jump\t// in\n    tag_556:\n        /* \"#utility.yul\":15667:15730   */\n      swap2\n      pop\n        /* \"#utility.yul\":15622:15740   */\n      pop\n        /* \"#utility.yul\":14442:15747   */\n      swap3\n      swap6\n      swap2\n      swap5\n      pop\n      swap3\n      pop\n      jump\t// out\n        /* \"#utility.yul\":15753:16227   */\n    tag_46:\n        /* \"#utility.yul\":15821:15827   */\n      0x00\n        /* \"#utility.yul\":15829:15835   */\n      dup1\n        /* \"#utility.yul\":15878:15880   */\n      0x40\n        /* \"#utility.yul\":15866:15875   */\n      dup4\n        /* \"#utility.yul\":15857:15864   */\n      dup6\n        /* \"#utility.yul\":15853:15876   */\n      sub\n        /* \"#utility.yul\":15849:15881   */\n      slt\n        /* \"#utility.yul\":15846:15965   */\n      iszero\n      tag_558\n      jumpi\n        /* \"#utility.yul\":15884:15963   */\n      tag_559\n      tag_337\n      jump\t// in\n    tag_559:\n        /* \"#utility.yul\":15846:15965   */\n    tag_558:\n        /* \"#utility.yul\":16004:16005   */\n      0x00\n        /* \"#utility.yul\":16029:16082   */\n      tag_560\n        /* \"#utility.yul\":16074:16081   */\n      dup6\n        /* \"#utility.yul\":16065:16071   */\n      dup3\n        /* \"#utility.yul\":16054:16063   */\n      dup7\n        /* \"#utility.yul\":16050:16072   */\n      add\n        /* \"#utility.yul\":16029:16082   */\n      tag_341\n      jump\t// in\n    tag_560:\n        /* \"#utility.yul\":16019:16082   */\n      swap3\n      pop\n        /* \"#utility.yul\":15975:16092   */\n      pop\n        /* \"#utility.yul\":16131:16133   */\n      0x20\n        /* \"#utility.yul\":16157:16210   */\n      tag_561\n        /* \"#utility.yul\":16202:16209   */\n      dup6\n        /* \"#utility.yul\":16193:16199   */\n      dup3\n        /* \"#utility.yul\":16182:16191   */\n      dup7\n        /* \"#utility.yul\":16178:16200   */\n      add\n        /* \"#utility.yul\":16157:16210   */\n      tag_352\n      jump\t// in\n    tag_561:\n        /* \"#utility.yul\":16147:16210   */\n      swap2\n      pop\n        /* \"#utility.yul\":16102:16220   */\n      pop\n        /* \"#utility.yul\":15753:16227   */\n      swap3\n      pop\n      swap3\n      swap1\n      pop\n      jump\t// out\n        /* \"#utility.yul\":16233:16323   */\n    tag_379:\n        /* \"#utility.yul\":16267:16274   */\n      0x00\n        /* \"#utility.yul\":16310:16315   */\n      dup2\n        /* \"#utility.yul\":16303:16316   */\n      iszero\n        /* \"#utility.yul\":16296:16317   */\n      iszero\n        /* \"#utility.yul\":16285:16317   */\n      swap1\n      pop\n        /* \"#utility.yul\":16233:16323   */\n      swap2\n      swap1\n      pop\n      jump\t// out\n        /* \"#utility.yul\":16329:16438   */\n    tag_380:\n        /* \"#utility.yul\":16410:16431   */\n      tag_564\n        /* \"#utility.yul\":16425:16430   */\n      dup2\n        /* \"#utility.yul\":16410:16431   */\n      tag_379\n      jump\t// in\n    tag_564:\n        /* \"#utility.yul\":16405:16408   */\n      dup3\n        /* \"#utility.yul\":16398:16432   */\n      mstore\n        /* \"#utility.yul\":16329:16438   */\n      pop\n      pop\n      jump\t// out\n        /* \"#utility.yul\":16444:16654   */\n    tag_49:\n        /* \"#utility.yul\":16531:16535   */\n      0x00\n        /* \"#utility.yul\":16569:16571   */\n      0x20\n        /* \"#utility.yul\":16558:16567   */\n      dup3\n        /* \"#utility.yul\":16554:16572   */\n      add\n        /* \"#utility.yul\":16546:16572   */\n      swap1\n      pop\n        /* \"#utility.yul\":16582:16647   */\n      tag_566\n        /* \"#utility.yul\":16644:16645   */\n      0x00\n        /* \"#utility.yul\":16633:16642   */\n      dup4\n        /* \"#utility.yul\":16629:16646   */\n      add\n        /* \"#utility.yul\":16620:16626   */\n      dup5\n        /* \"#utility.yul\":16582:16647   */\n      tag_380\n      jump\t// in\n    tag_566:\n        /* \"#utility.yul\":16444:16654   */\n      swap3\n      swap2\n      pop\n      pop\n      jump\t// out\n        /* \"#utility.yul\":16660:16882   */\n    tag_55:\n        /* \"#utility.yul\":16753:16757   */\n      0x00\n        /* \"#utility.yul\":16791:16793   */\n      0x20\n        /* \"#utility.yul\":16780:16789   */\n      dup3\n        /* \"#utility.yul\":16776:16794   */\n      add\n        /* \"#utility.yul\":16768:16794   */\n      swap1\n      pop\n        /* \"#utility.yul\":16804:16875   */\n      tag_568\n        /* \"#utility.yul\":16872:16873   */\n      0x00\n        /* \"#utility.yul\":16861:16870   */\n      dup4\n        /* \"#utility.yul\":16857:16874   */\n      add\n        /* \"#utility.yul\":16848:16854   */\n      dup5\n        /* \"#utility.yul\":16804:16875   */\n      tag_350\n      jump\t// in\n    tag_568:\n        /* \"#utility.yul\":16660:16882   */\n      swap3\n      swap2\n      pop\n      pop\n      jump\t// out\n        /* \"#utility.yul\":16888:17362   */\n    tag_58:\n        /* \"#utility.yul\":16956:16962   */\n      0x00\n        /* \"#utility.yul\":16964:16970   */\n      dup1\n        /* \"#utility.yul\":17013:17015   */\n      0x40\n        /* \"#utility.yul\":17001:17010   */\n      dup4\n        /* \"#utility.yul\":16992:16999   */\n      dup6\n        /* \"#utility.yul\":16988:17011   */\n      sub\n        /* \"#utility.yul\":16984:17016   */\n      slt\n        /* \"#utility.yul\":16981:17100   */\n      iszero\n      tag_570\n      jumpi\n        /* \"#utility.yul\":17019:17098   */\n      tag_571\n      tag_337\n      jump\t// in\n    tag_571:\n        /* \"#utility.yul\":16981:17100   */\n    tag_570:\n        /* \"#utility.yul\":17139:17140   */\n      0x00\n        /* \"#utility.yul\":17164:17217   */\n      tag_572\n        /* \"#utility.yul\":17209:17216   */\n      dup6\n        /* \"#utility.yul\":17200:17206   */\n      dup3\n        /* \"#utility.yul\":17189:17198   */\n      dup7\n        /* \"#utility.yul\":17185:17207   */\n      add\n        /* \"#utility.yul\":17164:17217   */\n      tag_352\n      jump\t// in\n    tag_572:\n        /* \"#utility.yul\":17154:17217   */\n      swap3\n      pop\n        /* \"#utility.yul\":17110:17227   */\n      pop\n        /* \"#utility.yul\":17266:17268   */\n      0x20\n        /* \"#utility.yul\":17292:17345   */\n      tag_573\n        /* \"#utility.yul\":17337:17344   */\n      dup6\n        /* \"#utility.yul\":17328:17334   */\n      dup3\n        /* \"#utility.yul\":17317:17326   */\n      dup7\n        /* \"#utility.yul\":17313:17335   */\n      add\n        /* \"#utility.yul\":17292:17345   */\n      tag_341\n      jump\t// in\n    tag_573:\n        /* \"#utility.yul\":17282:17345   */\n      swap2\n      pop\n        /* \"#utility.yul\":17237:17355   */\n      pop\n        /* \"#utility.yul\":16888:17362   */\n      swap3\n      pop\n      swap3\n      swap1\n      pop\n      jump\t// out\n        /* \"#utility.yul\":17424:19750   */\n    tag_381:\n        /* \"#utility.yul\":17543:17546   */\n      0x00\n        /* \"#utility.yul\":17579:17585   */\n      0x0140\n        /* \"#utility.yul\":17574:17577   */\n      dup4\n        /* \"#utility.yul\":17570:17586   */\n      add\n        /* \"#utility.yul\":17666:17670   */\n      0x00\n        /* \"#utility.yul\":17659:17664   */\n      dup4\n        /* \"#utility.yul\":17655:17671   */\n      add\n        /* \"#utility.yul\":17649:17672   */\n      mload\n        /* \"#utility.yul\":17685:17748   */\n      tag_575\n        /* \"#utility.yul\":17742:17746   */\n      0x00\n        /* \"#utility.yul\":17737:17740   */\n      dup7\n        /* \"#utility.yul\":17733:17747   */\n      add\n        /* \"#utility.yul\":17719:17731   */\n      dup3\n        /* \"#utility.yul\":17685:17748   */\n      tag_356\n      jump\t// in\n    tag_575:\n        /* \"#utility.yul\":17596:17758   */\n      pop\n        /* \"#utility.yul\":17841:17845   */\n      0x20\n        /* \"#utility.yul\":17834:17839   */\n      dup4\n        /* \"#utility.yul\":17830:17846   */\n      add\n        /* \"#utility.yul\":17824:17847   */\n      mload\n        /* \"#utility.yul\":17894:17897   */\n      dup5\n        /* \"#utility.yul\":17888:17892   */\n      dup3\n        /* \"#utility.yul\":17884:17898   */\n      sub\n        /* \"#utility.yul\":17877:17881   */\n      0x20\n        /* \"#utility.yul\":17872:17875   */\n      dup7\n        /* \"#utility.yul\":17868:17882   */\n      add\n        /* \"#utility.yul\":17861:17899   */\n      mstore\n        /* \"#utility.yul\":17920:17993   */\n      tag_576\n        /* \"#utility.yul\":17988:17992   */\n      dup3\n        /* \"#utility.yul\":17974:17986   */\n      dup3\n        /* \"#utility.yul\":17920:17993   */\n      tag_358\n      jump\t// in\n    tag_576:\n        /* \"#utility.yul\":17912:17993   */\n      swap2\n      pop\n        /* \"#utility.yul\":17768:18004   */\n      pop\n        /* \"#utility.yul\":18093:18097   */\n      0x40\n        /* \"#utility.yul\":18086:18091   */\n      dup4\n        /* \"#utility.yul\":18082:18098   */\n      add\n        /* \"#utility.yul\":18076:18099   */\n      mload\n        /* \"#utility.yul\":18146:18149   */\n      dup5\n        /* \"#utility.yul\":18140:18144   */\n      dup3\n        /* \"#utility.yul\":18136:18150   */\n      sub\n        /* \"#utility.yul\":18129:18133   */\n      0x40\n        /* \"#utility.yul\":18124:18127   */\n      dup7\n        /* \"#utility.yul\":18120:18134   */\n      add\n        /* \"#utility.yul\":18113:18151   */\n      mstore\n        /* \"#utility.yul\":18172:18245   */\n      tag_577\n        /* \"#utility.yul\":18240:18244   */\n      dup3\n        /* \"#utility.yul\":18226:18238   */\n      dup3\n        /* \"#utility.yul\":18172:18245   */\n      tag_358\n      jump\t// in\n    tag_577:\n        /* \"#utility.yul\":18164:18245   */\n      swap2\n      pop\n        /* \"#utility.yul\":18014:18256   */\n      pop\n        /* \"#utility.yul\":18339:18343   */\n      0x60\n        /* \"#utility.yul\":18332:18337   */\n      dup4\n        /* \"#utility.yul\":18328:18344   */\n      add\n        /* \"#utility.yul\":18322:18345   */\n      mload\n        /* \"#utility.yul\":18358:18421   */\n      tag_578\n        /* \"#utility.yul\":18415:18419   */\n      0x60\n        /* \"#utility.yul\":18410:18413   */\n      dup7\n        /* \"#utility.yul\":18406:18420   */\n      add\n        /* \"#utility.yul\":18392:18404   */\n      dup3\n        /* \"#utility.yul\":18358:18421   */\n      tag_356\n      jump\t// in\n    tag_578:\n        /* \"#utility.yul\":18266:18431   */\n      pop\n        /* \"#utility.yul\":18515:18519   */\n      0x80\n        /* \"#utility.yul\":18508:18513   */\n      dup4\n        /* \"#utility.yul\":18504:18520   */\n      add\n        /* \"#utility.yul\":18498:18521   */\n      mload\n        /* \"#utility.yul\":18568:18571   */\n      dup5\n        /* \"#utility.yul\":18562:18566   */\n      dup3\n        /* \"#utility.yul\":18558:18572   */\n      sub\n        /* \"#utility.yul\":18551:18555   */\n      0x80\n        /* \"#utility.yul\":18546:18549   */\n      dup7\n        /* \"#utility.yul\":18542:18556   */\n      add\n        /* \"#utility.yul\":18535:18573   */\n      mstore\n        /* \"#utility.yul\":18594:18667   */\n      tag_579\n        /* \"#utility.yul\":18662:18666   */\n      dup3\n        /* \"#utility.yul\":18648:18660   */\n      dup3\n        /* \"#utility.yul\":18594:18667   */\n      tag_358\n      jump\t// in\n    tag_579:\n        /* \"#utility.yul\":18586:18667   */\n      swap2\n      pop\n        /* \"#utility.yul\":18441:18678   */\n      pop\n        /* \"#utility.yul\":18764:18768   */\n      0xa0\n        /* \"#utility.yul\":18757:18762   */\n      dup4\n        /* \"#utility.yul\":18753:18769   */\n      add\n        /* \"#utility.yul\":18747:18770   */\n      mload\n        /* \"#utility.yul\":18783:18846   */\n      tag_580\n        /* \"#utility.yul\":18840:18844   */\n      0xa0\n        /* \"#utility.yul\":18835:18838   */\n      dup7\n        /* \"#utility.yul\":18831:18845   */\n      add\n        /* \"#utility.yul\":18817:18829   */\n      dup3\n        /* \"#utility.yul\":18783:18846   */\n      tag_356\n      jump\t// in\n    tag_580:\n        /* \"#utility.yul\":18688:18856   */\n      pop\n        /* \"#utility.yul\":18940:18944   */\n      0xc0\n        /* \"#utility.yul\":18933:18938   */\n      dup4\n        /* \"#utility.yul\":18929:18945   */\n      add\n        /* \"#utility.yul\":18923:18946   */\n      mload\n        /* \"#utility.yul\":18959:19022   */\n      tag_581\n        /* \"#utility.yul\":19016:19020   */\n      0xc0\n        /* \"#utility.yul\":19011:19014   */\n      dup7\n        /* \"#utility.yul\":19007:19021   */\n      add\n        /* \"#utility.yul\":18993:19005   */\n      dup3\n        /* \"#utility.yul\":18959:19022   */\n      tag_359\n      jump\t// in\n    tag_581:\n        /* \"#utility.yul\":18866:19032   */\n      pop\n        /* \"#utility.yul\":19124:19128   */\n      0xe0\n        /* \"#utility.yul\":19117:19122   */\n      dup4\n        /* \"#utility.yul\":19113:19129   */\n      add\n        /* \"#utility.yul\":19107:19130   */\n      mload\n        /* \"#utility.yul\":19177:19180   */\n      dup5\n        /* \"#utility.yul\":19171:19175   */\n      dup3\n        /* \"#utility.yul\":19167:19181   */\n      sub\n        /* \"#utility.yul\":19160:19164   */\n      0xe0\n        /* \"#utility.yul\":19155:19158   */\n      dup7\n        /* \"#utility.yul\":19151:19165   */\n      add\n        /* \"#utility.yul\":19144:19182   */\n      mstore\n        /* \"#utility.yul\":19203:19276   */\n      tag_582\n        /* \"#utility.yul\":19271:19275   */\n      dup3\n        /* \"#utility.yul\":19257:19269   */\n      dup3\n        /* \"#utility.yul\":19203:19276   */\n      tag_358\n      jump\t// in\n    tag_582:\n        /* \"#utility.yul\":19195:19276   */\n      swap2\n      pop\n        /* \"#utility.yul\":19042:19287   */\n      pop\n        /* \"#utility.yul\":19375:19381   */\n      0x0100\n        /* \"#utility.yul\":19368:19373   */\n      dup4\n        /* \"#utility.yul\":19364:19382   */\n      add\n        /* \"#utility.yul\":19358:19383   */\n      mload\n        /* \"#utility.yul\":19432:19435   */\n      dup5\n        /* \"#utility.yul\":19426:19430   */\n      dup3\n        /* \"#utility.yul\":19422:19436   */\n      sub\n        /* \"#utility.yul\":19413:19419   */\n      0x0100\n        /* \"#utility.yul\":19408:19411   */\n      dup7\n        /* \"#utility.yul\":19404:19420   */\n      add\n        /* \"#utility.yul\":19397:19437   */\n      mstore\n        /* \"#utility.yul\":19458:19531   */\n      tag_583\n        /* \"#utility.yul\":19526:19530   */\n      dup3\n        /* \"#utility.yul\":19512:19524   */\n      dup3\n        /* \"#utility.yul\":19458:19531   */\n      tag_358\n      jump\t// in\n    tag_583:\n        /* \"#utility.yul\":19450:19531   */\n      swap2\n      pop\n        /* \"#utility.yul\":19297:19542   */\n      pop\n        /* \"#utility.yul\":19627:19633   */\n      0x0120\n        /* \"#utility.yul\":19620:19625   */\n      dup4\n        /* \"#utility.yul\":19616:19634   */\n      add\n        /* \"#utility.yul\":19610:19635   */\n      mload\n        /* \"#utility.yul\":19648:19713   */\n      tag_584\n        /* \"#utility.yul\":19705:19711   */\n      0x0120\n        /* \"#utility.yul\":19700:19703   */\n      dup7\n        /* \"#utility.yul\":19696:19712   */\n      add\n        /* \"#utility.yul\":19682:19694   */\n      dup3\n        /* \"#utility.yul\":19648:19713   */\n      tag_356\n      jump\t// in\n    tag_584:\n        /* \"#utility.yul\":19552:19723   */\n      pop\n        /* \"#utility.yul\":19740:19744   */\n      dup1\n        /* \"#utility.yul\":19733:19744   */\n      swap2\n      pop\n        /* \"#utility.yul\":17548:19750   */\n      pop\n        /* \"#utility.yul\":17424:19750   */\n      swap3\n      swap2\n      pop\n      pop\n      jump\t// out\n        /* \"#utility.yul\":19756:20129   */\n    tag_69:\n        /* \"#utility.yul\":19899:19903   */\n      0x00\n        /* \"#utility.yul\":19937:19939   */\n      0x20\n        /* \"#utility.yul\":19926:19935   */\n      dup3\n        /* \"#utility.yul\":19922:19940   */\n      add\n        /* \"#utility.yul\":19914:19940   */\n      swap1\n      pop\n        /* \"#utility.yul\":19986:19995   */\n      dup2\n        /* \"#utility.yul\":19980:19984   */\n      dup2\n        /* \"#utility.yul\":19976:19996   */\n      sub\n        /* \"#utility.yul\":19972:19973   */\n      0x00\n        /* \"#utility.yul\":19961:19970   */\n      dup4\n        /* \"#utility.yul\":19957:19974   */\n      add\n        /* \"#utility.yul\":19950:19997   */\n      mstore\n        /* \"#utility.yul\":20014:20122   */\n      tag_586\n        /* \"#utility.yul\":20117:20121   */\n      dup2\n        /* \"#utility.yul\":20108:20114   */\n      dup5\n        /* \"#utility.yul\":20014:20122   */\n      tag_381\n      jump\t// in\n    tag_586:\n        /* \"#utility.yul\":20006:20122   */\n      swap1\n      pop\n        /* \"#utility.yul\":19756:20129   */\n      swap3\n      swap2\n      pop\n      pop\n      jump\t// out\n        /* \"#utility.yul\":20135:20609   */\n    tag_72:\n        /* \"#utility.yul\":20203:20209   */\n      0x00\n        /* \"#utility.yul\":20211:20217   */\n      dup1\n        /* \"#utility.yul\":20260:20262   */\n      0x40\n        /* \"#utility.yul\":20248:20257   */\n      dup4\n        /* \"#utility.yul\":20239:20246   */\n      dup6\n        /* \"#utility.yul\":20235:20258   */\n      sub\n        /* \"#utility.yul\":20231:20263   */\n      slt\n        /* \"#utility.yul\":20228:20347   */\n      iszero\n      tag_588\n      jumpi\n        /* \"#utility.yul\":20266:20345   */\n      tag_589\n      tag_337\n      jump\t// in\n    tag_589:\n        /* \"#utility.yul\":20228:20347   */\n    tag_588:\n        /* \"#utility.yul\":20386:20387   */\n      0x00\n        /* \"#utility.yul\":20411:20464   */\n      tag_590\n        /* \"#utility.yul\":20456:20463   */\n      dup6\n        /* \"#utility.yul\":20447:20453   */\n      dup3\n        /* \"#utility.yul\":20436:20445   */\n      dup7\n        /* \"#utility.yul\":20432:20454   */\n      add\n        /* \"#utility.yul\":20411:20464   */\n      tag_341\n      jump\t// in\n    tag_590:\n        /* \"#utility.yul\":20401:20464   */\n      swap3\n      pop\n        /* \"#utility.yul\":20357:20474   */\n      pop\n        /* \"#utility.yul\":20513:20515   */\n      0x20\n        /* \"#utility.yul\":20539:20592   */\n      tag_591\n        /* \"#utility.yul\":20584:20591   */\n      dup6\n        /* \"#utility.yul\":20575:20581   */\n      dup3\n        /* \"#utility.yul\":20564:20573   */\n      dup7\n        /* \"#utility.yul\":20560:20582   */\n      add\n        /* \"#utility.yul\":20539:20592   */\n      tag_341\n      jump\t// in\n    tag_591:\n        /* \"#utility.yul\":20529:20592   */\n      swap2\n      pop\n        /* \"#utility.yul\":20484:20602   */\n      pop\n        /* \"#utility.yul\":20135:20609   */\n      swap3\n      pop\n      swap3\n      swap1\n      pop\n      jump\t// out\n        /* \"#utility.yul\":20615:20795   */\n    tag_382:\n        /* \"#utility.yul\":20663:20740   */\n      0x4e487b7100000000000000000000000000000000000000000000000000000000\n        /* \"#utility.yul\":20660:20661   */\n      0x00\n        /* \"#utility.yul\":20653:20741   */\n      mstore\n        /* \"#utility.yul\":20760:20764   */\n      0x22\n        /* \"#utility.yul\":20757:20758   */\n      0x04\n        /* \"#utility.yul\":20750:20765   */\n      mstore\n        /* \"#utility.yul\":20784:20788   */\n      0x24\n        /* \"#utility.yul\":20781:20782   */\n      0x00\n        /* \"#utility.yul\":20774:20789   */\n      revert\n        /* \"#utility.yul\":20801:21121   */\n    tag_82:\n        /* \"#utility.yul\":20845:20851   */\n      0x00\n        /* \"#utility.yul\":20882:20883   */\n      0x02\n        /* \"#utility.yul\":20876:20880   */\n      dup3\n        /* \"#utility.yul\":20872:20884   */\n      div\n        /* \"#utility.yul\":20862:20884   */\n      swap1\n      pop\n        /* \"#utility.yul\":20929:20930   */\n      0x01\n        /* \"#utility.yul\":20923:20927   */\n      dup3\n        /* \"#utility.yul\":20919:20931   */\n      and\n        /* \"#utility.yul\":20950:20968   */\n      dup1\n        /* \"#utility.yul\":20940:21021   */\n      tag_594\n      jumpi\n        /* \"#utility.yul\":21006:21010   */\n      0x7f\n        /* \"#utility.yul\":20998:21004   */\n      dup3\n        /* \"#utility.yul\":20994:21011   */\n      and\n        /* \"#utility.yul\":20984:21011   */\n      swap2\n      pop\n        /* \"#utility.yul\":20940:21021   */\n    tag_594:\n        /* \"#utility.yul\":21068:21070   */\n      0x20\n        /* \"#utility.yul\":21060:21066   */\n      dup3\n        /* \"#utility.yul\":21057:21071   */\n      lt\n        /* \"#utility.yul\":21037:21055   */\n      dup2\n        /* \"#utility.yul\":21034:21072   */\n      sub\n        /* \"#utility.yul\":21031:21115   */\n      tag_595\n      jumpi\n        /* \"#utility.yul\":21087:21105   */\n      tag_596\n      tag_382\n      jump\t// in\n    tag_596:\n        /* \"#utility.yul\":21031:21115   */\n    tag_595:\n        /* \"#utility.yul\":20852:21121   */\n      pop\n        /* \"#utility.yul\":20801:21121   */\n      swap2\n      swap1\n      pop\n      jump\t// out\n        /* \"#utility.yul\":21127:21244   */\n    tag_383:\n        /* \"#utility.yul\":21236:21237   */\n      0x00\n        /* \"#utility.yul\":21233:21234   */\n      dup1\n        /* \"#utility.yul\":21226:21238   */\n      revert\n        /* \"#utility.yul\":21250:21367   */\n    tag_384:\n        /* \"#utility.yul\":21359:21360   */\n      0x00\n        /* \"#utility.yul\":21356:21357   */\n      dup1\n        /* \"#utility.yul\":21349:21361   */\n      revert\n        /* \"#utility.yul\":21373:21807   */\n    tag_385:\n        /* \"#utility.yul\":21462:21467   */\n      0x00\n        /* \"#utility.yul\":21487:21553   */\n      tag_600\n        /* \"#utility.yul\":21503:21552   */\n      tag_601\n        /* \"#utility.yul\":21545:21551   */\n      dup5\n        /* \"#utility.yul\":21503:21552   */\n      tag_375\n      jump\t// in\n    tag_601:\n        /* \"#utility.yul\":21487:21553   */\n      tag_374\n      jump\t// in\n    tag_600:\n        /* \"#utility.yul\":21478:21553   */\n      swap1\n      pop\n        /* \"#utility.yul\":21576:21582   */\n      dup3\n        /* \"#utility.yul\":21569:21574   */\n      dup2\n        /* \"#utility.yul\":21562:21583   */\n      mstore\n        /* \"#utility.yul\":21614:21618   */\n      0x20\n        /* \"#utility.yul\":21607:21612   */\n      dup2\n        /* \"#utility.yul\":21603:21619   */\n      add\n        /* \"#utility.yul\":21652:21655   */\n      dup5\n        /* \"#utility.yul\":21643:21649   */\n      dup5\n        /* \"#utility.yul\":21638:21641   */\n      dup5\n        /* \"#utility.yul\":21634:21650   */\n      add\n        /* \"#utility.yul\":21631:21656   */\n      gt\n        /* \"#utility.yul\":21628:21740   */\n      iszero\n      tag_602\n      jumpi\n        /* \"#utility.yul\":21659:21738   */\n      tag_603\n      tag_371\n      jump\t// in\n    tag_603:\n        /* \"#utility.yul\":21628:21740   */\n    tag_602:\n        /* \"#utility.yul\":21749:21801   */\n      tag_604\n        /* \"#utility.yul\":21794:21800   */\n      dup5\n        /* \"#utility.yul\":21789:21792   */\n      dup3\n        /* \"#utility.yul\":21784:21787   */\n      dup6\n        /* \"#utility.yul\":21749:21801   */\n      tag_345\n      jump\t// in\n    tag_604:\n        /* \"#utility.yul\":21468:21807   */\n      pop\n        /* \"#utility.yul\":21373:21807   */\n      swap4\n      swap3\n      pop\n      pop\n      pop\n      jump\t// out\n        /* \"#utility.yul\":21827:22182   */\n    tag_386:\n        /* \"#utility.yul\":21894:21899   */\n      0x00\n        /* \"#utility.yul\":21943:21946   */\n      dup3\n        /* \"#utility.yul\":21936:21940   */\n      0x1f\n        /* \"#utility.yul\":21928:21934   */\n      dup4\n        /* \"#utility.yul\":21924:21941   */\n      add\n        /* \"#utility.yul\":21920:21947   */\n      slt\n        /* \"#utility.yul\":21910:22032   */\n      tag_606\n      jumpi\n        /* \"#utility.yul\":21951:22030   */\n      tag_607\n      tag_370\n      jump\t// in\n    tag_607:\n        /* \"#utility.yul\":21910:22032   */\n    tag_606:\n        /* \"#utility.yul\":22061:22067   */\n      dup2\n        /* \"#utility.yul\":22055:22068   */\n      mload\n        /* \"#utility.yul\":22086:22176   */\n      tag_608\n        /* \"#utility.yul\":22172:22175   */\n      dup5\n        /* \"#utility.yul\":22164:22170   */\n      dup3\n        /* \"#utility.yul\":22157:22161   */\n      0x20\n        /* \"#utility.yul\":22149:22155   */\n      dup7\n        /* \"#utility.yul\":22145:22162   */\n      add\n        /* \"#utility.yul\":22086:22176   */\n      tag_385\n      jump\t// in\n    tag_608:\n        /* \"#utility.yul\":22077:22176   */\n      swap2\n      pop\n        /* \"#utility.yul\":21900:22182   */\n      pop\n        /* \"#utility.yul\":21827:22182   */\n      swap3\n      swap2\n      pop\n      pop\n      jump\t// out\n        /* \"#utility.yul\":22188:22304   */\n    tag_387:\n        /* \"#utility.yul\":22258:22279   */\n      tag_610\n        /* \"#utility.yul\":22273:22278   */\n      dup2\n        /* \"#utility.yul\":22258:22279   */\n      tag_379\n      jump\t// in\n    tag_610:\n        /* \"#utility.yul\":22251:22256   */\n      dup2\n        /* \"#utility.yul\":22248:22280   */\n      eq\n        /* \"#utility.yul\":22238:22298   */\n      tag_611\n      jumpi\n        /* \"#utility.yul\":22294:22295   */\n      0x00\n        /* \"#utility.yul\":22291:22292   */\n      dup1\n        /* \"#utility.yul\":22284:22296   */\n      revert\n        /* \"#utility.yul\":22238:22298   */\n    tag_611:\n        /* \"#utility.yul\":22188:22304   */\n      pop\n      jump\t// out\n        /* \"#utility.yul\":22310:22447   */\n    tag_388:\n        /* \"#utility.yul\":22364:22369   */\n      0x00\n        /* \"#utility.yul\":22395:22401   */\n      dup2\n        /* \"#utility.yul\":22389:22402   */\n      mload\n        /* \"#utility.yul\":22380:22402   */\n      swap1\n      pop\n        /* \"#utility.yul\":22411:22441   */\n      tag_613\n        /* \"#utility.yul\":22435:22440   */\n      dup2\n        /* \"#utility.yul\":22411:22441   */\n      tag_387\n      jump\t// in\n    tag_613:\n        /* \"#utility.yul\":22310:22447   */\n      swap3\n      swap2\n      pop\n      pop\n      jump\t// out\n        /* \"#utility.yul\":22484:23937   */\n    tag_389:\n        /* \"#utility.yul\":22568:22573   */\n      0x00\n        /* \"#utility.yul\":22612:22616   */\n      0x80\n        /* \"#utility.yul\":22600:22609   */\n      dup3\n        /* \"#utility.yul\":22595:22598   */\n      dup5\n        /* \"#utility.yul\":22591:22610   */\n      sub\n        /* \"#utility.yul\":22587:22617   */\n      slt\n        /* \"#utility.yul\":22584:22701   */\n      iszero\n      tag_615\n      jumpi\n        /* \"#utility.yul\":22620:22699   */\n      tag_616\n      tag_383\n      jump\t// in\n    tag_616:\n        /* \"#utility.yul\":22584:22701   */\n    tag_615:\n        /* \"#utility.yul\":22719:22740   */\n      tag_617\n        /* \"#utility.yul\":22735:22739   */\n      0x80\n        /* \"#utility.yul\":22719:22740   */\n      tag_374\n      jump\t// in\n    tag_617:\n        /* \"#utility.yul\":22710:22740   */\n      swap1\n      pop\n        /* \"#utility.yul\":22824:22825   */\n      0x00\n        /* \"#utility.yul\":22813:22822   */\n      dup3\n        /* \"#utility.yul\":22809:22826   */\n      add\n        /* \"#utility.yul\":22803:22827   */\n      mload\n        /* \"#utility.yul\":22854:22872   */\n      0xffffffffffffffff\n        /* \"#utility.yul\":22846:22852   */\n      dup2\n        /* \"#utility.yul\":22843:22873   */\n      gt\n        /* \"#utility.yul\":22840:22957   */\n      iszero\n      tag_618\n      jumpi\n        /* \"#utility.yul\":22876:22955   */\n      tag_619\n      tag_384\n      jump\t// in\n    tag_619:\n        /* \"#utility.yul\":22840:22957   */\n    tag_618:\n        /* \"#utility.yul\":22996:23066   */\n      tag_620\n        /* \"#utility.yul\":23062:23065   */\n      dup5\n        /* \"#utility.yul\":23053:23059   */\n      dup3\n        /* \"#utility.yul\":23042:23051   */\n      dup6\n        /* \"#utility.yul\":23038:23060   */\n      add\n        /* \"#utility.yul\":22996:23066   */\n      tag_386\n      jump\t// in\n    tag_620:\n        /* \"#utility.yul\":22989:22993   */\n      0x00\n        /* \"#utility.yul\":22982:22987   */\n      dup4\n        /* \"#utility.yul\":22978:22994   */\n      add\n        /* \"#utility.yul\":22971:23067   */\n      mstore\n        /* \"#utility.yul\":22750:23078   */\n      pop\n        /* \"#utility.yul\":23157:23159   */\n      0x20\n        /* \"#utility.yul\":23146:23155   */\n      dup3\n        /* \"#utility.yul\":23142:23160   */\n      add\n        /* \"#utility.yul\":23136:23161   */\n      mload\n        /* \"#utility.yul\":23188:23206   */\n      0xffffffffffffffff\n        /* \"#utility.yul\":23180:23186   */\n      dup2\n        /* \"#utility.yul\":23177:23207   */\n      gt\n        /* \"#utility.yul\":23174:23291   */\n      iszero\n      tag_621\n      jumpi\n        /* \"#utility.yul\":23210:23289   */\n      tag_622\n      tag_384\n      jump\t// in\n    tag_622:\n        /* \"#utility.yul\":23174:23291   */\n    tag_621:\n        /* \"#utility.yul\":23330:23400   */\n      tag_623\n        /* \"#utility.yul\":23396:23399   */\n      dup5\n        /* \"#utility.yul\":23387:23393   */\n      dup3\n        /* \"#utility.yul\":23376:23385   */\n      dup6\n        /* \"#utility.yul\":23372:23394   */\n      add\n        /* \"#utility.yul\":23330:23400   */\n      tag_386\n      jump\t// in\n    tag_623:\n        /* \"#utility.yul\":23323:23327   */\n      0x20\n        /* \"#utility.yul\":23316:23321   */\n      dup4\n        /* \"#utility.yul\":23312:23328   */\n      add\n        /* \"#utility.yul\":23305:23401   */\n      mstore\n        /* \"#utility.yul\":23088:23412   */\n      pop\n        /* \"#utility.yul\":23498:23500   */\n      0x40\n        /* \"#utility.yul\":23487:23496   */\n      dup3\n        /* \"#utility.yul\":23483:23501   */\n      add\n        /* \"#utility.yul\":23477:23502   */\n      mload\n        /* \"#utility.yul\":23529:23547   */\n      0xffffffffffffffff\n        /* \"#utility.yul\":23521:23527   */\n      dup2\n        /* \"#utility.yul\":23518:23548   */\n      gt\n        /* \"#utility.yul\":23515:23632   */\n      iszero\n      tag_624\n      jumpi\n        /* \"#utility.yul\":23551:23630   */\n      tag_625\n      tag_384\n      jump\t// in\n    tag_625:\n        /* \"#utility.yul\":23515:23632   */\n    tag_624:\n        /* \"#utility.yul\":23671:23741   */\n      tag_626\n        /* \"#utility.yul\":23737:23740   */\n      dup5\n        /* \"#utility.yul\":23728:23734   */\n      dup3\n        /* \"#utility.yul\":23717:23726   */\n      dup6\n        /* \"#utility.yul\":23713:23735   */\n      add\n        /* \"#utility.yul\":23671:23741   */\n      tag_386\n      jump\t// in\n    tag_626:\n        /* \"#utility.yul\":23664:23668   */\n      0x40\n        /* \"#utility.yul\":23657:23662   */\n      dup4\n        /* \"#utility.yul\":23653:23669   */\n      add\n        /* \"#utility.yul\":23646:23742   */\n      mstore\n        /* \"#utility.yul\":23422:23753   */\n      pop\n        /* \"#utility.yul\":23820:23822   */\n      0x60\n        /* \"#utility.yul\":23861:23918   */\n      tag_627\n        /* \"#utility.yul\":23914:23917   */\n      dup5\n        /* \"#utility.yul\":23905:23911   */\n      dup3\n        /* \"#utility.yul\":23894:23903   */\n      dup6\n        /* \"#utility.yul\":23890:23912   */\n      add\n        /* \"#utility.yul\":23861:23918   */\n      tag_388\n      jump\t// in\n    tag_627:\n        /* \"#utility.yul\":23854:23858   */\n      0x60\n        /* \"#utility.yul\":23847:23852   */\n      dup4\n        /* \"#utility.yul\":23843:23859   */\n      add\n        /* \"#utility.yul\":23836:23919   */\n      mstore\n        /* \"#utility.yul\":23763:23930   */\n      pop\n        /* \"#utility.yul\":22484:23937   */\n      swap3\n      swap2\n      pop\n      pop\n      jump\t// out\n        /* \"#utility.yul\":23943:24495   */\n    tag_112:\n        /* \"#utility.yul\":24037:24043   */\n      0x00\n        /* \"#utility.yul\":24086:24088   */\n      0x20\n        /* \"#utility.yul\":24074:24083   */\n      dup3\n        /* \"#utility.yul\":24065:24072   */\n      dup5\n        /* \"#utility.yul\":24061:24084   */\n      sub\n        /* \"#utility.yul\":24057:24089   */\n      slt\n        /* \"#utility.yul\":24054:24173   */\n      iszero\n      tag_629\n      jumpi\n        /* \"#utility.yul\":24092:24171   */\n      tag_630\n      tag_337\n      jump\t// in\n    tag_630:\n        /* \"#utility.yul\":24054:24173   */\n    tag_629:\n        /* \"#utility.yul\":24233:24234   */\n      0x00\n        /* \"#utility.yul\":24222:24231   */\n      dup3\n        /* \"#utility.yul\":24218:24235   */\n      add\n        /* \"#utility.yul\":24212:24236   */\n      mload\n        /* \"#utility.yul\":24263:24281   */\n      0xffffffffffffffff\n        /* \"#utility.yul\":24255:24261   */\n      dup2\n        /* \"#utility.yul\":24252:24282   */\n      gt\n        /* \"#utility.yul\":24249:24366   */\n      iszero\n      tag_631\n      jumpi\n        /* \"#utility.yul\":24285:24364   */\n      tag_632\n      tag_338\n      jump\t// in\n    tag_632:\n        /* \"#utility.yul\":24249:24366   */\n    tag_631:\n        /* \"#utility.yul\":24390:24478   */\n      tag_633\n        /* \"#utility.yul\":24470:24477   */\n      dup5\n        /* \"#utility.yul\":24461:24467   */\n      dup3\n        /* \"#utility.yul\":24450:24459   */\n      dup6\n        /* \"#utility.yul\":24446:24468   */\n      add\n        /* \"#utility.yul\":24390:24478   */\n      tag_389\n      jump\t// in\n    tag_633:\n        /* \"#utility.yul\":24380:24478   */\n      swap2\n      pop\n        /* \"#utility.yul\":24183:24488   */\n      pop\n        /* \"#utility.yul\":23943:24495   */\n      swap3\n      swap2\n      pop\n      pop\n      jump\t// out\n        /* \"#utility.yul\":24501:24672   */\n    tag_390:\n        /* \"#utility.yul\":24641:24664   */\n      0x596f75206861766520746f205265676973746572640000000000000000000000\n        /* \"#utility.yul\":24637:24638   */\n      0x00\n        /* \"#utility.yul\":24629:24635   */\n      dup3\n        /* \"#utility.yul\":24625:24639   */\n      add\n        /* \"#utility.yul\":24618:24665   */\n      mstore\n        /* \"#utility.yul\":24501:24672   */\n      pop\n      jump\t// out\n        /* \"#utility.yul\":24678:25044   */\n    tag_391:\n        /* \"#utility.yul\":24820:24823   */\n      0x00\n        /* \"#utility.yul\":24841:24908   */\n      tag_636\n        /* \"#utility.yul\":24905:24907   */\n      0x15\n        /* \"#utility.yul\":24900:24903   */\n      dup4\n        /* \"#utility.yul\":24841:24908   */\n      tag_344\n      jump\t// in\n    tag_636:\n        /* \"#utility.yul\":24834:24908   */\n      swap2\n      pop\n        /* \"#utility.yul\":24917:25010   */\n      tag_637\n        /* \"#utility.yul\":25006:25009   */\n      dup3\n        /* \"#utility.yul\":24917:25010   */\n      tag_390\n      jump\t// in\n    tag_637:\n        /* \"#utility.yul\":25035:25037   */\n      0x20\n        /* \"#utility.yul\":25030:25033   */\n      dup3\n        /* \"#utility.yul\":25026:25038   */\n      add\n        /* \"#utility.yul\":25019:25038   */\n      swap1\n      pop\n        /* \"#utility.yul\":24678:25044   */\n      swap2\n      swap1\n      pop\n      jump\t// out\n        /* \"#utility.yul\":25050:25469   */\n    tag_115:\n        /* \"#utility.yul\":25216:25220   */\n      0x00\n        /* \"#utility.yul\":25254:25256   */\n      0x20\n        /* \"#utility.yul\":25243:25252   */\n      dup3\n        /* \"#utility.yul\":25239:25257   */\n      add\n        /* \"#utility.yul\":25231:25257   */\n      swap1\n      pop\n        /* \"#utility.yul\":25303:25312   */\n      dup2\n        /* \"#utility.yul\":25297:25301   */\n      dup2\n        /* \"#utility.yul\":25293:25313   */\n      sub\n        /* \"#utility.yul\":25289:25290   */\n      0x00\n        /* \"#utility.yul\":25278:25287   */\n      dup4\n        /* \"#utility.yul\":25274:25291   */\n      add\n        /* \"#utility.yul\":25267:25314   */\n      mstore\n        /* \"#utility.yul\":25331:25462   */\n      tag_639\n        /* \"#utility.yul\":25457:25461   */\n      dup2\n        /* \"#utility.yul\":25331:25462   */\n      tag_391\n      jump\t// in\n    tag_639:\n        /* \"#utility.yul\":25323:25462   */\n      swap1\n      pop\n        /* \"#utility.yul\":25050:25469   */\n      swap2\n      swap1\n      pop\n      jump\t// out\n        /* \"#utility.yul\":25475:25647   */\n    tag_392:\n        /* \"#utility.yul\":25615:25639   */\n      0x596f752061726520616c726561647920566f7465642100000000000000000000\n        /* \"#utility.yul\":25611:25612   */\n      0x00\n        /* \"#utility.yul\":25603:25609   */\n      dup3\n        /* \"#utility.yul\":25599:25613   */\n      add\n        /* \"#utility.yul\":25592:25640   */\n      mstore\n        /* \"#utility.yul\":25475:25647   */\n      pop\n      jump\t// out\n        /* \"#utility.yul\":25653:26019   */\n    tag_393:\n        /* \"#utility.yul\":25795:25798   */\n      0x00\n        /* \"#utility.yul\":25816:25883   */\n      tag_642\n        /* \"#utility.yul\":25880:25882   */\n      0x16\n        /* \"#utility.yul\":25875:25878   */\n      dup4\n        /* \"#utility.yul\":25816:25883   */\n      tag_344\n      jump\t// in\n    tag_642:\n        /* \"#utility.yul\":25809:25883   */\n      swap2\n      pop\n        /* \"#utility.yul\":25892:25985   */\n      tag_643\n        /* \"#utility.yul\":25981:25984   */\n      dup3\n        /* \"#utility.yul\":25892:25985   */\n      tag_392\n      jump\t// in\n    tag_643:\n        /* \"#utility.yul\":26010:26012   */\n      0x20\n        /* \"#utility.yul\":26005:26008   */\n      dup3\n        /* \"#utility.yul\":26001:26013   */\n      add\n        /* \"#utility.yul\":25994:26013   */\n      swap1\n      pop\n        /* \"#utility.yul\":25653:26019   */\n      swap2\n      swap1\n      pop\n      jump\t// out\n        /* \"#utility.yul\":26025:26444   */\n    tag_119:\n        /* \"#utility.yul\":26191:26195   */\n      0x00\n        /* \"#utility.yul\":26229:26231   */\n      0x20\n        /* \"#utility.yul\":26218:26227   */\n      dup3\n        /* \"#utility.yul\":26214:26232   */\n      add\n        /* \"#utility.yul\":26206:26232   */\n      swap1\n      pop\n        /* \"#utility.yul\":26278:26287   */\n      dup2\n        /* \"#utility.yul\":26272:26276   */\n      dup2\n        /* \"#utility.yul\":26268:26288   */\n      sub\n        /* \"#utility.yul\":26264:26265   */\n      0x00\n        /* \"#utility.yul\":26253:26262   */\n      dup4\n        /* \"#utility.yul\":26249:26266   */\n      add\n        /* \"#utility.yul\":26242:26289   */\n      mstore\n        /* \"#utility.yul\":26306:26437   */\n      tag_645\n        /* \"#utility.yul\":26432:26436   */\n      dup2\n        /* \"#utility.yul\":26306:26437   */\n      tag_393\n      jump\t// in\n    tag_645:\n        /* \"#utility.yul\":26298:26437   */\n      swap1\n      pop\n        /* \"#utility.yul\":26025:26444   */\n      swap2\n      swap1\n      pop\n      jump\t// out\n        /* \"#utility.yul\":26450:26630   */\n    tag_394:\n        /* \"#utility.yul\":26498:26575   */\n      0x4e487b7100000000000000000000000000000000000000000000000000000000\n        /* \"#utility.yul\":26495:26496   */\n      0x00\n        /* \"#utility.yul\":26488:26576   */\n      mstore\n        /* \"#utility.yul\":26595:26599   */\n      0x11\n        /* \"#utility.yul\":26592:26593   */\n      0x04\n        /* \"#utility.yul\":26585:26600   */\n      mstore\n        /* \"#utility.yul\":26619:26623   */\n      0x24\n        /* \"#utility.yul\":26616:26617   */\n      0x00\n        /* \"#utility.yul\":26609:26624   */\n      revert\n        /* \"#utility.yul\":26636:26827   */\n    tag_122:\n        /* \"#utility.yul\":26676:26679   */\n      0x00\n        /* \"#utility.yul\":26695:26715   */\n      tag_648\n        /* \"#utility.yul\":26713:26714   */\n      dup3\n        /* \"#utility.yul\":26695:26715   */\n      tag_339\n      jump\t// in\n    tag_648:\n        /* \"#utility.yul\":26690:26715   */\n      swap2\n      pop\n        /* \"#utility.yul\":26729:26749   */\n      tag_649\n        /* \"#utility.yul\":26747:26748   */\n      dup4\n        /* \"#utility.yul\":26729:26749   */\n      tag_339\n      jump\t// in\n    tag_649:\n        /* \"#utility.yul\":26724:26749   */\n      swap3\n      pop\n        /* \"#utility.yul\":26772:26773   */\n      dup3\n        /* \"#utility.yul\":26769:26770   */\n      dup3\n        /* \"#utility.yul\":26765:26774   */\n      add\n        /* \"#utility.yul\":26758:26774   */\n      swap1\n      pop\n        /* \"#utility.yul\":26793:26796   */\n      dup1\n        /* \"#utility.yul\":26790:26791   */\n      dup3\n        /* \"#utility.yul\":26787:26797   */\n      gt\n        /* \"#utility.yul\":26784:26820   */\n      iszero\n      tag_650\n      jumpi\n        /* \"#utility.yul\":26800:26818   */\n      tag_651\n      tag_394\n      jump\t// in\n    tag_651:\n        /* \"#utility.yul\":26784:26820   */\n    tag_650:\n        /* \"#utility.yul\":26636:26827   */\n      swap3\n      swap2\n      pop\n      pop\n      jump\t// out\n        /* \"#utility.yul\":26833:27013   */\n    tag_125:\n        /* \"#utility.yul\":26881:26958   */\n      0x4e487b7100000000000000000000000000000000000000000000000000000000\n        /* \"#utility.yul\":26878:26879   */\n      0x00\n        /* \"#utility.yul\":26871:26959   */\n      mstore\n        /* \"#utility.yul\":26978:26982   */\n      0x32\n        /* \"#utility.yul\":26975:26976   */\n      0x04\n        /* \"#utility.yul\":26968:26983   */\n      mstore\n        /* \"#utility.yul\":27002:27006   */\n      0x24\n        /* \"#utility.yul\":26999:27000   */\n      0x00\n        /* \"#utility.yul\":26992:27007   */\n      revert\n        /* \"#utility.yul\":27019:27543   */\n    tag_173:\n        /* \"#utility.yul\":27099:27105   */\n      0x00\n        /* \"#utility.yul\":27148:27150   */\n      0x20\n        /* \"#utility.yul\":27136:27145   */\n      dup3\n        /* \"#utility.yul\":27127:27134   */\n      dup5\n        /* \"#utility.yul\":27123:27146   */\n      sub\n        /* \"#utility.yul\":27119:27151   */\n      slt\n        /* \"#utility.yul\":27116:27235   */\n      iszero\n      tag_654\n      jumpi\n        /* \"#utility.yul\":27154:27233   */\n      tag_655\n      tag_337\n      jump\t// in\n    tag_655:\n        /* \"#utility.yul\":27116:27235   */\n    tag_654:\n        /* \"#utility.yul\":27295:27296   */\n      0x00\n        /* \"#utility.yul\":27284:27293   */\n      dup3\n        /* \"#utility.yul\":27280:27297   */\n      add\n        /* \"#utility.yul\":27274:27298   */\n      mload\n        /* \"#utility.yul\":27325:27343   */\n      0xffffffffffffffff\n        /* \"#utility.yul\":27317:27323   */\n      dup2\n        /* \"#utility.yul\":27314:27344   */\n      gt\n        /* \"#utility.yul\":27311:27428   */\n      iszero\n      tag_656\n      jumpi\n        /* \"#utility.yul\":27347:27426   */\n      tag_657\n      tag_338\n      jump\t// in\n    tag_657:\n        /* \"#utility.yul\":27311:27428   */\n    tag_656:\n        /* \"#utility.yul\":27452:27526   */\n      tag_658\n        /* \"#utility.yul\":27518:27525   */\n      dup5\n        /* \"#utility.yul\":27509:27515   */\n      dup3\n        /* \"#utility.yul\":27498:27507   */\n      dup6\n        /* \"#utility.yul\":27494:27516   */\n      add\n        /* \"#utility.yul\":27452:27526   */\n      tag_386\n      jump\t// in\n    tag_658:\n        /* \"#utility.yul\":27442:27526   */\n      swap2\n      pop\n        /* \"#utility.yul\":27245:27536   */\n      pop\n        /* \"#utility.yul\":27019:27543   */\n      swap3\n      swap2\n      pop\n      pop\n      jump\t// out\n        /* \"#utility.yul\":27549:27690   */\n    tag_395:\n        /* \"#utility.yul\":27598:27602   */\n      0x00\n        /* \"#utility.yul\":27621:27624   */\n      dup2\n        /* \"#utility.yul\":27613:27624   */\n      swap1\n      pop\n        /* \"#utility.yul\":27644:27647   */\n      dup2\n        /* \"#utility.yul\":27641:27642   */\n      0x00\n        /* \"#utility.yul\":27634:27648   */\n      mstore\n        /* \"#utility.yul\":27678:27682   */\n      0x20\n        /* \"#utility.yul\":27675:27676   */\n      0x00\n        /* \"#utility.yul\":27665:27683   */\n      keccak256\n        /* \"#utility.yul\":27657:27683   */\n      swap1\n      pop\n        /* \"#utility.yul\":27549:27690   */\n      swap2\n      swap1\n      pop\n      jump\t// out\n        /* \"#utility.yul\":27696:27789   */\n    tag_396:\n        /* \"#utility.yul\":27733:27739   */\n      0x00\n        /* \"#utility.yul\":27780:27782   */\n      0x20\n        /* \"#utility.yul\":27775:27777   */\n      0x1f\n        /* \"#utility.yul\":27768:27773   */\n      dup4\n        /* \"#utility.yul\":27764:27778   */\n      add\n        /* \"#utility.yul\":27760:27783   */\n      div\n        /* \"#utility.yul\":27750:27783   */\n      swap1\n      pop\n        /* \"#utility.yul\":27696:27789   */\n      swap2\n      swap1\n      pop\n      jump\t// out\n        /* \"#utility.yul\":27795:27902   */\n    tag_397:\n        /* \"#utility.yul\":27839:27847   */\n      0x00\n        /* \"#utility.yul\":27889:27894   */\n      dup3\n        /* \"#utility.yul\":27883:27887   */\n      dup3\n        /* \"#utility.yul\":27879:27895   */\n      shl\n        /* \"#utility.yul\":27858:27895   */\n      swap1\n      pop\n        /* \"#utility.yul\":27795:27902   */\n      swap3\n      swap2\n      pop\n      pop\n      jump\t// out\n        /* \"#utility.yul\":27908:28301   */\n    tag_398:\n        /* \"#utility.yul\":27977:27983   */\n      0x00\n        /* \"#utility.yul\":28027:28028   */\n      0x08\n        /* \"#utility.yul\":28015:28025   */\n      dup4\n        /* \"#utility.yul\":28011:28029   */\n      mul\n        /* \"#utility.yul\":28050:28147   */\n      tag_663\n        /* \"#utility.yul\":28080:28146   */\n      0xffffffffffffffffffffffffffffffffffffffffffffffffffffffffffffffff\n        /* \"#utility.yul\":28069:28078   */\n      dup3\n        /* \"#utility.yul\":28050:28147   */\n      tag_397\n      jump\t// in\n    tag_663:\n        /* \"#utility.yul\":28168:28207   */\n      tag_664\n        /* \"#utility.yul\":28198:28206   */\n      dup7\n        /* \"#utility.yul\":28187:28196   */\n      dup4\n        /* \"#utility.yul\":28168:28207   */\n      tag_397\n      jump\t// in\n    tag_664:\n        /* \"#utility.yul\":28156:28207   */\n      swap6\n      pop\n        /* \"#utility.yul\":28240:28244   */\n      dup1\n        /* \"#utility.yul\":28236:28245   */\n      not\n        /* \"#utility.yul\":28229:28234   */\n      dup5\n        /* \"#utility.yul\":28225:28246   */\n      and\n        /* \"#utility.yul\":28216:28246   */\n      swap4\n      pop\n        /* \"#utility.yul\":28289:28293   */\n      dup1\n        /* \"#utility.yul\":28279:28287   */\n      dup7\n        /* \"#utility.yul\":28275:28294   */\n      and\n        /* \"#utility.yul\":28268:28273   */\n      dup5\n        /* \"#utility.yul\":28265:28295   */\n      or\n        /* \"#utility.yul\":28255:28295   */\n      swap3\n      pop\n        /* \"#utility.yul\":27984:28301   */\n      pop\n      pop\n        /* \"#utility.yul\":27908:28301   */\n      swap4\n      swap3\n      pop\n      pop\n      pop\n      jump\t// out\n        /* \"#utility.yul\":28307:28367   */\n    tag_399:\n        /* \"#utility.yul\":28335:28338   */\n      0x00\n        /* \"#utility.yul\":28356:28361   */\n      dup2\n        /* \"#utility.yul\":28349:28361   */\n      swap1\n      pop\n        /* \"#utility.yul\":28307:28367   */\n      swap2\n      swap1\n      pop\n      jump\t// out\n        /* \"#utility.yul\":28373:28515   */\n    tag_400:\n        /* \"#utility.yul\":28423:28432   */\n      0x00\n        /* \"#utility.yul\":28456:28509   */\n      tag_667\n        /* \"#utility.yul\":28474:28508   */\n      tag_668\n        /* \"#utility.yul\":28483:28507   */\n      tag_669\n        /* \"#utility.yul\":28501:28506   */\n      dup5\n        /* \"#utility.yul\":28483:28507   */\n      tag_339\n      jump\t// in\n    tag_669:\n        /* \"#utility.yul\":28474:28508   */\n      tag_399\n      jump\t// in\n    tag_668:\n        /* \"#utility.yul\":28456:28509   */\n      tag_339\n      jump\t// in\n    tag_667:\n        /* \"#utility.yul\":28443:28509   */\n      swap1\n      pop\n        /* \"#utility.yul\":28373:28515   */\n      swap2\n      swap1\n      pop\n      jump\t// out\n        /* \"#utility.yul\":28521:28596   */\n    tag_401:\n        /* \"#utility.yul\":28564:28567   */\n      0x00\n        /* \"#utility.yul\":28585:28590   */\n      dup2\n        /* \"#utility.yul\":28578:28590   */\n      swap1\n      pop\n        /* \"#utility.yul\":28521:28596   */\n      swap2\n      swap1\n      pop\n      jump\t// out\n        /* \"#utility.yul\":28602:28871   */\n    tag_402:\n        /* \"#utility.yul\":28712:28751   */\n      tag_672\n        /* \"#utility.yul\":28743:28750   */\n      dup4\n        /* \"#utility.yul\":28712:28751   */\n      tag_400\n      jump\t// in\n    tag_672:\n        /* \"#utility.yul\":28773:28864   */\n      tag_673\n        /* \"#utility.yul\":28822:28863   */\n      tag_674\n        /* \"#utility.yul\":28846:28862   */\n      dup3\n        /* \"#utility.yul\":28822:28863   */\n      tag_401\n      jump\t// in\n    tag_674:\n        /* \"#utility.yul\":28814:28820   */\n      dup5\n        /* \"#utility.yul\":28807:28811   */\n      dup5\n        /* \"#utility.yul\":28801:28812   */\n      sload\n        /* \"#utility.yul\":28773:28864   */\n      tag_398\n      jump\t// in\n    tag_673:\n        /* \"#utility.yul\":28767:28771   */\n      dup3\n        /* \"#utility.yul\":28760:28865   */\n      sstore\n        /* \"#utility.yul\":28678:28871   */\n      pop\n        /* \"#utility.yul\":28602:28871   */\n      pop\n      pop\n      pop\n      jump\t// out\n        /* \"#utility.yul\":28877:28950   */\n    tag_403:\n        /* \"#utility.yul\":28922:28925   */\n      0x00\n        /* \"#utility.yul\":28877:28950   */\n      swap1\n      jump\t// out\n        /* \"#utility.yul\":28956:29145   */\n    tag_404:\n        /* \"#utility.yul\":29033:29065   */\n      tag_677\n      tag_403\n      jump\t// in\n    tag_677:\n        /* \"#utility.yul\":29074:29139   */\n      tag_678\n        /* \"#utility.yul\":29132:29138   */\n      dup2\n        /* \"#utility.yul\":29124:29130   */\n      dup5\n        /* \"#utility.yul\":29118:29122   */\n      dup5\n        /* \"#utility.yul\":29074:29139   */\n      tag_402\n      jump\t// in\n    tag_678:\n        /* \"#utility.yul\":29009:29145   */\n      pop\n        /* \"#utility.yul\":28956:29145   */\n      pop\n      pop\n      jump\t// out\n        /* \"#utility.yul\":29151:29337   */\n    tag_405:\n        /* \"#utility.yul\":29211:29331   */\n    tag_680:\n        /* \"#utility.yul\":29228:29231   */\n      dup2\n        /* \"#utility.yul\":29221:29226   */\n      dup2\n        /* \"#utility.yul\":29218:29232   */\n      lt\n        /* \"#utility.yul\":29211:29331   */\n      iszero\n      tag_682\n      jumpi\n        /* \"#utility.yul\":29282:29321   */\n      tag_683\n        /* \"#utility.yul\":29319:29320   */\n      0x00\n        /* \"#utility.yul\":29312:29317   */\n      dup3\n        /* \"#utility.yul\":29282:29321   */\n      tag_404\n      jump\t// in\n    tag_683:\n        /* \"#utility.yul\":29255:29256   */\n      0x01\n        /* \"#utility.yul\":29248:29253   */\n      dup2\n        /* \"#utility.yul\":29244:29257   */\n      add\n        /* \"#utility.yul\":29235:29257   */\n      swap1\n      pop\n        /* \"#utility.yul\":29211:29331   */\n      jump(tag_680)\n    tag_682:\n        /* \"#utility.yul\":29151:29337   */\n      pop\n      pop\n      jump\t// out\n        /* \"#utility.yul\":29343:29886   */\n    tag_406:\n        /* \"#utility.yul\":29444:29446   */\n      0x1f\n        /* \"#utility.yul\":29439:29442   */\n      dup3\n        /* \"#utility.yul\":29436:29447   */\n      gt\n        /* \"#utility.yul\":29433:29879   */\n      iszero\n      tag_685\n      jumpi\n        /* \"#utility.yul\":29478:29516   */\n      tag_686\n        /* \"#utility.yul\":29510:29515   */\n      dup2\n        /* \"#utility.yul\":29478:29516   */\n      tag_395\n      jump\t// in\n    tag_686:\n        /* \"#utility.yul\":29562:29591   */\n      tag_687\n        /* \"#utility.yul\":29580:29590   */\n      dup5\n        /* \"#utility.yul\":29562:29591   */\n      tag_396\n      jump\t// in\n    tag_687:\n        /* \"#utility.yul\":29552:29560   */\n      dup2\n        /* \"#utility.yul\":29548:29592   */\n      add\n        /* \"#utility.yul\":29745:29747   */\n      0x20\n        /* \"#utility.yul\":29733:29743   */\n      dup6\n        /* \"#utility.yul\":29730:29748   */\n      lt\n        /* \"#utility.yul\":29727:29776   */\n      iszero\n      tag_688\n      jumpi\n        /* \"#utility.yul\":29766:29774   */\n      dup2\n        /* \"#utility.yul\":29751:29774   */\n      swap1\n      pop\n        /* \"#utility.yul\":29727:29776   */\n    tag_688:\n        /* \"#utility.yul\":29789:29869   */\n      tag_689\n        /* \"#utility.yul\":29845:29867   */\n      tag_690\n        /* \"#utility.yul\":29863:29866   */\n      dup6\n        /* \"#utility.yul\":29845:29867   */\n      tag_396\n      jump\t// in\n    tag_690:\n        /* \"#utility.yul\":29835:29843   */\n      dup4\n        /* \"#utility.yul\":29831:29868   */\n      add\n        /* \"#utility.yul\":29818:29829   */\n      dup3\n        /* \"#utility.yul\":29789:29869   */\n      tag_405\n      jump\t// in\n    tag_689:\n        /* \"#utility.yul\":29448:29879   */\n      pop\n      pop\n        /* \"#utility.yul\":29433:29879   */\n    tag_685:\n        /* \"#utility.yul\":29343:29886   */\n      pop\n      pop\n      pop\n      jump\t// out\n        /* \"#utility.yul\":29892:30009   */\n    tag_407:\n        /* \"#utility.yul\":29946:29954   */\n      0x00\n        /* \"#utility.yul\":29996:30001   */\n      dup3\n        /* \"#utility.yul\":29990:29994   */\n      dup3\n        /* \"#utility.yul\":29986:30002   */\n      shr\n        /* \"#utility.yul\":29965:30002   */\n      swap1\n      pop\n        /* \"#utility.yul\":29892:30009   */\n      swap3\n      swap2\n      pop\n      pop\n      jump\t// out\n        /* \"#utility.yul\":30015:30184   */\n    tag_408:\n        /* \"#utility.yul\":30059:30065   */\n      0x00\n        /* \"#utility.yul\":30092:30143   */\n      tag_693\n        /* \"#utility.yul\":30140:30141   */\n      0x00\n        /* \"#utility.yul\":30136:30142   */\n      not\n        /* \"#utility.yul\":30128:30133   */\n      dup5\n        /* \"#utility.yul\":30125:30126   */\n      0x08\n        /* \"#utility.yul\":30121:30134   */\n      mul\n        /* \"#utility.yul\":30092:30143   */\n      tag_407\n      jump\t// in\n    tag_693:\n        /* \"#utility.yul\":30088:30144   */\n      not\n        /* \"#utility.yul\":30173:30177   */\n      dup1\n        /* \"#utility.yul\":30167:30171   */\n      dup4\n        /* \"#utility.yul\":30163:30178   */\n      and\n        /* \"#utility.yul\":30153:30178   */\n      swap2\n      pop\n        /* \"#utility.yul\":30066:30184   */\n      pop\n        /* \"#utility.yul\":30015:30184   */\n      swap3\n      swap2\n      pop\n      pop\n      jump\t// out\n        /* \"#utility.yul\":30189:30484   */\n    tag_409:\n        /* \"#utility.yul\":30265:30269   */\n      0x00\n        /* \"#utility.yul\":30411:30440   */\n      tag_695\n        /* \"#utility.yul\":30436:30439   */\n      dup4\n        /* \"#utility.yul\":30430:30434   */\n      dup4\n        /* \"#utility.yul\":30411:30440   */\n      tag_408\n      jump\t// in\n    tag_695:\n        /* \"#utility.yul\":30403:30440   */\n      swap2\n      pop\n        /* \"#utility.yul\":30473:30476   */\n      dup3\n        /* \"#utility.yul\":30470:30471   */\n      0x02\n        /* \"#utility.yul\":30466:30477   */\n      mul\n        /* \"#utility.yul\":30460:30464   */\n      dup3\n        /* \"#utility.yul\":30457:30478   */\n      or\n        /* \"#utility.yul\":30449:30478   */\n      swap1\n      pop\n        /* \"#utility.yul\":30189:30484   */\n      swap3\n      swap2\n      pop\n      pop\n      jump\t// out\n        /* \"#utility.yul\":30489:31884   */\n    tag_179:\n        /* \"#utility.yul\":30606:30643   */\n      tag_697\n        /* \"#utility.yul\":30639:30642   */\n      dup3\n        /* \"#utility.yul\":30606:30643   */\n      tag_343\n      jump\t// in\n    tag_697:\n        /* \"#utility.yul\":30708:30726   */\n      0xffffffffffffffff\n        /* \"#utility.yul\":30700:30706   */\n      dup2\n        /* \"#utility.yul\":30697:30727   */\n      gt\n        /* \"#utility.yul\":30694:30750   */\n      iszero\n      tag_698\n      jumpi\n        /* \"#utility.yul\":30730:30748   */\n      tag_699\n      tag_372\n      jump\t// in\n    tag_699:\n        /* \"#utility.yul\":30694:30750   */\n    tag_698:\n        /* \"#utility.yul\":30774:30812   */\n      tag_700\n        /* \"#utility.yul\":30806:30810   */\n      dup3\n        /* \"#utility.yul\":30800:30811   */\n      sload\n        /* \"#utility.yul\":30774:30812   */\n      tag_82\n      jump\t// in\n    tag_700:\n        /* \"#utility.yul\":30859:30926   */\n      tag_701\n        /* \"#utility.yul\":30919:30925   */\n      dup3\n        /* \"#utility.yul\":30911:30917   */\n      dup3\n        /* \"#utility.yul\":30905:30909   */\n      dup6\n        /* \"#utility.yul\":30859:30926   */\n      tag_406\n      jump\t// in\n    tag_701:\n        /* \"#utility.yul\":30953:30954   */\n      0x00\n        /* \"#utility.yul\":30977:30981   */\n      0x20\n        /* \"#utility.yul\":30964:30981   */\n      swap1\n      pop\n        /* \"#utility.yul\":31009:31011   */\n      0x1f\n        /* \"#utility.yul\":31001:31007   */\n      dup4\n        /* \"#utility.yul\":30998:31012   */\n      gt\n        /* \"#utility.yul\":31026:31027   */\n      0x01\n        /* \"#utility.yul\":31021:31639   */\n      dup2\n      eq\n      tag_703\n      jumpi\n        /* \"#utility.yul\":31683:31684   */\n      0x00\n        /* \"#utility.yul\":31700:31706   */\n      dup5\n        /* \"#utility.yul\":31697:31774   */\n      iszero\n      tag_704\n      jumpi\n        /* \"#utility.yul\":31749:31758   */\n      dup3\n        /* \"#utility.yul\":31744:31747   */\n      dup8\n        /* \"#utility.yul\":31740:31759   */\n      add\n        /* \"#utility.yul\":31734:31760   */\n      mload\n        /* \"#utility.yul\":31725:31760   */\n      swap1\n      pop\n        /* \"#utility.yul\":31697:31774   */\n    tag_704:\n        /* \"#utility.yul\":31800:31867   */\n      tag_705\n        /* \"#utility.yul\":31860:31866   */\n      dup6\n        /* \"#utility.yul\":31853:31858   */\n      dup3\n        /* \"#utility.yul\":31800:31867   */\n      tag_409\n      jump\t// in\n    tag_705:\n        /* \"#utility.yul\":31794:31798   */\n      dup7\n        /* \"#utility.yul\":31787:31868   */\n      sstore\n        /* \"#utility.yul\":31656:31878   */\n      pop\n        /* \"#utility.yul\":30991:31878   */\n      jump(tag_702)\n        /* \"#utility.yul\":31021:31639   */\n    tag_703:\n        /* \"#utility.yul\":31073:31077   */\n      0x1f\n        /* \"#utility.yul\":31069:31078   */\n      not\n        /* \"#utility.yul\":31061:31067   */\n      dup5\n        /* \"#utility.yul\":31057:31079   */\n      and\n        /* \"#utility.yul\":31107:31144   */\n      tag_706\n        /* \"#utility.yul\":31139:31143   */\n      dup7\n        /* \"#utility.yul\":31107:31144   */\n      tag_395\n      jump\t// in\n    tag_706:\n        /* \"#utility.yul\":31166:31167   */\n      0x00\n        /* \"#utility.yul\":31180:31388   */\n    tag_707:\n        /* \"#utility.yul\":31194:31201   */\n      dup3\n        /* \"#utility.yul\":31191:31192   */\n      dup2\n        /* \"#utility.yul\":31188:31202   */\n      lt\n        /* \"#utility.yul\":31180:31388   */\n      iszero\n      tag_709\n      jumpi\n        /* \"#utility.yul\":31273:31282   */\n      dup5\n        /* \"#utility.yul\":31268:31271   */\n      dup10\n        /* \"#utility.yul\":31264:31283   */\n      add\n        /* \"#utility.yul\":31258:31284   */\n      mload\n        /* \"#utility.yul\":31250:31256   */\n      dup3\n        /* \"#utility.yul\":31243:31285   */\n      sstore\n        /* \"#utility.yul\":31324:31325   */\n      0x01\n        /* \"#utility.yul\":31316:31322   */\n      dup3\n        /* \"#utility.yul\":31312:31326   */\n      add\n        /* \"#utility.yul\":31302:31326   */\n      swap2\n      pop\n        /* \"#utility.yul\":31371:31373   */\n      0x20\n        /* \"#utility.yul\":31360:31369   */\n      dup6\n        /* \"#utility.yul\":31356:31374   */\n      add\n        /* \"#utility.yul\":31343:31374   */\n      swap5\n      pop\n        /* \"#utility.yul\":31217:31221   */\n      0x20\n        /* \"#utility.yul\":31214:31215   */\n      dup2\n        /* \"#utility.yul\":31210:31222   */\n      add\n        /* \"#utility.yul\":31205:31222   */\n      swap1\n      pop\n        /* \"#utility.yul\":31180:31388   */\n      jump(tag_707)\n    tag_709:\n        /* \"#utility.yul\":31416:31422   */\n      dup7\n        /* \"#utility.yul\":31407:31414   */\n      dup4\n        /* \"#utility.yul\":31404:31423   */\n      lt\n        /* \"#utility.yul\":31401:31580   */\n      iszero\n      tag_710\n      jumpi\n        /* \"#utility.yul\":31474:31483   */\n      dup5\n        /* \"#utility.yul\":31469:31472   */\n      dup10\n        /* \"#utility.yul\":31465:31484   */\n      add\n        /* \"#utility.yul\":31459:31485   */\n      mload\n        /* \"#utility.yul\":31517:31565   */\n      tag_711\n        /* \"#utility.yul\":31559:31563   */\n      0x1f\n        /* \"#utility.yul\":31551:31557   */\n      dup10\n        /* \"#utility.yul\":31547:31564   */\n      and\n        /* \"#utility.yul\":31536:31545   */\n      dup3\n        /* \"#utility.yul\":31517:31565   */\n      tag_408\n      jump\t// in\n    tag_711:\n        /* \"#utility.yul\":31509:31515   */\n      dup4\n        /* \"#utility.yul\":31502:31566   */\n      sstore\n        /* \"#utility.yul\":31424:31580   */\n      pop\n        /* \"#utility.yul\":31401:31580   */\n    tag_710:\n        /* \"#utility.yul\":31626:31627   */\n      0x01\n        /* \"#utility.yul\":31622:31623   */\n      0x02\n        /* \"#utility.yul\":31614:31620   */\n      dup9\n        /* \"#utility.yul\":31610:31624   */\n      mul\n        /* \"#utility.yul\":31606:31628   */\n      add\n        /* \"#utility.yul\":31600:31604   */\n      dup9\n        /* \"#utility.yul\":31593:31629   */\n      sstore\n        /* \"#utility.yul\":31028:31639   */\n      pop\n      pop\n      pop\n        /* \"#utility.yul\":30991:31878   */\n    tag_702:\n      pop\n        /* \"#utility.yul\":30581:31884   */\n      pop\n      pop\n      pop\n        /* \"#utility.yul\":30489:31884   */\n      pop\n      pop\n      jump\t// out\n        /* \"#utility.yul\":31890:32039   */\n    tag_410:\n        /* \"#utility.yul\":31939:31945   */\n      0x00\n        /* \"#utility.yul\":31973:31978   */\n      dup2\n        /* \"#utility.yul\":31967:31979   */\n      sload\n        /* \"#utility.yul\":31957:31979   */\n      swap1\n      pop\n        /* \"#utility.yul\":31999:32032   */\n      tag_713\n        /* \"#utility.yul\":32025:32031   */\n      dup2\n        /* \"#utility.yul\":31999:32032   */\n      tag_82\n      jump\t// in\n    tag_713:\n        /* \"#utility.yul\":31989:32032   */\n      swap1\n      pop\n        /* \"#utility.yul\":31890:32039   */\n      swap2\n      swap1\n      pop\n      jump\t// out\n        /* \"#utility.yul\":32045:33496   */\n    tag_192:\n        /* \"#utility.yul\":32156:32159   */\n      dup2\n        /* \"#utility.yul\":32150:32154   */\n      dup2\n        /* \"#utility.yul\":32147:32160   */\n      sub\n        /* \"#utility.yul\":32144:32170   */\n      tag_715\n      jumpi\n        /* \"#utility.yul\":32163:32168   */\n      pop\n      pop\n      jump(tag_714)\n        /* \"#utility.yul\":32144:32170   */\n    tag_715:\n        /* \"#utility.yul\":32194:32228   */\n      tag_716\n        /* \"#utility.yul\":32224:32227   */\n      dup3\n        /* \"#utility.yul\":32194:32228   */\n      tag_410\n      jump\t// in\n    tag_716:\n        /* \"#utility.yul\":32293:32311   */\n      0xffffffffffffffff\n        /* \"#utility.yul\":32285:32291   */\n      dup2\n        /* \"#utility.yul\":32282:32312   */\n      gt\n        /* \"#utility.yul\":32279:32335   */\n      iszero\n      tag_717\n      jumpi\n        /* \"#utility.yul\":32315:32333   */\n      tag_718\n      tag_372\n      jump\t// in\n    tag_718:\n        /* \"#utility.yul\":32279:32335   */\n    tag_717:\n        /* \"#utility.yul\":32359:32397   */\n      tag_719\n        /* \"#utility.yul\":32391:32395   */\n      dup3\n        /* \"#utility.yul\":32385:32396   */\n      sload\n        /* \"#utility.yul\":32359:32397   */\n      tag_82\n      jump\t// in\n    tag_719:\n        /* \"#utility.yul\":32444:32511   */\n      tag_720\n        /* \"#utility.yul\":32504:32510   */\n      dup3\n        /* \"#utility.yul\":32496:32502   */\n      dup3\n        /* \"#utility.yul\":32490:32494   */\n      dup6\n        /* \"#utility.yul\":32444:32511   */\n      tag_406\n      jump\t// in\n    tag_720:\n        /* \"#utility.yul\":32538:32539   */\n      0x00\n        /* \"#utility.yul\":32567:32569   */\n      0x1f\n        /* \"#utility.yul\":32559:32565   */\n      dup4\n        /* \"#utility.yul\":32556:32570   */\n      gt\n        /* \"#utility.yul\":32584:32585   */\n      0x01\n        /* \"#utility.yul\":32579:33251   */\n      dup2\n      eq\n      tag_722\n      jumpi\n        /* \"#utility.yul\":33295:33296   */\n      0x00\n        /* \"#utility.yul\":33312:33318   */\n      dup5\n        /* \"#utility.yul\":33309:33386   */\n      iszero\n      tag_723\n      jumpi\n        /* \"#utility.yul\":33361:33370   */\n      dup3\n        /* \"#utility.yul\":33356:33359   */\n      dup8\n        /* \"#utility.yul\":33352:33371   */\n      add\n        /* \"#utility.yul\":33346:33372   */\n      sload\n        /* \"#utility.yul\":33337:33372   */\n      swap1\n      pop\n        /* \"#utility.yul\":33309:33386   */\n    tag_723:\n        /* \"#utility.yul\":33412:33479   */\n      tag_724\n        /* \"#utility.yul\":33472:33478   */\n      dup6\n        /* \"#utility.yul\":33465:33470   */\n      dup3\n        /* \"#utility.yul\":33412:33479   */\n      tag_409\n      jump\t// in\n    tag_724:\n        /* \"#utility.yul\":33406:33410   */\n      dup7\n        /* \"#utility.yul\":33399:33480   */\n      sstore\n        /* \"#utility.yul\":33268:33490   */\n      pop\n        /* \"#utility.yul\":32549:33490   */\n      jump(tag_721)\n        /* \"#utility.yul\":32579:33251   */\n    tag_722:\n        /* \"#utility.yul\":32631:32635   */\n      0x1f\n        /* \"#utility.yul\":32627:32636   */\n      not\n        /* \"#utility.yul\":32619:32625   */\n      dup5\n        /* \"#utility.yul\":32615:32637   */\n      and\n        /* \"#utility.yul\":32657:32693   */\n      tag_725\n        /* \"#utility.yul\":32689:32692   */\n      dup8\n        /* \"#utility.yul\":32657:32693   */\n      tag_395\n      jump\t// in\n    tag_725:\n        /* \"#utility.yul\":32650:32693   */\n      swap7\n      pop\n        /* \"#utility.yul\":32720:32757   */\n      tag_726\n        /* \"#utility.yul\":32752:32756   */\n      dup7\n        /* \"#utility.yul\":32720:32757   */\n      tag_395\n      jump\t// in\n    tag_726:\n        /* \"#utility.yul\":32779:32780   */\n      0x00\n        /* \"#utility.yul\":32793:33000   */\n    tag_727:\n        /* \"#utility.yul\":32807:32814   */\n      dup3\n        /* \"#utility.yul\":32804:32805   */\n      dup2\n        /* \"#utility.yul\":32801:32815   */\n      lt\n        /* \"#utility.yul\":32793:33000   */\n      iszero\n      tag_729\n      jumpi\n        /* \"#utility.yul\":32886:32895   */\n      dup5\n        /* \"#utility.yul\":32881:32884   */\n      dup10\n        /* \"#utility.yul\":32877:32896   */\n      add\n        /* \"#utility.yul\":32871:32897   */\n      sload\n        /* \"#utility.yul\":32863:32869   */\n      dup3\n        /* \"#utility.yul\":32856:32898   */\n      sstore\n        /* \"#utility.yul\":32937:32938   */\n      0x01\n        /* \"#utility.yul\":32929:32935   */\n      dup3\n        /* \"#utility.yul\":32925:32939   */\n      add\n        /* \"#utility.yul\":32915:32939   */\n      swap2\n      pop\n        /* \"#utility.yul\":32984:32985   */\n      0x01\n        /* \"#utility.yul\":32973:32982   */\n      dup6\n        /* \"#utility.yul\":32969:32986   */\n      add\n        /* \"#utility.yul\":32956:32986   */\n      swap5\n      pop\n        /* \"#utility.yul\":32830:32834   */\n      0x20\n        /* \"#utility.yul\":32827:32828   */\n      dup2\n        /* \"#utility.yul\":32823:32835   */\n      add\n        /* \"#utility.yul\":32818:32835   */\n      swap1\n      pop\n        /* \"#utility.yul\":32793:33000   */\n      jump(tag_727)\n    tag_729:\n        /* \"#utility.yul\":33028:33034   */\n      dup7\n        /* \"#utility.yul\":33019:33026   */\n      dup4\n        /* \"#utility.yul\":33016:33035   */\n      lt\n        /* \"#utility.yul\":33013:33192   */\n      iszero\n      tag_730\n      jumpi\n        /* \"#utility.yul\":33086:33095   */\n      dup5\n        /* \"#utility.yul\":33081:33084   */\n      dup10\n        /* \"#utility.yul\":33077:33096   */\n      add\n        /* \"#utility.yul\":33071:33097   */\n      sload\n        /* \"#utility.yul\":33129:33177   */\n      tag_731\n        /* \"#utility.yul\":33171:33175   */\n      0x1f\n        /* \"#utility.yul\":33163:33169   */\n      dup10\n        /* \"#utility.yul\":33159:33176   */\n      and\n        /* \"#utility.yul\":33148:33157   */\n      dup3\n        /* \"#utility.yul\":33129:33177   */\n      tag_408\n      jump\t// in\n    tag_731:\n        /* \"#utility.yul\":33121:33127   */\n      dup4\n        /* \"#utility.yul\":33114:33178   */\n      sstore\n        /* \"#utility.yul\":33036:33192   */\n      pop\n        /* \"#utility.yul\":33013:33192   */\n    tag_730:\n        /* \"#utility.yul\":33238:33239   */\n      0x01\n        /* \"#utility.yul\":33234:33235   */\n      0x02\n        /* \"#utility.yul\":33226:33232   */\n      dup9\n        /* \"#utility.yul\":33222:33236   */\n      mul\n        /* \"#utility.yul\":33218:33240   */\n      add\n        /* \"#utility.yul\":33212:33216   */\n      dup9\n        /* \"#utility.yul\":33205:33241   */\n      sstore\n        /* \"#utility.yul\":32586:33251   */\n      pop\n      pop\n      pop\n        /* \"#utility.yul\":32549:33490   */\n    tag_721:\n      pop\n        /* \"#utility.yul\":32134:33496   */\n      pop\n      pop\n      pop\n        /* \"#utility.yul\":32045:33496   */\n      pop\n      pop\n    tag_714:\n      jump\t// out\n        /* \"#utility.yul\":33502:33587   */\n    tag_411:\n        /* \"#utility.yul\":33547:33554   */\n      0x00\n        /* \"#utility.yul\":33576:33581   */\n      dup2\n        /* \"#utility.yul\":33565:33581   */\n      swap1\n      pop\n        /* \"#utility.yul\":33502:33587   */\n      swap2\n      swap1\n      pop\n      jump\t// out\n        /* \"#utility.yul\":33593:33751   */\n    tag_412:\n        /* \"#utility.yul\":33651:33660   */\n      0x00\n        /* \"#utility.yul\":33684:33745   */\n      tag_734\n        /* \"#utility.yul\":33702:33744   */\n      tag_735\n        /* \"#utility.yul\":33711:33743   */\n      tag_736\n        /* \"#utility.yul\":33737:33742   */\n      dup5\n        /* \"#utility.yul\":33711:33743   */\n      tag_411\n      jump\t// in\n    tag_736:\n        /* \"#utility.yul\":33702:33744   */\n      tag_399\n      jump\t// in\n    tag_735:\n        /* \"#utility.yul\":33684:33745   */\n      tag_339\n      jump\t// in\n    tag_734:\n        /* \"#utility.yul\":33671:33745   */\n      swap1\n      pop\n        /* \"#utility.yul\":33593:33751   */\n      swap2\n      swap1\n      pop\n      jump\t// out\n        /* \"#utility.yul\":33757:33904   */\n    tag_413:\n        /* \"#utility.yul\":33852:33897   */\n      tag_738\n        /* \"#utility.yul\":33891:33896   */\n      dup2\n        /* \"#utility.yul\":33852:33897   */\n      tag_412\n      jump\t// in\n    tag_738:\n        /* \"#utility.yul\":33847:33850   */\n      dup3\n        /* \"#utility.yul\":33840:33898   */\n      mstore\n        /* \"#utility.yul\":33757:33904   */\n      pop\n      pop\n      jump\t// out\n        /* \"#utility.yul\":33910:35085   */\n    tag_198:\n        /* \"#utility.yul\":34239:34243   */\n      0x00\n        /* \"#utility.yul\":34277:34280   */\n      0xe0\n        /* \"#utility.yul\":34266:34275   */\n      dup3\n        /* \"#utility.yul\":34262:34281   */\n      add\n        /* \"#utility.yul\":34254:34281   */\n      swap1\n      pop\n        /* \"#utility.yul\":34291:34362   */\n      tag_740\n        /* \"#utility.yul\":34359:34360   */\n      0x00\n        /* \"#utility.yul\":34348:34357   */\n      dup4\n        /* \"#utility.yul\":34344:34361   */\n      add\n        /* \"#utility.yul\":34335:34341   */\n      dup11\n        /* \"#utility.yul\":34291:34362   */\n      tag_342\n      jump\t// in\n    tag_740:\n        /* \"#utility.yul\":34409:34418   */\n      dup2\n        /* \"#utility.yul\":34403:34407   */\n      dup2\n        /* \"#utility.yul\":34399:34419   */\n      sub\n        /* \"#utility.yul\":34394:34396   */\n      0x20\n        /* \"#utility.yul\":34383:34392   */\n      dup4\n        /* \"#utility.yul\":34379:34397   */\n      add\n        /* \"#utility.yul\":34372:34420   */\n      mstore\n        /* \"#utility.yul\":34437:34515   */\n      tag_741\n        /* \"#utility.yul\":34510:34514   */\n      dup2\n        /* \"#utility.yul\":34501:34507   */\n      dup10\n        /* \"#utility.yul\":34437:34515   */\n      tag_347\n      jump\t// in\n    tag_741:\n        /* \"#utility.yul\":34429:34515   */\n      swap1\n      pop\n        /* \"#utility.yul\":34562:34571   */\n      dup2\n        /* \"#utility.yul\":34556:34560   */\n      dup2\n        /* \"#utility.yul\":34552:34572   */\n      sub\n        /* \"#utility.yul\":34547:34549   */\n      0x40\n        /* \"#utility.yul\":34536:34545   */\n      dup4\n        /* \"#utility.yul\":34532:34550   */\n      add\n        /* \"#utility.yul\":34525:34573   */\n      mstore\n        /* \"#utility.yul\":34590:34668   */\n      tag_742\n        /* \"#utility.yul\":34663:34667   */\n      dup2\n        /* \"#utility.yul\":34654:34660   */\n      dup9\n        /* \"#utility.yul\":34590:34668   */\n      tag_347\n      jump\t// in\n    tag_742:\n        /* \"#utility.yul\":34582:34668   */\n      swap1\n      pop\n        /* \"#utility.yul\":34678:34758   */\n      tag_743\n        /* \"#utility.yul\":34754:34756   */\n      0x60\n        /* \"#utility.yul\":34743:34752   */\n      dup4\n        /* \"#utility.yul\":34739:34757   */\n      add\n        /* \"#utility.yul\":34730:34736   */\n      dup8\n        /* \"#utility.yul\":34678:34758   */\n      tag_413\n      jump\t// in\n    tag_743:\n        /* \"#utility.yul\":34806:34815   */\n      dup2\n        /* \"#utility.yul\":34800:34804   */\n      dup2\n        /* \"#utility.yul\":34796:34816   */\n      sub\n        /* \"#utility.yul\":34790:34793   */\n      0x80\n        /* \"#utility.yul\":34779:34788   */\n      dup4\n        /* \"#utility.yul\":34775:34794   */\n      add\n        /* \"#utility.yul\":34768:34817   */\n      mstore\n        /* \"#utility.yul\":34834:34912   */\n      tag_744\n        /* \"#utility.yul\":34907:34911   */\n      dup2\n        /* \"#utility.yul\":34898:34904   */\n      dup7\n        /* \"#utility.yul\":34834:34912   */\n      tag_347\n      jump\t// in\n    tag_744:\n        /* \"#utility.yul\":34826:34912   */\n      swap1\n      pop\n        /* \"#utility.yul\":34922:34995   */\n      tag_745\n        /* \"#utility.yul\":34990:34993   */\n      0xa0\n        /* \"#utility.yul\":34979:34988   */\n      dup4\n        /* \"#utility.yul\":34975:34994   */\n      add\n        /* \"#utility.yul\":34966:34972   */\n      dup6\n        /* \"#utility.yul\":34922:34995   */\n      tag_342\n      jump\t// in\n    tag_745:\n        /* \"#utility.yul\":35005:35078   */\n      tag_746\n        /* \"#utility.yul\":35073:35076   */\n      0xc0\n        /* \"#utility.yul\":35062:35071   */\n      dup4\n        /* \"#utility.yul\":35058:35077   */\n      add\n        /* \"#utility.yul\":35049:35055   */\n      dup5\n        /* \"#utility.yul\":35005:35078   */\n      tag_350\n      jump\t// in\n    tag_746:\n        /* \"#utility.yul\":33910:35085   */\n      swap9\n      swap8\n      pop\n      pop\n      pop\n      pop\n      pop\n      pop\n      pop\n      pop\n      jump\t// out\n        /* \"#utility.yul\":35091:35324   */\n    tag_200:\n        /* \"#utility.yul\":35130:35133   */\n      0x00\n        /* \"#utility.yul\":35153:35177   */\n      tag_748\n        /* \"#utility.yul\":35171:35176   */\n      dup3\n        /* \"#utility.yul\":35153:35177   */\n      tag_339\n      jump\t// in\n    tag_748:\n        /* \"#utility.yul\":35144:35177   */\n      swap2\n      pop\n        /* \"#utility.yul\":35199:35265   */\n      0xffffffffffffffffffffffffffffffffffffffffffffffffffffffffffffffff\n        /* \"#utility.yul\":35192:35197   */\n      dup3\n        /* \"#utility.yul\":35189:35266   */\n      sub\n        /* \"#utility.yul\":35186:35289   */\n      tag_749\n      jumpi\n        /* \"#utility.yul\":35269:35287   */\n      tag_750\n      tag_394\n      jump\t// in\n    tag_750:\n        /* \"#utility.yul\":35186:35289   */\n    tag_749:\n        /* \"#utility.yul\":35316:35317   */\n      0x01\n        /* \"#utility.yul\":35309:35314   */\n      dup3\n        /* \"#utility.yul\":35305:35318   */\n      add\n        /* \"#utility.yul\":35298:35318   */\n      swap1\n      pop\n        /* \"#utility.yul\":35091:35324   */\n      swap2\n      swap1\n      pop\n      jump\t// out\n\n    auxdata: 0xa2646970667358221220e98c414e61b5e513d2792d69c13363f1fb4ef7bddc56703107d78ce90c98877564736f6c634300081a0033\n}\n",
				"bytecode": {
					"linkReferences": {},
					"object": "60806040525f600255348015610013575f80fd5b506040516138923803806138928339818101604052810190610035919061021b565b335f73ffffffffffffffffffffffffffffffffffffffff168173ffffffffffffffffffffffffffffffffffffffff16036100a6575f6040517f1e4fbdf700000000000000000000000000000000000000000000000000000000815260040161009d9190610255565b60405180910390fd5b6100b5816100fc60201b60201c565b508060015f6101000a81548173ffffffffffffffffffffffffffffffffffffffff021916908373ffffffffffffffffffffffffffffffffffffffff1602179055505061026e565b5f805f9054906101000a900473ffffffffffffffffffffffffffffffffffffffff169050815f806101000a81548173ffffffffffffffffffffffffffffffffffffffff021916908373ffffffffffffffffffffffffffffffffffffffff1602179055508173ffffffffffffffffffffffffffffffffffffffff168173ffffffffffffffffffffffffffffffffffffffff167f8be0079c531659141344cd1fd0a4f28419497f9722a3daafe3b4186f6b6457e060405160405180910390a35050565b5f80fd5b5f73ffffffffffffffffffffffffffffffffffffffff82169050919050565b5f6101ea826101c1565b9050919050565b6101fa816101e0565b8114610204575f80fd5b50565b5f81519050610215816101f1565b92915050565b5f602082840312156102305761022f6101bd565b5b5f61023d84828501610207565b91505092915050565b61024f816101e0565b82525050565b5f6020820190506102685f830184610246565b92915050565b6136178061027b5f395ff3fe608060405234801561000f575f80fd5b50600436106100e8575f3560e01c80638da5cb5b1161008a578063c7f758a811610064578063c7f758a814610287578063d3856f3b146102b7578063f2fde38b146102e7578063f30282a114610303576100e8565b80638da5cb5b146101f7578063be07d1d914610215578063c6311e3f1461024e576100e8565b80633ffefe4e116100c65780633ffefe4e146101715780634c15676b146101a15780634c50d2fb146101bd578063715018a6146101ed576100e8565b8063013cf08b146100ec5780630f1a9d5114610125578063159428d114610141575b5f80fd5b610106600480360381019061010191906124d4565b610321565b60405161011c9a999897969594939291906125bd565b60405180910390f35b61013f600480360381019061013a91906124d4565b61062e565b005b61015b600480360381019061015691906126a4565b610979565b60405161016891906128e3565b60405180910390f35b61018b600480360381019061018691906124d4565b610d5f565b60405161019891906129ab565b60405180910390f35b6101bb60048036038101906101b69190612af7565b610dfb565b005b6101d760048036038101906101d29190612baf565b611449565b6040516101e49190612c07565b60405180910390f35b6101f5611473565b005b6101ff611486565b60405161020c9190612c20565b60405180910390f35b61022f600480360381019061022a9190612c39565b6114ad565b6040516102459a999897969594939291906125bd565b60405180910390f35b610268600480360381019061026391906124d4565b6117d4565b60405161027e9a999897969594939291906125bd565b60405180910390f35b6102a1600480360381019061029c91906124d4565b611af0565b6040516102ae9190612d6a565b60405180910390f35b6102d160048036038101906102cc9190612d8a565b611e68565b6040516102de9190612c20565b60405180910390f35b61030160048036038101906102fc91906126a4565b611eb0565b005b61030b611f34565b60405161031891906128e3565b60405180910390f35b6004602052805f5260405f205f91509050805f01549080600101805461034690612df5565b80601f016020809104026020016040519081016040528092919081815260200182805461037290612df5565b80156103bd5780601f10610394576101008083540402835291602001916103bd565b820191905f5260205f20905b8154815290600101906020018083116103a057829003601f168201915b5050505050908060020180546103d290612df5565b80601f01602080910402602001604051908101604052809291908181526020018280546103fe90612df5565b80156104495780601f1061042057610100808354040283529160200191610449565b820191905f5260205f20905b81548152906001019060200180831161042c57829003601f168201915b50505050509080600301549080600401805461046490612df5565b80601f016020809104026020016040519081016040528092919081815260200182805461049090612df5565b80156104db5780601f106104b2576101008083540402835291602001916104db565b820191905f5260205f20905b8154815290600101906020018083116104be57829003601f168201915b505050505090806005015490806006015f9054906101000a900473ffffffffffffffffffffffffffffffffffffffff169080600701805461051b90612df5565b80601f016020809104026020016040519081016040528092919081815260200182805461054790612df5565b80156105925780601f1061056957610100808354040283529160200191610592565b820191905f5260205f20905b81548152906001019060200180831161057557829003601f168201915b5050505050908060080180546105a790612df5565b80601f01602080910402602001604051908101604052809291908181526020018280546105d390612df5565b801561061e5780601f106105f55761010080835404028352916020019161061e565b820191905f5260205f20905b81548152906001019060200180831161060157829003601f168201915b505050505090806009015490508a565b5f60015f9054906101000a900473ffffffffffffffffffffffffffffffffffffffff1673ffffffffffffffffffffffffffffffffffffffff16630f53a470336040518263ffffffff1660e01b81526004016106899190612c20565b5f60405180830381865afa1580156106a3573d5f803e3d5ffd5b505050506040513d5f823e3d601f19601f820116820180604052508101906106cb9190612f8e565b90508060600151610711576040517f08c379a00000000000000000000000000000000000000000000000000000000081526004016107089061301f565b60405180910390fd5b8160055f8281526020019081526020015f205f3373ffffffffffffffffffffffffffffffffffffffff1673ffffffffffffffffffffffffffffffffffffffff1681526020019081526020015f205f9054906101000a900460ff16156107ab576040517f08c379a00000000000000000000000000000000000000000000000000000000081526004016107a290613087565b60405180910390fd5b600160045f8581526020019081526020015f206003015f8282546107cf91906130d2565b9250508190555060045f8481526020019081526020015f2060030154600784815481106107ff576107fe613105565b5b905f5260205f2090600a020160030181905550600160055f8581526020019081526020015f205f3373ffffffffffffffffffffffffffffffffffffffff1673ffffffffffffffffffffffffffffffffffffffff1681526020019081526020015f205f6101000a81548160ff02191690831515021790555060065f8481526020019081526020015f2033908060018154018082558091505060019003905f5260205f20015f9091909190916101000a81548173ffffffffffffffffffffffffffffffffffffffff021916908373ffffffffffffffffffffffffffffffffffffffff1602179055507f3819d91b2efa54f01ee20099da12a4ef79fec68f323d52f38368f3e72a695acc60055f8581526020019081526020015f205f3373ffffffffffffffffffffffffffffffffffffffff1673ffffffffffffffffffffffffffffffffffffffff1681526020019081526020015f205f9054906101000a900460ff1660405161096c9190612c07565b60405180910390a1505050565b606060035f8373ffffffffffffffffffffffffffffffffffffffff1673ffffffffffffffffffffffffffffffffffffffff1681526020019081526020015f20805480602002602001604051908101604052809291908181526020015f905b82821015610d54578382905f5260205f2090600a0201604051806101400160405290815f8201548152602001600182018054610a1290612df5565b80601f0160208091040260200160405190810160405280929190818152602001828054610a3e90612df5565b8015610a895780601f10610a6057610100808354040283529160200191610a89565b820191905f5260205f20905b815481529060010190602001808311610a6c57829003601f168201915b50505050508152602001600282018054610aa290612df5565b80601f0160208091040260200160405190810160405280929190818152602001828054610ace90612df5565b8015610b195780601f10610af057610100808354040283529160200191610b19565b820191905f5260205f20905b815481529060010190602001808311610afc57829003601f168201915b5050505050815260200160038201548152602001600482018054610b3c90612df5565b80601f0160208091040260200160405190810160405280929190818152602001828054610b6890612df5565b8015610bb35780601f10610b8a57610100808354040283529160200191610bb3565b820191905f5260205f20905b815481529060010190602001808311610b9657829003601f168201915b5050505050815260200160058201548152602001600682015f9054906101000a900473ffffffffffffffffffffffffffffffffffffffff1673ffffffffffffffffffffffffffffffffffffffff1673ffffffffffffffffffffffffffffffffffffffff168152602001600782018054610c2b90612df5565b80601f0160208091040260200160405190810160405280929190818152602001828054610c5790612df5565b8015610ca25780601f10610c7957610100808354040283529160200191610ca2565b820191905f5260205f20905b815481529060010190602001808311610c8557829003601f168201915b50505050508152602001600882018054610cbb90612df5565b80601f0160208091040260200160405190810160405280929190818152602001828054610ce790612df5565b8015610d325780601f10610d0957610100808354040283529160200191610d32565b820191905f5260205f20905b815481529060010190602001808311610d1557829003601f168201915b50505050508152602001600982015481525050815260200190600101906109d7565b505050509050919050565b606060065f8381526020019081526020015f20805480602002602001604051908101604052809291908181526020018280548015610def57602002820191905f5260205f20905b815f9054906101000a900473ffffffffffffffffffffffffffffffffffffffff1673ffffffffffffffffffffffffffffffffffffffff1681526020019060010190808311610da6575b50505050509050919050565b5f60015f9054906101000a900473ffffffffffffffffffffffffffffffffffffffff1673ffffffffffffffffffffffffffffffffffffffff16630f53a470336040518263ffffffff1660e01b8152600401610e569190612c20565b5f60405180830381865afa158015610e70573d5f803e3d5ffd5b505050506040513d5f823e3d601f19601f82011682018060405250810190610e989190612f8e565b90508060600151610ede576040517f08c379a0000000000000000000000000000000000000000000000000000000008152600401610ed59061301f565b60405180910390fd5b5f60015f9054906101000a900473ffffffffffffffffffffffffffffffffffffffff1673ffffffffffffffffffffffffffffffffffffffff166304386432336040518263ffffffff1660e01b8152600401610f399190612c20565b5f60405180830381865afa158015610f53573d5f803e3d5ffd5b505050506040513d5f823e3d601f19601f82011682018060405250810190610f7b9190613132565b90505f60015f9054906101000a900473ffffffffffffffffffffffffffffffffffffffff1673ffffffffffffffffffffffffffffffffffffffff1663a2e84e6e336040518263ffffffff1660e01b8152600401610fd89190612c20565b5f60405180830381865afa158015610ff2573d5f803e3d5ffd5b505050506040513d5f823e3d601f19601f8201168201806040525081019061101a9190613132565b90505f60405180610140016040528060025481526020018981526020018881526020015f81526020018781526020018681526020013373ffffffffffffffffffffffffffffffffffffffff1681526020018481526020018381526020014281525090508060045f60025481526020019081526020015f205f820151815f015560208201518160010190816110ae9190613316565b5060408201518160020190816110c49190613316565b506060820151816003015560808201518160040190816110e49190613316565b5060a0820151816005015560c0820151816006015f6101000a81548173ffffffffffffffffffffffffffffffffffffffff021916908373ffffffffffffffffffffffffffffffffffffffff16021790555060e082015181600701908161114a9190613316565b506101008201518160080190816111619190613316565b50610120820151816009015590505060035f3373ffffffffffffffffffffffffffffffffffffffff1673ffffffffffffffffffffffffffffffffffffffff1681526020019081526020015f2081908060018154018082558091505060019003905f5260205f2090600a02015f909190919091505f820151815f015560208201518160010190816111f19190613316565b5060408201518160020190816112079190613316565b506060820151816003015560808201518160040190816112279190613316565b5060a0820151816005015560c0820151816006015f6101000a81548173ffffffffffffffffffffffffffffffffffffffff021916908373ffffffffffffffffffffffffffffffffffffffff16021790555060e082015181600701908161128d9190613316565b506101008201518160080190816112a49190613316565b5061012082015181600901555050600760045f60025481526020019081526020015f20908060018154018082558091505060019003905f5260205f2090600a02015f909190919091505f820154815f01556001820181600101908161130991906133fa565b506002820181600201908161131e91906133fa565b50600382015481600301556004820181600401908161133d91906133fa565b5060058201548160050155600682015f9054906101000a900473ffffffffffffffffffffffffffffffffffffffff16816006015f6101000a81548173ffffffffffffffffffffffffffffffffffffffff021916908373ffffffffffffffffffffffffffffffffffffffff160217905550600782018160070190816113c191906133fa565b50600882018160080190816113d691906133fa565b506009820154816009015550507f1961f6452621f42ceb4621cac123d1a782ecd2620c2d8c755fbf8f7c849b24a460025489895f8a8a336040516114209796959493929190613518565b60405180910390a160025f81548092919061143a9061359a565b91905055505050505050505050565b6005602052815f5260405f20602052805f5260405f205f915091509054906101000a900460ff1681565b61147b6122dd565b6114845f612364565b565b5f805f9054906101000a900473ffffffffffffffffffffffffffffffffffffffff16905090565b6003602052815f5260405f2081815481106114c6575f80fd5b905f5260205f2090600a02015f9150915050805f0154908060010180546114ec90612df5565b80601f016020809104026020016040519081016040528092919081815260200182805461151890612df5565b80156115635780601f1061153a57610100808354040283529160200191611563565b820191905f5260205f20905b81548152906001019060200180831161154657829003601f168201915b50505050509080600201805461157890612df5565b80601f01602080910402602001604051908101604052809291908181526020018280546115a490612df5565b80156115ef5780601f106115c6576101008083540402835291602001916115ef565b820191905f5260205f20905b8154815290600101906020018083116115d257829003601f168201915b50505050509080600301549080600401805461160a90612df5565b80601f016020809104026020016040519081016040528092919081815260200182805461163690612df5565b80156116815780601f1061165857610100808354040283529160200191611681565b820191905f5260205f20905b81548152906001019060200180831161166457829003601f168201915b505050505090806005015490806006015f9054906101000a900473ffffffffffffffffffffffffffffffffffffffff16908060070180546116c190612df5565b80601f01602080910402602001604051908101604052809291908181526020018280546116ed90612df5565b80156117385780601f1061170f57610100808354040283529160200191611738565b820191905f5260205f20905b81548152906001019060200180831161171b57829003601f168201915b50505050509080600801805461174d90612df5565b80601f016020809104026020016040519081016040528092919081815260200182805461177990612df5565b80156117c45780601f1061179b576101008083540402835291602001916117c4565b820191905f5260205f20905b8154815290600101906020018083116117a757829003601f168201915b505050505090806009015490508a565b600781815481106117e3575f80fd5b905f5260205f2090600a02015f91509050805f01549080600101805461180890612df5565b80601f016020809104026020016040519081016040528092919081815260200182805461183490612df5565b801561187f5780601f106118565761010080835404028352916020019161187f565b820191905f5260205f20905b81548152906001019060200180831161186257829003601f168201915b50505050509080600201805461189490612df5565b80601f01602080910402602001604051908101604052809291908181526020018280546118c090612df5565b801561190b5780601f106118e25761010080835404028352916020019161190b565b820191905f5260205f20905b8154815290600101906020018083116118ee57829003601f168201915b50505050509080600301549080600401805461192690612df5565b80601f016020809104026020016040519081016040528092919081815260200182805461195290612df5565b801561199d5780601f106119745761010080835404028352916020019161199d565b820191905f5260205f20905b81548152906001019060200180831161198057829003601f168201915b505050505090806005015490806006015f9054906101000a900473ffffffffffffffffffffffffffffffffffffffff16908060070180546119dd90612df5565b80601f0160208091040260200160405190810160405280929190818152602001828054611a0990612df5565b8015611a545780601f10611a2b57610100808354040283529160200191611a54565b820191905f5260205f20905b815481529060010190602001808311611a3757829003601f168201915b505050505090806008018054611a6990612df5565b80601f0160208091040260200160405190810160405280929190818152602001828054611a9590612df5565b8015611ae05780601f10611ab757610100808354040283529160200191611ae0565b820191905f5260205f20905b815481529060010190602001808311611ac357829003601f168201915b505050505090806009015490508a565b611af861242c565b60045f8381526020019081526020015f20604051806101400160405290815f8201548152602001600182018054611b2e90612df5565b80601f0160208091040260200160405190810160405280929190818152602001828054611b5a90612df5565b8015611ba55780601f10611b7c57610100808354040283529160200191611ba5565b820191905f5260205f20905b815481529060010190602001808311611b8857829003601f168201915b50505050508152602001600282018054611bbe90612df5565b80601f0160208091040260200160405190810160405280929190818152602001828054611bea90612df5565b8015611c355780601f10611c0c57610100808354040283529160200191611c35565b820191905f5260205f20905b815481529060010190602001808311611c1857829003601f168201915b5050505050815260200160038201548152602001600482018054611c5890612df5565b80601f0160208091040260200160405190810160405280929190818152602001828054611c8490612df5565b8015611ccf5780601f10611ca657610100808354040283529160200191611ccf565b820191905f5260205f20905b815481529060010190602001808311611cb257829003601f168201915b5050505050815260200160058201548152602001600682015f9054906101000a900473ffffffffffffffffffffffffffffffffffffffff1673ffffffffffffffffffffffffffffffffffffffff1673ffffffffffffffffffffffffffffffffffffffff168152602001600782018054611d4790612df5565b80601f0160208091040260200160405190810160405280929190818152602001828054611d7390612df5565b8015611dbe5780601f10611d9557610100808354040283529160200191611dbe565b820191905f5260205f20905b815481529060010190602001808311611da157829003601f168201915b50505050508152602001600882018054611dd790612df5565b80601f0160208091040260200160405190810160405280929190818152602001828054611e0390612df5565b8015611e4e5780601f10611e2557610100808354040283529160200191611e4e565b820191905f5260205f20905b815481529060010190602001808311611e3157829003601f168201915b505050505081526020016009820154815250509050919050565b6006602052815f5260405f208181548110611e81575f80fd5b905f5260205f20015f915091509054906101000a900473ffffffffffffffffffffffffffffffffffffffff1681565b611eb86122dd565b5f73ffffffffffffffffffffffffffffffffffffffff168173ffffffffffffffffffffffffffffffffffffffff1603611f28575f6040517f1e4fbdf7000000000000000000000000000000000000000000000000000000008152600401611f1f9190612c20565b60405180910390fd5b611f3181612364565b50565b60606007805480602002602001604051908101604052809291908181526020015f905b828210156122d4578382905f5260205f2090600a0201604051806101400160405290815f8201548152602001600182018054611f9290612df5565b80601f0160208091040260200160405190810160405280929190818152602001828054611fbe90612df5565b80156120095780601f10611fe057610100808354040283529160200191612009565b820191905f5260205f20905b815481529060010190602001808311611fec57829003601f168201915b5050505050815260200160028201805461202290612df5565b80601f016020809104026020016040519081016040528092919081815260200182805461204e90612df5565b80156120995780601f1061207057610100808354040283529160200191612099565b820191905f5260205f20905b81548152906001019060200180831161207c57829003601f168201915b50505050508152602001600382015481526020016004820180546120bc90612df5565b80601f01602080910402602001604051908101604052809291908181526020018280546120e890612df5565b80156121335780601f1061210a57610100808354040283529160200191612133565b820191905f5260205f20905b81548152906001019060200180831161211657829003601f168201915b5050505050815260200160058201548152602001600682015f9054906101000a900473ffffffffffffffffffffffffffffffffffffffff1673ffffffffffffffffffffffffffffffffffffffff1673ffffffffffffffffffffffffffffffffffffffff1681526020016007820180546121ab90612df5565b80601f01602080910402602001604051908101604052809291908181526020018280546121d790612df5565b80156122225780601f106121f957610100808354040283529160200191612222565b820191905f5260205f20905b81548152906001019060200180831161220557829003601f168201915b5050505050815260200160088201805461223b90612df5565b80601f016020809104026020016040519081016040528092919081815260200182805461226790612df5565b80156122b25780601f10612289576101008083540402835291602001916122b2565b820191905f5260205f20905b81548152906001019060200180831161229557829003601f168201915b5050505050815260200160098201548152505081526020019060010190611f57565b50505050905090565b6122e5612425565b73ffffffffffffffffffffffffffffffffffffffff16612303611486565b73ffffffffffffffffffffffffffffffffffffffff161461236257612326612425565b6040517f118cdaa70000000000000000000000000000000000000000000000000000000081526004016123599190612c20565b60405180910390fd5b565b5f805f9054906101000a900473ffffffffffffffffffffffffffffffffffffffff169050815f806101000a81548173ffffffffffffffffffffffffffffffffffffffff021916908373ffffffffffffffffffffffffffffffffffffffff1602179055508173ffffffffffffffffffffffffffffffffffffffff168173ffffffffffffffffffffffffffffffffffffffff167f8be0079c531659141344cd1fd0a4f28419497f9722a3daafe3b4186f6b6457e060405160405180910390a35050565b5f33905090565b6040518061014001604052805f815260200160608152602001606081526020015f8152602001606081526020015f81526020015f73ffffffffffffffffffffffffffffffffffffffff16815260200160608152602001606081526020015f81525090565b5f604051905090565b5f80fd5b5f80fd5b5f819050919050565b6124b3816124a1565b81146124bd575f80fd5b50565b5f813590506124ce816124aa565b92915050565b5f602082840312156124e9576124e8612499565b5b5f6124f6848285016124c0565b91505092915050565b612508816124a1565b82525050565b5f81519050919050565b5f82825260208201905092915050565b8281835e5f83830152505050565b5f601f19601f8301169050919050565b5f6125508261250e565b61255a8185612518565b935061256a818560208601612528565b61257381612536565b840191505092915050565b5f73ffffffffffffffffffffffffffffffffffffffff82169050919050565b5f6125a78261257e565b9050919050565b6125b78161259d565b82525050565b5f610140820190506125d15f83018d6124ff565b81810360208301526125e3818c612546565b905081810360408301526125f7818b612546565b9050612606606083018a6124ff565b81810360808301526126188189612546565b905061262760a08301886124ff565b61263460c08301876125ae565b81810360e08301526126468186612546565b905081810361010083015261265b8185612546565b905061266b6101208301846124ff565b9b9a5050505050505050505050565b6126838161259d565b811461268d575f80fd5b50565b5f8135905061269e8161267a565b92915050565b5f602082840312156126b9576126b8612499565b5b5f6126c684828501612690565b91505092915050565b5f81519050919050565b5f82825260208201905092915050565b5f819050602082019050919050565b612701816124a1565b82525050565b5f82825260208201905092915050565b5f6127218261250e565b61272b8185612707565b935061273b818560208601612528565b61274481612536565b840191505092915050565b6127588161259d565b82525050565b5f61014083015f8301516127745f8601826126f8565b506020830151848203602086015261278c8282612717565b915050604083015184820360408601526127a68282612717565b91505060608301516127bb60608601826126f8565b50608083015184820360808601526127d38282612717565b91505060a08301516127e860a08601826126f8565b5060c08301516127fb60c086018261274f565b5060e083015184820360e08601526128138282612717565b91505061010083015184820361010086015261282f8282612717565b9150506101208301516128466101208601826126f8565b508091505092915050565b5f61285c838361275e565b905092915050565b5f602082019050919050565b5f61287a826126cf565b61288481856126d9565b935083602082028501612896856126e9565b805f5b858110156128d157848403895281516128b28582612851565b94506128bd83612864565b925060208a01995050600181019050612899565b50829750879550505050505092915050565b5f6020820190508181035f8301526128fb8184612870565b905092915050565b5f81519050919050565b5f82825260208201905092915050565b5f819050602082019050919050565b5f612937838361274f565b60208301905092915050565b5f602082019050919050565b5f61295982612903565b612963818561290d565b935061296e8361291d565b805f5b8381101561299e578151612985888261292c565b975061299083612943565b925050600181019050612971565b5085935050505092915050565b5f6020820190508181035f8301526129c3818461294f565b905092915050565b5f80fd5b5f80fd5b7f4e487b71000000000000000000000000000000000000000000000000000000005f52604160045260245ffd5b612a0982612536565b810181811067ffffffffffffffff82111715612a2857612a276129d3565b5b80604052505050565b5f612a3a612490565b9050612a468282612a00565b919050565b5f67ffffffffffffffff821115612a6557612a646129d3565b5b612a6e82612536565b9050602081019050919050565b828183375f83830152505050565b5f612a9b612a9684612a4b565b612a31565b905082815260208101848484011115612ab757612ab66129cf565b5b612ac2848285612a7b565b509392505050565b5f82601f830112612ade57612add6129cb565b5b8135612aee848260208601612a89565b91505092915050565b5f805f8060808587031215612b0f57612b0e612499565b5b5f85013567ffffffffffffffff811115612b2c57612b2b61249d565b5b612b3887828801612aca565b945050602085013567ffffffffffffffff811115612b5957612b5861249d565b5b612b6587828801612aca565b935050604085013567ffffffffffffffff811115612b8657612b8561249d565b5b612b9287828801612aca565b9250506060612ba3878288016124c0565b91505092959194509250565b5f8060408385031215612bc557612bc4612499565b5b5f612bd2858286016124c0565b9250506020612be385828601612690565b9150509250929050565b5f8115159050919050565b612c0181612bed565b82525050565b5f602082019050612c1a5f830184612bf8565b92915050565b5f602082019050612c335f8301846125ae565b92915050565b5f8060408385031215612c4f57612c4e612499565b5b5f612c5c85828601612690565b9250506020612c6d858286016124c0565b9150509250929050565b5f61014083015f830151612c8d5f8601826126f8565b5060208301518482036020860152612ca58282612717565b91505060408301518482036040860152612cbf8282612717565b9150506060830151612cd460608601826126f8565b5060808301518482036080860152612cec8282612717565b91505060a0830151612d0160a08601826126f8565b5060c0830151612d1460c086018261274f565b5060e083015184820360e0860152612d2c8282612717565b915050610100830151848203610100860152612d488282612717565b915050610120830151612d5f6101208601826126f8565b508091505092915050565b5f6020820190508181035f830152612d828184612c77565b905092915050565b5f8060408385031215612da057612d9f612499565b5b5f612dad858286016124c0565b9250506020612dbe858286016124c0565b9150509250929050565b7f4e487b71000000000000000000000000000000000000000000000000000000005f52602260045260245ffd5b5f6002820490506001821680612e0c57607f821691505b602082108103612e1f57612e1e612dc8565b5b50919050565b5f80fd5b5f80fd5b5f612e3f612e3a84612a4b565b612a31565b905082815260208101848484011115612e5b57612e5a6129cf565b5b612e66848285612528565b509392505050565b5f82601f830112612e8257612e816129cb565b5b8151612e92848260208601612e2d565b91505092915050565b612ea481612bed565b8114612eae575f80fd5b50565b5f81519050612ebf81612e9b565b92915050565b5f60808284031215612eda57612ed9612e25565b5b612ee46080612a31565b90505f82015167ffffffffffffffff811115612f0357612f02612e29565b5b612f0f84828501612e6e565b5f83015250602082015167ffffffffffffffff811115612f3257612f31612e29565b5b612f3e84828501612e6e565b602083015250604082015167ffffffffffffffff811115612f6257612f61612e29565b5b612f6e84828501612e6e565b6040830152506060612f8284828501612eb1565b60608301525092915050565b5f60208284031215612fa357612fa2612499565b5b5f82015167ffffffffffffffff811115612fc057612fbf61249d565b5b612fcc84828501612ec5565b91505092915050565b7f596f75206861766520746f2052656769737465726400000000000000000000005f82015250565b5f613009601583612518565b915061301482612fd5565b602082019050919050565b5f6020820190508181035f83015261303681612ffd565b9050919050565b7f596f752061726520616c726561647920566f74656421000000000000000000005f82015250565b5f613071601683612518565b915061307c8261303d565b602082019050919050565b5f6020820190508181035f83015261309e81613065565b9050919050565b7f4e487b71000000000000000000000000000000000000000000000000000000005f52601160045260245ffd5b5f6130dc826124a1565b91506130e7836124a1565b92508282019050808211156130ff576130fe6130a5565b5b92915050565b7f4e487b71000000000000000000000000000000000000000000000000000000005f52603260045260245ffd5b5f6020828403121561314757613146612499565b5b5f82015167ffffffffffffffff8111156131645761316361249d565b5b61317084828501612e6e565b91505092915050565b5f819050815f5260205f209050919050565b5f6020601f8301049050919050565b5f82821b905092915050565b5f600883026131d57fffffffffffffffffffffffffffffffffffffffffffffffffffffffffffffffff8261319a565b6131df868361319a565b95508019841693508086168417925050509392505050565b5f819050919050565b5f61321a613215613210846124a1565b6131f7565b6124a1565b9050919050565b5f819050919050565b61323383613200565b61324761323f82613221565b8484546131a6565b825550505050565b5f90565b61325b61324f565b61326681848461322a565b505050565b5b818110156132895761327e5f82613253565b60018101905061326c565b5050565b601f8211156132ce5761329f81613179565b6132a88461318b565b810160208510156132b7578190505b6132cb6132c38561318b565b83018261326b565b50505b505050565b5f82821c905092915050565b5f6132ee5f19846008026132d3565b1980831691505092915050565b5f61330683836132df565b9150826002028217905092915050565b61331f8261250e565b67ffffffffffffffff811115613338576133376129d3565b5b6133428254612df5565b61334d82828561328d565b5f60209050601f83116001811461337e575f841561336c578287015190505b61337685826132fb565b8655506133dd565b601f19841661338c86613179565b5f5b828110156133b35784890151825560018201915060208501945060208101905061338e565b868310156133d057848901516133cc601f8916826132df565b8355505b6001600288020188555050505b505050505050565b5f815490506133f381612df5565b9050919050565b8181036134085750506134dd565b613411826133e5565b67ffffffffffffffff81111561342a576134296129d3565b5b6134348254612df5565b61343f82828561328d565b5f601f83116001811461346c575f841561345a578287015490505b61346485826132fb565b8655506134d6565b601f19841661347a87613179565b965061348586613179565b5f5b828110156134ac57848901548255600182019150600185019450602081019050613487565b868310156134c957848901546134c5601f8916826132df565b8355505b6001600288020188555050505b5050505050505b565b5f819050919050565b5f6135026134fd6134f8846134df565b6131f7565b6124a1565b9050919050565b613512816134e8565b82525050565b5f60e08201905061352b5f83018a6124ff565b818103602083015261353d8189612546565b905081810360408301526135518188612546565b90506135606060830187613509565b81810360808301526135728186612546565b905061358160a08301856124ff565b61358e60c08301846125ae565b98975050505050505050565b5f6135a4826124a1565b91507fffffffffffffffffffffffffffffffffffffffffffffffffffffffffffffffff82036135d6576135d56130a5565b5b60018201905091905056fea2646970667358221220e98c414e61b5e513d2792d69c13363f1fb4ef7bddc56703107d78ce90c98877564736f6c634300081a0033",
					"opcodes": "PUSH1 0x80 PUSH1 0x40 MSTORE PUSH0 PUSH1 0x2 SSTORE CALLVALUE DUP1 ISZERO PUSH2 0x13 JUMPI PUSH0 DUP1 REVERT JUMPDEST POP PUSH1 0x40 MLOAD PUSH2 0x3892 CODESIZE SUB DUP1 PUSH2 0x3892 DUP4 CODECOPY DUP2 DUP2 ADD PUSH1 0x40 MSTORE DUP2 ADD SWAP1 PUSH2 0x35 SWAP2 SWAP1 PUSH2 0x21B JUMP JUMPDEST CALLER PUSH0 PUSH20 0xFFFFFFFFFFFFFFFFFFFFFFFFFFFFFFFFFFFFFFFF AND DUP2 PUSH20 0xFFFFFFFFFFFFFFFFFFFFFFFFFFFFFFFFFFFFFFFF AND SUB PUSH2 0xA6 JUMPI PUSH0 PUSH1 0x40 MLOAD PUSH32 0x1E4FBDF700000000000000000000000000000000000000000000000000000000 DUP2 MSTORE PUSH1 0x4 ADD PUSH2 0x9D SWAP2 SWAP1 PUSH2 0x255 JUMP JUMPDEST PUSH1 0x40 MLOAD DUP1 SWAP2 SUB SWAP1 REVERT JUMPDEST PUSH2 0xB5 DUP2 PUSH2 0xFC PUSH1 0x20 SHL PUSH1 0x20 SHR JUMP JUMPDEST POP DUP1 PUSH1 0x1 PUSH0 PUSH2 0x100 EXP DUP2 SLOAD DUP2 PUSH20 0xFFFFFFFFFFFFFFFFFFFFFFFFFFFFFFFFFFFFFFFF MUL NOT AND SWAP1 DUP4 PUSH20 0xFFFFFFFFFFFFFFFFFFFFFFFFFFFFFFFFFFFFFFFF AND MUL OR SWAP1 SSTORE POP POP PUSH2 0x26E JUMP JUMPDEST PUSH0 DUP1 PUSH0 SWAP1 SLOAD SWAP1 PUSH2 0x100 EXP SWAP1 DIV PUSH20 0xFFFFFFFFFFFFFFFFFFFFFFFFFFFFFFFFFFFFFFFF AND SWAP1 POP DUP2 PUSH0 DUP1 PUSH2 0x100 EXP DUP2 SLOAD DUP2 PUSH20 0xFFFFFFFFFFFFFFFFFFFFFFFFFFFFFFFFFFFFFFFF MUL NOT AND SWAP1 DUP4 PUSH20 0xFFFFFFFFFFFFFFFFFFFFFFFFFFFFFFFFFFFFFFFF AND MUL OR SWAP1 SSTORE POP DUP2 PUSH20 0xFFFFFFFFFFFFFFFFFFFFFFFFFFFFFFFFFFFFFFFF AND DUP2 PUSH20 0xFFFFFFFFFFFFFFFFFFFFFFFFFFFFFFFFFFFFFFFF AND PUSH32 0x8BE0079C531659141344CD1FD0A4F28419497F9722A3DAAFE3B4186F6B6457E0 PUSH1 0x40 MLOAD PUSH1 0x40 MLOAD DUP1 SWAP2 SUB SWAP1 LOG3 POP POP JUMP JUMPDEST PUSH0 DUP1 REVERT JUMPDEST PUSH0 PUSH20 0xFFFFFFFFFFFFFFFFFFFFFFFFFFFFFFFFFFFFFFFF DUP3 AND SWAP1 POP SWAP2 SWAP1 POP JUMP JUMPDEST PUSH0 PUSH2 0x1EA DUP3 PUSH2 0x1C1 JUMP JUMPDEST SWAP1 POP SWAP2 SWAP1 POP JUMP JUMPDEST PUSH2 0x1FA DUP2 PUSH2 0x1E0 JUMP JUMPDEST DUP2 EQ PUSH2 0x204 JUMPI PUSH0 DUP1 REVERT JUMPDEST POP JUMP JUMPDEST PUSH0 DUP2 MLOAD SWAP1 POP PUSH2 0x215 DUP2 PUSH2 0x1F1 JUMP JUMPDEST SWAP3 SWAP2 POP POP JUMP JUMPDEST PUSH0 PUSH1 0x20 DUP3 DUP5 SUB SLT ISZERO PUSH2 0x230 JUMPI PUSH2 0x22F PUSH2 0x1BD JUMP JUMPDEST JUMPDEST PUSH0 PUSH2 0x23D DUP5 DUP3 DUP6 ADD PUSH2 0x207 JUMP JUMPDEST SWAP2 POP POP SWAP3 SWAP2 POP POP JUMP JUMPDEST PUSH2 0x24F DUP2 PUSH2 0x1E0 JUMP JUMPDEST DUP3 MSTORE POP POP JUMP JUMPDEST PUSH0 PUSH1 0x20 DUP3 ADD SWAP1 POP PUSH2 0x268 PUSH0 DUP4 ADD DUP5 PUSH2 0x246 JUMP JUMPDEST SWAP3 SWAP2 POP POP JUMP JUMPDEST PUSH2 0x3617 DUP1 PUSH2 0x27B PUSH0 CODECOPY PUSH0 RETURN INVALID PUSH1 0x80 PUSH1 0x40 MSTORE CALLVALUE DUP1 ISZERO PUSH2 0xF JUMPI PUSH0 DUP1 REVERT JUMPDEST POP PUSH1 0x4 CALLDATASIZE LT PUSH2 0xE8 JUMPI PUSH0 CALLDATALOAD PUSH1 0xE0 SHR DUP1 PUSH4 0x8DA5CB5B GT PUSH2 0x8A JUMPI DUP1 PUSH4 0xC7F758A8 GT PUSH2 0x64 JUMPI DUP1 PUSH4 0xC7F758A8 EQ PUSH2 0x287 JUMPI DUP1 PUSH4 0xD3856F3B EQ PUSH2 0x2B7 JUMPI DUP1 PUSH4 0xF2FDE38B EQ PUSH2 0x2E7 JUMPI DUP1 PUSH4 0xF30282A1 EQ PUSH2 0x303 JUMPI PUSH2 0xE8 JUMP JUMPDEST DUP1 PUSH4 0x8DA5CB5B EQ PUSH2 0x1F7 JUMPI DUP1 PUSH4 0xBE07D1D9 EQ PUSH2 0x215 JUMPI DUP1 PUSH4 0xC6311E3F EQ PUSH2 0x24E JUMPI PUSH2 0xE8 JUMP JUMPDEST DUP1 PUSH4 0x3FFEFE4E GT PUSH2 0xC6 JUMPI DUP1 PUSH4 0x3FFEFE4E EQ PUSH2 0x171 JUMPI DUP1 PUSH4 0x4C15676B EQ PUSH2 0x1A1 JUMPI DUP1 PUSH4 0x4C50D2FB EQ PUSH2 0x1BD JUMPI DUP1 PUSH4 0x715018A6 EQ PUSH2 0x1ED JUMPI PUSH2 0xE8 JUMP JUMPDEST DUP1 PUSH4 0x13CF08B EQ PUSH2 0xEC JUMPI DUP1 PUSH4 0xF1A9D51 EQ PUSH2 0x125 JUMPI DUP1 PUSH4 0x159428D1 EQ PUSH2 0x141 JUMPI JUMPDEST PUSH0 DUP1 REVERT JUMPDEST PUSH2 0x106 PUSH1 0x4 DUP1 CALLDATASIZE SUB DUP2 ADD SWAP1 PUSH2 0x101 SWAP2 SWAP1 PUSH2 0x24D4 JUMP JUMPDEST PUSH2 0x321 JUMP JUMPDEST PUSH1 0x40 MLOAD PUSH2 0x11C SWAP11 SWAP10 SWAP9 SWAP8 SWAP7 SWAP6 SWAP5 SWAP4 SWAP3 SWAP2 SWAP1 PUSH2 0x25BD JUMP JUMPDEST PUSH1 0x40 MLOAD DUP1 SWAP2 SUB SWAP1 RETURN JUMPDEST PUSH2 0x13F PUSH1 0x4 DUP1 CALLDATASIZE SUB DUP2 ADD SWAP1 PUSH2 0x13A SWAP2 SWAP1 PUSH2 0x24D4 JUMP JUMPDEST PUSH2 0x62E JUMP JUMPDEST STOP JUMPDEST PUSH2 0x15B PUSH1 0x4 DUP1 CALLDATASIZE SUB DUP2 ADD SWAP1 PUSH2 0x156 SWAP2 SWAP1 PUSH2 0x26A4 JUMP JUMPDEST PUSH2 0x979 JUMP JUMPDEST PUSH1 0x40 MLOAD PUSH2 0x168 SWAP2 SWAP1 PUSH2 0x28E3 JUMP JUMPDEST PUSH1 0x40 MLOAD DUP1 SWAP2 SUB SWAP1 RETURN JUMPDEST PUSH2 0x18B PUSH1 0x4 DUP1 CALLDATASIZE SUB DUP2 ADD SWAP1 PUSH2 0x186 SWAP2 SWAP1 PUSH2 0x24D4 JUMP JUMPDEST PUSH2 0xD5F JUMP JUMPDEST PUSH1 0x40 MLOAD PUSH2 0x198 SWAP2 SWAP1 PUSH2 0x29AB JUMP JUMPDEST PUSH1 0x40 MLOAD DUP1 SWAP2 SUB SWAP1 RETURN JUMPDEST PUSH2 0x1BB PUSH1 0x4 DUP1 CALLDATASIZE SUB DUP2 ADD SWAP1 PUSH2 0x1B6 SWAP2 SWAP1 PUSH2 0x2AF7 JUMP JUMPDEST PUSH2 0xDFB JUMP JUMPDEST STOP JUMPDEST PUSH2 0x1D7 PUSH1 0x4 DUP1 CALLDATASIZE SUB DUP2 ADD SWAP1 PUSH2 0x1D2 SWAP2 SWAP1 PUSH2 0x2BAF JUMP JUMPDEST PUSH2 0x1449 JUMP JUMPDEST PUSH1 0x40 MLOAD PUSH2 0x1E4 SWAP2 SWAP1 PUSH2 0x2C07 JUMP JUMPDEST PUSH1 0x40 MLOAD DUP1 SWAP2 SUB SWAP1 RETURN JUMPDEST PUSH2 0x1F5 PUSH2 0x1473 JUMP JUMPDEST STOP JUMPDEST PUSH2 0x1FF PUSH2 0x1486 JUMP JUMPDEST PUSH1 0x40 MLOAD PUSH2 0x20C SWAP2 SWAP1 PUSH2 0x2C20 JUMP JUMPDEST PUSH1 0x40 MLOAD DUP1 SWAP2 SUB SWAP1 RETURN JUMPDEST PUSH2 0x22F PUSH1 0x4 DUP1 CALLDATASIZE SUB DUP2 ADD SWAP1 PUSH2 0x22A SWAP2 SWAP1 PUSH2 0x2C39 JUMP JUMPDEST PUSH2 0x14AD JUMP JUMPDEST PUSH1 0x40 MLOAD PUSH2 0x245 SWAP11 SWAP10 SWAP9 SWAP8 SWAP7 SWAP6 SWAP5 SWAP4 SWAP3 SWAP2 SWAP1 PUSH2 0x25BD JUMP JUMPDEST PUSH1 0x40 MLOAD DUP1 SWAP2 SUB SWAP1 RETURN JUMPDEST PUSH2 0x268 PUSH1 0x4 DUP1 CALLDATASIZE SUB DUP2 ADD SWAP1 PUSH2 0x263 SWAP2 SWAP1 PUSH2 0x24D4 JUMP JUMPDEST PUSH2 0x17D4 JUMP JUMPDEST PUSH1 0x40 MLOAD PUSH2 0x27E SWAP11 SWAP10 SWAP9 SWAP8 SWAP7 SWAP6 SWAP5 SWAP4 SWAP3 SWAP2 SWAP1 PUSH2 0x25BD JUMP JUMPDEST PUSH1 0x40 MLOAD DUP1 SWAP2 SUB SWAP1 RETURN JUMPDEST PUSH2 0x2A1 PUSH1 0x4 DUP1 CALLDATASIZE SUB DUP2 ADD SWAP1 PUSH2 0x29C SWAP2 SWAP1 PUSH2 0x24D4 JUMP JUMPDEST PUSH2 0x1AF0 JUMP JUMPDEST PUSH1 0x40 MLOAD PUSH2 0x2AE SWAP2 SWAP1 PUSH2 0x2D6A JUMP JUMPDEST PUSH1 0x40 MLOAD DUP1 SWAP2 SUB SWAP1 RETURN JUMPDEST PUSH2 0x2D1 PUSH1 0x4 DUP1 CALLDATASIZE SUB DUP2 ADD SWAP1 PUSH2 0x2CC SWAP2 SWAP1 PUSH2 0x2D8A JUMP JUMPDEST PUSH2 0x1E68 JUMP JUMPDEST PUSH1 0x40 MLOAD PUSH2 0x2DE SWAP2 SWAP1 PUSH2 0x2C20 JUMP JUMPDEST PUSH1 0x40 MLOAD DUP1 SWAP2 SUB SWAP1 RETURN JUMPDEST PUSH2 0x301 PUSH1 0x4 DUP1 CALLDATASIZE SUB DUP2 ADD SWAP1 PUSH2 0x2FC SWAP2 SWAP1 PUSH2 0x26A4 JUMP JUMPDEST PUSH2 0x1EB0 JUMP JUMPDEST STOP JUMPDEST PUSH2 0x30B PUSH2 0x1F34 JUMP JUMPDEST PUSH1 0x40 MLOAD PUSH2 0x318 SWAP2 SWAP1 PUSH2 0x28E3 JUMP JUMPDEST PUSH1 0x40 MLOAD DUP1 SWAP2 SUB SWAP1 RETURN JUMPDEST PUSH1 0x4 PUSH1 0x20 MSTORE DUP1 PUSH0 MSTORE PUSH1 0x40 PUSH0 KECCAK256 PUSH0 SWAP2 POP SWAP1 POP DUP1 PUSH0 ADD SLOAD SWAP1 DUP1 PUSH1 0x1 ADD DUP1 SLOAD PUSH2 0x346 SWAP1 PUSH2 0x2DF5 JUMP JUMPDEST DUP1 PUSH1 0x1F ADD PUSH1 0x20 DUP1 SWAP2 DIV MUL PUSH1 0x20 ADD PUSH1 0x40 MLOAD SWAP1 DUP2 ADD PUSH1 0x40 MSTORE DUP1 SWAP3 SWAP2 SWAP1 DUP2 DUP2 MSTORE PUSH1 0x20 ADD DUP3 DUP1 SLOAD PUSH2 0x372 SWAP1 PUSH2 0x2DF5 JUMP JUMPDEST DUP1 ISZERO PUSH2 0x3BD JUMPI DUP1 PUSH1 0x1F LT PUSH2 0x394 JUMPI PUSH2 0x100 DUP1 DUP4 SLOAD DIV MUL DUP4 MSTORE SWAP2 PUSH1 0x20 ADD SWAP2 PUSH2 0x3BD JUMP JUMPDEST DUP3 ADD SWAP2 SWAP1 PUSH0 MSTORE PUSH1 0x20 PUSH0 KECCAK256 SWAP1 JUMPDEST DUP2 SLOAD DUP2 MSTORE SWAP1 PUSH1 0x1 ADD SWAP1 PUSH1 0x20 ADD DUP1 DUP4 GT PUSH2 0x3A0 JUMPI DUP3 SWAP1 SUB PUSH1 0x1F AND DUP3 ADD SWAP2 JUMPDEST POP POP POP POP POP SWAP1 DUP1 PUSH1 0x2 ADD DUP1 SLOAD PUSH2 0x3D2 SWAP1 PUSH2 0x2DF5 JUMP JUMPDEST DUP1 PUSH1 0x1F ADD PUSH1 0x20 DUP1 SWAP2 DIV MUL PUSH1 0x20 ADD PUSH1 0x40 MLOAD SWAP1 DUP2 ADD PUSH1 0x40 MSTORE DUP1 SWAP3 SWAP2 SWAP1 DUP2 DUP2 MSTORE PUSH1 0x20 ADD DUP3 DUP1 SLOAD PUSH2 0x3FE SWAP1 PUSH2 0x2DF5 JUMP JUMPDEST DUP1 ISZERO PUSH2 0x449 JUMPI DUP1 PUSH1 0x1F LT PUSH2 0x420 JUMPI PUSH2 0x100 DUP1 DUP4 SLOAD DIV MUL DUP4 MSTORE SWAP2 PUSH1 0x20 ADD SWAP2 PUSH2 0x449 JUMP JUMPDEST DUP3 ADD SWAP2 SWAP1 PUSH0 MSTORE PUSH1 0x20 PUSH0 KECCAK256 SWAP1 JUMPDEST DUP2 SLOAD DUP2 MSTORE SWAP1 PUSH1 0x1 ADD SWAP1 PUSH1 0x20 ADD DUP1 DUP4 GT PUSH2 0x42C JUMPI DUP3 SWAP1 SUB PUSH1 0x1F AND DUP3 ADD SWAP2 JUMPDEST POP POP POP POP POP SWAP1 DUP1 PUSH1 0x3 ADD SLOAD SWAP1 DUP1 PUSH1 0x4 ADD DUP1 SLOAD PUSH2 0x464 SWAP1 PUSH2 0x2DF5 JUMP JUMPDEST DUP1 PUSH1 0x1F ADD PUSH1 0x20 DUP1 SWAP2 DIV MUL PUSH1 0x20 ADD PUSH1 0x40 MLOAD SWAP1 DUP2 ADD PUSH1 0x40 MSTORE DUP1 SWAP3 SWAP2 SWAP1 DUP2 DUP2 MSTORE PUSH1 0x20 ADD DUP3 DUP1 SLOAD PUSH2 0x490 SWAP1 PUSH2 0x2DF5 JUMP JUMPDEST DUP1 ISZERO PUSH2 0x4DB JUMPI DUP1 PUSH1 0x1F LT PUSH2 0x4B2 JUMPI PUSH2 0x100 DUP1 DUP4 SLOAD DIV MUL DUP4 MSTORE SWAP2 PUSH1 0x20 ADD SWAP2 PUSH2 0x4DB JUMP JUMPDEST DUP3 ADD SWAP2 SWAP1 PUSH0 MSTORE PUSH1 0x20 PUSH0 KECCAK256 SWAP1 JUMPDEST DUP2 SLOAD DUP2 MSTORE SWAP1 PUSH1 0x1 ADD SWAP1 PUSH1 0x20 ADD DUP1 DUP4 GT PUSH2 0x4BE JUMPI DUP3 SWAP1 SUB PUSH1 0x1F AND DUP3 ADD SWAP2 JUMPDEST POP POP POP POP POP SWAP1 DUP1 PUSH1 0x5 ADD SLOAD SWAP1 DUP1 PUSH1 0x6 ADD PUSH0 SWAP1 SLOAD SWAP1 PUSH2 0x100 EXP SWAP1 DIV PUSH20 0xFFFFFFFFFFFFFFFFFFFFFFFFFFFFFFFFFFFFFFFF AND SWAP1 DUP1 PUSH1 0x7 ADD DUP1 SLOAD PUSH2 0x51B SWAP1 PUSH2 0x2DF5 JUMP JUMPDEST DUP1 PUSH1 0x1F ADD PUSH1 0x20 DUP1 SWAP2 DIV MUL PUSH1 0x20 ADD PUSH1 0x40 MLOAD SWAP1 DUP2 ADD PUSH1 0x40 MSTORE DUP1 SWAP3 SWAP2 SWAP1 DUP2 DUP2 MSTORE PUSH1 0x20 ADD DUP3 DUP1 SLOAD PUSH2 0x547 SWAP1 PUSH2 0x2DF5 JUMP JUMPDEST DUP1 ISZERO PUSH2 0x592 JUMPI DUP1 PUSH1 0x1F LT PUSH2 0x569 JUMPI PUSH2 0x100 DUP1 DUP4 SLOAD DIV MUL DUP4 MSTORE SWAP2 PUSH1 0x20 ADD SWAP2 PUSH2 0x592 JUMP JUMPDEST DUP3 ADD SWAP2 SWAP1 PUSH0 MSTORE PUSH1 0x20 PUSH0 KECCAK256 SWAP1 JUMPDEST DUP2 SLOAD DUP2 MSTORE SWAP1 PUSH1 0x1 ADD SWAP1 PUSH1 0x20 ADD DUP1 DUP4 GT PUSH2 0x575 JUMPI DUP3 SWAP1 SUB PUSH1 0x1F AND DUP3 ADD SWAP2 JUMPDEST POP POP POP POP POP SWAP1 DUP1 PUSH1 0x8 ADD DUP1 SLOAD PUSH2 0x5A7 SWAP1 PUSH2 0x2DF5 JUMP JUMPDEST DUP1 PUSH1 0x1F ADD PUSH1 0x20 DUP1 SWAP2 DIV MUL PUSH1 0x20 ADD PUSH1 0x40 MLOAD SWAP1 DUP2 ADD PUSH1 0x40 MSTORE DUP1 SWAP3 SWAP2 SWAP1 DUP2 DUP2 MSTORE PUSH1 0x20 ADD DUP3 DUP1 SLOAD PUSH2 0x5D3 SWAP1 PUSH2 0x2DF5 JUMP JUMPDEST DUP1 ISZERO PUSH2 0x61E JUMPI DUP1 PUSH1 0x1F LT PUSH2 0x5F5 JUMPI PUSH2 0x100 DUP1 DUP4 SLOAD DIV MUL DUP4 MSTORE SWAP2 PUSH1 0x20 ADD SWAP2 PUSH2 0x61E JUMP JUMPDEST DUP3 ADD SWAP2 SWAP1 PUSH0 MSTORE PUSH1 0x20 PUSH0 KECCAK256 SWAP1 JUMPDEST DUP2 SLOAD DUP2 MSTORE SWAP1 PUSH1 0x1 ADD SWAP1 PUSH1 0x20 ADD DUP1 DUP4 GT PUSH2 0x601 JUMPI DUP3 SWAP1 SUB PUSH1 0x1F AND DUP3 ADD SWAP2 JUMPDEST POP POP POP POP POP SWAP1 DUP1 PUSH1 0x9 ADD SLOAD SWAP1 POP DUP11 JUMP JUMPDEST PUSH0 PUSH1 0x1 PUSH0 SWAP1 SLOAD SWAP1 PUSH2 0x100 EXP SWAP1 DIV PUSH20 0xFFFFFFFFFFFFFFFFFFFFFFFFFFFFFFFFFFFFFFFF AND PUSH20 0xFFFFFFFFFFFFFFFFFFFFFFFFFFFFFFFFFFFFFFFF AND PUSH4 0xF53A470 CALLER PUSH1 0x40 MLOAD DUP3 PUSH4 0xFFFFFFFF AND PUSH1 0xE0 SHL DUP2 MSTORE PUSH1 0x4 ADD PUSH2 0x689 SWAP2 SWAP1 PUSH2 0x2C20 JUMP JUMPDEST PUSH0 PUSH1 0x40 MLOAD DUP1 DUP4 SUB DUP2 DUP7 GAS STATICCALL ISZERO DUP1 ISZERO PUSH2 0x6A3 JUMPI RETURNDATASIZE PUSH0 DUP1 RETURNDATACOPY RETURNDATASIZE PUSH0 REVERT JUMPDEST POP POP POP POP PUSH1 0x40 MLOAD RETURNDATASIZE PUSH0 DUP3 RETURNDATACOPY RETURNDATASIZE PUSH1 0x1F NOT PUSH1 0x1F DUP3 ADD AND DUP3 ADD DUP1 PUSH1 0x40 MSTORE POP DUP2 ADD SWAP1 PUSH2 0x6CB SWAP2 SWAP1 PUSH2 0x2F8E JUMP JUMPDEST SWAP1 POP DUP1 PUSH1 0x60 ADD MLOAD PUSH2 0x711 JUMPI PUSH1 0x40 MLOAD PUSH32 0x8C379A000000000000000000000000000000000000000000000000000000000 DUP2 MSTORE PUSH1 0x4 ADD PUSH2 0x708 SWAP1 PUSH2 0x301F JUMP JUMPDEST PUSH1 0x40 MLOAD DUP1 SWAP2 SUB SWAP1 REVERT JUMPDEST DUP2 PUSH1 0x5 PUSH0 DUP3 DUP2 MSTORE PUSH1 0x20 ADD SWAP1 DUP2 MSTORE PUSH1 0x20 ADD PUSH0 KECCAK256 PUSH0 CALLER PUSH20 0xFFFFFFFFFFFFFFFFFFFFFFFFFFFFFFFFFFFFFFFF AND PUSH20 0xFFFFFFFFFFFFFFFFFFFFFFFFFFFFFFFFFFFFFFFF AND DUP2 MSTORE PUSH1 0x20 ADD SWAP1 DUP2 MSTORE PUSH1 0x20 ADD PUSH0 KECCAK256 PUSH0 SWAP1 SLOAD SWAP1 PUSH2 0x100 EXP SWAP1 DIV PUSH1 0xFF AND ISZERO PUSH2 0x7AB JUMPI PUSH1 0x40 MLOAD PUSH32 0x8C379A000000000000000000000000000000000000000000000000000000000 DUP2 MSTORE PUSH1 0x4 ADD PUSH2 0x7A2 SWAP1 PUSH2 0x3087 JUMP JUMPDEST PUSH1 0x40 MLOAD DUP1 SWAP2 SUB SWAP1 REVERT JUMPDEST PUSH1 0x1 PUSH1 0x4 PUSH0 DUP6 DUP2 MSTORE PUSH1 0x20 ADD SWAP1 DUP2 MSTORE PUSH1 0x20 ADD PUSH0 KECCAK256 PUSH1 0x3 ADD PUSH0 DUP3 DUP3 SLOAD PUSH2 0x7CF SWAP2 SWAP1 PUSH2 0x30D2 JUMP JUMPDEST SWAP3 POP POP DUP2 SWAP1 SSTORE POP PUSH1 0x4 PUSH0 DUP5 DUP2 MSTORE PUSH1 0x20 ADD SWAP1 DUP2 MSTORE PUSH1 0x20 ADD PUSH0 KECCAK256 PUSH1 0x3 ADD SLOAD PUSH1 0x7 DUP5 DUP2 SLOAD DUP2 LT PUSH2 0x7FF JUMPI PUSH2 0x7FE PUSH2 0x3105 JUMP JUMPDEST JUMPDEST SWAP1 PUSH0 MSTORE PUSH1 0x20 PUSH0 KECCAK256 SWAP1 PUSH1 0xA MUL ADD PUSH1 0x3 ADD DUP2 SWAP1 SSTORE POP PUSH1 0x1 PUSH1 0x5 PUSH0 DUP6 DUP2 MSTORE PUSH1 0x20 ADD SWAP1 DUP2 MSTORE PUSH1 0x20 ADD PUSH0 KECCAK256 PUSH0 CALLER PUSH20 0xFFFFFFFFFFFFFFFFFFFFFFFFFFFFFFFFFFFFFFFF AND PUSH20 0xFFFFFFFFFFFFFFFFFFFFFFFFFFFFFFFFFFFFFFFF AND DUP2 MSTORE PUSH1 0x20 ADD SWAP1 DUP2 MSTORE PUSH1 0x20 ADD PUSH0 KECCAK256 PUSH0 PUSH2 0x100 EXP DUP2 SLOAD DUP2 PUSH1 0xFF MUL NOT AND SWAP1 DUP4 ISZERO ISZERO MUL OR SWAP1 SSTORE POP PUSH1 0x6 PUSH0 DUP5 DUP2 MSTORE PUSH1 0x20 ADD SWAP1 DUP2 MSTORE PUSH1 0x20 ADD PUSH0 KECCAK256 CALLER SWAP1 DUP1 PUSH1 0x1 DUP2 SLOAD ADD DUP1 DUP3 SSTORE DUP1 SWAP2 POP POP PUSH1 0x1 SWAP1 SUB SWAP1 PUSH0 MSTORE PUSH1 0x20 PUSH0 KECCAK256 ADD PUSH0 SWAP1 SWAP2 SWAP1 SWAP2 SWAP1 SWAP2 PUSH2 0x100 EXP DUP2 SLOAD DUP2 PUSH20 0xFFFFFFFFFFFFFFFFFFFFFFFFFFFFFFFFFFFFFFFF MUL NOT AND SWAP1 DUP4 PUSH20 0xFFFFFFFFFFFFFFFFFFFFFFFFFFFFFFFFFFFFFFFF AND MUL OR SWAP1 SSTORE POP PUSH32 0x3819D91B2EFA54F01EE20099DA12A4EF79FEC68F323D52F38368F3E72A695ACC PUSH1 0x5 PUSH0 DUP6 DUP2 MSTORE PUSH1 0x20 ADD SWAP1 DUP2 MSTORE PUSH1 0x20 ADD PUSH0 KECCAK256 PUSH0 CALLER PUSH20 0xFFFFFFFFFFFFFFFFFFFFFFFFFFFFFFFFFFFFFFFF AND PUSH20 0xFFFFFFFFFFFFFFFFFFFFFFFFFFFFFFFFFFFFFFFF AND DUP2 MSTORE PUSH1 0x20 ADD SWAP1 DUP2 MSTORE PUSH1 0x20 ADD PUSH0 KECCAK256 PUSH0 SWAP1 SLOAD SWAP1 PUSH2 0x100 EXP SWAP1 DIV PUSH1 0xFF AND PUSH1 0x40 MLOAD PUSH2 0x96C SWAP2 SWAP1 PUSH2 0x2C07 JUMP JUMPDEST PUSH1 0x40 MLOAD DUP1 SWAP2 SUB SWAP1 LOG1 POP POP POP JUMP JUMPDEST PUSH1 0x60 PUSH1 0x3 PUSH0 DUP4 PUSH20 0xFFFFFFFFFFFFFFFFFFFFFFFFFFFFFFFFFFFFFFFF AND PUSH20 0xFFFFFFFFFFFFFFFFFFFFFFFFFFFFFFFFFFFFFFFF AND DUP2 MSTORE PUSH1 0x20 ADD SWAP1 DUP2 MSTORE PUSH1 0x20 ADD PUSH0 KECCAK256 DUP1 SLOAD DUP1 PUSH1 0x20 MUL PUSH1 0x20 ADD PUSH1 0x40 MLOAD SWAP1 DUP2 ADD PUSH1 0x40 MSTORE DUP1 SWAP3 SWAP2 SWAP1 DUP2 DUP2 MSTORE PUSH1 0x20 ADD PUSH0 SWAP1 JUMPDEST DUP3 DUP3 LT ISZERO PUSH2 0xD54 JUMPI DUP4 DUP3 SWAP1 PUSH0 MSTORE PUSH1 0x20 PUSH0 KECCAK256 SWAP1 PUSH1 0xA MUL ADD PUSH1 0x40 MLOAD DUP1 PUSH2 0x140 ADD PUSH1 0x40 MSTORE SWAP1 DUP2 PUSH0 DUP3 ADD SLOAD DUP2 MSTORE PUSH1 0x20 ADD PUSH1 0x1 DUP3 ADD DUP1 SLOAD PUSH2 0xA12 SWAP1 PUSH2 0x2DF5 JUMP JUMPDEST DUP1 PUSH1 0x1F ADD PUSH1 0x20 DUP1 SWAP2 DIV MUL PUSH1 0x20 ADD PUSH1 0x40 MLOAD SWAP1 DUP2 ADD PUSH1 0x40 MSTORE DUP1 SWAP3 SWAP2 SWAP1 DUP2 DUP2 MSTORE PUSH1 0x20 ADD DUP3 DUP1 SLOAD PUSH2 0xA3E SWAP1 PUSH2 0x2DF5 JUMP JUMPDEST DUP1 ISZERO PUSH2 0xA89 JUMPI DUP1 PUSH1 0x1F LT PUSH2 0xA60 JUMPI PUSH2 0x100 DUP1 DUP4 SLOAD DIV MUL DUP4 MSTORE SWAP2 PUSH1 0x20 ADD SWAP2 PUSH2 0xA89 JUMP JUMPDEST DUP3 ADD SWAP2 SWAP1 PUSH0 MSTORE PUSH1 0x20 PUSH0 KECCAK256 SWAP1 JUMPDEST DUP2 SLOAD DUP2 MSTORE SWAP1 PUSH1 0x1 ADD SWAP1 PUSH1 0x20 ADD DUP1 DUP4 GT PUSH2 0xA6C JUMPI DUP3 SWAP1 SUB PUSH1 0x1F AND DUP3 ADD SWAP2 JUMPDEST POP POP POP POP POP DUP2 MSTORE PUSH1 0x20 ADD PUSH1 0x2 DUP3 ADD DUP1 SLOAD PUSH2 0xAA2 SWAP1 PUSH2 0x2DF5 JUMP JUMPDEST DUP1 PUSH1 0x1F ADD PUSH1 0x20 DUP1 SWAP2 DIV MUL PUSH1 0x20 ADD PUSH1 0x40 MLOAD SWAP1 DUP2 ADD PUSH1 0x40 MSTORE DUP1 SWAP3 SWAP2 SWAP1 DUP2 DUP2 MSTORE PUSH1 0x20 ADD DUP3 DUP1 SLOAD PUSH2 0xACE SWAP1 PUSH2 0x2DF5 JUMP JUMPDEST DUP1 ISZERO PUSH2 0xB19 JUMPI DUP1 PUSH1 0x1F LT PUSH2 0xAF0 JUMPI PUSH2 0x100 DUP1 DUP4 SLOAD DIV MUL DUP4 MSTORE SWAP2 PUSH1 0x20 ADD SWAP2 PUSH2 0xB19 JUMP JUMPDEST DUP3 ADD SWAP2 SWAP1 PUSH0 MSTORE PUSH1 0x20 PUSH0 KECCAK256 SWAP1 JUMPDEST DUP2 SLOAD DUP2 MSTORE SWAP1 PUSH1 0x1 ADD SWAP1 PUSH1 0x20 ADD DUP1 DUP4 GT PUSH2 0xAFC JUMPI DUP3 SWAP1 SUB PUSH1 0x1F AND DUP3 ADD SWAP2 JUMPDEST POP POP POP POP POP DUP2 MSTORE PUSH1 0x20 ADD PUSH1 0x3 DUP3 ADD SLOAD DUP2 MSTORE PUSH1 0x20 ADD PUSH1 0x4 DUP3 ADD DUP1 SLOAD PUSH2 0xB3C SWAP1 PUSH2 0x2DF5 JUMP JUMPDEST DUP1 PUSH1 0x1F ADD PUSH1 0x20 DUP1 SWAP2 DIV MUL PUSH1 0x20 ADD PUSH1 0x40 MLOAD SWAP1 DUP2 ADD PUSH1 0x40 MSTORE DUP1 SWAP3 SWAP2 SWAP1 DUP2 DUP2 MSTORE PUSH1 0x20 ADD DUP3 DUP1 SLOAD PUSH2 0xB68 SWAP1 PUSH2 0x2DF5 JUMP JUMPDEST DUP1 ISZERO PUSH2 0xBB3 JUMPI DUP1 PUSH1 0x1F LT PUSH2 0xB8A JUMPI PUSH2 0x100 DUP1 DUP4 SLOAD DIV MUL DUP4 MSTORE SWAP2 PUSH1 0x20 ADD SWAP2 PUSH2 0xBB3 JUMP JUMPDEST DUP3 ADD SWAP2 SWAP1 PUSH0 MSTORE PUSH1 0x20 PUSH0 KECCAK256 SWAP1 JUMPDEST DUP2 SLOAD DUP2 MSTORE SWAP1 PUSH1 0x1 ADD SWAP1 PUSH1 0x20 ADD DUP1 DUP4 GT PUSH2 0xB96 JUMPI DUP3 SWAP1 SUB PUSH1 0x1F AND DUP3 ADD SWAP2 JUMPDEST POP POP POP POP POP DUP2 MSTORE PUSH1 0x20 ADD PUSH1 0x5 DUP3 ADD SLOAD DUP2 MSTORE PUSH1 0x20 ADD PUSH1 0x6 DUP3 ADD PUSH0 SWAP1 SLOAD SWAP1 PUSH2 0x100 EXP SWAP1 DIV PUSH20 0xFFFFFFFFFFFFFFFFFFFFFFFFFFFFFFFFFFFFFFFF AND PUSH20 0xFFFFFFFFFFFFFFFFFFFFFFFFFFFFFFFFFFFFFFFF AND PUSH20 0xFFFFFFFFFFFFFFFFFFFFFFFFFFFFFFFFFFFFFFFF AND DUP2 MSTORE PUSH1 0x20 ADD PUSH1 0x7 DUP3 ADD DUP1 SLOAD PUSH2 0xC2B SWAP1 PUSH2 0x2DF5 JUMP JUMPDEST DUP1 PUSH1 0x1F ADD PUSH1 0x20 DUP1 SWAP2 DIV MUL PUSH1 0x20 ADD PUSH1 0x40 MLOAD SWAP1 DUP2 ADD PUSH1 0x40 MSTORE DUP1 SWAP3 SWAP2 SWAP1 DUP2 DUP2 MSTORE PUSH1 0x20 ADD DUP3 DUP1 SLOAD PUSH2 0xC57 SWAP1 PUSH2 0x2DF5 JUMP JUMPDEST DUP1 ISZERO PUSH2 0xCA2 JUMPI DUP1 PUSH1 0x1F LT PUSH2 0xC79 JUMPI PUSH2 0x100 DUP1 DUP4 SLOAD DIV MUL DUP4 MSTORE SWAP2 PUSH1 0x20 ADD SWAP2 PUSH2 0xCA2 JUMP JUMPDEST DUP3 ADD SWAP2 SWAP1 PUSH0 MSTORE PUSH1 0x20 PUSH0 KECCAK256 SWAP1 JUMPDEST DUP2 SLOAD DUP2 MSTORE SWAP1 PUSH1 0x1 ADD SWAP1 PUSH1 0x20 ADD DUP1 DUP4 GT PUSH2 0xC85 JUMPI DUP3 SWAP1 SUB PUSH1 0x1F AND DUP3 ADD SWAP2 JUMPDEST POP POP POP POP POP DUP2 MSTORE PUSH1 0x20 ADD PUSH1 0x8 DUP3 ADD DUP1 SLOAD PUSH2 0xCBB SWAP1 PUSH2 0x2DF5 JUMP JUMPDEST DUP1 PUSH1 0x1F ADD PUSH1 0x20 DUP1 SWAP2 DIV MUL PUSH1 0x20 ADD PUSH1 0x40 MLOAD SWAP1 DUP2 ADD PUSH1 0x40 MSTORE DUP1 SWAP3 SWAP2 SWAP1 DUP2 DUP2 MSTORE PUSH1 0x20 ADD DUP3 DUP1 SLOAD PUSH2 0xCE7 SWAP1 PUSH2 0x2DF5 JUMP JUMPDEST DUP1 ISZERO PUSH2 0xD32 JUMPI DUP1 PUSH1 0x1F LT PUSH2 0xD09 JUMPI PUSH2 0x100 DUP1 DUP4 SLOAD DIV MUL DUP4 MSTORE SWAP2 PUSH1 0x20 ADD SWAP2 PUSH2 0xD32 JUMP JUMPDEST DUP3 ADD SWAP2 SWAP1 PUSH0 MSTORE PUSH1 0x20 PUSH0 KECCAK256 SWAP1 JUMPDEST DUP2 SLOAD DUP2 MSTORE SWAP1 PUSH1 0x1 ADD SWAP1 PUSH1 0x20 ADD DUP1 DUP4 GT PUSH2 0xD15 JUMPI DUP3 SWAP1 SUB PUSH1 0x1F AND DUP3 ADD SWAP2 JUMPDEST POP POP POP POP POP DUP2 MSTORE PUSH1 0x20 ADD PUSH1 0x9 DUP3 ADD SLOAD DUP2 MSTORE POP POP DUP2 MSTORE PUSH1 0x20 ADD SWAP1 PUSH1 0x1 ADD SWAP1 PUSH2 0x9D7 JUMP JUMPDEST POP POP POP POP SWAP1 POP SWAP2 SWAP1 POP JUMP JUMPDEST PUSH1 0x60 PUSH1 0x6 PUSH0 DUP4 DUP2 MSTORE PUSH1 0x20 ADD SWAP1 DUP2 MSTORE PUSH1 0x20 ADD PUSH0 KECCAK256 DUP1 SLOAD DUP1 PUSH1 0x20 MUL PUSH1 0x20 ADD PUSH1 0x40 MLOAD SWAP1 DUP2 ADD PUSH1 0x40 MSTORE DUP1 SWAP3 SWAP2 SWAP1 DUP2 DUP2 MSTORE PUSH1 0x20 ADD DUP3 DUP1 SLOAD DUP1 ISZERO PUSH2 0xDEF JUMPI PUSH1 0x20 MUL DUP3 ADD SWAP2 SWAP1 PUSH0 MSTORE PUSH1 0x20 PUSH0 KECCAK256 SWAP1 JUMPDEST DUP2 PUSH0 SWAP1 SLOAD SWAP1 PUSH2 0x100 EXP SWAP1 DIV PUSH20 0xFFFFFFFFFFFFFFFFFFFFFFFFFFFFFFFFFFFFFFFF AND PUSH20 0xFFFFFFFFFFFFFFFFFFFFFFFFFFFFFFFFFFFFFFFF AND DUP2 MSTORE PUSH1 0x20 ADD SWAP1 PUSH1 0x1 ADD SWAP1 DUP1 DUP4 GT PUSH2 0xDA6 JUMPI JUMPDEST POP POP POP POP POP SWAP1 POP SWAP2 SWAP1 POP JUMP JUMPDEST PUSH0 PUSH1 0x1 PUSH0 SWAP1 SLOAD SWAP1 PUSH2 0x100 EXP SWAP1 DIV PUSH20 0xFFFFFFFFFFFFFFFFFFFFFFFFFFFFFFFFFFFFFFFF AND PUSH20 0xFFFFFFFFFFFFFFFFFFFFFFFFFFFFFFFFFFFFFFFF AND PUSH4 0xF53A470 CALLER PUSH1 0x40 MLOAD DUP3 PUSH4 0xFFFFFFFF AND PUSH1 0xE0 SHL DUP2 MSTORE PUSH1 0x4 ADD PUSH2 0xE56 SWAP2 SWAP1 PUSH2 0x2C20 JUMP JUMPDEST PUSH0 PUSH1 0x40 MLOAD DUP1 DUP4 SUB DUP2 DUP7 GAS STATICCALL ISZERO DUP1 ISZERO PUSH2 0xE70 JUMPI RETURNDATASIZE PUSH0 DUP1 RETURNDATACOPY RETURNDATASIZE PUSH0 REVERT JUMPDEST POP POP POP POP PUSH1 0x40 MLOAD RETURNDATASIZE PUSH0 DUP3 RETURNDATACOPY RETURNDATASIZE PUSH1 0x1F NOT PUSH1 0x1F DUP3 ADD AND DUP3 ADD DUP1 PUSH1 0x40 MSTORE POP DUP2 ADD SWAP1 PUSH2 0xE98 SWAP2 SWAP1 PUSH2 0x2F8E JUMP JUMPDEST SWAP1 POP DUP1 PUSH1 0x60 ADD MLOAD PUSH2 0xEDE JUMPI PUSH1 0x40 MLOAD PUSH32 0x8C379A000000000000000000000000000000000000000000000000000000000 DUP2 MSTORE PUSH1 0x4 ADD PUSH2 0xED5 SWAP1 PUSH2 0x301F JUMP JUMPDEST PUSH1 0x40 MLOAD DUP1 SWAP2 SUB SWAP1 REVERT JUMPDEST PUSH0 PUSH1 0x1 PUSH0 SWAP1 SLOAD SWAP1 PUSH2 0x100 EXP SWAP1 DIV PUSH20 0xFFFFFFFFFFFFFFFFFFFFFFFFFFFFFFFFFFFFFFFF AND PUSH20 0xFFFFFFFFFFFFFFFFFFFFFFFFFFFFFFFFFFFFFFFF AND PUSH4 0x4386432 CALLER PUSH1 0x40 MLOAD DUP3 PUSH4 0xFFFFFFFF AND PUSH1 0xE0 SHL DUP2 MSTORE PUSH1 0x4 ADD PUSH2 0xF39 SWAP2 SWAP1 PUSH2 0x2C20 JUMP JUMPDEST PUSH0 PUSH1 0x40 MLOAD DUP1 DUP4 SUB DUP2 DUP7 GAS STATICCALL ISZERO DUP1 ISZERO PUSH2 0xF53 JUMPI RETURNDATASIZE PUSH0 DUP1 RETURNDATACOPY RETURNDATASIZE PUSH0 REVERT JUMPDEST POP POP POP POP PUSH1 0x40 MLOAD RETURNDATASIZE PUSH0 DUP3 RETURNDATACOPY RETURNDATASIZE PUSH1 0x1F NOT PUSH1 0x1F DUP3 ADD AND DUP3 ADD DUP1 PUSH1 0x40 MSTORE POP DUP2 ADD SWAP1 PUSH2 0xF7B SWAP2 SWAP1 PUSH2 0x3132 JUMP JUMPDEST SWAP1 POP PUSH0 PUSH1 0x1 PUSH0 SWAP1 SLOAD SWAP1 PUSH2 0x100 EXP SWAP1 DIV PUSH20 0xFFFFFFFFFFFFFFFFFFFFFFFFFFFFFFFFFFFFFFFF AND PUSH20 0xFFFFFFFFFFFFFFFFFFFFFFFFFFFFFFFFFFFFFFFF AND PUSH4 0xA2E84E6E CALLER PUSH1 0x40 MLOAD DUP3 PUSH4 0xFFFFFFFF AND PUSH1 0xE0 SHL DUP2 MSTORE PUSH1 0x4 ADD PUSH2 0xFD8 SWAP2 SWAP1 PUSH2 0x2C20 JUMP JUMPDEST PUSH0 PUSH1 0x40 MLOAD DUP1 DUP4 SUB DUP2 DUP7 GAS STATICCALL ISZERO DUP1 ISZERO PUSH2 0xFF2 JUMPI RETURNDATASIZE PUSH0 DUP1 RETURNDATACOPY RETURNDATASIZE PUSH0 REVERT JUMPDEST POP POP POP POP PUSH1 0x40 MLOAD RETURNDATASIZE PUSH0 DUP3 RETURNDATACOPY RETURNDATASIZE PUSH1 0x1F NOT PUSH1 0x1F DUP3 ADD AND DUP3 ADD DUP1 PUSH1 0x40 MSTORE POP DUP2 ADD SWAP1 PUSH2 0x101A SWAP2 SWAP1 PUSH2 0x3132 JUMP JUMPDEST SWAP1 POP PUSH0 PUSH1 0x40 MLOAD DUP1 PUSH2 0x140 ADD PUSH1 0x40 MSTORE DUP1 PUSH1 0x2 SLOAD DUP2 MSTORE PUSH1 0x20 ADD DUP10 DUP2 MSTORE PUSH1 0x20 ADD DUP9 DUP2 MSTORE PUSH1 0x20 ADD PUSH0 DUP2 MSTORE PUSH1 0x20 ADD DUP8 DUP2 MSTORE PUSH1 0x20 ADD DUP7 DUP2 MSTORE PUSH1 0x20 ADD CALLER PUSH20 0xFFFFFFFFFFFFFFFFFFFFFFFFFFFFFFFFFFFFFFFF AND DUP2 MSTORE PUSH1 0x20 ADD DUP5 DUP2 MSTORE PUSH1 0x20 ADD DUP4 DUP2 MSTORE PUSH1 0x20 ADD TIMESTAMP DUP2 MSTORE POP SWAP1 POP DUP1 PUSH1 0x4 PUSH0 PUSH1 0x2 SLOAD DUP2 MSTORE PUSH1 0x20 ADD SWAP1 DUP2 MSTORE PUSH1 0x20 ADD PUSH0 KECCAK256 PUSH0 DUP3 ADD MLOAD DUP2 PUSH0 ADD SSTORE PUSH1 0x20 DUP3 ADD MLOAD DUP2 PUSH1 0x1 ADD SWAP1 DUP2 PUSH2 0x10AE SWAP2 SWAP1 PUSH2 0x3316 JUMP JUMPDEST POP PUSH1 0x40 DUP3 ADD MLOAD DUP2 PUSH1 0x2 ADD SWAP1 DUP2 PUSH2 0x10C4 SWAP2 SWAP1 PUSH2 0x3316 JUMP JUMPDEST POP PUSH1 0x60 DUP3 ADD MLOAD DUP2 PUSH1 0x3 ADD SSTORE PUSH1 0x80 DUP3 ADD MLOAD DUP2 PUSH1 0x4 ADD SWAP1 DUP2 PUSH2 0x10E4 SWAP2 SWAP1 PUSH2 0x3316 JUMP JUMPDEST POP PUSH1 0xA0 DUP3 ADD MLOAD DUP2 PUSH1 0x5 ADD SSTORE PUSH1 0xC0 DUP3 ADD MLOAD DUP2 PUSH1 0x6 ADD PUSH0 PUSH2 0x100 EXP DUP2 SLOAD DUP2 PUSH20 0xFFFFFFFFFFFFFFFFFFFFFFFFFFFFFFFFFFFFFFFF MUL NOT AND SWAP1 DUP4 PUSH20 0xFFFFFFFFFFFFFFFFFFFFFFFFFFFFFFFFFFFFFFFF AND MUL OR SWAP1 SSTORE POP PUSH1 0xE0 DUP3 ADD MLOAD DUP2 PUSH1 0x7 ADD SWAP1 DUP2 PUSH2 0x114A SWAP2 SWAP1 PUSH2 0x3316 JUMP JUMPDEST POP PUSH2 0x100 DUP3 ADD MLOAD DUP2 PUSH1 0x8 ADD SWAP1 DUP2 PUSH2 0x1161 SWAP2 SWAP1 PUSH2 0x3316 JUMP JUMPDEST POP PUSH2 0x120 DUP3 ADD MLOAD DUP2 PUSH1 0x9 ADD SSTORE SWAP1 POP POP PUSH1 0x3 PUSH0 CALLER PUSH20 0xFFFFFFFFFFFFFFFFFFFFFFFFFFFFFFFFFFFFFFFF AND PUSH20 0xFFFFFFFFFFFFFFFFFFFFFFFFFFFFFFFFFFFFFFFF AND DUP2 MSTORE PUSH1 0x20 ADD SWAP1 DUP2 MSTORE PUSH1 0x20 ADD PUSH0 KECCAK256 DUP2 SWAP1 DUP1 PUSH1 0x1 DUP2 SLOAD ADD DUP1 DUP3 SSTORE DUP1 SWAP2 POP POP PUSH1 0x1 SWAP1 SUB SWAP1 PUSH0 MSTORE PUSH1 0x20 PUSH0 KECCAK256 SWAP1 PUSH1 0xA MUL ADD PUSH0 SWAP1 SWAP2 SWAP1 SWAP2 SWAP1 SWAP2 POP PUSH0 DUP3 ADD MLOAD DUP2 PUSH0 ADD SSTORE PUSH1 0x20 DUP3 ADD MLOAD DUP2 PUSH1 0x1 ADD SWAP1 DUP2 PUSH2 0x11F1 SWAP2 SWAP1 PUSH2 0x3316 JUMP JUMPDEST POP PUSH1 0x40 DUP3 ADD MLOAD DUP2 PUSH1 0x2 ADD SWAP1 DUP2 PUSH2 0x1207 SWAP2 SWAP1 PUSH2 0x3316 JUMP JUMPDEST POP PUSH1 0x60 DUP3 ADD MLOAD DUP2 PUSH1 0x3 ADD SSTORE PUSH1 0x80 DUP3 ADD MLOAD DUP2 PUSH1 0x4 ADD SWAP1 DUP2 PUSH2 0x1227 SWAP2 SWAP1 PUSH2 0x3316 JUMP JUMPDEST POP PUSH1 0xA0 DUP3 ADD MLOAD DUP2 PUSH1 0x5 ADD SSTORE PUSH1 0xC0 DUP3 ADD MLOAD DUP2 PUSH1 0x6 ADD PUSH0 PUSH2 0x100 EXP DUP2 SLOAD DUP2 PUSH20 0xFFFFFFFFFFFFFFFFFFFFFFFFFFFFFFFFFFFFFFFF MUL NOT AND SWAP1 DUP4 PUSH20 0xFFFFFFFFFFFFFFFFFFFFFFFFFFFFFFFFFFFFFFFF AND MUL OR SWAP1 SSTORE POP PUSH1 0xE0 DUP3 ADD MLOAD DUP2 PUSH1 0x7 ADD SWAP1 DUP2 PUSH2 0x128D SWAP2 SWAP1 PUSH2 0x3316 JUMP JUMPDEST POP PUSH2 0x100 DUP3 ADD MLOAD DUP2 PUSH1 0x8 ADD SWAP1 DUP2 PUSH2 0x12A4 SWAP2 SWAP1 PUSH2 0x3316 JUMP JUMPDEST POP PUSH2 0x120 DUP3 ADD MLOAD DUP2 PUSH1 0x9 ADD SSTORE POP POP PUSH1 0x7 PUSH1 0x4 PUSH0 PUSH1 0x2 SLOAD DUP2 MSTORE PUSH1 0x20 ADD SWAP1 DUP2 MSTORE PUSH1 0x20 ADD PUSH0 KECCAK256 SWAP1 DUP1 PUSH1 0x1 DUP2 SLOAD ADD DUP1 DUP3 SSTORE DUP1 SWAP2 POP POP PUSH1 0x1 SWAP1 SUB SWAP1 PUSH0 MSTORE PUSH1 0x20 PUSH0 KECCAK256 SWAP1 PUSH1 0xA MUL ADD PUSH0 SWAP1 SWAP2 SWAP1 SWAP2 SWAP1 SWAP2 POP PUSH0 DUP3 ADD SLOAD DUP2 PUSH0 ADD SSTORE PUSH1 0x1 DUP3 ADD DUP2 PUSH1 0x1 ADD SWAP1 DUP2 PUSH2 0x1309 SWAP2 SWAP1 PUSH2 0x33FA JUMP JUMPDEST POP PUSH1 0x2 DUP3 ADD DUP2 PUSH1 0x2 ADD SWAP1 DUP2 PUSH2 0x131E SWAP2 SWAP1 PUSH2 0x33FA JUMP JUMPDEST POP PUSH1 0x3 DUP3 ADD SLOAD DUP2 PUSH1 0x3 ADD SSTORE PUSH1 0x4 DUP3 ADD DUP2 PUSH1 0x4 ADD SWAP1 DUP2 PUSH2 0x133D SWAP2 SWAP1 PUSH2 0x33FA JUMP JUMPDEST POP PUSH1 0x5 DUP3 ADD SLOAD DUP2 PUSH1 0x5 ADD SSTORE PUSH1 0x6 DUP3 ADD PUSH0 SWAP1 SLOAD SWAP1 PUSH2 0x100 EXP SWAP1 DIV PUSH20 0xFFFFFFFFFFFFFFFFFFFFFFFFFFFFFFFFFFFFFFFF AND DUP2 PUSH1 0x6 ADD PUSH0 PUSH2 0x100 EXP DUP2 SLOAD DUP2 PUSH20 0xFFFFFFFFFFFFFFFFFFFFFFFFFFFFFFFFFFFFFFFF MUL NOT AND SWAP1 DUP4 PUSH20 0xFFFFFFFFFFFFFFFFFFFFFFFFFFFFFFFFFFFFFFFF AND MUL OR SWAP1 SSTORE POP PUSH1 0x7 DUP3 ADD DUP2 PUSH1 0x7 ADD SWAP1 DUP2 PUSH2 0x13C1 SWAP2 SWAP1 PUSH2 0x33FA JUMP JUMPDEST POP PUSH1 0x8 DUP3 ADD DUP2 PUSH1 0x8 ADD SWAP1 DUP2 PUSH2 0x13D6 SWAP2 SWAP1 PUSH2 0x33FA JUMP JUMPDEST POP PUSH1 0x9 DUP3 ADD SLOAD DUP2 PUSH1 0x9 ADD SSTORE POP POP PUSH32 0x1961F6452621F42CEB4621CAC123D1A782ECD2620C2D8C755FBF8F7C849B24A4 PUSH1 0x2 SLOAD DUP10 DUP10 PUSH0 DUP11 DUP11 CALLER PUSH1 0x40 MLOAD PUSH2 0x1420 SWAP8 SWAP7 SWAP6 SWAP5 SWAP4 SWAP3 SWAP2 SWAP1 PUSH2 0x3518 JUMP JUMPDEST PUSH1 0x40 MLOAD DUP1 SWAP2 SUB SWAP1 LOG1 PUSH1 0x2 PUSH0 DUP2 SLOAD DUP1 SWAP3 SWAP2 SWAP1 PUSH2 0x143A SWAP1 PUSH2 0x359A JUMP JUMPDEST SWAP2 SWAP1 POP SSTORE POP POP POP POP POP POP POP POP POP JUMP JUMPDEST PUSH1 0x5 PUSH1 0x20 MSTORE DUP2 PUSH0 MSTORE PUSH1 0x40 PUSH0 KECCAK256 PUSH1 0x20 MSTORE DUP1 PUSH0 MSTORE PUSH1 0x40 PUSH0 KECCAK256 PUSH0 SWAP2 POP SWAP2 POP SWAP1 SLOAD SWAP1 PUSH2 0x100 EXP SWAP1 DIV PUSH1 0xFF AND DUP2 JUMP JUMPDEST PUSH2 0x147B PUSH2 0x22DD JUMP JUMPDEST PUSH2 0x1484 PUSH0 PUSH2 0x2364 JUMP JUMPDEST JUMP JUMPDEST PUSH0 DUP1 PUSH0 SWAP1 SLOAD SWAP1 PUSH2 0x100 EXP SWAP1 DIV PUSH20 0xFFFFFFFFFFFFFFFFFFFFFFFFFFFFFFFFFFFFFFFF AND SWAP1 POP SWAP1 JUMP JUMPDEST PUSH1 0x3 PUSH1 0x20 MSTORE DUP2 PUSH0 MSTORE PUSH1 0x40 PUSH0 KECCAK256 DUP2 DUP2 SLOAD DUP2 LT PUSH2 0x14C6 JUMPI PUSH0 DUP1 REVERT JUMPDEST SWAP1 PUSH0 MSTORE PUSH1 0x20 PUSH0 KECCAK256 SWAP1 PUSH1 0xA MUL ADD PUSH0 SWAP2 POP SWAP2 POP POP DUP1 PUSH0 ADD SLOAD SWAP1 DUP1 PUSH1 0x1 ADD DUP1 SLOAD PUSH2 0x14EC SWAP1 PUSH2 0x2DF5 JUMP JUMPDEST DUP1 PUSH1 0x1F ADD PUSH1 0x20 DUP1 SWAP2 DIV MUL PUSH1 0x20 ADD PUSH1 0x40 MLOAD SWAP1 DUP2 ADD PUSH1 0x40 MSTORE DUP1 SWAP3 SWAP2 SWAP1 DUP2 DUP2 MSTORE PUSH1 0x20 ADD DUP3 DUP1 SLOAD PUSH2 0x1518 SWAP1 PUSH2 0x2DF5 JUMP JUMPDEST DUP1 ISZERO PUSH2 0x1563 JUMPI DUP1 PUSH1 0x1F LT PUSH2 0x153A JUMPI PUSH2 0x100 DUP1 DUP4 SLOAD DIV MUL DUP4 MSTORE SWAP2 PUSH1 0x20 ADD SWAP2 PUSH2 0x1563 JUMP JUMPDEST DUP3 ADD SWAP2 SWAP1 PUSH0 MSTORE PUSH1 0x20 PUSH0 KECCAK256 SWAP1 JUMPDEST DUP2 SLOAD DUP2 MSTORE SWAP1 PUSH1 0x1 ADD SWAP1 PUSH1 0x20 ADD DUP1 DUP4 GT PUSH2 0x1546 JUMPI DUP3 SWAP1 SUB PUSH1 0x1F AND DUP3 ADD SWAP2 JUMPDEST POP POP POP POP POP SWAP1 DUP1 PUSH1 0x2 ADD DUP1 SLOAD PUSH2 0x1578 SWAP1 PUSH2 0x2DF5 JUMP JUMPDEST DUP1 PUSH1 0x1F ADD PUSH1 0x20 DUP1 SWAP2 DIV MUL PUSH1 0x20 ADD PUSH1 0x40 MLOAD SWAP1 DUP2 ADD PUSH1 0x40 MSTORE DUP1 SWAP3 SWAP2 SWAP1 DUP2 DUP2 MSTORE PUSH1 0x20 ADD DUP3 DUP1 SLOAD PUSH2 0x15A4 SWAP1 PUSH2 0x2DF5 JUMP JUMPDEST DUP1 ISZERO PUSH2 0x15EF JUMPI DUP1 PUSH1 0x1F LT PUSH2 0x15C6 JUMPI PUSH2 0x100 DUP1 DUP4 SLOAD DIV MUL DUP4 MSTORE SWAP2 PUSH1 0x20 ADD SWAP2 PUSH2 0x15EF JUMP JUMPDEST DUP3 ADD SWAP2 SWAP1 PUSH0 MSTORE PUSH1 0x20 PUSH0 KECCAK256 SWAP1 JUMPDEST DUP2 SLOAD DUP2 MSTORE SWAP1 PUSH1 0x1 ADD SWAP1 PUSH1 0x20 ADD DUP1 DUP4 GT PUSH2 0x15D2 JUMPI DUP3 SWAP1 SUB PUSH1 0x1F AND DUP3 ADD SWAP2 JUMPDEST POP POP POP POP POP SWAP1 DUP1 PUSH1 0x3 ADD SLOAD SWAP1 DUP1 PUSH1 0x4 ADD DUP1 SLOAD PUSH2 0x160A SWAP1 PUSH2 0x2DF5 JUMP JUMPDEST DUP1 PUSH1 0x1F ADD PUSH1 0x20 DUP1 SWAP2 DIV MUL PUSH1 0x20 ADD PUSH1 0x40 MLOAD SWAP1 DUP2 ADD PUSH1 0x40 MSTORE DUP1 SWAP3 SWAP2 SWAP1 DUP2 DUP2 MSTORE PUSH1 0x20 ADD DUP3 DUP1 SLOAD PUSH2 0x1636 SWAP1 PUSH2 0x2DF5 JUMP JUMPDEST DUP1 ISZERO PUSH2 0x1681 JUMPI DUP1 PUSH1 0x1F LT PUSH2 0x1658 JUMPI PUSH2 0x100 DUP1 DUP4 SLOAD DIV MUL DUP4 MSTORE SWAP2 PUSH1 0x20 ADD SWAP2 PUSH2 0x1681 JUMP JUMPDEST DUP3 ADD SWAP2 SWAP1 PUSH0 MSTORE PUSH1 0x20 PUSH0 KECCAK256 SWAP1 JUMPDEST DUP2 SLOAD DUP2 MSTORE SWAP1 PUSH1 0x1 ADD SWAP1 PUSH1 0x20 ADD DUP1 DUP4 GT PUSH2 0x1664 JUMPI DUP3 SWAP1 SUB PUSH1 0x1F AND DUP3 ADD SWAP2 JUMPDEST POP POP POP POP POP SWAP1 DUP1 PUSH1 0x5 ADD SLOAD SWAP1 DUP1 PUSH1 0x6 ADD PUSH0 SWAP1 SLOAD SWAP1 PUSH2 0x100 EXP SWAP1 DIV PUSH20 0xFFFFFFFFFFFFFFFFFFFFFFFFFFFFFFFFFFFFFFFF AND SWAP1 DUP1 PUSH1 0x7 ADD DUP1 SLOAD PUSH2 0x16C1 SWAP1 PUSH2 0x2DF5 JUMP JUMPDEST DUP1 PUSH1 0x1F ADD PUSH1 0x20 DUP1 SWAP2 DIV MUL PUSH1 0x20 ADD PUSH1 0x40 MLOAD SWAP1 DUP2 ADD PUSH1 0x40 MSTORE DUP1 SWAP3 SWAP2 SWAP1 DUP2 DUP2 MSTORE PUSH1 0x20 ADD DUP3 DUP1 SLOAD PUSH2 0x16ED SWAP1 PUSH2 0x2DF5 JUMP JUMPDEST DUP1 ISZERO PUSH2 0x1738 JUMPI DUP1 PUSH1 0x1F LT PUSH2 0x170F JUMPI PUSH2 0x100 DUP1 DUP4 SLOAD DIV MUL DUP4 MSTORE SWAP2 PUSH1 0x20 ADD SWAP2 PUSH2 0x1738 JUMP JUMPDEST DUP3 ADD SWAP2 SWAP1 PUSH0 MSTORE PUSH1 0x20 PUSH0 KECCAK256 SWAP1 JUMPDEST DUP2 SLOAD DUP2 MSTORE SWAP1 PUSH1 0x1 ADD SWAP1 PUSH1 0x20 ADD DUP1 DUP4 GT PUSH2 0x171B JUMPI DUP3 SWAP1 SUB PUSH1 0x1F AND DUP3 ADD SWAP2 JUMPDEST POP POP POP POP POP SWAP1 DUP1 PUSH1 0x8 ADD DUP1 SLOAD PUSH2 0x174D SWAP1 PUSH2 0x2DF5 JUMP JUMPDEST DUP1 PUSH1 0x1F ADD PUSH1 0x20 DUP1 SWAP2 DIV MUL PUSH1 0x20 ADD PUSH1 0x40 MLOAD SWAP1 DUP2 ADD PUSH1 0x40 MSTORE DUP1 SWAP3 SWAP2 SWAP1 DUP2 DUP2 MSTORE PUSH1 0x20 ADD DUP3 DUP1 SLOAD PUSH2 0x1779 SWAP1 PUSH2 0x2DF5 JUMP JUMPDEST DUP1 ISZERO PUSH2 0x17C4 JUMPI DUP1 PUSH1 0x1F LT PUSH2 0x179B JUMPI PUSH2 0x100 DUP1 DUP4 SLOAD DIV MUL DUP4 MSTORE SWAP2 PUSH1 0x20 ADD SWAP2 PUSH2 0x17C4 JUMP JUMPDEST DUP3 ADD SWAP2 SWAP1 PUSH0 MSTORE PUSH1 0x20 PUSH0 KECCAK256 SWAP1 JUMPDEST DUP2 SLOAD DUP2 MSTORE SWAP1 PUSH1 0x1 ADD SWAP1 PUSH1 0x20 ADD DUP1 DUP4 GT PUSH2 0x17A7 JUMPI DUP3 SWAP1 SUB PUSH1 0x1F AND DUP3 ADD SWAP2 JUMPDEST POP POP POP POP POP SWAP1 DUP1 PUSH1 0x9 ADD SLOAD SWAP1 POP DUP11 JUMP JUMPDEST PUSH1 0x7 DUP2 DUP2 SLOAD DUP2 LT PUSH2 0x17E3 JUMPI PUSH0 DUP1 REVERT JUMPDEST SWAP1 PUSH0 MSTORE PUSH1 0x20 PUSH0 KECCAK256 SWAP1 PUSH1 0xA MUL ADD PUSH0 SWAP2 POP SWAP1 POP DUP1 PUSH0 ADD SLOAD SWAP1 DUP1 PUSH1 0x1 ADD DUP1 SLOAD PUSH2 0x1808 SWAP1 PUSH2 0x2DF5 JUMP JUMPDEST DUP1 PUSH1 0x1F ADD PUSH1 0x20 DUP1 SWAP2 DIV MUL PUSH1 0x20 ADD PUSH1 0x40 MLOAD SWAP1 DUP2 ADD PUSH1 0x40 MSTORE DUP1 SWAP3 SWAP2 SWAP1 DUP2 DUP2 MSTORE PUSH1 0x20 ADD DUP3 DUP1 SLOAD PUSH2 0x1834 SWAP1 PUSH2 0x2DF5 JUMP JUMPDEST DUP1 ISZERO PUSH2 0x187F JUMPI DUP1 PUSH1 0x1F LT PUSH2 0x1856 JUMPI PUSH2 0x100 DUP1 DUP4 SLOAD DIV MUL DUP4 MSTORE SWAP2 PUSH1 0x20 ADD SWAP2 PUSH2 0x187F JUMP JUMPDEST DUP3 ADD SWAP2 SWAP1 PUSH0 MSTORE PUSH1 0x20 PUSH0 KECCAK256 SWAP1 JUMPDEST DUP2 SLOAD DUP2 MSTORE SWAP1 PUSH1 0x1 ADD SWAP1 PUSH1 0x20 ADD DUP1 DUP4 GT PUSH2 0x1862 JUMPI DUP3 SWAP1 SUB PUSH1 0x1F AND DUP3 ADD SWAP2 JUMPDEST POP POP POP POP POP SWAP1 DUP1 PUSH1 0x2 ADD DUP1 SLOAD PUSH2 0x1894 SWAP1 PUSH2 0x2DF5 JUMP JUMPDEST DUP1 PUSH1 0x1F ADD PUSH1 0x20 DUP1 SWAP2 DIV MUL PUSH1 0x20 ADD PUSH1 0x40 MLOAD SWAP1 DUP2 ADD PUSH1 0x40 MSTORE DUP1 SWAP3 SWAP2 SWAP1 DUP2 DUP2 MSTORE PUSH1 0x20 ADD DUP3 DUP1 SLOAD PUSH2 0x18C0 SWAP1 PUSH2 0x2DF5 JUMP JUMPDEST DUP1 ISZERO PUSH2 0x190B JUMPI DUP1 PUSH1 0x1F LT PUSH2 0x18E2 JUMPI PUSH2 0x100 DUP1 DUP4 SLOAD DIV MUL DUP4 MSTORE SWAP2 PUSH1 0x20 ADD SWAP2 PUSH2 0x190B JUMP JUMPDEST DUP3 ADD SWAP2 SWAP1 PUSH0 MSTORE PUSH1 0x20 PUSH0 KECCAK256 SWAP1 JUMPDEST DUP2 SLOAD DUP2 MSTORE SWAP1 PUSH1 0x1 ADD SWAP1 PUSH1 0x20 ADD DUP1 DUP4 GT PUSH2 0x18EE JUMPI DUP3 SWAP1 SUB PUSH1 0x1F AND DUP3 ADD SWAP2 JUMPDEST POP POP POP POP POP SWAP1 DUP1 PUSH1 0x3 ADD SLOAD SWAP1 DUP1 PUSH1 0x4 ADD DUP1 SLOAD PUSH2 0x1926 SWAP1 PUSH2 0x2DF5 JUMP JUMPDEST DUP1 PUSH1 0x1F ADD PUSH1 0x20 DUP1 SWAP2 DIV MUL PUSH1 0x20 ADD PUSH1 0x40 MLOAD SWAP1 DUP2 ADD PUSH1 0x40 MSTORE DUP1 SWAP3 SWAP2 SWAP1 DUP2 DUP2 MSTORE PUSH1 0x20 ADD DUP3 DUP1 SLOAD PUSH2 0x1952 SWAP1 PUSH2 0x2DF5 JUMP JUMPDEST DUP1 ISZERO PUSH2 0x199D JUMPI DUP1 PUSH1 0x1F LT PUSH2 0x1974 JUMPI PUSH2 0x100 DUP1 DUP4 SLOAD DIV MUL DUP4 MSTORE SWAP2 PUSH1 0x20 ADD SWAP2 PUSH2 0x199D JUMP JUMPDEST DUP3 ADD SWAP2 SWAP1 PUSH0 MSTORE PUSH1 0x20 PUSH0 KECCAK256 SWAP1 JUMPDEST DUP2 SLOAD DUP2 MSTORE SWAP1 PUSH1 0x1 ADD SWAP1 PUSH1 0x20 ADD DUP1 DUP4 GT PUSH2 0x1980 JUMPI DUP3 SWAP1 SUB PUSH1 0x1F AND DUP3 ADD SWAP2 JUMPDEST POP POP POP POP POP SWAP1 DUP1 PUSH1 0x5 ADD SLOAD SWAP1 DUP1 PUSH1 0x6 ADD PUSH0 SWAP1 SLOAD SWAP1 PUSH2 0x100 EXP SWAP1 DIV PUSH20 0xFFFFFFFFFFFFFFFFFFFFFFFFFFFFFFFFFFFFFFFF AND SWAP1 DUP1 PUSH1 0x7 ADD DUP1 SLOAD PUSH2 0x19DD SWAP1 PUSH2 0x2DF5 JUMP JUMPDEST DUP1 PUSH1 0x1F ADD PUSH1 0x20 DUP1 SWAP2 DIV MUL PUSH1 0x20 ADD PUSH1 0x40 MLOAD SWAP1 DUP2 ADD PUSH1 0x40 MSTORE DUP1 SWAP3 SWAP2 SWAP1 DUP2 DUP2 MSTORE PUSH1 0x20 ADD DUP3 DUP1 SLOAD PUSH2 0x1A09 SWAP1 PUSH2 0x2DF5 JUMP JUMPDEST DUP1 ISZERO PUSH2 0x1A54 JUMPI DUP1 PUSH1 0x1F LT PUSH2 0x1A2B JUMPI PUSH2 0x100 DUP1 DUP4 SLOAD DIV MUL DUP4 MSTORE SWAP2 PUSH1 0x20 ADD SWAP2 PUSH2 0x1A54 JUMP JUMPDEST DUP3 ADD SWAP2 SWAP1 PUSH0 MSTORE PUSH1 0x20 PUSH0 KECCAK256 SWAP1 JUMPDEST DUP2 SLOAD DUP2 MSTORE SWAP1 PUSH1 0x1 ADD SWAP1 PUSH1 0x20 ADD DUP1 DUP4 GT PUSH2 0x1A37 JUMPI DUP3 SWAP1 SUB PUSH1 0x1F AND DUP3 ADD SWAP2 JUMPDEST POP POP POP POP POP SWAP1 DUP1 PUSH1 0x8 ADD DUP1 SLOAD PUSH2 0x1A69 SWAP1 PUSH2 0x2DF5 JUMP JUMPDEST DUP1 PUSH1 0x1F ADD PUSH1 0x20 DUP1 SWAP2 DIV MUL PUSH1 0x20 ADD PUSH1 0x40 MLOAD SWAP1 DUP2 ADD PUSH1 0x40 MSTORE DUP1 SWAP3 SWAP2 SWAP1 DUP2 DUP2 MSTORE PUSH1 0x20 ADD DUP3 DUP1 SLOAD PUSH2 0x1A95 SWAP1 PUSH2 0x2DF5 JUMP JUMPDEST DUP1 ISZERO PUSH2 0x1AE0 JUMPI DUP1 PUSH1 0x1F LT PUSH2 0x1AB7 JUMPI PUSH2 0x100 DUP1 DUP4 SLOAD DIV MUL DUP4 MSTORE SWAP2 PUSH1 0x20 ADD SWAP2 PUSH2 0x1AE0 JUMP JUMPDEST DUP3 ADD SWAP2 SWAP1 PUSH0 MSTORE PUSH1 0x20 PUSH0 KECCAK256 SWAP1 JUMPDEST DUP2 SLOAD DUP2 MSTORE SWAP1 PUSH1 0x1 ADD SWAP1 PUSH1 0x20 ADD DUP1 DUP4 GT PUSH2 0x1AC3 JUMPI DUP3 SWAP1 SUB PUSH1 0x1F AND DUP3 ADD SWAP2 JUMPDEST POP POP POP POP POP SWAP1 DUP1 PUSH1 0x9 ADD SLOAD SWAP1 POP DUP11 JUMP JUMPDEST PUSH2 0x1AF8 PUSH2 0x242C JUMP JUMPDEST PUSH1 0x4 PUSH0 DUP4 DUP2 MSTORE PUSH1 0x20 ADD SWAP1 DUP2 MSTORE PUSH1 0x20 ADD PUSH0 KECCAK256 PUSH1 0x40 MLOAD DUP1 PUSH2 0x140 ADD PUSH1 0x40 MSTORE SWAP1 DUP2 PUSH0 DUP3 ADD SLOAD DUP2 MSTORE PUSH1 0x20 ADD PUSH1 0x1 DUP3 ADD DUP1 SLOAD PUSH2 0x1B2E SWAP1 PUSH2 0x2DF5 JUMP JUMPDEST DUP1 PUSH1 0x1F ADD PUSH1 0x20 DUP1 SWAP2 DIV MUL PUSH1 0x20 ADD PUSH1 0x40 MLOAD SWAP1 DUP2 ADD PUSH1 0x40 MSTORE DUP1 SWAP3 SWAP2 SWAP1 DUP2 DUP2 MSTORE PUSH1 0x20 ADD DUP3 DUP1 SLOAD PUSH2 0x1B5A SWAP1 PUSH2 0x2DF5 JUMP JUMPDEST DUP1 ISZERO PUSH2 0x1BA5 JUMPI DUP1 PUSH1 0x1F LT PUSH2 0x1B7C JUMPI PUSH2 0x100 DUP1 DUP4 SLOAD DIV MUL DUP4 MSTORE SWAP2 PUSH1 0x20 ADD SWAP2 PUSH2 0x1BA5 JUMP JUMPDEST DUP3 ADD SWAP2 SWAP1 PUSH0 MSTORE PUSH1 0x20 PUSH0 KECCAK256 SWAP1 JUMPDEST DUP2 SLOAD DUP2 MSTORE SWAP1 PUSH1 0x1 ADD SWAP1 PUSH1 0x20 ADD DUP1 DUP4 GT PUSH2 0x1B88 JUMPI DUP3 SWAP1 SUB PUSH1 0x1F AND DUP3 ADD SWAP2 JUMPDEST POP POP POP POP POP DUP2 MSTORE PUSH1 0x20 ADD PUSH1 0x2 DUP3 ADD DUP1 SLOAD PUSH2 0x1BBE SWAP1 PUSH2 0x2DF5 JUMP JUMPDEST DUP1 PUSH1 0x1F ADD PUSH1 0x20 DUP1 SWAP2 DIV MUL PUSH1 0x20 ADD PUSH1 0x40 MLOAD SWAP1 DUP2 ADD PUSH1 0x40 MSTORE DUP1 SWAP3 SWAP2 SWAP1 DUP2 DUP2 MSTORE PUSH1 0x20 ADD DUP3 DUP1 SLOAD PUSH2 0x1BEA SWAP1 PUSH2 0x2DF5 JUMP JUMPDEST DUP1 ISZERO PUSH2 0x1C35 JUMPI DUP1 PUSH1 0x1F LT PUSH2 0x1C0C JUMPI PUSH2 0x100 DUP1 DUP4 SLOAD DIV MUL DUP4 MSTORE SWAP2 PUSH1 0x20 ADD SWAP2 PUSH2 0x1C35 JUMP JUMPDEST DUP3 ADD SWAP2 SWAP1 PUSH0 MSTORE PUSH1 0x20 PUSH0 KECCAK256 SWAP1 JUMPDEST DUP2 SLOAD DUP2 MSTORE SWAP1 PUSH1 0x1 ADD SWAP1 PUSH1 0x20 ADD DUP1 DUP4 GT PUSH2 0x1C18 JUMPI DUP3 SWAP1 SUB PUSH1 0x1F AND DUP3 ADD SWAP2 JUMPDEST POP POP POP POP POP DUP2 MSTORE PUSH1 0x20 ADD PUSH1 0x3 DUP3 ADD SLOAD DUP2 MSTORE PUSH1 0x20 ADD PUSH1 0x4 DUP3 ADD DUP1 SLOAD PUSH2 0x1C58 SWAP1 PUSH2 0x2DF5 JUMP JUMPDEST DUP1 PUSH1 0x1F ADD PUSH1 0x20 DUP1 SWAP2 DIV MUL PUSH1 0x20 ADD PUSH1 0x40 MLOAD SWAP1 DUP2 ADD PUSH1 0x40 MSTORE DUP1 SWAP3 SWAP2 SWAP1 DUP2 DUP2 MSTORE PUSH1 0x20 ADD DUP3 DUP1 SLOAD PUSH2 0x1C84 SWAP1 PUSH2 0x2DF5 JUMP JUMPDEST DUP1 ISZERO PUSH2 0x1CCF JUMPI DUP1 PUSH1 0x1F LT PUSH2 0x1CA6 JUMPI PUSH2 0x100 DUP1 DUP4 SLOAD DIV MUL DUP4 MSTORE SWAP2 PUSH1 0x20 ADD SWAP2 PUSH2 0x1CCF JUMP JUMPDEST DUP3 ADD SWAP2 SWAP1 PUSH0 MSTORE PUSH1 0x20 PUSH0 KECCAK256 SWAP1 JUMPDEST DUP2 SLOAD DUP2 MSTORE SWAP1 PUSH1 0x1 ADD SWAP1 PUSH1 0x20 ADD DUP1 DUP4 GT PUSH2 0x1CB2 JUMPI DUP3 SWAP1 SUB PUSH1 0x1F AND DUP3 ADD SWAP2 JUMPDEST POP POP POP POP POP DUP2 MSTORE PUSH1 0x20 ADD PUSH1 0x5 DUP3 ADD SLOAD DUP2 MSTORE PUSH1 0x20 ADD PUSH1 0x6 DUP3 ADD PUSH0 SWAP1 SLOAD SWAP1 PUSH2 0x100 EXP SWAP1 DIV PUSH20 0xFFFFFFFFFFFFFFFFFFFFFFFFFFFFFFFFFFFFFFFF AND PUSH20 0xFFFFFFFFFFFFFFFFFFFFFFFFFFFFFFFFFFFFFFFF AND PUSH20 0xFFFFFFFFFFFFFFFFFFFFFFFFFFFFFFFFFFFFFFFF AND DUP2 MSTORE PUSH1 0x20 ADD PUSH1 0x7 DUP3 ADD DUP1 SLOAD PUSH2 0x1D47 SWAP1 PUSH2 0x2DF5 JUMP JUMPDEST DUP1 PUSH1 0x1F ADD PUSH1 0x20 DUP1 SWAP2 DIV MUL PUSH1 0x20 ADD PUSH1 0x40 MLOAD SWAP1 DUP2 ADD PUSH1 0x40 MSTORE DUP1 SWAP3 SWAP2 SWAP1 DUP2 DUP2 MSTORE PUSH1 0x20 ADD DUP3 DUP1 SLOAD PUSH2 0x1D73 SWAP1 PUSH2 0x2DF5 JUMP JUMPDEST DUP1 ISZERO PUSH2 0x1DBE JUMPI DUP1 PUSH1 0x1F LT PUSH2 0x1D95 JUMPI PUSH2 0x100 DUP1 DUP4 SLOAD DIV MUL DUP4 MSTORE SWAP2 PUSH1 0x20 ADD SWAP2 PUSH2 0x1DBE JUMP JUMPDEST DUP3 ADD SWAP2 SWAP1 PUSH0 MSTORE PUSH1 0x20 PUSH0 KECCAK256 SWAP1 JUMPDEST DUP2 SLOAD DUP2 MSTORE SWAP1 PUSH1 0x1 ADD SWAP1 PUSH1 0x20 ADD DUP1 DUP4 GT PUSH2 0x1DA1 JUMPI DUP3 SWAP1 SUB PUSH1 0x1F AND DUP3 ADD SWAP2 JUMPDEST POP POP POP POP POP DUP2 MSTORE PUSH1 0x20 ADD PUSH1 0x8 DUP3 ADD DUP1 SLOAD PUSH2 0x1DD7 SWAP1 PUSH2 0x2DF5 JUMP JUMPDEST DUP1 PUSH1 0x1F ADD PUSH1 0x20 DUP1 SWAP2 DIV MUL PUSH1 0x20 ADD PUSH1 0x40 MLOAD SWAP1 DUP2 ADD PUSH1 0x40 MSTORE DUP1 SWAP3 SWAP2 SWAP1 DUP2 DUP2 MSTORE PUSH1 0x20 ADD DUP3 DUP1 SLOAD PUSH2 0x1E03 SWAP1 PUSH2 0x2DF5 JUMP JUMPDEST DUP1 ISZERO PUSH2 0x1E4E JUMPI DUP1 PUSH1 0x1F LT PUSH2 0x1E25 JUMPI PUSH2 0x100 DUP1 DUP4 SLOAD DIV MUL DUP4 MSTORE SWAP2 PUSH1 0x20 ADD SWAP2 PUSH2 0x1E4E JUMP JUMPDEST DUP3 ADD SWAP2 SWAP1 PUSH0 MSTORE PUSH1 0x20 PUSH0 KECCAK256 SWAP1 JUMPDEST DUP2 SLOAD DUP2 MSTORE SWAP1 PUSH1 0x1 ADD SWAP1 PUSH1 0x20 ADD DUP1 DUP4 GT PUSH2 0x1E31 JUMPI DUP3 SWAP1 SUB PUSH1 0x1F AND DUP3 ADD SWAP2 JUMPDEST POP POP POP POP POP DUP2 MSTORE PUSH1 0x20 ADD PUSH1 0x9 DUP3 ADD SLOAD DUP2 MSTORE POP POP SWAP1 POP SWAP2 SWAP1 POP JUMP JUMPDEST PUSH1 0x6 PUSH1 0x20 MSTORE DUP2 PUSH0 MSTORE PUSH1 0x40 PUSH0 KECCAK256 DUP2 DUP2 SLOAD DUP2 LT PUSH2 0x1E81 JUMPI PUSH0 DUP1 REVERT JUMPDEST SWAP1 PUSH0 MSTORE PUSH1 0x20 PUSH0 KECCAK256 ADD PUSH0 SWAP2 POP SWAP2 POP SWAP1 SLOAD SWAP1 PUSH2 0x100 EXP SWAP1 DIV PUSH20 0xFFFFFFFFFFFFFFFFFFFFFFFFFFFFFFFFFFFFFFFF AND DUP2 JUMP JUMPDEST PUSH2 0x1EB8 PUSH2 0x22DD JUMP JUMPDEST PUSH0 PUSH20 0xFFFFFFFFFFFFFFFFFFFFFFFFFFFFFFFFFFFFFFFF AND DUP2 PUSH20 0xFFFFFFFFFFFFFFFFFFFFFFFFFFFFFFFFFFFFFFFF AND SUB PUSH2 0x1F28 JUMPI PUSH0 PUSH1 0x40 MLOAD PUSH32 0x1E4FBDF700000000000000000000000000000000000000000000000000000000 DUP2 MSTORE PUSH1 0x4 ADD PUSH2 0x1F1F SWAP2 SWAP1 PUSH2 0x2C20 JUMP JUMPDEST PUSH1 0x40 MLOAD DUP1 SWAP2 SUB SWAP1 REVERT JUMPDEST PUSH2 0x1F31 DUP2 PUSH2 0x2364 JUMP JUMPDEST POP JUMP JUMPDEST PUSH1 0x60 PUSH1 0x7 DUP1 SLOAD DUP1 PUSH1 0x20 MUL PUSH1 0x20 ADD PUSH1 0x40 MLOAD SWAP1 DUP2 ADD PUSH1 0x40 MSTORE DUP1 SWAP3 SWAP2 SWAP1 DUP2 DUP2 MSTORE PUSH1 0x20 ADD PUSH0 SWAP1 JUMPDEST DUP3 DUP3 LT ISZERO PUSH2 0x22D4 JUMPI DUP4 DUP3 SWAP1 PUSH0 MSTORE PUSH1 0x20 PUSH0 KECCAK256 SWAP1 PUSH1 0xA MUL ADD PUSH1 0x40 MLOAD DUP1 PUSH2 0x140 ADD PUSH1 0x40 MSTORE SWAP1 DUP2 PUSH0 DUP3 ADD SLOAD DUP2 MSTORE PUSH1 0x20 ADD PUSH1 0x1 DUP3 ADD DUP1 SLOAD PUSH2 0x1F92 SWAP1 PUSH2 0x2DF5 JUMP JUMPDEST DUP1 PUSH1 0x1F ADD PUSH1 0x20 DUP1 SWAP2 DIV MUL PUSH1 0x20 ADD PUSH1 0x40 MLOAD SWAP1 DUP2 ADD PUSH1 0x40 MSTORE DUP1 SWAP3 SWAP2 SWAP1 DUP2 DUP2 MSTORE PUSH1 0x20 ADD DUP3 DUP1 SLOAD PUSH2 0x1FBE SWAP1 PUSH2 0x2DF5 JUMP JUMPDEST DUP1 ISZERO PUSH2 0x2009 JUMPI DUP1 PUSH1 0x1F LT PUSH2 0x1FE0 JUMPI PUSH2 0x100 DUP1 DUP4 SLOAD DIV MUL DUP4 MSTORE SWAP2 PUSH1 0x20 ADD SWAP2 PUSH2 0x2009 JUMP JUMPDEST DUP3 ADD SWAP2 SWAP1 PUSH0 MSTORE PUSH1 0x20 PUSH0 KECCAK256 SWAP1 JUMPDEST DUP2 SLOAD DUP2 MSTORE SWAP1 PUSH1 0x1 ADD SWAP1 PUSH1 0x20 ADD DUP1 DUP4 GT PUSH2 0x1FEC JUMPI DUP3 SWAP1 SUB PUSH1 0x1F AND DUP3 ADD SWAP2 JUMPDEST POP POP POP POP POP DUP2 MSTORE PUSH1 0x20 ADD PUSH1 0x2 DUP3 ADD DUP1 SLOAD PUSH2 0x2022 SWAP1 PUSH2 0x2DF5 JUMP JUMPDEST DUP1 PUSH1 0x1F ADD PUSH1 0x20 DUP1 SWAP2 DIV MUL PUSH1 0x20 ADD PUSH1 0x40 MLOAD SWAP1 DUP2 ADD PUSH1 0x40 MSTORE DUP1 SWAP3 SWAP2 SWAP1 DUP2 DUP2 MSTORE PUSH1 0x20 ADD DUP3 DUP1 SLOAD PUSH2 0x204E SWAP1 PUSH2 0x2DF5 JUMP JUMPDEST DUP1 ISZERO PUSH2 0x2099 JUMPI DUP1 PUSH1 0x1F LT PUSH2 0x2070 JUMPI PUSH2 0x100 DUP1 DUP4 SLOAD DIV MUL DUP4 MSTORE SWAP2 PUSH1 0x20 ADD SWAP2 PUSH2 0x2099 JUMP JUMPDEST DUP3 ADD SWAP2 SWAP1 PUSH0 MSTORE PUSH1 0x20 PUSH0 KECCAK256 SWAP1 JUMPDEST DUP2 SLOAD DUP2 MSTORE SWAP1 PUSH1 0x1 ADD SWAP1 PUSH1 0x20 ADD DUP1 DUP4 GT PUSH2 0x207C JUMPI DUP3 SWAP1 SUB PUSH1 0x1F AND DUP3 ADD SWAP2 JUMPDEST POP POP POP POP POP DUP2 MSTORE PUSH1 0x20 ADD PUSH1 0x3 DUP3 ADD SLOAD DUP2 MSTORE PUSH1 0x20 ADD PUSH1 0x4 DUP3 ADD DUP1 SLOAD PUSH2 0x20BC SWAP1 PUSH2 0x2DF5 JUMP JUMPDEST DUP1 PUSH1 0x1F ADD PUSH1 0x20 DUP1 SWAP2 DIV MUL PUSH1 0x20 ADD PUSH1 0x40 MLOAD SWAP1 DUP2 ADD PUSH1 0x40 MSTORE DUP1 SWAP3 SWAP2 SWAP1 DUP2 DUP2 MSTORE PUSH1 0x20 ADD DUP3 DUP1 SLOAD PUSH2 0x20E8 SWAP1 PUSH2 0x2DF5 JUMP JUMPDEST DUP1 ISZERO PUSH2 0x2133 JUMPI DUP1 PUSH1 0x1F LT PUSH2 0x210A JUMPI PUSH2 0x100 DUP1 DUP4 SLOAD DIV MUL DUP4 MSTORE SWAP2 PUSH1 0x20 ADD SWAP2 PUSH2 0x2133 JUMP JUMPDEST DUP3 ADD SWAP2 SWAP1 PUSH0 MSTORE PUSH1 0x20 PUSH0 KECCAK256 SWAP1 JUMPDEST DUP2 SLOAD DUP2 MSTORE SWAP1 PUSH1 0x1 ADD SWAP1 PUSH1 0x20 ADD DUP1 DUP4 GT PUSH2 0x2116 JUMPI DUP3 SWAP1 SUB PUSH1 0x1F AND DUP3 ADD SWAP2 JUMPDEST POP POP POP POP POP DUP2 MSTORE PUSH1 0x20 ADD PUSH1 0x5 DUP3 ADD SLOAD DUP2 MSTORE PUSH1 0x20 ADD PUSH1 0x6 DUP3 ADD PUSH0 SWAP1 SLOAD SWAP1 PUSH2 0x100 EXP SWAP1 DIV PUSH20 0xFFFFFFFFFFFFFFFFFFFFFFFFFFFFFFFFFFFFFFFF AND PUSH20 0xFFFFFFFFFFFFFFFFFFFFFFFFFFFFFFFFFFFFFFFF AND PUSH20 0xFFFFFFFFFFFFFFFFFFFFFFFFFFFFFFFFFFFFFFFF AND DUP2 MSTORE PUSH1 0x20 ADD PUSH1 0x7 DUP3 ADD DUP1 SLOAD PUSH2 0x21AB SWAP1 PUSH2 0x2DF5 JUMP JUMPDEST DUP1 PUSH1 0x1F ADD PUSH1 0x20 DUP1 SWAP2 DIV MUL PUSH1 0x20 ADD PUSH1 0x40 MLOAD SWAP1 DUP2 ADD PUSH1 0x40 MSTORE DUP1 SWAP3 SWAP2 SWAP1 DUP2 DUP2 MSTORE PUSH1 0x20 ADD DUP3 DUP1 SLOAD PUSH2 0x21D7 SWAP1 PUSH2 0x2DF5 JUMP JUMPDEST DUP1 ISZERO PUSH2 0x2222 JUMPI DUP1 PUSH1 0x1F LT PUSH2 0x21F9 JUMPI PUSH2 0x100 DUP1 DUP4 SLOAD DIV MUL DUP4 MSTORE SWAP2 PUSH1 0x20 ADD SWAP2 PUSH2 0x2222 JUMP JUMPDEST DUP3 ADD SWAP2 SWAP1 PUSH0 MSTORE PUSH1 0x20 PUSH0 KECCAK256 SWAP1 JUMPDEST DUP2 SLOAD DUP2 MSTORE SWAP1 PUSH1 0x1 ADD SWAP1 PUSH1 0x20 ADD DUP1 DUP4 GT PUSH2 0x2205 JUMPI DUP3 SWAP1 SUB PUSH1 0x1F AND DUP3 ADD SWAP2 JUMPDEST POP POP POP POP POP DUP2 MSTORE PUSH1 0x20 ADD PUSH1 0x8 DUP3 ADD DUP1 SLOAD PUSH2 0x223B SWAP1 PUSH2 0x2DF5 JUMP JUMPDEST DUP1 PUSH1 0x1F ADD PUSH1 0x20 DUP1 SWAP2 DIV MUL PUSH1 0x20 ADD PUSH1 0x40 MLOAD SWAP1 DUP2 ADD PUSH1 0x40 MSTORE DUP1 SWAP3 SWAP2 SWAP1 DUP2 DUP2 MSTORE PUSH1 0x20 ADD DUP3 DUP1 SLOAD PUSH2 0x2267 SWAP1 PUSH2 0x2DF5 JUMP JUMPDEST DUP1 ISZERO PUSH2 0x22B2 JUMPI DUP1 PUSH1 0x1F LT PUSH2 0x2289 JUMPI PUSH2 0x100 DUP1 DUP4 SLOAD DIV MUL DUP4 MSTORE SWAP2 PUSH1 0x20 ADD SWAP2 PUSH2 0x22B2 JUMP JUMPDEST DUP3 ADD SWAP2 SWAP1 PUSH0 MSTORE PUSH1 0x20 PUSH0 KECCAK256 SWAP1 JUMPDEST DUP2 SLOAD DUP2 MSTORE SWAP1 PUSH1 0x1 ADD SWAP1 PUSH1 0x20 ADD DUP1 DUP4 GT PUSH2 0x2295 JUMPI DUP3 SWAP1 SUB PUSH1 0x1F AND DUP3 ADD SWAP2 JUMPDEST POP POP POP POP POP DUP2 MSTORE PUSH1 0x20 ADD PUSH1 0x9 DUP3 ADD SLOAD DUP2 MSTORE POP POP DUP2 MSTORE PUSH1 0x20 ADD SWAP1 PUSH1 0x1 ADD SWAP1 PUSH2 0x1F57 JUMP JUMPDEST POP POP POP POP SWAP1 POP SWAP1 JUMP JUMPDEST PUSH2 0x22E5 PUSH2 0x2425 JUMP JUMPDEST PUSH20 0xFFFFFFFFFFFFFFFFFFFFFFFFFFFFFFFFFFFFFFFF AND PUSH2 0x2303 PUSH2 0x1486 JUMP JUMPDEST PUSH20 0xFFFFFFFFFFFFFFFFFFFFFFFFFFFFFFFFFFFFFFFF AND EQ PUSH2 0x2362 JUMPI PUSH2 0x2326 PUSH2 0x2425 JUMP JUMPDEST PUSH1 0x40 MLOAD PUSH32 0x118CDAA700000000000000000000000000000000000000000000000000000000 DUP2 MSTORE PUSH1 0x4 ADD PUSH2 0x2359 SWAP2 SWAP1 PUSH2 0x2C20 JUMP JUMPDEST PUSH1 0x40 MLOAD DUP1 SWAP2 SUB SWAP1 REVERT JUMPDEST JUMP JUMPDEST PUSH0 DUP1 PUSH0 SWAP1 SLOAD SWAP1 PUSH2 0x100 EXP SWAP1 DIV PUSH20 0xFFFFFFFFFFFFFFFFFFFFFFFFFFFFFFFFFFFFFFFF AND SWAP1 POP DUP2 PUSH0 DUP1 PUSH2 0x100 EXP DUP2 SLOAD DUP2 PUSH20 0xFFFFFFFFFFFFFFFFFFFFFFFFFFFFFFFFFFFFFFFF MUL NOT AND SWAP1 DUP4 PUSH20 0xFFFFFFFFFFFFFFFFFFFFFFFFFFFFFFFFFFFFFFFF AND MUL OR SWAP1 SSTORE POP DUP2 PUSH20 0xFFFFFFFFFFFFFFFFFFFFFFFFFFFFFFFFFFFFFFFF AND DUP2 PUSH20 0xFFFFFFFFFFFFFFFFFFFFFFFFFFFFFFFFFFFFFFFF AND PUSH32 0x8BE0079C531659141344CD1FD0A4F28419497F9722A3DAAFE3B4186F6B6457E0 PUSH1 0x40 MLOAD PUSH1 0x40 MLOAD DUP1 SWAP2 SUB SWAP1 LOG3 POP POP JUMP JUMPDEST PUSH0 CALLER SWAP1 POP SWAP1 JUMP JUMPDEST PUSH1 0x40 MLOAD DUP1 PUSH2 0x140 ADD PUSH1 0x40 MSTORE DUP1 PUSH0 DUP2 MSTORE PUSH1 0x20 ADD PUSH1 0x60 DUP2 MSTORE PUSH1 0x20 ADD PUSH1 0x60 DUP2 MSTORE PUSH1 0x20 ADD PUSH0 DUP2 MSTORE PUSH1 0x20 ADD PUSH1 0x60 DUP2 MSTORE PUSH1 0x20 ADD PUSH0 DUP2 MSTORE PUSH1 0x20 ADD PUSH0 PUSH20 0xFFFFFFFFFFFFFFFFFFFFFFFFFFFFFFFFFFFFFFFF AND DUP2 MSTORE PUSH1 0x20 ADD PUSH1 0x60 DUP2 MSTORE PUSH1 0x20 ADD PUSH1 0x60 DUP2 MSTORE PUSH1 0x20 ADD PUSH0 DUP2 MSTORE POP SWAP1 JUMP JUMPDEST PUSH0 PUSH1 0x40 MLOAD SWAP1 POP SWAP1 JUMP JUMPDEST PUSH0 DUP1 REVERT JUMPDEST PUSH0 DUP1 REVERT JUMPDEST PUSH0 DUP2 SWAP1 POP SWAP2 SWAP1 POP JUMP JUMPDEST PUSH2 0x24B3 DUP2 PUSH2 0x24A1 JUMP JUMPDEST DUP2 EQ PUSH2 0x24BD JUMPI PUSH0 DUP1 REVERT JUMPDEST POP JUMP JUMPDEST PUSH0 DUP2 CALLDATALOAD SWAP1 POP PUSH2 0x24CE DUP2 PUSH2 0x24AA JUMP JUMPDEST SWAP3 SWAP2 POP POP JUMP JUMPDEST PUSH0 PUSH1 0x20 DUP3 DUP5 SUB SLT ISZERO PUSH2 0x24E9 JUMPI PUSH2 0x24E8 PUSH2 0x2499 JUMP JUMPDEST JUMPDEST PUSH0 PUSH2 0x24F6 DUP5 DUP3 DUP6 ADD PUSH2 0x24C0 JUMP JUMPDEST SWAP2 POP POP SWAP3 SWAP2 POP POP JUMP JUMPDEST PUSH2 0x2508 DUP2 PUSH2 0x24A1 JUMP JUMPDEST DUP3 MSTORE POP POP JUMP JUMPDEST PUSH0 DUP2 MLOAD SWAP1 POP SWAP2 SWAP1 POP JUMP JUMPDEST PUSH0 DUP3 DUP3 MSTORE PUSH1 0x20 DUP3 ADD SWAP1 POP SWAP3 SWAP2 POP POP JUMP JUMPDEST DUP3 DUP2 DUP4 MCOPY PUSH0 DUP4 DUP4 ADD MSTORE POP POP POP JUMP JUMPDEST PUSH0 PUSH1 0x1F NOT PUSH1 0x1F DUP4 ADD AND SWAP1 POP SWAP2 SWAP1 POP JUMP JUMPDEST PUSH0 PUSH2 0x2550 DUP3 PUSH2 0x250E JUMP JUMPDEST PUSH2 0x255A DUP2 DUP6 PUSH2 0x2518 JUMP JUMPDEST SWAP4 POP PUSH2 0x256A DUP2 DUP6 PUSH1 0x20 DUP7 ADD PUSH2 0x2528 JUMP JUMPDEST PUSH2 0x2573 DUP2 PUSH2 0x2536 JUMP JUMPDEST DUP5 ADD SWAP2 POP POP SWAP3 SWAP2 POP POP JUMP JUMPDEST PUSH0 PUSH20 0xFFFFFFFFFFFFFFFFFFFFFFFFFFFFFFFFFFFFFFFF DUP3 AND SWAP1 POP SWAP2 SWAP1 POP JUMP JUMPDEST PUSH0 PUSH2 0x25A7 DUP3 PUSH2 0x257E JUMP JUMPDEST SWAP1 POP SWAP2 SWAP1 POP JUMP JUMPDEST PUSH2 0x25B7 DUP2 PUSH2 0x259D JUMP JUMPDEST DUP3 MSTORE POP POP JUMP JUMPDEST PUSH0 PUSH2 0x140 DUP3 ADD SWAP1 POP PUSH2 0x25D1 PUSH0 DUP4 ADD DUP14 PUSH2 0x24FF JUMP JUMPDEST DUP2 DUP2 SUB PUSH1 0x20 DUP4 ADD MSTORE PUSH2 0x25E3 DUP2 DUP13 PUSH2 0x2546 JUMP JUMPDEST SWAP1 POP DUP2 DUP2 SUB PUSH1 0x40 DUP4 ADD MSTORE PUSH2 0x25F7 DUP2 DUP12 PUSH2 0x2546 JUMP JUMPDEST SWAP1 POP PUSH2 0x2606 PUSH1 0x60 DUP4 ADD DUP11 PUSH2 0x24FF JUMP JUMPDEST DUP2 DUP2 SUB PUSH1 0x80 DUP4 ADD MSTORE PUSH2 0x2618 DUP2 DUP10 PUSH2 0x2546 JUMP JUMPDEST SWAP1 POP PUSH2 0x2627 PUSH1 0xA0 DUP4 ADD DUP9 PUSH2 0x24FF JUMP JUMPDEST PUSH2 0x2634 PUSH1 0xC0 DUP4 ADD DUP8 PUSH2 0x25AE JUMP JUMPDEST DUP2 DUP2 SUB PUSH1 0xE0 DUP4 ADD MSTORE PUSH2 0x2646 DUP2 DUP7 PUSH2 0x2546 JUMP JUMPDEST SWAP1 POP DUP2 DUP2 SUB PUSH2 0x100 DUP4 ADD MSTORE PUSH2 0x265B DUP2 DUP6 PUSH2 0x2546 JUMP JUMPDEST SWAP1 POP PUSH2 0x266B PUSH2 0x120 DUP4 ADD DUP5 PUSH2 0x24FF JUMP JUMPDEST SWAP12 SWAP11 POP POP POP POP POP POP POP POP POP POP POP JUMP JUMPDEST PUSH2 0x2683 DUP2 PUSH2 0x259D JUMP JUMPDEST DUP2 EQ PUSH2 0x268D JUMPI PUSH0 DUP1 REVERT JUMPDEST POP JUMP JUMPDEST PUSH0 DUP2 CALLDATALOAD SWAP1 POP PUSH2 0x269E DUP2 PUSH2 0x267A JUMP JUMPDEST SWAP3 SWAP2 POP POP JUMP JUMPDEST PUSH0 PUSH1 0x20 DUP3 DUP5 SUB SLT ISZERO PUSH2 0x26B9 JUMPI PUSH2 0x26B8 PUSH2 0x2499 JUMP JUMPDEST JUMPDEST PUSH0 PUSH2 0x26C6 DUP5 DUP3 DUP6 ADD PUSH2 0x2690 JUMP JUMPDEST SWAP2 POP POP SWAP3 SWAP2 POP POP JUMP JUMPDEST PUSH0 DUP2 MLOAD SWAP1 POP SWAP2 SWAP1 POP JUMP JUMPDEST PUSH0 DUP3 DUP3 MSTORE PUSH1 0x20 DUP3 ADD SWAP1 POP SWAP3 SWAP2 POP POP JUMP JUMPDEST PUSH0 DUP2 SWAP1 POP PUSH1 0x20 DUP3 ADD SWAP1 POP SWAP2 SWAP1 POP JUMP JUMPDEST PUSH2 0x2701 DUP2 PUSH2 0x24A1 JUMP JUMPDEST DUP3 MSTORE POP POP JUMP JUMPDEST PUSH0 DUP3 DUP3 MSTORE PUSH1 0x20 DUP3 ADD SWAP1 POP SWAP3 SWAP2 POP POP JUMP JUMPDEST PUSH0 PUSH2 0x2721 DUP3 PUSH2 0x250E JUMP JUMPDEST PUSH2 0x272B DUP2 DUP6 PUSH2 0x2707 JUMP JUMPDEST SWAP4 POP PUSH2 0x273B DUP2 DUP6 PUSH1 0x20 DUP7 ADD PUSH2 0x2528 JUMP JUMPDEST PUSH2 0x2744 DUP2 PUSH2 0x2536 JUMP JUMPDEST DUP5 ADD SWAP2 POP POP SWAP3 SWAP2 POP POP JUMP JUMPDEST PUSH2 0x2758 DUP2 PUSH2 0x259D JUMP JUMPDEST DUP3 MSTORE POP POP JUMP JUMPDEST PUSH0 PUSH2 0x140 DUP4 ADD PUSH0 DUP4 ADD MLOAD PUSH2 0x2774 PUSH0 DUP7 ADD DUP3 PUSH2 0x26F8 JUMP JUMPDEST POP PUSH1 0x20 DUP4 ADD MLOAD DUP5 DUP3 SUB PUSH1 0x20 DUP7 ADD MSTORE PUSH2 0x278C DUP3 DUP3 PUSH2 0x2717 JUMP JUMPDEST SWAP2 POP POP PUSH1 0x40 DUP4 ADD MLOAD DUP5 DUP3 SUB PUSH1 0x40 DUP7 ADD MSTORE PUSH2 0x27A6 DUP3 DUP3 PUSH2 0x2717 JUMP JUMPDEST SWAP2 POP POP PUSH1 0x60 DUP4 ADD MLOAD PUSH2 0x27BB PUSH1 0x60 DUP7 ADD DUP3 PUSH2 0x26F8 JUMP JUMPDEST POP PUSH1 0x80 DUP4 ADD MLOAD DUP5 DUP3 SUB PUSH1 0x80 DUP7 ADD MSTORE PUSH2 0x27D3 DUP3 DUP3 PUSH2 0x2717 JUMP JUMPDEST SWAP2 POP POP PUSH1 0xA0 DUP4 ADD MLOAD PUSH2 0x27E8 PUSH1 0xA0 DUP7 ADD DUP3 PUSH2 0x26F8 JUMP JUMPDEST POP PUSH1 0xC0 DUP4 ADD MLOAD PUSH2 0x27FB PUSH1 0xC0 DUP7 ADD DUP3 PUSH2 0x274F JUMP JUMPDEST POP PUSH1 0xE0 DUP4 ADD MLOAD DUP5 DUP3 SUB PUSH1 0xE0 DUP7 ADD MSTORE PUSH2 0x2813 DUP3 DUP3 PUSH2 0x2717 JUMP JUMPDEST SWAP2 POP POP PUSH2 0x100 DUP4 ADD MLOAD DUP5 DUP3 SUB PUSH2 0x100 DUP7 ADD MSTORE PUSH2 0x282F DUP3 DUP3 PUSH2 0x2717 JUMP JUMPDEST SWAP2 POP POP PUSH2 0x120 DUP4 ADD MLOAD PUSH2 0x2846 PUSH2 0x120 DUP7 ADD DUP3 PUSH2 0x26F8 JUMP JUMPDEST POP DUP1 SWAP2 POP POP SWAP3 SWAP2 POP POP JUMP JUMPDEST PUSH0 PUSH2 0x285C DUP4 DUP4 PUSH2 0x275E JUMP JUMPDEST SWAP1 POP SWAP3 SWAP2 POP POP JUMP JUMPDEST PUSH0 PUSH1 0x20 DUP3 ADD SWAP1 POP SWAP2 SWAP1 POP JUMP JUMPDEST PUSH0 PUSH2 0x287A DUP3 PUSH2 0x26CF JUMP JUMPDEST PUSH2 0x2884 DUP2 DUP6 PUSH2 0x26D9 JUMP JUMPDEST SWAP4 POP DUP4 PUSH1 0x20 DUP3 MUL DUP6 ADD PUSH2 0x2896 DUP6 PUSH2 0x26E9 JUMP JUMPDEST DUP1 PUSH0 JUMPDEST DUP6 DUP2 LT ISZERO PUSH2 0x28D1 JUMPI DUP5 DUP5 SUB DUP10 MSTORE DUP2 MLOAD PUSH2 0x28B2 DUP6 DUP3 PUSH2 0x2851 JUMP JUMPDEST SWAP5 POP PUSH2 0x28BD DUP4 PUSH2 0x2864 JUMP JUMPDEST SWAP3 POP PUSH1 0x20 DUP11 ADD SWAP10 POP POP PUSH1 0x1 DUP2 ADD SWAP1 POP PUSH2 0x2899 JUMP JUMPDEST POP DUP3 SWAP8 POP DUP8 SWAP6 POP POP POP POP POP POP SWAP3 SWAP2 POP POP JUMP JUMPDEST PUSH0 PUSH1 0x20 DUP3 ADD SWAP1 POP DUP2 DUP2 SUB PUSH0 DUP4 ADD MSTORE PUSH2 0x28FB DUP2 DUP5 PUSH2 0x2870 JUMP JUMPDEST SWAP1 POP SWAP3 SWAP2 POP POP JUMP JUMPDEST PUSH0 DUP2 MLOAD SWAP1 POP SWAP2 SWAP1 POP JUMP JUMPDEST PUSH0 DUP3 DUP3 MSTORE PUSH1 0x20 DUP3 ADD SWAP1 POP SWAP3 SWAP2 POP POP JUMP JUMPDEST PUSH0 DUP2 SWAP1 POP PUSH1 0x20 DUP3 ADD SWAP1 POP SWAP2 SWAP1 POP JUMP JUMPDEST PUSH0 PUSH2 0x2937 DUP4 DUP4 PUSH2 0x274F JUMP JUMPDEST PUSH1 0x20 DUP4 ADD SWAP1 POP SWAP3 SWAP2 POP POP JUMP JUMPDEST PUSH0 PUSH1 0x20 DUP3 ADD SWAP1 POP SWAP2 SWAP1 POP JUMP JUMPDEST PUSH0 PUSH2 0x2959 DUP3 PUSH2 0x2903 JUMP JUMPDEST PUSH2 0x2963 DUP2 DUP6 PUSH2 0x290D JUMP JUMPDEST SWAP4 POP PUSH2 0x296E DUP4 PUSH2 0x291D JUMP JUMPDEST DUP1 PUSH0 JUMPDEST DUP4 DUP2 LT ISZERO PUSH2 0x299E JUMPI DUP2 MLOAD PUSH2 0x2985 DUP9 DUP3 PUSH2 0x292C JUMP JUMPDEST SWAP8 POP PUSH2 0x2990 DUP4 PUSH2 0x2943 JUMP JUMPDEST SWAP3 POP POP PUSH1 0x1 DUP2 ADD SWAP1 POP PUSH2 0x2971 JUMP JUMPDEST POP DUP6 SWAP4 POP POP POP POP SWAP3 SWAP2 POP POP JUMP JUMPDEST PUSH0 PUSH1 0x20 DUP3 ADD SWAP1 POP DUP2 DUP2 SUB PUSH0 DUP4 ADD MSTORE PUSH2 0x29C3 DUP2 DUP5 PUSH2 0x294F JUMP JUMPDEST SWAP1 POP SWAP3 SWAP2 POP POP JUMP JUMPDEST PUSH0 DUP1 REVERT JUMPDEST PUSH0 DUP1 REVERT JUMPDEST PUSH32 0x4E487B7100000000000000000000000000000000000000000000000000000000 PUSH0 MSTORE PUSH1 0x41 PUSH1 0x4 MSTORE PUSH1 0x24 PUSH0 REVERT JUMPDEST PUSH2 0x2A09 DUP3 PUSH2 0x2536 JUMP JUMPDEST DUP2 ADD DUP2 DUP2 LT PUSH8 0xFFFFFFFFFFFFFFFF DUP3 GT OR ISZERO PUSH2 0x2A28 JUMPI PUSH2 0x2A27 PUSH2 0x29D3 JUMP JUMPDEST JUMPDEST DUP1 PUSH1 0x40 MSTORE POP POP POP JUMP JUMPDEST PUSH0 PUSH2 0x2A3A PUSH2 0x2490 JUMP JUMPDEST SWAP1 POP PUSH2 0x2A46 DUP3 DUP3 PUSH2 0x2A00 JUMP JUMPDEST SWAP2 SWAP1 POP JUMP JUMPDEST PUSH0 PUSH8 0xFFFFFFFFFFFFFFFF DUP3 GT ISZERO PUSH2 0x2A65 JUMPI PUSH2 0x2A64 PUSH2 0x29D3 JUMP JUMPDEST JUMPDEST PUSH2 0x2A6E DUP3 PUSH2 0x2536 JUMP JUMPDEST SWAP1 POP PUSH1 0x20 DUP2 ADD SWAP1 POP SWAP2 SWAP1 POP JUMP JUMPDEST DUP3 DUP2 DUP4 CALLDATACOPY PUSH0 DUP4 DUP4 ADD MSTORE POP POP POP JUMP JUMPDEST PUSH0 PUSH2 0x2A9B PUSH2 0x2A96 DUP5 PUSH2 0x2A4B JUMP JUMPDEST PUSH2 0x2A31 JUMP JUMPDEST SWAP1 POP DUP3 DUP2 MSTORE PUSH1 0x20 DUP2 ADD DUP5 DUP5 DUP5 ADD GT ISZERO PUSH2 0x2AB7 JUMPI PUSH2 0x2AB6 PUSH2 0x29CF JUMP JUMPDEST JUMPDEST PUSH2 0x2AC2 DUP5 DUP3 DUP6 PUSH2 0x2A7B JUMP JUMPDEST POP SWAP4 SWAP3 POP POP POP JUMP JUMPDEST PUSH0 DUP3 PUSH1 0x1F DUP4 ADD SLT PUSH2 0x2ADE JUMPI PUSH2 0x2ADD PUSH2 0x29CB JUMP JUMPDEST JUMPDEST DUP2 CALLDATALOAD PUSH2 0x2AEE DUP5 DUP3 PUSH1 0x20 DUP7 ADD PUSH2 0x2A89 JUMP JUMPDEST SWAP2 POP POP SWAP3 SWAP2 POP POP JUMP JUMPDEST PUSH0 DUP1 PUSH0 DUP1 PUSH1 0x80 DUP6 DUP8 SUB SLT ISZERO PUSH2 0x2B0F JUMPI PUSH2 0x2B0E PUSH2 0x2499 JUMP JUMPDEST JUMPDEST PUSH0 DUP6 ADD CALLDATALOAD PUSH8 0xFFFFFFFFFFFFFFFF DUP2 GT ISZERO PUSH2 0x2B2C JUMPI PUSH2 0x2B2B PUSH2 0x249D JUMP JUMPDEST JUMPDEST PUSH2 0x2B38 DUP8 DUP3 DUP9 ADD PUSH2 0x2ACA JUMP JUMPDEST SWAP5 POP POP PUSH1 0x20 DUP6 ADD CALLDATALOAD PUSH8 0xFFFFFFFFFFFFFFFF DUP2 GT ISZERO PUSH2 0x2B59 JUMPI PUSH2 0x2B58 PUSH2 0x249D JUMP JUMPDEST JUMPDEST PUSH2 0x2B65 DUP8 DUP3 DUP9 ADD PUSH2 0x2ACA JUMP JUMPDEST SWAP4 POP POP PUSH1 0x40 DUP6 ADD CALLDATALOAD PUSH8 0xFFFFFFFFFFFFFFFF DUP2 GT ISZERO PUSH2 0x2B86 JUMPI PUSH2 0x2B85 PUSH2 0x249D JUMP JUMPDEST JUMPDEST PUSH2 0x2B92 DUP8 DUP3 DUP9 ADD PUSH2 0x2ACA JUMP JUMPDEST SWAP3 POP POP PUSH1 0x60 PUSH2 0x2BA3 DUP8 DUP3 DUP9 ADD PUSH2 0x24C0 JUMP JUMPDEST SWAP2 POP POP SWAP3 SWAP6 SWAP2 SWAP5 POP SWAP3 POP JUMP JUMPDEST PUSH0 DUP1 PUSH1 0x40 DUP4 DUP6 SUB SLT ISZERO PUSH2 0x2BC5 JUMPI PUSH2 0x2BC4 PUSH2 0x2499 JUMP JUMPDEST JUMPDEST PUSH0 PUSH2 0x2BD2 DUP6 DUP3 DUP7 ADD PUSH2 0x24C0 JUMP JUMPDEST SWAP3 POP POP PUSH1 0x20 PUSH2 0x2BE3 DUP6 DUP3 DUP7 ADD PUSH2 0x2690 JUMP JUMPDEST SWAP2 POP POP SWAP3 POP SWAP3 SWAP1 POP JUMP JUMPDEST PUSH0 DUP2 ISZERO ISZERO SWAP1 POP SWAP2 SWAP1 POP JUMP JUMPDEST PUSH2 0x2C01 DUP2 PUSH2 0x2BED JUMP JUMPDEST DUP3 MSTORE POP POP JUMP JUMPDEST PUSH0 PUSH1 0x20 DUP3 ADD SWAP1 POP PUSH2 0x2C1A PUSH0 DUP4 ADD DUP5 PUSH2 0x2BF8 JUMP JUMPDEST SWAP3 SWAP2 POP POP JUMP JUMPDEST PUSH0 PUSH1 0x20 DUP3 ADD SWAP1 POP PUSH2 0x2C33 PUSH0 DUP4 ADD DUP5 PUSH2 0x25AE JUMP JUMPDEST SWAP3 SWAP2 POP POP JUMP JUMPDEST PUSH0 DUP1 PUSH1 0x40 DUP4 DUP6 SUB SLT ISZERO PUSH2 0x2C4F JUMPI PUSH2 0x2C4E PUSH2 0x2499 JUMP JUMPDEST JUMPDEST PUSH0 PUSH2 0x2C5C DUP6 DUP3 DUP7 ADD PUSH2 0x2690 JUMP JUMPDEST SWAP3 POP POP PUSH1 0x20 PUSH2 0x2C6D DUP6 DUP3 DUP7 ADD PUSH2 0x24C0 JUMP JUMPDEST SWAP2 POP POP SWAP3 POP SWAP3 SWAP1 POP JUMP JUMPDEST PUSH0 PUSH2 0x140 DUP4 ADD PUSH0 DUP4 ADD MLOAD PUSH2 0x2C8D PUSH0 DUP7 ADD DUP3 PUSH2 0x26F8 JUMP JUMPDEST POP PUSH1 0x20 DUP4 ADD MLOAD DUP5 DUP3 SUB PUSH1 0x20 DUP7 ADD MSTORE PUSH2 0x2CA5 DUP3 DUP3 PUSH2 0x2717 JUMP JUMPDEST SWAP2 POP POP PUSH1 0x40 DUP4 ADD MLOAD DUP5 DUP3 SUB PUSH1 0x40 DUP7 ADD MSTORE PUSH2 0x2CBF DUP3 DUP3 PUSH2 0x2717 JUMP JUMPDEST SWAP2 POP POP PUSH1 0x60 DUP4 ADD MLOAD PUSH2 0x2CD4 PUSH1 0x60 DUP7 ADD DUP3 PUSH2 0x26F8 JUMP JUMPDEST POP PUSH1 0x80 DUP4 ADD MLOAD DUP5 DUP3 SUB PUSH1 0x80 DUP7 ADD MSTORE PUSH2 0x2CEC DUP3 DUP3 PUSH2 0x2717 JUMP JUMPDEST SWAP2 POP POP PUSH1 0xA0 DUP4 ADD MLOAD PUSH2 0x2D01 PUSH1 0xA0 DUP7 ADD DUP3 PUSH2 0x26F8 JUMP JUMPDEST POP PUSH1 0xC0 DUP4 ADD MLOAD PUSH2 0x2D14 PUSH1 0xC0 DUP7 ADD DUP3 PUSH2 0x274F JUMP JUMPDEST POP PUSH1 0xE0 DUP4 ADD MLOAD DUP5 DUP3 SUB PUSH1 0xE0 DUP7 ADD MSTORE PUSH2 0x2D2C DUP3 DUP3 PUSH2 0x2717 JUMP JUMPDEST SWAP2 POP POP PUSH2 0x100 DUP4 ADD MLOAD DUP5 DUP3 SUB PUSH2 0x100 DUP7 ADD MSTORE PUSH2 0x2D48 DUP3 DUP3 PUSH2 0x2717 JUMP JUMPDEST SWAP2 POP POP PUSH2 0x120 DUP4 ADD MLOAD PUSH2 0x2D5F PUSH2 0x120 DUP7 ADD DUP3 PUSH2 0x26F8 JUMP JUMPDEST POP DUP1 SWAP2 POP POP SWAP3 SWAP2 POP POP JUMP JUMPDEST PUSH0 PUSH1 0x20 DUP3 ADD SWAP1 POP DUP2 DUP2 SUB PUSH0 DUP4 ADD MSTORE PUSH2 0x2D82 DUP2 DUP5 PUSH2 0x2C77 JUMP JUMPDEST SWAP1 POP SWAP3 SWAP2 POP POP JUMP JUMPDEST PUSH0 DUP1 PUSH1 0x40 DUP4 DUP6 SUB SLT ISZERO PUSH2 0x2DA0 JUMPI PUSH2 0x2D9F PUSH2 0x2499 JUMP JUMPDEST JUMPDEST PUSH0 PUSH2 0x2DAD DUP6 DUP3 DUP7 ADD PUSH2 0x24C0 JUMP JUMPDEST SWAP3 POP POP PUSH1 0x20 PUSH2 0x2DBE DUP6 DUP3 DUP7 ADD PUSH2 0x24C0 JUMP JUMPDEST SWAP2 POP POP SWAP3 POP SWAP3 SWAP1 POP JUMP JUMPDEST PUSH32 0x4E487B7100000000000000000000000000000000000000000000000000000000 PUSH0 MSTORE PUSH1 0x22 PUSH1 0x4 MSTORE PUSH1 0x24 PUSH0 REVERT JUMPDEST PUSH0 PUSH1 0x2 DUP3 DIV SWAP1 POP PUSH1 0x1 DUP3 AND DUP1 PUSH2 0x2E0C JUMPI PUSH1 0x7F DUP3 AND SWAP2 POP JUMPDEST PUSH1 0x20 DUP3 LT DUP2 SUB PUSH2 0x2E1F JUMPI PUSH2 0x2E1E PUSH2 0x2DC8 JUMP JUMPDEST JUMPDEST POP SWAP2 SWAP1 POP JUMP JUMPDEST PUSH0 DUP1 REVERT JUMPDEST PUSH0 DUP1 REVERT JUMPDEST PUSH0 PUSH2 0x2E3F PUSH2 0x2E3A DUP5 PUSH2 0x2A4B JUMP JUMPDEST PUSH2 0x2A31 JUMP JUMPDEST SWAP1 POP DUP3 DUP2 MSTORE PUSH1 0x20 DUP2 ADD DUP5 DUP5 DUP5 ADD GT ISZERO PUSH2 0x2E5B JUMPI PUSH2 0x2E5A PUSH2 0x29CF JUMP JUMPDEST JUMPDEST PUSH2 0x2E66 DUP5 DUP3 DUP6 PUSH2 0x2528 JUMP JUMPDEST POP SWAP4 SWAP3 POP POP POP JUMP JUMPDEST PUSH0 DUP3 PUSH1 0x1F DUP4 ADD SLT PUSH2 0x2E82 JUMPI PUSH2 0x2E81 PUSH2 0x29CB JUMP JUMPDEST JUMPDEST DUP2 MLOAD PUSH2 0x2E92 DUP5 DUP3 PUSH1 0x20 DUP7 ADD PUSH2 0x2E2D JUMP JUMPDEST SWAP2 POP POP SWAP3 SWAP2 POP POP JUMP JUMPDEST PUSH2 0x2EA4 DUP2 PUSH2 0x2BED JUMP JUMPDEST DUP2 EQ PUSH2 0x2EAE JUMPI PUSH0 DUP1 REVERT JUMPDEST POP JUMP JUMPDEST PUSH0 DUP2 MLOAD SWAP1 POP PUSH2 0x2EBF DUP2 PUSH2 0x2E9B JUMP JUMPDEST SWAP3 SWAP2 POP POP JUMP JUMPDEST PUSH0 PUSH1 0x80 DUP3 DUP5 SUB SLT ISZERO PUSH2 0x2EDA JUMPI PUSH2 0x2ED9 PUSH2 0x2E25 JUMP JUMPDEST JUMPDEST PUSH2 0x2EE4 PUSH1 0x80 PUSH2 0x2A31 JUMP JUMPDEST SWAP1 POP PUSH0 DUP3 ADD MLOAD PUSH8 0xFFFFFFFFFFFFFFFF DUP2 GT ISZERO PUSH2 0x2F03 JUMPI PUSH2 0x2F02 PUSH2 0x2E29 JUMP JUMPDEST JUMPDEST PUSH2 0x2F0F DUP5 DUP3 DUP6 ADD PUSH2 0x2E6E JUMP JUMPDEST PUSH0 DUP4 ADD MSTORE POP PUSH1 0x20 DUP3 ADD MLOAD PUSH8 0xFFFFFFFFFFFFFFFF DUP2 GT ISZERO PUSH2 0x2F32 JUMPI PUSH2 0x2F31 PUSH2 0x2E29 JUMP JUMPDEST JUMPDEST PUSH2 0x2F3E DUP5 DUP3 DUP6 ADD PUSH2 0x2E6E JUMP JUMPDEST PUSH1 0x20 DUP4 ADD MSTORE POP PUSH1 0x40 DUP3 ADD MLOAD PUSH8 0xFFFFFFFFFFFFFFFF DUP2 GT ISZERO PUSH2 0x2F62 JUMPI PUSH2 0x2F61 PUSH2 0x2E29 JUMP JUMPDEST JUMPDEST PUSH2 0x2F6E DUP5 DUP3 DUP6 ADD PUSH2 0x2E6E JUMP JUMPDEST PUSH1 0x40 DUP4 ADD MSTORE POP PUSH1 0x60 PUSH2 0x2F82 DUP5 DUP3 DUP6 ADD PUSH2 0x2EB1 JUMP JUMPDEST PUSH1 0x60 DUP4 ADD MSTORE POP SWAP3 SWAP2 POP POP JUMP JUMPDEST PUSH0 PUSH1 0x20 DUP3 DUP5 SUB SLT ISZERO PUSH2 0x2FA3 JUMPI PUSH2 0x2FA2 PUSH2 0x2499 JUMP JUMPDEST JUMPDEST PUSH0 DUP3 ADD MLOAD PUSH8 0xFFFFFFFFFFFFFFFF DUP2 GT ISZERO PUSH2 0x2FC0 JUMPI PUSH2 0x2FBF PUSH2 0x249D JUMP JUMPDEST JUMPDEST PUSH2 0x2FCC DUP5 DUP3 DUP6 ADD PUSH2 0x2EC5 JUMP JUMPDEST SWAP2 POP POP SWAP3 SWAP2 POP POP JUMP JUMPDEST PUSH32 0x596F75206861766520746F205265676973746572640000000000000000000000 PUSH0 DUP3 ADD MSTORE POP JUMP JUMPDEST PUSH0 PUSH2 0x3009 PUSH1 0x15 DUP4 PUSH2 0x2518 JUMP JUMPDEST SWAP2 POP PUSH2 0x3014 DUP3 PUSH2 0x2FD5 JUMP JUMPDEST PUSH1 0x20 DUP3 ADD SWAP1 POP SWAP2 SWAP1 POP JUMP JUMPDEST PUSH0 PUSH1 0x20 DUP3 ADD SWAP1 POP DUP2 DUP2 SUB PUSH0 DUP4 ADD MSTORE PUSH2 0x3036 DUP2 PUSH2 0x2FFD JUMP JUMPDEST SWAP1 POP SWAP2 SWAP1 POP JUMP JUMPDEST PUSH32 0x596F752061726520616C726561647920566F7465642100000000000000000000 PUSH0 DUP3 ADD MSTORE POP JUMP JUMPDEST PUSH0 PUSH2 0x3071 PUSH1 0x16 DUP4 PUSH2 0x2518 JUMP JUMPDEST SWAP2 POP PUSH2 0x307C DUP3 PUSH2 0x303D JUMP JUMPDEST PUSH1 0x20 DUP3 ADD SWAP1 POP SWAP2 SWAP1 POP JUMP JUMPDEST PUSH0 PUSH1 0x20 DUP3 ADD SWAP1 POP DUP2 DUP2 SUB PUSH0 DUP4 ADD MSTORE PUSH2 0x309E DUP2 PUSH2 0x3065 JUMP JUMPDEST SWAP1 POP SWAP2 SWAP1 POP JUMP JUMPDEST PUSH32 0x4E487B7100000000000000000000000000000000000000000000000000000000 PUSH0 MSTORE PUSH1 0x11 PUSH1 0x4 MSTORE PUSH1 0x24 PUSH0 REVERT JUMPDEST PUSH0 PUSH2 0x30DC DUP3 PUSH2 0x24A1 JUMP JUMPDEST SWAP2 POP PUSH2 0x30E7 DUP4 PUSH2 0x24A1 JUMP JUMPDEST SWAP3 POP DUP3 DUP3 ADD SWAP1 POP DUP1 DUP3 GT ISZERO PUSH2 0x30FF JUMPI PUSH2 0x30FE PUSH2 0x30A5 JUMP JUMPDEST JUMPDEST SWAP3 SWAP2 POP POP JUMP JUMPDEST PUSH32 0x4E487B7100000000000000000000000000000000000000000000000000000000 PUSH0 MSTORE PUSH1 0x32 PUSH1 0x4 MSTORE PUSH1 0x24 PUSH0 REVERT JUMPDEST PUSH0 PUSH1 0x20 DUP3 DUP5 SUB SLT ISZERO PUSH2 0x3147 JUMPI PUSH2 0x3146 PUSH2 0x2499 JUMP JUMPDEST JUMPDEST PUSH0 DUP3 ADD MLOAD PUSH8 0xFFFFFFFFFFFFFFFF DUP2 GT ISZERO PUSH2 0x3164 JUMPI PUSH2 0x3163 PUSH2 0x249D JUMP JUMPDEST JUMPDEST PUSH2 0x3170 DUP5 DUP3 DUP6 ADD PUSH2 0x2E6E JUMP JUMPDEST SWAP2 POP POP SWAP3 SWAP2 POP POP JUMP JUMPDEST PUSH0 DUP2 SWAP1 POP DUP2 PUSH0 MSTORE PUSH1 0x20 PUSH0 KECCAK256 SWAP1 POP SWAP2 SWAP1 POP JUMP JUMPDEST PUSH0 PUSH1 0x20 PUSH1 0x1F DUP4 ADD DIV SWAP1 POP SWAP2 SWAP1 POP JUMP JUMPDEST PUSH0 DUP3 DUP3 SHL SWAP1 POP SWAP3 SWAP2 POP POP JUMP JUMPDEST PUSH0 PUSH1 0x8 DUP4 MUL PUSH2 0x31D5 PUSH32 0xFFFFFFFFFFFFFFFFFFFFFFFFFFFFFFFFFFFFFFFFFFFFFFFFFFFFFFFFFFFFFFFF DUP3 PUSH2 0x319A JUMP JUMPDEST PUSH2 0x31DF DUP7 DUP4 PUSH2 0x319A JUMP JUMPDEST SWAP6 POP DUP1 NOT DUP5 AND SWAP4 POP DUP1 DUP7 AND DUP5 OR SWAP3 POP POP POP SWAP4 SWAP3 POP POP POP JUMP JUMPDEST PUSH0 DUP2 SWAP1 POP SWAP2 SWAP1 POP JUMP JUMPDEST PUSH0 PUSH2 0x321A PUSH2 0x3215 PUSH2 0x3210 DUP5 PUSH2 0x24A1 JUMP JUMPDEST PUSH2 0x31F7 JUMP JUMPDEST PUSH2 0x24A1 JUMP JUMPDEST SWAP1 POP SWAP2 SWAP1 POP JUMP JUMPDEST PUSH0 DUP2 SWAP1 POP SWAP2 SWAP1 POP JUMP JUMPDEST PUSH2 0x3233 DUP4 PUSH2 0x3200 JUMP JUMPDEST PUSH2 0x3247 PUSH2 0x323F DUP3 PUSH2 0x3221 JUMP JUMPDEST DUP5 DUP5 SLOAD PUSH2 0x31A6 JUMP JUMPDEST DUP3 SSTORE POP POP POP POP JUMP JUMPDEST PUSH0 SWAP1 JUMP JUMPDEST PUSH2 0x325B PUSH2 0x324F JUMP JUMPDEST PUSH2 0x3266 DUP2 DUP5 DUP5 PUSH2 0x322A JUMP JUMPDEST POP POP POP JUMP JUMPDEST JUMPDEST DUP2 DUP2 LT ISZERO PUSH2 0x3289 JUMPI PUSH2 0x327E PUSH0 DUP3 PUSH2 0x3253 JUMP JUMPDEST PUSH1 0x1 DUP2 ADD SWAP1 POP PUSH2 0x326C JUMP JUMPDEST POP POP JUMP JUMPDEST PUSH1 0x1F DUP3 GT ISZERO PUSH2 0x32CE JUMPI PUSH2 0x329F DUP2 PUSH2 0x3179 JUMP JUMPDEST PUSH2 0x32A8 DUP5 PUSH2 0x318B JUMP JUMPDEST DUP2 ADD PUSH1 0x20 DUP6 LT ISZERO PUSH2 0x32B7 JUMPI DUP2 SWAP1 POP JUMPDEST PUSH2 0x32CB PUSH2 0x32C3 DUP6 PUSH2 0x318B JUMP JUMPDEST DUP4 ADD DUP3 PUSH2 0x326B JUMP JUMPDEST POP POP JUMPDEST POP POP POP JUMP JUMPDEST PUSH0 DUP3 DUP3 SHR SWAP1 POP SWAP3 SWAP2 POP POP JUMP JUMPDEST PUSH0 PUSH2 0x32EE PUSH0 NOT DUP5 PUSH1 0x8 MUL PUSH2 0x32D3 JUMP JUMPDEST NOT DUP1 DUP4 AND SWAP2 POP POP SWAP3 SWAP2 POP POP JUMP JUMPDEST PUSH0 PUSH2 0x3306 DUP4 DUP4 PUSH2 0x32DF JUMP JUMPDEST SWAP2 POP DUP3 PUSH1 0x2 MUL DUP3 OR SWAP1 POP SWAP3 SWAP2 POP POP JUMP JUMPDEST PUSH2 0x331F DUP3 PUSH2 0x250E JUMP JUMPDEST PUSH8 0xFFFFFFFFFFFFFFFF DUP2 GT ISZERO PUSH2 0x3338 JUMPI PUSH2 0x3337 PUSH2 0x29D3 JUMP JUMPDEST JUMPDEST PUSH2 0x3342 DUP3 SLOAD PUSH2 0x2DF5 JUMP JUMPDEST PUSH2 0x334D DUP3 DUP3 DUP6 PUSH2 0x328D JUMP JUMPDEST PUSH0 PUSH1 0x20 SWAP1 POP PUSH1 0x1F DUP4 GT PUSH1 0x1 DUP2 EQ PUSH2 0x337E JUMPI PUSH0 DUP5 ISZERO PUSH2 0x336C JUMPI DUP3 DUP8 ADD MLOAD SWAP1 POP JUMPDEST PUSH2 0x3376 DUP6 DUP3 PUSH2 0x32FB JUMP JUMPDEST DUP7 SSTORE POP PUSH2 0x33DD JUMP JUMPDEST PUSH1 0x1F NOT DUP5 AND PUSH2 0x338C DUP7 PUSH2 0x3179 JUMP JUMPDEST PUSH0 JUMPDEST DUP3 DUP2 LT ISZERO PUSH2 0x33B3 JUMPI DUP5 DUP10 ADD MLOAD DUP3 SSTORE PUSH1 0x1 DUP3 ADD SWAP2 POP PUSH1 0x20 DUP6 ADD SWAP5 POP PUSH1 0x20 DUP2 ADD SWAP1 POP PUSH2 0x338E JUMP JUMPDEST DUP7 DUP4 LT ISZERO PUSH2 0x33D0 JUMPI DUP5 DUP10 ADD MLOAD PUSH2 0x33CC PUSH1 0x1F DUP10 AND DUP3 PUSH2 0x32DF JUMP JUMPDEST DUP4 SSTORE POP JUMPDEST PUSH1 0x1 PUSH1 0x2 DUP9 MUL ADD DUP9 SSTORE POP POP POP JUMPDEST POP POP POP POP POP POP JUMP JUMPDEST PUSH0 DUP2 SLOAD SWAP1 POP PUSH2 0x33F3 DUP2 PUSH2 0x2DF5 JUMP JUMPDEST SWAP1 POP SWAP2 SWAP1 POP JUMP JUMPDEST DUP2 DUP2 SUB PUSH2 0x3408 JUMPI POP POP PUSH2 0x34DD JUMP JUMPDEST PUSH2 0x3411 DUP3 PUSH2 0x33E5 JUMP JUMPDEST PUSH8 0xFFFFFFFFFFFFFFFF DUP2 GT ISZERO PUSH2 0x342A JUMPI PUSH2 0x3429 PUSH2 0x29D3 JUMP JUMPDEST JUMPDEST PUSH2 0x3434 DUP3 SLOAD PUSH2 0x2DF5 JUMP JUMPDEST PUSH2 0x343F DUP3 DUP3 DUP6 PUSH2 0x328D JUMP JUMPDEST PUSH0 PUSH1 0x1F DUP4 GT PUSH1 0x1 DUP2 EQ PUSH2 0x346C JUMPI PUSH0 DUP5 ISZERO PUSH2 0x345A JUMPI DUP3 DUP8 ADD SLOAD SWAP1 POP JUMPDEST PUSH2 0x3464 DUP6 DUP3 PUSH2 0x32FB JUMP JUMPDEST DUP7 SSTORE POP PUSH2 0x34D6 JUMP JUMPDEST PUSH1 0x1F NOT DUP5 AND PUSH2 0x347A DUP8 PUSH2 0x3179 JUMP JUMPDEST SWAP7 POP PUSH2 0x3485 DUP7 PUSH2 0x3179 JUMP JUMPDEST PUSH0 JUMPDEST DUP3 DUP2 LT ISZERO PUSH2 0x34AC JUMPI DUP5 DUP10 ADD SLOAD DUP3 SSTORE PUSH1 0x1 DUP3 ADD SWAP2 POP PUSH1 0x1 DUP6 ADD SWAP5 POP PUSH1 0x20 DUP2 ADD SWAP1 POP PUSH2 0x3487 JUMP JUMPDEST DUP7 DUP4 LT ISZERO PUSH2 0x34C9 JUMPI DUP5 DUP10 ADD SLOAD PUSH2 0x34C5 PUSH1 0x1F DUP10 AND DUP3 PUSH2 0x32DF JUMP JUMPDEST DUP4 SSTORE POP JUMPDEST PUSH1 0x1 PUSH1 0x2 DUP9 MUL ADD DUP9 SSTORE POP POP POP JUMPDEST POP POP POP POP POP POP JUMPDEST JUMP JUMPDEST PUSH0 DUP2 SWAP1 POP SWAP2 SWAP1 POP JUMP JUMPDEST PUSH0 PUSH2 0x3502 PUSH2 0x34FD PUSH2 0x34F8 DUP5 PUSH2 0x34DF JUMP JUMPDEST PUSH2 0x31F7 JUMP JUMPDEST PUSH2 0x24A1 JUMP JUMPDEST SWAP1 POP SWAP2 SWAP1 POP JUMP JUMPDEST PUSH2 0x3512 DUP2 PUSH2 0x34E8 JUMP JUMPDEST DUP3 MSTORE POP POP JUMP JUMPDEST PUSH0 PUSH1 0xE0 DUP3 ADD SWAP1 POP PUSH2 0x352B PUSH0 DUP4 ADD DUP11 PUSH2 0x24FF JUMP JUMPDEST DUP2 DUP2 SUB PUSH1 0x20 DUP4 ADD MSTORE PUSH2 0x353D DUP2 DUP10 PUSH2 0x2546 JUMP JUMPDEST SWAP1 POP DUP2 DUP2 SUB PUSH1 0x40 DUP4 ADD MSTORE PUSH2 0x3551 DUP2 DUP9 PUSH2 0x2546 JUMP JUMPDEST SWAP1 POP PUSH2 0x3560 PUSH1 0x60 DUP4 ADD DUP8 PUSH2 0x3509 JUMP JUMPDEST DUP2 DUP2 SUB PUSH1 0x80 DUP4 ADD MSTORE PUSH2 0x3572 DUP2 DUP7 PUSH2 0x2546 JUMP JUMPDEST SWAP1 POP PUSH2 0x3581 PUSH1 0xA0 DUP4 ADD DUP6 PUSH2 0x24FF JUMP JUMPDEST PUSH2 0x358E PUSH1 0xC0 DUP4 ADD DUP5 PUSH2 0x25AE JUMP JUMPDEST SWAP9 SWAP8 POP POP POP POP POP POP POP POP JUMP JUMPDEST PUSH0 PUSH2 0x35A4 DUP3 PUSH2 0x24A1 JUMP JUMPDEST SWAP2 POP PUSH32 0xFFFFFFFFFFFFFFFFFFFFFFFFFFFFFFFFFFFFFFFFFFFFFFFFFFFFFFFFFFFFFFFF DUP3 SUB PUSH2 0x35D6 JUMPI PUSH2 0x35D5 PUSH2 0x30A5 JUMP JUMPDEST JUMPDEST PUSH1 0x1 DUP3 ADD SWAP1 POP SWAP2 SWAP1 POP JUMP INVALID LOG2 PUSH5 0x6970667358 0x22 SLT KECCAK256 0xE9 DUP13 COINBASE 0x4E PUSH2 0xB5E5 SGT 0xD2 PUSH26 0x2D69C13363F1FB4EF7BDDC56703107D78CE90C98877564736F6C PUSH4 0x4300081A STOP CALLER "
				},
				"gasEstimates": {
					"creation": {
						"codeDepositCost": "2769400",
						"executionCost": "infinite",
						"totalCost": "infinite"
					},
					"external": {
						"createProposal(string,string,string,uint256)": "infinite",
						"gerAllProposal()": "infinite",
						"getMyProposal(address)": "infinite",
						"getProposal(uint256)": "infinite",
						"getSigner(uint256)": "infinite",
						"hasvoted(uint256,address)": "3138",
						"myProposal(address,uint256)": "infinite",
						"owner()": "2538",
						"proposalList(uint256)": "infinite",
						"proposals(uint256)": "infinite",
						"renounceOwnership()": "infinite",
						"signing(uint256)": "infinite",
						"transferOwnership(address)": "infinite",
						"voter(uint256,uint256)": "infinite"
					}
				},
				"methodIdentifiers": {
					"createProposal(string,string,string,uint256)": "4c15676b",
					"gerAllProposal()": "f30282a1",
					"getMyProposal(address)": "159428d1",
					"getProposal(uint256)": "c7f758a8",
					"getSigner(uint256)": "3ffefe4e",
					"hasvoted(uint256,address)": "4c50d2fb",
					"myProposal(address,uint256)": "be07d1d9",
					"owner()": "8da5cb5b",
					"proposalList(uint256)": "c6311e3f",
					"proposals(uint256)": "013cf08b",
					"renounceOwnership()": "715018a6",
					"signing(uint256)": "0f1a9d51",
					"transferOwnership(address)": "f2fde38b",
					"voter(uint256,uint256)": "d3856f3b"
				}
			},
			"storageLayout": {
				"storage": [
					{
						"astId": 8,
						"contract": "contracts/Petisi.sol:Petisi",
						"label": "_owner",
						"offset": 0,
						"slot": "0",
						"type": "t_address"
					},
					{
						"astId": 229,
						"contract": "contracts/Petisi.sol:Petisi",
						"label": "profileContract",
						"offset": 0,
						"slot": "1",
						"type": "t_contract(IProfile)220"
					},
					{
						"astId": 269,
						"contract": "contracts/Petisi.sol:Petisi",
						"label": "counterProposal",
						"offset": 0,
						"slot": "2",
						"type": "t_uint256"
					},
					{
						"astId": 295,
						"contract": "contracts/Petisi.sol:Petisi",
						"label": "myProposal",
						"offset": 0,
						"slot": "3",
						"type": "t_mapping(t_address,t_array(t_struct(Proposal)266_storage)dyn_storage)"
					},
					{
						"astId": 300,
						"contract": "contracts/Petisi.sol:Petisi",
						"label": "proposals",
						"offset": 0,
						"slot": "4",
						"type": "t_mapping(t_uint256,t_struct(Proposal)266_storage)"
					},
					{
						"astId": 306,
						"contract": "contracts/Petisi.sol:Petisi",
						"label": "hasvoted",
						"offset": 0,
						"slot": "5",
						"type": "t_mapping(t_uint256,t_mapping(t_address,t_bool))"
					},
					{
						"astId": 311,
						"contract": "contracts/Petisi.sol:Petisi",
						"label": "voter",
						"offset": 0,
						"slot": "6",
						"type": "t_mapping(t_uint256,t_array(t_address)dyn_storage)"
					},
					{
						"astId": 315,
						"contract": "contracts/Petisi.sol:Petisi",
						"label": "proposalList",
						"offset": 0,
						"slot": "7",
						"type": "t_array(t_struct(Proposal)266_storage)dyn_storage"
					}
				],
				"types": {
					"t_address": {
						"encoding": "inplace",
						"label": "address",
						"numberOfBytes": "20"
					},
					"t_array(t_address)dyn_storage": {
						"base": "t_address",
						"encoding": "dynamic_array",
						"label": "address[]",
						"numberOfBytes": "32"
					},
					"t_array(t_struct(Proposal)266_storage)dyn_storage": {
						"base": "t_struct(Proposal)266_storage",
						"encoding": "dynamic_array",
						"label": "struct Petisi.Proposal[]",
						"numberOfBytes": "32"
					},
					"t_bool": {
						"encoding": "inplace",
						"label": "bool",
						"numberOfBytes": "1"
					},
					"t_contract(IProfile)220": {
						"encoding": "inplace",
						"label": "contract IProfile",
						"numberOfBytes": "20"
					},
					"t_mapping(t_address,t_array(t_struct(Proposal)266_storage)dyn_storage)": {
						"encoding": "mapping",
						"key": "t_address",
						"label": "mapping(address => struct Petisi.Proposal[])",
						"numberOfBytes": "32",
						"value": "t_array(t_struct(Proposal)266_storage)dyn_storage"
					},
					"t_mapping(t_address,t_bool)": {
						"encoding": "mapping",
						"key": "t_address",
						"label": "mapping(address => bool)",
						"numberOfBytes": "32",
						"value": "t_bool"
					},
					"t_mapping(t_uint256,t_array(t_address)dyn_storage)": {
						"encoding": "mapping",
						"key": "t_uint256",
						"label": "mapping(uint256 => address[])",
						"numberOfBytes": "32",
						"value": "t_array(t_address)dyn_storage"
					},
					"t_mapping(t_uint256,t_mapping(t_address,t_bool))": {
						"encoding": "mapping",
						"key": "t_uint256",
						"label": "mapping(uint256 => mapping(address => bool))",
						"numberOfBytes": "32",
						"value": "t_mapping(t_address,t_bool)"
					},
					"t_mapping(t_uint256,t_struct(Proposal)266_storage)": {
						"encoding": "mapping",
						"key": "t_uint256",
						"label": "mapping(uint256 => struct Petisi.Proposal)",
						"numberOfBytes": "32",
						"value": "t_struct(Proposal)266_storage"
					},
					"t_string_storage": {
						"encoding": "bytes",
						"label": "string",
						"numberOfBytes": "32"
					},
					"t_struct(Proposal)266_storage": {
						"encoding": "inplace",
						"label": "struct Petisi.Proposal",
						"members": [
							{
								"astId": 247,
								"contract": "contracts/Petisi.sol:Petisi",
								"label": "id",
								"offset": 0,
								"slot": "0",
								"type": "t_uint256"
							},
							{
								"astId": 249,
								"contract": "contracts/Petisi.sol:Petisi",
								"label": "title",
								"offset": 0,
								"slot": "1",
								"type": "t_string_storage"
							},
							{
								"astId": 251,
								"contract": "contracts/Petisi.sol:Petisi",
								"label": "description",
								"offset": 0,
								"slot": "2",
								"type": "t_string_storage"
							},
							{
								"astId": 253,
								"contract": "contracts/Petisi.sol:Petisi",
								"label": "votes",
								"offset": 0,
								"slot": "3",
								"type": "t_uint256"
							},
							{
								"astId": 255,
								"contract": "contracts/Petisi.sol:Petisi",
								"label": "imgUrl",
								"offset": 0,
								"slot": "4",
								"type": "t_string_storage"
							},
							{
								"astId": 257,
								"contract": "contracts/Petisi.sol:Petisi",
								"label": "deadline",
								"offset": 0,
								"slot": "5",
								"type": "t_uint256"
							},
							{
								"astId": 259,
								"contract": "contracts/Petisi.sol:Petisi",
								"label": "author",
								"offset": 0,
								"slot": "6",
								"type": "t_address"
							},
							{
								"astId": 261,
								"contract": "contracts/Petisi.sol:Petisi",
								"label": "usernameAuthor",
								"offset": 0,
								"slot": "7",
								"type": "t_string_storage"
							},
							{
								"astId": 263,
								"contract": "contracts/Petisi.sol:Petisi",
								"label": "imgAuthore",
								"offset": 0,
								"slot": "8",
								"type": "t_string_storage"
							},
							{
								"astId": 265,
								"contract": "contracts/Petisi.sol:Petisi",
								"label": "created",
								"offset": 0,
								"slot": "9",
								"type": "t_uint256"
							}
						],
						"numberOfBytes": "320"
					},
					"t_uint256": {
						"encoding": "inplace",
						"label": "uint256",
						"numberOfBytes": "32"
					}
				}
			},
			"userdoc": {
				"kind": "user",
				"methods": {},
				"version": 1
			}
		}
	}
}