{
	"contracts/VotingProfile.sol": {
		"VotingProfile": {
			"abi": [
				{
					"inputs": [
						{
							"internalType": "address",
							"name": "_user",
							"type": "address"
						}
					],
					"name": "getProfile",
					"outputs": [
						{
							"components": [
								{
									"internalType": "string",
									"name": "username",
									"type": "string"
								},
								{
									"internalType": "string",
									"name": "bio",
									"type": "string"
								},
								{
									"internalType": "bool",
									"name": "isRegistered",
									"type": "bool"
								}
							],
							"internalType": "struct VotingProfile.UserProfile",
							"name": "",
							"type": "tuple"
						}
					],
					"stateMutability": "view",
					"type": "function"
				},
				{
					"inputs": [
						{
							"internalType": "address",
							"name": "",
							"type": "address"
						}
					],
					"name": "profile",
					"outputs": [
						{
							"internalType": "string",
							"name": "username",
							"type": "string"
						},
						{
							"internalType": "string",
							"name": "bio",
							"type": "string"
						},
						{
							"internalType": "bool",
							"name": "isRegistered",
							"type": "bool"
						}
					],
					"stateMutability": "view",
					"type": "function"
				},
				{
					"inputs": [
						{
							"internalType": "string",
							"name": "_username",
							"type": "string"
						},
						{
							"internalType": "string",
							"name": "_bio",
							"type": "string"
						},
						{
							"internalType": "string",
							"name": "_imgUrl",
							"type": "string"
						}
					],
					"name": "setProfile",
					"outputs": [],
					"stateMutability": "nonpayable",
					"type": "function"
				}
			],
			"devdoc": {
				"kind": "dev",
				"methods": {},
				"version": 1
			},
			"evm": {
				"assembly": "    /* \"contracts/VotingProfile.sol\":58:532  contract VotingProfile {... */\n  mstore(0x40, 0x80)\n  callvalue\n  dup1\n  iszero\n  tag_1\n  jumpi\n  0x00\n  dup1\n  revert\ntag_1:\n  pop\n  dataSize(sub_0)\n  dup1\n  dataOffset(sub_0)\n  0x00\n  codecopy\n  0x00\n  return\nstop\n\nsub_0: assembly {\n        /* \"contracts/VotingProfile.sol\":58:532  contract VotingProfile {... */\n      mstore(0x40, 0x80)\n      callvalue\n      dup1\n      iszero\n      tag_1\n      jumpi\n      0x00\n      dup1\n      revert\n    tag_1:\n      pop\n      jumpi(tag_2, lt(calldatasize, 0x04))\n      shr(0xe0, calldataload(0x00))\n      dup1\n      0x0f53a470\n      eq\n      tag_3\n      jumpi\n      dup1\n      0x52640314\n      eq\n      tag_4\n      jumpi\n      dup1\n      0x9dd9d0fd\n      eq\n      tag_5\n      jumpi\n    tag_2:\n      0x00\n      dup1\n      revert\n        /* \"contracts/VotingProfile.sol\":417:530  function getProfile(address _user) public view returns(UserProfile memory){... */\n    tag_3:\n      tag_6\n      0x04\n      dup1\n      calldatasize\n      sub\n      dup2\n      add\n      swap1\n      tag_7\n      swap2\n      swap1\n      tag_8\n      jump\t// in\n    tag_7:\n      tag_9\n      jump\t// in\n    tag_6:\n      mload(0x40)\n      tag_10\n      swap2\n      swap1\n      tag_11\n      jump\t// in\n    tag_10:\n      mload(0x40)\n      dup1\n      swap2\n      sub\n      swap1\n      return\n        /* \"contracts/VotingProfile.sol\":243:411  function setProfile(string memory _username, string memory _bio, string memory _imgUrl) public {... */\n    tag_4:\n      tag_12\n      0x04\n      dup1\n      calldatasize\n      sub\n      dup2\n      add\n      swap1\n      tag_13\n      swap2\n      swap1\n      tag_14\n      jump\t// in\n    tag_13:\n      tag_15\n      jump\t// in\n    tag_12:\n      stop\n        /* \"contracts/VotingProfile.sol\":190:236  mapping(address => UserProfile) public profile */\n    tag_5:\n      tag_16\n      0x04\n      dup1\n      calldatasize\n      sub\n      dup2\n      add\n      swap1\n      tag_17\n      swap2\n      swap1\n      tag_8\n      jump\t// in\n    tag_17:\n      tag_18\n      jump\t// in\n    tag_16:\n      mload(0x40)\n      tag_19\n      swap4\n      swap3\n      swap2\n      swap1\n      tag_20\n      jump\t// in\n    tag_19:\n      mload(0x40)\n      dup1\n      swap2\n      sub\n      swap1\n      return\n        /* \"contracts/VotingProfile.sol\":417:530  function getProfile(address _user) public view returns(UserProfile memory){... */\n    tag_9:\n        /* \"contracts/VotingProfile.sol\":472:490  UserProfile memory */\n      tag_21\n      tag_22\n      jump\t// in\n    tag_21:\n        /* \"contracts/VotingProfile.sol\":509:516  profile */\n      0x00\n        /* \"contracts/VotingProfile.sol\":509:523  profile[_user] */\n      dup1\n        /* \"contracts/VotingProfile.sol\":517:522  _user */\n      dup4\n        /* \"contracts/VotingProfile.sol\":509:523  profile[_user] */\n      0xffffffffffffffffffffffffffffffffffffffff\n      and\n      0xffffffffffffffffffffffffffffffffffffffff\n      and\n      dup2\n      mstore\n      0x20\n      add\n      swap1\n      dup2\n      mstore\n      0x20\n      add\n      0x00\n      keccak256\n        /* \"contracts/VotingProfile.sol\":501:523  return  profile[_user] */\n      mload(0x40)\n      dup1\n      0x60\n      add\n      0x40\n      mstore\n      swap1\n      dup2\n      0x00\n      dup3\n      add\n      dup1\n      sload\n      tag_24\n      swap1\n      tag_25\n      jump\t// in\n    tag_24:\n      dup1\n      0x1f\n      add\n      0x20\n      dup1\n      swap2\n      div\n      mul\n      0x20\n      add\n      mload(0x40)\n      swap1\n      dup2\n      add\n      0x40\n      mstore\n      dup1\n      swap3\n      swap2\n      swap1\n      dup2\n      dup2\n      mstore\n      0x20\n      add\n      dup3\n      dup1\n      sload\n      tag_26\n      swap1\n      tag_25\n      jump\t// in\n    tag_26:\n      dup1\n      iszero\n      tag_27\n      jumpi\n      dup1\n      0x1f\n      lt\n      tag_28\n      jumpi\n      0x0100\n      dup1\n      dup4\n      sload\n      div\n      mul\n      dup4\n      mstore\n      swap2\n      0x20\n      add\n      swap2\n      jump(tag_27)\n    tag_28:\n      dup3\n      add\n      swap2\n      swap1\n      0x00\n      mstore\n      keccak256(0x00, 0x20)\n      swap1\n    tag_29:\n      dup2\n      sload\n      dup2\n      mstore\n      swap1\n      0x01\n      add\n      swap1\n      0x20\n      add\n      dup1\n      dup4\n      gt\n      tag_29\n      jumpi\n      dup3\n      swap1\n      sub\n      0x1f\n      and\n      dup3\n      add\n      swap2\n    tag_27:\n      pop\n      pop\n      pop\n      pop\n      pop\n      dup2\n      mstore\n      0x20\n      add\n      0x01\n      dup3\n      add\n      dup1\n      sload\n      tag_30\n      swap1\n      tag_25\n      jump\t// in\n    tag_30:\n      dup1\n      0x1f\n      add\n      0x20\n      dup1\n      swap2\n      div\n      mul\n      0x20\n      add\n      mload(0x40)\n      swap1\n      dup2\n      add\n      0x40\n      mstore\n      dup1\n      swap3\n      swap2\n      swap1\n      dup2\n      dup2\n      mstore\n      0x20\n      add\n      dup3\n      dup1\n      sload\n      tag_31\n      swap1\n      tag_25\n      jump\t// in\n    tag_31:\n      dup1\n      iszero\n      tag_32\n      jumpi\n      dup1\n      0x1f\n      lt\n      tag_33\n      jumpi\n      0x0100\n      dup1\n      dup4\n      sload\n      div\n      mul\n      dup4\n      mstore\n      swap2\n      0x20\n      add\n      swap2\n      jump(tag_32)\n    tag_33:\n      dup3\n      add\n      swap2\n      swap1\n      0x00\n      mstore\n      keccak256(0x00, 0x20)\n      swap1\n    tag_34:\n      dup2\n      sload\n      dup2\n      mstore\n      swap1\n      0x01\n      add\n      swap1\n      0x20\n      add\n      dup1\n      dup4\n      gt\n      tag_34\n      jumpi\n      dup3\n      swap1\n      sub\n      0x1f\n      and\n      dup3\n      add\n      swap2\n    tag_32:\n      pop\n      pop\n      pop\n      pop\n      pop\n      dup2\n      mstore\n      0x20\n      add\n      0x02\n      dup3\n      add\n      0x00\n      swap1\n      sload\n      swap1\n      0x0100\n      exp\n      swap1\n      div\n      0xff\n      and\n      iszero\n      iszero\n      iszero\n      iszero\n      dup2\n      mstore\n      pop\n      pop\n      swap1\n      pop\n        /* \"contracts/VotingProfile.sol\":417:530  function getProfile(address _user) public view returns(UserProfile memory){... */\n      swap2\n      swap1\n      pop\n      jump\t// out\n        /* \"contracts/VotingProfile.sol\":243:411  function setProfile(string memory _username, string memory _bio, string memory _imgUrl) public {... */\n    tag_15:\n        /* \"contracts/VotingProfile.sol\":370:404  UserProfile(_username, _bio, true) */\n      mload(0x40)\n      dup1\n      0x60\n      add\n      0x40\n      mstore\n      dup1\n        /* \"contracts/VotingProfile.sol\":382:391  _username */\n      dup5\n        /* \"contracts/VotingProfile.sol\":370:404  UserProfile(_username, _bio, true) */\n      dup2\n      mstore\n      0x20\n      add\n        /* \"contracts/VotingProfile.sol\":393:397  _bio */\n      dup4\n        /* \"contracts/VotingProfile.sol\":370:404  UserProfile(_username, _bio, true) */\n      dup2\n      mstore\n      0x20\n      add\n        /* \"contracts/VotingProfile.sol\":399:403  true */\n      0x01\n        /* \"contracts/VotingProfile.sol\":370:404  UserProfile(_username, _bio, true) */\n      iszero\n      iszero\n      dup2\n      mstore\n      pop\n        /* \"contracts/VotingProfile.sol\":348:355  profile */\n      0x00\n        /* \"contracts/VotingProfile.sol\":348:367  profile[msg.sender] */\n      dup1\n        /* \"contracts/VotingProfile.sol\":356:366  msg.sender */\n      caller\n        /* \"contracts/VotingProfile.sol\":348:367  profile[msg.sender] */\n      0xffffffffffffffffffffffffffffffffffffffff\n      and\n      0xffffffffffffffffffffffffffffffffffffffff\n      and\n      dup2\n      mstore\n      0x20\n      add\n      swap1\n      dup2\n      mstore\n      0x20\n      add\n      0x00\n      keccak256\n        /* \"contracts/VotingProfile.sol\":348:404  profile[msg.sender] = UserProfile(_username, _bio, true) */\n      0x00\n      dup3\n      add\n      mload\n      dup2\n      0x00\n      add\n      swap1\n      dup2\n      tag_36\n      swap2\n      swap1\n      tag_37\n      jump\t// in\n    tag_36:\n      pop\n      0x20\n      dup3\n      add\n      mload\n      dup2\n      0x01\n      add\n      swap1\n      dup2\n      tag_38\n      swap2\n      swap1\n      tag_37\n      jump\t// in\n    tag_38:\n      pop\n      0x40\n      dup3\n      add\n      mload\n      dup2\n      0x02\n      add\n      exp(0x0100, 0x00)\n      dup2\n      sload\n      dup2\n      0xff\n      mul\n      not\n      and\n      swap1\n      dup4\n      iszero\n      iszero\n      mul\n      or\n      swap1\n      sstore\n      pop\n      swap1\n      pop\n      pop\n        /* \"contracts/VotingProfile.sol\":243:411  function setProfile(string memory _username, string memory _bio, string memory _imgUrl) public {... */\n      pop\n      pop\n      pop\n      jump\t// out\n        /* \"contracts/VotingProfile.sol\":190:236  mapping(address => UserProfile) public profile */\n    tag_18:\n      mstore(0x20, 0x00)\n      dup1\n      0x00\n      mstore\n      keccak256(0x00, 0x40)\n      0x00\n      swap2\n      pop\n      swap1\n      pop\n      dup1\n      0x00\n      add\n      dup1\n      sload\n      tag_39\n      swap1\n      tag_25\n      jump\t// in\n    tag_39:\n      dup1\n      0x1f\n      add\n      0x20\n      dup1\n      swap2\n      div\n      mul\n      0x20\n      add\n      mload(0x40)\n      swap1\n      dup2\n      add\n      0x40\n      mstore\n      dup1\n      swap3\n      swap2\n      swap1\n      dup2\n      dup2\n      mstore\n      0x20\n      add\n      dup3\n      dup1\n      sload\n      tag_40\n      swap1\n      tag_25\n      jump\t// in\n    tag_40:\n      dup1\n      iszero\n      tag_41\n      jumpi\n      dup1\n      0x1f\n      lt\n      tag_42\n      jumpi\n      0x0100\n      dup1\n      dup4\n      sload\n      div\n      mul\n      dup4\n      mstore\n      swap2\n      0x20\n      add\n      swap2\n      jump(tag_41)\n    tag_42:\n      dup3\n      add\n      swap2\n      swap1\n      0x00\n      mstore\n      keccak256(0x00, 0x20)\n      swap1\n    tag_43:\n      dup2\n      sload\n      dup2\n      mstore\n      swap1\n      0x01\n      add\n      swap1\n      0x20\n      add\n      dup1\n      dup4\n      gt\n      tag_43\n      jumpi\n      dup3\n      swap1\n      sub\n      0x1f\n      and\n      dup3\n      add\n      swap2\n    tag_41:\n      pop\n      pop\n      pop\n      pop\n      pop\n      swap1\n      dup1\n      0x01\n      add\n      dup1\n      sload\n      tag_44\n      swap1\n      tag_25\n      jump\t// in\n    tag_44:\n      dup1\n      0x1f\n      add\n      0x20\n      dup1\n      swap2\n      div\n      mul\n      0x20\n      add\n      mload(0x40)\n      swap1\n      dup2\n      add\n      0x40\n      mstore\n      dup1\n      swap3\n      swap2\n      swap1\n      dup2\n      dup2\n      mstore\n      0x20\n      add\n      dup3\n      dup1\n      sload\n      tag_45\n      swap1\n      tag_25\n      jump\t// in\n    tag_45:\n      dup1\n      iszero\n      tag_46\n      jumpi\n      dup1\n      0x1f\n      lt\n      tag_47\n      jumpi\n      0x0100\n      dup1\n      dup4\n      sload\n      div\n      mul\n      dup4\n      mstore\n      swap2\n      0x20\n      add\n      swap2\n      jump(tag_46)\n    tag_47:\n      dup3\n      add\n      swap2\n      swap1\n      0x00\n      mstore\n      keccak256(0x00, 0x20)\n      swap1\n    tag_48:\n      dup2\n      sload\n      dup2\n      mstore\n      swap1\n      0x01\n      add\n      swap1\n      0x20\n      add\n      dup1\n      dup4\n      gt\n      tag_48\n      jumpi\n      dup3\n      swap1\n      sub\n      0x1f\n      and\n      dup3\n      add\n      swap2\n    tag_46:\n      pop\n      pop\n      pop\n      pop\n      pop\n      swap1\n      dup1\n      0x02\n      add\n      0x00\n      swap1\n      sload\n      swap1\n      0x0100\n      exp\n      swap1\n      div\n      0xff\n      and\n      swap1\n      pop\n      dup4\n      jump\t// out\n    tag_22:\n      mload(0x40)\n      dup1\n      0x60\n      add\n      0x40\n      mstore\n      dup1\n      0x60\n      dup2\n      mstore\n      0x20\n      add\n      0x60\n      dup2\n      mstore\n      0x20\n      add\n      iszero(iszero(0x00))\n      dup2\n      mstore\n      pop\n      swap1\n      jump\t// out\n        /* \"#utility.yul\":7:82   */\n    tag_49:\n        /* \"#utility.yul\":40:46   */\n      0x00\n        /* \"#utility.yul\":73:75   */\n      0x40\n        /* \"#utility.yul\":67:76   */\n      mload\n        /* \"#utility.yul\":57:76   */\n      swap1\n      pop\n        /* \"#utility.yul\":7:82   */\n      swap1\n      jump\t// out\n        /* \"#utility.yul\":88:205   */\n    tag_50:\n        /* \"#utility.yul\":197:198   */\n      0x00\n        /* \"#utility.yul\":194:195   */\n      dup1\n        /* \"#utility.yul\":187:199   */\n      revert\n        /* \"#utility.yul\":211:328   */\n    tag_51:\n        /* \"#utility.yul\":320:321   */\n      0x00\n        /* \"#utility.yul\":317:318   */\n      dup1\n        /* \"#utility.yul\":310:322   */\n      revert\n        /* \"#utility.yul\":334:460   */\n    tag_52:\n        /* \"#utility.yul\":371:378   */\n      0x00\n        /* \"#utility.yul\":411:453   */\n      0xffffffffffffffffffffffffffffffffffffffff\n        /* \"#utility.yul\":404:409   */\n      dup3\n        /* \"#utility.yul\":400:454   */\n      and\n        /* \"#utility.yul\":389:454   */\n      swap1\n      pop\n        /* \"#utility.yul\":334:460   */\n      swap2\n      swap1\n      pop\n      jump\t// out\n        /* \"#utility.yul\":466:562   */\n    tag_53:\n        /* \"#utility.yul\":503:510   */\n      0x00\n        /* \"#utility.yul\":532:556   */\n      tag_99\n        /* \"#utility.yul\":550:555   */\n      dup3\n        /* \"#utility.yul\":532:556   */\n      tag_52\n      jump\t// in\n    tag_99:\n        /* \"#utility.yul\":521:556   */\n      swap1\n      pop\n        /* \"#utility.yul\":466:562   */\n      swap2\n      swap1\n      pop\n      jump\t// out\n        /* \"#utility.yul\":568:690   */\n    tag_54:\n        /* \"#utility.yul\":641:665   */\n      tag_101\n        /* \"#utility.yul\":659:664   */\n      dup2\n        /* \"#utility.yul\":641:665   */\n      tag_53\n      jump\t// in\n    tag_101:\n        /* \"#utility.yul\":634:639   */\n      dup2\n        /* \"#utility.yul\":631:666   */\n      eq\n        /* \"#utility.yul\":621:684   */\n      tag_102\n      jumpi\n        /* \"#utility.yul\":680:681   */\n      0x00\n        /* \"#utility.yul\":677:678   */\n      dup1\n        /* \"#utility.yul\":670:682   */\n      revert\n        /* \"#utility.yul\":621:684   */\n    tag_102:\n        /* \"#utility.yul\":568:690   */\n      pop\n      jump\t// out\n        /* \"#utility.yul\":696:835   */\n    tag_55:\n        /* \"#utility.yul\":742:747   */\n      0x00\n        /* \"#utility.yul\":780:786   */\n      dup2\n        /* \"#utility.yul\":767:787   */\n      calldataload\n        /* \"#utility.yul\":758:787   */\n      swap1\n      pop\n        /* \"#utility.yul\":796:829   */\n      tag_104\n        /* \"#utility.yul\":823:828   */\n      dup2\n        /* \"#utility.yul\":796:829   */\n      tag_54\n      jump\t// in\n    tag_104:\n        /* \"#utility.yul\":696:835   */\n      swap3\n      swap2\n      pop\n      pop\n      jump\t// out\n        /* \"#utility.yul\":841:1170   */\n    tag_8:\n        /* \"#utility.yul\":900:906   */\n      0x00\n        /* \"#utility.yul\":949:951   */\n      0x20\n        /* \"#utility.yul\":937:946   */\n      dup3\n        /* \"#utility.yul\":928:935   */\n      dup5\n        /* \"#utility.yul\":924:947   */\n      sub\n        /* \"#utility.yul\":920:952   */\n      slt\n        /* \"#utility.yul\":917:1036   */\n      iszero\n      tag_106\n      jumpi\n        /* \"#utility.yul\":955:1034   */\n      tag_107\n      tag_50\n      jump\t// in\n    tag_107:\n        /* \"#utility.yul\":917:1036   */\n    tag_106:\n        /* \"#utility.yul\":1075:1076   */\n      0x00\n        /* \"#utility.yul\":1100:1153   */\n      tag_108\n        /* \"#utility.yul\":1145:1152   */\n      dup5\n        /* \"#utility.yul\":1136:1142   */\n      dup3\n        /* \"#utility.yul\":1125:1134   */\n      dup6\n        /* \"#utility.yul\":1121:1143   */\n      add\n        /* \"#utility.yul\":1100:1153   */\n      tag_55\n      jump\t// in\n    tag_108:\n        /* \"#utility.yul\":1090:1153   */\n      swap2\n      pop\n        /* \"#utility.yul\":1046:1163   */\n      pop\n        /* \"#utility.yul\":841:1170   */\n      swap3\n      swap2\n      pop\n      pop\n      jump\t// out\n        /* \"#utility.yul\":1176:1275   */\n    tag_56:\n        /* \"#utility.yul\":1228:1234   */\n      0x00\n        /* \"#utility.yul\":1262:1267   */\n      dup2\n        /* \"#utility.yul\":1256:1268   */\n      mload\n        /* \"#utility.yul\":1246:1268   */\n      swap1\n      pop\n        /* \"#utility.yul\":1176:1275   */\n      swap2\n      swap1\n      pop\n      jump\t// out\n        /* \"#utility.yul\":1281:1440   */\n    tag_57:\n        /* \"#utility.yul\":1355:1366   */\n      0x00\n        /* \"#utility.yul\":1389:1395   */\n      dup3\n        /* \"#utility.yul\":1384:1387   */\n      dup3\n        /* \"#utility.yul\":1377:1396   */\n      mstore\n        /* \"#utility.yul\":1429:1433   */\n      0x20\n        /* \"#utility.yul\":1424:1427   */\n      dup3\n        /* \"#utility.yul\":1420:1434   */\n      add\n        /* \"#utility.yul\":1405:1434   */\n      swap1\n      pop\n        /* \"#utility.yul\":1281:1440   */\n      swap3\n      swap2\n      pop\n      pop\n      jump\t// out\n        /* \"#utility.yul\":1446:1585   */\n    tag_58:\n        /* \"#utility.yul\":1535:1541   */\n      dup3\n        /* \"#utility.yul\":1530:1533   */\n      dup2\n        /* \"#utility.yul\":1525:1528   */\n      dup4\n        /* \"#utility.yul\":1519:1542   */\n      mcopy\n        /* \"#utility.yul\":1576:1577   */\n      0x00\n        /* \"#utility.yul\":1567:1573   */\n      dup4\n        /* \"#utility.yul\":1562:1565   */\n      dup4\n        /* \"#utility.yul\":1558:1574   */\n      add\n        /* \"#utility.yul\":1551:1578   */\n      mstore\n        /* \"#utility.yul\":1446:1585   */\n      pop\n      pop\n      pop\n      jump\t// out\n        /* \"#utility.yul\":1591:1693   */\n    tag_59:\n        /* \"#utility.yul\":1632:1638   */\n      0x00\n        /* \"#utility.yul\":1683:1685   */\n      0x1f\n        /* \"#utility.yul\":1679:1686   */\n      not\n        /* \"#utility.yul\":1674:1676   */\n      0x1f\n        /* \"#utility.yul\":1667:1672   */\n      dup4\n        /* \"#utility.yul\":1663:1677   */\n      add\n        /* \"#utility.yul\":1659:1687   */\n      and\n        /* \"#utility.yul\":1649:1687   */\n      swap1\n      pop\n        /* \"#utility.yul\":1591:1693   */\n      swap2\n      swap1\n      pop\n      jump\t// out\n        /* \"#utility.yul\":1699:2056   */\n    tag_60:\n        /* \"#utility.yul\":1777:1780   */\n      0x00\n        /* \"#utility.yul\":1805:1844   */\n      tag_114\n        /* \"#utility.yul\":1838:1843   */\n      dup3\n        /* \"#utility.yul\":1805:1844   */\n      tag_56\n      jump\t// in\n    tag_114:\n        /* \"#utility.yul\":1860:1921   */\n      tag_115\n        /* \"#utility.yul\":1914:1920   */\n      dup2\n        /* \"#utility.yul\":1909:1912   */\n      dup6\n        /* \"#utility.yul\":1860:1921   */\n      tag_57\n      jump\t// in\n    tag_115:\n        /* \"#utility.yul\":1853:1921   */\n      swap4\n      pop\n        /* \"#utility.yul\":1930:1995   */\n      tag_116\n        /* \"#utility.yul\":1988:1994   */\n      dup2\n        /* \"#utility.yul\":1983:1986   */\n      dup6\n        /* \"#utility.yul\":1976:1980   */\n      0x20\n        /* \"#utility.yul\":1969:1974   */\n      dup7\n        /* \"#utility.yul\":1965:1981   */\n      add\n        /* \"#utility.yul\":1930:1995   */\n      tag_58\n      jump\t// in\n    tag_116:\n        /* \"#utility.yul\":2020:2049   */\n      tag_117\n        /* \"#utility.yul\":2042:2048   */\n      dup2\n        /* \"#utility.yul\":2020:2049   */\n      tag_59\n      jump\t// in\n    tag_117:\n        /* \"#utility.yul\":2015:2018   */\n      dup5\n        /* \"#utility.yul\":2011:2050   */\n      add\n        /* \"#utility.yul\":2004:2050   */\n      swap2\n      pop\n        /* \"#utility.yul\":1781:2056   */\n      pop\n        /* \"#utility.yul\":1699:2056   */\n      swap3\n      swap2\n      pop\n      pop\n      jump\t// out\n        /* \"#utility.yul\":2062:2152   */\n    tag_61:\n        /* \"#utility.yul\":2096:2103   */\n      0x00\n        /* \"#utility.yul\":2139:2144   */\n      dup2\n        /* \"#utility.yul\":2132:2145   */\n      iszero\n        /* \"#utility.yul\":2125:2146   */\n      iszero\n        /* \"#utility.yul\":2114:2146   */\n      swap1\n      pop\n        /* \"#utility.yul\":2062:2152   */\n      swap2\n      swap1\n      pop\n      jump\t// out\n        /* \"#utility.yul\":2158:2257   */\n    tag_62:\n        /* \"#utility.yul\":2229:2250   */\n      tag_120\n        /* \"#utility.yul\":2244:2249   */\n      dup2\n        /* \"#utility.yul\":2229:2250   */\n      tag_61\n      jump\t// in\n    tag_120:\n        /* \"#utility.yul\":2224:2227   */\n      dup3\n        /* \"#utility.yul\":2217:2251   */\n      mstore\n        /* \"#utility.yul\":2158:2257   */\n      pop\n      pop\n      jump\t// out\n        /* \"#utility.yul\":2339:3197   */\n    tag_63:\n        /* \"#utility.yul\":2460:2463   */\n      0x00\n        /* \"#utility.yul\":2496:2500   */\n      0x60\n        /* \"#utility.yul\":2491:2494   */\n      dup4\n        /* \"#utility.yul\":2487:2501   */\n      add\n        /* \"#utility.yul\":2587:2591   */\n      0x00\n        /* \"#utility.yul\":2580:2585   */\n      dup4\n        /* \"#utility.yul\":2576:2592   */\n      add\n        /* \"#utility.yul\":2570:2593   */\n      mload\n        /* \"#utility.yul\":2640:2643   */\n      dup5\n        /* \"#utility.yul\":2634:2638   */\n      dup3\n        /* \"#utility.yul\":2630:2644   */\n      sub\n        /* \"#utility.yul\":2623:2627   */\n      0x00\n        /* \"#utility.yul\":2618:2621   */\n      dup7\n        /* \"#utility.yul\":2614:2628   */\n      add\n        /* \"#utility.yul\":2607:2645   */\n      mstore\n        /* \"#utility.yul\":2666:2739   */\n      tag_122\n        /* \"#utility.yul\":2734:2738   */\n      dup3\n        /* \"#utility.yul\":2720:2732   */\n      dup3\n        /* \"#utility.yul\":2666:2739   */\n      tag_60\n      jump\t// in\n    tag_122:\n        /* \"#utility.yul\":2658:2739   */\n      swap2\n      pop\n        /* \"#utility.yul\":2511:2750   */\n      pop\n        /* \"#utility.yul\":2831:2835   */\n      0x20\n        /* \"#utility.yul\":2824:2829   */\n      dup4\n        /* \"#utility.yul\":2820:2836   */\n      add\n        /* \"#utility.yul\":2814:2837   */\n      mload\n        /* \"#utility.yul\":2884:2887   */\n      dup5\n        /* \"#utility.yul\":2878:2882   */\n      dup3\n        /* \"#utility.yul\":2874:2888   */\n      sub\n        /* \"#utility.yul\":2867:2871   */\n      0x20\n        /* \"#utility.yul\":2862:2865   */\n      dup7\n        /* \"#utility.yul\":2858:2872   */\n      add\n        /* \"#utility.yul\":2851:2889   */\n      mstore\n        /* \"#utility.yul\":2910:2983   */\n      tag_123\n        /* \"#utility.yul\":2978:2982   */\n      dup3\n        /* \"#utility.yul\":2964:2976   */\n      dup3\n        /* \"#utility.yul\":2910:2983   */\n      tag_60\n      jump\t// in\n    tag_123:\n        /* \"#utility.yul\":2902:2983   */\n      swap2\n      pop\n        /* \"#utility.yul\":2760:2994   */\n      pop\n        /* \"#utility.yul\":3084:3088   */\n      0x40\n        /* \"#utility.yul\":3077:3082   */\n      dup4\n        /* \"#utility.yul\":3073:3089   */\n      add\n        /* \"#utility.yul\":3067:3090   */\n      mload\n        /* \"#utility.yul\":3103:3160   */\n      tag_124\n        /* \"#utility.yul\":3154:3158   */\n      0x40\n        /* \"#utility.yul\":3149:3152   */\n      dup7\n        /* \"#utility.yul\":3145:3159   */\n      add\n        /* \"#utility.yul\":3131:3143   */\n      dup3\n        /* \"#utility.yul\":3103:3160   */\n      tag_62\n      jump\t// in\n    tag_124:\n        /* \"#utility.yul\":3004:3170   */\n      pop\n        /* \"#utility.yul\":3187:3191   */\n      dup1\n        /* \"#utility.yul\":3180:3191   */\n      swap2\n      pop\n        /* \"#utility.yul\":2465:3197   */\n      pop\n        /* \"#utility.yul\":2339:3197   */\n      swap3\n      swap2\n      pop\n      pop\n      jump\t// out\n        /* \"#utility.yul\":3203:3580   */\n    tag_11:\n        /* \"#utility.yul\":3348:3352   */\n      0x00\n        /* \"#utility.yul\":3386:3388   */\n      0x20\n        /* \"#utility.yul\":3375:3384   */\n      dup3\n        /* \"#utility.yul\":3371:3389   */\n      add\n        /* \"#utility.yul\":3363:3389   */\n      swap1\n      pop\n        /* \"#utility.yul\":3435:3444   */\n      dup2\n        /* \"#utility.yul\":3429:3433   */\n      dup2\n        /* \"#utility.yul\":3425:3445   */\n      sub\n        /* \"#utility.yul\":3421:3422   */\n      0x00\n        /* \"#utility.yul\":3410:3419   */\n      dup4\n        /* \"#utility.yul\":3406:3423   */\n      add\n        /* \"#utility.yul\":3399:3446   */\n      mstore\n        /* \"#utility.yul\":3463:3573   */\n      tag_126\n        /* \"#utility.yul\":3568:3572   */\n      dup2\n        /* \"#utility.yul\":3559:3565   */\n      dup5\n        /* \"#utility.yul\":3463:3573   */\n      tag_63\n      jump\t// in\n    tag_126:\n        /* \"#utility.yul\":3455:3573   */\n      swap1\n      pop\n        /* \"#utility.yul\":3203:3580   */\n      swap3\n      swap2\n      pop\n      pop\n      jump\t// out\n        /* \"#utility.yul\":3586:3703   */\n    tag_64:\n        /* \"#utility.yul\":3695:3696   */\n      0x00\n        /* \"#utility.yul\":3692:3693   */\n      dup1\n        /* \"#utility.yul\":3685:3697   */\n      revert\n        /* \"#utility.yul\":3709:3826   */\n    tag_65:\n        /* \"#utility.yul\":3818:3819   */\n      0x00\n        /* \"#utility.yul\":3815:3816   */\n      dup1\n        /* \"#utility.yul\":3808:3820   */\n      revert\n        /* \"#utility.yul\":3832:4012   */\n    tag_66:\n        /* \"#utility.yul\":3880:3957   */\n      0x4e487b7100000000000000000000000000000000000000000000000000000000\n        /* \"#utility.yul\":3877:3878   */\n      0x00\n        /* \"#utility.yul\":3870:3958   */\n      mstore\n        /* \"#utility.yul\":3977:3981   */\n      0x41\n        /* \"#utility.yul\":3974:3975   */\n      0x04\n        /* \"#utility.yul\":3967:3982   */\n      mstore\n        /* \"#utility.yul\":4001:4005   */\n      0x24\n        /* \"#utility.yul\":3998:3999   */\n      0x00\n        /* \"#utility.yul\":3991:4006   */\n      revert\n        /* \"#utility.yul\":4018:4299   */\n    tag_67:\n        /* \"#utility.yul\":4101:4128   */\n      tag_131\n        /* \"#utility.yul\":4123:4127   */\n      dup3\n        /* \"#utility.yul\":4101:4128   */\n      tag_59\n      jump\t// in\n    tag_131:\n        /* \"#utility.yul\":4093:4099   */\n      dup2\n        /* \"#utility.yul\":4089:4129   */\n      add\n        /* \"#utility.yul\":4231:4237   */\n      dup2\n        /* \"#utility.yul\":4219:4229   */\n      dup2\n        /* \"#utility.yul\":4216:4238   */\n      lt\n        /* \"#utility.yul\":4195:4213   */\n      0xffffffffffffffff\n        /* \"#utility.yul\":4183:4193   */\n      dup3\n        /* \"#utility.yul\":4180:4214   */\n      gt\n        /* \"#utility.yul\":4177:4239   */\n      or\n        /* \"#utility.yul\":4174:4262   */\n      iszero\n      tag_132\n      jumpi\n        /* \"#utility.yul\":4242:4260   */\n      tag_133\n      tag_66\n      jump\t// in\n    tag_133:\n        /* \"#utility.yul\":4174:4262   */\n    tag_132:\n        /* \"#utility.yul\":4282:4292   */\n      dup1\n        /* \"#utility.yul\":4278:4280   */\n      0x40\n        /* \"#utility.yul\":4271:4293   */\n      mstore\n        /* \"#utility.yul\":4061:4299   */\n      pop\n        /* \"#utility.yul\":4018:4299   */\n      pop\n      pop\n      jump\t// out\n        /* \"#utility.yul\":4305:4434   */\n    tag_68:\n        /* \"#utility.yul\":4339:4345   */\n      0x00\n        /* \"#utility.yul\":4366:4386   */\n      tag_135\n      tag_49\n      jump\t// in\n    tag_135:\n        /* \"#utility.yul\":4356:4386   */\n      swap1\n      pop\n        /* \"#utility.yul\":4395:4428   */\n      tag_136\n        /* \"#utility.yul\":4423:4427   */\n      dup3\n        /* \"#utility.yul\":4415:4421   */\n      dup3\n        /* \"#utility.yul\":4395:4428   */\n      tag_67\n      jump\t// in\n    tag_136:\n        /* \"#utility.yul\":4305:4434   */\n      swap2\n      swap1\n      pop\n      jump\t// out\n        /* \"#utility.yul\":4440:4748   */\n    tag_69:\n        /* \"#utility.yul\":4502:4506   */\n      0x00\n        /* \"#utility.yul\":4592:4610   */\n      0xffffffffffffffff\n        /* \"#utility.yul\":4584:4590   */\n      dup3\n        /* \"#utility.yul\":4581:4611   */\n      gt\n        /* \"#utility.yul\":4578:4634   */\n      iszero\n      tag_138\n      jumpi\n        /* \"#utility.yul\":4614:4632   */\n      tag_139\n      tag_66\n      jump\t// in\n    tag_139:\n        /* \"#utility.yul\":4578:4634   */\n    tag_138:\n        /* \"#utility.yul\":4652:4681   */\n      tag_140\n        /* \"#utility.yul\":4674:4680   */\n      dup3\n        /* \"#utility.yul\":4652:4681   */\n      tag_59\n      jump\t// in\n    tag_140:\n        /* \"#utility.yul\":4644:4681   */\n      swap1\n      pop\n        /* \"#utility.yul\":4736:4740   */\n      0x20\n        /* \"#utility.yul\":4730:4734   */\n      dup2\n        /* \"#utility.yul\":4726:4741   */\n      add\n        /* \"#utility.yul\":4718:4741   */\n      swap1\n      pop\n        /* \"#utility.yul\":4440:4748   */\n      swap2\n      swap1\n      pop\n      jump\t// out\n        /* \"#utility.yul\":4754:4902   */\n    tag_70:\n        /* \"#utility.yul\":4852:4858   */\n      dup3\n        /* \"#utility.yul\":4847:4850   */\n      dup2\n        /* \"#utility.yul\":4842:4845   */\n      dup4\n        /* \"#utility.yul\":4829:4859   */\n      calldatacopy\n        /* \"#utility.yul\":4893:4894   */\n      0x00\n        /* \"#utility.yul\":4884:4890   */\n      dup4\n        /* \"#utility.yul\":4879:4882   */\n      dup4\n        /* \"#utility.yul\":4875:4891   */\n      add\n        /* \"#utility.yul\":4868:4895   */\n      mstore\n        /* \"#utility.yul\":4754:4902   */\n      pop\n      pop\n      pop\n      jump\t// out\n        /* \"#utility.yul\":4908:5333   */\n    tag_71:\n        /* \"#utility.yul\":4986:4991   */\n      0x00\n        /* \"#utility.yul\":5011:5077   */\n      tag_143\n        /* \"#utility.yul\":5027:5076   */\n      tag_144\n        /* \"#utility.yul\":5069:5075   */\n      dup5\n        /* \"#utility.yul\":5027:5076   */\n      tag_69\n      jump\t// in\n    tag_144:\n        /* \"#utility.yul\":5011:5077   */\n      tag_68\n      jump\t// in\n    tag_143:\n        /* \"#utility.yul\":5002:5077   */\n      swap1\n      pop\n        /* \"#utility.yul\":5100:5106   */\n      dup3\n        /* \"#utility.yul\":5093:5098   */\n      dup2\n        /* \"#utility.yul\":5086:5107   */\n      mstore\n        /* \"#utility.yul\":5138:5142   */\n      0x20\n        /* \"#utility.yul\":5131:5136   */\n      dup2\n        /* \"#utility.yul\":5127:5143   */\n      add\n        /* \"#utility.yul\":5176:5179   */\n      dup5\n        /* \"#utility.yul\":5167:5173   */\n      dup5\n        /* \"#utility.yul\":5162:5165   */\n      dup5\n        /* \"#utility.yul\":5158:5174   */\n      add\n        /* \"#utility.yul\":5155:5180   */\n      gt\n        /* \"#utility.yul\":5152:5264   */\n      iszero\n      tag_145\n      jumpi\n        /* \"#utility.yul\":5183:5262   */\n      tag_146\n      tag_65\n      jump\t// in\n    tag_146:\n        /* \"#utility.yul\":5152:5264   */\n    tag_145:\n        /* \"#utility.yul\":5273:5327   */\n      tag_147\n        /* \"#utility.yul\":5320:5326   */\n      dup5\n        /* \"#utility.yul\":5315:5318   */\n      dup3\n        /* \"#utility.yul\":5310:5313   */\n      dup6\n        /* \"#utility.yul\":5273:5327   */\n      tag_70\n      jump\t// in\n    tag_147:\n        /* \"#utility.yul\":4992:5333   */\n      pop\n        /* \"#utility.yul\":4908:5333   */\n      swap4\n      swap3\n      pop\n      pop\n      pop\n      jump\t// out\n        /* \"#utility.yul\":5353:5693   */\n    tag_72:\n        /* \"#utility.yul\":5409:5414   */\n      0x00\n        /* \"#utility.yul\":5458:5461   */\n      dup3\n        /* \"#utility.yul\":5451:5455   */\n      0x1f\n        /* \"#utility.yul\":5443:5449   */\n      dup4\n        /* \"#utility.yul\":5439:5456   */\n      add\n        /* \"#utility.yul\":5435:5462   */\n      slt\n        /* \"#utility.yul\":5425:5547   */\n      tag_149\n      jumpi\n        /* \"#utility.yul\":5466:5545   */\n      tag_150\n      tag_64\n      jump\t// in\n    tag_150:\n        /* \"#utility.yul\":5425:5547   */\n    tag_149:\n        /* \"#utility.yul\":5583:5589   */\n      dup2\n        /* \"#utility.yul\":5570:5590   */\n      calldataload\n        /* \"#utility.yul\":5608:5687   */\n      tag_151\n        /* \"#utility.yul\":5683:5686   */\n      dup5\n        /* \"#utility.yul\":5675:5681   */\n      dup3\n        /* \"#utility.yul\":5668:5672   */\n      0x20\n        /* \"#utility.yul\":5660:5666   */\n      dup7\n        /* \"#utility.yul\":5656:5673   */\n      add\n        /* \"#utility.yul\":5608:5687   */\n      tag_71\n      jump\t// in\n    tag_151:\n        /* \"#utility.yul\":5599:5687   */\n      swap2\n      pop\n        /* \"#utility.yul\":5415:5693   */\n      pop\n        /* \"#utility.yul\":5353:5693   */\n      swap3\n      swap2\n      pop\n      pop\n      jump\t// out\n        /* \"#utility.yul\":5699:6858   */\n    tag_14:\n        /* \"#utility.yul\":5806:5812   */\n      0x00\n        /* \"#utility.yul\":5814:5820   */\n      dup1\n        /* \"#utility.yul\":5822:5828   */\n      0x00\n        /* \"#utility.yul\":5871:5873   */\n      0x60\n        /* \"#utility.yul\":5859:5868   */\n      dup5\n        /* \"#utility.yul\":5850:5857   */\n      dup7\n        /* \"#utility.yul\":5846:5869   */\n      sub\n        /* \"#utility.yul\":5842:5874   */\n      slt\n        /* \"#utility.yul\":5839:5958   */\n      iszero\n      tag_153\n      jumpi\n        /* \"#utility.yul\":5877:5956   */\n      tag_154\n      tag_50\n      jump\t// in\n    tag_154:\n        /* \"#utility.yul\":5839:5958   */\n    tag_153:\n        /* \"#utility.yul\":6025:6026   */\n      0x00\n        /* \"#utility.yul\":6014:6023   */\n      dup5\n        /* \"#utility.yul\":6010:6027   */\n      add\n        /* \"#utility.yul\":5997:6028   */\n      calldataload\n        /* \"#utility.yul\":6055:6073   */\n      0xffffffffffffffff\n        /* \"#utility.yul\":6047:6053   */\n      dup2\n        /* \"#utility.yul\":6044:6074   */\n      gt\n        /* \"#utility.yul\":6041:6158   */\n      iszero\n      tag_155\n      jumpi\n        /* \"#utility.yul\":6077:6156   */\n      tag_156\n      tag_51\n      jump\t// in\n    tag_156:\n        /* \"#utility.yul\":6041:6158   */\n    tag_155:\n        /* \"#utility.yul\":6182:6245   */\n      tag_157\n        /* \"#utility.yul\":6237:6244   */\n      dup7\n        /* \"#utility.yul\":6228:6234   */\n      dup3\n        /* \"#utility.yul\":6217:6226   */\n      dup8\n        /* \"#utility.yul\":6213:6235   */\n      add\n        /* \"#utility.yul\":6182:6245   */\n      tag_72\n      jump\t// in\n    tag_157:\n        /* \"#utility.yul\":6172:6245   */\n      swap4\n      pop\n        /* \"#utility.yul\":5968:6255   */\n      pop\n        /* \"#utility.yul\":6322:6324   */\n      0x20\n        /* \"#utility.yul\":6311:6320   */\n      dup5\n        /* \"#utility.yul\":6307:6325   */\n      add\n        /* \"#utility.yul\":6294:6326   */\n      calldataload\n        /* \"#utility.yul\":6353:6371   */\n      0xffffffffffffffff\n        /* \"#utility.yul\":6345:6351   */\n      dup2\n        /* \"#utility.yul\":6342:6372   */\n      gt\n        /* \"#utility.yul\":6339:6456   */\n      iszero\n      tag_158\n      jumpi\n        /* \"#utility.yul\":6375:6454   */\n      tag_159\n      tag_51\n      jump\t// in\n    tag_159:\n        /* \"#utility.yul\":6339:6456   */\n    tag_158:\n        /* \"#utility.yul\":6480:6543   */\n      tag_160\n        /* \"#utility.yul\":6535:6542   */\n      dup7\n        /* \"#utility.yul\":6526:6532   */\n      dup3\n        /* \"#utility.yul\":6515:6524   */\n      dup8\n        /* \"#utility.yul\":6511:6533   */\n      add\n        /* \"#utility.yul\":6480:6543   */\n      tag_72\n      jump\t// in\n    tag_160:\n        /* \"#utility.yul\":6470:6543   */\n      swap3\n      pop\n        /* \"#utility.yul\":6265:6553   */\n      pop\n        /* \"#utility.yul\":6620:6622   */\n      0x40\n        /* \"#utility.yul\":6609:6618   */\n      dup5\n        /* \"#utility.yul\":6605:6623   */\n      add\n        /* \"#utility.yul\":6592:6624   */\n      calldataload\n        /* \"#utility.yul\":6651:6669   */\n      0xffffffffffffffff\n        /* \"#utility.yul\":6643:6649   */\n      dup2\n        /* \"#utility.yul\":6640:6670   */\n      gt\n        /* \"#utility.yul\":6637:6754   */\n      iszero\n      tag_161\n      jumpi\n        /* \"#utility.yul\":6673:6752   */\n      tag_162\n      tag_51\n      jump\t// in\n    tag_162:\n        /* \"#utility.yul\":6637:6754   */\n    tag_161:\n        /* \"#utility.yul\":6778:6841   */\n      tag_163\n        /* \"#utility.yul\":6833:6840   */\n      dup7\n        /* \"#utility.yul\":6824:6830   */\n      dup3\n        /* \"#utility.yul\":6813:6822   */\n      dup8\n        /* \"#utility.yul\":6809:6831   */\n      add\n        /* \"#utility.yul\":6778:6841   */\n      tag_72\n      jump\t// in\n    tag_163:\n        /* \"#utility.yul\":6768:6841   */\n      swap2\n      pop\n        /* \"#utility.yul\":6563:6851   */\n      pop\n        /* \"#utility.yul\":5699:6858   */\n      swap3\n      pop\n      swap3\n      pop\n      swap3\n      jump\t// out\n        /* \"#utility.yul\":6864:7033   */\n    tag_73:\n        /* \"#utility.yul\":6948:6959   */\n      0x00\n        /* \"#utility.yul\":6982:6988   */\n      dup3\n        /* \"#utility.yul\":6977:6980   */\n      dup3\n        /* \"#utility.yul\":6970:6989   */\n      mstore\n        /* \"#utility.yul\":7022:7026   */\n      0x20\n        /* \"#utility.yul\":7017:7020   */\n      dup3\n        /* \"#utility.yul\":7013:7027   */\n      add\n        /* \"#utility.yul\":6998:7027   */\n      swap1\n      pop\n        /* \"#utility.yul\":6864:7033   */\n      swap3\n      swap2\n      pop\n      pop\n      jump\t// out\n        /* \"#utility.yul\":7039:7416   */\n    tag_74:\n        /* \"#utility.yul\":7127:7130   */\n      0x00\n        /* \"#utility.yul\":7155:7194   */\n      tag_166\n        /* \"#utility.yul\":7188:7193   */\n      dup3\n        /* \"#utility.yul\":7155:7194   */\n      tag_56\n      jump\t// in\n    tag_166:\n        /* \"#utility.yul\":7210:7281   */\n      tag_167\n        /* \"#utility.yul\":7274:7280   */\n      dup2\n        /* \"#utility.yul\":7269:7272   */\n      dup6\n        /* \"#utility.yul\":7210:7281   */\n      tag_73\n      jump\t// in\n    tag_167:\n        /* \"#utility.yul\":7203:7281   */\n      swap4\n      pop\n        /* \"#utility.yul\":7290:7355   */\n      tag_168\n        /* \"#utility.yul\":7348:7354   */\n      dup2\n        /* \"#utility.yul\":7343:7346   */\n      dup6\n        /* \"#utility.yul\":7336:7340   */\n      0x20\n        /* \"#utility.yul\":7329:7334   */\n      dup7\n        /* \"#utility.yul\":7325:7341   */\n      add\n        /* \"#utility.yul\":7290:7355   */\n      tag_58\n      jump\t// in\n    tag_168:\n        /* \"#utility.yul\":7380:7409   */\n      tag_169\n        /* \"#utility.yul\":7402:7408   */\n      dup2\n        /* \"#utility.yul\":7380:7409   */\n      tag_59\n      jump\t// in\n    tag_169:\n        /* \"#utility.yul\":7375:7378   */\n      dup5\n        /* \"#utility.yul\":7371:7410   */\n      add\n        /* \"#utility.yul\":7364:7410   */\n      swap2\n      pop\n        /* \"#utility.yul\":7131:7416   */\n      pop\n        /* \"#utility.yul\":7039:7416   */\n      swap3\n      swap2\n      pop\n      pop\n      jump\t// out\n        /* \"#utility.yul\":7422:7531   */\n    tag_75:\n        /* \"#utility.yul\":7503:7524   */\n      tag_171\n        /* \"#utility.yul\":7518:7523   */\n      dup2\n        /* \"#utility.yul\":7503:7524   */\n      tag_61\n      jump\t// in\n    tag_171:\n        /* \"#utility.yul\":7498:7501   */\n      dup3\n        /* \"#utility.yul\":7491:7525   */\n      mstore\n        /* \"#utility.yul\":7422:7531   */\n      pop\n      pop\n      jump\t// out\n        /* \"#utility.yul\":7537:8149   */\n    tag_20:\n        /* \"#utility.yul\":7720:7724   */\n      0x00\n        /* \"#utility.yul\":7758:7760   */\n      0x60\n        /* \"#utility.yul\":7747:7756   */\n      dup3\n        /* \"#utility.yul\":7743:7761   */\n      add\n        /* \"#utility.yul\":7735:7761   */\n      swap1\n      pop\n        /* \"#utility.yul\":7807:7816   */\n      dup2\n        /* \"#utility.yul\":7801:7805   */\n      dup2\n        /* \"#utility.yul\":7797:7817   */\n      sub\n        /* \"#utility.yul\":7793:7794   */\n      0x00\n        /* \"#utility.yul\":7782:7791   */\n      dup4\n        /* \"#utility.yul\":7778:7795   */\n      add\n        /* \"#utility.yul\":7771:7818   */\n      mstore\n        /* \"#utility.yul\":7835:7913   */\n      tag_173\n        /* \"#utility.yul\":7908:7912   */\n      dup2\n        /* \"#utility.yul\":7899:7905   */\n      dup7\n        /* \"#utility.yul\":7835:7913   */\n      tag_74\n      jump\t// in\n    tag_173:\n        /* \"#utility.yul\":7827:7913   */\n      swap1\n      pop\n        /* \"#utility.yul\":7960:7969   */\n      dup2\n        /* \"#utility.yul\":7954:7958   */\n      dup2\n        /* \"#utility.yul\":7950:7970   */\n      sub\n        /* \"#utility.yul\":7945:7947   */\n      0x20\n        /* \"#utility.yul\":7934:7943   */\n      dup4\n        /* \"#utility.yul\":7930:7948   */\n      add\n        /* \"#utility.yul\":7923:7971   */\n      mstore\n        /* \"#utility.yul\":7988:8066   */\n      tag_174\n        /* \"#utility.yul\":8061:8065   */\n      dup2\n        /* \"#utility.yul\":8052:8058   */\n      dup6\n        /* \"#utility.yul\":7988:8066   */\n      tag_74\n      jump\t// in\n    tag_174:\n        /* \"#utility.yul\":7980:8066   */\n      swap1\n      pop\n        /* \"#utility.yul\":8076:8142   */\n      tag_175\n        /* \"#utility.yul\":8138:8140   */\n      0x40\n        /* \"#utility.yul\":8127:8136   */\n      dup4\n        /* \"#utility.yul\":8123:8141   */\n      add\n        /* \"#utility.yul\":8114:8120   */\n      dup5\n        /* \"#utility.yul\":8076:8142   */\n      tag_75\n      jump\t// in\n    tag_175:\n        /* \"#utility.yul\":7537:8149   */\n      swap5\n      swap4\n      pop\n      pop\n      pop\n      pop\n      jump\t// out\n        /* \"#utility.yul\":8155:8335   */\n    tag_76:\n        /* \"#utility.yul\":8203:8280   */\n      0x4e487b7100000000000000000000000000000000000000000000000000000000\n        /* \"#utility.yul\":8200:8201   */\n      0x00\n        /* \"#utility.yul\":8193:8281   */\n      mstore\n        /* \"#utility.yul\":8300:8304   */\n      0x22\n        /* \"#utility.yul\":8297:8298   */\n      0x04\n        /* \"#utility.yul\":8290:8305   */\n      mstore\n        /* \"#utility.yul\":8324:8328   */\n      0x24\n        /* \"#utility.yul\":8321:8322   */\n      0x00\n        /* \"#utility.yul\":8314:8329   */\n      revert\n        /* \"#utility.yul\":8341:8661   */\n    tag_25:\n        /* \"#utility.yul\":8385:8391   */\n      0x00\n        /* \"#utility.yul\":8422:8423   */\n      0x02\n        /* \"#utility.yul\":8416:8420   */\n      dup3\n        /* \"#utility.yul\":8412:8424   */\n      div\n        /* \"#utility.yul\":8402:8424   */\n      swap1\n      pop\n        /* \"#utility.yul\":8469:8470   */\n      0x01\n        /* \"#utility.yul\":8463:8467   */\n      dup3\n        /* \"#utility.yul\":8459:8471   */\n      and\n        /* \"#utility.yul\":8490:8508   */\n      dup1\n        /* \"#utility.yul\":8480:8561   */\n      tag_178\n      jumpi\n        /* \"#utility.yul\":8546:8550   */\n      0x7f\n        /* \"#utility.yul\":8538:8544   */\n      dup3\n        /* \"#utility.yul\":8534:8551   */\n      and\n        /* \"#utility.yul\":8524:8551   */\n      swap2\n      pop\n        /* \"#utility.yul\":8480:8561   */\n    tag_178:\n        /* \"#utility.yul\":8608:8610   */\n      0x20\n        /* \"#utility.yul\":8600:8606   */\n      dup3\n        /* \"#utility.yul\":8597:8611   */\n      lt\n        /* \"#utility.yul\":8577:8595   */\n      dup2\n        /* \"#utility.yul\":8574:8612   */\n      sub\n        /* \"#utility.yul\":8571:8655   */\n      tag_179\n      jumpi\n        /* \"#utility.yul\":8627:8645   */\n      tag_180\n      tag_76\n      jump\t// in\n    tag_180:\n        /* \"#utility.yul\":8571:8655   */\n    tag_179:\n        /* \"#utility.yul\":8392:8661   */\n      pop\n        /* \"#utility.yul\":8341:8661   */\n      swap2\n      swap1\n      pop\n      jump\t// out\n        /* \"#utility.yul\":8667:8808   */\n    tag_77:\n        /* \"#utility.yul\":8716:8720   */\n      0x00\n        /* \"#utility.yul\":8739:8742   */\n      dup2\n        /* \"#utility.yul\":8731:8742   */\n      swap1\n      pop\n        /* \"#utility.yul\":8762:8765   */\n      dup2\n        /* \"#utility.yul\":8759:8760   */\n      0x00\n        /* \"#utility.yul\":8752:8766   */\n      mstore\n        /* \"#utility.yul\":8796:8800   */\n      0x20\n        /* \"#utility.yul\":8793:8794   */\n      0x00\n        /* \"#utility.yul\":8783:8801   */\n      keccak256\n        /* \"#utility.yul\":8775:8801   */\n      swap1\n      pop\n        /* \"#utility.yul\":8667:8808   */\n      swap2\n      swap1\n      pop\n      jump\t// out\n        /* \"#utility.yul\":8814:8907   */\n    tag_78:\n        /* \"#utility.yul\":8851:8857   */\n      0x00\n        /* \"#utility.yul\":8898:8900   */\n      0x20\n        /* \"#utility.yul\":8893:8895   */\n      0x1f\n        /* \"#utility.yul\":8886:8891   */\n      dup4\n        /* \"#utility.yul\":8882:8896   */\n      add\n        /* \"#utility.yul\":8878:8901   */\n      div\n        /* \"#utility.yul\":8868:8901   */\n      swap1\n      pop\n        /* \"#utility.yul\":8814:8907   */\n      swap2\n      swap1\n      pop\n      jump\t// out\n        /* \"#utility.yul\":8913:9020   */\n    tag_79:\n        /* \"#utility.yul\":8957:8965   */\n      0x00\n        /* \"#utility.yul\":9007:9012   */\n      dup3\n        /* \"#utility.yul\":9001:9005   */\n      dup3\n        /* \"#utility.yul\":8997:9013   */\n      shl\n        /* \"#utility.yul\":8976:9013   */\n      swap1\n      pop\n        /* \"#utility.yul\":8913:9020   */\n      swap3\n      swap2\n      pop\n      pop\n      jump\t// out\n        /* \"#utility.yul\":9026:9419   */\n    tag_80:\n        /* \"#utility.yul\":9095:9101   */\n      0x00\n        /* \"#utility.yul\":9145:9146   */\n      0x08\n        /* \"#utility.yul\":9133:9143   */\n      dup4\n        /* \"#utility.yul\":9129:9147   */\n      mul\n        /* \"#utility.yul\":9168:9265   */\n      tag_185\n        /* \"#utility.yul\":9198:9264   */\n      0xffffffffffffffffffffffffffffffffffffffffffffffffffffffffffffffff\n        /* \"#utility.yul\":9187:9196   */\n      dup3\n        /* \"#utility.yul\":9168:9265   */\n      tag_79\n      jump\t// in\n    tag_185:\n        /* \"#utility.yul\":9286:9325   */\n      tag_186\n        /* \"#utility.yul\":9316:9324   */\n      dup7\n        /* \"#utility.yul\":9305:9314   */\n      dup4\n        /* \"#utility.yul\":9286:9325   */\n      tag_79\n      jump\t// in\n    tag_186:\n        /* \"#utility.yul\":9274:9325   */\n      swap6\n      pop\n        /* \"#utility.yul\":9358:9362   */\n      dup1\n        /* \"#utility.yul\":9354:9363   */\n      not\n        /* \"#utility.yul\":9347:9352   */\n      dup5\n        /* \"#utility.yul\":9343:9364   */\n      and\n        /* \"#utility.yul\":9334:9364   */\n      swap4\n      pop\n        /* \"#utility.yul\":9407:9411   */\n      dup1\n        /* \"#utility.yul\":9397:9405   */\n      dup7\n        /* \"#utility.yul\":9393:9412   */\n      and\n        /* \"#utility.yul\":9386:9391   */\n      dup5\n        /* \"#utility.yul\":9383:9413   */\n      or\n        /* \"#utility.yul\":9373:9413   */\n      swap3\n      pop\n        /* \"#utility.yul\":9102:9419   */\n      pop\n      pop\n        /* \"#utility.yul\":9026:9419   */\n      swap4\n      swap3\n      pop\n      pop\n      pop\n      jump\t// out\n        /* \"#utility.yul\":9425:9502   */\n    tag_81:\n        /* \"#utility.yul\":9462:9469   */\n      0x00\n        /* \"#utility.yul\":9491:9496   */\n      dup2\n        /* \"#utility.yul\":9480:9496   */\n      swap1\n      pop\n        /* \"#utility.yul\":9425:9502   */\n      swap2\n      swap1\n      pop\n      jump\t// out\n        /* \"#utility.yul\":9508:9568   */\n    tag_82:\n        /* \"#utility.yul\":9536:9539   */\n      0x00\n        /* \"#utility.yul\":9557:9562   */\n      dup2\n        /* \"#utility.yul\":9550:9562   */\n      swap1\n      pop\n        /* \"#utility.yul\":9508:9568   */\n      swap2\n      swap1\n      pop\n      jump\t// out\n        /* \"#utility.yul\":9574:9716   */\n    tag_83:\n        /* \"#utility.yul\":9624:9633   */\n      0x00\n        /* \"#utility.yul\":9657:9710   */\n      tag_190\n        /* \"#utility.yul\":9675:9709   */\n      tag_191\n        /* \"#utility.yul\":9684:9708   */\n      tag_192\n        /* \"#utility.yul\":9702:9707   */\n      dup5\n        /* \"#utility.yul\":9684:9708   */\n      tag_81\n      jump\t// in\n    tag_192:\n        /* \"#utility.yul\":9675:9709   */\n      tag_82\n      jump\t// in\n    tag_191:\n        /* \"#utility.yul\":9657:9710   */\n      tag_81\n      jump\t// in\n    tag_190:\n        /* \"#utility.yul\":9644:9710   */\n      swap1\n      pop\n        /* \"#utility.yul\":9574:9716   */\n      swap2\n      swap1\n      pop\n      jump\t// out\n        /* \"#utility.yul\":9722:9797   */\n    tag_84:\n        /* \"#utility.yul\":9765:9768   */\n      0x00\n        /* \"#utility.yul\":9786:9791   */\n      dup2\n        /* \"#utility.yul\":9779:9791   */\n      swap1\n      pop\n        /* \"#utility.yul\":9722:9797   */\n      swap2\n      swap1\n      pop\n      jump\t// out\n        /* \"#utility.yul\":9803:10072   */\n    tag_85:\n        /* \"#utility.yul\":9913:9952   */\n      tag_195\n        /* \"#utility.yul\":9944:9951   */\n      dup4\n        /* \"#utility.yul\":9913:9952   */\n      tag_83\n      jump\t// in\n    tag_195:\n        /* \"#utility.yul\":9974:10065   */\n      tag_196\n        /* \"#utility.yul\":10023:10064   */\n      tag_197\n        /* \"#utility.yul\":10047:10063   */\n      dup3\n        /* \"#utility.yul\":10023:10064   */\n      tag_84\n      jump\t// in\n    tag_197:\n        /* \"#utility.yul\":10015:10021   */\n      dup5\n        /* \"#utility.yul\":10008:10012   */\n      dup5\n        /* \"#utility.yul\":10002:10013   */\n      sload\n        /* \"#utility.yul\":9974:10065   */\n      tag_80\n      jump\t// in\n    tag_196:\n        /* \"#utility.yul\":9968:9972   */\n      dup3\n        /* \"#utility.yul\":9961:10066   */\n      sstore\n        /* \"#utility.yul\":9879:10072   */\n      pop\n        /* \"#utility.yul\":9803:10072   */\n      pop\n      pop\n      pop\n      jump\t// out\n        /* \"#utility.yul\":10078:10151   */\n    tag_86:\n        /* \"#utility.yul\":10123:10126   */\n      0x00\n        /* \"#utility.yul\":10078:10151   */\n      swap1\n      jump\t// out\n        /* \"#utility.yul\":10157:10346   */\n    tag_87:\n        /* \"#utility.yul\":10234:10266   */\n      tag_200\n      tag_86\n      jump\t// in\n    tag_200:\n        /* \"#utility.yul\":10275:10340   */\n      tag_201\n        /* \"#utility.yul\":10333:10339   */\n      dup2\n        /* \"#utility.yul\":10325:10331   */\n      dup5\n        /* \"#utility.yul\":10319:10323   */\n      dup5\n        /* \"#utility.yul\":10275:10340   */\n      tag_85\n      jump\t// in\n    tag_201:\n        /* \"#utility.yul\":10210:10346   */\n      pop\n        /* \"#utility.yul\":10157:10346   */\n      pop\n      pop\n      jump\t// out\n        /* \"#utility.yul\":10352:10538   */\n    tag_88:\n        /* \"#utility.yul\":10412:10532   */\n    tag_203:\n        /* \"#utility.yul\":10429:10432   */\n      dup2\n        /* \"#utility.yul\":10422:10427   */\n      dup2\n        /* \"#utility.yul\":10419:10433   */\n      lt\n        /* \"#utility.yul\":10412:10532   */\n      iszero\n      tag_205\n      jumpi\n        /* \"#utility.yul\":10483:10522   */\n      tag_206\n        /* \"#utility.yul\":10520:10521   */\n      0x00\n        /* \"#utility.yul\":10513:10518   */\n      dup3\n        /* \"#utility.yul\":10483:10522   */\n      tag_87\n      jump\t// in\n    tag_206:\n        /* \"#utility.yul\":10456:10457   */\n      0x01\n        /* \"#utility.yul\":10449:10454   */\n      dup2\n        /* \"#utility.yul\":10445:10458   */\n      add\n        /* \"#utility.yul\":10436:10458   */\n      swap1\n      pop\n        /* \"#utility.yul\":10412:10532   */\n      jump(tag_203)\n    tag_205:\n        /* \"#utility.yul\":10352:10538   */\n      pop\n      pop\n      jump\t// out\n        /* \"#utility.yul\":10544:11087   */\n    tag_89:\n        /* \"#utility.yul\":10645:10647   */\n      0x1f\n        /* \"#utility.yul\":10640:10643   */\n      dup3\n        /* \"#utility.yul\":10637:10648   */\n      gt\n        /* \"#utility.yul\":10634:11080   */\n      iszero\n      tag_208\n      jumpi\n        /* \"#utility.yul\":10679:10717   */\n      tag_209\n        /* \"#utility.yul\":10711:10716   */\n      dup2\n        /* \"#utility.yul\":10679:10717   */\n      tag_77\n      jump\t// in\n    tag_209:\n        /* \"#utility.yul\":10763:10792   */\n      tag_210\n        /* \"#utility.yul\":10781:10791   */\n      dup5\n        /* \"#utility.yul\":10763:10792   */\n      tag_78\n      jump\t// in\n    tag_210:\n        /* \"#utility.yul\":10753:10761   */\n      dup2\n        /* \"#utility.yul\":10749:10793   */\n      add\n        /* \"#utility.yul\":10946:10948   */\n      0x20\n        /* \"#utility.yul\":10934:10944   */\n      dup6\n        /* \"#utility.yul\":10931:10949   */\n      lt\n        /* \"#utility.yul\":10928:10977   */\n      iszero\n      tag_211\n      jumpi\n        /* \"#utility.yul\":10967:10975   */\n      dup2\n        /* \"#utility.yul\":10952:10975   */\n      swap1\n      pop\n        /* \"#utility.yul\":10928:10977   */\n    tag_211:\n        /* \"#utility.yul\":10990:11070   */\n      tag_212\n        /* \"#utility.yul\":11046:11068   */\n      tag_213\n        /* \"#utility.yul\":11064:11067   */\n      dup6\n        /* \"#utility.yul\":11046:11068   */\n      tag_78\n      jump\t// in\n    tag_213:\n        /* \"#utility.yul\":11036:11044   */\n      dup4\n        /* \"#utility.yul\":11032:11069   */\n      add\n        /* \"#utility.yul\":11019:11030   */\n      dup3\n        /* \"#utility.yul\":10990:11070   */\n      tag_88\n      jump\t// in\n    tag_212:\n        /* \"#utility.yul\":10649:11080   */\n      pop\n      pop\n        /* \"#utility.yul\":10634:11080   */\n    tag_208:\n        /* \"#utility.yul\":10544:11087   */\n      pop\n      pop\n      pop\n      jump\t// out\n        /* \"#utility.yul\":11093:11210   */\n    tag_90:\n        /* \"#utility.yul\":11147:11155   */\n      0x00\n        /* \"#utility.yul\":11197:11202   */\n      dup3\n        /* \"#utility.yul\":11191:11195   */\n      dup3\n        /* \"#utility.yul\":11187:11203   */\n      shr\n        /* \"#utility.yul\":11166:11203   */\n      swap1\n      pop\n        /* \"#utility.yul\":11093:11210   */\n      swap3\n      swap2\n      pop\n      pop\n      jump\t// out\n        /* \"#utility.yul\":11216:11385   */\n    tag_91:\n        /* \"#utility.yul\":11260:11266   */\n      0x00\n        /* \"#utility.yul\":11293:11344   */\n      tag_216\n        /* \"#utility.yul\":11341:11342   */\n      0x00\n        /* \"#utility.yul\":11337:11343   */\n      not\n        /* \"#utility.yul\":11329:11334   */\n      dup5\n        /* \"#utility.yul\":11326:11327   */\n      0x08\n        /* \"#utility.yul\":11322:11335   */\n      mul\n        /* \"#utility.yul\":11293:11344   */\n      tag_90\n      jump\t// in\n    tag_216:\n        /* \"#utility.yul\":11289:11345   */\n      not\n        /* \"#utility.yul\":11374:11378   */\n      dup1\n        /* \"#utility.yul\":11368:11372   */\n      dup4\n        /* \"#utility.yul\":11364:11379   */\n      and\n        /* \"#utility.yul\":11354:11379   */\n      swap2\n      pop\n        /* \"#utility.yul\":11267:11385   */\n      pop\n        /* \"#utility.yul\":11216:11385   */\n      swap3\n      swap2\n      pop\n      pop\n      jump\t// out\n        /* \"#utility.yul\":11390:11685   */\n    tag_92:\n        /* \"#utility.yul\":11466:11470   */\n      0x00\n        /* \"#utility.yul\":11612:11641   */\n      tag_218\n        /* \"#utility.yul\":11637:11640   */\n      dup4\n        /* \"#utility.yul\":11631:11635   */\n      dup4\n        /* \"#utility.yul\":11612:11641   */\n      tag_91\n      jump\t// in\n    tag_218:\n        /* \"#utility.yul\":11604:11641   */\n      swap2\n      pop\n        /* \"#utility.yul\":11674:11677   */\n      dup3\n        /* \"#utility.yul\":11671:11672   */\n      0x02\n        /* \"#utility.yul\":11667:11678   */\n      mul\n        /* \"#utility.yul\":11661:11665   */\n      dup3\n        /* \"#utility.yul\":11658:11679   */\n      or\n        /* \"#utility.yul\":11650:11679   */\n      swap1\n      pop\n        /* \"#utility.yul\":11390:11685   */\n      swap3\n      swap2\n      pop\n      pop\n      jump\t// out\n        /* \"#utility.yul\":11690:13085   */\n    tag_37:\n        /* \"#utility.yul\":11807:11844   */\n      tag_220\n        /* \"#utility.yul\":11840:11843   */\n      dup3\n        /* \"#utility.yul\":11807:11844   */\n      tag_56\n      jump\t// in\n    tag_220:\n        /* \"#utility.yul\":11909:11927   */\n      0xffffffffffffffff\n        /* \"#utility.yul\":11901:11907   */\n      dup2\n        /* \"#utility.yul\":11898:11928   */\n      gt\n        /* \"#utility.yul\":11895:11951   */\n      iszero\n      tag_221\n      jumpi\n        /* \"#utility.yul\":11931:11949   */\n      tag_222\n      tag_66\n      jump\t// in\n    tag_222:\n        /* \"#utility.yul\":11895:11951   */\n    tag_221:\n        /* \"#utility.yul\":11975:12013   */\n      tag_223\n        /* \"#utility.yul\":12007:12011   */\n      dup3\n        /* \"#utility.yul\":12001:12012   */\n      sload\n        /* \"#utility.yul\":11975:12013   */\n      tag_25\n      jump\t// in\n    tag_223:\n        /* \"#utility.yul\":12060:12127   */\n      tag_224\n        /* \"#utility.yul\":12120:12126   */\n      dup3\n        /* \"#utility.yul\":12112:12118   */\n      dup3\n        /* \"#utility.yul\":12106:12110   */\n      dup6\n        /* \"#utility.yul\":12060:12127   */\n      tag_89\n      jump\t// in\n    tag_224:\n        /* \"#utility.yul\":12154:12155   */\n      0x00\n        /* \"#utility.yul\":12178:12182   */\n      0x20\n        /* \"#utility.yul\":12165:12182   */\n      swap1\n      pop\n        /* \"#utility.yul\":12210:12212   */\n      0x1f\n        /* \"#utility.yul\":12202:12208   */\n      dup4\n        /* \"#utility.yul\":12199:12213   */\n      gt\n        /* \"#utility.yul\":12227:12228   */\n      0x01\n        /* \"#utility.yul\":12222:12840   */\n      dup2\n      eq\n      tag_226\n      jumpi\n        /* \"#utility.yul\":12884:12885   */\n      0x00\n        /* \"#utility.yul\":12901:12907   */\n      dup5\n        /* \"#utility.yul\":12898:12975   */\n      iszero\n      tag_227\n      jumpi\n        /* \"#utility.yul\":12950:12959   */\n      dup3\n        /* \"#utility.yul\":12945:12948   */\n      dup8\n        /* \"#utility.yul\":12941:12960   */\n      add\n        /* \"#utility.yul\":12935:12961   */\n      mload\n        /* \"#utility.yul\":12926:12961   */\n      swap1\n      pop\n        /* \"#utility.yul\":12898:12975   */\n    tag_227:\n        /* \"#utility.yul\":13001:13068   */\n      tag_228\n        /* \"#utility.yul\":13061:13067   */\n      dup6\n        /* \"#utility.yul\":13054:13059   */\n      dup3\n        /* \"#utility.yul\":13001:13068   */\n      tag_92\n      jump\t// in\n    tag_228:\n        /* \"#utility.yul\":12995:12999   */\n      dup7\n        /* \"#utility.yul\":12988:13069   */\n      sstore\n        /* \"#utility.yul\":12857:13079   */\n      pop\n        /* \"#utility.yul\":12192:13079   */\n      jump(tag_225)\n        /* \"#utility.yul\":12222:12840   */\n    tag_226:\n        /* \"#utility.yul\":12274:12278   */\n      0x1f\n        /* \"#utility.yul\":12270:12279   */\n      not\n        /* \"#utility.yul\":12262:12268   */\n      dup5\n        /* \"#utility.yul\":12258:12280   */\n      and\n        /* \"#utility.yul\":12308:12345   */\n      tag_229\n        /* \"#utility.yul\":12340:12344   */\n      dup7\n        /* \"#utility.yul\":12308:12345   */\n      tag_77\n      jump\t// in\n    tag_229:\n        /* \"#utility.yul\":12367:12368   */\n      0x00\n        /* \"#utility.yul\":12381:12589   */\n    tag_230:\n        /* \"#utility.yul\":12395:12402   */\n      dup3\n        /* \"#utility.yul\":12392:12393   */\n      dup2\n        /* \"#utility.yul\":12389:12403   */\n      lt\n        /* \"#utility.yul\":12381:12589   */\n      iszero\n      tag_232\n      jumpi\n        /* \"#utility.yul\":12474:12483   */\n      dup5\n        /* \"#utility.yul\":12469:12472   */\n      dup10\n        /* \"#utility.yul\":12465:12484   */\n      add\n        /* \"#utility.yul\":12459:12485   */\n      mload\n        /* \"#utility.yul\":12451:12457   */\n      dup3\n        /* \"#utility.yul\":12444:12486   */\n      sstore\n        /* \"#utility.yul\":12525:12526   */\n      0x01\n        /* \"#utility.yul\":12517:12523   */\n      dup3\n        /* \"#utility.yul\":12513:12527   */\n      add\n        /* \"#utility.yul\":12503:12527   */\n      swap2\n      pop\n        /* \"#utility.yul\":12572:12574   */\n      0x20\n        /* \"#utility.yul\":12561:12570   */\n      dup6\n        /* \"#utility.yul\":12557:12575   */\n      add\n        /* \"#utility.yul\":12544:12575   */\n      swap5\n      pop\n        /* \"#utility.yul\":12418:12422   */\n      0x20\n        /* \"#utility.yul\":12415:12416   */\n      dup2\n        /* \"#utility.yul\":12411:12423   */\n      add\n        /* \"#utility.yul\":12406:12423   */\n      swap1\n      pop\n        /* \"#utility.yul\":12381:12589   */\n      jump(tag_230)\n    tag_232:\n        /* \"#utility.yul\":12617:12623   */\n      dup7\n        /* \"#utility.yul\":12608:12615   */\n      dup4\n        /* \"#utility.yul\":12605:12624   */\n      lt\n        /* \"#utility.yul\":12602:12781   */\n      iszero\n      tag_233\n      jumpi\n        /* \"#utility.yul\":12675:12684   */\n      dup5\n        /* \"#utility.yul\":12670:12673   */\n      dup10\n        /* \"#utility.yul\":12666:12685   */\n      add\n        /* \"#utility.yul\":12660:12686   */\n      mload\n        /* \"#utility.yul\":12718:12766   */\n      tag_234\n        /* \"#utility.yul\":12760:12764   */\n      0x1f\n        /* \"#utility.yul\":12752:12758   */\n      dup10\n        /* \"#utility.yul\":12748:12765   */\n      and\n        /* \"#utility.yul\":12737:12746   */\n      dup3\n        /* \"#utility.yul\":12718:12766   */\n      tag_91\n      jump\t// in\n    tag_234:\n        /* \"#utility.yul\":12710:12716   */\n      dup4\n        /* \"#utility.yul\":12703:12767   */\n      sstore\n        /* \"#utility.yul\":12625:12781   */\n      pop\n        /* \"#utility.yul\":12602:12781   */\n    tag_233:\n        /* \"#utility.yul\":12827:12828   */\n      0x01\n        /* \"#utility.yul\":12823:12824   */\n      0x02\n        /* \"#utility.yul\":12815:12821   */\n      dup9\n        /* \"#utility.yul\":12811:12825   */\n      mul\n        /* \"#utility.yul\":12807:12829   */\n      add\n        /* \"#utility.yul\":12801:12805   */\n      dup9\n        /* \"#utility.yul\":12794:12830   */\n      sstore\n        /* \"#utility.yul\":12229:12840   */\n      pop\n      pop\n      pop\n        /* \"#utility.yul\":12192:13079   */\n    tag_225:\n      pop\n        /* \"#utility.yul\":11782:13085   */\n      pop\n      pop\n      pop\n        /* \"#utility.yul\":11690:13085   */\n      pop\n      pop\n      jump\t// out\n\n    auxdata: 0xa2646970667358221220f1a5434f335c5f3f8fa614670a32c9809eab70af8aef3ea8ba8266508612338b64736f6c634300081a0033\n}\n",
				"bytecode": {
					"linkReferences": {},
					"object": "6080604052348015600e575f80fd5b50610b608061001c5f395ff3fe608060405234801561000f575f80fd5b506004361061003f575f3560e01c80630f53a4701461004357806352640314146100735780639dd9d0fd1461008f575b5f80fd5b61005d600480360381019061005891906104c5565b6100c1565b60405161006a91906105ce565b60405180910390f35b61008d6004803603810190610088919061071a565b610250565b005b6100a960048036038101906100a491906104c5565b6102fb565b6040516100b893929190610815565b60405180910390f35b6100c9610438565b5f808373ffffffffffffffffffffffffffffffffffffffff1673ffffffffffffffffffffffffffffffffffffffff1681526020019081526020015f206040518060600160405290815f8201805461011f90610885565b80601f016020809104026020016040519081016040528092919081815260200182805461014b90610885565b80156101965780601f1061016d57610100808354040283529160200191610196565b820191905f5260205f20905b81548152906001019060200180831161017957829003601f168201915b505050505081526020016001820180546101af90610885565b80601f01602080910402602001604051908101604052809291908181526020018280546101db90610885565b80156102265780601f106101fd57610100808354040283529160200191610226565b820191905f5260205f20905b81548152906001019060200180831161020957829003601f168201915b50505050508152602001600282015f9054906101000a900460ff1615151515815250509050919050565b6040518060600160405280848152602001838152602001600115158152505f803373ffffffffffffffffffffffffffffffffffffffff1673ffffffffffffffffffffffffffffffffffffffff1681526020019081526020015f205f820151815f0190816102bd9190610a5b565b5060208201518160010190816102d39190610a5b565b506040820151816002015f6101000a81548160ff021916908315150217905550905050505050565b5f602052805f5260405f205f91509050805f01805461031990610885565b80601f016020809104026020016040519081016040528092919081815260200182805461034590610885565b80156103905780601f1061036757610100808354040283529160200191610390565b820191905f5260205f20905b81548152906001019060200180831161037357829003601f168201915b5050505050908060010180546103a590610885565b80601f01602080910402602001604051908101604052809291908181526020018280546103d190610885565b801561041c5780601f106103f35761010080835404028352916020019161041c565b820191905f5260205f20905b8154815290600101906020018083116103ff57829003601f168201915b505050505090806002015f9054906101000a900460ff16905083565b604051806060016040528060608152602001606081526020015f151581525090565b5f604051905090565b5f80fd5b5f80fd5b5f73ffffffffffffffffffffffffffffffffffffffff82169050919050565b5f6104948261046b565b9050919050565b6104a48161048a565b81146104ae575f80fd5b50565b5f813590506104bf8161049b565b92915050565b5f602082840312156104da576104d9610463565b5b5f6104e7848285016104b1565b91505092915050565b5f81519050919050565b5f82825260208201905092915050565b8281835e5f83830152505050565b5f601f19601f8301169050919050565b5f610532826104f0565b61053c81856104fa565b935061054c81856020860161050a565b61055581610518565b840191505092915050565b5f8115159050919050565b61057481610560565b82525050565b5f606083015f8301518482035f8601526105948282610528565b915050602083015184820360208601526105ae8282610528565b91505060408301516105c3604086018261056b565b508091505092915050565b5f6020820190508181035f8301526105e6818461057a565b905092915050565b5f80fd5b5f80fd5b7f4e487b71000000000000000000000000000000000000000000000000000000005f52604160045260245ffd5b61062c82610518565b810181811067ffffffffffffffff8211171561064b5761064a6105f6565b5b80604052505050565b5f61065d61045a565b90506106698282610623565b919050565b5f67ffffffffffffffff821115610688576106876105f6565b5b61069182610518565b9050602081019050919050565b828183375f83830152505050565b5f6106be6106b98461066e565b610654565b9050828152602081018484840111156106da576106d96105f2565b5b6106e584828561069e565b509392505050565b5f82601f830112610701576107006105ee565b5b81356107118482602086016106ac565b91505092915050565b5f805f6060848603121561073157610730610463565b5b5f84013567ffffffffffffffff81111561074e5761074d610467565b5b61075a868287016106ed565b935050602084013567ffffffffffffffff81111561077b5761077a610467565b5b610787868287016106ed565b925050604084013567ffffffffffffffff8111156107a8576107a7610467565b5b6107b4868287016106ed565b9150509250925092565b5f82825260208201905092915050565b5f6107d8826104f0565b6107e281856107be565b93506107f281856020860161050a565b6107fb81610518565b840191505092915050565b61080f81610560565b82525050565b5f6060820190508181035f83015261082d81866107ce565b9050818103602083015261084181856107ce565b90506108506040830184610806565b949350505050565b7f4e487b71000000000000000000000000000000000000000000000000000000005f52602260045260245ffd5b5f600282049050600182168061089c57607f821691505b6020821081036108af576108ae610858565b5b50919050565b5f819050815f5260205f209050919050565b5f6020601f8301049050919050565b5f82821b905092915050565b5f600883026109117fffffffffffffffffffffffffffffffffffffffffffffffffffffffffffffffff826108d6565b61091b86836108d6565b95508019841693508086168417925050509392505050565b5f819050919050565b5f819050919050565b5f61095f61095a61095584610933565b61093c565b610933565b9050919050565b5f819050919050565b61097883610945565b61098c61098482610966565b8484546108e2565b825550505050565b5f90565b6109a0610994565b6109ab81848461096f565b505050565b5b818110156109ce576109c35f82610998565b6001810190506109b1565b5050565b601f821115610a13576109e4816108b5565b6109ed846108c7565b810160208510156109fc578190505b610a10610a08856108c7565b8301826109b0565b50505b505050565b5f82821c905092915050565b5f610a335f1984600802610a18565b1980831691505092915050565b5f610a4b8383610a24565b9150826002028217905092915050565b610a64826104f0565b67ffffffffffffffff811115610a7d57610a7c6105f6565b5b610a878254610885565b610a928282856109d2565b5f60209050601f831160018114610ac3575f8415610ab1578287015190505b610abb8582610a40565b865550610b22565b601f198416610ad1866108b5565b5f5b82811015610af857848901518255600182019150602085019450602081019050610ad3565b86831015610b155784890151610b11601f891682610a24565b8355505b6001600288020188555050505b50505050505056fea2646970667358221220f1a5434f335c5f3f8fa614670a32c9809eab70af8aef3ea8ba8266508612338b64736f6c634300081a0033",
					"opcodes": "PUSH1 0x80 PUSH1 0x40 MSTORE CALLVALUE DUP1 ISZERO PUSH1 0xE JUMPI PUSH0 DUP1 REVERT JUMPDEST POP PUSH2 0xB60 DUP1 PUSH2 0x1C PUSH0 CODECOPY PUSH0 RETURN INVALID PUSH1 0x80 PUSH1 0x40 MSTORE CALLVALUE DUP1 ISZERO PUSH2 0xF JUMPI PUSH0 DUP1 REVERT JUMPDEST POP PUSH1 0x4 CALLDATASIZE LT PUSH2 0x3F JUMPI PUSH0 CALLDATALOAD PUSH1 0xE0 SHR DUP1 PUSH4 0xF53A470 EQ PUSH2 0x43 JUMPI DUP1 PUSH4 0x52640314 EQ PUSH2 0x73 JUMPI DUP1 PUSH4 0x9DD9D0FD EQ PUSH2 0x8F JUMPI JUMPDEST PUSH0 DUP1 REVERT JUMPDEST PUSH2 0x5D PUSH1 0x4 DUP1 CALLDATASIZE SUB DUP2 ADD SWAP1 PUSH2 0x58 SWAP2 SWAP1 PUSH2 0x4C5 JUMP JUMPDEST PUSH2 0xC1 JUMP JUMPDEST PUSH1 0x40 MLOAD PUSH2 0x6A SWAP2 SWAP1 PUSH2 0x5CE JUMP JUMPDEST PUSH1 0x40 MLOAD DUP1 SWAP2 SUB SWAP1 RETURN JUMPDEST PUSH2 0x8D PUSH1 0x4 DUP1 CALLDATASIZE SUB DUP2 ADD SWAP1 PUSH2 0x88 SWAP2 SWAP1 PUSH2 0x71A JUMP JUMPDEST PUSH2 0x250 JUMP JUMPDEST STOP JUMPDEST PUSH2 0xA9 PUSH1 0x4 DUP1 CALLDATASIZE SUB DUP2 ADD SWAP1 PUSH2 0xA4 SWAP2 SWAP1 PUSH2 0x4C5 JUMP JUMPDEST PUSH2 0x2FB JUMP JUMPDEST PUSH1 0x40 MLOAD PUSH2 0xB8 SWAP4 SWAP3 SWAP2 SWAP1 PUSH2 0x815 JUMP JUMPDEST PUSH1 0x40 MLOAD DUP1 SWAP2 SUB SWAP1 RETURN JUMPDEST PUSH2 0xC9 PUSH2 0x438 JUMP JUMPDEST PUSH0 DUP1 DUP4 PUSH20 0xFFFFFFFFFFFFFFFFFFFFFFFFFFFFFFFFFFFFFFFF AND PUSH20 0xFFFFFFFFFFFFFFFFFFFFFFFFFFFFFFFFFFFFFFFF AND DUP2 MSTORE PUSH1 0x20 ADD SWAP1 DUP2 MSTORE PUSH1 0x20 ADD PUSH0 KECCAK256 PUSH1 0x40 MLOAD DUP1 PUSH1 0x60 ADD PUSH1 0x40 MSTORE SWAP1 DUP2 PUSH0 DUP3 ADD DUP1 SLOAD PUSH2 0x11F SWAP1 PUSH2 0x885 JUMP JUMPDEST DUP1 PUSH1 0x1F ADD PUSH1 0x20 DUP1 SWAP2 DIV MUL PUSH1 0x20 ADD PUSH1 0x40 MLOAD SWAP1 DUP2 ADD PUSH1 0x40 MSTORE DUP1 SWAP3 SWAP2 SWAP1 DUP2 DUP2 MSTORE PUSH1 0x20 ADD DUP3 DUP1 SLOAD PUSH2 0x14B SWAP1 PUSH2 0x885 JUMP JUMPDEST DUP1 ISZERO PUSH2 0x196 JUMPI DUP1 PUSH1 0x1F LT PUSH2 0x16D JUMPI PUSH2 0x100 DUP1 DUP4 SLOAD DIV MUL DUP4 MSTORE SWAP2 PUSH1 0x20 ADD SWAP2 PUSH2 0x196 JUMP JUMPDEST DUP3 ADD SWAP2 SWAP1 PUSH0 MSTORE PUSH1 0x20 PUSH0 KECCAK256 SWAP1 JUMPDEST DUP2 SLOAD DUP2 MSTORE SWAP1 PUSH1 0x1 ADD SWAP1 PUSH1 0x20 ADD DUP1 DUP4 GT PUSH2 0x179 JUMPI DUP3 SWAP1 SUB PUSH1 0x1F AND DUP3 ADD SWAP2 JUMPDEST POP POP POP POP POP DUP2 MSTORE PUSH1 0x20 ADD PUSH1 0x1 DUP3 ADD DUP1 SLOAD PUSH2 0x1AF SWAP1 PUSH2 0x885 JUMP JUMPDEST DUP1 PUSH1 0x1F ADD PUSH1 0x20 DUP1 SWAP2 DIV MUL PUSH1 0x20 ADD PUSH1 0x40 MLOAD SWAP1 DUP2 ADD PUSH1 0x40 MSTORE DUP1 SWAP3 SWAP2 SWAP1 DUP2 DUP2 MSTORE PUSH1 0x20 ADD DUP3 DUP1 SLOAD PUSH2 0x1DB SWAP1 PUSH2 0x885 JUMP JUMPDEST DUP1 ISZERO PUSH2 0x226 JUMPI DUP1 PUSH1 0x1F LT PUSH2 0x1FD JUMPI PUSH2 0x100 DUP1 DUP4 SLOAD DIV MUL DUP4 MSTORE SWAP2 PUSH1 0x20 ADD SWAP2 PUSH2 0x226 JUMP JUMPDEST DUP3 ADD SWAP2 SWAP1 PUSH0 MSTORE PUSH1 0x20 PUSH0 KECCAK256 SWAP1 JUMPDEST DUP2 SLOAD DUP2 MSTORE SWAP1 PUSH1 0x1 ADD SWAP1 PUSH1 0x20 ADD DUP1 DUP4 GT PUSH2 0x209 JUMPI DUP3 SWAP1 SUB PUSH1 0x1F AND DUP3 ADD SWAP2 JUMPDEST POP POP POP POP POP DUP2 MSTORE PUSH1 0x20 ADD PUSH1 0x2 DUP3 ADD PUSH0 SWAP1 SLOAD SWAP1 PUSH2 0x100 EXP SWAP1 DIV PUSH1 0xFF AND ISZERO ISZERO ISZERO ISZERO DUP2 MSTORE POP POP SWAP1 POP SWAP2 SWAP1 POP JUMP JUMPDEST PUSH1 0x40 MLOAD DUP1 PUSH1 0x60 ADD PUSH1 0x40 MSTORE DUP1 DUP5 DUP2 MSTORE PUSH1 0x20 ADD DUP4 DUP2 MSTORE PUSH1 0x20 ADD PUSH1 0x1 ISZERO ISZERO DUP2 MSTORE POP PUSH0 DUP1 CALLER PUSH20 0xFFFFFFFFFFFFFFFFFFFFFFFFFFFFFFFFFFFFFFFF AND PUSH20 0xFFFFFFFFFFFFFFFFFFFFFFFFFFFFFFFFFFFFFFFF AND DUP2 MSTORE PUSH1 0x20 ADD SWAP1 DUP2 MSTORE PUSH1 0x20 ADD PUSH0 KECCAK256 PUSH0 DUP3 ADD MLOAD DUP2 PUSH0 ADD SWAP1 DUP2 PUSH2 0x2BD SWAP2 SWAP1 PUSH2 0xA5B JUMP JUMPDEST POP PUSH1 0x20 DUP3 ADD MLOAD DUP2 PUSH1 0x1 ADD SWAP1 DUP2 PUSH2 0x2D3 SWAP2 SWAP1 PUSH2 0xA5B JUMP JUMPDEST POP PUSH1 0x40 DUP3 ADD MLOAD DUP2 PUSH1 0x2 ADD PUSH0 PUSH2 0x100 EXP DUP2 SLOAD DUP2 PUSH1 0xFF MUL NOT AND SWAP1 DUP4 ISZERO ISZERO MUL OR SWAP1 SSTORE POP SWAP1 POP POP POP POP POP JUMP JUMPDEST PUSH0 PUSH1 0x20 MSTORE DUP1 PUSH0 MSTORE PUSH1 0x40 PUSH0 KECCAK256 PUSH0 SWAP2 POP SWAP1 POP DUP1 PUSH0 ADD DUP1 SLOAD PUSH2 0x319 SWAP1 PUSH2 0x885 JUMP JUMPDEST DUP1 PUSH1 0x1F ADD PUSH1 0x20 DUP1 SWAP2 DIV MUL PUSH1 0x20 ADD PUSH1 0x40 MLOAD SWAP1 DUP2 ADD PUSH1 0x40 MSTORE DUP1 SWAP3 SWAP2 SWAP1 DUP2 DUP2 MSTORE PUSH1 0x20 ADD DUP3 DUP1 SLOAD PUSH2 0x345 SWAP1 PUSH2 0x885 JUMP JUMPDEST DUP1 ISZERO PUSH2 0x390 JUMPI DUP1 PUSH1 0x1F LT PUSH2 0x367 JUMPI PUSH2 0x100 DUP1 DUP4 SLOAD DIV MUL DUP4 MSTORE SWAP2 PUSH1 0x20 ADD SWAP2 PUSH2 0x390 JUMP JUMPDEST DUP3 ADD SWAP2 SWAP1 PUSH0 MSTORE PUSH1 0x20 PUSH0 KECCAK256 SWAP1 JUMPDEST DUP2 SLOAD DUP2 MSTORE SWAP1 PUSH1 0x1 ADD SWAP1 PUSH1 0x20 ADD DUP1 DUP4 GT PUSH2 0x373 JUMPI DUP3 SWAP1 SUB PUSH1 0x1F AND DUP3 ADD SWAP2 JUMPDEST POP POP POP POP POP SWAP1 DUP1 PUSH1 0x1 ADD DUP1 SLOAD PUSH2 0x3A5 SWAP1 PUSH2 0x885 JUMP JUMPDEST DUP1 PUSH1 0x1F ADD PUSH1 0x20 DUP1 SWAP2 DIV MUL PUSH1 0x20 ADD PUSH1 0x40 MLOAD SWAP1 DUP2 ADD PUSH1 0x40 MSTORE DUP1 SWAP3 SWAP2 SWAP1 DUP2 DUP2 MSTORE PUSH1 0x20 ADD DUP3 DUP1 SLOAD PUSH2 0x3D1 SWAP1 PUSH2 0x885 JUMP JUMPDEST DUP1 ISZERO PUSH2 0x41C JUMPI DUP1 PUSH1 0x1F LT PUSH2 0x3F3 JUMPI PUSH2 0x100 DUP1 DUP4 SLOAD DIV MUL DUP4 MSTORE SWAP2 PUSH1 0x20 ADD SWAP2 PUSH2 0x41C JUMP JUMPDEST DUP3 ADD SWAP2 SWAP1 PUSH0 MSTORE PUSH1 0x20 PUSH0 KECCAK256 SWAP1 JUMPDEST DUP2 SLOAD DUP2 MSTORE SWAP1 PUSH1 0x1 ADD SWAP1 PUSH1 0x20 ADD DUP1 DUP4 GT PUSH2 0x3FF JUMPI DUP3 SWAP1 SUB PUSH1 0x1F AND DUP3 ADD SWAP2 JUMPDEST POP POP POP POP POP SWAP1 DUP1 PUSH1 0x2 ADD PUSH0 SWAP1 SLOAD SWAP1 PUSH2 0x100 EXP SWAP1 DIV PUSH1 0xFF AND SWAP1 POP DUP4 JUMP JUMPDEST PUSH1 0x40 MLOAD DUP1 PUSH1 0x60 ADD PUSH1 0x40 MSTORE DUP1 PUSH1 0x60 DUP2 MSTORE PUSH1 0x20 ADD PUSH1 0x60 DUP2 MSTORE PUSH1 0x20 ADD PUSH0 ISZERO ISZERO DUP2 MSTORE POP SWAP1 JUMP JUMPDEST PUSH0 PUSH1 0x40 MLOAD SWAP1 POP SWAP1 JUMP JUMPDEST PUSH0 DUP1 REVERT JUMPDEST PUSH0 DUP1 REVERT JUMPDEST PUSH0 PUSH20 0xFFFFFFFFFFFFFFFFFFFFFFFFFFFFFFFFFFFFFFFF DUP3 AND SWAP1 POP SWAP2 SWAP1 POP JUMP JUMPDEST PUSH0 PUSH2 0x494 DUP3 PUSH2 0x46B JUMP JUMPDEST SWAP1 POP SWAP2 SWAP1 POP JUMP JUMPDEST PUSH2 0x4A4 DUP2 PUSH2 0x48A JUMP JUMPDEST DUP2 EQ PUSH2 0x4AE JUMPI PUSH0 DUP1 REVERT JUMPDEST POP JUMP JUMPDEST PUSH0 DUP2 CALLDATALOAD SWAP1 POP PUSH2 0x4BF DUP2 PUSH2 0x49B JUMP JUMPDEST SWAP3 SWAP2 POP POP JUMP JUMPDEST PUSH0 PUSH1 0x20 DUP3 DUP5 SUB SLT ISZERO PUSH2 0x4DA JUMPI PUSH2 0x4D9 PUSH2 0x463 JUMP JUMPDEST JUMPDEST PUSH0 PUSH2 0x4E7 DUP5 DUP3 DUP6 ADD PUSH2 0x4B1 JUMP JUMPDEST SWAP2 POP POP SWAP3 SWAP2 POP POP JUMP JUMPDEST PUSH0 DUP2 MLOAD SWAP1 POP SWAP2 SWAP1 POP JUMP JUMPDEST PUSH0 DUP3 DUP3 MSTORE PUSH1 0x20 DUP3 ADD SWAP1 POP SWAP3 SWAP2 POP POP JUMP JUMPDEST DUP3 DUP2 DUP4 MCOPY PUSH0 DUP4 DUP4 ADD MSTORE POP POP POP JUMP JUMPDEST PUSH0 PUSH1 0x1F NOT PUSH1 0x1F DUP4 ADD AND SWAP1 POP SWAP2 SWAP1 POP JUMP JUMPDEST PUSH0 PUSH2 0x532 DUP3 PUSH2 0x4F0 JUMP JUMPDEST PUSH2 0x53C DUP2 DUP6 PUSH2 0x4FA JUMP JUMPDEST SWAP4 POP PUSH2 0x54C DUP2 DUP6 PUSH1 0x20 DUP7 ADD PUSH2 0x50A JUMP JUMPDEST PUSH2 0x555 DUP2 PUSH2 0x518 JUMP JUMPDEST DUP5 ADD SWAP2 POP POP SWAP3 SWAP2 POP POP JUMP JUMPDEST PUSH0 DUP2 ISZERO ISZERO SWAP1 POP SWAP2 SWAP1 POP JUMP JUMPDEST PUSH2 0x574 DUP2 PUSH2 0x560 JUMP JUMPDEST DUP3 MSTORE POP POP JUMP JUMPDEST PUSH0 PUSH1 0x60 DUP4 ADD PUSH0 DUP4 ADD MLOAD DUP5 DUP3 SUB PUSH0 DUP7 ADD MSTORE PUSH2 0x594 DUP3 DUP3 PUSH2 0x528 JUMP JUMPDEST SWAP2 POP POP PUSH1 0x20 DUP4 ADD MLOAD DUP5 DUP3 SUB PUSH1 0x20 DUP7 ADD MSTORE PUSH2 0x5AE DUP3 DUP3 PUSH2 0x528 JUMP JUMPDEST SWAP2 POP POP PUSH1 0x40 DUP4 ADD MLOAD PUSH2 0x5C3 PUSH1 0x40 DUP7 ADD DUP3 PUSH2 0x56B JUMP JUMPDEST POP DUP1 SWAP2 POP POP SWAP3 SWAP2 POP POP JUMP JUMPDEST PUSH0 PUSH1 0x20 DUP3 ADD SWAP1 POP DUP2 DUP2 SUB PUSH0 DUP4 ADD MSTORE PUSH2 0x5E6 DUP2 DUP5 PUSH2 0x57A JUMP JUMPDEST SWAP1 POP SWAP3 SWAP2 POP POP JUMP JUMPDEST PUSH0 DUP1 REVERT JUMPDEST PUSH0 DUP1 REVERT JUMPDEST PUSH32 0x4E487B7100000000000000000000000000000000000000000000000000000000 PUSH0 MSTORE PUSH1 0x41 PUSH1 0x4 MSTORE PUSH1 0x24 PUSH0 REVERT JUMPDEST PUSH2 0x62C DUP3 PUSH2 0x518 JUMP JUMPDEST DUP2 ADD DUP2 DUP2 LT PUSH8 0xFFFFFFFFFFFFFFFF DUP3 GT OR ISZERO PUSH2 0x64B JUMPI PUSH2 0x64A PUSH2 0x5F6 JUMP JUMPDEST JUMPDEST DUP1 PUSH1 0x40 MSTORE POP POP POP JUMP JUMPDEST PUSH0 PUSH2 0x65D PUSH2 0x45A JUMP JUMPDEST SWAP1 POP PUSH2 0x669 DUP3 DUP3 PUSH2 0x623 JUMP JUMPDEST SWAP2 SWAP1 POP JUMP JUMPDEST PUSH0 PUSH8 0xFFFFFFFFFFFFFFFF DUP3 GT ISZERO PUSH2 0x688 JUMPI PUSH2 0x687 PUSH2 0x5F6 JUMP JUMPDEST JUMPDEST PUSH2 0x691 DUP3 PUSH2 0x518 JUMP JUMPDEST SWAP1 POP PUSH1 0x20 DUP2 ADD SWAP1 POP SWAP2 SWAP1 POP JUMP JUMPDEST DUP3 DUP2 DUP4 CALLDATACOPY PUSH0 DUP4 DUP4 ADD MSTORE POP POP POP JUMP JUMPDEST PUSH0 PUSH2 0x6BE PUSH2 0x6B9 DUP5 PUSH2 0x66E JUMP JUMPDEST PUSH2 0x654 JUMP JUMPDEST SWAP1 POP DUP3 DUP2 MSTORE PUSH1 0x20 DUP2 ADD DUP5 DUP5 DUP5 ADD GT ISZERO PUSH2 0x6DA JUMPI PUSH2 0x6D9 PUSH2 0x5F2 JUMP JUMPDEST JUMPDEST PUSH2 0x6E5 DUP5 DUP3 DUP6 PUSH2 0x69E JUMP JUMPDEST POP SWAP4 SWAP3 POP POP POP JUMP JUMPDEST PUSH0 DUP3 PUSH1 0x1F DUP4 ADD SLT PUSH2 0x701 JUMPI PUSH2 0x700 PUSH2 0x5EE JUMP JUMPDEST JUMPDEST DUP2 CALLDATALOAD PUSH2 0x711 DUP5 DUP3 PUSH1 0x20 DUP7 ADD PUSH2 0x6AC JUMP JUMPDEST SWAP2 POP POP SWAP3 SWAP2 POP POP JUMP JUMPDEST PUSH0 DUP1 PUSH0 PUSH1 0x60 DUP5 DUP7 SUB SLT ISZERO PUSH2 0x731 JUMPI PUSH2 0x730 PUSH2 0x463 JUMP JUMPDEST JUMPDEST PUSH0 DUP5 ADD CALLDATALOAD PUSH8 0xFFFFFFFFFFFFFFFF DUP2 GT ISZERO PUSH2 0x74E JUMPI PUSH2 0x74D PUSH2 0x467 JUMP JUMPDEST JUMPDEST PUSH2 0x75A DUP7 DUP3 DUP8 ADD PUSH2 0x6ED JUMP JUMPDEST SWAP4 POP POP PUSH1 0x20 DUP5 ADD CALLDATALOAD PUSH8 0xFFFFFFFFFFFFFFFF DUP2 GT ISZERO PUSH2 0x77B JUMPI PUSH2 0x77A PUSH2 0x467 JUMP JUMPDEST JUMPDEST PUSH2 0x787 DUP7 DUP3 DUP8 ADD PUSH2 0x6ED JUMP JUMPDEST SWAP3 POP POP PUSH1 0x40 DUP5 ADD CALLDATALOAD PUSH8 0xFFFFFFFFFFFFFFFF DUP2 GT ISZERO PUSH2 0x7A8 JUMPI PUSH2 0x7A7 PUSH2 0x467 JUMP JUMPDEST JUMPDEST PUSH2 0x7B4 DUP7 DUP3 DUP8 ADD PUSH2 0x6ED JUMP JUMPDEST SWAP2 POP POP SWAP3 POP SWAP3 POP SWAP3 JUMP JUMPDEST PUSH0 DUP3 DUP3 MSTORE PUSH1 0x20 DUP3 ADD SWAP1 POP SWAP3 SWAP2 POP POP JUMP JUMPDEST PUSH0 PUSH2 0x7D8 DUP3 PUSH2 0x4F0 JUMP JUMPDEST PUSH2 0x7E2 DUP2 DUP6 PUSH2 0x7BE JUMP JUMPDEST SWAP4 POP PUSH2 0x7F2 DUP2 DUP6 PUSH1 0x20 DUP7 ADD PUSH2 0x50A JUMP JUMPDEST PUSH2 0x7FB DUP2 PUSH2 0x518 JUMP JUMPDEST DUP5 ADD SWAP2 POP POP SWAP3 SWAP2 POP POP JUMP JUMPDEST PUSH2 0x80F DUP2 PUSH2 0x560 JUMP JUMPDEST DUP3 MSTORE POP POP JUMP JUMPDEST PUSH0 PUSH1 0x60 DUP3 ADD SWAP1 POP DUP2 DUP2 SUB PUSH0 DUP4 ADD MSTORE PUSH2 0x82D DUP2 DUP7 PUSH2 0x7CE JUMP JUMPDEST SWAP1 POP DUP2 DUP2 SUB PUSH1 0x20 DUP4 ADD MSTORE PUSH2 0x841 DUP2 DUP6 PUSH2 0x7CE JUMP JUMPDEST SWAP1 POP PUSH2 0x850 PUSH1 0x40 DUP4 ADD DUP5 PUSH2 0x806 JUMP JUMPDEST SWAP5 SWAP4 POP POP POP POP JUMP JUMPDEST PUSH32 0x4E487B7100000000000000000000000000000000000000000000000000000000 PUSH0 MSTORE PUSH1 0x22 PUSH1 0x4 MSTORE PUSH1 0x24 PUSH0 REVERT JUMPDEST PUSH0 PUSH1 0x2 DUP3 DIV SWAP1 POP PUSH1 0x1 DUP3 AND DUP1 PUSH2 0x89C JUMPI PUSH1 0x7F DUP3 AND SWAP2 POP JUMPDEST PUSH1 0x20 DUP3 LT DUP2 SUB PUSH2 0x8AF JUMPI PUSH2 0x8AE PUSH2 0x858 JUMP JUMPDEST JUMPDEST POP SWAP2 SWAP1 POP JUMP JUMPDEST PUSH0 DUP2 SWAP1 POP DUP2 PUSH0 MSTORE PUSH1 0x20 PUSH0 KECCAK256 SWAP1 POP SWAP2 SWAP1 POP JUMP JUMPDEST PUSH0 PUSH1 0x20 PUSH1 0x1F DUP4 ADD DIV SWAP1 POP SWAP2 SWAP1 POP JUMP JUMPDEST PUSH0 DUP3 DUP3 SHL SWAP1 POP SWAP3 SWAP2 POP POP JUMP JUMPDEST PUSH0 PUSH1 0x8 DUP4 MUL PUSH2 0x911 PUSH32 0xFFFFFFFFFFFFFFFFFFFFFFFFFFFFFFFFFFFFFFFFFFFFFFFFFFFFFFFFFFFFFFFF DUP3 PUSH2 0x8D6 JUMP JUMPDEST PUSH2 0x91B DUP7 DUP4 PUSH2 0x8D6 JUMP JUMPDEST SWAP6 POP DUP1 NOT DUP5 AND SWAP4 POP DUP1 DUP7 AND DUP5 OR SWAP3 POP POP POP SWAP4 SWAP3 POP POP POP JUMP JUMPDEST PUSH0 DUP2 SWAP1 POP SWAP2 SWAP1 POP JUMP JUMPDEST PUSH0 DUP2 SWAP1 POP SWAP2 SWAP1 POP JUMP JUMPDEST PUSH0 PUSH2 0x95F PUSH2 0x95A PUSH2 0x955 DUP5 PUSH2 0x933 JUMP JUMPDEST PUSH2 0x93C JUMP JUMPDEST PUSH2 0x933 JUMP JUMPDEST SWAP1 POP SWAP2 SWAP1 POP JUMP JUMPDEST PUSH0 DUP2 SWAP1 POP SWAP2 SWAP1 POP JUMP JUMPDEST PUSH2 0x978 DUP4 PUSH2 0x945 JUMP JUMPDEST PUSH2 0x98C PUSH2 0x984 DUP3 PUSH2 0x966 JUMP JUMPDEST DUP5 DUP5 SLOAD PUSH2 0x8E2 JUMP JUMPDEST DUP3 SSTORE POP POP POP POP JUMP JUMPDEST PUSH0 SWAP1 JUMP JUMPDEST PUSH2 0x9A0 PUSH2 0x994 JUMP JUMPDEST PUSH2 0x9AB DUP2 DUP5 DUP5 PUSH2 0x96F JUMP JUMPDEST POP POP POP JUMP JUMPDEST JUMPDEST DUP2 DUP2 LT ISZERO PUSH2 0x9CE JUMPI PUSH2 0x9C3 PUSH0 DUP3 PUSH2 0x998 JUMP JUMPDEST PUSH1 0x1 DUP2 ADD SWAP1 POP PUSH2 0x9B1 JUMP JUMPDEST POP POP JUMP JUMPDEST PUSH1 0x1F DUP3 GT ISZERO PUSH2 0xA13 JUMPI PUSH2 0x9E4 DUP2 PUSH2 0x8B5 JUMP JUMPDEST PUSH2 0x9ED DUP5 PUSH2 0x8C7 JUMP JUMPDEST DUP2 ADD PUSH1 0x20 DUP6 LT ISZERO PUSH2 0x9FC JUMPI DUP2 SWAP1 POP JUMPDEST PUSH2 0xA10 PUSH2 0xA08 DUP6 PUSH2 0x8C7 JUMP JUMPDEST DUP4 ADD DUP3 PUSH2 0x9B0 JUMP JUMPDEST POP POP JUMPDEST POP POP POP JUMP JUMPDEST PUSH0 DUP3 DUP3 SHR SWAP1 POP SWAP3 SWAP2 POP POP JUMP JUMPDEST PUSH0 PUSH2 0xA33 PUSH0 NOT DUP5 PUSH1 0x8 MUL PUSH2 0xA18 JUMP JUMPDEST NOT DUP1 DUP4 AND SWAP2 POP POP SWAP3 SWAP2 POP POP JUMP JUMPDEST PUSH0 PUSH2 0xA4B DUP4 DUP4 PUSH2 0xA24 JUMP JUMPDEST SWAP2 POP DUP3 PUSH1 0x2 MUL DUP3 OR SWAP1 POP SWAP3 SWAP2 POP POP JUMP JUMPDEST PUSH2 0xA64 DUP3 PUSH2 0x4F0 JUMP JUMPDEST PUSH8 0xFFFFFFFFFFFFFFFF DUP2 GT ISZERO PUSH2 0xA7D JUMPI PUSH2 0xA7C PUSH2 0x5F6 JUMP JUMPDEST JUMPDEST PUSH2 0xA87 DUP3 SLOAD PUSH2 0x885 JUMP JUMPDEST PUSH2 0xA92 DUP3 DUP3 DUP6 PUSH2 0x9D2 JUMP JUMPDEST PUSH0 PUSH1 0x20 SWAP1 POP PUSH1 0x1F DUP4 GT PUSH1 0x1 DUP2 EQ PUSH2 0xAC3 JUMPI PUSH0 DUP5 ISZERO PUSH2 0xAB1 JUMPI DUP3 DUP8 ADD MLOAD SWAP1 POP JUMPDEST PUSH2 0xABB DUP6 DUP3 PUSH2 0xA40 JUMP JUMPDEST DUP7 SSTORE POP PUSH2 0xB22 JUMP JUMPDEST PUSH1 0x1F NOT DUP5 AND PUSH2 0xAD1 DUP7 PUSH2 0x8B5 JUMP JUMPDEST PUSH0 JUMPDEST DUP3 DUP2 LT ISZERO PUSH2 0xAF8 JUMPI DUP5 DUP10 ADD MLOAD DUP3 SSTORE PUSH1 0x1 DUP3 ADD SWAP2 POP PUSH1 0x20 DUP6 ADD SWAP5 POP PUSH1 0x20 DUP2 ADD SWAP1 POP PUSH2 0xAD3 JUMP JUMPDEST DUP7 DUP4 LT ISZERO PUSH2 0xB15 JUMPI DUP5 DUP10 ADD MLOAD PUSH2 0xB11 PUSH1 0x1F DUP10 AND DUP3 PUSH2 0xA24 JUMP JUMPDEST DUP4 SSTORE POP JUMPDEST PUSH1 0x1 PUSH1 0x2 DUP9 MUL ADD DUP9 SSTORE POP POP POP JUMPDEST POP POP POP POP POP POP JUMP INVALID LOG2 PUSH5 0x6970667358 0x22 SLT KECCAK256 CALL 0xA5 NUMBER 0x4F CALLER TLOAD PUSH0 EXTCODEHASH DUP16 0xA6 EQ PUSH8 0xA32C9809EAB70AF DUP11 0xEF RETURNDATACOPY 0xA8 0xBA DUP3 PUSH7 0x508612338B6473 PUSH16 0x6C634300081A00330000000000000000 "
				},
				"gasEstimates": {
					"creation": {
						"codeDepositCost": "582400",
						"executionCost": "611",
						"totalCost": "583011"
					},
					"external": {
						"getProfile(address)": "infinite",
						"profile(address)": "infinite",
						"setProfile(string,string,string)": "infinite"
					}
				},
				"methodIdentifiers": {
					"getProfile(address)": "0f53a470",
					"profile(address)": "9dd9d0fd",
					"setProfile(string,string,string)": "52640314"
				}
			},
			"storageLayout": {
				"storage": [
					{
						"astId": 13,
						"contract": "contracts/VotingProfile.sol:VotingProfile",
						"label": "profile",
						"offset": 0,
						"slot": "0",
						"type": "t_mapping(t_address,t_struct(UserProfile)8_storage)"
					}
				],
				"types": {
					"t_address": {
						"encoding": "inplace",
						"label": "address",
						"numberOfBytes": "20"
					},
					"t_bool": {
						"encoding": "inplace",
						"label": "bool",
						"numberOfBytes": "1"
					},
					"t_mapping(t_address,t_struct(UserProfile)8_storage)": {
						"encoding": "mapping",
						"key": "t_address",
						"label": "mapping(address => struct VotingProfile.UserProfile)",
						"numberOfBytes": "32",
						"value": "t_struct(UserProfile)8_storage"
					},
					"t_string_storage": {
						"encoding": "bytes",
						"label": "string",
						"numberOfBytes": "32"
					},
					"t_struct(UserProfile)8_storage": {
						"encoding": "inplace",
						"label": "struct VotingProfile.UserProfile",
						"members": [
							{
								"astId": 3,
								"contract": "contracts/VotingProfile.sol:VotingProfile",
								"label": "username",
								"offset": 0,
								"slot": "0",
								"type": "t_string_storage"
							},
							{
								"astId": 5,
								"contract": "contracts/VotingProfile.sol:VotingProfile",
								"label": "bio",
								"offset": 0,
								"slot": "1",
								"type": "t_string_storage"
							},
							{
								"astId": 7,
								"contract": "contracts/VotingProfile.sol:VotingProfile",
								"label": "isRegistered",
								"offset": 0,
								"slot": "2",
								"type": "t_bool"
							}
						],
						"numberOfBytes": "96"
					}
				}
			},
			"userdoc": {
				"kind": "user",
				"methods": {},
				"version": 1
			}
		}
	}
}