{
	"contracts/Petisi.sol": {
		"Petisi": {
			"abi": [
				{
					"inputs": [
						{
							"internalType": "address",
							"name": "_profileContract",
							"type": "address"
						}
					],
					"stateMutability": "nonpayable",
					"type": "constructor"
				},
				{
					"inputs": [
						{
							"internalType": "address",
							"name": "owner",
							"type": "address"
						}
					],
					"name": "OwnableInvalidOwner",
					"type": "error"
				},
				{
					"inputs": [
						{
							"internalType": "address",
							"name": "account",
							"type": "address"
						}
					],
					"name": "OwnableUnauthorizedAccount",
					"type": "error"
				},
				{
					"anonymous": false,
					"inputs": [
						{
							"indexed": true,
							"internalType": "address",
							"name": "previousOwner",
							"type": "address"
						},
						{
							"indexed": true,
							"internalType": "address",
							"name": "newOwner",
							"type": "address"
						}
					],
					"name": "OwnershipTransferred",
					"type": "event"
				},
				{
					"anonymous": false,
					"inputs": [
						{
							"indexed": false,
							"internalType": "uint256",
							"name": "id",
							"type": "uint256"
						},
						{
							"indexed": false,
							"internalType": "string",
							"name": "title",
							"type": "string"
						},
						{
							"indexed": false,
							"internalType": "string",
							"name": "description",
							"type": "string"
						},
						{
							"indexed": false,
							"internalType": "uint256",
							"name": "votes",
							"type": "uint256"
						},
						{
							"indexed": false,
							"internalType": "string",
							"name": "_imgUrl",
							"type": "string"
						},
						{
							"indexed": false,
							"internalType": "uint256",
							"name": "_deadline",
							"type": "uint256"
						},
						{
							"indexed": false,
							"internalType": "address",
							"name": "author",
							"type": "address"
						}
					],
					"name": "proposalCreated",
					"type": "event"
				},
				{
					"anonymous": false,
					"inputs": [
						{
							"indexed": false,
							"internalType": "bool",
							"name": "_isVoted",
							"type": "bool"
						}
					],
					"name": "voteSuccesed",
					"type": "event"
				},
				{
					"inputs": [
						{
							"internalType": "string",
							"name": "_title",
							"type": "string"
						},
						{
							"internalType": "string",
							"name": "_description",
							"type": "string"
						},
						{
							"internalType": "string",
							"name": "_imgUrl",
							"type": "string"
						},
						{
							"internalType": "uint256",
							"name": "_deadline",
							"type": "uint256"
						}
					],
					"name": "createProposal",
					"outputs": [],
					"stateMutability": "nonpayable",
					"type": "function"
				},
				{
					"inputs": [],
					"name": "gerAllProposal",
					"outputs": [
						{
							"components": [
								{
									"internalType": "uint256",
									"name": "id",
									"type": "uint256"
								},
								{
									"internalType": "string",
									"name": "title",
									"type": "string"
								},
								{
									"internalType": "string",
									"name": "description",
									"type": "string"
								},
								{
									"internalType": "uint256",
									"name": "votes",
									"type": "uint256"
								},
								{
									"internalType": "string",
									"name": "imgUrl",
									"type": "string"
								},
								{
									"internalType": "uint256",
									"name": "deadline",
									"type": "uint256"
								},
								{
									"internalType": "address",
									"name": "author",
									"type": "address"
								},
								{
									"internalType": "string",
									"name": "usernameAuthor",
									"type": "string"
								},
								{
									"internalType": "string",
									"name": "imgAuthore",
									"type": "string"
								},
								{
									"internalType": "uint256",
									"name": "created",
									"type": "uint256"
								}
							],
							"internalType": "struct Petisi.Proposal[]",
							"name": "",
							"type": "tuple[]"
						}
					],
					"stateMutability": "view",
					"type": "function"
				},
				{
					"inputs": [
						{
							"internalType": "address",
							"name": "_user",
							"type": "address"
						}
					],
					"name": "getMyProposal",
					"outputs": [
						{
							"components": [
								{
									"internalType": "uint256",
									"name": "id",
									"type": "uint256"
								},
								{
									"internalType": "string",
									"name": "title",
									"type": "string"
								},
								{
									"internalType": "string",
									"name": "description",
									"type": "string"
								},
								{
									"internalType": "uint256",
									"name": "votes",
									"type": "uint256"
								},
								{
									"internalType": "string",
									"name": "imgUrl",
									"type": "string"
								},
								{
									"internalType": "uint256",
									"name": "deadline",
									"type": "uint256"
								},
								{
									"internalType": "address",
									"name": "author",
									"type": "address"
								},
								{
									"internalType": "string",
									"name": "usernameAuthor",
									"type": "string"
								},
								{
									"internalType": "string",
									"name": "imgAuthore",
									"type": "string"
								},
								{
									"internalType": "uint256",
									"name": "created",
									"type": "uint256"
								}
							],
							"internalType": "struct Petisi.Proposal[]",
							"name": "",
							"type": "tuple[]"
						}
					],
					"stateMutability": "view",
					"type": "function"
				},
				{
					"inputs": [
						{
							"internalType": "uint256",
							"name": "_id",
							"type": "uint256"
						}
					],
					"name": "getProposal",
					"outputs": [
						{
							"internalType": "string",
							"name": "",
							"type": "string"
						},
						{
							"internalType": "string",
							"name": "",
							"type": "string"
						}
					],
					"stateMutability": "view",
					"type": "function"
				},
				{
					"inputs": [
						{
							"internalType": "address",
							"name": "",
							"type": "address"
						}
					],
					"name": "hasvoted",
					"outputs": [
						{
							"internalType": "bool",
							"name": "",
							"type": "bool"
						}
					],
					"stateMutability": "view",
					"type": "function"
				},
				{
					"inputs": [
						{
							"internalType": "address",
							"name": "",
							"type": "address"
						},
						{
							"internalType": "uint256",
							"name": "",
							"type": "uint256"
						}
					],
					"name": "myProposal",
					"outputs": [
						{
							"internalType": "uint256",
							"name": "id",
							"type": "uint256"
						},
						{
							"internalType": "string",
							"name": "title",
							"type": "string"
						},
						{
							"internalType": "string",
							"name": "description",
							"type": "string"
						},
						{
							"internalType": "uint256",
							"name": "votes",
							"type": "uint256"
						},
						{
							"internalType": "string",
							"name": "imgUrl",
							"type": "string"
						},
						{
							"internalType": "uint256",
							"name": "deadline",
							"type": "uint256"
						},
						{
							"internalType": "address",
							"name": "author",
							"type": "address"
						},
						{
							"internalType": "string",
							"name": "usernameAuthor",
							"type": "string"
						},
						{
							"internalType": "string",
							"name": "imgAuthore",
							"type": "string"
						},
						{
							"internalType": "uint256",
							"name": "created",
							"type": "uint256"
						}
					],
					"stateMutability": "view",
					"type": "function"
				},
				{
					"inputs": [],
					"name": "owner",
					"outputs": [
						{
							"internalType": "address",
							"name": "",
							"type": "address"
						}
					],
					"stateMutability": "view",
					"type": "function"
				},
				{
					"inputs": [
						{
							"internalType": "uint256",
							"name": "",
							"type": "uint256"
						}
					],
					"name": "proposalList",
					"outputs": [
						{
							"internalType": "uint256",
							"name": "id",
							"type": "uint256"
						},
						{
							"internalType": "string",
							"name": "title",
							"type": "string"
						},
						{
							"internalType": "string",
							"name": "description",
							"type": "string"
						},
						{
							"internalType": "uint256",
							"name": "votes",
							"type": "uint256"
						},
						{
							"internalType": "string",
							"name": "imgUrl",
							"type": "string"
						},
						{
							"internalType": "uint256",
							"name": "deadline",
							"type": "uint256"
						},
						{
							"internalType": "address",
							"name": "author",
							"type": "address"
						},
						{
							"internalType": "string",
							"name": "usernameAuthor",
							"type": "string"
						},
						{
							"internalType": "string",
							"name": "imgAuthore",
							"type": "string"
						},
						{
							"internalType": "uint256",
							"name": "created",
							"type": "uint256"
						}
					],
					"stateMutability": "view",
					"type": "function"
				},
				{
					"inputs": [
						{
							"internalType": "uint256",
							"name": "",
							"type": "uint256"
						}
					],
					"name": "proposals",
					"outputs": [
						{
							"internalType": "uint256",
							"name": "id",
							"type": "uint256"
						},
						{
							"internalType": "string",
							"name": "title",
							"type": "string"
						},
						{
							"internalType": "string",
							"name": "description",
							"type": "string"
						},
						{
							"internalType": "uint256",
							"name": "votes",
							"type": "uint256"
						},
						{
							"internalType": "string",
							"name": "imgUrl",
							"type": "string"
						},
						{
							"internalType": "uint256",
							"name": "deadline",
							"type": "uint256"
						},
						{
							"internalType": "address",
							"name": "author",
							"type": "address"
						},
						{
							"internalType": "string",
							"name": "usernameAuthor",
							"type": "string"
						},
						{
							"internalType": "string",
							"name": "imgAuthore",
							"type": "string"
						},
						{
							"internalType": "uint256",
							"name": "created",
							"type": "uint256"
						}
					],
					"stateMutability": "view",
					"type": "function"
				},
				{
					"inputs": [],
					"name": "renounceOwnership",
					"outputs": [],
					"stateMutability": "nonpayable",
					"type": "function"
				},
				{
					"inputs": [
						{
							"internalType": "address",
							"name": "newOwner",
							"type": "address"
						}
					],
					"name": "transferOwnership",
					"outputs": [],
					"stateMutability": "nonpayable",
					"type": "function"
				},
				{
					"inputs": [
						{
							"internalType": "uint256",
							"name": "_id",
							"type": "uint256"
						}
					],
					"name": "vote",
					"outputs": [],
					"stateMutability": "nonpayable",
					"type": "function"
				}
			],
			"devdoc": {
				"errors": {
					"OwnableInvalidOwner(address)": [
						{
							"details": "The owner is not a valid owner account. (eg. `address(0)`)"
						}
					],
					"OwnableUnauthorizedAccount(address)": [
						{
							"details": "The caller account is not authorized to perform an operation."
						}
					]
				},
				"kind": "dev",
				"methods": {
					"owner()": {
						"details": "Returns the address of the current owner."
					},
					"renounceOwnership()": {
						"details": "Leaves the contract without owner. It will not be possible to call `onlyOwner` functions. Can only be called by the current owner. NOTE: Renouncing ownership will leave the contract without an owner, thereby disabling any functionality that is only available to the owner."
					},
					"transferOwnership(address)": {
						"details": "Transfers ownership of the contract to a new account (`newOwner`). Can only be called by the current owner."
					}
				},
				"version": 1
			},
			"evm": {
				"assembly": "    /* \"contracts/Petisi.sol\":145:2787  contract Petisi is Ownable { ... */\n  mstore(0x40, 0x80)\n    /* \"contracts/Petisi.sol\":646:647  0 */\n  0x00\n    /* \"contracts/Petisi.sol\":620:647  uint256 counterProposal = 0 */\n  0x02\n  sstore\n    /* \"contracts/Petisi.sol\":218:336  constructor(address _profileContract) Ownable(msg.sender){... */\n  callvalue\n  dup1\n  iszero\n  tag_1\n  jumpi\n  0x00\n  dup1\n  revert\ntag_1:\n  pop\n  mload(0x40)\n  sub(codesize, bytecodeSize)\n  dup1\n  bytecodeSize\n  dup4\n  codecopy\n  dup2\n  dup2\n  add\n  0x40\n  mstore\n  dup2\n  add\n  swap1\n  tag_2\n  swap2\n  swap1\n  tag_3\n  jump\t// in\ntag_2:\n    /* \"contracts/Petisi.sol\":264:274  msg.sender */\n  caller\n    /* \"@openzeppelin/contracts/access/Ownable.sol\":1297:1298  0 */\n  0x00\n    /* \"@openzeppelin/contracts/access/Ownable.sol\":1273:1299  initialOwner == address(0) */\n  0xffffffffffffffffffffffffffffffffffffffff\n  and\n    /* \"@openzeppelin/contracts/access/Ownable.sol\":1273:1285  initialOwner */\n  dup2\n    /* \"@openzeppelin/contracts/access/Ownable.sol\":1273:1299  initialOwner == address(0) */\n  0xffffffffffffffffffffffffffffffffffffffff\n  and\n  sub\n    /* \"@openzeppelin/contracts/access/Ownable.sol\":1269:1364  if (initialOwner == address(0)) {... */\n  tag_7\n  jumpi\n    /* \"@openzeppelin/contracts/access/Ownable.sol\":1350:1351  0 */\n  0x00\n    /* \"@openzeppelin/contracts/access/Ownable.sol\":1322:1353  OwnableInvalidOwner(address(0)) */\n  mload(0x40)\n  0x1e4fbdf700000000000000000000000000000000000000000000000000000000\n  dup2\n  mstore\n  0x04\n  add\n  tag_8\n  swap2\n  swap1\n  tag_9\n  jump\t// in\ntag_8:\n  mload(0x40)\n  dup1\n  swap2\n  sub\n  swap1\n  revert\n    /* \"@openzeppelin/contracts/access/Ownable.sol\":1269:1364  if (initialOwner == address(0)) {... */\ntag_7:\n    /* \"@openzeppelin/contracts/access/Ownable.sol\":1373:1405  _transferOwnership(initialOwner) */\n  tag_10\n    /* \"@openzeppelin/contracts/access/Ownable.sol\":1392:1404  initialOwner */\n  dup2\n    /* \"@openzeppelin/contracts/access/Ownable.sol\":1373:1391  _transferOwnership */\n  shl(0x20, tag_11)\n    /* \"@openzeppelin/contracts/access/Ownable.sol\":1373:1405  _transferOwnership(initialOwner) */\n  0x20\n  shr\n  jump\t// in\ntag_10:\n    /* \"@openzeppelin/contracts/access/Ownable.sol\":1225:1412  constructor(address initialOwner) {... */\n  pop\n    /* \"contracts/Petisi.sol\":312:328  _profileContract */\n  dup1\n    /* \"contracts/Petisi.sol\":285:300  profileContract */\n  0x01\n  0x00\n    /* \"contracts/Petisi.sol\":285:329  profileContract = IProfile(_profileContract) */\n  0x0100\n  exp\n  dup2\n  sload\n  dup2\n  0xffffffffffffffffffffffffffffffffffffffff\n  mul\n  not\n  and\n  swap1\n  dup4\n  0xffffffffffffffffffffffffffffffffffffffff\n  and\n  mul\n  or\n  swap1\n  sstore\n  pop\n    /* \"contracts/Petisi.sol\":218:336  constructor(address _profileContract) Ownable(msg.sender){... */\n  pop\n    /* \"contracts/Petisi.sol\":145:2787  contract Petisi is Ownable { ... */\n  jump(tag_13)\n    /* \"@openzeppelin/contracts/access/Ownable.sol\":2912:3099  function _transferOwnership(address newOwner) internal virtual {... */\ntag_11:\n    /* \"@openzeppelin/contracts/access/Ownable.sol\":2985:3001  address oldOwner */\n  0x00\n    /* \"@openzeppelin/contracts/access/Ownable.sol\":3004:3010  _owner */\n  dup1\n  0x00\n  swap1\n  sload\n  swap1\n  0x0100\n  exp\n  swap1\n  div\n  0xffffffffffffffffffffffffffffffffffffffff\n  and\n    /* \"@openzeppelin/contracts/access/Ownable.sol\":2985:3010  address oldOwner = _owner */\n  swap1\n  pop\n    /* \"@openzeppelin/contracts/access/Ownable.sol\":3029:3037  newOwner */\n  dup2\n    /* \"@openzeppelin/contracts/access/Ownable.sol\":3020:3026  _owner */\n  0x00\n  dup1\n    /* \"@openzeppelin/contracts/access/Ownable.sol\":3020:3037  _owner = newOwner */\n  0x0100\n  exp\n  dup2\n  sload\n  dup2\n  0xffffffffffffffffffffffffffffffffffffffff\n  mul\n  not\n  and\n  swap1\n  dup4\n  0xffffffffffffffffffffffffffffffffffffffff\n  and\n  mul\n  or\n  swap1\n  sstore\n  pop\n    /* \"@openzeppelin/contracts/access/Ownable.sol\":3083:3091  newOwner */\n  dup2\n    /* \"@openzeppelin/contracts/access/Ownable.sol\":3052:3092  OwnershipTransferred(oldOwner, newOwner) */\n  0xffffffffffffffffffffffffffffffffffffffff\n  and\n    /* \"@openzeppelin/contracts/access/Ownable.sol\":3073:3081  oldOwner */\n  dup2\n    /* \"@openzeppelin/contracts/access/Ownable.sol\":3052:3092  OwnershipTransferred(oldOwner, newOwner) */\n  0xffffffffffffffffffffffffffffffffffffffff\n  and\n  0x8be0079c531659141344cd1fd0a4f28419497f9722a3daafe3b4186f6b6457e0\n  mload(0x40)\n  mload(0x40)\n  dup1\n  swap2\n  sub\n  swap1\n  log3\n    /* \"@openzeppelin/contracts/access/Ownable.sol\":2975:3099  {... */\n  pop\n    /* \"@openzeppelin/contracts/access/Ownable.sol\":2912:3099  function _transferOwnership(address newOwner) internal virtual {... */\n  pop\n  jump\t// out\n    /* \"#utility.yul\":88:205   */\ntag_16:\n    /* \"#utility.yul\":197:198   */\n  0x00\n    /* \"#utility.yul\":194:195   */\n  dup1\n    /* \"#utility.yul\":187:199   */\n  revert\n    /* \"#utility.yul\":334:460   */\ntag_18:\n    /* \"#utility.yul\":371:378   */\n  0x00\n    /* \"#utility.yul\":411:453   */\n  0xffffffffffffffffffffffffffffffffffffffff\n    /* \"#utility.yul\":404:409   */\n  dup3\n    /* \"#utility.yul\":400:454   */\n  and\n    /* \"#utility.yul\":389:454   */\n  swap1\n  pop\n    /* \"#utility.yul\":334:460   */\n  swap2\n  swap1\n  pop\n  jump\t// out\n    /* \"#utility.yul\":466:562   */\ntag_19:\n    /* \"#utility.yul\":503:510   */\n  0x00\n    /* \"#utility.yul\":532:556   */\n  tag_29\n    /* \"#utility.yul\":550:555   */\n  dup3\n    /* \"#utility.yul\":532:556   */\n  tag_18\n  jump\t// in\ntag_29:\n    /* \"#utility.yul\":521:556   */\n  swap1\n  pop\n    /* \"#utility.yul\":466:562   */\n  swap2\n  swap1\n  pop\n  jump\t// out\n    /* \"#utility.yul\":568:690   */\ntag_20:\n    /* \"#utility.yul\":641:665   */\n  tag_31\n    /* \"#utility.yul\":659:664   */\n  dup2\n    /* \"#utility.yul\":641:665   */\n  tag_19\n  jump\t// in\ntag_31:\n    /* \"#utility.yul\":634:639   */\n  dup2\n    /* \"#utility.yul\":631:666   */\n  eq\n    /* \"#utility.yul\":621:684   */\n  tag_32\n  jumpi\n    /* \"#utility.yul\":680:681   */\n  0x00\n    /* \"#utility.yul\":677:678   */\n  dup1\n    /* \"#utility.yul\":670:682   */\n  revert\n    /* \"#utility.yul\":621:684   */\ntag_32:\n    /* \"#utility.yul\":568:690   */\n  pop\n  jump\t// out\n    /* \"#utility.yul\":696:839   */\ntag_21:\n    /* \"#utility.yul\":753:758   */\n  0x00\n    /* \"#utility.yul\":784:790   */\n  dup2\n    /* \"#utility.yul\":778:791   */\n  mload\n    /* \"#utility.yul\":769:791   */\n  swap1\n  pop\n    /* \"#utility.yul\":800:833   */\n  tag_34\n    /* \"#utility.yul\":827:832   */\n  dup2\n    /* \"#utility.yul\":800:833   */\n  tag_20\n  jump\t// in\ntag_34:\n    /* \"#utility.yul\":696:839   */\n  swap3\n  swap2\n  pop\n  pop\n  jump\t// out\n    /* \"#utility.yul\":845:1196   */\ntag_3:\n    /* \"#utility.yul\":915:921   */\n  0x00\n    /* \"#utility.yul\":964:966   */\n  0x20\n    /* \"#utility.yul\":952:961   */\n  dup3\n    /* \"#utility.yul\":943:950   */\n  dup5\n    /* \"#utility.yul\":939:962   */\n  sub\n    /* \"#utility.yul\":935:967   */\n  slt\n    /* \"#utility.yul\":932:1051   */\n  iszero\n  tag_36\n  jumpi\n    /* \"#utility.yul\":970:1049   */\n  tag_37\n  tag_16\n  jump\t// in\ntag_37:\n    /* \"#utility.yul\":932:1051   */\ntag_36:\n    /* \"#utility.yul\":1090:1091   */\n  0x00\n    /* \"#utility.yul\":1115:1179   */\n  tag_38\n    /* \"#utility.yul\":1171:1178   */\n  dup5\n    /* \"#utility.yul\":1162:1168   */\n  dup3\n    /* \"#utility.yul\":1151:1160   */\n  dup6\n    /* \"#utility.yul\":1147:1169   */\n  add\n    /* \"#utility.yul\":1115:1179   */\n  tag_21\n  jump\t// in\ntag_38:\n    /* \"#utility.yul\":1105:1179   */\n  swap2\n  pop\n    /* \"#utility.yul\":1061:1189   */\n  pop\n    /* \"#utility.yul\":845:1196   */\n  swap3\n  swap2\n  pop\n  pop\n  jump\t// out\n    /* \"#utility.yul\":1202:1320   */\ntag_22:\n    /* \"#utility.yul\":1289:1313   */\n  tag_40\n    /* \"#utility.yul\":1307:1312   */\n  dup2\n    /* \"#utility.yul\":1289:1313   */\n  tag_19\n  jump\t// in\ntag_40:\n    /* \"#utility.yul\":1284:1287   */\n  dup3\n    /* \"#utility.yul\":1277:1314   */\n  mstore\n    /* \"#utility.yul\":1202:1320   */\n  pop\n  pop\n  jump\t// out\n    /* \"#utility.yul\":1326:1548   */\ntag_9:\n    /* \"#utility.yul\":1419:1423   */\n  0x00\n    /* \"#utility.yul\":1457:1459   */\n  0x20\n    /* \"#utility.yul\":1446:1455   */\n  dup3\n    /* \"#utility.yul\":1442:1460   */\n  add\n    /* \"#utility.yul\":1434:1460   */\n  swap1\n  pop\n    /* \"#utility.yul\":1470:1541   */\n  tag_42\n    /* \"#utility.yul\":1538:1539   */\n  0x00\n    /* \"#utility.yul\":1527:1536   */\n  dup4\n    /* \"#utility.yul\":1523:1540   */\n  add\n    /* \"#utility.yul\":1514:1520   */\n  dup5\n    /* \"#utility.yul\":1470:1541   */\n  tag_22\n  jump\t// in\ntag_42:\n    /* \"#utility.yul\":1326:1548   */\n  swap3\n  swap2\n  pop\n  pop\n  jump\t// out\n    /* \"contracts/Petisi.sol\":145:2787  contract Petisi is Ownable { ... */\ntag_13:\n  dataSize(sub_0)\n  dup1\n  dataOffset(sub_0)\n  0x00\n  codecopy\n  0x00\n  return\nstop\n\nsub_0: assembly {\n        /* \"contracts/Petisi.sol\":145:2787  contract Petisi is Ownable { ... */\n      mstore(0x40, 0x80)\n      callvalue\n      dup1\n      iszero\n      tag_1\n      jumpi\n      0x00\n      dup1\n      revert\n    tag_1:\n      pop\n      jumpi(tag_2, lt(calldatasize, 0x04))\n      shr(0xe0, calldataload(0x00))\n      dup1\n      0x8da5cb5b\n      gt\n      tag_15\n      jumpi\n      dup1\n      0x8da5cb5b\n      eq\n      tag_9\n      jumpi\n      dup1\n      0xbe07d1d9\n      eq\n      tag_10\n      jumpi\n      dup1\n      0xc6311e3f\n      eq\n      tag_11\n      jumpi\n      dup1\n      0xc7f758a8\n      eq\n      tag_12\n      jumpi\n      dup1\n      0xf2fde38b\n      eq\n      tag_13\n      jumpi\n      dup1\n      0xf30282a1\n      eq\n      tag_14\n      jumpi\n      jump(tag_2)\n    tag_15:\n      dup1\n      0x0121b93f\n      eq\n      tag_3\n      jumpi\n      dup1\n      0x013cf08b\n      eq\n      tag_4\n      jumpi\n      dup1\n      0x159428d1\n      eq\n      tag_5\n      jumpi\n      dup1\n      0x2b499cab\n      eq\n      tag_6\n      jumpi\n      dup1\n      0x4c15676b\n      eq\n      tag_7\n      jumpi\n      dup1\n      0x715018a6\n      eq\n      tag_8\n      jumpi\n    tag_2:\n      0x00\n      dup1\n      revert\n        /* \"contracts/Petisi.sol\":2591:2784  function vote(uint256 _id) public onlyRegisterd onlyHasNoVoted{... */\n    tag_3:\n      tag_16\n      0x04\n      dup1\n      calldatasize\n      sub\n      dup2\n      add\n      swap1\n      tag_17\n      swap2\n      swap1\n      tag_18\n      jump\t// in\n    tag_17:\n      tag_19\n      jump\t// in\n    tag_16:\n      stop\n        /* \"contracts/Petisi.sol\":913:958  mapping(uint256 => Proposal) public proposals */\n    tag_4:\n      tag_20\n      0x04\n      dup1\n      calldatasize\n      sub\n      dup2\n      add\n      swap1\n      tag_21\n      swap2\n      swap1\n      tag_18\n      jump\t// in\n    tag_21:\n      tag_22\n      jump\t// in\n    tag_20:\n      mload(0x40)\n      tag_23\n      swap11\n      swap10\n      swap9\n      swap8\n      swap7\n      swap6\n      swap5\n      swap4\n      swap3\n      swap2\n      swap1\n      tag_24\n      jump\t// in\n    tag_23:\n      mload(0x40)\n      dup1\n      swap2\n      sub\n      swap1\n      return\n        /* \"contracts/Petisi.sol\":2253:2371  function getMyProposal(address _user) public view returns (Proposal[] memory){... */\n    tag_5:\n      tag_25\n      0x04\n      dup1\n      calldatasize\n      sub\n      dup2\n      add\n      swap1\n      tag_26\n      swap2\n      swap1\n      tag_27\n      jump\t// in\n    tag_26:\n      tag_28\n      jump\t// in\n    tag_25:\n      mload(0x40)\n      tag_29\n      swap2\n      swap1\n      tag_30\n      jump\t// in\n    tag_29:\n      mload(0x40)\n      dup1\n      swap2\n      sub\n      swap1\n      return\n        /* \"contracts/Petisi.sol\":964:1004  mapping(address => bool) public hasvoted */\n    tag_6:\n      tag_31\n      0x04\n      dup1\n      calldatasize\n      sub\n      dup2\n      add\n      swap1\n      tag_32\n      swap2\n      swap1\n      tag_27\n      jump\t// in\n    tag_32:\n      tag_33\n      jump\t// in\n    tag_31:\n      mload(0x40)\n      tag_34\n      swap2\n      swap1\n      tag_35\n      jump\t// in\n    tag_34:\n      mload(0x40)\n      dup1\n      swap2\n      sub\n      swap1\n      return\n        /* \"contracts/Petisi.sol\":1385:2140  function createProposal(string memory _title, string memory _description, string memory _imgUrl, uint256 _deadline) onlyRegisterd public {... */\n    tag_7:\n      tag_36\n      0x04\n      dup1\n      calldatasize\n      sub\n      dup2\n      add\n      swap1\n      tag_37\n      swap2\n      swap1\n      tag_38\n      jump\t// in\n    tag_37:\n      tag_39\n      jump\t// in\n    tag_36:\n      stop\n        /* \"@openzeppelin/contracts/access/Ownable.sol\":2293:2394  function renounceOwnership() public virtual onlyOwner {... */\n    tag_8:\n      tag_40\n      tag_41\n      jump\t// in\n    tag_40:\n      stop\n        /* \"@openzeppelin/contracts/access/Ownable.sol\":1638:1723  function owner() public view virtual returns (address) {... */\n    tag_9:\n      tag_42\n      tag_43\n      jump\t// in\n    tag_42:\n      mload(0x40)\n      tag_44\n      swap2\n      swap1\n      tag_45\n      jump\t// in\n    tag_44:\n      mload(0x40)\n      dup1\n      swap2\n      sub\n      swap1\n      return\n        /* \"contracts/Petisi.sol\":858:907  mapping (address => Proposal[]) public myProposal */\n    tag_10:\n      tag_46\n      0x04\n      dup1\n      calldatasize\n      sub\n      dup2\n      add\n      swap1\n      tag_47\n      swap2\n      swap1\n      tag_48\n      jump\t// in\n    tag_47:\n      tag_49\n      jump\t// in\n    tag_46:\n      mload(0x40)\n      tag_50\n      swap11\n      swap10\n      swap9\n      swap8\n      swap7\n      swap6\n      swap5\n      swap4\n      swap3\n      swap2\n      swap1\n      tag_24\n      jump\t// in\n    tag_50:\n      mload(0x40)\n      dup1\n      swap2\n      sub\n      swap1\n      return\n        /* \"contracts/Petisi.sol\":1023:1053  Proposal[] public proposalList */\n    tag_11:\n      tag_51\n      0x04\n      dup1\n      calldatasize\n      sub\n      dup2\n      add\n      swap1\n      tag_52\n      swap2\n      swap1\n      tag_18\n      jump\t// in\n    tag_52:\n      tag_53\n      jump\t// in\n    tag_51:\n      mload(0x40)\n      tag_54\n      swap11\n      swap10\n      swap9\n      swap8\n      swap7\n      swap6\n      swap5\n      swap4\n      swap3\n      swap2\n      swap1\n      tag_24\n      jump\t// in\n    tag_54:\n      mload(0x40)\n      dup1\n      swap2\n      sub\n      swap1\n      return\n        /* \"contracts/Petisi.sol\":2377:2585  function getProposal(uint256 _id) public view returns(string memory, string memory){... */\n    tag_12:\n      tag_55\n      0x04\n      dup1\n      calldatasize\n      sub\n      dup2\n      add\n      swap1\n      tag_56\n      swap2\n      swap1\n      tag_18\n      jump\t// in\n    tag_56:\n      tag_57\n      jump\t// in\n    tag_55:\n      mload(0x40)\n      tag_58\n      swap3\n      swap2\n      swap1\n      tag_59\n      jump\t// in\n    tag_58:\n      mload(0x40)\n      dup1\n      swap2\n      sub\n      swap1\n      return\n        /* \"@openzeppelin/contracts/access/Ownable.sol\":2543:2758  function transferOwnership(address newOwner) public virtual onlyOwner {... */\n    tag_13:\n      tag_60\n      0x04\n      dup1\n      calldatasize\n      sub\n      dup2\n      add\n      swap1\n      tag_61\n      swap2\n      swap1\n      tag_27\n      jump\t// in\n    tag_61:\n      tag_62\n      jump\t// in\n    tag_60:\n      stop\n        /* \"contracts/Petisi.sol\":2146:2247  function gerAllProposal() public view returns (Proposal[] memory){... */\n    tag_14:\n      tag_63\n      tag_64\n      jump\t// in\n    tag_63:\n      mload(0x40)\n      tag_65\n      swap2\n      swap1\n      tag_30\n      jump\t// in\n    tag_65:\n      mload(0x40)\n      dup1\n      swap2\n      sub\n      swap1\n      return\n        /* \"contracts/Petisi.sol\":2591:2784  function vote(uint256 _id) public onlyRegisterd onlyHasNoVoted{... */\n    tag_19:\n        /* \"contracts/Petisi.sol\":1094:1129  IProfile.profile memory profileTemp */\n      0x00\n        /* \"contracts/Petisi.sol\":1133:1148  profileContract */\n      0x01\n      0x00\n      swap1\n      sload\n      swap1\n      0x0100\n      exp\n      swap1\n      div\n      0xffffffffffffffffffffffffffffffffffffffff\n      and\n        /* \"contracts/Petisi.sol\":1133:1159  profileContract.getProfile */\n      0xffffffffffffffffffffffffffffffffffffffff\n      and\n      0x0f53a470\n        /* \"contracts/Petisi.sol\":1160:1170  msg.sender */\n      caller\n        /* \"contracts/Petisi.sol\":1133:1171  profileContract.getProfile(msg.sender) */\n      mload(0x40)\n      dup3\n      0xffffffff\n      and\n      0xe0\n      shl\n      dup2\n      mstore\n      0x04\n      add\n      tag_67\n      swap2\n      swap1\n      tag_45\n      jump\t// in\n    tag_67:\n      0x00\n      mload(0x40)\n      dup1\n      dup4\n      sub\n      dup2\n      dup7\n      gas\n      staticcall\n      iszero\n      dup1\n      iszero\n      tag_69\n      jumpi\n      returndatasize\n      0x00\n      dup1\n      returndatacopy\n      revert(0x00, returndatasize)\n    tag_69:\n      pop\n      pop\n      pop\n      pop\n      mload(0x40)\n      returndatasize\n      0x00\n      dup3\n      returndatacopy\n      returndatasize\n      not(0x1f)\n      0x1f\n      dup3\n      add\n      and\n      dup3\n      add\n      dup1\n      0x40\n      mstore\n      pop\n      dup2\n      add\n      swap1\n      tag_70\n      swap2\n      swap1\n      tag_71\n      jump\t// in\n    tag_70:\n        /* \"contracts/Petisi.sol\":1094:1171  IProfile.profile memory profileTemp =  profileContract.getProfile(msg.sender) */\n      swap1\n      pop\n        /* \"contracts/Petisi.sol\":1189:1200  profileTemp */\n      dup1\n        /* \"contracts/Petisi.sol\":1189:1213  profileTemp.isRegistered */\n      0x60\n      add\n      mload\n        /* \"contracts/Petisi.sol\":1181:1239  require(profileTemp.isRegistered, \"You have to Registerd\") */\n      tag_72\n      jumpi\n      mload(0x40)\n      0x08c379a000000000000000000000000000000000000000000000000000000000\n      dup2\n      mstore\n      0x04\n      add\n      tag_73\n      swap1\n      tag_74\n      jump\t// in\n    tag_73:\n      mload(0x40)\n      dup1\n      swap2\n      sub\n      swap1\n      revert\n    tag_72:\n        /* \"contracts/Petisi.sol\":1307:1315  hasvoted */\n      0x05\n        /* \"contracts/Petisi.sol\":1307:1328  hasvoted[msg.sender ] */\n      0x00\n        /* \"contracts/Petisi.sol\":1316:1326  msg.sender */\n      caller\n        /* \"contracts/Petisi.sol\":1307:1328  hasvoted[msg.sender ] */\n      0xffffffffffffffffffffffffffffffffffffffff\n      and\n      0xffffffffffffffffffffffffffffffffffffffff\n      and\n      dup2\n      mstore\n      0x20\n      add\n      swap1\n      dup2\n      mstore\n      0x20\n      add\n      0x00\n      keccak256\n      0x00\n      swap1\n      sload\n      swap1\n      0x0100\n      exp\n      swap1\n      div\n      0xff\n      and\n        /* \"contracts/Petisi.sol\":1306:1328  !hasvoted[msg.sender ] */\n      iszero\n        /* \"contracts/Petisi.sol\":1298:1355  require(!hasvoted[msg.sender ], \"You are already Voted!\") */\n      tag_76\n      jumpi\n      mload(0x40)\n      0x08c379a000000000000000000000000000000000000000000000000000000000\n      dup2\n      mstore\n      0x04\n      add\n      tag_77\n      swap1\n      tag_78\n      jump\t// in\n    tag_77:\n      mload(0x40)\n      dup1\n      swap2\n      sub\n      swap1\n      revert\n    tag_76:\n        /* \"contracts/Petisi.sol\":2687:2688  1 */\n      0x01\n        /* \"contracts/Petisi.sol\":2663:2672  proposals */\n      0x04\n        /* \"contracts/Petisi.sol\":2663:2677  proposals[_id] */\n      0x00\n        /* \"contracts/Petisi.sol\":2673:2676  _id */\n      dup5\n        /* \"contracts/Petisi.sol\":2663:2677  proposals[_id] */\n      dup2\n      mstore\n      0x20\n      add\n      swap1\n      dup2\n      mstore\n      0x20\n      add\n      0x00\n      keccak256\n        /* \"contracts/Petisi.sol\":2663:2683  proposals[_id].votes */\n      0x03\n      add\n      0x00\n        /* \"contracts/Petisi.sol\":2663:2688  proposals[_id].votes += 1 */\n      dup3\n      dup3\n      sload\n      tag_80\n      swap2\n      swap1\n      tag_81\n      jump\t// in\n    tag_80:\n      swap3\n      pop\n      pop\n      dup2\n      swap1\n      sstore\n      pop\n        /* \"contracts/Petisi.sol\":2721:2725  true */\n      0x01\n        /* \"contracts/Petisi.sol\":2698:2706  hasvoted */\n      0x05\n        /* \"contracts/Petisi.sol\":2698:2718  hasvoted[msg.sender] */\n      0x00\n        /* \"contracts/Petisi.sol\":2707:2717  msg.sender */\n      caller\n        /* \"contracts/Petisi.sol\":2698:2718  hasvoted[msg.sender] */\n      0xffffffffffffffffffffffffffffffffffffffff\n      and\n      0xffffffffffffffffffffffffffffffffffffffff\n      and\n      dup2\n      mstore\n      0x20\n      add\n      swap1\n      dup2\n      mstore\n      0x20\n      add\n      0x00\n      keccak256\n      0x00\n        /* \"contracts/Petisi.sol\":2698:2725  hasvoted[msg.sender] = true */\n      0x0100\n      exp\n      dup2\n      sload\n      dup2\n      0xff\n      mul\n      not\n      and\n      swap1\n      dup4\n      iszero\n      iszero\n      mul\n      or\n      swap1\n      sstore\n      pop\n        /* \"contracts/Petisi.sol\":2743:2777  voteSuccesed(hasvoted[msg.sender]) */\n      0xd2fc1d22396e10a9080d66e9e30f30b71d1080fd6519f1c623a4df0258d06e8a\n        /* \"contracts/Petisi.sol\":2756:2764  hasvoted */\n      0x05\n        /* \"contracts/Petisi.sol\":2756:2776  hasvoted[msg.sender] */\n      0x00\n        /* \"contracts/Petisi.sol\":2765:2775  msg.sender */\n      caller\n        /* \"contracts/Petisi.sol\":2756:2776  hasvoted[msg.sender] */\n      0xffffffffffffffffffffffffffffffffffffffff\n      and\n      0xffffffffffffffffffffffffffffffffffffffff\n      and\n      dup2\n      mstore\n      0x20\n      add\n      swap1\n      dup2\n      mstore\n      0x20\n      add\n      0x00\n      keccak256\n      0x00\n      swap1\n      sload\n      swap1\n      0x0100\n      exp\n      swap1\n      div\n      0xff\n      and\n        /* \"contracts/Petisi.sol\":2743:2777  voteSuccesed(hasvoted[msg.sender]) */\n      mload(0x40)\n      tag_82\n      swap2\n      swap1\n      tag_35\n      jump\t// in\n    tag_82:\n      mload(0x40)\n      dup1\n      swap2\n      sub\n      swap1\n      log1\n        /* \"contracts/Petisi.sol\":1084:1257  {... */\n      pop\n        /* \"contracts/Petisi.sol\":2591:2784  function vote(uint256 _id) public onlyRegisterd onlyHasNoVoted{... */\n      pop\n      jump\t// out\n        /* \"contracts/Petisi.sol\":913:958  mapping(uint256 => Proposal) public proposals */\n    tag_22:\n      mstore(0x20, 0x04)\n      dup1\n      0x00\n      mstore\n      keccak256(0x00, 0x40)\n      0x00\n      swap2\n      pop\n      swap1\n      pop\n      dup1\n      0x00\n      add\n      sload\n      swap1\n      dup1\n      0x01\n      add\n      dup1\n      sload\n      tag_83\n      swap1\n      tag_84\n      jump\t// in\n    tag_83:\n      dup1\n      0x1f\n      add\n      0x20\n      dup1\n      swap2\n      div\n      mul\n      0x20\n      add\n      mload(0x40)\n      swap1\n      dup2\n      add\n      0x40\n      mstore\n      dup1\n      swap3\n      swap2\n      swap1\n      dup2\n      dup2\n      mstore\n      0x20\n      add\n      dup3\n      dup1\n      sload\n      tag_85\n      swap1\n      tag_84\n      jump\t// in\n    tag_85:\n      dup1\n      iszero\n      tag_86\n      jumpi\n      dup1\n      0x1f\n      lt\n      tag_87\n      jumpi\n      0x0100\n      dup1\n      dup4\n      sload\n      div\n      mul\n      dup4\n      mstore\n      swap2\n      0x20\n      add\n      swap2\n      jump(tag_86)\n    tag_87:\n      dup3\n      add\n      swap2\n      swap1\n      0x00\n      mstore\n      keccak256(0x00, 0x20)\n      swap1\n    tag_88:\n      dup2\n      sload\n      dup2\n      mstore\n      swap1\n      0x01\n      add\n      swap1\n      0x20\n      add\n      dup1\n      dup4\n      gt\n      tag_88\n      jumpi\n      dup3\n      swap1\n      sub\n      0x1f\n      and\n      dup3\n      add\n      swap2\n    tag_86:\n      pop\n      pop\n      pop\n      pop\n      pop\n      swap1\n      dup1\n      0x02\n      add\n      dup1\n      sload\n      tag_89\n      swap1\n      tag_84\n      jump\t// in\n    tag_89:\n      dup1\n      0x1f\n      add\n      0x20\n      dup1\n      swap2\n      div\n      mul\n      0x20\n      add\n      mload(0x40)\n      swap1\n      dup2\n      add\n      0x40\n      mstore\n      dup1\n      swap3\n      swap2\n      swap1\n      dup2\n      dup2\n      mstore\n      0x20\n      add\n      dup3\n      dup1\n      sload\n      tag_90\n      swap1\n      tag_84\n      jump\t// in\n    tag_90:\n      dup1\n      iszero\n      tag_91\n      jumpi\n      dup1\n      0x1f\n      lt\n      tag_92\n      jumpi\n      0x0100\n      dup1\n      dup4\n      sload\n      div\n      mul\n      dup4\n      mstore\n      swap2\n      0x20\n      add\n      swap2\n      jump(tag_91)\n    tag_92:\n      dup3\n      add\n      swap2\n      swap1\n      0x00\n      mstore\n      keccak256(0x00, 0x20)\n      swap1\n    tag_93:\n      dup2\n      sload\n      dup2\n      mstore\n      swap1\n      0x01\n      add\n      swap1\n      0x20\n      add\n      dup1\n      dup4\n      gt\n      tag_93\n      jumpi\n      dup3\n      swap1\n      sub\n      0x1f\n      and\n      dup3\n      add\n      swap2\n    tag_91:\n      pop\n      pop\n      pop\n      pop\n      pop\n      swap1\n      dup1\n      0x03\n      add\n      sload\n      swap1\n      dup1\n      0x04\n      add\n      dup1\n      sload\n      tag_94\n      swap1\n      tag_84\n      jump\t// in\n    tag_94:\n      dup1\n      0x1f\n      add\n      0x20\n      dup1\n      swap2\n      div\n      mul\n      0x20\n      add\n      mload(0x40)\n      swap1\n      dup2\n      add\n      0x40\n      mstore\n      dup1\n      swap3\n      swap2\n      swap1\n      dup2\n      dup2\n      mstore\n      0x20\n      add\n      dup3\n      dup1\n      sload\n      tag_95\n      swap1\n      tag_84\n      jump\t// in\n    tag_95:\n      dup1\n      iszero\n      tag_96\n      jumpi\n      dup1\n      0x1f\n      lt\n      tag_97\n      jumpi\n      0x0100\n      dup1\n      dup4\n      sload\n      div\n      mul\n      dup4\n      mstore\n      swap2\n      0x20\n      add\n      swap2\n      jump(tag_96)\n    tag_97:\n      dup3\n      add\n      swap2\n      swap1\n      0x00\n      mstore\n      keccak256(0x00, 0x20)\n      swap1\n    tag_98:\n      dup2\n      sload\n      dup2\n      mstore\n      swap1\n      0x01\n      add\n      swap1\n      0x20\n      add\n      dup1\n      dup4\n      gt\n      tag_98\n      jumpi\n      dup3\n      swap1\n      sub\n      0x1f\n      and\n      dup3\n      add\n      swap2\n    tag_96:\n      pop\n      pop\n      pop\n      pop\n      pop\n      swap1\n      dup1\n      0x05\n      add\n      sload\n      swap1\n      dup1\n      0x06\n      add\n      0x00\n      swap1\n      sload\n      swap1\n      0x0100\n      exp\n      swap1\n      div\n      0xffffffffffffffffffffffffffffffffffffffff\n      and\n      swap1\n      dup1\n      0x07\n      add\n      dup1\n      sload\n      tag_99\n      swap1\n      tag_84\n      jump\t// in\n    tag_99:\n      dup1\n      0x1f\n      add\n      0x20\n      dup1\n      swap2\n      div\n      mul\n      0x20\n      add\n      mload(0x40)\n      swap1\n      dup2\n      add\n      0x40\n      mstore\n      dup1\n      swap3\n      swap2\n      swap1\n      dup2\n      dup2\n      mstore\n      0x20\n      add\n      dup3\n      dup1\n      sload\n      tag_100\n      swap1\n      tag_84\n      jump\t// in\n    tag_100:\n      dup1\n      iszero\n      tag_101\n      jumpi\n      dup1\n      0x1f\n      lt\n      tag_102\n      jumpi\n      0x0100\n      dup1\n      dup4\n      sload\n      div\n      mul\n      dup4\n      mstore\n      swap2\n      0x20\n      add\n      swap2\n      jump(tag_101)\n    tag_102:\n      dup3\n      add\n      swap2\n      swap1\n      0x00\n      mstore\n      keccak256(0x00, 0x20)\n      swap1\n    tag_103:\n      dup2\n      sload\n      dup2\n      mstore\n      swap1\n      0x01\n      add\n      swap1\n      0x20\n      add\n      dup1\n      dup4\n      gt\n      tag_103\n      jumpi\n      dup3\n      swap1\n      sub\n      0x1f\n      and\n      dup3\n      add\n      swap2\n    tag_101:\n      pop\n      pop\n      pop\n      pop\n      pop\n      swap1\n      dup1\n      0x08\n      add\n      dup1\n      sload\n      tag_104\n      swap1\n      tag_84\n      jump\t// in\n    tag_104:\n      dup1\n      0x1f\n      add\n      0x20\n      dup1\n      swap2\n      div\n      mul\n      0x20\n      add\n      mload(0x40)\n      swap1\n      dup2\n      add\n      0x40\n      mstore\n      dup1\n      swap3\n      swap2\n      swap1\n      dup2\n      dup2\n      mstore\n      0x20\n      add\n      dup3\n      dup1\n      sload\n      tag_105\n      swap1\n      tag_84\n      jump\t// in\n    tag_105:\n      dup1\n      iszero\n      tag_106\n      jumpi\n      dup1\n      0x1f\n      lt\n      tag_107\n      jumpi\n      0x0100\n      dup1\n      dup4\n      sload\n      div\n      mul\n      dup4\n      mstore\n      swap2\n      0x20\n      add\n      swap2\n      jump(tag_106)\n    tag_107:\n      dup3\n      add\n      swap2\n      swap1\n      0x00\n      mstore\n      keccak256(0x00, 0x20)\n      swap1\n    tag_108:\n      dup2\n      sload\n      dup2\n      mstore\n      swap1\n      0x01\n      add\n      swap1\n      0x20\n      add\n      dup1\n      dup4\n      gt\n      tag_108\n      jumpi\n      dup3\n      swap1\n      sub\n      0x1f\n      and\n      dup3\n      add\n      swap2\n    tag_106:\n      pop\n      pop\n      pop\n      pop\n      pop\n      swap1\n      dup1\n      0x09\n      add\n      sload\n      swap1\n      pop\n      dup11\n      jump\t// out\n        /* \"contracts/Petisi.sol\":2253:2371  function getMyProposal(address _user) public view returns (Proposal[] memory){... */\n    tag_28:\n        /* \"contracts/Petisi.sol\":2312:2329  Proposal[] memory */\n      0x60\n        /* \"contracts/Petisi.sol\":2347:2357  myProposal */\n      0x03\n        /* \"contracts/Petisi.sol\":2347:2364  myProposal[_user] */\n      0x00\n        /* \"contracts/Petisi.sol\":2358:2363  _user */\n      dup4\n        /* \"contracts/Petisi.sol\":2347:2364  myProposal[_user] */\n      0xffffffffffffffffffffffffffffffffffffffff\n      and\n      0xffffffffffffffffffffffffffffffffffffffff\n      and\n      dup2\n      mstore\n      0x20\n      add\n      swap1\n      dup2\n      mstore\n      0x20\n      add\n      0x00\n      keccak256\n        /* \"contracts/Petisi.sol\":2340:2364  return myProposal[_user] */\n      dup1\n      sload\n      dup1\n      0x20\n      mul\n      0x20\n      add\n      mload(0x40)\n      swap1\n      dup2\n      add\n      0x40\n      mstore\n      dup1\n      swap3\n      swap2\n      swap1\n      dup2\n      dup2\n      mstore\n      0x20\n      add\n      0x00\n      swap1\n    tag_110:\n      dup3\n      dup3\n      lt\n      iszero\n      tag_111\n      jumpi\n      dup4\n      dup3\n      swap1\n      0x00\n      mstore\n      keccak256(0x00, 0x20)\n      swap1\n      0x0a\n      mul\n      add\n      mload(0x40)\n      dup1\n      0x0140\n      add\n      0x40\n      mstore\n      swap1\n      dup2\n      0x00\n      dup3\n      add\n      sload\n      dup2\n      mstore\n      0x20\n      add\n      0x01\n      dup3\n      add\n      dup1\n      sload\n      tag_113\n      swap1\n      tag_84\n      jump\t// in\n    tag_113:\n      dup1\n      0x1f\n      add\n      0x20\n      dup1\n      swap2\n      div\n      mul\n      0x20\n      add\n      mload(0x40)\n      swap1\n      dup2\n      add\n      0x40\n      mstore\n      dup1\n      swap3\n      swap2\n      swap1\n      dup2\n      dup2\n      mstore\n      0x20\n      add\n      dup3\n      dup1\n      sload\n      tag_114\n      swap1\n      tag_84\n      jump\t// in\n    tag_114:\n      dup1\n      iszero\n      tag_115\n      jumpi\n      dup1\n      0x1f\n      lt\n      tag_116\n      jumpi\n      0x0100\n      dup1\n      dup4\n      sload\n      div\n      mul\n      dup4\n      mstore\n      swap2\n      0x20\n      add\n      swap2\n      jump(tag_115)\n    tag_116:\n      dup3\n      add\n      swap2\n      swap1\n      0x00\n      mstore\n      keccak256(0x00, 0x20)\n      swap1\n    tag_117:\n      dup2\n      sload\n      dup2\n      mstore\n      swap1\n      0x01\n      add\n      swap1\n      0x20\n      add\n      dup1\n      dup4\n      gt\n      tag_117\n      jumpi\n      dup3\n      swap1\n      sub\n      0x1f\n      and\n      dup3\n      add\n      swap2\n    tag_115:\n      pop\n      pop\n      pop\n      pop\n      pop\n      dup2\n      mstore\n      0x20\n      add\n      0x02\n      dup3\n      add\n      dup1\n      sload\n      tag_118\n      swap1\n      tag_84\n      jump\t// in\n    tag_118:\n      dup1\n      0x1f\n      add\n      0x20\n      dup1\n      swap2\n      div\n      mul\n      0x20\n      add\n      mload(0x40)\n      swap1\n      dup2\n      add\n      0x40\n      mstore\n      dup1\n      swap3\n      swap2\n      swap1\n      dup2\n      dup2\n      mstore\n      0x20\n      add\n      dup3\n      dup1\n      sload\n      tag_119\n      swap1\n      tag_84\n      jump\t// in\n    tag_119:\n      dup1\n      iszero\n      tag_120\n      jumpi\n      dup1\n      0x1f\n      lt\n      tag_121\n      jumpi\n      0x0100\n      dup1\n      dup4\n      sload\n      div\n      mul\n      dup4\n      mstore\n      swap2\n      0x20\n      add\n      swap2\n      jump(tag_120)\n    tag_121:\n      dup3\n      add\n      swap2\n      swap1\n      0x00\n      mstore\n      keccak256(0x00, 0x20)\n      swap1\n    tag_122:\n      dup2\n      sload\n      dup2\n      mstore\n      swap1\n      0x01\n      add\n      swap1\n      0x20\n      add\n      dup1\n      dup4\n      gt\n      tag_122\n      jumpi\n      dup3\n      swap1\n      sub\n      0x1f\n      and\n      dup3\n      add\n      swap2\n    tag_120:\n      pop\n      pop\n      pop\n      pop\n      pop\n      dup2\n      mstore\n      0x20\n      add\n      0x03\n      dup3\n      add\n      sload\n      dup2\n      mstore\n      0x20\n      add\n      0x04\n      dup3\n      add\n      dup1\n      sload\n      tag_123\n      swap1\n      tag_84\n      jump\t// in\n    tag_123:\n      dup1\n      0x1f\n      add\n      0x20\n      dup1\n      swap2\n      div\n      mul\n      0x20\n      add\n      mload(0x40)\n      swap1\n      dup2\n      add\n      0x40\n      mstore\n      dup1\n      swap3\n      swap2\n      swap1\n      dup2\n      dup2\n      mstore\n      0x20\n      add\n      dup3\n      dup1\n      sload\n      tag_124\n      swap1\n      tag_84\n      jump\t// in\n    tag_124:\n      dup1\n      iszero\n      tag_125\n      jumpi\n      dup1\n      0x1f\n      lt\n      tag_126\n      jumpi\n      0x0100\n      dup1\n      dup4\n      sload\n      div\n      mul\n      dup4\n      mstore\n      swap2\n      0x20\n      add\n      swap2\n      jump(tag_125)\n    tag_126:\n      dup3\n      add\n      swap2\n      swap1\n      0x00\n      mstore\n      keccak256(0x00, 0x20)\n      swap1\n    tag_127:\n      dup2\n      sload\n      dup2\n      mstore\n      swap1\n      0x01\n      add\n      swap1\n      0x20\n      add\n      dup1\n      dup4\n      gt\n      tag_127\n      jumpi\n      dup3\n      swap1\n      sub\n      0x1f\n      and\n      dup3\n      add\n      swap2\n    tag_125:\n      pop\n      pop\n      pop\n      pop\n      pop\n      dup2\n      mstore\n      0x20\n      add\n      0x05\n      dup3\n      add\n      sload\n      dup2\n      mstore\n      0x20\n      add\n      0x06\n      dup3\n      add\n      0x00\n      swap1\n      sload\n      swap1\n      0x0100\n      exp\n      swap1\n      div\n      0xffffffffffffffffffffffffffffffffffffffff\n      and\n      0xffffffffffffffffffffffffffffffffffffffff\n      and\n      0xffffffffffffffffffffffffffffffffffffffff\n      and\n      dup2\n      mstore\n      0x20\n      add\n      0x07\n      dup3\n      add\n      dup1\n      sload\n      tag_128\n      swap1\n      tag_84\n      jump\t// in\n    tag_128:\n      dup1\n      0x1f\n      add\n      0x20\n      dup1\n      swap2\n      div\n      mul\n      0x20\n      add\n      mload(0x40)\n      swap1\n      dup2\n      add\n      0x40\n      mstore\n      dup1\n      swap3\n      swap2\n      swap1\n      dup2\n      dup2\n      mstore\n      0x20\n      add\n      dup3\n      dup1\n      sload\n      tag_129\n      swap1\n      tag_84\n      jump\t// in\n    tag_129:\n      dup1\n      iszero\n      tag_130\n      jumpi\n      dup1\n      0x1f\n      lt\n      tag_131\n      jumpi\n      0x0100\n      dup1\n      dup4\n      sload\n      div\n      mul\n      dup4\n      mstore\n      swap2\n      0x20\n      add\n      swap2\n      jump(tag_130)\n    tag_131:\n      dup3\n      add\n      swap2\n      swap1\n      0x00\n      mstore\n      keccak256(0x00, 0x20)\n      swap1\n    tag_132:\n      dup2\n      sload\n      dup2\n      mstore\n      swap1\n      0x01\n      add\n      swap1\n      0x20\n      add\n      dup1\n      dup4\n      gt\n      tag_132\n      jumpi\n      dup3\n      swap1\n      sub\n      0x1f\n      and\n      dup3\n      add\n      swap2\n    tag_130:\n      pop\n      pop\n      pop\n      pop\n      pop\n      dup2\n      mstore\n      0x20\n      add\n      0x08\n      dup3\n      add\n      dup1\n      sload\n      tag_133\n      swap1\n      tag_84\n      jump\t// in\n    tag_133:\n      dup1\n      0x1f\n      add\n      0x20\n      dup1\n      swap2\n      div\n      mul\n      0x20\n      add\n      mload(0x40)\n      swap1\n      dup2\n      add\n      0x40\n      mstore\n      dup1\n      swap3\n      swap2\n      swap1\n      dup2\n      dup2\n      mstore\n      0x20\n      add\n      dup3\n      dup1\n      sload\n      tag_134\n      swap1\n      tag_84\n      jump\t// in\n    tag_134:\n      dup1\n      iszero\n      tag_135\n      jumpi\n      dup1\n      0x1f\n      lt\n      tag_136\n      jumpi\n      0x0100\n      dup1\n      dup4\n      sload\n      div\n      mul\n      dup4\n      mstore\n      swap2\n      0x20\n      add\n      swap2\n      jump(tag_135)\n    tag_136:\n      dup3\n      add\n      swap2\n      swap1\n      0x00\n      mstore\n      keccak256(0x00, 0x20)\n      swap1\n    tag_137:\n      dup2\n      sload\n      dup2\n      mstore\n      swap1\n      0x01\n      add\n      swap1\n      0x20\n      add\n      dup1\n      dup4\n      gt\n      tag_137\n      jumpi\n      dup3\n      swap1\n      sub\n      0x1f\n      and\n      dup3\n      add\n      swap2\n    tag_135:\n      pop\n      pop\n      pop\n      pop\n      pop\n      dup2\n      mstore\n      0x20\n      add\n      0x09\n      dup3\n      add\n      sload\n      dup2\n      mstore\n      pop\n      pop\n      dup2\n      mstore\n      0x20\n      add\n      swap1\n      0x01\n      add\n      swap1\n      jump(tag_110)\n    tag_111:\n      pop\n      pop\n      pop\n      pop\n      swap1\n      pop\n        /* \"contracts/Petisi.sol\":2253:2371  function getMyProposal(address _user) public view returns (Proposal[] memory){... */\n      swap2\n      swap1\n      pop\n      jump\t// out\n        /* \"contracts/Petisi.sol\":964:1004  mapping(address => bool) public hasvoted */\n    tag_33:\n      mstore(0x20, 0x05)\n      dup1\n      0x00\n      mstore\n      keccak256(0x00, 0x40)\n      0x00\n      swap2\n      pop\n      sload\n      swap1\n      0x0100\n      exp\n      swap1\n      div\n      0xff\n      and\n      dup2\n      jump\t// out\n        /* \"contracts/Petisi.sol\":1385:2140  function createProposal(string memory _title, string memory _description, string memory _imgUrl, uint256 _deadline) onlyRegisterd public {... */\n    tag_39:\n        /* \"contracts/Petisi.sol\":1094:1129  IProfile.profile memory profileTemp */\n      0x00\n        /* \"contracts/Petisi.sol\":1133:1148  profileContract */\n      0x01\n      0x00\n      swap1\n      sload\n      swap1\n      0x0100\n      exp\n      swap1\n      div\n      0xffffffffffffffffffffffffffffffffffffffff\n      and\n        /* \"contracts/Petisi.sol\":1133:1159  profileContract.getProfile */\n      0xffffffffffffffffffffffffffffffffffffffff\n      and\n      0x0f53a470\n        /* \"contracts/Petisi.sol\":1160:1170  msg.sender */\n      caller\n        /* \"contracts/Petisi.sol\":1133:1171  profileContract.getProfile(msg.sender) */\n      mload(0x40)\n      dup3\n      0xffffffff\n      and\n      0xe0\n      shl\n      dup2\n      mstore\n      0x04\n      add\n      tag_139\n      swap2\n      swap1\n      tag_45\n      jump\t// in\n    tag_139:\n      0x00\n      mload(0x40)\n      dup1\n      dup4\n      sub\n      dup2\n      dup7\n      gas\n      staticcall\n      iszero\n      dup1\n      iszero\n      tag_141\n      jumpi\n      returndatasize\n      0x00\n      dup1\n      returndatacopy\n      revert(0x00, returndatasize)\n    tag_141:\n      pop\n      pop\n      pop\n      pop\n      mload(0x40)\n      returndatasize\n      0x00\n      dup3\n      returndatacopy\n      returndatasize\n      not(0x1f)\n      0x1f\n      dup3\n      add\n      and\n      dup3\n      add\n      dup1\n      0x40\n      mstore\n      pop\n      dup2\n      add\n      swap1\n      tag_142\n      swap2\n      swap1\n      tag_71\n      jump\t// in\n    tag_142:\n        /* \"contracts/Petisi.sol\":1094:1171  IProfile.profile memory profileTemp =  profileContract.getProfile(msg.sender) */\n      swap1\n      pop\n        /* \"contracts/Petisi.sol\":1189:1200  profileTemp */\n      dup1\n        /* \"contracts/Petisi.sol\":1189:1213  profileTemp.isRegistered */\n      0x60\n      add\n      mload\n        /* \"contracts/Petisi.sol\":1181:1239  require(profileTemp.isRegistered, \"You have to Registerd\") */\n      tag_143\n      jumpi\n      mload(0x40)\n      0x08c379a000000000000000000000000000000000000000000000000000000000\n      dup2\n      mstore\n      0x04\n      add\n      tag_144\n      swap1\n      tag_74\n      jump\t// in\n    tag_144:\n      mload(0x40)\n      dup1\n      swap2\n      sub\n      swap1\n      revert\n    tag_143:\n        /* \"contracts/Petisi.sol\":1532:1558  string memory usernameUser */\n      0x00\n        /* \"contracts/Petisi.sol\":1562:1577  profileContract */\n      0x01\n      0x00\n      swap1\n      sload\n      swap1\n      0x0100\n      exp\n      swap1\n      div\n      0xffffffffffffffffffffffffffffffffffffffff\n      and\n        /* \"contracts/Petisi.sol\":1562:1596  profileContract.getUsernameProfile */\n      0xffffffffffffffffffffffffffffffffffffffff\n      and\n      0x04386432\n        /* \"contracts/Petisi.sol\":1597:1607  msg.sender */\n      caller\n        /* \"contracts/Petisi.sol\":1562:1608  profileContract.getUsernameProfile(msg.sender) */\n      mload(0x40)\n      dup3\n      0xffffffff\n      and\n      0xe0\n      shl\n      dup2\n      mstore\n      0x04\n      add\n      tag_146\n      swap2\n      swap1\n      tag_45\n      jump\t// in\n    tag_146:\n      0x00\n      mload(0x40)\n      dup1\n      dup4\n      sub\n      dup2\n      dup7\n      gas\n      staticcall\n      iszero\n      dup1\n      iszero\n      tag_148\n      jumpi\n      returndatasize\n      0x00\n      dup1\n      returndatacopy\n      revert(0x00, returndatasize)\n    tag_148:\n      pop\n      pop\n      pop\n      pop\n      mload(0x40)\n      returndatasize\n      0x00\n      dup3\n      returndatacopy\n      returndatasize\n      not(0x1f)\n      0x1f\n      dup3\n      add\n      and\n      dup3\n      add\n      dup1\n      0x40\n      mstore\n      pop\n      dup2\n      add\n      swap1\n      tag_149\n      swap2\n      swap1\n      tag_150\n      jump\t// in\n    tag_149:\n        /* \"contracts/Petisi.sol\":1532:1608  string memory usernameUser =  profileContract.getUsernameProfile(msg.sender) */\n      swap1\n      pop\n        /* \"contracts/Petisi.sol\":1618:1639  string memory imgUser */\n      0x00\n        /* \"contracts/Petisi.sol\":1643:1658  profileContract */\n      0x01\n      0x00\n      swap1\n      sload\n      swap1\n      0x0100\n      exp\n      swap1\n      div\n      0xffffffffffffffffffffffffffffffffffffffff\n      and\n        /* \"contracts/Petisi.sol\":1643:1672  profileContract.getImgProfile */\n      0xffffffffffffffffffffffffffffffffffffffff\n      and\n      0xa2e84e6e\n        /* \"contracts/Petisi.sol\":1673:1683  msg.sender */\n      caller\n        /* \"contracts/Petisi.sol\":1643:1684  profileContract.getImgProfile(msg.sender) */\n      mload(0x40)\n      dup3\n      0xffffffff\n      and\n      0xe0\n      shl\n      dup2\n      mstore\n      0x04\n      add\n      tag_151\n      swap2\n      swap1\n      tag_45\n      jump\t// in\n    tag_151:\n      0x00\n      mload(0x40)\n      dup1\n      dup4\n      sub\n      dup2\n      dup7\n      gas\n      staticcall\n      iszero\n      dup1\n      iszero\n      tag_153\n      jumpi\n      returndatasize\n      0x00\n      dup1\n      returndatacopy\n      revert(0x00, returndatasize)\n    tag_153:\n      pop\n      pop\n      pop\n      pop\n      mload(0x40)\n      returndatasize\n      0x00\n      dup3\n      returndatacopy\n      returndatasize\n      not(0x1f)\n      0x1f\n      dup3\n      add\n      and\n      dup3\n      add\n      dup1\n      0x40\n      mstore\n      pop\n      dup2\n      add\n      swap1\n      tag_154\n      swap2\n      swap1\n      tag_150\n      jump\t// in\n    tag_154:\n        /* \"contracts/Petisi.sol\":1618:1684  string memory imgUser =  profileContract.getImgProfile(msg.sender) */\n      swap1\n      pop\n        /* \"contracts/Petisi.sol\":1694:1721  Proposal memory newProposal */\n      0x00\n        /* \"contracts/Petisi.sol\":1724:1846  Proposal(counterProposal, _title, _description, 0, _imgUrl, _deadline, msg.sender, usernameUser, imgUser, block.timestamp) */\n      mload(0x40)\n      dup1\n      0x0140\n      add\n      0x40\n      mstore\n      dup1\n        /* \"contracts/Petisi.sol\":1733:1748  counterProposal */\n      sload(0x02)\n        /* \"contracts/Petisi.sol\":1724:1846  Proposal(counterProposal, _title, _description, 0, _imgUrl, _deadline, msg.sender, usernameUser, imgUser, block.timestamp) */\n      dup2\n      mstore\n      0x20\n      add\n        /* \"contracts/Petisi.sol\":1750:1756  _title */\n      dup10\n        /* \"contracts/Petisi.sol\":1724:1846  Proposal(counterProposal, _title, _description, 0, _imgUrl, _deadline, msg.sender, usernameUser, imgUser, block.timestamp) */\n      dup2\n      mstore\n      0x20\n      add\n        /* \"contracts/Petisi.sol\":1758:1770  _description */\n      dup9\n        /* \"contracts/Petisi.sol\":1724:1846  Proposal(counterProposal, _title, _description, 0, _imgUrl, _deadline, msg.sender, usernameUser, imgUser, block.timestamp) */\n      dup2\n      mstore\n      0x20\n      add\n        /* \"contracts/Petisi.sol\":1772:1773  0 */\n      0x00\n        /* \"contracts/Petisi.sol\":1724:1846  Proposal(counterProposal, _title, _description, 0, _imgUrl, _deadline, msg.sender, usernameUser, imgUser, block.timestamp) */\n      dup2\n      mstore\n      0x20\n      add\n        /* \"contracts/Petisi.sol\":1775:1782  _imgUrl */\n      dup8\n        /* \"contracts/Petisi.sol\":1724:1846  Proposal(counterProposal, _title, _description, 0, _imgUrl, _deadline, msg.sender, usernameUser, imgUser, block.timestamp) */\n      dup2\n      mstore\n      0x20\n      add\n        /* \"contracts/Petisi.sol\":1784:1793  _deadline */\n      dup7\n        /* \"contracts/Petisi.sol\":1724:1846  Proposal(counterProposal, _title, _description, 0, _imgUrl, _deadline, msg.sender, usernameUser, imgUser, block.timestamp) */\n      dup2\n      mstore\n      0x20\n      add\n        /* \"contracts/Petisi.sol\":1795:1805  msg.sender */\n      caller\n        /* \"contracts/Petisi.sol\":1724:1846  Proposal(counterProposal, _title, _description, 0, _imgUrl, _deadline, msg.sender, usernameUser, imgUser, block.timestamp) */\n      0xffffffffffffffffffffffffffffffffffffffff\n      and\n      dup2\n      mstore\n      0x20\n      add\n        /* \"contracts/Petisi.sol\":1807:1819  usernameUser */\n      dup5\n        /* \"contracts/Petisi.sol\":1724:1846  Proposal(counterProposal, _title, _description, 0, _imgUrl, _deadline, msg.sender, usernameUser, imgUser, block.timestamp) */\n      dup2\n      mstore\n      0x20\n      add\n        /* \"contracts/Petisi.sol\":1821:1828  imgUser */\n      dup4\n        /* \"contracts/Petisi.sol\":1724:1846  Proposal(counterProposal, _title, _description, 0, _imgUrl, _deadline, msg.sender, usernameUser, imgUser, block.timestamp) */\n      dup2\n      mstore\n      0x20\n      add\n        /* \"contracts/Petisi.sol\":1830:1845  block.timestamp */\n      timestamp\n        /* \"contracts/Petisi.sol\":1724:1846  Proposal(counterProposal, _title, _description, 0, _imgUrl, _deadline, msg.sender, usernameUser, imgUser, block.timestamp) */\n      dup2\n      mstore\n      pop\n        /* \"contracts/Petisi.sol\":1694:1846  Proposal memory newProposal = Proposal(counterProposal, _title, _description, 0, _imgUrl, _deadline, msg.sender, usernameUser, imgUser, block.timestamp) */\n      swap1\n      pop\n        /* \"contracts/Petisi.sol\":1886:1897  newProposal */\n      dup1\n        /* \"contracts/Petisi.sol\":1857:1866  proposals */\n      0x04\n        /* \"contracts/Petisi.sol\":1857:1883  proposals[counterProposal] */\n      0x00\n        /* \"contracts/Petisi.sol\":1867:1882  counterProposal */\n      sload(0x02)\n        /* \"contracts/Petisi.sol\":1857:1883  proposals[counterProposal] */\n      dup2\n      mstore\n      0x20\n      add\n      swap1\n      dup2\n      mstore\n      0x20\n      add\n      0x00\n      keccak256\n        /* \"contracts/Petisi.sol\":1857:1897  proposals[counterProposal] = newProposal */\n      0x00\n      dup3\n      add\n      mload\n      dup2\n      0x00\n      add\n      sstore\n      0x20\n      dup3\n      add\n      mload\n      dup2\n      0x01\n      add\n      swap1\n      dup2\n      tag_155\n      swap2\n      swap1\n      tag_156\n      jump\t// in\n    tag_155:\n      pop\n      0x40\n      dup3\n      add\n      mload\n      dup2\n      0x02\n      add\n      swap1\n      dup2\n      tag_157\n      swap2\n      swap1\n      tag_156\n      jump\t// in\n    tag_157:\n      pop\n      0x60\n      dup3\n      add\n      mload\n      dup2\n      0x03\n      add\n      sstore\n      0x80\n      dup3\n      add\n      mload\n      dup2\n      0x04\n      add\n      swap1\n      dup2\n      tag_158\n      swap2\n      swap1\n      tag_156\n      jump\t// in\n    tag_158:\n      pop\n      0xa0\n      dup3\n      add\n      mload\n      dup2\n      0x05\n      add\n      sstore\n      0xc0\n      dup3\n      add\n      mload\n      dup2\n      0x06\n      add\n      exp(0x0100, 0x00)\n      dup2\n      sload\n      dup2\n      0xffffffffffffffffffffffffffffffffffffffff\n      mul\n      not\n      and\n      swap1\n      dup4\n      0xffffffffffffffffffffffffffffffffffffffff\n      and\n      mul\n      or\n      swap1\n      sstore\n      pop\n      0xe0\n      dup3\n      add\n      mload\n      dup2\n      0x07\n      add\n      swap1\n      dup2\n      tag_159\n      swap2\n      swap1\n      tag_156\n      jump\t// in\n    tag_159:\n      pop\n      0x0100\n      dup3\n      add\n      mload\n      dup2\n      0x08\n      add\n      swap1\n      dup2\n      tag_160\n      swap2\n      swap1\n      tag_156\n      jump\t// in\n    tag_160:\n      pop\n      0x0120\n      dup3\n      add\n      mload\n      dup2\n      0x09\n      add\n      sstore\n      swap1\n      pop\n      pop\n        /* \"contracts/Petisi.sol\":1907:1917  myProposal */\n      0x03\n        /* \"contracts/Petisi.sol\":1907:1929  myProposal[msg.sender] */\n      0x00\n        /* \"contracts/Petisi.sol\":1918:1928  msg.sender */\n      caller\n        /* \"contracts/Petisi.sol\":1907:1929  myProposal[msg.sender] */\n      0xffffffffffffffffffffffffffffffffffffffff\n      and\n      0xffffffffffffffffffffffffffffffffffffffff\n      and\n      dup2\n      mstore\n      0x20\n      add\n      swap1\n      dup2\n      mstore\n      0x20\n      add\n      0x00\n      keccak256\n        /* \"contracts/Petisi.sol\":1935:1946  newProposal */\n      dup2\n        /* \"contracts/Petisi.sol\":1907:1947  myProposal[msg.sender].push(newProposal) */\n      swap1\n      dup1\n      0x01\n      dup2\n      sload\n      add\n      dup1\n      dup3\n      sstore\n      dup1\n      swap2\n      pop\n      pop\n      0x01\n      swap1\n      sub\n      swap1\n      0x00\n      mstore\n      keccak256(0x00, 0x20)\n      swap1\n      0x0a\n      mul\n      add\n      0x00\n      swap1\n      swap2\n      swap1\n      swap2\n      swap1\n      swap2\n      pop\n      0x00\n      dup3\n      add\n      mload\n      dup2\n      0x00\n      add\n      sstore\n      0x20\n      dup3\n      add\n      mload\n      dup2\n      0x01\n      add\n      swap1\n      dup2\n      tag_162\n      swap2\n      swap1\n      tag_156\n      jump\t// in\n    tag_162:\n      pop\n      0x40\n      dup3\n      add\n      mload\n      dup2\n      0x02\n      add\n      swap1\n      dup2\n      tag_163\n      swap2\n      swap1\n      tag_156\n      jump\t// in\n    tag_163:\n      pop\n      0x60\n      dup3\n      add\n      mload\n      dup2\n      0x03\n      add\n      sstore\n      0x80\n      dup3\n      add\n      mload\n      dup2\n      0x04\n      add\n      swap1\n      dup2\n      tag_164\n      swap2\n      swap1\n      tag_156\n      jump\t// in\n    tag_164:\n      pop\n      0xa0\n      dup3\n      add\n      mload\n      dup2\n      0x05\n      add\n      sstore\n      0xc0\n      dup3\n      add\n      mload\n      dup2\n      0x06\n      add\n      exp(0x0100, 0x00)\n      dup2\n      sload\n      dup2\n      0xffffffffffffffffffffffffffffffffffffffff\n      mul\n      not\n      and\n      swap1\n      dup4\n      0xffffffffffffffffffffffffffffffffffffffff\n      and\n      mul\n      or\n      swap1\n      sstore\n      pop\n      0xe0\n      dup3\n      add\n      mload\n      dup2\n      0x07\n      add\n      swap1\n      dup2\n      tag_165\n      swap2\n      swap1\n      tag_156\n      jump\t// in\n    tag_165:\n      pop\n      0x0100\n      dup3\n      add\n      mload\n      dup2\n      0x08\n      add\n      swap1\n      dup2\n      tag_166\n      swap2\n      swap1\n      tag_156\n      jump\t// in\n    tag_166:\n      pop\n      0x0120\n      dup3\n      add\n      mload\n      dup2\n      0x09\n      add\n      sstore\n      pop\n      pop\n        /* \"contracts/Petisi.sol\":1957:1969  proposalList */\n      0x06\n        /* \"contracts/Petisi.sol\":1975:1984  proposals */\n      0x04\n        /* \"contracts/Petisi.sol\":1975:2001  proposals[counterProposal] */\n      0x00\n        /* \"contracts/Petisi.sol\":1985:2000  counterProposal */\n      sload(0x02)\n        /* \"contracts/Petisi.sol\":1975:2001  proposals[counterProposal] */\n      dup2\n      mstore\n      0x20\n      add\n      swap1\n      dup2\n      mstore\n      0x20\n      add\n      0x00\n      keccak256\n        /* \"contracts/Petisi.sol\":1957:2002  proposalList.push(proposals[counterProposal]) */\n      swap1\n      dup1\n      0x01\n      dup2\n      sload\n      add\n      dup1\n      dup3\n      sstore\n      dup1\n      swap2\n      pop\n      pop\n      0x01\n      swap1\n      sub\n      swap1\n      0x00\n      mstore\n      keccak256(0x00, 0x20)\n      swap1\n      0x0a\n      mul\n      add\n      0x00\n      swap1\n      swap2\n      swap1\n      swap2\n      swap1\n      swap2\n      pop\n      0x00\n      dup3\n      add\n      sload\n      dup2\n      0x00\n      add\n      sstore\n      0x01\n      dup3\n      add\n      dup2\n      0x01\n      add\n      swap1\n      dup2\n      tag_168\n      swap2\n      swap1\n      tag_169\n      jump\t// in\n    tag_168:\n      pop\n      0x02\n      dup3\n      add\n      dup2\n      0x02\n      add\n      swap1\n      dup2\n      tag_170\n      swap2\n      swap1\n      tag_169\n      jump\t// in\n    tag_170:\n      pop\n      0x03\n      dup3\n      add\n      sload\n      dup2\n      0x03\n      add\n      sstore\n      0x04\n      dup3\n      add\n      dup2\n      0x04\n      add\n      swap1\n      dup2\n      tag_171\n      swap2\n      swap1\n      tag_169\n      jump\t// in\n    tag_171:\n      pop\n      0x05\n      dup3\n      add\n      sload\n      dup2\n      0x05\n      add\n      sstore\n      0x06\n      dup3\n      add\n      0x00\n      swap1\n      sload\n      swap1\n      0x0100\n      exp\n      swap1\n      div\n      0xffffffffffffffffffffffffffffffffffffffff\n      and\n      dup2\n      0x06\n      add\n      exp(0x0100, 0x00)\n      dup2\n      sload\n      dup2\n      0xffffffffffffffffffffffffffffffffffffffff\n      mul\n      not\n      and\n      swap1\n      dup4\n      0xffffffffffffffffffffffffffffffffffffffff\n      and\n      mul\n      or\n      swap1\n      sstore\n      pop\n      0x07\n      dup3\n      add\n      dup2\n      0x07\n      add\n      swap1\n      dup2\n      tag_172\n      swap2\n      swap1\n      tag_169\n      jump\t// in\n    tag_172:\n      pop\n      0x08\n      dup3\n      add\n      dup2\n      0x08\n      add\n      swap1\n      dup2\n      tag_173\n      swap2\n      swap1\n      tag_169\n      jump\t// in\n    tag_173:\n      pop\n      0x09\n      dup3\n      add\n      sload\n      dup2\n      0x09\n      add\n      sstore\n      pop\n      pop\n        /* \"contracts/Petisi.sol\":2017:2106  proposalCreated(counterProposal, _title, _description, 0, _imgUrl, _deadline, msg.sender) */\n      0x1961f6452621f42ceb4621cac123d1a782ecd2620c2d8c755fbf8f7c849b24a4\n        /* \"contracts/Petisi.sol\":2033:2048  counterProposal */\n      sload(0x02)\n        /* \"contracts/Petisi.sol\":2050:2056  _title */\n      dup10\n        /* \"contracts/Petisi.sol\":2058:2070  _description */\n      dup10\n        /* \"contracts/Petisi.sol\":2072:2073  0 */\n      0x00\n        /* \"contracts/Petisi.sol\":2075:2082  _imgUrl */\n      dup11\n        /* \"contracts/Petisi.sol\":2084:2093  _deadline */\n      dup11\n        /* \"contracts/Petisi.sol\":2095:2105  msg.sender */\n      caller\n        /* \"contracts/Petisi.sol\":2017:2106  proposalCreated(counterProposal, _title, _description, 0, _imgUrl, _deadline, msg.sender) */\n      mload(0x40)\n      tag_174\n      swap8\n      swap7\n      swap6\n      swap5\n      swap4\n      swap3\n      swap2\n      swap1\n      tag_175\n      jump\t// in\n    tag_174:\n      mload(0x40)\n      dup1\n      swap2\n      sub\n      swap1\n      log1\n        /* \"contracts/Petisi.sol\":2116:2131  counterProposal */\n      0x02\n      0x00\n        /* \"contracts/Petisi.sol\":2116:2133  counterProposal++ */\n      dup2\n      sload\n      dup1\n      swap3\n      swap2\n      swap1\n      tag_176\n      swap1\n      tag_177\n      jump\t// in\n    tag_176:\n      swap2\n      swap1\n      pop\n      sstore\n      pop\n        /* \"contracts/Petisi.sol\":1522:2140  {... */\n      pop\n      pop\n      pop\n        /* \"contracts/Petisi.sol\":1084:1257  {... */\n      pop\n        /* \"contracts/Petisi.sol\":1385:2140  function createProposal(string memory _title, string memory _description, string memory _imgUrl, uint256 _deadline) onlyRegisterd public {... */\n      pop\n      pop\n      pop\n      pop\n      jump\t// out\n        /* \"@openzeppelin/contracts/access/Ownable.sol\":2293:2394  function renounceOwnership() public virtual onlyOwner {... */\n    tag_41:\n        /* \"@openzeppelin/contracts/access/Ownable.sol\":1531:1544  _checkOwner() */\n      tag_179\n        /* \"@openzeppelin/contracts/access/Ownable.sol\":1531:1542  _checkOwner */\n      tag_180\n        /* \"@openzeppelin/contracts/access/Ownable.sol\":1531:1544  _checkOwner() */\n      jump\t// in\n    tag_179:\n        /* \"@openzeppelin/contracts/access/Ownable.sol\":2357:2387  _transferOwnership(address(0)) */\n      tag_182\n        /* \"@openzeppelin/contracts/access/Ownable.sol\":2384:2385  0 */\n      0x00\n        /* \"@openzeppelin/contracts/access/Ownable.sol\":2357:2375  _transferOwnership */\n      tag_183\n        /* \"@openzeppelin/contracts/access/Ownable.sol\":2357:2387  _transferOwnership(address(0)) */\n      jump\t// in\n    tag_182:\n        /* \"@openzeppelin/contracts/access/Ownable.sol\":2293:2394  function renounceOwnership() public virtual onlyOwner {... */\n      jump\t// out\n        /* \"@openzeppelin/contracts/access/Ownable.sol\":1638:1723  function owner() public view virtual returns (address) {... */\n    tag_43:\n        /* \"@openzeppelin/contracts/access/Ownable.sol\":1684:1691  address */\n      0x00\n        /* \"@openzeppelin/contracts/access/Ownable.sol\":1710:1716  _owner */\n      dup1\n      0x00\n      swap1\n      sload\n      swap1\n      0x0100\n      exp\n      swap1\n      div\n      0xffffffffffffffffffffffffffffffffffffffff\n      and\n        /* \"@openzeppelin/contracts/access/Ownable.sol\":1703:1716  return _owner */\n      swap1\n      pop\n        /* \"@openzeppelin/contracts/access/Ownable.sol\":1638:1723  function owner() public view virtual returns (address) {... */\n      swap1\n      jump\t// out\n        /* \"contracts/Petisi.sol\":858:907  mapping (address => Proposal[]) public myProposal */\n    tag_49:\n      mstore(0x20, 0x03)\n      dup2\n      0x00\n      mstore\n      keccak256(0x00, 0x40)\n      dup2\n      dup2\n      sload\n      dup2\n      lt\n      tag_185\n      jumpi\n      0x00\n      dup1\n      revert\n    tag_185:\n      swap1\n      0x00\n      mstore\n      keccak256(0x00, 0x20)\n      swap1\n      0x0a\n      mul\n      add\n      0x00\n      swap2\n      pop\n      swap2\n      pop\n      pop\n      dup1\n      0x00\n      add\n      sload\n      swap1\n      dup1\n      0x01\n      add\n      dup1\n      sload\n      tag_187\n      swap1\n      tag_84\n      jump\t// in\n    tag_187:\n      dup1\n      0x1f\n      add\n      0x20\n      dup1\n      swap2\n      div\n      mul\n      0x20\n      add\n      mload(0x40)\n      swap1\n      dup2\n      add\n      0x40\n      mstore\n      dup1\n      swap3\n      swap2\n      swap1\n      dup2\n      dup2\n      mstore\n      0x20\n      add\n      dup3\n      dup1\n      sload\n      tag_188\n      swap1\n      tag_84\n      jump\t// in\n    tag_188:\n      dup1\n      iszero\n      tag_189\n      jumpi\n      dup1\n      0x1f\n      lt\n      tag_190\n      jumpi\n      0x0100\n      dup1\n      dup4\n      sload\n      div\n      mul\n      dup4\n      mstore\n      swap2\n      0x20\n      add\n      swap2\n      jump(tag_189)\n    tag_190:\n      dup3\n      add\n      swap2\n      swap1\n      0x00\n      mstore\n      keccak256(0x00, 0x20)\n      swap1\n    tag_191:\n      dup2\n      sload\n      dup2\n      mstore\n      swap1\n      0x01\n      add\n      swap1\n      0x20\n      add\n      dup1\n      dup4\n      gt\n      tag_191\n      jumpi\n      dup3\n      swap1\n      sub\n      0x1f\n      and\n      dup3\n      add\n      swap2\n    tag_189:\n      pop\n      pop\n      pop\n      pop\n      pop\n      swap1\n      dup1\n      0x02\n      add\n      dup1\n      sload\n      tag_192\n      swap1\n      tag_84\n      jump\t// in\n    tag_192:\n      dup1\n      0x1f\n      add\n      0x20\n      dup1\n      swap2\n      div\n      mul\n      0x20\n      add\n      mload(0x40)\n      swap1\n      dup2\n      add\n      0x40\n      mstore\n      dup1\n      swap3\n      swap2\n      swap1\n      dup2\n      dup2\n      mstore\n      0x20\n      add\n      dup3\n      dup1\n      sload\n      tag_193\n      swap1\n      tag_84\n      jump\t// in\n    tag_193:\n      dup1\n      iszero\n      tag_194\n      jumpi\n      dup1\n      0x1f\n      lt\n      tag_195\n      jumpi\n      0x0100\n      dup1\n      dup4\n      sload\n      div\n      mul\n      dup4\n      mstore\n      swap2\n      0x20\n      add\n      swap2\n      jump(tag_194)\n    tag_195:\n      dup3\n      add\n      swap2\n      swap1\n      0x00\n      mstore\n      keccak256(0x00, 0x20)\n      swap1\n    tag_196:\n      dup2\n      sload\n      dup2\n      mstore\n      swap1\n      0x01\n      add\n      swap1\n      0x20\n      add\n      dup1\n      dup4\n      gt\n      tag_196\n      jumpi\n      dup3\n      swap1\n      sub\n      0x1f\n      and\n      dup3\n      add\n      swap2\n    tag_194:\n      pop\n      pop\n      pop\n      pop\n      pop\n      swap1\n      dup1\n      0x03\n      add\n      sload\n      swap1\n      dup1\n      0x04\n      add\n      dup1\n      sload\n      tag_197\n      swap1\n      tag_84\n      jump\t// in\n    tag_197:\n      dup1\n      0x1f\n      add\n      0x20\n      dup1\n      swap2\n      div\n      mul\n      0x20\n      add\n      mload(0x40)\n      swap1\n      dup2\n      add\n      0x40\n      mstore\n      dup1\n      swap3\n      swap2\n      swap1\n      dup2\n      dup2\n      mstore\n      0x20\n      add\n      dup3\n      dup1\n      sload\n      tag_198\n      swap1\n      tag_84\n      jump\t// in\n    tag_198:\n      dup1\n      iszero\n      tag_199\n      jumpi\n      dup1\n      0x1f\n      lt\n      tag_200\n      jumpi\n      0x0100\n      dup1\n      dup4\n      sload\n      div\n      mul\n      dup4\n      mstore\n      swap2\n      0x20\n      add\n      swap2\n      jump(tag_199)\n    tag_200:\n      dup3\n      add\n      swap2\n      swap1\n      0x00\n      mstore\n      keccak256(0x00, 0x20)\n      swap1\n    tag_201:\n      dup2\n      sload\n      dup2\n      mstore\n      swap1\n      0x01\n      add\n      swap1\n      0x20\n      add\n      dup1\n      dup4\n      gt\n      tag_201\n      jumpi\n      dup3\n      swap1\n      sub\n      0x1f\n      and\n      dup3\n      add\n      swap2\n    tag_199:\n      pop\n      pop\n      pop\n      pop\n      pop\n      swap1\n      dup1\n      0x05\n      add\n      sload\n      swap1\n      dup1\n      0x06\n      add\n      0x00\n      swap1\n      sload\n      swap1\n      0x0100\n      exp\n      swap1\n      div\n      0xffffffffffffffffffffffffffffffffffffffff\n      and\n      swap1\n      dup1\n      0x07\n      add\n      dup1\n      sload\n      tag_202\n      swap1\n      tag_84\n      jump\t// in\n    tag_202:\n      dup1\n      0x1f\n      add\n      0x20\n      dup1\n      swap2\n      div\n      mul\n      0x20\n      add\n      mload(0x40)\n      swap1\n      dup2\n      add\n      0x40\n      mstore\n      dup1\n      swap3\n      swap2\n      swap1\n      dup2\n      dup2\n      mstore\n      0x20\n      add\n      dup3\n      dup1\n      sload\n      tag_203\n      swap1\n      tag_84\n      jump\t// in\n    tag_203:\n      dup1\n      iszero\n      tag_204\n      jumpi\n      dup1\n      0x1f\n      lt\n      tag_205\n      jumpi\n      0x0100\n      dup1\n      dup4\n      sload\n      div\n      mul\n      dup4\n      mstore\n      swap2\n      0x20\n      add\n      swap2\n      jump(tag_204)\n    tag_205:\n      dup3\n      add\n      swap2\n      swap1\n      0x00\n      mstore\n      keccak256(0x00, 0x20)\n      swap1\n    tag_206:\n      dup2\n      sload\n      dup2\n      mstore\n      swap1\n      0x01\n      add\n      swap1\n      0x20\n      add\n      dup1\n      dup4\n      gt\n      tag_206\n      jumpi\n      dup3\n      swap1\n      sub\n      0x1f\n      and\n      dup3\n      add\n      swap2\n    tag_204:\n      pop\n      pop\n      pop\n      pop\n      pop\n      swap1\n      dup1\n      0x08\n      add\n      dup1\n      sload\n      tag_207\n      swap1\n      tag_84\n      jump\t// in\n    tag_207:\n      dup1\n      0x1f\n      add\n      0x20\n      dup1\n      swap2\n      div\n      mul\n      0x20\n      add\n      mload(0x40)\n      swap1\n      dup2\n      add\n      0x40\n      mstore\n      dup1\n      swap3\n      swap2\n      swap1\n      dup2\n      dup2\n      mstore\n      0x20\n      add\n      dup3\n      dup1\n      sload\n      tag_208\n      swap1\n      tag_84\n      jump\t// in\n    tag_208:\n      dup1\n      iszero\n      tag_209\n      jumpi\n      dup1\n      0x1f\n      lt\n      tag_210\n      jumpi\n      0x0100\n      dup1\n      dup4\n      sload\n      div\n      mul\n      dup4\n      mstore\n      swap2\n      0x20\n      add\n      swap2\n      jump(tag_209)\n    tag_210:\n      dup3\n      add\n      swap2\n      swap1\n      0x00\n      mstore\n      keccak256(0x00, 0x20)\n      swap1\n    tag_211:\n      dup2\n      sload\n      dup2\n      mstore\n      swap1\n      0x01\n      add\n      swap1\n      0x20\n      add\n      dup1\n      dup4\n      gt\n      tag_211\n      jumpi\n      dup3\n      swap1\n      sub\n      0x1f\n      and\n      dup3\n      add\n      swap2\n    tag_209:\n      pop\n      pop\n      pop\n      pop\n      pop\n      swap1\n      dup1\n      0x09\n      add\n      sload\n      swap1\n      pop\n      dup11\n      jump\t// out\n        /* \"contracts/Petisi.sol\":1023:1053  Proposal[] public proposalList */\n    tag_53:\n      0x06\n      dup2\n      dup2\n      sload\n      dup2\n      lt\n      tag_212\n      jumpi\n      0x00\n      dup1\n      revert\n    tag_212:\n      swap1\n      0x00\n      mstore\n      keccak256(0x00, 0x20)\n      swap1\n      0x0a\n      mul\n      add\n      0x00\n      swap2\n      pop\n      swap1\n      pop\n      dup1\n      0x00\n      add\n      sload\n      swap1\n      dup1\n      0x01\n      add\n      dup1\n      sload\n      tag_214\n      swap1\n      tag_84\n      jump\t// in\n    tag_214:\n      dup1\n      0x1f\n      add\n      0x20\n      dup1\n      swap2\n      div\n      mul\n      0x20\n      add\n      mload(0x40)\n      swap1\n      dup2\n      add\n      0x40\n      mstore\n      dup1\n      swap3\n      swap2\n      swap1\n      dup2\n      dup2\n      mstore\n      0x20\n      add\n      dup3\n      dup1\n      sload\n      tag_215\n      swap1\n      tag_84\n      jump\t// in\n    tag_215:\n      dup1\n      iszero\n      tag_216\n      jumpi\n      dup1\n      0x1f\n      lt\n      tag_217\n      jumpi\n      0x0100\n      dup1\n      dup4\n      sload\n      div\n      mul\n      dup4\n      mstore\n      swap2\n      0x20\n      add\n      swap2\n      jump(tag_216)\n    tag_217:\n      dup3\n      add\n      swap2\n      swap1\n      0x00\n      mstore\n      keccak256(0x00, 0x20)\n      swap1\n    tag_218:\n      dup2\n      sload\n      dup2\n      mstore\n      swap1\n      0x01\n      add\n      swap1\n      0x20\n      add\n      dup1\n      dup4\n      gt\n      tag_218\n      jumpi\n      dup3\n      swap1\n      sub\n      0x1f\n      and\n      dup3\n      add\n      swap2\n    tag_216:\n      pop\n      pop\n      pop\n      pop\n      pop\n      swap1\n      dup1\n      0x02\n      add\n      dup1\n      sload\n      tag_219\n      swap1\n      tag_84\n      jump\t// in\n    tag_219:\n      dup1\n      0x1f\n      add\n      0x20\n      dup1\n      swap2\n      div\n      mul\n      0x20\n      add\n      mload(0x40)\n      swap1\n      dup2\n      add\n      0x40\n      mstore\n      dup1\n      swap3\n      swap2\n      swap1\n      dup2\n      dup2\n      mstore\n      0x20\n      add\n      dup3\n      dup1\n      sload\n      tag_220\n      swap1\n      tag_84\n      jump\t// in\n    tag_220:\n      dup1\n      iszero\n      tag_221\n      jumpi\n      dup1\n      0x1f\n      lt\n      tag_222\n      jumpi\n      0x0100\n      dup1\n      dup4\n      sload\n      div\n      mul\n      dup4\n      mstore\n      swap2\n      0x20\n      add\n      swap2\n      jump(tag_221)\n    tag_222:\n      dup3\n      add\n      swap2\n      swap1\n      0x00\n      mstore\n      keccak256(0x00, 0x20)\n      swap1\n    tag_223:\n      dup2\n      sload\n      dup2\n      mstore\n      swap1\n      0x01\n      add\n      swap1\n      0x20\n      add\n      dup1\n      dup4\n      gt\n      tag_223\n      jumpi\n      dup3\n      swap1\n      sub\n      0x1f\n      and\n      dup3\n      add\n      swap2\n    tag_221:\n      pop\n      pop\n      pop\n      pop\n      pop\n      swap1\n      dup1\n      0x03\n      add\n      sload\n      swap1\n      dup1\n      0x04\n      add\n      dup1\n      sload\n      tag_224\n      swap1\n      tag_84\n      jump\t// in\n    tag_224:\n      dup1\n      0x1f\n      add\n      0x20\n      dup1\n      swap2\n      div\n      mul\n      0x20\n      add\n      mload(0x40)\n      swap1\n      dup2\n      add\n      0x40\n      mstore\n      dup1\n      swap3\n      swap2\n      swap1\n      dup2\n      dup2\n      mstore\n      0x20\n      add\n      dup3\n      dup1\n      sload\n      tag_225\n      swap1\n      tag_84\n      jump\t// in\n    tag_225:\n      dup1\n      iszero\n      tag_226\n      jumpi\n      dup1\n      0x1f\n      lt\n      tag_227\n      jumpi\n      0x0100\n      dup1\n      dup4\n      sload\n      div\n      mul\n      dup4\n      mstore\n      swap2\n      0x20\n      add\n      swap2\n      jump(tag_226)\n    tag_227:\n      dup3\n      add\n      swap2\n      swap1\n      0x00\n      mstore\n      keccak256(0x00, 0x20)\n      swap1\n    tag_228:\n      dup2\n      sload\n      dup2\n      mstore\n      swap1\n      0x01\n      add\n      swap1\n      0x20\n      add\n      dup1\n      dup4\n      gt\n      tag_228\n      jumpi\n      dup3\n      swap1\n      sub\n      0x1f\n      and\n      dup3\n      add\n      swap2\n    tag_226:\n      pop\n      pop\n      pop\n      pop\n      pop\n      swap1\n      dup1\n      0x05\n      add\n      sload\n      swap1\n      dup1\n      0x06\n      add\n      0x00\n      swap1\n      sload\n      swap1\n      0x0100\n      exp\n      swap1\n      div\n      0xffffffffffffffffffffffffffffffffffffffff\n      and\n      swap1\n      dup1\n      0x07\n      add\n      dup1\n      sload\n      tag_229\n      swap1\n      tag_84\n      jump\t// in\n    tag_229:\n      dup1\n      0x1f\n      add\n      0x20\n      dup1\n      swap2\n      div\n      mul\n      0x20\n      add\n      mload(0x40)\n      swap1\n      dup2\n      add\n      0x40\n      mstore\n      dup1\n      swap3\n      swap2\n      swap1\n      dup2\n      dup2\n      mstore\n      0x20\n      add\n      dup3\n      dup1\n      sload\n      tag_230\n      swap1\n      tag_84\n      jump\t// in\n    tag_230:\n      dup1\n      iszero\n      tag_231\n      jumpi\n      dup1\n      0x1f\n      lt\n      tag_232\n      jumpi\n      0x0100\n      dup1\n      dup4\n      sload\n      div\n      mul\n      dup4\n      mstore\n      swap2\n      0x20\n      add\n      swap2\n      jump(tag_231)\n    tag_232:\n      dup3\n      add\n      swap2\n      swap1\n      0x00\n      mstore\n      keccak256(0x00, 0x20)\n      swap1\n    tag_233:\n      dup2\n      sload\n      dup2\n      mstore\n      swap1\n      0x01\n      add\n      swap1\n      0x20\n      add\n      dup1\n      dup4\n      gt\n      tag_233\n      jumpi\n      dup3\n      swap1\n      sub\n      0x1f\n      and\n      dup3\n      add\n      swap2\n    tag_231:\n      pop\n      pop\n      pop\n      pop\n      pop\n      swap1\n      dup1\n      0x08\n      add\n      dup1\n      sload\n      tag_234\n      swap1\n      tag_84\n      jump\t// in\n    tag_234:\n      dup1\n      0x1f\n      add\n      0x20\n      dup1\n      swap2\n      div\n      mul\n      0x20\n      add\n      mload(0x40)\n      swap1\n      dup2\n      add\n      0x40\n      mstore\n      dup1\n      swap3\n      swap2\n      swap1\n      dup2\n      dup2\n      mstore\n      0x20\n      add\n      dup3\n      dup1\n      sload\n      tag_235\n      swap1\n      tag_84\n      jump\t// in\n    tag_235:\n      dup1\n      iszero\n      tag_236\n      jumpi\n      dup1\n      0x1f\n      lt\n      tag_237\n      jumpi\n      0x0100\n      dup1\n      dup4\n      sload\n      div\n      mul\n      dup4\n      mstore\n      swap2\n      0x20\n      add\n      swap2\n      jump(tag_236)\n    tag_237:\n      dup3\n      add\n      swap2\n      swap1\n      0x00\n      mstore\n      keccak256(0x00, 0x20)\n      swap1\n    tag_238:\n      dup2\n      sload\n      dup2\n      mstore\n      swap1\n      0x01\n      add\n      swap1\n      0x20\n      add\n      dup1\n      dup4\n      gt\n      tag_238\n      jumpi\n      dup3\n      swap1\n      sub\n      0x1f\n      and\n      dup3\n      add\n      swap2\n    tag_236:\n      pop\n      pop\n      pop\n      pop\n      pop\n      swap1\n      dup1\n      0x09\n      add\n      sload\n      swap1\n      pop\n      dup11\n      jump\t// out\n        /* \"contracts/Petisi.sol\":2377:2585  function getProposal(uint256 _id) public view returns(string memory, string memory){... */\n    tag_57:\n        /* \"contracts/Petisi.sol\":2431:2444  string memory */\n      0x60\n        /* \"contracts/Petisi.sol\":2446:2459  string memory */\n      dup1\n        /* \"contracts/Petisi.sol\":2470:2498  Proposal memory proposalTemp */\n      0x00\n        /* \"contracts/Petisi.sol\":2501:2510  proposals */\n      0x04\n        /* \"contracts/Petisi.sol\":2501:2515  proposals[_id] */\n      0x00\n        /* \"contracts/Petisi.sol\":2511:2514  _id */\n      dup6\n        /* \"contracts/Petisi.sol\":2501:2515  proposals[_id] */\n      dup2\n      mstore\n      0x20\n      add\n      swap1\n      dup2\n      mstore\n      0x20\n      add\n      0x00\n      keccak256\n        /* \"contracts/Petisi.sol\":2470:2515  Proposal memory proposalTemp = proposals[_id] */\n      mload(0x40)\n      dup1\n      0x0140\n      add\n      0x40\n      mstore\n      swap1\n      dup2\n      0x00\n      dup3\n      add\n      sload\n      dup2\n      mstore\n      0x20\n      add\n      0x01\n      dup3\n      add\n      dup1\n      sload\n      tag_240\n      swap1\n      tag_84\n      jump\t// in\n    tag_240:\n      dup1\n      0x1f\n      add\n      0x20\n      dup1\n      swap2\n      div\n      mul\n      0x20\n      add\n      mload(0x40)\n      swap1\n      dup2\n      add\n      0x40\n      mstore\n      dup1\n      swap3\n      swap2\n      swap1\n      dup2\n      dup2\n      mstore\n      0x20\n      add\n      dup3\n      dup1\n      sload\n      tag_241\n      swap1\n      tag_84\n      jump\t// in\n    tag_241:\n      dup1\n      iszero\n      tag_242\n      jumpi\n      dup1\n      0x1f\n      lt\n      tag_243\n      jumpi\n      0x0100\n      dup1\n      dup4\n      sload\n      div\n      mul\n      dup4\n      mstore\n      swap2\n      0x20\n      add\n      swap2\n      jump(tag_242)\n    tag_243:\n      dup3\n      add\n      swap2\n      swap1\n      0x00\n      mstore\n      keccak256(0x00, 0x20)\n      swap1\n    tag_244:\n      dup2\n      sload\n      dup2\n      mstore\n      swap1\n      0x01\n      add\n      swap1\n      0x20\n      add\n      dup1\n      dup4\n      gt\n      tag_244\n      jumpi\n      dup3\n      swap1\n      sub\n      0x1f\n      and\n      dup3\n      add\n      swap2\n    tag_242:\n      pop\n      pop\n      pop\n      pop\n      pop\n      dup2\n      mstore\n      0x20\n      add\n      0x02\n      dup3\n      add\n      dup1\n      sload\n      tag_245\n      swap1\n      tag_84\n      jump\t// in\n    tag_245:\n      dup1\n      0x1f\n      add\n      0x20\n      dup1\n      swap2\n      div\n      mul\n      0x20\n      add\n      mload(0x40)\n      swap1\n      dup2\n      add\n      0x40\n      mstore\n      dup1\n      swap3\n      swap2\n      swap1\n      dup2\n      dup2\n      mstore\n      0x20\n      add\n      dup3\n      dup1\n      sload\n      tag_246\n      swap1\n      tag_84\n      jump\t// in\n    tag_246:\n      dup1\n      iszero\n      tag_247\n      jumpi\n      dup1\n      0x1f\n      lt\n      tag_248\n      jumpi\n      0x0100\n      dup1\n      dup4\n      sload\n      div\n      mul\n      dup4\n      mstore\n      swap2\n      0x20\n      add\n      swap2\n      jump(tag_247)\n    tag_248:\n      dup3\n      add\n      swap2\n      swap1\n      0x00\n      mstore\n      keccak256(0x00, 0x20)\n      swap1\n    tag_249:\n      dup2\n      sload\n      dup2\n      mstore\n      swap1\n      0x01\n      add\n      swap1\n      0x20\n      add\n      dup1\n      dup4\n      gt\n      tag_249\n      jumpi\n      dup3\n      swap1\n      sub\n      0x1f\n      and\n      dup3\n      add\n      swap2\n    tag_247:\n      pop\n      pop\n      pop\n      pop\n      pop\n      dup2\n      mstore\n      0x20\n      add\n      0x03\n      dup3\n      add\n      sload\n      dup2\n      mstore\n      0x20\n      add\n      0x04\n      dup3\n      add\n      dup1\n      sload\n      tag_250\n      swap1\n      tag_84\n      jump\t// in\n    tag_250:\n      dup1\n      0x1f\n      add\n      0x20\n      dup1\n      swap2\n      div\n      mul\n      0x20\n      add\n      mload(0x40)\n      swap1\n      dup2\n      add\n      0x40\n      mstore\n      dup1\n      swap3\n      swap2\n      swap1\n      dup2\n      dup2\n      mstore\n      0x20\n      add\n      dup3\n      dup1\n      sload\n      tag_251\n      swap1\n      tag_84\n      jump\t// in\n    tag_251:\n      dup1\n      iszero\n      tag_252\n      jumpi\n      dup1\n      0x1f\n      lt\n      tag_253\n      jumpi\n      0x0100\n      dup1\n      dup4\n      sload\n      div\n      mul\n      dup4\n      mstore\n      swap2\n      0x20\n      add\n      swap2\n      jump(tag_252)\n    tag_253:\n      dup3\n      add\n      swap2\n      swap1\n      0x00\n      mstore\n      keccak256(0x00, 0x20)\n      swap1\n    tag_254:\n      dup2\n      sload\n      dup2\n      mstore\n      swap1\n      0x01\n      add\n      swap1\n      0x20\n      add\n      dup1\n      dup4\n      gt\n      tag_254\n      jumpi\n      dup3\n      swap1\n      sub\n      0x1f\n      and\n      dup3\n      add\n      swap2\n    tag_252:\n      pop\n      pop\n      pop\n      pop\n      pop\n      dup2\n      mstore\n      0x20\n      add\n      0x05\n      dup3\n      add\n      sload\n      dup2\n      mstore\n      0x20\n      add\n      0x06\n      dup3\n      add\n      0x00\n      swap1\n      sload\n      swap1\n      0x0100\n      exp\n      swap1\n      div\n      0xffffffffffffffffffffffffffffffffffffffff\n      and\n      0xffffffffffffffffffffffffffffffffffffffff\n      and\n      0xffffffffffffffffffffffffffffffffffffffff\n      and\n      dup2\n      mstore\n      0x20\n      add\n      0x07\n      dup3\n      add\n      dup1\n      sload\n      tag_255\n      swap1\n      tag_84\n      jump\t// in\n    tag_255:\n      dup1\n      0x1f\n      add\n      0x20\n      dup1\n      swap2\n      div\n      mul\n      0x20\n      add\n      mload(0x40)\n      swap1\n      dup2\n      add\n      0x40\n      mstore\n      dup1\n      swap3\n      swap2\n      swap1\n      dup2\n      dup2\n      mstore\n      0x20\n      add\n      dup3\n      dup1\n      sload\n      tag_256\n      swap1\n      tag_84\n      jump\t// in\n    tag_256:\n      dup1\n      iszero\n      tag_257\n      jumpi\n      dup1\n      0x1f\n      lt\n      tag_258\n      jumpi\n      0x0100\n      dup1\n      dup4\n      sload\n      div\n      mul\n      dup4\n      mstore\n      swap2\n      0x20\n      add\n      swap2\n      jump(tag_257)\n    tag_258:\n      dup3\n      add\n      swap2\n      swap1\n      0x00\n      mstore\n      keccak256(0x00, 0x20)\n      swap1\n    tag_259:\n      dup2\n      sload\n      dup2\n      mstore\n      swap1\n      0x01\n      add\n      swap1\n      0x20\n      add\n      dup1\n      dup4\n      gt\n      tag_259\n      jumpi\n      dup3\n      swap1\n      sub\n      0x1f\n      and\n      dup3\n      add\n      swap2\n    tag_257:\n      pop\n      pop\n      pop\n      pop\n      pop\n      dup2\n      mstore\n      0x20\n      add\n      0x08\n      dup3\n      add\n      dup1\n      sload\n      tag_260\n      swap1\n      tag_84\n      jump\t// in\n    tag_260:\n      dup1\n      0x1f\n      add\n      0x20\n      dup1\n      swap2\n      div\n      mul\n      0x20\n      add\n      mload(0x40)\n      swap1\n      dup2\n      add\n      0x40\n      mstore\n      dup1\n      swap3\n      swap2\n      swap1\n      dup2\n      dup2\n      mstore\n      0x20\n      add\n      dup3\n      dup1\n      sload\n      tag_261\n      swap1\n      tag_84\n      jump\t// in\n    tag_261:\n      dup1\n      iszero\n      tag_262\n      jumpi\n      dup1\n      0x1f\n      lt\n      tag_263\n      jumpi\n      0x0100\n      dup1\n      dup4\n      sload\n      div\n      mul\n      dup4\n      mstore\n      swap2\n      0x20\n      add\n      swap2\n      jump(tag_262)\n    tag_263:\n      dup3\n      add\n      swap2\n      swap1\n      0x00\n      mstore\n      keccak256(0x00, 0x20)\n      swap1\n    tag_264:\n      dup2\n      sload\n      dup2\n      mstore\n      swap1\n      0x01\n      add\n      swap1\n      0x20\n      add\n      dup1\n      dup4\n      gt\n      tag_264\n      jumpi\n      dup3\n      swap1\n      sub\n      0x1f\n      and\n      dup3\n      add\n      swap2\n    tag_262:\n      pop\n      pop\n      pop\n      pop\n      pop\n      dup2\n      mstore\n      0x20\n      add\n      0x09\n      dup3\n      add\n      sload\n      dup2\n      mstore\n      pop\n      pop\n      swap1\n      pop\n        /* \"contracts/Petisi.sol\":2533:2545  proposalTemp */\n      dup1\n        /* \"contracts/Petisi.sol\":2533:2551  proposalTemp.title */\n      0x20\n      add\n      mload\n        /* \"contracts/Petisi.sol\":2553:2565  proposalTemp */\n      dup2\n        /* \"contracts/Petisi.sol\":2553:2577  proposalTemp.description */\n      0x40\n      add\n      mload\n        /* \"contracts/Petisi.sol\":2525:2578  return (proposalTemp.title, proposalTemp.description) */\n      swap3\n      pop\n      swap3\n      pop\n      pop\n        /* \"contracts/Petisi.sol\":2377:2585  function getProposal(uint256 _id) public view returns(string memory, string memory){... */\n      swap2\n      pop\n      swap2\n      jump\t// out\n        /* \"@openzeppelin/contracts/access/Ownable.sol\":2543:2758  function transferOwnership(address newOwner) public virtual onlyOwner {... */\n    tag_62:\n        /* \"@openzeppelin/contracts/access/Ownable.sol\":1531:1544  _checkOwner() */\n      tag_266\n        /* \"@openzeppelin/contracts/access/Ownable.sol\":1531:1542  _checkOwner */\n      tag_180\n        /* \"@openzeppelin/contracts/access/Ownable.sol\":1531:1544  _checkOwner() */\n      jump\t// in\n    tag_266:\n        /* \"@openzeppelin/contracts/access/Ownable.sol\":2647:2648  0 */\n      0x00\n        /* \"@openzeppelin/contracts/access/Ownable.sol\":2627:2649  newOwner == address(0) */\n      0xffffffffffffffffffffffffffffffffffffffff\n      and\n        /* \"@openzeppelin/contracts/access/Ownable.sol\":2627:2635  newOwner */\n      dup2\n        /* \"@openzeppelin/contracts/access/Ownable.sol\":2627:2649  newOwner == address(0) */\n      0xffffffffffffffffffffffffffffffffffffffff\n      and\n      sub\n        /* \"@openzeppelin/contracts/access/Ownable.sol\":2623:2714  if (newOwner == address(0)) {... */\n      tag_268\n      jumpi\n        /* \"@openzeppelin/contracts/access/Ownable.sol\":2700:2701  0 */\n      0x00\n        /* \"@openzeppelin/contracts/access/Ownable.sol\":2672:2703  OwnableInvalidOwner(address(0)) */\n      mload(0x40)\n      0x1e4fbdf700000000000000000000000000000000000000000000000000000000\n      dup2\n      mstore\n      0x04\n      add\n      tag_269\n      swap2\n      swap1\n      tag_45\n      jump\t// in\n    tag_269:\n      mload(0x40)\n      dup1\n      swap2\n      sub\n      swap1\n      revert\n        /* \"@openzeppelin/contracts/access/Ownable.sol\":2623:2714  if (newOwner == address(0)) {... */\n    tag_268:\n        /* \"@openzeppelin/contracts/access/Ownable.sol\":2723:2751  _transferOwnership(newOwner) */\n      tag_270\n        /* \"@openzeppelin/contracts/access/Ownable.sol\":2742:2750  newOwner */\n      dup2\n        /* \"@openzeppelin/contracts/access/Ownable.sol\":2723:2741  _transferOwnership */\n      tag_183\n        /* \"@openzeppelin/contracts/access/Ownable.sol\":2723:2751  _transferOwnership(newOwner) */\n      jump\t// in\n    tag_270:\n        /* \"@openzeppelin/contracts/access/Ownable.sol\":2543:2758  function transferOwnership(address newOwner) public virtual onlyOwner {... */\n      pop\n      jump\t// out\n        /* \"contracts/Petisi.sol\":2146:2247  function gerAllProposal() public view returns (Proposal[] memory){... */\n    tag_64:\n        /* \"contracts/Petisi.sol\":2193:2210  Proposal[] memory */\n      0x60\n        /* \"contracts/Petisi.sol\":2228:2240  proposalList */\n      0x06\n        /* \"contracts/Petisi.sol\":2221:2240  return proposalList */\n      dup1\n      sload\n      dup1\n      0x20\n      mul\n      0x20\n      add\n      mload(0x40)\n      swap1\n      dup2\n      add\n      0x40\n      mstore\n      dup1\n      swap3\n      swap2\n      swap1\n      dup2\n      dup2\n      mstore\n      0x20\n      add\n      0x00\n      swap1\n    tag_272:\n      dup3\n      dup3\n      lt\n      iszero\n      tag_273\n      jumpi\n      dup4\n      dup3\n      swap1\n      0x00\n      mstore\n      keccak256(0x00, 0x20)\n      swap1\n      0x0a\n      mul\n      add\n      mload(0x40)\n      dup1\n      0x0140\n      add\n      0x40\n      mstore\n      swap1\n      dup2\n      0x00\n      dup3\n      add\n      sload\n      dup2\n      mstore\n      0x20\n      add\n      0x01\n      dup3\n      add\n      dup1\n      sload\n      tag_275\n      swap1\n      tag_84\n      jump\t// in\n    tag_275:\n      dup1\n      0x1f\n      add\n      0x20\n      dup1\n      swap2\n      div\n      mul\n      0x20\n      add\n      mload(0x40)\n      swap1\n      dup2\n      add\n      0x40\n      mstore\n      dup1\n      swap3\n      swap2\n      swap1\n      dup2\n      dup2\n      mstore\n      0x20\n      add\n      dup3\n      dup1\n      sload\n      tag_276\n      swap1\n      tag_84\n      jump\t// in\n    tag_276:\n      dup1\n      iszero\n      tag_277\n      jumpi\n      dup1\n      0x1f\n      lt\n      tag_278\n      jumpi\n      0x0100\n      dup1\n      dup4\n      sload\n      div\n      mul\n      dup4\n      mstore\n      swap2\n      0x20\n      add\n      swap2\n      jump(tag_277)\n    tag_278:\n      dup3\n      add\n      swap2\n      swap1\n      0x00\n      mstore\n      keccak256(0x00, 0x20)\n      swap1\n    tag_279:\n      dup2\n      sload\n      dup2\n      mstore\n      swap1\n      0x01\n      add\n      swap1\n      0x20\n      add\n      dup1\n      dup4\n      gt\n      tag_279\n      jumpi\n      dup3\n      swap1\n      sub\n      0x1f\n      and\n      dup3\n      add\n      swap2\n    tag_277:\n      pop\n      pop\n      pop\n      pop\n      pop\n      dup2\n      mstore\n      0x20\n      add\n      0x02\n      dup3\n      add\n      dup1\n      sload\n      tag_280\n      swap1\n      tag_84\n      jump\t// in\n    tag_280:\n      dup1\n      0x1f\n      add\n      0x20\n      dup1\n      swap2\n      div\n      mul\n      0x20\n      add\n      mload(0x40)\n      swap1\n      dup2\n      add\n      0x40\n      mstore\n      dup1\n      swap3\n      swap2\n      swap1\n      dup2\n      dup2\n      mstore\n      0x20\n      add\n      dup3\n      dup1\n      sload\n      tag_281\n      swap1\n      tag_84\n      jump\t// in\n    tag_281:\n      dup1\n      iszero\n      tag_282\n      jumpi\n      dup1\n      0x1f\n      lt\n      tag_283\n      jumpi\n      0x0100\n      dup1\n      dup4\n      sload\n      div\n      mul\n      dup4\n      mstore\n      swap2\n      0x20\n      add\n      swap2\n      jump(tag_282)\n    tag_283:\n      dup3\n      add\n      swap2\n      swap1\n      0x00\n      mstore\n      keccak256(0x00, 0x20)\n      swap1\n    tag_284:\n      dup2\n      sload\n      dup2\n      mstore\n      swap1\n      0x01\n      add\n      swap1\n      0x20\n      add\n      dup1\n      dup4\n      gt\n      tag_284\n      jumpi\n      dup3\n      swap1\n      sub\n      0x1f\n      and\n      dup3\n      add\n      swap2\n    tag_282:\n      pop\n      pop\n      pop\n      pop\n      pop\n      dup2\n      mstore\n      0x20\n      add\n      0x03\n      dup3\n      add\n      sload\n      dup2\n      mstore\n      0x20\n      add\n      0x04\n      dup3\n      add\n      dup1\n      sload\n      tag_285\n      swap1\n      tag_84\n      jump\t// in\n    tag_285:\n      dup1\n      0x1f\n      add\n      0x20\n      dup1\n      swap2\n      div\n      mul\n      0x20\n      add\n      mload(0x40)\n      swap1\n      dup2\n      add\n      0x40\n      mstore\n      dup1\n      swap3\n      swap2\n      swap1\n      dup2\n      dup2\n      mstore\n      0x20\n      add\n      dup3\n      dup1\n      sload\n      tag_286\n      swap1\n      tag_84\n      jump\t// in\n    tag_286:\n      dup1\n      iszero\n      tag_287\n      jumpi\n      dup1\n      0x1f\n      lt\n      tag_288\n      jumpi\n      0x0100\n      dup1\n      dup4\n      sload\n      div\n      mul\n      dup4\n      mstore\n      swap2\n      0x20\n      add\n      swap2\n      jump(tag_287)\n    tag_288:\n      dup3\n      add\n      swap2\n      swap1\n      0x00\n      mstore\n      keccak256(0x00, 0x20)\n      swap1\n    tag_289:\n      dup2\n      sload\n      dup2\n      mstore\n      swap1\n      0x01\n      add\n      swap1\n      0x20\n      add\n      dup1\n      dup4\n      gt\n      tag_289\n      jumpi\n      dup3\n      swap1\n      sub\n      0x1f\n      and\n      dup3\n      add\n      swap2\n    tag_287:\n      pop\n      pop\n      pop\n      pop\n      pop\n      dup2\n      mstore\n      0x20\n      add\n      0x05\n      dup3\n      add\n      sload\n      dup2\n      mstore\n      0x20\n      add\n      0x06\n      dup3\n      add\n      0x00\n      swap1\n      sload\n      swap1\n      0x0100\n      exp\n      swap1\n      div\n      0xffffffffffffffffffffffffffffffffffffffff\n      and\n      0xffffffffffffffffffffffffffffffffffffffff\n      and\n      0xffffffffffffffffffffffffffffffffffffffff\n      and\n      dup2\n      mstore\n      0x20\n      add\n      0x07\n      dup3\n      add\n      dup1\n      sload\n      tag_290\n      swap1\n      tag_84\n      jump\t// in\n    tag_290:\n      dup1\n      0x1f\n      add\n      0x20\n      dup1\n      swap2\n      div\n      mul\n      0x20\n      add\n      mload(0x40)\n      swap1\n      dup2\n      add\n      0x40\n      mstore\n      dup1\n      swap3\n      swap2\n      swap1\n      dup2\n      dup2\n      mstore\n      0x20\n      add\n      dup3\n      dup1\n      sload\n      tag_291\n      swap1\n      tag_84\n      jump\t// in\n    tag_291:\n      dup1\n      iszero\n      tag_292\n      jumpi\n      dup1\n      0x1f\n      lt\n      tag_293\n      jumpi\n      0x0100\n      dup1\n      dup4\n      sload\n      div\n      mul\n      dup4\n      mstore\n      swap2\n      0x20\n      add\n      swap2\n      jump(tag_292)\n    tag_293:\n      dup3\n      add\n      swap2\n      swap1\n      0x00\n      mstore\n      keccak256(0x00, 0x20)\n      swap1\n    tag_294:\n      dup2\n      sload\n      dup2\n      mstore\n      swap1\n      0x01\n      add\n      swap1\n      0x20\n      add\n      dup1\n      dup4\n      gt\n      tag_294\n      jumpi\n      dup3\n      swap1\n      sub\n      0x1f\n      and\n      dup3\n      add\n      swap2\n    tag_292:\n      pop\n      pop\n      pop\n      pop\n      pop\n      dup2\n      mstore\n      0x20\n      add\n      0x08\n      dup3\n      add\n      dup1\n      sload\n      tag_295\n      swap1\n      tag_84\n      jump\t// in\n    tag_295:\n      dup1\n      0x1f\n      add\n      0x20\n      dup1\n      swap2\n      div\n      mul\n      0x20\n      add\n      mload(0x40)\n      swap1\n      dup2\n      add\n      0x40\n      mstore\n      dup1\n      swap3\n      swap2\n      swap1\n      dup2\n      dup2\n      mstore\n      0x20\n      add\n      dup3\n      dup1\n      sload\n      tag_296\n      swap1\n      tag_84\n      jump\t// in\n    tag_296:\n      dup1\n      iszero\n      tag_297\n      jumpi\n      dup1\n      0x1f\n      lt\n      tag_298\n      jumpi\n      0x0100\n      dup1\n      dup4\n      sload\n      div\n      mul\n      dup4\n      mstore\n      swap2\n      0x20\n      add\n      swap2\n      jump(tag_297)\n    tag_298:\n      dup3\n      add\n      swap2\n      swap1\n      0x00\n      mstore\n      keccak256(0x00, 0x20)\n      swap1\n    tag_299:\n      dup2\n      sload\n      dup2\n      mstore\n      swap1\n      0x01\n      add\n      swap1\n      0x20\n      add\n      dup1\n      dup4\n      gt\n      tag_299\n      jumpi\n      dup3\n      swap1\n      sub\n      0x1f\n      and\n      dup3\n      add\n      swap2\n    tag_297:\n      pop\n      pop\n      pop\n      pop\n      pop\n      dup2\n      mstore\n      0x20\n      add\n      0x09\n      dup3\n      add\n      sload\n      dup2\n      mstore\n      pop\n      pop\n      dup2\n      mstore\n      0x20\n      add\n      swap1\n      0x01\n      add\n      swap1\n      jump(tag_272)\n    tag_273:\n      pop\n      pop\n      pop\n      pop\n      swap1\n      pop\n        /* \"contracts/Petisi.sol\":2146:2247  function gerAllProposal() public view returns (Proposal[] memory){... */\n      swap1\n      jump\t// out\n        /* \"@openzeppelin/contracts/access/Ownable.sol\":1796:1958  function _checkOwner() internal view virtual {... */\n    tag_180:\n        /* \"@openzeppelin/contracts/access/Ownable.sol\":1866:1878  _msgSender() */\n      tag_301\n        /* \"@openzeppelin/contracts/access/Ownable.sol\":1866:1876  _msgSender */\n      tag_302\n        /* \"@openzeppelin/contracts/access/Ownable.sol\":1866:1878  _msgSender() */\n      jump\t// in\n    tag_301:\n        /* \"@openzeppelin/contracts/access/Ownable.sol\":1855:1878  owner() != _msgSender() */\n      0xffffffffffffffffffffffffffffffffffffffff\n      and\n        /* \"@openzeppelin/contracts/access/Ownable.sol\":1855:1862  owner() */\n      tag_303\n        /* \"@openzeppelin/contracts/access/Ownable.sol\":1855:1860  owner */\n      tag_43\n        /* \"@openzeppelin/contracts/access/Ownable.sol\":1855:1862  owner() */\n      jump\t// in\n    tag_303:\n        /* \"@openzeppelin/contracts/access/Ownable.sol\":1855:1878  owner() != _msgSender() */\n      0xffffffffffffffffffffffffffffffffffffffff\n      and\n      eq\n        /* \"@openzeppelin/contracts/access/Ownable.sol\":1851:1952  if (owner() != _msgSender()) {... */\n      tag_304\n      jumpi\n        /* \"@openzeppelin/contracts/access/Ownable.sol\":1928:1940  _msgSender() */\n      tag_305\n        /* \"@openzeppelin/contracts/access/Ownable.sol\":1928:1938  _msgSender */\n      tag_302\n        /* \"@openzeppelin/contracts/access/Ownable.sol\":1928:1940  _msgSender() */\n      jump\t// in\n    tag_305:\n        /* \"@openzeppelin/contracts/access/Ownable.sol\":1901:1941  OwnableUnauthorizedAccount(_msgSender()) */\n      mload(0x40)\n      0x118cdaa700000000000000000000000000000000000000000000000000000000\n      dup2\n      mstore\n      0x04\n      add\n      tag_306\n      swap2\n      swap1\n      tag_45\n      jump\t// in\n    tag_306:\n      mload(0x40)\n      dup1\n      swap2\n      sub\n      swap1\n      revert\n        /* \"@openzeppelin/contracts/access/Ownable.sol\":1851:1952  if (owner() != _msgSender()) {... */\n    tag_304:\n        /* \"@openzeppelin/contracts/access/Ownable.sol\":1796:1958  function _checkOwner() internal view virtual {... */\n      jump\t// out\n        /* \"@openzeppelin/contracts/access/Ownable.sol\":2912:3099  function _transferOwnership(address newOwner) internal virtual {... */\n    tag_183:\n        /* \"@openzeppelin/contracts/access/Ownable.sol\":2985:3001  address oldOwner */\n      0x00\n        /* \"@openzeppelin/contracts/access/Ownable.sol\":3004:3010  _owner */\n      dup1\n      0x00\n      swap1\n      sload\n      swap1\n      0x0100\n      exp\n      swap1\n      div\n      0xffffffffffffffffffffffffffffffffffffffff\n      and\n        /* \"@openzeppelin/contracts/access/Ownable.sol\":2985:3010  address oldOwner = _owner */\n      swap1\n      pop\n        /* \"@openzeppelin/contracts/access/Ownable.sol\":3029:3037  newOwner */\n      dup2\n        /* \"@openzeppelin/contracts/access/Ownable.sol\":3020:3026  _owner */\n      0x00\n      dup1\n        /* \"@openzeppelin/contracts/access/Ownable.sol\":3020:3037  _owner = newOwner */\n      0x0100\n      exp\n      dup2\n      sload\n      dup2\n      0xffffffffffffffffffffffffffffffffffffffff\n      mul\n      not\n      and\n      swap1\n      dup4\n      0xffffffffffffffffffffffffffffffffffffffff\n      and\n      mul\n      or\n      swap1\n      sstore\n      pop\n        /* \"@openzeppelin/contracts/access/Ownable.sol\":3083:3091  newOwner */\n      dup2\n        /* \"@openzeppelin/contracts/access/Ownable.sol\":3052:3092  OwnershipTransferred(oldOwner, newOwner) */\n      0xffffffffffffffffffffffffffffffffffffffff\n      and\n        /* \"@openzeppelin/contracts/access/Ownable.sol\":3073:3081  oldOwner */\n      dup2\n        /* \"@openzeppelin/contracts/access/Ownable.sol\":3052:3092  OwnershipTransferred(oldOwner, newOwner) */\n      0xffffffffffffffffffffffffffffffffffffffff\n      and\n      0x8be0079c531659141344cd1fd0a4f28419497f9722a3daafe3b4186f6b6457e0\n      mload(0x40)\n      mload(0x40)\n      dup1\n      swap2\n      sub\n      swap1\n      log3\n        /* \"@openzeppelin/contracts/access/Ownable.sol\":2975:3099  {... */\n      pop\n        /* \"@openzeppelin/contracts/access/Ownable.sol\":2912:3099  function _transferOwnership(address newOwner) internal virtual {... */\n      pop\n      jump\t// out\n        /* \"@openzeppelin/contracts/utils/Context.sol\":656:752  function _msgSender() internal view virtual returns (address) {... */\n    tag_302:\n        /* \"@openzeppelin/contracts/utils/Context.sol\":709:716  address */\n      0x00\n        /* \"@openzeppelin/contracts/utils/Context.sol\":735:745  msg.sender */\n      caller\n        /* \"@openzeppelin/contracts/utils/Context.sol\":728:745  return msg.sender */\n      swap1\n      pop\n        /* \"@openzeppelin/contracts/utils/Context.sol\":656:752  function _msgSender() internal view virtual returns (address) {... */\n      swap1\n      jump\t// out\n        /* \"#utility.yul\":7:82   */\n    tag_309:\n        /* \"#utility.yul\":40:46   */\n      0x00\n        /* \"#utility.yul\":73:75   */\n      0x40\n        /* \"#utility.yul\":67:76   */\n      mload\n        /* \"#utility.yul\":57:76   */\n      swap1\n      pop\n        /* \"#utility.yul\":7:82   */\n      swap1\n      jump\t// out\n        /* \"#utility.yul\":88:205   */\n    tag_310:\n        /* \"#utility.yul\":197:198   */\n      0x00\n        /* \"#utility.yul\":194:195   */\n      dup1\n        /* \"#utility.yul\":187:199   */\n      revert\n        /* \"#utility.yul\":211:328   */\n    tag_311:\n        /* \"#utility.yul\":320:321   */\n      0x00\n        /* \"#utility.yul\":317:318   */\n      dup1\n        /* \"#utility.yul\":310:322   */\n      revert\n        /* \"#utility.yul\":334:411   */\n    tag_312:\n        /* \"#utility.yul\":371:378   */\n      0x00\n        /* \"#utility.yul\":400:405   */\n      dup2\n        /* \"#utility.yul\":389:405   */\n      swap1\n      pop\n        /* \"#utility.yul\":334:411   */\n      swap2\n      swap1\n      pop\n      jump\t// out\n        /* \"#utility.yul\":417:539   */\n    tag_313:\n        /* \"#utility.yul\":490:514   */\n      tag_386\n        /* \"#utility.yul\":508:513   */\n      dup2\n        /* \"#utility.yul\":490:514   */\n      tag_312\n      jump\t// in\n    tag_386:\n        /* \"#utility.yul\":483:488   */\n      dup2\n        /* \"#utility.yul\":480:515   */\n      eq\n        /* \"#utility.yul\":470:533   */\n      tag_387\n      jumpi\n        /* \"#utility.yul\":529:530   */\n      0x00\n        /* \"#utility.yul\":526:527   */\n      dup1\n        /* \"#utility.yul\":519:531   */\n      revert\n        /* \"#utility.yul\":470:533   */\n    tag_387:\n        /* \"#utility.yul\":417:539   */\n      pop\n      jump\t// out\n        /* \"#utility.yul\":545:684   */\n    tag_314:\n        /* \"#utility.yul\":591:596   */\n      0x00\n        /* \"#utility.yul\":629:635   */\n      dup2\n        /* \"#utility.yul\":616:636   */\n      calldataload\n        /* \"#utility.yul\":607:636   */\n      swap1\n      pop\n        /* \"#utility.yul\":645:678   */\n      tag_389\n        /* \"#utility.yul\":672:677   */\n      dup2\n        /* \"#utility.yul\":645:678   */\n      tag_313\n      jump\t// in\n    tag_389:\n        /* \"#utility.yul\":545:684   */\n      swap3\n      swap2\n      pop\n      pop\n      jump\t// out\n        /* \"#utility.yul\":690:1019   */\n    tag_18:\n        /* \"#utility.yul\":749:755   */\n      0x00\n        /* \"#utility.yul\":798:800   */\n      0x20\n        /* \"#utility.yul\":786:795   */\n      dup3\n        /* \"#utility.yul\":777:784   */\n      dup5\n        /* \"#utility.yul\":773:796   */\n      sub\n        /* \"#utility.yul\":769:801   */\n      slt\n        /* \"#utility.yul\":766:885   */\n      iszero\n      tag_391\n      jumpi\n        /* \"#utility.yul\":804:883   */\n      tag_392\n      tag_310\n      jump\t// in\n    tag_392:\n        /* \"#utility.yul\":766:885   */\n    tag_391:\n        /* \"#utility.yul\":924:925   */\n      0x00\n        /* \"#utility.yul\":949:1002   */\n      tag_393\n        /* \"#utility.yul\":994:1001   */\n      dup5\n        /* \"#utility.yul\":985:991   */\n      dup3\n        /* \"#utility.yul\":974:983   */\n      dup6\n        /* \"#utility.yul\":970:992   */\n      add\n        /* \"#utility.yul\":949:1002   */\n      tag_314\n      jump\t// in\n    tag_393:\n        /* \"#utility.yul\":939:1002   */\n      swap2\n      pop\n        /* \"#utility.yul\":895:1012   */\n      pop\n        /* \"#utility.yul\":690:1019   */\n      swap3\n      swap2\n      pop\n      pop\n      jump\t// out\n        /* \"#utility.yul\":1025:1143   */\n    tag_315:\n        /* \"#utility.yul\":1112:1136   */\n      tag_395\n        /* \"#utility.yul\":1130:1135   */\n      dup2\n        /* \"#utility.yul\":1112:1136   */\n      tag_312\n      jump\t// in\n    tag_395:\n        /* \"#utility.yul\":1107:1110   */\n      dup3\n        /* \"#utility.yul\":1100:1137   */\n      mstore\n        /* \"#utility.yul\":1025:1143   */\n      pop\n      pop\n      jump\t// out\n        /* \"#utility.yul\":1149:1248   */\n    tag_316:\n        /* \"#utility.yul\":1201:1207   */\n      0x00\n        /* \"#utility.yul\":1235:1240   */\n      dup2\n        /* \"#utility.yul\":1229:1241   */\n      mload\n        /* \"#utility.yul\":1219:1241   */\n      swap1\n      pop\n        /* \"#utility.yul\":1149:1248   */\n      swap2\n      swap1\n      pop\n      jump\t// out\n        /* \"#utility.yul\":1254:1423   */\n    tag_317:\n        /* \"#utility.yul\":1338:1349   */\n      0x00\n        /* \"#utility.yul\":1372:1378   */\n      dup3\n        /* \"#utility.yul\":1367:1370   */\n      dup3\n        /* \"#utility.yul\":1360:1379   */\n      mstore\n        /* \"#utility.yul\":1412:1416   */\n      0x20\n        /* \"#utility.yul\":1407:1410   */\n      dup3\n        /* \"#utility.yul\":1403:1417   */\n      add\n        /* \"#utility.yul\":1388:1417   */\n      swap1\n      pop\n        /* \"#utility.yul\":1254:1423   */\n      swap3\n      swap2\n      pop\n      pop\n      jump\t// out\n        /* \"#utility.yul\":1429:1568   */\n    tag_318:\n        /* \"#utility.yul\":1518:1524   */\n      dup3\n        /* \"#utility.yul\":1513:1516   */\n      dup2\n        /* \"#utility.yul\":1508:1511   */\n      dup4\n        /* \"#utility.yul\":1502:1525   */\n      mcopy\n        /* \"#utility.yul\":1559:1560   */\n      0x00\n        /* \"#utility.yul\":1550:1556   */\n      dup4\n        /* \"#utility.yul\":1545:1548   */\n      dup4\n        /* \"#utility.yul\":1541:1557   */\n      add\n        /* \"#utility.yul\":1534:1561   */\n      mstore\n        /* \"#utility.yul\":1429:1568   */\n      pop\n      pop\n      pop\n      jump\t// out\n        /* \"#utility.yul\":1574:1676   */\n    tag_319:\n        /* \"#utility.yul\":1615:1621   */\n      0x00\n        /* \"#utility.yul\":1666:1668   */\n      0x1f\n        /* \"#utility.yul\":1662:1669   */\n      not\n        /* \"#utility.yul\":1657:1659   */\n      0x1f\n        /* \"#utility.yul\":1650:1655   */\n      dup4\n        /* \"#utility.yul\":1646:1660   */\n      add\n        /* \"#utility.yul\":1642:1670   */\n      and\n        /* \"#utility.yul\":1632:1670   */\n      swap1\n      pop\n        /* \"#utility.yul\":1574:1676   */\n      swap2\n      swap1\n      pop\n      jump\t// out\n        /* \"#utility.yul\":1682:2059   */\n    tag_320:\n        /* \"#utility.yul\":1770:1773   */\n      0x00\n        /* \"#utility.yul\":1798:1837   */\n      tag_401\n        /* \"#utility.yul\":1831:1836   */\n      dup3\n        /* \"#utility.yul\":1798:1837   */\n      tag_316\n      jump\t// in\n    tag_401:\n        /* \"#utility.yul\":1853:1924   */\n      tag_402\n        /* \"#utility.yul\":1917:1923   */\n      dup2\n        /* \"#utility.yul\":1912:1915   */\n      dup6\n        /* \"#utility.yul\":1853:1924   */\n      tag_317\n      jump\t// in\n    tag_402:\n        /* \"#utility.yul\":1846:1924   */\n      swap4\n      pop\n        /* \"#utility.yul\":1933:1998   */\n      tag_403\n        /* \"#utility.yul\":1991:1997   */\n      dup2\n        /* \"#utility.yul\":1986:1989   */\n      dup6\n        /* \"#utility.yul\":1979:1983   */\n      0x20\n        /* \"#utility.yul\":1972:1977   */\n      dup7\n        /* \"#utility.yul\":1968:1984   */\n      add\n        /* \"#utility.yul\":1933:1998   */\n      tag_318\n      jump\t// in\n    tag_403:\n        /* \"#utility.yul\":2023:2052   */\n      tag_404\n        /* \"#utility.yul\":2045:2051   */\n      dup2\n        /* \"#utility.yul\":2023:2052   */\n      tag_319\n      jump\t// in\n    tag_404:\n        /* \"#utility.yul\":2018:2021   */\n      dup5\n        /* \"#utility.yul\":2014:2053   */\n      add\n        /* \"#utility.yul\":2007:2053   */\n      swap2\n      pop\n        /* \"#utility.yul\":1774:2059   */\n      pop\n        /* \"#utility.yul\":1682:2059   */\n      swap3\n      swap2\n      pop\n      pop\n      jump\t// out\n        /* \"#utility.yul\":2065:2191   */\n    tag_321:\n        /* \"#utility.yul\":2102:2109   */\n      0x00\n        /* \"#utility.yul\":2142:2184   */\n      0xffffffffffffffffffffffffffffffffffffffff\n        /* \"#utility.yul\":2135:2140   */\n      dup3\n        /* \"#utility.yul\":2131:2185   */\n      and\n        /* \"#utility.yul\":2120:2185   */\n      swap1\n      pop\n        /* \"#utility.yul\":2065:2191   */\n      swap2\n      swap1\n      pop\n      jump\t// out\n        /* \"#utility.yul\":2197:2293   */\n    tag_322:\n        /* \"#utility.yul\":2234:2241   */\n      0x00\n        /* \"#utility.yul\":2263:2287   */\n      tag_407\n        /* \"#utility.yul\":2281:2286   */\n      dup3\n        /* \"#utility.yul\":2263:2287   */\n      tag_321\n      jump\t// in\n    tag_407:\n        /* \"#utility.yul\":2252:2287   */\n      swap1\n      pop\n        /* \"#utility.yul\":2197:2293   */\n      swap2\n      swap1\n      pop\n      jump\t// out\n        /* \"#utility.yul\":2299:2417   */\n    tag_323:\n        /* \"#utility.yul\":2386:2410   */\n      tag_409\n        /* \"#utility.yul\":2404:2409   */\n      dup2\n        /* \"#utility.yul\":2386:2410   */\n      tag_322\n      jump\t// in\n    tag_409:\n        /* \"#utility.yul\":2381:2384   */\n      dup3\n        /* \"#utility.yul\":2374:2411   */\n      mstore\n        /* \"#utility.yul\":2299:2417   */\n      pop\n      pop\n      jump\t// out\n        /* \"#utility.yul\":2423:4097   */\n    tag_24:\n        /* \"#utility.yul\":2868:2872   */\n      0x00\n        /* \"#utility.yul\":2906:2909   */\n      0x0140\n        /* \"#utility.yul\":2895:2904   */\n      dup3\n        /* \"#utility.yul\":2891:2910   */\n      add\n        /* \"#utility.yul\":2883:2910   */\n      swap1\n      pop\n        /* \"#utility.yul\":2920:2991   */\n      tag_411\n        /* \"#utility.yul\":2988:2989   */\n      0x00\n        /* \"#utility.yul\":2977:2986   */\n      dup4\n        /* \"#utility.yul\":2973:2990   */\n      add\n        /* \"#utility.yul\":2964:2970   */\n      dup14\n        /* \"#utility.yul\":2920:2991   */\n      tag_315\n      jump\t// in\n    tag_411:\n        /* \"#utility.yul\":3038:3047   */\n      dup2\n        /* \"#utility.yul\":3032:3036   */\n      dup2\n        /* \"#utility.yul\":3028:3048   */\n      sub\n        /* \"#utility.yul\":3023:3025   */\n      0x20\n        /* \"#utility.yul\":3012:3021   */\n      dup4\n        /* \"#utility.yul\":3008:3026   */\n      add\n        /* \"#utility.yul\":3001:3049   */\n      mstore\n        /* \"#utility.yul\":3066:3144   */\n      tag_412\n        /* \"#utility.yul\":3139:3143   */\n      dup2\n        /* \"#utility.yul\":3130:3136   */\n      dup13\n        /* \"#utility.yul\":3066:3144   */\n      tag_320\n      jump\t// in\n    tag_412:\n        /* \"#utility.yul\":3058:3144   */\n      swap1\n      pop\n        /* \"#utility.yul\":3191:3200   */\n      dup2\n        /* \"#utility.yul\":3185:3189   */\n      dup2\n        /* \"#utility.yul\":3181:3201   */\n      sub\n        /* \"#utility.yul\":3176:3178   */\n      0x40\n        /* \"#utility.yul\":3165:3174   */\n      dup4\n        /* \"#utility.yul\":3161:3179   */\n      add\n        /* \"#utility.yul\":3154:3202   */\n      mstore\n        /* \"#utility.yul\":3219:3297   */\n      tag_413\n        /* \"#utility.yul\":3292:3296   */\n      dup2\n        /* \"#utility.yul\":3283:3289   */\n      dup12\n        /* \"#utility.yul\":3219:3297   */\n      tag_320\n      jump\t// in\n    tag_413:\n        /* \"#utility.yul\":3211:3297   */\n      swap1\n      pop\n        /* \"#utility.yul\":3307:3379   */\n      tag_414\n        /* \"#utility.yul\":3375:3377   */\n      0x60\n        /* \"#utility.yul\":3364:3373   */\n      dup4\n        /* \"#utility.yul\":3360:3378   */\n      add\n        /* \"#utility.yul\":3351:3357   */\n      dup11\n        /* \"#utility.yul\":3307:3379   */\n      tag_315\n      jump\t// in\n    tag_414:\n        /* \"#utility.yul\":3427:3436   */\n      dup2\n        /* \"#utility.yul\":3421:3425   */\n      dup2\n        /* \"#utility.yul\":3417:3437   */\n      sub\n        /* \"#utility.yul\":3411:3414   */\n      0x80\n        /* \"#utility.yul\":3400:3409   */\n      dup4\n        /* \"#utility.yul\":3396:3415   */\n      add\n        /* \"#utility.yul\":3389:3438   */\n      mstore\n        /* \"#utility.yul\":3455:3533   */\n      tag_415\n        /* \"#utility.yul\":3528:3532   */\n      dup2\n        /* \"#utility.yul\":3519:3525   */\n      dup10\n        /* \"#utility.yul\":3455:3533   */\n      tag_320\n      jump\t// in\n    tag_415:\n        /* \"#utility.yul\":3447:3533   */\n      swap1\n      pop\n        /* \"#utility.yul\":3543:3616   */\n      tag_416\n        /* \"#utility.yul\":3611:3614   */\n      0xa0\n        /* \"#utility.yul\":3600:3609   */\n      dup4\n        /* \"#utility.yul\":3596:3615   */\n      add\n        /* \"#utility.yul\":3587:3593   */\n      dup9\n        /* \"#utility.yul\":3543:3616   */\n      tag_315\n      jump\t// in\n    tag_416:\n        /* \"#utility.yul\":3626:3699   */\n      tag_417\n        /* \"#utility.yul\":3694:3697   */\n      0xc0\n        /* \"#utility.yul\":3683:3692   */\n      dup4\n        /* \"#utility.yul\":3679:3698   */\n      add\n        /* \"#utility.yul\":3670:3676   */\n      dup8\n        /* \"#utility.yul\":3626:3699   */\n      tag_323\n      jump\t// in\n    tag_417:\n        /* \"#utility.yul\":3747:3756   */\n      dup2\n        /* \"#utility.yul\":3741:3745   */\n      dup2\n        /* \"#utility.yul\":3737:3757   */\n      sub\n        /* \"#utility.yul\":3731:3734   */\n      0xe0\n        /* \"#utility.yul\":3720:3729   */\n      dup4\n        /* \"#utility.yul\":3716:3735   */\n      add\n        /* \"#utility.yul\":3709:3758   */\n      mstore\n        /* \"#utility.yul\":3775:3853   */\n      tag_418\n        /* \"#utility.yul\":3848:3852   */\n      dup2\n        /* \"#utility.yul\":3839:3845   */\n      dup7\n        /* \"#utility.yul\":3775:3853   */\n      tag_320\n      jump\t// in\n    tag_418:\n        /* \"#utility.yul\":3767:3853   */\n      swap1\n      pop\n        /* \"#utility.yul\":3901:3910   */\n      dup2\n        /* \"#utility.yul\":3895:3899   */\n      dup2\n        /* \"#utility.yul\":3891:3911   */\n      sub\n        /* \"#utility.yul\":3885:3888   */\n      0x0100\n        /* \"#utility.yul\":3874:3883   */\n      dup4\n        /* \"#utility.yul\":3870:3889   */\n      add\n        /* \"#utility.yul\":3863:3912   */\n      mstore\n        /* \"#utility.yul\":3929:4007   */\n      tag_419\n        /* \"#utility.yul\":4002:4006   */\n      dup2\n        /* \"#utility.yul\":3993:3999   */\n      dup6\n        /* \"#utility.yul\":3929:4007   */\n      tag_320\n      jump\t// in\n    tag_419:\n        /* \"#utility.yul\":3921:4007   */\n      swap1\n      pop\n        /* \"#utility.yul\":4017:4090   */\n      tag_420\n        /* \"#utility.yul\":4085:4088   */\n      0x0120\n        /* \"#utility.yul\":4074:4083   */\n      dup4\n        /* \"#utility.yul\":4070:4089   */\n      add\n        /* \"#utility.yul\":4061:4067   */\n      dup5\n        /* \"#utility.yul\":4017:4090   */\n      tag_315\n      jump\t// in\n    tag_420:\n        /* \"#utility.yul\":2423:4097   */\n      swap12\n      swap11\n      pop\n      pop\n      pop\n      pop\n      pop\n      pop\n      pop\n      pop\n      pop\n      pop\n      pop\n      jump\t// out\n        /* \"#utility.yul\":4103:4225   */\n    tag_324:\n        /* \"#utility.yul\":4176:4200   */\n      tag_422\n        /* \"#utility.yul\":4194:4199   */\n      dup2\n        /* \"#utility.yul\":4176:4200   */\n      tag_322\n      jump\t// in\n    tag_422:\n        /* \"#utility.yul\":4169:4174   */\n      dup2\n        /* \"#utility.yul\":4166:4201   */\n      eq\n        /* \"#utility.yul\":4156:4219   */\n      tag_423\n      jumpi\n        /* \"#utility.yul\":4215:4216   */\n      0x00\n        /* \"#utility.yul\":4212:4213   */\n      dup1\n        /* \"#utility.yul\":4205:4217   */\n      revert\n        /* \"#utility.yul\":4156:4219   */\n    tag_423:\n        /* \"#utility.yul\":4103:4225   */\n      pop\n      jump\t// out\n        /* \"#utility.yul\":4231:4370   */\n    tag_325:\n        /* \"#utility.yul\":4277:4282   */\n      0x00\n        /* \"#utility.yul\":4315:4321   */\n      dup2\n        /* \"#utility.yul\":4302:4322   */\n      calldataload\n        /* \"#utility.yul\":4293:4322   */\n      swap1\n      pop\n        /* \"#utility.yul\":4331:4364   */\n      tag_425\n        /* \"#utility.yul\":4358:4363   */\n      dup2\n        /* \"#utility.yul\":4331:4364   */\n      tag_324\n      jump\t// in\n    tag_425:\n        /* \"#utility.yul\":4231:4370   */\n      swap3\n      swap2\n      pop\n      pop\n      jump\t// out\n        /* \"#utility.yul\":4376:4705   */\n    tag_27:\n        /* \"#utility.yul\":4435:4441   */\n      0x00\n        /* \"#utility.yul\":4484:4486   */\n      0x20\n        /* \"#utility.yul\":4472:4481   */\n      dup3\n        /* \"#utility.yul\":4463:4470   */\n      dup5\n        /* \"#utility.yul\":4459:4482   */\n      sub\n        /* \"#utility.yul\":4455:4487   */\n      slt\n        /* \"#utility.yul\":4452:4571   */\n      iszero\n      tag_427\n      jumpi\n        /* \"#utility.yul\":4490:4569   */\n      tag_428\n      tag_310\n      jump\t// in\n    tag_428:\n        /* \"#utility.yul\":4452:4571   */\n    tag_427:\n        /* \"#utility.yul\":4610:4611   */\n      0x00\n        /* \"#utility.yul\":4635:4688   */\n      tag_429\n        /* \"#utility.yul\":4680:4687   */\n      dup5\n        /* \"#utility.yul\":4671:4677   */\n      dup3\n        /* \"#utility.yul\":4660:4669   */\n      dup6\n        /* \"#utility.yul\":4656:4678   */\n      add\n        /* \"#utility.yul\":4635:4688   */\n      tag_325\n      jump\t// in\n    tag_429:\n        /* \"#utility.yul\":4625:4688   */\n      swap2\n      pop\n        /* \"#utility.yul\":4581:4698   */\n      pop\n        /* \"#utility.yul\":4376:4705   */\n      swap3\n      swap2\n      pop\n      pop\n      jump\t// out\n        /* \"#utility.yul\":4711:4850   */\n    tag_326:\n        /* \"#utility.yul\":4803:4809   */\n      0x00\n        /* \"#utility.yul\":4837:4842   */\n      dup2\n        /* \"#utility.yul\":4831:4843   */\n      mload\n        /* \"#utility.yul\":4821:4843   */\n      swap1\n      pop\n        /* \"#utility.yul\":4711:4850   */\n      swap2\n      swap1\n      pop\n      jump\t// out\n        /* \"#utility.yul\":4856:5065   */\n    tag_327:\n        /* \"#utility.yul\":4980:4991   */\n      0x00\n        /* \"#utility.yul\":5014:5020   */\n      dup3\n        /* \"#utility.yul\":5009:5012   */\n      dup3\n        /* \"#utility.yul\":5002:5021   */\n      mstore\n        /* \"#utility.yul\":5054:5058   */\n      0x20\n        /* \"#utility.yul\":5049:5052   */\n      dup3\n        /* \"#utility.yul\":5045:5059   */\n      add\n        /* \"#utility.yul\":5030:5059   */\n      swap1\n      pop\n        /* \"#utility.yul\":4856:5065   */\n      swap3\n      swap2\n      pop\n      pop\n      jump\t// out\n        /* \"#utility.yul\":5071:5228   */\n    tag_328:\n        /* \"#utility.yul\":5163:5167   */\n      0x00\n        /* \"#utility.yul\":5186:5189   */\n      dup2\n        /* \"#utility.yul\":5178:5189   */\n      swap1\n      pop\n        /* \"#utility.yul\":5216:5220   */\n      0x20\n        /* \"#utility.yul\":5211:5214   */\n      dup3\n        /* \"#utility.yul\":5207:5221   */\n      add\n        /* \"#utility.yul\":5199:5221   */\n      swap1\n      pop\n        /* \"#utility.yul\":5071:5228   */\n      swap2\n      swap1\n      pop\n      jump\t// out\n        /* \"#utility.yul\":5234:5342   */\n    tag_329:\n        /* \"#utility.yul\":5311:5335   */\n      tag_434\n        /* \"#utility.yul\":5329:5334   */\n      dup2\n        /* \"#utility.yul\":5311:5335   */\n      tag_312\n      jump\t// in\n    tag_434:\n        /* \"#utility.yul\":5306:5309   */\n      dup3\n        /* \"#utility.yul\":5299:5336   */\n      mstore\n        /* \"#utility.yul\":5234:5342   */\n      pop\n      pop\n      jump\t// out\n        /* \"#utility.yul\":5348:5507   */\n    tag_330:\n        /* \"#utility.yul\":5422:5433   */\n      0x00\n        /* \"#utility.yul\":5456:5462   */\n      dup3\n        /* \"#utility.yul\":5451:5454   */\n      dup3\n        /* \"#utility.yul\":5444:5463   */\n      mstore\n        /* \"#utility.yul\":5496:5500   */\n      0x20\n        /* \"#utility.yul\":5491:5494   */\n      dup3\n        /* \"#utility.yul\":5487:5501   */\n      add\n        /* \"#utility.yul\":5472:5501   */\n      swap1\n      pop\n        /* \"#utility.yul\":5348:5507   */\n      swap3\n      swap2\n      pop\n      pop\n      jump\t// out\n        /* \"#utility.yul\":5513:5870   */\n    tag_331:\n        /* \"#utility.yul\":5591:5594   */\n      0x00\n        /* \"#utility.yul\":5619:5658   */\n      tag_437\n        /* \"#utility.yul\":5652:5657   */\n      dup3\n        /* \"#utility.yul\":5619:5658   */\n      tag_316\n      jump\t// in\n    tag_437:\n        /* \"#utility.yul\":5674:5735   */\n      tag_438\n        /* \"#utility.yul\":5728:5734   */\n      dup2\n        /* \"#utility.yul\":5723:5726   */\n      dup6\n        /* \"#utility.yul\":5674:5735   */\n      tag_330\n      jump\t// in\n    tag_438:\n        /* \"#utility.yul\":5667:5735   */\n      swap4\n      pop\n        /* \"#utility.yul\":5744:5809   */\n      tag_439\n        /* \"#utility.yul\":5802:5808   */\n      dup2\n        /* \"#utility.yul\":5797:5800   */\n      dup6\n        /* \"#utility.yul\":5790:5794   */\n      0x20\n        /* \"#utility.yul\":5783:5788   */\n      dup7\n        /* \"#utility.yul\":5779:5795   */\n      add\n        /* \"#utility.yul\":5744:5809   */\n      tag_318\n      jump\t// in\n    tag_439:\n        /* \"#utility.yul\":5834:5863   */\n      tag_440\n        /* \"#utility.yul\":5856:5862   */\n      dup2\n        /* \"#utility.yul\":5834:5863   */\n      tag_319\n      jump\t// in\n    tag_440:\n        /* \"#utility.yul\":5829:5832   */\n      dup5\n        /* \"#utility.yul\":5825:5864   */\n      add\n        /* \"#utility.yul\":5818:5864   */\n      swap2\n      pop\n        /* \"#utility.yul\":5595:5870   */\n      pop\n        /* \"#utility.yul\":5513:5870   */\n      swap3\n      swap2\n      pop\n      pop\n      jump\t// out\n        /* \"#utility.yul\":5876:5984   */\n    tag_332:\n        /* \"#utility.yul\":5953:5977   */\n      tag_442\n        /* \"#utility.yul\":5971:5976   */\n      dup2\n        /* \"#utility.yul\":5953:5977   */\n      tag_322\n      jump\t// in\n    tag_442:\n        /* \"#utility.yul\":5948:5951   */\n      dup3\n        /* \"#utility.yul\":5941:5978   */\n      mstore\n        /* \"#utility.yul\":5876:5984   */\n      pop\n      pop\n      jump\t// out\n        /* \"#utility.yul\":6046:8362   */\n    tag_333:\n        /* \"#utility.yul\":6155:6158   */\n      0x00\n        /* \"#utility.yul\":6191:6197   */\n      0x0140\n        /* \"#utility.yul\":6186:6189   */\n      dup4\n        /* \"#utility.yul\":6182:6198   */\n      add\n        /* \"#utility.yul\":6278:6282   */\n      0x00\n        /* \"#utility.yul\":6271:6276   */\n      dup4\n        /* \"#utility.yul\":6267:6283   */\n      add\n        /* \"#utility.yul\":6261:6284   */\n      mload\n        /* \"#utility.yul\":6297:6360   */\n      tag_444\n        /* \"#utility.yul\":6354:6358   */\n      0x00\n        /* \"#utility.yul\":6349:6352   */\n      dup7\n        /* \"#utility.yul\":6345:6359   */\n      add\n        /* \"#utility.yul\":6331:6343   */\n      dup3\n        /* \"#utility.yul\":6297:6360   */\n      tag_329\n      jump\t// in\n    tag_444:\n        /* \"#utility.yul\":6208:6370   */\n      pop\n        /* \"#utility.yul\":6453:6457   */\n      0x20\n        /* \"#utility.yul\":6446:6451   */\n      dup4\n        /* \"#utility.yul\":6442:6458   */\n      add\n        /* \"#utility.yul\":6436:6459   */\n      mload\n        /* \"#utility.yul\":6506:6509   */\n      dup5\n        /* \"#utility.yul\":6500:6504   */\n      dup3\n        /* \"#utility.yul\":6496:6510   */\n      sub\n        /* \"#utility.yul\":6489:6493   */\n      0x20\n        /* \"#utility.yul\":6484:6487   */\n      dup7\n        /* \"#utility.yul\":6480:6494   */\n      add\n        /* \"#utility.yul\":6473:6511   */\n      mstore\n        /* \"#utility.yul\":6532:6605   */\n      tag_445\n        /* \"#utility.yul\":6600:6604   */\n      dup3\n        /* \"#utility.yul\":6586:6598   */\n      dup3\n        /* \"#utility.yul\":6532:6605   */\n      tag_331\n      jump\t// in\n    tag_445:\n        /* \"#utility.yul\":6524:6605   */\n      swap2\n      pop\n        /* \"#utility.yul\":6380:6616   */\n      pop\n        /* \"#utility.yul\":6705:6709   */\n      0x40\n        /* \"#utility.yul\":6698:6703   */\n      dup4\n        /* \"#utility.yul\":6694:6710   */\n      add\n        /* \"#utility.yul\":6688:6711   */\n      mload\n        /* \"#utility.yul\":6758:6761   */\n      dup5\n        /* \"#utility.yul\":6752:6756   */\n      dup3\n        /* \"#utility.yul\":6748:6762   */\n      sub\n        /* \"#utility.yul\":6741:6745   */\n      0x40\n        /* \"#utility.yul\":6736:6739   */\n      dup7\n        /* \"#utility.yul\":6732:6746   */\n      add\n        /* \"#utility.yul\":6725:6763   */\n      mstore\n        /* \"#utility.yul\":6784:6857   */\n      tag_446\n        /* \"#utility.yul\":6852:6856   */\n      dup3\n        /* \"#utility.yul\":6838:6850   */\n      dup3\n        /* \"#utility.yul\":6784:6857   */\n      tag_331\n      jump\t// in\n    tag_446:\n        /* \"#utility.yul\":6776:6857   */\n      swap2\n      pop\n        /* \"#utility.yul\":6626:6868   */\n      pop\n        /* \"#utility.yul\":6951:6955   */\n      0x60\n        /* \"#utility.yul\":6944:6949   */\n      dup4\n        /* \"#utility.yul\":6940:6956   */\n      add\n        /* \"#utility.yul\":6934:6957   */\n      mload\n        /* \"#utility.yul\":6970:7033   */\n      tag_447\n        /* \"#utility.yul\":7027:7031   */\n      0x60\n        /* \"#utility.yul\":7022:7025   */\n      dup7\n        /* \"#utility.yul\":7018:7032   */\n      add\n        /* \"#utility.yul\":7004:7016   */\n      dup3\n        /* \"#utility.yul\":6970:7033   */\n      tag_329\n      jump\t// in\n    tag_447:\n        /* \"#utility.yul\":6878:7043   */\n      pop\n        /* \"#utility.yul\":7127:7131   */\n      0x80\n        /* \"#utility.yul\":7120:7125   */\n      dup4\n        /* \"#utility.yul\":7116:7132   */\n      add\n        /* \"#utility.yul\":7110:7133   */\n      mload\n        /* \"#utility.yul\":7180:7183   */\n      dup5\n        /* \"#utility.yul\":7174:7178   */\n      dup3\n        /* \"#utility.yul\":7170:7184   */\n      sub\n        /* \"#utility.yul\":7163:7167   */\n      0x80\n        /* \"#utility.yul\":7158:7161   */\n      dup7\n        /* \"#utility.yul\":7154:7168   */\n      add\n        /* \"#utility.yul\":7147:7185   */\n      mstore\n        /* \"#utility.yul\":7206:7279   */\n      tag_448\n        /* \"#utility.yul\":7274:7278   */\n      dup3\n        /* \"#utility.yul\":7260:7272   */\n      dup3\n        /* \"#utility.yul\":7206:7279   */\n      tag_331\n      jump\t// in\n    tag_448:\n        /* \"#utility.yul\":7198:7279   */\n      swap2\n      pop\n        /* \"#utility.yul\":7053:7290   */\n      pop\n        /* \"#utility.yul\":7376:7380   */\n      0xa0\n        /* \"#utility.yul\":7369:7374   */\n      dup4\n        /* \"#utility.yul\":7365:7381   */\n      add\n        /* \"#utility.yul\":7359:7382   */\n      mload\n        /* \"#utility.yul\":7395:7458   */\n      tag_449\n        /* \"#utility.yul\":7452:7456   */\n      0xa0\n        /* \"#utility.yul\":7447:7450   */\n      dup7\n        /* \"#utility.yul\":7443:7457   */\n      add\n        /* \"#utility.yul\":7429:7441   */\n      dup3\n        /* \"#utility.yul\":7395:7458   */\n      tag_329\n      jump\t// in\n    tag_449:\n        /* \"#utility.yul\":7300:7468   */\n      pop\n        /* \"#utility.yul\":7552:7556   */\n      0xc0\n        /* \"#utility.yul\":7545:7550   */\n      dup4\n        /* \"#utility.yul\":7541:7557   */\n      add\n        /* \"#utility.yul\":7535:7558   */\n      mload\n        /* \"#utility.yul\":7571:7634   */\n      tag_450\n        /* \"#utility.yul\":7628:7632   */\n      0xc0\n        /* \"#utility.yul\":7623:7626   */\n      dup7\n        /* \"#utility.yul\":7619:7633   */\n      add\n        /* \"#utility.yul\":7605:7617   */\n      dup3\n        /* \"#utility.yul\":7571:7634   */\n      tag_332\n      jump\t// in\n    tag_450:\n        /* \"#utility.yul\":7478:7644   */\n      pop\n        /* \"#utility.yul\":7736:7740   */\n      0xe0\n        /* \"#utility.yul\":7729:7734   */\n      dup4\n        /* \"#utility.yul\":7725:7741   */\n      add\n        /* \"#utility.yul\":7719:7742   */\n      mload\n        /* \"#utility.yul\":7789:7792   */\n      dup5\n        /* \"#utility.yul\":7783:7787   */\n      dup3\n        /* \"#utility.yul\":7779:7793   */\n      sub\n        /* \"#utility.yul\":7772:7776   */\n      0xe0\n        /* \"#utility.yul\":7767:7770   */\n      dup7\n        /* \"#utility.yul\":7763:7777   */\n      add\n        /* \"#utility.yul\":7756:7794   */\n      mstore\n        /* \"#utility.yul\":7815:7888   */\n      tag_451\n        /* \"#utility.yul\":7883:7887   */\n      dup3\n        /* \"#utility.yul\":7869:7881   */\n      dup3\n        /* \"#utility.yul\":7815:7888   */\n      tag_331\n      jump\t// in\n    tag_451:\n        /* \"#utility.yul\":7807:7888   */\n      swap2\n      pop\n        /* \"#utility.yul\":7654:7899   */\n      pop\n        /* \"#utility.yul\":7987:7993   */\n      0x0100\n        /* \"#utility.yul\":7980:7985   */\n      dup4\n        /* \"#utility.yul\":7976:7994   */\n      add\n        /* \"#utility.yul\":7970:7995   */\n      mload\n        /* \"#utility.yul\":8044:8047   */\n      dup5\n        /* \"#utility.yul\":8038:8042   */\n      dup3\n        /* \"#utility.yul\":8034:8048   */\n      sub\n        /* \"#utility.yul\":8025:8031   */\n      0x0100\n        /* \"#utility.yul\":8020:8023   */\n      dup7\n        /* \"#utility.yul\":8016:8032   */\n      add\n        /* \"#utility.yul\":8009:8049   */\n      mstore\n        /* \"#utility.yul\":8070:8143   */\n      tag_452\n        /* \"#utility.yul\":8138:8142   */\n      dup3\n        /* \"#utility.yul\":8124:8136   */\n      dup3\n        /* \"#utility.yul\":8070:8143   */\n      tag_331\n      jump\t// in\n    tag_452:\n        /* \"#utility.yul\":8062:8143   */\n      swap2\n      pop\n        /* \"#utility.yul\":7909:8154   */\n      pop\n        /* \"#utility.yul\":8239:8245   */\n      0x0120\n        /* \"#utility.yul\":8232:8237   */\n      dup4\n        /* \"#utility.yul\":8228:8246   */\n      add\n        /* \"#utility.yul\":8222:8247   */\n      mload\n        /* \"#utility.yul\":8260:8325   */\n      tag_453\n        /* \"#utility.yul\":8317:8323   */\n      0x0120\n        /* \"#utility.yul\":8312:8315   */\n      dup7\n        /* \"#utility.yul\":8308:8324   */\n      add\n        /* \"#utility.yul\":8294:8306   */\n      dup3\n        /* \"#utility.yul\":8260:8325   */\n      tag_329\n      jump\t// in\n    tag_453:\n        /* \"#utility.yul\":8164:8335   */\n      pop\n        /* \"#utility.yul\":8352:8356   */\n      dup1\n        /* \"#utility.yul\":8345:8356   */\n      swap2\n      pop\n        /* \"#utility.yul\":6160:8362   */\n      pop\n        /* \"#utility.yul\":6046:8362   */\n      swap3\n      swap2\n      pop\n      pop\n      jump\t// out\n        /* \"#utility.yul\":8368:8624   */\n    tag_334:\n        /* \"#utility.yul\":8487:8497   */\n      0x00\n        /* \"#utility.yul\":8522:8618   */\n      tag_455\n        /* \"#utility.yul\":8614:8617   */\n      dup4\n        /* \"#utility.yul\":8606:8612   */\n      dup4\n        /* \"#utility.yul\":8522:8618   */\n      tag_333\n      jump\t// in\n    tag_455:\n        /* \"#utility.yul\":8508:8618   */\n      swap1\n      pop\n        /* \"#utility.yul\":8368:8624   */\n      swap3\n      swap2\n      pop\n      pop\n      jump\t// out\n        /* \"#utility.yul\":8630:8768   */\n    tag_335:\n        /* \"#utility.yul\":8725:8729   */\n      0x00\n        /* \"#utility.yul\":8757:8761   */\n      0x20\n        /* \"#utility.yul\":8752:8755   */\n      dup3\n        /* \"#utility.yul\":8748:8762   */\n      add\n        /* \"#utility.yul\":8740:8762   */\n      swap1\n      pop\n        /* \"#utility.yul\":8630:8768   */\n      swap2\n      swap1\n      pop\n      jump\t// out\n        /* \"#utility.yul\":8834:9945   */\n    tag_336:\n        /* \"#utility.yul\":9003:9006   */\n      0x00\n        /* \"#utility.yul\":9032:9111   */\n      tag_458\n        /* \"#utility.yul\":9105:9110   */\n      dup3\n        /* \"#utility.yul\":9032:9111   */\n      tag_326\n      jump\t// in\n    tag_458:\n        /* \"#utility.yul\":9127:9238   */\n      tag_459\n        /* \"#utility.yul\":9231:9237   */\n      dup2\n        /* \"#utility.yul\":9226:9229   */\n      dup6\n        /* \"#utility.yul\":9127:9238   */\n      tag_327\n      jump\t// in\n    tag_459:\n        /* \"#utility.yul\":9120:9238   */\n      swap4\n      pop\n        /* \"#utility.yul\":9264:9267   */\n      dup4\n        /* \"#utility.yul\":9309:9313   */\n      0x20\n        /* \"#utility.yul\":9301:9307   */\n      dup3\n        /* \"#utility.yul\":9297:9314   */\n      mul\n        /* \"#utility.yul\":9292:9295   */\n      dup6\n        /* \"#utility.yul\":9288:9315   */\n      add\n        /* \"#utility.yul\":9339:9420   */\n      tag_460\n        /* \"#utility.yul\":9414:9419   */\n      dup6\n        /* \"#utility.yul\":9339:9420   */\n      tag_328\n      jump\t// in\n    tag_460:\n        /* \"#utility.yul\":9443:9450   */\n      dup1\n        /* \"#utility.yul\":9474:9475   */\n      0x00\n        /* \"#utility.yul\":9459:9900   */\n    tag_461:\n        /* \"#utility.yul\":9484:9490   */\n      dup6\n        /* \"#utility.yul\":9481:9482   */\n      dup2\n        /* \"#utility.yul\":9478:9491   */\n      lt\n        /* \"#utility.yul\":9459:9900   */\n      iszero\n      tag_463\n      jumpi\n        /* \"#utility.yul\":9555:9564   */\n      dup5\n        /* \"#utility.yul\":9549:9553   */\n      dup5\n        /* \"#utility.yul\":9545:9565   */\n      sub\n        /* \"#utility.yul\":9540:9543   */\n      dup10\n        /* \"#utility.yul\":9533:9566   */\n      mstore\n        /* \"#utility.yul\":9606:9612   */\n      dup2\n        /* \"#utility.yul\":9600:9613   */\n      mload\n        /* \"#utility.yul\":9634:9748   */\n      tag_464\n        /* \"#utility.yul\":9743:9747   */\n      dup6\n        /* \"#utility.yul\":9728:9741   */\n      dup3\n        /* \"#utility.yul\":9634:9748   */\n      tag_334\n      jump\t// in\n    tag_464:\n        /* \"#utility.yul\":9626:9748   */\n      swap5\n      pop\n        /* \"#utility.yul\":9771:9856   */\n      tag_465\n        /* \"#utility.yul\":9849:9855   */\n      dup4\n        /* \"#utility.yul\":9771:9856   */\n      tag_335\n      jump\t// in\n    tag_465:\n        /* \"#utility.yul\":9761:9856   */\n      swap3\n      pop\n        /* \"#utility.yul\":9885:9889   */\n      0x20\n        /* \"#utility.yul\":9880:9883   */\n      dup11\n        /* \"#utility.yul\":9876:9890   */\n      add\n        /* \"#utility.yul\":9869:9890   */\n      swap10\n      pop\n        /* \"#utility.yul\":9519:9900   */\n      pop\n        /* \"#utility.yul\":9506:9507   */\n      0x01\n        /* \"#utility.yul\":9503:9504   */\n      dup2\n        /* \"#utility.yul\":9499:9508   */\n      add\n        /* \"#utility.yul\":9494:9508   */\n      swap1\n      pop\n        /* \"#utility.yul\":9459:9900   */\n      jump(tag_461)\n    tag_463:\n        /* \"#utility.yul\":9463:9477   */\n      pop\n        /* \"#utility.yul\":9916:9920   */\n      dup3\n        /* \"#utility.yul\":9909:9920   */\n      swap8\n      pop\n        /* \"#utility.yul\":9936:9939   */\n      dup8\n        /* \"#utility.yul\":9929:9939   */\n      swap6\n      pop\n        /* \"#utility.yul\":9008:9945   */\n      pop\n      pop\n      pop\n      pop\n      pop\n        /* \"#utility.yul\":8834:9945   */\n      swap3\n      swap2\n      pop\n      pop\n      jump\t// out\n        /* \"#utility.yul\":9951:10424   */\n    tag_30:\n        /* \"#utility.yul\":10144:10148   */\n      0x00\n        /* \"#utility.yul\":10182:10184   */\n      0x20\n        /* \"#utility.yul\":10171:10180   */\n      dup3\n        /* \"#utility.yul\":10167:10185   */\n      add\n        /* \"#utility.yul\":10159:10185   */\n      swap1\n      pop\n        /* \"#utility.yul\":10231:10240   */\n      dup2\n        /* \"#utility.yul\":10225:10229   */\n      dup2\n        /* \"#utility.yul\":10221:10241   */\n      sub\n        /* \"#utility.yul\":10217:10218   */\n      0x00\n        /* \"#utility.yul\":10206:10215   */\n      dup4\n        /* \"#utility.yul\":10202:10219   */\n      add\n        /* \"#utility.yul\":10195:10242   */\n      mstore\n        /* \"#utility.yul\":10259:10417   */\n      tag_467\n        /* \"#utility.yul\":10412:10416   */\n      dup2\n        /* \"#utility.yul\":10403:10409   */\n      dup5\n        /* \"#utility.yul\":10259:10417   */\n      tag_336\n      jump\t// in\n    tag_467:\n        /* \"#utility.yul\":10251:10417   */\n      swap1\n      pop\n        /* \"#utility.yul\":9951:10424   */\n      swap3\n      swap2\n      pop\n      pop\n      jump\t// out\n        /* \"#utility.yul\":10430:10520   */\n    tag_337:\n        /* \"#utility.yul\":10464:10471   */\n      0x00\n        /* \"#utility.yul\":10507:10512   */\n      dup2\n        /* \"#utility.yul\":10500:10513   */\n      iszero\n        /* \"#utility.yul\":10493:10514   */\n      iszero\n        /* \"#utility.yul\":10482:10514   */\n      swap1\n      pop\n        /* \"#utility.yul\":10430:10520   */\n      swap2\n      swap1\n      pop\n      jump\t// out\n        /* \"#utility.yul\":10526:10635   */\n    tag_338:\n        /* \"#utility.yul\":10607:10628   */\n      tag_470\n        /* \"#utility.yul\":10622:10627   */\n      dup2\n        /* \"#utility.yul\":10607:10628   */\n      tag_337\n      jump\t// in\n    tag_470:\n        /* \"#utility.yul\":10602:10605   */\n      dup3\n        /* \"#utility.yul\":10595:10629   */\n      mstore\n        /* \"#utility.yul\":10526:10635   */\n      pop\n      pop\n      jump\t// out\n        /* \"#utility.yul\":10641:10851   */\n    tag_35:\n        /* \"#utility.yul\":10728:10732   */\n      0x00\n        /* \"#utility.yul\":10766:10768   */\n      0x20\n        /* \"#utility.yul\":10755:10764   */\n      dup3\n        /* \"#utility.yul\":10751:10769   */\n      add\n        /* \"#utility.yul\":10743:10769   */\n      swap1\n      pop\n        /* \"#utility.yul\":10779:10844   */\n      tag_472\n        /* \"#utility.yul\":10841:10842   */\n      0x00\n        /* \"#utility.yul\":10830:10839   */\n      dup4\n        /* \"#utility.yul\":10826:10843   */\n      add\n        /* \"#utility.yul\":10817:10823   */\n      dup5\n        /* \"#utility.yul\":10779:10844   */\n      tag_338\n      jump\t// in\n    tag_472:\n        /* \"#utility.yul\":10641:10851   */\n      swap3\n      swap2\n      pop\n      pop\n      jump\t// out\n        /* \"#utility.yul\":10857:10974   */\n    tag_339:\n        /* \"#utility.yul\":10966:10967   */\n      0x00\n        /* \"#utility.yul\":10963:10964   */\n      dup1\n        /* \"#utility.yul\":10956:10968   */\n      revert\n        /* \"#utility.yul\":10980:11097   */\n    tag_340:\n        /* \"#utility.yul\":11089:11090   */\n      0x00\n        /* \"#utility.yul\":11086:11087   */\n      dup1\n        /* \"#utility.yul\":11079:11091   */\n      revert\n        /* \"#utility.yul\":11103:11283   */\n    tag_341:\n        /* \"#utility.yul\":11151:11228   */\n      0x4e487b7100000000000000000000000000000000000000000000000000000000\n        /* \"#utility.yul\":11148:11149   */\n      0x00\n        /* \"#utility.yul\":11141:11229   */\n      mstore\n        /* \"#utility.yul\":11248:11252   */\n      0x41\n        /* \"#utility.yul\":11245:11246   */\n      0x04\n        /* \"#utility.yul\":11238:11253   */\n      mstore\n        /* \"#utility.yul\":11272:11276   */\n      0x24\n        /* \"#utility.yul\":11269:11270   */\n      0x00\n        /* \"#utility.yul\":11262:11277   */\n      revert\n        /* \"#utility.yul\":11289:11570   */\n    tag_342:\n        /* \"#utility.yul\":11372:11399   */\n      tag_477\n        /* \"#utility.yul\":11394:11398   */\n      dup3\n        /* \"#utility.yul\":11372:11399   */\n      tag_319\n      jump\t// in\n    tag_477:\n        /* \"#utility.yul\":11364:11370   */\n      dup2\n        /* \"#utility.yul\":11360:11400   */\n      add\n        /* \"#utility.yul\":11502:11508   */\n      dup2\n        /* \"#utility.yul\":11490:11500   */\n      dup2\n        /* \"#utility.yul\":11487:11509   */\n      lt\n        /* \"#utility.yul\":11466:11484   */\n      0xffffffffffffffff\n        /* \"#utility.yul\":11454:11464   */\n      dup3\n        /* \"#utility.yul\":11451:11485   */\n      gt\n        /* \"#utility.yul\":11448:11510   */\n      or\n        /* \"#utility.yul\":11445:11533   */\n      iszero\n      tag_478\n      jumpi\n        /* \"#utility.yul\":11513:11531   */\n      tag_479\n      tag_341\n      jump\t// in\n    tag_479:\n        /* \"#utility.yul\":11445:11533   */\n    tag_478:\n        /* \"#utility.yul\":11553:11563   */\n      dup1\n        /* \"#utility.yul\":11549:11551   */\n      0x40\n        /* \"#utility.yul\":11542:11564   */\n      mstore\n        /* \"#utility.yul\":11332:11570   */\n      pop\n        /* \"#utility.yul\":11289:11570   */\n      pop\n      pop\n      jump\t// out\n        /* \"#utility.yul\":11576:11705   */\n    tag_343:\n        /* \"#utility.yul\":11610:11616   */\n      0x00\n        /* \"#utility.yul\":11637:11657   */\n      tag_481\n      tag_309\n      jump\t// in\n    tag_481:\n        /* \"#utility.yul\":11627:11657   */\n      swap1\n      pop\n        /* \"#utility.yul\":11666:11699   */\n      tag_482\n        /* \"#utility.yul\":11694:11698   */\n      dup3\n        /* \"#utility.yul\":11686:11692   */\n      dup3\n        /* \"#utility.yul\":11666:11699   */\n      tag_342\n      jump\t// in\n    tag_482:\n        /* \"#utility.yul\":11576:11705   */\n      swap2\n      swap1\n      pop\n      jump\t// out\n        /* \"#utility.yul\":11711:12019   */\n    tag_344:\n        /* \"#utility.yul\":11773:11777   */\n      0x00\n        /* \"#utility.yul\":11863:11881   */\n      0xffffffffffffffff\n        /* \"#utility.yul\":11855:11861   */\n      dup3\n        /* \"#utility.yul\":11852:11882   */\n      gt\n        /* \"#utility.yul\":11849:11905   */\n      iszero\n      tag_484\n      jumpi\n        /* \"#utility.yul\":11885:11903   */\n      tag_485\n      tag_341\n      jump\t// in\n    tag_485:\n        /* \"#utility.yul\":11849:11905   */\n    tag_484:\n        /* \"#utility.yul\":11923:11952   */\n      tag_486\n        /* \"#utility.yul\":11945:11951   */\n      dup3\n        /* \"#utility.yul\":11923:11952   */\n      tag_319\n      jump\t// in\n    tag_486:\n        /* \"#utility.yul\":11915:11952   */\n      swap1\n      pop\n        /* \"#utility.yul\":12007:12011   */\n      0x20\n        /* \"#utility.yul\":12001:12005   */\n      dup2\n        /* \"#utility.yul\":11997:12012   */\n      add\n        /* \"#utility.yul\":11989:12012   */\n      swap1\n      pop\n        /* \"#utility.yul\":11711:12019   */\n      swap2\n      swap1\n      pop\n      jump\t// out\n        /* \"#utility.yul\":12025:12173   */\n    tag_345:\n        /* \"#utility.yul\":12123:12129   */\n      dup3\n        /* \"#utility.yul\":12118:12121   */\n      dup2\n        /* \"#utility.yul\":12113:12116   */\n      dup4\n        /* \"#utility.yul\":12100:12130   */\n      calldatacopy\n        /* \"#utility.yul\":12164:12165   */\n      0x00\n        /* \"#utility.yul\":12155:12161   */\n      dup4\n        /* \"#utility.yul\":12150:12153   */\n      dup4\n        /* \"#utility.yul\":12146:12162   */\n      add\n        /* \"#utility.yul\":12139:12166   */\n      mstore\n        /* \"#utility.yul\":12025:12173   */\n      pop\n      pop\n      pop\n      jump\t// out\n        /* \"#utility.yul\":12179:12604   */\n    tag_346:\n        /* \"#utility.yul\":12257:12262   */\n      0x00\n        /* \"#utility.yul\":12282:12348   */\n      tag_489\n        /* \"#utility.yul\":12298:12347   */\n      tag_490\n        /* \"#utility.yul\":12340:12346   */\n      dup5\n        /* \"#utility.yul\":12298:12347   */\n      tag_344\n      jump\t// in\n    tag_490:\n        /* \"#utility.yul\":12282:12348   */\n      tag_343\n      jump\t// in\n    tag_489:\n        /* \"#utility.yul\":12273:12348   */\n      swap1\n      pop\n        /* \"#utility.yul\":12371:12377   */\n      dup3\n        /* \"#utility.yul\":12364:12369   */\n      dup2\n        /* \"#utility.yul\":12357:12378   */\n      mstore\n        /* \"#utility.yul\":12409:12413   */\n      0x20\n        /* \"#utility.yul\":12402:12407   */\n      dup2\n        /* \"#utility.yul\":12398:12414   */\n      add\n        /* \"#utility.yul\":12447:12450   */\n      dup5\n        /* \"#utility.yul\":12438:12444   */\n      dup5\n        /* \"#utility.yul\":12433:12436   */\n      dup5\n        /* \"#utility.yul\":12429:12445   */\n      add\n        /* \"#utility.yul\":12426:12451   */\n      gt\n        /* \"#utility.yul\":12423:12535   */\n      iszero\n      tag_491\n      jumpi\n        /* \"#utility.yul\":12454:12533   */\n      tag_492\n      tag_340\n      jump\t// in\n    tag_492:\n        /* \"#utility.yul\":12423:12535   */\n    tag_491:\n        /* \"#utility.yul\":12544:12598   */\n      tag_493\n        /* \"#utility.yul\":12591:12597   */\n      dup5\n        /* \"#utility.yul\":12586:12589   */\n      dup3\n        /* \"#utility.yul\":12581:12584   */\n      dup6\n        /* \"#utility.yul\":12544:12598   */\n      tag_345\n      jump\t// in\n    tag_493:\n        /* \"#utility.yul\":12263:12604   */\n      pop\n        /* \"#utility.yul\":12179:12604   */\n      swap4\n      swap3\n      pop\n      pop\n      pop\n      jump\t// out\n        /* \"#utility.yul\":12624:12964   */\n    tag_347:\n        /* \"#utility.yul\":12680:12685   */\n      0x00\n        /* \"#utility.yul\":12729:12732   */\n      dup3\n        /* \"#utility.yul\":12722:12726   */\n      0x1f\n        /* \"#utility.yul\":12714:12720   */\n      dup4\n        /* \"#utility.yul\":12710:12727   */\n      add\n        /* \"#utility.yul\":12706:12733   */\n      slt\n        /* \"#utility.yul\":12696:12818   */\n      tag_495\n      jumpi\n        /* \"#utility.yul\":12737:12816   */\n      tag_496\n      tag_339\n      jump\t// in\n    tag_496:\n        /* \"#utility.yul\":12696:12818   */\n    tag_495:\n        /* \"#utility.yul\":12854:12860   */\n      dup2\n        /* \"#utility.yul\":12841:12861   */\n      calldataload\n        /* \"#utility.yul\":12879:12958   */\n      tag_497\n        /* \"#utility.yul\":12954:12957   */\n      dup5\n        /* \"#utility.yul\":12946:12952   */\n      dup3\n        /* \"#utility.yul\":12939:12943   */\n      0x20\n        /* \"#utility.yul\":12931:12937   */\n      dup7\n        /* \"#utility.yul\":12927:12944   */\n      add\n        /* \"#utility.yul\":12879:12958   */\n      tag_346\n      jump\t// in\n    tag_497:\n        /* \"#utility.yul\":12870:12958   */\n      swap2\n      pop\n        /* \"#utility.yul\":12686:12964   */\n      pop\n        /* \"#utility.yul\":12624:12964   */\n      swap3\n      swap2\n      pop\n      pop\n      jump\t// out\n        /* \"#utility.yul\":12970:14275   */\n    tag_38:\n        /* \"#utility.yul\":13086:13092   */\n      0x00\n        /* \"#utility.yul\":13094:13100   */\n      dup1\n        /* \"#utility.yul\":13102:13108   */\n      0x00\n        /* \"#utility.yul\":13110:13116   */\n      dup1\n        /* \"#utility.yul\":13159:13162   */\n      0x80\n        /* \"#utility.yul\":13147:13156   */\n      dup6\n        /* \"#utility.yul\":13138:13145   */\n      dup8\n        /* \"#utility.yul\":13134:13157   */\n      sub\n        /* \"#utility.yul\":13130:13163   */\n      slt\n        /* \"#utility.yul\":13127:13247   */\n      iszero\n      tag_499\n      jumpi\n        /* \"#utility.yul\":13166:13245   */\n      tag_500\n      tag_310\n      jump\t// in\n    tag_500:\n        /* \"#utility.yul\":13127:13247   */\n    tag_499:\n        /* \"#utility.yul\":13314:13315   */\n      0x00\n        /* \"#utility.yul\":13303:13312   */\n      dup6\n        /* \"#utility.yul\":13299:13316   */\n      add\n        /* \"#utility.yul\":13286:13317   */\n      calldataload\n        /* \"#utility.yul\":13344:13362   */\n      0xffffffffffffffff\n        /* \"#utility.yul\":13336:13342   */\n      dup2\n        /* \"#utility.yul\":13333:13363   */\n      gt\n        /* \"#utility.yul\":13330:13447   */\n      iszero\n      tag_501\n      jumpi\n        /* \"#utility.yul\":13366:13445   */\n      tag_502\n      tag_311\n      jump\t// in\n    tag_502:\n        /* \"#utility.yul\":13330:13447   */\n    tag_501:\n        /* \"#utility.yul\":13471:13534   */\n      tag_503\n        /* \"#utility.yul\":13526:13533   */\n      dup8\n        /* \"#utility.yul\":13517:13523   */\n      dup3\n        /* \"#utility.yul\":13506:13515   */\n      dup9\n        /* \"#utility.yul\":13502:13524   */\n      add\n        /* \"#utility.yul\":13471:13534   */\n      tag_347\n      jump\t// in\n    tag_503:\n        /* \"#utility.yul\":13461:13534   */\n      swap5\n      pop\n        /* \"#utility.yul\":13257:13544   */\n      pop\n        /* \"#utility.yul\":13611:13613   */\n      0x20\n        /* \"#utility.yul\":13600:13609   */\n      dup6\n        /* \"#utility.yul\":13596:13614   */\n      add\n        /* \"#utility.yul\":13583:13615   */\n      calldataload\n        /* \"#utility.yul\":13642:13660   */\n      0xffffffffffffffff\n        /* \"#utility.yul\":13634:13640   */\n      dup2\n        /* \"#utility.yul\":13631:13661   */\n      gt\n        /* \"#utility.yul\":13628:13745   */\n      iszero\n      tag_504\n      jumpi\n        /* \"#utility.yul\":13664:13743   */\n      tag_505\n      tag_311\n      jump\t// in\n    tag_505:\n        /* \"#utility.yul\":13628:13745   */\n    tag_504:\n        /* \"#utility.yul\":13769:13832   */\n      tag_506\n        /* \"#utility.yul\":13824:13831   */\n      dup8\n        /* \"#utility.yul\":13815:13821   */\n      dup3\n        /* \"#utility.yul\":13804:13813   */\n      dup9\n        /* \"#utility.yul\":13800:13822   */\n      add\n        /* \"#utility.yul\":13769:13832   */\n      tag_347\n      jump\t// in\n    tag_506:\n        /* \"#utility.yul\":13759:13832   */\n      swap4\n      pop\n        /* \"#utility.yul\":13554:13842   */\n      pop\n        /* \"#utility.yul\":13909:13911   */\n      0x40\n        /* \"#utility.yul\":13898:13907   */\n      dup6\n        /* \"#utility.yul\":13894:13912   */\n      add\n        /* \"#utility.yul\":13881:13913   */\n      calldataload\n        /* \"#utility.yul\":13940:13958   */\n      0xffffffffffffffff\n        /* \"#utility.yul\":13932:13938   */\n      dup2\n        /* \"#utility.yul\":13929:13959   */\n      gt\n        /* \"#utility.yul\":13926:14043   */\n      iszero\n      tag_507\n      jumpi\n        /* \"#utility.yul\":13962:14041   */\n      tag_508\n      tag_311\n      jump\t// in\n    tag_508:\n        /* \"#utility.yul\":13926:14043   */\n    tag_507:\n        /* \"#utility.yul\":14067:14130   */\n      tag_509\n        /* \"#utility.yul\":14122:14129   */\n      dup8\n        /* \"#utility.yul\":14113:14119   */\n      dup3\n        /* \"#utility.yul\":14102:14111   */\n      dup9\n        /* \"#utility.yul\":14098:14120   */\n      add\n        /* \"#utility.yul\":14067:14130   */\n      tag_347\n      jump\t// in\n    tag_509:\n        /* \"#utility.yul\":14057:14130   */\n      swap3\n      pop\n        /* \"#utility.yul\":13852:14140   */\n      pop\n        /* \"#utility.yul\":14179:14181   */\n      0x60\n        /* \"#utility.yul\":14205:14258   */\n      tag_510\n        /* \"#utility.yul\":14250:14257   */\n      dup8\n        /* \"#utility.yul\":14241:14247   */\n      dup3\n        /* \"#utility.yul\":14230:14239   */\n      dup9\n        /* \"#utility.yul\":14226:14248   */\n      add\n        /* \"#utility.yul\":14205:14258   */\n      tag_314\n      jump\t// in\n    tag_510:\n        /* \"#utility.yul\":14195:14258   */\n      swap2\n      pop\n        /* \"#utility.yul\":14150:14268   */\n      pop\n        /* \"#utility.yul\":12970:14275   */\n      swap3\n      swap6\n      swap2\n      swap5\n      pop\n      swap3\n      pop\n      jump\t// out\n        /* \"#utility.yul\":14281:14503   */\n    tag_45:\n        /* \"#utility.yul\":14374:14378   */\n      0x00\n        /* \"#utility.yul\":14412:14414   */\n      0x20\n        /* \"#utility.yul\":14401:14410   */\n      dup3\n        /* \"#utility.yul\":14397:14415   */\n      add\n        /* \"#utility.yul\":14389:14415   */\n      swap1\n      pop\n        /* \"#utility.yul\":14425:14496   */\n      tag_512\n        /* \"#utility.yul\":14493:14494   */\n      0x00\n        /* \"#utility.yul\":14482:14491   */\n      dup4\n        /* \"#utility.yul\":14478:14495   */\n      add\n        /* \"#utility.yul\":14469:14475   */\n      dup5\n        /* \"#utility.yul\":14425:14496   */\n      tag_323\n      jump\t// in\n    tag_512:\n        /* \"#utility.yul\":14281:14503   */\n      swap3\n      swap2\n      pop\n      pop\n      jump\t// out\n        /* \"#utility.yul\":14509:14983   */\n    tag_48:\n        /* \"#utility.yul\":14577:14583   */\n      0x00\n        /* \"#utility.yul\":14585:14591   */\n      dup1\n        /* \"#utility.yul\":14634:14636   */\n      0x40\n        /* \"#utility.yul\":14622:14631   */\n      dup4\n        /* \"#utility.yul\":14613:14620   */\n      dup6\n        /* \"#utility.yul\":14609:14632   */\n      sub\n        /* \"#utility.yul\":14605:14637   */\n      slt\n        /* \"#utility.yul\":14602:14721   */\n      iszero\n      tag_514\n      jumpi\n        /* \"#utility.yul\":14640:14719   */\n      tag_515\n      tag_310\n      jump\t// in\n    tag_515:\n        /* \"#utility.yul\":14602:14721   */\n    tag_514:\n        /* \"#utility.yul\":14760:14761   */\n      0x00\n        /* \"#utility.yul\":14785:14838   */\n      tag_516\n        /* \"#utility.yul\":14830:14837   */\n      dup6\n        /* \"#utility.yul\":14821:14827   */\n      dup3\n        /* \"#utility.yul\":14810:14819   */\n      dup7\n        /* \"#utility.yul\":14806:14828   */\n      add\n        /* \"#utility.yul\":14785:14838   */\n      tag_325\n      jump\t// in\n    tag_516:\n        /* \"#utility.yul\":14775:14838   */\n      swap3\n      pop\n        /* \"#utility.yul\":14731:14848   */\n      pop\n        /* \"#utility.yul\":14887:14889   */\n      0x20\n        /* \"#utility.yul\":14913:14966   */\n      tag_517\n        /* \"#utility.yul\":14958:14965   */\n      dup6\n        /* \"#utility.yul\":14949:14955   */\n      dup3\n        /* \"#utility.yul\":14938:14947   */\n      dup7\n        /* \"#utility.yul\":14934:14956   */\n      add\n        /* \"#utility.yul\":14913:14966   */\n      tag_314\n      jump\t// in\n    tag_517:\n        /* \"#utility.yul\":14903:14966   */\n      swap2\n      pop\n        /* \"#utility.yul\":14858:14976   */\n      pop\n        /* \"#utility.yul\":14509:14983   */\n      swap3\n      pop\n      swap3\n      swap1\n      pop\n      jump\t// out\n        /* \"#utility.yul\":14989:15503   */\n    tag_59:\n        /* \"#utility.yul\":15150:15154   */\n      0x00\n        /* \"#utility.yul\":15188:15190   */\n      0x40\n        /* \"#utility.yul\":15177:15186   */\n      dup3\n        /* \"#utility.yul\":15173:15191   */\n      add\n        /* \"#utility.yul\":15165:15191   */\n      swap1\n      pop\n        /* \"#utility.yul\":15237:15246   */\n      dup2\n        /* \"#utility.yul\":15231:15235   */\n      dup2\n        /* \"#utility.yul\":15227:15247   */\n      sub\n        /* \"#utility.yul\":15223:15224   */\n      0x00\n        /* \"#utility.yul\":15212:15221   */\n      dup4\n        /* \"#utility.yul\":15208:15225   */\n      add\n        /* \"#utility.yul\":15201:15248   */\n      mstore\n        /* \"#utility.yul\":15265:15343   */\n      tag_519\n        /* \"#utility.yul\":15338:15342   */\n      dup2\n        /* \"#utility.yul\":15329:15335   */\n      dup6\n        /* \"#utility.yul\":15265:15343   */\n      tag_320\n      jump\t// in\n    tag_519:\n        /* \"#utility.yul\":15257:15343   */\n      swap1\n      pop\n        /* \"#utility.yul\":15390:15399   */\n      dup2\n        /* \"#utility.yul\":15384:15388   */\n      dup2\n        /* \"#utility.yul\":15380:15400   */\n      sub\n        /* \"#utility.yul\":15375:15377   */\n      0x20\n        /* \"#utility.yul\":15364:15373   */\n      dup4\n        /* \"#utility.yul\":15360:15378   */\n      add\n        /* \"#utility.yul\":15353:15401   */\n      mstore\n        /* \"#utility.yul\":15418:15496   */\n      tag_520\n        /* \"#utility.yul\":15491:15495   */\n      dup2\n        /* \"#utility.yul\":15482:15488   */\n      dup5\n        /* \"#utility.yul\":15418:15496   */\n      tag_320\n      jump\t// in\n    tag_520:\n        /* \"#utility.yul\":15410:15496   */\n      swap1\n      pop\n        /* \"#utility.yul\":14989:15503   */\n      swap4\n      swap3\n      pop\n      pop\n      pop\n      jump\t// out\n        /* \"#utility.yul\":15509:15626   */\n    tag_348:\n        /* \"#utility.yul\":15618:15619   */\n      0x00\n        /* \"#utility.yul\":15615:15616   */\n      dup1\n        /* \"#utility.yul\":15608:15620   */\n      revert\n        /* \"#utility.yul\":15632:15749   */\n    tag_349:\n        /* \"#utility.yul\":15741:15742   */\n      0x00\n        /* \"#utility.yul\":15738:15739   */\n      dup1\n        /* \"#utility.yul\":15731:15743   */\n      revert\n        /* \"#utility.yul\":15755:16189   */\n    tag_350:\n        /* \"#utility.yul\":15844:15849   */\n      0x00\n        /* \"#utility.yul\":15869:15935   */\n      tag_524\n        /* \"#utility.yul\":15885:15934   */\n      tag_525\n        /* \"#utility.yul\":15927:15933   */\n      dup5\n        /* \"#utility.yul\":15885:15934   */\n      tag_344\n      jump\t// in\n    tag_525:\n        /* \"#utility.yul\":15869:15935   */\n      tag_343\n      jump\t// in\n    tag_524:\n        /* \"#utility.yul\":15860:15935   */\n      swap1\n      pop\n        /* \"#utility.yul\":15958:15964   */\n      dup3\n        /* \"#utility.yul\":15951:15956   */\n      dup2\n        /* \"#utility.yul\":15944:15965   */\n      mstore\n        /* \"#utility.yul\":15996:16000   */\n      0x20\n        /* \"#utility.yul\":15989:15994   */\n      dup2\n        /* \"#utility.yul\":15985:16001   */\n      add\n        /* \"#utility.yul\":16034:16037   */\n      dup5\n        /* \"#utility.yul\":16025:16031   */\n      dup5\n        /* \"#utility.yul\":16020:16023   */\n      dup5\n        /* \"#utility.yul\":16016:16032   */\n      add\n        /* \"#utility.yul\":16013:16038   */\n      gt\n        /* \"#utility.yul\":16010:16122   */\n      iszero\n      tag_526\n      jumpi\n        /* \"#utility.yul\":16041:16120   */\n      tag_527\n      tag_340\n      jump\t// in\n    tag_527:\n        /* \"#utility.yul\":16010:16122   */\n    tag_526:\n        /* \"#utility.yul\":16131:16183   */\n      tag_528\n        /* \"#utility.yul\":16176:16182   */\n      dup5\n        /* \"#utility.yul\":16171:16174   */\n      dup3\n        /* \"#utility.yul\":16166:16169   */\n      dup6\n        /* \"#utility.yul\":16131:16183   */\n      tag_318\n      jump\t// in\n    tag_528:\n        /* \"#utility.yul\":15850:16189   */\n      pop\n        /* \"#utility.yul\":15755:16189   */\n      swap4\n      swap3\n      pop\n      pop\n      pop\n      jump\t// out\n        /* \"#utility.yul\":16209:16564   */\n    tag_351:\n        /* \"#utility.yul\":16276:16281   */\n      0x00\n        /* \"#utility.yul\":16325:16328   */\n      dup3\n        /* \"#utility.yul\":16318:16322   */\n      0x1f\n        /* \"#utility.yul\":16310:16316   */\n      dup4\n        /* \"#utility.yul\":16306:16323   */\n      add\n        /* \"#utility.yul\":16302:16329   */\n      slt\n        /* \"#utility.yul\":16292:16414   */\n      tag_530\n      jumpi\n        /* \"#utility.yul\":16333:16412   */\n      tag_531\n      tag_339\n      jump\t// in\n    tag_531:\n        /* \"#utility.yul\":16292:16414   */\n    tag_530:\n        /* \"#utility.yul\":16443:16449   */\n      dup2\n        /* \"#utility.yul\":16437:16450   */\n      mload\n        /* \"#utility.yul\":16468:16558   */\n      tag_532\n        /* \"#utility.yul\":16554:16557   */\n      dup5\n        /* \"#utility.yul\":16546:16552   */\n      dup3\n        /* \"#utility.yul\":16539:16543   */\n      0x20\n        /* \"#utility.yul\":16531:16537   */\n      dup7\n        /* \"#utility.yul\":16527:16544   */\n      add\n        /* \"#utility.yul\":16468:16558   */\n      tag_350\n      jump\t// in\n    tag_532:\n        /* \"#utility.yul\":16459:16558   */\n      swap2\n      pop\n        /* \"#utility.yul\":16282:16564   */\n      pop\n        /* \"#utility.yul\":16209:16564   */\n      swap3\n      swap2\n      pop\n      pop\n      jump\t// out\n        /* \"#utility.yul\":16570:16686   */\n    tag_352:\n        /* \"#utility.yul\":16640:16661   */\n      tag_534\n        /* \"#utility.yul\":16655:16660   */\n      dup2\n        /* \"#utility.yul\":16640:16661   */\n      tag_337\n      jump\t// in\n    tag_534:\n        /* \"#utility.yul\":16633:16638   */\n      dup2\n        /* \"#utility.yul\":16630:16662   */\n      eq\n        /* \"#utility.yul\":16620:16680   */\n      tag_535\n      jumpi\n        /* \"#utility.yul\":16676:16677   */\n      0x00\n        /* \"#utility.yul\":16673:16674   */\n      dup1\n        /* \"#utility.yul\":16666:16678   */\n      revert\n        /* \"#utility.yul\":16620:16680   */\n    tag_535:\n        /* \"#utility.yul\":16570:16686   */\n      pop\n      jump\t// out\n        /* \"#utility.yul\":16692:16829   */\n    tag_353:\n        /* \"#utility.yul\":16746:16751   */\n      0x00\n        /* \"#utility.yul\":16777:16783   */\n      dup2\n        /* \"#utility.yul\":16771:16784   */\n      mload\n        /* \"#utility.yul\":16762:16784   */\n      swap1\n      pop\n        /* \"#utility.yul\":16793:16823   */\n      tag_537\n        /* \"#utility.yul\":16817:16822   */\n      dup2\n        /* \"#utility.yul\":16793:16823   */\n      tag_352\n      jump\t// in\n    tag_537:\n        /* \"#utility.yul\":16692:16829   */\n      swap3\n      swap2\n      pop\n      pop\n      jump\t// out\n        /* \"#utility.yul\":16866:18319   */\n    tag_354:\n        /* \"#utility.yul\":16950:16955   */\n      0x00\n        /* \"#utility.yul\":16994:16998   */\n      0x80\n        /* \"#utility.yul\":16982:16991   */\n      dup3\n        /* \"#utility.yul\":16977:16980   */\n      dup5\n        /* \"#utility.yul\":16973:16992   */\n      sub\n        /* \"#utility.yul\":16969:16999   */\n      slt\n        /* \"#utility.yul\":16966:17083   */\n      iszero\n      tag_539\n      jumpi\n        /* \"#utility.yul\":17002:17081   */\n      tag_540\n      tag_348\n      jump\t// in\n    tag_540:\n        /* \"#utility.yul\":16966:17083   */\n    tag_539:\n        /* \"#utility.yul\":17101:17122   */\n      tag_541\n        /* \"#utility.yul\":17117:17121   */\n      0x80\n        /* \"#utility.yul\":17101:17122   */\n      tag_343\n      jump\t// in\n    tag_541:\n        /* \"#utility.yul\":17092:17122   */\n      swap1\n      pop\n        /* \"#utility.yul\":17206:17207   */\n      0x00\n        /* \"#utility.yul\":17195:17204   */\n      dup3\n        /* \"#utility.yul\":17191:17208   */\n      add\n        /* \"#utility.yul\":17185:17209   */\n      mload\n        /* \"#utility.yul\":17236:17254   */\n      0xffffffffffffffff\n        /* \"#utility.yul\":17228:17234   */\n      dup2\n        /* \"#utility.yul\":17225:17255   */\n      gt\n        /* \"#utility.yul\":17222:17339   */\n      iszero\n      tag_542\n      jumpi\n        /* \"#utility.yul\":17258:17337   */\n      tag_543\n      tag_349\n      jump\t// in\n    tag_543:\n        /* \"#utility.yul\":17222:17339   */\n    tag_542:\n        /* \"#utility.yul\":17378:17448   */\n      tag_544\n        /* \"#utility.yul\":17444:17447   */\n      dup5\n        /* \"#utility.yul\":17435:17441   */\n      dup3\n        /* \"#utility.yul\":17424:17433   */\n      dup6\n        /* \"#utility.yul\":17420:17442   */\n      add\n        /* \"#utility.yul\":17378:17448   */\n      tag_351\n      jump\t// in\n    tag_544:\n        /* \"#utility.yul\":17371:17375   */\n      0x00\n        /* \"#utility.yul\":17364:17369   */\n      dup4\n        /* \"#utility.yul\":17360:17376   */\n      add\n        /* \"#utility.yul\":17353:17449   */\n      mstore\n        /* \"#utility.yul\":17132:17460   */\n      pop\n        /* \"#utility.yul\":17539:17541   */\n      0x20\n        /* \"#utility.yul\":17528:17537   */\n      dup3\n        /* \"#utility.yul\":17524:17542   */\n      add\n        /* \"#utility.yul\":17518:17543   */\n      mload\n        /* \"#utility.yul\":17570:17588   */\n      0xffffffffffffffff\n        /* \"#utility.yul\":17562:17568   */\n      dup2\n        /* \"#utility.yul\":17559:17589   */\n      gt\n        /* \"#utility.yul\":17556:17673   */\n      iszero\n      tag_545\n      jumpi\n        /* \"#utility.yul\":17592:17671   */\n      tag_546\n      tag_349\n      jump\t// in\n    tag_546:\n        /* \"#utility.yul\":17556:17673   */\n    tag_545:\n        /* \"#utility.yul\":17712:17782   */\n      tag_547\n        /* \"#utility.yul\":17778:17781   */\n      dup5\n        /* \"#utility.yul\":17769:17775   */\n      dup3\n        /* \"#utility.yul\":17758:17767   */\n      dup6\n        /* \"#utility.yul\":17754:17776   */\n      add\n        /* \"#utility.yul\":17712:17782   */\n      tag_351\n      jump\t// in\n    tag_547:\n        /* \"#utility.yul\":17705:17709   */\n      0x20\n        /* \"#utility.yul\":17698:17703   */\n      dup4\n        /* \"#utility.yul\":17694:17710   */\n      add\n        /* \"#utility.yul\":17687:17783   */\n      mstore\n        /* \"#utility.yul\":17470:17794   */\n      pop\n        /* \"#utility.yul\":17880:17882   */\n      0x40\n        /* \"#utility.yul\":17869:17878   */\n      dup3\n        /* \"#utility.yul\":17865:17883   */\n      add\n        /* \"#utility.yul\":17859:17884   */\n      mload\n        /* \"#utility.yul\":17911:17929   */\n      0xffffffffffffffff\n        /* \"#utility.yul\":17903:17909   */\n      dup2\n        /* \"#utility.yul\":17900:17930   */\n      gt\n        /* \"#utility.yul\":17897:18014   */\n      iszero\n      tag_548\n      jumpi\n        /* \"#utility.yul\":17933:18012   */\n      tag_549\n      tag_349\n      jump\t// in\n    tag_549:\n        /* \"#utility.yul\":17897:18014   */\n    tag_548:\n        /* \"#utility.yul\":18053:18123   */\n      tag_550\n        /* \"#utility.yul\":18119:18122   */\n      dup5\n        /* \"#utility.yul\":18110:18116   */\n      dup3\n        /* \"#utility.yul\":18099:18108   */\n      dup6\n        /* \"#utility.yul\":18095:18117   */\n      add\n        /* \"#utility.yul\":18053:18123   */\n      tag_351\n      jump\t// in\n    tag_550:\n        /* \"#utility.yul\":18046:18050   */\n      0x40\n        /* \"#utility.yul\":18039:18044   */\n      dup4\n        /* \"#utility.yul\":18035:18051   */\n      add\n        /* \"#utility.yul\":18028:18124   */\n      mstore\n        /* \"#utility.yul\":17804:18135   */\n      pop\n        /* \"#utility.yul\":18202:18204   */\n      0x60\n        /* \"#utility.yul\":18243:18300   */\n      tag_551\n        /* \"#utility.yul\":18296:18299   */\n      dup5\n        /* \"#utility.yul\":18287:18293   */\n      dup3\n        /* \"#utility.yul\":18276:18285   */\n      dup6\n        /* \"#utility.yul\":18272:18294   */\n      add\n        /* \"#utility.yul\":18243:18300   */\n      tag_353\n      jump\t// in\n    tag_551:\n        /* \"#utility.yul\":18236:18240   */\n      0x60\n        /* \"#utility.yul\":18229:18234   */\n      dup4\n        /* \"#utility.yul\":18225:18241   */\n      add\n        /* \"#utility.yul\":18218:18301   */\n      mstore\n        /* \"#utility.yul\":18145:18312   */\n      pop\n        /* \"#utility.yul\":16866:18319   */\n      swap3\n      swap2\n      pop\n      pop\n      jump\t// out\n        /* \"#utility.yul\":18325:18877   */\n    tag_71:\n        /* \"#utility.yul\":18419:18425   */\n      0x00\n        /* \"#utility.yul\":18468:18470   */\n      0x20\n        /* \"#utility.yul\":18456:18465   */\n      dup3\n        /* \"#utility.yul\":18447:18454   */\n      dup5\n        /* \"#utility.yul\":18443:18466   */\n      sub\n        /* \"#utility.yul\":18439:18471   */\n      slt\n        /* \"#utility.yul\":18436:18555   */\n      iszero\n      tag_553\n      jumpi\n        /* \"#utility.yul\":18474:18553   */\n      tag_554\n      tag_310\n      jump\t// in\n    tag_554:\n        /* \"#utility.yul\":18436:18555   */\n    tag_553:\n        /* \"#utility.yul\":18615:18616   */\n      0x00\n        /* \"#utility.yul\":18604:18613   */\n      dup3\n        /* \"#utility.yul\":18600:18617   */\n      add\n        /* \"#utility.yul\":18594:18618   */\n      mload\n        /* \"#utility.yul\":18645:18663   */\n      0xffffffffffffffff\n        /* \"#utility.yul\":18637:18643   */\n      dup2\n        /* \"#utility.yul\":18634:18664   */\n      gt\n        /* \"#utility.yul\":18631:18748   */\n      iszero\n      tag_555\n      jumpi\n        /* \"#utility.yul\":18667:18746   */\n      tag_556\n      tag_311\n      jump\t// in\n    tag_556:\n        /* \"#utility.yul\":18631:18748   */\n    tag_555:\n        /* \"#utility.yul\":18772:18860   */\n      tag_557\n        /* \"#utility.yul\":18852:18859   */\n      dup5\n        /* \"#utility.yul\":18843:18849   */\n      dup3\n        /* \"#utility.yul\":18832:18841   */\n      dup6\n        /* \"#utility.yul\":18828:18850   */\n      add\n        /* \"#utility.yul\":18772:18860   */\n      tag_354\n      jump\t// in\n    tag_557:\n        /* \"#utility.yul\":18762:18860   */\n      swap2\n      pop\n        /* \"#utility.yul\":18565:18870   */\n      pop\n        /* \"#utility.yul\":18325:18877   */\n      swap3\n      swap2\n      pop\n      pop\n      jump\t// out\n        /* \"#utility.yul\":18883:19054   */\n    tag_355:\n        /* \"#utility.yul\":19023:19046   */\n      0x596f75206861766520746f205265676973746572640000000000000000000000\n        /* \"#utility.yul\":19019:19020   */\n      0x00\n        /* \"#utility.yul\":19011:19017   */\n      dup3\n        /* \"#utility.yul\":19007:19021   */\n      add\n        /* \"#utility.yul\":19000:19047   */\n      mstore\n        /* \"#utility.yul\":18883:19054   */\n      pop\n      jump\t// out\n        /* \"#utility.yul\":19060:19426   */\n    tag_356:\n        /* \"#utility.yul\":19202:19205   */\n      0x00\n        /* \"#utility.yul\":19223:19290   */\n      tag_560\n        /* \"#utility.yul\":19287:19289   */\n      0x15\n        /* \"#utility.yul\":19282:19285   */\n      dup4\n        /* \"#utility.yul\":19223:19290   */\n      tag_317\n      jump\t// in\n    tag_560:\n        /* \"#utility.yul\":19216:19290   */\n      swap2\n      pop\n        /* \"#utility.yul\":19299:19392   */\n      tag_561\n        /* \"#utility.yul\":19388:19391   */\n      dup3\n        /* \"#utility.yul\":19299:19392   */\n      tag_355\n      jump\t// in\n    tag_561:\n        /* \"#utility.yul\":19417:19419   */\n      0x20\n        /* \"#utility.yul\":19412:19415   */\n      dup3\n        /* \"#utility.yul\":19408:19420   */\n      add\n        /* \"#utility.yul\":19401:19420   */\n      swap1\n      pop\n        /* \"#utility.yul\":19060:19426   */\n      swap2\n      swap1\n      pop\n      jump\t// out\n        /* \"#utility.yul\":19432:19851   */\n    tag_74:\n        /* \"#utility.yul\":19598:19602   */\n      0x00\n        /* \"#utility.yul\":19636:19638   */\n      0x20\n        /* \"#utility.yul\":19625:19634   */\n      dup3\n        /* \"#utility.yul\":19621:19639   */\n      add\n        /* \"#utility.yul\":19613:19639   */\n      swap1\n      pop\n        /* \"#utility.yul\":19685:19694   */\n      dup2\n        /* \"#utility.yul\":19679:19683   */\n      dup2\n        /* \"#utility.yul\":19675:19695   */\n      sub\n        /* \"#utility.yul\":19671:19672   */\n      0x00\n        /* \"#utility.yul\":19660:19669   */\n      dup4\n        /* \"#utility.yul\":19656:19673   */\n      add\n        /* \"#utility.yul\":19649:19696   */\n      mstore\n        /* \"#utility.yul\":19713:19844   */\n      tag_563\n        /* \"#utility.yul\":19839:19843   */\n      dup2\n        /* \"#utility.yul\":19713:19844   */\n      tag_356\n      jump\t// in\n    tag_563:\n        /* \"#utility.yul\":19705:19844   */\n      swap1\n      pop\n        /* \"#utility.yul\":19432:19851   */\n      swap2\n      swap1\n      pop\n      jump\t// out\n        /* \"#utility.yul\":19857:20029   */\n    tag_357:\n        /* \"#utility.yul\":19997:20021   */\n      0x596f752061726520616c726561647920566f7465642100000000000000000000\n        /* \"#utility.yul\":19993:19994   */\n      0x00\n        /* \"#utility.yul\":19985:19991   */\n      dup3\n        /* \"#utility.yul\":19981:19995   */\n      add\n        /* \"#utility.yul\":19974:20022   */\n      mstore\n        /* \"#utility.yul\":19857:20029   */\n      pop\n      jump\t// out\n        /* \"#utility.yul\":20035:20401   */\n    tag_358:\n        /* \"#utility.yul\":20177:20180   */\n      0x00\n        /* \"#utility.yul\":20198:20265   */\n      tag_566\n        /* \"#utility.yul\":20262:20264   */\n      0x16\n        /* \"#utility.yul\":20257:20260   */\n      dup4\n        /* \"#utility.yul\":20198:20265   */\n      tag_317\n      jump\t// in\n    tag_566:\n        /* \"#utility.yul\":20191:20265   */\n      swap2\n      pop\n        /* \"#utility.yul\":20274:20367   */\n      tag_567\n        /* \"#utility.yul\":20363:20366   */\n      dup3\n        /* \"#utility.yul\":20274:20367   */\n      tag_357\n      jump\t// in\n    tag_567:\n        /* \"#utility.yul\":20392:20394   */\n      0x20\n        /* \"#utility.yul\":20387:20390   */\n      dup3\n        /* \"#utility.yul\":20383:20395   */\n      add\n        /* \"#utility.yul\":20376:20395   */\n      swap1\n      pop\n        /* \"#utility.yul\":20035:20401   */\n      swap2\n      swap1\n      pop\n      jump\t// out\n        /* \"#utility.yul\":20407:20826   */\n    tag_78:\n        /* \"#utility.yul\":20573:20577   */\n      0x00\n        /* \"#utility.yul\":20611:20613   */\n      0x20\n        /* \"#utility.yul\":20600:20609   */\n      dup3\n        /* \"#utility.yul\":20596:20614   */\n      add\n        /* \"#utility.yul\":20588:20614   */\n      swap1\n      pop\n        /* \"#utility.yul\":20660:20669   */\n      dup2\n        /* \"#utility.yul\":20654:20658   */\n      dup2\n        /* \"#utility.yul\":20650:20670   */\n      sub\n        /* \"#utility.yul\":20646:20647   */\n      0x00\n        /* \"#utility.yul\":20635:20644   */\n      dup4\n        /* \"#utility.yul\":20631:20648   */\n      add\n        /* \"#utility.yul\":20624:20671   */\n      mstore\n        /* \"#utility.yul\":20688:20819   */\n      tag_569\n        /* \"#utility.yul\":20814:20818   */\n      dup2\n        /* \"#utility.yul\":20688:20819   */\n      tag_358\n      jump\t// in\n    tag_569:\n        /* \"#utility.yul\":20680:20819   */\n      swap1\n      pop\n        /* \"#utility.yul\":20407:20826   */\n      swap2\n      swap1\n      pop\n      jump\t// out\n        /* \"#utility.yul\":20832:21012   */\n    tag_359:\n        /* \"#utility.yul\":20880:20957   */\n      0x4e487b7100000000000000000000000000000000000000000000000000000000\n        /* \"#utility.yul\":20877:20878   */\n      0x00\n        /* \"#utility.yul\":20870:20958   */\n      mstore\n        /* \"#utility.yul\":20977:20981   */\n      0x11\n        /* \"#utility.yul\":20974:20975   */\n      0x04\n        /* \"#utility.yul\":20967:20982   */\n      mstore\n        /* \"#utility.yul\":21001:21005   */\n      0x24\n        /* \"#utility.yul\":20998:20999   */\n      0x00\n        /* \"#utility.yul\":20991:21006   */\n      revert\n        /* \"#utility.yul\":21018:21209   */\n    tag_81:\n        /* \"#utility.yul\":21058:21061   */\n      0x00\n        /* \"#utility.yul\":21077:21097   */\n      tag_572\n        /* \"#utility.yul\":21095:21096   */\n      dup3\n        /* \"#utility.yul\":21077:21097   */\n      tag_312\n      jump\t// in\n    tag_572:\n        /* \"#utility.yul\":21072:21097   */\n      swap2\n      pop\n        /* \"#utility.yul\":21111:21131   */\n      tag_573\n        /* \"#utility.yul\":21129:21130   */\n      dup4\n        /* \"#utility.yul\":21111:21131   */\n      tag_312\n      jump\t// in\n    tag_573:\n        /* \"#utility.yul\":21106:21131   */\n      swap3\n      pop\n        /* \"#utility.yul\":21154:21155   */\n      dup3\n        /* \"#utility.yul\":21151:21152   */\n      dup3\n        /* \"#utility.yul\":21147:21156   */\n      add\n        /* \"#utility.yul\":21140:21156   */\n      swap1\n      pop\n        /* \"#utility.yul\":21175:21178   */\n      dup1\n        /* \"#utility.yul\":21172:21173   */\n      dup3\n        /* \"#utility.yul\":21169:21179   */\n      gt\n        /* \"#utility.yul\":21166:21202   */\n      iszero\n      tag_574\n      jumpi\n        /* \"#utility.yul\":21182:21200   */\n      tag_575\n      tag_359\n      jump\t// in\n    tag_575:\n        /* \"#utility.yul\":21166:21202   */\n    tag_574:\n        /* \"#utility.yul\":21018:21209   */\n      swap3\n      swap2\n      pop\n      pop\n      jump\t// out\n        /* \"#utility.yul\":21215:21395   */\n    tag_360:\n        /* \"#utility.yul\":21263:21340   */\n      0x4e487b7100000000000000000000000000000000000000000000000000000000\n        /* \"#utility.yul\":21260:21261   */\n      0x00\n        /* \"#utility.yul\":21253:21341   */\n      mstore\n        /* \"#utility.yul\":21360:21364   */\n      0x22\n        /* \"#utility.yul\":21357:21358   */\n      0x04\n        /* \"#utility.yul\":21350:21365   */\n      mstore\n        /* \"#utility.yul\":21384:21388   */\n      0x24\n        /* \"#utility.yul\":21381:21382   */\n      0x00\n        /* \"#utility.yul\":21374:21389   */\n      revert\n        /* \"#utility.yul\":21401:21721   */\n    tag_84:\n        /* \"#utility.yul\":21445:21451   */\n      0x00\n        /* \"#utility.yul\":21482:21483   */\n      0x02\n        /* \"#utility.yul\":21476:21480   */\n      dup3\n        /* \"#utility.yul\":21472:21484   */\n      div\n        /* \"#utility.yul\":21462:21484   */\n      swap1\n      pop\n        /* \"#utility.yul\":21529:21530   */\n      0x01\n        /* \"#utility.yul\":21523:21527   */\n      dup3\n        /* \"#utility.yul\":21519:21531   */\n      and\n        /* \"#utility.yul\":21550:21568   */\n      dup1\n        /* \"#utility.yul\":21540:21621   */\n      tag_578\n      jumpi\n        /* \"#utility.yul\":21606:21610   */\n      0x7f\n        /* \"#utility.yul\":21598:21604   */\n      dup3\n        /* \"#utility.yul\":21594:21611   */\n      and\n        /* \"#utility.yul\":21584:21611   */\n      swap2\n      pop\n        /* \"#utility.yul\":21540:21621   */\n    tag_578:\n        /* \"#utility.yul\":21668:21670   */\n      0x20\n        /* \"#utility.yul\":21660:21666   */\n      dup3\n        /* \"#utility.yul\":21657:21671   */\n      lt\n        /* \"#utility.yul\":21637:21655   */\n      dup2\n        /* \"#utility.yul\":21634:21672   */\n      sub\n        /* \"#utility.yul\":21631:21715   */\n      tag_579\n      jumpi\n        /* \"#utility.yul\":21687:21705   */\n      tag_580\n      tag_360\n      jump\t// in\n    tag_580:\n        /* \"#utility.yul\":21631:21715   */\n    tag_579:\n        /* \"#utility.yul\":21452:21721   */\n      pop\n        /* \"#utility.yul\":21401:21721   */\n      swap2\n      swap1\n      pop\n      jump\t// out\n        /* \"#utility.yul\":21727:22251   */\n    tag_150:\n        /* \"#utility.yul\":21807:21813   */\n      0x00\n        /* \"#utility.yul\":21856:21858   */\n      0x20\n        /* \"#utility.yul\":21844:21853   */\n      dup3\n        /* \"#utility.yul\":21835:21842   */\n      dup5\n        /* \"#utility.yul\":21831:21854   */\n      sub\n        /* \"#utility.yul\":21827:21859   */\n      slt\n        /* \"#utility.yul\":21824:21943   */\n      iszero\n      tag_582\n      jumpi\n        /* \"#utility.yul\":21862:21941   */\n      tag_583\n      tag_310\n      jump\t// in\n    tag_583:\n        /* \"#utility.yul\":21824:21943   */\n    tag_582:\n        /* \"#utility.yul\":22003:22004   */\n      0x00\n        /* \"#utility.yul\":21992:22001   */\n      dup3\n        /* \"#utility.yul\":21988:22005   */\n      add\n        /* \"#utility.yul\":21982:22006   */\n      mload\n        /* \"#utility.yul\":22033:22051   */\n      0xffffffffffffffff\n        /* \"#utility.yul\":22025:22031   */\n      dup2\n        /* \"#utility.yul\":22022:22052   */\n      gt\n        /* \"#utility.yul\":22019:22136   */\n      iszero\n      tag_584\n      jumpi\n        /* \"#utility.yul\":22055:22134   */\n      tag_585\n      tag_311\n      jump\t// in\n    tag_585:\n        /* \"#utility.yul\":22019:22136   */\n    tag_584:\n        /* \"#utility.yul\":22160:22234   */\n      tag_586\n        /* \"#utility.yul\":22226:22233   */\n      dup5\n        /* \"#utility.yul\":22217:22223   */\n      dup3\n        /* \"#utility.yul\":22206:22215   */\n      dup6\n        /* \"#utility.yul\":22202:22224   */\n      add\n        /* \"#utility.yul\":22160:22234   */\n      tag_351\n      jump\t// in\n    tag_586:\n        /* \"#utility.yul\":22150:22234   */\n      swap2\n      pop\n        /* \"#utility.yul\":21953:22244   */\n      pop\n        /* \"#utility.yul\":21727:22251   */\n      swap3\n      swap2\n      pop\n      pop\n      jump\t// out\n        /* \"#utility.yul\":22257:22398   */\n    tag_361:\n        /* \"#utility.yul\":22306:22310   */\n      0x00\n        /* \"#utility.yul\":22329:22332   */\n      dup2\n        /* \"#utility.yul\":22321:22332   */\n      swap1\n      pop\n        /* \"#utility.yul\":22352:22355   */\n      dup2\n        /* \"#utility.yul\":22349:22350   */\n      0x00\n        /* \"#utility.yul\":22342:22356   */\n      mstore\n        /* \"#utility.yul\":22386:22390   */\n      0x20\n        /* \"#utility.yul\":22383:22384   */\n      0x00\n        /* \"#utility.yul\":22373:22391   */\n      keccak256\n        /* \"#utility.yul\":22365:22391   */\n      swap1\n      pop\n        /* \"#utility.yul\":22257:22398   */\n      swap2\n      swap1\n      pop\n      jump\t// out\n        /* \"#utility.yul\":22404:22497   */\n    tag_362:\n        /* \"#utility.yul\":22441:22447   */\n      0x00\n        /* \"#utility.yul\":22488:22490   */\n      0x20\n        /* \"#utility.yul\":22483:22485   */\n      0x1f\n        /* \"#utility.yul\":22476:22481   */\n      dup4\n        /* \"#utility.yul\":22472:22486   */\n      add\n        /* \"#utility.yul\":22468:22491   */\n      div\n        /* \"#utility.yul\":22458:22491   */\n      swap1\n      pop\n        /* \"#utility.yul\":22404:22497   */\n      swap2\n      swap1\n      pop\n      jump\t// out\n        /* \"#utility.yul\":22503:22610   */\n    tag_363:\n        /* \"#utility.yul\":22547:22555   */\n      0x00\n        /* \"#utility.yul\":22597:22602   */\n      dup3\n        /* \"#utility.yul\":22591:22595   */\n      dup3\n        /* \"#utility.yul\":22587:22603   */\n      shl\n        /* \"#utility.yul\":22566:22603   */\n      swap1\n      pop\n        /* \"#utility.yul\":22503:22610   */\n      swap3\n      swap2\n      pop\n      pop\n      jump\t// out\n        /* \"#utility.yul\":22616:23009   */\n    tag_364:\n        /* \"#utility.yul\":22685:22691   */\n      0x00\n        /* \"#utility.yul\":22735:22736   */\n      0x08\n        /* \"#utility.yul\":22723:22733   */\n      dup4\n        /* \"#utility.yul\":22719:22737   */\n      mul\n        /* \"#utility.yul\":22758:22855   */\n      tag_591\n        /* \"#utility.yul\":22788:22854   */\n      0xffffffffffffffffffffffffffffffffffffffffffffffffffffffffffffffff\n        /* \"#utility.yul\":22777:22786   */\n      dup3\n        /* \"#utility.yul\":22758:22855   */\n      tag_363\n      jump\t// in\n    tag_591:\n        /* \"#utility.yul\":22876:22915   */\n      tag_592\n        /* \"#utility.yul\":22906:22914   */\n      dup7\n        /* \"#utility.yul\":22895:22904   */\n      dup4\n        /* \"#utility.yul\":22876:22915   */\n      tag_363\n      jump\t// in\n    tag_592:\n        /* \"#utility.yul\":22864:22915   */\n      swap6\n      pop\n        /* \"#utility.yul\":22948:22952   */\n      dup1\n        /* \"#utility.yul\":22944:22953   */\n      not\n        /* \"#utility.yul\":22937:22942   */\n      dup5\n        /* \"#utility.yul\":22933:22954   */\n      and\n        /* \"#utility.yul\":22924:22954   */\n      swap4\n      pop\n        /* \"#utility.yul\":22997:23001   */\n      dup1\n        /* \"#utility.yul\":22987:22995   */\n      dup7\n        /* \"#utility.yul\":22983:23002   */\n      and\n        /* \"#utility.yul\":22976:22981   */\n      dup5\n        /* \"#utility.yul\":22973:23003   */\n      or\n        /* \"#utility.yul\":22963:23003   */\n      swap3\n      pop\n        /* \"#utility.yul\":22692:23009   */\n      pop\n      pop\n        /* \"#utility.yul\":22616:23009   */\n      swap4\n      swap3\n      pop\n      pop\n      pop\n      jump\t// out\n        /* \"#utility.yul\":23015:23075   */\n    tag_365:\n        /* \"#utility.yul\":23043:23046   */\n      0x00\n        /* \"#utility.yul\":23064:23069   */\n      dup2\n        /* \"#utility.yul\":23057:23069   */\n      swap1\n      pop\n        /* \"#utility.yul\":23015:23075   */\n      swap2\n      swap1\n      pop\n      jump\t// out\n        /* \"#utility.yul\":23081:23223   */\n    tag_366:\n        /* \"#utility.yul\":23131:23140   */\n      0x00\n        /* \"#utility.yul\":23164:23217   */\n      tag_595\n        /* \"#utility.yul\":23182:23216   */\n      tag_596\n        /* \"#utility.yul\":23191:23215   */\n      tag_597\n        /* \"#utility.yul\":23209:23214   */\n      dup5\n        /* \"#utility.yul\":23191:23215   */\n      tag_312\n      jump\t// in\n    tag_597:\n        /* \"#utility.yul\":23182:23216   */\n      tag_365\n      jump\t// in\n    tag_596:\n        /* \"#utility.yul\":23164:23217   */\n      tag_312\n      jump\t// in\n    tag_595:\n        /* \"#utility.yul\":23151:23217   */\n      swap1\n      pop\n        /* \"#utility.yul\":23081:23223   */\n      swap2\n      swap1\n      pop\n      jump\t// out\n        /* \"#utility.yul\":23229:23304   */\n    tag_367:\n        /* \"#utility.yul\":23272:23275   */\n      0x00\n        /* \"#utility.yul\":23293:23298   */\n      dup2\n        /* \"#utility.yul\":23286:23298   */\n      swap1\n      pop\n        /* \"#utility.yul\":23229:23304   */\n      swap2\n      swap1\n      pop\n      jump\t// out\n        /* \"#utility.yul\":23310:23579   */\n    tag_368:\n        /* \"#utility.yul\":23420:23459   */\n      tag_600\n        /* \"#utility.yul\":23451:23458   */\n      dup4\n        /* \"#utility.yul\":23420:23459   */\n      tag_366\n      jump\t// in\n    tag_600:\n        /* \"#utility.yul\":23481:23572   */\n      tag_601\n        /* \"#utility.yul\":23530:23571   */\n      tag_602\n        /* \"#utility.yul\":23554:23570   */\n      dup3\n        /* \"#utility.yul\":23530:23571   */\n      tag_367\n      jump\t// in\n    tag_602:\n        /* \"#utility.yul\":23522:23528   */\n      dup5\n        /* \"#utility.yul\":23515:23519   */\n      dup5\n        /* \"#utility.yul\":23509:23520   */\n      sload\n        /* \"#utility.yul\":23481:23572   */\n      tag_364\n      jump\t// in\n    tag_601:\n        /* \"#utility.yul\":23475:23479   */\n      dup3\n        /* \"#utility.yul\":23468:23573   */\n      sstore\n        /* \"#utility.yul\":23386:23579   */\n      pop\n        /* \"#utility.yul\":23310:23579   */\n      pop\n      pop\n      pop\n      jump\t// out\n        /* \"#utility.yul\":23585:23658   */\n    tag_369:\n        /* \"#utility.yul\":23630:23633   */\n      0x00\n        /* \"#utility.yul\":23585:23658   */\n      swap1\n      jump\t// out\n        /* \"#utility.yul\":23664:23853   */\n    tag_370:\n        /* \"#utility.yul\":23741:23773   */\n      tag_605\n      tag_369\n      jump\t// in\n    tag_605:\n        /* \"#utility.yul\":23782:23847   */\n      tag_606\n        /* \"#utility.yul\":23840:23846   */\n      dup2\n        /* \"#utility.yul\":23832:23838   */\n      dup5\n        /* \"#utility.yul\":23826:23830   */\n      dup5\n        /* \"#utility.yul\":23782:23847   */\n      tag_368\n      jump\t// in\n    tag_606:\n        /* \"#utility.yul\":23717:23853   */\n      pop\n        /* \"#utility.yul\":23664:23853   */\n      pop\n      pop\n      jump\t// out\n        /* \"#utility.yul\":23859:24045   */\n    tag_371:\n        /* \"#utility.yul\":23919:24039   */\n    tag_608:\n        /* \"#utility.yul\":23936:23939   */\n      dup2\n        /* \"#utility.yul\":23929:23934   */\n      dup2\n        /* \"#utility.yul\":23926:23940   */\n      lt\n        /* \"#utility.yul\":23919:24039   */\n      iszero\n      tag_610\n      jumpi\n        /* \"#utility.yul\":23990:24029   */\n      tag_611\n        /* \"#utility.yul\":24027:24028   */\n      0x00\n        /* \"#utility.yul\":24020:24025   */\n      dup3\n        /* \"#utility.yul\":23990:24029   */\n      tag_370\n      jump\t// in\n    tag_611:\n        /* \"#utility.yul\":23963:23964   */\n      0x01\n        /* \"#utility.yul\":23956:23961   */\n      dup2\n        /* \"#utility.yul\":23952:23965   */\n      add\n        /* \"#utility.yul\":23943:23965   */\n      swap1\n      pop\n        /* \"#utility.yul\":23919:24039   */\n      jump(tag_608)\n    tag_610:\n        /* \"#utility.yul\":23859:24045   */\n      pop\n      pop\n      jump\t// out\n        /* \"#utility.yul\":24051:24594   */\n    tag_372:\n        /* \"#utility.yul\":24152:24154   */\n      0x1f\n        /* \"#utility.yul\":24147:24150   */\n      dup3\n        /* \"#utility.yul\":24144:24155   */\n      gt\n        /* \"#utility.yul\":24141:24587   */\n      iszero\n      tag_613\n      jumpi\n        /* \"#utility.yul\":24186:24224   */\n      tag_614\n        /* \"#utility.yul\":24218:24223   */\n      dup2\n        /* \"#utility.yul\":24186:24224   */\n      tag_361\n      jump\t// in\n    tag_614:\n        /* \"#utility.yul\":24270:24299   */\n      tag_615\n        /* \"#utility.yul\":24288:24298   */\n      dup5\n        /* \"#utility.yul\":24270:24299   */\n      tag_362\n      jump\t// in\n    tag_615:\n        /* \"#utility.yul\":24260:24268   */\n      dup2\n        /* \"#utility.yul\":24256:24300   */\n      add\n        /* \"#utility.yul\":24453:24455   */\n      0x20\n        /* \"#utility.yul\":24441:24451   */\n      dup6\n        /* \"#utility.yul\":24438:24456   */\n      lt\n        /* \"#utility.yul\":24435:24484   */\n      iszero\n      tag_616\n      jumpi\n        /* \"#utility.yul\":24474:24482   */\n      dup2\n        /* \"#utility.yul\":24459:24482   */\n      swap1\n      pop\n        /* \"#utility.yul\":24435:24484   */\n    tag_616:\n        /* \"#utility.yul\":24497:24577   */\n      tag_617\n        /* \"#utility.yul\":24553:24575   */\n      tag_618\n        /* \"#utility.yul\":24571:24574   */\n      dup6\n        /* \"#utility.yul\":24553:24575   */\n      tag_362\n      jump\t// in\n    tag_618:\n        /* \"#utility.yul\":24543:24551   */\n      dup4\n        /* \"#utility.yul\":24539:24576   */\n      add\n        /* \"#utility.yul\":24526:24537   */\n      dup3\n        /* \"#utility.yul\":24497:24577   */\n      tag_371\n      jump\t// in\n    tag_617:\n        /* \"#utility.yul\":24156:24587   */\n      pop\n      pop\n        /* \"#utility.yul\":24141:24587   */\n    tag_613:\n        /* \"#utility.yul\":24051:24594   */\n      pop\n      pop\n      pop\n      jump\t// out\n        /* \"#utility.yul\":24600:24717   */\n    tag_373:\n        /* \"#utility.yul\":24654:24662   */\n      0x00\n        /* \"#utility.yul\":24704:24709   */\n      dup3\n        /* \"#utility.yul\":24698:24702   */\n      dup3\n        /* \"#utility.yul\":24694:24710   */\n      shr\n        /* \"#utility.yul\":24673:24710   */\n      swap1\n      pop\n        /* \"#utility.yul\":24600:24717   */\n      swap3\n      swap2\n      pop\n      pop\n      jump\t// out\n        /* \"#utility.yul\":24723:24892   */\n    tag_374:\n        /* \"#utility.yul\":24767:24773   */\n      0x00\n        /* \"#utility.yul\":24800:24851   */\n      tag_621\n        /* \"#utility.yul\":24848:24849   */\n      0x00\n        /* \"#utility.yul\":24844:24850   */\n      not\n        /* \"#utility.yul\":24836:24841   */\n      dup5\n        /* \"#utility.yul\":24833:24834   */\n      0x08\n        /* \"#utility.yul\":24829:24842   */\n      mul\n        /* \"#utility.yul\":24800:24851   */\n      tag_373\n      jump\t// in\n    tag_621:\n        /* \"#utility.yul\":24796:24852   */\n      not\n        /* \"#utility.yul\":24881:24885   */\n      dup1\n        /* \"#utility.yul\":24875:24879   */\n      dup4\n        /* \"#utility.yul\":24871:24886   */\n      and\n        /* \"#utility.yul\":24861:24886   */\n      swap2\n      pop\n        /* \"#utility.yul\":24774:24892   */\n      pop\n        /* \"#utility.yul\":24723:24892   */\n      swap3\n      swap2\n      pop\n      pop\n      jump\t// out\n        /* \"#utility.yul\":24897:25192   */\n    tag_375:\n        /* \"#utility.yul\":24973:24977   */\n      0x00\n        /* \"#utility.yul\":25119:25148   */\n      tag_623\n        /* \"#utility.yul\":25144:25147   */\n      dup4\n        /* \"#utility.yul\":25138:25142   */\n      dup4\n        /* \"#utility.yul\":25119:25148   */\n      tag_374\n      jump\t// in\n    tag_623:\n        /* \"#utility.yul\":25111:25148   */\n      swap2\n      pop\n        /* \"#utility.yul\":25181:25184   */\n      dup3\n        /* \"#utility.yul\":25178:25179   */\n      0x02\n        /* \"#utility.yul\":25174:25185   */\n      mul\n        /* \"#utility.yul\":25168:25172   */\n      dup3\n        /* \"#utility.yul\":25165:25186   */\n      or\n        /* \"#utility.yul\":25157:25186   */\n      swap1\n      pop\n        /* \"#utility.yul\":24897:25192   */\n      swap3\n      swap2\n      pop\n      pop\n      jump\t// out\n        /* \"#utility.yul\":25197:26592   */\n    tag_156:\n        /* \"#utility.yul\":25314:25351   */\n      tag_625\n        /* \"#utility.yul\":25347:25350   */\n      dup3\n        /* \"#utility.yul\":25314:25351   */\n      tag_316\n      jump\t// in\n    tag_625:\n        /* \"#utility.yul\":25416:25434   */\n      0xffffffffffffffff\n        /* \"#utility.yul\":25408:25414   */\n      dup2\n        /* \"#utility.yul\":25405:25435   */\n      gt\n        /* \"#utility.yul\":25402:25458   */\n      iszero\n      tag_626\n      jumpi\n        /* \"#utility.yul\":25438:25456   */\n      tag_627\n      tag_341\n      jump\t// in\n    tag_627:\n        /* \"#utility.yul\":25402:25458   */\n    tag_626:\n        /* \"#utility.yul\":25482:25520   */\n      tag_628\n        /* \"#utility.yul\":25514:25518   */\n      dup3\n        /* \"#utility.yul\":25508:25519   */\n      sload\n        /* \"#utility.yul\":25482:25520   */\n      tag_84\n      jump\t// in\n    tag_628:\n        /* \"#utility.yul\":25567:25634   */\n      tag_629\n        /* \"#utility.yul\":25627:25633   */\n      dup3\n        /* \"#utility.yul\":25619:25625   */\n      dup3\n        /* \"#utility.yul\":25613:25617   */\n      dup6\n        /* \"#utility.yul\":25567:25634   */\n      tag_372\n      jump\t// in\n    tag_629:\n        /* \"#utility.yul\":25661:25662   */\n      0x00\n        /* \"#utility.yul\":25685:25689   */\n      0x20\n        /* \"#utility.yul\":25672:25689   */\n      swap1\n      pop\n        /* \"#utility.yul\":25717:25719   */\n      0x1f\n        /* \"#utility.yul\":25709:25715   */\n      dup4\n        /* \"#utility.yul\":25706:25720   */\n      gt\n        /* \"#utility.yul\":25734:25735   */\n      0x01\n        /* \"#utility.yul\":25729:26347   */\n      dup2\n      eq\n      tag_631\n      jumpi\n        /* \"#utility.yul\":26391:26392   */\n      0x00\n        /* \"#utility.yul\":26408:26414   */\n      dup5\n        /* \"#utility.yul\":26405:26482   */\n      iszero\n      tag_632\n      jumpi\n        /* \"#utility.yul\":26457:26466   */\n      dup3\n        /* \"#utility.yul\":26452:26455   */\n      dup8\n        /* \"#utility.yul\":26448:26467   */\n      add\n        /* \"#utility.yul\":26442:26468   */\n      mload\n        /* \"#utility.yul\":26433:26468   */\n      swap1\n      pop\n        /* \"#utility.yul\":26405:26482   */\n    tag_632:\n        /* \"#utility.yul\":26508:26575   */\n      tag_633\n        /* \"#utility.yul\":26568:26574   */\n      dup6\n        /* \"#utility.yul\":26561:26566   */\n      dup3\n        /* \"#utility.yul\":26508:26575   */\n      tag_375\n      jump\t// in\n    tag_633:\n        /* \"#utility.yul\":26502:26506   */\n      dup7\n        /* \"#utility.yul\":26495:26576   */\n      sstore\n        /* \"#utility.yul\":26364:26586   */\n      pop\n        /* \"#utility.yul\":25699:26586   */\n      jump(tag_630)\n        /* \"#utility.yul\":25729:26347   */\n    tag_631:\n        /* \"#utility.yul\":25781:25785   */\n      0x1f\n        /* \"#utility.yul\":25777:25786   */\n      not\n        /* \"#utility.yul\":25769:25775   */\n      dup5\n        /* \"#utility.yul\":25765:25787   */\n      and\n        /* \"#utility.yul\":25815:25852   */\n      tag_634\n        /* \"#utility.yul\":25847:25851   */\n      dup7\n        /* \"#utility.yul\":25815:25852   */\n      tag_361\n      jump\t// in\n    tag_634:\n        /* \"#utility.yul\":25874:25875   */\n      0x00\n        /* \"#utility.yul\":25888:26096   */\n    tag_635:\n        /* \"#utility.yul\":25902:25909   */\n      dup3\n        /* \"#utility.yul\":25899:25900   */\n      dup2\n        /* \"#utility.yul\":25896:25910   */\n      lt\n        /* \"#utility.yul\":25888:26096   */\n      iszero\n      tag_637\n      jumpi\n        /* \"#utility.yul\":25981:25990   */\n      dup5\n        /* \"#utility.yul\":25976:25979   */\n      dup10\n        /* \"#utility.yul\":25972:25991   */\n      add\n        /* \"#utility.yul\":25966:25992   */\n      mload\n        /* \"#utility.yul\":25958:25964   */\n      dup3\n        /* \"#utility.yul\":25951:25993   */\n      sstore\n        /* \"#utility.yul\":26032:26033   */\n      0x01\n        /* \"#utility.yul\":26024:26030   */\n      dup3\n        /* \"#utility.yul\":26020:26034   */\n      add\n        /* \"#utility.yul\":26010:26034   */\n      swap2\n      pop\n        /* \"#utility.yul\":26079:26081   */\n      0x20\n        /* \"#utility.yul\":26068:26077   */\n      dup6\n        /* \"#utility.yul\":26064:26082   */\n      add\n        /* \"#utility.yul\":26051:26082   */\n      swap5\n      pop\n        /* \"#utility.yul\":25925:25929   */\n      0x20\n        /* \"#utility.yul\":25922:25923   */\n      dup2\n        /* \"#utility.yul\":25918:25930   */\n      add\n        /* \"#utility.yul\":25913:25930   */\n      swap1\n      pop\n        /* \"#utility.yul\":25888:26096   */\n      jump(tag_635)\n    tag_637:\n        /* \"#utility.yul\":26124:26130   */\n      dup7\n        /* \"#utility.yul\":26115:26122   */\n      dup4\n        /* \"#utility.yul\":26112:26131   */\n      lt\n        /* \"#utility.yul\":26109:26288   */\n      iszero\n      tag_638\n      jumpi\n        /* \"#utility.yul\":26182:26191   */\n      dup5\n        /* \"#utility.yul\":26177:26180   */\n      dup10\n        /* \"#utility.yul\":26173:26192   */\n      add\n        /* \"#utility.yul\":26167:26193   */\n      mload\n        /* \"#utility.yul\":26225:26273   */\n      tag_639\n        /* \"#utility.yul\":26267:26271   */\n      0x1f\n        /* \"#utility.yul\":26259:26265   */\n      dup10\n        /* \"#utility.yul\":26255:26272   */\n      and\n        /* \"#utility.yul\":26244:26253   */\n      dup3\n        /* \"#utility.yul\":26225:26273   */\n      tag_374\n      jump\t// in\n    tag_639:\n        /* \"#utility.yul\":26217:26223   */\n      dup4\n        /* \"#utility.yul\":26210:26274   */\n      sstore\n        /* \"#utility.yul\":26132:26288   */\n      pop\n        /* \"#utility.yul\":26109:26288   */\n    tag_638:\n        /* \"#utility.yul\":26334:26335   */\n      0x01\n        /* \"#utility.yul\":26330:26331   */\n      0x02\n        /* \"#utility.yul\":26322:26328   */\n      dup9\n        /* \"#utility.yul\":26318:26332   */\n      mul\n        /* \"#utility.yul\":26314:26336   */\n      add\n        /* \"#utility.yul\":26308:26312   */\n      dup9\n        /* \"#utility.yul\":26301:26337   */\n      sstore\n        /* \"#utility.yul\":25736:26347   */\n      pop\n      pop\n      pop\n        /* \"#utility.yul\":25699:26586   */\n    tag_630:\n      pop\n        /* \"#utility.yul\":25289:26592   */\n      pop\n      pop\n      pop\n        /* \"#utility.yul\":25197:26592   */\n      pop\n      pop\n      jump\t// out\n        /* \"#utility.yul\":26598:26747   */\n    tag_376:\n        /* \"#utility.yul\":26647:26653   */\n      0x00\n        /* \"#utility.yul\":26681:26686   */\n      dup2\n        /* \"#utility.yul\":26675:26687   */\n      sload\n        /* \"#utility.yul\":26665:26687   */\n      swap1\n      pop\n        /* \"#utility.yul\":26707:26740   */\n      tag_641\n        /* \"#utility.yul\":26733:26739   */\n      dup2\n        /* \"#utility.yul\":26707:26740   */\n      tag_84\n      jump\t// in\n    tag_641:\n        /* \"#utility.yul\":26697:26740   */\n      swap1\n      pop\n        /* \"#utility.yul\":26598:26747   */\n      swap2\n      swap1\n      pop\n      jump\t// out\n        /* \"#utility.yul\":26753:28204   */\n    tag_169:\n        /* \"#utility.yul\":26864:26867   */\n      dup2\n        /* \"#utility.yul\":26858:26862   */\n      dup2\n        /* \"#utility.yul\":26855:26868   */\n      sub\n        /* \"#utility.yul\":26852:26878   */\n      tag_643\n      jumpi\n        /* \"#utility.yul\":26871:26876   */\n      pop\n      pop\n      jump(tag_642)\n        /* \"#utility.yul\":26852:26878   */\n    tag_643:\n        /* \"#utility.yul\":26902:26936   */\n      tag_644\n        /* \"#utility.yul\":26932:26935   */\n      dup3\n        /* \"#utility.yul\":26902:26936   */\n      tag_376\n      jump\t// in\n    tag_644:\n        /* \"#utility.yul\":27001:27019   */\n      0xffffffffffffffff\n        /* \"#utility.yul\":26993:26999   */\n      dup2\n        /* \"#utility.yul\":26990:27020   */\n      gt\n        /* \"#utility.yul\":26987:27043   */\n      iszero\n      tag_645\n      jumpi\n        /* \"#utility.yul\":27023:27041   */\n      tag_646\n      tag_341\n      jump\t// in\n    tag_646:\n        /* \"#utility.yul\":26987:27043   */\n    tag_645:\n        /* \"#utility.yul\":27067:27105   */\n      tag_647\n        /* \"#utility.yul\":27099:27103   */\n      dup3\n        /* \"#utility.yul\":27093:27104   */\n      sload\n        /* \"#utility.yul\":27067:27105   */\n      tag_84\n      jump\t// in\n    tag_647:\n        /* \"#utility.yul\":27152:27219   */\n      tag_648\n        /* \"#utility.yul\":27212:27218   */\n      dup3\n        /* \"#utility.yul\":27204:27210   */\n      dup3\n        /* \"#utility.yul\":27198:27202   */\n      dup6\n        /* \"#utility.yul\":27152:27219   */\n      tag_372\n      jump\t// in\n    tag_648:\n        /* \"#utility.yul\":27246:27247   */\n      0x00\n        /* \"#utility.yul\":27275:27277   */\n      0x1f\n        /* \"#utility.yul\":27267:27273   */\n      dup4\n        /* \"#utility.yul\":27264:27278   */\n      gt\n        /* \"#utility.yul\":27292:27293   */\n      0x01\n        /* \"#utility.yul\":27287:27959   */\n      dup2\n      eq\n      tag_650\n      jumpi\n        /* \"#utility.yul\":28003:28004   */\n      0x00\n        /* \"#utility.yul\":28020:28026   */\n      dup5\n        /* \"#utility.yul\":28017:28094   */\n      iszero\n      tag_651\n      jumpi\n        /* \"#utility.yul\":28069:28078   */\n      dup3\n        /* \"#utility.yul\":28064:28067   */\n      dup8\n        /* \"#utility.yul\":28060:28079   */\n      add\n        /* \"#utility.yul\":28054:28080   */\n      sload\n        /* \"#utility.yul\":28045:28080   */\n      swap1\n      pop\n        /* \"#utility.yul\":28017:28094   */\n    tag_651:\n        /* \"#utility.yul\":28120:28187   */\n      tag_652\n        /* \"#utility.yul\":28180:28186   */\n      dup6\n        /* \"#utility.yul\":28173:28178   */\n      dup3\n        /* \"#utility.yul\":28120:28187   */\n      tag_375\n      jump\t// in\n    tag_652:\n        /* \"#utility.yul\":28114:28118   */\n      dup7\n        /* \"#utility.yul\":28107:28188   */\n      sstore\n        /* \"#utility.yul\":27976:28198   */\n      pop\n        /* \"#utility.yul\":27257:28198   */\n      jump(tag_649)\n        /* \"#utility.yul\":27287:27959   */\n    tag_650:\n        /* \"#utility.yul\":27339:27343   */\n      0x1f\n        /* \"#utility.yul\":27335:27344   */\n      not\n        /* \"#utility.yul\":27327:27333   */\n      dup5\n        /* \"#utility.yul\":27323:27345   */\n      and\n        /* \"#utility.yul\":27365:27401   */\n      tag_653\n        /* \"#utility.yul\":27397:27400   */\n      dup8\n        /* \"#utility.yul\":27365:27401   */\n      tag_361\n      jump\t// in\n    tag_653:\n        /* \"#utility.yul\":27358:27401   */\n      swap7\n      pop\n        /* \"#utility.yul\":27428:27465   */\n      tag_654\n        /* \"#utility.yul\":27460:27464   */\n      dup7\n        /* \"#utility.yul\":27428:27465   */\n      tag_361\n      jump\t// in\n    tag_654:\n        /* \"#utility.yul\":27487:27488   */\n      0x00\n        /* \"#utility.yul\":27501:27708   */\n    tag_655:\n        /* \"#utility.yul\":27515:27522   */\n      dup3\n        /* \"#utility.yul\":27512:27513   */\n      dup2\n        /* \"#utility.yul\":27509:27523   */\n      lt\n        /* \"#utility.yul\":27501:27708   */\n      iszero\n      tag_657\n      jumpi\n        /* \"#utility.yul\":27594:27603   */\n      dup5\n        /* \"#utility.yul\":27589:27592   */\n      dup10\n        /* \"#utility.yul\":27585:27604   */\n      add\n        /* \"#utility.yul\":27579:27605   */\n      sload\n        /* \"#utility.yul\":27571:27577   */\n      dup3\n        /* \"#utility.yul\":27564:27606   */\n      sstore\n        /* \"#utility.yul\":27645:27646   */\n      0x01\n        /* \"#utility.yul\":27637:27643   */\n      dup3\n        /* \"#utility.yul\":27633:27647   */\n      add\n        /* \"#utility.yul\":27623:27647   */\n      swap2\n      pop\n        /* \"#utility.yul\":27692:27693   */\n      0x01\n        /* \"#utility.yul\":27681:27690   */\n      dup6\n        /* \"#utility.yul\":27677:27694   */\n      add\n        /* \"#utility.yul\":27664:27694   */\n      swap5\n      pop\n        /* \"#utility.yul\":27538:27542   */\n      0x20\n        /* \"#utility.yul\":27535:27536   */\n      dup2\n        /* \"#utility.yul\":27531:27543   */\n      add\n        /* \"#utility.yul\":27526:27543   */\n      swap1\n      pop\n        /* \"#utility.yul\":27501:27708   */\n      jump(tag_655)\n    tag_657:\n        /* \"#utility.yul\":27736:27742   */\n      dup7\n        /* \"#utility.yul\":27727:27734   */\n      dup4\n        /* \"#utility.yul\":27724:27743   */\n      lt\n        /* \"#utility.yul\":27721:27900   */\n      iszero\n      tag_658\n      jumpi\n        /* \"#utility.yul\":27794:27803   */\n      dup5\n        /* \"#utility.yul\":27789:27792   */\n      dup10\n        /* \"#utility.yul\":27785:27804   */\n      add\n        /* \"#utility.yul\":27779:27805   */\n      sload\n        /* \"#utility.yul\":27837:27885   */\n      tag_659\n        /* \"#utility.yul\":27879:27883   */\n      0x1f\n        /* \"#utility.yul\":27871:27877   */\n      dup10\n        /* \"#utility.yul\":27867:27884   */\n      and\n        /* \"#utility.yul\":27856:27865   */\n      dup3\n        /* \"#utility.yul\":27837:27885   */\n      tag_374\n      jump\t// in\n    tag_659:\n        /* \"#utility.yul\":27829:27835   */\n      dup4\n        /* \"#utility.yul\":27822:27886   */\n      sstore\n        /* \"#utility.yul\":27744:27900   */\n      pop\n        /* \"#utility.yul\":27721:27900   */\n    tag_658:\n        /* \"#utility.yul\":27946:27947   */\n      0x01\n        /* \"#utility.yul\":27942:27943   */\n      0x02\n        /* \"#utility.yul\":27934:27940   */\n      dup9\n        /* \"#utility.yul\":27930:27944   */\n      mul\n        /* \"#utility.yul\":27926:27948   */\n      add\n        /* \"#utility.yul\":27920:27924   */\n      dup9\n        /* \"#utility.yul\":27913:27949   */\n      sstore\n        /* \"#utility.yul\":27294:27959   */\n      pop\n      pop\n      pop\n        /* \"#utility.yul\":27257:28198   */\n    tag_649:\n      pop\n        /* \"#utility.yul\":26842:28204   */\n      pop\n      pop\n      pop\n        /* \"#utility.yul\":26753:28204   */\n      pop\n      pop\n    tag_642:\n      jump\t// out\n        /* \"#utility.yul\":28210:28295   */\n    tag_377:\n        /* \"#utility.yul\":28255:28262   */\n      0x00\n        /* \"#utility.yul\":28284:28289   */\n      dup2\n        /* \"#utility.yul\":28273:28289   */\n      swap1\n      pop\n        /* \"#utility.yul\":28210:28295   */\n      swap2\n      swap1\n      pop\n      jump\t// out\n        /* \"#utility.yul\":28301:28459   */\n    tag_378:\n        /* \"#utility.yul\":28359:28368   */\n      0x00\n        /* \"#utility.yul\":28392:28453   */\n      tag_662\n        /* \"#utility.yul\":28410:28452   */\n      tag_663\n        /* \"#utility.yul\":28419:28451   */\n      tag_664\n        /* \"#utility.yul\":28445:28450   */\n      dup5\n        /* \"#utility.yul\":28419:28451   */\n      tag_377\n      jump\t// in\n    tag_664:\n        /* \"#utility.yul\":28410:28452   */\n      tag_365\n      jump\t// in\n    tag_663:\n        /* \"#utility.yul\":28392:28453   */\n      tag_312\n      jump\t// in\n    tag_662:\n        /* \"#utility.yul\":28379:28453   */\n      swap1\n      pop\n        /* \"#utility.yul\":28301:28459   */\n      swap2\n      swap1\n      pop\n      jump\t// out\n        /* \"#utility.yul\":28465:28612   */\n    tag_379:\n        /* \"#utility.yul\":28560:28605   */\n      tag_666\n        /* \"#utility.yul\":28599:28604   */\n      dup2\n        /* \"#utility.yul\":28560:28605   */\n      tag_378\n      jump\t// in\n    tag_666:\n        /* \"#utility.yul\":28555:28558   */\n      dup3\n        /* \"#utility.yul\":28548:28606   */\n      mstore\n        /* \"#utility.yul\":28465:28612   */\n      pop\n      pop\n      jump\t// out\n        /* \"#utility.yul\":28618:29793   */\n    tag_175:\n        /* \"#utility.yul\":28947:28951   */\n      0x00\n        /* \"#utility.yul\":28985:28988   */\n      0xe0\n        /* \"#utility.yul\":28974:28983   */\n      dup3\n        /* \"#utility.yul\":28970:28989   */\n      add\n        /* \"#utility.yul\":28962:28989   */\n      swap1\n      pop\n        /* \"#utility.yul\":28999:29070   */\n      tag_668\n        /* \"#utility.yul\":29067:29068   */\n      0x00\n        /* \"#utility.yul\":29056:29065   */\n      dup4\n        /* \"#utility.yul\":29052:29069   */\n      add\n        /* \"#utility.yul\":29043:29049   */\n      dup11\n        /* \"#utility.yul\":28999:29070   */\n      tag_315\n      jump\t// in\n    tag_668:\n        /* \"#utility.yul\":29117:29126   */\n      dup2\n        /* \"#utility.yul\":29111:29115   */\n      dup2\n        /* \"#utility.yul\":29107:29127   */\n      sub\n        /* \"#utility.yul\":29102:29104   */\n      0x20\n        /* \"#utility.yul\":29091:29100   */\n      dup4\n        /* \"#utility.yul\":29087:29105   */\n      add\n        /* \"#utility.yul\":29080:29128   */\n      mstore\n        /* \"#utility.yul\":29145:29223   */\n      tag_669\n        /* \"#utility.yul\":29218:29222   */\n      dup2\n        /* \"#utility.yul\":29209:29215   */\n      dup10\n        /* \"#utility.yul\":29145:29223   */\n      tag_320\n      jump\t// in\n    tag_669:\n        /* \"#utility.yul\":29137:29223   */\n      swap1\n      pop\n        /* \"#utility.yul\":29270:29279   */\n      dup2\n        /* \"#utility.yul\":29264:29268   */\n      dup2\n        /* \"#utility.yul\":29260:29280   */\n      sub\n        /* \"#utility.yul\":29255:29257   */\n      0x40\n        /* \"#utility.yul\":29244:29253   */\n      dup4\n        /* \"#utility.yul\":29240:29258   */\n      add\n        /* \"#utility.yul\":29233:29281   */\n      mstore\n        /* \"#utility.yul\":29298:29376   */\n      tag_670\n        /* \"#utility.yul\":29371:29375   */\n      dup2\n        /* \"#utility.yul\":29362:29368   */\n      dup9\n        /* \"#utility.yul\":29298:29376   */\n      tag_320\n      jump\t// in\n    tag_670:\n        /* \"#utility.yul\":29290:29376   */\n      swap1\n      pop\n        /* \"#utility.yul\":29386:29466   */\n      tag_671\n        /* \"#utility.yul\":29462:29464   */\n      0x60\n        /* \"#utility.yul\":29451:29460   */\n      dup4\n        /* \"#utility.yul\":29447:29465   */\n      add\n        /* \"#utility.yul\":29438:29444   */\n      dup8\n        /* \"#utility.yul\":29386:29466   */\n      tag_379\n      jump\t// in\n    tag_671:\n        /* \"#utility.yul\":29514:29523   */\n      dup2\n        /* \"#utility.yul\":29508:29512   */\n      dup2\n        /* \"#utility.yul\":29504:29524   */\n      sub\n        /* \"#utility.yul\":29498:29501   */\n      0x80\n        /* \"#utility.yul\":29487:29496   */\n      dup4\n        /* \"#utility.yul\":29483:29502   */\n      add\n        /* \"#utility.yul\":29476:29525   */\n      mstore\n        /* \"#utility.yul\":29542:29620   */\n      tag_672\n        /* \"#utility.yul\":29615:29619   */\n      dup2\n        /* \"#utility.yul\":29606:29612   */\n      dup7\n        /* \"#utility.yul\":29542:29620   */\n      tag_320\n      jump\t// in\n    tag_672:\n        /* \"#utility.yul\":29534:29620   */\n      swap1\n      pop\n        /* \"#utility.yul\":29630:29703   */\n      tag_673\n        /* \"#utility.yul\":29698:29701   */\n      0xa0\n        /* \"#utility.yul\":29687:29696   */\n      dup4\n        /* \"#utility.yul\":29683:29702   */\n      add\n        /* \"#utility.yul\":29674:29680   */\n      dup6\n        /* \"#utility.yul\":29630:29703   */\n      tag_315\n      jump\t// in\n    tag_673:\n        /* \"#utility.yul\":29713:29786   */\n      tag_674\n        /* \"#utility.yul\":29781:29784   */\n      0xc0\n        /* \"#utility.yul\":29770:29779   */\n      dup4\n        /* \"#utility.yul\":29766:29785   */\n      add\n        /* \"#utility.yul\":29757:29763   */\n      dup5\n        /* \"#utility.yul\":29713:29786   */\n      tag_323\n      jump\t// in\n    tag_674:\n        /* \"#utility.yul\":28618:29793   */\n      swap9\n      swap8\n      pop\n      pop\n      pop\n      pop\n      pop\n      pop\n      pop\n      pop\n      jump\t// out\n        /* \"#utility.yul\":29799:30032   */\n    tag_177:\n        /* \"#utility.yul\":29838:29841   */\n      0x00\n        /* \"#utility.yul\":29861:29885   */\n      tag_676\n        /* \"#utility.yul\":29879:29884   */\n      dup3\n        /* \"#utility.yul\":29861:29885   */\n      tag_312\n      jump\t// in\n    tag_676:\n        /* \"#utility.yul\":29852:29885   */\n      swap2\n      pop\n        /* \"#utility.yul\":29907:29973   */\n      0xffffffffffffffffffffffffffffffffffffffffffffffffffffffffffffffff\n        /* \"#utility.yul\":29900:29905   */\n      dup3\n        /* \"#utility.yul\":29897:29974   */\n      sub\n        /* \"#utility.yul\":29894:29997   */\n      tag_677\n      jumpi\n        /* \"#utility.yul\":29977:29995   */\n      tag_678\n      tag_359\n      jump\t// in\n    tag_678:\n        /* \"#utility.yul\":29894:29997   */\n    tag_677:\n        /* \"#utility.yul\":30024:30025   */\n      0x01\n        /* \"#utility.yul\":30017:30022   */\n      dup3\n        /* \"#utility.yul\":30013:30026   */\n      add\n        /* \"#utility.yul\":30006:30026   */\n      swap1\n      pop\n        /* \"#utility.yul\":29799:30032   */\n      swap2\n      swap1\n      pop\n      jump\t// out\n\n    auxdata: 0xa2646970667358221220cf03346b84b123593407d648f45bca95aff22d170f6537aacbf979f55e03cb9864736f6c634300081a0033\n}\n",
				"bytecode": {
					"linkReferences": {},
					"object": "60806040525f600255348015610013575f80fd5b5060405161338a38038061338a8339818101604052810190610035919061021b565b335f73ffffffffffffffffffffffffffffffffffffffff168173ffffffffffffffffffffffffffffffffffffffff16036100a6575f6040517f1e4fbdf700000000000000000000000000000000000000000000000000000000815260040161009d9190610255565b60405180910390fd5b6100b5816100fc60201b60201c565b508060015f6101000a81548173ffffffffffffffffffffffffffffffffffffffff021916908373ffffffffffffffffffffffffffffffffffffffff1602179055505061026e565b5f805f9054906101000a900473ffffffffffffffffffffffffffffffffffffffff169050815f806101000a81548173ffffffffffffffffffffffffffffffffffffffff021916908373ffffffffffffffffffffffffffffffffffffffff1602179055508173ffffffffffffffffffffffffffffffffffffffff168173ffffffffffffffffffffffffffffffffffffffff167f8be0079c531659141344cd1fd0a4f28419497f9722a3daafe3b4186f6b6457e060405160405180910390a35050565b5f80fd5b5f73ffffffffffffffffffffffffffffffffffffffff82169050919050565b5f6101ea826101c1565b9050919050565b6101fa816101e0565b8114610204575f80fd5b50565b5f81519050610215816101f1565b92915050565b5f602082840312156102305761022f6101bd565b5b5f61023d84828501610207565b91505092915050565b61024f816101e0565b82525050565b5f6020820190506102685f830184610246565b92915050565b61310f8061027b5f395ff3fe608060405234801561000f575f80fd5b50600436106100b2575f3560e01c80638da5cb5b1161006f5780638da5cb5b14610191578063be07d1d9146101af578063c6311e3f146101e8578063c7f758a814610221578063f2fde38b14610252578063f30282a11461026e576100b2565b80630121b93f146100b6578063013cf08b146100d2578063159428d11461010b5780632b499cab1461013b5780634c15676b1461016b578063715018a614610187575b5f80fd5b6100d060048036038101906100cb919061221b565b61028c565b005b6100ec60048036038101906100e7919061221b565b6104fd565b6040516101029a99989796959493929190612304565b60405180910390f35b610125600480360381019061012091906123eb565b61080a565b604051610132919061262a565b60405180910390f35b610155600480360381019061015091906123eb565b610bf0565b6040516101629190612664565b60405180910390f35b610185600480360381019061018091906127a9565b610c0d565b005b61018f61125b565b005b61019961126e565b6040516101a69190612861565b60405180910390f35b6101c960048036038101906101c4919061287a565b611295565b6040516101df9a99989796959493929190612304565b60405180910390f35b61020260048036038101906101fd919061221b565b6115bc565b6040516102189a99989796959493929190612304565b60405180910390f35b61023b6004803603810190610236919061221b565b6118d8565b6040516102499291906128b8565b60405180910390f35b61026c600480360381019061026791906123eb565b611c5b565b005b610276611cdf565b604051610283919061262a565b60405180910390f35b5f60015f9054906101000a900473ffffffffffffffffffffffffffffffffffffffff1673ffffffffffffffffffffffffffffffffffffffff16630f53a470336040518263ffffffff1660e01b81526004016102e79190612861565b5f60405180830381865afa158015610301573d5f803e3d5ffd5b505050506040513d5f823e3d601f19601f820116820180604052508101906103299190612a56565b9050806060015161036f576040517f08c379a000000000000000000000000000000000000000000000000000000000815260040161036690612ae7565b60405180910390fd5b60055f3373ffffffffffffffffffffffffffffffffffffffff1673ffffffffffffffffffffffffffffffffffffffff1681526020019081526020015f205f9054906101000a900460ff16156103f9576040517f08c379a00000000000000000000000000000000000000000000000000000000081526004016103f090612b4f565b60405180910390fd5b600160045f8481526020019081526020015f206003015f82825461041d9190612b9a565b92505081905550600160055f3373ffffffffffffffffffffffffffffffffffffffff1673ffffffffffffffffffffffffffffffffffffffff1681526020019081526020015f205f6101000a81548160ff0219169083151502179055507fd2fc1d22396e10a9080d66e9e30f30b71d1080fd6519f1c623a4df0258d06e8a60055f3373ffffffffffffffffffffffffffffffffffffffff1673ffffffffffffffffffffffffffffffffffffffff1681526020019081526020015f205f9054906101000a900460ff166040516104f19190612664565b60405180910390a15050565b6004602052805f5260405f205f91509050805f01549080600101805461052290612bfa565b80601f016020809104026020016040519081016040528092919081815260200182805461054e90612bfa565b80156105995780601f1061057057610100808354040283529160200191610599565b820191905f5260205f20905b81548152906001019060200180831161057c57829003601f168201915b5050505050908060020180546105ae90612bfa565b80601f01602080910402602001604051908101604052809291908181526020018280546105da90612bfa565b80156106255780601f106105fc57610100808354040283529160200191610625565b820191905f5260205f20905b81548152906001019060200180831161060857829003601f168201915b50505050509080600301549080600401805461064090612bfa565b80601f016020809104026020016040519081016040528092919081815260200182805461066c90612bfa565b80156106b75780601f1061068e576101008083540402835291602001916106b7565b820191905f5260205f20905b81548152906001019060200180831161069a57829003601f168201915b505050505090806005015490806006015f9054906101000a900473ffffffffffffffffffffffffffffffffffffffff16908060070180546106f790612bfa565b80601f016020809104026020016040519081016040528092919081815260200182805461072390612bfa565b801561076e5780601f106107455761010080835404028352916020019161076e565b820191905f5260205f20905b81548152906001019060200180831161075157829003601f168201915b50505050509080600801805461078390612bfa565b80601f01602080910402602001604051908101604052809291908181526020018280546107af90612bfa565b80156107fa5780601f106107d1576101008083540402835291602001916107fa565b820191905f5260205f20905b8154815290600101906020018083116107dd57829003601f168201915b505050505090806009015490508a565b606060035f8373ffffffffffffffffffffffffffffffffffffffff1673ffffffffffffffffffffffffffffffffffffffff1681526020019081526020015f20805480602002602001604051908101604052809291908181526020015f905b82821015610be5578382905f5260205f2090600a0201604051806101400160405290815f82015481526020016001820180546108a390612bfa565b80601f01602080910402602001604051908101604052809291908181526020018280546108cf90612bfa565b801561091a5780601f106108f15761010080835404028352916020019161091a565b820191905f5260205f20905b8154815290600101906020018083116108fd57829003601f168201915b5050505050815260200160028201805461093390612bfa565b80601f016020809104026020016040519081016040528092919081815260200182805461095f90612bfa565b80156109aa5780601f10610981576101008083540402835291602001916109aa565b820191905f5260205f20905b81548152906001019060200180831161098d57829003601f168201915b50505050508152602001600382015481526020016004820180546109cd90612bfa565b80601f01602080910402602001604051908101604052809291908181526020018280546109f990612bfa565b8015610a445780601f10610a1b57610100808354040283529160200191610a44565b820191905f5260205f20905b815481529060010190602001808311610a2757829003601f168201915b5050505050815260200160058201548152602001600682015f9054906101000a900473ffffffffffffffffffffffffffffffffffffffff1673ffffffffffffffffffffffffffffffffffffffff1673ffffffffffffffffffffffffffffffffffffffff168152602001600782018054610abc90612bfa565b80601f0160208091040260200160405190810160405280929190818152602001828054610ae890612bfa565b8015610b335780601f10610b0a57610100808354040283529160200191610b33565b820191905f5260205f20905b815481529060010190602001808311610b1657829003601f168201915b50505050508152602001600882018054610b4c90612bfa565b80601f0160208091040260200160405190810160405280929190818152602001828054610b7890612bfa565b8015610bc35780601f10610b9a57610100808354040283529160200191610bc3565b820191905f5260205f20905b815481529060010190602001808311610ba657829003601f168201915b5050505050815260200160098201548152505081526020019060010190610868565b505050509050919050565b6005602052805f5260405f205f915054906101000a900460ff1681565b5f60015f9054906101000a900473ffffffffffffffffffffffffffffffffffffffff1673ffffffffffffffffffffffffffffffffffffffff16630f53a470336040518263ffffffff1660e01b8152600401610c689190612861565b5f60405180830381865afa158015610c82573d5f803e3d5ffd5b505050506040513d5f823e3d601f19601f82011682018060405250810190610caa9190612a56565b90508060600151610cf0576040517f08c379a0000000000000000000000000000000000000000000000000000000008152600401610ce790612ae7565b60405180910390fd5b5f60015f9054906101000a900473ffffffffffffffffffffffffffffffffffffffff1673ffffffffffffffffffffffffffffffffffffffff166304386432336040518263ffffffff1660e01b8152600401610d4b9190612861565b5f60405180830381865afa158015610d65573d5f803e3d5ffd5b505050506040513d5f823e3d601f19601f82011682018060405250810190610d8d9190612c2a565b90505f60015f9054906101000a900473ffffffffffffffffffffffffffffffffffffffff1673ffffffffffffffffffffffffffffffffffffffff1663a2e84e6e336040518263ffffffff1660e01b8152600401610dea9190612861565b5f60405180830381865afa158015610e04573d5f803e3d5ffd5b505050506040513d5f823e3d601f19601f82011682018060405250810190610e2c9190612c2a565b90505f60405180610140016040528060025481526020018981526020018881526020015f81526020018781526020018681526020013373ffffffffffffffffffffffffffffffffffffffff1681526020018481526020018381526020014281525090508060045f60025481526020019081526020015f205f820151815f01556020820151816001019081610ec09190612e0e565b506040820151816002019081610ed69190612e0e565b50606082015181600301556080820151816004019081610ef69190612e0e565b5060a0820151816005015560c0820151816006015f6101000a81548173ffffffffffffffffffffffffffffffffffffffff021916908373ffffffffffffffffffffffffffffffffffffffff16021790555060e0820151816007019081610f5c9190612e0e565b50610100820151816008019081610f739190612e0e565b50610120820151816009015590505060035f3373ffffffffffffffffffffffffffffffffffffffff1673ffffffffffffffffffffffffffffffffffffffff1681526020019081526020015f2081908060018154018082558091505060019003905f5260205f2090600a02015f909190919091505f820151815f015560208201518160010190816110039190612e0e565b5060408201518160020190816110199190612e0e565b506060820151816003015560808201518160040190816110399190612e0e565b5060a0820151816005015560c0820151816006015f6101000a81548173ffffffffffffffffffffffffffffffffffffffff021916908373ffffffffffffffffffffffffffffffffffffffff16021790555060e082015181600701908161109f9190612e0e565b506101008201518160080190816110b69190612e0e565b5061012082015181600901555050600660045f60025481526020019081526020015f20908060018154018082558091505060019003905f5260205f2090600a02015f909190919091505f820154815f01556001820181600101908161111b9190612ef2565b50600282018160020190816111309190612ef2565b50600382015481600301556004820181600401908161114f9190612ef2565b5060058201548160050155600682015f9054906101000a900473ffffffffffffffffffffffffffffffffffffffff16816006015f6101000a81548173ffffffffffffffffffffffffffffffffffffffff021916908373ffffffffffffffffffffffffffffffffffffffff160217905550600782018160070190816111d39190612ef2565b50600882018160080190816111e89190612ef2565b506009820154816009015550507f1961f6452621f42ceb4621cac123d1a782ecd2620c2d8c755fbf8f7c849b24a460025489895f8a8a336040516112329796959493929190613010565b60405180910390a160025f81548092919061124c90613092565b91905055505050505050505050565b611263612088565b61126c5f61210f565b565b5f805f9054906101000a900473ffffffffffffffffffffffffffffffffffffffff16905090565b6003602052815f5260405f2081815481106112ae575f80fd5b905f5260205f2090600a02015f9150915050805f0154908060010180546112d490612bfa565b80601f016020809104026020016040519081016040528092919081815260200182805461130090612bfa565b801561134b5780601f106113225761010080835404028352916020019161134b565b820191905f5260205f20905b81548152906001019060200180831161132e57829003601f168201915b50505050509080600201805461136090612bfa565b80601f016020809104026020016040519081016040528092919081815260200182805461138c90612bfa565b80156113d75780601f106113ae576101008083540402835291602001916113d7565b820191905f5260205f20905b8154815290600101906020018083116113ba57829003601f168201915b5050505050908060030154908060040180546113f290612bfa565b80601f016020809104026020016040519081016040528092919081815260200182805461141e90612bfa565b80156114695780601f1061144057610100808354040283529160200191611469565b820191905f5260205f20905b81548152906001019060200180831161144c57829003601f168201915b505050505090806005015490806006015f9054906101000a900473ffffffffffffffffffffffffffffffffffffffff16908060070180546114a990612bfa565b80601f01602080910402602001604051908101604052809291908181526020018280546114d590612bfa565b80156115205780601f106114f757610100808354040283529160200191611520565b820191905f5260205f20905b81548152906001019060200180831161150357829003601f168201915b50505050509080600801805461153590612bfa565b80601f016020809104026020016040519081016040528092919081815260200182805461156190612bfa565b80156115ac5780601f10611583576101008083540402835291602001916115ac565b820191905f5260205f20905b81548152906001019060200180831161158f57829003601f168201915b505050505090806009015490508a565b600681815481106115cb575f80fd5b905f5260205f2090600a02015f91509050805f0154908060010180546115f090612bfa565b80601f016020809104026020016040519081016040528092919081815260200182805461161c90612bfa565b80156116675780601f1061163e57610100808354040283529160200191611667565b820191905f5260205f20905b81548152906001019060200180831161164a57829003601f168201915b50505050509080600201805461167c90612bfa565b80601f01602080910402602001604051908101604052809291908181526020018280546116a890612bfa565b80156116f35780601f106116ca576101008083540402835291602001916116f3565b820191905f5260205f20905b8154815290600101906020018083116116d657829003601f168201915b50505050509080600301549080600401805461170e90612bfa565b80601f016020809104026020016040519081016040528092919081815260200182805461173a90612bfa565b80156117855780601f1061175c57610100808354040283529160200191611785565b820191905f5260205f20905b81548152906001019060200180831161176857829003601f168201915b505050505090806005015490806006015f9054906101000a900473ffffffffffffffffffffffffffffffffffffffff16908060070180546117c590612bfa565b80601f01602080910402602001604051908101604052809291908181526020018280546117f190612bfa565b801561183c5780601f106118135761010080835404028352916020019161183c565b820191905f5260205f20905b81548152906001019060200180831161181f57829003601f168201915b50505050509080600801805461185190612bfa565b80601f016020809104026020016040519081016040528092919081815260200182805461187d90612bfa565b80156118c85780601f1061189f576101008083540402835291602001916118c8565b820191905f5260205f20905b8154815290600101906020018083116118ab57829003601f168201915b505050505090806009015490508a565b6060805f60045f8581526020019081526020015f20604051806101400160405290815f820154815260200160018201805461191290612bfa565b80601f016020809104026020016040519081016040528092919081815260200182805461193e90612bfa565b80156119895780601f1061196057610100808354040283529160200191611989565b820191905f5260205f20905b81548152906001019060200180831161196c57829003601f168201915b505050505081526020016002820180546119a290612bfa565b80601f01602080910402602001604051908101604052809291908181526020018280546119ce90612bfa565b8015611a195780601f106119f057610100808354040283529160200191611a19565b820191905f5260205f20905b8154815290600101906020018083116119fc57829003601f168201915b5050505050815260200160038201548152602001600482018054611a3c90612bfa565b80601f0160208091040260200160405190810160405280929190818152602001828054611a6890612bfa565b8015611ab35780601f10611a8a57610100808354040283529160200191611ab3565b820191905f5260205f20905b815481529060010190602001808311611a9657829003601f168201915b5050505050815260200160058201548152602001600682015f9054906101000a900473ffffffffffffffffffffffffffffffffffffffff1673ffffffffffffffffffffffffffffffffffffffff1673ffffffffffffffffffffffffffffffffffffffff168152602001600782018054611b2b90612bfa565b80601f0160208091040260200160405190810160405280929190818152602001828054611b5790612bfa565b8015611ba25780601f10611b7957610100808354040283529160200191611ba2565b820191905f5260205f20905b815481529060010190602001808311611b8557829003601f168201915b50505050508152602001600882018054611bbb90612bfa565b80601f0160208091040260200160405190810160405280929190818152602001828054611be790612bfa565b8015611c325780601f10611c0957610100808354040283529160200191611c32565b820191905f5260205f20905b815481529060010190602001808311611c1557829003601f168201915b505050505081526020016009820154815250509050806020015181604001519250925050915091565b611c63612088565b5f73ffffffffffffffffffffffffffffffffffffffff168173ffffffffffffffffffffffffffffffffffffffff1603611cd3575f6040517f1e4fbdf7000000000000000000000000000000000000000000000000000000008152600401611cca9190612861565b60405180910390fd5b611cdc8161210f565b50565b60606006805480602002602001604051908101604052809291908181526020015f905b8282101561207f578382905f5260205f2090600a0201604051806101400160405290815f8201548152602001600182018054611d3d90612bfa565b80601f0160208091040260200160405190810160405280929190818152602001828054611d6990612bfa565b8015611db45780601f10611d8b57610100808354040283529160200191611db4565b820191905f5260205f20905b815481529060010190602001808311611d9757829003601f168201915b50505050508152602001600282018054611dcd90612bfa565b80601f0160208091040260200160405190810160405280929190818152602001828054611df990612bfa565b8015611e445780601f10611e1b57610100808354040283529160200191611e44565b820191905f5260205f20905b815481529060010190602001808311611e2757829003601f168201915b5050505050815260200160038201548152602001600482018054611e6790612bfa565b80601f0160208091040260200160405190810160405280929190818152602001828054611e9390612bfa565b8015611ede5780601f10611eb557610100808354040283529160200191611ede565b820191905f5260205f20905b815481529060010190602001808311611ec157829003601f168201915b5050505050815260200160058201548152602001600682015f9054906101000a900473ffffffffffffffffffffffffffffffffffffffff1673ffffffffffffffffffffffffffffffffffffffff1673ffffffffffffffffffffffffffffffffffffffff168152602001600782018054611f5690612bfa565b80601f0160208091040260200160405190810160405280929190818152602001828054611f8290612bfa565b8015611fcd5780601f10611fa457610100808354040283529160200191611fcd565b820191905f5260205f20905b815481529060010190602001808311611fb057829003601f168201915b50505050508152602001600882018054611fe690612bfa565b80601f016020809104026020016040519081016040528092919081815260200182805461201290612bfa565b801561205d5780601f106120345761010080835404028352916020019161205d565b820191905f5260205f20905b81548152906001019060200180831161204057829003601f168201915b5050505050815260200160098201548152505081526020019060010190611d02565b50505050905090565b6120906121d0565b73ffffffffffffffffffffffffffffffffffffffff166120ae61126e565b73ffffffffffffffffffffffffffffffffffffffff161461210d576120d16121d0565b6040517f118cdaa70000000000000000000000000000000000000000000000000000000081526004016121049190612861565b60405180910390fd5b565b5f805f9054906101000a900473ffffffffffffffffffffffffffffffffffffffff169050815f806101000a81548173ffffffffffffffffffffffffffffffffffffffff021916908373ffffffffffffffffffffffffffffffffffffffff1602179055508173ffffffffffffffffffffffffffffffffffffffff168173ffffffffffffffffffffffffffffffffffffffff167f8be0079c531659141344cd1fd0a4f28419497f9722a3daafe3b4186f6b6457e060405160405180910390a35050565b5f33905090565b5f604051905090565b5f80fd5b5f80fd5b5f819050919050565b6121fa816121e8565b8114612204575f80fd5b50565b5f81359050612215816121f1565b92915050565b5f602082840312156122305761222f6121e0565b5b5f61223d84828501612207565b91505092915050565b61224f816121e8565b82525050565b5f81519050919050565b5f82825260208201905092915050565b8281835e5f83830152505050565b5f601f19601f8301169050919050565b5f61229782612255565b6122a1818561225f565b93506122b181856020860161226f565b6122ba8161227d565b840191505092915050565b5f73ffffffffffffffffffffffffffffffffffffffff82169050919050565b5f6122ee826122c5565b9050919050565b6122fe816122e4565b82525050565b5f610140820190506123185f83018d612246565b818103602083015261232a818c61228d565b9050818103604083015261233e818b61228d565b905061234d606083018a612246565b818103608083015261235f818961228d565b905061236e60a0830188612246565b61237b60c08301876122f5565b81810360e083015261238d818661228d565b90508181036101008301526123a2818561228d565b90506123b2610120830184612246565b9b9a5050505050505050505050565b6123ca816122e4565b81146123d4575f80fd5b50565b5f813590506123e5816123c1565b92915050565b5f60208284031215612400576123ff6121e0565b5b5f61240d848285016123d7565b91505092915050565b5f81519050919050565b5f82825260208201905092915050565b5f819050602082019050919050565b612448816121e8565b82525050565b5f82825260208201905092915050565b5f61246882612255565b612472818561244e565b935061248281856020860161226f565b61248b8161227d565b840191505092915050565b61249f816122e4565b82525050565b5f61014083015f8301516124bb5f86018261243f565b50602083015184820360208601526124d3828261245e565b915050604083015184820360408601526124ed828261245e565b9150506060830151612502606086018261243f565b506080830151848203608086015261251a828261245e565b91505060a083015161252f60a086018261243f565b5060c083015161254260c0860182612496565b5060e083015184820360e086015261255a828261245e565b915050610100830151848203610100860152612576828261245e565b91505061012083015161258d61012086018261243f565b508091505092915050565b5f6125a383836124a5565b905092915050565b5f602082019050919050565b5f6125c182612416565b6125cb8185612420565b9350836020820285016125dd85612430565b805f5b8581101561261857848403895281516125f98582612598565b9450612604836125ab565b925060208a019950506001810190506125e0565b50829750879550505050505092915050565b5f6020820190508181035f83015261264281846125b7565b905092915050565b5f8115159050919050565b61265e8161264a565b82525050565b5f6020820190506126775f830184612655565b92915050565b5f80fd5b5f80fd5b7f4e487b71000000000000000000000000000000000000000000000000000000005f52604160045260245ffd5b6126bb8261227d565b810181811067ffffffffffffffff821117156126da576126d9612685565b5b80604052505050565b5f6126ec6121d7565b90506126f882826126b2565b919050565b5f67ffffffffffffffff82111561271757612716612685565b5b6127208261227d565b9050602081019050919050565b828183375f83830152505050565b5f61274d612748846126fd565b6126e3565b90508281526020810184848401111561276957612768612681565b5b61277484828561272d565b509392505050565b5f82601f8301126127905761278f61267d565b5b81356127a084826020860161273b565b91505092915050565b5f805f80608085870312156127c1576127c06121e0565b5b5f85013567ffffffffffffffff8111156127de576127dd6121e4565b5b6127ea8782880161277c565b945050602085013567ffffffffffffffff81111561280b5761280a6121e4565b5b6128178782880161277c565b935050604085013567ffffffffffffffff811115612838576128376121e4565b5b6128448782880161277c565b925050606061285587828801612207565b91505092959194509250565b5f6020820190506128745f8301846122f5565b92915050565b5f80604083850312156128905761288f6121e0565b5b5f61289d858286016123d7565b92505060206128ae85828601612207565b9150509250929050565b5f6040820190508181035f8301526128d0818561228d565b905081810360208301526128e4818461228d565b90509392505050565b5f80fd5b5f80fd5b5f612907612902846126fd565b6126e3565b90508281526020810184848401111561292357612922612681565b5b61292e84828561226f565b509392505050565b5f82601f83011261294a5761294961267d565b5b815161295a8482602086016128f5565b91505092915050565b61296c8161264a565b8114612976575f80fd5b50565b5f8151905061298781612963565b92915050565b5f608082840312156129a2576129a16128ed565b5b6129ac60806126e3565b90505f82015167ffffffffffffffff8111156129cb576129ca6128f1565b5b6129d784828501612936565b5f83015250602082015167ffffffffffffffff8111156129fa576129f96128f1565b5b612a0684828501612936565b602083015250604082015167ffffffffffffffff811115612a2a57612a296128f1565b5b612a3684828501612936565b6040830152506060612a4a84828501612979565b60608301525092915050565b5f60208284031215612a6b57612a6a6121e0565b5b5f82015167ffffffffffffffff811115612a8857612a876121e4565b5b612a948482850161298d565b91505092915050565b7f596f75206861766520746f2052656769737465726400000000000000000000005f82015250565b5f612ad160158361225f565b9150612adc82612a9d565b602082019050919050565b5f6020820190508181035f830152612afe81612ac5565b9050919050565b7f596f752061726520616c726561647920566f74656421000000000000000000005f82015250565b5f612b3960168361225f565b9150612b4482612b05565b602082019050919050565b5f6020820190508181035f830152612b6681612b2d565b9050919050565b7f4e487b71000000000000000000000000000000000000000000000000000000005f52601160045260245ffd5b5f612ba4826121e8565b9150612baf836121e8565b9250828201905080821115612bc757612bc6612b6d565b5b92915050565b7f4e487b71000000000000000000000000000000000000000000000000000000005f52602260045260245ffd5b5f6002820490506001821680612c1157607f821691505b602082108103612c2457612c23612bcd565b5b50919050565b5f60208284031215612c3f57612c3e6121e0565b5b5f82015167ffffffffffffffff811115612c5c57612c5b6121e4565b5b612c6884828501612936565b91505092915050565b5f819050815f5260205f209050919050565b5f6020601f8301049050919050565b5f82821b905092915050565b5f60088302612ccd7fffffffffffffffffffffffffffffffffffffffffffffffffffffffffffffffff82612c92565b612cd78683612c92565b95508019841693508086168417925050509392505050565b5f819050919050565b5f612d12612d0d612d08846121e8565b612cef565b6121e8565b9050919050565b5f819050919050565b612d2b83612cf8565b612d3f612d3782612d19565b848454612c9e565b825550505050565b5f90565b612d53612d47565b612d5e818484612d22565b505050565b5b81811015612d8157612d765f82612d4b565b600181019050612d64565b5050565b601f821115612dc657612d9781612c71565b612da084612c83565b81016020851015612daf578190505b612dc3612dbb85612c83565b830182612d63565b50505b505050565b5f82821c905092915050565b5f612de65f1984600802612dcb565b1980831691505092915050565b5f612dfe8383612dd7565b9150826002028217905092915050565b612e1782612255565b67ffffffffffffffff811115612e3057612e2f612685565b5b612e3a8254612bfa565b612e45828285612d85565b5f60209050601f831160018114612e76575f8415612e64578287015190505b612e6e8582612df3565b865550612ed5565b601f198416612e8486612c71565b5f5b82811015612eab57848901518255600182019150602085019450602081019050612e86565b86831015612ec85784890151612ec4601f891682612dd7565b8355505b6001600288020188555050505b505050505050565b5f81549050612eeb81612bfa565b9050919050565b818103612f00575050612fd5565b612f0982612edd565b67ffffffffffffffff811115612f2257612f21612685565b5b612f2c8254612bfa565b612f37828285612d85565b5f601f831160018114612f64575f8415612f52578287015490505b612f5c8582612df3565b865550612fce565b601f198416612f7287612c71565b9650612f7d86612c71565b5f5b82811015612fa457848901548255600182019150600185019450602081019050612f7f565b86831015612fc15784890154612fbd601f891682612dd7565b8355505b6001600288020188555050505b5050505050505b565b5f819050919050565b5f612ffa612ff5612ff084612fd7565b612cef565b6121e8565b9050919050565b61300a81612fe0565b82525050565b5f60e0820190506130235f83018a612246565b8181036020830152613035818961228d565b90508181036040830152613049818861228d565b90506130586060830187613001565b818103608083015261306a818661228d565b905061307960a0830185612246565b61308660c08301846122f5565b98975050505050505050565b5f61309c826121e8565b91507fffffffffffffffffffffffffffffffffffffffffffffffffffffffffffffffff82036130ce576130cd612b6d565b5b60018201905091905056fea2646970667358221220cf03346b84b123593407d648f45bca95aff22d170f6537aacbf979f55e03cb9864736f6c634300081a0033",
					"opcodes": "PUSH1 0x80 PUSH1 0x40 MSTORE PUSH0 PUSH1 0x2 SSTORE CALLVALUE DUP1 ISZERO PUSH2 0x13 JUMPI PUSH0 DUP1 REVERT JUMPDEST POP PUSH1 0x40 MLOAD PUSH2 0x338A CODESIZE SUB DUP1 PUSH2 0x338A DUP4 CODECOPY DUP2 DUP2 ADD PUSH1 0x40 MSTORE DUP2 ADD SWAP1 PUSH2 0x35 SWAP2 SWAP1 PUSH2 0x21B JUMP JUMPDEST CALLER PUSH0 PUSH20 0xFFFFFFFFFFFFFFFFFFFFFFFFFFFFFFFFFFFFFFFF AND DUP2 PUSH20 0xFFFFFFFFFFFFFFFFFFFFFFFFFFFFFFFFFFFFFFFF AND SUB PUSH2 0xA6 JUMPI PUSH0 PUSH1 0x40 MLOAD PUSH32 0x1E4FBDF700000000000000000000000000000000000000000000000000000000 DUP2 MSTORE PUSH1 0x4 ADD PUSH2 0x9D SWAP2 SWAP1 PUSH2 0x255 JUMP JUMPDEST PUSH1 0x40 MLOAD DUP1 SWAP2 SUB SWAP1 REVERT JUMPDEST PUSH2 0xB5 DUP2 PUSH2 0xFC PUSH1 0x20 SHL PUSH1 0x20 SHR JUMP JUMPDEST POP DUP1 PUSH1 0x1 PUSH0 PUSH2 0x100 EXP DUP2 SLOAD DUP2 PUSH20 0xFFFFFFFFFFFFFFFFFFFFFFFFFFFFFFFFFFFFFFFF MUL NOT AND SWAP1 DUP4 PUSH20 0xFFFFFFFFFFFFFFFFFFFFFFFFFFFFFFFFFFFFFFFF AND MUL OR SWAP1 SSTORE POP POP PUSH2 0x26E JUMP JUMPDEST PUSH0 DUP1 PUSH0 SWAP1 SLOAD SWAP1 PUSH2 0x100 EXP SWAP1 DIV PUSH20 0xFFFFFFFFFFFFFFFFFFFFFFFFFFFFFFFFFFFFFFFF AND SWAP1 POP DUP2 PUSH0 DUP1 PUSH2 0x100 EXP DUP2 SLOAD DUP2 PUSH20 0xFFFFFFFFFFFFFFFFFFFFFFFFFFFFFFFFFFFFFFFF MUL NOT AND SWAP1 DUP4 PUSH20 0xFFFFFFFFFFFFFFFFFFFFFFFFFFFFFFFFFFFFFFFF AND MUL OR SWAP1 SSTORE POP DUP2 PUSH20 0xFFFFFFFFFFFFFFFFFFFFFFFFFFFFFFFFFFFFFFFF AND DUP2 PUSH20 0xFFFFFFFFFFFFFFFFFFFFFFFFFFFFFFFFFFFFFFFF AND PUSH32 0x8BE0079C531659141344CD1FD0A4F28419497F9722A3DAAFE3B4186F6B6457E0 PUSH1 0x40 MLOAD PUSH1 0x40 MLOAD DUP1 SWAP2 SUB SWAP1 LOG3 POP POP JUMP JUMPDEST PUSH0 DUP1 REVERT JUMPDEST PUSH0 PUSH20 0xFFFFFFFFFFFFFFFFFFFFFFFFFFFFFFFFFFFFFFFF DUP3 AND SWAP1 POP SWAP2 SWAP1 POP JUMP JUMPDEST PUSH0 PUSH2 0x1EA DUP3 PUSH2 0x1C1 JUMP JUMPDEST SWAP1 POP SWAP2 SWAP1 POP JUMP JUMPDEST PUSH2 0x1FA DUP2 PUSH2 0x1E0 JUMP JUMPDEST DUP2 EQ PUSH2 0x204 JUMPI PUSH0 DUP1 REVERT JUMPDEST POP JUMP JUMPDEST PUSH0 DUP2 MLOAD SWAP1 POP PUSH2 0x215 DUP2 PUSH2 0x1F1 JUMP JUMPDEST SWAP3 SWAP2 POP POP JUMP JUMPDEST PUSH0 PUSH1 0x20 DUP3 DUP5 SUB SLT ISZERO PUSH2 0x230 JUMPI PUSH2 0x22F PUSH2 0x1BD JUMP JUMPDEST JUMPDEST PUSH0 PUSH2 0x23D DUP5 DUP3 DUP6 ADD PUSH2 0x207 JUMP JUMPDEST SWAP2 POP POP SWAP3 SWAP2 POP POP JUMP JUMPDEST PUSH2 0x24F DUP2 PUSH2 0x1E0 JUMP JUMPDEST DUP3 MSTORE POP POP JUMP JUMPDEST PUSH0 PUSH1 0x20 DUP3 ADD SWAP1 POP PUSH2 0x268 PUSH0 DUP4 ADD DUP5 PUSH2 0x246 JUMP JUMPDEST SWAP3 SWAP2 POP POP JUMP JUMPDEST PUSH2 0x310F DUP1 PUSH2 0x27B PUSH0 CODECOPY PUSH0 RETURN INVALID PUSH1 0x80 PUSH1 0x40 MSTORE CALLVALUE DUP1 ISZERO PUSH2 0xF JUMPI PUSH0 DUP1 REVERT JUMPDEST POP PUSH1 0x4 CALLDATASIZE LT PUSH2 0xB2 JUMPI PUSH0 CALLDATALOAD PUSH1 0xE0 SHR DUP1 PUSH4 0x8DA5CB5B GT PUSH2 0x6F JUMPI DUP1 PUSH4 0x8DA5CB5B EQ PUSH2 0x191 JUMPI DUP1 PUSH4 0xBE07D1D9 EQ PUSH2 0x1AF JUMPI DUP1 PUSH4 0xC6311E3F EQ PUSH2 0x1E8 JUMPI DUP1 PUSH4 0xC7F758A8 EQ PUSH2 0x221 JUMPI DUP1 PUSH4 0xF2FDE38B EQ PUSH2 0x252 JUMPI DUP1 PUSH4 0xF30282A1 EQ PUSH2 0x26E JUMPI PUSH2 0xB2 JUMP JUMPDEST DUP1 PUSH4 0x121B93F EQ PUSH2 0xB6 JUMPI DUP1 PUSH4 0x13CF08B EQ PUSH2 0xD2 JUMPI DUP1 PUSH4 0x159428D1 EQ PUSH2 0x10B JUMPI DUP1 PUSH4 0x2B499CAB EQ PUSH2 0x13B JUMPI DUP1 PUSH4 0x4C15676B EQ PUSH2 0x16B JUMPI DUP1 PUSH4 0x715018A6 EQ PUSH2 0x187 JUMPI JUMPDEST PUSH0 DUP1 REVERT JUMPDEST PUSH2 0xD0 PUSH1 0x4 DUP1 CALLDATASIZE SUB DUP2 ADD SWAP1 PUSH2 0xCB SWAP2 SWAP1 PUSH2 0x221B JUMP JUMPDEST PUSH2 0x28C JUMP JUMPDEST STOP JUMPDEST PUSH2 0xEC PUSH1 0x4 DUP1 CALLDATASIZE SUB DUP2 ADD SWAP1 PUSH2 0xE7 SWAP2 SWAP1 PUSH2 0x221B JUMP JUMPDEST PUSH2 0x4FD JUMP JUMPDEST PUSH1 0x40 MLOAD PUSH2 0x102 SWAP11 SWAP10 SWAP9 SWAP8 SWAP7 SWAP6 SWAP5 SWAP4 SWAP3 SWAP2 SWAP1 PUSH2 0x2304 JUMP JUMPDEST PUSH1 0x40 MLOAD DUP1 SWAP2 SUB SWAP1 RETURN JUMPDEST PUSH2 0x125 PUSH1 0x4 DUP1 CALLDATASIZE SUB DUP2 ADD SWAP1 PUSH2 0x120 SWAP2 SWAP1 PUSH2 0x23EB JUMP JUMPDEST PUSH2 0x80A JUMP JUMPDEST PUSH1 0x40 MLOAD PUSH2 0x132 SWAP2 SWAP1 PUSH2 0x262A JUMP JUMPDEST PUSH1 0x40 MLOAD DUP1 SWAP2 SUB SWAP1 RETURN JUMPDEST PUSH2 0x155 PUSH1 0x4 DUP1 CALLDATASIZE SUB DUP2 ADD SWAP1 PUSH2 0x150 SWAP2 SWAP1 PUSH2 0x23EB JUMP JUMPDEST PUSH2 0xBF0 JUMP JUMPDEST PUSH1 0x40 MLOAD PUSH2 0x162 SWAP2 SWAP1 PUSH2 0x2664 JUMP JUMPDEST PUSH1 0x40 MLOAD DUP1 SWAP2 SUB SWAP1 RETURN JUMPDEST PUSH2 0x185 PUSH1 0x4 DUP1 CALLDATASIZE SUB DUP2 ADD SWAP1 PUSH2 0x180 SWAP2 SWAP1 PUSH2 0x27A9 JUMP JUMPDEST PUSH2 0xC0D JUMP JUMPDEST STOP JUMPDEST PUSH2 0x18F PUSH2 0x125B JUMP JUMPDEST STOP JUMPDEST PUSH2 0x199 PUSH2 0x126E JUMP JUMPDEST PUSH1 0x40 MLOAD PUSH2 0x1A6 SWAP2 SWAP1 PUSH2 0x2861 JUMP JUMPDEST PUSH1 0x40 MLOAD DUP1 SWAP2 SUB SWAP1 RETURN JUMPDEST PUSH2 0x1C9 PUSH1 0x4 DUP1 CALLDATASIZE SUB DUP2 ADD SWAP1 PUSH2 0x1C4 SWAP2 SWAP1 PUSH2 0x287A JUMP JUMPDEST PUSH2 0x1295 JUMP JUMPDEST PUSH1 0x40 MLOAD PUSH2 0x1DF SWAP11 SWAP10 SWAP9 SWAP8 SWAP7 SWAP6 SWAP5 SWAP4 SWAP3 SWAP2 SWAP1 PUSH2 0x2304 JUMP JUMPDEST PUSH1 0x40 MLOAD DUP1 SWAP2 SUB SWAP1 RETURN JUMPDEST PUSH2 0x202 PUSH1 0x4 DUP1 CALLDATASIZE SUB DUP2 ADD SWAP1 PUSH2 0x1FD SWAP2 SWAP1 PUSH2 0x221B JUMP JUMPDEST PUSH2 0x15BC JUMP JUMPDEST PUSH1 0x40 MLOAD PUSH2 0x218 SWAP11 SWAP10 SWAP9 SWAP8 SWAP7 SWAP6 SWAP5 SWAP4 SWAP3 SWAP2 SWAP1 PUSH2 0x2304 JUMP JUMPDEST PUSH1 0x40 MLOAD DUP1 SWAP2 SUB SWAP1 RETURN JUMPDEST PUSH2 0x23B PUSH1 0x4 DUP1 CALLDATASIZE SUB DUP2 ADD SWAP1 PUSH2 0x236 SWAP2 SWAP1 PUSH2 0x221B JUMP JUMPDEST PUSH2 0x18D8 JUMP JUMPDEST PUSH1 0x40 MLOAD PUSH2 0x249 SWAP3 SWAP2 SWAP1 PUSH2 0x28B8 JUMP JUMPDEST PUSH1 0x40 MLOAD DUP1 SWAP2 SUB SWAP1 RETURN JUMPDEST PUSH2 0x26C PUSH1 0x4 DUP1 CALLDATASIZE SUB DUP2 ADD SWAP1 PUSH2 0x267 SWAP2 SWAP1 PUSH2 0x23EB JUMP JUMPDEST PUSH2 0x1C5B JUMP JUMPDEST STOP JUMPDEST PUSH2 0x276 PUSH2 0x1CDF JUMP JUMPDEST PUSH1 0x40 MLOAD PUSH2 0x283 SWAP2 SWAP1 PUSH2 0x262A JUMP JUMPDEST PUSH1 0x40 MLOAD DUP1 SWAP2 SUB SWAP1 RETURN JUMPDEST PUSH0 PUSH1 0x1 PUSH0 SWAP1 SLOAD SWAP1 PUSH2 0x100 EXP SWAP1 DIV PUSH20 0xFFFFFFFFFFFFFFFFFFFFFFFFFFFFFFFFFFFFFFFF AND PUSH20 0xFFFFFFFFFFFFFFFFFFFFFFFFFFFFFFFFFFFFFFFF AND PUSH4 0xF53A470 CALLER PUSH1 0x40 MLOAD DUP3 PUSH4 0xFFFFFFFF AND PUSH1 0xE0 SHL DUP2 MSTORE PUSH1 0x4 ADD PUSH2 0x2E7 SWAP2 SWAP1 PUSH2 0x2861 JUMP JUMPDEST PUSH0 PUSH1 0x40 MLOAD DUP1 DUP4 SUB DUP2 DUP7 GAS STATICCALL ISZERO DUP1 ISZERO PUSH2 0x301 JUMPI RETURNDATASIZE PUSH0 DUP1 RETURNDATACOPY RETURNDATASIZE PUSH0 REVERT JUMPDEST POP POP POP POP PUSH1 0x40 MLOAD RETURNDATASIZE PUSH0 DUP3 RETURNDATACOPY RETURNDATASIZE PUSH1 0x1F NOT PUSH1 0x1F DUP3 ADD AND DUP3 ADD DUP1 PUSH1 0x40 MSTORE POP DUP2 ADD SWAP1 PUSH2 0x329 SWAP2 SWAP1 PUSH2 0x2A56 JUMP JUMPDEST SWAP1 POP DUP1 PUSH1 0x60 ADD MLOAD PUSH2 0x36F JUMPI PUSH1 0x40 MLOAD PUSH32 0x8C379A000000000000000000000000000000000000000000000000000000000 DUP2 MSTORE PUSH1 0x4 ADD PUSH2 0x366 SWAP1 PUSH2 0x2AE7 JUMP JUMPDEST PUSH1 0x40 MLOAD DUP1 SWAP2 SUB SWAP1 REVERT JUMPDEST PUSH1 0x5 PUSH0 CALLER PUSH20 0xFFFFFFFFFFFFFFFFFFFFFFFFFFFFFFFFFFFFFFFF AND PUSH20 0xFFFFFFFFFFFFFFFFFFFFFFFFFFFFFFFFFFFFFFFF AND DUP2 MSTORE PUSH1 0x20 ADD SWAP1 DUP2 MSTORE PUSH1 0x20 ADD PUSH0 KECCAK256 PUSH0 SWAP1 SLOAD SWAP1 PUSH2 0x100 EXP SWAP1 DIV PUSH1 0xFF AND ISZERO PUSH2 0x3F9 JUMPI PUSH1 0x40 MLOAD PUSH32 0x8C379A000000000000000000000000000000000000000000000000000000000 DUP2 MSTORE PUSH1 0x4 ADD PUSH2 0x3F0 SWAP1 PUSH2 0x2B4F JUMP JUMPDEST PUSH1 0x40 MLOAD DUP1 SWAP2 SUB SWAP1 REVERT JUMPDEST PUSH1 0x1 PUSH1 0x4 PUSH0 DUP5 DUP2 MSTORE PUSH1 0x20 ADD SWAP1 DUP2 MSTORE PUSH1 0x20 ADD PUSH0 KECCAK256 PUSH1 0x3 ADD PUSH0 DUP3 DUP3 SLOAD PUSH2 0x41D SWAP2 SWAP1 PUSH2 0x2B9A JUMP JUMPDEST SWAP3 POP POP DUP2 SWAP1 SSTORE POP PUSH1 0x1 PUSH1 0x5 PUSH0 CALLER PUSH20 0xFFFFFFFFFFFFFFFFFFFFFFFFFFFFFFFFFFFFFFFF AND PUSH20 0xFFFFFFFFFFFFFFFFFFFFFFFFFFFFFFFFFFFFFFFF AND DUP2 MSTORE PUSH1 0x20 ADD SWAP1 DUP2 MSTORE PUSH1 0x20 ADD PUSH0 KECCAK256 PUSH0 PUSH2 0x100 EXP DUP2 SLOAD DUP2 PUSH1 0xFF MUL NOT AND SWAP1 DUP4 ISZERO ISZERO MUL OR SWAP1 SSTORE POP PUSH32 0xD2FC1D22396E10A9080D66E9E30F30B71D1080FD6519F1C623A4DF0258D06E8A PUSH1 0x5 PUSH0 CALLER PUSH20 0xFFFFFFFFFFFFFFFFFFFFFFFFFFFFFFFFFFFFFFFF AND PUSH20 0xFFFFFFFFFFFFFFFFFFFFFFFFFFFFFFFFFFFFFFFF AND DUP2 MSTORE PUSH1 0x20 ADD SWAP1 DUP2 MSTORE PUSH1 0x20 ADD PUSH0 KECCAK256 PUSH0 SWAP1 SLOAD SWAP1 PUSH2 0x100 EXP SWAP1 DIV PUSH1 0xFF AND PUSH1 0x40 MLOAD PUSH2 0x4F1 SWAP2 SWAP1 PUSH2 0x2664 JUMP JUMPDEST PUSH1 0x40 MLOAD DUP1 SWAP2 SUB SWAP1 LOG1 POP POP JUMP JUMPDEST PUSH1 0x4 PUSH1 0x20 MSTORE DUP1 PUSH0 MSTORE PUSH1 0x40 PUSH0 KECCAK256 PUSH0 SWAP2 POP SWAP1 POP DUP1 PUSH0 ADD SLOAD SWAP1 DUP1 PUSH1 0x1 ADD DUP1 SLOAD PUSH2 0x522 SWAP1 PUSH2 0x2BFA JUMP JUMPDEST DUP1 PUSH1 0x1F ADD PUSH1 0x20 DUP1 SWAP2 DIV MUL PUSH1 0x20 ADD PUSH1 0x40 MLOAD SWAP1 DUP2 ADD PUSH1 0x40 MSTORE DUP1 SWAP3 SWAP2 SWAP1 DUP2 DUP2 MSTORE PUSH1 0x20 ADD DUP3 DUP1 SLOAD PUSH2 0x54E SWAP1 PUSH2 0x2BFA JUMP JUMPDEST DUP1 ISZERO PUSH2 0x599 JUMPI DUP1 PUSH1 0x1F LT PUSH2 0x570 JUMPI PUSH2 0x100 DUP1 DUP4 SLOAD DIV MUL DUP4 MSTORE SWAP2 PUSH1 0x20 ADD SWAP2 PUSH2 0x599 JUMP JUMPDEST DUP3 ADD SWAP2 SWAP1 PUSH0 MSTORE PUSH1 0x20 PUSH0 KECCAK256 SWAP1 JUMPDEST DUP2 SLOAD DUP2 MSTORE SWAP1 PUSH1 0x1 ADD SWAP1 PUSH1 0x20 ADD DUP1 DUP4 GT PUSH2 0x57C JUMPI DUP3 SWAP1 SUB PUSH1 0x1F AND DUP3 ADD SWAP2 JUMPDEST POP POP POP POP POP SWAP1 DUP1 PUSH1 0x2 ADD DUP1 SLOAD PUSH2 0x5AE SWAP1 PUSH2 0x2BFA JUMP JUMPDEST DUP1 PUSH1 0x1F ADD PUSH1 0x20 DUP1 SWAP2 DIV MUL PUSH1 0x20 ADD PUSH1 0x40 MLOAD SWAP1 DUP2 ADD PUSH1 0x40 MSTORE DUP1 SWAP3 SWAP2 SWAP1 DUP2 DUP2 MSTORE PUSH1 0x20 ADD DUP3 DUP1 SLOAD PUSH2 0x5DA SWAP1 PUSH2 0x2BFA JUMP JUMPDEST DUP1 ISZERO PUSH2 0x625 JUMPI DUP1 PUSH1 0x1F LT PUSH2 0x5FC JUMPI PUSH2 0x100 DUP1 DUP4 SLOAD DIV MUL DUP4 MSTORE SWAP2 PUSH1 0x20 ADD SWAP2 PUSH2 0x625 JUMP JUMPDEST DUP3 ADD SWAP2 SWAP1 PUSH0 MSTORE PUSH1 0x20 PUSH0 KECCAK256 SWAP1 JUMPDEST DUP2 SLOAD DUP2 MSTORE SWAP1 PUSH1 0x1 ADD SWAP1 PUSH1 0x20 ADD DUP1 DUP4 GT PUSH2 0x608 JUMPI DUP3 SWAP1 SUB PUSH1 0x1F AND DUP3 ADD SWAP2 JUMPDEST POP POP POP POP POP SWAP1 DUP1 PUSH1 0x3 ADD SLOAD SWAP1 DUP1 PUSH1 0x4 ADD DUP1 SLOAD PUSH2 0x640 SWAP1 PUSH2 0x2BFA JUMP JUMPDEST DUP1 PUSH1 0x1F ADD PUSH1 0x20 DUP1 SWAP2 DIV MUL PUSH1 0x20 ADD PUSH1 0x40 MLOAD SWAP1 DUP2 ADD PUSH1 0x40 MSTORE DUP1 SWAP3 SWAP2 SWAP1 DUP2 DUP2 MSTORE PUSH1 0x20 ADD DUP3 DUP1 SLOAD PUSH2 0x66C SWAP1 PUSH2 0x2BFA JUMP JUMPDEST DUP1 ISZERO PUSH2 0x6B7 JUMPI DUP1 PUSH1 0x1F LT PUSH2 0x68E JUMPI PUSH2 0x100 DUP1 DUP4 SLOAD DIV MUL DUP4 MSTORE SWAP2 PUSH1 0x20 ADD SWAP2 PUSH2 0x6B7 JUMP JUMPDEST DUP3 ADD SWAP2 SWAP1 PUSH0 MSTORE PUSH1 0x20 PUSH0 KECCAK256 SWAP1 JUMPDEST DUP2 SLOAD DUP2 MSTORE SWAP1 PUSH1 0x1 ADD SWAP1 PUSH1 0x20 ADD DUP1 DUP4 GT PUSH2 0x69A JUMPI DUP3 SWAP1 SUB PUSH1 0x1F AND DUP3 ADD SWAP2 JUMPDEST POP POP POP POP POP SWAP1 DUP1 PUSH1 0x5 ADD SLOAD SWAP1 DUP1 PUSH1 0x6 ADD PUSH0 SWAP1 SLOAD SWAP1 PUSH2 0x100 EXP SWAP1 DIV PUSH20 0xFFFFFFFFFFFFFFFFFFFFFFFFFFFFFFFFFFFFFFFF AND SWAP1 DUP1 PUSH1 0x7 ADD DUP1 SLOAD PUSH2 0x6F7 SWAP1 PUSH2 0x2BFA JUMP JUMPDEST DUP1 PUSH1 0x1F ADD PUSH1 0x20 DUP1 SWAP2 DIV MUL PUSH1 0x20 ADD PUSH1 0x40 MLOAD SWAP1 DUP2 ADD PUSH1 0x40 MSTORE DUP1 SWAP3 SWAP2 SWAP1 DUP2 DUP2 MSTORE PUSH1 0x20 ADD DUP3 DUP1 SLOAD PUSH2 0x723 SWAP1 PUSH2 0x2BFA JUMP JUMPDEST DUP1 ISZERO PUSH2 0x76E JUMPI DUP1 PUSH1 0x1F LT PUSH2 0x745 JUMPI PUSH2 0x100 DUP1 DUP4 SLOAD DIV MUL DUP4 MSTORE SWAP2 PUSH1 0x20 ADD SWAP2 PUSH2 0x76E JUMP JUMPDEST DUP3 ADD SWAP2 SWAP1 PUSH0 MSTORE PUSH1 0x20 PUSH0 KECCAK256 SWAP1 JUMPDEST DUP2 SLOAD DUP2 MSTORE SWAP1 PUSH1 0x1 ADD SWAP1 PUSH1 0x20 ADD DUP1 DUP4 GT PUSH2 0x751 JUMPI DUP3 SWAP1 SUB PUSH1 0x1F AND DUP3 ADD SWAP2 JUMPDEST POP POP POP POP POP SWAP1 DUP1 PUSH1 0x8 ADD DUP1 SLOAD PUSH2 0x783 SWAP1 PUSH2 0x2BFA JUMP JUMPDEST DUP1 PUSH1 0x1F ADD PUSH1 0x20 DUP1 SWAP2 DIV MUL PUSH1 0x20 ADD PUSH1 0x40 MLOAD SWAP1 DUP2 ADD PUSH1 0x40 MSTORE DUP1 SWAP3 SWAP2 SWAP1 DUP2 DUP2 MSTORE PUSH1 0x20 ADD DUP3 DUP1 SLOAD PUSH2 0x7AF SWAP1 PUSH2 0x2BFA JUMP JUMPDEST DUP1 ISZERO PUSH2 0x7FA JUMPI DUP1 PUSH1 0x1F LT PUSH2 0x7D1 JUMPI PUSH2 0x100 DUP1 DUP4 SLOAD DIV MUL DUP4 MSTORE SWAP2 PUSH1 0x20 ADD SWAP2 PUSH2 0x7FA JUMP JUMPDEST DUP3 ADD SWAP2 SWAP1 PUSH0 MSTORE PUSH1 0x20 PUSH0 KECCAK256 SWAP1 JUMPDEST DUP2 SLOAD DUP2 MSTORE SWAP1 PUSH1 0x1 ADD SWAP1 PUSH1 0x20 ADD DUP1 DUP4 GT PUSH2 0x7DD JUMPI DUP3 SWAP1 SUB PUSH1 0x1F AND DUP3 ADD SWAP2 JUMPDEST POP POP POP POP POP SWAP1 DUP1 PUSH1 0x9 ADD SLOAD SWAP1 POP DUP11 JUMP JUMPDEST PUSH1 0x60 PUSH1 0x3 PUSH0 DUP4 PUSH20 0xFFFFFFFFFFFFFFFFFFFFFFFFFFFFFFFFFFFFFFFF AND PUSH20 0xFFFFFFFFFFFFFFFFFFFFFFFFFFFFFFFFFFFFFFFF AND DUP2 MSTORE PUSH1 0x20 ADD SWAP1 DUP2 MSTORE PUSH1 0x20 ADD PUSH0 KECCAK256 DUP1 SLOAD DUP1 PUSH1 0x20 MUL PUSH1 0x20 ADD PUSH1 0x40 MLOAD SWAP1 DUP2 ADD PUSH1 0x40 MSTORE DUP1 SWAP3 SWAP2 SWAP1 DUP2 DUP2 MSTORE PUSH1 0x20 ADD PUSH0 SWAP1 JUMPDEST DUP3 DUP3 LT ISZERO PUSH2 0xBE5 JUMPI DUP4 DUP3 SWAP1 PUSH0 MSTORE PUSH1 0x20 PUSH0 KECCAK256 SWAP1 PUSH1 0xA MUL ADD PUSH1 0x40 MLOAD DUP1 PUSH2 0x140 ADD PUSH1 0x40 MSTORE SWAP1 DUP2 PUSH0 DUP3 ADD SLOAD DUP2 MSTORE PUSH1 0x20 ADD PUSH1 0x1 DUP3 ADD DUP1 SLOAD PUSH2 0x8A3 SWAP1 PUSH2 0x2BFA JUMP JUMPDEST DUP1 PUSH1 0x1F ADD PUSH1 0x20 DUP1 SWAP2 DIV MUL PUSH1 0x20 ADD PUSH1 0x40 MLOAD SWAP1 DUP2 ADD PUSH1 0x40 MSTORE DUP1 SWAP3 SWAP2 SWAP1 DUP2 DUP2 MSTORE PUSH1 0x20 ADD DUP3 DUP1 SLOAD PUSH2 0x8CF SWAP1 PUSH2 0x2BFA JUMP JUMPDEST DUP1 ISZERO PUSH2 0x91A JUMPI DUP1 PUSH1 0x1F LT PUSH2 0x8F1 JUMPI PUSH2 0x100 DUP1 DUP4 SLOAD DIV MUL DUP4 MSTORE SWAP2 PUSH1 0x20 ADD SWAP2 PUSH2 0x91A JUMP JUMPDEST DUP3 ADD SWAP2 SWAP1 PUSH0 MSTORE PUSH1 0x20 PUSH0 KECCAK256 SWAP1 JUMPDEST DUP2 SLOAD DUP2 MSTORE SWAP1 PUSH1 0x1 ADD SWAP1 PUSH1 0x20 ADD DUP1 DUP4 GT PUSH2 0x8FD JUMPI DUP3 SWAP1 SUB PUSH1 0x1F AND DUP3 ADD SWAP2 JUMPDEST POP POP POP POP POP DUP2 MSTORE PUSH1 0x20 ADD PUSH1 0x2 DUP3 ADD DUP1 SLOAD PUSH2 0x933 SWAP1 PUSH2 0x2BFA JUMP JUMPDEST DUP1 PUSH1 0x1F ADD PUSH1 0x20 DUP1 SWAP2 DIV MUL PUSH1 0x20 ADD PUSH1 0x40 MLOAD SWAP1 DUP2 ADD PUSH1 0x40 MSTORE DUP1 SWAP3 SWAP2 SWAP1 DUP2 DUP2 MSTORE PUSH1 0x20 ADD DUP3 DUP1 SLOAD PUSH2 0x95F SWAP1 PUSH2 0x2BFA JUMP JUMPDEST DUP1 ISZERO PUSH2 0x9AA JUMPI DUP1 PUSH1 0x1F LT PUSH2 0x981 JUMPI PUSH2 0x100 DUP1 DUP4 SLOAD DIV MUL DUP4 MSTORE SWAP2 PUSH1 0x20 ADD SWAP2 PUSH2 0x9AA JUMP JUMPDEST DUP3 ADD SWAP2 SWAP1 PUSH0 MSTORE PUSH1 0x20 PUSH0 KECCAK256 SWAP1 JUMPDEST DUP2 SLOAD DUP2 MSTORE SWAP1 PUSH1 0x1 ADD SWAP1 PUSH1 0x20 ADD DUP1 DUP4 GT PUSH2 0x98D JUMPI DUP3 SWAP1 SUB PUSH1 0x1F AND DUP3 ADD SWAP2 JUMPDEST POP POP POP POP POP DUP2 MSTORE PUSH1 0x20 ADD PUSH1 0x3 DUP3 ADD SLOAD DUP2 MSTORE PUSH1 0x20 ADD PUSH1 0x4 DUP3 ADD DUP1 SLOAD PUSH2 0x9CD SWAP1 PUSH2 0x2BFA JUMP JUMPDEST DUP1 PUSH1 0x1F ADD PUSH1 0x20 DUP1 SWAP2 DIV MUL PUSH1 0x20 ADD PUSH1 0x40 MLOAD SWAP1 DUP2 ADD PUSH1 0x40 MSTORE DUP1 SWAP3 SWAP2 SWAP1 DUP2 DUP2 MSTORE PUSH1 0x20 ADD DUP3 DUP1 SLOAD PUSH2 0x9F9 SWAP1 PUSH2 0x2BFA JUMP JUMPDEST DUP1 ISZERO PUSH2 0xA44 JUMPI DUP1 PUSH1 0x1F LT PUSH2 0xA1B JUMPI PUSH2 0x100 DUP1 DUP4 SLOAD DIV MUL DUP4 MSTORE SWAP2 PUSH1 0x20 ADD SWAP2 PUSH2 0xA44 JUMP JUMPDEST DUP3 ADD SWAP2 SWAP1 PUSH0 MSTORE PUSH1 0x20 PUSH0 KECCAK256 SWAP1 JUMPDEST DUP2 SLOAD DUP2 MSTORE SWAP1 PUSH1 0x1 ADD SWAP1 PUSH1 0x20 ADD DUP1 DUP4 GT PUSH2 0xA27 JUMPI DUP3 SWAP1 SUB PUSH1 0x1F AND DUP3 ADD SWAP2 JUMPDEST POP POP POP POP POP DUP2 MSTORE PUSH1 0x20 ADD PUSH1 0x5 DUP3 ADD SLOAD DUP2 MSTORE PUSH1 0x20 ADD PUSH1 0x6 DUP3 ADD PUSH0 SWAP1 SLOAD SWAP1 PUSH2 0x100 EXP SWAP1 DIV PUSH20 0xFFFFFFFFFFFFFFFFFFFFFFFFFFFFFFFFFFFFFFFF AND PUSH20 0xFFFFFFFFFFFFFFFFFFFFFFFFFFFFFFFFFFFFFFFF AND PUSH20 0xFFFFFFFFFFFFFFFFFFFFFFFFFFFFFFFFFFFFFFFF AND DUP2 MSTORE PUSH1 0x20 ADD PUSH1 0x7 DUP3 ADD DUP1 SLOAD PUSH2 0xABC SWAP1 PUSH2 0x2BFA JUMP JUMPDEST DUP1 PUSH1 0x1F ADD PUSH1 0x20 DUP1 SWAP2 DIV MUL PUSH1 0x20 ADD PUSH1 0x40 MLOAD SWAP1 DUP2 ADD PUSH1 0x40 MSTORE DUP1 SWAP3 SWAP2 SWAP1 DUP2 DUP2 MSTORE PUSH1 0x20 ADD DUP3 DUP1 SLOAD PUSH2 0xAE8 SWAP1 PUSH2 0x2BFA JUMP JUMPDEST DUP1 ISZERO PUSH2 0xB33 JUMPI DUP1 PUSH1 0x1F LT PUSH2 0xB0A JUMPI PUSH2 0x100 DUP1 DUP4 SLOAD DIV MUL DUP4 MSTORE SWAP2 PUSH1 0x20 ADD SWAP2 PUSH2 0xB33 JUMP JUMPDEST DUP3 ADD SWAP2 SWAP1 PUSH0 MSTORE PUSH1 0x20 PUSH0 KECCAK256 SWAP1 JUMPDEST DUP2 SLOAD DUP2 MSTORE SWAP1 PUSH1 0x1 ADD SWAP1 PUSH1 0x20 ADD DUP1 DUP4 GT PUSH2 0xB16 JUMPI DUP3 SWAP1 SUB PUSH1 0x1F AND DUP3 ADD SWAP2 JUMPDEST POP POP POP POP POP DUP2 MSTORE PUSH1 0x20 ADD PUSH1 0x8 DUP3 ADD DUP1 SLOAD PUSH2 0xB4C SWAP1 PUSH2 0x2BFA JUMP JUMPDEST DUP1 PUSH1 0x1F ADD PUSH1 0x20 DUP1 SWAP2 DIV MUL PUSH1 0x20 ADD PUSH1 0x40 MLOAD SWAP1 DUP2 ADD PUSH1 0x40 MSTORE DUP1 SWAP3 SWAP2 SWAP1 DUP2 DUP2 MSTORE PUSH1 0x20 ADD DUP3 DUP1 SLOAD PUSH2 0xB78 SWAP1 PUSH2 0x2BFA JUMP JUMPDEST DUP1 ISZERO PUSH2 0xBC3 JUMPI DUP1 PUSH1 0x1F LT PUSH2 0xB9A JUMPI PUSH2 0x100 DUP1 DUP4 SLOAD DIV MUL DUP4 MSTORE SWAP2 PUSH1 0x20 ADD SWAP2 PUSH2 0xBC3 JUMP JUMPDEST DUP3 ADD SWAP2 SWAP1 PUSH0 MSTORE PUSH1 0x20 PUSH0 KECCAK256 SWAP1 JUMPDEST DUP2 SLOAD DUP2 MSTORE SWAP1 PUSH1 0x1 ADD SWAP1 PUSH1 0x20 ADD DUP1 DUP4 GT PUSH2 0xBA6 JUMPI DUP3 SWAP1 SUB PUSH1 0x1F AND DUP3 ADD SWAP2 JUMPDEST POP POP POP POP POP DUP2 MSTORE PUSH1 0x20 ADD PUSH1 0x9 DUP3 ADD SLOAD DUP2 MSTORE POP POP DUP2 MSTORE PUSH1 0x20 ADD SWAP1 PUSH1 0x1 ADD SWAP1 PUSH2 0x868 JUMP JUMPDEST POP POP POP POP SWAP1 POP SWAP2 SWAP1 POP JUMP JUMPDEST PUSH1 0x5 PUSH1 0x20 MSTORE DUP1 PUSH0 MSTORE PUSH1 0x40 PUSH0 KECCAK256 PUSH0 SWAP2 POP SLOAD SWAP1 PUSH2 0x100 EXP SWAP1 DIV PUSH1 0xFF AND DUP2 JUMP JUMPDEST PUSH0 PUSH1 0x1 PUSH0 SWAP1 SLOAD SWAP1 PUSH2 0x100 EXP SWAP1 DIV PUSH20 0xFFFFFFFFFFFFFFFFFFFFFFFFFFFFFFFFFFFFFFFF AND PUSH20 0xFFFFFFFFFFFFFFFFFFFFFFFFFFFFFFFFFFFFFFFF AND PUSH4 0xF53A470 CALLER PUSH1 0x40 MLOAD DUP3 PUSH4 0xFFFFFFFF AND PUSH1 0xE0 SHL DUP2 MSTORE PUSH1 0x4 ADD PUSH2 0xC68 SWAP2 SWAP1 PUSH2 0x2861 JUMP JUMPDEST PUSH0 PUSH1 0x40 MLOAD DUP1 DUP4 SUB DUP2 DUP7 GAS STATICCALL ISZERO DUP1 ISZERO PUSH2 0xC82 JUMPI RETURNDATASIZE PUSH0 DUP1 RETURNDATACOPY RETURNDATASIZE PUSH0 REVERT JUMPDEST POP POP POP POP PUSH1 0x40 MLOAD RETURNDATASIZE PUSH0 DUP3 RETURNDATACOPY RETURNDATASIZE PUSH1 0x1F NOT PUSH1 0x1F DUP3 ADD AND DUP3 ADD DUP1 PUSH1 0x40 MSTORE POP DUP2 ADD SWAP1 PUSH2 0xCAA SWAP2 SWAP1 PUSH2 0x2A56 JUMP JUMPDEST SWAP1 POP DUP1 PUSH1 0x60 ADD MLOAD PUSH2 0xCF0 JUMPI PUSH1 0x40 MLOAD PUSH32 0x8C379A000000000000000000000000000000000000000000000000000000000 DUP2 MSTORE PUSH1 0x4 ADD PUSH2 0xCE7 SWAP1 PUSH2 0x2AE7 JUMP JUMPDEST PUSH1 0x40 MLOAD DUP1 SWAP2 SUB SWAP1 REVERT JUMPDEST PUSH0 PUSH1 0x1 PUSH0 SWAP1 SLOAD SWAP1 PUSH2 0x100 EXP SWAP1 DIV PUSH20 0xFFFFFFFFFFFFFFFFFFFFFFFFFFFFFFFFFFFFFFFF AND PUSH20 0xFFFFFFFFFFFFFFFFFFFFFFFFFFFFFFFFFFFFFFFF AND PUSH4 0x4386432 CALLER PUSH1 0x40 MLOAD DUP3 PUSH4 0xFFFFFFFF AND PUSH1 0xE0 SHL DUP2 MSTORE PUSH1 0x4 ADD PUSH2 0xD4B SWAP2 SWAP1 PUSH2 0x2861 JUMP JUMPDEST PUSH0 PUSH1 0x40 MLOAD DUP1 DUP4 SUB DUP2 DUP7 GAS STATICCALL ISZERO DUP1 ISZERO PUSH2 0xD65 JUMPI RETURNDATASIZE PUSH0 DUP1 RETURNDATACOPY RETURNDATASIZE PUSH0 REVERT JUMPDEST POP POP POP POP PUSH1 0x40 MLOAD RETURNDATASIZE PUSH0 DUP3 RETURNDATACOPY RETURNDATASIZE PUSH1 0x1F NOT PUSH1 0x1F DUP3 ADD AND DUP3 ADD DUP1 PUSH1 0x40 MSTORE POP DUP2 ADD SWAP1 PUSH2 0xD8D SWAP2 SWAP1 PUSH2 0x2C2A JUMP JUMPDEST SWAP1 POP PUSH0 PUSH1 0x1 PUSH0 SWAP1 SLOAD SWAP1 PUSH2 0x100 EXP SWAP1 DIV PUSH20 0xFFFFFFFFFFFFFFFFFFFFFFFFFFFFFFFFFFFFFFFF AND PUSH20 0xFFFFFFFFFFFFFFFFFFFFFFFFFFFFFFFFFFFFFFFF AND PUSH4 0xA2E84E6E CALLER PUSH1 0x40 MLOAD DUP3 PUSH4 0xFFFFFFFF AND PUSH1 0xE0 SHL DUP2 MSTORE PUSH1 0x4 ADD PUSH2 0xDEA SWAP2 SWAP1 PUSH2 0x2861 JUMP JUMPDEST PUSH0 PUSH1 0x40 MLOAD DUP1 DUP4 SUB DUP2 DUP7 GAS STATICCALL ISZERO DUP1 ISZERO PUSH2 0xE04 JUMPI RETURNDATASIZE PUSH0 DUP1 RETURNDATACOPY RETURNDATASIZE PUSH0 REVERT JUMPDEST POP POP POP POP PUSH1 0x40 MLOAD RETURNDATASIZE PUSH0 DUP3 RETURNDATACOPY RETURNDATASIZE PUSH1 0x1F NOT PUSH1 0x1F DUP3 ADD AND DUP3 ADD DUP1 PUSH1 0x40 MSTORE POP DUP2 ADD SWAP1 PUSH2 0xE2C SWAP2 SWAP1 PUSH2 0x2C2A JUMP JUMPDEST SWAP1 POP PUSH0 PUSH1 0x40 MLOAD DUP1 PUSH2 0x140 ADD PUSH1 0x40 MSTORE DUP1 PUSH1 0x2 SLOAD DUP2 MSTORE PUSH1 0x20 ADD DUP10 DUP2 MSTORE PUSH1 0x20 ADD DUP9 DUP2 MSTORE PUSH1 0x20 ADD PUSH0 DUP2 MSTORE PUSH1 0x20 ADD DUP8 DUP2 MSTORE PUSH1 0x20 ADD DUP7 DUP2 MSTORE PUSH1 0x20 ADD CALLER PUSH20 0xFFFFFFFFFFFFFFFFFFFFFFFFFFFFFFFFFFFFFFFF AND DUP2 MSTORE PUSH1 0x20 ADD DUP5 DUP2 MSTORE PUSH1 0x20 ADD DUP4 DUP2 MSTORE PUSH1 0x20 ADD TIMESTAMP DUP2 MSTORE POP SWAP1 POP DUP1 PUSH1 0x4 PUSH0 PUSH1 0x2 SLOAD DUP2 MSTORE PUSH1 0x20 ADD SWAP1 DUP2 MSTORE PUSH1 0x20 ADD PUSH0 KECCAK256 PUSH0 DUP3 ADD MLOAD DUP2 PUSH0 ADD SSTORE PUSH1 0x20 DUP3 ADD MLOAD DUP2 PUSH1 0x1 ADD SWAP1 DUP2 PUSH2 0xEC0 SWAP2 SWAP1 PUSH2 0x2E0E JUMP JUMPDEST POP PUSH1 0x40 DUP3 ADD MLOAD DUP2 PUSH1 0x2 ADD SWAP1 DUP2 PUSH2 0xED6 SWAP2 SWAP1 PUSH2 0x2E0E JUMP JUMPDEST POP PUSH1 0x60 DUP3 ADD MLOAD DUP2 PUSH1 0x3 ADD SSTORE PUSH1 0x80 DUP3 ADD MLOAD DUP2 PUSH1 0x4 ADD SWAP1 DUP2 PUSH2 0xEF6 SWAP2 SWAP1 PUSH2 0x2E0E JUMP JUMPDEST POP PUSH1 0xA0 DUP3 ADD MLOAD DUP2 PUSH1 0x5 ADD SSTORE PUSH1 0xC0 DUP3 ADD MLOAD DUP2 PUSH1 0x6 ADD PUSH0 PUSH2 0x100 EXP DUP2 SLOAD DUP2 PUSH20 0xFFFFFFFFFFFFFFFFFFFFFFFFFFFFFFFFFFFFFFFF MUL NOT AND SWAP1 DUP4 PUSH20 0xFFFFFFFFFFFFFFFFFFFFFFFFFFFFFFFFFFFFFFFF AND MUL OR SWAP1 SSTORE POP PUSH1 0xE0 DUP3 ADD MLOAD DUP2 PUSH1 0x7 ADD SWAP1 DUP2 PUSH2 0xF5C SWAP2 SWAP1 PUSH2 0x2E0E JUMP JUMPDEST POP PUSH2 0x100 DUP3 ADD MLOAD DUP2 PUSH1 0x8 ADD SWAP1 DUP2 PUSH2 0xF73 SWAP2 SWAP1 PUSH2 0x2E0E JUMP JUMPDEST POP PUSH2 0x120 DUP3 ADD MLOAD DUP2 PUSH1 0x9 ADD SSTORE SWAP1 POP POP PUSH1 0x3 PUSH0 CALLER PUSH20 0xFFFFFFFFFFFFFFFFFFFFFFFFFFFFFFFFFFFFFFFF AND PUSH20 0xFFFFFFFFFFFFFFFFFFFFFFFFFFFFFFFFFFFFFFFF AND DUP2 MSTORE PUSH1 0x20 ADD SWAP1 DUP2 MSTORE PUSH1 0x20 ADD PUSH0 KECCAK256 DUP2 SWAP1 DUP1 PUSH1 0x1 DUP2 SLOAD ADD DUP1 DUP3 SSTORE DUP1 SWAP2 POP POP PUSH1 0x1 SWAP1 SUB SWAP1 PUSH0 MSTORE PUSH1 0x20 PUSH0 KECCAK256 SWAP1 PUSH1 0xA MUL ADD PUSH0 SWAP1 SWAP2 SWAP1 SWAP2 SWAP1 SWAP2 POP PUSH0 DUP3 ADD MLOAD DUP2 PUSH0 ADD SSTORE PUSH1 0x20 DUP3 ADD MLOAD DUP2 PUSH1 0x1 ADD SWAP1 DUP2 PUSH2 0x1003 SWAP2 SWAP1 PUSH2 0x2E0E JUMP JUMPDEST POP PUSH1 0x40 DUP3 ADD MLOAD DUP2 PUSH1 0x2 ADD SWAP1 DUP2 PUSH2 0x1019 SWAP2 SWAP1 PUSH2 0x2E0E JUMP JUMPDEST POP PUSH1 0x60 DUP3 ADD MLOAD DUP2 PUSH1 0x3 ADD SSTORE PUSH1 0x80 DUP3 ADD MLOAD DUP2 PUSH1 0x4 ADD SWAP1 DUP2 PUSH2 0x1039 SWAP2 SWAP1 PUSH2 0x2E0E JUMP JUMPDEST POP PUSH1 0xA0 DUP3 ADD MLOAD DUP2 PUSH1 0x5 ADD SSTORE PUSH1 0xC0 DUP3 ADD MLOAD DUP2 PUSH1 0x6 ADD PUSH0 PUSH2 0x100 EXP DUP2 SLOAD DUP2 PUSH20 0xFFFFFFFFFFFFFFFFFFFFFFFFFFFFFFFFFFFFFFFF MUL NOT AND SWAP1 DUP4 PUSH20 0xFFFFFFFFFFFFFFFFFFFFFFFFFFFFFFFFFFFFFFFF AND MUL OR SWAP1 SSTORE POP PUSH1 0xE0 DUP3 ADD MLOAD DUP2 PUSH1 0x7 ADD SWAP1 DUP2 PUSH2 0x109F SWAP2 SWAP1 PUSH2 0x2E0E JUMP JUMPDEST POP PUSH2 0x100 DUP3 ADD MLOAD DUP2 PUSH1 0x8 ADD SWAP1 DUP2 PUSH2 0x10B6 SWAP2 SWAP1 PUSH2 0x2E0E JUMP JUMPDEST POP PUSH2 0x120 DUP3 ADD MLOAD DUP2 PUSH1 0x9 ADD SSTORE POP POP PUSH1 0x6 PUSH1 0x4 PUSH0 PUSH1 0x2 SLOAD DUP2 MSTORE PUSH1 0x20 ADD SWAP1 DUP2 MSTORE PUSH1 0x20 ADD PUSH0 KECCAK256 SWAP1 DUP1 PUSH1 0x1 DUP2 SLOAD ADD DUP1 DUP3 SSTORE DUP1 SWAP2 POP POP PUSH1 0x1 SWAP1 SUB SWAP1 PUSH0 MSTORE PUSH1 0x20 PUSH0 KECCAK256 SWAP1 PUSH1 0xA MUL ADD PUSH0 SWAP1 SWAP2 SWAP1 SWAP2 SWAP1 SWAP2 POP PUSH0 DUP3 ADD SLOAD DUP2 PUSH0 ADD SSTORE PUSH1 0x1 DUP3 ADD DUP2 PUSH1 0x1 ADD SWAP1 DUP2 PUSH2 0x111B SWAP2 SWAP1 PUSH2 0x2EF2 JUMP JUMPDEST POP PUSH1 0x2 DUP3 ADD DUP2 PUSH1 0x2 ADD SWAP1 DUP2 PUSH2 0x1130 SWAP2 SWAP1 PUSH2 0x2EF2 JUMP JUMPDEST POP PUSH1 0x3 DUP3 ADD SLOAD DUP2 PUSH1 0x3 ADD SSTORE PUSH1 0x4 DUP3 ADD DUP2 PUSH1 0x4 ADD SWAP1 DUP2 PUSH2 0x114F SWAP2 SWAP1 PUSH2 0x2EF2 JUMP JUMPDEST POP PUSH1 0x5 DUP3 ADD SLOAD DUP2 PUSH1 0x5 ADD SSTORE PUSH1 0x6 DUP3 ADD PUSH0 SWAP1 SLOAD SWAP1 PUSH2 0x100 EXP SWAP1 DIV PUSH20 0xFFFFFFFFFFFFFFFFFFFFFFFFFFFFFFFFFFFFFFFF AND DUP2 PUSH1 0x6 ADD PUSH0 PUSH2 0x100 EXP DUP2 SLOAD DUP2 PUSH20 0xFFFFFFFFFFFFFFFFFFFFFFFFFFFFFFFFFFFFFFFF MUL NOT AND SWAP1 DUP4 PUSH20 0xFFFFFFFFFFFFFFFFFFFFFFFFFFFFFFFFFFFFFFFF AND MUL OR SWAP1 SSTORE POP PUSH1 0x7 DUP3 ADD DUP2 PUSH1 0x7 ADD SWAP1 DUP2 PUSH2 0x11D3 SWAP2 SWAP1 PUSH2 0x2EF2 JUMP JUMPDEST POP PUSH1 0x8 DUP3 ADD DUP2 PUSH1 0x8 ADD SWAP1 DUP2 PUSH2 0x11E8 SWAP2 SWAP1 PUSH2 0x2EF2 JUMP JUMPDEST POP PUSH1 0x9 DUP3 ADD SLOAD DUP2 PUSH1 0x9 ADD SSTORE POP POP PUSH32 0x1961F6452621F42CEB4621CAC123D1A782ECD2620C2D8C755FBF8F7C849B24A4 PUSH1 0x2 SLOAD DUP10 DUP10 PUSH0 DUP11 DUP11 CALLER PUSH1 0x40 MLOAD PUSH2 0x1232 SWAP8 SWAP7 SWAP6 SWAP5 SWAP4 SWAP3 SWAP2 SWAP1 PUSH2 0x3010 JUMP JUMPDEST PUSH1 0x40 MLOAD DUP1 SWAP2 SUB SWAP1 LOG1 PUSH1 0x2 PUSH0 DUP2 SLOAD DUP1 SWAP3 SWAP2 SWAP1 PUSH2 0x124C SWAP1 PUSH2 0x3092 JUMP JUMPDEST SWAP2 SWAP1 POP SSTORE POP POP POP POP POP POP POP POP POP JUMP JUMPDEST PUSH2 0x1263 PUSH2 0x2088 JUMP JUMPDEST PUSH2 0x126C PUSH0 PUSH2 0x210F JUMP JUMPDEST JUMP JUMPDEST PUSH0 DUP1 PUSH0 SWAP1 SLOAD SWAP1 PUSH2 0x100 EXP SWAP1 DIV PUSH20 0xFFFFFFFFFFFFFFFFFFFFFFFFFFFFFFFFFFFFFFFF AND SWAP1 POP SWAP1 JUMP JUMPDEST PUSH1 0x3 PUSH1 0x20 MSTORE DUP2 PUSH0 MSTORE PUSH1 0x40 PUSH0 KECCAK256 DUP2 DUP2 SLOAD DUP2 LT PUSH2 0x12AE JUMPI PUSH0 DUP1 REVERT JUMPDEST SWAP1 PUSH0 MSTORE PUSH1 0x20 PUSH0 KECCAK256 SWAP1 PUSH1 0xA MUL ADD PUSH0 SWAP2 POP SWAP2 POP POP DUP1 PUSH0 ADD SLOAD SWAP1 DUP1 PUSH1 0x1 ADD DUP1 SLOAD PUSH2 0x12D4 SWAP1 PUSH2 0x2BFA JUMP JUMPDEST DUP1 PUSH1 0x1F ADD PUSH1 0x20 DUP1 SWAP2 DIV MUL PUSH1 0x20 ADD PUSH1 0x40 MLOAD SWAP1 DUP2 ADD PUSH1 0x40 MSTORE DUP1 SWAP3 SWAP2 SWAP1 DUP2 DUP2 MSTORE PUSH1 0x20 ADD DUP3 DUP1 SLOAD PUSH2 0x1300 SWAP1 PUSH2 0x2BFA JUMP JUMPDEST DUP1 ISZERO PUSH2 0x134B JUMPI DUP1 PUSH1 0x1F LT PUSH2 0x1322 JUMPI PUSH2 0x100 DUP1 DUP4 SLOAD DIV MUL DUP4 MSTORE SWAP2 PUSH1 0x20 ADD SWAP2 PUSH2 0x134B JUMP JUMPDEST DUP3 ADD SWAP2 SWAP1 PUSH0 MSTORE PUSH1 0x20 PUSH0 KECCAK256 SWAP1 JUMPDEST DUP2 SLOAD DUP2 MSTORE SWAP1 PUSH1 0x1 ADD SWAP1 PUSH1 0x20 ADD DUP1 DUP4 GT PUSH2 0x132E JUMPI DUP3 SWAP1 SUB PUSH1 0x1F AND DUP3 ADD SWAP2 JUMPDEST POP POP POP POP POP SWAP1 DUP1 PUSH1 0x2 ADD DUP1 SLOAD PUSH2 0x1360 SWAP1 PUSH2 0x2BFA JUMP JUMPDEST DUP1 PUSH1 0x1F ADD PUSH1 0x20 DUP1 SWAP2 DIV MUL PUSH1 0x20 ADD PUSH1 0x40 MLOAD SWAP1 DUP2 ADD PUSH1 0x40 MSTORE DUP1 SWAP3 SWAP2 SWAP1 DUP2 DUP2 MSTORE PUSH1 0x20 ADD DUP3 DUP1 SLOAD PUSH2 0x138C SWAP1 PUSH2 0x2BFA JUMP JUMPDEST DUP1 ISZERO PUSH2 0x13D7 JUMPI DUP1 PUSH1 0x1F LT PUSH2 0x13AE JUMPI PUSH2 0x100 DUP1 DUP4 SLOAD DIV MUL DUP4 MSTORE SWAP2 PUSH1 0x20 ADD SWAP2 PUSH2 0x13D7 JUMP JUMPDEST DUP3 ADD SWAP2 SWAP1 PUSH0 MSTORE PUSH1 0x20 PUSH0 KECCAK256 SWAP1 JUMPDEST DUP2 SLOAD DUP2 MSTORE SWAP1 PUSH1 0x1 ADD SWAP1 PUSH1 0x20 ADD DUP1 DUP4 GT PUSH2 0x13BA JUMPI DUP3 SWAP1 SUB PUSH1 0x1F AND DUP3 ADD SWAP2 JUMPDEST POP POP POP POP POP SWAP1 DUP1 PUSH1 0x3 ADD SLOAD SWAP1 DUP1 PUSH1 0x4 ADD DUP1 SLOAD PUSH2 0x13F2 SWAP1 PUSH2 0x2BFA JUMP JUMPDEST DUP1 PUSH1 0x1F ADD PUSH1 0x20 DUP1 SWAP2 DIV MUL PUSH1 0x20 ADD PUSH1 0x40 MLOAD SWAP1 DUP2 ADD PUSH1 0x40 MSTORE DUP1 SWAP3 SWAP2 SWAP1 DUP2 DUP2 MSTORE PUSH1 0x20 ADD DUP3 DUP1 SLOAD PUSH2 0x141E SWAP1 PUSH2 0x2BFA JUMP JUMPDEST DUP1 ISZERO PUSH2 0x1469 JUMPI DUP1 PUSH1 0x1F LT PUSH2 0x1440 JUMPI PUSH2 0x100 DUP1 DUP4 SLOAD DIV MUL DUP4 MSTORE SWAP2 PUSH1 0x20 ADD SWAP2 PUSH2 0x1469 JUMP JUMPDEST DUP3 ADD SWAP2 SWAP1 PUSH0 MSTORE PUSH1 0x20 PUSH0 KECCAK256 SWAP1 JUMPDEST DUP2 SLOAD DUP2 MSTORE SWAP1 PUSH1 0x1 ADD SWAP1 PUSH1 0x20 ADD DUP1 DUP4 GT PUSH2 0x144C JUMPI DUP3 SWAP1 SUB PUSH1 0x1F AND DUP3 ADD SWAP2 JUMPDEST POP POP POP POP POP SWAP1 DUP1 PUSH1 0x5 ADD SLOAD SWAP1 DUP1 PUSH1 0x6 ADD PUSH0 SWAP1 SLOAD SWAP1 PUSH2 0x100 EXP SWAP1 DIV PUSH20 0xFFFFFFFFFFFFFFFFFFFFFFFFFFFFFFFFFFFFFFFF AND SWAP1 DUP1 PUSH1 0x7 ADD DUP1 SLOAD PUSH2 0x14A9 SWAP1 PUSH2 0x2BFA JUMP JUMPDEST DUP1 PUSH1 0x1F ADD PUSH1 0x20 DUP1 SWAP2 DIV MUL PUSH1 0x20 ADD PUSH1 0x40 MLOAD SWAP1 DUP2 ADD PUSH1 0x40 MSTORE DUP1 SWAP3 SWAP2 SWAP1 DUP2 DUP2 MSTORE PUSH1 0x20 ADD DUP3 DUP1 SLOAD PUSH2 0x14D5 SWAP1 PUSH2 0x2BFA JUMP JUMPDEST DUP1 ISZERO PUSH2 0x1520 JUMPI DUP1 PUSH1 0x1F LT PUSH2 0x14F7 JUMPI PUSH2 0x100 DUP1 DUP4 SLOAD DIV MUL DUP4 MSTORE SWAP2 PUSH1 0x20 ADD SWAP2 PUSH2 0x1520 JUMP JUMPDEST DUP3 ADD SWAP2 SWAP1 PUSH0 MSTORE PUSH1 0x20 PUSH0 KECCAK256 SWAP1 JUMPDEST DUP2 SLOAD DUP2 MSTORE SWAP1 PUSH1 0x1 ADD SWAP1 PUSH1 0x20 ADD DUP1 DUP4 GT PUSH2 0x1503 JUMPI DUP3 SWAP1 SUB PUSH1 0x1F AND DUP3 ADD SWAP2 JUMPDEST POP POP POP POP POP SWAP1 DUP1 PUSH1 0x8 ADD DUP1 SLOAD PUSH2 0x1535 SWAP1 PUSH2 0x2BFA JUMP JUMPDEST DUP1 PUSH1 0x1F ADD PUSH1 0x20 DUP1 SWAP2 DIV MUL PUSH1 0x20 ADD PUSH1 0x40 MLOAD SWAP1 DUP2 ADD PUSH1 0x40 MSTORE DUP1 SWAP3 SWAP2 SWAP1 DUP2 DUP2 MSTORE PUSH1 0x20 ADD DUP3 DUP1 SLOAD PUSH2 0x1561 SWAP1 PUSH2 0x2BFA JUMP JUMPDEST DUP1 ISZERO PUSH2 0x15AC JUMPI DUP1 PUSH1 0x1F LT PUSH2 0x1583 JUMPI PUSH2 0x100 DUP1 DUP4 SLOAD DIV MUL DUP4 MSTORE SWAP2 PUSH1 0x20 ADD SWAP2 PUSH2 0x15AC JUMP JUMPDEST DUP3 ADD SWAP2 SWAP1 PUSH0 MSTORE PUSH1 0x20 PUSH0 KECCAK256 SWAP1 JUMPDEST DUP2 SLOAD DUP2 MSTORE SWAP1 PUSH1 0x1 ADD SWAP1 PUSH1 0x20 ADD DUP1 DUP4 GT PUSH2 0x158F JUMPI DUP3 SWAP1 SUB PUSH1 0x1F AND DUP3 ADD SWAP2 JUMPDEST POP POP POP POP POP SWAP1 DUP1 PUSH1 0x9 ADD SLOAD SWAP1 POP DUP11 JUMP JUMPDEST PUSH1 0x6 DUP2 DUP2 SLOAD DUP2 LT PUSH2 0x15CB JUMPI PUSH0 DUP1 REVERT JUMPDEST SWAP1 PUSH0 MSTORE PUSH1 0x20 PUSH0 KECCAK256 SWAP1 PUSH1 0xA MUL ADD PUSH0 SWAP2 POP SWAP1 POP DUP1 PUSH0 ADD SLOAD SWAP1 DUP1 PUSH1 0x1 ADD DUP1 SLOAD PUSH2 0x15F0 SWAP1 PUSH2 0x2BFA JUMP JUMPDEST DUP1 PUSH1 0x1F ADD PUSH1 0x20 DUP1 SWAP2 DIV MUL PUSH1 0x20 ADD PUSH1 0x40 MLOAD SWAP1 DUP2 ADD PUSH1 0x40 MSTORE DUP1 SWAP3 SWAP2 SWAP1 DUP2 DUP2 MSTORE PUSH1 0x20 ADD DUP3 DUP1 SLOAD PUSH2 0x161C SWAP1 PUSH2 0x2BFA JUMP JUMPDEST DUP1 ISZERO PUSH2 0x1667 JUMPI DUP1 PUSH1 0x1F LT PUSH2 0x163E JUMPI PUSH2 0x100 DUP1 DUP4 SLOAD DIV MUL DUP4 MSTORE SWAP2 PUSH1 0x20 ADD SWAP2 PUSH2 0x1667 JUMP JUMPDEST DUP3 ADD SWAP2 SWAP1 PUSH0 MSTORE PUSH1 0x20 PUSH0 KECCAK256 SWAP1 JUMPDEST DUP2 SLOAD DUP2 MSTORE SWAP1 PUSH1 0x1 ADD SWAP1 PUSH1 0x20 ADD DUP1 DUP4 GT PUSH2 0x164A JUMPI DUP3 SWAP1 SUB PUSH1 0x1F AND DUP3 ADD SWAP2 JUMPDEST POP POP POP POP POP SWAP1 DUP1 PUSH1 0x2 ADD DUP1 SLOAD PUSH2 0x167C SWAP1 PUSH2 0x2BFA JUMP JUMPDEST DUP1 PUSH1 0x1F ADD PUSH1 0x20 DUP1 SWAP2 DIV MUL PUSH1 0x20 ADD PUSH1 0x40 MLOAD SWAP1 DUP2 ADD PUSH1 0x40 MSTORE DUP1 SWAP3 SWAP2 SWAP1 DUP2 DUP2 MSTORE PUSH1 0x20 ADD DUP3 DUP1 SLOAD PUSH2 0x16A8 SWAP1 PUSH2 0x2BFA JUMP JUMPDEST DUP1 ISZERO PUSH2 0x16F3 JUMPI DUP1 PUSH1 0x1F LT PUSH2 0x16CA JUMPI PUSH2 0x100 DUP1 DUP4 SLOAD DIV MUL DUP4 MSTORE SWAP2 PUSH1 0x20 ADD SWAP2 PUSH2 0x16F3 JUMP JUMPDEST DUP3 ADD SWAP2 SWAP1 PUSH0 MSTORE PUSH1 0x20 PUSH0 KECCAK256 SWAP1 JUMPDEST DUP2 SLOAD DUP2 MSTORE SWAP1 PUSH1 0x1 ADD SWAP1 PUSH1 0x20 ADD DUP1 DUP4 GT PUSH2 0x16D6 JUMPI DUP3 SWAP1 SUB PUSH1 0x1F AND DUP3 ADD SWAP2 JUMPDEST POP POP POP POP POP SWAP1 DUP1 PUSH1 0x3 ADD SLOAD SWAP1 DUP1 PUSH1 0x4 ADD DUP1 SLOAD PUSH2 0x170E SWAP1 PUSH2 0x2BFA JUMP JUMPDEST DUP1 PUSH1 0x1F ADD PUSH1 0x20 DUP1 SWAP2 DIV MUL PUSH1 0x20 ADD PUSH1 0x40 MLOAD SWAP1 DUP2 ADD PUSH1 0x40 MSTORE DUP1 SWAP3 SWAP2 SWAP1 DUP2 DUP2 MSTORE PUSH1 0x20 ADD DUP3 DUP1 SLOAD PUSH2 0x173A SWAP1 PUSH2 0x2BFA JUMP JUMPDEST DUP1 ISZERO PUSH2 0x1785 JUMPI DUP1 PUSH1 0x1F LT PUSH2 0x175C JUMPI PUSH2 0x100 DUP1 DUP4 SLOAD DIV MUL DUP4 MSTORE SWAP2 PUSH1 0x20 ADD SWAP2 PUSH2 0x1785 JUMP JUMPDEST DUP3 ADD SWAP2 SWAP1 PUSH0 MSTORE PUSH1 0x20 PUSH0 KECCAK256 SWAP1 JUMPDEST DUP2 SLOAD DUP2 MSTORE SWAP1 PUSH1 0x1 ADD SWAP1 PUSH1 0x20 ADD DUP1 DUP4 GT PUSH2 0x1768 JUMPI DUP3 SWAP1 SUB PUSH1 0x1F AND DUP3 ADD SWAP2 JUMPDEST POP POP POP POP POP SWAP1 DUP1 PUSH1 0x5 ADD SLOAD SWAP1 DUP1 PUSH1 0x6 ADD PUSH0 SWAP1 SLOAD SWAP1 PUSH2 0x100 EXP SWAP1 DIV PUSH20 0xFFFFFFFFFFFFFFFFFFFFFFFFFFFFFFFFFFFFFFFF AND SWAP1 DUP1 PUSH1 0x7 ADD DUP1 SLOAD PUSH2 0x17C5 SWAP1 PUSH2 0x2BFA JUMP JUMPDEST DUP1 PUSH1 0x1F ADD PUSH1 0x20 DUP1 SWAP2 DIV MUL PUSH1 0x20 ADD PUSH1 0x40 MLOAD SWAP1 DUP2 ADD PUSH1 0x40 MSTORE DUP1 SWAP3 SWAP2 SWAP1 DUP2 DUP2 MSTORE PUSH1 0x20 ADD DUP3 DUP1 SLOAD PUSH2 0x17F1 SWAP1 PUSH2 0x2BFA JUMP JUMPDEST DUP1 ISZERO PUSH2 0x183C JUMPI DUP1 PUSH1 0x1F LT PUSH2 0x1813 JUMPI PUSH2 0x100 DUP1 DUP4 SLOAD DIV MUL DUP4 MSTORE SWAP2 PUSH1 0x20 ADD SWAP2 PUSH2 0x183C JUMP JUMPDEST DUP3 ADD SWAP2 SWAP1 PUSH0 MSTORE PUSH1 0x20 PUSH0 KECCAK256 SWAP1 JUMPDEST DUP2 SLOAD DUP2 MSTORE SWAP1 PUSH1 0x1 ADD SWAP1 PUSH1 0x20 ADD DUP1 DUP4 GT PUSH2 0x181F JUMPI DUP3 SWAP1 SUB PUSH1 0x1F AND DUP3 ADD SWAP2 JUMPDEST POP POP POP POP POP SWAP1 DUP1 PUSH1 0x8 ADD DUP1 SLOAD PUSH2 0x1851 SWAP1 PUSH2 0x2BFA JUMP JUMPDEST DUP1 PUSH1 0x1F ADD PUSH1 0x20 DUP1 SWAP2 DIV MUL PUSH1 0x20 ADD PUSH1 0x40 MLOAD SWAP1 DUP2 ADD PUSH1 0x40 MSTORE DUP1 SWAP3 SWAP2 SWAP1 DUP2 DUP2 MSTORE PUSH1 0x20 ADD DUP3 DUP1 SLOAD PUSH2 0x187D SWAP1 PUSH2 0x2BFA JUMP JUMPDEST DUP1 ISZERO PUSH2 0x18C8 JUMPI DUP1 PUSH1 0x1F LT PUSH2 0x189F JUMPI PUSH2 0x100 DUP1 DUP4 SLOAD DIV MUL DUP4 MSTORE SWAP2 PUSH1 0x20 ADD SWAP2 PUSH2 0x18C8 JUMP JUMPDEST DUP3 ADD SWAP2 SWAP1 PUSH0 MSTORE PUSH1 0x20 PUSH0 KECCAK256 SWAP1 JUMPDEST DUP2 SLOAD DUP2 MSTORE SWAP1 PUSH1 0x1 ADD SWAP1 PUSH1 0x20 ADD DUP1 DUP4 GT PUSH2 0x18AB JUMPI DUP3 SWAP1 SUB PUSH1 0x1F AND DUP3 ADD SWAP2 JUMPDEST POP POP POP POP POP SWAP1 DUP1 PUSH1 0x9 ADD SLOAD SWAP1 POP DUP11 JUMP JUMPDEST PUSH1 0x60 DUP1 PUSH0 PUSH1 0x4 PUSH0 DUP6 DUP2 MSTORE PUSH1 0x20 ADD SWAP1 DUP2 MSTORE PUSH1 0x20 ADD PUSH0 KECCAK256 PUSH1 0x40 MLOAD DUP1 PUSH2 0x140 ADD PUSH1 0x40 MSTORE SWAP1 DUP2 PUSH0 DUP3 ADD SLOAD DUP2 MSTORE PUSH1 0x20 ADD PUSH1 0x1 DUP3 ADD DUP1 SLOAD PUSH2 0x1912 SWAP1 PUSH2 0x2BFA JUMP JUMPDEST DUP1 PUSH1 0x1F ADD PUSH1 0x20 DUP1 SWAP2 DIV MUL PUSH1 0x20 ADD PUSH1 0x40 MLOAD SWAP1 DUP2 ADD PUSH1 0x40 MSTORE DUP1 SWAP3 SWAP2 SWAP1 DUP2 DUP2 MSTORE PUSH1 0x20 ADD DUP3 DUP1 SLOAD PUSH2 0x193E SWAP1 PUSH2 0x2BFA JUMP JUMPDEST DUP1 ISZERO PUSH2 0x1989 JUMPI DUP1 PUSH1 0x1F LT PUSH2 0x1960 JUMPI PUSH2 0x100 DUP1 DUP4 SLOAD DIV MUL DUP4 MSTORE SWAP2 PUSH1 0x20 ADD SWAP2 PUSH2 0x1989 JUMP JUMPDEST DUP3 ADD SWAP2 SWAP1 PUSH0 MSTORE PUSH1 0x20 PUSH0 KECCAK256 SWAP1 JUMPDEST DUP2 SLOAD DUP2 MSTORE SWAP1 PUSH1 0x1 ADD SWAP1 PUSH1 0x20 ADD DUP1 DUP4 GT PUSH2 0x196C JUMPI DUP3 SWAP1 SUB PUSH1 0x1F AND DUP3 ADD SWAP2 JUMPDEST POP POP POP POP POP DUP2 MSTORE PUSH1 0x20 ADD PUSH1 0x2 DUP3 ADD DUP1 SLOAD PUSH2 0x19A2 SWAP1 PUSH2 0x2BFA JUMP JUMPDEST DUP1 PUSH1 0x1F ADD PUSH1 0x20 DUP1 SWAP2 DIV MUL PUSH1 0x20 ADD PUSH1 0x40 MLOAD SWAP1 DUP2 ADD PUSH1 0x40 MSTORE DUP1 SWAP3 SWAP2 SWAP1 DUP2 DUP2 MSTORE PUSH1 0x20 ADD DUP3 DUP1 SLOAD PUSH2 0x19CE SWAP1 PUSH2 0x2BFA JUMP JUMPDEST DUP1 ISZERO PUSH2 0x1A19 JUMPI DUP1 PUSH1 0x1F LT PUSH2 0x19F0 JUMPI PUSH2 0x100 DUP1 DUP4 SLOAD DIV MUL DUP4 MSTORE SWAP2 PUSH1 0x20 ADD SWAP2 PUSH2 0x1A19 JUMP JUMPDEST DUP3 ADD SWAP2 SWAP1 PUSH0 MSTORE PUSH1 0x20 PUSH0 KECCAK256 SWAP1 JUMPDEST DUP2 SLOAD DUP2 MSTORE SWAP1 PUSH1 0x1 ADD SWAP1 PUSH1 0x20 ADD DUP1 DUP4 GT PUSH2 0x19FC JUMPI DUP3 SWAP1 SUB PUSH1 0x1F AND DUP3 ADD SWAP2 JUMPDEST POP POP POP POP POP DUP2 MSTORE PUSH1 0x20 ADD PUSH1 0x3 DUP3 ADD SLOAD DUP2 MSTORE PUSH1 0x20 ADD PUSH1 0x4 DUP3 ADD DUP1 SLOAD PUSH2 0x1A3C SWAP1 PUSH2 0x2BFA JUMP JUMPDEST DUP1 PUSH1 0x1F ADD PUSH1 0x20 DUP1 SWAP2 DIV MUL PUSH1 0x20 ADD PUSH1 0x40 MLOAD SWAP1 DUP2 ADD PUSH1 0x40 MSTORE DUP1 SWAP3 SWAP2 SWAP1 DUP2 DUP2 MSTORE PUSH1 0x20 ADD DUP3 DUP1 SLOAD PUSH2 0x1A68 SWAP1 PUSH2 0x2BFA JUMP JUMPDEST DUP1 ISZERO PUSH2 0x1AB3 JUMPI DUP1 PUSH1 0x1F LT PUSH2 0x1A8A JUMPI PUSH2 0x100 DUP1 DUP4 SLOAD DIV MUL DUP4 MSTORE SWAP2 PUSH1 0x20 ADD SWAP2 PUSH2 0x1AB3 JUMP JUMPDEST DUP3 ADD SWAP2 SWAP1 PUSH0 MSTORE PUSH1 0x20 PUSH0 KECCAK256 SWAP1 JUMPDEST DUP2 SLOAD DUP2 MSTORE SWAP1 PUSH1 0x1 ADD SWAP1 PUSH1 0x20 ADD DUP1 DUP4 GT PUSH2 0x1A96 JUMPI DUP3 SWAP1 SUB PUSH1 0x1F AND DUP3 ADD SWAP2 JUMPDEST POP POP POP POP POP DUP2 MSTORE PUSH1 0x20 ADD PUSH1 0x5 DUP3 ADD SLOAD DUP2 MSTORE PUSH1 0x20 ADD PUSH1 0x6 DUP3 ADD PUSH0 SWAP1 SLOAD SWAP1 PUSH2 0x100 EXP SWAP1 DIV PUSH20 0xFFFFFFFFFFFFFFFFFFFFFFFFFFFFFFFFFFFFFFFF AND PUSH20 0xFFFFFFFFFFFFFFFFFFFFFFFFFFFFFFFFFFFFFFFF AND PUSH20 0xFFFFFFFFFFFFFFFFFFFFFFFFFFFFFFFFFFFFFFFF AND DUP2 MSTORE PUSH1 0x20 ADD PUSH1 0x7 DUP3 ADD DUP1 SLOAD PUSH2 0x1B2B SWAP1 PUSH2 0x2BFA JUMP JUMPDEST DUP1 PUSH1 0x1F ADD PUSH1 0x20 DUP1 SWAP2 DIV MUL PUSH1 0x20 ADD PUSH1 0x40 MLOAD SWAP1 DUP2 ADD PUSH1 0x40 MSTORE DUP1 SWAP3 SWAP2 SWAP1 DUP2 DUP2 MSTORE PUSH1 0x20 ADD DUP3 DUP1 SLOAD PUSH2 0x1B57 SWAP1 PUSH2 0x2BFA JUMP JUMPDEST DUP1 ISZERO PUSH2 0x1BA2 JUMPI DUP1 PUSH1 0x1F LT PUSH2 0x1B79 JUMPI PUSH2 0x100 DUP1 DUP4 SLOAD DIV MUL DUP4 MSTORE SWAP2 PUSH1 0x20 ADD SWAP2 PUSH2 0x1BA2 JUMP JUMPDEST DUP3 ADD SWAP2 SWAP1 PUSH0 MSTORE PUSH1 0x20 PUSH0 KECCAK256 SWAP1 JUMPDEST DUP2 SLOAD DUP2 MSTORE SWAP1 PUSH1 0x1 ADD SWAP1 PUSH1 0x20 ADD DUP1 DUP4 GT PUSH2 0x1B85 JUMPI DUP3 SWAP1 SUB PUSH1 0x1F AND DUP3 ADD SWAP2 JUMPDEST POP POP POP POP POP DUP2 MSTORE PUSH1 0x20 ADD PUSH1 0x8 DUP3 ADD DUP1 SLOAD PUSH2 0x1BBB SWAP1 PUSH2 0x2BFA JUMP JUMPDEST DUP1 PUSH1 0x1F ADD PUSH1 0x20 DUP1 SWAP2 DIV MUL PUSH1 0x20 ADD PUSH1 0x40 MLOAD SWAP1 DUP2 ADD PUSH1 0x40 MSTORE DUP1 SWAP3 SWAP2 SWAP1 DUP2 DUP2 MSTORE PUSH1 0x20 ADD DUP3 DUP1 SLOAD PUSH2 0x1BE7 SWAP1 PUSH2 0x2BFA JUMP JUMPDEST DUP1 ISZERO PUSH2 0x1C32 JUMPI DUP1 PUSH1 0x1F LT PUSH2 0x1C09 JUMPI PUSH2 0x100 DUP1 DUP4 SLOAD DIV MUL DUP4 MSTORE SWAP2 PUSH1 0x20 ADD SWAP2 PUSH2 0x1C32 JUMP JUMPDEST DUP3 ADD SWAP2 SWAP1 PUSH0 MSTORE PUSH1 0x20 PUSH0 KECCAK256 SWAP1 JUMPDEST DUP2 SLOAD DUP2 MSTORE SWAP1 PUSH1 0x1 ADD SWAP1 PUSH1 0x20 ADD DUP1 DUP4 GT PUSH2 0x1C15 JUMPI DUP3 SWAP1 SUB PUSH1 0x1F AND DUP3 ADD SWAP2 JUMPDEST POP POP POP POP POP DUP2 MSTORE PUSH1 0x20 ADD PUSH1 0x9 DUP3 ADD SLOAD DUP2 MSTORE POP POP SWAP1 POP DUP1 PUSH1 0x20 ADD MLOAD DUP2 PUSH1 0x40 ADD MLOAD SWAP3 POP SWAP3 POP POP SWAP2 POP SWAP2 JUMP JUMPDEST PUSH2 0x1C63 PUSH2 0x2088 JUMP JUMPDEST PUSH0 PUSH20 0xFFFFFFFFFFFFFFFFFFFFFFFFFFFFFFFFFFFFFFFF AND DUP2 PUSH20 0xFFFFFFFFFFFFFFFFFFFFFFFFFFFFFFFFFFFFFFFF AND SUB PUSH2 0x1CD3 JUMPI PUSH0 PUSH1 0x40 MLOAD PUSH32 0x1E4FBDF700000000000000000000000000000000000000000000000000000000 DUP2 MSTORE PUSH1 0x4 ADD PUSH2 0x1CCA SWAP2 SWAP1 PUSH2 0x2861 JUMP JUMPDEST PUSH1 0x40 MLOAD DUP1 SWAP2 SUB SWAP1 REVERT JUMPDEST PUSH2 0x1CDC DUP2 PUSH2 0x210F JUMP JUMPDEST POP JUMP JUMPDEST PUSH1 0x60 PUSH1 0x6 DUP1 SLOAD DUP1 PUSH1 0x20 MUL PUSH1 0x20 ADD PUSH1 0x40 MLOAD SWAP1 DUP2 ADD PUSH1 0x40 MSTORE DUP1 SWAP3 SWAP2 SWAP1 DUP2 DUP2 MSTORE PUSH1 0x20 ADD PUSH0 SWAP1 JUMPDEST DUP3 DUP3 LT ISZERO PUSH2 0x207F JUMPI DUP4 DUP3 SWAP1 PUSH0 MSTORE PUSH1 0x20 PUSH0 KECCAK256 SWAP1 PUSH1 0xA MUL ADD PUSH1 0x40 MLOAD DUP1 PUSH2 0x140 ADD PUSH1 0x40 MSTORE SWAP1 DUP2 PUSH0 DUP3 ADD SLOAD DUP2 MSTORE PUSH1 0x20 ADD PUSH1 0x1 DUP3 ADD DUP1 SLOAD PUSH2 0x1D3D SWAP1 PUSH2 0x2BFA JUMP JUMPDEST DUP1 PUSH1 0x1F ADD PUSH1 0x20 DUP1 SWAP2 DIV MUL PUSH1 0x20 ADD PUSH1 0x40 MLOAD SWAP1 DUP2 ADD PUSH1 0x40 MSTORE DUP1 SWAP3 SWAP2 SWAP1 DUP2 DUP2 MSTORE PUSH1 0x20 ADD DUP3 DUP1 SLOAD PUSH2 0x1D69 SWAP1 PUSH2 0x2BFA JUMP JUMPDEST DUP1 ISZERO PUSH2 0x1DB4 JUMPI DUP1 PUSH1 0x1F LT PUSH2 0x1D8B JUMPI PUSH2 0x100 DUP1 DUP4 SLOAD DIV MUL DUP4 MSTORE SWAP2 PUSH1 0x20 ADD SWAP2 PUSH2 0x1DB4 JUMP JUMPDEST DUP3 ADD SWAP2 SWAP1 PUSH0 MSTORE PUSH1 0x20 PUSH0 KECCAK256 SWAP1 JUMPDEST DUP2 SLOAD DUP2 MSTORE SWAP1 PUSH1 0x1 ADD SWAP1 PUSH1 0x20 ADD DUP1 DUP4 GT PUSH2 0x1D97 JUMPI DUP3 SWAP1 SUB PUSH1 0x1F AND DUP3 ADD SWAP2 JUMPDEST POP POP POP POP POP DUP2 MSTORE PUSH1 0x20 ADD PUSH1 0x2 DUP3 ADD DUP1 SLOAD PUSH2 0x1DCD SWAP1 PUSH2 0x2BFA JUMP JUMPDEST DUP1 PUSH1 0x1F ADD PUSH1 0x20 DUP1 SWAP2 DIV MUL PUSH1 0x20 ADD PUSH1 0x40 MLOAD SWAP1 DUP2 ADD PUSH1 0x40 MSTORE DUP1 SWAP3 SWAP2 SWAP1 DUP2 DUP2 MSTORE PUSH1 0x20 ADD DUP3 DUP1 SLOAD PUSH2 0x1DF9 SWAP1 PUSH2 0x2BFA JUMP JUMPDEST DUP1 ISZERO PUSH2 0x1E44 JUMPI DUP1 PUSH1 0x1F LT PUSH2 0x1E1B JUMPI PUSH2 0x100 DUP1 DUP4 SLOAD DIV MUL DUP4 MSTORE SWAP2 PUSH1 0x20 ADD SWAP2 PUSH2 0x1E44 JUMP JUMPDEST DUP3 ADD SWAP2 SWAP1 PUSH0 MSTORE PUSH1 0x20 PUSH0 KECCAK256 SWAP1 JUMPDEST DUP2 SLOAD DUP2 MSTORE SWAP1 PUSH1 0x1 ADD SWAP1 PUSH1 0x20 ADD DUP1 DUP4 GT PUSH2 0x1E27 JUMPI DUP3 SWAP1 SUB PUSH1 0x1F AND DUP3 ADD SWAP2 JUMPDEST POP POP POP POP POP DUP2 MSTORE PUSH1 0x20 ADD PUSH1 0x3 DUP3 ADD SLOAD DUP2 MSTORE PUSH1 0x20 ADD PUSH1 0x4 DUP3 ADD DUP1 SLOAD PUSH2 0x1E67 SWAP1 PUSH2 0x2BFA JUMP JUMPDEST DUP1 PUSH1 0x1F ADD PUSH1 0x20 DUP1 SWAP2 DIV MUL PUSH1 0x20 ADD PUSH1 0x40 MLOAD SWAP1 DUP2 ADD PUSH1 0x40 MSTORE DUP1 SWAP3 SWAP2 SWAP1 DUP2 DUP2 MSTORE PUSH1 0x20 ADD DUP3 DUP1 SLOAD PUSH2 0x1E93 SWAP1 PUSH2 0x2BFA JUMP JUMPDEST DUP1 ISZERO PUSH2 0x1EDE JUMPI DUP1 PUSH1 0x1F LT PUSH2 0x1EB5 JUMPI PUSH2 0x100 DUP1 DUP4 SLOAD DIV MUL DUP4 MSTORE SWAP2 PUSH1 0x20 ADD SWAP2 PUSH2 0x1EDE JUMP JUMPDEST DUP3 ADD SWAP2 SWAP1 PUSH0 MSTORE PUSH1 0x20 PUSH0 KECCAK256 SWAP1 JUMPDEST DUP2 SLOAD DUP2 MSTORE SWAP1 PUSH1 0x1 ADD SWAP1 PUSH1 0x20 ADD DUP1 DUP4 GT PUSH2 0x1EC1 JUMPI DUP3 SWAP1 SUB PUSH1 0x1F AND DUP3 ADD SWAP2 JUMPDEST POP POP POP POP POP DUP2 MSTORE PUSH1 0x20 ADD PUSH1 0x5 DUP3 ADD SLOAD DUP2 MSTORE PUSH1 0x20 ADD PUSH1 0x6 DUP3 ADD PUSH0 SWAP1 SLOAD SWAP1 PUSH2 0x100 EXP SWAP1 DIV PUSH20 0xFFFFFFFFFFFFFFFFFFFFFFFFFFFFFFFFFFFFFFFF AND PUSH20 0xFFFFFFFFFFFFFFFFFFFFFFFFFFFFFFFFFFFFFFFF AND PUSH20 0xFFFFFFFFFFFFFFFFFFFFFFFFFFFFFFFFFFFFFFFF AND DUP2 MSTORE PUSH1 0x20 ADD PUSH1 0x7 DUP3 ADD DUP1 SLOAD PUSH2 0x1F56 SWAP1 PUSH2 0x2BFA JUMP JUMPDEST DUP1 PUSH1 0x1F ADD PUSH1 0x20 DUP1 SWAP2 DIV MUL PUSH1 0x20 ADD PUSH1 0x40 MLOAD SWAP1 DUP2 ADD PUSH1 0x40 MSTORE DUP1 SWAP3 SWAP2 SWAP1 DUP2 DUP2 MSTORE PUSH1 0x20 ADD DUP3 DUP1 SLOAD PUSH2 0x1F82 SWAP1 PUSH2 0x2BFA JUMP JUMPDEST DUP1 ISZERO PUSH2 0x1FCD JUMPI DUP1 PUSH1 0x1F LT PUSH2 0x1FA4 JUMPI PUSH2 0x100 DUP1 DUP4 SLOAD DIV MUL DUP4 MSTORE SWAP2 PUSH1 0x20 ADD SWAP2 PUSH2 0x1FCD JUMP JUMPDEST DUP3 ADD SWAP2 SWAP1 PUSH0 MSTORE PUSH1 0x20 PUSH0 KECCAK256 SWAP1 JUMPDEST DUP2 SLOAD DUP2 MSTORE SWAP1 PUSH1 0x1 ADD SWAP1 PUSH1 0x20 ADD DUP1 DUP4 GT PUSH2 0x1FB0 JUMPI DUP3 SWAP1 SUB PUSH1 0x1F AND DUP3 ADD SWAP2 JUMPDEST POP POP POP POP POP DUP2 MSTORE PUSH1 0x20 ADD PUSH1 0x8 DUP3 ADD DUP1 SLOAD PUSH2 0x1FE6 SWAP1 PUSH2 0x2BFA JUMP JUMPDEST DUP1 PUSH1 0x1F ADD PUSH1 0x20 DUP1 SWAP2 DIV MUL PUSH1 0x20 ADD PUSH1 0x40 MLOAD SWAP1 DUP2 ADD PUSH1 0x40 MSTORE DUP1 SWAP3 SWAP2 SWAP1 DUP2 DUP2 MSTORE PUSH1 0x20 ADD DUP3 DUP1 SLOAD PUSH2 0x2012 SWAP1 PUSH2 0x2BFA JUMP JUMPDEST DUP1 ISZERO PUSH2 0x205D JUMPI DUP1 PUSH1 0x1F LT PUSH2 0x2034 JUMPI PUSH2 0x100 DUP1 DUP4 SLOAD DIV MUL DUP4 MSTORE SWAP2 PUSH1 0x20 ADD SWAP2 PUSH2 0x205D JUMP JUMPDEST DUP3 ADD SWAP2 SWAP1 PUSH0 MSTORE PUSH1 0x20 PUSH0 KECCAK256 SWAP1 JUMPDEST DUP2 SLOAD DUP2 MSTORE SWAP1 PUSH1 0x1 ADD SWAP1 PUSH1 0x20 ADD DUP1 DUP4 GT PUSH2 0x2040 JUMPI DUP3 SWAP1 SUB PUSH1 0x1F AND DUP3 ADD SWAP2 JUMPDEST POP POP POP POP POP DUP2 MSTORE PUSH1 0x20 ADD PUSH1 0x9 DUP3 ADD SLOAD DUP2 MSTORE POP POP DUP2 MSTORE PUSH1 0x20 ADD SWAP1 PUSH1 0x1 ADD SWAP1 PUSH2 0x1D02 JUMP JUMPDEST POP POP POP POP SWAP1 POP SWAP1 JUMP JUMPDEST PUSH2 0x2090 PUSH2 0x21D0 JUMP JUMPDEST PUSH20 0xFFFFFFFFFFFFFFFFFFFFFFFFFFFFFFFFFFFFFFFF AND PUSH2 0x20AE PUSH2 0x126E JUMP JUMPDEST PUSH20 0xFFFFFFFFFFFFFFFFFFFFFFFFFFFFFFFFFFFFFFFF AND EQ PUSH2 0x210D JUMPI PUSH2 0x20D1 PUSH2 0x21D0 JUMP JUMPDEST PUSH1 0x40 MLOAD PUSH32 0x118CDAA700000000000000000000000000000000000000000000000000000000 DUP2 MSTORE PUSH1 0x4 ADD PUSH2 0x2104 SWAP2 SWAP1 PUSH2 0x2861 JUMP JUMPDEST PUSH1 0x40 MLOAD DUP1 SWAP2 SUB SWAP1 REVERT JUMPDEST JUMP JUMPDEST PUSH0 DUP1 PUSH0 SWAP1 SLOAD SWAP1 PUSH2 0x100 EXP SWAP1 DIV PUSH20 0xFFFFFFFFFFFFFFFFFFFFFFFFFFFFFFFFFFFFFFFF AND SWAP1 POP DUP2 PUSH0 DUP1 PUSH2 0x100 EXP DUP2 SLOAD DUP2 PUSH20 0xFFFFFFFFFFFFFFFFFFFFFFFFFFFFFFFFFFFFFFFF MUL NOT AND SWAP1 DUP4 PUSH20 0xFFFFFFFFFFFFFFFFFFFFFFFFFFFFFFFFFFFFFFFF AND MUL OR SWAP1 SSTORE POP DUP2 PUSH20 0xFFFFFFFFFFFFFFFFFFFFFFFFFFFFFFFFFFFFFFFF AND DUP2 PUSH20 0xFFFFFFFFFFFFFFFFFFFFFFFFFFFFFFFFFFFFFFFF AND PUSH32 0x8BE0079C531659141344CD1FD0A4F28419497F9722A3DAAFE3B4186F6B6457E0 PUSH1 0x40 MLOAD PUSH1 0x40 MLOAD DUP1 SWAP2 SUB SWAP1 LOG3 POP POP JUMP JUMPDEST PUSH0 CALLER SWAP1 POP SWAP1 JUMP JUMPDEST PUSH0 PUSH1 0x40 MLOAD SWAP1 POP SWAP1 JUMP JUMPDEST PUSH0 DUP1 REVERT JUMPDEST PUSH0 DUP1 REVERT JUMPDEST PUSH0 DUP2 SWAP1 POP SWAP2 SWAP1 POP JUMP JUMPDEST PUSH2 0x21FA DUP2 PUSH2 0x21E8 JUMP JUMPDEST DUP2 EQ PUSH2 0x2204 JUMPI PUSH0 DUP1 REVERT JUMPDEST POP JUMP JUMPDEST PUSH0 DUP2 CALLDATALOAD SWAP1 POP PUSH2 0x2215 DUP2 PUSH2 0x21F1 JUMP JUMPDEST SWAP3 SWAP2 POP POP JUMP JUMPDEST PUSH0 PUSH1 0x20 DUP3 DUP5 SUB SLT ISZERO PUSH2 0x2230 JUMPI PUSH2 0x222F PUSH2 0x21E0 JUMP JUMPDEST JUMPDEST PUSH0 PUSH2 0x223D DUP5 DUP3 DUP6 ADD PUSH2 0x2207 JUMP JUMPDEST SWAP2 POP POP SWAP3 SWAP2 POP POP JUMP JUMPDEST PUSH2 0x224F DUP2 PUSH2 0x21E8 JUMP JUMPDEST DUP3 MSTORE POP POP JUMP JUMPDEST PUSH0 DUP2 MLOAD SWAP1 POP SWAP2 SWAP1 POP JUMP JUMPDEST PUSH0 DUP3 DUP3 MSTORE PUSH1 0x20 DUP3 ADD SWAP1 POP SWAP3 SWAP2 POP POP JUMP JUMPDEST DUP3 DUP2 DUP4 MCOPY PUSH0 DUP4 DUP4 ADD MSTORE POP POP POP JUMP JUMPDEST PUSH0 PUSH1 0x1F NOT PUSH1 0x1F DUP4 ADD AND SWAP1 POP SWAP2 SWAP1 POP JUMP JUMPDEST PUSH0 PUSH2 0x2297 DUP3 PUSH2 0x2255 JUMP JUMPDEST PUSH2 0x22A1 DUP2 DUP6 PUSH2 0x225F JUMP JUMPDEST SWAP4 POP PUSH2 0x22B1 DUP2 DUP6 PUSH1 0x20 DUP7 ADD PUSH2 0x226F JUMP JUMPDEST PUSH2 0x22BA DUP2 PUSH2 0x227D JUMP JUMPDEST DUP5 ADD SWAP2 POP POP SWAP3 SWAP2 POP POP JUMP JUMPDEST PUSH0 PUSH20 0xFFFFFFFFFFFFFFFFFFFFFFFFFFFFFFFFFFFFFFFF DUP3 AND SWAP1 POP SWAP2 SWAP1 POP JUMP JUMPDEST PUSH0 PUSH2 0x22EE DUP3 PUSH2 0x22C5 JUMP JUMPDEST SWAP1 POP SWAP2 SWAP1 POP JUMP JUMPDEST PUSH2 0x22FE DUP2 PUSH2 0x22E4 JUMP JUMPDEST DUP3 MSTORE POP POP JUMP JUMPDEST PUSH0 PUSH2 0x140 DUP3 ADD SWAP1 POP PUSH2 0x2318 PUSH0 DUP4 ADD DUP14 PUSH2 0x2246 JUMP JUMPDEST DUP2 DUP2 SUB PUSH1 0x20 DUP4 ADD MSTORE PUSH2 0x232A DUP2 DUP13 PUSH2 0x228D JUMP JUMPDEST SWAP1 POP DUP2 DUP2 SUB PUSH1 0x40 DUP4 ADD MSTORE PUSH2 0x233E DUP2 DUP12 PUSH2 0x228D JUMP JUMPDEST SWAP1 POP PUSH2 0x234D PUSH1 0x60 DUP4 ADD DUP11 PUSH2 0x2246 JUMP JUMPDEST DUP2 DUP2 SUB PUSH1 0x80 DUP4 ADD MSTORE PUSH2 0x235F DUP2 DUP10 PUSH2 0x228D JUMP JUMPDEST SWAP1 POP PUSH2 0x236E PUSH1 0xA0 DUP4 ADD DUP9 PUSH2 0x2246 JUMP JUMPDEST PUSH2 0x237B PUSH1 0xC0 DUP4 ADD DUP8 PUSH2 0x22F5 JUMP JUMPDEST DUP2 DUP2 SUB PUSH1 0xE0 DUP4 ADD MSTORE PUSH2 0x238D DUP2 DUP7 PUSH2 0x228D JUMP JUMPDEST SWAP1 POP DUP2 DUP2 SUB PUSH2 0x100 DUP4 ADD MSTORE PUSH2 0x23A2 DUP2 DUP6 PUSH2 0x228D JUMP JUMPDEST SWAP1 POP PUSH2 0x23B2 PUSH2 0x120 DUP4 ADD DUP5 PUSH2 0x2246 JUMP JUMPDEST SWAP12 SWAP11 POP POP POP POP POP POP POP POP POP POP POP JUMP JUMPDEST PUSH2 0x23CA DUP2 PUSH2 0x22E4 JUMP JUMPDEST DUP2 EQ PUSH2 0x23D4 JUMPI PUSH0 DUP1 REVERT JUMPDEST POP JUMP JUMPDEST PUSH0 DUP2 CALLDATALOAD SWAP1 POP PUSH2 0x23E5 DUP2 PUSH2 0x23C1 JUMP JUMPDEST SWAP3 SWAP2 POP POP JUMP JUMPDEST PUSH0 PUSH1 0x20 DUP3 DUP5 SUB SLT ISZERO PUSH2 0x2400 JUMPI PUSH2 0x23FF PUSH2 0x21E0 JUMP JUMPDEST JUMPDEST PUSH0 PUSH2 0x240D DUP5 DUP3 DUP6 ADD PUSH2 0x23D7 JUMP JUMPDEST SWAP2 POP POP SWAP3 SWAP2 POP POP JUMP JUMPDEST PUSH0 DUP2 MLOAD SWAP1 POP SWAP2 SWAP1 POP JUMP JUMPDEST PUSH0 DUP3 DUP3 MSTORE PUSH1 0x20 DUP3 ADD SWAP1 POP SWAP3 SWAP2 POP POP JUMP JUMPDEST PUSH0 DUP2 SWAP1 POP PUSH1 0x20 DUP3 ADD SWAP1 POP SWAP2 SWAP1 POP JUMP JUMPDEST PUSH2 0x2448 DUP2 PUSH2 0x21E8 JUMP JUMPDEST DUP3 MSTORE POP POP JUMP JUMPDEST PUSH0 DUP3 DUP3 MSTORE PUSH1 0x20 DUP3 ADD SWAP1 POP SWAP3 SWAP2 POP POP JUMP JUMPDEST PUSH0 PUSH2 0x2468 DUP3 PUSH2 0x2255 JUMP JUMPDEST PUSH2 0x2472 DUP2 DUP6 PUSH2 0x244E JUMP JUMPDEST SWAP4 POP PUSH2 0x2482 DUP2 DUP6 PUSH1 0x20 DUP7 ADD PUSH2 0x226F JUMP JUMPDEST PUSH2 0x248B DUP2 PUSH2 0x227D JUMP JUMPDEST DUP5 ADD SWAP2 POP POP SWAP3 SWAP2 POP POP JUMP JUMPDEST PUSH2 0x249F DUP2 PUSH2 0x22E4 JUMP JUMPDEST DUP3 MSTORE POP POP JUMP JUMPDEST PUSH0 PUSH2 0x140 DUP4 ADD PUSH0 DUP4 ADD MLOAD PUSH2 0x24BB PUSH0 DUP7 ADD DUP3 PUSH2 0x243F JUMP JUMPDEST POP PUSH1 0x20 DUP4 ADD MLOAD DUP5 DUP3 SUB PUSH1 0x20 DUP7 ADD MSTORE PUSH2 0x24D3 DUP3 DUP3 PUSH2 0x245E JUMP JUMPDEST SWAP2 POP POP PUSH1 0x40 DUP4 ADD MLOAD DUP5 DUP3 SUB PUSH1 0x40 DUP7 ADD MSTORE PUSH2 0x24ED DUP3 DUP3 PUSH2 0x245E JUMP JUMPDEST SWAP2 POP POP PUSH1 0x60 DUP4 ADD MLOAD PUSH2 0x2502 PUSH1 0x60 DUP7 ADD DUP3 PUSH2 0x243F JUMP JUMPDEST POP PUSH1 0x80 DUP4 ADD MLOAD DUP5 DUP3 SUB PUSH1 0x80 DUP7 ADD MSTORE PUSH2 0x251A DUP3 DUP3 PUSH2 0x245E JUMP JUMPDEST SWAP2 POP POP PUSH1 0xA0 DUP4 ADD MLOAD PUSH2 0x252F PUSH1 0xA0 DUP7 ADD DUP3 PUSH2 0x243F JUMP JUMPDEST POP PUSH1 0xC0 DUP4 ADD MLOAD PUSH2 0x2542 PUSH1 0xC0 DUP7 ADD DUP3 PUSH2 0x2496 JUMP JUMPDEST POP PUSH1 0xE0 DUP4 ADD MLOAD DUP5 DUP3 SUB PUSH1 0xE0 DUP7 ADD MSTORE PUSH2 0x255A DUP3 DUP3 PUSH2 0x245E JUMP JUMPDEST SWAP2 POP POP PUSH2 0x100 DUP4 ADD MLOAD DUP5 DUP3 SUB PUSH2 0x100 DUP7 ADD MSTORE PUSH2 0x2576 DUP3 DUP3 PUSH2 0x245E JUMP JUMPDEST SWAP2 POP POP PUSH2 0x120 DUP4 ADD MLOAD PUSH2 0x258D PUSH2 0x120 DUP7 ADD DUP3 PUSH2 0x243F JUMP JUMPDEST POP DUP1 SWAP2 POP POP SWAP3 SWAP2 POP POP JUMP JUMPDEST PUSH0 PUSH2 0x25A3 DUP4 DUP4 PUSH2 0x24A5 JUMP JUMPDEST SWAP1 POP SWAP3 SWAP2 POP POP JUMP JUMPDEST PUSH0 PUSH1 0x20 DUP3 ADD SWAP1 POP SWAP2 SWAP1 POP JUMP JUMPDEST PUSH0 PUSH2 0x25C1 DUP3 PUSH2 0x2416 JUMP JUMPDEST PUSH2 0x25CB DUP2 DUP6 PUSH2 0x2420 JUMP JUMPDEST SWAP4 POP DUP4 PUSH1 0x20 DUP3 MUL DUP6 ADD PUSH2 0x25DD DUP6 PUSH2 0x2430 JUMP JUMPDEST DUP1 PUSH0 JUMPDEST DUP6 DUP2 LT ISZERO PUSH2 0x2618 JUMPI DUP5 DUP5 SUB DUP10 MSTORE DUP2 MLOAD PUSH2 0x25F9 DUP6 DUP3 PUSH2 0x2598 JUMP JUMPDEST SWAP5 POP PUSH2 0x2604 DUP4 PUSH2 0x25AB JUMP JUMPDEST SWAP3 POP PUSH1 0x20 DUP11 ADD SWAP10 POP POP PUSH1 0x1 DUP2 ADD SWAP1 POP PUSH2 0x25E0 JUMP JUMPDEST POP DUP3 SWAP8 POP DUP8 SWAP6 POP POP POP POP POP POP SWAP3 SWAP2 POP POP JUMP JUMPDEST PUSH0 PUSH1 0x20 DUP3 ADD SWAP1 POP DUP2 DUP2 SUB PUSH0 DUP4 ADD MSTORE PUSH2 0x2642 DUP2 DUP5 PUSH2 0x25B7 JUMP JUMPDEST SWAP1 POP SWAP3 SWAP2 POP POP JUMP JUMPDEST PUSH0 DUP2 ISZERO ISZERO SWAP1 POP SWAP2 SWAP1 POP JUMP JUMPDEST PUSH2 0x265E DUP2 PUSH2 0x264A JUMP JUMPDEST DUP3 MSTORE POP POP JUMP JUMPDEST PUSH0 PUSH1 0x20 DUP3 ADD SWAP1 POP PUSH2 0x2677 PUSH0 DUP4 ADD DUP5 PUSH2 0x2655 JUMP JUMPDEST SWAP3 SWAP2 POP POP JUMP JUMPDEST PUSH0 DUP1 REVERT JUMPDEST PUSH0 DUP1 REVERT JUMPDEST PUSH32 0x4E487B7100000000000000000000000000000000000000000000000000000000 PUSH0 MSTORE PUSH1 0x41 PUSH1 0x4 MSTORE PUSH1 0x24 PUSH0 REVERT JUMPDEST PUSH2 0x26BB DUP3 PUSH2 0x227D JUMP JUMPDEST DUP2 ADD DUP2 DUP2 LT PUSH8 0xFFFFFFFFFFFFFFFF DUP3 GT OR ISZERO PUSH2 0x26DA JUMPI PUSH2 0x26D9 PUSH2 0x2685 JUMP JUMPDEST JUMPDEST DUP1 PUSH1 0x40 MSTORE POP POP POP JUMP JUMPDEST PUSH0 PUSH2 0x26EC PUSH2 0x21D7 JUMP JUMPDEST SWAP1 POP PUSH2 0x26F8 DUP3 DUP3 PUSH2 0x26B2 JUMP JUMPDEST SWAP2 SWAP1 POP JUMP JUMPDEST PUSH0 PUSH8 0xFFFFFFFFFFFFFFFF DUP3 GT ISZERO PUSH2 0x2717 JUMPI PUSH2 0x2716 PUSH2 0x2685 JUMP JUMPDEST JUMPDEST PUSH2 0x2720 DUP3 PUSH2 0x227D JUMP JUMPDEST SWAP1 POP PUSH1 0x20 DUP2 ADD SWAP1 POP SWAP2 SWAP1 POP JUMP JUMPDEST DUP3 DUP2 DUP4 CALLDATACOPY PUSH0 DUP4 DUP4 ADD MSTORE POP POP POP JUMP JUMPDEST PUSH0 PUSH2 0x274D PUSH2 0x2748 DUP5 PUSH2 0x26FD JUMP JUMPDEST PUSH2 0x26E3 JUMP JUMPDEST SWAP1 POP DUP3 DUP2 MSTORE PUSH1 0x20 DUP2 ADD DUP5 DUP5 DUP5 ADD GT ISZERO PUSH2 0x2769 JUMPI PUSH2 0x2768 PUSH2 0x2681 JUMP JUMPDEST JUMPDEST PUSH2 0x2774 DUP5 DUP3 DUP6 PUSH2 0x272D JUMP JUMPDEST POP SWAP4 SWAP3 POP POP POP JUMP JUMPDEST PUSH0 DUP3 PUSH1 0x1F DUP4 ADD SLT PUSH2 0x2790 JUMPI PUSH2 0x278F PUSH2 0x267D JUMP JUMPDEST JUMPDEST DUP2 CALLDATALOAD PUSH2 0x27A0 DUP5 DUP3 PUSH1 0x20 DUP7 ADD PUSH2 0x273B JUMP JUMPDEST SWAP2 POP POP SWAP3 SWAP2 POP POP JUMP JUMPDEST PUSH0 DUP1 PUSH0 DUP1 PUSH1 0x80 DUP6 DUP8 SUB SLT ISZERO PUSH2 0x27C1 JUMPI PUSH2 0x27C0 PUSH2 0x21E0 JUMP JUMPDEST JUMPDEST PUSH0 DUP6 ADD CALLDATALOAD PUSH8 0xFFFFFFFFFFFFFFFF DUP2 GT ISZERO PUSH2 0x27DE JUMPI PUSH2 0x27DD PUSH2 0x21E4 JUMP JUMPDEST JUMPDEST PUSH2 0x27EA DUP8 DUP3 DUP9 ADD PUSH2 0x277C JUMP JUMPDEST SWAP5 POP POP PUSH1 0x20 DUP6 ADD CALLDATALOAD PUSH8 0xFFFFFFFFFFFFFFFF DUP2 GT ISZERO PUSH2 0x280B JUMPI PUSH2 0x280A PUSH2 0x21E4 JUMP JUMPDEST JUMPDEST PUSH2 0x2817 DUP8 DUP3 DUP9 ADD PUSH2 0x277C JUMP JUMPDEST SWAP4 POP POP PUSH1 0x40 DUP6 ADD CALLDATALOAD PUSH8 0xFFFFFFFFFFFFFFFF DUP2 GT ISZERO PUSH2 0x2838 JUMPI PUSH2 0x2837 PUSH2 0x21E4 JUMP JUMPDEST JUMPDEST PUSH2 0x2844 DUP8 DUP3 DUP9 ADD PUSH2 0x277C JUMP JUMPDEST SWAP3 POP POP PUSH1 0x60 PUSH2 0x2855 DUP8 DUP3 DUP9 ADD PUSH2 0x2207 JUMP JUMPDEST SWAP2 POP POP SWAP3 SWAP6 SWAP2 SWAP5 POP SWAP3 POP JUMP JUMPDEST PUSH0 PUSH1 0x20 DUP3 ADD SWAP1 POP PUSH2 0x2874 PUSH0 DUP4 ADD DUP5 PUSH2 0x22F5 JUMP JUMPDEST SWAP3 SWAP2 POP POP JUMP JUMPDEST PUSH0 DUP1 PUSH1 0x40 DUP4 DUP6 SUB SLT ISZERO PUSH2 0x2890 JUMPI PUSH2 0x288F PUSH2 0x21E0 JUMP JUMPDEST JUMPDEST PUSH0 PUSH2 0x289D DUP6 DUP3 DUP7 ADD PUSH2 0x23D7 JUMP JUMPDEST SWAP3 POP POP PUSH1 0x20 PUSH2 0x28AE DUP6 DUP3 DUP7 ADD PUSH2 0x2207 JUMP JUMPDEST SWAP2 POP POP SWAP3 POP SWAP3 SWAP1 POP JUMP JUMPDEST PUSH0 PUSH1 0x40 DUP3 ADD SWAP1 POP DUP2 DUP2 SUB PUSH0 DUP4 ADD MSTORE PUSH2 0x28D0 DUP2 DUP6 PUSH2 0x228D JUMP JUMPDEST SWAP1 POP DUP2 DUP2 SUB PUSH1 0x20 DUP4 ADD MSTORE PUSH2 0x28E4 DUP2 DUP5 PUSH2 0x228D JUMP JUMPDEST SWAP1 POP SWAP4 SWAP3 POP POP POP JUMP JUMPDEST PUSH0 DUP1 REVERT JUMPDEST PUSH0 DUP1 REVERT JUMPDEST PUSH0 PUSH2 0x2907 PUSH2 0x2902 DUP5 PUSH2 0x26FD JUMP JUMPDEST PUSH2 0x26E3 JUMP JUMPDEST SWAP1 POP DUP3 DUP2 MSTORE PUSH1 0x20 DUP2 ADD DUP5 DUP5 DUP5 ADD GT ISZERO PUSH2 0x2923 JUMPI PUSH2 0x2922 PUSH2 0x2681 JUMP JUMPDEST JUMPDEST PUSH2 0x292E DUP5 DUP3 DUP6 PUSH2 0x226F JUMP JUMPDEST POP SWAP4 SWAP3 POP POP POP JUMP JUMPDEST PUSH0 DUP3 PUSH1 0x1F DUP4 ADD SLT PUSH2 0x294A JUMPI PUSH2 0x2949 PUSH2 0x267D JUMP JUMPDEST JUMPDEST DUP2 MLOAD PUSH2 0x295A DUP5 DUP3 PUSH1 0x20 DUP7 ADD PUSH2 0x28F5 JUMP JUMPDEST SWAP2 POP POP SWAP3 SWAP2 POP POP JUMP JUMPDEST PUSH2 0x296C DUP2 PUSH2 0x264A JUMP JUMPDEST DUP2 EQ PUSH2 0x2976 JUMPI PUSH0 DUP1 REVERT JUMPDEST POP JUMP JUMPDEST PUSH0 DUP2 MLOAD SWAP1 POP PUSH2 0x2987 DUP2 PUSH2 0x2963 JUMP JUMPDEST SWAP3 SWAP2 POP POP JUMP JUMPDEST PUSH0 PUSH1 0x80 DUP3 DUP5 SUB SLT ISZERO PUSH2 0x29A2 JUMPI PUSH2 0x29A1 PUSH2 0x28ED JUMP JUMPDEST JUMPDEST PUSH2 0x29AC PUSH1 0x80 PUSH2 0x26E3 JUMP JUMPDEST SWAP1 POP PUSH0 DUP3 ADD MLOAD PUSH8 0xFFFFFFFFFFFFFFFF DUP2 GT ISZERO PUSH2 0x29CB JUMPI PUSH2 0x29CA PUSH2 0x28F1 JUMP JUMPDEST JUMPDEST PUSH2 0x29D7 DUP5 DUP3 DUP6 ADD PUSH2 0x2936 JUMP JUMPDEST PUSH0 DUP4 ADD MSTORE POP PUSH1 0x20 DUP3 ADD MLOAD PUSH8 0xFFFFFFFFFFFFFFFF DUP2 GT ISZERO PUSH2 0x29FA JUMPI PUSH2 0x29F9 PUSH2 0x28F1 JUMP JUMPDEST JUMPDEST PUSH2 0x2A06 DUP5 DUP3 DUP6 ADD PUSH2 0x2936 JUMP JUMPDEST PUSH1 0x20 DUP4 ADD MSTORE POP PUSH1 0x40 DUP3 ADD MLOAD PUSH8 0xFFFFFFFFFFFFFFFF DUP2 GT ISZERO PUSH2 0x2A2A JUMPI PUSH2 0x2A29 PUSH2 0x28F1 JUMP JUMPDEST JUMPDEST PUSH2 0x2A36 DUP5 DUP3 DUP6 ADD PUSH2 0x2936 JUMP JUMPDEST PUSH1 0x40 DUP4 ADD MSTORE POP PUSH1 0x60 PUSH2 0x2A4A DUP5 DUP3 DUP6 ADD PUSH2 0x2979 JUMP JUMPDEST PUSH1 0x60 DUP4 ADD MSTORE POP SWAP3 SWAP2 POP POP JUMP JUMPDEST PUSH0 PUSH1 0x20 DUP3 DUP5 SUB SLT ISZERO PUSH2 0x2A6B JUMPI PUSH2 0x2A6A PUSH2 0x21E0 JUMP JUMPDEST JUMPDEST PUSH0 DUP3 ADD MLOAD PUSH8 0xFFFFFFFFFFFFFFFF DUP2 GT ISZERO PUSH2 0x2A88 JUMPI PUSH2 0x2A87 PUSH2 0x21E4 JUMP JUMPDEST JUMPDEST PUSH2 0x2A94 DUP5 DUP3 DUP6 ADD PUSH2 0x298D JUMP JUMPDEST SWAP2 POP POP SWAP3 SWAP2 POP POP JUMP JUMPDEST PUSH32 0x596F75206861766520746F205265676973746572640000000000000000000000 PUSH0 DUP3 ADD MSTORE POP JUMP JUMPDEST PUSH0 PUSH2 0x2AD1 PUSH1 0x15 DUP4 PUSH2 0x225F JUMP JUMPDEST SWAP2 POP PUSH2 0x2ADC DUP3 PUSH2 0x2A9D JUMP JUMPDEST PUSH1 0x20 DUP3 ADD SWAP1 POP SWAP2 SWAP1 POP JUMP JUMPDEST PUSH0 PUSH1 0x20 DUP3 ADD SWAP1 POP DUP2 DUP2 SUB PUSH0 DUP4 ADD MSTORE PUSH2 0x2AFE DUP2 PUSH2 0x2AC5 JUMP JUMPDEST SWAP1 POP SWAP2 SWAP1 POP JUMP JUMPDEST PUSH32 0x596F752061726520616C726561647920566F7465642100000000000000000000 PUSH0 DUP3 ADD MSTORE POP JUMP JUMPDEST PUSH0 PUSH2 0x2B39 PUSH1 0x16 DUP4 PUSH2 0x225F JUMP JUMPDEST SWAP2 POP PUSH2 0x2B44 DUP3 PUSH2 0x2B05 JUMP JUMPDEST PUSH1 0x20 DUP3 ADD SWAP1 POP SWAP2 SWAP1 POP JUMP JUMPDEST PUSH0 PUSH1 0x20 DUP3 ADD SWAP1 POP DUP2 DUP2 SUB PUSH0 DUP4 ADD MSTORE PUSH2 0x2B66 DUP2 PUSH2 0x2B2D JUMP JUMPDEST SWAP1 POP SWAP2 SWAP1 POP JUMP JUMPDEST PUSH32 0x4E487B7100000000000000000000000000000000000000000000000000000000 PUSH0 MSTORE PUSH1 0x11 PUSH1 0x4 MSTORE PUSH1 0x24 PUSH0 REVERT JUMPDEST PUSH0 PUSH2 0x2BA4 DUP3 PUSH2 0x21E8 JUMP JUMPDEST SWAP2 POP PUSH2 0x2BAF DUP4 PUSH2 0x21E8 JUMP JUMPDEST SWAP3 POP DUP3 DUP3 ADD SWAP1 POP DUP1 DUP3 GT ISZERO PUSH2 0x2BC7 JUMPI PUSH2 0x2BC6 PUSH2 0x2B6D JUMP JUMPDEST JUMPDEST SWAP3 SWAP2 POP POP JUMP JUMPDEST PUSH32 0x4E487B7100000000000000000000000000000000000000000000000000000000 PUSH0 MSTORE PUSH1 0x22 PUSH1 0x4 MSTORE PUSH1 0x24 PUSH0 REVERT JUMPDEST PUSH0 PUSH1 0x2 DUP3 DIV SWAP1 POP PUSH1 0x1 DUP3 AND DUP1 PUSH2 0x2C11 JUMPI PUSH1 0x7F DUP3 AND SWAP2 POP JUMPDEST PUSH1 0x20 DUP3 LT DUP2 SUB PUSH2 0x2C24 JUMPI PUSH2 0x2C23 PUSH2 0x2BCD JUMP JUMPDEST JUMPDEST POP SWAP2 SWAP1 POP JUMP JUMPDEST PUSH0 PUSH1 0x20 DUP3 DUP5 SUB SLT ISZERO PUSH2 0x2C3F JUMPI PUSH2 0x2C3E PUSH2 0x21E0 JUMP JUMPDEST JUMPDEST PUSH0 DUP3 ADD MLOAD PUSH8 0xFFFFFFFFFFFFFFFF DUP2 GT ISZERO PUSH2 0x2C5C JUMPI PUSH2 0x2C5B PUSH2 0x21E4 JUMP JUMPDEST JUMPDEST PUSH2 0x2C68 DUP5 DUP3 DUP6 ADD PUSH2 0x2936 JUMP JUMPDEST SWAP2 POP POP SWAP3 SWAP2 POP POP JUMP JUMPDEST PUSH0 DUP2 SWAP1 POP DUP2 PUSH0 MSTORE PUSH1 0x20 PUSH0 KECCAK256 SWAP1 POP SWAP2 SWAP1 POP JUMP JUMPDEST PUSH0 PUSH1 0x20 PUSH1 0x1F DUP4 ADD DIV SWAP1 POP SWAP2 SWAP1 POP JUMP JUMPDEST PUSH0 DUP3 DUP3 SHL SWAP1 POP SWAP3 SWAP2 POP POP JUMP JUMPDEST PUSH0 PUSH1 0x8 DUP4 MUL PUSH2 0x2CCD PUSH32 0xFFFFFFFFFFFFFFFFFFFFFFFFFFFFFFFFFFFFFFFFFFFFFFFFFFFFFFFFFFFFFFFF DUP3 PUSH2 0x2C92 JUMP JUMPDEST PUSH2 0x2CD7 DUP7 DUP4 PUSH2 0x2C92 JUMP JUMPDEST SWAP6 POP DUP1 NOT DUP5 AND SWAP4 POP DUP1 DUP7 AND DUP5 OR SWAP3 POP POP POP SWAP4 SWAP3 POP POP POP JUMP JUMPDEST PUSH0 DUP2 SWAP1 POP SWAP2 SWAP1 POP JUMP JUMPDEST PUSH0 PUSH2 0x2D12 PUSH2 0x2D0D PUSH2 0x2D08 DUP5 PUSH2 0x21E8 JUMP JUMPDEST PUSH2 0x2CEF JUMP JUMPDEST PUSH2 0x21E8 JUMP JUMPDEST SWAP1 POP SWAP2 SWAP1 POP JUMP JUMPDEST PUSH0 DUP2 SWAP1 POP SWAP2 SWAP1 POP JUMP JUMPDEST PUSH2 0x2D2B DUP4 PUSH2 0x2CF8 JUMP JUMPDEST PUSH2 0x2D3F PUSH2 0x2D37 DUP3 PUSH2 0x2D19 JUMP JUMPDEST DUP5 DUP5 SLOAD PUSH2 0x2C9E JUMP JUMPDEST DUP3 SSTORE POP POP POP POP JUMP JUMPDEST PUSH0 SWAP1 JUMP JUMPDEST PUSH2 0x2D53 PUSH2 0x2D47 JUMP JUMPDEST PUSH2 0x2D5E DUP2 DUP5 DUP5 PUSH2 0x2D22 JUMP JUMPDEST POP POP POP JUMP JUMPDEST JUMPDEST DUP2 DUP2 LT ISZERO PUSH2 0x2D81 JUMPI PUSH2 0x2D76 PUSH0 DUP3 PUSH2 0x2D4B JUMP JUMPDEST PUSH1 0x1 DUP2 ADD SWAP1 POP PUSH2 0x2D64 JUMP JUMPDEST POP POP JUMP JUMPDEST PUSH1 0x1F DUP3 GT ISZERO PUSH2 0x2DC6 JUMPI PUSH2 0x2D97 DUP2 PUSH2 0x2C71 JUMP JUMPDEST PUSH2 0x2DA0 DUP5 PUSH2 0x2C83 JUMP JUMPDEST DUP2 ADD PUSH1 0x20 DUP6 LT ISZERO PUSH2 0x2DAF JUMPI DUP2 SWAP1 POP JUMPDEST PUSH2 0x2DC3 PUSH2 0x2DBB DUP6 PUSH2 0x2C83 JUMP JUMPDEST DUP4 ADD DUP3 PUSH2 0x2D63 JUMP JUMPDEST POP POP JUMPDEST POP POP POP JUMP JUMPDEST PUSH0 DUP3 DUP3 SHR SWAP1 POP SWAP3 SWAP2 POP POP JUMP JUMPDEST PUSH0 PUSH2 0x2DE6 PUSH0 NOT DUP5 PUSH1 0x8 MUL PUSH2 0x2DCB JUMP JUMPDEST NOT DUP1 DUP4 AND SWAP2 POP POP SWAP3 SWAP2 POP POP JUMP JUMPDEST PUSH0 PUSH2 0x2DFE DUP4 DUP4 PUSH2 0x2DD7 JUMP JUMPDEST SWAP2 POP DUP3 PUSH1 0x2 MUL DUP3 OR SWAP1 POP SWAP3 SWAP2 POP POP JUMP JUMPDEST PUSH2 0x2E17 DUP3 PUSH2 0x2255 JUMP JUMPDEST PUSH8 0xFFFFFFFFFFFFFFFF DUP2 GT ISZERO PUSH2 0x2E30 JUMPI PUSH2 0x2E2F PUSH2 0x2685 JUMP JUMPDEST JUMPDEST PUSH2 0x2E3A DUP3 SLOAD PUSH2 0x2BFA JUMP JUMPDEST PUSH2 0x2E45 DUP3 DUP3 DUP6 PUSH2 0x2D85 JUMP JUMPDEST PUSH0 PUSH1 0x20 SWAP1 POP PUSH1 0x1F DUP4 GT PUSH1 0x1 DUP2 EQ PUSH2 0x2E76 JUMPI PUSH0 DUP5 ISZERO PUSH2 0x2E64 JUMPI DUP3 DUP8 ADD MLOAD SWAP1 POP JUMPDEST PUSH2 0x2E6E DUP6 DUP3 PUSH2 0x2DF3 JUMP JUMPDEST DUP7 SSTORE POP PUSH2 0x2ED5 JUMP JUMPDEST PUSH1 0x1F NOT DUP5 AND PUSH2 0x2E84 DUP7 PUSH2 0x2C71 JUMP JUMPDEST PUSH0 JUMPDEST DUP3 DUP2 LT ISZERO PUSH2 0x2EAB JUMPI DUP5 DUP10 ADD MLOAD DUP3 SSTORE PUSH1 0x1 DUP3 ADD SWAP2 POP PUSH1 0x20 DUP6 ADD SWAP5 POP PUSH1 0x20 DUP2 ADD SWAP1 POP PUSH2 0x2E86 JUMP JUMPDEST DUP7 DUP4 LT ISZERO PUSH2 0x2EC8 JUMPI DUP5 DUP10 ADD MLOAD PUSH2 0x2EC4 PUSH1 0x1F DUP10 AND DUP3 PUSH2 0x2DD7 JUMP JUMPDEST DUP4 SSTORE POP JUMPDEST PUSH1 0x1 PUSH1 0x2 DUP9 MUL ADD DUP9 SSTORE POP POP POP JUMPDEST POP POP POP POP POP POP JUMP JUMPDEST PUSH0 DUP2 SLOAD SWAP1 POP PUSH2 0x2EEB DUP2 PUSH2 0x2BFA JUMP JUMPDEST SWAP1 POP SWAP2 SWAP1 POP JUMP JUMPDEST DUP2 DUP2 SUB PUSH2 0x2F00 JUMPI POP POP PUSH2 0x2FD5 JUMP JUMPDEST PUSH2 0x2F09 DUP3 PUSH2 0x2EDD JUMP JUMPDEST PUSH8 0xFFFFFFFFFFFFFFFF DUP2 GT ISZERO PUSH2 0x2F22 JUMPI PUSH2 0x2F21 PUSH2 0x2685 JUMP JUMPDEST JUMPDEST PUSH2 0x2F2C DUP3 SLOAD PUSH2 0x2BFA JUMP JUMPDEST PUSH2 0x2F37 DUP3 DUP3 DUP6 PUSH2 0x2D85 JUMP JUMPDEST PUSH0 PUSH1 0x1F DUP4 GT PUSH1 0x1 DUP2 EQ PUSH2 0x2F64 JUMPI PUSH0 DUP5 ISZERO PUSH2 0x2F52 JUMPI DUP3 DUP8 ADD SLOAD SWAP1 POP JUMPDEST PUSH2 0x2F5C DUP6 DUP3 PUSH2 0x2DF3 JUMP JUMPDEST DUP7 SSTORE POP PUSH2 0x2FCE JUMP JUMPDEST PUSH1 0x1F NOT DUP5 AND PUSH2 0x2F72 DUP8 PUSH2 0x2C71 JUMP JUMPDEST SWAP7 POP PUSH2 0x2F7D DUP7 PUSH2 0x2C71 JUMP JUMPDEST PUSH0 JUMPDEST DUP3 DUP2 LT ISZERO PUSH2 0x2FA4 JUMPI DUP5 DUP10 ADD SLOAD DUP3 SSTORE PUSH1 0x1 DUP3 ADD SWAP2 POP PUSH1 0x1 DUP6 ADD SWAP5 POP PUSH1 0x20 DUP2 ADD SWAP1 POP PUSH2 0x2F7F JUMP JUMPDEST DUP7 DUP4 LT ISZERO PUSH2 0x2FC1 JUMPI DUP5 DUP10 ADD SLOAD PUSH2 0x2FBD PUSH1 0x1F DUP10 AND DUP3 PUSH2 0x2DD7 JUMP JUMPDEST DUP4 SSTORE POP JUMPDEST PUSH1 0x1 PUSH1 0x2 DUP9 MUL ADD DUP9 SSTORE POP POP POP JUMPDEST POP POP POP POP POP POP JUMPDEST JUMP JUMPDEST PUSH0 DUP2 SWAP1 POP SWAP2 SWAP1 POP JUMP JUMPDEST PUSH0 PUSH2 0x2FFA PUSH2 0x2FF5 PUSH2 0x2FF0 DUP5 PUSH2 0x2FD7 JUMP JUMPDEST PUSH2 0x2CEF JUMP JUMPDEST PUSH2 0x21E8 JUMP JUMPDEST SWAP1 POP SWAP2 SWAP1 POP JUMP JUMPDEST PUSH2 0x300A DUP2 PUSH2 0x2FE0 JUMP JUMPDEST DUP3 MSTORE POP POP JUMP JUMPDEST PUSH0 PUSH1 0xE0 DUP3 ADD SWAP1 POP PUSH2 0x3023 PUSH0 DUP4 ADD DUP11 PUSH2 0x2246 JUMP JUMPDEST DUP2 DUP2 SUB PUSH1 0x20 DUP4 ADD MSTORE PUSH2 0x3035 DUP2 DUP10 PUSH2 0x228D JUMP JUMPDEST SWAP1 POP DUP2 DUP2 SUB PUSH1 0x40 DUP4 ADD MSTORE PUSH2 0x3049 DUP2 DUP9 PUSH2 0x228D JUMP JUMPDEST SWAP1 POP PUSH2 0x3058 PUSH1 0x60 DUP4 ADD DUP8 PUSH2 0x3001 JUMP JUMPDEST DUP2 DUP2 SUB PUSH1 0x80 DUP4 ADD MSTORE PUSH2 0x306A DUP2 DUP7 PUSH2 0x228D JUMP JUMPDEST SWAP1 POP PUSH2 0x3079 PUSH1 0xA0 DUP4 ADD DUP6 PUSH2 0x2246 JUMP JUMPDEST PUSH2 0x3086 PUSH1 0xC0 DUP4 ADD DUP5 PUSH2 0x22F5 JUMP JUMPDEST SWAP9 SWAP8 POP POP POP POP POP POP POP POP JUMP JUMPDEST PUSH0 PUSH2 0x309C DUP3 PUSH2 0x21E8 JUMP JUMPDEST SWAP2 POP PUSH32 0xFFFFFFFFFFFFFFFFFFFFFFFFFFFFFFFFFFFFFFFFFFFFFFFFFFFFFFFFFFFFFFFF DUP3 SUB PUSH2 0x30CE JUMPI PUSH2 0x30CD PUSH2 0x2B6D JUMP JUMPDEST JUMPDEST PUSH1 0x1 DUP3 ADD SWAP1 POP SWAP2 SWAP1 POP JUMP INVALID LOG2 PUSH5 0x6970667358 0x22 SLT KECCAK256 0xCF SUB CALLVALUE PUSH12 0x84B123593407D648F45BCA95 0xAF CALLCODE 0x2D OR 0xF PUSH6 0x37AACBF979F5 MCOPY SUB 0xCB SWAP9 PUSH5 0x736F6C6343 STOP ADDMOD BYTE STOP CALLER "
				},
				"gasEstimates": {
					"creation": {
						"codeDepositCost": "2511800",
						"executionCost": "infinite",
						"totalCost": "infinite"
					},
					"external": {
						"createProposal(string,string,string,uint256)": "infinite",
						"gerAllProposal()": "infinite",
						"getMyProposal(address)": "infinite",
						"getProposal(uint256)": "infinite",
						"hasvoted(address)": "2900",
						"myProposal(address,uint256)": "infinite",
						"owner()": "2515",
						"proposalList(uint256)": "infinite",
						"proposals(uint256)": "infinite",
						"renounceOwnership()": "infinite",
						"transferOwnership(address)": "infinite",
						"vote(uint256)": "infinite"
					}
				},
				"methodIdentifiers": {
					"createProposal(string,string,string,uint256)": "4c15676b",
					"gerAllProposal()": "f30282a1",
					"getMyProposal(address)": "159428d1",
					"getProposal(uint256)": "c7f758a8",
					"hasvoted(address)": "2b499cab",
					"myProposal(address,uint256)": "be07d1d9",
					"owner()": "8da5cb5b",
					"proposalList(uint256)": "c6311e3f",
					"proposals(uint256)": "013cf08b",
					"renounceOwnership()": "715018a6",
					"transferOwnership(address)": "f2fde38b",
					"vote(uint256)": "0121b93f"
				}
			},
			"storageLayout": {
				"storage": [
					{
						"astId": 8,
						"contract": "contracts/Petisi.sol:Petisi",
						"label": "_owner",
						"offset": 0,
						"slot": "0",
						"type": "t_address"
					},
					{
						"astId": 229,
						"contract": "contracts/Petisi.sol:Petisi",
						"label": "profileContract",
						"offset": 0,
						"slot": "1",
						"type": "t_contract(IProfile)220"
					},
					{
						"astId": 269,
						"contract": "contracts/Petisi.sol:Petisi",
						"label": "counterProposal",
						"offset": 0,
						"slot": "2",
						"type": "t_uint256"
					},
					{
						"astId": 295,
						"contract": "contracts/Petisi.sol:Petisi",
						"label": "myProposal",
						"offset": 0,
						"slot": "3",
						"type": "t_mapping(t_address,t_array(t_struct(Proposal)266_storage)dyn_storage)"
					},
					{
						"astId": 300,
						"contract": "contracts/Petisi.sol:Petisi",
						"label": "proposals",
						"offset": 0,
						"slot": "4",
						"type": "t_mapping(t_uint256,t_struct(Proposal)266_storage)"
					},
					{
						"astId": 304,
						"contract": "contracts/Petisi.sol:Petisi",
						"label": "hasvoted",
						"offset": 0,
						"slot": "5",
						"type": "t_mapping(t_address,t_bool)"
					},
					{
						"astId": 308,
						"contract": "contracts/Petisi.sol:Petisi",
						"label": "proposalList",
						"offset": 0,
						"slot": "6",
						"type": "t_array(t_struct(Proposal)266_storage)dyn_storage"
					}
				],
				"types": {
					"t_address": {
						"encoding": "inplace",
						"label": "address",
						"numberOfBytes": "20"
					},
					"t_array(t_struct(Proposal)266_storage)dyn_storage": {
						"base": "t_struct(Proposal)266_storage",
						"encoding": "dynamic_array",
						"label": "struct Petisi.Proposal[]",
						"numberOfBytes": "32"
					},
					"t_bool": {
						"encoding": "inplace",
						"label": "bool",
						"numberOfBytes": "1"
					},
					"t_contract(IProfile)220": {
						"encoding": "inplace",
						"label": "contract IProfile",
						"numberOfBytes": "20"
					},
					"t_mapping(t_address,t_array(t_struct(Proposal)266_storage)dyn_storage)": {
						"encoding": "mapping",
						"key": "t_address",
						"label": "mapping(address => struct Petisi.Proposal[])",
						"numberOfBytes": "32",
						"value": "t_array(t_struct(Proposal)266_storage)dyn_storage"
					},
					"t_mapping(t_address,t_bool)": {
						"encoding": "mapping",
						"key": "t_address",
						"label": "mapping(address => bool)",
						"numberOfBytes": "32",
						"value": "t_bool"
					},
					"t_mapping(t_uint256,t_struct(Proposal)266_storage)": {
						"encoding": "mapping",
						"key": "t_uint256",
						"label": "mapping(uint256 => struct Petisi.Proposal)",
						"numberOfBytes": "32",
						"value": "t_struct(Proposal)266_storage"
					},
					"t_string_storage": {
						"encoding": "bytes",
						"label": "string",
						"numberOfBytes": "32"
					},
					"t_struct(Proposal)266_storage": {
						"encoding": "inplace",
						"label": "struct Petisi.Proposal",
						"members": [
							{
								"astId": 247,
								"contract": "contracts/Petisi.sol:Petisi",
								"label": "id",
								"offset": 0,
								"slot": "0",
								"type": "t_uint256"
							},
							{
								"astId": 249,
								"contract": "contracts/Petisi.sol:Petisi",
								"label": "title",
								"offset": 0,
								"slot": "1",
								"type": "t_string_storage"
							},
							{
								"astId": 251,
								"contract": "contracts/Petisi.sol:Petisi",
								"label": "description",
								"offset": 0,
								"slot": "2",
								"type": "t_string_storage"
							},
							{
								"astId": 253,
								"contract": "contracts/Petisi.sol:Petisi",
								"label": "votes",
								"offset": 0,
								"slot": "3",
								"type": "t_uint256"
							},
							{
								"astId": 255,
								"contract": "contracts/Petisi.sol:Petisi",
								"label": "imgUrl",
								"offset": 0,
								"slot": "4",
								"type": "t_string_storage"
							},
							{
								"astId": 257,
								"contract": "contracts/Petisi.sol:Petisi",
								"label": "deadline",
								"offset": 0,
								"slot": "5",
								"type": "t_uint256"
							},
							{
								"astId": 259,
								"contract": "contracts/Petisi.sol:Petisi",
								"label": "author",
								"offset": 0,
								"slot": "6",
								"type": "t_address"
							},
							{
								"astId": 261,
								"contract": "contracts/Petisi.sol:Petisi",
								"label": "usernameAuthor",
								"offset": 0,
								"slot": "7",
								"type": "t_string_storage"
							},
							{
								"astId": 263,
								"contract": "contracts/Petisi.sol:Petisi",
								"label": "imgAuthore",
								"offset": 0,
								"slot": "8",
								"type": "t_string_storage"
							},
							{
								"astId": 265,
								"contract": "contracts/Petisi.sol:Petisi",
								"label": "created",
								"offset": 0,
								"slot": "9",
								"type": "t_uint256"
							}
						],
						"numberOfBytes": "320"
					},
					"t_uint256": {
						"encoding": "inplace",
						"label": "uint256",
						"numberOfBytes": "32"
					}
				}
			},
			"userdoc": {
				"kind": "user",
				"methods": {},
				"version": 1
			}
		}
	}
}