{
	"contracts/VotingProfile.sol": {
		"VotingProfile": {
			"abi": [
				{
					"inputs": [
						{
							"internalType": "address",
							"name": "_user",
							"type": "address"
						}
					],
					"name": "getProfile",
					"outputs": [
						{
							"components": [
								{
									"internalType": "string",
									"name": "username",
									"type": "string"
								},
								{
									"internalType": "string",
									"name": "bio",
									"type": "string"
								},
								{
									"internalType": "string",
									"name": "imgUrl",
									"type": "string"
								},
								{
									"internalType": "bool",
									"name": "isRegistered",
									"type": "bool"
								}
							],
							"internalType": "struct VotingProfile.UserProfile",
							"name": "",
							"type": "tuple"
						}
					],
					"stateMutability": "view",
					"type": "function"
				},
				{
					"inputs": [
						{
							"internalType": "address",
							"name": "",
							"type": "address"
						}
					],
					"name": "profile",
					"outputs": [
						{
							"internalType": "string",
							"name": "username",
							"type": "string"
						},
						{
							"internalType": "string",
							"name": "bio",
							"type": "string"
						},
						{
							"internalType": "string",
							"name": "imgUrl",
							"type": "string"
						},
						{
							"internalType": "bool",
							"name": "isRegistered",
							"type": "bool"
						}
					],
					"stateMutability": "view",
					"type": "function"
				},
				{
					"inputs": [
						{
							"internalType": "string",
							"name": "_username",
							"type": "string"
						},
						{
							"internalType": "string",
							"name": "_bio",
							"type": "string"
						},
						{
							"internalType": "string",
							"name": "_imgUrl",
							"type": "string"
						}
					],
					"name": "setProfile",
					"outputs": [],
					"stateMutability": "nonpayable",
					"type": "function"
				}
			],
			"devdoc": {
				"kind": "dev",
				"methods": {},
				"version": 1
			},
			"evm": {
				"assembly": "    /* \"contracts/VotingProfile.sol\":58:564  contract VotingProfile {... */\n  mstore(0x40, 0x80)\n  callvalue\n  dup1\n  iszero\n  tag_1\n  jumpi\n  0x00\n  dup1\n  revert\ntag_1:\n  pop\n  dataSize(sub_0)\n  dup1\n  dataOffset(sub_0)\n  0x00\n  codecopy\n  0x00\n  return\nstop\n\nsub_0: assembly {\n        /* \"contracts/VotingProfile.sol\":58:564  contract VotingProfile {... */\n      mstore(0x40, 0x80)\n      callvalue\n      dup1\n      iszero\n      tag_1\n      jumpi\n      0x00\n      dup1\n      revert\n    tag_1:\n      pop\n      jumpi(tag_2, lt(calldatasize, 0x04))\n      shr(0xe0, calldataload(0x00))\n      dup1\n      0x0f53a470\n      eq\n      tag_3\n      jumpi\n      dup1\n      0x52640314\n      eq\n      tag_4\n      jumpi\n      dup1\n      0x9dd9d0fd\n      eq\n      tag_5\n      jumpi\n    tag_2:\n      0x00\n      dup1\n      revert\n        /* \"contracts/VotingProfile.sol\":449:562  function getProfile(address _user) public view returns(UserProfile memory){... */\n    tag_3:\n      tag_6\n      0x04\n      dup1\n      calldatasize\n      sub\n      dup2\n      add\n      swap1\n      tag_7\n      swap2\n      swap1\n      tag_8\n      jump\t// in\n    tag_7:\n      tag_9\n      jump\t// in\n    tag_6:\n      mload(0x40)\n      tag_10\n      swap2\n      swap1\n      tag_11\n      jump\t// in\n    tag_10:\n      mload(0x40)\n      dup1\n      swap2\n      sub\n      swap1\n      return\n        /* \"contracts/VotingProfile.sol\":266:443  function setProfile(string memory _username, string memory _bio, string memory _imgUrl) public {... */\n    tag_4:\n      tag_12\n      0x04\n      dup1\n      calldatasize\n      sub\n      dup2\n      add\n      swap1\n      tag_13\n      swap2\n      swap1\n      tag_14\n      jump\t// in\n    tag_13:\n      tag_15\n      jump\t// in\n    tag_12:\n      stop\n        /* \"contracts/VotingProfile.sol\":213:259  mapping(address => UserProfile) public profile */\n    tag_5:\n      tag_16\n      0x04\n      dup1\n      calldatasize\n      sub\n      dup2\n      add\n      swap1\n      tag_17\n      swap2\n      swap1\n      tag_8\n      jump\t// in\n    tag_17:\n      tag_18\n      jump\t// in\n    tag_16:\n      mload(0x40)\n      tag_19\n      swap5\n      swap4\n      swap3\n      swap2\n      swap1\n      tag_20\n      jump\t// in\n    tag_19:\n      mload(0x40)\n      dup1\n      swap2\n      sub\n      swap1\n      return\n        /* \"contracts/VotingProfile.sol\":449:562  function getProfile(address _user) public view returns(UserProfile memory){... */\n    tag_9:\n        /* \"contracts/VotingProfile.sol\":504:522  UserProfile memory */\n      tag_21\n      tag_22\n      jump\t// in\n    tag_21:\n        /* \"contracts/VotingProfile.sol\":541:548  profile */\n      0x00\n        /* \"contracts/VotingProfile.sol\":541:555  profile[_user] */\n      dup1\n        /* \"contracts/VotingProfile.sol\":549:554  _user */\n      dup4\n        /* \"contracts/VotingProfile.sol\":541:555  profile[_user] */\n      0xffffffffffffffffffffffffffffffffffffffff\n      and\n      0xffffffffffffffffffffffffffffffffffffffff\n      and\n      dup2\n      mstore\n      0x20\n      add\n      swap1\n      dup2\n      mstore\n      0x20\n      add\n      0x00\n      keccak256\n        /* \"contracts/VotingProfile.sol\":533:555  return  profile[_user] */\n      mload(0x40)\n      dup1\n      0x80\n      add\n      0x40\n      mstore\n      swap1\n      dup2\n      0x00\n      dup3\n      add\n      dup1\n      sload\n      tag_24\n      swap1\n      tag_25\n      jump\t// in\n    tag_24:\n      dup1\n      0x1f\n      add\n      0x20\n      dup1\n      swap2\n      div\n      mul\n      0x20\n      add\n      mload(0x40)\n      swap1\n      dup2\n      add\n      0x40\n      mstore\n      dup1\n      swap3\n      swap2\n      swap1\n      dup2\n      dup2\n      mstore\n      0x20\n      add\n      dup3\n      dup1\n      sload\n      tag_26\n      swap1\n      tag_25\n      jump\t// in\n    tag_26:\n      dup1\n      iszero\n      tag_27\n      jumpi\n      dup1\n      0x1f\n      lt\n      tag_28\n      jumpi\n      0x0100\n      dup1\n      dup4\n      sload\n      div\n      mul\n      dup4\n      mstore\n      swap2\n      0x20\n      add\n      swap2\n      jump(tag_27)\n    tag_28:\n      dup3\n      add\n      swap2\n      swap1\n      0x00\n      mstore\n      keccak256(0x00, 0x20)\n      swap1\n    tag_29:\n      dup2\n      sload\n      dup2\n      mstore\n      swap1\n      0x01\n      add\n      swap1\n      0x20\n      add\n      dup1\n      dup4\n      gt\n      tag_29\n      jumpi\n      dup3\n      swap1\n      sub\n      0x1f\n      and\n      dup3\n      add\n      swap2\n    tag_27:\n      pop\n      pop\n      pop\n      pop\n      pop\n      dup2\n      mstore\n      0x20\n      add\n      0x01\n      dup3\n      add\n      dup1\n      sload\n      tag_30\n      swap1\n      tag_25\n      jump\t// in\n    tag_30:\n      dup1\n      0x1f\n      add\n      0x20\n      dup1\n      swap2\n      div\n      mul\n      0x20\n      add\n      mload(0x40)\n      swap1\n      dup2\n      add\n      0x40\n      mstore\n      dup1\n      swap3\n      swap2\n      swap1\n      dup2\n      dup2\n      mstore\n      0x20\n      add\n      dup3\n      dup1\n      sload\n      tag_31\n      swap1\n      tag_25\n      jump\t// in\n    tag_31:\n      dup1\n      iszero\n      tag_32\n      jumpi\n      dup1\n      0x1f\n      lt\n      tag_33\n      jumpi\n      0x0100\n      dup1\n      dup4\n      sload\n      div\n      mul\n      dup4\n      mstore\n      swap2\n      0x20\n      add\n      swap2\n      jump(tag_32)\n    tag_33:\n      dup3\n      add\n      swap2\n      swap1\n      0x00\n      mstore\n      keccak256(0x00, 0x20)\n      swap1\n    tag_34:\n      dup2\n      sload\n      dup2\n      mstore\n      swap1\n      0x01\n      add\n      swap1\n      0x20\n      add\n      dup1\n      dup4\n      gt\n      tag_34\n      jumpi\n      dup3\n      swap1\n      sub\n      0x1f\n      and\n      dup3\n      add\n      swap2\n    tag_32:\n      pop\n      pop\n      pop\n      pop\n      pop\n      dup2\n      mstore\n      0x20\n      add\n      0x02\n      dup3\n      add\n      dup1\n      sload\n      tag_35\n      swap1\n      tag_25\n      jump\t// in\n    tag_35:\n      dup1\n      0x1f\n      add\n      0x20\n      dup1\n      swap2\n      div\n      mul\n      0x20\n      add\n      mload(0x40)\n      swap1\n      dup2\n      add\n      0x40\n      mstore\n      dup1\n      swap3\n      swap2\n      swap1\n      dup2\n      dup2\n      mstore\n      0x20\n      add\n      dup3\n      dup1\n      sload\n      tag_36\n      swap1\n      tag_25\n      jump\t// in\n    tag_36:\n      dup1\n      iszero\n      tag_37\n      jumpi\n      dup1\n      0x1f\n      lt\n      tag_38\n      jumpi\n      0x0100\n      dup1\n      dup4\n      sload\n      div\n      mul\n      dup4\n      mstore\n      swap2\n      0x20\n      add\n      swap2\n      jump(tag_37)\n    tag_38:\n      dup3\n      add\n      swap2\n      swap1\n      0x00\n      mstore\n      keccak256(0x00, 0x20)\n      swap1\n    tag_39:\n      dup2\n      sload\n      dup2\n      mstore\n      swap1\n      0x01\n      add\n      swap1\n      0x20\n      add\n      dup1\n      dup4\n      gt\n      tag_39\n      jumpi\n      dup3\n      swap1\n      sub\n      0x1f\n      and\n      dup3\n      add\n      swap2\n    tag_37:\n      pop\n      pop\n      pop\n      pop\n      pop\n      dup2\n      mstore\n      0x20\n      add\n      0x03\n      dup3\n      add\n      0x00\n      swap1\n      sload\n      swap1\n      0x0100\n      exp\n      swap1\n      div\n      0xff\n      and\n      iszero\n      iszero\n      iszero\n      iszero\n      dup2\n      mstore\n      pop\n      pop\n      swap1\n      pop\n        /* \"contracts/VotingProfile.sol\":449:562  function getProfile(address _user) public view returns(UserProfile memory){... */\n      swap2\n      swap1\n      pop\n      jump\t// out\n        /* \"contracts/VotingProfile.sol\":266:443  function setProfile(string memory _username, string memory _bio, string memory _imgUrl) public {... */\n    tag_15:\n        /* \"contracts/VotingProfile.sol\":393:436  UserProfile(_username, _bio, _imgUrl, true) */\n      mload(0x40)\n      dup1\n      0x80\n      add\n      0x40\n      mstore\n      dup1\n        /* \"contracts/VotingProfile.sol\":405:414  _username */\n      dup5\n        /* \"contracts/VotingProfile.sol\":393:436  UserProfile(_username, _bio, _imgUrl, true) */\n      dup2\n      mstore\n      0x20\n      add\n        /* \"contracts/VotingProfile.sol\":416:420  _bio */\n      dup4\n        /* \"contracts/VotingProfile.sol\":393:436  UserProfile(_username, _bio, _imgUrl, true) */\n      dup2\n      mstore\n      0x20\n      add\n        /* \"contracts/VotingProfile.sol\":422:429  _imgUrl */\n      dup3\n        /* \"contracts/VotingProfile.sol\":393:436  UserProfile(_username, _bio, _imgUrl, true) */\n      dup2\n      mstore\n      0x20\n      add\n        /* \"contracts/VotingProfile.sol\":431:435  true */\n      0x01\n        /* \"contracts/VotingProfile.sol\":393:436  UserProfile(_username, _bio, _imgUrl, true) */\n      iszero\n      iszero\n      dup2\n      mstore\n      pop\n        /* \"contracts/VotingProfile.sol\":371:378  profile */\n      0x00\n        /* \"contracts/VotingProfile.sol\":371:390  profile[msg.sender] */\n      dup1\n        /* \"contracts/VotingProfile.sol\":379:389  msg.sender */\n      caller\n        /* \"contracts/VotingProfile.sol\":371:390  profile[msg.sender] */\n      0xffffffffffffffffffffffffffffffffffffffff\n      and\n      0xffffffffffffffffffffffffffffffffffffffff\n      and\n      dup2\n      mstore\n      0x20\n      add\n      swap1\n      dup2\n      mstore\n      0x20\n      add\n      0x00\n      keccak256\n        /* \"contracts/VotingProfile.sol\":371:436  profile[msg.sender] = UserProfile(_username, _bio, _imgUrl, true) */\n      0x00\n      dup3\n      add\n      mload\n      dup2\n      0x00\n      add\n      swap1\n      dup2\n      tag_41\n      swap2\n      swap1\n      tag_42\n      jump\t// in\n    tag_41:\n      pop\n      0x20\n      dup3\n      add\n      mload\n      dup2\n      0x01\n      add\n      swap1\n      dup2\n      tag_43\n      swap2\n      swap1\n      tag_42\n      jump\t// in\n    tag_43:\n      pop\n      0x40\n      dup3\n      add\n      mload\n      dup2\n      0x02\n      add\n      swap1\n      dup2\n      tag_44\n      swap2\n      swap1\n      tag_42\n      jump\t// in\n    tag_44:\n      pop\n      0x60\n      dup3\n      add\n      mload\n      dup2\n      0x03\n      add\n      exp(0x0100, 0x00)\n      dup2\n      sload\n      dup2\n      0xff\n      mul\n      not\n      and\n      swap1\n      dup4\n      iszero\n      iszero\n      mul\n      or\n      swap1\n      sstore\n      pop\n      swap1\n      pop\n      pop\n        /* \"contracts/VotingProfile.sol\":266:443  function setProfile(string memory _username, string memory _bio, string memory _imgUrl) public {... */\n      pop\n      pop\n      pop\n      jump\t// out\n        /* \"contracts/VotingProfile.sol\":213:259  mapping(address => UserProfile) public profile */\n    tag_18:\n      mstore(0x20, 0x00)\n      dup1\n      0x00\n      mstore\n      keccak256(0x00, 0x40)\n      0x00\n      swap2\n      pop\n      swap1\n      pop\n      dup1\n      0x00\n      add\n      dup1\n      sload\n      tag_45\n      swap1\n      tag_25\n      jump\t// in\n    tag_45:\n      dup1\n      0x1f\n      add\n      0x20\n      dup1\n      swap2\n      div\n      mul\n      0x20\n      add\n      mload(0x40)\n      swap1\n      dup2\n      add\n      0x40\n      mstore\n      dup1\n      swap3\n      swap2\n      swap1\n      dup2\n      dup2\n      mstore\n      0x20\n      add\n      dup3\n      dup1\n      sload\n      tag_46\n      swap1\n      tag_25\n      jump\t// in\n    tag_46:\n      dup1\n      iszero\n      tag_47\n      jumpi\n      dup1\n      0x1f\n      lt\n      tag_48\n      jumpi\n      0x0100\n      dup1\n      dup4\n      sload\n      div\n      mul\n      dup4\n      mstore\n      swap2\n      0x20\n      add\n      swap2\n      jump(tag_47)\n    tag_48:\n      dup3\n      add\n      swap2\n      swap1\n      0x00\n      mstore\n      keccak256(0x00, 0x20)\n      swap1\n    tag_49:\n      dup2\n      sload\n      dup2\n      mstore\n      swap1\n      0x01\n      add\n      swap1\n      0x20\n      add\n      dup1\n      dup4\n      gt\n      tag_49\n      jumpi\n      dup3\n      swap1\n      sub\n      0x1f\n      and\n      dup3\n      add\n      swap2\n    tag_47:\n      pop\n      pop\n      pop\n      pop\n      pop\n      swap1\n      dup1\n      0x01\n      add\n      dup1\n      sload\n      tag_50\n      swap1\n      tag_25\n      jump\t// in\n    tag_50:\n      dup1\n      0x1f\n      add\n      0x20\n      dup1\n      swap2\n      div\n      mul\n      0x20\n      add\n      mload(0x40)\n      swap1\n      dup2\n      add\n      0x40\n      mstore\n      dup1\n      swap3\n      swap2\n      swap1\n      dup2\n      dup2\n      mstore\n      0x20\n      add\n      dup3\n      dup1\n      sload\n      tag_51\n      swap1\n      tag_25\n      jump\t// in\n    tag_51:\n      dup1\n      iszero\n      tag_52\n      jumpi\n      dup1\n      0x1f\n      lt\n      tag_53\n      jumpi\n      0x0100\n      dup1\n      dup4\n      sload\n      div\n      mul\n      dup4\n      mstore\n      swap2\n      0x20\n      add\n      swap2\n      jump(tag_52)\n    tag_53:\n      dup3\n      add\n      swap2\n      swap1\n      0x00\n      mstore\n      keccak256(0x00, 0x20)\n      swap1\n    tag_54:\n      dup2\n      sload\n      dup2\n      mstore\n      swap1\n      0x01\n      add\n      swap1\n      0x20\n      add\n      dup1\n      dup4\n      gt\n      tag_54\n      jumpi\n      dup3\n      swap1\n      sub\n      0x1f\n      and\n      dup3\n      add\n      swap2\n    tag_52:\n      pop\n      pop\n      pop\n      pop\n      pop\n      swap1\n      dup1\n      0x02\n      add\n      dup1\n      sload\n      tag_55\n      swap1\n      tag_25\n      jump\t// in\n    tag_55:\n      dup1\n      0x1f\n      add\n      0x20\n      dup1\n      swap2\n      div\n      mul\n      0x20\n      add\n      mload(0x40)\n      swap1\n      dup2\n      add\n      0x40\n      mstore\n      dup1\n      swap3\n      swap2\n      swap1\n      dup2\n      dup2\n      mstore\n      0x20\n      add\n      dup3\n      dup1\n      sload\n      tag_56\n      swap1\n      tag_25\n      jump\t// in\n    tag_56:\n      dup1\n      iszero\n      tag_57\n      jumpi\n      dup1\n      0x1f\n      lt\n      tag_58\n      jumpi\n      0x0100\n      dup1\n      dup4\n      sload\n      div\n      mul\n      dup4\n      mstore\n      swap2\n      0x20\n      add\n      swap2\n      jump(tag_57)\n    tag_58:\n      dup3\n      add\n      swap2\n      swap1\n      0x00\n      mstore\n      keccak256(0x00, 0x20)\n      swap1\n    tag_59:\n      dup2\n      sload\n      dup2\n      mstore\n      swap1\n      0x01\n      add\n      swap1\n      0x20\n      add\n      dup1\n      dup4\n      gt\n      tag_59\n      jumpi\n      dup3\n      swap1\n      sub\n      0x1f\n      and\n      dup3\n      add\n      swap2\n    tag_57:\n      pop\n      pop\n      pop\n      pop\n      pop\n      swap1\n      dup1\n      0x03\n      add\n      0x00\n      swap1\n      sload\n      swap1\n      0x0100\n      exp\n      swap1\n      div\n      0xff\n      and\n      swap1\n      pop\n      dup5\n      jump\t// out\n    tag_22:\n      mload(0x40)\n      dup1\n      0x80\n      add\n      0x40\n      mstore\n      dup1\n      0x60\n      dup2\n      mstore\n      0x20\n      add\n      0x60\n      dup2\n      mstore\n      0x20\n      add\n      0x60\n      dup2\n      mstore\n      0x20\n      add\n      iszero(iszero(0x00))\n      dup2\n      mstore\n      pop\n      swap1\n      jump\t// out\n        /* \"#utility.yul\":7:82   */\n    tag_60:\n        /* \"#utility.yul\":40:46   */\n      0x00\n        /* \"#utility.yul\":73:75   */\n      0x40\n        /* \"#utility.yul\":67:76   */\n      mload\n        /* \"#utility.yul\":57:76   */\n      swap1\n      pop\n        /* \"#utility.yul\":7:82   */\n      swap1\n      jump\t// out\n        /* \"#utility.yul\":88:205   */\n    tag_61:\n        /* \"#utility.yul\":197:198   */\n      0x00\n        /* \"#utility.yul\":194:195   */\n      dup1\n        /* \"#utility.yul\":187:199   */\n      revert\n        /* \"#utility.yul\":211:328   */\n    tag_62:\n        /* \"#utility.yul\":320:321   */\n      0x00\n        /* \"#utility.yul\":317:318   */\n      dup1\n        /* \"#utility.yul\":310:322   */\n      revert\n        /* \"#utility.yul\":334:460   */\n    tag_63:\n        /* \"#utility.yul\":371:378   */\n      0x00\n        /* \"#utility.yul\":411:453   */\n      0xffffffffffffffffffffffffffffffffffffffff\n        /* \"#utility.yul\":404:409   */\n      dup3\n        /* \"#utility.yul\":400:454   */\n      and\n        /* \"#utility.yul\":389:454   */\n      swap1\n      pop\n        /* \"#utility.yul\":334:460   */\n      swap2\n      swap1\n      pop\n      jump\t// out\n        /* \"#utility.yul\":466:562   */\n    tag_64:\n        /* \"#utility.yul\":503:510   */\n      0x00\n        /* \"#utility.yul\":532:556   */\n      tag_110\n        /* \"#utility.yul\":550:555   */\n      dup3\n        /* \"#utility.yul\":532:556   */\n      tag_63\n      jump\t// in\n    tag_110:\n        /* \"#utility.yul\":521:556   */\n      swap1\n      pop\n        /* \"#utility.yul\":466:562   */\n      swap2\n      swap1\n      pop\n      jump\t// out\n        /* \"#utility.yul\":568:690   */\n    tag_65:\n        /* \"#utility.yul\":641:665   */\n      tag_112\n        /* \"#utility.yul\":659:664   */\n      dup2\n        /* \"#utility.yul\":641:665   */\n      tag_64\n      jump\t// in\n    tag_112:\n        /* \"#utility.yul\":634:639   */\n      dup2\n        /* \"#utility.yul\":631:666   */\n      eq\n        /* \"#utility.yul\":621:684   */\n      tag_113\n      jumpi\n        /* \"#utility.yul\":680:681   */\n      0x00\n        /* \"#utility.yul\":677:678   */\n      dup1\n        /* \"#utility.yul\":670:682   */\n      revert\n        /* \"#utility.yul\":621:684   */\n    tag_113:\n        /* \"#utility.yul\":568:690   */\n      pop\n      jump\t// out\n        /* \"#utility.yul\":696:835   */\n    tag_66:\n        /* \"#utility.yul\":742:747   */\n      0x00\n        /* \"#utility.yul\":780:786   */\n      dup2\n        /* \"#utility.yul\":767:787   */\n      calldataload\n        /* \"#utility.yul\":758:787   */\n      swap1\n      pop\n        /* \"#utility.yul\":796:829   */\n      tag_115\n        /* \"#utility.yul\":823:828   */\n      dup2\n        /* \"#utility.yul\":796:829   */\n      tag_65\n      jump\t// in\n    tag_115:\n        /* \"#utility.yul\":696:835   */\n      swap3\n      swap2\n      pop\n      pop\n      jump\t// out\n        /* \"#utility.yul\":841:1170   */\n    tag_8:\n        /* \"#utility.yul\":900:906   */\n      0x00\n        /* \"#utility.yul\":949:951   */\n      0x20\n        /* \"#utility.yul\":937:946   */\n      dup3\n        /* \"#utility.yul\":928:935   */\n      dup5\n        /* \"#utility.yul\":924:947   */\n      sub\n        /* \"#utility.yul\":920:952   */\n      slt\n        /* \"#utility.yul\":917:1036   */\n      iszero\n      tag_117\n      jumpi\n        /* \"#utility.yul\":955:1034   */\n      tag_118\n      tag_61\n      jump\t// in\n    tag_118:\n        /* \"#utility.yul\":917:1036   */\n    tag_117:\n        /* \"#utility.yul\":1075:1076   */\n      0x00\n        /* \"#utility.yul\":1100:1153   */\n      tag_119\n        /* \"#utility.yul\":1145:1152   */\n      dup5\n        /* \"#utility.yul\":1136:1142   */\n      dup3\n        /* \"#utility.yul\":1125:1134   */\n      dup6\n        /* \"#utility.yul\":1121:1143   */\n      add\n        /* \"#utility.yul\":1100:1153   */\n      tag_66\n      jump\t// in\n    tag_119:\n        /* \"#utility.yul\":1090:1153   */\n      swap2\n      pop\n        /* \"#utility.yul\":1046:1163   */\n      pop\n        /* \"#utility.yul\":841:1170   */\n      swap3\n      swap2\n      pop\n      pop\n      jump\t// out\n        /* \"#utility.yul\":1176:1275   */\n    tag_67:\n        /* \"#utility.yul\":1228:1234   */\n      0x00\n        /* \"#utility.yul\":1262:1267   */\n      dup2\n        /* \"#utility.yul\":1256:1268   */\n      mload\n        /* \"#utility.yul\":1246:1268   */\n      swap1\n      pop\n        /* \"#utility.yul\":1176:1275   */\n      swap2\n      swap1\n      pop\n      jump\t// out\n        /* \"#utility.yul\":1281:1440   */\n    tag_68:\n        /* \"#utility.yul\":1355:1366   */\n      0x00\n        /* \"#utility.yul\":1389:1395   */\n      dup3\n        /* \"#utility.yul\":1384:1387   */\n      dup3\n        /* \"#utility.yul\":1377:1396   */\n      mstore\n        /* \"#utility.yul\":1429:1433   */\n      0x20\n        /* \"#utility.yul\":1424:1427   */\n      dup3\n        /* \"#utility.yul\":1420:1434   */\n      add\n        /* \"#utility.yul\":1405:1434   */\n      swap1\n      pop\n        /* \"#utility.yul\":1281:1440   */\n      swap3\n      swap2\n      pop\n      pop\n      jump\t// out\n        /* \"#utility.yul\":1446:1585   */\n    tag_69:\n        /* \"#utility.yul\":1535:1541   */\n      dup3\n        /* \"#utility.yul\":1530:1533   */\n      dup2\n        /* \"#utility.yul\":1525:1528   */\n      dup4\n        /* \"#utility.yul\":1519:1542   */\n      mcopy\n        /* \"#utility.yul\":1576:1577   */\n      0x00\n        /* \"#utility.yul\":1567:1573   */\n      dup4\n        /* \"#utility.yul\":1562:1565   */\n      dup4\n        /* \"#utility.yul\":1558:1574   */\n      add\n        /* \"#utility.yul\":1551:1578   */\n      mstore\n        /* \"#utility.yul\":1446:1585   */\n      pop\n      pop\n      pop\n      jump\t// out\n        /* \"#utility.yul\":1591:1693   */\n    tag_70:\n        /* \"#utility.yul\":1632:1638   */\n      0x00\n        /* \"#utility.yul\":1683:1685   */\n      0x1f\n        /* \"#utility.yul\":1679:1686   */\n      not\n        /* \"#utility.yul\":1674:1676   */\n      0x1f\n        /* \"#utility.yul\":1667:1672   */\n      dup4\n        /* \"#utility.yul\":1663:1677   */\n      add\n        /* \"#utility.yul\":1659:1687   */\n      and\n        /* \"#utility.yul\":1649:1687   */\n      swap1\n      pop\n        /* \"#utility.yul\":1591:1693   */\n      swap2\n      swap1\n      pop\n      jump\t// out\n        /* \"#utility.yul\":1699:2056   */\n    tag_71:\n        /* \"#utility.yul\":1777:1780   */\n      0x00\n        /* \"#utility.yul\":1805:1844   */\n      tag_125\n        /* \"#utility.yul\":1838:1843   */\n      dup3\n        /* \"#utility.yul\":1805:1844   */\n      tag_67\n      jump\t// in\n    tag_125:\n        /* \"#utility.yul\":1860:1921   */\n      tag_126\n        /* \"#utility.yul\":1914:1920   */\n      dup2\n        /* \"#utility.yul\":1909:1912   */\n      dup6\n        /* \"#utility.yul\":1860:1921   */\n      tag_68\n      jump\t// in\n    tag_126:\n        /* \"#utility.yul\":1853:1921   */\n      swap4\n      pop\n        /* \"#utility.yul\":1930:1995   */\n      tag_127\n        /* \"#utility.yul\":1988:1994   */\n      dup2\n        /* \"#utility.yul\":1983:1986   */\n      dup6\n        /* \"#utility.yul\":1976:1980   */\n      0x20\n        /* \"#utility.yul\":1969:1974   */\n      dup7\n        /* \"#utility.yul\":1965:1981   */\n      add\n        /* \"#utility.yul\":1930:1995   */\n      tag_69\n      jump\t// in\n    tag_127:\n        /* \"#utility.yul\":2020:2049   */\n      tag_128\n        /* \"#utility.yul\":2042:2048   */\n      dup2\n        /* \"#utility.yul\":2020:2049   */\n      tag_70\n      jump\t// in\n    tag_128:\n        /* \"#utility.yul\":2015:2018   */\n      dup5\n        /* \"#utility.yul\":2011:2050   */\n      add\n        /* \"#utility.yul\":2004:2050   */\n      swap2\n      pop\n        /* \"#utility.yul\":1781:2056   */\n      pop\n        /* \"#utility.yul\":1699:2056   */\n      swap3\n      swap2\n      pop\n      pop\n      jump\t// out\n        /* \"#utility.yul\":2062:2152   */\n    tag_72:\n        /* \"#utility.yul\":2096:2103   */\n      0x00\n        /* \"#utility.yul\":2139:2144   */\n      dup2\n        /* \"#utility.yul\":2132:2145   */\n      iszero\n        /* \"#utility.yul\":2125:2146   */\n      iszero\n        /* \"#utility.yul\":2114:2146   */\n      swap1\n      pop\n        /* \"#utility.yul\":2062:2152   */\n      swap2\n      swap1\n      pop\n      jump\t// out\n        /* \"#utility.yul\":2158:2257   */\n    tag_73:\n        /* \"#utility.yul\":2229:2250   */\n      tag_131\n        /* \"#utility.yul\":2244:2249   */\n      dup2\n        /* \"#utility.yul\":2229:2250   */\n      tag_72\n      jump\t// in\n    tag_131:\n        /* \"#utility.yul\":2224:2227   */\n      dup3\n        /* \"#utility.yul\":2217:2251   */\n      mstore\n        /* \"#utility.yul\":2158:2257   */\n      pop\n      pop\n      jump\t// out\n        /* \"#utility.yul\":2339:3446   */\n    tag_74:\n        /* \"#utility.yul\":2462:2465   */\n      0x00\n        /* \"#utility.yul\":2498:2502   */\n      0x80\n        /* \"#utility.yul\":2493:2496   */\n      dup4\n        /* \"#utility.yul\":2489:2503   */\n      add\n        /* \"#utility.yul\":2589:2593   */\n      0x00\n        /* \"#utility.yul\":2582:2587   */\n      dup4\n        /* \"#utility.yul\":2578:2594   */\n      add\n        /* \"#utility.yul\":2572:2595   */\n      mload\n        /* \"#utility.yul\":2642:2645   */\n      dup5\n        /* \"#utility.yul\":2636:2640   */\n      dup3\n        /* \"#utility.yul\":2632:2646   */\n      sub\n        /* \"#utility.yul\":2625:2629   */\n      0x00\n        /* \"#utility.yul\":2620:2623   */\n      dup7\n        /* \"#utility.yul\":2616:2630   */\n      add\n        /* \"#utility.yul\":2609:2647   */\n      mstore\n        /* \"#utility.yul\":2668:2741   */\n      tag_133\n        /* \"#utility.yul\":2736:2740   */\n      dup3\n        /* \"#utility.yul\":2722:2734   */\n      dup3\n        /* \"#utility.yul\":2668:2741   */\n      tag_71\n      jump\t// in\n    tag_133:\n        /* \"#utility.yul\":2660:2741   */\n      swap2\n      pop\n        /* \"#utility.yul\":2513:2752   */\n      pop\n        /* \"#utility.yul\":2833:2837   */\n      0x20\n        /* \"#utility.yul\":2826:2831   */\n      dup4\n        /* \"#utility.yul\":2822:2838   */\n      add\n        /* \"#utility.yul\":2816:2839   */\n      mload\n        /* \"#utility.yul\":2886:2889   */\n      dup5\n        /* \"#utility.yul\":2880:2884   */\n      dup3\n        /* \"#utility.yul\":2876:2890   */\n      sub\n        /* \"#utility.yul\":2869:2873   */\n      0x20\n        /* \"#utility.yul\":2864:2867   */\n      dup7\n        /* \"#utility.yul\":2860:2874   */\n      add\n        /* \"#utility.yul\":2853:2891   */\n      mstore\n        /* \"#utility.yul\":2912:2985   */\n      tag_134\n        /* \"#utility.yul\":2980:2984   */\n      dup3\n        /* \"#utility.yul\":2966:2978   */\n      dup3\n        /* \"#utility.yul\":2912:2985   */\n      tag_71\n      jump\t// in\n    tag_134:\n        /* \"#utility.yul\":2904:2985   */\n      swap2\n      pop\n        /* \"#utility.yul\":2762:2996   */\n      pop\n        /* \"#utility.yul\":3080:3084   */\n      0x40\n        /* \"#utility.yul\":3073:3078   */\n      dup4\n        /* \"#utility.yul\":3069:3085   */\n      add\n        /* \"#utility.yul\":3063:3086   */\n      mload\n        /* \"#utility.yul\":3133:3136   */\n      dup5\n        /* \"#utility.yul\":3127:3131   */\n      dup3\n        /* \"#utility.yul\":3123:3137   */\n      sub\n        /* \"#utility.yul\":3116:3120   */\n      0x40\n        /* \"#utility.yul\":3111:3114   */\n      dup7\n        /* \"#utility.yul\":3107:3121   */\n      add\n        /* \"#utility.yul\":3100:3138   */\n      mstore\n        /* \"#utility.yul\":3159:3232   */\n      tag_135\n        /* \"#utility.yul\":3227:3231   */\n      dup3\n        /* \"#utility.yul\":3213:3225   */\n      dup3\n        /* \"#utility.yul\":3159:3232   */\n      tag_71\n      jump\t// in\n    tag_135:\n        /* \"#utility.yul\":3151:3232   */\n      swap2\n      pop\n        /* \"#utility.yul\":3006:3243   */\n      pop\n        /* \"#utility.yul\":3333:3337   */\n      0x60\n        /* \"#utility.yul\":3326:3331   */\n      dup4\n        /* \"#utility.yul\":3322:3338   */\n      add\n        /* \"#utility.yul\":3316:3339   */\n      mload\n        /* \"#utility.yul\":3352:3409   */\n      tag_136\n        /* \"#utility.yul\":3403:3407   */\n      0x60\n        /* \"#utility.yul\":3398:3401   */\n      dup7\n        /* \"#utility.yul\":3394:3408   */\n      add\n        /* \"#utility.yul\":3380:3392   */\n      dup3\n        /* \"#utility.yul\":3352:3409   */\n      tag_73\n      jump\t// in\n    tag_136:\n        /* \"#utility.yul\":3253:3419   */\n      pop\n        /* \"#utility.yul\":3436:3440   */\n      dup1\n        /* \"#utility.yul\":3429:3440   */\n      swap2\n      pop\n        /* \"#utility.yul\":2467:3446   */\n      pop\n        /* \"#utility.yul\":2339:3446   */\n      swap3\n      swap2\n      pop\n      pop\n      jump\t// out\n        /* \"#utility.yul\":3452:3833   */\n    tag_11:\n        /* \"#utility.yul\":3599:3603   */\n      0x00\n        /* \"#utility.yul\":3637:3639   */\n      0x20\n        /* \"#utility.yul\":3626:3635   */\n      dup3\n        /* \"#utility.yul\":3622:3640   */\n      add\n        /* \"#utility.yul\":3614:3640   */\n      swap1\n      pop\n        /* \"#utility.yul\":3686:3695   */\n      dup2\n        /* \"#utility.yul\":3680:3684   */\n      dup2\n        /* \"#utility.yul\":3676:3696   */\n      sub\n        /* \"#utility.yul\":3672:3673   */\n      0x00\n        /* \"#utility.yul\":3661:3670   */\n      dup4\n        /* \"#utility.yul\":3657:3674   */\n      add\n        /* \"#utility.yul\":3650:3697   */\n      mstore\n        /* \"#utility.yul\":3714:3826   */\n      tag_138\n        /* \"#utility.yul\":3821:3825   */\n      dup2\n        /* \"#utility.yul\":3812:3818   */\n      dup5\n        /* \"#utility.yul\":3714:3826   */\n      tag_74\n      jump\t// in\n    tag_138:\n        /* \"#utility.yul\":3706:3826   */\n      swap1\n      pop\n        /* \"#utility.yul\":3452:3833   */\n      swap3\n      swap2\n      pop\n      pop\n      jump\t// out\n        /* \"#utility.yul\":3839:3956   */\n    tag_75:\n        /* \"#utility.yul\":3948:3949   */\n      0x00\n        /* \"#utility.yul\":3945:3946   */\n      dup1\n        /* \"#utility.yul\":3938:3950   */\n      revert\n        /* \"#utility.yul\":3962:4079   */\n    tag_76:\n        /* \"#utility.yul\":4071:4072   */\n      0x00\n        /* \"#utility.yul\":4068:4069   */\n      dup1\n        /* \"#utility.yul\":4061:4073   */\n      revert\n        /* \"#utility.yul\":4085:4265   */\n    tag_77:\n        /* \"#utility.yul\":4133:4210   */\n      0x4e487b7100000000000000000000000000000000000000000000000000000000\n        /* \"#utility.yul\":4130:4131   */\n      0x00\n        /* \"#utility.yul\":4123:4211   */\n      mstore\n        /* \"#utility.yul\":4230:4234   */\n      0x41\n        /* \"#utility.yul\":4227:4228   */\n      0x04\n        /* \"#utility.yul\":4220:4235   */\n      mstore\n        /* \"#utility.yul\":4254:4258   */\n      0x24\n        /* \"#utility.yul\":4251:4252   */\n      0x00\n        /* \"#utility.yul\":4244:4259   */\n      revert\n        /* \"#utility.yul\":4271:4552   */\n    tag_78:\n        /* \"#utility.yul\":4354:4381   */\n      tag_143\n        /* \"#utility.yul\":4376:4380   */\n      dup3\n        /* \"#utility.yul\":4354:4381   */\n      tag_70\n      jump\t// in\n    tag_143:\n        /* \"#utility.yul\":4346:4352   */\n      dup2\n        /* \"#utility.yul\":4342:4382   */\n      add\n        /* \"#utility.yul\":4484:4490   */\n      dup2\n        /* \"#utility.yul\":4472:4482   */\n      dup2\n        /* \"#utility.yul\":4469:4491   */\n      lt\n        /* \"#utility.yul\":4448:4466   */\n      0xffffffffffffffff\n        /* \"#utility.yul\":4436:4446   */\n      dup3\n        /* \"#utility.yul\":4433:4467   */\n      gt\n        /* \"#utility.yul\":4430:4492   */\n      or\n        /* \"#utility.yul\":4427:4515   */\n      iszero\n      tag_144\n      jumpi\n        /* \"#utility.yul\":4495:4513   */\n      tag_145\n      tag_77\n      jump\t// in\n    tag_145:\n        /* \"#utility.yul\":4427:4515   */\n    tag_144:\n        /* \"#utility.yul\":4535:4545   */\n      dup1\n        /* \"#utility.yul\":4531:4533   */\n      0x40\n        /* \"#utility.yul\":4524:4546   */\n      mstore\n        /* \"#utility.yul\":4314:4552   */\n      pop\n        /* \"#utility.yul\":4271:4552   */\n      pop\n      pop\n      jump\t// out\n        /* \"#utility.yul\":4558:4687   */\n    tag_79:\n        /* \"#utility.yul\":4592:4598   */\n      0x00\n        /* \"#utility.yul\":4619:4639   */\n      tag_147\n      tag_60\n      jump\t// in\n    tag_147:\n        /* \"#utility.yul\":4609:4639   */\n      swap1\n      pop\n        /* \"#utility.yul\":4648:4681   */\n      tag_148\n        /* \"#utility.yul\":4676:4680   */\n      dup3\n        /* \"#utility.yul\":4668:4674   */\n      dup3\n        /* \"#utility.yul\":4648:4681   */\n      tag_78\n      jump\t// in\n    tag_148:\n        /* \"#utility.yul\":4558:4687   */\n      swap2\n      swap1\n      pop\n      jump\t// out\n        /* \"#utility.yul\":4693:5001   */\n    tag_80:\n        /* \"#utility.yul\":4755:4759   */\n      0x00\n        /* \"#utility.yul\":4845:4863   */\n      0xffffffffffffffff\n        /* \"#utility.yul\":4837:4843   */\n      dup3\n        /* \"#utility.yul\":4834:4864   */\n      gt\n        /* \"#utility.yul\":4831:4887   */\n      iszero\n      tag_150\n      jumpi\n        /* \"#utility.yul\":4867:4885   */\n      tag_151\n      tag_77\n      jump\t// in\n    tag_151:\n        /* \"#utility.yul\":4831:4887   */\n    tag_150:\n        /* \"#utility.yul\":4905:4934   */\n      tag_152\n        /* \"#utility.yul\":4927:4933   */\n      dup3\n        /* \"#utility.yul\":4905:4934   */\n      tag_70\n      jump\t// in\n    tag_152:\n        /* \"#utility.yul\":4897:4934   */\n      swap1\n      pop\n        /* \"#utility.yul\":4989:4993   */\n      0x20\n        /* \"#utility.yul\":4983:4987   */\n      dup2\n        /* \"#utility.yul\":4979:4994   */\n      add\n        /* \"#utility.yul\":4971:4994   */\n      swap1\n      pop\n        /* \"#utility.yul\":4693:5001   */\n      swap2\n      swap1\n      pop\n      jump\t// out\n        /* \"#utility.yul\":5007:5155   */\n    tag_81:\n        /* \"#utility.yul\":5105:5111   */\n      dup3\n        /* \"#utility.yul\":5100:5103   */\n      dup2\n        /* \"#utility.yul\":5095:5098   */\n      dup4\n        /* \"#utility.yul\":5082:5112   */\n      calldatacopy\n        /* \"#utility.yul\":5146:5147   */\n      0x00\n        /* \"#utility.yul\":5137:5143   */\n      dup4\n        /* \"#utility.yul\":5132:5135   */\n      dup4\n        /* \"#utility.yul\":5128:5144   */\n      add\n        /* \"#utility.yul\":5121:5148   */\n      mstore\n        /* \"#utility.yul\":5007:5155   */\n      pop\n      pop\n      pop\n      jump\t// out\n        /* \"#utility.yul\":5161:5586   */\n    tag_82:\n        /* \"#utility.yul\":5239:5244   */\n      0x00\n        /* \"#utility.yul\":5264:5330   */\n      tag_155\n        /* \"#utility.yul\":5280:5329   */\n      tag_156\n        /* \"#utility.yul\":5322:5328   */\n      dup5\n        /* \"#utility.yul\":5280:5329   */\n      tag_80\n      jump\t// in\n    tag_156:\n        /* \"#utility.yul\":5264:5330   */\n      tag_79\n      jump\t// in\n    tag_155:\n        /* \"#utility.yul\":5255:5330   */\n      swap1\n      pop\n        /* \"#utility.yul\":5353:5359   */\n      dup3\n        /* \"#utility.yul\":5346:5351   */\n      dup2\n        /* \"#utility.yul\":5339:5360   */\n      mstore\n        /* \"#utility.yul\":5391:5395   */\n      0x20\n        /* \"#utility.yul\":5384:5389   */\n      dup2\n        /* \"#utility.yul\":5380:5396   */\n      add\n        /* \"#utility.yul\":5429:5432   */\n      dup5\n        /* \"#utility.yul\":5420:5426   */\n      dup5\n        /* \"#utility.yul\":5415:5418   */\n      dup5\n        /* \"#utility.yul\":5411:5427   */\n      add\n        /* \"#utility.yul\":5408:5433   */\n      gt\n        /* \"#utility.yul\":5405:5517   */\n      iszero\n      tag_157\n      jumpi\n        /* \"#utility.yul\":5436:5515   */\n      tag_158\n      tag_76\n      jump\t// in\n    tag_158:\n        /* \"#utility.yul\":5405:5517   */\n    tag_157:\n        /* \"#utility.yul\":5526:5580   */\n      tag_159\n        /* \"#utility.yul\":5573:5579   */\n      dup5\n        /* \"#utility.yul\":5568:5571   */\n      dup3\n        /* \"#utility.yul\":5563:5566   */\n      dup6\n        /* \"#utility.yul\":5526:5580   */\n      tag_81\n      jump\t// in\n    tag_159:\n        /* \"#utility.yul\":5245:5586   */\n      pop\n        /* \"#utility.yul\":5161:5586   */\n      swap4\n      swap3\n      pop\n      pop\n      pop\n      jump\t// out\n        /* \"#utility.yul\":5606:5946   */\n    tag_83:\n        /* \"#utility.yul\":5662:5667   */\n      0x00\n        /* \"#utility.yul\":5711:5714   */\n      dup3\n        /* \"#utility.yul\":5704:5708   */\n      0x1f\n        /* \"#utility.yul\":5696:5702   */\n      dup4\n        /* \"#utility.yul\":5692:5709   */\n      add\n        /* \"#utility.yul\":5688:5715   */\n      slt\n        /* \"#utility.yul\":5678:5800   */\n      tag_161\n      jumpi\n        /* \"#utility.yul\":5719:5798   */\n      tag_162\n      tag_75\n      jump\t// in\n    tag_162:\n        /* \"#utility.yul\":5678:5800   */\n    tag_161:\n        /* \"#utility.yul\":5836:5842   */\n      dup2\n        /* \"#utility.yul\":5823:5843   */\n      calldataload\n        /* \"#utility.yul\":5861:5940   */\n      tag_163\n        /* \"#utility.yul\":5936:5939   */\n      dup5\n        /* \"#utility.yul\":5928:5934   */\n      dup3\n        /* \"#utility.yul\":5921:5925   */\n      0x20\n        /* \"#utility.yul\":5913:5919   */\n      dup7\n        /* \"#utility.yul\":5909:5926   */\n      add\n        /* \"#utility.yul\":5861:5940   */\n      tag_82\n      jump\t// in\n    tag_163:\n        /* \"#utility.yul\":5852:5940   */\n      swap2\n      pop\n        /* \"#utility.yul\":5668:5946   */\n      pop\n        /* \"#utility.yul\":5606:5946   */\n      swap3\n      swap2\n      pop\n      pop\n      jump\t// out\n        /* \"#utility.yul\":5952:7111   */\n    tag_14:\n        /* \"#utility.yul\":6059:6065   */\n      0x00\n        /* \"#utility.yul\":6067:6073   */\n      dup1\n        /* \"#utility.yul\":6075:6081   */\n      0x00\n        /* \"#utility.yul\":6124:6126   */\n      0x60\n        /* \"#utility.yul\":6112:6121   */\n      dup5\n        /* \"#utility.yul\":6103:6110   */\n      dup7\n        /* \"#utility.yul\":6099:6122   */\n      sub\n        /* \"#utility.yul\":6095:6127   */\n      slt\n        /* \"#utility.yul\":6092:6211   */\n      iszero\n      tag_165\n      jumpi\n        /* \"#utility.yul\":6130:6209   */\n      tag_166\n      tag_61\n      jump\t// in\n    tag_166:\n        /* \"#utility.yul\":6092:6211   */\n    tag_165:\n        /* \"#utility.yul\":6278:6279   */\n      0x00\n        /* \"#utility.yul\":6267:6276   */\n      dup5\n        /* \"#utility.yul\":6263:6280   */\n      add\n        /* \"#utility.yul\":6250:6281   */\n      calldataload\n        /* \"#utility.yul\":6308:6326   */\n      0xffffffffffffffff\n        /* \"#utility.yul\":6300:6306   */\n      dup2\n        /* \"#utility.yul\":6297:6327   */\n      gt\n        /* \"#utility.yul\":6294:6411   */\n      iszero\n      tag_167\n      jumpi\n        /* \"#utility.yul\":6330:6409   */\n      tag_168\n      tag_62\n      jump\t// in\n    tag_168:\n        /* \"#utility.yul\":6294:6411   */\n    tag_167:\n        /* \"#utility.yul\":6435:6498   */\n      tag_169\n        /* \"#utility.yul\":6490:6497   */\n      dup7\n        /* \"#utility.yul\":6481:6487   */\n      dup3\n        /* \"#utility.yul\":6470:6479   */\n      dup8\n        /* \"#utility.yul\":6466:6488   */\n      add\n        /* \"#utility.yul\":6435:6498   */\n      tag_83\n      jump\t// in\n    tag_169:\n        /* \"#utility.yul\":6425:6498   */\n      swap4\n      pop\n        /* \"#utility.yul\":6221:6508   */\n      pop\n        /* \"#utility.yul\":6575:6577   */\n      0x20\n        /* \"#utility.yul\":6564:6573   */\n      dup5\n        /* \"#utility.yul\":6560:6578   */\n      add\n        /* \"#utility.yul\":6547:6579   */\n      calldataload\n        /* \"#utility.yul\":6606:6624   */\n      0xffffffffffffffff\n        /* \"#utility.yul\":6598:6604   */\n      dup2\n        /* \"#utility.yul\":6595:6625   */\n      gt\n        /* \"#utility.yul\":6592:6709   */\n      iszero\n      tag_170\n      jumpi\n        /* \"#utility.yul\":6628:6707   */\n      tag_171\n      tag_62\n      jump\t// in\n    tag_171:\n        /* \"#utility.yul\":6592:6709   */\n    tag_170:\n        /* \"#utility.yul\":6733:6796   */\n      tag_172\n        /* \"#utility.yul\":6788:6795   */\n      dup7\n        /* \"#utility.yul\":6779:6785   */\n      dup3\n        /* \"#utility.yul\":6768:6777   */\n      dup8\n        /* \"#utility.yul\":6764:6786   */\n      add\n        /* \"#utility.yul\":6733:6796   */\n      tag_83\n      jump\t// in\n    tag_172:\n        /* \"#utility.yul\":6723:6796   */\n      swap3\n      pop\n        /* \"#utility.yul\":6518:6806   */\n      pop\n        /* \"#utility.yul\":6873:6875   */\n      0x40\n        /* \"#utility.yul\":6862:6871   */\n      dup5\n        /* \"#utility.yul\":6858:6876   */\n      add\n        /* \"#utility.yul\":6845:6877   */\n      calldataload\n        /* \"#utility.yul\":6904:6922   */\n      0xffffffffffffffff\n        /* \"#utility.yul\":6896:6902   */\n      dup2\n        /* \"#utility.yul\":6893:6923   */\n      gt\n        /* \"#utility.yul\":6890:7007   */\n      iszero\n      tag_173\n      jumpi\n        /* \"#utility.yul\":6926:7005   */\n      tag_174\n      tag_62\n      jump\t// in\n    tag_174:\n        /* \"#utility.yul\":6890:7007   */\n    tag_173:\n        /* \"#utility.yul\":7031:7094   */\n      tag_175\n        /* \"#utility.yul\":7086:7093   */\n      dup7\n        /* \"#utility.yul\":7077:7083   */\n      dup3\n        /* \"#utility.yul\":7066:7075   */\n      dup8\n        /* \"#utility.yul\":7062:7084   */\n      add\n        /* \"#utility.yul\":7031:7094   */\n      tag_83\n      jump\t// in\n    tag_175:\n        /* \"#utility.yul\":7021:7094   */\n      swap2\n      pop\n        /* \"#utility.yul\":6816:7104   */\n      pop\n        /* \"#utility.yul\":5952:7111   */\n      swap3\n      pop\n      swap3\n      pop\n      swap3\n      jump\t// out\n        /* \"#utility.yul\":7117:7286   */\n    tag_84:\n        /* \"#utility.yul\":7201:7212   */\n      0x00\n        /* \"#utility.yul\":7235:7241   */\n      dup3\n        /* \"#utility.yul\":7230:7233   */\n      dup3\n        /* \"#utility.yul\":7223:7242   */\n      mstore\n        /* \"#utility.yul\":7275:7279   */\n      0x20\n        /* \"#utility.yul\":7270:7273   */\n      dup3\n        /* \"#utility.yul\":7266:7280   */\n      add\n        /* \"#utility.yul\":7251:7280   */\n      swap1\n      pop\n        /* \"#utility.yul\":7117:7286   */\n      swap3\n      swap2\n      pop\n      pop\n      jump\t// out\n        /* \"#utility.yul\":7292:7669   */\n    tag_85:\n        /* \"#utility.yul\":7380:7383   */\n      0x00\n        /* \"#utility.yul\":7408:7447   */\n      tag_178\n        /* \"#utility.yul\":7441:7446   */\n      dup3\n        /* \"#utility.yul\":7408:7447   */\n      tag_67\n      jump\t// in\n    tag_178:\n        /* \"#utility.yul\":7463:7534   */\n      tag_179\n        /* \"#utility.yul\":7527:7533   */\n      dup2\n        /* \"#utility.yul\":7522:7525   */\n      dup6\n        /* \"#utility.yul\":7463:7534   */\n      tag_84\n      jump\t// in\n    tag_179:\n        /* \"#utility.yul\":7456:7534   */\n      swap4\n      pop\n        /* \"#utility.yul\":7543:7608   */\n      tag_180\n        /* \"#utility.yul\":7601:7607   */\n      dup2\n        /* \"#utility.yul\":7596:7599   */\n      dup6\n        /* \"#utility.yul\":7589:7593   */\n      0x20\n        /* \"#utility.yul\":7582:7587   */\n      dup7\n        /* \"#utility.yul\":7578:7594   */\n      add\n        /* \"#utility.yul\":7543:7608   */\n      tag_69\n      jump\t// in\n    tag_180:\n        /* \"#utility.yul\":7633:7662   */\n      tag_181\n        /* \"#utility.yul\":7655:7661   */\n      dup2\n        /* \"#utility.yul\":7633:7662   */\n      tag_70\n      jump\t// in\n    tag_181:\n        /* \"#utility.yul\":7628:7631   */\n      dup5\n        /* \"#utility.yul\":7624:7663   */\n      add\n        /* \"#utility.yul\":7617:7663   */\n      swap2\n      pop\n        /* \"#utility.yul\":7384:7669   */\n      pop\n        /* \"#utility.yul\":7292:7669   */\n      swap3\n      swap2\n      pop\n      pop\n      jump\t// out\n        /* \"#utility.yul\":7675:7784   */\n    tag_86:\n        /* \"#utility.yul\":7756:7777   */\n      tag_183\n        /* \"#utility.yul\":7771:7776   */\n      dup2\n        /* \"#utility.yul\":7756:7777   */\n      tag_72\n      jump\t// in\n    tag_183:\n        /* \"#utility.yul\":7751:7754   */\n      dup3\n        /* \"#utility.yul\":7744:7778   */\n      mstore\n        /* \"#utility.yul\":7675:7784   */\n      pop\n      pop\n      jump\t// out\n        /* \"#utility.yul\":7790:8604   */\n    tag_20:\n        /* \"#utility.yul\":8021:8025   */\n      0x00\n        /* \"#utility.yul\":8059:8062   */\n      0x80\n        /* \"#utility.yul\":8048:8057   */\n      dup3\n        /* \"#utility.yul\":8044:8063   */\n      add\n        /* \"#utility.yul\":8036:8063   */\n      swap1\n      pop\n        /* \"#utility.yul\":8109:8118   */\n      dup2\n        /* \"#utility.yul\":8103:8107   */\n      dup2\n        /* \"#utility.yul\":8099:8119   */\n      sub\n        /* \"#utility.yul\":8095:8096   */\n      0x00\n        /* \"#utility.yul\":8084:8093   */\n      dup4\n        /* \"#utility.yul\":8080:8097   */\n      add\n        /* \"#utility.yul\":8073:8120   */\n      mstore\n        /* \"#utility.yul\":8137:8215   */\n      tag_185\n        /* \"#utility.yul\":8210:8214   */\n      dup2\n        /* \"#utility.yul\":8201:8207   */\n      dup8\n        /* \"#utility.yul\":8137:8215   */\n      tag_85\n      jump\t// in\n    tag_185:\n        /* \"#utility.yul\":8129:8215   */\n      swap1\n      pop\n        /* \"#utility.yul\":8262:8271   */\n      dup2\n        /* \"#utility.yul\":8256:8260   */\n      dup2\n        /* \"#utility.yul\":8252:8272   */\n      sub\n        /* \"#utility.yul\":8247:8249   */\n      0x20\n        /* \"#utility.yul\":8236:8245   */\n      dup4\n        /* \"#utility.yul\":8232:8250   */\n      add\n        /* \"#utility.yul\":8225:8273   */\n      mstore\n        /* \"#utility.yul\":8290:8368   */\n      tag_186\n        /* \"#utility.yul\":8363:8367   */\n      dup2\n        /* \"#utility.yul\":8354:8360   */\n      dup7\n        /* \"#utility.yul\":8290:8368   */\n      tag_85\n      jump\t// in\n    tag_186:\n        /* \"#utility.yul\":8282:8368   */\n      swap1\n      pop\n        /* \"#utility.yul\":8415:8424   */\n      dup2\n        /* \"#utility.yul\":8409:8413   */\n      dup2\n        /* \"#utility.yul\":8405:8425   */\n      sub\n        /* \"#utility.yul\":8400:8402   */\n      0x40\n        /* \"#utility.yul\":8389:8398   */\n      dup4\n        /* \"#utility.yul\":8385:8403   */\n      add\n        /* \"#utility.yul\":8378:8426   */\n      mstore\n        /* \"#utility.yul\":8443:8521   */\n      tag_187\n        /* \"#utility.yul\":8516:8520   */\n      dup2\n        /* \"#utility.yul\":8507:8513   */\n      dup6\n        /* \"#utility.yul\":8443:8521   */\n      tag_85\n      jump\t// in\n    tag_187:\n        /* \"#utility.yul\":8435:8521   */\n      swap1\n      pop\n        /* \"#utility.yul\":8531:8597   */\n      tag_188\n        /* \"#utility.yul\":8593:8595   */\n      0x60\n        /* \"#utility.yul\":8582:8591   */\n      dup4\n        /* \"#utility.yul\":8578:8596   */\n      add\n        /* \"#utility.yul\":8569:8575   */\n      dup5\n        /* \"#utility.yul\":8531:8597   */\n      tag_86\n      jump\t// in\n    tag_188:\n        /* \"#utility.yul\":7790:8604   */\n      swap6\n      swap5\n      pop\n      pop\n      pop\n      pop\n      pop\n      jump\t// out\n        /* \"#utility.yul\":8610:8790   */\n    tag_87:\n        /* \"#utility.yul\":8658:8735   */\n      0x4e487b7100000000000000000000000000000000000000000000000000000000\n        /* \"#utility.yul\":8655:8656   */\n      0x00\n        /* \"#utility.yul\":8648:8736   */\n      mstore\n        /* \"#utility.yul\":8755:8759   */\n      0x22\n        /* \"#utility.yul\":8752:8753   */\n      0x04\n        /* \"#utility.yul\":8745:8760   */\n      mstore\n        /* \"#utility.yul\":8779:8783   */\n      0x24\n        /* \"#utility.yul\":8776:8777   */\n      0x00\n        /* \"#utility.yul\":8769:8784   */\n      revert\n        /* \"#utility.yul\":8796:9116   */\n    tag_25:\n        /* \"#utility.yul\":8840:8846   */\n      0x00\n        /* \"#utility.yul\":8877:8878   */\n      0x02\n        /* \"#utility.yul\":8871:8875   */\n      dup3\n        /* \"#utility.yul\":8867:8879   */\n      div\n        /* \"#utility.yul\":8857:8879   */\n      swap1\n      pop\n        /* \"#utility.yul\":8924:8925   */\n      0x01\n        /* \"#utility.yul\":8918:8922   */\n      dup3\n        /* \"#utility.yul\":8914:8926   */\n      and\n        /* \"#utility.yul\":8945:8963   */\n      dup1\n        /* \"#utility.yul\":8935:9016   */\n      tag_191\n      jumpi\n        /* \"#utility.yul\":9001:9005   */\n      0x7f\n        /* \"#utility.yul\":8993:8999   */\n      dup3\n        /* \"#utility.yul\":8989:9006   */\n      and\n        /* \"#utility.yul\":8979:9006   */\n      swap2\n      pop\n        /* \"#utility.yul\":8935:9016   */\n    tag_191:\n        /* \"#utility.yul\":9063:9065   */\n      0x20\n        /* \"#utility.yul\":9055:9061   */\n      dup3\n        /* \"#utility.yul\":9052:9066   */\n      lt\n        /* \"#utility.yul\":9032:9050   */\n      dup2\n        /* \"#utility.yul\":9029:9067   */\n      sub\n        /* \"#utility.yul\":9026:9110   */\n      tag_192\n      jumpi\n        /* \"#utility.yul\":9082:9100   */\n      tag_193\n      tag_87\n      jump\t// in\n    tag_193:\n        /* \"#utility.yul\":9026:9110   */\n    tag_192:\n        /* \"#utility.yul\":8847:9116   */\n      pop\n        /* \"#utility.yul\":8796:9116   */\n      swap2\n      swap1\n      pop\n      jump\t// out\n        /* \"#utility.yul\":9122:9263   */\n    tag_88:\n        /* \"#utility.yul\":9171:9175   */\n      0x00\n        /* \"#utility.yul\":9194:9197   */\n      dup2\n        /* \"#utility.yul\":9186:9197   */\n      swap1\n      pop\n        /* \"#utility.yul\":9217:9220   */\n      dup2\n        /* \"#utility.yul\":9214:9215   */\n      0x00\n        /* \"#utility.yul\":9207:9221   */\n      mstore\n        /* \"#utility.yul\":9251:9255   */\n      0x20\n        /* \"#utility.yul\":9248:9249   */\n      0x00\n        /* \"#utility.yul\":9238:9256   */\n      keccak256\n        /* \"#utility.yul\":9230:9256   */\n      swap1\n      pop\n        /* \"#utility.yul\":9122:9263   */\n      swap2\n      swap1\n      pop\n      jump\t// out\n        /* \"#utility.yul\":9269:9362   */\n    tag_89:\n        /* \"#utility.yul\":9306:9312   */\n      0x00\n        /* \"#utility.yul\":9353:9355   */\n      0x20\n        /* \"#utility.yul\":9348:9350   */\n      0x1f\n        /* \"#utility.yul\":9341:9346   */\n      dup4\n        /* \"#utility.yul\":9337:9351   */\n      add\n        /* \"#utility.yul\":9333:9356   */\n      div\n        /* \"#utility.yul\":9323:9356   */\n      swap1\n      pop\n        /* \"#utility.yul\":9269:9362   */\n      swap2\n      swap1\n      pop\n      jump\t// out\n        /* \"#utility.yul\":9368:9475   */\n    tag_90:\n        /* \"#utility.yul\":9412:9420   */\n      0x00\n        /* \"#utility.yul\":9462:9467   */\n      dup3\n        /* \"#utility.yul\":9456:9460   */\n      dup3\n        /* \"#utility.yul\":9452:9468   */\n      shl\n        /* \"#utility.yul\":9431:9468   */\n      swap1\n      pop\n        /* \"#utility.yul\":9368:9475   */\n      swap3\n      swap2\n      pop\n      pop\n      jump\t// out\n        /* \"#utility.yul\":9481:9874   */\n    tag_91:\n        /* \"#utility.yul\":9550:9556   */\n      0x00\n        /* \"#utility.yul\":9600:9601   */\n      0x08\n        /* \"#utility.yul\":9588:9598   */\n      dup4\n        /* \"#utility.yul\":9584:9602   */\n      mul\n        /* \"#utility.yul\":9623:9720   */\n      tag_198\n        /* \"#utility.yul\":9653:9719   */\n      0xffffffffffffffffffffffffffffffffffffffffffffffffffffffffffffffff\n        /* \"#utility.yul\":9642:9651   */\n      dup3\n        /* \"#utility.yul\":9623:9720   */\n      tag_90\n      jump\t// in\n    tag_198:\n        /* \"#utility.yul\":9741:9780   */\n      tag_199\n        /* \"#utility.yul\":9771:9779   */\n      dup7\n        /* \"#utility.yul\":9760:9769   */\n      dup4\n        /* \"#utility.yul\":9741:9780   */\n      tag_90\n      jump\t// in\n    tag_199:\n        /* \"#utility.yul\":9729:9780   */\n      swap6\n      pop\n        /* \"#utility.yul\":9813:9817   */\n      dup1\n        /* \"#utility.yul\":9809:9818   */\n      not\n        /* \"#utility.yul\":9802:9807   */\n      dup5\n        /* \"#utility.yul\":9798:9819   */\n      and\n        /* \"#utility.yul\":9789:9819   */\n      swap4\n      pop\n        /* \"#utility.yul\":9862:9866   */\n      dup1\n        /* \"#utility.yul\":9852:9860   */\n      dup7\n        /* \"#utility.yul\":9848:9867   */\n      and\n        /* \"#utility.yul\":9841:9846   */\n      dup5\n        /* \"#utility.yul\":9838:9868   */\n      or\n        /* \"#utility.yul\":9828:9868   */\n      swap3\n      pop\n        /* \"#utility.yul\":9557:9874   */\n      pop\n      pop\n        /* \"#utility.yul\":9481:9874   */\n      swap4\n      swap3\n      pop\n      pop\n      pop\n      jump\t// out\n        /* \"#utility.yul\":9880:9957   */\n    tag_92:\n        /* \"#utility.yul\":9917:9924   */\n      0x00\n        /* \"#utility.yul\":9946:9951   */\n      dup2\n        /* \"#utility.yul\":9935:9951   */\n      swap1\n      pop\n        /* \"#utility.yul\":9880:9957   */\n      swap2\n      swap1\n      pop\n      jump\t// out\n        /* \"#utility.yul\":9963:10023   */\n    tag_93:\n        /* \"#utility.yul\":9991:9994   */\n      0x00\n        /* \"#utility.yul\":10012:10017   */\n      dup2\n        /* \"#utility.yul\":10005:10017   */\n      swap1\n      pop\n        /* \"#utility.yul\":9963:10023   */\n      swap2\n      swap1\n      pop\n      jump\t// out\n        /* \"#utility.yul\":10029:10171   */\n    tag_94:\n        /* \"#utility.yul\":10079:10088   */\n      0x00\n        /* \"#utility.yul\":10112:10165   */\n      tag_203\n        /* \"#utility.yul\":10130:10164   */\n      tag_204\n        /* \"#utility.yul\":10139:10163   */\n      tag_205\n        /* \"#utility.yul\":10157:10162   */\n      dup5\n        /* \"#utility.yul\":10139:10163   */\n      tag_92\n      jump\t// in\n    tag_205:\n        /* \"#utility.yul\":10130:10164   */\n      tag_93\n      jump\t// in\n    tag_204:\n        /* \"#utility.yul\":10112:10165   */\n      tag_92\n      jump\t// in\n    tag_203:\n        /* \"#utility.yul\":10099:10165   */\n      swap1\n      pop\n        /* \"#utility.yul\":10029:10171   */\n      swap2\n      swap1\n      pop\n      jump\t// out\n        /* \"#utility.yul\":10177:10252   */\n    tag_95:\n        /* \"#utility.yul\":10220:10223   */\n      0x00\n        /* \"#utility.yul\":10241:10246   */\n      dup2\n        /* \"#utility.yul\":10234:10246   */\n      swap1\n      pop\n        /* \"#utility.yul\":10177:10252   */\n      swap2\n      swap1\n      pop\n      jump\t// out\n        /* \"#utility.yul\":10258:10527   */\n    tag_96:\n        /* \"#utility.yul\":10368:10407   */\n      tag_208\n        /* \"#utility.yul\":10399:10406   */\n      dup4\n        /* \"#utility.yul\":10368:10407   */\n      tag_94\n      jump\t// in\n    tag_208:\n        /* \"#utility.yul\":10429:10520   */\n      tag_209\n        /* \"#utility.yul\":10478:10519   */\n      tag_210\n        /* \"#utility.yul\":10502:10518   */\n      dup3\n        /* \"#utility.yul\":10478:10519   */\n      tag_95\n      jump\t// in\n    tag_210:\n        /* \"#utility.yul\":10470:10476   */\n      dup5\n        /* \"#utility.yul\":10463:10467   */\n      dup5\n        /* \"#utility.yul\":10457:10468   */\n      sload\n        /* \"#utility.yul\":10429:10520   */\n      tag_91\n      jump\t// in\n    tag_209:\n        /* \"#utility.yul\":10423:10427   */\n      dup3\n        /* \"#utility.yul\":10416:10521   */\n      sstore\n        /* \"#utility.yul\":10334:10527   */\n      pop\n        /* \"#utility.yul\":10258:10527   */\n      pop\n      pop\n      pop\n      jump\t// out\n        /* \"#utility.yul\":10533:10606   */\n    tag_97:\n        /* \"#utility.yul\":10578:10581   */\n      0x00\n        /* \"#utility.yul\":10533:10606   */\n      swap1\n      jump\t// out\n        /* \"#utility.yul\":10612:10801   */\n    tag_98:\n        /* \"#utility.yul\":10689:10721   */\n      tag_213\n      tag_97\n      jump\t// in\n    tag_213:\n        /* \"#utility.yul\":10730:10795   */\n      tag_214\n        /* \"#utility.yul\":10788:10794   */\n      dup2\n        /* \"#utility.yul\":10780:10786   */\n      dup5\n        /* \"#utility.yul\":10774:10778   */\n      dup5\n        /* \"#utility.yul\":10730:10795   */\n      tag_96\n      jump\t// in\n    tag_214:\n        /* \"#utility.yul\":10665:10801   */\n      pop\n        /* \"#utility.yul\":10612:10801   */\n      pop\n      pop\n      jump\t// out\n        /* \"#utility.yul\":10807:10993   */\n    tag_99:\n        /* \"#utility.yul\":10867:10987   */\n    tag_216:\n        /* \"#utility.yul\":10884:10887   */\n      dup2\n        /* \"#utility.yul\":10877:10882   */\n      dup2\n        /* \"#utility.yul\":10874:10888   */\n      lt\n        /* \"#utility.yul\":10867:10987   */\n      iszero\n      tag_218\n      jumpi\n        /* \"#utility.yul\":10938:10977   */\n      tag_219\n        /* \"#utility.yul\":10975:10976   */\n      0x00\n        /* \"#utility.yul\":10968:10973   */\n      dup3\n        /* \"#utility.yul\":10938:10977   */\n      tag_98\n      jump\t// in\n    tag_219:\n        /* \"#utility.yul\":10911:10912   */\n      0x01\n        /* \"#utility.yul\":10904:10909   */\n      dup2\n        /* \"#utility.yul\":10900:10913   */\n      add\n        /* \"#utility.yul\":10891:10913   */\n      swap1\n      pop\n        /* \"#utility.yul\":10867:10987   */\n      jump(tag_216)\n    tag_218:\n        /* \"#utility.yul\":10807:10993   */\n      pop\n      pop\n      jump\t// out\n        /* \"#utility.yul\":10999:11542   */\n    tag_100:\n        /* \"#utility.yul\":11100:11102   */\n      0x1f\n        /* \"#utility.yul\":11095:11098   */\n      dup3\n        /* \"#utility.yul\":11092:11103   */\n      gt\n        /* \"#utility.yul\":11089:11535   */\n      iszero\n      tag_221\n      jumpi\n        /* \"#utility.yul\":11134:11172   */\n      tag_222\n        /* \"#utility.yul\":11166:11171   */\n      dup2\n        /* \"#utility.yul\":11134:11172   */\n      tag_88\n      jump\t// in\n    tag_222:\n        /* \"#utility.yul\":11218:11247   */\n      tag_223\n        /* \"#utility.yul\":11236:11246   */\n      dup5\n        /* \"#utility.yul\":11218:11247   */\n      tag_89\n      jump\t// in\n    tag_223:\n        /* \"#utility.yul\":11208:11216   */\n      dup2\n        /* \"#utility.yul\":11204:11248   */\n      add\n        /* \"#utility.yul\":11401:11403   */\n      0x20\n        /* \"#utility.yul\":11389:11399   */\n      dup6\n        /* \"#utility.yul\":11386:11404   */\n      lt\n        /* \"#utility.yul\":11383:11432   */\n      iszero\n      tag_224\n      jumpi\n        /* \"#utility.yul\":11422:11430   */\n      dup2\n        /* \"#utility.yul\":11407:11430   */\n      swap1\n      pop\n        /* \"#utility.yul\":11383:11432   */\n    tag_224:\n        /* \"#utility.yul\":11445:11525   */\n      tag_225\n        /* \"#utility.yul\":11501:11523   */\n      tag_226\n        /* \"#utility.yul\":11519:11522   */\n      dup6\n        /* \"#utility.yul\":11501:11523   */\n      tag_89\n      jump\t// in\n    tag_226:\n        /* \"#utility.yul\":11491:11499   */\n      dup4\n        /* \"#utility.yul\":11487:11524   */\n      add\n        /* \"#utility.yul\":11474:11485   */\n      dup3\n        /* \"#utility.yul\":11445:11525   */\n      tag_99\n      jump\t// in\n    tag_225:\n        /* \"#utility.yul\":11104:11535   */\n      pop\n      pop\n        /* \"#utility.yul\":11089:11535   */\n    tag_221:\n        /* \"#utility.yul\":10999:11542   */\n      pop\n      pop\n      pop\n      jump\t// out\n        /* \"#utility.yul\":11548:11665   */\n    tag_101:\n        /* \"#utility.yul\":11602:11610   */\n      0x00\n        /* \"#utility.yul\":11652:11657   */\n      dup3\n        /* \"#utility.yul\":11646:11650   */\n      dup3\n        /* \"#utility.yul\":11642:11658   */\n      shr\n        /* \"#utility.yul\":11621:11658   */\n      swap1\n      pop\n        /* \"#utility.yul\":11548:11665   */\n      swap3\n      swap2\n      pop\n      pop\n      jump\t// out\n        /* \"#utility.yul\":11671:11840   */\n    tag_102:\n        /* \"#utility.yul\":11715:11721   */\n      0x00\n        /* \"#utility.yul\":11748:11799   */\n      tag_229\n        /* \"#utility.yul\":11796:11797   */\n      0x00\n        /* \"#utility.yul\":11792:11798   */\n      not\n        /* \"#utility.yul\":11784:11789   */\n      dup5\n        /* \"#utility.yul\":11781:11782   */\n      0x08\n        /* \"#utility.yul\":11777:11790   */\n      mul\n        /* \"#utility.yul\":11748:11799   */\n      tag_101\n      jump\t// in\n    tag_229:\n        /* \"#utility.yul\":11744:11800   */\n      not\n        /* \"#utility.yul\":11829:11833   */\n      dup1\n        /* \"#utility.yul\":11823:11827   */\n      dup4\n        /* \"#utility.yul\":11819:11834   */\n      and\n        /* \"#utility.yul\":11809:11834   */\n      swap2\n      pop\n        /* \"#utility.yul\":11722:11840   */\n      pop\n        /* \"#utility.yul\":11671:11840   */\n      swap3\n      swap2\n      pop\n      pop\n      jump\t// out\n        /* \"#utility.yul\":11845:12140   */\n    tag_103:\n        /* \"#utility.yul\":11921:11925   */\n      0x00\n        /* \"#utility.yul\":12067:12096   */\n      tag_231\n        /* \"#utility.yul\":12092:12095   */\n      dup4\n        /* \"#utility.yul\":12086:12090   */\n      dup4\n        /* \"#utility.yul\":12067:12096   */\n      tag_102\n      jump\t// in\n    tag_231:\n        /* \"#utility.yul\":12059:12096   */\n      swap2\n      pop\n        /* \"#utility.yul\":12129:12132   */\n      dup3\n        /* \"#utility.yul\":12126:12127   */\n      0x02\n        /* \"#utility.yul\":12122:12133   */\n      mul\n        /* \"#utility.yul\":12116:12120   */\n      dup3\n        /* \"#utility.yul\":12113:12134   */\n      or\n        /* \"#utility.yul\":12105:12134   */\n      swap1\n      pop\n        /* \"#utility.yul\":11845:12140   */\n      swap3\n      swap2\n      pop\n      pop\n      jump\t// out\n        /* \"#utility.yul\":12145:13540   */\n    tag_42:\n        /* \"#utility.yul\":12262:12299   */\n      tag_233\n        /* \"#utility.yul\":12295:12298   */\n      dup3\n        /* \"#utility.yul\":12262:12299   */\n      tag_67\n      jump\t// in\n    tag_233:\n        /* \"#utility.yul\":12364:12382   */\n      0xffffffffffffffff\n        /* \"#utility.yul\":12356:12362   */\n      dup2\n        /* \"#utility.yul\":12353:12383   */\n      gt\n        /* \"#utility.yul\":12350:12406   */\n      iszero\n      tag_234\n      jumpi\n        /* \"#utility.yul\":12386:12404   */\n      tag_235\n      tag_77\n      jump\t// in\n    tag_235:\n        /* \"#utility.yul\":12350:12406   */\n    tag_234:\n        /* \"#utility.yul\":12430:12468   */\n      tag_236\n        /* \"#utility.yul\":12462:12466   */\n      dup3\n        /* \"#utility.yul\":12456:12467   */\n      sload\n        /* \"#utility.yul\":12430:12468   */\n      tag_25\n      jump\t// in\n    tag_236:\n        /* \"#utility.yul\":12515:12582   */\n      tag_237\n        /* \"#utility.yul\":12575:12581   */\n      dup3\n        /* \"#utility.yul\":12567:12573   */\n      dup3\n        /* \"#utility.yul\":12561:12565   */\n      dup6\n        /* \"#utility.yul\":12515:12582   */\n      tag_100\n      jump\t// in\n    tag_237:\n        /* \"#utility.yul\":12609:12610   */\n      0x00\n        /* \"#utility.yul\":12633:12637   */\n      0x20\n        /* \"#utility.yul\":12620:12637   */\n      swap1\n      pop\n        /* \"#utility.yul\":12665:12667   */\n      0x1f\n        /* \"#utility.yul\":12657:12663   */\n      dup4\n        /* \"#utility.yul\":12654:12668   */\n      gt\n        /* \"#utility.yul\":12682:12683   */\n      0x01\n        /* \"#utility.yul\":12677:13295   */\n      dup2\n      eq\n      tag_239\n      jumpi\n        /* \"#utility.yul\":13339:13340   */\n      0x00\n        /* \"#utility.yul\":13356:13362   */\n      dup5\n        /* \"#utility.yul\":13353:13430   */\n      iszero\n      tag_240\n      jumpi\n        /* \"#utility.yul\":13405:13414   */\n      dup3\n        /* \"#utility.yul\":13400:13403   */\n      dup8\n        /* \"#utility.yul\":13396:13415   */\n      add\n        /* \"#utility.yul\":13390:13416   */\n      mload\n        /* \"#utility.yul\":13381:13416   */\n      swap1\n      pop\n        /* \"#utility.yul\":13353:13430   */\n    tag_240:\n        /* \"#utility.yul\":13456:13523   */\n      tag_241\n        /* \"#utility.yul\":13516:13522   */\n      dup6\n        /* \"#utility.yul\":13509:13514   */\n      dup3\n        /* \"#utility.yul\":13456:13523   */\n      tag_103\n      jump\t// in\n    tag_241:\n        /* \"#utility.yul\":13450:13454   */\n      dup7\n        /* \"#utility.yul\":13443:13524   */\n      sstore\n        /* \"#utility.yul\":13312:13534   */\n      pop\n        /* \"#utility.yul\":12647:13534   */\n      jump(tag_238)\n        /* \"#utility.yul\":12677:13295   */\n    tag_239:\n        /* \"#utility.yul\":12729:12733   */\n      0x1f\n        /* \"#utility.yul\":12725:12734   */\n      not\n        /* \"#utility.yul\":12717:12723   */\n      dup5\n        /* \"#utility.yul\":12713:12735   */\n      and\n        /* \"#utility.yul\":12763:12800   */\n      tag_242\n        /* \"#utility.yul\":12795:12799   */\n      dup7\n        /* \"#utility.yul\":12763:12800   */\n      tag_88\n      jump\t// in\n    tag_242:\n        /* \"#utility.yul\":12822:12823   */\n      0x00\n        /* \"#utility.yul\":12836:13044   */\n    tag_243:\n        /* \"#utility.yul\":12850:12857   */\n      dup3\n        /* \"#utility.yul\":12847:12848   */\n      dup2\n        /* \"#utility.yul\":12844:12858   */\n      lt\n        /* \"#utility.yul\":12836:13044   */\n      iszero\n      tag_245\n      jumpi\n        /* \"#utility.yul\":12929:12938   */\n      dup5\n        /* \"#utility.yul\":12924:12927   */\n      dup10\n        /* \"#utility.yul\":12920:12939   */\n      add\n        /* \"#utility.yul\":12914:12940   */\n      mload\n        /* \"#utility.yul\":12906:12912   */\n      dup3\n        /* \"#utility.yul\":12899:12941   */\n      sstore\n        /* \"#utility.yul\":12980:12981   */\n      0x01\n        /* \"#utility.yul\":12972:12978   */\n      dup3\n        /* \"#utility.yul\":12968:12982   */\n      add\n        /* \"#utility.yul\":12958:12982   */\n      swap2\n      pop\n        /* \"#utility.yul\":13027:13029   */\n      0x20\n        /* \"#utility.yul\":13016:13025   */\n      dup6\n        /* \"#utility.yul\":13012:13030   */\n      add\n        /* \"#utility.yul\":12999:13030   */\n      swap5\n      pop\n        /* \"#utility.yul\":12873:12877   */\n      0x20\n        /* \"#utility.yul\":12870:12871   */\n      dup2\n        /* \"#utility.yul\":12866:12878   */\n      add\n        /* \"#utility.yul\":12861:12878   */\n      swap1\n      pop\n        /* \"#utility.yul\":12836:13044   */\n      jump(tag_243)\n    tag_245:\n        /* \"#utility.yul\":13072:13078   */\n      dup7\n        /* \"#utility.yul\":13063:13070   */\n      dup4\n        /* \"#utility.yul\":13060:13079   */\n      lt\n        /* \"#utility.yul\":13057:13236   */\n      iszero\n      tag_246\n      jumpi\n        /* \"#utility.yul\":13130:13139   */\n      dup5\n        /* \"#utility.yul\":13125:13128   */\n      dup10\n        /* \"#utility.yul\":13121:13140   */\n      add\n        /* \"#utility.yul\":13115:13141   */\n      mload\n        /* \"#utility.yul\":13173:13221   */\n      tag_247\n        /* \"#utility.yul\":13215:13219   */\n      0x1f\n        /* \"#utility.yul\":13207:13213   */\n      dup10\n        /* \"#utility.yul\":13203:13220   */\n      and\n        /* \"#utility.yul\":13192:13201   */\n      dup3\n        /* \"#utility.yul\":13173:13221   */\n      tag_102\n      jump\t// in\n    tag_247:\n        /* \"#utility.yul\":13165:13171   */\n      dup4\n        /* \"#utility.yul\":13158:13222   */\n      sstore\n        /* \"#utility.yul\":13080:13236   */\n      pop\n        /* \"#utility.yul\":13057:13236   */\n    tag_246:\n        /* \"#utility.yul\":13282:13283   */\n      0x01\n        /* \"#utility.yul\":13278:13279   */\n      0x02\n        /* \"#utility.yul\":13270:13276   */\n      dup9\n        /* \"#utility.yul\":13266:13280   */\n      mul\n        /* \"#utility.yul\":13262:13284   */\n      add\n        /* \"#utility.yul\":13256:13260   */\n      dup9\n        /* \"#utility.yul\":13249:13285   */\n      sstore\n        /* \"#utility.yul\":12684:13295   */\n      pop\n      pop\n      pop\n        /* \"#utility.yul\":12647:13534   */\n    tag_238:\n      pop\n        /* \"#utility.yul\":12237:13540   */\n      pop\n      pop\n      pop\n        /* \"#utility.yul\":12145:13540   */\n      pop\n      pop\n      jump\t// out\n\n    auxdata: 0xa26469706673582212207093b1c2f463f4c982dd10deee43d83552a9883cf817a08140ae5a762032412964736f6c634300081a0033\n}\n",
				"bytecode": {
					"linkReferences": {},
					"object": "6080604052348015600e575f80fd5b50610ccf8061001c5f395ff3fe608060405234801561000f575f80fd5b506004361061003f575f3560e01c80630f53a4701461004357806352640314146100735780639dd9d0fd1461008f575b5f80fd5b61005d60048036038101906100589190610605565b6100c2565b60405161006a9190610728565b60405180910390f35b61008d60048036038101906100889190610874565b6102e1565b005b6100a960048036038101906100a49190610605565b6103a8565b6040516100b9949392919061096f565b60405180910390f35b6100ca610571565b5f808373ffffffffffffffffffffffffffffffffffffffff1673ffffffffffffffffffffffffffffffffffffffff1681526020019081526020015f206040518060800160405290815f82018054610120906109f4565b80601f016020809104026020016040519081016040528092919081815260200182805461014c906109f4565b80156101975780601f1061016e57610100808354040283529160200191610197565b820191905f5260205f20905b81548152906001019060200180831161017a57829003601f168201915b505050505081526020016001820180546101b0906109f4565b80601f01602080910402602001604051908101604052809291908181526020018280546101dc906109f4565b80156102275780601f106101fe57610100808354040283529160200191610227565b820191905f5260205f20905b81548152906001019060200180831161020a57829003601f168201915b50505050508152602001600282018054610240906109f4565b80601f016020809104026020016040519081016040528092919081815260200182805461026c906109f4565b80156102b75780601f1061028e576101008083540402835291602001916102b7565b820191905f5260205f20905b81548152906001019060200180831161029a57829003601f168201915b50505050508152602001600382015f9054906101000a900460ff1615151515815250509050919050565b6040518060800160405280848152602001838152602001828152602001600115158152505f803373ffffffffffffffffffffffffffffffffffffffff1673ffffffffffffffffffffffffffffffffffffffff1681526020019081526020015f205f820151815f0190816103549190610bca565b50602082015181600101908161036a9190610bca565b5060408201518160020190816103809190610bca565b506060820151816003015f6101000a81548160ff021916908315150217905550905050505050565b5f602052805f5260405f205f91509050805f0180546103c6906109f4565b80601f01602080910402602001604051908101604052809291908181526020018280546103f2906109f4565b801561043d5780601f106104145761010080835404028352916020019161043d565b820191905f5260205f20905b81548152906001019060200180831161042057829003601f168201915b505050505090806001018054610452906109f4565b80601f016020809104026020016040519081016040528092919081815260200182805461047e906109f4565b80156104c95780601f106104a0576101008083540402835291602001916104c9565b820191905f5260205f20905b8154815290600101906020018083116104ac57829003601f168201915b5050505050908060020180546104de906109f4565b80601f016020809104026020016040519081016040528092919081815260200182805461050a906109f4565b80156105555780601f1061052c57610100808354040283529160200191610555565b820191905f5260205f20905b81548152906001019060200180831161053857829003601f168201915b505050505090806003015f9054906101000a900460ff16905084565b60405180608001604052806060815260200160608152602001606081526020015f151581525090565b5f604051905090565b5f80fd5b5f80fd5b5f73ffffffffffffffffffffffffffffffffffffffff82169050919050565b5f6105d4826105ab565b9050919050565b6105e4816105ca565b81146105ee575f80fd5b50565b5f813590506105ff816105db565b92915050565b5f6020828403121561061a576106196105a3565b5b5f610627848285016105f1565b91505092915050565b5f81519050919050565b5f82825260208201905092915050565b8281835e5f83830152505050565b5f601f19601f8301169050919050565b5f61067282610630565b61067c818561063a565b935061068c81856020860161064a565b61069581610658565b840191505092915050565b5f8115159050919050565b6106b4816106a0565b82525050565b5f608083015f8301518482035f8601526106d48282610668565b915050602083015184820360208601526106ee8282610668565b915050604083015184820360408601526107088282610668565b915050606083015161071d60608601826106ab565b508091505092915050565b5f6020820190508181035f83015261074081846106ba565b905092915050565b5f80fd5b5f80fd5b7f4e487b71000000000000000000000000000000000000000000000000000000005f52604160045260245ffd5b61078682610658565b810181811067ffffffffffffffff821117156107a5576107a4610750565b5b80604052505050565b5f6107b761059a565b90506107c3828261077d565b919050565b5f67ffffffffffffffff8211156107e2576107e1610750565b5b6107eb82610658565b9050602081019050919050565b828183375f83830152505050565b5f610818610813846107c8565b6107ae565b9050828152602081018484840111156108345761083361074c565b5b61083f8482856107f8565b509392505050565b5f82601f83011261085b5761085a610748565b5b813561086b848260208601610806565b91505092915050565b5f805f6060848603121561088b5761088a6105a3565b5b5f84013567ffffffffffffffff8111156108a8576108a76105a7565b5b6108b486828701610847565b935050602084013567ffffffffffffffff8111156108d5576108d46105a7565b5b6108e186828701610847565b925050604084013567ffffffffffffffff811115610902576109016105a7565b5b61090e86828701610847565b9150509250925092565b5f82825260208201905092915050565b5f61093282610630565b61093c8185610918565b935061094c81856020860161064a565b61095581610658565b840191505092915050565b610969816106a0565b82525050565b5f6080820190508181035f8301526109878187610928565b9050818103602083015261099b8186610928565b905081810360408301526109af8185610928565b90506109be6060830184610960565b95945050505050565b7f4e487b71000000000000000000000000000000000000000000000000000000005f52602260045260245ffd5b5f6002820490506001821680610a0b57607f821691505b602082108103610a1e57610a1d6109c7565b5b50919050565b5f819050815f5260205f209050919050565b5f6020601f8301049050919050565b5f82821b905092915050565b5f60088302610a807fffffffffffffffffffffffffffffffffffffffffffffffffffffffffffffffff82610a45565b610a8a8683610a45565b95508019841693508086168417925050509392505050565b5f819050919050565b5f819050919050565b5f610ace610ac9610ac484610aa2565b610aab565b610aa2565b9050919050565b5f819050919050565b610ae783610ab4565b610afb610af382610ad5565b848454610a51565b825550505050565b5f90565b610b0f610b03565b610b1a818484610ade565b505050565b5b81811015610b3d57610b325f82610b07565b600181019050610b20565b5050565b601f821115610b8257610b5381610a24565b610b5c84610a36565b81016020851015610b6b578190505b610b7f610b7785610a36565b830182610b1f565b50505b505050565b5f82821c905092915050565b5f610ba25f1984600802610b87565b1980831691505092915050565b5f610bba8383610b93565b9150826002028217905092915050565b610bd382610630565b67ffffffffffffffff811115610bec57610beb610750565b5b610bf682546109f4565b610c01828285610b41565b5f60209050601f831160018114610c32575f8415610c20578287015190505b610c2a8582610baf565b865550610c91565b601f198416610c4086610a24565b5f5b82811015610c6757848901518255600182019150602085019450602081019050610c42565b86831015610c845784890151610c80601f891682610b93565b8355505b6001600288020188555050505b50505050505056fea26469706673582212207093b1c2f463f4c982dd10deee43d83552a9883cf817a08140ae5a762032412964736f6c634300081a0033",
					"opcodes": "PUSH1 0x80 PUSH1 0x40 MSTORE CALLVALUE DUP1 ISZERO PUSH1 0xE JUMPI PUSH0 DUP1 REVERT JUMPDEST POP PUSH2 0xCCF DUP1 PUSH2 0x1C PUSH0 CODECOPY PUSH0 RETURN INVALID PUSH1 0x80 PUSH1 0x40 MSTORE CALLVALUE DUP1 ISZERO PUSH2 0xF JUMPI PUSH0 DUP1 REVERT JUMPDEST POP PUSH1 0x4 CALLDATASIZE LT PUSH2 0x3F JUMPI PUSH0 CALLDATALOAD PUSH1 0xE0 SHR DUP1 PUSH4 0xF53A470 EQ PUSH2 0x43 JUMPI DUP1 PUSH4 0x52640314 EQ PUSH2 0x73 JUMPI DUP1 PUSH4 0x9DD9D0FD EQ PUSH2 0x8F JUMPI JUMPDEST PUSH0 DUP1 REVERT JUMPDEST PUSH2 0x5D PUSH1 0x4 DUP1 CALLDATASIZE SUB DUP2 ADD SWAP1 PUSH2 0x58 SWAP2 SWAP1 PUSH2 0x605 JUMP JUMPDEST PUSH2 0xC2 JUMP JUMPDEST PUSH1 0x40 MLOAD PUSH2 0x6A SWAP2 SWAP1 PUSH2 0x728 JUMP JUMPDEST PUSH1 0x40 MLOAD DUP1 SWAP2 SUB SWAP1 RETURN JUMPDEST PUSH2 0x8D PUSH1 0x4 DUP1 CALLDATASIZE SUB DUP2 ADD SWAP1 PUSH2 0x88 SWAP2 SWAP1 PUSH2 0x874 JUMP JUMPDEST PUSH2 0x2E1 JUMP JUMPDEST STOP JUMPDEST PUSH2 0xA9 PUSH1 0x4 DUP1 CALLDATASIZE SUB DUP2 ADD SWAP1 PUSH2 0xA4 SWAP2 SWAP1 PUSH2 0x605 JUMP JUMPDEST PUSH2 0x3A8 JUMP JUMPDEST PUSH1 0x40 MLOAD PUSH2 0xB9 SWAP5 SWAP4 SWAP3 SWAP2 SWAP1 PUSH2 0x96F JUMP JUMPDEST PUSH1 0x40 MLOAD DUP1 SWAP2 SUB SWAP1 RETURN JUMPDEST PUSH2 0xCA PUSH2 0x571 JUMP JUMPDEST PUSH0 DUP1 DUP4 PUSH20 0xFFFFFFFFFFFFFFFFFFFFFFFFFFFFFFFFFFFFFFFF AND PUSH20 0xFFFFFFFFFFFFFFFFFFFFFFFFFFFFFFFFFFFFFFFF AND DUP2 MSTORE PUSH1 0x20 ADD SWAP1 DUP2 MSTORE PUSH1 0x20 ADD PUSH0 KECCAK256 PUSH1 0x40 MLOAD DUP1 PUSH1 0x80 ADD PUSH1 0x40 MSTORE SWAP1 DUP2 PUSH0 DUP3 ADD DUP1 SLOAD PUSH2 0x120 SWAP1 PUSH2 0x9F4 JUMP JUMPDEST DUP1 PUSH1 0x1F ADD PUSH1 0x20 DUP1 SWAP2 DIV MUL PUSH1 0x20 ADD PUSH1 0x40 MLOAD SWAP1 DUP2 ADD PUSH1 0x40 MSTORE DUP1 SWAP3 SWAP2 SWAP1 DUP2 DUP2 MSTORE PUSH1 0x20 ADD DUP3 DUP1 SLOAD PUSH2 0x14C SWAP1 PUSH2 0x9F4 JUMP JUMPDEST DUP1 ISZERO PUSH2 0x197 JUMPI DUP1 PUSH1 0x1F LT PUSH2 0x16E JUMPI PUSH2 0x100 DUP1 DUP4 SLOAD DIV MUL DUP4 MSTORE SWAP2 PUSH1 0x20 ADD SWAP2 PUSH2 0x197 JUMP JUMPDEST DUP3 ADD SWAP2 SWAP1 PUSH0 MSTORE PUSH1 0x20 PUSH0 KECCAK256 SWAP1 JUMPDEST DUP2 SLOAD DUP2 MSTORE SWAP1 PUSH1 0x1 ADD SWAP1 PUSH1 0x20 ADD DUP1 DUP4 GT PUSH2 0x17A JUMPI DUP3 SWAP1 SUB PUSH1 0x1F AND DUP3 ADD SWAP2 JUMPDEST POP POP POP POP POP DUP2 MSTORE PUSH1 0x20 ADD PUSH1 0x1 DUP3 ADD DUP1 SLOAD PUSH2 0x1B0 SWAP1 PUSH2 0x9F4 JUMP JUMPDEST DUP1 PUSH1 0x1F ADD PUSH1 0x20 DUP1 SWAP2 DIV MUL PUSH1 0x20 ADD PUSH1 0x40 MLOAD SWAP1 DUP2 ADD PUSH1 0x40 MSTORE DUP1 SWAP3 SWAP2 SWAP1 DUP2 DUP2 MSTORE PUSH1 0x20 ADD DUP3 DUP1 SLOAD PUSH2 0x1DC SWAP1 PUSH2 0x9F4 JUMP JUMPDEST DUP1 ISZERO PUSH2 0x227 JUMPI DUP1 PUSH1 0x1F LT PUSH2 0x1FE JUMPI PUSH2 0x100 DUP1 DUP4 SLOAD DIV MUL DUP4 MSTORE SWAP2 PUSH1 0x20 ADD SWAP2 PUSH2 0x227 JUMP JUMPDEST DUP3 ADD SWAP2 SWAP1 PUSH0 MSTORE PUSH1 0x20 PUSH0 KECCAK256 SWAP1 JUMPDEST DUP2 SLOAD DUP2 MSTORE SWAP1 PUSH1 0x1 ADD SWAP1 PUSH1 0x20 ADD DUP1 DUP4 GT PUSH2 0x20A JUMPI DUP3 SWAP1 SUB PUSH1 0x1F AND DUP3 ADD SWAP2 JUMPDEST POP POP POP POP POP DUP2 MSTORE PUSH1 0x20 ADD PUSH1 0x2 DUP3 ADD DUP1 SLOAD PUSH2 0x240 SWAP1 PUSH2 0x9F4 JUMP JUMPDEST DUP1 PUSH1 0x1F ADD PUSH1 0x20 DUP1 SWAP2 DIV MUL PUSH1 0x20 ADD PUSH1 0x40 MLOAD SWAP1 DUP2 ADD PUSH1 0x40 MSTORE DUP1 SWAP3 SWAP2 SWAP1 DUP2 DUP2 MSTORE PUSH1 0x20 ADD DUP3 DUP1 SLOAD PUSH2 0x26C SWAP1 PUSH2 0x9F4 JUMP JUMPDEST DUP1 ISZERO PUSH2 0x2B7 JUMPI DUP1 PUSH1 0x1F LT PUSH2 0x28E JUMPI PUSH2 0x100 DUP1 DUP4 SLOAD DIV MUL DUP4 MSTORE SWAP2 PUSH1 0x20 ADD SWAP2 PUSH2 0x2B7 JUMP JUMPDEST DUP3 ADD SWAP2 SWAP1 PUSH0 MSTORE PUSH1 0x20 PUSH0 KECCAK256 SWAP1 JUMPDEST DUP2 SLOAD DUP2 MSTORE SWAP1 PUSH1 0x1 ADD SWAP1 PUSH1 0x20 ADD DUP1 DUP4 GT PUSH2 0x29A JUMPI DUP3 SWAP1 SUB PUSH1 0x1F AND DUP3 ADD SWAP2 JUMPDEST POP POP POP POP POP DUP2 MSTORE PUSH1 0x20 ADD PUSH1 0x3 DUP3 ADD PUSH0 SWAP1 SLOAD SWAP1 PUSH2 0x100 EXP SWAP1 DIV PUSH1 0xFF AND ISZERO ISZERO ISZERO ISZERO DUP2 MSTORE POP POP SWAP1 POP SWAP2 SWAP1 POP JUMP JUMPDEST PUSH1 0x40 MLOAD DUP1 PUSH1 0x80 ADD PUSH1 0x40 MSTORE DUP1 DUP5 DUP2 MSTORE PUSH1 0x20 ADD DUP4 DUP2 MSTORE PUSH1 0x20 ADD DUP3 DUP2 MSTORE PUSH1 0x20 ADD PUSH1 0x1 ISZERO ISZERO DUP2 MSTORE POP PUSH0 DUP1 CALLER PUSH20 0xFFFFFFFFFFFFFFFFFFFFFFFFFFFFFFFFFFFFFFFF AND PUSH20 0xFFFFFFFFFFFFFFFFFFFFFFFFFFFFFFFFFFFFFFFF AND DUP2 MSTORE PUSH1 0x20 ADD SWAP1 DUP2 MSTORE PUSH1 0x20 ADD PUSH0 KECCAK256 PUSH0 DUP3 ADD MLOAD DUP2 PUSH0 ADD SWAP1 DUP2 PUSH2 0x354 SWAP2 SWAP1 PUSH2 0xBCA JUMP JUMPDEST POP PUSH1 0x20 DUP3 ADD MLOAD DUP2 PUSH1 0x1 ADD SWAP1 DUP2 PUSH2 0x36A SWAP2 SWAP1 PUSH2 0xBCA JUMP JUMPDEST POP PUSH1 0x40 DUP3 ADD MLOAD DUP2 PUSH1 0x2 ADD SWAP1 DUP2 PUSH2 0x380 SWAP2 SWAP1 PUSH2 0xBCA JUMP JUMPDEST POP PUSH1 0x60 DUP3 ADD MLOAD DUP2 PUSH1 0x3 ADD PUSH0 PUSH2 0x100 EXP DUP2 SLOAD DUP2 PUSH1 0xFF MUL NOT AND SWAP1 DUP4 ISZERO ISZERO MUL OR SWAP1 SSTORE POP SWAP1 POP POP POP POP POP JUMP JUMPDEST PUSH0 PUSH1 0x20 MSTORE DUP1 PUSH0 MSTORE PUSH1 0x40 PUSH0 KECCAK256 PUSH0 SWAP2 POP SWAP1 POP DUP1 PUSH0 ADD DUP1 SLOAD PUSH2 0x3C6 SWAP1 PUSH2 0x9F4 JUMP JUMPDEST DUP1 PUSH1 0x1F ADD PUSH1 0x20 DUP1 SWAP2 DIV MUL PUSH1 0x20 ADD PUSH1 0x40 MLOAD SWAP1 DUP2 ADD PUSH1 0x40 MSTORE DUP1 SWAP3 SWAP2 SWAP1 DUP2 DUP2 MSTORE PUSH1 0x20 ADD DUP3 DUP1 SLOAD PUSH2 0x3F2 SWAP1 PUSH2 0x9F4 JUMP JUMPDEST DUP1 ISZERO PUSH2 0x43D JUMPI DUP1 PUSH1 0x1F LT PUSH2 0x414 JUMPI PUSH2 0x100 DUP1 DUP4 SLOAD DIV MUL DUP4 MSTORE SWAP2 PUSH1 0x20 ADD SWAP2 PUSH2 0x43D JUMP JUMPDEST DUP3 ADD SWAP2 SWAP1 PUSH0 MSTORE PUSH1 0x20 PUSH0 KECCAK256 SWAP1 JUMPDEST DUP2 SLOAD DUP2 MSTORE SWAP1 PUSH1 0x1 ADD SWAP1 PUSH1 0x20 ADD DUP1 DUP4 GT PUSH2 0x420 JUMPI DUP3 SWAP1 SUB PUSH1 0x1F AND DUP3 ADD SWAP2 JUMPDEST POP POP POP POP POP SWAP1 DUP1 PUSH1 0x1 ADD DUP1 SLOAD PUSH2 0x452 SWAP1 PUSH2 0x9F4 JUMP JUMPDEST DUP1 PUSH1 0x1F ADD PUSH1 0x20 DUP1 SWAP2 DIV MUL PUSH1 0x20 ADD PUSH1 0x40 MLOAD SWAP1 DUP2 ADD PUSH1 0x40 MSTORE DUP1 SWAP3 SWAP2 SWAP1 DUP2 DUP2 MSTORE PUSH1 0x20 ADD DUP3 DUP1 SLOAD PUSH2 0x47E SWAP1 PUSH2 0x9F4 JUMP JUMPDEST DUP1 ISZERO PUSH2 0x4C9 JUMPI DUP1 PUSH1 0x1F LT PUSH2 0x4A0 JUMPI PUSH2 0x100 DUP1 DUP4 SLOAD DIV MUL DUP4 MSTORE SWAP2 PUSH1 0x20 ADD SWAP2 PUSH2 0x4C9 JUMP JUMPDEST DUP3 ADD SWAP2 SWAP1 PUSH0 MSTORE PUSH1 0x20 PUSH0 KECCAK256 SWAP1 JUMPDEST DUP2 SLOAD DUP2 MSTORE SWAP1 PUSH1 0x1 ADD SWAP1 PUSH1 0x20 ADD DUP1 DUP4 GT PUSH2 0x4AC JUMPI DUP3 SWAP1 SUB PUSH1 0x1F AND DUP3 ADD SWAP2 JUMPDEST POP POP POP POP POP SWAP1 DUP1 PUSH1 0x2 ADD DUP1 SLOAD PUSH2 0x4DE SWAP1 PUSH2 0x9F4 JUMP JUMPDEST DUP1 PUSH1 0x1F ADD PUSH1 0x20 DUP1 SWAP2 DIV MUL PUSH1 0x20 ADD PUSH1 0x40 MLOAD SWAP1 DUP2 ADD PUSH1 0x40 MSTORE DUP1 SWAP3 SWAP2 SWAP1 DUP2 DUP2 MSTORE PUSH1 0x20 ADD DUP3 DUP1 SLOAD PUSH2 0x50A SWAP1 PUSH2 0x9F4 JUMP JUMPDEST DUP1 ISZERO PUSH2 0x555 JUMPI DUP1 PUSH1 0x1F LT PUSH2 0x52C JUMPI PUSH2 0x100 DUP1 DUP4 SLOAD DIV MUL DUP4 MSTORE SWAP2 PUSH1 0x20 ADD SWAP2 PUSH2 0x555 JUMP JUMPDEST DUP3 ADD SWAP2 SWAP1 PUSH0 MSTORE PUSH1 0x20 PUSH0 KECCAK256 SWAP1 JUMPDEST DUP2 SLOAD DUP2 MSTORE SWAP1 PUSH1 0x1 ADD SWAP1 PUSH1 0x20 ADD DUP1 DUP4 GT PUSH2 0x538 JUMPI DUP3 SWAP1 SUB PUSH1 0x1F AND DUP3 ADD SWAP2 JUMPDEST POP POP POP POP POP SWAP1 DUP1 PUSH1 0x3 ADD PUSH0 SWAP1 SLOAD SWAP1 PUSH2 0x100 EXP SWAP1 DIV PUSH1 0xFF AND SWAP1 POP DUP5 JUMP JUMPDEST PUSH1 0x40 MLOAD DUP1 PUSH1 0x80 ADD PUSH1 0x40 MSTORE DUP1 PUSH1 0x60 DUP2 MSTORE PUSH1 0x20 ADD PUSH1 0x60 DUP2 MSTORE PUSH1 0x20 ADD PUSH1 0x60 DUP2 MSTORE PUSH1 0x20 ADD PUSH0 ISZERO ISZERO DUP2 MSTORE POP SWAP1 JUMP JUMPDEST PUSH0 PUSH1 0x40 MLOAD SWAP1 POP SWAP1 JUMP JUMPDEST PUSH0 DUP1 REVERT JUMPDEST PUSH0 DUP1 REVERT JUMPDEST PUSH0 PUSH20 0xFFFFFFFFFFFFFFFFFFFFFFFFFFFFFFFFFFFFFFFF DUP3 AND SWAP1 POP SWAP2 SWAP1 POP JUMP JUMPDEST PUSH0 PUSH2 0x5D4 DUP3 PUSH2 0x5AB JUMP JUMPDEST SWAP1 POP SWAP2 SWAP1 POP JUMP JUMPDEST PUSH2 0x5E4 DUP2 PUSH2 0x5CA JUMP JUMPDEST DUP2 EQ PUSH2 0x5EE JUMPI PUSH0 DUP1 REVERT JUMPDEST POP JUMP JUMPDEST PUSH0 DUP2 CALLDATALOAD SWAP1 POP PUSH2 0x5FF DUP2 PUSH2 0x5DB JUMP JUMPDEST SWAP3 SWAP2 POP POP JUMP JUMPDEST PUSH0 PUSH1 0x20 DUP3 DUP5 SUB SLT ISZERO PUSH2 0x61A JUMPI PUSH2 0x619 PUSH2 0x5A3 JUMP JUMPDEST JUMPDEST PUSH0 PUSH2 0x627 DUP5 DUP3 DUP6 ADD PUSH2 0x5F1 JUMP JUMPDEST SWAP2 POP POP SWAP3 SWAP2 POP POP JUMP JUMPDEST PUSH0 DUP2 MLOAD SWAP1 POP SWAP2 SWAP1 POP JUMP JUMPDEST PUSH0 DUP3 DUP3 MSTORE PUSH1 0x20 DUP3 ADD SWAP1 POP SWAP3 SWAP2 POP POP JUMP JUMPDEST DUP3 DUP2 DUP4 MCOPY PUSH0 DUP4 DUP4 ADD MSTORE POP POP POP JUMP JUMPDEST PUSH0 PUSH1 0x1F NOT PUSH1 0x1F DUP4 ADD AND SWAP1 POP SWAP2 SWAP1 POP JUMP JUMPDEST PUSH0 PUSH2 0x672 DUP3 PUSH2 0x630 JUMP JUMPDEST PUSH2 0x67C DUP2 DUP6 PUSH2 0x63A JUMP JUMPDEST SWAP4 POP PUSH2 0x68C DUP2 DUP6 PUSH1 0x20 DUP7 ADD PUSH2 0x64A JUMP JUMPDEST PUSH2 0x695 DUP2 PUSH2 0x658 JUMP JUMPDEST DUP5 ADD SWAP2 POP POP SWAP3 SWAP2 POP POP JUMP JUMPDEST PUSH0 DUP2 ISZERO ISZERO SWAP1 POP SWAP2 SWAP1 POP JUMP JUMPDEST PUSH2 0x6B4 DUP2 PUSH2 0x6A0 JUMP JUMPDEST DUP3 MSTORE POP POP JUMP JUMPDEST PUSH0 PUSH1 0x80 DUP4 ADD PUSH0 DUP4 ADD MLOAD DUP5 DUP3 SUB PUSH0 DUP7 ADD MSTORE PUSH2 0x6D4 DUP3 DUP3 PUSH2 0x668 JUMP JUMPDEST SWAP2 POP POP PUSH1 0x20 DUP4 ADD MLOAD DUP5 DUP3 SUB PUSH1 0x20 DUP7 ADD MSTORE PUSH2 0x6EE DUP3 DUP3 PUSH2 0x668 JUMP JUMPDEST SWAP2 POP POP PUSH1 0x40 DUP4 ADD MLOAD DUP5 DUP3 SUB PUSH1 0x40 DUP7 ADD MSTORE PUSH2 0x708 DUP3 DUP3 PUSH2 0x668 JUMP JUMPDEST SWAP2 POP POP PUSH1 0x60 DUP4 ADD MLOAD PUSH2 0x71D PUSH1 0x60 DUP7 ADD DUP3 PUSH2 0x6AB JUMP JUMPDEST POP DUP1 SWAP2 POP POP SWAP3 SWAP2 POP POP JUMP JUMPDEST PUSH0 PUSH1 0x20 DUP3 ADD SWAP1 POP DUP2 DUP2 SUB PUSH0 DUP4 ADD MSTORE PUSH2 0x740 DUP2 DUP5 PUSH2 0x6BA JUMP JUMPDEST SWAP1 POP SWAP3 SWAP2 POP POP JUMP JUMPDEST PUSH0 DUP1 REVERT JUMPDEST PUSH0 DUP1 REVERT JUMPDEST PUSH32 0x4E487B7100000000000000000000000000000000000000000000000000000000 PUSH0 MSTORE PUSH1 0x41 PUSH1 0x4 MSTORE PUSH1 0x24 PUSH0 REVERT JUMPDEST PUSH2 0x786 DUP3 PUSH2 0x658 JUMP JUMPDEST DUP2 ADD DUP2 DUP2 LT PUSH8 0xFFFFFFFFFFFFFFFF DUP3 GT OR ISZERO PUSH2 0x7A5 JUMPI PUSH2 0x7A4 PUSH2 0x750 JUMP JUMPDEST JUMPDEST DUP1 PUSH1 0x40 MSTORE POP POP POP JUMP JUMPDEST PUSH0 PUSH2 0x7B7 PUSH2 0x59A JUMP JUMPDEST SWAP1 POP PUSH2 0x7C3 DUP3 DUP3 PUSH2 0x77D JUMP JUMPDEST SWAP2 SWAP1 POP JUMP JUMPDEST PUSH0 PUSH8 0xFFFFFFFFFFFFFFFF DUP3 GT ISZERO PUSH2 0x7E2 JUMPI PUSH2 0x7E1 PUSH2 0x750 JUMP JUMPDEST JUMPDEST PUSH2 0x7EB DUP3 PUSH2 0x658 JUMP JUMPDEST SWAP1 POP PUSH1 0x20 DUP2 ADD SWAP1 POP SWAP2 SWAP1 POP JUMP JUMPDEST DUP3 DUP2 DUP4 CALLDATACOPY PUSH0 DUP4 DUP4 ADD MSTORE POP POP POP JUMP JUMPDEST PUSH0 PUSH2 0x818 PUSH2 0x813 DUP5 PUSH2 0x7C8 JUMP JUMPDEST PUSH2 0x7AE JUMP JUMPDEST SWAP1 POP DUP3 DUP2 MSTORE PUSH1 0x20 DUP2 ADD DUP5 DUP5 DUP5 ADD GT ISZERO PUSH2 0x834 JUMPI PUSH2 0x833 PUSH2 0x74C JUMP JUMPDEST JUMPDEST PUSH2 0x83F DUP5 DUP3 DUP6 PUSH2 0x7F8 JUMP JUMPDEST POP SWAP4 SWAP3 POP POP POP JUMP JUMPDEST PUSH0 DUP3 PUSH1 0x1F DUP4 ADD SLT PUSH2 0x85B JUMPI PUSH2 0x85A PUSH2 0x748 JUMP JUMPDEST JUMPDEST DUP2 CALLDATALOAD PUSH2 0x86B DUP5 DUP3 PUSH1 0x20 DUP7 ADD PUSH2 0x806 JUMP JUMPDEST SWAP2 POP POP SWAP3 SWAP2 POP POP JUMP JUMPDEST PUSH0 DUP1 PUSH0 PUSH1 0x60 DUP5 DUP7 SUB SLT ISZERO PUSH2 0x88B JUMPI PUSH2 0x88A PUSH2 0x5A3 JUMP JUMPDEST JUMPDEST PUSH0 DUP5 ADD CALLDATALOAD PUSH8 0xFFFFFFFFFFFFFFFF DUP2 GT ISZERO PUSH2 0x8A8 JUMPI PUSH2 0x8A7 PUSH2 0x5A7 JUMP JUMPDEST JUMPDEST PUSH2 0x8B4 DUP7 DUP3 DUP8 ADD PUSH2 0x847 JUMP JUMPDEST SWAP4 POP POP PUSH1 0x20 DUP5 ADD CALLDATALOAD PUSH8 0xFFFFFFFFFFFFFFFF DUP2 GT ISZERO PUSH2 0x8D5 JUMPI PUSH2 0x8D4 PUSH2 0x5A7 JUMP JUMPDEST JUMPDEST PUSH2 0x8E1 DUP7 DUP3 DUP8 ADD PUSH2 0x847 JUMP JUMPDEST SWAP3 POP POP PUSH1 0x40 DUP5 ADD CALLDATALOAD PUSH8 0xFFFFFFFFFFFFFFFF DUP2 GT ISZERO PUSH2 0x902 JUMPI PUSH2 0x901 PUSH2 0x5A7 JUMP JUMPDEST JUMPDEST PUSH2 0x90E DUP7 DUP3 DUP8 ADD PUSH2 0x847 JUMP JUMPDEST SWAP2 POP POP SWAP3 POP SWAP3 POP SWAP3 JUMP JUMPDEST PUSH0 DUP3 DUP3 MSTORE PUSH1 0x20 DUP3 ADD SWAP1 POP SWAP3 SWAP2 POP POP JUMP JUMPDEST PUSH0 PUSH2 0x932 DUP3 PUSH2 0x630 JUMP JUMPDEST PUSH2 0x93C DUP2 DUP6 PUSH2 0x918 JUMP JUMPDEST SWAP4 POP PUSH2 0x94C DUP2 DUP6 PUSH1 0x20 DUP7 ADD PUSH2 0x64A JUMP JUMPDEST PUSH2 0x955 DUP2 PUSH2 0x658 JUMP JUMPDEST DUP5 ADD SWAP2 POP POP SWAP3 SWAP2 POP POP JUMP JUMPDEST PUSH2 0x969 DUP2 PUSH2 0x6A0 JUMP JUMPDEST DUP3 MSTORE POP POP JUMP JUMPDEST PUSH0 PUSH1 0x80 DUP3 ADD SWAP1 POP DUP2 DUP2 SUB PUSH0 DUP4 ADD MSTORE PUSH2 0x987 DUP2 DUP8 PUSH2 0x928 JUMP JUMPDEST SWAP1 POP DUP2 DUP2 SUB PUSH1 0x20 DUP4 ADD MSTORE PUSH2 0x99B DUP2 DUP7 PUSH2 0x928 JUMP JUMPDEST SWAP1 POP DUP2 DUP2 SUB PUSH1 0x40 DUP4 ADD MSTORE PUSH2 0x9AF DUP2 DUP6 PUSH2 0x928 JUMP JUMPDEST SWAP1 POP PUSH2 0x9BE PUSH1 0x60 DUP4 ADD DUP5 PUSH2 0x960 JUMP JUMPDEST SWAP6 SWAP5 POP POP POP POP POP JUMP JUMPDEST PUSH32 0x4E487B7100000000000000000000000000000000000000000000000000000000 PUSH0 MSTORE PUSH1 0x22 PUSH1 0x4 MSTORE PUSH1 0x24 PUSH0 REVERT JUMPDEST PUSH0 PUSH1 0x2 DUP3 DIV SWAP1 POP PUSH1 0x1 DUP3 AND DUP1 PUSH2 0xA0B JUMPI PUSH1 0x7F DUP3 AND SWAP2 POP JUMPDEST PUSH1 0x20 DUP3 LT DUP2 SUB PUSH2 0xA1E JUMPI PUSH2 0xA1D PUSH2 0x9C7 JUMP JUMPDEST JUMPDEST POP SWAP2 SWAP1 POP JUMP JUMPDEST PUSH0 DUP2 SWAP1 POP DUP2 PUSH0 MSTORE PUSH1 0x20 PUSH0 KECCAK256 SWAP1 POP SWAP2 SWAP1 POP JUMP JUMPDEST PUSH0 PUSH1 0x20 PUSH1 0x1F DUP4 ADD DIV SWAP1 POP SWAP2 SWAP1 POP JUMP JUMPDEST PUSH0 DUP3 DUP3 SHL SWAP1 POP SWAP3 SWAP2 POP POP JUMP JUMPDEST PUSH0 PUSH1 0x8 DUP4 MUL PUSH2 0xA80 PUSH32 0xFFFFFFFFFFFFFFFFFFFFFFFFFFFFFFFFFFFFFFFFFFFFFFFFFFFFFFFFFFFFFFFF DUP3 PUSH2 0xA45 JUMP JUMPDEST PUSH2 0xA8A DUP7 DUP4 PUSH2 0xA45 JUMP JUMPDEST SWAP6 POP DUP1 NOT DUP5 AND SWAP4 POP DUP1 DUP7 AND DUP5 OR SWAP3 POP POP POP SWAP4 SWAP3 POP POP POP JUMP JUMPDEST PUSH0 DUP2 SWAP1 POP SWAP2 SWAP1 POP JUMP JUMPDEST PUSH0 DUP2 SWAP1 POP SWAP2 SWAP1 POP JUMP JUMPDEST PUSH0 PUSH2 0xACE PUSH2 0xAC9 PUSH2 0xAC4 DUP5 PUSH2 0xAA2 JUMP JUMPDEST PUSH2 0xAAB JUMP JUMPDEST PUSH2 0xAA2 JUMP JUMPDEST SWAP1 POP SWAP2 SWAP1 POP JUMP JUMPDEST PUSH0 DUP2 SWAP1 POP SWAP2 SWAP1 POP JUMP JUMPDEST PUSH2 0xAE7 DUP4 PUSH2 0xAB4 JUMP JUMPDEST PUSH2 0xAFB PUSH2 0xAF3 DUP3 PUSH2 0xAD5 JUMP JUMPDEST DUP5 DUP5 SLOAD PUSH2 0xA51 JUMP JUMPDEST DUP3 SSTORE POP POP POP POP JUMP JUMPDEST PUSH0 SWAP1 JUMP JUMPDEST PUSH2 0xB0F PUSH2 0xB03 JUMP JUMPDEST PUSH2 0xB1A DUP2 DUP5 DUP5 PUSH2 0xADE JUMP JUMPDEST POP POP POP JUMP JUMPDEST JUMPDEST DUP2 DUP2 LT ISZERO PUSH2 0xB3D JUMPI PUSH2 0xB32 PUSH0 DUP3 PUSH2 0xB07 JUMP JUMPDEST PUSH1 0x1 DUP2 ADD SWAP1 POP PUSH2 0xB20 JUMP JUMPDEST POP POP JUMP JUMPDEST PUSH1 0x1F DUP3 GT ISZERO PUSH2 0xB82 JUMPI PUSH2 0xB53 DUP2 PUSH2 0xA24 JUMP JUMPDEST PUSH2 0xB5C DUP5 PUSH2 0xA36 JUMP JUMPDEST DUP2 ADD PUSH1 0x20 DUP6 LT ISZERO PUSH2 0xB6B JUMPI DUP2 SWAP1 POP JUMPDEST PUSH2 0xB7F PUSH2 0xB77 DUP6 PUSH2 0xA36 JUMP JUMPDEST DUP4 ADD DUP3 PUSH2 0xB1F JUMP JUMPDEST POP POP JUMPDEST POP POP POP JUMP JUMPDEST PUSH0 DUP3 DUP3 SHR SWAP1 POP SWAP3 SWAP2 POP POP JUMP JUMPDEST PUSH0 PUSH2 0xBA2 PUSH0 NOT DUP5 PUSH1 0x8 MUL PUSH2 0xB87 JUMP JUMPDEST NOT DUP1 DUP4 AND SWAP2 POP POP SWAP3 SWAP2 POP POP JUMP JUMPDEST PUSH0 PUSH2 0xBBA DUP4 DUP4 PUSH2 0xB93 JUMP JUMPDEST SWAP2 POP DUP3 PUSH1 0x2 MUL DUP3 OR SWAP1 POP SWAP3 SWAP2 POP POP JUMP JUMPDEST PUSH2 0xBD3 DUP3 PUSH2 0x630 JUMP JUMPDEST PUSH8 0xFFFFFFFFFFFFFFFF DUP2 GT ISZERO PUSH2 0xBEC JUMPI PUSH2 0xBEB PUSH2 0x750 JUMP JUMPDEST JUMPDEST PUSH2 0xBF6 DUP3 SLOAD PUSH2 0x9F4 JUMP JUMPDEST PUSH2 0xC01 DUP3 DUP3 DUP6 PUSH2 0xB41 JUMP JUMPDEST PUSH0 PUSH1 0x20 SWAP1 POP PUSH1 0x1F DUP4 GT PUSH1 0x1 DUP2 EQ PUSH2 0xC32 JUMPI PUSH0 DUP5 ISZERO PUSH2 0xC20 JUMPI DUP3 DUP8 ADD MLOAD SWAP1 POP JUMPDEST PUSH2 0xC2A DUP6 DUP3 PUSH2 0xBAF JUMP JUMPDEST DUP7 SSTORE POP PUSH2 0xC91 JUMP JUMPDEST PUSH1 0x1F NOT DUP5 AND PUSH2 0xC40 DUP7 PUSH2 0xA24 JUMP JUMPDEST PUSH0 JUMPDEST DUP3 DUP2 LT ISZERO PUSH2 0xC67 JUMPI DUP5 DUP10 ADD MLOAD DUP3 SSTORE PUSH1 0x1 DUP3 ADD SWAP2 POP PUSH1 0x20 DUP6 ADD SWAP5 POP PUSH1 0x20 DUP2 ADD SWAP1 POP PUSH2 0xC42 JUMP JUMPDEST DUP7 DUP4 LT ISZERO PUSH2 0xC84 JUMPI DUP5 DUP10 ADD MLOAD PUSH2 0xC80 PUSH1 0x1F DUP10 AND DUP3 PUSH2 0xB93 JUMP JUMPDEST DUP4 SSTORE POP JUMPDEST PUSH1 0x1 PUSH1 0x2 DUP9 MUL ADD DUP9 SSTORE POP POP POP JUMPDEST POP POP POP POP POP POP JUMP INVALID LOG2 PUSH5 0x6970667358 0x22 SLT KECCAK256 PUSH17 0x93B1C2F463F4C982DD10DEEE43D83552A9 DUP9 EXTCODECOPY 0xF8 OR LOG0 DUP2 BLOCKHASH 0xAE GAS PUSH23 0x2032412964736F6C634300081A00330000000000000000 "
				},
				"gasEstimates": {
					"creation": {
						"codeDepositCost": "655800",
						"executionCost": "687",
						"totalCost": "656487"
					},
					"external": {
						"getProfile(address)": "infinite",
						"profile(address)": "infinite",
						"setProfile(string,string,string)": "infinite"
					}
				},
				"methodIdentifiers": {
					"getProfile(address)": "0f53a470",
					"profile(address)": "9dd9d0fd",
					"setProfile(string,string,string)": "52640314"
				}
			},
			"storageLayout": {
				"storage": [
					{
						"astId": 15,
						"contract": "contracts/VotingProfile.sol:VotingProfile",
						"label": "profile",
						"offset": 0,
						"slot": "0",
						"type": "t_mapping(t_address,t_struct(UserProfile)10_storage)"
					}
				],
				"types": {
					"t_address": {
						"encoding": "inplace",
						"label": "address",
						"numberOfBytes": "20"
					},
					"t_bool": {
						"encoding": "inplace",
						"label": "bool",
						"numberOfBytes": "1"
					},
					"t_mapping(t_address,t_struct(UserProfile)10_storage)": {
						"encoding": "mapping",
						"key": "t_address",
						"label": "mapping(address => struct VotingProfile.UserProfile)",
						"numberOfBytes": "32",
						"value": "t_struct(UserProfile)10_storage"
					},
					"t_string_storage": {
						"encoding": "bytes",
						"label": "string",
						"numberOfBytes": "32"
					},
					"t_struct(UserProfile)10_storage": {
						"encoding": "inplace",
						"label": "struct VotingProfile.UserProfile",
						"members": [
							{
								"astId": 3,
								"contract": "contracts/VotingProfile.sol:VotingProfile",
								"label": "username",
								"offset": 0,
								"slot": "0",
								"type": "t_string_storage"
							},
							{
								"astId": 5,
								"contract": "contracts/VotingProfile.sol:VotingProfile",
								"label": "bio",
								"offset": 0,
								"slot": "1",
								"type": "t_string_storage"
							},
							{
								"astId": 7,
								"contract": "contracts/VotingProfile.sol:VotingProfile",
								"label": "imgUrl",
								"offset": 0,
								"slot": "2",
								"type": "t_string_storage"
							},
							{
								"astId": 9,
								"contract": "contracts/VotingProfile.sol:VotingProfile",
								"label": "isRegistered",
								"offset": 0,
								"slot": "3",
								"type": "t_bool"
							}
						],
						"numberOfBytes": "128"
					}
				}
			},
			"userdoc": {
				"kind": "user",
				"methods": {},
				"version": 1
			}
		}
	}
}