{
	"contracts/VotingProfile.sol": {
		"VotingProfile": {
			"abi": [
				{
					"inputs": [
						{
							"internalType": "address",
							"name": "_user",
							"type": "address"
						}
					],
					"name": "getProfile",
					"outputs": [
						{
							"components": [
								{
									"internalType": "string",
									"name": "username",
									"type": "string"
								},
								{
									"internalType": "string",
									"name": "bio",
									"type": "string"
								},
								{
									"internalType": "bool",
									"name": "isRegistered",
									"type": "bool"
								}
							],
							"internalType": "struct VotingProfile.UserProfile",
							"name": "",
							"type": "tuple"
						}
					],
					"stateMutability": "view",
					"type": "function"
				},
				{
					"inputs": [
						{
							"internalType": "address",
							"name": "",
							"type": "address"
						}
					],
					"name": "profile",
					"outputs": [
						{
							"internalType": "string",
							"name": "username",
							"type": "string"
						},
						{
							"internalType": "string",
							"name": "bio",
							"type": "string"
						},
						{
							"internalType": "bool",
							"name": "isRegistered",
							"type": "bool"
						}
					],
					"stateMutability": "view",
					"type": "function"
				},
				{
					"inputs": [
						{
							"internalType": "string",
							"name": "_username",
							"type": "string"
						},
						{
							"internalType": "string",
							"name": "_bio",
							"type": "string"
						}
					],
					"name": "setProfile",
					"outputs": [],
					"stateMutability": "nonpayable",
					"type": "function"
				}
			],
			"devdoc": {
				"kind": "dev",
				"methods": {},
				"version": 1
			},
			"evm": {
				"assembly": "    /* \"contracts/VotingProfile.sol\":58:509  contract VotingProfile {... */\n  mstore(0x40, 0x80)\n  callvalue\n  dup1\n  iszero\n  tag_1\n  jumpi\n  0x00\n  dup1\n  revert\ntag_1:\n  pop\n  dataSize(sub_0)\n  dup1\n  dataOffset(sub_0)\n  0x00\n  codecopy\n  0x00\n  return\nstop\n\nsub_0: assembly {\n        /* \"contracts/VotingProfile.sol\":58:509  contract VotingProfile {... */\n      mstore(0x40, 0x80)\n      callvalue\n      dup1\n      iszero\n      tag_1\n      jumpi\n      0x00\n      dup1\n      revert\n    tag_1:\n      pop\n      jumpi(tag_2, lt(calldatasize, 0x04))\n      shr(0xe0, calldataload(0x00))\n      dup1\n      0x0f53a470\n      eq\n      tag_3\n      jumpi\n      dup1\n      0x719e37ae\n      eq\n      tag_4\n      jumpi\n      dup1\n      0x9dd9d0fd\n      eq\n      tag_5\n      jumpi\n    tag_2:\n      0x00\n      dup1\n      revert\n        /* \"contracts/VotingProfile.sol\":394:507  function getProfile(address _user) public view returns(UserProfile memory){... */\n    tag_3:\n      tag_6\n      0x04\n      dup1\n      calldatasize\n      sub\n      dup2\n      add\n      swap1\n      tag_7\n      swap2\n      swap1\n      tag_8\n      jump\t// in\n    tag_7:\n      tag_9\n      jump\t// in\n    tag_6:\n      mload(0x40)\n      tag_10\n      swap2\n      swap1\n      tag_11\n      jump\t// in\n    tag_10:\n      mload(0x40)\n      dup1\n      swap2\n      sub\n      swap1\n      return\n        /* \"contracts/VotingProfile.sol\":243:388  function setProfile(string memory _username, string memory _bio) public {... */\n    tag_4:\n      tag_12\n      0x04\n      dup1\n      calldatasize\n      sub\n      dup2\n      add\n      swap1\n      tag_13\n      swap2\n      swap1\n      tag_14\n      jump\t// in\n    tag_13:\n      tag_15\n      jump\t// in\n    tag_12:\n      stop\n        /* \"contracts/VotingProfile.sol\":190:236  mapping(address => UserProfile) public profile */\n    tag_5:\n      tag_16\n      0x04\n      dup1\n      calldatasize\n      sub\n      dup2\n      add\n      swap1\n      tag_17\n      swap2\n      swap1\n      tag_8\n      jump\t// in\n    tag_17:\n      tag_18\n      jump\t// in\n    tag_16:\n      mload(0x40)\n      tag_19\n      swap4\n      swap3\n      swap2\n      swap1\n      tag_20\n      jump\t// in\n    tag_19:\n      mload(0x40)\n      dup1\n      swap2\n      sub\n      swap1\n      return\n        /* \"contracts/VotingProfile.sol\":394:507  function getProfile(address _user) public view returns(UserProfile memory){... */\n    tag_9:\n        /* \"contracts/VotingProfile.sol\":449:467  UserProfile memory */\n      tag_21\n      tag_22\n      jump\t// in\n    tag_21:\n        /* \"contracts/VotingProfile.sol\":486:493  profile */\n      0x00\n        /* \"contracts/VotingProfile.sol\":486:500  profile[_user] */\n      dup1\n        /* \"contracts/VotingProfile.sol\":494:499  _user */\n      dup4\n        /* \"contracts/VotingProfile.sol\":486:500  profile[_user] */\n      0xffffffffffffffffffffffffffffffffffffffff\n      and\n      0xffffffffffffffffffffffffffffffffffffffff\n      and\n      dup2\n      mstore\n      0x20\n      add\n      swap1\n      dup2\n      mstore\n      0x20\n      add\n      0x00\n      keccak256\n        /* \"contracts/VotingProfile.sol\":478:500  return  profile[_user] */\n      mload(0x40)\n      dup1\n      0x60\n      add\n      0x40\n      mstore\n      swap1\n      dup2\n      0x00\n      dup3\n      add\n      dup1\n      sload\n      tag_24\n      swap1\n      tag_25\n      jump\t// in\n    tag_24:\n      dup1\n      0x1f\n      add\n      0x20\n      dup1\n      swap2\n      div\n      mul\n      0x20\n      add\n      mload(0x40)\n      swap1\n      dup2\n      add\n      0x40\n      mstore\n      dup1\n      swap3\n      swap2\n      swap1\n      dup2\n      dup2\n      mstore\n      0x20\n      add\n      dup3\n      dup1\n      sload\n      tag_26\n      swap1\n      tag_25\n      jump\t// in\n    tag_26:\n      dup1\n      iszero\n      tag_27\n      jumpi\n      dup1\n      0x1f\n      lt\n      tag_28\n      jumpi\n      0x0100\n      dup1\n      dup4\n      sload\n      div\n      mul\n      dup4\n      mstore\n      swap2\n      0x20\n      add\n      swap2\n      jump(tag_27)\n    tag_28:\n      dup3\n      add\n      swap2\n      swap1\n      0x00\n      mstore\n      keccak256(0x00, 0x20)\n      swap1\n    tag_29:\n      dup2\n      sload\n      dup2\n      mstore\n      swap1\n      0x01\n      add\n      swap1\n      0x20\n      add\n      dup1\n      dup4\n      gt\n      tag_29\n      jumpi\n      dup3\n      swap1\n      sub\n      0x1f\n      and\n      dup3\n      add\n      swap2\n    tag_27:\n      pop\n      pop\n      pop\n      pop\n      pop\n      dup2\n      mstore\n      0x20\n      add\n      0x01\n      dup3\n      add\n      dup1\n      sload\n      tag_30\n      swap1\n      tag_25\n      jump\t// in\n    tag_30:\n      dup1\n      0x1f\n      add\n      0x20\n      dup1\n      swap2\n      div\n      mul\n      0x20\n      add\n      mload(0x40)\n      swap1\n      dup2\n      add\n      0x40\n      mstore\n      dup1\n      swap3\n      swap2\n      swap1\n      dup2\n      dup2\n      mstore\n      0x20\n      add\n      dup3\n      dup1\n      sload\n      tag_31\n      swap1\n      tag_25\n      jump\t// in\n    tag_31:\n      dup1\n      iszero\n      tag_32\n      jumpi\n      dup1\n      0x1f\n      lt\n      tag_33\n      jumpi\n      0x0100\n      dup1\n      dup4\n      sload\n      div\n      mul\n      dup4\n      mstore\n      swap2\n      0x20\n      add\n      swap2\n      jump(tag_32)\n    tag_33:\n      dup3\n      add\n      swap2\n      swap1\n      0x00\n      mstore\n      keccak256(0x00, 0x20)\n      swap1\n    tag_34:\n      dup2\n      sload\n      dup2\n      mstore\n      swap1\n      0x01\n      add\n      swap1\n      0x20\n      add\n      dup1\n      dup4\n      gt\n      tag_34\n      jumpi\n      dup3\n      swap1\n      sub\n      0x1f\n      and\n      dup3\n      add\n      swap2\n    tag_32:\n      pop\n      pop\n      pop\n      pop\n      pop\n      dup2\n      mstore\n      0x20\n      add\n      0x02\n      dup3\n      add\n      0x00\n      swap1\n      sload\n      swap1\n      0x0100\n      exp\n      swap1\n      div\n      0xff\n      and\n      iszero\n      iszero\n      iszero\n      iszero\n      dup2\n      mstore\n      pop\n      pop\n      swap1\n      pop\n        /* \"contracts/VotingProfile.sol\":394:507  function getProfile(address _user) public view returns(UserProfile memory){... */\n      swap2\n      swap1\n      pop\n      jump\t// out\n        /* \"contracts/VotingProfile.sol\":243:388  function setProfile(string memory _username, string memory _bio) public {... */\n    tag_15:\n        /* \"contracts/VotingProfile.sol\":347:381  UserProfile(_username, _bio, true) */\n      mload(0x40)\n      dup1\n      0x60\n      add\n      0x40\n      mstore\n      dup1\n        /* \"contracts/VotingProfile.sol\":359:368  _username */\n      dup4\n        /* \"contracts/VotingProfile.sol\":347:381  UserProfile(_username, _bio, true) */\n      dup2\n      mstore\n      0x20\n      add\n        /* \"contracts/VotingProfile.sol\":370:374  _bio */\n      dup3\n        /* \"contracts/VotingProfile.sol\":347:381  UserProfile(_username, _bio, true) */\n      dup2\n      mstore\n      0x20\n      add\n        /* \"contracts/VotingProfile.sol\":376:380  true */\n      0x01\n        /* \"contracts/VotingProfile.sol\":347:381  UserProfile(_username, _bio, true) */\n      iszero\n      iszero\n      dup2\n      mstore\n      pop\n        /* \"contracts/VotingProfile.sol\":325:332  profile */\n      0x00\n        /* \"contracts/VotingProfile.sol\":325:344  profile[msg.sender] */\n      dup1\n        /* \"contracts/VotingProfile.sol\":333:343  msg.sender */\n      caller\n        /* \"contracts/VotingProfile.sol\":325:344  profile[msg.sender] */\n      0xffffffffffffffffffffffffffffffffffffffff\n      and\n      0xffffffffffffffffffffffffffffffffffffffff\n      and\n      dup2\n      mstore\n      0x20\n      add\n      swap1\n      dup2\n      mstore\n      0x20\n      add\n      0x00\n      keccak256\n        /* \"contracts/VotingProfile.sol\":325:381  profile[msg.sender] = UserProfile(_username, _bio, true) */\n      0x00\n      dup3\n      add\n      mload\n      dup2\n      0x00\n      add\n      swap1\n      dup2\n      tag_36\n      swap2\n      swap1\n      tag_37\n      jump\t// in\n    tag_36:\n      pop\n      0x20\n      dup3\n      add\n      mload\n      dup2\n      0x01\n      add\n      swap1\n      dup2\n      tag_38\n      swap2\n      swap1\n      tag_37\n      jump\t// in\n    tag_38:\n      pop\n      0x40\n      dup3\n      add\n      mload\n      dup2\n      0x02\n      add\n      exp(0x0100, 0x00)\n      dup2\n      sload\n      dup2\n      0xff\n      mul\n      not\n      and\n      swap1\n      dup4\n      iszero\n      iszero\n      mul\n      or\n      swap1\n      sstore\n      pop\n      swap1\n      pop\n      pop\n        /* \"contracts/VotingProfile.sol\":243:388  function setProfile(string memory _username, string memory _bio) public {... */\n      pop\n      pop\n      jump\t// out\n        /* \"contracts/VotingProfile.sol\":190:236  mapping(address => UserProfile) public profile */\n    tag_18:\n      mstore(0x20, 0x00)\n      dup1\n      0x00\n      mstore\n      keccak256(0x00, 0x40)\n      0x00\n      swap2\n      pop\n      swap1\n      pop\n      dup1\n      0x00\n      add\n      dup1\n      sload\n      tag_39\n      swap1\n      tag_25\n      jump\t// in\n    tag_39:\n      dup1\n      0x1f\n      add\n      0x20\n      dup1\n      swap2\n      div\n      mul\n      0x20\n      add\n      mload(0x40)\n      swap1\n      dup2\n      add\n      0x40\n      mstore\n      dup1\n      swap3\n      swap2\n      swap1\n      dup2\n      dup2\n      mstore\n      0x20\n      add\n      dup3\n      dup1\n      sload\n      tag_40\n      swap1\n      tag_25\n      jump\t// in\n    tag_40:\n      dup1\n      iszero\n      tag_41\n      jumpi\n      dup1\n      0x1f\n      lt\n      tag_42\n      jumpi\n      0x0100\n      dup1\n      dup4\n      sload\n      div\n      mul\n      dup4\n      mstore\n      swap2\n      0x20\n      add\n      swap2\n      jump(tag_41)\n    tag_42:\n      dup3\n      add\n      swap2\n      swap1\n      0x00\n      mstore\n      keccak256(0x00, 0x20)\n      swap1\n    tag_43:\n      dup2\n      sload\n      dup2\n      mstore\n      swap1\n      0x01\n      add\n      swap1\n      0x20\n      add\n      dup1\n      dup4\n      gt\n      tag_43\n      jumpi\n      dup3\n      swap1\n      sub\n      0x1f\n      and\n      dup3\n      add\n      swap2\n    tag_41:\n      pop\n      pop\n      pop\n      pop\n      pop\n      swap1\n      dup1\n      0x01\n      add\n      dup1\n      sload\n      tag_44\n      swap1\n      tag_25\n      jump\t// in\n    tag_44:\n      dup1\n      0x1f\n      add\n      0x20\n      dup1\n      swap2\n      div\n      mul\n      0x20\n      add\n      mload(0x40)\n      swap1\n      dup2\n      add\n      0x40\n      mstore\n      dup1\n      swap3\n      swap2\n      swap1\n      dup2\n      dup2\n      mstore\n      0x20\n      add\n      dup3\n      dup1\n      sload\n      tag_45\n      swap1\n      tag_25\n      jump\t// in\n    tag_45:\n      dup1\n      iszero\n      tag_46\n      jumpi\n      dup1\n      0x1f\n      lt\n      tag_47\n      jumpi\n      0x0100\n      dup1\n      dup4\n      sload\n      div\n      mul\n      dup4\n      mstore\n      swap2\n      0x20\n      add\n      swap2\n      jump(tag_46)\n    tag_47:\n      dup3\n      add\n      swap2\n      swap1\n      0x00\n      mstore\n      keccak256(0x00, 0x20)\n      swap1\n    tag_48:\n      dup2\n      sload\n      dup2\n      mstore\n      swap1\n      0x01\n      add\n      swap1\n      0x20\n      add\n      dup1\n      dup4\n      gt\n      tag_48\n      jumpi\n      dup3\n      swap1\n      sub\n      0x1f\n      and\n      dup3\n      add\n      swap2\n    tag_46:\n      pop\n      pop\n      pop\n      pop\n      pop\n      swap1\n      dup1\n      0x02\n      add\n      0x00\n      swap1\n      sload\n      swap1\n      0x0100\n      exp\n      swap1\n      div\n      0xff\n      and\n      swap1\n      pop\n      dup4\n      jump\t// out\n    tag_22:\n      mload(0x40)\n      dup1\n      0x60\n      add\n      0x40\n      mstore\n      dup1\n      0x60\n      dup2\n      mstore\n      0x20\n      add\n      0x60\n      dup2\n      mstore\n      0x20\n      add\n      iszero(iszero(0x00))\n      dup2\n      mstore\n      pop\n      swap1\n      jump\t// out\n        /* \"#utility.yul\":7:82   */\n    tag_49:\n        /* \"#utility.yul\":40:46   */\n      0x00\n        /* \"#utility.yul\":73:75   */\n      0x40\n        /* \"#utility.yul\":67:76   */\n      mload\n        /* \"#utility.yul\":57:76   */\n      swap1\n      pop\n        /* \"#utility.yul\":7:82   */\n      swap1\n      jump\t// out\n        /* \"#utility.yul\":88:205   */\n    tag_50:\n        /* \"#utility.yul\":197:198   */\n      0x00\n        /* \"#utility.yul\":194:195   */\n      dup1\n        /* \"#utility.yul\":187:199   */\n      revert\n        /* \"#utility.yul\":211:328   */\n    tag_51:\n        /* \"#utility.yul\":320:321   */\n      0x00\n        /* \"#utility.yul\":317:318   */\n      dup1\n        /* \"#utility.yul\":310:322   */\n      revert\n        /* \"#utility.yul\":334:460   */\n    tag_52:\n        /* \"#utility.yul\":371:378   */\n      0x00\n        /* \"#utility.yul\":411:453   */\n      0xffffffffffffffffffffffffffffffffffffffff\n        /* \"#utility.yul\":404:409   */\n      dup3\n        /* \"#utility.yul\":400:454   */\n      and\n        /* \"#utility.yul\":389:454   */\n      swap1\n      pop\n        /* \"#utility.yul\":334:460   */\n      swap2\n      swap1\n      pop\n      jump\t// out\n        /* \"#utility.yul\":466:562   */\n    tag_53:\n        /* \"#utility.yul\":503:510   */\n      0x00\n        /* \"#utility.yul\":532:556   */\n      tag_99\n        /* \"#utility.yul\":550:555   */\n      dup3\n        /* \"#utility.yul\":532:556   */\n      tag_52\n      jump\t// in\n    tag_99:\n        /* \"#utility.yul\":521:556   */\n      swap1\n      pop\n        /* \"#utility.yul\":466:562   */\n      swap2\n      swap1\n      pop\n      jump\t// out\n        /* \"#utility.yul\":568:690   */\n    tag_54:\n        /* \"#utility.yul\":641:665   */\n      tag_101\n        /* \"#utility.yul\":659:664   */\n      dup2\n        /* \"#utility.yul\":641:665   */\n      tag_53\n      jump\t// in\n    tag_101:\n        /* \"#utility.yul\":634:639   */\n      dup2\n        /* \"#utility.yul\":631:666   */\n      eq\n        /* \"#utility.yul\":621:684   */\n      tag_102\n      jumpi\n        /* \"#utility.yul\":680:681   */\n      0x00\n        /* \"#utility.yul\":677:678   */\n      dup1\n        /* \"#utility.yul\":670:682   */\n      revert\n        /* \"#utility.yul\":621:684   */\n    tag_102:\n        /* \"#utility.yul\":568:690   */\n      pop\n      jump\t// out\n        /* \"#utility.yul\":696:835   */\n    tag_55:\n        /* \"#utility.yul\":742:747   */\n      0x00\n        /* \"#utility.yul\":780:786   */\n      dup2\n        /* \"#utility.yul\":767:787   */\n      calldataload\n        /* \"#utility.yul\":758:787   */\n      swap1\n      pop\n        /* \"#utility.yul\":796:829   */\n      tag_104\n        /* \"#utility.yul\":823:828   */\n      dup2\n        /* \"#utility.yul\":796:829   */\n      tag_54\n      jump\t// in\n    tag_104:\n        /* \"#utility.yul\":696:835   */\n      swap3\n      swap2\n      pop\n      pop\n      jump\t// out\n        /* \"#utility.yul\":841:1170   */\n    tag_8:\n        /* \"#utility.yul\":900:906   */\n      0x00\n        /* \"#utility.yul\":949:951   */\n      0x20\n        /* \"#utility.yul\":937:946   */\n      dup3\n        /* \"#utility.yul\":928:935   */\n      dup5\n        /* \"#utility.yul\":924:947   */\n      sub\n        /* \"#utility.yul\":920:952   */\n      slt\n        /* \"#utility.yul\":917:1036   */\n      iszero\n      tag_106\n      jumpi\n        /* \"#utility.yul\":955:1034   */\n      tag_107\n      tag_50\n      jump\t// in\n    tag_107:\n        /* \"#utility.yul\":917:1036   */\n    tag_106:\n        /* \"#utility.yul\":1075:1076   */\n      0x00\n        /* \"#utility.yul\":1100:1153   */\n      tag_108\n        /* \"#utility.yul\":1145:1152   */\n      dup5\n        /* \"#utility.yul\":1136:1142   */\n      dup3\n        /* \"#utility.yul\":1125:1134   */\n      dup6\n        /* \"#utility.yul\":1121:1143   */\n      add\n        /* \"#utility.yul\":1100:1153   */\n      tag_55\n      jump\t// in\n    tag_108:\n        /* \"#utility.yul\":1090:1153   */\n      swap2\n      pop\n        /* \"#utility.yul\":1046:1163   */\n      pop\n        /* \"#utility.yul\":841:1170   */\n      swap3\n      swap2\n      pop\n      pop\n      jump\t// out\n        /* \"#utility.yul\":1176:1275   */\n    tag_56:\n        /* \"#utility.yul\":1228:1234   */\n      0x00\n        /* \"#utility.yul\":1262:1267   */\n      dup2\n        /* \"#utility.yul\":1256:1268   */\n      mload\n        /* \"#utility.yul\":1246:1268   */\n      swap1\n      pop\n        /* \"#utility.yul\":1176:1275   */\n      swap2\n      swap1\n      pop\n      jump\t// out\n        /* \"#utility.yul\":1281:1440   */\n    tag_57:\n        /* \"#utility.yul\":1355:1366   */\n      0x00\n        /* \"#utility.yul\":1389:1395   */\n      dup3\n        /* \"#utility.yul\":1384:1387   */\n      dup3\n        /* \"#utility.yul\":1377:1396   */\n      mstore\n        /* \"#utility.yul\":1429:1433   */\n      0x20\n        /* \"#utility.yul\":1424:1427   */\n      dup3\n        /* \"#utility.yul\":1420:1434   */\n      add\n        /* \"#utility.yul\":1405:1434   */\n      swap1\n      pop\n        /* \"#utility.yul\":1281:1440   */\n      swap3\n      swap2\n      pop\n      pop\n      jump\t// out\n        /* \"#utility.yul\":1446:1585   */\n    tag_58:\n        /* \"#utility.yul\":1535:1541   */\n      dup3\n        /* \"#utility.yul\":1530:1533   */\n      dup2\n        /* \"#utility.yul\":1525:1528   */\n      dup4\n        /* \"#utility.yul\":1519:1542   */\n      mcopy\n        /* \"#utility.yul\":1576:1577   */\n      0x00\n        /* \"#utility.yul\":1567:1573   */\n      dup4\n        /* \"#utility.yul\":1562:1565   */\n      dup4\n        /* \"#utility.yul\":1558:1574   */\n      add\n        /* \"#utility.yul\":1551:1578   */\n      mstore\n        /* \"#utility.yul\":1446:1585   */\n      pop\n      pop\n      pop\n      jump\t// out\n        /* \"#utility.yul\":1591:1693   */\n    tag_59:\n        /* \"#utility.yul\":1632:1638   */\n      0x00\n        /* \"#utility.yul\":1683:1685   */\n      0x1f\n        /* \"#utility.yul\":1679:1686   */\n      not\n        /* \"#utility.yul\":1674:1676   */\n      0x1f\n        /* \"#utility.yul\":1667:1672   */\n      dup4\n        /* \"#utility.yul\":1663:1677   */\n      add\n        /* \"#utility.yul\":1659:1687   */\n      and\n        /* \"#utility.yul\":1649:1687   */\n      swap1\n      pop\n        /* \"#utility.yul\":1591:1693   */\n      swap2\n      swap1\n      pop\n      jump\t// out\n        /* \"#utility.yul\":1699:2056   */\n    tag_60:\n        /* \"#utility.yul\":1777:1780   */\n      0x00\n        /* \"#utility.yul\":1805:1844   */\n      tag_114\n        /* \"#utility.yul\":1838:1843   */\n      dup3\n        /* \"#utility.yul\":1805:1844   */\n      tag_56\n      jump\t// in\n    tag_114:\n        /* \"#utility.yul\":1860:1921   */\n      tag_115\n        /* \"#utility.yul\":1914:1920   */\n      dup2\n        /* \"#utility.yul\":1909:1912   */\n      dup6\n        /* \"#utility.yul\":1860:1921   */\n      tag_57\n      jump\t// in\n    tag_115:\n        /* \"#utility.yul\":1853:1921   */\n      swap4\n      pop\n        /* \"#utility.yul\":1930:1995   */\n      tag_116\n        /* \"#utility.yul\":1988:1994   */\n      dup2\n        /* \"#utility.yul\":1983:1986   */\n      dup6\n        /* \"#utility.yul\":1976:1980   */\n      0x20\n        /* \"#utility.yul\":1969:1974   */\n      dup7\n        /* \"#utility.yul\":1965:1981   */\n      add\n        /* \"#utility.yul\":1930:1995   */\n      tag_58\n      jump\t// in\n    tag_116:\n        /* \"#utility.yul\":2020:2049   */\n      tag_117\n        /* \"#utility.yul\":2042:2048   */\n      dup2\n        /* \"#utility.yul\":2020:2049   */\n      tag_59\n      jump\t// in\n    tag_117:\n        /* \"#utility.yul\":2015:2018   */\n      dup5\n        /* \"#utility.yul\":2011:2050   */\n      add\n        /* \"#utility.yul\":2004:2050   */\n      swap2\n      pop\n        /* \"#utility.yul\":1781:2056   */\n      pop\n        /* \"#utility.yul\":1699:2056   */\n      swap3\n      swap2\n      pop\n      pop\n      jump\t// out\n        /* \"#utility.yul\":2062:2152   */\n    tag_61:\n        /* \"#utility.yul\":2096:2103   */\n      0x00\n        /* \"#utility.yul\":2139:2144   */\n      dup2\n        /* \"#utility.yul\":2132:2145   */\n      iszero\n        /* \"#utility.yul\":2125:2146   */\n      iszero\n        /* \"#utility.yul\":2114:2146   */\n      swap1\n      pop\n        /* \"#utility.yul\":2062:2152   */\n      swap2\n      swap1\n      pop\n      jump\t// out\n        /* \"#utility.yul\":2158:2257   */\n    tag_62:\n        /* \"#utility.yul\":2229:2250   */\n      tag_120\n        /* \"#utility.yul\":2244:2249   */\n      dup2\n        /* \"#utility.yul\":2229:2250   */\n      tag_61\n      jump\t// in\n    tag_120:\n        /* \"#utility.yul\":2224:2227   */\n      dup3\n        /* \"#utility.yul\":2217:2251   */\n      mstore\n        /* \"#utility.yul\":2158:2257   */\n      pop\n      pop\n      jump\t// out\n        /* \"#utility.yul\":2339:3197   */\n    tag_63:\n        /* \"#utility.yul\":2460:2463   */\n      0x00\n        /* \"#utility.yul\":2496:2500   */\n      0x60\n        /* \"#utility.yul\":2491:2494   */\n      dup4\n        /* \"#utility.yul\":2487:2501   */\n      add\n        /* \"#utility.yul\":2587:2591   */\n      0x00\n        /* \"#utility.yul\":2580:2585   */\n      dup4\n        /* \"#utility.yul\":2576:2592   */\n      add\n        /* \"#utility.yul\":2570:2593   */\n      mload\n        /* \"#utility.yul\":2640:2643   */\n      dup5\n        /* \"#utility.yul\":2634:2638   */\n      dup3\n        /* \"#utility.yul\":2630:2644   */\n      sub\n        /* \"#utility.yul\":2623:2627   */\n      0x00\n        /* \"#utility.yul\":2618:2621   */\n      dup7\n        /* \"#utility.yul\":2614:2628   */\n      add\n        /* \"#utility.yul\":2607:2645   */\n      mstore\n        /* \"#utility.yul\":2666:2739   */\n      tag_122\n        /* \"#utility.yul\":2734:2738   */\n      dup3\n        /* \"#utility.yul\":2720:2732   */\n      dup3\n        /* \"#utility.yul\":2666:2739   */\n      tag_60\n      jump\t// in\n    tag_122:\n        /* \"#utility.yul\":2658:2739   */\n      swap2\n      pop\n        /* \"#utility.yul\":2511:2750   */\n      pop\n        /* \"#utility.yul\":2831:2835   */\n      0x20\n        /* \"#utility.yul\":2824:2829   */\n      dup4\n        /* \"#utility.yul\":2820:2836   */\n      add\n        /* \"#utility.yul\":2814:2837   */\n      mload\n        /* \"#utility.yul\":2884:2887   */\n      dup5\n        /* \"#utility.yul\":2878:2882   */\n      dup3\n        /* \"#utility.yul\":2874:2888   */\n      sub\n        /* \"#utility.yul\":2867:2871   */\n      0x20\n        /* \"#utility.yul\":2862:2865   */\n      dup7\n        /* \"#utility.yul\":2858:2872   */\n      add\n        /* \"#utility.yul\":2851:2889   */\n      mstore\n        /* \"#utility.yul\":2910:2983   */\n      tag_123\n        /* \"#utility.yul\":2978:2982   */\n      dup3\n        /* \"#utility.yul\":2964:2976   */\n      dup3\n        /* \"#utility.yul\":2910:2983   */\n      tag_60\n      jump\t// in\n    tag_123:\n        /* \"#utility.yul\":2902:2983   */\n      swap2\n      pop\n        /* \"#utility.yul\":2760:2994   */\n      pop\n        /* \"#utility.yul\":3084:3088   */\n      0x40\n        /* \"#utility.yul\":3077:3082   */\n      dup4\n        /* \"#utility.yul\":3073:3089   */\n      add\n        /* \"#utility.yul\":3067:3090   */\n      mload\n        /* \"#utility.yul\":3103:3160   */\n      tag_124\n        /* \"#utility.yul\":3154:3158   */\n      0x40\n        /* \"#utility.yul\":3149:3152   */\n      dup7\n        /* \"#utility.yul\":3145:3159   */\n      add\n        /* \"#utility.yul\":3131:3143   */\n      dup3\n        /* \"#utility.yul\":3103:3160   */\n      tag_62\n      jump\t// in\n    tag_124:\n        /* \"#utility.yul\":3004:3170   */\n      pop\n        /* \"#utility.yul\":3187:3191   */\n      dup1\n        /* \"#utility.yul\":3180:3191   */\n      swap2\n      pop\n        /* \"#utility.yul\":2465:3197   */\n      pop\n        /* \"#utility.yul\":2339:3197   */\n      swap3\n      swap2\n      pop\n      pop\n      jump\t// out\n        /* \"#utility.yul\":3203:3580   */\n    tag_11:\n        /* \"#utility.yul\":3348:3352   */\n      0x00\n        /* \"#utility.yul\":3386:3388   */\n      0x20\n        /* \"#utility.yul\":3375:3384   */\n      dup3\n        /* \"#utility.yul\":3371:3389   */\n      add\n        /* \"#utility.yul\":3363:3389   */\n      swap1\n      pop\n        /* \"#utility.yul\":3435:3444   */\n      dup2\n        /* \"#utility.yul\":3429:3433   */\n      dup2\n        /* \"#utility.yul\":3425:3445   */\n      sub\n        /* \"#utility.yul\":3421:3422   */\n      0x00\n        /* \"#utility.yul\":3410:3419   */\n      dup4\n        /* \"#utility.yul\":3406:3423   */\n      add\n        /* \"#utility.yul\":3399:3446   */\n      mstore\n        /* \"#utility.yul\":3463:3573   */\n      tag_126\n        /* \"#utility.yul\":3568:3572   */\n      dup2\n        /* \"#utility.yul\":3559:3565   */\n      dup5\n        /* \"#utility.yul\":3463:3573   */\n      tag_63\n      jump\t// in\n    tag_126:\n        /* \"#utility.yul\":3455:3573   */\n      swap1\n      pop\n        /* \"#utility.yul\":3203:3580   */\n      swap3\n      swap2\n      pop\n      pop\n      jump\t// out\n        /* \"#utility.yul\":3586:3703   */\n    tag_64:\n        /* \"#utility.yul\":3695:3696   */\n      0x00\n        /* \"#utility.yul\":3692:3693   */\n      dup1\n        /* \"#utility.yul\":3685:3697   */\n      revert\n        /* \"#utility.yul\":3709:3826   */\n    tag_65:\n        /* \"#utility.yul\":3818:3819   */\n      0x00\n        /* \"#utility.yul\":3815:3816   */\n      dup1\n        /* \"#utility.yul\":3808:3820   */\n      revert\n        /* \"#utility.yul\":3832:4012   */\n    tag_66:\n        /* \"#utility.yul\":3880:3957   */\n      0x4e487b7100000000000000000000000000000000000000000000000000000000\n        /* \"#utility.yul\":3877:3878   */\n      0x00\n        /* \"#utility.yul\":3870:3958   */\n      mstore\n        /* \"#utility.yul\":3977:3981   */\n      0x41\n        /* \"#utility.yul\":3974:3975   */\n      0x04\n        /* \"#utility.yul\":3967:3982   */\n      mstore\n        /* \"#utility.yul\":4001:4005   */\n      0x24\n        /* \"#utility.yul\":3998:3999   */\n      0x00\n        /* \"#utility.yul\":3991:4006   */\n      revert\n        /* \"#utility.yul\":4018:4299   */\n    tag_67:\n        /* \"#utility.yul\":4101:4128   */\n      tag_131\n        /* \"#utility.yul\":4123:4127   */\n      dup3\n        /* \"#utility.yul\":4101:4128   */\n      tag_59\n      jump\t// in\n    tag_131:\n        /* \"#utility.yul\":4093:4099   */\n      dup2\n        /* \"#utility.yul\":4089:4129   */\n      add\n        /* \"#utility.yul\":4231:4237   */\n      dup2\n        /* \"#utility.yul\":4219:4229   */\n      dup2\n        /* \"#utility.yul\":4216:4238   */\n      lt\n        /* \"#utility.yul\":4195:4213   */\n      0xffffffffffffffff\n        /* \"#utility.yul\":4183:4193   */\n      dup3\n        /* \"#utility.yul\":4180:4214   */\n      gt\n        /* \"#utility.yul\":4177:4239   */\n      or\n        /* \"#utility.yul\":4174:4262   */\n      iszero\n      tag_132\n      jumpi\n        /* \"#utility.yul\":4242:4260   */\n      tag_133\n      tag_66\n      jump\t// in\n    tag_133:\n        /* \"#utility.yul\":4174:4262   */\n    tag_132:\n        /* \"#utility.yul\":4282:4292   */\n      dup1\n        /* \"#utility.yul\":4278:4280   */\n      0x40\n        /* \"#utility.yul\":4271:4293   */\n      mstore\n        /* \"#utility.yul\":4061:4299   */\n      pop\n        /* \"#utility.yul\":4018:4299   */\n      pop\n      pop\n      jump\t// out\n        /* \"#utility.yul\":4305:4434   */\n    tag_68:\n        /* \"#utility.yul\":4339:4345   */\n      0x00\n        /* \"#utility.yul\":4366:4386   */\n      tag_135\n      tag_49\n      jump\t// in\n    tag_135:\n        /* \"#utility.yul\":4356:4386   */\n      swap1\n      pop\n        /* \"#utility.yul\":4395:4428   */\n      tag_136\n        /* \"#utility.yul\":4423:4427   */\n      dup3\n        /* \"#utility.yul\":4415:4421   */\n      dup3\n        /* \"#utility.yul\":4395:4428   */\n      tag_67\n      jump\t// in\n    tag_136:\n        /* \"#utility.yul\":4305:4434   */\n      swap2\n      swap1\n      pop\n      jump\t// out\n        /* \"#utility.yul\":4440:4748   */\n    tag_69:\n        /* \"#utility.yul\":4502:4506   */\n      0x00\n        /* \"#utility.yul\":4592:4610   */\n      0xffffffffffffffff\n        /* \"#utility.yul\":4584:4590   */\n      dup3\n        /* \"#utility.yul\":4581:4611   */\n      gt\n        /* \"#utility.yul\":4578:4634   */\n      iszero\n      tag_138\n      jumpi\n        /* \"#utility.yul\":4614:4632   */\n      tag_139\n      tag_66\n      jump\t// in\n    tag_139:\n        /* \"#utility.yul\":4578:4634   */\n    tag_138:\n        /* \"#utility.yul\":4652:4681   */\n      tag_140\n        /* \"#utility.yul\":4674:4680   */\n      dup3\n        /* \"#utility.yul\":4652:4681   */\n      tag_59\n      jump\t// in\n    tag_140:\n        /* \"#utility.yul\":4644:4681   */\n      swap1\n      pop\n        /* \"#utility.yul\":4736:4740   */\n      0x20\n        /* \"#utility.yul\":4730:4734   */\n      dup2\n        /* \"#utility.yul\":4726:4741   */\n      add\n        /* \"#utility.yul\":4718:4741   */\n      swap1\n      pop\n        /* \"#utility.yul\":4440:4748   */\n      swap2\n      swap1\n      pop\n      jump\t// out\n        /* \"#utility.yul\":4754:4902   */\n    tag_70:\n        /* \"#utility.yul\":4852:4858   */\n      dup3\n        /* \"#utility.yul\":4847:4850   */\n      dup2\n        /* \"#utility.yul\":4842:4845   */\n      dup4\n        /* \"#utility.yul\":4829:4859   */\n      calldatacopy\n        /* \"#utility.yul\":4893:4894   */\n      0x00\n        /* \"#utility.yul\":4884:4890   */\n      dup4\n        /* \"#utility.yul\":4879:4882   */\n      dup4\n        /* \"#utility.yul\":4875:4891   */\n      add\n        /* \"#utility.yul\":4868:4895   */\n      mstore\n        /* \"#utility.yul\":4754:4902   */\n      pop\n      pop\n      pop\n      jump\t// out\n        /* \"#utility.yul\":4908:5333   */\n    tag_71:\n        /* \"#utility.yul\":4986:4991   */\n      0x00\n        /* \"#utility.yul\":5011:5077   */\n      tag_143\n        /* \"#utility.yul\":5027:5076   */\n      tag_144\n        /* \"#utility.yul\":5069:5075   */\n      dup5\n        /* \"#utility.yul\":5027:5076   */\n      tag_69\n      jump\t// in\n    tag_144:\n        /* \"#utility.yul\":5011:5077   */\n      tag_68\n      jump\t// in\n    tag_143:\n        /* \"#utility.yul\":5002:5077   */\n      swap1\n      pop\n        /* \"#utility.yul\":5100:5106   */\n      dup3\n        /* \"#utility.yul\":5093:5098   */\n      dup2\n        /* \"#utility.yul\":5086:5107   */\n      mstore\n        /* \"#utility.yul\":5138:5142   */\n      0x20\n        /* \"#utility.yul\":5131:5136   */\n      dup2\n        /* \"#utility.yul\":5127:5143   */\n      add\n        /* \"#utility.yul\":5176:5179   */\n      dup5\n        /* \"#utility.yul\":5167:5173   */\n      dup5\n        /* \"#utility.yul\":5162:5165   */\n      dup5\n        /* \"#utility.yul\":5158:5174   */\n      add\n        /* \"#utility.yul\":5155:5180   */\n      gt\n        /* \"#utility.yul\":5152:5264   */\n      iszero\n      tag_145\n      jumpi\n        /* \"#utility.yul\":5183:5262   */\n      tag_146\n      tag_65\n      jump\t// in\n    tag_146:\n        /* \"#utility.yul\":5152:5264   */\n    tag_145:\n        /* \"#utility.yul\":5273:5327   */\n      tag_147\n        /* \"#utility.yul\":5320:5326   */\n      dup5\n        /* \"#utility.yul\":5315:5318   */\n      dup3\n        /* \"#utility.yul\":5310:5313   */\n      dup6\n        /* \"#utility.yul\":5273:5327   */\n      tag_70\n      jump\t// in\n    tag_147:\n        /* \"#utility.yul\":4992:5333   */\n      pop\n        /* \"#utility.yul\":4908:5333   */\n      swap4\n      swap3\n      pop\n      pop\n      pop\n      jump\t// out\n        /* \"#utility.yul\":5353:5693   */\n    tag_72:\n        /* \"#utility.yul\":5409:5414   */\n      0x00\n        /* \"#utility.yul\":5458:5461   */\n      dup3\n        /* \"#utility.yul\":5451:5455   */\n      0x1f\n        /* \"#utility.yul\":5443:5449   */\n      dup4\n        /* \"#utility.yul\":5439:5456   */\n      add\n        /* \"#utility.yul\":5435:5462   */\n      slt\n        /* \"#utility.yul\":5425:5547   */\n      tag_149\n      jumpi\n        /* \"#utility.yul\":5466:5545   */\n      tag_150\n      tag_64\n      jump\t// in\n    tag_150:\n        /* \"#utility.yul\":5425:5547   */\n    tag_149:\n        /* \"#utility.yul\":5583:5589   */\n      dup2\n        /* \"#utility.yul\":5570:5590   */\n      calldataload\n        /* \"#utility.yul\":5608:5687   */\n      tag_151\n        /* \"#utility.yul\":5683:5686   */\n      dup5\n        /* \"#utility.yul\":5675:5681   */\n      dup3\n        /* \"#utility.yul\":5668:5672   */\n      0x20\n        /* \"#utility.yul\":5660:5666   */\n      dup7\n        /* \"#utility.yul\":5656:5673   */\n      add\n        /* \"#utility.yul\":5608:5687   */\n      tag_71\n      jump\t// in\n    tag_151:\n        /* \"#utility.yul\":5599:5687   */\n      swap2\n      pop\n        /* \"#utility.yul\":5415:5693   */\n      pop\n        /* \"#utility.yul\":5353:5693   */\n      swap3\n      swap2\n      pop\n      pop\n      jump\t// out\n        /* \"#utility.yul\":5699:6533   */\n    tag_14:\n        /* \"#utility.yul\":5787:5793   */\n      0x00\n        /* \"#utility.yul\":5795:5801   */\n      dup1\n        /* \"#utility.yul\":5844:5846   */\n      0x40\n        /* \"#utility.yul\":5832:5841   */\n      dup4\n        /* \"#utility.yul\":5823:5830   */\n      dup6\n        /* \"#utility.yul\":5819:5842   */\n      sub\n        /* \"#utility.yul\":5815:5847   */\n      slt\n        /* \"#utility.yul\":5812:5931   */\n      iszero\n      tag_153\n      jumpi\n        /* \"#utility.yul\":5850:5929   */\n      tag_154\n      tag_50\n      jump\t// in\n    tag_154:\n        /* \"#utility.yul\":5812:5931   */\n    tag_153:\n        /* \"#utility.yul\":5998:5999   */\n      0x00\n        /* \"#utility.yul\":5987:5996   */\n      dup4\n        /* \"#utility.yul\":5983:6000   */\n      add\n        /* \"#utility.yul\":5970:6001   */\n      calldataload\n        /* \"#utility.yul\":6028:6046   */\n      0xffffffffffffffff\n        /* \"#utility.yul\":6020:6026   */\n      dup2\n        /* \"#utility.yul\":6017:6047   */\n      gt\n        /* \"#utility.yul\":6014:6131   */\n      iszero\n      tag_155\n      jumpi\n        /* \"#utility.yul\":6050:6129   */\n      tag_156\n      tag_51\n      jump\t// in\n    tag_156:\n        /* \"#utility.yul\":6014:6131   */\n    tag_155:\n        /* \"#utility.yul\":6155:6218   */\n      tag_157\n        /* \"#utility.yul\":6210:6217   */\n      dup6\n        /* \"#utility.yul\":6201:6207   */\n      dup3\n        /* \"#utility.yul\":6190:6199   */\n      dup7\n        /* \"#utility.yul\":6186:6208   */\n      add\n        /* \"#utility.yul\":6155:6218   */\n      tag_72\n      jump\t// in\n    tag_157:\n        /* \"#utility.yul\":6145:6218   */\n      swap3\n      pop\n        /* \"#utility.yul\":5941:6228   */\n      pop\n        /* \"#utility.yul\":6295:6297   */\n      0x20\n        /* \"#utility.yul\":6284:6293   */\n      dup4\n        /* \"#utility.yul\":6280:6298   */\n      add\n        /* \"#utility.yul\":6267:6299   */\n      calldataload\n        /* \"#utility.yul\":6326:6344   */\n      0xffffffffffffffff\n        /* \"#utility.yul\":6318:6324   */\n      dup2\n        /* \"#utility.yul\":6315:6345   */\n      gt\n        /* \"#utility.yul\":6312:6429   */\n      iszero\n      tag_158\n      jumpi\n        /* \"#utility.yul\":6348:6427   */\n      tag_159\n      tag_51\n      jump\t// in\n    tag_159:\n        /* \"#utility.yul\":6312:6429   */\n    tag_158:\n        /* \"#utility.yul\":6453:6516   */\n      tag_160\n        /* \"#utility.yul\":6508:6515   */\n      dup6\n        /* \"#utility.yul\":6499:6505   */\n      dup3\n        /* \"#utility.yul\":6488:6497   */\n      dup7\n        /* \"#utility.yul\":6484:6506   */\n      add\n        /* \"#utility.yul\":6453:6516   */\n      tag_72\n      jump\t// in\n    tag_160:\n        /* \"#utility.yul\":6443:6516   */\n      swap2\n      pop\n        /* \"#utility.yul\":6238:6526   */\n      pop\n        /* \"#utility.yul\":5699:6533   */\n      swap3\n      pop\n      swap3\n      swap1\n      pop\n      jump\t// out\n        /* \"#utility.yul\":6539:6708   */\n    tag_73:\n        /* \"#utility.yul\":6623:6634   */\n      0x00\n        /* \"#utility.yul\":6657:6663   */\n      dup3\n        /* \"#utility.yul\":6652:6655   */\n      dup3\n        /* \"#utility.yul\":6645:6664   */\n      mstore\n        /* \"#utility.yul\":6697:6701   */\n      0x20\n        /* \"#utility.yul\":6692:6695   */\n      dup3\n        /* \"#utility.yul\":6688:6702   */\n      add\n        /* \"#utility.yul\":6673:6702   */\n      swap1\n      pop\n        /* \"#utility.yul\":6539:6708   */\n      swap3\n      swap2\n      pop\n      pop\n      jump\t// out\n        /* \"#utility.yul\":6714:7091   */\n    tag_74:\n        /* \"#utility.yul\":6802:6805   */\n      0x00\n        /* \"#utility.yul\":6830:6869   */\n      tag_163\n        /* \"#utility.yul\":6863:6868   */\n      dup3\n        /* \"#utility.yul\":6830:6869   */\n      tag_56\n      jump\t// in\n    tag_163:\n        /* \"#utility.yul\":6885:6956   */\n      tag_164\n        /* \"#utility.yul\":6949:6955   */\n      dup2\n        /* \"#utility.yul\":6944:6947   */\n      dup6\n        /* \"#utility.yul\":6885:6956   */\n      tag_73\n      jump\t// in\n    tag_164:\n        /* \"#utility.yul\":6878:6956   */\n      swap4\n      pop\n        /* \"#utility.yul\":6965:7030   */\n      tag_165\n        /* \"#utility.yul\":7023:7029   */\n      dup2\n        /* \"#utility.yul\":7018:7021   */\n      dup6\n        /* \"#utility.yul\":7011:7015   */\n      0x20\n        /* \"#utility.yul\":7004:7009   */\n      dup7\n        /* \"#utility.yul\":7000:7016   */\n      add\n        /* \"#utility.yul\":6965:7030   */\n      tag_58\n      jump\t// in\n    tag_165:\n        /* \"#utility.yul\":7055:7084   */\n      tag_166\n        /* \"#utility.yul\":7077:7083   */\n      dup2\n        /* \"#utility.yul\":7055:7084   */\n      tag_59\n      jump\t// in\n    tag_166:\n        /* \"#utility.yul\":7050:7053   */\n      dup5\n        /* \"#utility.yul\":7046:7085   */\n      add\n        /* \"#utility.yul\":7039:7085   */\n      swap2\n      pop\n        /* \"#utility.yul\":6806:7091   */\n      pop\n        /* \"#utility.yul\":6714:7091   */\n      swap3\n      swap2\n      pop\n      pop\n      jump\t// out\n        /* \"#utility.yul\":7097:7206   */\n    tag_75:\n        /* \"#utility.yul\":7178:7199   */\n      tag_168\n        /* \"#utility.yul\":7193:7198   */\n      dup2\n        /* \"#utility.yul\":7178:7199   */\n      tag_61\n      jump\t// in\n    tag_168:\n        /* \"#utility.yul\":7173:7176   */\n      dup3\n        /* \"#utility.yul\":7166:7200   */\n      mstore\n        /* \"#utility.yul\":7097:7206   */\n      pop\n      pop\n      jump\t// out\n        /* \"#utility.yul\":7212:7824   */\n    tag_20:\n        /* \"#utility.yul\":7395:7399   */\n      0x00\n        /* \"#utility.yul\":7433:7435   */\n      0x60\n        /* \"#utility.yul\":7422:7431   */\n      dup3\n        /* \"#utility.yul\":7418:7436   */\n      add\n        /* \"#utility.yul\":7410:7436   */\n      swap1\n      pop\n        /* \"#utility.yul\":7482:7491   */\n      dup2\n        /* \"#utility.yul\":7476:7480   */\n      dup2\n        /* \"#utility.yul\":7472:7492   */\n      sub\n        /* \"#utility.yul\":7468:7469   */\n      0x00\n        /* \"#utility.yul\":7457:7466   */\n      dup4\n        /* \"#utility.yul\":7453:7470   */\n      add\n        /* \"#utility.yul\":7446:7493   */\n      mstore\n        /* \"#utility.yul\":7510:7588   */\n      tag_170\n        /* \"#utility.yul\":7583:7587   */\n      dup2\n        /* \"#utility.yul\":7574:7580   */\n      dup7\n        /* \"#utility.yul\":7510:7588   */\n      tag_74\n      jump\t// in\n    tag_170:\n        /* \"#utility.yul\":7502:7588   */\n      swap1\n      pop\n        /* \"#utility.yul\":7635:7644   */\n      dup2\n        /* \"#utility.yul\":7629:7633   */\n      dup2\n        /* \"#utility.yul\":7625:7645   */\n      sub\n        /* \"#utility.yul\":7620:7622   */\n      0x20\n        /* \"#utility.yul\":7609:7618   */\n      dup4\n        /* \"#utility.yul\":7605:7623   */\n      add\n        /* \"#utility.yul\":7598:7646   */\n      mstore\n        /* \"#utility.yul\":7663:7741   */\n      tag_171\n        /* \"#utility.yul\":7736:7740   */\n      dup2\n        /* \"#utility.yul\":7727:7733   */\n      dup6\n        /* \"#utility.yul\":7663:7741   */\n      tag_74\n      jump\t// in\n    tag_171:\n        /* \"#utility.yul\":7655:7741   */\n      swap1\n      pop\n        /* \"#utility.yul\":7751:7817   */\n      tag_172\n        /* \"#utility.yul\":7813:7815   */\n      0x40\n        /* \"#utility.yul\":7802:7811   */\n      dup4\n        /* \"#utility.yul\":7798:7816   */\n      add\n        /* \"#utility.yul\":7789:7795   */\n      dup5\n        /* \"#utility.yul\":7751:7817   */\n      tag_75\n      jump\t// in\n    tag_172:\n        /* \"#utility.yul\":7212:7824   */\n      swap5\n      swap4\n      pop\n      pop\n      pop\n      pop\n      jump\t// out\n        /* \"#utility.yul\":7830:8010   */\n    tag_76:\n        /* \"#utility.yul\":7878:7955   */\n      0x4e487b7100000000000000000000000000000000000000000000000000000000\n        /* \"#utility.yul\":7875:7876   */\n      0x00\n        /* \"#utility.yul\":7868:7956   */\n      mstore\n        /* \"#utility.yul\":7975:7979   */\n      0x22\n        /* \"#utility.yul\":7972:7973   */\n      0x04\n        /* \"#utility.yul\":7965:7980   */\n      mstore\n        /* \"#utility.yul\":7999:8003   */\n      0x24\n        /* \"#utility.yul\":7996:7997   */\n      0x00\n        /* \"#utility.yul\":7989:8004   */\n      revert\n        /* \"#utility.yul\":8016:8336   */\n    tag_25:\n        /* \"#utility.yul\":8060:8066   */\n      0x00\n        /* \"#utility.yul\":8097:8098   */\n      0x02\n        /* \"#utility.yul\":8091:8095   */\n      dup3\n        /* \"#utility.yul\":8087:8099   */\n      div\n        /* \"#utility.yul\":8077:8099   */\n      swap1\n      pop\n        /* \"#utility.yul\":8144:8145   */\n      0x01\n        /* \"#utility.yul\":8138:8142   */\n      dup3\n        /* \"#utility.yul\":8134:8146   */\n      and\n        /* \"#utility.yul\":8165:8183   */\n      dup1\n        /* \"#utility.yul\":8155:8236   */\n      tag_175\n      jumpi\n        /* \"#utility.yul\":8221:8225   */\n      0x7f\n        /* \"#utility.yul\":8213:8219   */\n      dup3\n        /* \"#utility.yul\":8209:8226   */\n      and\n        /* \"#utility.yul\":8199:8226   */\n      swap2\n      pop\n        /* \"#utility.yul\":8155:8236   */\n    tag_175:\n        /* \"#utility.yul\":8283:8285   */\n      0x20\n        /* \"#utility.yul\":8275:8281   */\n      dup3\n        /* \"#utility.yul\":8272:8286   */\n      lt\n        /* \"#utility.yul\":8252:8270   */\n      dup2\n        /* \"#utility.yul\":8249:8287   */\n      sub\n        /* \"#utility.yul\":8246:8330   */\n      tag_176\n      jumpi\n        /* \"#utility.yul\":8302:8320   */\n      tag_177\n      tag_76\n      jump\t// in\n    tag_177:\n        /* \"#utility.yul\":8246:8330   */\n    tag_176:\n        /* \"#utility.yul\":8067:8336   */\n      pop\n        /* \"#utility.yul\":8016:8336   */\n      swap2\n      swap1\n      pop\n      jump\t// out\n        /* \"#utility.yul\":8342:8483   */\n    tag_77:\n        /* \"#utility.yul\":8391:8395   */\n      0x00\n        /* \"#utility.yul\":8414:8417   */\n      dup2\n        /* \"#utility.yul\":8406:8417   */\n      swap1\n      pop\n        /* \"#utility.yul\":8437:8440   */\n      dup2\n        /* \"#utility.yul\":8434:8435   */\n      0x00\n        /* \"#utility.yul\":8427:8441   */\n      mstore\n        /* \"#utility.yul\":8471:8475   */\n      0x20\n        /* \"#utility.yul\":8468:8469   */\n      0x00\n        /* \"#utility.yul\":8458:8476   */\n      keccak256\n        /* \"#utility.yul\":8450:8476   */\n      swap1\n      pop\n        /* \"#utility.yul\":8342:8483   */\n      swap2\n      swap1\n      pop\n      jump\t// out\n        /* \"#utility.yul\":8489:8582   */\n    tag_78:\n        /* \"#utility.yul\":8526:8532   */\n      0x00\n        /* \"#utility.yul\":8573:8575   */\n      0x20\n        /* \"#utility.yul\":8568:8570   */\n      0x1f\n        /* \"#utility.yul\":8561:8566   */\n      dup4\n        /* \"#utility.yul\":8557:8571   */\n      add\n        /* \"#utility.yul\":8553:8576   */\n      div\n        /* \"#utility.yul\":8543:8576   */\n      swap1\n      pop\n        /* \"#utility.yul\":8489:8582   */\n      swap2\n      swap1\n      pop\n      jump\t// out\n        /* \"#utility.yul\":8588:8695   */\n    tag_79:\n        /* \"#utility.yul\":8632:8640   */\n      0x00\n        /* \"#utility.yul\":8682:8687   */\n      dup3\n        /* \"#utility.yul\":8676:8680   */\n      dup3\n        /* \"#utility.yul\":8672:8688   */\n      shl\n        /* \"#utility.yul\":8651:8688   */\n      swap1\n      pop\n        /* \"#utility.yul\":8588:8695   */\n      swap3\n      swap2\n      pop\n      pop\n      jump\t// out\n        /* \"#utility.yul\":8701:9094   */\n    tag_80:\n        /* \"#utility.yul\":8770:8776   */\n      0x00\n        /* \"#utility.yul\":8820:8821   */\n      0x08\n        /* \"#utility.yul\":8808:8818   */\n      dup4\n        /* \"#utility.yul\":8804:8822   */\n      mul\n        /* \"#utility.yul\":8843:8940   */\n      tag_182\n        /* \"#utility.yul\":8873:8939   */\n      0xffffffffffffffffffffffffffffffffffffffffffffffffffffffffffffffff\n        /* \"#utility.yul\":8862:8871   */\n      dup3\n        /* \"#utility.yul\":8843:8940   */\n      tag_79\n      jump\t// in\n    tag_182:\n        /* \"#utility.yul\":8961:9000   */\n      tag_183\n        /* \"#utility.yul\":8991:8999   */\n      dup7\n        /* \"#utility.yul\":8980:8989   */\n      dup4\n        /* \"#utility.yul\":8961:9000   */\n      tag_79\n      jump\t// in\n    tag_183:\n        /* \"#utility.yul\":8949:9000   */\n      swap6\n      pop\n        /* \"#utility.yul\":9033:9037   */\n      dup1\n        /* \"#utility.yul\":9029:9038   */\n      not\n        /* \"#utility.yul\":9022:9027   */\n      dup5\n        /* \"#utility.yul\":9018:9039   */\n      and\n        /* \"#utility.yul\":9009:9039   */\n      swap4\n      pop\n        /* \"#utility.yul\":9082:9086   */\n      dup1\n        /* \"#utility.yul\":9072:9080   */\n      dup7\n        /* \"#utility.yul\":9068:9087   */\n      and\n        /* \"#utility.yul\":9061:9066   */\n      dup5\n        /* \"#utility.yul\":9058:9088   */\n      or\n        /* \"#utility.yul\":9048:9088   */\n      swap3\n      pop\n        /* \"#utility.yul\":8777:9094   */\n      pop\n      pop\n        /* \"#utility.yul\":8701:9094   */\n      swap4\n      swap3\n      pop\n      pop\n      pop\n      jump\t// out\n        /* \"#utility.yul\":9100:9177   */\n    tag_81:\n        /* \"#utility.yul\":9137:9144   */\n      0x00\n        /* \"#utility.yul\":9166:9171   */\n      dup2\n        /* \"#utility.yul\":9155:9171   */\n      swap1\n      pop\n        /* \"#utility.yul\":9100:9177   */\n      swap2\n      swap1\n      pop\n      jump\t// out\n        /* \"#utility.yul\":9183:9243   */\n    tag_82:\n        /* \"#utility.yul\":9211:9214   */\n      0x00\n        /* \"#utility.yul\":9232:9237   */\n      dup2\n        /* \"#utility.yul\":9225:9237   */\n      swap1\n      pop\n        /* \"#utility.yul\":9183:9243   */\n      swap2\n      swap1\n      pop\n      jump\t// out\n        /* \"#utility.yul\":9249:9391   */\n    tag_83:\n        /* \"#utility.yul\":9299:9308   */\n      0x00\n        /* \"#utility.yul\":9332:9385   */\n      tag_187\n        /* \"#utility.yul\":9350:9384   */\n      tag_188\n        /* \"#utility.yul\":9359:9383   */\n      tag_189\n        /* \"#utility.yul\":9377:9382   */\n      dup5\n        /* \"#utility.yul\":9359:9383   */\n      tag_81\n      jump\t// in\n    tag_189:\n        /* \"#utility.yul\":9350:9384   */\n      tag_82\n      jump\t// in\n    tag_188:\n        /* \"#utility.yul\":9332:9385   */\n      tag_81\n      jump\t// in\n    tag_187:\n        /* \"#utility.yul\":9319:9385   */\n      swap1\n      pop\n        /* \"#utility.yul\":9249:9391   */\n      swap2\n      swap1\n      pop\n      jump\t// out\n        /* \"#utility.yul\":9397:9472   */\n    tag_84:\n        /* \"#utility.yul\":9440:9443   */\n      0x00\n        /* \"#utility.yul\":9461:9466   */\n      dup2\n        /* \"#utility.yul\":9454:9466   */\n      swap1\n      pop\n        /* \"#utility.yul\":9397:9472   */\n      swap2\n      swap1\n      pop\n      jump\t// out\n        /* \"#utility.yul\":9478:9747   */\n    tag_85:\n        /* \"#utility.yul\":9588:9627   */\n      tag_192\n        /* \"#utility.yul\":9619:9626   */\n      dup4\n        /* \"#utility.yul\":9588:9627   */\n      tag_83\n      jump\t// in\n    tag_192:\n        /* \"#utility.yul\":9649:9740   */\n      tag_193\n        /* \"#utility.yul\":9698:9739   */\n      tag_194\n        /* \"#utility.yul\":9722:9738   */\n      dup3\n        /* \"#utility.yul\":9698:9739   */\n      tag_84\n      jump\t// in\n    tag_194:\n        /* \"#utility.yul\":9690:9696   */\n      dup5\n        /* \"#utility.yul\":9683:9687   */\n      dup5\n        /* \"#utility.yul\":9677:9688   */\n      sload\n        /* \"#utility.yul\":9649:9740   */\n      tag_80\n      jump\t// in\n    tag_193:\n        /* \"#utility.yul\":9643:9647   */\n      dup3\n        /* \"#utility.yul\":9636:9741   */\n      sstore\n        /* \"#utility.yul\":9554:9747   */\n      pop\n        /* \"#utility.yul\":9478:9747   */\n      pop\n      pop\n      pop\n      jump\t// out\n        /* \"#utility.yul\":9753:9826   */\n    tag_86:\n        /* \"#utility.yul\":9798:9801   */\n      0x00\n        /* \"#utility.yul\":9753:9826   */\n      swap1\n      jump\t// out\n        /* \"#utility.yul\":9832:10021   */\n    tag_87:\n        /* \"#utility.yul\":9909:9941   */\n      tag_197\n      tag_86\n      jump\t// in\n    tag_197:\n        /* \"#utility.yul\":9950:10015   */\n      tag_198\n        /* \"#utility.yul\":10008:10014   */\n      dup2\n        /* \"#utility.yul\":10000:10006   */\n      dup5\n        /* \"#utility.yul\":9994:9998   */\n      dup5\n        /* \"#utility.yul\":9950:10015   */\n      tag_85\n      jump\t// in\n    tag_198:\n        /* \"#utility.yul\":9885:10021   */\n      pop\n        /* \"#utility.yul\":9832:10021   */\n      pop\n      pop\n      jump\t// out\n        /* \"#utility.yul\":10027:10213   */\n    tag_88:\n        /* \"#utility.yul\":10087:10207   */\n    tag_200:\n        /* \"#utility.yul\":10104:10107   */\n      dup2\n        /* \"#utility.yul\":10097:10102   */\n      dup2\n        /* \"#utility.yul\":10094:10108   */\n      lt\n        /* \"#utility.yul\":10087:10207   */\n      iszero\n      tag_202\n      jumpi\n        /* \"#utility.yul\":10158:10197   */\n      tag_203\n        /* \"#utility.yul\":10195:10196   */\n      0x00\n        /* \"#utility.yul\":10188:10193   */\n      dup3\n        /* \"#utility.yul\":10158:10197   */\n      tag_87\n      jump\t// in\n    tag_203:\n        /* \"#utility.yul\":10131:10132   */\n      0x01\n        /* \"#utility.yul\":10124:10129   */\n      dup2\n        /* \"#utility.yul\":10120:10133   */\n      add\n        /* \"#utility.yul\":10111:10133   */\n      swap1\n      pop\n        /* \"#utility.yul\":10087:10207   */\n      jump(tag_200)\n    tag_202:\n        /* \"#utility.yul\":10027:10213   */\n      pop\n      pop\n      jump\t// out\n        /* \"#utility.yul\":10219:10762   */\n    tag_89:\n        /* \"#utility.yul\":10320:10322   */\n      0x1f\n        /* \"#utility.yul\":10315:10318   */\n      dup3\n        /* \"#utility.yul\":10312:10323   */\n      gt\n        /* \"#utility.yul\":10309:10755   */\n      iszero\n      tag_205\n      jumpi\n        /* \"#utility.yul\":10354:10392   */\n      tag_206\n        /* \"#utility.yul\":10386:10391   */\n      dup2\n        /* \"#utility.yul\":10354:10392   */\n      tag_77\n      jump\t// in\n    tag_206:\n        /* \"#utility.yul\":10438:10467   */\n      tag_207\n        /* \"#utility.yul\":10456:10466   */\n      dup5\n        /* \"#utility.yul\":10438:10467   */\n      tag_78\n      jump\t// in\n    tag_207:\n        /* \"#utility.yul\":10428:10436   */\n      dup2\n        /* \"#utility.yul\":10424:10468   */\n      add\n        /* \"#utility.yul\":10621:10623   */\n      0x20\n        /* \"#utility.yul\":10609:10619   */\n      dup6\n        /* \"#utility.yul\":10606:10624   */\n      lt\n        /* \"#utility.yul\":10603:10652   */\n      iszero\n      tag_208\n      jumpi\n        /* \"#utility.yul\":10642:10650   */\n      dup2\n        /* \"#utility.yul\":10627:10650   */\n      swap1\n      pop\n        /* \"#utility.yul\":10603:10652   */\n    tag_208:\n        /* \"#utility.yul\":10665:10745   */\n      tag_209\n        /* \"#utility.yul\":10721:10743   */\n      tag_210\n        /* \"#utility.yul\":10739:10742   */\n      dup6\n        /* \"#utility.yul\":10721:10743   */\n      tag_78\n      jump\t// in\n    tag_210:\n        /* \"#utility.yul\":10711:10719   */\n      dup4\n        /* \"#utility.yul\":10707:10744   */\n      add\n        /* \"#utility.yul\":10694:10705   */\n      dup3\n        /* \"#utility.yul\":10665:10745   */\n      tag_88\n      jump\t// in\n    tag_209:\n        /* \"#utility.yul\":10324:10755   */\n      pop\n      pop\n        /* \"#utility.yul\":10309:10755   */\n    tag_205:\n        /* \"#utility.yul\":10219:10762   */\n      pop\n      pop\n      pop\n      jump\t// out\n        /* \"#utility.yul\":10768:10885   */\n    tag_90:\n        /* \"#utility.yul\":10822:10830   */\n      0x00\n        /* \"#utility.yul\":10872:10877   */\n      dup3\n        /* \"#utility.yul\":10866:10870   */\n      dup3\n        /* \"#utility.yul\":10862:10878   */\n      shr\n        /* \"#utility.yul\":10841:10878   */\n      swap1\n      pop\n        /* \"#utility.yul\":10768:10885   */\n      swap3\n      swap2\n      pop\n      pop\n      jump\t// out\n        /* \"#utility.yul\":10891:11060   */\n    tag_91:\n        /* \"#utility.yul\":10935:10941   */\n      0x00\n        /* \"#utility.yul\":10968:11019   */\n      tag_213\n        /* \"#utility.yul\":11016:11017   */\n      0x00\n        /* \"#utility.yul\":11012:11018   */\n      not\n        /* \"#utility.yul\":11004:11009   */\n      dup5\n        /* \"#utility.yul\":11001:11002   */\n      0x08\n        /* \"#utility.yul\":10997:11010   */\n      mul\n        /* \"#utility.yul\":10968:11019   */\n      tag_90\n      jump\t// in\n    tag_213:\n        /* \"#utility.yul\":10964:11020   */\n      not\n        /* \"#utility.yul\":11049:11053   */\n      dup1\n        /* \"#utility.yul\":11043:11047   */\n      dup4\n        /* \"#utility.yul\":11039:11054   */\n      and\n        /* \"#utility.yul\":11029:11054   */\n      swap2\n      pop\n        /* \"#utility.yul\":10942:11060   */\n      pop\n        /* \"#utility.yul\":10891:11060   */\n      swap3\n      swap2\n      pop\n      pop\n      jump\t// out\n        /* \"#utility.yul\":11065:11360   */\n    tag_92:\n        /* \"#utility.yul\":11141:11145   */\n      0x00\n        /* \"#utility.yul\":11287:11316   */\n      tag_215\n        /* \"#utility.yul\":11312:11315   */\n      dup4\n        /* \"#utility.yul\":11306:11310   */\n      dup4\n        /* \"#utility.yul\":11287:11316   */\n      tag_91\n      jump\t// in\n    tag_215:\n        /* \"#utility.yul\":11279:11316   */\n      swap2\n      pop\n        /* \"#utility.yul\":11349:11352   */\n      dup3\n        /* \"#utility.yul\":11346:11347   */\n      0x02\n        /* \"#utility.yul\":11342:11353   */\n      mul\n        /* \"#utility.yul\":11336:11340   */\n      dup3\n        /* \"#utility.yul\":11333:11354   */\n      or\n        /* \"#utility.yul\":11325:11354   */\n      swap1\n      pop\n        /* \"#utility.yul\":11065:11360   */\n      swap3\n      swap2\n      pop\n      pop\n      jump\t// out\n        /* \"#utility.yul\":11365:12760   */\n    tag_37:\n        /* \"#utility.yul\":11482:11519   */\n      tag_217\n        /* \"#utility.yul\":11515:11518   */\n      dup3\n        /* \"#utility.yul\":11482:11519   */\n      tag_56\n      jump\t// in\n    tag_217:\n        /* \"#utility.yul\":11584:11602   */\n      0xffffffffffffffff\n        /* \"#utility.yul\":11576:11582   */\n      dup2\n        /* \"#utility.yul\":11573:11603   */\n      gt\n        /* \"#utility.yul\":11570:11626   */\n      iszero\n      tag_218\n      jumpi\n        /* \"#utility.yul\":11606:11624   */\n      tag_219\n      tag_66\n      jump\t// in\n    tag_219:\n        /* \"#utility.yul\":11570:11626   */\n    tag_218:\n        /* \"#utility.yul\":11650:11688   */\n      tag_220\n        /* \"#utility.yul\":11682:11686   */\n      dup3\n        /* \"#utility.yul\":11676:11687   */\n      sload\n        /* \"#utility.yul\":11650:11688   */\n      tag_25\n      jump\t// in\n    tag_220:\n        /* \"#utility.yul\":11735:11802   */\n      tag_221\n        /* \"#utility.yul\":11795:11801   */\n      dup3\n        /* \"#utility.yul\":11787:11793   */\n      dup3\n        /* \"#utility.yul\":11781:11785   */\n      dup6\n        /* \"#utility.yul\":11735:11802   */\n      tag_89\n      jump\t// in\n    tag_221:\n        /* \"#utility.yul\":11829:11830   */\n      0x00\n        /* \"#utility.yul\":11853:11857   */\n      0x20\n        /* \"#utility.yul\":11840:11857   */\n      swap1\n      pop\n        /* \"#utility.yul\":11885:11887   */\n      0x1f\n        /* \"#utility.yul\":11877:11883   */\n      dup4\n        /* \"#utility.yul\":11874:11888   */\n      gt\n        /* \"#utility.yul\":11902:11903   */\n      0x01\n        /* \"#utility.yul\":11897:12515   */\n      dup2\n      eq\n      tag_223\n      jumpi\n        /* \"#utility.yul\":12559:12560   */\n      0x00\n        /* \"#utility.yul\":12576:12582   */\n      dup5\n        /* \"#utility.yul\":12573:12650   */\n      iszero\n      tag_224\n      jumpi\n        /* \"#utility.yul\":12625:12634   */\n      dup3\n        /* \"#utility.yul\":12620:12623   */\n      dup8\n        /* \"#utility.yul\":12616:12635   */\n      add\n        /* \"#utility.yul\":12610:12636   */\n      mload\n        /* \"#utility.yul\":12601:12636   */\n      swap1\n      pop\n        /* \"#utility.yul\":12573:12650   */\n    tag_224:\n        /* \"#utility.yul\":12676:12743   */\n      tag_225\n        /* \"#utility.yul\":12736:12742   */\n      dup6\n        /* \"#utility.yul\":12729:12734   */\n      dup3\n        /* \"#utility.yul\":12676:12743   */\n      tag_92\n      jump\t// in\n    tag_225:\n        /* \"#utility.yul\":12670:12674   */\n      dup7\n        /* \"#utility.yul\":12663:12744   */\n      sstore\n        /* \"#utility.yul\":12532:12754   */\n      pop\n        /* \"#utility.yul\":11867:12754   */\n      jump(tag_222)\n        /* \"#utility.yul\":11897:12515   */\n    tag_223:\n        /* \"#utility.yul\":11949:11953   */\n      0x1f\n        /* \"#utility.yul\":11945:11954   */\n      not\n        /* \"#utility.yul\":11937:11943   */\n      dup5\n        /* \"#utility.yul\":11933:11955   */\n      and\n        /* \"#utility.yul\":11983:12020   */\n      tag_226\n        /* \"#utility.yul\":12015:12019   */\n      dup7\n        /* \"#utility.yul\":11983:12020   */\n      tag_77\n      jump\t// in\n    tag_226:\n        /* \"#utility.yul\":12042:12043   */\n      0x00\n        /* \"#utility.yul\":12056:12264   */\n    tag_227:\n        /* \"#utility.yul\":12070:12077   */\n      dup3\n        /* \"#utility.yul\":12067:12068   */\n      dup2\n        /* \"#utility.yul\":12064:12078   */\n      lt\n        /* \"#utility.yul\":12056:12264   */\n      iszero\n      tag_229\n      jumpi\n        /* \"#utility.yul\":12149:12158   */\n      dup5\n        /* \"#utility.yul\":12144:12147   */\n      dup10\n        /* \"#utility.yul\":12140:12159   */\n      add\n        /* \"#utility.yul\":12134:12160   */\n      mload\n        /* \"#utility.yul\":12126:12132   */\n      dup3\n        /* \"#utility.yul\":12119:12161   */\n      sstore\n        /* \"#utility.yul\":12200:12201   */\n      0x01\n        /* \"#utility.yul\":12192:12198   */\n      dup3\n        /* \"#utility.yul\":12188:12202   */\n      add\n        /* \"#utility.yul\":12178:12202   */\n      swap2\n      pop\n        /* \"#utility.yul\":12247:12249   */\n      0x20\n        /* \"#utility.yul\":12236:12245   */\n      dup6\n        /* \"#utility.yul\":12232:12250   */\n      add\n        /* \"#utility.yul\":12219:12250   */\n      swap5\n      pop\n        /* \"#utility.yul\":12093:12097   */\n      0x20\n        /* \"#utility.yul\":12090:12091   */\n      dup2\n        /* \"#utility.yul\":12086:12098   */\n      add\n        /* \"#utility.yul\":12081:12098   */\n      swap1\n      pop\n        /* \"#utility.yul\":12056:12264   */\n      jump(tag_227)\n    tag_229:\n        /* \"#utility.yul\":12292:12298   */\n      dup7\n        /* \"#utility.yul\":12283:12290   */\n      dup4\n        /* \"#utility.yul\":12280:12299   */\n      lt\n        /* \"#utility.yul\":12277:12456   */\n      iszero\n      tag_230\n      jumpi\n        /* \"#utility.yul\":12350:12359   */\n      dup5\n        /* \"#utility.yul\":12345:12348   */\n      dup10\n        /* \"#utility.yul\":12341:12360   */\n      add\n        /* \"#utility.yul\":12335:12361   */\n      mload\n        /* \"#utility.yul\":12393:12441   */\n      tag_231\n        /* \"#utility.yul\":12435:12439   */\n      0x1f\n        /* \"#utility.yul\":12427:12433   */\n      dup10\n        /* \"#utility.yul\":12423:12440   */\n      and\n        /* \"#utility.yul\":12412:12421   */\n      dup3\n        /* \"#utility.yul\":12393:12441   */\n      tag_91\n      jump\t// in\n    tag_231:\n        /* \"#utility.yul\":12385:12391   */\n      dup4\n        /* \"#utility.yul\":12378:12442   */\n      sstore\n        /* \"#utility.yul\":12300:12456   */\n      pop\n        /* \"#utility.yul\":12277:12456   */\n    tag_230:\n        /* \"#utility.yul\":12502:12503   */\n      0x01\n        /* \"#utility.yul\":12498:12499   */\n      0x02\n        /* \"#utility.yul\":12490:12496   */\n      dup9\n        /* \"#utility.yul\":12486:12500   */\n      mul\n        /* \"#utility.yul\":12482:12504   */\n      add\n        /* \"#utility.yul\":12476:12480   */\n      dup9\n        /* \"#utility.yul\":12469:12505   */\n      sstore\n        /* \"#utility.yul\":11904:12515   */\n      pop\n      pop\n      pop\n        /* \"#utility.yul\":11867:12754   */\n    tag_222:\n      pop\n        /* \"#utility.yul\":11457:12760   */\n      pop\n      pop\n      pop\n        /* \"#utility.yul\":11365:12760   */\n      pop\n      pop\n      jump\t// out\n\n    auxdata: 0xa26469706673582212207a22b9d0b10dd8de29671a481590a2468ca24bda43a2895b3a8e5628d43a970164736f6c634300081a0033\n}\n",
				"bytecode": {
					"linkReferences": {},
					"object": "6080604052348015600e575f80fd5b50610b318061001c5f395ff3fe608060405234801561000f575f80fd5b506004361061003f575f3560e01c80630f53a47014610043578063719e37ae146100735780639dd9d0fd1461008f575b5f80fd5b61005d600480360381019061005891906104c4565b6100c1565b60405161006a91906105cd565b60405180910390f35b61008d60048036038101906100889190610719565b610250565b005b6100a960048036038101906100a491906104c4565b6102fa565b6040516100b8939291906107e6565b60405180910390f35b6100c9610437565b5f808373ffffffffffffffffffffffffffffffffffffffff1673ffffffffffffffffffffffffffffffffffffffff1681526020019081526020015f206040518060600160405290815f8201805461011f90610856565b80601f016020809104026020016040519081016040528092919081815260200182805461014b90610856565b80156101965780601f1061016d57610100808354040283529160200191610196565b820191905f5260205f20905b81548152906001019060200180831161017957829003601f168201915b505050505081526020016001820180546101af90610856565b80601f01602080910402602001604051908101604052809291908181526020018280546101db90610856565b80156102265780601f106101fd57610100808354040283529160200191610226565b820191905f5260205f20905b81548152906001019060200180831161020957829003601f168201915b50505050508152602001600282015f9054906101000a900460ff1615151515815250509050919050565b6040518060600160405280838152602001828152602001600115158152505f803373ffffffffffffffffffffffffffffffffffffffff1673ffffffffffffffffffffffffffffffffffffffff1681526020019081526020015f205f820151815f0190816102bd9190610a2c565b5060208201518160010190816102d39190610a2c565b506040820151816002015f6101000a81548160ff0219169083151502179055509050505050565b5f602052805f5260405f205f91509050805f01805461031890610856565b80601f016020809104026020016040519081016040528092919081815260200182805461034490610856565b801561038f5780601f106103665761010080835404028352916020019161038f565b820191905f5260205f20905b81548152906001019060200180831161037257829003601f168201915b5050505050908060010180546103a490610856565b80601f01602080910402602001604051908101604052809291908181526020018280546103d090610856565b801561041b5780601f106103f25761010080835404028352916020019161041b565b820191905f5260205f20905b8154815290600101906020018083116103fe57829003601f168201915b505050505090806002015f9054906101000a900460ff16905083565b604051806060016040528060608152602001606081526020015f151581525090565b5f604051905090565b5f80fd5b5f80fd5b5f73ffffffffffffffffffffffffffffffffffffffff82169050919050565b5f6104938261046a565b9050919050565b6104a381610489565b81146104ad575f80fd5b50565b5f813590506104be8161049a565b92915050565b5f602082840312156104d9576104d8610462565b5b5f6104e6848285016104b0565b91505092915050565b5f81519050919050565b5f82825260208201905092915050565b8281835e5f83830152505050565b5f601f19601f8301169050919050565b5f610531826104ef565b61053b81856104f9565b935061054b818560208601610509565b61055481610517565b840191505092915050565b5f8115159050919050565b6105738161055f565b82525050565b5f606083015f8301518482035f8601526105938282610527565b915050602083015184820360208601526105ad8282610527565b91505060408301516105c2604086018261056a565b508091505092915050565b5f6020820190508181035f8301526105e58184610579565b905092915050565b5f80fd5b5f80fd5b7f4e487b71000000000000000000000000000000000000000000000000000000005f52604160045260245ffd5b61062b82610517565b810181811067ffffffffffffffff8211171561064a576106496105f5565b5b80604052505050565b5f61065c610459565b90506106688282610622565b919050565b5f67ffffffffffffffff821115610687576106866105f5565b5b61069082610517565b9050602081019050919050565b828183375f83830152505050565b5f6106bd6106b88461066d565b610653565b9050828152602081018484840111156106d9576106d86105f1565b5b6106e484828561069d565b509392505050565b5f82601f830112610700576106ff6105ed565b5b81356107108482602086016106ab565b91505092915050565b5f806040838503121561072f5761072e610462565b5b5f83013567ffffffffffffffff81111561074c5761074b610466565b5b610758858286016106ec565b925050602083013567ffffffffffffffff81111561077957610778610466565b5b610785858286016106ec565b9150509250929050565b5f82825260208201905092915050565b5f6107a9826104ef565b6107b3818561078f565b93506107c3818560208601610509565b6107cc81610517565b840191505092915050565b6107e08161055f565b82525050565b5f6060820190508181035f8301526107fe818661079f565b90508181036020830152610812818561079f565b905061082160408301846107d7565b949350505050565b7f4e487b71000000000000000000000000000000000000000000000000000000005f52602260045260245ffd5b5f600282049050600182168061086d57607f821691505b6020821081036108805761087f610829565b5b50919050565b5f819050815f5260205f209050919050565b5f6020601f8301049050919050565b5f82821b905092915050565b5f600883026108e27fffffffffffffffffffffffffffffffffffffffffffffffffffffffffffffffff826108a7565b6108ec86836108a7565b95508019841693508086168417925050509392505050565b5f819050919050565b5f819050919050565b5f61093061092b61092684610904565b61090d565b610904565b9050919050565b5f819050919050565b61094983610916565b61095d61095582610937565b8484546108b3565b825550505050565b5f90565b610971610965565b61097c818484610940565b505050565b5b8181101561099f576109945f82610969565b600181019050610982565b5050565b601f8211156109e4576109b581610886565b6109be84610898565b810160208510156109cd578190505b6109e16109d985610898565b830182610981565b50505b505050565b5f82821c905092915050565b5f610a045f19846008026109e9565b1980831691505092915050565b5f610a1c83836109f5565b9150826002028217905092915050565b610a35826104ef565b67ffffffffffffffff811115610a4e57610a4d6105f5565b5b610a588254610856565b610a638282856109a3565b5f60209050601f831160018114610a94575f8415610a82578287015190505b610a8c8582610a11565b865550610af3565b601f198416610aa286610886565b5f5b82811015610ac957848901518255600182019150602085019450602081019050610aa4565b86831015610ae65784890151610ae2601f8916826109f5565b8355505b6001600288020188555050505b50505050505056fea26469706673582212207a22b9d0b10dd8de29671a481590a2468ca24bda43a2895b3a8e5628d43a970164736f6c634300081a0033",
					"opcodes": "PUSH1 0x80 PUSH1 0x40 MSTORE CALLVALUE DUP1 ISZERO PUSH1 0xE JUMPI PUSH0 DUP1 REVERT JUMPDEST POP PUSH2 0xB31 DUP1 PUSH2 0x1C PUSH0 CODECOPY PUSH0 RETURN INVALID PUSH1 0x80 PUSH1 0x40 MSTORE CALLVALUE DUP1 ISZERO PUSH2 0xF JUMPI PUSH0 DUP1 REVERT JUMPDEST POP PUSH1 0x4 CALLDATASIZE LT PUSH2 0x3F JUMPI PUSH0 CALLDATALOAD PUSH1 0xE0 SHR DUP1 PUSH4 0xF53A470 EQ PUSH2 0x43 JUMPI DUP1 PUSH4 0x719E37AE EQ PUSH2 0x73 JUMPI DUP1 PUSH4 0x9DD9D0FD EQ PUSH2 0x8F JUMPI JUMPDEST PUSH0 DUP1 REVERT JUMPDEST PUSH2 0x5D PUSH1 0x4 DUP1 CALLDATASIZE SUB DUP2 ADD SWAP1 PUSH2 0x58 SWAP2 SWAP1 PUSH2 0x4C4 JUMP JUMPDEST PUSH2 0xC1 JUMP JUMPDEST PUSH1 0x40 MLOAD PUSH2 0x6A SWAP2 SWAP1 PUSH2 0x5CD JUMP JUMPDEST PUSH1 0x40 MLOAD DUP1 SWAP2 SUB SWAP1 RETURN JUMPDEST PUSH2 0x8D PUSH1 0x4 DUP1 CALLDATASIZE SUB DUP2 ADD SWAP1 PUSH2 0x88 SWAP2 SWAP1 PUSH2 0x719 JUMP JUMPDEST PUSH2 0x250 JUMP JUMPDEST STOP JUMPDEST PUSH2 0xA9 PUSH1 0x4 DUP1 CALLDATASIZE SUB DUP2 ADD SWAP1 PUSH2 0xA4 SWAP2 SWAP1 PUSH2 0x4C4 JUMP JUMPDEST PUSH2 0x2FA JUMP JUMPDEST PUSH1 0x40 MLOAD PUSH2 0xB8 SWAP4 SWAP3 SWAP2 SWAP1 PUSH2 0x7E6 JUMP JUMPDEST PUSH1 0x40 MLOAD DUP1 SWAP2 SUB SWAP1 RETURN JUMPDEST PUSH2 0xC9 PUSH2 0x437 JUMP JUMPDEST PUSH0 DUP1 DUP4 PUSH20 0xFFFFFFFFFFFFFFFFFFFFFFFFFFFFFFFFFFFFFFFF AND PUSH20 0xFFFFFFFFFFFFFFFFFFFFFFFFFFFFFFFFFFFFFFFF AND DUP2 MSTORE PUSH1 0x20 ADD SWAP1 DUP2 MSTORE PUSH1 0x20 ADD PUSH0 KECCAK256 PUSH1 0x40 MLOAD DUP1 PUSH1 0x60 ADD PUSH1 0x40 MSTORE SWAP1 DUP2 PUSH0 DUP3 ADD DUP1 SLOAD PUSH2 0x11F SWAP1 PUSH2 0x856 JUMP JUMPDEST DUP1 PUSH1 0x1F ADD PUSH1 0x20 DUP1 SWAP2 DIV MUL PUSH1 0x20 ADD PUSH1 0x40 MLOAD SWAP1 DUP2 ADD PUSH1 0x40 MSTORE DUP1 SWAP3 SWAP2 SWAP1 DUP2 DUP2 MSTORE PUSH1 0x20 ADD DUP3 DUP1 SLOAD PUSH2 0x14B SWAP1 PUSH2 0x856 JUMP JUMPDEST DUP1 ISZERO PUSH2 0x196 JUMPI DUP1 PUSH1 0x1F LT PUSH2 0x16D JUMPI PUSH2 0x100 DUP1 DUP4 SLOAD DIV MUL DUP4 MSTORE SWAP2 PUSH1 0x20 ADD SWAP2 PUSH2 0x196 JUMP JUMPDEST DUP3 ADD SWAP2 SWAP1 PUSH0 MSTORE PUSH1 0x20 PUSH0 KECCAK256 SWAP1 JUMPDEST DUP2 SLOAD DUP2 MSTORE SWAP1 PUSH1 0x1 ADD SWAP1 PUSH1 0x20 ADD DUP1 DUP4 GT PUSH2 0x179 JUMPI DUP3 SWAP1 SUB PUSH1 0x1F AND DUP3 ADD SWAP2 JUMPDEST POP POP POP POP POP DUP2 MSTORE PUSH1 0x20 ADD PUSH1 0x1 DUP3 ADD DUP1 SLOAD PUSH2 0x1AF SWAP1 PUSH2 0x856 JUMP JUMPDEST DUP1 PUSH1 0x1F ADD PUSH1 0x20 DUP1 SWAP2 DIV MUL PUSH1 0x20 ADD PUSH1 0x40 MLOAD SWAP1 DUP2 ADD PUSH1 0x40 MSTORE DUP1 SWAP3 SWAP2 SWAP1 DUP2 DUP2 MSTORE PUSH1 0x20 ADD DUP3 DUP1 SLOAD PUSH2 0x1DB SWAP1 PUSH2 0x856 JUMP JUMPDEST DUP1 ISZERO PUSH2 0x226 JUMPI DUP1 PUSH1 0x1F LT PUSH2 0x1FD JUMPI PUSH2 0x100 DUP1 DUP4 SLOAD DIV MUL DUP4 MSTORE SWAP2 PUSH1 0x20 ADD SWAP2 PUSH2 0x226 JUMP JUMPDEST DUP3 ADD SWAP2 SWAP1 PUSH0 MSTORE PUSH1 0x20 PUSH0 KECCAK256 SWAP1 JUMPDEST DUP2 SLOAD DUP2 MSTORE SWAP1 PUSH1 0x1 ADD SWAP1 PUSH1 0x20 ADD DUP1 DUP4 GT PUSH2 0x209 JUMPI DUP3 SWAP1 SUB PUSH1 0x1F AND DUP3 ADD SWAP2 JUMPDEST POP POP POP POP POP DUP2 MSTORE PUSH1 0x20 ADD PUSH1 0x2 DUP3 ADD PUSH0 SWAP1 SLOAD SWAP1 PUSH2 0x100 EXP SWAP1 DIV PUSH1 0xFF AND ISZERO ISZERO ISZERO ISZERO DUP2 MSTORE POP POP SWAP1 POP SWAP2 SWAP1 POP JUMP JUMPDEST PUSH1 0x40 MLOAD DUP1 PUSH1 0x60 ADD PUSH1 0x40 MSTORE DUP1 DUP4 DUP2 MSTORE PUSH1 0x20 ADD DUP3 DUP2 MSTORE PUSH1 0x20 ADD PUSH1 0x1 ISZERO ISZERO DUP2 MSTORE POP PUSH0 DUP1 CALLER PUSH20 0xFFFFFFFFFFFFFFFFFFFFFFFFFFFFFFFFFFFFFFFF AND PUSH20 0xFFFFFFFFFFFFFFFFFFFFFFFFFFFFFFFFFFFFFFFF AND DUP2 MSTORE PUSH1 0x20 ADD SWAP1 DUP2 MSTORE PUSH1 0x20 ADD PUSH0 KECCAK256 PUSH0 DUP3 ADD MLOAD DUP2 PUSH0 ADD SWAP1 DUP2 PUSH2 0x2BD SWAP2 SWAP1 PUSH2 0xA2C JUMP JUMPDEST POP PUSH1 0x20 DUP3 ADD MLOAD DUP2 PUSH1 0x1 ADD SWAP1 DUP2 PUSH2 0x2D3 SWAP2 SWAP1 PUSH2 0xA2C JUMP JUMPDEST POP PUSH1 0x40 DUP3 ADD MLOAD DUP2 PUSH1 0x2 ADD PUSH0 PUSH2 0x100 EXP DUP2 SLOAD DUP2 PUSH1 0xFF MUL NOT AND SWAP1 DUP4 ISZERO ISZERO MUL OR SWAP1 SSTORE POP SWAP1 POP POP POP POP JUMP JUMPDEST PUSH0 PUSH1 0x20 MSTORE DUP1 PUSH0 MSTORE PUSH1 0x40 PUSH0 KECCAK256 PUSH0 SWAP2 POP SWAP1 POP DUP1 PUSH0 ADD DUP1 SLOAD PUSH2 0x318 SWAP1 PUSH2 0x856 JUMP JUMPDEST DUP1 PUSH1 0x1F ADD PUSH1 0x20 DUP1 SWAP2 DIV MUL PUSH1 0x20 ADD PUSH1 0x40 MLOAD SWAP1 DUP2 ADD PUSH1 0x40 MSTORE DUP1 SWAP3 SWAP2 SWAP1 DUP2 DUP2 MSTORE PUSH1 0x20 ADD DUP3 DUP1 SLOAD PUSH2 0x344 SWAP1 PUSH2 0x856 JUMP JUMPDEST DUP1 ISZERO PUSH2 0x38F JUMPI DUP1 PUSH1 0x1F LT PUSH2 0x366 JUMPI PUSH2 0x100 DUP1 DUP4 SLOAD DIV MUL DUP4 MSTORE SWAP2 PUSH1 0x20 ADD SWAP2 PUSH2 0x38F JUMP JUMPDEST DUP3 ADD SWAP2 SWAP1 PUSH0 MSTORE PUSH1 0x20 PUSH0 KECCAK256 SWAP1 JUMPDEST DUP2 SLOAD DUP2 MSTORE SWAP1 PUSH1 0x1 ADD SWAP1 PUSH1 0x20 ADD DUP1 DUP4 GT PUSH2 0x372 JUMPI DUP3 SWAP1 SUB PUSH1 0x1F AND DUP3 ADD SWAP2 JUMPDEST POP POP POP POP POP SWAP1 DUP1 PUSH1 0x1 ADD DUP1 SLOAD PUSH2 0x3A4 SWAP1 PUSH2 0x856 JUMP JUMPDEST DUP1 PUSH1 0x1F ADD PUSH1 0x20 DUP1 SWAP2 DIV MUL PUSH1 0x20 ADD PUSH1 0x40 MLOAD SWAP1 DUP2 ADD PUSH1 0x40 MSTORE DUP1 SWAP3 SWAP2 SWAP1 DUP2 DUP2 MSTORE PUSH1 0x20 ADD DUP3 DUP1 SLOAD PUSH2 0x3D0 SWAP1 PUSH2 0x856 JUMP JUMPDEST DUP1 ISZERO PUSH2 0x41B JUMPI DUP1 PUSH1 0x1F LT PUSH2 0x3F2 JUMPI PUSH2 0x100 DUP1 DUP4 SLOAD DIV MUL DUP4 MSTORE SWAP2 PUSH1 0x20 ADD SWAP2 PUSH2 0x41B JUMP JUMPDEST DUP3 ADD SWAP2 SWAP1 PUSH0 MSTORE PUSH1 0x20 PUSH0 KECCAK256 SWAP1 JUMPDEST DUP2 SLOAD DUP2 MSTORE SWAP1 PUSH1 0x1 ADD SWAP1 PUSH1 0x20 ADD DUP1 DUP4 GT PUSH2 0x3FE JUMPI DUP3 SWAP1 SUB PUSH1 0x1F AND DUP3 ADD SWAP2 JUMPDEST POP POP POP POP POP SWAP1 DUP1 PUSH1 0x2 ADD PUSH0 SWAP1 SLOAD SWAP1 PUSH2 0x100 EXP SWAP1 DIV PUSH1 0xFF AND SWAP1 POP DUP4 JUMP JUMPDEST PUSH1 0x40 MLOAD DUP1 PUSH1 0x60 ADD PUSH1 0x40 MSTORE DUP1 PUSH1 0x60 DUP2 MSTORE PUSH1 0x20 ADD PUSH1 0x60 DUP2 MSTORE PUSH1 0x20 ADD PUSH0 ISZERO ISZERO DUP2 MSTORE POP SWAP1 JUMP JUMPDEST PUSH0 PUSH1 0x40 MLOAD SWAP1 POP SWAP1 JUMP JUMPDEST PUSH0 DUP1 REVERT JUMPDEST PUSH0 DUP1 REVERT JUMPDEST PUSH0 PUSH20 0xFFFFFFFFFFFFFFFFFFFFFFFFFFFFFFFFFFFFFFFF DUP3 AND SWAP1 POP SWAP2 SWAP1 POP JUMP JUMPDEST PUSH0 PUSH2 0x493 DUP3 PUSH2 0x46A JUMP JUMPDEST SWAP1 POP SWAP2 SWAP1 POP JUMP JUMPDEST PUSH2 0x4A3 DUP2 PUSH2 0x489 JUMP JUMPDEST DUP2 EQ PUSH2 0x4AD JUMPI PUSH0 DUP1 REVERT JUMPDEST POP JUMP JUMPDEST PUSH0 DUP2 CALLDATALOAD SWAP1 POP PUSH2 0x4BE DUP2 PUSH2 0x49A JUMP JUMPDEST SWAP3 SWAP2 POP POP JUMP JUMPDEST PUSH0 PUSH1 0x20 DUP3 DUP5 SUB SLT ISZERO PUSH2 0x4D9 JUMPI PUSH2 0x4D8 PUSH2 0x462 JUMP JUMPDEST JUMPDEST PUSH0 PUSH2 0x4E6 DUP5 DUP3 DUP6 ADD PUSH2 0x4B0 JUMP JUMPDEST SWAP2 POP POP SWAP3 SWAP2 POP POP JUMP JUMPDEST PUSH0 DUP2 MLOAD SWAP1 POP SWAP2 SWAP1 POP JUMP JUMPDEST PUSH0 DUP3 DUP3 MSTORE PUSH1 0x20 DUP3 ADD SWAP1 POP SWAP3 SWAP2 POP POP JUMP JUMPDEST DUP3 DUP2 DUP4 MCOPY PUSH0 DUP4 DUP4 ADD MSTORE POP POP POP JUMP JUMPDEST PUSH0 PUSH1 0x1F NOT PUSH1 0x1F DUP4 ADD AND SWAP1 POP SWAP2 SWAP1 POP JUMP JUMPDEST PUSH0 PUSH2 0x531 DUP3 PUSH2 0x4EF JUMP JUMPDEST PUSH2 0x53B DUP2 DUP6 PUSH2 0x4F9 JUMP JUMPDEST SWAP4 POP PUSH2 0x54B DUP2 DUP6 PUSH1 0x20 DUP7 ADD PUSH2 0x509 JUMP JUMPDEST PUSH2 0x554 DUP2 PUSH2 0x517 JUMP JUMPDEST DUP5 ADD SWAP2 POP POP SWAP3 SWAP2 POP POP JUMP JUMPDEST PUSH0 DUP2 ISZERO ISZERO SWAP1 POP SWAP2 SWAP1 POP JUMP JUMPDEST PUSH2 0x573 DUP2 PUSH2 0x55F JUMP JUMPDEST DUP3 MSTORE POP POP JUMP JUMPDEST PUSH0 PUSH1 0x60 DUP4 ADD PUSH0 DUP4 ADD MLOAD DUP5 DUP3 SUB PUSH0 DUP7 ADD MSTORE PUSH2 0x593 DUP3 DUP3 PUSH2 0x527 JUMP JUMPDEST SWAP2 POP POP PUSH1 0x20 DUP4 ADD MLOAD DUP5 DUP3 SUB PUSH1 0x20 DUP7 ADD MSTORE PUSH2 0x5AD DUP3 DUP3 PUSH2 0x527 JUMP JUMPDEST SWAP2 POP POP PUSH1 0x40 DUP4 ADD MLOAD PUSH2 0x5C2 PUSH1 0x40 DUP7 ADD DUP3 PUSH2 0x56A JUMP JUMPDEST POP DUP1 SWAP2 POP POP SWAP3 SWAP2 POP POP JUMP JUMPDEST PUSH0 PUSH1 0x20 DUP3 ADD SWAP1 POP DUP2 DUP2 SUB PUSH0 DUP4 ADD MSTORE PUSH2 0x5E5 DUP2 DUP5 PUSH2 0x579 JUMP JUMPDEST SWAP1 POP SWAP3 SWAP2 POP POP JUMP JUMPDEST PUSH0 DUP1 REVERT JUMPDEST PUSH0 DUP1 REVERT JUMPDEST PUSH32 0x4E487B7100000000000000000000000000000000000000000000000000000000 PUSH0 MSTORE PUSH1 0x41 PUSH1 0x4 MSTORE PUSH1 0x24 PUSH0 REVERT JUMPDEST PUSH2 0x62B DUP3 PUSH2 0x517 JUMP JUMPDEST DUP2 ADD DUP2 DUP2 LT PUSH8 0xFFFFFFFFFFFFFFFF DUP3 GT OR ISZERO PUSH2 0x64A JUMPI PUSH2 0x649 PUSH2 0x5F5 JUMP JUMPDEST JUMPDEST DUP1 PUSH1 0x40 MSTORE POP POP POP JUMP JUMPDEST PUSH0 PUSH2 0x65C PUSH2 0x459 JUMP JUMPDEST SWAP1 POP PUSH2 0x668 DUP3 DUP3 PUSH2 0x622 JUMP JUMPDEST SWAP2 SWAP1 POP JUMP JUMPDEST PUSH0 PUSH8 0xFFFFFFFFFFFFFFFF DUP3 GT ISZERO PUSH2 0x687 JUMPI PUSH2 0x686 PUSH2 0x5F5 JUMP JUMPDEST JUMPDEST PUSH2 0x690 DUP3 PUSH2 0x517 JUMP JUMPDEST SWAP1 POP PUSH1 0x20 DUP2 ADD SWAP1 POP SWAP2 SWAP1 POP JUMP JUMPDEST DUP3 DUP2 DUP4 CALLDATACOPY PUSH0 DUP4 DUP4 ADD MSTORE POP POP POP JUMP JUMPDEST PUSH0 PUSH2 0x6BD PUSH2 0x6B8 DUP5 PUSH2 0x66D JUMP JUMPDEST PUSH2 0x653 JUMP JUMPDEST SWAP1 POP DUP3 DUP2 MSTORE PUSH1 0x20 DUP2 ADD DUP5 DUP5 DUP5 ADD GT ISZERO PUSH2 0x6D9 JUMPI PUSH2 0x6D8 PUSH2 0x5F1 JUMP JUMPDEST JUMPDEST PUSH2 0x6E4 DUP5 DUP3 DUP6 PUSH2 0x69D JUMP JUMPDEST POP SWAP4 SWAP3 POP POP POP JUMP JUMPDEST PUSH0 DUP3 PUSH1 0x1F DUP4 ADD SLT PUSH2 0x700 JUMPI PUSH2 0x6FF PUSH2 0x5ED JUMP JUMPDEST JUMPDEST DUP2 CALLDATALOAD PUSH2 0x710 DUP5 DUP3 PUSH1 0x20 DUP7 ADD PUSH2 0x6AB JUMP JUMPDEST SWAP2 POP POP SWAP3 SWAP2 POP POP JUMP JUMPDEST PUSH0 DUP1 PUSH1 0x40 DUP4 DUP6 SUB SLT ISZERO PUSH2 0x72F JUMPI PUSH2 0x72E PUSH2 0x462 JUMP JUMPDEST JUMPDEST PUSH0 DUP4 ADD CALLDATALOAD PUSH8 0xFFFFFFFFFFFFFFFF DUP2 GT ISZERO PUSH2 0x74C JUMPI PUSH2 0x74B PUSH2 0x466 JUMP JUMPDEST JUMPDEST PUSH2 0x758 DUP6 DUP3 DUP7 ADD PUSH2 0x6EC JUMP JUMPDEST SWAP3 POP POP PUSH1 0x20 DUP4 ADD CALLDATALOAD PUSH8 0xFFFFFFFFFFFFFFFF DUP2 GT ISZERO PUSH2 0x779 JUMPI PUSH2 0x778 PUSH2 0x466 JUMP JUMPDEST JUMPDEST PUSH2 0x785 DUP6 DUP3 DUP7 ADD PUSH2 0x6EC JUMP JUMPDEST SWAP2 POP POP SWAP3 POP SWAP3 SWAP1 POP JUMP JUMPDEST PUSH0 DUP3 DUP3 MSTORE PUSH1 0x20 DUP3 ADD SWAP1 POP SWAP3 SWAP2 POP POP JUMP JUMPDEST PUSH0 PUSH2 0x7A9 DUP3 PUSH2 0x4EF JUMP JUMPDEST PUSH2 0x7B3 DUP2 DUP6 PUSH2 0x78F JUMP JUMPDEST SWAP4 POP PUSH2 0x7C3 DUP2 DUP6 PUSH1 0x20 DUP7 ADD PUSH2 0x509 JUMP JUMPDEST PUSH2 0x7CC DUP2 PUSH2 0x517 JUMP JUMPDEST DUP5 ADD SWAP2 POP POP SWAP3 SWAP2 POP POP JUMP JUMPDEST PUSH2 0x7E0 DUP2 PUSH2 0x55F JUMP JUMPDEST DUP3 MSTORE POP POP JUMP JUMPDEST PUSH0 PUSH1 0x60 DUP3 ADD SWAP1 POP DUP2 DUP2 SUB PUSH0 DUP4 ADD MSTORE PUSH2 0x7FE DUP2 DUP7 PUSH2 0x79F JUMP JUMPDEST SWAP1 POP DUP2 DUP2 SUB PUSH1 0x20 DUP4 ADD MSTORE PUSH2 0x812 DUP2 DUP6 PUSH2 0x79F JUMP JUMPDEST SWAP1 POP PUSH2 0x821 PUSH1 0x40 DUP4 ADD DUP5 PUSH2 0x7D7 JUMP JUMPDEST SWAP5 SWAP4 POP POP POP POP JUMP JUMPDEST PUSH32 0x4E487B7100000000000000000000000000000000000000000000000000000000 PUSH0 MSTORE PUSH1 0x22 PUSH1 0x4 MSTORE PUSH1 0x24 PUSH0 REVERT JUMPDEST PUSH0 PUSH1 0x2 DUP3 DIV SWAP1 POP PUSH1 0x1 DUP3 AND DUP1 PUSH2 0x86D JUMPI PUSH1 0x7F DUP3 AND SWAP2 POP JUMPDEST PUSH1 0x20 DUP3 LT DUP2 SUB PUSH2 0x880 JUMPI PUSH2 0x87F PUSH2 0x829 JUMP JUMPDEST JUMPDEST POP SWAP2 SWAP1 POP JUMP JUMPDEST PUSH0 DUP2 SWAP1 POP DUP2 PUSH0 MSTORE PUSH1 0x20 PUSH0 KECCAK256 SWAP1 POP SWAP2 SWAP1 POP JUMP JUMPDEST PUSH0 PUSH1 0x20 PUSH1 0x1F DUP4 ADD DIV SWAP1 POP SWAP2 SWAP1 POP JUMP JUMPDEST PUSH0 DUP3 DUP3 SHL SWAP1 POP SWAP3 SWAP2 POP POP JUMP JUMPDEST PUSH0 PUSH1 0x8 DUP4 MUL PUSH2 0x8E2 PUSH32 0xFFFFFFFFFFFFFFFFFFFFFFFFFFFFFFFFFFFFFFFFFFFFFFFFFFFFFFFFFFFFFFFF DUP3 PUSH2 0x8A7 JUMP JUMPDEST PUSH2 0x8EC DUP7 DUP4 PUSH2 0x8A7 JUMP JUMPDEST SWAP6 POP DUP1 NOT DUP5 AND SWAP4 POP DUP1 DUP7 AND DUP5 OR SWAP3 POP POP POP SWAP4 SWAP3 POP POP POP JUMP JUMPDEST PUSH0 DUP2 SWAP1 POP SWAP2 SWAP1 POP JUMP JUMPDEST PUSH0 DUP2 SWAP1 POP SWAP2 SWAP1 POP JUMP JUMPDEST PUSH0 PUSH2 0x930 PUSH2 0x92B PUSH2 0x926 DUP5 PUSH2 0x904 JUMP JUMPDEST PUSH2 0x90D JUMP JUMPDEST PUSH2 0x904 JUMP JUMPDEST SWAP1 POP SWAP2 SWAP1 POP JUMP JUMPDEST PUSH0 DUP2 SWAP1 POP SWAP2 SWAP1 POP JUMP JUMPDEST PUSH2 0x949 DUP4 PUSH2 0x916 JUMP JUMPDEST PUSH2 0x95D PUSH2 0x955 DUP3 PUSH2 0x937 JUMP JUMPDEST DUP5 DUP5 SLOAD PUSH2 0x8B3 JUMP JUMPDEST DUP3 SSTORE POP POP POP POP JUMP JUMPDEST PUSH0 SWAP1 JUMP JUMPDEST PUSH2 0x971 PUSH2 0x965 JUMP JUMPDEST PUSH2 0x97C DUP2 DUP5 DUP5 PUSH2 0x940 JUMP JUMPDEST POP POP POP JUMP JUMPDEST JUMPDEST DUP2 DUP2 LT ISZERO PUSH2 0x99F JUMPI PUSH2 0x994 PUSH0 DUP3 PUSH2 0x969 JUMP JUMPDEST PUSH1 0x1 DUP2 ADD SWAP1 POP PUSH2 0x982 JUMP JUMPDEST POP POP JUMP JUMPDEST PUSH1 0x1F DUP3 GT ISZERO PUSH2 0x9E4 JUMPI PUSH2 0x9B5 DUP2 PUSH2 0x886 JUMP JUMPDEST PUSH2 0x9BE DUP5 PUSH2 0x898 JUMP JUMPDEST DUP2 ADD PUSH1 0x20 DUP6 LT ISZERO PUSH2 0x9CD JUMPI DUP2 SWAP1 POP JUMPDEST PUSH2 0x9E1 PUSH2 0x9D9 DUP6 PUSH2 0x898 JUMP JUMPDEST DUP4 ADD DUP3 PUSH2 0x981 JUMP JUMPDEST POP POP JUMPDEST POP POP POP JUMP JUMPDEST PUSH0 DUP3 DUP3 SHR SWAP1 POP SWAP3 SWAP2 POP POP JUMP JUMPDEST PUSH0 PUSH2 0xA04 PUSH0 NOT DUP5 PUSH1 0x8 MUL PUSH2 0x9E9 JUMP JUMPDEST NOT DUP1 DUP4 AND SWAP2 POP POP SWAP3 SWAP2 POP POP JUMP JUMPDEST PUSH0 PUSH2 0xA1C DUP4 DUP4 PUSH2 0x9F5 JUMP JUMPDEST SWAP2 POP DUP3 PUSH1 0x2 MUL DUP3 OR SWAP1 POP SWAP3 SWAP2 POP POP JUMP JUMPDEST PUSH2 0xA35 DUP3 PUSH2 0x4EF JUMP JUMPDEST PUSH8 0xFFFFFFFFFFFFFFFF DUP2 GT ISZERO PUSH2 0xA4E JUMPI PUSH2 0xA4D PUSH2 0x5F5 JUMP JUMPDEST JUMPDEST PUSH2 0xA58 DUP3 SLOAD PUSH2 0x856 JUMP JUMPDEST PUSH2 0xA63 DUP3 DUP3 DUP6 PUSH2 0x9A3 JUMP JUMPDEST PUSH0 PUSH1 0x20 SWAP1 POP PUSH1 0x1F DUP4 GT PUSH1 0x1 DUP2 EQ PUSH2 0xA94 JUMPI PUSH0 DUP5 ISZERO PUSH2 0xA82 JUMPI DUP3 DUP8 ADD MLOAD SWAP1 POP JUMPDEST PUSH2 0xA8C DUP6 DUP3 PUSH2 0xA11 JUMP JUMPDEST DUP7 SSTORE POP PUSH2 0xAF3 JUMP JUMPDEST PUSH1 0x1F NOT DUP5 AND PUSH2 0xAA2 DUP7 PUSH2 0x886 JUMP JUMPDEST PUSH0 JUMPDEST DUP3 DUP2 LT ISZERO PUSH2 0xAC9 JUMPI DUP5 DUP10 ADD MLOAD DUP3 SSTORE PUSH1 0x1 DUP3 ADD SWAP2 POP PUSH1 0x20 DUP6 ADD SWAP5 POP PUSH1 0x20 DUP2 ADD SWAP1 POP PUSH2 0xAA4 JUMP JUMPDEST DUP7 DUP4 LT ISZERO PUSH2 0xAE6 JUMPI DUP5 DUP10 ADD MLOAD PUSH2 0xAE2 PUSH1 0x1F DUP10 AND DUP3 PUSH2 0x9F5 JUMP JUMPDEST DUP4 SSTORE POP JUMPDEST PUSH1 0x1 PUSH1 0x2 DUP9 MUL ADD DUP9 SSTORE POP POP POP JUMPDEST POP POP POP POP POP POP JUMP INVALID LOG2 PUSH5 0x6970667358 0x22 SLT KECCAK256 PUSH27 0x22B9D0B10DD8DE29671A481590A2468CA24BDA43A2895B3A8E5628 0xD4 GASPRICE SWAP8 ADD PUSH5 0x736F6C6343 STOP ADDMOD BYTE STOP CALLER "
				},
				"gasEstimates": {
					"creation": {
						"codeDepositCost": "573000",
						"executionCost": "604",
						"totalCost": "573604"
					},
					"external": {
						"getProfile(address)": "infinite",
						"profile(address)": "infinite",
						"setProfile(string,string)": "infinite"
					}
				},
				"methodIdentifiers": {
					"getProfile(address)": "0f53a470",
					"profile(address)": "9dd9d0fd",
					"setProfile(string,string)": "719e37ae"
				}
			},
			"storageLayout": {
				"storage": [
					{
						"astId": 13,
						"contract": "contracts/VotingProfile.sol:VotingProfile",
						"label": "profile",
						"offset": 0,
						"slot": "0",
						"type": "t_mapping(t_address,t_struct(UserProfile)8_storage)"
					}
				],
				"types": {
					"t_address": {
						"encoding": "inplace",
						"label": "address",
						"numberOfBytes": "20"
					},
					"t_bool": {
						"encoding": "inplace",
						"label": "bool",
						"numberOfBytes": "1"
					},
					"t_mapping(t_address,t_struct(UserProfile)8_storage)": {
						"encoding": "mapping",
						"key": "t_address",
						"label": "mapping(address => struct VotingProfile.UserProfile)",
						"numberOfBytes": "32",
						"value": "t_struct(UserProfile)8_storage"
					},
					"t_string_storage": {
						"encoding": "bytes",
						"label": "string",
						"numberOfBytes": "32"
					},
					"t_struct(UserProfile)8_storage": {
						"encoding": "inplace",
						"label": "struct VotingProfile.UserProfile",
						"members": [
							{
								"astId": 3,
								"contract": "contracts/VotingProfile.sol:VotingProfile",
								"label": "username",
								"offset": 0,
								"slot": "0",
								"type": "t_string_storage"
							},
							{
								"astId": 5,
								"contract": "contracts/VotingProfile.sol:VotingProfile",
								"label": "bio",
								"offset": 0,
								"slot": "1",
								"type": "t_string_storage"
							},
							{
								"astId": 7,
								"contract": "contracts/VotingProfile.sol:VotingProfile",
								"label": "isRegistered",
								"offset": 0,
								"slot": "2",
								"type": "t_bool"
							}
						],
						"numberOfBytes": "96"
					}
				}
			},
			"userdoc": {
				"kind": "user",
				"methods": {},
				"version": 1
			}
		}
	}
}