{
	"contracts/Voting.sol": {
		"Voting": {
			"abi": [
				{
					"inputs": [
						{
							"internalType": "address",
							"name": "_profileContract",
							"type": "address"
						}
					],
					"stateMutability": "nonpayable",
					"type": "constructor"
				},
				{
					"inputs": [
						{
							"internalType": "address",
							"name": "owner",
							"type": "address"
						}
					],
					"name": "OwnableInvalidOwner",
					"type": "error"
				},
				{
					"inputs": [
						{
							"internalType": "address",
							"name": "account",
							"type": "address"
						}
					],
					"name": "OwnableUnauthorizedAccount",
					"type": "error"
				},
				{
					"anonymous": false,
					"inputs": [
						{
							"indexed": true,
							"internalType": "address",
							"name": "previousOwner",
							"type": "address"
						},
						{
							"indexed": true,
							"internalType": "address",
							"name": "newOwner",
							"type": "address"
						}
					],
					"name": "OwnershipTransferred",
					"type": "event"
				},
				{
					"anonymous": false,
					"inputs": [
						{
							"indexed": false,
							"internalType": "uint256",
							"name": "id",
							"type": "uint256"
						},
						{
							"indexed": false,
							"internalType": "string",
							"name": "title",
							"type": "string"
						},
						{
							"indexed": false,
							"internalType": "string",
							"name": "description",
							"type": "string"
						},
						{
							"indexed": false,
							"internalType": "uint256",
							"name": "votes",
							"type": "uint256"
						},
						{
							"indexed": false,
							"internalType": "address",
							"name": "author",
							"type": "address"
						}
					],
					"name": "proposalCreated",
					"type": "event"
				},
				{
					"inputs": [
						{
							"internalType": "string",
							"name": "_title",
							"type": "string"
						},
						{
							"internalType": "string",
							"name": "_description",
							"type": "string"
						},
						{
							"internalType": "string",
							"name": "_imgUrl",
							"type": "string"
						}
					],
					"name": "createProposal",
					"outputs": [],
					"stateMutability": "nonpayable",
					"type": "function"
				},
				{
					"inputs": [],
					"name": "gerAllProposal",
					"outputs": [
						{
							"components": [
								{
									"internalType": "uint256",
									"name": "id",
									"type": "uint256"
								},
								{
									"internalType": "string",
									"name": "title",
									"type": "string"
								},
								{
									"internalType": "string",
									"name": "description",
									"type": "string"
								},
								{
									"internalType": "string",
									"name": "imgUrl",
									"type": "string"
								},
								{
									"internalType": "uint256",
									"name": "votes",
									"type": "uint256"
								},
								{
									"internalType": "address",
									"name": "author",
									"type": "address"
								}
							],
							"internalType": "struct Voting.Proposal[]",
							"name": "",
							"type": "tuple[]"
						}
					],
					"stateMutability": "view",
					"type": "function"
				},
				{
					"inputs": [
						{
							"internalType": "address",
							"name": "_user",
							"type": "address"
						}
					],
					"name": "getMyProposal",
					"outputs": [
						{
							"components": [
								{
									"internalType": "uint256",
									"name": "id",
									"type": "uint256"
								},
								{
									"internalType": "string",
									"name": "title",
									"type": "string"
								},
								{
									"internalType": "string",
									"name": "description",
									"type": "string"
								},
								{
									"internalType": "string",
									"name": "imgUrl",
									"type": "string"
								},
								{
									"internalType": "uint256",
									"name": "votes",
									"type": "uint256"
								},
								{
									"internalType": "address",
									"name": "author",
									"type": "address"
								}
							],
							"internalType": "struct Voting.Proposal[]",
							"name": "",
							"type": "tuple[]"
						}
					],
					"stateMutability": "view",
					"type": "function"
				},
				{
					"inputs": [
						{
							"internalType": "uint256",
							"name": "_id",
							"type": "uint256"
						}
					],
					"name": "getProposal",
					"outputs": [
						{
							"internalType": "string",
							"name": "",
							"type": "string"
						},
						{
							"internalType": "string",
							"name": "",
							"type": "string"
						}
					],
					"stateMutability": "view",
					"type": "function"
				},
				{
					"inputs": [
						{
							"internalType": "address",
							"name": "",
							"type": "address"
						}
					],
					"name": "hasvoted",
					"outputs": [
						{
							"internalType": "bool",
							"name": "",
							"type": "bool"
						}
					],
					"stateMutability": "view",
					"type": "function"
				},
				{
					"inputs": [
						{
							"internalType": "address",
							"name": "",
							"type": "address"
						},
						{
							"internalType": "uint256",
							"name": "",
							"type": "uint256"
						}
					],
					"name": "myProposal",
					"outputs": [
						{
							"internalType": "uint256",
							"name": "id",
							"type": "uint256"
						},
						{
							"internalType": "string",
							"name": "title",
							"type": "string"
						},
						{
							"internalType": "string",
							"name": "description",
							"type": "string"
						},
						{
							"internalType": "string",
							"name": "imgUrl",
							"type": "string"
						},
						{
							"internalType": "uint256",
							"name": "votes",
							"type": "uint256"
						},
						{
							"internalType": "address",
							"name": "author",
							"type": "address"
						}
					],
					"stateMutability": "view",
					"type": "function"
				},
				{
					"inputs": [],
					"name": "owner",
					"outputs": [
						{
							"internalType": "address",
							"name": "",
							"type": "address"
						}
					],
					"stateMutability": "view",
					"type": "function"
				},
				{
					"inputs": [
						{
							"internalType": "uint256",
							"name": "",
							"type": "uint256"
						}
					],
					"name": "proposalList",
					"outputs": [
						{
							"internalType": "uint256",
							"name": "id",
							"type": "uint256"
						},
						{
							"internalType": "string",
							"name": "title",
							"type": "string"
						},
						{
							"internalType": "string",
							"name": "description",
							"type": "string"
						},
						{
							"internalType": "string",
							"name": "imgUrl",
							"type": "string"
						},
						{
							"internalType": "uint256",
							"name": "votes",
							"type": "uint256"
						},
						{
							"internalType": "address",
							"name": "author",
							"type": "address"
						}
					],
					"stateMutability": "view",
					"type": "function"
				},
				{
					"inputs": [
						{
							"internalType": "uint256",
							"name": "",
							"type": "uint256"
						}
					],
					"name": "proposals",
					"outputs": [
						{
							"internalType": "uint256",
							"name": "id",
							"type": "uint256"
						},
						{
							"internalType": "string",
							"name": "title",
							"type": "string"
						},
						{
							"internalType": "string",
							"name": "description",
							"type": "string"
						},
						{
							"internalType": "string",
							"name": "imgUrl",
							"type": "string"
						},
						{
							"internalType": "uint256",
							"name": "votes",
							"type": "uint256"
						},
						{
							"internalType": "address",
							"name": "author",
							"type": "address"
						}
					],
					"stateMutability": "view",
					"type": "function"
				},
				{
					"inputs": [],
					"name": "renounceOwnership",
					"outputs": [],
					"stateMutability": "nonpayable",
					"type": "function"
				},
				{
					"inputs": [
						{
							"internalType": "address",
							"name": "newOwner",
							"type": "address"
						}
					],
					"name": "transferOwnership",
					"outputs": [],
					"stateMutability": "nonpayable",
					"type": "function"
				},
				{
					"inputs": [
						{
							"internalType": "uint256",
							"name": "_id",
							"type": "uint256"
						}
					],
					"name": "vote",
					"outputs": [],
					"stateMutability": "nonpayable",
					"type": "function"
				}
			],
			"devdoc": {
				"errors": {
					"OwnableInvalidOwner(address)": [
						{
							"details": "The owner is not a valid owner account. (eg. `address(0)`)"
						}
					],
					"OwnableUnauthorizedAccount(address)": [
						{
							"details": "The caller account is not authorized to perform an operation."
						}
					]
				},
				"kind": "dev",
				"methods": {
					"owner()": {
						"details": "Returns the address of the current owner."
					},
					"renounceOwnership()": {
						"details": "Leaves the contract without owner. It will not be possible to call `onlyOwner` functions. Can only be called by the current owner. NOTE: Renouncing ownership will leave the contract without an owner, thereby disabling any functionality that is only available to the owner."
					},
					"transferOwnership(address)": {
						"details": "Transfers ownership of the contract to a new account (`newOwner`). Can only be called by the current owner."
					}
				},
				"version": 1
			},
			"evm": {
				"assembly": "    /* \"contracts/Voting.sol\":145:2219  contract Voting is Ownable { ... */\n  mstore(0x40, 0x80)\n    /* \"contracts/Voting.sol\":537:538  0 */\n  0x00\n    /* \"contracts/Voting.sol\":511:538  uint256 counterProposal = 0 */\n  0x02\n  sstore\n    /* \"contracts/Voting.sol\":218:336  constructor(address _profileContract) Ownable(msg.sender){... */\n  callvalue\n  dup1\n  iszero\n  tag_1\n  jumpi\n  0x00\n  dup1\n  revert\ntag_1:\n  pop\n  mload(0x40)\n  sub(codesize, bytecodeSize)\n  dup1\n  bytecodeSize\n  dup4\n  codecopy\n  dup2\n  dup2\n  add\n  0x40\n  mstore\n  dup2\n  add\n  swap1\n  tag_2\n  swap2\n  swap1\n  tag_3\n  jump\t// in\ntag_2:\n    /* \"contracts/Voting.sol\":264:274  msg.sender */\n  caller\n    /* \"@openzeppelin/contracts/access/Ownable.sol\":1297:1298  0 */\n  0x00\n    /* \"@openzeppelin/contracts/access/Ownable.sol\":1273:1299  initialOwner == address(0) */\n  0xffffffffffffffffffffffffffffffffffffffff\n  and\n    /* \"@openzeppelin/contracts/access/Ownable.sol\":1273:1285  initialOwner */\n  dup2\n    /* \"@openzeppelin/contracts/access/Ownable.sol\":1273:1299  initialOwner == address(0) */\n  0xffffffffffffffffffffffffffffffffffffffff\n  and\n  sub\n    /* \"@openzeppelin/contracts/access/Ownable.sol\":1269:1364  if (initialOwner == address(0)) {... */\n  tag_7\n  jumpi\n    /* \"@openzeppelin/contracts/access/Ownable.sol\":1350:1351  0 */\n  0x00\n    /* \"@openzeppelin/contracts/access/Ownable.sol\":1322:1353  OwnableInvalidOwner(address(0)) */\n  mload(0x40)\n  0x1e4fbdf700000000000000000000000000000000000000000000000000000000\n  dup2\n  mstore\n  0x04\n  add\n  tag_8\n  swap2\n  swap1\n  tag_9\n  jump\t// in\ntag_8:\n  mload(0x40)\n  dup1\n  swap2\n  sub\n  swap1\n  revert\n    /* \"@openzeppelin/contracts/access/Ownable.sol\":1269:1364  if (initialOwner == address(0)) {... */\ntag_7:\n    /* \"@openzeppelin/contracts/access/Ownable.sol\":1373:1405  _transferOwnership(initialOwner) */\n  tag_10\n    /* \"@openzeppelin/contracts/access/Ownable.sol\":1392:1404  initialOwner */\n  dup2\n    /* \"@openzeppelin/contracts/access/Ownable.sol\":1373:1391  _transferOwnership */\n  shl(0x20, tag_11)\n    /* \"@openzeppelin/contracts/access/Ownable.sol\":1373:1405  _transferOwnership(initialOwner) */\n  0x20\n  shr\n  jump\t// in\ntag_10:\n    /* \"@openzeppelin/contracts/access/Ownable.sol\":1225:1412  constructor(address initialOwner) {... */\n  pop\n    /* \"contracts/Voting.sol\":312:328  _profileContract */\n  dup1\n    /* \"contracts/Voting.sol\":285:300  profileContract */\n  0x01\n  0x00\n    /* \"contracts/Voting.sol\":285:329  profileContract = IProfile(_profileContract) */\n  0x0100\n  exp\n  dup2\n  sload\n  dup2\n  0xffffffffffffffffffffffffffffffffffffffff\n  mul\n  not\n  and\n  swap1\n  dup4\n  0xffffffffffffffffffffffffffffffffffffffff\n  and\n  mul\n  or\n  swap1\n  sstore\n  pop\n    /* \"contracts/Voting.sol\":218:336  constructor(address _profileContract) Ownable(msg.sender){... */\n  pop\n    /* \"contracts/Voting.sol\":145:2219  contract Voting is Ownable { ... */\n  jump(tag_13)\n    /* \"@openzeppelin/contracts/access/Ownable.sol\":2912:3099  function _transferOwnership(address newOwner) internal virtual {... */\ntag_11:\n    /* \"@openzeppelin/contracts/access/Ownable.sol\":2985:3001  address oldOwner */\n  0x00\n    /* \"@openzeppelin/contracts/access/Ownable.sol\":3004:3010  _owner */\n  dup1\n  0x00\n  swap1\n  sload\n  swap1\n  0x0100\n  exp\n  swap1\n  div\n  0xffffffffffffffffffffffffffffffffffffffff\n  and\n    /* \"@openzeppelin/contracts/access/Ownable.sol\":2985:3010  address oldOwner = _owner */\n  swap1\n  pop\n    /* \"@openzeppelin/contracts/access/Ownable.sol\":3029:3037  newOwner */\n  dup2\n    /* \"@openzeppelin/contracts/access/Ownable.sol\":3020:3026  _owner */\n  0x00\n  dup1\n    /* \"@openzeppelin/contracts/access/Ownable.sol\":3020:3037  _owner = newOwner */\n  0x0100\n  exp\n  dup2\n  sload\n  dup2\n  0xffffffffffffffffffffffffffffffffffffffff\n  mul\n  not\n  and\n  swap1\n  dup4\n  0xffffffffffffffffffffffffffffffffffffffff\n  and\n  mul\n  or\n  swap1\n  sstore\n  pop\n    /* \"@openzeppelin/contracts/access/Ownable.sol\":3083:3091  newOwner */\n  dup2\n    /* \"@openzeppelin/contracts/access/Ownable.sol\":3052:3092  OwnershipTransferred(oldOwner, newOwner) */\n  0xffffffffffffffffffffffffffffffffffffffff\n  and\n    /* \"@openzeppelin/contracts/access/Ownable.sol\":3073:3081  oldOwner */\n  dup2\n    /* \"@openzeppelin/contracts/access/Ownable.sol\":3052:3092  OwnershipTransferred(oldOwner, newOwner) */\n  0xffffffffffffffffffffffffffffffffffffffff\n  and\n  0x8be0079c531659141344cd1fd0a4f28419497f9722a3daafe3b4186f6b6457e0\n  mload(0x40)\n  mload(0x40)\n  dup1\n  swap2\n  sub\n  swap1\n  log3\n    /* \"@openzeppelin/contracts/access/Ownable.sol\":2975:3099  {... */\n  pop\n    /* \"@openzeppelin/contracts/access/Ownable.sol\":2912:3099  function _transferOwnership(address newOwner) internal virtual {... */\n  pop\n  jump\t// out\n    /* \"#utility.yul\":88:205   */\ntag_16:\n    /* \"#utility.yul\":197:198   */\n  0x00\n    /* \"#utility.yul\":194:195   */\n  dup1\n    /* \"#utility.yul\":187:199   */\n  revert\n    /* \"#utility.yul\":334:460   */\ntag_18:\n    /* \"#utility.yul\":371:378   */\n  0x00\n    /* \"#utility.yul\":411:453   */\n  0xffffffffffffffffffffffffffffffffffffffff\n    /* \"#utility.yul\":404:409   */\n  dup3\n    /* \"#utility.yul\":400:454   */\n  and\n    /* \"#utility.yul\":389:454   */\n  swap1\n  pop\n    /* \"#utility.yul\":334:460   */\n  swap2\n  swap1\n  pop\n  jump\t// out\n    /* \"#utility.yul\":466:562   */\ntag_19:\n    /* \"#utility.yul\":503:510   */\n  0x00\n    /* \"#utility.yul\":532:556   */\n  tag_29\n    /* \"#utility.yul\":550:555   */\n  dup3\n    /* \"#utility.yul\":532:556   */\n  tag_18\n  jump\t// in\ntag_29:\n    /* \"#utility.yul\":521:556   */\n  swap1\n  pop\n    /* \"#utility.yul\":466:562   */\n  swap2\n  swap1\n  pop\n  jump\t// out\n    /* \"#utility.yul\":568:690   */\ntag_20:\n    /* \"#utility.yul\":641:665   */\n  tag_31\n    /* \"#utility.yul\":659:664   */\n  dup2\n    /* \"#utility.yul\":641:665   */\n  tag_19\n  jump\t// in\ntag_31:\n    /* \"#utility.yul\":634:639   */\n  dup2\n    /* \"#utility.yul\":631:666   */\n  eq\n    /* \"#utility.yul\":621:684   */\n  tag_32\n  jumpi\n    /* \"#utility.yul\":680:681   */\n  0x00\n    /* \"#utility.yul\":677:678   */\n  dup1\n    /* \"#utility.yul\":670:682   */\n  revert\n    /* \"#utility.yul\":621:684   */\ntag_32:\n    /* \"#utility.yul\":568:690   */\n  pop\n  jump\t// out\n    /* \"#utility.yul\":696:839   */\ntag_21:\n    /* \"#utility.yul\":753:758   */\n  0x00\n    /* \"#utility.yul\":784:790   */\n  dup2\n    /* \"#utility.yul\":778:791   */\n  mload\n    /* \"#utility.yul\":769:791   */\n  swap1\n  pop\n    /* \"#utility.yul\":800:833   */\n  tag_34\n    /* \"#utility.yul\":827:832   */\n  dup2\n    /* \"#utility.yul\":800:833   */\n  tag_20\n  jump\t// in\ntag_34:\n    /* \"#utility.yul\":696:839   */\n  swap3\n  swap2\n  pop\n  pop\n  jump\t// out\n    /* \"#utility.yul\":845:1196   */\ntag_3:\n    /* \"#utility.yul\":915:921   */\n  0x00\n    /* \"#utility.yul\":964:966   */\n  0x20\n    /* \"#utility.yul\":952:961   */\n  dup3\n    /* \"#utility.yul\":943:950   */\n  dup5\n    /* \"#utility.yul\":939:962   */\n  sub\n    /* \"#utility.yul\":935:967   */\n  slt\n    /* \"#utility.yul\":932:1051   */\n  iszero\n  tag_36\n  jumpi\n    /* \"#utility.yul\":970:1049   */\n  tag_37\n  tag_16\n  jump\t// in\ntag_37:\n    /* \"#utility.yul\":932:1051   */\ntag_36:\n    /* \"#utility.yul\":1090:1091   */\n  0x00\n    /* \"#utility.yul\":1115:1179   */\n  tag_38\n    /* \"#utility.yul\":1171:1178   */\n  dup5\n    /* \"#utility.yul\":1162:1168   */\n  dup3\n    /* \"#utility.yul\":1151:1160   */\n  dup6\n    /* \"#utility.yul\":1147:1169   */\n  add\n    /* \"#utility.yul\":1115:1179   */\n  tag_21\n  jump\t// in\ntag_38:\n    /* \"#utility.yul\":1105:1179   */\n  swap2\n  pop\n    /* \"#utility.yul\":1061:1189   */\n  pop\n    /* \"#utility.yul\":845:1196   */\n  swap3\n  swap2\n  pop\n  pop\n  jump\t// out\n    /* \"#utility.yul\":1202:1320   */\ntag_22:\n    /* \"#utility.yul\":1289:1313   */\n  tag_40\n    /* \"#utility.yul\":1307:1312   */\n  dup2\n    /* \"#utility.yul\":1289:1313   */\n  tag_19\n  jump\t// in\ntag_40:\n    /* \"#utility.yul\":1284:1287   */\n  dup3\n    /* \"#utility.yul\":1277:1314   */\n  mstore\n    /* \"#utility.yul\":1202:1320   */\n  pop\n  pop\n  jump\t// out\n    /* \"#utility.yul\":1326:1548   */\ntag_9:\n    /* \"#utility.yul\":1419:1423   */\n  0x00\n    /* \"#utility.yul\":1457:1459   */\n  0x20\n    /* \"#utility.yul\":1446:1455   */\n  dup3\n    /* \"#utility.yul\":1442:1460   */\n  add\n    /* \"#utility.yul\":1434:1460   */\n  swap1\n  pop\n    /* \"#utility.yul\":1470:1541   */\n  tag_42\n    /* \"#utility.yul\":1538:1539   */\n  0x00\n    /* \"#utility.yul\":1527:1536   */\n  dup4\n    /* \"#utility.yul\":1523:1540   */\n  add\n    /* \"#utility.yul\":1514:1520   */\n  dup5\n    /* \"#utility.yul\":1470:1541   */\n  tag_22\n  jump\t// in\ntag_42:\n    /* \"#utility.yul\":1326:1548   */\n  swap3\n  swap2\n  pop\n  pop\n  jump\t// out\n    /* \"contracts/Voting.sol\":145:2219  contract Voting is Ownable { ... */\ntag_13:\n  dataSize(sub_0)\n  dup1\n  dataOffset(sub_0)\n  0x00\n  codecopy\n  0x00\n  return\nstop\n\nsub_0: assembly {\n        /* \"contracts/Voting.sol\":145:2219  contract Voting is Ownable { ... */\n      mstore(0x40, 0x80)\n      callvalue\n      dup1\n      iszero\n      tag_1\n      jumpi\n      0x00\n      dup1\n      revert\n    tag_1:\n      pop\n      jumpi(tag_2, lt(calldatasize, 0x04))\n      shr(0xe0, calldataload(0x00))\n      dup1\n      0x8da5cb5b\n      gt\n      tag_15\n      jumpi\n      dup1\n      0x8da5cb5b\n      eq\n      tag_9\n      jumpi\n      dup1\n      0xbe07d1d9\n      eq\n      tag_10\n      jumpi\n      dup1\n      0xc6311e3f\n      eq\n      tag_11\n      jumpi\n      dup1\n      0xc7f758a8\n      eq\n      tag_12\n      jumpi\n      dup1\n      0xf2fde38b\n      eq\n      tag_13\n      jumpi\n      dup1\n      0xf30282a1\n      eq\n      tag_14\n      jumpi\n      jump(tag_2)\n    tag_15:\n      dup1\n      0x0121b93f\n      eq\n      tag_3\n      jumpi\n      dup1\n      0x013cf08b\n      eq\n      tag_4\n      jumpi\n      dup1\n      0x159428d1\n      eq\n      tag_5\n      jumpi\n      dup1\n      0x2b499cab\n      eq\n      tag_6\n      jumpi\n      dup1\n      0x583cf379\n      eq\n      tag_7\n      jumpi\n      dup1\n      0x715018a6\n      eq\n      tag_8\n      jumpi\n    tag_2:\n      0x00\n      dup1\n      revert\n        /* \"contracts/Voting.sol\":2072:2216  function vote(uint256 _id) public onlyRegisterd onlyHasNoVoted{... */\n    tag_3:\n      tag_16\n      0x04\n      dup1\n      calldatasize\n      sub\n      dup2\n      add\n      swap1\n      tag_17\n      swap2\n      swap1\n      tag_18\n      jump\t// in\n    tag_17:\n      tag_19\n      jump\t// in\n    tag_16:\n      stop\n        /* \"contracts/Voting.sol\":731:776  mapping(uint256 => Proposal) public proposals */\n    tag_4:\n      tag_20\n      0x04\n      dup1\n      calldatasize\n      sub\n      dup2\n      add\n      swap1\n      tag_21\n      swap2\n      swap1\n      tag_18\n      jump\t// in\n    tag_21:\n      tag_22\n      jump\t// in\n    tag_20:\n      mload(0x40)\n      tag_23\n      swap7\n      swap6\n      swap5\n      swap4\n      swap3\n      swap2\n      swap1\n      tag_24\n      jump\t// in\n    tag_23:\n      mload(0x40)\n      dup1\n      swap2\n      sub\n      swap1\n      return\n        /* \"contracts/Voting.sol\":1734:1852  function getMyProposal(address _user) public view returns (Proposal[] memory){... */\n    tag_5:\n      tag_25\n      0x04\n      dup1\n      calldatasize\n      sub\n      dup2\n      add\n      swap1\n      tag_26\n      swap2\n      swap1\n      tag_27\n      jump\t// in\n    tag_26:\n      tag_28\n      jump\t// in\n    tag_25:\n      mload(0x40)\n      tag_29\n      swap2\n      swap1\n      tag_30\n      jump\t// in\n    tag_29:\n      mload(0x40)\n      dup1\n      swap2\n      sub\n      swap1\n      return\n        /* \"contracts/Voting.sol\":782:822  mapping(address => bool) public hasvoted */\n    tag_6:\n      tag_31\n      0x04\n      dup1\n      calldatasize\n      sub\n      dup2\n      add\n      swap1\n      tag_32\n      swap2\n      swap1\n      tag_27\n      jump\t// in\n    tag_32:\n      tag_33\n      jump\t// in\n    tag_31:\n      mload(0x40)\n      tag_34\n      swap2\n      swap1\n      tag_35\n      jump\t// in\n    tag_34:\n      mload(0x40)\n      dup1\n      swap2\n      sub\n      swap1\n      return\n        /* \"contracts/Voting.sol\":1203:1621  function createProposal(string memory _title, string memory _description, string memory _imgUrl) onlyRegisterd public {... */\n    tag_7:\n      tag_36\n      0x04\n      dup1\n      calldatasize\n      sub\n      dup2\n      add\n      swap1\n      tag_37\n      swap2\n      swap1\n      tag_38\n      jump\t// in\n    tag_37:\n      tag_39\n      jump\t// in\n    tag_36:\n      stop\n        /* \"@openzeppelin/contracts/access/Ownable.sol\":2293:2394  function renounceOwnership() public virtual onlyOwner {... */\n    tag_8:\n      tag_40\n      tag_41\n      jump\t// in\n    tag_40:\n      stop\n        /* \"@openzeppelin/contracts/access/Ownable.sol\":1638:1723  function owner() public view virtual returns (address) {... */\n    tag_9:\n      tag_42\n      tag_43\n      jump\t// in\n    tag_42:\n      mload(0x40)\n      tag_44\n      swap2\n      swap1\n      tag_45\n      jump\t// in\n    tag_44:\n      mload(0x40)\n      dup1\n      swap2\n      sub\n      swap1\n      return\n        /* \"contracts/Voting.sol\":676:725  mapping (address => Proposal[]) public myProposal */\n    tag_10:\n      tag_46\n      0x04\n      dup1\n      calldatasize\n      sub\n      dup2\n      add\n      swap1\n      tag_47\n      swap2\n      swap1\n      tag_48\n      jump\t// in\n    tag_47:\n      tag_49\n      jump\t// in\n    tag_46:\n      mload(0x40)\n      tag_50\n      swap7\n      swap6\n      swap5\n      swap4\n      swap3\n      swap2\n      swap1\n      tag_24\n      jump\t// in\n    tag_50:\n      mload(0x40)\n      dup1\n      swap2\n      sub\n      swap1\n      return\n        /* \"contracts/Voting.sol\":841:871  Proposal[] public proposalList */\n    tag_11:\n      tag_51\n      0x04\n      dup1\n      calldatasize\n      sub\n      dup2\n      add\n      swap1\n      tag_52\n      swap2\n      swap1\n      tag_18\n      jump\t// in\n    tag_52:\n      tag_53\n      jump\t// in\n    tag_51:\n      mload(0x40)\n      tag_54\n      swap7\n      swap6\n      swap5\n      swap4\n      swap3\n      swap2\n      swap1\n      tag_24\n      jump\t// in\n    tag_54:\n      mload(0x40)\n      dup1\n      swap2\n      sub\n      swap1\n      return\n        /* \"contracts/Voting.sol\":1858:2066  function getProposal(uint256 _id) public view returns(string memory, string memory){... */\n    tag_12:\n      tag_55\n      0x04\n      dup1\n      calldatasize\n      sub\n      dup2\n      add\n      swap1\n      tag_56\n      swap2\n      swap1\n      tag_18\n      jump\t// in\n    tag_56:\n      tag_57\n      jump\t// in\n    tag_55:\n      mload(0x40)\n      tag_58\n      swap3\n      swap2\n      swap1\n      tag_59\n      jump\t// in\n    tag_58:\n      mload(0x40)\n      dup1\n      swap2\n      sub\n      swap1\n      return\n        /* \"@openzeppelin/contracts/access/Ownable.sol\":2543:2758  function transferOwnership(address newOwner) public virtual onlyOwner {... */\n    tag_13:\n      tag_60\n      0x04\n      dup1\n      calldatasize\n      sub\n      dup2\n      add\n      swap1\n      tag_61\n      swap2\n      swap1\n      tag_27\n      jump\t// in\n    tag_61:\n      tag_62\n      jump\t// in\n    tag_60:\n      stop\n        /* \"contracts/Voting.sol\":1627:1728  function gerAllProposal() public view returns (Proposal[] memory){... */\n    tag_14:\n      tag_63\n      tag_64\n      jump\t// in\n    tag_63:\n      mload(0x40)\n      tag_65\n      swap2\n      swap1\n      tag_30\n      jump\t// in\n    tag_65:\n      mload(0x40)\n      dup1\n      swap2\n      sub\n      swap1\n      return\n        /* \"contracts/Voting.sol\":2072:2216  function vote(uint256 _id) public onlyRegisterd onlyHasNoVoted{... */\n    tag_19:\n        /* \"contracts/Voting.sol\":912:947  IProfile.profile memory profileTemp */\n      0x00\n        /* \"contracts/Voting.sol\":951:966  profileContract */\n      0x01\n      0x00\n      swap1\n      sload\n      swap1\n      0x0100\n      exp\n      swap1\n      div\n      0xffffffffffffffffffffffffffffffffffffffff\n      and\n        /* \"contracts/Voting.sol\":951:977  profileContract.getProfile */\n      0xffffffffffffffffffffffffffffffffffffffff\n      and\n      0x0f53a470\n        /* \"contracts/Voting.sol\":978:988  msg.sender */\n      caller\n        /* \"contracts/Voting.sol\":951:989  profileContract.getProfile(msg.sender) */\n      mload(0x40)\n      dup3\n      0xffffffff\n      and\n      0xe0\n      shl\n      dup2\n      mstore\n      0x04\n      add\n      tag_67\n      swap2\n      swap1\n      tag_45\n      jump\t// in\n    tag_67:\n      0x00\n      mload(0x40)\n      dup1\n      dup4\n      sub\n      dup2\n      dup7\n      gas\n      staticcall\n      iszero\n      dup1\n      iszero\n      tag_69\n      jumpi\n      returndatasize\n      0x00\n      dup1\n      returndatacopy\n      revert(0x00, returndatasize)\n    tag_69:\n      pop\n      pop\n      pop\n      pop\n      mload(0x40)\n      returndatasize\n      0x00\n      dup3\n      returndatacopy\n      returndatasize\n      not(0x1f)\n      0x1f\n      dup3\n      add\n      and\n      dup3\n      add\n      dup1\n      0x40\n      mstore\n      pop\n      dup2\n      add\n      swap1\n      tag_70\n      swap2\n      swap1\n      tag_71\n      jump\t// in\n    tag_70:\n        /* \"contracts/Voting.sol\":912:989  IProfile.profile memory profileTemp =  profileContract.getProfile(msg.sender) */\n      swap1\n      pop\n        /* \"contracts/Voting.sol\":1007:1018  profileTemp */\n      dup1\n        /* \"contracts/Voting.sol\":1007:1031  profileTemp.isRegistered */\n      0x40\n      add\n      mload\n        /* \"contracts/Voting.sol\":999:1057  require(profileTemp.isRegistered, \"You have to Registerd\") */\n      tag_72\n      jumpi\n      mload(0x40)\n      0x08c379a000000000000000000000000000000000000000000000000000000000\n      dup2\n      mstore\n      0x04\n      add\n      tag_73\n      swap1\n      tag_74\n      jump\t// in\n    tag_73:\n      mload(0x40)\n      dup1\n      swap2\n      sub\n      swap1\n      revert\n    tag_72:\n        /* \"contracts/Voting.sol\":1125:1133  hasvoted */\n      0x05\n        /* \"contracts/Voting.sol\":1125:1146  hasvoted[msg.sender ] */\n      0x00\n        /* \"contracts/Voting.sol\":1134:1144  msg.sender */\n      caller\n        /* \"contracts/Voting.sol\":1125:1146  hasvoted[msg.sender ] */\n      0xffffffffffffffffffffffffffffffffffffffff\n      and\n      0xffffffffffffffffffffffffffffffffffffffff\n      and\n      dup2\n      mstore\n      0x20\n      add\n      swap1\n      dup2\n      mstore\n      0x20\n      add\n      0x00\n      keccak256\n      0x00\n      swap1\n      sload\n      swap1\n      0x0100\n      exp\n      swap1\n      div\n      0xff\n      and\n        /* \"contracts/Voting.sol\":1124:1146  !hasvoted[msg.sender ] */\n      iszero\n        /* \"contracts/Voting.sol\":1116:1173  require(!hasvoted[msg.sender ], \"You are already Voted!\") */\n      tag_76\n      jumpi\n      mload(0x40)\n      0x08c379a000000000000000000000000000000000000000000000000000000000\n      dup2\n      mstore\n      0x04\n      add\n      tag_77\n      swap1\n      tag_78\n      jump\t// in\n    tag_77:\n      mload(0x40)\n      dup1\n      swap2\n      sub\n      swap1\n      revert\n    tag_76:\n        /* \"contracts/Voting.sol\":2168:2169  1 */\n      0x01\n        /* \"contracts/Voting.sol\":2144:2153  proposals */\n      0x04\n        /* \"contracts/Voting.sol\":2144:2158  proposals[_id] */\n      0x00\n        /* \"contracts/Voting.sol\":2154:2157  _id */\n      dup5\n        /* \"contracts/Voting.sol\":2144:2158  proposals[_id] */\n      dup2\n      mstore\n      0x20\n      add\n      swap1\n      dup2\n      mstore\n      0x20\n      add\n      0x00\n      keccak256\n        /* \"contracts/Voting.sol\":2144:2164  proposals[_id].votes */\n      0x04\n      add\n      0x00\n        /* \"contracts/Voting.sol\":2144:2169  proposals[_id].votes += 1 */\n      dup3\n      dup3\n      sload\n      tag_80\n      swap2\n      swap1\n      tag_81\n      jump\t// in\n    tag_80:\n      swap3\n      pop\n      pop\n      dup2\n      swap1\n      sstore\n      pop\n        /* \"contracts/Voting.sol\":2202:2206  true */\n      0x01\n        /* \"contracts/Voting.sol\":2179:2187  hasvoted */\n      0x05\n        /* \"contracts/Voting.sol\":2179:2199  hasvoted[msg.sender] */\n      0x00\n        /* \"contracts/Voting.sol\":2188:2198  msg.sender */\n      caller\n        /* \"contracts/Voting.sol\":2179:2199  hasvoted[msg.sender] */\n      0xffffffffffffffffffffffffffffffffffffffff\n      and\n      0xffffffffffffffffffffffffffffffffffffffff\n      and\n      dup2\n      mstore\n      0x20\n      add\n      swap1\n      dup2\n      mstore\n      0x20\n      add\n      0x00\n      keccak256\n      0x00\n        /* \"contracts/Voting.sol\":2179:2206  hasvoted[msg.sender] = true */\n      0x0100\n      exp\n      dup2\n      sload\n      dup2\n      0xff\n      mul\n      not\n      and\n      swap1\n      dup4\n      iszero\n      iszero\n      mul\n      or\n      swap1\n      sstore\n      pop\n        /* \"contracts/Voting.sol\":902:1075  {... */\n      pop\n        /* \"contracts/Voting.sol\":2072:2216  function vote(uint256 _id) public onlyRegisterd onlyHasNoVoted{... */\n      pop\n      jump\t// out\n        /* \"contracts/Voting.sol\":731:776  mapping(uint256 => Proposal) public proposals */\n    tag_22:\n      mstore(0x20, 0x04)\n      dup1\n      0x00\n      mstore\n      keccak256(0x00, 0x40)\n      0x00\n      swap2\n      pop\n      swap1\n      pop\n      dup1\n      0x00\n      add\n      sload\n      swap1\n      dup1\n      0x01\n      add\n      dup1\n      sload\n      tag_82\n      swap1\n      tag_83\n      jump\t// in\n    tag_82:\n      dup1\n      0x1f\n      add\n      0x20\n      dup1\n      swap2\n      div\n      mul\n      0x20\n      add\n      mload(0x40)\n      swap1\n      dup2\n      add\n      0x40\n      mstore\n      dup1\n      swap3\n      swap2\n      swap1\n      dup2\n      dup2\n      mstore\n      0x20\n      add\n      dup3\n      dup1\n      sload\n      tag_84\n      swap1\n      tag_83\n      jump\t// in\n    tag_84:\n      dup1\n      iszero\n      tag_85\n      jumpi\n      dup1\n      0x1f\n      lt\n      tag_86\n      jumpi\n      0x0100\n      dup1\n      dup4\n      sload\n      div\n      mul\n      dup4\n      mstore\n      swap2\n      0x20\n      add\n      swap2\n      jump(tag_85)\n    tag_86:\n      dup3\n      add\n      swap2\n      swap1\n      0x00\n      mstore\n      keccak256(0x00, 0x20)\n      swap1\n    tag_87:\n      dup2\n      sload\n      dup2\n      mstore\n      swap1\n      0x01\n      add\n      swap1\n      0x20\n      add\n      dup1\n      dup4\n      gt\n      tag_87\n      jumpi\n      dup3\n      swap1\n      sub\n      0x1f\n      and\n      dup3\n      add\n      swap2\n    tag_85:\n      pop\n      pop\n      pop\n      pop\n      pop\n      swap1\n      dup1\n      0x02\n      add\n      dup1\n      sload\n      tag_88\n      swap1\n      tag_83\n      jump\t// in\n    tag_88:\n      dup1\n      0x1f\n      add\n      0x20\n      dup1\n      swap2\n      div\n      mul\n      0x20\n      add\n      mload(0x40)\n      swap1\n      dup2\n      add\n      0x40\n      mstore\n      dup1\n      swap3\n      swap2\n      swap1\n      dup2\n      dup2\n      mstore\n      0x20\n      add\n      dup3\n      dup1\n      sload\n      tag_89\n      swap1\n      tag_83\n      jump\t// in\n    tag_89:\n      dup1\n      iszero\n      tag_90\n      jumpi\n      dup1\n      0x1f\n      lt\n      tag_91\n      jumpi\n      0x0100\n      dup1\n      dup4\n      sload\n      div\n      mul\n      dup4\n      mstore\n      swap2\n      0x20\n      add\n      swap2\n      jump(tag_90)\n    tag_91:\n      dup3\n      add\n      swap2\n      swap1\n      0x00\n      mstore\n      keccak256(0x00, 0x20)\n      swap1\n    tag_92:\n      dup2\n      sload\n      dup2\n      mstore\n      swap1\n      0x01\n      add\n      swap1\n      0x20\n      add\n      dup1\n      dup4\n      gt\n      tag_92\n      jumpi\n      dup3\n      swap1\n      sub\n      0x1f\n      and\n      dup3\n      add\n      swap2\n    tag_90:\n      pop\n      pop\n      pop\n      pop\n      pop\n      swap1\n      dup1\n      0x03\n      add\n      dup1\n      sload\n      tag_93\n      swap1\n      tag_83\n      jump\t// in\n    tag_93:\n      dup1\n      0x1f\n      add\n      0x20\n      dup1\n      swap2\n      div\n      mul\n      0x20\n      add\n      mload(0x40)\n      swap1\n      dup2\n      add\n      0x40\n      mstore\n      dup1\n      swap3\n      swap2\n      swap1\n      dup2\n      dup2\n      mstore\n      0x20\n      add\n      dup3\n      dup1\n      sload\n      tag_94\n      swap1\n      tag_83\n      jump\t// in\n    tag_94:\n      dup1\n      iszero\n      tag_95\n      jumpi\n      dup1\n      0x1f\n      lt\n      tag_96\n      jumpi\n      0x0100\n      dup1\n      dup4\n      sload\n      div\n      mul\n      dup4\n      mstore\n      swap2\n      0x20\n      add\n      swap2\n      jump(tag_95)\n    tag_96:\n      dup3\n      add\n      swap2\n      swap1\n      0x00\n      mstore\n      keccak256(0x00, 0x20)\n      swap1\n    tag_97:\n      dup2\n      sload\n      dup2\n      mstore\n      swap1\n      0x01\n      add\n      swap1\n      0x20\n      add\n      dup1\n      dup4\n      gt\n      tag_97\n      jumpi\n      dup3\n      swap1\n      sub\n      0x1f\n      and\n      dup3\n      add\n      swap2\n    tag_95:\n      pop\n      pop\n      pop\n      pop\n      pop\n      swap1\n      dup1\n      0x04\n      add\n      sload\n      swap1\n      dup1\n      0x05\n      add\n      0x00\n      swap1\n      sload\n      swap1\n      0x0100\n      exp\n      swap1\n      div\n      0xffffffffffffffffffffffffffffffffffffffff\n      and\n      swap1\n      pop\n      dup7\n      jump\t// out\n        /* \"contracts/Voting.sol\":1734:1852  function getMyProposal(address _user) public view returns (Proposal[] memory){... */\n    tag_28:\n        /* \"contracts/Voting.sol\":1793:1810  Proposal[] memory */\n      0x60\n        /* \"contracts/Voting.sol\":1828:1838  myProposal */\n      0x03\n        /* \"contracts/Voting.sol\":1828:1845  myProposal[_user] */\n      0x00\n        /* \"contracts/Voting.sol\":1839:1844  _user */\n      dup4\n        /* \"contracts/Voting.sol\":1828:1845  myProposal[_user] */\n      0xffffffffffffffffffffffffffffffffffffffff\n      and\n      0xffffffffffffffffffffffffffffffffffffffff\n      and\n      dup2\n      mstore\n      0x20\n      add\n      swap1\n      dup2\n      mstore\n      0x20\n      add\n      0x00\n      keccak256\n        /* \"contracts/Voting.sol\":1821:1845  return myProposal[_user] */\n      dup1\n      sload\n      dup1\n      0x20\n      mul\n      0x20\n      add\n      mload(0x40)\n      swap1\n      dup2\n      add\n      0x40\n      mstore\n      dup1\n      swap3\n      swap2\n      swap1\n      dup2\n      dup2\n      mstore\n      0x20\n      add\n      0x00\n      swap1\n    tag_99:\n      dup3\n      dup3\n      lt\n      iszero\n      tag_100\n      jumpi\n      dup4\n      dup3\n      swap1\n      0x00\n      mstore\n      keccak256(0x00, 0x20)\n      swap1\n      0x06\n      mul\n      add\n      mload(0x40)\n      dup1\n      0xc0\n      add\n      0x40\n      mstore\n      swap1\n      dup2\n      0x00\n      dup3\n      add\n      sload\n      dup2\n      mstore\n      0x20\n      add\n      0x01\n      dup3\n      add\n      dup1\n      sload\n      tag_102\n      swap1\n      tag_83\n      jump\t// in\n    tag_102:\n      dup1\n      0x1f\n      add\n      0x20\n      dup1\n      swap2\n      div\n      mul\n      0x20\n      add\n      mload(0x40)\n      swap1\n      dup2\n      add\n      0x40\n      mstore\n      dup1\n      swap3\n      swap2\n      swap1\n      dup2\n      dup2\n      mstore\n      0x20\n      add\n      dup3\n      dup1\n      sload\n      tag_103\n      swap1\n      tag_83\n      jump\t// in\n    tag_103:\n      dup1\n      iszero\n      tag_104\n      jumpi\n      dup1\n      0x1f\n      lt\n      tag_105\n      jumpi\n      0x0100\n      dup1\n      dup4\n      sload\n      div\n      mul\n      dup4\n      mstore\n      swap2\n      0x20\n      add\n      swap2\n      jump(tag_104)\n    tag_105:\n      dup3\n      add\n      swap2\n      swap1\n      0x00\n      mstore\n      keccak256(0x00, 0x20)\n      swap1\n    tag_106:\n      dup2\n      sload\n      dup2\n      mstore\n      swap1\n      0x01\n      add\n      swap1\n      0x20\n      add\n      dup1\n      dup4\n      gt\n      tag_106\n      jumpi\n      dup3\n      swap1\n      sub\n      0x1f\n      and\n      dup3\n      add\n      swap2\n    tag_104:\n      pop\n      pop\n      pop\n      pop\n      pop\n      dup2\n      mstore\n      0x20\n      add\n      0x02\n      dup3\n      add\n      dup1\n      sload\n      tag_107\n      swap1\n      tag_83\n      jump\t// in\n    tag_107:\n      dup1\n      0x1f\n      add\n      0x20\n      dup1\n      swap2\n      div\n      mul\n      0x20\n      add\n      mload(0x40)\n      swap1\n      dup2\n      add\n      0x40\n      mstore\n      dup1\n      swap3\n      swap2\n      swap1\n      dup2\n      dup2\n      mstore\n      0x20\n      add\n      dup3\n      dup1\n      sload\n      tag_108\n      swap1\n      tag_83\n      jump\t// in\n    tag_108:\n      dup1\n      iszero\n      tag_109\n      jumpi\n      dup1\n      0x1f\n      lt\n      tag_110\n      jumpi\n      0x0100\n      dup1\n      dup4\n      sload\n      div\n      mul\n      dup4\n      mstore\n      swap2\n      0x20\n      add\n      swap2\n      jump(tag_109)\n    tag_110:\n      dup3\n      add\n      swap2\n      swap1\n      0x00\n      mstore\n      keccak256(0x00, 0x20)\n      swap1\n    tag_111:\n      dup2\n      sload\n      dup2\n      mstore\n      swap1\n      0x01\n      add\n      swap1\n      0x20\n      add\n      dup1\n      dup4\n      gt\n      tag_111\n      jumpi\n      dup3\n      swap1\n      sub\n      0x1f\n      and\n      dup3\n      add\n      swap2\n    tag_109:\n      pop\n      pop\n      pop\n      pop\n      pop\n      dup2\n      mstore\n      0x20\n      add\n      0x03\n      dup3\n      add\n      dup1\n      sload\n      tag_112\n      swap1\n      tag_83\n      jump\t// in\n    tag_112:\n      dup1\n      0x1f\n      add\n      0x20\n      dup1\n      swap2\n      div\n      mul\n      0x20\n      add\n      mload(0x40)\n      swap1\n      dup2\n      add\n      0x40\n      mstore\n      dup1\n      swap3\n      swap2\n      swap1\n      dup2\n      dup2\n      mstore\n      0x20\n      add\n      dup3\n      dup1\n      sload\n      tag_113\n      swap1\n      tag_83\n      jump\t// in\n    tag_113:\n      dup1\n      iszero\n      tag_114\n      jumpi\n      dup1\n      0x1f\n      lt\n      tag_115\n      jumpi\n      0x0100\n      dup1\n      dup4\n      sload\n      div\n      mul\n      dup4\n      mstore\n      swap2\n      0x20\n      add\n      swap2\n      jump(tag_114)\n    tag_115:\n      dup3\n      add\n      swap2\n      swap1\n      0x00\n      mstore\n      keccak256(0x00, 0x20)\n      swap1\n    tag_116:\n      dup2\n      sload\n      dup2\n      mstore\n      swap1\n      0x01\n      add\n      swap1\n      0x20\n      add\n      dup1\n      dup4\n      gt\n      tag_116\n      jumpi\n      dup3\n      swap1\n      sub\n      0x1f\n      and\n      dup3\n      add\n      swap2\n    tag_114:\n      pop\n      pop\n      pop\n      pop\n      pop\n      dup2\n      mstore\n      0x20\n      add\n      0x04\n      dup3\n      add\n      sload\n      dup2\n      mstore\n      0x20\n      add\n      0x05\n      dup3\n      add\n      0x00\n      swap1\n      sload\n      swap1\n      0x0100\n      exp\n      swap1\n      div\n      0xffffffffffffffffffffffffffffffffffffffff\n      and\n      0xffffffffffffffffffffffffffffffffffffffff\n      and\n      0xffffffffffffffffffffffffffffffffffffffff\n      and\n      dup2\n      mstore\n      pop\n      pop\n      dup2\n      mstore\n      0x20\n      add\n      swap1\n      0x01\n      add\n      swap1\n      jump(tag_99)\n    tag_100:\n      pop\n      pop\n      pop\n      pop\n      swap1\n      pop\n        /* \"contracts/Voting.sol\":1734:1852  function getMyProposal(address _user) public view returns (Proposal[] memory){... */\n      swap2\n      swap1\n      pop\n      jump\t// out\n        /* \"contracts/Voting.sol\":782:822  mapping(address => bool) public hasvoted */\n    tag_33:\n      mstore(0x20, 0x05)\n      dup1\n      0x00\n      mstore\n      keccak256(0x00, 0x40)\n      0x00\n      swap2\n      pop\n      sload\n      swap1\n      0x0100\n      exp\n      swap1\n      div\n      0xff\n      and\n      dup2\n      jump\t// out\n        /* \"contracts/Voting.sol\":1203:1621  function createProposal(string memory _title, string memory _description, string memory _imgUrl) onlyRegisterd public {... */\n    tag_39:\n        /* \"contracts/Voting.sol\":912:947  IProfile.profile memory profileTemp */\n      0x00\n        /* \"contracts/Voting.sol\":951:966  profileContract */\n      0x01\n      0x00\n      swap1\n      sload\n      swap1\n      0x0100\n      exp\n      swap1\n      div\n      0xffffffffffffffffffffffffffffffffffffffff\n      and\n        /* \"contracts/Voting.sol\":951:977  profileContract.getProfile */\n      0xffffffffffffffffffffffffffffffffffffffff\n      and\n      0x0f53a470\n        /* \"contracts/Voting.sol\":978:988  msg.sender */\n      caller\n        /* \"contracts/Voting.sol\":951:989  profileContract.getProfile(msg.sender) */\n      mload(0x40)\n      dup3\n      0xffffffff\n      and\n      0xe0\n      shl\n      dup2\n      mstore\n      0x04\n      add\n      tag_118\n      swap2\n      swap1\n      tag_45\n      jump\t// in\n    tag_118:\n      0x00\n      mload(0x40)\n      dup1\n      dup4\n      sub\n      dup2\n      dup7\n      gas\n      staticcall\n      iszero\n      dup1\n      iszero\n      tag_120\n      jumpi\n      returndatasize\n      0x00\n      dup1\n      returndatacopy\n      revert(0x00, returndatasize)\n    tag_120:\n      pop\n      pop\n      pop\n      pop\n      mload(0x40)\n      returndatasize\n      0x00\n      dup3\n      returndatacopy\n      returndatasize\n      not(0x1f)\n      0x1f\n      dup3\n      add\n      and\n      dup3\n      add\n      dup1\n      0x40\n      mstore\n      pop\n      dup2\n      add\n      swap1\n      tag_121\n      swap2\n      swap1\n      tag_71\n      jump\t// in\n    tag_121:\n        /* \"contracts/Voting.sol\":912:989  IProfile.profile memory profileTemp =  profileContract.getProfile(msg.sender) */\n      swap1\n      pop\n        /* \"contracts/Voting.sol\":1007:1018  profileTemp */\n      dup1\n        /* \"contracts/Voting.sol\":1007:1031  profileTemp.isRegistered */\n      0x40\n      add\n      mload\n        /* \"contracts/Voting.sol\":999:1057  require(profileTemp.isRegistered, \"You have to Registerd\") */\n      tag_122\n      jumpi\n      mload(0x40)\n      0x08c379a000000000000000000000000000000000000000000000000000000000\n      dup2\n      mstore\n      0x04\n      add\n      tag_123\n      swap1\n      tag_74\n      jump\t// in\n    tag_123:\n      mload(0x40)\n      dup1\n      swap2\n      sub\n      swap1\n      revert\n    tag_122:\n        /* \"contracts/Voting.sol\":1331:1358  Proposal memory newProposal */\n      0x00\n        /* \"contracts/Voting.sol\":1361:1432  Proposal(counterProposal, _title, _description, _imgUrl, 0, msg.sender) */\n      mload(0x40)\n      dup1\n      0xc0\n      add\n      0x40\n      mstore\n      dup1\n        /* \"contracts/Voting.sol\":1370:1385  counterProposal */\n      sload(0x02)\n        /* \"contracts/Voting.sol\":1361:1432  Proposal(counterProposal, _title, _description, _imgUrl, 0, msg.sender) */\n      dup2\n      mstore\n      0x20\n      add\n        /* \"contracts/Voting.sol\":1387:1393  _title */\n      dup7\n        /* \"contracts/Voting.sol\":1361:1432  Proposal(counterProposal, _title, _description, _imgUrl, 0, msg.sender) */\n      dup2\n      mstore\n      0x20\n      add\n        /* \"contracts/Voting.sol\":1395:1407  _description */\n      dup6\n        /* \"contracts/Voting.sol\":1361:1432  Proposal(counterProposal, _title, _description, _imgUrl, 0, msg.sender) */\n      dup2\n      mstore\n      0x20\n      add\n        /* \"contracts/Voting.sol\":1409:1416  _imgUrl */\n      dup5\n        /* \"contracts/Voting.sol\":1361:1432  Proposal(counterProposal, _title, _description, _imgUrl, 0, msg.sender) */\n      dup2\n      mstore\n      0x20\n      add\n        /* \"contracts/Voting.sol\":1418:1419  0 */\n      0x00\n        /* \"contracts/Voting.sol\":1361:1432  Proposal(counterProposal, _title, _description, _imgUrl, 0, msg.sender) */\n      dup2\n      mstore\n      0x20\n      add\n        /* \"contracts/Voting.sol\":1421:1431  msg.sender */\n      caller\n        /* \"contracts/Voting.sol\":1361:1432  Proposal(counterProposal, _title, _description, _imgUrl, 0, msg.sender) */\n      0xffffffffffffffffffffffffffffffffffffffff\n      and\n      dup2\n      mstore\n      pop\n        /* \"contracts/Voting.sol\":1331:1432  Proposal memory newProposal = Proposal(counterProposal, _title, _description, _imgUrl, 0, msg.sender) */\n      swap1\n      pop\n        /* \"contracts/Voting.sol\":1471:1482  newProposal */\n      dup1\n        /* \"contracts/Voting.sol\":1442:1451  proposals */\n      0x04\n        /* \"contracts/Voting.sol\":1442:1468  proposals[counterProposal] */\n      0x00\n        /* \"contracts/Voting.sol\":1452:1467  counterProposal */\n      sload(0x02)\n        /* \"contracts/Voting.sol\":1442:1468  proposals[counterProposal] */\n      dup2\n      mstore\n      0x20\n      add\n      swap1\n      dup2\n      mstore\n      0x20\n      add\n      0x00\n      keccak256\n        /* \"contracts/Voting.sol\":1442:1482  proposals[counterProposal] = newProposal */\n      0x00\n      dup3\n      add\n      mload\n      dup2\n      0x00\n      add\n      sstore\n      0x20\n      dup3\n      add\n      mload\n      dup2\n      0x01\n      add\n      swap1\n      dup2\n      tag_125\n      swap2\n      swap1\n      tag_126\n      jump\t// in\n    tag_125:\n      pop\n      0x40\n      dup3\n      add\n      mload\n      dup2\n      0x02\n      add\n      swap1\n      dup2\n      tag_127\n      swap2\n      swap1\n      tag_126\n      jump\t// in\n    tag_127:\n      pop\n      0x60\n      dup3\n      add\n      mload\n      dup2\n      0x03\n      add\n      swap1\n      dup2\n      tag_128\n      swap2\n      swap1\n      tag_126\n      jump\t// in\n    tag_128:\n      pop\n      0x80\n      dup3\n      add\n      mload\n      dup2\n      0x04\n      add\n      sstore\n      0xa0\n      dup3\n      add\n      mload\n      dup2\n      0x05\n      add\n      exp(0x0100, 0x00)\n      dup2\n      sload\n      dup2\n      0xffffffffffffffffffffffffffffffffffffffff\n      mul\n      not\n      and\n      swap1\n      dup4\n      0xffffffffffffffffffffffffffffffffffffffff\n      and\n      mul\n      or\n      swap1\n      sstore\n      pop\n      swap1\n      pop\n      pop\n        /* \"contracts/Voting.sol\":1492:1502  myProposal */\n      0x03\n        /* \"contracts/Voting.sol\":1492:1514  myProposal[msg.sender] */\n      0x00\n        /* \"contracts/Voting.sol\":1503:1513  msg.sender */\n      caller\n        /* \"contracts/Voting.sol\":1492:1514  myProposal[msg.sender] */\n      0xffffffffffffffffffffffffffffffffffffffff\n      and\n      0xffffffffffffffffffffffffffffffffffffffff\n      and\n      dup2\n      mstore\n      0x20\n      add\n      swap1\n      dup2\n      mstore\n      0x20\n      add\n      0x00\n      keccak256\n        /* \"contracts/Voting.sol\":1520:1531  newProposal */\n      dup2\n        /* \"contracts/Voting.sol\":1492:1532  myProposal[msg.sender].push(newProposal) */\n      swap1\n      dup1\n      0x01\n      dup2\n      sload\n      add\n      dup1\n      dup3\n      sstore\n      dup1\n      swap2\n      pop\n      pop\n      0x01\n      swap1\n      sub\n      swap1\n      0x00\n      mstore\n      keccak256(0x00, 0x20)\n      swap1\n      0x06\n      mul\n      add\n      0x00\n      swap1\n      swap2\n      swap1\n      swap2\n      swap1\n      swap2\n      pop\n      0x00\n      dup3\n      add\n      mload\n      dup2\n      0x00\n      add\n      sstore\n      0x20\n      dup3\n      add\n      mload\n      dup2\n      0x01\n      add\n      swap1\n      dup2\n      tag_130\n      swap2\n      swap1\n      tag_126\n      jump\t// in\n    tag_130:\n      pop\n      0x40\n      dup3\n      add\n      mload\n      dup2\n      0x02\n      add\n      swap1\n      dup2\n      tag_131\n      swap2\n      swap1\n      tag_126\n      jump\t// in\n    tag_131:\n      pop\n      0x60\n      dup3\n      add\n      mload\n      dup2\n      0x03\n      add\n      swap1\n      dup2\n      tag_132\n      swap2\n      swap1\n      tag_126\n      jump\t// in\n    tag_132:\n      pop\n      0x80\n      dup3\n      add\n      mload\n      dup2\n      0x04\n      add\n      sstore\n      0xa0\n      dup3\n      add\n      mload\n      dup2\n      0x05\n      add\n      exp(0x0100, 0x00)\n      dup2\n      sload\n      dup2\n      0xffffffffffffffffffffffffffffffffffffffff\n      mul\n      not\n      and\n      swap1\n      dup4\n      0xffffffffffffffffffffffffffffffffffffffff\n      and\n      mul\n      or\n      swap1\n      sstore\n      pop\n      pop\n      pop\n        /* \"contracts/Voting.sol\":1542:1554  proposalList */\n      0x06\n        /* \"contracts/Voting.sol\":1560:1569  proposals */\n      0x04\n        /* \"contracts/Voting.sol\":1560:1586  proposals[counterProposal] */\n      0x00\n        /* \"contracts/Voting.sol\":1570:1585  counterProposal */\n      sload(0x02)\n        /* \"contracts/Voting.sol\":1560:1586  proposals[counterProposal] */\n      dup2\n      mstore\n      0x20\n      add\n      swap1\n      dup2\n      mstore\n      0x20\n      add\n      0x00\n      keccak256\n        /* \"contracts/Voting.sol\":1542:1587  proposalList.push(proposals[counterProposal]) */\n      swap1\n      dup1\n      0x01\n      dup2\n      sload\n      add\n      dup1\n      dup3\n      sstore\n      dup1\n      swap2\n      pop\n      pop\n      0x01\n      swap1\n      sub\n      swap1\n      0x00\n      mstore\n      keccak256(0x00, 0x20)\n      swap1\n      0x06\n      mul\n      add\n      0x00\n      swap1\n      swap2\n      swap1\n      swap2\n      swap1\n      swap2\n      pop\n      0x00\n      dup3\n      add\n      sload\n      dup2\n      0x00\n      add\n      sstore\n      0x01\n      dup3\n      add\n      dup2\n      0x01\n      add\n      swap1\n      dup2\n      tag_134\n      swap2\n      swap1\n      tag_135\n      jump\t// in\n    tag_134:\n      pop\n      0x02\n      dup3\n      add\n      dup2\n      0x02\n      add\n      swap1\n      dup2\n      tag_136\n      swap2\n      swap1\n      tag_135\n      jump\t// in\n    tag_136:\n      pop\n      0x03\n      dup3\n      add\n      dup2\n      0x03\n      add\n      swap1\n      dup2\n      tag_137\n      swap2\n      swap1\n      tag_135\n      jump\t// in\n    tag_137:\n      pop\n      0x04\n      dup3\n      add\n      sload\n      dup2\n      0x04\n      add\n      sstore\n      0x05\n      dup3\n      add\n      0x00\n      swap1\n      sload\n      swap1\n      0x0100\n      exp\n      swap1\n      div\n      0xffffffffffffffffffffffffffffffffffffffff\n      and\n      dup2\n      0x05\n      add\n      exp(0x0100, 0x00)\n      dup2\n      sload\n      dup2\n      0xffffffffffffffffffffffffffffffffffffffff\n      mul\n      not\n      and\n      swap1\n      dup4\n      0xffffffffffffffffffffffffffffffffffffffff\n      and\n      mul\n      or\n      swap1\n      sstore\n      pop\n      pop\n      pop\n        /* \"contracts/Voting.sol\":1597:1612  counterProposal */\n      0x02\n      0x00\n        /* \"contracts/Voting.sol\":1597:1614  counterProposal++ */\n      dup2\n      sload\n      dup1\n      swap3\n      swap2\n      swap1\n      tag_138\n      swap1\n      tag_139\n      jump\t// in\n    tag_138:\n      swap2\n      swap1\n      pop\n      sstore\n      pop\n        /* \"contracts/Voting.sol\":1321:1621  {... */\n      pop\n        /* \"contracts/Voting.sol\":902:1075  {... */\n      pop\n        /* \"contracts/Voting.sol\":1203:1621  function createProposal(string memory _title, string memory _description, string memory _imgUrl) onlyRegisterd public {... */\n      pop\n      pop\n      pop\n      jump\t// out\n        /* \"@openzeppelin/contracts/access/Ownable.sol\":2293:2394  function renounceOwnership() public virtual onlyOwner {... */\n    tag_41:\n        /* \"@openzeppelin/contracts/access/Ownable.sol\":1531:1544  _checkOwner() */\n      tag_141\n        /* \"@openzeppelin/contracts/access/Ownable.sol\":1531:1542  _checkOwner */\n      tag_142\n        /* \"@openzeppelin/contracts/access/Ownable.sol\":1531:1544  _checkOwner() */\n      jump\t// in\n    tag_141:\n        /* \"@openzeppelin/contracts/access/Ownable.sol\":2357:2387  _transferOwnership(address(0)) */\n      tag_144\n        /* \"@openzeppelin/contracts/access/Ownable.sol\":2384:2385  0 */\n      0x00\n        /* \"@openzeppelin/contracts/access/Ownable.sol\":2357:2375  _transferOwnership */\n      tag_145\n        /* \"@openzeppelin/contracts/access/Ownable.sol\":2357:2387  _transferOwnership(address(0)) */\n      jump\t// in\n    tag_144:\n        /* \"@openzeppelin/contracts/access/Ownable.sol\":2293:2394  function renounceOwnership() public virtual onlyOwner {... */\n      jump\t// out\n        /* \"@openzeppelin/contracts/access/Ownable.sol\":1638:1723  function owner() public view virtual returns (address) {... */\n    tag_43:\n        /* \"@openzeppelin/contracts/access/Ownable.sol\":1684:1691  address */\n      0x00\n        /* \"@openzeppelin/contracts/access/Ownable.sol\":1710:1716  _owner */\n      dup1\n      0x00\n      swap1\n      sload\n      swap1\n      0x0100\n      exp\n      swap1\n      div\n      0xffffffffffffffffffffffffffffffffffffffff\n      and\n        /* \"@openzeppelin/contracts/access/Ownable.sol\":1703:1716  return _owner */\n      swap1\n      pop\n        /* \"@openzeppelin/contracts/access/Ownable.sol\":1638:1723  function owner() public view virtual returns (address) {... */\n      swap1\n      jump\t// out\n        /* \"contracts/Voting.sol\":676:725  mapping (address => Proposal[]) public myProposal */\n    tag_49:\n      mstore(0x20, 0x03)\n      dup2\n      0x00\n      mstore\n      keccak256(0x00, 0x40)\n      dup2\n      dup2\n      sload\n      dup2\n      lt\n      tag_147\n      jumpi\n      0x00\n      dup1\n      revert\n    tag_147:\n      swap1\n      0x00\n      mstore\n      keccak256(0x00, 0x20)\n      swap1\n      0x06\n      mul\n      add\n      0x00\n      swap2\n      pop\n      swap2\n      pop\n      pop\n      dup1\n      0x00\n      add\n      sload\n      swap1\n      dup1\n      0x01\n      add\n      dup1\n      sload\n      tag_149\n      swap1\n      tag_83\n      jump\t// in\n    tag_149:\n      dup1\n      0x1f\n      add\n      0x20\n      dup1\n      swap2\n      div\n      mul\n      0x20\n      add\n      mload(0x40)\n      swap1\n      dup2\n      add\n      0x40\n      mstore\n      dup1\n      swap3\n      swap2\n      swap1\n      dup2\n      dup2\n      mstore\n      0x20\n      add\n      dup3\n      dup1\n      sload\n      tag_150\n      swap1\n      tag_83\n      jump\t// in\n    tag_150:\n      dup1\n      iszero\n      tag_151\n      jumpi\n      dup1\n      0x1f\n      lt\n      tag_152\n      jumpi\n      0x0100\n      dup1\n      dup4\n      sload\n      div\n      mul\n      dup4\n      mstore\n      swap2\n      0x20\n      add\n      swap2\n      jump(tag_151)\n    tag_152:\n      dup3\n      add\n      swap2\n      swap1\n      0x00\n      mstore\n      keccak256(0x00, 0x20)\n      swap1\n    tag_153:\n      dup2\n      sload\n      dup2\n      mstore\n      swap1\n      0x01\n      add\n      swap1\n      0x20\n      add\n      dup1\n      dup4\n      gt\n      tag_153\n      jumpi\n      dup3\n      swap1\n      sub\n      0x1f\n      and\n      dup3\n      add\n      swap2\n    tag_151:\n      pop\n      pop\n      pop\n      pop\n      pop\n      swap1\n      dup1\n      0x02\n      add\n      dup1\n      sload\n      tag_154\n      swap1\n      tag_83\n      jump\t// in\n    tag_154:\n      dup1\n      0x1f\n      add\n      0x20\n      dup1\n      swap2\n      div\n      mul\n      0x20\n      add\n      mload(0x40)\n      swap1\n      dup2\n      add\n      0x40\n      mstore\n      dup1\n      swap3\n      swap2\n      swap1\n      dup2\n      dup2\n      mstore\n      0x20\n      add\n      dup3\n      dup1\n      sload\n      tag_155\n      swap1\n      tag_83\n      jump\t// in\n    tag_155:\n      dup1\n      iszero\n      tag_156\n      jumpi\n      dup1\n      0x1f\n      lt\n      tag_157\n      jumpi\n      0x0100\n      dup1\n      dup4\n      sload\n      div\n      mul\n      dup4\n      mstore\n      swap2\n      0x20\n      add\n      swap2\n      jump(tag_156)\n    tag_157:\n      dup3\n      add\n      swap2\n      swap1\n      0x00\n      mstore\n      keccak256(0x00, 0x20)\n      swap1\n    tag_158:\n      dup2\n      sload\n      dup2\n      mstore\n      swap1\n      0x01\n      add\n      swap1\n      0x20\n      add\n      dup1\n      dup4\n      gt\n      tag_158\n      jumpi\n      dup3\n      swap1\n      sub\n      0x1f\n      and\n      dup3\n      add\n      swap2\n    tag_156:\n      pop\n      pop\n      pop\n      pop\n      pop\n      swap1\n      dup1\n      0x03\n      add\n      dup1\n      sload\n      tag_159\n      swap1\n      tag_83\n      jump\t// in\n    tag_159:\n      dup1\n      0x1f\n      add\n      0x20\n      dup1\n      swap2\n      div\n      mul\n      0x20\n      add\n      mload(0x40)\n      swap1\n      dup2\n      add\n      0x40\n      mstore\n      dup1\n      swap3\n      swap2\n      swap1\n      dup2\n      dup2\n      mstore\n      0x20\n      add\n      dup3\n      dup1\n      sload\n      tag_160\n      swap1\n      tag_83\n      jump\t// in\n    tag_160:\n      dup1\n      iszero\n      tag_161\n      jumpi\n      dup1\n      0x1f\n      lt\n      tag_162\n      jumpi\n      0x0100\n      dup1\n      dup4\n      sload\n      div\n      mul\n      dup4\n      mstore\n      swap2\n      0x20\n      add\n      swap2\n      jump(tag_161)\n    tag_162:\n      dup3\n      add\n      swap2\n      swap1\n      0x00\n      mstore\n      keccak256(0x00, 0x20)\n      swap1\n    tag_163:\n      dup2\n      sload\n      dup2\n      mstore\n      swap1\n      0x01\n      add\n      swap1\n      0x20\n      add\n      dup1\n      dup4\n      gt\n      tag_163\n      jumpi\n      dup3\n      swap1\n      sub\n      0x1f\n      and\n      dup3\n      add\n      swap2\n    tag_161:\n      pop\n      pop\n      pop\n      pop\n      pop\n      swap1\n      dup1\n      0x04\n      add\n      sload\n      swap1\n      dup1\n      0x05\n      add\n      0x00\n      swap1\n      sload\n      swap1\n      0x0100\n      exp\n      swap1\n      div\n      0xffffffffffffffffffffffffffffffffffffffff\n      and\n      swap1\n      pop\n      dup7\n      jump\t// out\n        /* \"contracts/Voting.sol\":841:871  Proposal[] public proposalList */\n    tag_53:\n      0x06\n      dup2\n      dup2\n      sload\n      dup2\n      lt\n      tag_164\n      jumpi\n      0x00\n      dup1\n      revert\n    tag_164:\n      swap1\n      0x00\n      mstore\n      keccak256(0x00, 0x20)\n      swap1\n      0x06\n      mul\n      add\n      0x00\n      swap2\n      pop\n      swap1\n      pop\n      dup1\n      0x00\n      add\n      sload\n      swap1\n      dup1\n      0x01\n      add\n      dup1\n      sload\n      tag_166\n      swap1\n      tag_83\n      jump\t// in\n    tag_166:\n      dup1\n      0x1f\n      add\n      0x20\n      dup1\n      swap2\n      div\n      mul\n      0x20\n      add\n      mload(0x40)\n      swap1\n      dup2\n      add\n      0x40\n      mstore\n      dup1\n      swap3\n      swap2\n      swap1\n      dup2\n      dup2\n      mstore\n      0x20\n      add\n      dup3\n      dup1\n      sload\n      tag_167\n      swap1\n      tag_83\n      jump\t// in\n    tag_167:\n      dup1\n      iszero\n      tag_168\n      jumpi\n      dup1\n      0x1f\n      lt\n      tag_169\n      jumpi\n      0x0100\n      dup1\n      dup4\n      sload\n      div\n      mul\n      dup4\n      mstore\n      swap2\n      0x20\n      add\n      swap2\n      jump(tag_168)\n    tag_169:\n      dup3\n      add\n      swap2\n      swap1\n      0x00\n      mstore\n      keccak256(0x00, 0x20)\n      swap1\n    tag_170:\n      dup2\n      sload\n      dup2\n      mstore\n      swap1\n      0x01\n      add\n      swap1\n      0x20\n      add\n      dup1\n      dup4\n      gt\n      tag_170\n      jumpi\n      dup3\n      swap1\n      sub\n      0x1f\n      and\n      dup3\n      add\n      swap2\n    tag_168:\n      pop\n      pop\n      pop\n      pop\n      pop\n      swap1\n      dup1\n      0x02\n      add\n      dup1\n      sload\n      tag_171\n      swap1\n      tag_83\n      jump\t// in\n    tag_171:\n      dup1\n      0x1f\n      add\n      0x20\n      dup1\n      swap2\n      div\n      mul\n      0x20\n      add\n      mload(0x40)\n      swap1\n      dup2\n      add\n      0x40\n      mstore\n      dup1\n      swap3\n      swap2\n      swap1\n      dup2\n      dup2\n      mstore\n      0x20\n      add\n      dup3\n      dup1\n      sload\n      tag_172\n      swap1\n      tag_83\n      jump\t// in\n    tag_172:\n      dup1\n      iszero\n      tag_173\n      jumpi\n      dup1\n      0x1f\n      lt\n      tag_174\n      jumpi\n      0x0100\n      dup1\n      dup4\n      sload\n      div\n      mul\n      dup4\n      mstore\n      swap2\n      0x20\n      add\n      swap2\n      jump(tag_173)\n    tag_174:\n      dup3\n      add\n      swap2\n      swap1\n      0x00\n      mstore\n      keccak256(0x00, 0x20)\n      swap1\n    tag_175:\n      dup2\n      sload\n      dup2\n      mstore\n      swap1\n      0x01\n      add\n      swap1\n      0x20\n      add\n      dup1\n      dup4\n      gt\n      tag_175\n      jumpi\n      dup3\n      swap1\n      sub\n      0x1f\n      and\n      dup3\n      add\n      swap2\n    tag_173:\n      pop\n      pop\n      pop\n      pop\n      pop\n      swap1\n      dup1\n      0x03\n      add\n      dup1\n      sload\n      tag_176\n      swap1\n      tag_83\n      jump\t// in\n    tag_176:\n      dup1\n      0x1f\n      add\n      0x20\n      dup1\n      swap2\n      div\n      mul\n      0x20\n      add\n      mload(0x40)\n      swap1\n      dup2\n      add\n      0x40\n      mstore\n      dup1\n      swap3\n      swap2\n      swap1\n      dup2\n      dup2\n      mstore\n      0x20\n      add\n      dup3\n      dup1\n      sload\n      tag_177\n      swap1\n      tag_83\n      jump\t// in\n    tag_177:\n      dup1\n      iszero\n      tag_178\n      jumpi\n      dup1\n      0x1f\n      lt\n      tag_179\n      jumpi\n      0x0100\n      dup1\n      dup4\n      sload\n      div\n      mul\n      dup4\n      mstore\n      swap2\n      0x20\n      add\n      swap2\n      jump(tag_178)\n    tag_179:\n      dup3\n      add\n      swap2\n      swap1\n      0x00\n      mstore\n      keccak256(0x00, 0x20)\n      swap1\n    tag_180:\n      dup2\n      sload\n      dup2\n      mstore\n      swap1\n      0x01\n      add\n      swap1\n      0x20\n      add\n      dup1\n      dup4\n      gt\n      tag_180\n      jumpi\n      dup3\n      swap1\n      sub\n      0x1f\n      and\n      dup3\n      add\n      swap2\n    tag_178:\n      pop\n      pop\n      pop\n      pop\n      pop\n      swap1\n      dup1\n      0x04\n      add\n      sload\n      swap1\n      dup1\n      0x05\n      add\n      0x00\n      swap1\n      sload\n      swap1\n      0x0100\n      exp\n      swap1\n      div\n      0xffffffffffffffffffffffffffffffffffffffff\n      and\n      swap1\n      pop\n      dup7\n      jump\t// out\n        /* \"contracts/Voting.sol\":1858:2066  function getProposal(uint256 _id) public view returns(string memory, string memory){... */\n    tag_57:\n        /* \"contracts/Voting.sol\":1912:1925  string memory */\n      0x60\n        /* \"contracts/Voting.sol\":1927:1940  string memory */\n      dup1\n        /* \"contracts/Voting.sol\":1951:1979  Proposal memory proposalTemp */\n      0x00\n        /* \"contracts/Voting.sol\":1982:1991  proposals */\n      0x04\n        /* \"contracts/Voting.sol\":1982:1996  proposals[_id] */\n      0x00\n        /* \"contracts/Voting.sol\":1992:1995  _id */\n      dup6\n        /* \"contracts/Voting.sol\":1982:1996  proposals[_id] */\n      dup2\n      mstore\n      0x20\n      add\n      swap1\n      dup2\n      mstore\n      0x20\n      add\n      0x00\n      keccak256\n        /* \"contracts/Voting.sol\":1951:1996  Proposal memory proposalTemp = proposals[_id] */\n      mload(0x40)\n      dup1\n      0xc0\n      add\n      0x40\n      mstore\n      swap1\n      dup2\n      0x00\n      dup3\n      add\n      sload\n      dup2\n      mstore\n      0x20\n      add\n      0x01\n      dup3\n      add\n      dup1\n      sload\n      tag_182\n      swap1\n      tag_83\n      jump\t// in\n    tag_182:\n      dup1\n      0x1f\n      add\n      0x20\n      dup1\n      swap2\n      div\n      mul\n      0x20\n      add\n      mload(0x40)\n      swap1\n      dup2\n      add\n      0x40\n      mstore\n      dup1\n      swap3\n      swap2\n      swap1\n      dup2\n      dup2\n      mstore\n      0x20\n      add\n      dup3\n      dup1\n      sload\n      tag_183\n      swap1\n      tag_83\n      jump\t// in\n    tag_183:\n      dup1\n      iszero\n      tag_184\n      jumpi\n      dup1\n      0x1f\n      lt\n      tag_185\n      jumpi\n      0x0100\n      dup1\n      dup4\n      sload\n      div\n      mul\n      dup4\n      mstore\n      swap2\n      0x20\n      add\n      swap2\n      jump(tag_184)\n    tag_185:\n      dup3\n      add\n      swap2\n      swap1\n      0x00\n      mstore\n      keccak256(0x00, 0x20)\n      swap1\n    tag_186:\n      dup2\n      sload\n      dup2\n      mstore\n      swap1\n      0x01\n      add\n      swap1\n      0x20\n      add\n      dup1\n      dup4\n      gt\n      tag_186\n      jumpi\n      dup3\n      swap1\n      sub\n      0x1f\n      and\n      dup3\n      add\n      swap2\n    tag_184:\n      pop\n      pop\n      pop\n      pop\n      pop\n      dup2\n      mstore\n      0x20\n      add\n      0x02\n      dup3\n      add\n      dup1\n      sload\n      tag_187\n      swap1\n      tag_83\n      jump\t// in\n    tag_187:\n      dup1\n      0x1f\n      add\n      0x20\n      dup1\n      swap2\n      div\n      mul\n      0x20\n      add\n      mload(0x40)\n      swap1\n      dup2\n      add\n      0x40\n      mstore\n      dup1\n      swap3\n      swap2\n      swap1\n      dup2\n      dup2\n      mstore\n      0x20\n      add\n      dup3\n      dup1\n      sload\n      tag_188\n      swap1\n      tag_83\n      jump\t// in\n    tag_188:\n      dup1\n      iszero\n      tag_189\n      jumpi\n      dup1\n      0x1f\n      lt\n      tag_190\n      jumpi\n      0x0100\n      dup1\n      dup4\n      sload\n      div\n      mul\n      dup4\n      mstore\n      swap2\n      0x20\n      add\n      swap2\n      jump(tag_189)\n    tag_190:\n      dup3\n      add\n      swap2\n      swap1\n      0x00\n      mstore\n      keccak256(0x00, 0x20)\n      swap1\n    tag_191:\n      dup2\n      sload\n      dup2\n      mstore\n      swap1\n      0x01\n      add\n      swap1\n      0x20\n      add\n      dup1\n      dup4\n      gt\n      tag_191\n      jumpi\n      dup3\n      swap1\n      sub\n      0x1f\n      and\n      dup3\n      add\n      swap2\n    tag_189:\n      pop\n      pop\n      pop\n      pop\n      pop\n      dup2\n      mstore\n      0x20\n      add\n      0x03\n      dup3\n      add\n      dup1\n      sload\n      tag_192\n      swap1\n      tag_83\n      jump\t// in\n    tag_192:\n      dup1\n      0x1f\n      add\n      0x20\n      dup1\n      swap2\n      div\n      mul\n      0x20\n      add\n      mload(0x40)\n      swap1\n      dup2\n      add\n      0x40\n      mstore\n      dup1\n      swap3\n      swap2\n      swap1\n      dup2\n      dup2\n      mstore\n      0x20\n      add\n      dup3\n      dup1\n      sload\n      tag_193\n      swap1\n      tag_83\n      jump\t// in\n    tag_193:\n      dup1\n      iszero\n      tag_194\n      jumpi\n      dup1\n      0x1f\n      lt\n      tag_195\n      jumpi\n      0x0100\n      dup1\n      dup4\n      sload\n      div\n      mul\n      dup4\n      mstore\n      swap2\n      0x20\n      add\n      swap2\n      jump(tag_194)\n    tag_195:\n      dup3\n      add\n      swap2\n      swap1\n      0x00\n      mstore\n      keccak256(0x00, 0x20)\n      swap1\n    tag_196:\n      dup2\n      sload\n      dup2\n      mstore\n      swap1\n      0x01\n      add\n      swap1\n      0x20\n      add\n      dup1\n      dup4\n      gt\n      tag_196\n      jumpi\n      dup3\n      swap1\n      sub\n      0x1f\n      and\n      dup3\n      add\n      swap2\n    tag_194:\n      pop\n      pop\n      pop\n      pop\n      pop\n      dup2\n      mstore\n      0x20\n      add\n      0x04\n      dup3\n      add\n      sload\n      dup2\n      mstore\n      0x20\n      add\n      0x05\n      dup3\n      add\n      0x00\n      swap1\n      sload\n      swap1\n      0x0100\n      exp\n      swap1\n      div\n      0xffffffffffffffffffffffffffffffffffffffff\n      and\n      0xffffffffffffffffffffffffffffffffffffffff\n      and\n      0xffffffffffffffffffffffffffffffffffffffff\n      and\n      dup2\n      mstore\n      pop\n      pop\n      swap1\n      pop\n        /* \"contracts/Voting.sol\":2014:2026  proposalTemp */\n      dup1\n        /* \"contracts/Voting.sol\":2014:2032  proposalTemp.title */\n      0x20\n      add\n      mload\n        /* \"contracts/Voting.sol\":2034:2046  proposalTemp */\n      dup2\n        /* \"contracts/Voting.sol\":2034:2058  proposalTemp.description */\n      0x40\n      add\n      mload\n        /* \"contracts/Voting.sol\":2006:2059  return (proposalTemp.title, proposalTemp.description) */\n      swap3\n      pop\n      swap3\n      pop\n      pop\n        /* \"contracts/Voting.sol\":1858:2066  function getProposal(uint256 _id) public view returns(string memory, string memory){... */\n      swap2\n      pop\n      swap2\n      jump\t// out\n        /* \"@openzeppelin/contracts/access/Ownable.sol\":2543:2758  function transferOwnership(address newOwner) public virtual onlyOwner {... */\n    tag_62:\n        /* \"@openzeppelin/contracts/access/Ownable.sol\":1531:1544  _checkOwner() */\n      tag_198\n        /* \"@openzeppelin/contracts/access/Ownable.sol\":1531:1542  _checkOwner */\n      tag_142\n        /* \"@openzeppelin/contracts/access/Ownable.sol\":1531:1544  _checkOwner() */\n      jump\t// in\n    tag_198:\n        /* \"@openzeppelin/contracts/access/Ownable.sol\":2647:2648  0 */\n      0x00\n        /* \"@openzeppelin/contracts/access/Ownable.sol\":2627:2649  newOwner == address(0) */\n      0xffffffffffffffffffffffffffffffffffffffff\n      and\n        /* \"@openzeppelin/contracts/access/Ownable.sol\":2627:2635  newOwner */\n      dup2\n        /* \"@openzeppelin/contracts/access/Ownable.sol\":2627:2649  newOwner == address(0) */\n      0xffffffffffffffffffffffffffffffffffffffff\n      and\n      sub\n        /* \"@openzeppelin/contracts/access/Ownable.sol\":2623:2714  if (newOwner == address(0)) {... */\n      tag_200\n      jumpi\n        /* \"@openzeppelin/contracts/access/Ownable.sol\":2700:2701  0 */\n      0x00\n        /* \"@openzeppelin/contracts/access/Ownable.sol\":2672:2703  OwnableInvalidOwner(address(0)) */\n      mload(0x40)\n      0x1e4fbdf700000000000000000000000000000000000000000000000000000000\n      dup2\n      mstore\n      0x04\n      add\n      tag_201\n      swap2\n      swap1\n      tag_45\n      jump\t// in\n    tag_201:\n      mload(0x40)\n      dup1\n      swap2\n      sub\n      swap1\n      revert\n        /* \"@openzeppelin/contracts/access/Ownable.sol\":2623:2714  if (newOwner == address(0)) {... */\n    tag_200:\n        /* \"@openzeppelin/contracts/access/Ownable.sol\":2723:2751  _transferOwnership(newOwner) */\n      tag_202\n        /* \"@openzeppelin/contracts/access/Ownable.sol\":2742:2750  newOwner */\n      dup2\n        /* \"@openzeppelin/contracts/access/Ownable.sol\":2723:2741  _transferOwnership */\n      tag_145\n        /* \"@openzeppelin/contracts/access/Ownable.sol\":2723:2751  _transferOwnership(newOwner) */\n      jump\t// in\n    tag_202:\n        /* \"@openzeppelin/contracts/access/Ownable.sol\":2543:2758  function transferOwnership(address newOwner) public virtual onlyOwner {... */\n      pop\n      jump\t// out\n        /* \"contracts/Voting.sol\":1627:1728  function gerAllProposal() public view returns (Proposal[] memory){... */\n    tag_64:\n        /* \"contracts/Voting.sol\":1674:1691  Proposal[] memory */\n      0x60\n        /* \"contracts/Voting.sol\":1709:1721  proposalList */\n      0x06\n        /* \"contracts/Voting.sol\":1702:1721  return proposalList */\n      dup1\n      sload\n      dup1\n      0x20\n      mul\n      0x20\n      add\n      mload(0x40)\n      swap1\n      dup2\n      add\n      0x40\n      mstore\n      dup1\n      swap3\n      swap2\n      swap1\n      dup2\n      dup2\n      mstore\n      0x20\n      add\n      0x00\n      swap1\n    tag_204:\n      dup3\n      dup3\n      lt\n      iszero\n      tag_205\n      jumpi\n      dup4\n      dup3\n      swap1\n      0x00\n      mstore\n      keccak256(0x00, 0x20)\n      swap1\n      0x06\n      mul\n      add\n      mload(0x40)\n      dup1\n      0xc0\n      add\n      0x40\n      mstore\n      swap1\n      dup2\n      0x00\n      dup3\n      add\n      sload\n      dup2\n      mstore\n      0x20\n      add\n      0x01\n      dup3\n      add\n      dup1\n      sload\n      tag_207\n      swap1\n      tag_83\n      jump\t// in\n    tag_207:\n      dup1\n      0x1f\n      add\n      0x20\n      dup1\n      swap2\n      div\n      mul\n      0x20\n      add\n      mload(0x40)\n      swap1\n      dup2\n      add\n      0x40\n      mstore\n      dup1\n      swap3\n      swap2\n      swap1\n      dup2\n      dup2\n      mstore\n      0x20\n      add\n      dup3\n      dup1\n      sload\n      tag_208\n      swap1\n      tag_83\n      jump\t// in\n    tag_208:\n      dup1\n      iszero\n      tag_209\n      jumpi\n      dup1\n      0x1f\n      lt\n      tag_210\n      jumpi\n      0x0100\n      dup1\n      dup4\n      sload\n      div\n      mul\n      dup4\n      mstore\n      swap2\n      0x20\n      add\n      swap2\n      jump(tag_209)\n    tag_210:\n      dup3\n      add\n      swap2\n      swap1\n      0x00\n      mstore\n      keccak256(0x00, 0x20)\n      swap1\n    tag_211:\n      dup2\n      sload\n      dup2\n      mstore\n      swap1\n      0x01\n      add\n      swap1\n      0x20\n      add\n      dup1\n      dup4\n      gt\n      tag_211\n      jumpi\n      dup3\n      swap1\n      sub\n      0x1f\n      and\n      dup3\n      add\n      swap2\n    tag_209:\n      pop\n      pop\n      pop\n      pop\n      pop\n      dup2\n      mstore\n      0x20\n      add\n      0x02\n      dup3\n      add\n      dup1\n      sload\n      tag_212\n      swap1\n      tag_83\n      jump\t// in\n    tag_212:\n      dup1\n      0x1f\n      add\n      0x20\n      dup1\n      swap2\n      div\n      mul\n      0x20\n      add\n      mload(0x40)\n      swap1\n      dup2\n      add\n      0x40\n      mstore\n      dup1\n      swap3\n      swap2\n      swap1\n      dup2\n      dup2\n      mstore\n      0x20\n      add\n      dup3\n      dup1\n      sload\n      tag_213\n      swap1\n      tag_83\n      jump\t// in\n    tag_213:\n      dup1\n      iszero\n      tag_214\n      jumpi\n      dup1\n      0x1f\n      lt\n      tag_215\n      jumpi\n      0x0100\n      dup1\n      dup4\n      sload\n      div\n      mul\n      dup4\n      mstore\n      swap2\n      0x20\n      add\n      swap2\n      jump(tag_214)\n    tag_215:\n      dup3\n      add\n      swap2\n      swap1\n      0x00\n      mstore\n      keccak256(0x00, 0x20)\n      swap1\n    tag_216:\n      dup2\n      sload\n      dup2\n      mstore\n      swap1\n      0x01\n      add\n      swap1\n      0x20\n      add\n      dup1\n      dup4\n      gt\n      tag_216\n      jumpi\n      dup3\n      swap1\n      sub\n      0x1f\n      and\n      dup3\n      add\n      swap2\n    tag_214:\n      pop\n      pop\n      pop\n      pop\n      pop\n      dup2\n      mstore\n      0x20\n      add\n      0x03\n      dup3\n      add\n      dup1\n      sload\n      tag_217\n      swap1\n      tag_83\n      jump\t// in\n    tag_217:\n      dup1\n      0x1f\n      add\n      0x20\n      dup1\n      swap2\n      div\n      mul\n      0x20\n      add\n      mload(0x40)\n      swap1\n      dup2\n      add\n      0x40\n      mstore\n      dup1\n      swap3\n      swap2\n      swap1\n      dup2\n      dup2\n      mstore\n      0x20\n      add\n      dup3\n      dup1\n      sload\n      tag_218\n      swap1\n      tag_83\n      jump\t// in\n    tag_218:\n      dup1\n      iszero\n      tag_219\n      jumpi\n      dup1\n      0x1f\n      lt\n      tag_220\n      jumpi\n      0x0100\n      dup1\n      dup4\n      sload\n      div\n      mul\n      dup4\n      mstore\n      swap2\n      0x20\n      add\n      swap2\n      jump(tag_219)\n    tag_220:\n      dup3\n      add\n      swap2\n      swap1\n      0x00\n      mstore\n      keccak256(0x00, 0x20)\n      swap1\n    tag_221:\n      dup2\n      sload\n      dup2\n      mstore\n      swap1\n      0x01\n      add\n      swap1\n      0x20\n      add\n      dup1\n      dup4\n      gt\n      tag_221\n      jumpi\n      dup3\n      swap1\n      sub\n      0x1f\n      and\n      dup3\n      add\n      swap2\n    tag_219:\n      pop\n      pop\n      pop\n      pop\n      pop\n      dup2\n      mstore\n      0x20\n      add\n      0x04\n      dup3\n      add\n      sload\n      dup2\n      mstore\n      0x20\n      add\n      0x05\n      dup3\n      add\n      0x00\n      swap1\n      sload\n      swap1\n      0x0100\n      exp\n      swap1\n      div\n      0xffffffffffffffffffffffffffffffffffffffff\n      and\n      0xffffffffffffffffffffffffffffffffffffffff\n      and\n      0xffffffffffffffffffffffffffffffffffffffff\n      and\n      dup2\n      mstore\n      pop\n      pop\n      dup2\n      mstore\n      0x20\n      add\n      swap1\n      0x01\n      add\n      swap1\n      jump(tag_204)\n    tag_205:\n      pop\n      pop\n      pop\n      pop\n      swap1\n      pop\n        /* \"contracts/Voting.sol\":1627:1728  function gerAllProposal() public view returns (Proposal[] memory){... */\n      swap1\n      jump\t// out\n        /* \"@openzeppelin/contracts/access/Ownable.sol\":1796:1958  function _checkOwner() internal view virtual {... */\n    tag_142:\n        /* \"@openzeppelin/contracts/access/Ownable.sol\":1866:1878  _msgSender() */\n      tag_223\n        /* \"@openzeppelin/contracts/access/Ownable.sol\":1866:1876  _msgSender */\n      tag_224\n        /* \"@openzeppelin/contracts/access/Ownable.sol\":1866:1878  _msgSender() */\n      jump\t// in\n    tag_223:\n        /* \"@openzeppelin/contracts/access/Ownable.sol\":1855:1878  owner() != _msgSender() */\n      0xffffffffffffffffffffffffffffffffffffffff\n      and\n        /* \"@openzeppelin/contracts/access/Ownable.sol\":1855:1862  owner() */\n      tag_225\n        /* \"@openzeppelin/contracts/access/Ownable.sol\":1855:1860  owner */\n      tag_43\n        /* \"@openzeppelin/contracts/access/Ownable.sol\":1855:1862  owner() */\n      jump\t// in\n    tag_225:\n        /* \"@openzeppelin/contracts/access/Ownable.sol\":1855:1878  owner() != _msgSender() */\n      0xffffffffffffffffffffffffffffffffffffffff\n      and\n      eq\n        /* \"@openzeppelin/contracts/access/Ownable.sol\":1851:1952  if (owner() != _msgSender()) {... */\n      tag_226\n      jumpi\n        /* \"@openzeppelin/contracts/access/Ownable.sol\":1928:1940  _msgSender() */\n      tag_227\n        /* \"@openzeppelin/contracts/access/Ownable.sol\":1928:1938  _msgSender */\n      tag_224\n        /* \"@openzeppelin/contracts/access/Ownable.sol\":1928:1940  _msgSender() */\n      jump\t// in\n    tag_227:\n        /* \"@openzeppelin/contracts/access/Ownable.sol\":1901:1941  OwnableUnauthorizedAccount(_msgSender()) */\n      mload(0x40)\n      0x118cdaa700000000000000000000000000000000000000000000000000000000\n      dup2\n      mstore\n      0x04\n      add\n      tag_228\n      swap2\n      swap1\n      tag_45\n      jump\t// in\n    tag_228:\n      mload(0x40)\n      dup1\n      swap2\n      sub\n      swap1\n      revert\n        /* \"@openzeppelin/contracts/access/Ownable.sol\":1851:1952  if (owner() != _msgSender()) {... */\n    tag_226:\n        /* \"@openzeppelin/contracts/access/Ownable.sol\":1796:1958  function _checkOwner() internal view virtual {... */\n      jump\t// out\n        /* \"@openzeppelin/contracts/access/Ownable.sol\":2912:3099  function _transferOwnership(address newOwner) internal virtual {... */\n    tag_145:\n        /* \"@openzeppelin/contracts/access/Ownable.sol\":2985:3001  address oldOwner */\n      0x00\n        /* \"@openzeppelin/contracts/access/Ownable.sol\":3004:3010  _owner */\n      dup1\n      0x00\n      swap1\n      sload\n      swap1\n      0x0100\n      exp\n      swap1\n      div\n      0xffffffffffffffffffffffffffffffffffffffff\n      and\n        /* \"@openzeppelin/contracts/access/Ownable.sol\":2985:3010  address oldOwner = _owner */\n      swap1\n      pop\n        /* \"@openzeppelin/contracts/access/Ownable.sol\":3029:3037  newOwner */\n      dup2\n        /* \"@openzeppelin/contracts/access/Ownable.sol\":3020:3026  _owner */\n      0x00\n      dup1\n        /* \"@openzeppelin/contracts/access/Ownable.sol\":3020:3037  _owner = newOwner */\n      0x0100\n      exp\n      dup2\n      sload\n      dup2\n      0xffffffffffffffffffffffffffffffffffffffff\n      mul\n      not\n      and\n      swap1\n      dup4\n      0xffffffffffffffffffffffffffffffffffffffff\n      and\n      mul\n      or\n      swap1\n      sstore\n      pop\n        /* \"@openzeppelin/contracts/access/Ownable.sol\":3083:3091  newOwner */\n      dup2\n        /* \"@openzeppelin/contracts/access/Ownable.sol\":3052:3092  OwnershipTransferred(oldOwner, newOwner) */\n      0xffffffffffffffffffffffffffffffffffffffff\n      and\n        /* \"@openzeppelin/contracts/access/Ownable.sol\":3073:3081  oldOwner */\n      dup2\n        /* \"@openzeppelin/contracts/access/Ownable.sol\":3052:3092  OwnershipTransferred(oldOwner, newOwner) */\n      0xffffffffffffffffffffffffffffffffffffffff\n      and\n      0x8be0079c531659141344cd1fd0a4f28419497f9722a3daafe3b4186f6b6457e0\n      mload(0x40)\n      mload(0x40)\n      dup1\n      swap2\n      sub\n      swap1\n      log3\n        /* \"@openzeppelin/contracts/access/Ownable.sol\":2975:3099  {... */\n      pop\n        /* \"@openzeppelin/contracts/access/Ownable.sol\":2912:3099  function _transferOwnership(address newOwner) internal virtual {... */\n      pop\n      jump\t// out\n        /* \"@openzeppelin/contracts/utils/Context.sol\":656:752  function _msgSender() internal view virtual returns (address) {... */\n    tag_224:\n        /* \"@openzeppelin/contracts/utils/Context.sol\":709:716  address */\n      0x00\n        /* \"@openzeppelin/contracts/utils/Context.sol\":735:745  msg.sender */\n      caller\n        /* \"@openzeppelin/contracts/utils/Context.sol\":728:745  return msg.sender */\n      swap1\n      pop\n        /* \"@openzeppelin/contracts/utils/Context.sol\":656:752  function _msgSender() internal view virtual returns (address) {... */\n      swap1\n      jump\t// out\n        /* \"#utility.yul\":7:82   */\n    tag_231:\n        /* \"#utility.yul\":40:46   */\n      0x00\n        /* \"#utility.yul\":73:75   */\n      0x40\n        /* \"#utility.yul\":67:76   */\n      mload\n        /* \"#utility.yul\":57:76   */\n      swap1\n      pop\n        /* \"#utility.yul\":7:82   */\n      swap1\n      jump\t// out\n        /* \"#utility.yul\":88:205   */\n    tag_232:\n        /* \"#utility.yul\":197:198   */\n      0x00\n        /* \"#utility.yul\":194:195   */\n      dup1\n        /* \"#utility.yul\":187:199   */\n      revert\n        /* \"#utility.yul\":211:328   */\n    tag_233:\n        /* \"#utility.yul\":320:321   */\n      0x00\n        /* \"#utility.yul\":317:318   */\n      dup1\n        /* \"#utility.yul\":310:322   */\n      revert\n        /* \"#utility.yul\":334:411   */\n    tag_234:\n        /* \"#utility.yul\":371:378   */\n      0x00\n        /* \"#utility.yul\":400:405   */\n      dup2\n        /* \"#utility.yul\":389:405   */\n      swap1\n      pop\n        /* \"#utility.yul\":334:411   */\n      swap2\n      swap1\n      pop\n      jump\t// out\n        /* \"#utility.yul\":417:539   */\n    tag_235:\n        /* \"#utility.yul\":490:514   */\n      tag_305\n        /* \"#utility.yul\":508:513   */\n      dup2\n        /* \"#utility.yul\":490:514   */\n      tag_234\n      jump\t// in\n    tag_305:\n        /* \"#utility.yul\":483:488   */\n      dup2\n        /* \"#utility.yul\":480:515   */\n      eq\n        /* \"#utility.yul\":470:533   */\n      tag_306\n      jumpi\n        /* \"#utility.yul\":529:530   */\n      0x00\n        /* \"#utility.yul\":526:527   */\n      dup1\n        /* \"#utility.yul\":519:531   */\n      revert\n        /* \"#utility.yul\":470:533   */\n    tag_306:\n        /* \"#utility.yul\":417:539   */\n      pop\n      jump\t// out\n        /* \"#utility.yul\":545:684   */\n    tag_236:\n        /* \"#utility.yul\":591:596   */\n      0x00\n        /* \"#utility.yul\":629:635   */\n      dup2\n        /* \"#utility.yul\":616:636   */\n      calldataload\n        /* \"#utility.yul\":607:636   */\n      swap1\n      pop\n        /* \"#utility.yul\":645:678   */\n      tag_308\n        /* \"#utility.yul\":672:677   */\n      dup2\n        /* \"#utility.yul\":645:678   */\n      tag_235\n      jump\t// in\n    tag_308:\n        /* \"#utility.yul\":545:684   */\n      swap3\n      swap2\n      pop\n      pop\n      jump\t// out\n        /* \"#utility.yul\":690:1019   */\n    tag_18:\n        /* \"#utility.yul\":749:755   */\n      0x00\n        /* \"#utility.yul\":798:800   */\n      0x20\n        /* \"#utility.yul\":786:795   */\n      dup3\n        /* \"#utility.yul\":777:784   */\n      dup5\n        /* \"#utility.yul\":773:796   */\n      sub\n        /* \"#utility.yul\":769:801   */\n      slt\n        /* \"#utility.yul\":766:885   */\n      iszero\n      tag_310\n      jumpi\n        /* \"#utility.yul\":804:883   */\n      tag_311\n      tag_232\n      jump\t// in\n    tag_311:\n        /* \"#utility.yul\":766:885   */\n    tag_310:\n        /* \"#utility.yul\":924:925   */\n      0x00\n        /* \"#utility.yul\":949:1002   */\n      tag_312\n        /* \"#utility.yul\":994:1001   */\n      dup5\n        /* \"#utility.yul\":985:991   */\n      dup3\n        /* \"#utility.yul\":974:983   */\n      dup6\n        /* \"#utility.yul\":970:992   */\n      add\n        /* \"#utility.yul\":949:1002   */\n      tag_236\n      jump\t// in\n    tag_312:\n        /* \"#utility.yul\":939:1002   */\n      swap2\n      pop\n        /* \"#utility.yul\":895:1012   */\n      pop\n        /* \"#utility.yul\":690:1019   */\n      swap3\n      swap2\n      pop\n      pop\n      jump\t// out\n        /* \"#utility.yul\":1025:1143   */\n    tag_237:\n        /* \"#utility.yul\":1112:1136   */\n      tag_314\n        /* \"#utility.yul\":1130:1135   */\n      dup2\n        /* \"#utility.yul\":1112:1136   */\n      tag_234\n      jump\t// in\n    tag_314:\n        /* \"#utility.yul\":1107:1110   */\n      dup3\n        /* \"#utility.yul\":1100:1137   */\n      mstore\n        /* \"#utility.yul\":1025:1143   */\n      pop\n      pop\n      jump\t// out\n        /* \"#utility.yul\":1149:1248   */\n    tag_238:\n        /* \"#utility.yul\":1201:1207   */\n      0x00\n        /* \"#utility.yul\":1235:1240   */\n      dup2\n        /* \"#utility.yul\":1229:1241   */\n      mload\n        /* \"#utility.yul\":1219:1241   */\n      swap1\n      pop\n        /* \"#utility.yul\":1149:1248   */\n      swap2\n      swap1\n      pop\n      jump\t// out\n        /* \"#utility.yul\":1254:1423   */\n    tag_239:\n        /* \"#utility.yul\":1338:1349   */\n      0x00\n        /* \"#utility.yul\":1372:1378   */\n      dup3\n        /* \"#utility.yul\":1367:1370   */\n      dup3\n        /* \"#utility.yul\":1360:1379   */\n      mstore\n        /* \"#utility.yul\":1412:1416   */\n      0x20\n        /* \"#utility.yul\":1407:1410   */\n      dup3\n        /* \"#utility.yul\":1403:1417   */\n      add\n        /* \"#utility.yul\":1388:1417   */\n      swap1\n      pop\n        /* \"#utility.yul\":1254:1423   */\n      swap3\n      swap2\n      pop\n      pop\n      jump\t// out\n        /* \"#utility.yul\":1429:1568   */\n    tag_240:\n        /* \"#utility.yul\":1518:1524   */\n      dup3\n        /* \"#utility.yul\":1513:1516   */\n      dup2\n        /* \"#utility.yul\":1508:1511   */\n      dup4\n        /* \"#utility.yul\":1502:1525   */\n      mcopy\n        /* \"#utility.yul\":1559:1560   */\n      0x00\n        /* \"#utility.yul\":1550:1556   */\n      dup4\n        /* \"#utility.yul\":1545:1548   */\n      dup4\n        /* \"#utility.yul\":1541:1557   */\n      add\n        /* \"#utility.yul\":1534:1561   */\n      mstore\n        /* \"#utility.yul\":1429:1568   */\n      pop\n      pop\n      pop\n      jump\t// out\n        /* \"#utility.yul\":1574:1676   */\n    tag_241:\n        /* \"#utility.yul\":1615:1621   */\n      0x00\n        /* \"#utility.yul\":1666:1668   */\n      0x1f\n        /* \"#utility.yul\":1662:1669   */\n      not\n        /* \"#utility.yul\":1657:1659   */\n      0x1f\n        /* \"#utility.yul\":1650:1655   */\n      dup4\n        /* \"#utility.yul\":1646:1660   */\n      add\n        /* \"#utility.yul\":1642:1670   */\n      and\n        /* \"#utility.yul\":1632:1670   */\n      swap1\n      pop\n        /* \"#utility.yul\":1574:1676   */\n      swap2\n      swap1\n      pop\n      jump\t// out\n        /* \"#utility.yul\":1682:2059   */\n    tag_242:\n        /* \"#utility.yul\":1770:1773   */\n      0x00\n        /* \"#utility.yul\":1798:1837   */\n      tag_320\n        /* \"#utility.yul\":1831:1836   */\n      dup3\n        /* \"#utility.yul\":1798:1837   */\n      tag_238\n      jump\t// in\n    tag_320:\n        /* \"#utility.yul\":1853:1924   */\n      tag_321\n        /* \"#utility.yul\":1917:1923   */\n      dup2\n        /* \"#utility.yul\":1912:1915   */\n      dup6\n        /* \"#utility.yul\":1853:1924   */\n      tag_239\n      jump\t// in\n    tag_321:\n        /* \"#utility.yul\":1846:1924   */\n      swap4\n      pop\n        /* \"#utility.yul\":1933:1998   */\n      tag_322\n        /* \"#utility.yul\":1991:1997   */\n      dup2\n        /* \"#utility.yul\":1986:1989   */\n      dup6\n        /* \"#utility.yul\":1979:1983   */\n      0x20\n        /* \"#utility.yul\":1972:1977   */\n      dup7\n        /* \"#utility.yul\":1968:1984   */\n      add\n        /* \"#utility.yul\":1933:1998   */\n      tag_240\n      jump\t// in\n    tag_322:\n        /* \"#utility.yul\":2023:2052   */\n      tag_323\n        /* \"#utility.yul\":2045:2051   */\n      dup2\n        /* \"#utility.yul\":2023:2052   */\n      tag_241\n      jump\t// in\n    tag_323:\n        /* \"#utility.yul\":2018:2021   */\n      dup5\n        /* \"#utility.yul\":2014:2053   */\n      add\n        /* \"#utility.yul\":2007:2053   */\n      swap2\n      pop\n        /* \"#utility.yul\":1774:2059   */\n      pop\n        /* \"#utility.yul\":1682:2059   */\n      swap3\n      swap2\n      pop\n      pop\n      jump\t// out\n        /* \"#utility.yul\":2065:2191   */\n    tag_243:\n        /* \"#utility.yul\":2102:2109   */\n      0x00\n        /* \"#utility.yul\":2142:2184   */\n      0xffffffffffffffffffffffffffffffffffffffff\n        /* \"#utility.yul\":2135:2140   */\n      dup3\n        /* \"#utility.yul\":2131:2185   */\n      and\n        /* \"#utility.yul\":2120:2185   */\n      swap1\n      pop\n        /* \"#utility.yul\":2065:2191   */\n      swap2\n      swap1\n      pop\n      jump\t// out\n        /* \"#utility.yul\":2197:2293   */\n    tag_244:\n        /* \"#utility.yul\":2234:2241   */\n      0x00\n        /* \"#utility.yul\":2263:2287   */\n      tag_326\n        /* \"#utility.yul\":2281:2286   */\n      dup3\n        /* \"#utility.yul\":2263:2287   */\n      tag_243\n      jump\t// in\n    tag_326:\n        /* \"#utility.yul\":2252:2287   */\n      swap1\n      pop\n        /* \"#utility.yul\":2197:2293   */\n      swap2\n      swap1\n      pop\n      jump\t// out\n        /* \"#utility.yul\":2299:2417   */\n    tag_245:\n        /* \"#utility.yul\":2386:2410   */\n      tag_328\n        /* \"#utility.yul\":2404:2409   */\n      dup2\n        /* \"#utility.yul\":2386:2410   */\n      tag_244\n      jump\t// in\n    tag_328:\n        /* \"#utility.yul\":2381:2384   */\n      dup3\n        /* \"#utility.yul\":2374:2411   */\n      mstore\n        /* \"#utility.yul\":2299:2417   */\n      pop\n      pop\n      jump\t// out\n        /* \"#utility.yul\":2423:3471   */\n    tag_24:\n        /* \"#utility.yul\":2716:2720   */\n      0x00\n        /* \"#utility.yul\":2754:2757   */\n      0xc0\n        /* \"#utility.yul\":2743:2752   */\n      dup3\n        /* \"#utility.yul\":2739:2758   */\n      add\n        /* \"#utility.yul\":2731:2758   */\n      swap1\n      pop\n        /* \"#utility.yul\":2768:2839   */\n      tag_330\n        /* \"#utility.yul\":2836:2837   */\n      0x00\n        /* \"#utility.yul\":2825:2834   */\n      dup4\n        /* \"#utility.yul\":2821:2838   */\n      add\n        /* \"#utility.yul\":2812:2818   */\n      dup10\n        /* \"#utility.yul\":2768:2839   */\n      tag_237\n      jump\t// in\n    tag_330:\n        /* \"#utility.yul\":2886:2895   */\n      dup2\n        /* \"#utility.yul\":2880:2884   */\n      dup2\n        /* \"#utility.yul\":2876:2896   */\n      sub\n        /* \"#utility.yul\":2871:2873   */\n      0x20\n        /* \"#utility.yul\":2860:2869   */\n      dup4\n        /* \"#utility.yul\":2856:2874   */\n      add\n        /* \"#utility.yul\":2849:2897   */\n      mstore\n        /* \"#utility.yul\":2914:2992   */\n      tag_331\n        /* \"#utility.yul\":2987:2991   */\n      dup2\n        /* \"#utility.yul\":2978:2984   */\n      dup9\n        /* \"#utility.yul\":2914:2992   */\n      tag_242\n      jump\t// in\n    tag_331:\n        /* \"#utility.yul\":2906:2992   */\n      swap1\n      pop\n        /* \"#utility.yul\":3039:3048   */\n      dup2\n        /* \"#utility.yul\":3033:3037   */\n      dup2\n        /* \"#utility.yul\":3029:3049   */\n      sub\n        /* \"#utility.yul\":3024:3026   */\n      0x40\n        /* \"#utility.yul\":3013:3022   */\n      dup4\n        /* \"#utility.yul\":3009:3027   */\n      add\n        /* \"#utility.yul\":3002:3050   */\n      mstore\n        /* \"#utility.yul\":3067:3145   */\n      tag_332\n        /* \"#utility.yul\":3140:3144   */\n      dup2\n        /* \"#utility.yul\":3131:3137   */\n      dup8\n        /* \"#utility.yul\":3067:3145   */\n      tag_242\n      jump\t// in\n    tag_332:\n        /* \"#utility.yul\":3059:3145   */\n      swap1\n      pop\n        /* \"#utility.yul\":3192:3201   */\n      dup2\n        /* \"#utility.yul\":3186:3190   */\n      dup2\n        /* \"#utility.yul\":3182:3202   */\n      sub\n        /* \"#utility.yul\":3177:3179   */\n      0x60\n        /* \"#utility.yul\":3166:3175   */\n      dup4\n        /* \"#utility.yul\":3162:3180   */\n      add\n        /* \"#utility.yul\":3155:3203   */\n      mstore\n        /* \"#utility.yul\":3220:3298   */\n      tag_333\n        /* \"#utility.yul\":3293:3297   */\n      dup2\n        /* \"#utility.yul\":3284:3290   */\n      dup7\n        /* \"#utility.yul\":3220:3298   */\n      tag_242\n      jump\t// in\n    tag_333:\n        /* \"#utility.yul\":3212:3298   */\n      swap1\n      pop\n        /* \"#utility.yul\":3308:3381   */\n      tag_334\n        /* \"#utility.yul\":3376:3379   */\n      0x80\n        /* \"#utility.yul\":3365:3374   */\n      dup4\n        /* \"#utility.yul\":3361:3380   */\n      add\n        /* \"#utility.yul\":3352:3358   */\n      dup6\n        /* \"#utility.yul\":3308:3381   */\n      tag_237\n      jump\t// in\n    tag_334:\n        /* \"#utility.yul\":3391:3464   */\n      tag_335\n        /* \"#utility.yul\":3459:3462   */\n      0xa0\n        /* \"#utility.yul\":3448:3457   */\n      dup4\n        /* \"#utility.yul\":3444:3463   */\n      add\n        /* \"#utility.yul\":3435:3441   */\n      dup5\n        /* \"#utility.yul\":3391:3464   */\n      tag_245\n      jump\t// in\n    tag_335:\n        /* \"#utility.yul\":2423:3471   */\n      swap8\n      swap7\n      pop\n      pop\n      pop\n      pop\n      pop\n      pop\n      pop\n      jump\t// out\n        /* \"#utility.yul\":3477:3599   */\n    tag_246:\n        /* \"#utility.yul\":3550:3574   */\n      tag_337\n        /* \"#utility.yul\":3568:3573   */\n      dup2\n        /* \"#utility.yul\":3550:3574   */\n      tag_244\n      jump\t// in\n    tag_337:\n        /* \"#utility.yul\":3543:3548   */\n      dup2\n        /* \"#utility.yul\":3540:3575   */\n      eq\n        /* \"#utility.yul\":3530:3593   */\n      tag_338\n      jumpi\n        /* \"#utility.yul\":3589:3590   */\n      0x00\n        /* \"#utility.yul\":3586:3587   */\n      dup1\n        /* \"#utility.yul\":3579:3591   */\n      revert\n        /* \"#utility.yul\":3530:3593   */\n    tag_338:\n        /* \"#utility.yul\":3477:3599   */\n      pop\n      jump\t// out\n        /* \"#utility.yul\":3605:3744   */\n    tag_247:\n        /* \"#utility.yul\":3651:3656   */\n      0x00\n        /* \"#utility.yul\":3689:3695   */\n      dup2\n        /* \"#utility.yul\":3676:3696   */\n      calldataload\n        /* \"#utility.yul\":3667:3696   */\n      swap1\n      pop\n        /* \"#utility.yul\":3705:3738   */\n      tag_340\n        /* \"#utility.yul\":3732:3737   */\n      dup2\n        /* \"#utility.yul\":3705:3738   */\n      tag_246\n      jump\t// in\n    tag_340:\n        /* \"#utility.yul\":3605:3744   */\n      swap3\n      swap2\n      pop\n      pop\n      jump\t// out\n        /* \"#utility.yul\":3750:4079   */\n    tag_27:\n        /* \"#utility.yul\":3809:3815   */\n      0x00\n        /* \"#utility.yul\":3858:3860   */\n      0x20\n        /* \"#utility.yul\":3846:3855   */\n      dup3\n        /* \"#utility.yul\":3837:3844   */\n      dup5\n        /* \"#utility.yul\":3833:3856   */\n      sub\n        /* \"#utility.yul\":3829:3861   */\n      slt\n        /* \"#utility.yul\":3826:3945   */\n      iszero\n      tag_342\n      jumpi\n        /* \"#utility.yul\":3864:3943   */\n      tag_343\n      tag_232\n      jump\t// in\n    tag_343:\n        /* \"#utility.yul\":3826:3945   */\n    tag_342:\n        /* \"#utility.yul\":3984:3985   */\n      0x00\n        /* \"#utility.yul\":4009:4062   */\n      tag_344\n        /* \"#utility.yul\":4054:4061   */\n      dup5\n        /* \"#utility.yul\":4045:4051   */\n      dup3\n        /* \"#utility.yul\":4034:4043   */\n      dup6\n        /* \"#utility.yul\":4030:4052   */\n      add\n        /* \"#utility.yul\":4009:4062   */\n      tag_247\n      jump\t// in\n    tag_344:\n        /* \"#utility.yul\":3999:4062   */\n      swap2\n      pop\n        /* \"#utility.yul\":3955:4072   */\n      pop\n        /* \"#utility.yul\":3750:4079   */\n      swap3\n      swap2\n      pop\n      pop\n      jump\t// out\n        /* \"#utility.yul\":4085:4224   */\n    tag_248:\n        /* \"#utility.yul\":4177:4183   */\n      0x00\n        /* \"#utility.yul\":4211:4216   */\n      dup2\n        /* \"#utility.yul\":4205:4217   */\n      mload\n        /* \"#utility.yul\":4195:4217   */\n      swap1\n      pop\n        /* \"#utility.yul\":4085:4224   */\n      swap2\n      swap1\n      pop\n      jump\t// out\n        /* \"#utility.yul\":4230:4439   */\n    tag_249:\n        /* \"#utility.yul\":4354:4365   */\n      0x00\n        /* \"#utility.yul\":4388:4394   */\n      dup3\n        /* \"#utility.yul\":4383:4386   */\n      dup3\n        /* \"#utility.yul\":4376:4395   */\n      mstore\n        /* \"#utility.yul\":4428:4432   */\n      0x20\n        /* \"#utility.yul\":4423:4426   */\n      dup3\n        /* \"#utility.yul\":4419:4433   */\n      add\n        /* \"#utility.yul\":4404:4433   */\n      swap1\n      pop\n        /* \"#utility.yul\":4230:4439   */\n      swap3\n      swap2\n      pop\n      pop\n      jump\t// out\n        /* \"#utility.yul\":4445:4602   */\n    tag_250:\n        /* \"#utility.yul\":4537:4541   */\n      0x00\n        /* \"#utility.yul\":4560:4563   */\n      dup2\n        /* \"#utility.yul\":4552:4563   */\n      swap1\n      pop\n        /* \"#utility.yul\":4590:4594   */\n      0x20\n        /* \"#utility.yul\":4585:4588   */\n      dup3\n        /* \"#utility.yul\":4581:4595   */\n      add\n        /* \"#utility.yul\":4573:4595   */\n      swap1\n      pop\n        /* \"#utility.yul\":4445:4602   */\n      swap2\n      swap1\n      pop\n      jump\t// out\n        /* \"#utility.yul\":4608:4716   */\n    tag_251:\n        /* \"#utility.yul\":4685:4709   */\n      tag_349\n        /* \"#utility.yul\":4703:4708   */\n      dup2\n        /* \"#utility.yul\":4685:4709   */\n      tag_234\n      jump\t// in\n    tag_349:\n        /* \"#utility.yul\":4680:4683   */\n      dup3\n        /* \"#utility.yul\":4673:4710   */\n      mstore\n        /* \"#utility.yul\":4608:4716   */\n      pop\n      pop\n      jump\t// out\n        /* \"#utility.yul\":4722:4881   */\n    tag_252:\n        /* \"#utility.yul\":4796:4807   */\n      0x00\n        /* \"#utility.yul\":4830:4836   */\n      dup3\n        /* \"#utility.yul\":4825:4828   */\n      dup3\n        /* \"#utility.yul\":4818:4837   */\n      mstore\n        /* \"#utility.yul\":4870:4874   */\n      0x20\n        /* \"#utility.yul\":4865:4868   */\n      dup3\n        /* \"#utility.yul\":4861:4875   */\n      add\n        /* \"#utility.yul\":4846:4875   */\n      swap1\n      pop\n        /* \"#utility.yul\":4722:4881   */\n      swap3\n      swap2\n      pop\n      pop\n      jump\t// out\n        /* \"#utility.yul\":4887:5244   */\n    tag_253:\n        /* \"#utility.yul\":4965:4968   */\n      0x00\n        /* \"#utility.yul\":4993:5032   */\n      tag_352\n        /* \"#utility.yul\":5026:5031   */\n      dup3\n        /* \"#utility.yul\":4993:5032   */\n      tag_238\n      jump\t// in\n    tag_352:\n        /* \"#utility.yul\":5048:5109   */\n      tag_353\n        /* \"#utility.yul\":5102:5108   */\n      dup2\n        /* \"#utility.yul\":5097:5100   */\n      dup6\n        /* \"#utility.yul\":5048:5109   */\n      tag_252\n      jump\t// in\n    tag_353:\n        /* \"#utility.yul\":5041:5109   */\n      swap4\n      pop\n        /* \"#utility.yul\":5118:5183   */\n      tag_354\n        /* \"#utility.yul\":5176:5182   */\n      dup2\n        /* \"#utility.yul\":5171:5174   */\n      dup6\n        /* \"#utility.yul\":5164:5168   */\n      0x20\n        /* \"#utility.yul\":5157:5162   */\n      dup7\n        /* \"#utility.yul\":5153:5169   */\n      add\n        /* \"#utility.yul\":5118:5183   */\n      tag_240\n      jump\t// in\n    tag_354:\n        /* \"#utility.yul\":5208:5237   */\n      tag_355\n        /* \"#utility.yul\":5230:5236   */\n      dup2\n        /* \"#utility.yul\":5208:5237   */\n      tag_241\n      jump\t// in\n    tag_355:\n        /* \"#utility.yul\":5203:5206   */\n      dup5\n        /* \"#utility.yul\":5199:5238   */\n      add\n        /* \"#utility.yul\":5192:5238   */\n      swap2\n      pop\n        /* \"#utility.yul\":4969:5244   */\n      pop\n        /* \"#utility.yul\":4887:5244   */\n      swap3\n      swap2\n      pop\n      pop\n      jump\t// out\n        /* \"#utility.yul\":5250:5358   */\n    tag_254:\n        /* \"#utility.yul\":5327:5351   */\n      tag_357\n        /* \"#utility.yul\":5345:5350   */\n      dup2\n        /* \"#utility.yul\":5327:5351   */\n      tag_244\n      jump\t// in\n    tag_357:\n        /* \"#utility.yul\":5322:5325   */\n      dup3\n        /* \"#utility.yul\":5315:5352   */\n      mstore\n        /* \"#utility.yul\":5250:5358   */\n      pop\n      pop\n      jump\t// out\n        /* \"#utility.yul\":5420:6865   */\n    tag_255:\n        /* \"#utility.yul\":5529:5532   */\n      0x00\n        /* \"#utility.yul\":5565:5569   */\n      0xc0\n        /* \"#utility.yul\":5560:5563   */\n      dup4\n        /* \"#utility.yul\":5556:5570   */\n      add\n        /* \"#utility.yul\":5650:5654   */\n      0x00\n        /* \"#utility.yul\":5643:5648   */\n      dup4\n        /* \"#utility.yul\":5639:5655   */\n      add\n        /* \"#utility.yul\":5633:5656   */\n      mload\n        /* \"#utility.yul\":5669:5732   */\n      tag_359\n        /* \"#utility.yul\":5726:5730   */\n      0x00\n        /* \"#utility.yul\":5721:5724   */\n      dup7\n        /* \"#utility.yul\":5717:5731   */\n      add\n        /* \"#utility.yul\":5703:5715   */\n      dup3\n        /* \"#utility.yul\":5669:5732   */\n      tag_251\n      jump\t// in\n    tag_359:\n        /* \"#utility.yul\":5580:5742   */\n      pop\n        /* \"#utility.yul\":5825:5829   */\n      0x20\n        /* \"#utility.yul\":5818:5823   */\n      dup4\n        /* \"#utility.yul\":5814:5830   */\n      add\n        /* \"#utility.yul\":5808:5831   */\n      mload\n        /* \"#utility.yul\":5878:5881   */\n      dup5\n        /* \"#utility.yul\":5872:5876   */\n      dup3\n        /* \"#utility.yul\":5868:5882   */\n      sub\n        /* \"#utility.yul\":5861:5865   */\n      0x20\n        /* \"#utility.yul\":5856:5859   */\n      dup7\n        /* \"#utility.yul\":5852:5866   */\n      add\n        /* \"#utility.yul\":5845:5883   */\n      mstore\n        /* \"#utility.yul\":5904:5977   */\n      tag_360\n        /* \"#utility.yul\":5972:5976   */\n      dup3\n        /* \"#utility.yul\":5958:5970   */\n      dup3\n        /* \"#utility.yul\":5904:5977   */\n      tag_253\n      jump\t// in\n    tag_360:\n        /* \"#utility.yul\":5896:5977   */\n      swap2\n      pop\n        /* \"#utility.yul\":5752:5988   */\n      pop\n        /* \"#utility.yul\":6077:6081   */\n      0x40\n        /* \"#utility.yul\":6070:6075   */\n      dup4\n        /* \"#utility.yul\":6066:6082   */\n      add\n        /* \"#utility.yul\":6060:6083   */\n      mload\n        /* \"#utility.yul\":6130:6133   */\n      dup5\n        /* \"#utility.yul\":6124:6128   */\n      dup3\n        /* \"#utility.yul\":6120:6134   */\n      sub\n        /* \"#utility.yul\":6113:6117   */\n      0x40\n        /* \"#utility.yul\":6108:6111   */\n      dup7\n        /* \"#utility.yul\":6104:6118   */\n      add\n        /* \"#utility.yul\":6097:6135   */\n      mstore\n        /* \"#utility.yul\":6156:6229   */\n      tag_361\n        /* \"#utility.yul\":6224:6228   */\n      dup3\n        /* \"#utility.yul\":6210:6222   */\n      dup3\n        /* \"#utility.yul\":6156:6229   */\n      tag_253\n      jump\t// in\n    tag_361:\n        /* \"#utility.yul\":6148:6229   */\n      swap2\n      pop\n        /* \"#utility.yul\":5998:6240   */\n      pop\n        /* \"#utility.yul\":6324:6328   */\n      0x60\n        /* \"#utility.yul\":6317:6322   */\n      dup4\n        /* \"#utility.yul\":6313:6329   */\n      add\n        /* \"#utility.yul\":6307:6330   */\n      mload\n        /* \"#utility.yul\":6377:6380   */\n      dup5\n        /* \"#utility.yul\":6371:6375   */\n      dup3\n        /* \"#utility.yul\":6367:6381   */\n      sub\n        /* \"#utility.yul\":6360:6364   */\n      0x60\n        /* \"#utility.yul\":6355:6358   */\n      dup7\n        /* \"#utility.yul\":6351:6365   */\n      add\n        /* \"#utility.yul\":6344:6382   */\n      mstore\n        /* \"#utility.yul\":6403:6476   */\n      tag_362\n        /* \"#utility.yul\":6471:6475   */\n      dup3\n        /* \"#utility.yul\":6457:6469   */\n      dup3\n        /* \"#utility.yul\":6403:6476   */\n      tag_253\n      jump\t// in\n    tag_362:\n        /* \"#utility.yul\":6395:6476   */\n      swap2\n      pop\n        /* \"#utility.yul\":6250:6487   */\n      pop\n        /* \"#utility.yul\":6570:6574   */\n      0x80\n        /* \"#utility.yul\":6563:6568   */\n      dup4\n        /* \"#utility.yul\":6559:6575   */\n      add\n        /* \"#utility.yul\":6553:6576   */\n      mload\n        /* \"#utility.yul\":6589:6652   */\n      tag_363\n        /* \"#utility.yul\":6646:6650   */\n      0x80\n        /* \"#utility.yul\":6641:6644   */\n      dup7\n        /* \"#utility.yul\":6637:6651   */\n      add\n        /* \"#utility.yul\":6623:6635   */\n      dup3\n        /* \"#utility.yul\":6589:6652   */\n      tag_251\n      jump\t// in\n    tag_363:\n        /* \"#utility.yul\":6497:6662   */\n      pop\n        /* \"#utility.yul\":6746:6750   */\n      0xa0\n        /* \"#utility.yul\":6739:6744   */\n      dup4\n        /* \"#utility.yul\":6735:6751   */\n      add\n        /* \"#utility.yul\":6729:6752   */\n      mload\n        /* \"#utility.yul\":6765:6828   */\n      tag_364\n        /* \"#utility.yul\":6822:6826   */\n      0xa0\n        /* \"#utility.yul\":6817:6820   */\n      dup7\n        /* \"#utility.yul\":6813:6827   */\n      add\n        /* \"#utility.yul\":6799:6811   */\n      dup3\n        /* \"#utility.yul\":6765:6828   */\n      tag_254\n      jump\t// in\n    tag_364:\n        /* \"#utility.yul\":6672:6838   */\n      pop\n        /* \"#utility.yul\":6855:6859   */\n      dup1\n        /* \"#utility.yul\":6848:6859   */\n      swap2\n      pop\n        /* \"#utility.yul\":5534:6865   */\n      pop\n        /* \"#utility.yul\":5420:6865   */\n      swap3\n      swap2\n      pop\n      pop\n      jump\t// out\n        /* \"#utility.yul\":6871:7127   */\n    tag_256:\n        /* \"#utility.yul\":6990:7000   */\n      0x00\n        /* \"#utility.yul\":7025:7121   */\n      tag_366\n        /* \"#utility.yul\":7117:7120   */\n      dup4\n        /* \"#utility.yul\":7109:7115   */\n      dup4\n        /* \"#utility.yul\":7025:7121   */\n      tag_255\n      jump\t// in\n    tag_366:\n        /* \"#utility.yul\":7011:7121   */\n      swap1\n      pop\n        /* \"#utility.yul\":6871:7127   */\n      swap3\n      swap2\n      pop\n      pop\n      jump\t// out\n        /* \"#utility.yul\":7133:7271   */\n    tag_257:\n        /* \"#utility.yul\":7228:7232   */\n      0x00\n        /* \"#utility.yul\":7260:7264   */\n      0x20\n        /* \"#utility.yul\":7255:7258   */\n      dup3\n        /* \"#utility.yul\":7251:7265   */\n      add\n        /* \"#utility.yul\":7243:7265   */\n      swap1\n      pop\n        /* \"#utility.yul\":7133:7271   */\n      swap2\n      swap1\n      pop\n      jump\t// out\n        /* \"#utility.yul\":7337:8448   */\n    tag_258:\n        /* \"#utility.yul\":7506:7509   */\n      0x00\n        /* \"#utility.yul\":7535:7614   */\n      tag_369\n        /* \"#utility.yul\":7608:7613   */\n      dup3\n        /* \"#utility.yul\":7535:7614   */\n      tag_248\n      jump\t// in\n    tag_369:\n        /* \"#utility.yul\":7630:7741   */\n      tag_370\n        /* \"#utility.yul\":7734:7740   */\n      dup2\n        /* \"#utility.yul\":7729:7732   */\n      dup6\n        /* \"#utility.yul\":7630:7741   */\n      tag_249\n      jump\t// in\n    tag_370:\n        /* \"#utility.yul\":7623:7741   */\n      swap4\n      pop\n        /* \"#utility.yul\":7767:7770   */\n      dup4\n        /* \"#utility.yul\":7812:7816   */\n      0x20\n        /* \"#utility.yul\":7804:7810   */\n      dup3\n        /* \"#utility.yul\":7800:7817   */\n      mul\n        /* \"#utility.yul\":7795:7798   */\n      dup6\n        /* \"#utility.yul\":7791:7818   */\n      add\n        /* \"#utility.yul\":7842:7923   */\n      tag_371\n        /* \"#utility.yul\":7917:7922   */\n      dup6\n        /* \"#utility.yul\":7842:7923   */\n      tag_250\n      jump\t// in\n    tag_371:\n        /* \"#utility.yul\":7946:7953   */\n      dup1\n        /* \"#utility.yul\":7977:7978   */\n      0x00\n        /* \"#utility.yul\":7962:8403   */\n    tag_372:\n        /* \"#utility.yul\":7987:7993   */\n      dup6\n        /* \"#utility.yul\":7984:7985   */\n      dup2\n        /* \"#utility.yul\":7981:7994   */\n      lt\n        /* \"#utility.yul\":7962:8403   */\n      iszero\n      tag_374\n      jumpi\n        /* \"#utility.yul\":8058:8067   */\n      dup5\n        /* \"#utility.yul\":8052:8056   */\n      dup5\n        /* \"#utility.yul\":8048:8068   */\n      sub\n        /* \"#utility.yul\":8043:8046   */\n      dup10\n        /* \"#utility.yul\":8036:8069   */\n      mstore\n        /* \"#utility.yul\":8109:8115   */\n      dup2\n        /* \"#utility.yul\":8103:8116   */\n      mload\n        /* \"#utility.yul\":8137:8251   */\n      tag_375\n        /* \"#utility.yul\":8246:8250   */\n      dup6\n        /* \"#utility.yul\":8231:8244   */\n      dup3\n        /* \"#utility.yul\":8137:8251   */\n      tag_256\n      jump\t// in\n    tag_375:\n        /* \"#utility.yul\":8129:8251   */\n      swap5\n      pop\n        /* \"#utility.yul\":8274:8359   */\n      tag_376\n        /* \"#utility.yul\":8352:8358   */\n      dup4\n        /* \"#utility.yul\":8274:8359   */\n      tag_257\n      jump\t// in\n    tag_376:\n        /* \"#utility.yul\":8264:8359   */\n      swap3\n      pop\n        /* \"#utility.yul\":8388:8392   */\n      0x20\n        /* \"#utility.yul\":8383:8386   */\n      dup11\n        /* \"#utility.yul\":8379:8393   */\n      add\n        /* \"#utility.yul\":8372:8393   */\n      swap10\n      pop\n        /* \"#utility.yul\":8022:8403   */\n      pop\n        /* \"#utility.yul\":8009:8010   */\n      0x01\n        /* \"#utility.yul\":8006:8007   */\n      dup2\n        /* \"#utility.yul\":8002:8011   */\n      add\n        /* \"#utility.yul\":7997:8011   */\n      swap1\n      pop\n        /* \"#utility.yul\":7962:8403   */\n      jump(tag_372)\n    tag_374:\n        /* \"#utility.yul\":7966:7980   */\n      pop\n        /* \"#utility.yul\":8419:8423   */\n      dup3\n        /* \"#utility.yul\":8412:8423   */\n      swap8\n      pop\n        /* \"#utility.yul\":8439:8442   */\n      dup8\n        /* \"#utility.yul\":8432:8442   */\n      swap6\n      pop\n        /* \"#utility.yul\":7511:8448   */\n      pop\n      pop\n      pop\n      pop\n      pop\n        /* \"#utility.yul\":7337:8448   */\n      swap3\n      swap2\n      pop\n      pop\n      jump\t// out\n        /* \"#utility.yul\":8454:8927   */\n    tag_30:\n        /* \"#utility.yul\":8647:8651   */\n      0x00\n        /* \"#utility.yul\":8685:8687   */\n      0x20\n        /* \"#utility.yul\":8674:8683   */\n      dup3\n        /* \"#utility.yul\":8670:8688   */\n      add\n        /* \"#utility.yul\":8662:8688   */\n      swap1\n      pop\n        /* \"#utility.yul\":8734:8743   */\n      dup2\n        /* \"#utility.yul\":8728:8732   */\n      dup2\n        /* \"#utility.yul\":8724:8744   */\n      sub\n        /* \"#utility.yul\":8720:8721   */\n      0x00\n        /* \"#utility.yul\":8709:8718   */\n      dup4\n        /* \"#utility.yul\":8705:8722   */\n      add\n        /* \"#utility.yul\":8698:8745   */\n      mstore\n        /* \"#utility.yul\":8762:8920   */\n      tag_378\n        /* \"#utility.yul\":8915:8919   */\n      dup2\n        /* \"#utility.yul\":8906:8912   */\n      dup5\n        /* \"#utility.yul\":8762:8920   */\n      tag_258\n      jump\t// in\n    tag_378:\n        /* \"#utility.yul\":8754:8920   */\n      swap1\n      pop\n        /* \"#utility.yul\":8454:8927   */\n      swap3\n      swap2\n      pop\n      pop\n      jump\t// out\n        /* \"#utility.yul\":8933:9023   */\n    tag_259:\n        /* \"#utility.yul\":8967:8974   */\n      0x00\n        /* \"#utility.yul\":9010:9015   */\n      dup2\n        /* \"#utility.yul\":9003:9016   */\n      iszero\n        /* \"#utility.yul\":8996:9017   */\n      iszero\n        /* \"#utility.yul\":8985:9017   */\n      swap1\n      pop\n        /* \"#utility.yul\":8933:9023   */\n      swap2\n      swap1\n      pop\n      jump\t// out\n        /* \"#utility.yul\":9029:9138   */\n    tag_260:\n        /* \"#utility.yul\":9110:9131   */\n      tag_381\n        /* \"#utility.yul\":9125:9130   */\n      dup2\n        /* \"#utility.yul\":9110:9131   */\n      tag_259\n      jump\t// in\n    tag_381:\n        /* \"#utility.yul\":9105:9108   */\n      dup3\n        /* \"#utility.yul\":9098:9132   */\n      mstore\n        /* \"#utility.yul\":9029:9138   */\n      pop\n      pop\n      jump\t// out\n        /* \"#utility.yul\":9144:9354   */\n    tag_35:\n        /* \"#utility.yul\":9231:9235   */\n      0x00\n        /* \"#utility.yul\":9269:9271   */\n      0x20\n        /* \"#utility.yul\":9258:9267   */\n      dup3\n        /* \"#utility.yul\":9254:9272   */\n      add\n        /* \"#utility.yul\":9246:9272   */\n      swap1\n      pop\n        /* \"#utility.yul\":9282:9347   */\n      tag_383\n        /* \"#utility.yul\":9344:9345   */\n      0x00\n        /* \"#utility.yul\":9333:9342   */\n      dup4\n        /* \"#utility.yul\":9329:9346   */\n      add\n        /* \"#utility.yul\":9320:9326   */\n      dup5\n        /* \"#utility.yul\":9282:9347   */\n      tag_260\n      jump\t// in\n    tag_383:\n        /* \"#utility.yul\":9144:9354   */\n      swap3\n      swap2\n      pop\n      pop\n      jump\t// out\n        /* \"#utility.yul\":9360:9477   */\n    tag_261:\n        /* \"#utility.yul\":9469:9470   */\n      0x00\n        /* \"#utility.yul\":9466:9467   */\n      dup1\n        /* \"#utility.yul\":9459:9471   */\n      revert\n        /* \"#utility.yul\":9483:9600   */\n    tag_262:\n        /* \"#utility.yul\":9592:9593   */\n      0x00\n        /* \"#utility.yul\":9589:9590   */\n      dup1\n        /* \"#utility.yul\":9582:9594   */\n      revert\n        /* \"#utility.yul\":9606:9786   */\n    tag_263:\n        /* \"#utility.yul\":9654:9731   */\n      0x4e487b7100000000000000000000000000000000000000000000000000000000\n        /* \"#utility.yul\":9651:9652   */\n      0x00\n        /* \"#utility.yul\":9644:9732   */\n      mstore\n        /* \"#utility.yul\":9751:9755   */\n      0x41\n        /* \"#utility.yul\":9748:9749   */\n      0x04\n        /* \"#utility.yul\":9741:9756   */\n      mstore\n        /* \"#utility.yul\":9775:9779   */\n      0x24\n        /* \"#utility.yul\":9772:9773   */\n      0x00\n        /* \"#utility.yul\":9765:9780   */\n      revert\n        /* \"#utility.yul\":9792:10073   */\n    tag_264:\n        /* \"#utility.yul\":9875:9902   */\n      tag_388\n        /* \"#utility.yul\":9897:9901   */\n      dup3\n        /* \"#utility.yul\":9875:9902   */\n      tag_241\n      jump\t// in\n    tag_388:\n        /* \"#utility.yul\":9867:9873   */\n      dup2\n        /* \"#utility.yul\":9863:9903   */\n      add\n        /* \"#utility.yul\":10005:10011   */\n      dup2\n        /* \"#utility.yul\":9993:10003   */\n      dup2\n        /* \"#utility.yul\":9990:10012   */\n      lt\n        /* \"#utility.yul\":9969:9987   */\n      0xffffffffffffffff\n        /* \"#utility.yul\":9957:9967   */\n      dup3\n        /* \"#utility.yul\":9954:9988   */\n      gt\n        /* \"#utility.yul\":9951:10013   */\n      or\n        /* \"#utility.yul\":9948:10036   */\n      iszero\n      tag_389\n      jumpi\n        /* \"#utility.yul\":10016:10034   */\n      tag_390\n      tag_263\n      jump\t// in\n    tag_390:\n        /* \"#utility.yul\":9948:10036   */\n    tag_389:\n        /* \"#utility.yul\":10056:10066   */\n      dup1\n        /* \"#utility.yul\":10052:10054   */\n      0x40\n        /* \"#utility.yul\":10045:10067   */\n      mstore\n        /* \"#utility.yul\":9835:10073   */\n      pop\n        /* \"#utility.yul\":9792:10073   */\n      pop\n      pop\n      jump\t// out\n        /* \"#utility.yul\":10079:10208   */\n    tag_265:\n        /* \"#utility.yul\":10113:10119   */\n      0x00\n        /* \"#utility.yul\":10140:10160   */\n      tag_392\n      tag_231\n      jump\t// in\n    tag_392:\n        /* \"#utility.yul\":10130:10160   */\n      swap1\n      pop\n        /* \"#utility.yul\":10169:10202   */\n      tag_393\n        /* \"#utility.yul\":10197:10201   */\n      dup3\n        /* \"#utility.yul\":10189:10195   */\n      dup3\n        /* \"#utility.yul\":10169:10202   */\n      tag_264\n      jump\t// in\n    tag_393:\n        /* \"#utility.yul\":10079:10208   */\n      swap2\n      swap1\n      pop\n      jump\t// out\n        /* \"#utility.yul\":10214:10522   */\n    tag_266:\n        /* \"#utility.yul\":10276:10280   */\n      0x00\n        /* \"#utility.yul\":10366:10384   */\n      0xffffffffffffffff\n        /* \"#utility.yul\":10358:10364   */\n      dup3\n        /* \"#utility.yul\":10355:10385   */\n      gt\n        /* \"#utility.yul\":10352:10408   */\n      iszero\n      tag_395\n      jumpi\n        /* \"#utility.yul\":10388:10406   */\n      tag_396\n      tag_263\n      jump\t// in\n    tag_396:\n        /* \"#utility.yul\":10352:10408   */\n    tag_395:\n        /* \"#utility.yul\":10426:10455   */\n      tag_397\n        /* \"#utility.yul\":10448:10454   */\n      dup3\n        /* \"#utility.yul\":10426:10455   */\n      tag_241\n      jump\t// in\n    tag_397:\n        /* \"#utility.yul\":10418:10455   */\n      swap1\n      pop\n        /* \"#utility.yul\":10510:10514   */\n      0x20\n        /* \"#utility.yul\":10504:10508   */\n      dup2\n        /* \"#utility.yul\":10500:10515   */\n      add\n        /* \"#utility.yul\":10492:10515   */\n      swap1\n      pop\n        /* \"#utility.yul\":10214:10522   */\n      swap2\n      swap1\n      pop\n      jump\t// out\n        /* \"#utility.yul\":10528:10676   */\n    tag_267:\n        /* \"#utility.yul\":10626:10632   */\n      dup3\n        /* \"#utility.yul\":10621:10624   */\n      dup2\n        /* \"#utility.yul\":10616:10619   */\n      dup4\n        /* \"#utility.yul\":10603:10633   */\n      calldatacopy\n        /* \"#utility.yul\":10667:10668   */\n      0x00\n        /* \"#utility.yul\":10658:10664   */\n      dup4\n        /* \"#utility.yul\":10653:10656   */\n      dup4\n        /* \"#utility.yul\":10649:10665   */\n      add\n        /* \"#utility.yul\":10642:10669   */\n      mstore\n        /* \"#utility.yul\":10528:10676   */\n      pop\n      pop\n      pop\n      jump\t// out\n        /* \"#utility.yul\":10682:11107   */\n    tag_268:\n        /* \"#utility.yul\":10760:10765   */\n      0x00\n        /* \"#utility.yul\":10785:10851   */\n      tag_400\n        /* \"#utility.yul\":10801:10850   */\n      tag_401\n        /* \"#utility.yul\":10843:10849   */\n      dup5\n        /* \"#utility.yul\":10801:10850   */\n      tag_266\n      jump\t// in\n    tag_401:\n        /* \"#utility.yul\":10785:10851   */\n      tag_265\n      jump\t// in\n    tag_400:\n        /* \"#utility.yul\":10776:10851   */\n      swap1\n      pop\n        /* \"#utility.yul\":10874:10880   */\n      dup3\n        /* \"#utility.yul\":10867:10872   */\n      dup2\n        /* \"#utility.yul\":10860:10881   */\n      mstore\n        /* \"#utility.yul\":10912:10916   */\n      0x20\n        /* \"#utility.yul\":10905:10910   */\n      dup2\n        /* \"#utility.yul\":10901:10917   */\n      add\n        /* \"#utility.yul\":10950:10953   */\n      dup5\n        /* \"#utility.yul\":10941:10947   */\n      dup5\n        /* \"#utility.yul\":10936:10939   */\n      dup5\n        /* \"#utility.yul\":10932:10948   */\n      add\n        /* \"#utility.yul\":10929:10954   */\n      gt\n        /* \"#utility.yul\":10926:11038   */\n      iszero\n      tag_402\n      jumpi\n        /* \"#utility.yul\":10957:11036   */\n      tag_403\n      tag_262\n      jump\t// in\n    tag_403:\n        /* \"#utility.yul\":10926:11038   */\n    tag_402:\n        /* \"#utility.yul\":11047:11101   */\n      tag_404\n        /* \"#utility.yul\":11094:11100   */\n      dup5\n        /* \"#utility.yul\":11089:11092   */\n      dup3\n        /* \"#utility.yul\":11084:11087   */\n      dup6\n        /* \"#utility.yul\":11047:11101   */\n      tag_267\n      jump\t// in\n    tag_404:\n        /* \"#utility.yul\":10766:11107   */\n      pop\n        /* \"#utility.yul\":10682:11107   */\n      swap4\n      swap3\n      pop\n      pop\n      pop\n      jump\t// out\n        /* \"#utility.yul\":11127:11467   */\n    tag_269:\n        /* \"#utility.yul\":11183:11188   */\n      0x00\n        /* \"#utility.yul\":11232:11235   */\n      dup3\n        /* \"#utility.yul\":11225:11229   */\n      0x1f\n        /* \"#utility.yul\":11217:11223   */\n      dup4\n        /* \"#utility.yul\":11213:11230   */\n      add\n        /* \"#utility.yul\":11209:11236   */\n      slt\n        /* \"#utility.yul\":11199:11321   */\n      tag_406\n      jumpi\n        /* \"#utility.yul\":11240:11319   */\n      tag_407\n      tag_261\n      jump\t// in\n    tag_407:\n        /* \"#utility.yul\":11199:11321   */\n    tag_406:\n        /* \"#utility.yul\":11357:11363   */\n      dup2\n        /* \"#utility.yul\":11344:11364   */\n      calldataload\n        /* \"#utility.yul\":11382:11461   */\n      tag_408\n        /* \"#utility.yul\":11457:11460   */\n      dup5\n        /* \"#utility.yul\":11449:11455   */\n      dup3\n        /* \"#utility.yul\":11442:11446   */\n      0x20\n        /* \"#utility.yul\":11434:11440   */\n      dup7\n        /* \"#utility.yul\":11430:11447   */\n      add\n        /* \"#utility.yul\":11382:11461   */\n      tag_268\n      jump\t// in\n    tag_408:\n        /* \"#utility.yul\":11373:11461   */\n      swap2\n      pop\n        /* \"#utility.yul\":11189:11467   */\n      pop\n        /* \"#utility.yul\":11127:11467   */\n      swap3\n      swap2\n      pop\n      pop\n      jump\t// out\n        /* \"#utility.yul\":11473:12632   */\n    tag_38:\n        /* \"#utility.yul\":11580:11586   */\n      0x00\n        /* \"#utility.yul\":11588:11594   */\n      dup1\n        /* \"#utility.yul\":11596:11602   */\n      0x00\n        /* \"#utility.yul\":11645:11647   */\n      0x60\n        /* \"#utility.yul\":11633:11642   */\n      dup5\n        /* \"#utility.yul\":11624:11631   */\n      dup7\n        /* \"#utility.yul\":11620:11643   */\n      sub\n        /* \"#utility.yul\":11616:11648   */\n      slt\n        /* \"#utility.yul\":11613:11732   */\n      iszero\n      tag_410\n      jumpi\n        /* \"#utility.yul\":11651:11730   */\n      tag_411\n      tag_232\n      jump\t// in\n    tag_411:\n        /* \"#utility.yul\":11613:11732   */\n    tag_410:\n        /* \"#utility.yul\":11799:11800   */\n      0x00\n        /* \"#utility.yul\":11788:11797   */\n      dup5\n        /* \"#utility.yul\":11784:11801   */\n      add\n        /* \"#utility.yul\":11771:11802   */\n      calldataload\n        /* \"#utility.yul\":11829:11847   */\n      0xffffffffffffffff\n        /* \"#utility.yul\":11821:11827   */\n      dup2\n        /* \"#utility.yul\":11818:11848   */\n      gt\n        /* \"#utility.yul\":11815:11932   */\n      iszero\n      tag_412\n      jumpi\n        /* \"#utility.yul\":11851:11930   */\n      tag_413\n      tag_233\n      jump\t// in\n    tag_413:\n        /* \"#utility.yul\":11815:11932   */\n    tag_412:\n        /* \"#utility.yul\":11956:12019   */\n      tag_414\n        /* \"#utility.yul\":12011:12018   */\n      dup7\n        /* \"#utility.yul\":12002:12008   */\n      dup3\n        /* \"#utility.yul\":11991:12000   */\n      dup8\n        /* \"#utility.yul\":11987:12009   */\n      add\n        /* \"#utility.yul\":11956:12019   */\n      tag_269\n      jump\t// in\n    tag_414:\n        /* \"#utility.yul\":11946:12019   */\n      swap4\n      pop\n        /* \"#utility.yul\":11742:12029   */\n      pop\n        /* \"#utility.yul\":12096:12098   */\n      0x20\n        /* \"#utility.yul\":12085:12094   */\n      dup5\n        /* \"#utility.yul\":12081:12099   */\n      add\n        /* \"#utility.yul\":12068:12100   */\n      calldataload\n        /* \"#utility.yul\":12127:12145   */\n      0xffffffffffffffff\n        /* \"#utility.yul\":12119:12125   */\n      dup2\n        /* \"#utility.yul\":12116:12146   */\n      gt\n        /* \"#utility.yul\":12113:12230   */\n      iszero\n      tag_415\n      jumpi\n        /* \"#utility.yul\":12149:12228   */\n      tag_416\n      tag_233\n      jump\t// in\n    tag_416:\n        /* \"#utility.yul\":12113:12230   */\n    tag_415:\n        /* \"#utility.yul\":12254:12317   */\n      tag_417\n        /* \"#utility.yul\":12309:12316   */\n      dup7\n        /* \"#utility.yul\":12300:12306   */\n      dup3\n        /* \"#utility.yul\":12289:12298   */\n      dup8\n        /* \"#utility.yul\":12285:12307   */\n      add\n        /* \"#utility.yul\":12254:12317   */\n      tag_269\n      jump\t// in\n    tag_417:\n        /* \"#utility.yul\":12244:12317   */\n      swap3\n      pop\n        /* \"#utility.yul\":12039:12327   */\n      pop\n        /* \"#utility.yul\":12394:12396   */\n      0x40\n        /* \"#utility.yul\":12383:12392   */\n      dup5\n        /* \"#utility.yul\":12379:12397   */\n      add\n        /* \"#utility.yul\":12366:12398   */\n      calldataload\n        /* \"#utility.yul\":12425:12443   */\n      0xffffffffffffffff\n        /* \"#utility.yul\":12417:12423   */\n      dup2\n        /* \"#utility.yul\":12414:12444   */\n      gt\n        /* \"#utility.yul\":12411:12528   */\n      iszero\n      tag_418\n      jumpi\n        /* \"#utility.yul\":12447:12526   */\n      tag_419\n      tag_233\n      jump\t// in\n    tag_419:\n        /* \"#utility.yul\":12411:12528   */\n    tag_418:\n        /* \"#utility.yul\":12552:12615   */\n      tag_420\n        /* \"#utility.yul\":12607:12614   */\n      dup7\n        /* \"#utility.yul\":12598:12604   */\n      dup3\n        /* \"#utility.yul\":12587:12596   */\n      dup8\n        /* \"#utility.yul\":12583:12605   */\n      add\n        /* \"#utility.yul\":12552:12615   */\n      tag_269\n      jump\t// in\n    tag_420:\n        /* \"#utility.yul\":12542:12615   */\n      swap2\n      pop\n        /* \"#utility.yul\":12337:12625   */\n      pop\n        /* \"#utility.yul\":11473:12632   */\n      swap3\n      pop\n      swap3\n      pop\n      swap3\n      jump\t// out\n        /* \"#utility.yul\":12638:12860   */\n    tag_45:\n        /* \"#utility.yul\":12731:12735   */\n      0x00\n        /* \"#utility.yul\":12769:12771   */\n      0x20\n        /* \"#utility.yul\":12758:12767   */\n      dup3\n        /* \"#utility.yul\":12754:12772   */\n      add\n        /* \"#utility.yul\":12746:12772   */\n      swap1\n      pop\n        /* \"#utility.yul\":12782:12853   */\n      tag_422\n        /* \"#utility.yul\":12850:12851   */\n      0x00\n        /* \"#utility.yul\":12839:12848   */\n      dup4\n        /* \"#utility.yul\":12835:12852   */\n      add\n        /* \"#utility.yul\":12826:12832   */\n      dup5\n        /* \"#utility.yul\":12782:12853   */\n      tag_245\n      jump\t// in\n    tag_422:\n        /* \"#utility.yul\":12638:12860   */\n      swap3\n      swap2\n      pop\n      pop\n      jump\t// out\n        /* \"#utility.yul\":12866:13340   */\n    tag_48:\n        /* \"#utility.yul\":12934:12940   */\n      0x00\n        /* \"#utility.yul\":12942:12948   */\n      dup1\n        /* \"#utility.yul\":12991:12993   */\n      0x40\n        /* \"#utility.yul\":12979:12988   */\n      dup4\n        /* \"#utility.yul\":12970:12977   */\n      dup6\n        /* \"#utility.yul\":12966:12989   */\n      sub\n        /* \"#utility.yul\":12962:12994   */\n      slt\n        /* \"#utility.yul\":12959:13078   */\n      iszero\n      tag_424\n      jumpi\n        /* \"#utility.yul\":12997:13076   */\n      tag_425\n      tag_232\n      jump\t// in\n    tag_425:\n        /* \"#utility.yul\":12959:13078   */\n    tag_424:\n        /* \"#utility.yul\":13117:13118   */\n      0x00\n        /* \"#utility.yul\":13142:13195   */\n      tag_426\n        /* \"#utility.yul\":13187:13194   */\n      dup6\n        /* \"#utility.yul\":13178:13184   */\n      dup3\n        /* \"#utility.yul\":13167:13176   */\n      dup7\n        /* \"#utility.yul\":13163:13185   */\n      add\n        /* \"#utility.yul\":13142:13195   */\n      tag_247\n      jump\t// in\n    tag_426:\n        /* \"#utility.yul\":13132:13195   */\n      swap3\n      pop\n        /* \"#utility.yul\":13088:13205   */\n      pop\n        /* \"#utility.yul\":13244:13246   */\n      0x20\n        /* \"#utility.yul\":13270:13323   */\n      tag_427\n        /* \"#utility.yul\":13315:13322   */\n      dup6\n        /* \"#utility.yul\":13306:13312   */\n      dup3\n        /* \"#utility.yul\":13295:13304   */\n      dup7\n        /* \"#utility.yul\":13291:13313   */\n      add\n        /* \"#utility.yul\":13270:13323   */\n      tag_236\n      jump\t// in\n    tag_427:\n        /* \"#utility.yul\":13260:13323   */\n      swap2\n      pop\n        /* \"#utility.yul\":13215:13333   */\n      pop\n        /* \"#utility.yul\":12866:13340   */\n      swap3\n      pop\n      swap3\n      swap1\n      pop\n      jump\t// out\n        /* \"#utility.yul\":13346:13860   */\n    tag_59:\n        /* \"#utility.yul\":13507:13511   */\n      0x00\n        /* \"#utility.yul\":13545:13547   */\n      0x40\n        /* \"#utility.yul\":13534:13543   */\n      dup3\n        /* \"#utility.yul\":13530:13548   */\n      add\n        /* \"#utility.yul\":13522:13548   */\n      swap1\n      pop\n        /* \"#utility.yul\":13594:13603   */\n      dup2\n        /* \"#utility.yul\":13588:13592   */\n      dup2\n        /* \"#utility.yul\":13584:13604   */\n      sub\n        /* \"#utility.yul\":13580:13581   */\n      0x00\n        /* \"#utility.yul\":13569:13578   */\n      dup4\n        /* \"#utility.yul\":13565:13582   */\n      add\n        /* \"#utility.yul\":13558:13605   */\n      mstore\n        /* \"#utility.yul\":13622:13700   */\n      tag_429\n        /* \"#utility.yul\":13695:13699   */\n      dup2\n        /* \"#utility.yul\":13686:13692   */\n      dup6\n        /* \"#utility.yul\":13622:13700   */\n      tag_242\n      jump\t// in\n    tag_429:\n        /* \"#utility.yul\":13614:13700   */\n      swap1\n      pop\n        /* \"#utility.yul\":13747:13756   */\n      dup2\n        /* \"#utility.yul\":13741:13745   */\n      dup2\n        /* \"#utility.yul\":13737:13757   */\n      sub\n        /* \"#utility.yul\":13732:13734   */\n      0x20\n        /* \"#utility.yul\":13721:13730   */\n      dup4\n        /* \"#utility.yul\":13717:13735   */\n      add\n        /* \"#utility.yul\":13710:13758   */\n      mstore\n        /* \"#utility.yul\":13775:13853   */\n      tag_430\n        /* \"#utility.yul\":13848:13852   */\n      dup2\n        /* \"#utility.yul\":13839:13845   */\n      dup5\n        /* \"#utility.yul\":13775:13853   */\n      tag_242\n      jump\t// in\n    tag_430:\n        /* \"#utility.yul\":13767:13853   */\n      swap1\n      pop\n        /* \"#utility.yul\":13346:13860   */\n      swap4\n      swap3\n      pop\n      pop\n      pop\n      jump\t// out\n        /* \"#utility.yul\":13866:13983   */\n    tag_270:\n        /* \"#utility.yul\":13975:13976   */\n      0x00\n        /* \"#utility.yul\":13972:13973   */\n      dup1\n        /* \"#utility.yul\":13965:13977   */\n      revert\n        /* \"#utility.yul\":13989:14106   */\n    tag_271:\n        /* \"#utility.yul\":14098:14099   */\n      0x00\n        /* \"#utility.yul\":14095:14096   */\n      dup1\n        /* \"#utility.yul\":14088:14100   */\n      revert\n        /* \"#utility.yul\":14112:14546   */\n    tag_272:\n        /* \"#utility.yul\":14201:14206   */\n      0x00\n        /* \"#utility.yul\":14226:14292   */\n      tag_434\n        /* \"#utility.yul\":14242:14291   */\n      tag_435\n        /* \"#utility.yul\":14284:14290   */\n      dup5\n        /* \"#utility.yul\":14242:14291   */\n      tag_266\n      jump\t// in\n    tag_435:\n        /* \"#utility.yul\":14226:14292   */\n      tag_265\n      jump\t// in\n    tag_434:\n        /* \"#utility.yul\":14217:14292   */\n      swap1\n      pop\n        /* \"#utility.yul\":14315:14321   */\n      dup3\n        /* \"#utility.yul\":14308:14313   */\n      dup2\n        /* \"#utility.yul\":14301:14322   */\n      mstore\n        /* \"#utility.yul\":14353:14357   */\n      0x20\n        /* \"#utility.yul\":14346:14351   */\n      dup2\n        /* \"#utility.yul\":14342:14358   */\n      add\n        /* \"#utility.yul\":14391:14394   */\n      dup5\n        /* \"#utility.yul\":14382:14388   */\n      dup5\n        /* \"#utility.yul\":14377:14380   */\n      dup5\n        /* \"#utility.yul\":14373:14389   */\n      add\n        /* \"#utility.yul\":14370:14395   */\n      gt\n        /* \"#utility.yul\":14367:14479   */\n      iszero\n      tag_436\n      jumpi\n        /* \"#utility.yul\":14398:14477   */\n      tag_437\n      tag_262\n      jump\t// in\n    tag_437:\n        /* \"#utility.yul\":14367:14479   */\n    tag_436:\n        /* \"#utility.yul\":14488:14540   */\n      tag_438\n        /* \"#utility.yul\":14533:14539   */\n      dup5\n        /* \"#utility.yul\":14528:14531   */\n      dup3\n        /* \"#utility.yul\":14523:14526   */\n      dup6\n        /* \"#utility.yul\":14488:14540   */\n      tag_240\n      jump\t// in\n    tag_438:\n        /* \"#utility.yul\":14207:14546   */\n      pop\n        /* \"#utility.yul\":14112:14546   */\n      swap4\n      swap3\n      pop\n      pop\n      pop\n      jump\t// out\n        /* \"#utility.yul\":14566:14921   */\n    tag_273:\n        /* \"#utility.yul\":14633:14638   */\n      0x00\n        /* \"#utility.yul\":14682:14685   */\n      dup3\n        /* \"#utility.yul\":14675:14679   */\n      0x1f\n        /* \"#utility.yul\":14667:14673   */\n      dup4\n        /* \"#utility.yul\":14663:14680   */\n      add\n        /* \"#utility.yul\":14659:14686   */\n      slt\n        /* \"#utility.yul\":14649:14771   */\n      tag_440\n      jumpi\n        /* \"#utility.yul\":14690:14769   */\n      tag_441\n      tag_261\n      jump\t// in\n    tag_441:\n        /* \"#utility.yul\":14649:14771   */\n    tag_440:\n        /* \"#utility.yul\":14800:14806   */\n      dup2\n        /* \"#utility.yul\":14794:14807   */\n      mload\n        /* \"#utility.yul\":14825:14915   */\n      tag_442\n        /* \"#utility.yul\":14911:14914   */\n      dup5\n        /* \"#utility.yul\":14903:14909   */\n      dup3\n        /* \"#utility.yul\":14896:14900   */\n      0x20\n        /* \"#utility.yul\":14888:14894   */\n      dup7\n        /* \"#utility.yul\":14884:14901   */\n      add\n        /* \"#utility.yul\":14825:14915   */\n      tag_272\n      jump\t// in\n    tag_442:\n        /* \"#utility.yul\":14816:14915   */\n      swap2\n      pop\n        /* \"#utility.yul\":14639:14921   */\n      pop\n        /* \"#utility.yul\":14566:14921   */\n      swap3\n      swap2\n      pop\n      pop\n      jump\t// out\n        /* \"#utility.yul\":14927:15043   */\n    tag_274:\n        /* \"#utility.yul\":14997:15018   */\n      tag_444\n        /* \"#utility.yul\":15012:15017   */\n      dup2\n        /* \"#utility.yul\":14997:15018   */\n      tag_259\n      jump\t// in\n    tag_444:\n        /* \"#utility.yul\":14990:14995   */\n      dup2\n        /* \"#utility.yul\":14987:15019   */\n      eq\n        /* \"#utility.yul\":14977:15037   */\n      tag_445\n      jumpi\n        /* \"#utility.yul\":15033:15034   */\n      0x00\n        /* \"#utility.yul\":15030:15031   */\n      dup1\n        /* \"#utility.yul\":15023:15035   */\n      revert\n        /* \"#utility.yul\":14977:15037   */\n    tag_445:\n        /* \"#utility.yul\":14927:15043   */\n      pop\n      jump\t// out\n        /* \"#utility.yul\":15049:15186   */\n    tag_275:\n        /* \"#utility.yul\":15103:15108   */\n      0x00\n        /* \"#utility.yul\":15134:15140   */\n      dup2\n        /* \"#utility.yul\":15128:15141   */\n      mload\n        /* \"#utility.yul\":15119:15141   */\n      swap1\n      pop\n        /* \"#utility.yul\":15150:15180   */\n      tag_447\n        /* \"#utility.yul\":15174:15179   */\n      dup2\n        /* \"#utility.yul\":15150:15180   */\n      tag_274\n      jump\t// in\n    tag_447:\n        /* \"#utility.yul\":15049:15186   */\n      swap3\n      swap2\n      pop\n      pop\n      jump\t// out\n        /* \"#utility.yul\":15223:16335   */\n    tag_276:\n        /* \"#utility.yul\":15307:15312   */\n      0x00\n        /* \"#utility.yul\":15351:15355   */\n      0x60\n        /* \"#utility.yul\":15339:15348   */\n      dup3\n        /* \"#utility.yul\":15334:15337   */\n      dup5\n        /* \"#utility.yul\":15330:15349   */\n      sub\n        /* \"#utility.yul\":15326:15356   */\n      slt\n        /* \"#utility.yul\":15323:15440   */\n      iszero\n      tag_449\n      jumpi\n        /* \"#utility.yul\":15359:15438   */\n      tag_450\n      tag_270\n      jump\t// in\n    tag_450:\n        /* \"#utility.yul\":15323:15440   */\n    tag_449:\n        /* \"#utility.yul\":15458:15479   */\n      tag_451\n        /* \"#utility.yul\":15474:15478   */\n      0x60\n        /* \"#utility.yul\":15458:15479   */\n      tag_265\n      jump\t// in\n    tag_451:\n        /* \"#utility.yul\":15449:15479   */\n      swap1\n      pop\n        /* \"#utility.yul\":15563:15564   */\n      0x00\n        /* \"#utility.yul\":15552:15561   */\n      dup3\n        /* \"#utility.yul\":15548:15565   */\n      add\n        /* \"#utility.yul\":15542:15566   */\n      mload\n        /* \"#utility.yul\":15593:15611   */\n      0xffffffffffffffff\n        /* \"#utility.yul\":15585:15591   */\n      dup2\n        /* \"#utility.yul\":15582:15612   */\n      gt\n        /* \"#utility.yul\":15579:15696   */\n      iszero\n      tag_452\n      jumpi\n        /* \"#utility.yul\":15615:15694   */\n      tag_453\n      tag_271\n      jump\t// in\n    tag_453:\n        /* \"#utility.yul\":15579:15696   */\n    tag_452:\n        /* \"#utility.yul\":15735:15805   */\n      tag_454\n        /* \"#utility.yul\":15801:15804   */\n      dup5\n        /* \"#utility.yul\":15792:15798   */\n      dup3\n        /* \"#utility.yul\":15781:15790   */\n      dup6\n        /* \"#utility.yul\":15777:15799   */\n      add\n        /* \"#utility.yul\":15735:15805   */\n      tag_273\n      jump\t// in\n    tag_454:\n        /* \"#utility.yul\":15728:15732   */\n      0x00\n        /* \"#utility.yul\":15721:15726   */\n      dup4\n        /* \"#utility.yul\":15717:15733   */\n      add\n        /* \"#utility.yul\":15710:15806   */\n      mstore\n        /* \"#utility.yul\":15489:15817   */\n      pop\n        /* \"#utility.yul\":15896:15898   */\n      0x20\n        /* \"#utility.yul\":15885:15894   */\n      dup3\n        /* \"#utility.yul\":15881:15899   */\n      add\n        /* \"#utility.yul\":15875:15900   */\n      mload\n        /* \"#utility.yul\":15927:15945   */\n      0xffffffffffffffff\n        /* \"#utility.yul\":15919:15925   */\n      dup2\n        /* \"#utility.yul\":15916:15946   */\n      gt\n        /* \"#utility.yul\":15913:16030   */\n      iszero\n      tag_455\n      jumpi\n        /* \"#utility.yul\":15949:16028   */\n      tag_456\n      tag_271\n      jump\t// in\n    tag_456:\n        /* \"#utility.yul\":15913:16030   */\n    tag_455:\n        /* \"#utility.yul\":16069:16139   */\n      tag_457\n        /* \"#utility.yul\":16135:16138   */\n      dup5\n        /* \"#utility.yul\":16126:16132   */\n      dup3\n        /* \"#utility.yul\":16115:16124   */\n      dup6\n        /* \"#utility.yul\":16111:16133   */\n      add\n        /* \"#utility.yul\":16069:16139   */\n      tag_273\n      jump\t// in\n    tag_457:\n        /* \"#utility.yul\":16062:16066   */\n      0x20\n        /* \"#utility.yul\":16055:16060   */\n      dup4\n        /* \"#utility.yul\":16051:16067   */\n      add\n        /* \"#utility.yul\":16044:16140   */\n      mstore\n        /* \"#utility.yul\":15827:16151   */\n      pop\n        /* \"#utility.yul\":16218:16220   */\n      0x40\n        /* \"#utility.yul\":16259:16316   */\n      tag_458\n        /* \"#utility.yul\":16312:16315   */\n      dup5\n        /* \"#utility.yul\":16303:16309   */\n      dup3\n        /* \"#utility.yul\":16292:16301   */\n      dup6\n        /* \"#utility.yul\":16288:16310   */\n      add\n        /* \"#utility.yul\":16259:16316   */\n      tag_275\n      jump\t// in\n    tag_458:\n        /* \"#utility.yul\":16252:16256   */\n      0x40\n        /* \"#utility.yul\":16245:16250   */\n      dup4\n        /* \"#utility.yul\":16241:16257   */\n      add\n        /* \"#utility.yul\":16234:16317   */\n      mstore\n        /* \"#utility.yul\":16161:16328   */\n      pop\n        /* \"#utility.yul\":15223:16335   */\n      swap3\n      swap2\n      pop\n      pop\n      jump\t// out\n        /* \"#utility.yul\":16341:16893   */\n    tag_71:\n        /* \"#utility.yul\":16435:16441   */\n      0x00\n        /* \"#utility.yul\":16484:16486   */\n      0x20\n        /* \"#utility.yul\":16472:16481   */\n      dup3\n        /* \"#utility.yul\":16463:16470   */\n      dup5\n        /* \"#utility.yul\":16459:16482   */\n      sub\n        /* \"#utility.yul\":16455:16487   */\n      slt\n        /* \"#utility.yul\":16452:16571   */\n      iszero\n      tag_460\n      jumpi\n        /* \"#utility.yul\":16490:16569   */\n      tag_461\n      tag_232\n      jump\t// in\n    tag_461:\n        /* \"#utility.yul\":16452:16571   */\n    tag_460:\n        /* \"#utility.yul\":16631:16632   */\n      0x00\n        /* \"#utility.yul\":16620:16629   */\n      dup3\n        /* \"#utility.yul\":16616:16633   */\n      add\n        /* \"#utility.yul\":16610:16634   */\n      mload\n        /* \"#utility.yul\":16661:16679   */\n      0xffffffffffffffff\n        /* \"#utility.yul\":16653:16659   */\n      dup2\n        /* \"#utility.yul\":16650:16680   */\n      gt\n        /* \"#utility.yul\":16647:16764   */\n      iszero\n      tag_462\n      jumpi\n        /* \"#utility.yul\":16683:16762   */\n      tag_463\n      tag_233\n      jump\t// in\n    tag_463:\n        /* \"#utility.yul\":16647:16764   */\n    tag_462:\n        /* \"#utility.yul\":16788:16876   */\n      tag_464\n        /* \"#utility.yul\":16868:16875   */\n      dup5\n        /* \"#utility.yul\":16859:16865   */\n      dup3\n        /* \"#utility.yul\":16848:16857   */\n      dup6\n        /* \"#utility.yul\":16844:16866   */\n      add\n        /* \"#utility.yul\":16788:16876   */\n      tag_276\n      jump\t// in\n    tag_464:\n        /* \"#utility.yul\":16778:16876   */\n      swap2\n      pop\n        /* \"#utility.yul\":16581:16886   */\n      pop\n        /* \"#utility.yul\":16341:16893   */\n      swap3\n      swap2\n      pop\n      pop\n      jump\t// out\n        /* \"#utility.yul\":16899:17070   */\n    tag_277:\n        /* \"#utility.yul\":17039:17062   */\n      0x596f75206861766520746f205265676973746572640000000000000000000000\n        /* \"#utility.yul\":17035:17036   */\n      0x00\n        /* \"#utility.yul\":17027:17033   */\n      dup3\n        /* \"#utility.yul\":17023:17037   */\n      add\n        /* \"#utility.yul\":17016:17063   */\n      mstore\n        /* \"#utility.yul\":16899:17070   */\n      pop\n      jump\t// out\n        /* \"#utility.yul\":17076:17442   */\n    tag_278:\n        /* \"#utility.yul\":17218:17221   */\n      0x00\n        /* \"#utility.yul\":17239:17306   */\n      tag_467\n        /* \"#utility.yul\":17303:17305   */\n      0x15\n        /* \"#utility.yul\":17298:17301   */\n      dup4\n        /* \"#utility.yul\":17239:17306   */\n      tag_239\n      jump\t// in\n    tag_467:\n        /* \"#utility.yul\":17232:17306   */\n      swap2\n      pop\n        /* \"#utility.yul\":17315:17408   */\n      tag_468\n        /* \"#utility.yul\":17404:17407   */\n      dup3\n        /* \"#utility.yul\":17315:17408   */\n      tag_277\n      jump\t// in\n    tag_468:\n        /* \"#utility.yul\":17433:17435   */\n      0x20\n        /* \"#utility.yul\":17428:17431   */\n      dup3\n        /* \"#utility.yul\":17424:17436   */\n      add\n        /* \"#utility.yul\":17417:17436   */\n      swap1\n      pop\n        /* \"#utility.yul\":17076:17442   */\n      swap2\n      swap1\n      pop\n      jump\t// out\n        /* \"#utility.yul\":17448:17867   */\n    tag_74:\n        /* \"#utility.yul\":17614:17618   */\n      0x00\n        /* \"#utility.yul\":17652:17654   */\n      0x20\n        /* \"#utility.yul\":17641:17650   */\n      dup3\n        /* \"#utility.yul\":17637:17655   */\n      add\n        /* \"#utility.yul\":17629:17655   */\n      swap1\n      pop\n        /* \"#utility.yul\":17701:17710   */\n      dup2\n        /* \"#utility.yul\":17695:17699   */\n      dup2\n        /* \"#utility.yul\":17691:17711   */\n      sub\n        /* \"#utility.yul\":17687:17688   */\n      0x00\n        /* \"#utility.yul\":17676:17685   */\n      dup4\n        /* \"#utility.yul\":17672:17689   */\n      add\n        /* \"#utility.yul\":17665:17712   */\n      mstore\n        /* \"#utility.yul\":17729:17860   */\n      tag_470\n        /* \"#utility.yul\":17855:17859   */\n      dup2\n        /* \"#utility.yul\":17729:17860   */\n      tag_278\n      jump\t// in\n    tag_470:\n        /* \"#utility.yul\":17721:17860   */\n      swap1\n      pop\n        /* \"#utility.yul\":17448:17867   */\n      swap2\n      swap1\n      pop\n      jump\t// out\n        /* \"#utility.yul\":17873:18045   */\n    tag_279:\n        /* \"#utility.yul\":18013:18037   */\n      0x596f752061726520616c726561647920566f7465642100000000000000000000\n        /* \"#utility.yul\":18009:18010   */\n      0x00\n        /* \"#utility.yul\":18001:18007   */\n      dup3\n        /* \"#utility.yul\":17997:18011   */\n      add\n        /* \"#utility.yul\":17990:18038   */\n      mstore\n        /* \"#utility.yul\":17873:18045   */\n      pop\n      jump\t// out\n        /* \"#utility.yul\":18051:18417   */\n    tag_280:\n        /* \"#utility.yul\":18193:18196   */\n      0x00\n        /* \"#utility.yul\":18214:18281   */\n      tag_473\n        /* \"#utility.yul\":18278:18280   */\n      0x16\n        /* \"#utility.yul\":18273:18276   */\n      dup4\n        /* \"#utility.yul\":18214:18281   */\n      tag_239\n      jump\t// in\n    tag_473:\n        /* \"#utility.yul\":18207:18281   */\n      swap2\n      pop\n        /* \"#utility.yul\":18290:18383   */\n      tag_474\n        /* \"#utility.yul\":18379:18382   */\n      dup3\n        /* \"#utility.yul\":18290:18383   */\n      tag_279\n      jump\t// in\n    tag_474:\n        /* \"#utility.yul\":18408:18410   */\n      0x20\n        /* \"#utility.yul\":18403:18406   */\n      dup3\n        /* \"#utility.yul\":18399:18411   */\n      add\n        /* \"#utility.yul\":18392:18411   */\n      swap1\n      pop\n        /* \"#utility.yul\":18051:18417   */\n      swap2\n      swap1\n      pop\n      jump\t// out\n        /* \"#utility.yul\":18423:18842   */\n    tag_78:\n        /* \"#utility.yul\":18589:18593   */\n      0x00\n        /* \"#utility.yul\":18627:18629   */\n      0x20\n        /* \"#utility.yul\":18616:18625   */\n      dup3\n        /* \"#utility.yul\":18612:18630   */\n      add\n        /* \"#utility.yul\":18604:18630   */\n      swap1\n      pop\n        /* \"#utility.yul\":18676:18685   */\n      dup2\n        /* \"#utility.yul\":18670:18674   */\n      dup2\n        /* \"#utility.yul\":18666:18686   */\n      sub\n        /* \"#utility.yul\":18662:18663   */\n      0x00\n        /* \"#utility.yul\":18651:18660   */\n      dup4\n        /* \"#utility.yul\":18647:18664   */\n      add\n        /* \"#utility.yul\":18640:18687   */\n      mstore\n        /* \"#utility.yul\":18704:18835   */\n      tag_476\n        /* \"#utility.yul\":18830:18834   */\n      dup2\n        /* \"#utility.yul\":18704:18835   */\n      tag_280\n      jump\t// in\n    tag_476:\n        /* \"#utility.yul\":18696:18835   */\n      swap1\n      pop\n        /* \"#utility.yul\":18423:18842   */\n      swap2\n      swap1\n      pop\n      jump\t// out\n        /* \"#utility.yul\":18848:19028   */\n    tag_281:\n        /* \"#utility.yul\":18896:18973   */\n      0x4e487b7100000000000000000000000000000000000000000000000000000000\n        /* \"#utility.yul\":18893:18894   */\n      0x00\n        /* \"#utility.yul\":18886:18974   */\n      mstore\n        /* \"#utility.yul\":18993:18997   */\n      0x11\n        /* \"#utility.yul\":18990:18991   */\n      0x04\n        /* \"#utility.yul\":18983:18998   */\n      mstore\n        /* \"#utility.yul\":19017:19021   */\n      0x24\n        /* \"#utility.yul\":19014:19015   */\n      0x00\n        /* \"#utility.yul\":19007:19022   */\n      revert\n        /* \"#utility.yul\":19034:19225   */\n    tag_81:\n        /* \"#utility.yul\":19074:19077   */\n      0x00\n        /* \"#utility.yul\":19093:19113   */\n      tag_479\n        /* \"#utility.yul\":19111:19112   */\n      dup3\n        /* \"#utility.yul\":19093:19113   */\n      tag_234\n      jump\t// in\n    tag_479:\n        /* \"#utility.yul\":19088:19113   */\n      swap2\n      pop\n        /* \"#utility.yul\":19127:19147   */\n      tag_480\n        /* \"#utility.yul\":19145:19146   */\n      dup4\n        /* \"#utility.yul\":19127:19147   */\n      tag_234\n      jump\t// in\n    tag_480:\n        /* \"#utility.yul\":19122:19147   */\n      swap3\n      pop\n        /* \"#utility.yul\":19170:19171   */\n      dup3\n        /* \"#utility.yul\":19167:19168   */\n      dup3\n        /* \"#utility.yul\":19163:19172   */\n      add\n        /* \"#utility.yul\":19156:19172   */\n      swap1\n      pop\n        /* \"#utility.yul\":19191:19194   */\n      dup1\n        /* \"#utility.yul\":19188:19189   */\n      dup3\n        /* \"#utility.yul\":19185:19195   */\n      gt\n        /* \"#utility.yul\":19182:19218   */\n      iszero\n      tag_481\n      jumpi\n        /* \"#utility.yul\":19198:19216   */\n      tag_482\n      tag_281\n      jump\t// in\n    tag_482:\n        /* \"#utility.yul\":19182:19218   */\n    tag_481:\n        /* \"#utility.yul\":19034:19225   */\n      swap3\n      swap2\n      pop\n      pop\n      jump\t// out\n        /* \"#utility.yul\":19231:19411   */\n    tag_282:\n        /* \"#utility.yul\":19279:19356   */\n      0x4e487b7100000000000000000000000000000000000000000000000000000000\n        /* \"#utility.yul\":19276:19277   */\n      0x00\n        /* \"#utility.yul\":19269:19357   */\n      mstore\n        /* \"#utility.yul\":19376:19380   */\n      0x22\n        /* \"#utility.yul\":19373:19374   */\n      0x04\n        /* \"#utility.yul\":19366:19381   */\n      mstore\n        /* \"#utility.yul\":19400:19404   */\n      0x24\n        /* \"#utility.yul\":19397:19398   */\n      0x00\n        /* \"#utility.yul\":19390:19405   */\n      revert\n        /* \"#utility.yul\":19417:19737   */\n    tag_83:\n        /* \"#utility.yul\":19461:19467   */\n      0x00\n        /* \"#utility.yul\":19498:19499   */\n      0x02\n        /* \"#utility.yul\":19492:19496   */\n      dup3\n        /* \"#utility.yul\":19488:19500   */\n      div\n        /* \"#utility.yul\":19478:19500   */\n      swap1\n      pop\n        /* \"#utility.yul\":19545:19546   */\n      0x01\n        /* \"#utility.yul\":19539:19543   */\n      dup3\n        /* \"#utility.yul\":19535:19547   */\n      and\n        /* \"#utility.yul\":19566:19584   */\n      dup1\n        /* \"#utility.yul\":19556:19637   */\n      tag_485\n      jumpi\n        /* \"#utility.yul\":19622:19626   */\n      0x7f\n        /* \"#utility.yul\":19614:19620   */\n      dup3\n        /* \"#utility.yul\":19610:19627   */\n      and\n        /* \"#utility.yul\":19600:19627   */\n      swap2\n      pop\n        /* \"#utility.yul\":19556:19637   */\n    tag_485:\n        /* \"#utility.yul\":19684:19686   */\n      0x20\n        /* \"#utility.yul\":19676:19682   */\n      dup3\n        /* \"#utility.yul\":19673:19687   */\n      lt\n        /* \"#utility.yul\":19653:19671   */\n      dup2\n        /* \"#utility.yul\":19650:19688   */\n      sub\n        /* \"#utility.yul\":19647:19731   */\n      tag_486\n      jumpi\n        /* \"#utility.yul\":19703:19721   */\n      tag_487\n      tag_282\n      jump\t// in\n    tag_487:\n        /* \"#utility.yul\":19647:19731   */\n    tag_486:\n        /* \"#utility.yul\":19468:19737   */\n      pop\n        /* \"#utility.yul\":19417:19737   */\n      swap2\n      swap1\n      pop\n      jump\t// out\n        /* \"#utility.yul\":19743:19884   */\n    tag_283:\n        /* \"#utility.yul\":19792:19796   */\n      0x00\n        /* \"#utility.yul\":19815:19818   */\n      dup2\n        /* \"#utility.yul\":19807:19818   */\n      swap1\n      pop\n        /* \"#utility.yul\":19838:19841   */\n      dup2\n        /* \"#utility.yul\":19835:19836   */\n      0x00\n        /* \"#utility.yul\":19828:19842   */\n      mstore\n        /* \"#utility.yul\":19872:19876   */\n      0x20\n        /* \"#utility.yul\":19869:19870   */\n      0x00\n        /* \"#utility.yul\":19859:19877   */\n      keccak256\n        /* \"#utility.yul\":19851:19877   */\n      swap1\n      pop\n        /* \"#utility.yul\":19743:19884   */\n      swap2\n      swap1\n      pop\n      jump\t// out\n        /* \"#utility.yul\":19890:19983   */\n    tag_284:\n        /* \"#utility.yul\":19927:19933   */\n      0x00\n        /* \"#utility.yul\":19974:19976   */\n      0x20\n        /* \"#utility.yul\":19969:19971   */\n      0x1f\n        /* \"#utility.yul\":19962:19967   */\n      dup4\n        /* \"#utility.yul\":19958:19972   */\n      add\n        /* \"#utility.yul\":19954:19977   */\n      div\n        /* \"#utility.yul\":19944:19977   */\n      swap1\n      pop\n        /* \"#utility.yul\":19890:19983   */\n      swap2\n      swap1\n      pop\n      jump\t// out\n        /* \"#utility.yul\":19989:20096   */\n    tag_285:\n        /* \"#utility.yul\":20033:20041   */\n      0x00\n        /* \"#utility.yul\":20083:20088   */\n      dup3\n        /* \"#utility.yul\":20077:20081   */\n      dup3\n        /* \"#utility.yul\":20073:20089   */\n      shl\n        /* \"#utility.yul\":20052:20089   */\n      swap1\n      pop\n        /* \"#utility.yul\":19989:20096   */\n      swap3\n      swap2\n      pop\n      pop\n      jump\t// out\n        /* \"#utility.yul\":20102:20495   */\n    tag_286:\n        /* \"#utility.yul\":20171:20177   */\n      0x00\n        /* \"#utility.yul\":20221:20222   */\n      0x08\n        /* \"#utility.yul\":20209:20219   */\n      dup4\n        /* \"#utility.yul\":20205:20223   */\n      mul\n        /* \"#utility.yul\":20244:20341   */\n      tag_492\n        /* \"#utility.yul\":20274:20340   */\n      0xffffffffffffffffffffffffffffffffffffffffffffffffffffffffffffffff\n        /* \"#utility.yul\":20263:20272   */\n      dup3\n        /* \"#utility.yul\":20244:20341   */\n      tag_285\n      jump\t// in\n    tag_492:\n        /* \"#utility.yul\":20362:20401   */\n      tag_493\n        /* \"#utility.yul\":20392:20400   */\n      dup7\n        /* \"#utility.yul\":20381:20390   */\n      dup4\n        /* \"#utility.yul\":20362:20401   */\n      tag_285\n      jump\t// in\n    tag_493:\n        /* \"#utility.yul\":20350:20401   */\n      swap6\n      pop\n        /* \"#utility.yul\":20434:20438   */\n      dup1\n        /* \"#utility.yul\":20430:20439   */\n      not\n        /* \"#utility.yul\":20423:20428   */\n      dup5\n        /* \"#utility.yul\":20419:20440   */\n      and\n        /* \"#utility.yul\":20410:20440   */\n      swap4\n      pop\n        /* \"#utility.yul\":20483:20487   */\n      dup1\n        /* \"#utility.yul\":20473:20481   */\n      dup7\n        /* \"#utility.yul\":20469:20488   */\n      and\n        /* \"#utility.yul\":20462:20467   */\n      dup5\n        /* \"#utility.yul\":20459:20489   */\n      or\n        /* \"#utility.yul\":20449:20489   */\n      swap3\n      pop\n        /* \"#utility.yul\":20178:20495   */\n      pop\n      pop\n        /* \"#utility.yul\":20102:20495   */\n      swap4\n      swap3\n      pop\n      pop\n      pop\n      jump\t// out\n        /* \"#utility.yul\":20501:20561   */\n    tag_287:\n        /* \"#utility.yul\":20529:20532   */\n      0x00\n        /* \"#utility.yul\":20550:20555   */\n      dup2\n        /* \"#utility.yul\":20543:20555   */\n      swap1\n      pop\n        /* \"#utility.yul\":20501:20561   */\n      swap2\n      swap1\n      pop\n      jump\t// out\n        /* \"#utility.yul\":20567:20709   */\n    tag_288:\n        /* \"#utility.yul\":20617:20626   */\n      0x00\n        /* \"#utility.yul\":20650:20703   */\n      tag_496\n        /* \"#utility.yul\":20668:20702   */\n      tag_497\n        /* \"#utility.yul\":20677:20701   */\n      tag_498\n        /* \"#utility.yul\":20695:20700   */\n      dup5\n        /* \"#utility.yul\":20677:20701   */\n      tag_234\n      jump\t// in\n    tag_498:\n        /* \"#utility.yul\":20668:20702   */\n      tag_287\n      jump\t// in\n    tag_497:\n        /* \"#utility.yul\":20650:20703   */\n      tag_234\n      jump\t// in\n    tag_496:\n        /* \"#utility.yul\":20637:20703   */\n      swap1\n      pop\n        /* \"#utility.yul\":20567:20709   */\n      swap2\n      swap1\n      pop\n      jump\t// out\n        /* \"#utility.yul\":20715:20790   */\n    tag_289:\n        /* \"#utility.yul\":20758:20761   */\n      0x00\n        /* \"#utility.yul\":20779:20784   */\n      dup2\n        /* \"#utility.yul\":20772:20784   */\n      swap1\n      pop\n        /* \"#utility.yul\":20715:20790   */\n      swap2\n      swap1\n      pop\n      jump\t// out\n        /* \"#utility.yul\":20796:21065   */\n    tag_290:\n        /* \"#utility.yul\":20906:20945   */\n      tag_501\n        /* \"#utility.yul\":20937:20944   */\n      dup4\n        /* \"#utility.yul\":20906:20945   */\n      tag_288\n      jump\t// in\n    tag_501:\n        /* \"#utility.yul\":20967:21058   */\n      tag_502\n        /* \"#utility.yul\":21016:21057   */\n      tag_503\n        /* \"#utility.yul\":21040:21056   */\n      dup3\n        /* \"#utility.yul\":21016:21057   */\n      tag_289\n      jump\t// in\n    tag_503:\n        /* \"#utility.yul\":21008:21014   */\n      dup5\n        /* \"#utility.yul\":21001:21005   */\n      dup5\n        /* \"#utility.yul\":20995:21006   */\n      sload\n        /* \"#utility.yul\":20967:21058   */\n      tag_286\n      jump\t// in\n    tag_502:\n        /* \"#utility.yul\":20961:20965   */\n      dup3\n        /* \"#utility.yul\":20954:21059   */\n      sstore\n        /* \"#utility.yul\":20872:21065   */\n      pop\n        /* \"#utility.yul\":20796:21065   */\n      pop\n      pop\n      pop\n      jump\t// out\n        /* \"#utility.yul\":21071:21144   */\n    tag_291:\n        /* \"#utility.yul\":21116:21119   */\n      0x00\n        /* \"#utility.yul\":21071:21144   */\n      swap1\n      jump\t// out\n        /* \"#utility.yul\":21150:21339   */\n    tag_292:\n        /* \"#utility.yul\":21227:21259   */\n      tag_506\n      tag_291\n      jump\t// in\n    tag_506:\n        /* \"#utility.yul\":21268:21333   */\n      tag_507\n        /* \"#utility.yul\":21326:21332   */\n      dup2\n        /* \"#utility.yul\":21318:21324   */\n      dup5\n        /* \"#utility.yul\":21312:21316   */\n      dup5\n        /* \"#utility.yul\":21268:21333   */\n      tag_290\n      jump\t// in\n    tag_507:\n        /* \"#utility.yul\":21203:21339   */\n      pop\n        /* \"#utility.yul\":21150:21339   */\n      pop\n      pop\n      jump\t// out\n        /* \"#utility.yul\":21345:21531   */\n    tag_293:\n        /* \"#utility.yul\":21405:21525   */\n    tag_509:\n        /* \"#utility.yul\":21422:21425   */\n      dup2\n        /* \"#utility.yul\":21415:21420   */\n      dup2\n        /* \"#utility.yul\":21412:21426   */\n      lt\n        /* \"#utility.yul\":21405:21525   */\n      iszero\n      tag_511\n      jumpi\n        /* \"#utility.yul\":21476:21515   */\n      tag_512\n        /* \"#utility.yul\":21513:21514   */\n      0x00\n        /* \"#utility.yul\":21506:21511   */\n      dup3\n        /* \"#utility.yul\":21476:21515   */\n      tag_292\n      jump\t// in\n    tag_512:\n        /* \"#utility.yul\":21449:21450   */\n      0x01\n        /* \"#utility.yul\":21442:21447   */\n      dup2\n        /* \"#utility.yul\":21438:21451   */\n      add\n        /* \"#utility.yul\":21429:21451   */\n      swap1\n      pop\n        /* \"#utility.yul\":21405:21525   */\n      jump(tag_509)\n    tag_511:\n        /* \"#utility.yul\":21345:21531   */\n      pop\n      pop\n      jump\t// out\n        /* \"#utility.yul\":21537:22080   */\n    tag_294:\n        /* \"#utility.yul\":21638:21640   */\n      0x1f\n        /* \"#utility.yul\":21633:21636   */\n      dup3\n        /* \"#utility.yul\":21630:21641   */\n      gt\n        /* \"#utility.yul\":21627:22073   */\n      iszero\n      tag_514\n      jumpi\n        /* \"#utility.yul\":21672:21710   */\n      tag_515\n        /* \"#utility.yul\":21704:21709   */\n      dup2\n        /* \"#utility.yul\":21672:21710   */\n      tag_283\n      jump\t// in\n    tag_515:\n        /* \"#utility.yul\":21756:21785   */\n      tag_516\n        /* \"#utility.yul\":21774:21784   */\n      dup5\n        /* \"#utility.yul\":21756:21785   */\n      tag_284\n      jump\t// in\n    tag_516:\n        /* \"#utility.yul\":21746:21754   */\n      dup2\n        /* \"#utility.yul\":21742:21786   */\n      add\n        /* \"#utility.yul\":21939:21941   */\n      0x20\n        /* \"#utility.yul\":21927:21937   */\n      dup6\n        /* \"#utility.yul\":21924:21942   */\n      lt\n        /* \"#utility.yul\":21921:21970   */\n      iszero\n      tag_517\n      jumpi\n        /* \"#utility.yul\":21960:21968   */\n      dup2\n        /* \"#utility.yul\":21945:21968   */\n      swap1\n      pop\n        /* \"#utility.yul\":21921:21970   */\n    tag_517:\n        /* \"#utility.yul\":21983:22063   */\n      tag_518\n        /* \"#utility.yul\":22039:22061   */\n      tag_519\n        /* \"#utility.yul\":22057:22060   */\n      dup6\n        /* \"#utility.yul\":22039:22061   */\n      tag_284\n      jump\t// in\n    tag_519:\n        /* \"#utility.yul\":22029:22037   */\n      dup4\n        /* \"#utility.yul\":22025:22062   */\n      add\n        /* \"#utility.yul\":22012:22023   */\n      dup3\n        /* \"#utility.yul\":21983:22063   */\n      tag_293\n      jump\t// in\n    tag_518:\n        /* \"#utility.yul\":21642:22073   */\n      pop\n      pop\n        /* \"#utility.yul\":21627:22073   */\n    tag_514:\n        /* \"#utility.yul\":21537:22080   */\n      pop\n      pop\n      pop\n      jump\t// out\n        /* \"#utility.yul\":22086:22203   */\n    tag_295:\n        /* \"#utility.yul\":22140:22148   */\n      0x00\n        /* \"#utility.yul\":22190:22195   */\n      dup3\n        /* \"#utility.yul\":22184:22188   */\n      dup3\n        /* \"#utility.yul\":22180:22196   */\n      shr\n        /* \"#utility.yul\":22159:22196   */\n      swap1\n      pop\n        /* \"#utility.yul\":22086:22203   */\n      swap3\n      swap2\n      pop\n      pop\n      jump\t// out\n        /* \"#utility.yul\":22209:22378   */\n    tag_296:\n        /* \"#utility.yul\":22253:22259   */\n      0x00\n        /* \"#utility.yul\":22286:22337   */\n      tag_522\n        /* \"#utility.yul\":22334:22335   */\n      0x00\n        /* \"#utility.yul\":22330:22336   */\n      not\n        /* \"#utility.yul\":22322:22327   */\n      dup5\n        /* \"#utility.yul\":22319:22320   */\n      0x08\n        /* \"#utility.yul\":22315:22328   */\n      mul\n        /* \"#utility.yul\":22286:22337   */\n      tag_295\n      jump\t// in\n    tag_522:\n        /* \"#utility.yul\":22282:22338   */\n      not\n        /* \"#utility.yul\":22367:22371   */\n      dup1\n        /* \"#utility.yul\":22361:22365   */\n      dup4\n        /* \"#utility.yul\":22357:22372   */\n      and\n        /* \"#utility.yul\":22347:22372   */\n      swap2\n      pop\n        /* \"#utility.yul\":22260:22378   */\n      pop\n        /* \"#utility.yul\":22209:22378   */\n      swap3\n      swap2\n      pop\n      pop\n      jump\t// out\n        /* \"#utility.yul\":22383:22678   */\n    tag_297:\n        /* \"#utility.yul\":22459:22463   */\n      0x00\n        /* \"#utility.yul\":22605:22634   */\n      tag_524\n        /* \"#utility.yul\":22630:22633   */\n      dup4\n        /* \"#utility.yul\":22624:22628   */\n      dup4\n        /* \"#utility.yul\":22605:22634   */\n      tag_296\n      jump\t// in\n    tag_524:\n        /* \"#utility.yul\":22597:22634   */\n      swap2\n      pop\n        /* \"#utility.yul\":22667:22670   */\n      dup3\n        /* \"#utility.yul\":22664:22665   */\n      0x02\n        /* \"#utility.yul\":22660:22671   */\n      mul\n        /* \"#utility.yul\":22654:22658   */\n      dup3\n        /* \"#utility.yul\":22651:22672   */\n      or\n        /* \"#utility.yul\":22643:22672   */\n      swap1\n      pop\n        /* \"#utility.yul\":22383:22678   */\n      swap3\n      swap2\n      pop\n      pop\n      jump\t// out\n        /* \"#utility.yul\":22683:24078   */\n    tag_126:\n        /* \"#utility.yul\":22800:22837   */\n      tag_526\n        /* \"#utility.yul\":22833:22836   */\n      dup3\n        /* \"#utility.yul\":22800:22837   */\n      tag_238\n      jump\t// in\n    tag_526:\n        /* \"#utility.yul\":22902:22920   */\n      0xffffffffffffffff\n        /* \"#utility.yul\":22894:22900   */\n      dup2\n        /* \"#utility.yul\":22891:22921   */\n      gt\n        /* \"#utility.yul\":22888:22944   */\n      iszero\n      tag_527\n      jumpi\n        /* \"#utility.yul\":22924:22942   */\n      tag_528\n      tag_263\n      jump\t// in\n    tag_528:\n        /* \"#utility.yul\":22888:22944   */\n    tag_527:\n        /* \"#utility.yul\":22968:23006   */\n      tag_529\n        /* \"#utility.yul\":23000:23004   */\n      dup3\n        /* \"#utility.yul\":22994:23005   */\n      sload\n        /* \"#utility.yul\":22968:23006   */\n      tag_83\n      jump\t// in\n    tag_529:\n        /* \"#utility.yul\":23053:23120   */\n      tag_530\n        /* \"#utility.yul\":23113:23119   */\n      dup3\n        /* \"#utility.yul\":23105:23111   */\n      dup3\n        /* \"#utility.yul\":23099:23103   */\n      dup6\n        /* \"#utility.yul\":23053:23120   */\n      tag_294\n      jump\t// in\n    tag_530:\n        /* \"#utility.yul\":23147:23148   */\n      0x00\n        /* \"#utility.yul\":23171:23175   */\n      0x20\n        /* \"#utility.yul\":23158:23175   */\n      swap1\n      pop\n        /* \"#utility.yul\":23203:23205   */\n      0x1f\n        /* \"#utility.yul\":23195:23201   */\n      dup4\n        /* \"#utility.yul\":23192:23206   */\n      gt\n        /* \"#utility.yul\":23220:23221   */\n      0x01\n        /* \"#utility.yul\":23215:23833   */\n      dup2\n      eq\n      tag_532\n      jumpi\n        /* \"#utility.yul\":23877:23878   */\n      0x00\n        /* \"#utility.yul\":23894:23900   */\n      dup5\n        /* \"#utility.yul\":23891:23968   */\n      iszero\n      tag_533\n      jumpi\n        /* \"#utility.yul\":23943:23952   */\n      dup3\n        /* \"#utility.yul\":23938:23941   */\n      dup8\n        /* \"#utility.yul\":23934:23953   */\n      add\n        /* \"#utility.yul\":23928:23954   */\n      mload\n        /* \"#utility.yul\":23919:23954   */\n      swap1\n      pop\n        /* \"#utility.yul\":23891:23968   */\n    tag_533:\n        /* \"#utility.yul\":23994:24061   */\n      tag_534\n        /* \"#utility.yul\":24054:24060   */\n      dup6\n        /* \"#utility.yul\":24047:24052   */\n      dup3\n        /* \"#utility.yul\":23994:24061   */\n      tag_297\n      jump\t// in\n    tag_534:\n        /* \"#utility.yul\":23988:23992   */\n      dup7\n        /* \"#utility.yul\":23981:24062   */\n      sstore\n        /* \"#utility.yul\":23850:24072   */\n      pop\n        /* \"#utility.yul\":23185:24072   */\n      jump(tag_531)\n        /* \"#utility.yul\":23215:23833   */\n    tag_532:\n        /* \"#utility.yul\":23267:23271   */\n      0x1f\n        /* \"#utility.yul\":23263:23272   */\n      not\n        /* \"#utility.yul\":23255:23261   */\n      dup5\n        /* \"#utility.yul\":23251:23273   */\n      and\n        /* \"#utility.yul\":23301:23338   */\n      tag_535\n        /* \"#utility.yul\":23333:23337   */\n      dup7\n        /* \"#utility.yul\":23301:23338   */\n      tag_283\n      jump\t// in\n    tag_535:\n        /* \"#utility.yul\":23360:23361   */\n      0x00\n        /* \"#utility.yul\":23374:23582   */\n    tag_536:\n        /* \"#utility.yul\":23388:23395   */\n      dup3\n        /* \"#utility.yul\":23385:23386   */\n      dup2\n        /* \"#utility.yul\":23382:23396   */\n      lt\n        /* \"#utility.yul\":23374:23582   */\n      iszero\n      tag_538\n      jumpi\n        /* \"#utility.yul\":23467:23476   */\n      dup5\n        /* \"#utility.yul\":23462:23465   */\n      dup10\n        /* \"#utility.yul\":23458:23477   */\n      add\n        /* \"#utility.yul\":23452:23478   */\n      mload\n        /* \"#utility.yul\":23444:23450   */\n      dup3\n        /* \"#utility.yul\":23437:23479   */\n      sstore\n        /* \"#utility.yul\":23518:23519   */\n      0x01\n        /* \"#utility.yul\":23510:23516   */\n      dup3\n        /* \"#utility.yul\":23506:23520   */\n      add\n        /* \"#utility.yul\":23496:23520   */\n      swap2\n      pop\n        /* \"#utility.yul\":23565:23567   */\n      0x20\n        /* \"#utility.yul\":23554:23563   */\n      dup6\n        /* \"#utility.yul\":23550:23568   */\n      add\n        /* \"#utility.yul\":23537:23568   */\n      swap5\n      pop\n        /* \"#utility.yul\":23411:23415   */\n      0x20\n        /* \"#utility.yul\":23408:23409   */\n      dup2\n        /* \"#utility.yul\":23404:23416   */\n      add\n        /* \"#utility.yul\":23399:23416   */\n      swap1\n      pop\n        /* \"#utility.yul\":23374:23582   */\n      jump(tag_536)\n    tag_538:\n        /* \"#utility.yul\":23610:23616   */\n      dup7\n        /* \"#utility.yul\":23601:23608   */\n      dup4\n        /* \"#utility.yul\":23598:23617   */\n      lt\n        /* \"#utility.yul\":23595:23774   */\n      iszero\n      tag_539\n      jumpi\n        /* \"#utility.yul\":23668:23677   */\n      dup5\n        /* \"#utility.yul\":23663:23666   */\n      dup10\n        /* \"#utility.yul\":23659:23678   */\n      add\n        /* \"#utility.yul\":23653:23679   */\n      mload\n        /* \"#utility.yul\":23711:23759   */\n      tag_540\n        /* \"#utility.yul\":23753:23757   */\n      0x1f\n        /* \"#utility.yul\":23745:23751   */\n      dup10\n        /* \"#utility.yul\":23741:23758   */\n      and\n        /* \"#utility.yul\":23730:23739   */\n      dup3\n        /* \"#utility.yul\":23711:23759   */\n      tag_296\n      jump\t// in\n    tag_540:\n        /* \"#utility.yul\":23703:23709   */\n      dup4\n        /* \"#utility.yul\":23696:23760   */\n      sstore\n        /* \"#utility.yul\":23618:23774   */\n      pop\n        /* \"#utility.yul\":23595:23774   */\n    tag_539:\n        /* \"#utility.yul\":23820:23821   */\n      0x01\n        /* \"#utility.yul\":23816:23817   */\n      0x02\n        /* \"#utility.yul\":23808:23814   */\n      dup9\n        /* \"#utility.yul\":23804:23818   */\n      mul\n        /* \"#utility.yul\":23800:23822   */\n      add\n        /* \"#utility.yul\":23794:23798   */\n      dup9\n        /* \"#utility.yul\":23787:23823   */\n      sstore\n        /* \"#utility.yul\":23222:23833   */\n      pop\n      pop\n      pop\n        /* \"#utility.yul\":23185:24072   */\n    tag_531:\n      pop\n        /* \"#utility.yul\":22775:24078   */\n      pop\n      pop\n      pop\n        /* \"#utility.yul\":22683:24078   */\n      pop\n      pop\n      jump\t// out\n        /* \"#utility.yul\":24084:24233   */\n    tag_298:\n        /* \"#utility.yul\":24133:24139   */\n      0x00\n        /* \"#utility.yul\":24167:24172   */\n      dup2\n        /* \"#utility.yul\":24161:24173   */\n      sload\n        /* \"#utility.yul\":24151:24173   */\n      swap1\n      pop\n        /* \"#utility.yul\":24193:24226   */\n      tag_542\n        /* \"#utility.yul\":24219:24225   */\n      dup2\n        /* \"#utility.yul\":24193:24226   */\n      tag_83\n      jump\t// in\n    tag_542:\n        /* \"#utility.yul\":24183:24226   */\n      swap1\n      pop\n        /* \"#utility.yul\":24084:24233   */\n      swap2\n      swap1\n      pop\n      jump\t// out\n        /* \"#utility.yul\":24239:25690   */\n    tag_135:\n        /* \"#utility.yul\":24350:24353   */\n      dup2\n        /* \"#utility.yul\":24344:24348   */\n      dup2\n        /* \"#utility.yul\":24341:24354   */\n      sub\n        /* \"#utility.yul\":24338:24364   */\n      tag_544\n      jumpi\n        /* \"#utility.yul\":24357:24362   */\n      pop\n      pop\n      jump(tag_543)\n        /* \"#utility.yul\":24338:24364   */\n    tag_544:\n        /* \"#utility.yul\":24388:24422   */\n      tag_545\n        /* \"#utility.yul\":24418:24421   */\n      dup3\n        /* \"#utility.yul\":24388:24422   */\n      tag_298\n      jump\t// in\n    tag_545:\n        /* \"#utility.yul\":24487:24505   */\n      0xffffffffffffffff\n        /* \"#utility.yul\":24479:24485   */\n      dup2\n        /* \"#utility.yul\":24476:24506   */\n      gt\n        /* \"#utility.yul\":24473:24529   */\n      iszero\n      tag_546\n      jumpi\n        /* \"#utility.yul\":24509:24527   */\n      tag_547\n      tag_263\n      jump\t// in\n    tag_547:\n        /* \"#utility.yul\":24473:24529   */\n    tag_546:\n        /* \"#utility.yul\":24553:24591   */\n      tag_548\n        /* \"#utility.yul\":24585:24589   */\n      dup3\n        /* \"#utility.yul\":24579:24590   */\n      sload\n        /* \"#utility.yul\":24553:24591   */\n      tag_83\n      jump\t// in\n    tag_548:\n        /* \"#utility.yul\":24638:24705   */\n      tag_549\n        /* \"#utility.yul\":24698:24704   */\n      dup3\n        /* \"#utility.yul\":24690:24696   */\n      dup3\n        /* \"#utility.yul\":24684:24688   */\n      dup6\n        /* \"#utility.yul\":24638:24705   */\n      tag_294\n      jump\t// in\n    tag_549:\n        /* \"#utility.yul\":24732:24733   */\n      0x00\n        /* \"#utility.yul\":24761:24763   */\n      0x1f\n        /* \"#utility.yul\":24753:24759   */\n      dup4\n        /* \"#utility.yul\":24750:24764   */\n      gt\n        /* \"#utility.yul\":24778:24779   */\n      0x01\n        /* \"#utility.yul\":24773:25445   */\n      dup2\n      eq\n      tag_551\n      jumpi\n        /* \"#utility.yul\":25489:25490   */\n      0x00\n        /* \"#utility.yul\":25506:25512   */\n      dup5\n        /* \"#utility.yul\":25503:25580   */\n      iszero\n      tag_552\n      jumpi\n        /* \"#utility.yul\":25555:25564   */\n      dup3\n        /* \"#utility.yul\":25550:25553   */\n      dup8\n        /* \"#utility.yul\":25546:25565   */\n      add\n        /* \"#utility.yul\":25540:25566   */\n      sload\n        /* \"#utility.yul\":25531:25566   */\n      swap1\n      pop\n        /* \"#utility.yul\":25503:25580   */\n    tag_552:\n        /* \"#utility.yul\":25606:25673   */\n      tag_553\n        /* \"#utility.yul\":25666:25672   */\n      dup6\n        /* \"#utility.yul\":25659:25664   */\n      dup3\n        /* \"#utility.yul\":25606:25673   */\n      tag_297\n      jump\t// in\n    tag_553:\n        /* \"#utility.yul\":25600:25604   */\n      dup7\n        /* \"#utility.yul\":25593:25674   */\n      sstore\n        /* \"#utility.yul\":25462:25684   */\n      pop\n        /* \"#utility.yul\":24743:25684   */\n      jump(tag_550)\n        /* \"#utility.yul\":24773:25445   */\n    tag_551:\n        /* \"#utility.yul\":24825:24829   */\n      0x1f\n        /* \"#utility.yul\":24821:24830   */\n      not\n        /* \"#utility.yul\":24813:24819   */\n      dup5\n        /* \"#utility.yul\":24809:24831   */\n      and\n        /* \"#utility.yul\":24851:24887   */\n      tag_554\n        /* \"#utility.yul\":24883:24886   */\n      dup8\n        /* \"#utility.yul\":24851:24887   */\n      tag_283\n      jump\t// in\n    tag_554:\n        /* \"#utility.yul\":24844:24887   */\n      swap7\n      pop\n        /* \"#utility.yul\":24914:24951   */\n      tag_555\n        /* \"#utility.yul\":24946:24950   */\n      dup7\n        /* \"#utility.yul\":24914:24951   */\n      tag_283\n      jump\t// in\n    tag_555:\n        /* \"#utility.yul\":24973:24974   */\n      0x00\n        /* \"#utility.yul\":24987:25194   */\n    tag_556:\n        /* \"#utility.yul\":25001:25008   */\n      dup3\n        /* \"#utility.yul\":24998:24999   */\n      dup2\n        /* \"#utility.yul\":24995:25009   */\n      lt\n        /* \"#utility.yul\":24987:25194   */\n      iszero\n      tag_558\n      jumpi\n        /* \"#utility.yul\":25080:25089   */\n      dup5\n        /* \"#utility.yul\":25075:25078   */\n      dup10\n        /* \"#utility.yul\":25071:25090   */\n      add\n        /* \"#utility.yul\":25065:25091   */\n      sload\n        /* \"#utility.yul\":25057:25063   */\n      dup3\n        /* \"#utility.yul\":25050:25092   */\n      sstore\n        /* \"#utility.yul\":25131:25132   */\n      0x01\n        /* \"#utility.yul\":25123:25129   */\n      dup3\n        /* \"#utility.yul\":25119:25133   */\n      add\n        /* \"#utility.yul\":25109:25133   */\n      swap2\n      pop\n        /* \"#utility.yul\":25178:25179   */\n      0x01\n        /* \"#utility.yul\":25167:25176   */\n      dup6\n        /* \"#utility.yul\":25163:25180   */\n      add\n        /* \"#utility.yul\":25150:25180   */\n      swap5\n      pop\n        /* \"#utility.yul\":25024:25028   */\n      0x20\n        /* \"#utility.yul\":25021:25022   */\n      dup2\n        /* \"#utility.yul\":25017:25029   */\n      add\n        /* \"#utility.yul\":25012:25029   */\n      swap1\n      pop\n        /* \"#utility.yul\":24987:25194   */\n      jump(tag_556)\n    tag_558:\n        /* \"#utility.yul\":25222:25228   */\n      dup7\n        /* \"#utility.yul\":25213:25220   */\n      dup4\n        /* \"#utility.yul\":25210:25229   */\n      lt\n        /* \"#utility.yul\":25207:25386   */\n      iszero\n      tag_559\n      jumpi\n        /* \"#utility.yul\":25280:25289   */\n      dup5\n        /* \"#utility.yul\":25275:25278   */\n      dup10\n        /* \"#utility.yul\":25271:25290   */\n      add\n        /* \"#utility.yul\":25265:25291   */\n      sload\n        /* \"#utility.yul\":25323:25371   */\n      tag_560\n        /* \"#utility.yul\":25365:25369   */\n      0x1f\n        /* \"#utility.yul\":25357:25363   */\n      dup10\n        /* \"#utility.yul\":25353:25370   */\n      and\n        /* \"#utility.yul\":25342:25351   */\n      dup3\n        /* \"#utility.yul\":25323:25371   */\n      tag_296\n      jump\t// in\n    tag_560:\n        /* \"#utility.yul\":25315:25321   */\n      dup4\n        /* \"#utility.yul\":25308:25372   */\n      sstore\n        /* \"#utility.yul\":25230:25386   */\n      pop\n        /* \"#utility.yul\":25207:25386   */\n    tag_559:\n        /* \"#utility.yul\":25432:25433   */\n      0x01\n        /* \"#utility.yul\":25428:25429   */\n      0x02\n        /* \"#utility.yul\":25420:25426   */\n      dup9\n        /* \"#utility.yul\":25416:25430   */\n      mul\n        /* \"#utility.yul\":25412:25434   */\n      add\n        /* \"#utility.yul\":25406:25410   */\n      dup9\n        /* \"#utility.yul\":25399:25435   */\n      sstore\n        /* \"#utility.yul\":24780:25445   */\n      pop\n      pop\n      pop\n        /* \"#utility.yul\":24743:25684   */\n    tag_550:\n      pop\n        /* \"#utility.yul\":24328:25690   */\n      pop\n      pop\n      pop\n        /* \"#utility.yul\":24239:25690   */\n      pop\n      pop\n    tag_543:\n      jump\t// out\n        /* \"#utility.yul\":25696:25929   */\n    tag_139:\n        /* \"#utility.yul\":25735:25738   */\n      0x00\n        /* \"#utility.yul\":25758:25782   */\n      tag_562\n        /* \"#utility.yul\":25776:25781   */\n      dup3\n        /* \"#utility.yul\":25758:25782   */\n      tag_234\n      jump\t// in\n    tag_562:\n        /* \"#utility.yul\":25749:25782   */\n      swap2\n      pop\n        /* \"#utility.yul\":25804:25870   */\n      0xffffffffffffffffffffffffffffffffffffffffffffffffffffffffffffffff\n        /* \"#utility.yul\":25797:25802   */\n      dup3\n        /* \"#utility.yul\":25794:25871   */\n      sub\n        /* \"#utility.yul\":25791:25894   */\n      tag_563\n      jumpi\n        /* \"#utility.yul\":25874:25892   */\n      tag_564\n      tag_281\n      jump\t// in\n    tag_564:\n        /* \"#utility.yul\":25791:25894   */\n    tag_563:\n        /* \"#utility.yul\":25921:25922   */\n      0x01\n        /* \"#utility.yul\":25914:25919   */\n      dup3\n        /* \"#utility.yul\":25910:25923   */\n      add\n        /* \"#utility.yul\":25903:25923   */\n      swap1\n      pop\n        /* \"#utility.yul\":25696:25929   */\n      swap2\n      swap1\n      pop\n      jump\t// out\n\n    auxdata: 0xa26469706673582212209c3beb7068b2b8f59006c84d2e486c957807c7c229e7c45825877d6fb2f929d264736f6c634300081a0033\n}\n",
				"bytecode": {
					"linkReferences": {},
					"object": "60806040525f600255348015610013575f80fd5b506040516127a43803806127a48339818101604052810190610035919061021b565b335f73ffffffffffffffffffffffffffffffffffffffff168173ffffffffffffffffffffffffffffffffffffffff16036100a6575f6040517f1e4fbdf700000000000000000000000000000000000000000000000000000000815260040161009d9190610255565b60405180910390fd5b6100b5816100fc60201b60201c565b508060015f6101000a81548173ffffffffffffffffffffffffffffffffffffffff021916908373ffffffffffffffffffffffffffffffffffffffff1602179055505061026e565b5f805f9054906101000a900473ffffffffffffffffffffffffffffffffffffffff169050815f806101000a81548173ffffffffffffffffffffffffffffffffffffffff021916908373ffffffffffffffffffffffffffffffffffffffff1602179055508173ffffffffffffffffffffffffffffffffffffffff168173ffffffffffffffffffffffffffffffffffffffff167f8be0079c531659141344cd1fd0a4f28419497f9722a3daafe3b4186f6b6457e060405160405180910390a35050565b5f80fd5b5f73ffffffffffffffffffffffffffffffffffffffff82169050919050565b5f6101ea826101c1565b9050919050565b6101fa816101e0565b8114610204575f80fd5b50565b5f81519050610215816101f1565b92915050565b5f602082840312156102305761022f6101bd565b5b5f61023d84828501610207565b91505092915050565b61024f816101e0565b82525050565b5f6020820190506102685f830184610246565b92915050565b6125298061027b5f395ff3fe608060405234801561000f575f80fd5b50600436106100b2575f3560e01c80638da5cb5b1161006f5780638da5cb5b1461018d578063be07d1d9146101ab578063c6311e3f146101e0578063c7f758a814610215578063f2fde38b14610246578063f30282a114610262576100b2565b80630121b93f146100b6578063013cf08b146100d2578063159428d1146101075780632b499cab14610137578063583cf37914610167578063715018a614610183575b5f80fd5b6100d060048036038101906100cb9190611823565b610280565b005b6100ec60048036038101906100e79190611823565b610471565b6040516100fe9695949392919061190c565b60405180910390f35b610121600480360381019061011c91906119aa565b61065a565b60405161012e9190611b8a565b60405180910390f35b610151600480360381019061014c91906119aa565b61090b565b60405161015e9190611bc4565b60405180910390f35b610181600480360381019061017c9190611d09565b610928565b005b61018b610d15565b005b610195610d28565b6040516101a29190611dad565b60405180910390f35b6101c560048036038101906101c09190611dc6565b610d4f565b6040516101d79695949392919061190c565b60405180910390f35b6101fa60048036038101906101f59190611823565b610f52565b60405161020c9695949392919061190c565b60405180910390f35b61022f600480360381019061022a9190611823565b61114a565b60405161023d929190611e04565b60405180910390f35b610260600480360381019061025b91906119aa565b611398565b005b61026a61141c565b6040516102779190611b8a565b60405180910390f35b5f60015f9054906101000a900473ffffffffffffffffffffffffffffffffffffffff1673ffffffffffffffffffffffffffffffffffffffff16630f53a470336040518263ffffffff1660e01b81526004016102db9190611dad565b5f60405180830381865afa1580156102f5573d5f803e3d5ffd5b505050506040513d5f823e3d601f19601f8201168201806040525081019061031d9190611f72565b90508060400151610363576040517f08c379a000000000000000000000000000000000000000000000000000000000815260040161035a90612003565b60405180910390fd5b60055f3373ffffffffffffffffffffffffffffffffffffffff1673ffffffffffffffffffffffffffffffffffffffff1681526020019081526020015f205f9054906101000a900460ff16156103ed576040517f08c379a00000000000000000000000000000000000000000000000000000000081526004016103e49061206b565b60405180910390fd5b600160045f8481526020019081526020015f206004015f82825461041191906120b6565b92505081905550600160055f3373ffffffffffffffffffffffffffffffffffffffff1673ffffffffffffffffffffffffffffffffffffffff1681526020019081526020015f205f6101000a81548160ff0219169083151502179055505050565b6004602052805f5260405f205f91509050805f01549080600101805461049690612116565b80601f01602080910402602001604051908101604052809291908181526020018280546104c290612116565b801561050d5780601f106104e45761010080835404028352916020019161050d565b820191905f5260205f20905b8154815290600101906020018083116104f057829003601f168201915b50505050509080600201805461052290612116565b80601f016020809104026020016040519081016040528092919081815260200182805461054e90612116565b80156105995780601f1061057057610100808354040283529160200191610599565b820191905f5260205f20905b81548152906001019060200180831161057c57829003601f168201915b5050505050908060030180546105ae90612116565b80601f01602080910402602001604051908101604052809291908181526020018280546105da90612116565b80156106255780601f106105fc57610100808354040283529160200191610625565b820191905f5260205f20905b81548152906001019060200180831161060857829003601f168201915b505050505090806004015490806005015f9054906101000a900473ffffffffffffffffffffffffffffffffffffffff16905086565b606060035f8373ffffffffffffffffffffffffffffffffffffffff1673ffffffffffffffffffffffffffffffffffffffff1681526020019081526020015f20805480602002602001604051908101604052809291908181526020015f905b82821015610900578382905f5260205f2090600602016040518060c00160405290815f82015481526020016001820180546106f290612116565b80601f016020809104026020016040519081016040528092919081815260200182805461071e90612116565b80156107695780601f1061074057610100808354040283529160200191610769565b820191905f5260205f20905b81548152906001019060200180831161074c57829003601f168201915b5050505050815260200160028201805461078290612116565b80601f01602080910402602001604051908101604052809291908181526020018280546107ae90612116565b80156107f95780601f106107d0576101008083540402835291602001916107f9565b820191905f5260205f20905b8154815290600101906020018083116107dc57829003601f168201915b5050505050815260200160038201805461081290612116565b80601f016020809104026020016040519081016040528092919081815260200182805461083e90612116565b80156108895780601f1061086057610100808354040283529160200191610889565b820191905f5260205f20905b81548152906001019060200180831161086c57829003601f168201915b5050505050815260200160048201548152602001600582015f9054906101000a900473ffffffffffffffffffffffffffffffffffffffff1673ffffffffffffffffffffffffffffffffffffffff1673ffffffffffffffffffffffffffffffffffffffff1681525050815260200190600101906106b8565b505050509050919050565b6005602052805f5260405f205f915054906101000a900460ff1681565b5f60015f9054906101000a900473ffffffffffffffffffffffffffffffffffffffff1673ffffffffffffffffffffffffffffffffffffffff16630f53a470336040518263ffffffff1660e01b81526004016109839190611dad565b5f60405180830381865afa15801561099d573d5f803e3d5ffd5b505050506040513d5f823e3d601f19601f820116820180604052508101906109c59190611f72565b90508060400151610a0b576040517f08c379a0000000000000000000000000000000000000000000000000000000008152600401610a0290612003565b60405180910390fd5b5f6040518060c0016040528060025481526020018681526020018581526020018481526020015f81526020013373ffffffffffffffffffffffffffffffffffffffff1681525090508060045f60025481526020019081526020015f205f820151815f01556020820151816001019081610a8491906122e3565b506040820151816002019081610a9a91906122e3565b506060820151816003019081610ab091906122e3565b506080820151816004015560a0820151816005015f6101000a81548173ffffffffffffffffffffffffffffffffffffffff021916908373ffffffffffffffffffffffffffffffffffffffff16021790555090505060035f3373ffffffffffffffffffffffffffffffffffffffff1673ffffffffffffffffffffffffffffffffffffffff1681526020019081526020015f2081908060018154018082558091505060019003905f5260205f2090600602015f909190919091505f820151815f01556020820151816001019081610b8591906122e3565b506040820151816002019081610b9b91906122e3565b506060820151816003019081610bb191906122e3565b506080820151816004015560a0820151816005015f6101000a81548173ffffffffffffffffffffffffffffffffffffffff021916908373ffffffffffffffffffffffffffffffffffffffff1602179055505050600660045f60025481526020019081526020015f20908060018154018082558091505060019003905f5260205f2090600602015f909190919091505f820154815f015560018201816001019081610c5b91906123c7565b5060028201816002019081610c7091906123c7565b5060038201816003019081610c8591906123c7565b5060048201548160040155600582015f9054906101000a900473ffffffffffffffffffffffffffffffffffffffff16816005015f6101000a81548173ffffffffffffffffffffffffffffffffffffffff021916908373ffffffffffffffffffffffffffffffffffffffff160217905550505060025f815480929190610d09906124ac565b91905055505050505050565b610d1d611690565b610d265f611717565b565b5f805f9054906101000a900473ffffffffffffffffffffffffffffffffffffffff16905090565b6003602052815f5260405f208181548110610d68575f80fd5b905f5260205f2090600602015f9150915050805f015490806001018054610d8e90612116565b80601f0160208091040260200160405190810160405280929190818152602001828054610dba90612116565b8015610e055780601f10610ddc57610100808354040283529160200191610e05565b820191905f5260205f20905b815481529060010190602001808311610de857829003601f168201915b505050505090806002018054610e1a90612116565b80601f0160208091040260200160405190810160405280929190818152602001828054610e4690612116565b8015610e915780601f10610e6857610100808354040283529160200191610e91565b820191905f5260205f20905b815481529060010190602001808311610e7457829003601f168201915b505050505090806003018054610ea690612116565b80601f0160208091040260200160405190810160405280929190818152602001828054610ed290612116565b8015610f1d5780601f10610ef457610100808354040283529160200191610f1d565b820191905f5260205f20905b815481529060010190602001808311610f0057829003601f168201915b505050505090806004015490806005015f9054906101000a900473ffffffffffffffffffffffffffffffffffffffff16905086565b60068181548110610f61575f80fd5b905f5260205f2090600602015f91509050805f015490806001018054610f8690612116565b80601f0160208091040260200160405190810160405280929190818152602001828054610fb290612116565b8015610ffd5780601f10610fd457610100808354040283529160200191610ffd565b820191905f5260205f20905b815481529060010190602001808311610fe057829003601f168201915b50505050509080600201805461101290612116565b80601f016020809104026020016040519081016040528092919081815260200182805461103e90612116565b80156110895780601f1061106057610100808354040283529160200191611089565b820191905f5260205f20905b81548152906001019060200180831161106c57829003601f168201915b50505050509080600301805461109e90612116565b80601f01602080910402602001604051908101604052809291908181526020018280546110ca90612116565b80156111155780601f106110ec57610100808354040283529160200191611115565b820191905f5260205f20905b8154815290600101906020018083116110f857829003601f168201915b505050505090806004015490806005015f9054906101000a900473ffffffffffffffffffffffffffffffffffffffff16905086565b6060805f60045f8581526020019081526020015f206040518060c00160405290815f820154815260200160018201805461118390612116565b80601f01602080910402602001604051908101604052809291908181526020018280546111af90612116565b80156111fa5780601f106111d1576101008083540402835291602001916111fa565b820191905f5260205f20905b8154815290600101906020018083116111dd57829003601f168201915b5050505050815260200160028201805461121390612116565b80601f016020809104026020016040519081016040528092919081815260200182805461123f90612116565b801561128a5780601f106112615761010080835404028352916020019161128a565b820191905f5260205f20905b81548152906001019060200180831161126d57829003601f168201915b505050505081526020016003820180546112a390612116565b80601f01602080910402602001604051908101604052809291908181526020018280546112cf90612116565b801561131a5780601f106112f15761010080835404028352916020019161131a565b820191905f5260205f20905b8154815290600101906020018083116112fd57829003601f168201915b5050505050815260200160048201548152602001600582015f9054906101000a900473ffffffffffffffffffffffffffffffffffffffff1673ffffffffffffffffffffffffffffffffffffffff1673ffffffffffffffffffffffffffffffffffffffff16815250509050806020015181604001519250925050915091565b6113a0611690565b5f73ffffffffffffffffffffffffffffffffffffffff168173ffffffffffffffffffffffffffffffffffffffff1603611410575f6040517f1e4fbdf70000000000000000000000000000000000000000000000000000000081526004016114079190611dad565b60405180910390fd5b61141981611717565b50565b60606006805480602002602001604051908101604052809291908181526020015f905b82821015611687578382905f5260205f2090600602016040518060c00160405290815f820154815260200160018201805461147990612116565b80601f01602080910402602001604051908101604052809291908181526020018280546114a590612116565b80156114f05780601f106114c7576101008083540402835291602001916114f0565b820191905f5260205f20905b8154815290600101906020018083116114d357829003601f168201915b5050505050815260200160028201805461150990612116565b80601f016020809104026020016040519081016040528092919081815260200182805461153590612116565b80156115805780601f1061155757610100808354040283529160200191611580565b820191905f5260205f20905b81548152906001019060200180831161156357829003601f168201915b5050505050815260200160038201805461159990612116565b80601f01602080910402602001604051908101604052809291908181526020018280546115c590612116565b80156116105780601f106115e757610100808354040283529160200191611610565b820191905f5260205f20905b8154815290600101906020018083116115f357829003601f168201915b5050505050815260200160048201548152602001600582015f9054906101000a900473ffffffffffffffffffffffffffffffffffffffff1673ffffffffffffffffffffffffffffffffffffffff1673ffffffffffffffffffffffffffffffffffffffff16815250508152602001906001019061143f565b50505050905090565b6116986117d8565b73ffffffffffffffffffffffffffffffffffffffff166116b6610d28565b73ffffffffffffffffffffffffffffffffffffffff1614611715576116d96117d8565b6040517f118cdaa700000000000000000000000000000000000000000000000000000000815260040161170c9190611dad565b60405180910390fd5b565b5f805f9054906101000a900473ffffffffffffffffffffffffffffffffffffffff169050815f806101000a81548173ffffffffffffffffffffffffffffffffffffffff021916908373ffffffffffffffffffffffffffffffffffffffff1602179055508173ffffffffffffffffffffffffffffffffffffffff168173ffffffffffffffffffffffffffffffffffffffff167f8be0079c531659141344cd1fd0a4f28419497f9722a3daafe3b4186f6b6457e060405160405180910390a35050565b5f33905090565b5f604051905090565b5f80fd5b5f80fd5b5f819050919050565b611802816117f0565b811461180c575f80fd5b50565b5f8135905061181d816117f9565b92915050565b5f60208284031215611838576118376117e8565b5b5f6118458482850161180f565b91505092915050565b611857816117f0565b82525050565b5f81519050919050565b5f82825260208201905092915050565b8281835e5f83830152505050565b5f601f19601f8301169050919050565b5f61189f8261185d565b6118a98185611867565b93506118b9818560208601611877565b6118c281611885565b840191505092915050565b5f73ffffffffffffffffffffffffffffffffffffffff82169050919050565b5f6118f6826118cd565b9050919050565b611906816118ec565b82525050565b5f60c08201905061191f5f83018961184e565b81810360208301526119318188611895565b905081810360408301526119458187611895565b905081810360608301526119598186611895565b9050611968608083018561184e565b61197560a08301846118fd565b979650505050505050565b611989816118ec565b8114611993575f80fd5b50565b5f813590506119a481611980565b92915050565b5f602082840312156119bf576119be6117e8565b5b5f6119cc84828501611996565b91505092915050565b5f81519050919050565b5f82825260208201905092915050565b5f819050602082019050919050565b611a07816117f0565b82525050565b5f82825260208201905092915050565b5f611a278261185d565b611a318185611a0d565b9350611a41818560208601611877565b611a4a81611885565b840191505092915050565b611a5e816118ec565b82525050565b5f60c083015f830151611a795f8601826119fe565b5060208301518482036020860152611a918282611a1d565b91505060408301518482036040860152611aab8282611a1d565b91505060608301518482036060860152611ac58282611a1d565b9150506080830151611ada60808601826119fe565b5060a0830151611aed60a0860182611a55565b508091505092915050565b5f611b038383611a64565b905092915050565b5f602082019050919050565b5f611b21826119d5565b611b2b81856119df565b935083602082028501611b3d856119ef565b805f5b85811015611b785784840389528151611b598582611af8565b9450611b6483611b0b565b925060208a01995050600181019050611b40565b50829750879550505050505092915050565b5f6020820190508181035f830152611ba28184611b17565b905092915050565b5f8115159050919050565b611bbe81611baa565b82525050565b5f602082019050611bd75f830184611bb5565b92915050565b5f80fd5b5f80fd5b7f4e487b71000000000000000000000000000000000000000000000000000000005f52604160045260245ffd5b611c1b82611885565b810181811067ffffffffffffffff82111715611c3a57611c39611be5565b5b80604052505050565b5f611c4c6117df565b9050611c588282611c12565b919050565b5f67ffffffffffffffff821115611c7757611c76611be5565b5b611c8082611885565b9050602081019050919050565b828183375f83830152505050565b5f611cad611ca884611c5d565b611c43565b905082815260208101848484011115611cc957611cc8611be1565b5b611cd4848285611c8d565b509392505050565b5f82601f830112611cf057611cef611bdd565b5b8135611d00848260208601611c9b565b91505092915050565b5f805f60608486031215611d2057611d1f6117e8565b5b5f84013567ffffffffffffffff811115611d3d57611d3c6117ec565b5b611d4986828701611cdc565b935050602084013567ffffffffffffffff811115611d6a57611d696117ec565b5b611d7686828701611cdc565b925050604084013567ffffffffffffffff811115611d9757611d966117ec565b5b611da386828701611cdc565b9150509250925092565b5f602082019050611dc05f8301846118fd565b92915050565b5f8060408385031215611ddc57611ddb6117e8565b5b5f611de985828601611996565b9250506020611dfa8582860161180f565b9150509250929050565b5f6040820190508181035f830152611e1c8185611895565b90508181036020830152611e308184611895565b90509392505050565b5f80fd5b5f80fd5b5f611e53611e4e84611c5d565b611c43565b905082815260208101848484011115611e6f57611e6e611be1565b5b611e7a848285611877565b509392505050565b5f82601f830112611e9657611e95611bdd565b5b8151611ea6848260208601611e41565b91505092915050565b611eb881611baa565b8114611ec2575f80fd5b50565b5f81519050611ed381611eaf565b92915050565b5f60608284031215611eee57611eed611e39565b5b611ef86060611c43565b90505f82015167ffffffffffffffff811115611f1757611f16611e3d565b5b611f2384828501611e82565b5f83015250602082015167ffffffffffffffff811115611f4657611f45611e3d565b5b611f5284828501611e82565b6020830152506040611f6684828501611ec5565b60408301525092915050565b5f60208284031215611f8757611f866117e8565b5b5f82015167ffffffffffffffff811115611fa457611fa36117ec565b5b611fb084828501611ed9565b91505092915050565b7f596f75206861766520746f2052656769737465726400000000000000000000005f82015250565b5f611fed601583611867565b9150611ff882611fb9565b602082019050919050565b5f6020820190508181035f83015261201a81611fe1565b9050919050565b7f596f752061726520616c726561647920566f74656421000000000000000000005f82015250565b5f612055601683611867565b915061206082612021565b602082019050919050565b5f6020820190508181035f83015261208281612049565b9050919050565b7f4e487b71000000000000000000000000000000000000000000000000000000005f52601160045260245ffd5b5f6120c0826117f0565b91506120cb836117f0565b92508282019050808211156120e3576120e2612089565b5b92915050565b7f4e487b71000000000000000000000000000000000000000000000000000000005f52602260045260245ffd5b5f600282049050600182168061212d57607f821691505b6020821081036121405761213f6120e9565b5b50919050565b5f819050815f5260205f209050919050565b5f6020601f8301049050919050565b5f82821b905092915050565b5f600883026121a27fffffffffffffffffffffffffffffffffffffffffffffffffffffffffffffffff82612167565b6121ac8683612167565b95508019841693508086168417925050509392505050565b5f819050919050565b5f6121e76121e26121dd846117f0565b6121c4565b6117f0565b9050919050565b5f819050919050565b612200836121cd565b61221461220c826121ee565b848454612173565b825550505050565b5f90565b61222861221c565b6122338184846121f7565b505050565b5b818110156122565761224b5f82612220565b600181019050612239565b5050565b601f82111561229b5761226c81612146565b61227584612158565b81016020851015612284578190505b61229861229085612158565b830182612238565b50505b505050565b5f82821c905092915050565b5f6122bb5f19846008026122a0565b1980831691505092915050565b5f6122d383836122ac565b9150826002028217905092915050565b6122ec8261185d565b67ffffffffffffffff81111561230557612304611be5565b5b61230f8254612116565b61231a82828561225a565b5f60209050601f83116001811461234b575f8415612339578287015190505b61234385826122c8565b8655506123aa565b601f19841661235986612146565b5f5b828110156123805784890151825560018201915060208501945060208101905061235b565b8683101561239d5784890151612399601f8916826122ac565b8355505b6001600288020188555050505b505050505050565b5f815490506123c081612116565b9050919050565b8181036123d55750506124aa565b6123de826123b2565b67ffffffffffffffff8111156123f7576123f6611be5565b5b6124018254612116565b61240c82828561225a565b5f601f831160018114612439575f8415612427578287015490505b61243185826122c8565b8655506124a3565b601f19841661244787612146565b965061245286612146565b5f5b8281101561247957848901548255600182019150600185019450602081019050612454565b868310156124965784890154612492601f8916826122ac565b8355505b6001600288020188555050505b5050505050505b565b5f6124b6826117f0565b91507fffffffffffffffffffffffffffffffffffffffffffffffffffffffffffffffff82036124e8576124e7612089565b5b60018201905091905056fea26469706673582212209c3beb7068b2b8f59006c84d2e486c957807c7c229e7c45825877d6fb2f929d264736f6c634300081a0033",
					"opcodes": "PUSH1 0x80 PUSH1 0x40 MSTORE PUSH0 PUSH1 0x2 SSTORE CALLVALUE DUP1 ISZERO PUSH2 0x13 JUMPI PUSH0 DUP1 REVERT JUMPDEST POP PUSH1 0x40 MLOAD PUSH2 0x27A4 CODESIZE SUB DUP1 PUSH2 0x27A4 DUP4 CODECOPY DUP2 DUP2 ADD PUSH1 0x40 MSTORE DUP2 ADD SWAP1 PUSH2 0x35 SWAP2 SWAP1 PUSH2 0x21B JUMP JUMPDEST CALLER PUSH0 PUSH20 0xFFFFFFFFFFFFFFFFFFFFFFFFFFFFFFFFFFFFFFFF AND DUP2 PUSH20 0xFFFFFFFFFFFFFFFFFFFFFFFFFFFFFFFFFFFFFFFF AND SUB PUSH2 0xA6 JUMPI PUSH0 PUSH1 0x40 MLOAD PUSH32 0x1E4FBDF700000000000000000000000000000000000000000000000000000000 DUP2 MSTORE PUSH1 0x4 ADD PUSH2 0x9D SWAP2 SWAP1 PUSH2 0x255 JUMP JUMPDEST PUSH1 0x40 MLOAD DUP1 SWAP2 SUB SWAP1 REVERT JUMPDEST PUSH2 0xB5 DUP2 PUSH2 0xFC PUSH1 0x20 SHL PUSH1 0x20 SHR JUMP JUMPDEST POP DUP1 PUSH1 0x1 PUSH0 PUSH2 0x100 EXP DUP2 SLOAD DUP2 PUSH20 0xFFFFFFFFFFFFFFFFFFFFFFFFFFFFFFFFFFFFFFFF MUL NOT AND SWAP1 DUP4 PUSH20 0xFFFFFFFFFFFFFFFFFFFFFFFFFFFFFFFFFFFFFFFF AND MUL OR SWAP1 SSTORE POP POP PUSH2 0x26E JUMP JUMPDEST PUSH0 DUP1 PUSH0 SWAP1 SLOAD SWAP1 PUSH2 0x100 EXP SWAP1 DIV PUSH20 0xFFFFFFFFFFFFFFFFFFFFFFFFFFFFFFFFFFFFFFFF AND SWAP1 POP DUP2 PUSH0 DUP1 PUSH2 0x100 EXP DUP2 SLOAD DUP2 PUSH20 0xFFFFFFFFFFFFFFFFFFFFFFFFFFFFFFFFFFFFFFFF MUL NOT AND SWAP1 DUP4 PUSH20 0xFFFFFFFFFFFFFFFFFFFFFFFFFFFFFFFFFFFFFFFF AND MUL OR SWAP1 SSTORE POP DUP2 PUSH20 0xFFFFFFFFFFFFFFFFFFFFFFFFFFFFFFFFFFFFFFFF AND DUP2 PUSH20 0xFFFFFFFFFFFFFFFFFFFFFFFFFFFFFFFFFFFFFFFF AND PUSH32 0x8BE0079C531659141344CD1FD0A4F28419497F9722A3DAAFE3B4186F6B6457E0 PUSH1 0x40 MLOAD PUSH1 0x40 MLOAD DUP1 SWAP2 SUB SWAP1 LOG3 POP POP JUMP JUMPDEST PUSH0 DUP1 REVERT JUMPDEST PUSH0 PUSH20 0xFFFFFFFFFFFFFFFFFFFFFFFFFFFFFFFFFFFFFFFF DUP3 AND SWAP1 POP SWAP2 SWAP1 POP JUMP JUMPDEST PUSH0 PUSH2 0x1EA DUP3 PUSH2 0x1C1 JUMP JUMPDEST SWAP1 POP SWAP2 SWAP1 POP JUMP JUMPDEST PUSH2 0x1FA DUP2 PUSH2 0x1E0 JUMP JUMPDEST DUP2 EQ PUSH2 0x204 JUMPI PUSH0 DUP1 REVERT JUMPDEST POP JUMP JUMPDEST PUSH0 DUP2 MLOAD SWAP1 POP PUSH2 0x215 DUP2 PUSH2 0x1F1 JUMP JUMPDEST SWAP3 SWAP2 POP POP JUMP JUMPDEST PUSH0 PUSH1 0x20 DUP3 DUP5 SUB SLT ISZERO PUSH2 0x230 JUMPI PUSH2 0x22F PUSH2 0x1BD JUMP JUMPDEST JUMPDEST PUSH0 PUSH2 0x23D DUP5 DUP3 DUP6 ADD PUSH2 0x207 JUMP JUMPDEST SWAP2 POP POP SWAP3 SWAP2 POP POP JUMP JUMPDEST PUSH2 0x24F DUP2 PUSH2 0x1E0 JUMP JUMPDEST DUP3 MSTORE POP POP JUMP JUMPDEST PUSH0 PUSH1 0x20 DUP3 ADD SWAP1 POP PUSH2 0x268 PUSH0 DUP4 ADD DUP5 PUSH2 0x246 JUMP JUMPDEST SWAP3 SWAP2 POP POP JUMP JUMPDEST PUSH2 0x2529 DUP1 PUSH2 0x27B PUSH0 CODECOPY PUSH0 RETURN INVALID PUSH1 0x80 PUSH1 0x40 MSTORE CALLVALUE DUP1 ISZERO PUSH2 0xF JUMPI PUSH0 DUP1 REVERT JUMPDEST POP PUSH1 0x4 CALLDATASIZE LT PUSH2 0xB2 JUMPI PUSH0 CALLDATALOAD PUSH1 0xE0 SHR DUP1 PUSH4 0x8DA5CB5B GT PUSH2 0x6F JUMPI DUP1 PUSH4 0x8DA5CB5B EQ PUSH2 0x18D JUMPI DUP1 PUSH4 0xBE07D1D9 EQ PUSH2 0x1AB JUMPI DUP1 PUSH4 0xC6311E3F EQ PUSH2 0x1E0 JUMPI DUP1 PUSH4 0xC7F758A8 EQ PUSH2 0x215 JUMPI DUP1 PUSH4 0xF2FDE38B EQ PUSH2 0x246 JUMPI DUP1 PUSH4 0xF30282A1 EQ PUSH2 0x262 JUMPI PUSH2 0xB2 JUMP JUMPDEST DUP1 PUSH4 0x121B93F EQ PUSH2 0xB6 JUMPI DUP1 PUSH4 0x13CF08B EQ PUSH2 0xD2 JUMPI DUP1 PUSH4 0x159428D1 EQ PUSH2 0x107 JUMPI DUP1 PUSH4 0x2B499CAB EQ PUSH2 0x137 JUMPI DUP1 PUSH4 0x583CF379 EQ PUSH2 0x167 JUMPI DUP1 PUSH4 0x715018A6 EQ PUSH2 0x183 JUMPI JUMPDEST PUSH0 DUP1 REVERT JUMPDEST PUSH2 0xD0 PUSH1 0x4 DUP1 CALLDATASIZE SUB DUP2 ADD SWAP1 PUSH2 0xCB SWAP2 SWAP1 PUSH2 0x1823 JUMP JUMPDEST PUSH2 0x280 JUMP JUMPDEST STOP JUMPDEST PUSH2 0xEC PUSH1 0x4 DUP1 CALLDATASIZE SUB DUP2 ADD SWAP1 PUSH2 0xE7 SWAP2 SWAP1 PUSH2 0x1823 JUMP JUMPDEST PUSH2 0x471 JUMP JUMPDEST PUSH1 0x40 MLOAD PUSH2 0xFE SWAP7 SWAP6 SWAP5 SWAP4 SWAP3 SWAP2 SWAP1 PUSH2 0x190C JUMP JUMPDEST PUSH1 0x40 MLOAD DUP1 SWAP2 SUB SWAP1 RETURN JUMPDEST PUSH2 0x121 PUSH1 0x4 DUP1 CALLDATASIZE SUB DUP2 ADD SWAP1 PUSH2 0x11C SWAP2 SWAP1 PUSH2 0x19AA JUMP JUMPDEST PUSH2 0x65A JUMP JUMPDEST PUSH1 0x40 MLOAD PUSH2 0x12E SWAP2 SWAP1 PUSH2 0x1B8A JUMP JUMPDEST PUSH1 0x40 MLOAD DUP1 SWAP2 SUB SWAP1 RETURN JUMPDEST PUSH2 0x151 PUSH1 0x4 DUP1 CALLDATASIZE SUB DUP2 ADD SWAP1 PUSH2 0x14C SWAP2 SWAP1 PUSH2 0x19AA JUMP JUMPDEST PUSH2 0x90B JUMP JUMPDEST PUSH1 0x40 MLOAD PUSH2 0x15E SWAP2 SWAP1 PUSH2 0x1BC4 JUMP JUMPDEST PUSH1 0x40 MLOAD DUP1 SWAP2 SUB SWAP1 RETURN JUMPDEST PUSH2 0x181 PUSH1 0x4 DUP1 CALLDATASIZE SUB DUP2 ADD SWAP1 PUSH2 0x17C SWAP2 SWAP1 PUSH2 0x1D09 JUMP JUMPDEST PUSH2 0x928 JUMP JUMPDEST STOP JUMPDEST PUSH2 0x18B PUSH2 0xD15 JUMP JUMPDEST STOP JUMPDEST PUSH2 0x195 PUSH2 0xD28 JUMP JUMPDEST PUSH1 0x40 MLOAD PUSH2 0x1A2 SWAP2 SWAP1 PUSH2 0x1DAD JUMP JUMPDEST PUSH1 0x40 MLOAD DUP1 SWAP2 SUB SWAP1 RETURN JUMPDEST PUSH2 0x1C5 PUSH1 0x4 DUP1 CALLDATASIZE SUB DUP2 ADD SWAP1 PUSH2 0x1C0 SWAP2 SWAP1 PUSH2 0x1DC6 JUMP JUMPDEST PUSH2 0xD4F JUMP JUMPDEST PUSH1 0x40 MLOAD PUSH2 0x1D7 SWAP7 SWAP6 SWAP5 SWAP4 SWAP3 SWAP2 SWAP1 PUSH2 0x190C JUMP JUMPDEST PUSH1 0x40 MLOAD DUP1 SWAP2 SUB SWAP1 RETURN JUMPDEST PUSH2 0x1FA PUSH1 0x4 DUP1 CALLDATASIZE SUB DUP2 ADD SWAP1 PUSH2 0x1F5 SWAP2 SWAP1 PUSH2 0x1823 JUMP JUMPDEST PUSH2 0xF52 JUMP JUMPDEST PUSH1 0x40 MLOAD PUSH2 0x20C SWAP7 SWAP6 SWAP5 SWAP4 SWAP3 SWAP2 SWAP1 PUSH2 0x190C JUMP JUMPDEST PUSH1 0x40 MLOAD DUP1 SWAP2 SUB SWAP1 RETURN JUMPDEST PUSH2 0x22F PUSH1 0x4 DUP1 CALLDATASIZE SUB DUP2 ADD SWAP1 PUSH2 0x22A SWAP2 SWAP1 PUSH2 0x1823 JUMP JUMPDEST PUSH2 0x114A JUMP JUMPDEST PUSH1 0x40 MLOAD PUSH2 0x23D SWAP3 SWAP2 SWAP1 PUSH2 0x1E04 JUMP JUMPDEST PUSH1 0x40 MLOAD DUP1 SWAP2 SUB SWAP1 RETURN JUMPDEST PUSH2 0x260 PUSH1 0x4 DUP1 CALLDATASIZE SUB DUP2 ADD SWAP1 PUSH2 0x25B SWAP2 SWAP1 PUSH2 0x19AA JUMP JUMPDEST PUSH2 0x1398 JUMP JUMPDEST STOP JUMPDEST PUSH2 0x26A PUSH2 0x141C JUMP JUMPDEST PUSH1 0x40 MLOAD PUSH2 0x277 SWAP2 SWAP1 PUSH2 0x1B8A JUMP JUMPDEST PUSH1 0x40 MLOAD DUP1 SWAP2 SUB SWAP1 RETURN JUMPDEST PUSH0 PUSH1 0x1 PUSH0 SWAP1 SLOAD SWAP1 PUSH2 0x100 EXP SWAP1 DIV PUSH20 0xFFFFFFFFFFFFFFFFFFFFFFFFFFFFFFFFFFFFFFFF AND PUSH20 0xFFFFFFFFFFFFFFFFFFFFFFFFFFFFFFFFFFFFFFFF AND PUSH4 0xF53A470 CALLER PUSH1 0x40 MLOAD DUP3 PUSH4 0xFFFFFFFF AND PUSH1 0xE0 SHL DUP2 MSTORE PUSH1 0x4 ADD PUSH2 0x2DB SWAP2 SWAP1 PUSH2 0x1DAD JUMP JUMPDEST PUSH0 PUSH1 0x40 MLOAD DUP1 DUP4 SUB DUP2 DUP7 GAS STATICCALL ISZERO DUP1 ISZERO PUSH2 0x2F5 JUMPI RETURNDATASIZE PUSH0 DUP1 RETURNDATACOPY RETURNDATASIZE PUSH0 REVERT JUMPDEST POP POP POP POP PUSH1 0x40 MLOAD RETURNDATASIZE PUSH0 DUP3 RETURNDATACOPY RETURNDATASIZE PUSH1 0x1F NOT PUSH1 0x1F DUP3 ADD AND DUP3 ADD DUP1 PUSH1 0x40 MSTORE POP DUP2 ADD SWAP1 PUSH2 0x31D SWAP2 SWAP1 PUSH2 0x1F72 JUMP JUMPDEST SWAP1 POP DUP1 PUSH1 0x40 ADD MLOAD PUSH2 0x363 JUMPI PUSH1 0x40 MLOAD PUSH32 0x8C379A000000000000000000000000000000000000000000000000000000000 DUP2 MSTORE PUSH1 0x4 ADD PUSH2 0x35A SWAP1 PUSH2 0x2003 JUMP JUMPDEST PUSH1 0x40 MLOAD DUP1 SWAP2 SUB SWAP1 REVERT JUMPDEST PUSH1 0x5 PUSH0 CALLER PUSH20 0xFFFFFFFFFFFFFFFFFFFFFFFFFFFFFFFFFFFFFFFF AND PUSH20 0xFFFFFFFFFFFFFFFFFFFFFFFFFFFFFFFFFFFFFFFF AND DUP2 MSTORE PUSH1 0x20 ADD SWAP1 DUP2 MSTORE PUSH1 0x20 ADD PUSH0 KECCAK256 PUSH0 SWAP1 SLOAD SWAP1 PUSH2 0x100 EXP SWAP1 DIV PUSH1 0xFF AND ISZERO PUSH2 0x3ED JUMPI PUSH1 0x40 MLOAD PUSH32 0x8C379A000000000000000000000000000000000000000000000000000000000 DUP2 MSTORE PUSH1 0x4 ADD PUSH2 0x3E4 SWAP1 PUSH2 0x206B JUMP JUMPDEST PUSH1 0x40 MLOAD DUP1 SWAP2 SUB SWAP1 REVERT JUMPDEST PUSH1 0x1 PUSH1 0x4 PUSH0 DUP5 DUP2 MSTORE PUSH1 0x20 ADD SWAP1 DUP2 MSTORE PUSH1 0x20 ADD PUSH0 KECCAK256 PUSH1 0x4 ADD PUSH0 DUP3 DUP3 SLOAD PUSH2 0x411 SWAP2 SWAP1 PUSH2 0x20B6 JUMP JUMPDEST SWAP3 POP POP DUP2 SWAP1 SSTORE POP PUSH1 0x1 PUSH1 0x5 PUSH0 CALLER PUSH20 0xFFFFFFFFFFFFFFFFFFFFFFFFFFFFFFFFFFFFFFFF AND PUSH20 0xFFFFFFFFFFFFFFFFFFFFFFFFFFFFFFFFFFFFFFFF AND DUP2 MSTORE PUSH1 0x20 ADD SWAP1 DUP2 MSTORE PUSH1 0x20 ADD PUSH0 KECCAK256 PUSH0 PUSH2 0x100 EXP DUP2 SLOAD DUP2 PUSH1 0xFF MUL NOT AND SWAP1 DUP4 ISZERO ISZERO MUL OR SWAP1 SSTORE POP POP POP JUMP JUMPDEST PUSH1 0x4 PUSH1 0x20 MSTORE DUP1 PUSH0 MSTORE PUSH1 0x40 PUSH0 KECCAK256 PUSH0 SWAP2 POP SWAP1 POP DUP1 PUSH0 ADD SLOAD SWAP1 DUP1 PUSH1 0x1 ADD DUP1 SLOAD PUSH2 0x496 SWAP1 PUSH2 0x2116 JUMP JUMPDEST DUP1 PUSH1 0x1F ADD PUSH1 0x20 DUP1 SWAP2 DIV MUL PUSH1 0x20 ADD PUSH1 0x40 MLOAD SWAP1 DUP2 ADD PUSH1 0x40 MSTORE DUP1 SWAP3 SWAP2 SWAP1 DUP2 DUP2 MSTORE PUSH1 0x20 ADD DUP3 DUP1 SLOAD PUSH2 0x4C2 SWAP1 PUSH2 0x2116 JUMP JUMPDEST DUP1 ISZERO PUSH2 0x50D JUMPI DUP1 PUSH1 0x1F LT PUSH2 0x4E4 JUMPI PUSH2 0x100 DUP1 DUP4 SLOAD DIV MUL DUP4 MSTORE SWAP2 PUSH1 0x20 ADD SWAP2 PUSH2 0x50D JUMP JUMPDEST DUP3 ADD SWAP2 SWAP1 PUSH0 MSTORE PUSH1 0x20 PUSH0 KECCAK256 SWAP1 JUMPDEST DUP2 SLOAD DUP2 MSTORE SWAP1 PUSH1 0x1 ADD SWAP1 PUSH1 0x20 ADD DUP1 DUP4 GT PUSH2 0x4F0 JUMPI DUP3 SWAP1 SUB PUSH1 0x1F AND DUP3 ADD SWAP2 JUMPDEST POP POP POP POP POP SWAP1 DUP1 PUSH1 0x2 ADD DUP1 SLOAD PUSH2 0x522 SWAP1 PUSH2 0x2116 JUMP JUMPDEST DUP1 PUSH1 0x1F ADD PUSH1 0x20 DUP1 SWAP2 DIV MUL PUSH1 0x20 ADD PUSH1 0x40 MLOAD SWAP1 DUP2 ADD PUSH1 0x40 MSTORE DUP1 SWAP3 SWAP2 SWAP1 DUP2 DUP2 MSTORE PUSH1 0x20 ADD DUP3 DUP1 SLOAD PUSH2 0x54E SWAP1 PUSH2 0x2116 JUMP JUMPDEST DUP1 ISZERO PUSH2 0x599 JUMPI DUP1 PUSH1 0x1F LT PUSH2 0x570 JUMPI PUSH2 0x100 DUP1 DUP4 SLOAD DIV MUL DUP4 MSTORE SWAP2 PUSH1 0x20 ADD SWAP2 PUSH2 0x599 JUMP JUMPDEST DUP3 ADD SWAP2 SWAP1 PUSH0 MSTORE PUSH1 0x20 PUSH0 KECCAK256 SWAP1 JUMPDEST DUP2 SLOAD DUP2 MSTORE SWAP1 PUSH1 0x1 ADD SWAP1 PUSH1 0x20 ADD DUP1 DUP4 GT PUSH2 0x57C JUMPI DUP3 SWAP1 SUB PUSH1 0x1F AND DUP3 ADD SWAP2 JUMPDEST POP POP POP POP POP SWAP1 DUP1 PUSH1 0x3 ADD DUP1 SLOAD PUSH2 0x5AE SWAP1 PUSH2 0x2116 JUMP JUMPDEST DUP1 PUSH1 0x1F ADD PUSH1 0x20 DUP1 SWAP2 DIV MUL PUSH1 0x20 ADD PUSH1 0x40 MLOAD SWAP1 DUP2 ADD PUSH1 0x40 MSTORE DUP1 SWAP3 SWAP2 SWAP1 DUP2 DUP2 MSTORE PUSH1 0x20 ADD DUP3 DUP1 SLOAD PUSH2 0x5DA SWAP1 PUSH2 0x2116 JUMP JUMPDEST DUP1 ISZERO PUSH2 0x625 JUMPI DUP1 PUSH1 0x1F LT PUSH2 0x5FC JUMPI PUSH2 0x100 DUP1 DUP4 SLOAD DIV MUL DUP4 MSTORE SWAP2 PUSH1 0x20 ADD SWAP2 PUSH2 0x625 JUMP JUMPDEST DUP3 ADD SWAP2 SWAP1 PUSH0 MSTORE PUSH1 0x20 PUSH0 KECCAK256 SWAP1 JUMPDEST DUP2 SLOAD DUP2 MSTORE SWAP1 PUSH1 0x1 ADD SWAP1 PUSH1 0x20 ADD DUP1 DUP4 GT PUSH2 0x608 JUMPI DUP3 SWAP1 SUB PUSH1 0x1F AND DUP3 ADD SWAP2 JUMPDEST POP POP POP POP POP SWAP1 DUP1 PUSH1 0x4 ADD SLOAD SWAP1 DUP1 PUSH1 0x5 ADD PUSH0 SWAP1 SLOAD SWAP1 PUSH2 0x100 EXP SWAP1 DIV PUSH20 0xFFFFFFFFFFFFFFFFFFFFFFFFFFFFFFFFFFFFFFFF AND SWAP1 POP DUP7 JUMP JUMPDEST PUSH1 0x60 PUSH1 0x3 PUSH0 DUP4 PUSH20 0xFFFFFFFFFFFFFFFFFFFFFFFFFFFFFFFFFFFFFFFF AND PUSH20 0xFFFFFFFFFFFFFFFFFFFFFFFFFFFFFFFFFFFFFFFF AND DUP2 MSTORE PUSH1 0x20 ADD SWAP1 DUP2 MSTORE PUSH1 0x20 ADD PUSH0 KECCAK256 DUP1 SLOAD DUP1 PUSH1 0x20 MUL PUSH1 0x20 ADD PUSH1 0x40 MLOAD SWAP1 DUP2 ADD PUSH1 0x40 MSTORE DUP1 SWAP3 SWAP2 SWAP1 DUP2 DUP2 MSTORE PUSH1 0x20 ADD PUSH0 SWAP1 JUMPDEST DUP3 DUP3 LT ISZERO PUSH2 0x900 JUMPI DUP4 DUP3 SWAP1 PUSH0 MSTORE PUSH1 0x20 PUSH0 KECCAK256 SWAP1 PUSH1 0x6 MUL ADD PUSH1 0x40 MLOAD DUP1 PUSH1 0xC0 ADD PUSH1 0x40 MSTORE SWAP1 DUP2 PUSH0 DUP3 ADD SLOAD DUP2 MSTORE PUSH1 0x20 ADD PUSH1 0x1 DUP3 ADD DUP1 SLOAD PUSH2 0x6F2 SWAP1 PUSH2 0x2116 JUMP JUMPDEST DUP1 PUSH1 0x1F ADD PUSH1 0x20 DUP1 SWAP2 DIV MUL PUSH1 0x20 ADD PUSH1 0x40 MLOAD SWAP1 DUP2 ADD PUSH1 0x40 MSTORE DUP1 SWAP3 SWAP2 SWAP1 DUP2 DUP2 MSTORE PUSH1 0x20 ADD DUP3 DUP1 SLOAD PUSH2 0x71E SWAP1 PUSH2 0x2116 JUMP JUMPDEST DUP1 ISZERO PUSH2 0x769 JUMPI DUP1 PUSH1 0x1F LT PUSH2 0x740 JUMPI PUSH2 0x100 DUP1 DUP4 SLOAD DIV MUL DUP4 MSTORE SWAP2 PUSH1 0x20 ADD SWAP2 PUSH2 0x769 JUMP JUMPDEST DUP3 ADD SWAP2 SWAP1 PUSH0 MSTORE PUSH1 0x20 PUSH0 KECCAK256 SWAP1 JUMPDEST DUP2 SLOAD DUP2 MSTORE SWAP1 PUSH1 0x1 ADD SWAP1 PUSH1 0x20 ADD DUP1 DUP4 GT PUSH2 0x74C JUMPI DUP3 SWAP1 SUB PUSH1 0x1F AND DUP3 ADD SWAP2 JUMPDEST POP POP POP POP POP DUP2 MSTORE PUSH1 0x20 ADD PUSH1 0x2 DUP3 ADD DUP1 SLOAD PUSH2 0x782 SWAP1 PUSH2 0x2116 JUMP JUMPDEST DUP1 PUSH1 0x1F ADD PUSH1 0x20 DUP1 SWAP2 DIV MUL PUSH1 0x20 ADD PUSH1 0x40 MLOAD SWAP1 DUP2 ADD PUSH1 0x40 MSTORE DUP1 SWAP3 SWAP2 SWAP1 DUP2 DUP2 MSTORE PUSH1 0x20 ADD DUP3 DUP1 SLOAD PUSH2 0x7AE SWAP1 PUSH2 0x2116 JUMP JUMPDEST DUP1 ISZERO PUSH2 0x7F9 JUMPI DUP1 PUSH1 0x1F LT PUSH2 0x7D0 JUMPI PUSH2 0x100 DUP1 DUP4 SLOAD DIV MUL DUP4 MSTORE SWAP2 PUSH1 0x20 ADD SWAP2 PUSH2 0x7F9 JUMP JUMPDEST DUP3 ADD SWAP2 SWAP1 PUSH0 MSTORE PUSH1 0x20 PUSH0 KECCAK256 SWAP1 JUMPDEST DUP2 SLOAD DUP2 MSTORE SWAP1 PUSH1 0x1 ADD SWAP1 PUSH1 0x20 ADD DUP1 DUP4 GT PUSH2 0x7DC JUMPI DUP3 SWAP1 SUB PUSH1 0x1F AND DUP3 ADD SWAP2 JUMPDEST POP POP POP POP POP DUP2 MSTORE PUSH1 0x20 ADD PUSH1 0x3 DUP3 ADD DUP1 SLOAD PUSH2 0x812 SWAP1 PUSH2 0x2116 JUMP JUMPDEST DUP1 PUSH1 0x1F ADD PUSH1 0x20 DUP1 SWAP2 DIV MUL PUSH1 0x20 ADD PUSH1 0x40 MLOAD SWAP1 DUP2 ADD PUSH1 0x40 MSTORE DUP1 SWAP3 SWAP2 SWAP1 DUP2 DUP2 MSTORE PUSH1 0x20 ADD DUP3 DUP1 SLOAD PUSH2 0x83E SWAP1 PUSH2 0x2116 JUMP JUMPDEST DUP1 ISZERO PUSH2 0x889 JUMPI DUP1 PUSH1 0x1F LT PUSH2 0x860 JUMPI PUSH2 0x100 DUP1 DUP4 SLOAD DIV MUL DUP4 MSTORE SWAP2 PUSH1 0x20 ADD SWAP2 PUSH2 0x889 JUMP JUMPDEST DUP3 ADD SWAP2 SWAP1 PUSH0 MSTORE PUSH1 0x20 PUSH0 KECCAK256 SWAP1 JUMPDEST DUP2 SLOAD DUP2 MSTORE SWAP1 PUSH1 0x1 ADD SWAP1 PUSH1 0x20 ADD DUP1 DUP4 GT PUSH2 0x86C JUMPI DUP3 SWAP1 SUB PUSH1 0x1F AND DUP3 ADD SWAP2 JUMPDEST POP POP POP POP POP DUP2 MSTORE PUSH1 0x20 ADD PUSH1 0x4 DUP3 ADD SLOAD DUP2 MSTORE PUSH1 0x20 ADD PUSH1 0x5 DUP3 ADD PUSH0 SWAP1 SLOAD SWAP1 PUSH2 0x100 EXP SWAP1 DIV PUSH20 0xFFFFFFFFFFFFFFFFFFFFFFFFFFFFFFFFFFFFFFFF AND PUSH20 0xFFFFFFFFFFFFFFFFFFFFFFFFFFFFFFFFFFFFFFFF AND PUSH20 0xFFFFFFFFFFFFFFFFFFFFFFFFFFFFFFFFFFFFFFFF AND DUP2 MSTORE POP POP DUP2 MSTORE PUSH1 0x20 ADD SWAP1 PUSH1 0x1 ADD SWAP1 PUSH2 0x6B8 JUMP JUMPDEST POP POP POP POP SWAP1 POP SWAP2 SWAP1 POP JUMP JUMPDEST PUSH1 0x5 PUSH1 0x20 MSTORE DUP1 PUSH0 MSTORE PUSH1 0x40 PUSH0 KECCAK256 PUSH0 SWAP2 POP SLOAD SWAP1 PUSH2 0x100 EXP SWAP1 DIV PUSH1 0xFF AND DUP2 JUMP JUMPDEST PUSH0 PUSH1 0x1 PUSH0 SWAP1 SLOAD SWAP1 PUSH2 0x100 EXP SWAP1 DIV PUSH20 0xFFFFFFFFFFFFFFFFFFFFFFFFFFFFFFFFFFFFFFFF AND PUSH20 0xFFFFFFFFFFFFFFFFFFFFFFFFFFFFFFFFFFFFFFFF AND PUSH4 0xF53A470 CALLER PUSH1 0x40 MLOAD DUP3 PUSH4 0xFFFFFFFF AND PUSH1 0xE0 SHL DUP2 MSTORE PUSH1 0x4 ADD PUSH2 0x983 SWAP2 SWAP1 PUSH2 0x1DAD JUMP JUMPDEST PUSH0 PUSH1 0x40 MLOAD DUP1 DUP4 SUB DUP2 DUP7 GAS STATICCALL ISZERO DUP1 ISZERO PUSH2 0x99D JUMPI RETURNDATASIZE PUSH0 DUP1 RETURNDATACOPY RETURNDATASIZE PUSH0 REVERT JUMPDEST POP POP POP POP PUSH1 0x40 MLOAD RETURNDATASIZE PUSH0 DUP3 RETURNDATACOPY RETURNDATASIZE PUSH1 0x1F NOT PUSH1 0x1F DUP3 ADD AND DUP3 ADD DUP1 PUSH1 0x40 MSTORE POP DUP2 ADD SWAP1 PUSH2 0x9C5 SWAP2 SWAP1 PUSH2 0x1F72 JUMP JUMPDEST SWAP1 POP DUP1 PUSH1 0x40 ADD MLOAD PUSH2 0xA0B JUMPI PUSH1 0x40 MLOAD PUSH32 0x8C379A000000000000000000000000000000000000000000000000000000000 DUP2 MSTORE PUSH1 0x4 ADD PUSH2 0xA02 SWAP1 PUSH2 0x2003 JUMP JUMPDEST PUSH1 0x40 MLOAD DUP1 SWAP2 SUB SWAP1 REVERT JUMPDEST PUSH0 PUSH1 0x40 MLOAD DUP1 PUSH1 0xC0 ADD PUSH1 0x40 MSTORE DUP1 PUSH1 0x2 SLOAD DUP2 MSTORE PUSH1 0x20 ADD DUP7 DUP2 MSTORE PUSH1 0x20 ADD DUP6 DUP2 MSTORE PUSH1 0x20 ADD DUP5 DUP2 MSTORE PUSH1 0x20 ADD PUSH0 DUP2 MSTORE PUSH1 0x20 ADD CALLER PUSH20 0xFFFFFFFFFFFFFFFFFFFFFFFFFFFFFFFFFFFFFFFF AND DUP2 MSTORE POP SWAP1 POP DUP1 PUSH1 0x4 PUSH0 PUSH1 0x2 SLOAD DUP2 MSTORE PUSH1 0x20 ADD SWAP1 DUP2 MSTORE PUSH1 0x20 ADD PUSH0 KECCAK256 PUSH0 DUP3 ADD MLOAD DUP2 PUSH0 ADD SSTORE PUSH1 0x20 DUP3 ADD MLOAD DUP2 PUSH1 0x1 ADD SWAP1 DUP2 PUSH2 0xA84 SWAP2 SWAP1 PUSH2 0x22E3 JUMP JUMPDEST POP PUSH1 0x40 DUP3 ADD MLOAD DUP2 PUSH1 0x2 ADD SWAP1 DUP2 PUSH2 0xA9A SWAP2 SWAP1 PUSH2 0x22E3 JUMP JUMPDEST POP PUSH1 0x60 DUP3 ADD MLOAD DUP2 PUSH1 0x3 ADD SWAP1 DUP2 PUSH2 0xAB0 SWAP2 SWAP1 PUSH2 0x22E3 JUMP JUMPDEST POP PUSH1 0x80 DUP3 ADD MLOAD DUP2 PUSH1 0x4 ADD SSTORE PUSH1 0xA0 DUP3 ADD MLOAD DUP2 PUSH1 0x5 ADD PUSH0 PUSH2 0x100 EXP DUP2 SLOAD DUP2 PUSH20 0xFFFFFFFFFFFFFFFFFFFFFFFFFFFFFFFFFFFFFFFF MUL NOT AND SWAP1 DUP4 PUSH20 0xFFFFFFFFFFFFFFFFFFFFFFFFFFFFFFFFFFFFFFFF AND MUL OR SWAP1 SSTORE POP SWAP1 POP POP PUSH1 0x3 PUSH0 CALLER PUSH20 0xFFFFFFFFFFFFFFFFFFFFFFFFFFFFFFFFFFFFFFFF AND PUSH20 0xFFFFFFFFFFFFFFFFFFFFFFFFFFFFFFFFFFFFFFFF AND DUP2 MSTORE PUSH1 0x20 ADD SWAP1 DUP2 MSTORE PUSH1 0x20 ADD PUSH0 KECCAK256 DUP2 SWAP1 DUP1 PUSH1 0x1 DUP2 SLOAD ADD DUP1 DUP3 SSTORE DUP1 SWAP2 POP POP PUSH1 0x1 SWAP1 SUB SWAP1 PUSH0 MSTORE PUSH1 0x20 PUSH0 KECCAK256 SWAP1 PUSH1 0x6 MUL ADD PUSH0 SWAP1 SWAP2 SWAP1 SWAP2 SWAP1 SWAP2 POP PUSH0 DUP3 ADD MLOAD DUP2 PUSH0 ADD SSTORE PUSH1 0x20 DUP3 ADD MLOAD DUP2 PUSH1 0x1 ADD SWAP1 DUP2 PUSH2 0xB85 SWAP2 SWAP1 PUSH2 0x22E3 JUMP JUMPDEST POP PUSH1 0x40 DUP3 ADD MLOAD DUP2 PUSH1 0x2 ADD SWAP1 DUP2 PUSH2 0xB9B SWAP2 SWAP1 PUSH2 0x22E3 JUMP JUMPDEST POP PUSH1 0x60 DUP3 ADD MLOAD DUP2 PUSH1 0x3 ADD SWAP1 DUP2 PUSH2 0xBB1 SWAP2 SWAP1 PUSH2 0x22E3 JUMP JUMPDEST POP PUSH1 0x80 DUP3 ADD MLOAD DUP2 PUSH1 0x4 ADD SSTORE PUSH1 0xA0 DUP3 ADD MLOAD DUP2 PUSH1 0x5 ADD PUSH0 PUSH2 0x100 EXP DUP2 SLOAD DUP2 PUSH20 0xFFFFFFFFFFFFFFFFFFFFFFFFFFFFFFFFFFFFFFFF MUL NOT AND SWAP1 DUP4 PUSH20 0xFFFFFFFFFFFFFFFFFFFFFFFFFFFFFFFFFFFFFFFF AND MUL OR SWAP1 SSTORE POP POP POP PUSH1 0x6 PUSH1 0x4 PUSH0 PUSH1 0x2 SLOAD DUP2 MSTORE PUSH1 0x20 ADD SWAP1 DUP2 MSTORE PUSH1 0x20 ADD PUSH0 KECCAK256 SWAP1 DUP1 PUSH1 0x1 DUP2 SLOAD ADD DUP1 DUP3 SSTORE DUP1 SWAP2 POP POP PUSH1 0x1 SWAP1 SUB SWAP1 PUSH0 MSTORE PUSH1 0x20 PUSH0 KECCAK256 SWAP1 PUSH1 0x6 MUL ADD PUSH0 SWAP1 SWAP2 SWAP1 SWAP2 SWAP1 SWAP2 POP PUSH0 DUP3 ADD SLOAD DUP2 PUSH0 ADD SSTORE PUSH1 0x1 DUP3 ADD DUP2 PUSH1 0x1 ADD SWAP1 DUP2 PUSH2 0xC5B SWAP2 SWAP1 PUSH2 0x23C7 JUMP JUMPDEST POP PUSH1 0x2 DUP3 ADD DUP2 PUSH1 0x2 ADD SWAP1 DUP2 PUSH2 0xC70 SWAP2 SWAP1 PUSH2 0x23C7 JUMP JUMPDEST POP PUSH1 0x3 DUP3 ADD DUP2 PUSH1 0x3 ADD SWAP1 DUP2 PUSH2 0xC85 SWAP2 SWAP1 PUSH2 0x23C7 JUMP JUMPDEST POP PUSH1 0x4 DUP3 ADD SLOAD DUP2 PUSH1 0x4 ADD SSTORE PUSH1 0x5 DUP3 ADD PUSH0 SWAP1 SLOAD SWAP1 PUSH2 0x100 EXP SWAP1 DIV PUSH20 0xFFFFFFFFFFFFFFFFFFFFFFFFFFFFFFFFFFFFFFFF AND DUP2 PUSH1 0x5 ADD PUSH0 PUSH2 0x100 EXP DUP2 SLOAD DUP2 PUSH20 0xFFFFFFFFFFFFFFFFFFFFFFFFFFFFFFFFFFFFFFFF MUL NOT AND SWAP1 DUP4 PUSH20 0xFFFFFFFFFFFFFFFFFFFFFFFFFFFFFFFFFFFFFFFF AND MUL OR SWAP1 SSTORE POP POP POP PUSH1 0x2 PUSH0 DUP2 SLOAD DUP1 SWAP3 SWAP2 SWAP1 PUSH2 0xD09 SWAP1 PUSH2 0x24AC JUMP JUMPDEST SWAP2 SWAP1 POP SSTORE POP POP POP POP POP POP JUMP JUMPDEST PUSH2 0xD1D PUSH2 0x1690 JUMP JUMPDEST PUSH2 0xD26 PUSH0 PUSH2 0x1717 JUMP JUMPDEST JUMP JUMPDEST PUSH0 DUP1 PUSH0 SWAP1 SLOAD SWAP1 PUSH2 0x100 EXP SWAP1 DIV PUSH20 0xFFFFFFFFFFFFFFFFFFFFFFFFFFFFFFFFFFFFFFFF AND SWAP1 POP SWAP1 JUMP JUMPDEST PUSH1 0x3 PUSH1 0x20 MSTORE DUP2 PUSH0 MSTORE PUSH1 0x40 PUSH0 KECCAK256 DUP2 DUP2 SLOAD DUP2 LT PUSH2 0xD68 JUMPI PUSH0 DUP1 REVERT JUMPDEST SWAP1 PUSH0 MSTORE PUSH1 0x20 PUSH0 KECCAK256 SWAP1 PUSH1 0x6 MUL ADD PUSH0 SWAP2 POP SWAP2 POP POP DUP1 PUSH0 ADD SLOAD SWAP1 DUP1 PUSH1 0x1 ADD DUP1 SLOAD PUSH2 0xD8E SWAP1 PUSH2 0x2116 JUMP JUMPDEST DUP1 PUSH1 0x1F ADD PUSH1 0x20 DUP1 SWAP2 DIV MUL PUSH1 0x20 ADD PUSH1 0x40 MLOAD SWAP1 DUP2 ADD PUSH1 0x40 MSTORE DUP1 SWAP3 SWAP2 SWAP1 DUP2 DUP2 MSTORE PUSH1 0x20 ADD DUP3 DUP1 SLOAD PUSH2 0xDBA SWAP1 PUSH2 0x2116 JUMP JUMPDEST DUP1 ISZERO PUSH2 0xE05 JUMPI DUP1 PUSH1 0x1F LT PUSH2 0xDDC JUMPI PUSH2 0x100 DUP1 DUP4 SLOAD DIV MUL DUP4 MSTORE SWAP2 PUSH1 0x20 ADD SWAP2 PUSH2 0xE05 JUMP JUMPDEST DUP3 ADD SWAP2 SWAP1 PUSH0 MSTORE PUSH1 0x20 PUSH0 KECCAK256 SWAP1 JUMPDEST DUP2 SLOAD DUP2 MSTORE SWAP1 PUSH1 0x1 ADD SWAP1 PUSH1 0x20 ADD DUP1 DUP4 GT PUSH2 0xDE8 JUMPI DUP3 SWAP1 SUB PUSH1 0x1F AND DUP3 ADD SWAP2 JUMPDEST POP POP POP POP POP SWAP1 DUP1 PUSH1 0x2 ADD DUP1 SLOAD PUSH2 0xE1A SWAP1 PUSH2 0x2116 JUMP JUMPDEST DUP1 PUSH1 0x1F ADD PUSH1 0x20 DUP1 SWAP2 DIV MUL PUSH1 0x20 ADD PUSH1 0x40 MLOAD SWAP1 DUP2 ADD PUSH1 0x40 MSTORE DUP1 SWAP3 SWAP2 SWAP1 DUP2 DUP2 MSTORE PUSH1 0x20 ADD DUP3 DUP1 SLOAD PUSH2 0xE46 SWAP1 PUSH2 0x2116 JUMP JUMPDEST DUP1 ISZERO PUSH2 0xE91 JUMPI DUP1 PUSH1 0x1F LT PUSH2 0xE68 JUMPI PUSH2 0x100 DUP1 DUP4 SLOAD DIV MUL DUP4 MSTORE SWAP2 PUSH1 0x20 ADD SWAP2 PUSH2 0xE91 JUMP JUMPDEST DUP3 ADD SWAP2 SWAP1 PUSH0 MSTORE PUSH1 0x20 PUSH0 KECCAK256 SWAP1 JUMPDEST DUP2 SLOAD DUP2 MSTORE SWAP1 PUSH1 0x1 ADD SWAP1 PUSH1 0x20 ADD DUP1 DUP4 GT PUSH2 0xE74 JUMPI DUP3 SWAP1 SUB PUSH1 0x1F AND DUP3 ADD SWAP2 JUMPDEST POP POP POP POP POP SWAP1 DUP1 PUSH1 0x3 ADD DUP1 SLOAD PUSH2 0xEA6 SWAP1 PUSH2 0x2116 JUMP JUMPDEST DUP1 PUSH1 0x1F ADD PUSH1 0x20 DUP1 SWAP2 DIV MUL PUSH1 0x20 ADD PUSH1 0x40 MLOAD SWAP1 DUP2 ADD PUSH1 0x40 MSTORE DUP1 SWAP3 SWAP2 SWAP1 DUP2 DUP2 MSTORE PUSH1 0x20 ADD DUP3 DUP1 SLOAD PUSH2 0xED2 SWAP1 PUSH2 0x2116 JUMP JUMPDEST DUP1 ISZERO PUSH2 0xF1D JUMPI DUP1 PUSH1 0x1F LT PUSH2 0xEF4 JUMPI PUSH2 0x100 DUP1 DUP4 SLOAD DIV MUL DUP4 MSTORE SWAP2 PUSH1 0x20 ADD SWAP2 PUSH2 0xF1D JUMP JUMPDEST DUP3 ADD SWAP2 SWAP1 PUSH0 MSTORE PUSH1 0x20 PUSH0 KECCAK256 SWAP1 JUMPDEST DUP2 SLOAD DUP2 MSTORE SWAP1 PUSH1 0x1 ADD SWAP1 PUSH1 0x20 ADD DUP1 DUP4 GT PUSH2 0xF00 JUMPI DUP3 SWAP1 SUB PUSH1 0x1F AND DUP3 ADD SWAP2 JUMPDEST POP POP POP POP POP SWAP1 DUP1 PUSH1 0x4 ADD SLOAD SWAP1 DUP1 PUSH1 0x5 ADD PUSH0 SWAP1 SLOAD SWAP1 PUSH2 0x100 EXP SWAP1 DIV PUSH20 0xFFFFFFFFFFFFFFFFFFFFFFFFFFFFFFFFFFFFFFFF AND SWAP1 POP DUP7 JUMP JUMPDEST PUSH1 0x6 DUP2 DUP2 SLOAD DUP2 LT PUSH2 0xF61 JUMPI PUSH0 DUP1 REVERT JUMPDEST SWAP1 PUSH0 MSTORE PUSH1 0x20 PUSH0 KECCAK256 SWAP1 PUSH1 0x6 MUL ADD PUSH0 SWAP2 POP SWAP1 POP DUP1 PUSH0 ADD SLOAD SWAP1 DUP1 PUSH1 0x1 ADD DUP1 SLOAD PUSH2 0xF86 SWAP1 PUSH2 0x2116 JUMP JUMPDEST DUP1 PUSH1 0x1F ADD PUSH1 0x20 DUP1 SWAP2 DIV MUL PUSH1 0x20 ADD PUSH1 0x40 MLOAD SWAP1 DUP2 ADD PUSH1 0x40 MSTORE DUP1 SWAP3 SWAP2 SWAP1 DUP2 DUP2 MSTORE PUSH1 0x20 ADD DUP3 DUP1 SLOAD PUSH2 0xFB2 SWAP1 PUSH2 0x2116 JUMP JUMPDEST DUP1 ISZERO PUSH2 0xFFD JUMPI DUP1 PUSH1 0x1F LT PUSH2 0xFD4 JUMPI PUSH2 0x100 DUP1 DUP4 SLOAD DIV MUL DUP4 MSTORE SWAP2 PUSH1 0x20 ADD SWAP2 PUSH2 0xFFD JUMP JUMPDEST DUP3 ADD SWAP2 SWAP1 PUSH0 MSTORE PUSH1 0x20 PUSH0 KECCAK256 SWAP1 JUMPDEST DUP2 SLOAD DUP2 MSTORE SWAP1 PUSH1 0x1 ADD SWAP1 PUSH1 0x20 ADD DUP1 DUP4 GT PUSH2 0xFE0 JUMPI DUP3 SWAP1 SUB PUSH1 0x1F AND DUP3 ADD SWAP2 JUMPDEST POP POP POP POP POP SWAP1 DUP1 PUSH1 0x2 ADD DUP1 SLOAD PUSH2 0x1012 SWAP1 PUSH2 0x2116 JUMP JUMPDEST DUP1 PUSH1 0x1F ADD PUSH1 0x20 DUP1 SWAP2 DIV MUL PUSH1 0x20 ADD PUSH1 0x40 MLOAD SWAP1 DUP2 ADD PUSH1 0x40 MSTORE DUP1 SWAP3 SWAP2 SWAP1 DUP2 DUP2 MSTORE PUSH1 0x20 ADD DUP3 DUP1 SLOAD PUSH2 0x103E SWAP1 PUSH2 0x2116 JUMP JUMPDEST DUP1 ISZERO PUSH2 0x1089 JUMPI DUP1 PUSH1 0x1F LT PUSH2 0x1060 JUMPI PUSH2 0x100 DUP1 DUP4 SLOAD DIV MUL DUP4 MSTORE SWAP2 PUSH1 0x20 ADD SWAP2 PUSH2 0x1089 JUMP JUMPDEST DUP3 ADD SWAP2 SWAP1 PUSH0 MSTORE PUSH1 0x20 PUSH0 KECCAK256 SWAP1 JUMPDEST DUP2 SLOAD DUP2 MSTORE SWAP1 PUSH1 0x1 ADD SWAP1 PUSH1 0x20 ADD DUP1 DUP4 GT PUSH2 0x106C JUMPI DUP3 SWAP1 SUB PUSH1 0x1F AND DUP3 ADD SWAP2 JUMPDEST POP POP POP POP POP SWAP1 DUP1 PUSH1 0x3 ADD DUP1 SLOAD PUSH2 0x109E SWAP1 PUSH2 0x2116 JUMP JUMPDEST DUP1 PUSH1 0x1F ADD PUSH1 0x20 DUP1 SWAP2 DIV MUL PUSH1 0x20 ADD PUSH1 0x40 MLOAD SWAP1 DUP2 ADD PUSH1 0x40 MSTORE DUP1 SWAP3 SWAP2 SWAP1 DUP2 DUP2 MSTORE PUSH1 0x20 ADD DUP3 DUP1 SLOAD PUSH2 0x10CA SWAP1 PUSH2 0x2116 JUMP JUMPDEST DUP1 ISZERO PUSH2 0x1115 JUMPI DUP1 PUSH1 0x1F LT PUSH2 0x10EC JUMPI PUSH2 0x100 DUP1 DUP4 SLOAD DIV MUL DUP4 MSTORE SWAP2 PUSH1 0x20 ADD SWAP2 PUSH2 0x1115 JUMP JUMPDEST DUP3 ADD SWAP2 SWAP1 PUSH0 MSTORE PUSH1 0x20 PUSH0 KECCAK256 SWAP1 JUMPDEST DUP2 SLOAD DUP2 MSTORE SWAP1 PUSH1 0x1 ADD SWAP1 PUSH1 0x20 ADD DUP1 DUP4 GT PUSH2 0x10F8 JUMPI DUP3 SWAP1 SUB PUSH1 0x1F AND DUP3 ADD SWAP2 JUMPDEST POP POP POP POP POP SWAP1 DUP1 PUSH1 0x4 ADD SLOAD SWAP1 DUP1 PUSH1 0x5 ADD PUSH0 SWAP1 SLOAD SWAP1 PUSH2 0x100 EXP SWAP1 DIV PUSH20 0xFFFFFFFFFFFFFFFFFFFFFFFFFFFFFFFFFFFFFFFF AND SWAP1 POP DUP7 JUMP JUMPDEST PUSH1 0x60 DUP1 PUSH0 PUSH1 0x4 PUSH0 DUP6 DUP2 MSTORE PUSH1 0x20 ADD SWAP1 DUP2 MSTORE PUSH1 0x20 ADD PUSH0 KECCAK256 PUSH1 0x40 MLOAD DUP1 PUSH1 0xC0 ADD PUSH1 0x40 MSTORE SWAP1 DUP2 PUSH0 DUP3 ADD SLOAD DUP2 MSTORE PUSH1 0x20 ADD PUSH1 0x1 DUP3 ADD DUP1 SLOAD PUSH2 0x1183 SWAP1 PUSH2 0x2116 JUMP JUMPDEST DUP1 PUSH1 0x1F ADD PUSH1 0x20 DUP1 SWAP2 DIV MUL PUSH1 0x20 ADD PUSH1 0x40 MLOAD SWAP1 DUP2 ADD PUSH1 0x40 MSTORE DUP1 SWAP3 SWAP2 SWAP1 DUP2 DUP2 MSTORE PUSH1 0x20 ADD DUP3 DUP1 SLOAD PUSH2 0x11AF SWAP1 PUSH2 0x2116 JUMP JUMPDEST DUP1 ISZERO PUSH2 0x11FA JUMPI DUP1 PUSH1 0x1F LT PUSH2 0x11D1 JUMPI PUSH2 0x100 DUP1 DUP4 SLOAD DIV MUL DUP4 MSTORE SWAP2 PUSH1 0x20 ADD SWAP2 PUSH2 0x11FA JUMP JUMPDEST DUP3 ADD SWAP2 SWAP1 PUSH0 MSTORE PUSH1 0x20 PUSH0 KECCAK256 SWAP1 JUMPDEST DUP2 SLOAD DUP2 MSTORE SWAP1 PUSH1 0x1 ADD SWAP1 PUSH1 0x20 ADD DUP1 DUP4 GT PUSH2 0x11DD JUMPI DUP3 SWAP1 SUB PUSH1 0x1F AND DUP3 ADD SWAP2 JUMPDEST POP POP POP POP POP DUP2 MSTORE PUSH1 0x20 ADD PUSH1 0x2 DUP3 ADD DUP1 SLOAD PUSH2 0x1213 SWAP1 PUSH2 0x2116 JUMP JUMPDEST DUP1 PUSH1 0x1F ADD PUSH1 0x20 DUP1 SWAP2 DIV MUL PUSH1 0x20 ADD PUSH1 0x40 MLOAD SWAP1 DUP2 ADD PUSH1 0x40 MSTORE DUP1 SWAP3 SWAP2 SWAP1 DUP2 DUP2 MSTORE PUSH1 0x20 ADD DUP3 DUP1 SLOAD PUSH2 0x123F SWAP1 PUSH2 0x2116 JUMP JUMPDEST DUP1 ISZERO PUSH2 0x128A JUMPI DUP1 PUSH1 0x1F LT PUSH2 0x1261 JUMPI PUSH2 0x100 DUP1 DUP4 SLOAD DIV MUL DUP4 MSTORE SWAP2 PUSH1 0x20 ADD SWAP2 PUSH2 0x128A JUMP JUMPDEST DUP3 ADD SWAP2 SWAP1 PUSH0 MSTORE PUSH1 0x20 PUSH0 KECCAK256 SWAP1 JUMPDEST DUP2 SLOAD DUP2 MSTORE SWAP1 PUSH1 0x1 ADD SWAP1 PUSH1 0x20 ADD DUP1 DUP4 GT PUSH2 0x126D JUMPI DUP3 SWAP1 SUB PUSH1 0x1F AND DUP3 ADD SWAP2 JUMPDEST POP POP POP POP POP DUP2 MSTORE PUSH1 0x20 ADD PUSH1 0x3 DUP3 ADD DUP1 SLOAD PUSH2 0x12A3 SWAP1 PUSH2 0x2116 JUMP JUMPDEST DUP1 PUSH1 0x1F ADD PUSH1 0x20 DUP1 SWAP2 DIV MUL PUSH1 0x20 ADD PUSH1 0x40 MLOAD SWAP1 DUP2 ADD PUSH1 0x40 MSTORE DUP1 SWAP3 SWAP2 SWAP1 DUP2 DUP2 MSTORE PUSH1 0x20 ADD DUP3 DUP1 SLOAD PUSH2 0x12CF SWAP1 PUSH2 0x2116 JUMP JUMPDEST DUP1 ISZERO PUSH2 0x131A JUMPI DUP1 PUSH1 0x1F LT PUSH2 0x12F1 JUMPI PUSH2 0x100 DUP1 DUP4 SLOAD DIV MUL DUP4 MSTORE SWAP2 PUSH1 0x20 ADD SWAP2 PUSH2 0x131A JUMP JUMPDEST DUP3 ADD SWAP2 SWAP1 PUSH0 MSTORE PUSH1 0x20 PUSH0 KECCAK256 SWAP1 JUMPDEST DUP2 SLOAD DUP2 MSTORE SWAP1 PUSH1 0x1 ADD SWAP1 PUSH1 0x20 ADD DUP1 DUP4 GT PUSH2 0x12FD JUMPI DUP3 SWAP1 SUB PUSH1 0x1F AND DUP3 ADD SWAP2 JUMPDEST POP POP POP POP POP DUP2 MSTORE PUSH1 0x20 ADD PUSH1 0x4 DUP3 ADD SLOAD DUP2 MSTORE PUSH1 0x20 ADD PUSH1 0x5 DUP3 ADD PUSH0 SWAP1 SLOAD SWAP1 PUSH2 0x100 EXP SWAP1 DIV PUSH20 0xFFFFFFFFFFFFFFFFFFFFFFFFFFFFFFFFFFFFFFFF AND PUSH20 0xFFFFFFFFFFFFFFFFFFFFFFFFFFFFFFFFFFFFFFFF AND PUSH20 0xFFFFFFFFFFFFFFFFFFFFFFFFFFFFFFFFFFFFFFFF AND DUP2 MSTORE POP POP SWAP1 POP DUP1 PUSH1 0x20 ADD MLOAD DUP2 PUSH1 0x40 ADD MLOAD SWAP3 POP SWAP3 POP POP SWAP2 POP SWAP2 JUMP JUMPDEST PUSH2 0x13A0 PUSH2 0x1690 JUMP JUMPDEST PUSH0 PUSH20 0xFFFFFFFFFFFFFFFFFFFFFFFFFFFFFFFFFFFFFFFF AND DUP2 PUSH20 0xFFFFFFFFFFFFFFFFFFFFFFFFFFFFFFFFFFFFFFFF AND SUB PUSH2 0x1410 JUMPI PUSH0 PUSH1 0x40 MLOAD PUSH32 0x1E4FBDF700000000000000000000000000000000000000000000000000000000 DUP2 MSTORE PUSH1 0x4 ADD PUSH2 0x1407 SWAP2 SWAP1 PUSH2 0x1DAD JUMP JUMPDEST PUSH1 0x40 MLOAD DUP1 SWAP2 SUB SWAP1 REVERT JUMPDEST PUSH2 0x1419 DUP2 PUSH2 0x1717 JUMP JUMPDEST POP JUMP JUMPDEST PUSH1 0x60 PUSH1 0x6 DUP1 SLOAD DUP1 PUSH1 0x20 MUL PUSH1 0x20 ADD PUSH1 0x40 MLOAD SWAP1 DUP2 ADD PUSH1 0x40 MSTORE DUP1 SWAP3 SWAP2 SWAP1 DUP2 DUP2 MSTORE PUSH1 0x20 ADD PUSH0 SWAP1 JUMPDEST DUP3 DUP3 LT ISZERO PUSH2 0x1687 JUMPI DUP4 DUP3 SWAP1 PUSH0 MSTORE PUSH1 0x20 PUSH0 KECCAK256 SWAP1 PUSH1 0x6 MUL ADD PUSH1 0x40 MLOAD DUP1 PUSH1 0xC0 ADD PUSH1 0x40 MSTORE SWAP1 DUP2 PUSH0 DUP3 ADD SLOAD DUP2 MSTORE PUSH1 0x20 ADD PUSH1 0x1 DUP3 ADD DUP1 SLOAD PUSH2 0x1479 SWAP1 PUSH2 0x2116 JUMP JUMPDEST DUP1 PUSH1 0x1F ADD PUSH1 0x20 DUP1 SWAP2 DIV MUL PUSH1 0x20 ADD PUSH1 0x40 MLOAD SWAP1 DUP2 ADD PUSH1 0x40 MSTORE DUP1 SWAP3 SWAP2 SWAP1 DUP2 DUP2 MSTORE PUSH1 0x20 ADD DUP3 DUP1 SLOAD PUSH2 0x14A5 SWAP1 PUSH2 0x2116 JUMP JUMPDEST DUP1 ISZERO PUSH2 0x14F0 JUMPI DUP1 PUSH1 0x1F LT PUSH2 0x14C7 JUMPI PUSH2 0x100 DUP1 DUP4 SLOAD DIV MUL DUP4 MSTORE SWAP2 PUSH1 0x20 ADD SWAP2 PUSH2 0x14F0 JUMP JUMPDEST DUP3 ADD SWAP2 SWAP1 PUSH0 MSTORE PUSH1 0x20 PUSH0 KECCAK256 SWAP1 JUMPDEST DUP2 SLOAD DUP2 MSTORE SWAP1 PUSH1 0x1 ADD SWAP1 PUSH1 0x20 ADD DUP1 DUP4 GT PUSH2 0x14D3 JUMPI DUP3 SWAP1 SUB PUSH1 0x1F AND DUP3 ADD SWAP2 JUMPDEST POP POP POP POP POP DUP2 MSTORE PUSH1 0x20 ADD PUSH1 0x2 DUP3 ADD DUP1 SLOAD PUSH2 0x1509 SWAP1 PUSH2 0x2116 JUMP JUMPDEST DUP1 PUSH1 0x1F ADD PUSH1 0x20 DUP1 SWAP2 DIV MUL PUSH1 0x20 ADD PUSH1 0x40 MLOAD SWAP1 DUP2 ADD PUSH1 0x40 MSTORE DUP1 SWAP3 SWAP2 SWAP1 DUP2 DUP2 MSTORE PUSH1 0x20 ADD DUP3 DUP1 SLOAD PUSH2 0x1535 SWAP1 PUSH2 0x2116 JUMP JUMPDEST DUP1 ISZERO PUSH2 0x1580 JUMPI DUP1 PUSH1 0x1F LT PUSH2 0x1557 JUMPI PUSH2 0x100 DUP1 DUP4 SLOAD DIV MUL DUP4 MSTORE SWAP2 PUSH1 0x20 ADD SWAP2 PUSH2 0x1580 JUMP JUMPDEST DUP3 ADD SWAP2 SWAP1 PUSH0 MSTORE PUSH1 0x20 PUSH0 KECCAK256 SWAP1 JUMPDEST DUP2 SLOAD DUP2 MSTORE SWAP1 PUSH1 0x1 ADD SWAP1 PUSH1 0x20 ADD DUP1 DUP4 GT PUSH2 0x1563 JUMPI DUP3 SWAP1 SUB PUSH1 0x1F AND DUP3 ADD SWAP2 JUMPDEST POP POP POP POP POP DUP2 MSTORE PUSH1 0x20 ADD PUSH1 0x3 DUP3 ADD DUP1 SLOAD PUSH2 0x1599 SWAP1 PUSH2 0x2116 JUMP JUMPDEST DUP1 PUSH1 0x1F ADD PUSH1 0x20 DUP1 SWAP2 DIV MUL PUSH1 0x20 ADD PUSH1 0x40 MLOAD SWAP1 DUP2 ADD PUSH1 0x40 MSTORE DUP1 SWAP3 SWAP2 SWAP1 DUP2 DUP2 MSTORE PUSH1 0x20 ADD DUP3 DUP1 SLOAD PUSH2 0x15C5 SWAP1 PUSH2 0x2116 JUMP JUMPDEST DUP1 ISZERO PUSH2 0x1610 JUMPI DUP1 PUSH1 0x1F LT PUSH2 0x15E7 JUMPI PUSH2 0x100 DUP1 DUP4 SLOAD DIV MUL DUP4 MSTORE SWAP2 PUSH1 0x20 ADD SWAP2 PUSH2 0x1610 JUMP JUMPDEST DUP3 ADD SWAP2 SWAP1 PUSH0 MSTORE PUSH1 0x20 PUSH0 KECCAK256 SWAP1 JUMPDEST DUP2 SLOAD DUP2 MSTORE SWAP1 PUSH1 0x1 ADD SWAP1 PUSH1 0x20 ADD DUP1 DUP4 GT PUSH2 0x15F3 JUMPI DUP3 SWAP1 SUB PUSH1 0x1F AND DUP3 ADD SWAP2 JUMPDEST POP POP POP POP POP DUP2 MSTORE PUSH1 0x20 ADD PUSH1 0x4 DUP3 ADD SLOAD DUP2 MSTORE PUSH1 0x20 ADD PUSH1 0x5 DUP3 ADD PUSH0 SWAP1 SLOAD SWAP1 PUSH2 0x100 EXP SWAP1 DIV PUSH20 0xFFFFFFFFFFFFFFFFFFFFFFFFFFFFFFFFFFFFFFFF AND PUSH20 0xFFFFFFFFFFFFFFFFFFFFFFFFFFFFFFFFFFFFFFFF AND PUSH20 0xFFFFFFFFFFFFFFFFFFFFFFFFFFFFFFFFFFFFFFFF AND DUP2 MSTORE POP POP DUP2 MSTORE PUSH1 0x20 ADD SWAP1 PUSH1 0x1 ADD SWAP1 PUSH2 0x143F JUMP JUMPDEST POP POP POP POP SWAP1 POP SWAP1 JUMP JUMPDEST PUSH2 0x1698 PUSH2 0x17D8 JUMP JUMPDEST PUSH20 0xFFFFFFFFFFFFFFFFFFFFFFFFFFFFFFFFFFFFFFFF AND PUSH2 0x16B6 PUSH2 0xD28 JUMP JUMPDEST PUSH20 0xFFFFFFFFFFFFFFFFFFFFFFFFFFFFFFFFFFFFFFFF AND EQ PUSH2 0x1715 JUMPI PUSH2 0x16D9 PUSH2 0x17D8 JUMP JUMPDEST PUSH1 0x40 MLOAD PUSH32 0x118CDAA700000000000000000000000000000000000000000000000000000000 DUP2 MSTORE PUSH1 0x4 ADD PUSH2 0x170C SWAP2 SWAP1 PUSH2 0x1DAD JUMP JUMPDEST PUSH1 0x40 MLOAD DUP1 SWAP2 SUB SWAP1 REVERT JUMPDEST JUMP JUMPDEST PUSH0 DUP1 PUSH0 SWAP1 SLOAD SWAP1 PUSH2 0x100 EXP SWAP1 DIV PUSH20 0xFFFFFFFFFFFFFFFFFFFFFFFFFFFFFFFFFFFFFFFF AND SWAP1 POP DUP2 PUSH0 DUP1 PUSH2 0x100 EXP DUP2 SLOAD DUP2 PUSH20 0xFFFFFFFFFFFFFFFFFFFFFFFFFFFFFFFFFFFFFFFF MUL NOT AND SWAP1 DUP4 PUSH20 0xFFFFFFFFFFFFFFFFFFFFFFFFFFFFFFFFFFFFFFFF AND MUL OR SWAP1 SSTORE POP DUP2 PUSH20 0xFFFFFFFFFFFFFFFFFFFFFFFFFFFFFFFFFFFFFFFF AND DUP2 PUSH20 0xFFFFFFFFFFFFFFFFFFFFFFFFFFFFFFFFFFFFFFFF AND PUSH32 0x8BE0079C531659141344CD1FD0A4F28419497F9722A3DAAFE3B4186F6B6457E0 PUSH1 0x40 MLOAD PUSH1 0x40 MLOAD DUP1 SWAP2 SUB SWAP1 LOG3 POP POP JUMP JUMPDEST PUSH0 CALLER SWAP1 POP SWAP1 JUMP JUMPDEST PUSH0 PUSH1 0x40 MLOAD SWAP1 POP SWAP1 JUMP JUMPDEST PUSH0 DUP1 REVERT JUMPDEST PUSH0 DUP1 REVERT JUMPDEST PUSH0 DUP2 SWAP1 POP SWAP2 SWAP1 POP JUMP JUMPDEST PUSH2 0x1802 DUP2 PUSH2 0x17F0 JUMP JUMPDEST DUP2 EQ PUSH2 0x180C JUMPI PUSH0 DUP1 REVERT JUMPDEST POP JUMP JUMPDEST PUSH0 DUP2 CALLDATALOAD SWAP1 POP PUSH2 0x181D DUP2 PUSH2 0x17F9 JUMP JUMPDEST SWAP3 SWAP2 POP POP JUMP JUMPDEST PUSH0 PUSH1 0x20 DUP3 DUP5 SUB SLT ISZERO PUSH2 0x1838 JUMPI PUSH2 0x1837 PUSH2 0x17E8 JUMP JUMPDEST JUMPDEST PUSH0 PUSH2 0x1845 DUP5 DUP3 DUP6 ADD PUSH2 0x180F JUMP JUMPDEST SWAP2 POP POP SWAP3 SWAP2 POP POP JUMP JUMPDEST PUSH2 0x1857 DUP2 PUSH2 0x17F0 JUMP JUMPDEST DUP3 MSTORE POP POP JUMP JUMPDEST PUSH0 DUP2 MLOAD SWAP1 POP SWAP2 SWAP1 POP JUMP JUMPDEST PUSH0 DUP3 DUP3 MSTORE PUSH1 0x20 DUP3 ADD SWAP1 POP SWAP3 SWAP2 POP POP JUMP JUMPDEST DUP3 DUP2 DUP4 MCOPY PUSH0 DUP4 DUP4 ADD MSTORE POP POP POP JUMP JUMPDEST PUSH0 PUSH1 0x1F NOT PUSH1 0x1F DUP4 ADD AND SWAP1 POP SWAP2 SWAP1 POP JUMP JUMPDEST PUSH0 PUSH2 0x189F DUP3 PUSH2 0x185D JUMP JUMPDEST PUSH2 0x18A9 DUP2 DUP6 PUSH2 0x1867 JUMP JUMPDEST SWAP4 POP PUSH2 0x18B9 DUP2 DUP6 PUSH1 0x20 DUP7 ADD PUSH2 0x1877 JUMP JUMPDEST PUSH2 0x18C2 DUP2 PUSH2 0x1885 JUMP JUMPDEST DUP5 ADD SWAP2 POP POP SWAP3 SWAP2 POP POP JUMP JUMPDEST PUSH0 PUSH20 0xFFFFFFFFFFFFFFFFFFFFFFFFFFFFFFFFFFFFFFFF DUP3 AND SWAP1 POP SWAP2 SWAP1 POP JUMP JUMPDEST PUSH0 PUSH2 0x18F6 DUP3 PUSH2 0x18CD JUMP JUMPDEST SWAP1 POP SWAP2 SWAP1 POP JUMP JUMPDEST PUSH2 0x1906 DUP2 PUSH2 0x18EC JUMP JUMPDEST DUP3 MSTORE POP POP JUMP JUMPDEST PUSH0 PUSH1 0xC0 DUP3 ADD SWAP1 POP PUSH2 0x191F PUSH0 DUP4 ADD DUP10 PUSH2 0x184E JUMP JUMPDEST DUP2 DUP2 SUB PUSH1 0x20 DUP4 ADD MSTORE PUSH2 0x1931 DUP2 DUP9 PUSH2 0x1895 JUMP JUMPDEST SWAP1 POP DUP2 DUP2 SUB PUSH1 0x40 DUP4 ADD MSTORE PUSH2 0x1945 DUP2 DUP8 PUSH2 0x1895 JUMP JUMPDEST SWAP1 POP DUP2 DUP2 SUB PUSH1 0x60 DUP4 ADD MSTORE PUSH2 0x1959 DUP2 DUP7 PUSH2 0x1895 JUMP JUMPDEST SWAP1 POP PUSH2 0x1968 PUSH1 0x80 DUP4 ADD DUP6 PUSH2 0x184E JUMP JUMPDEST PUSH2 0x1975 PUSH1 0xA0 DUP4 ADD DUP5 PUSH2 0x18FD JUMP JUMPDEST SWAP8 SWAP7 POP POP POP POP POP POP POP JUMP JUMPDEST PUSH2 0x1989 DUP2 PUSH2 0x18EC JUMP JUMPDEST DUP2 EQ PUSH2 0x1993 JUMPI PUSH0 DUP1 REVERT JUMPDEST POP JUMP JUMPDEST PUSH0 DUP2 CALLDATALOAD SWAP1 POP PUSH2 0x19A4 DUP2 PUSH2 0x1980 JUMP JUMPDEST SWAP3 SWAP2 POP POP JUMP JUMPDEST PUSH0 PUSH1 0x20 DUP3 DUP5 SUB SLT ISZERO PUSH2 0x19BF JUMPI PUSH2 0x19BE PUSH2 0x17E8 JUMP JUMPDEST JUMPDEST PUSH0 PUSH2 0x19CC DUP5 DUP3 DUP6 ADD PUSH2 0x1996 JUMP JUMPDEST SWAP2 POP POP SWAP3 SWAP2 POP POP JUMP JUMPDEST PUSH0 DUP2 MLOAD SWAP1 POP SWAP2 SWAP1 POP JUMP JUMPDEST PUSH0 DUP3 DUP3 MSTORE PUSH1 0x20 DUP3 ADD SWAP1 POP SWAP3 SWAP2 POP POP JUMP JUMPDEST PUSH0 DUP2 SWAP1 POP PUSH1 0x20 DUP3 ADD SWAP1 POP SWAP2 SWAP1 POP JUMP JUMPDEST PUSH2 0x1A07 DUP2 PUSH2 0x17F0 JUMP JUMPDEST DUP3 MSTORE POP POP JUMP JUMPDEST PUSH0 DUP3 DUP3 MSTORE PUSH1 0x20 DUP3 ADD SWAP1 POP SWAP3 SWAP2 POP POP JUMP JUMPDEST PUSH0 PUSH2 0x1A27 DUP3 PUSH2 0x185D JUMP JUMPDEST PUSH2 0x1A31 DUP2 DUP6 PUSH2 0x1A0D JUMP JUMPDEST SWAP4 POP PUSH2 0x1A41 DUP2 DUP6 PUSH1 0x20 DUP7 ADD PUSH2 0x1877 JUMP JUMPDEST PUSH2 0x1A4A DUP2 PUSH2 0x1885 JUMP JUMPDEST DUP5 ADD SWAP2 POP POP SWAP3 SWAP2 POP POP JUMP JUMPDEST PUSH2 0x1A5E DUP2 PUSH2 0x18EC JUMP JUMPDEST DUP3 MSTORE POP POP JUMP JUMPDEST PUSH0 PUSH1 0xC0 DUP4 ADD PUSH0 DUP4 ADD MLOAD PUSH2 0x1A79 PUSH0 DUP7 ADD DUP3 PUSH2 0x19FE JUMP JUMPDEST POP PUSH1 0x20 DUP4 ADD MLOAD DUP5 DUP3 SUB PUSH1 0x20 DUP7 ADD MSTORE PUSH2 0x1A91 DUP3 DUP3 PUSH2 0x1A1D JUMP JUMPDEST SWAP2 POP POP PUSH1 0x40 DUP4 ADD MLOAD DUP5 DUP3 SUB PUSH1 0x40 DUP7 ADD MSTORE PUSH2 0x1AAB DUP3 DUP3 PUSH2 0x1A1D JUMP JUMPDEST SWAP2 POP POP PUSH1 0x60 DUP4 ADD MLOAD DUP5 DUP3 SUB PUSH1 0x60 DUP7 ADD MSTORE PUSH2 0x1AC5 DUP3 DUP3 PUSH2 0x1A1D JUMP JUMPDEST SWAP2 POP POP PUSH1 0x80 DUP4 ADD MLOAD PUSH2 0x1ADA PUSH1 0x80 DUP7 ADD DUP3 PUSH2 0x19FE JUMP JUMPDEST POP PUSH1 0xA0 DUP4 ADD MLOAD PUSH2 0x1AED PUSH1 0xA0 DUP7 ADD DUP3 PUSH2 0x1A55 JUMP JUMPDEST POP DUP1 SWAP2 POP POP SWAP3 SWAP2 POP POP JUMP JUMPDEST PUSH0 PUSH2 0x1B03 DUP4 DUP4 PUSH2 0x1A64 JUMP JUMPDEST SWAP1 POP SWAP3 SWAP2 POP POP JUMP JUMPDEST PUSH0 PUSH1 0x20 DUP3 ADD SWAP1 POP SWAP2 SWAP1 POP JUMP JUMPDEST PUSH0 PUSH2 0x1B21 DUP3 PUSH2 0x19D5 JUMP JUMPDEST PUSH2 0x1B2B DUP2 DUP6 PUSH2 0x19DF JUMP JUMPDEST SWAP4 POP DUP4 PUSH1 0x20 DUP3 MUL DUP6 ADD PUSH2 0x1B3D DUP6 PUSH2 0x19EF JUMP JUMPDEST DUP1 PUSH0 JUMPDEST DUP6 DUP2 LT ISZERO PUSH2 0x1B78 JUMPI DUP5 DUP5 SUB DUP10 MSTORE DUP2 MLOAD PUSH2 0x1B59 DUP6 DUP3 PUSH2 0x1AF8 JUMP JUMPDEST SWAP5 POP PUSH2 0x1B64 DUP4 PUSH2 0x1B0B JUMP JUMPDEST SWAP3 POP PUSH1 0x20 DUP11 ADD SWAP10 POP POP PUSH1 0x1 DUP2 ADD SWAP1 POP PUSH2 0x1B40 JUMP JUMPDEST POP DUP3 SWAP8 POP DUP8 SWAP6 POP POP POP POP POP POP SWAP3 SWAP2 POP POP JUMP JUMPDEST PUSH0 PUSH1 0x20 DUP3 ADD SWAP1 POP DUP2 DUP2 SUB PUSH0 DUP4 ADD MSTORE PUSH2 0x1BA2 DUP2 DUP5 PUSH2 0x1B17 JUMP JUMPDEST SWAP1 POP SWAP3 SWAP2 POP POP JUMP JUMPDEST PUSH0 DUP2 ISZERO ISZERO SWAP1 POP SWAP2 SWAP1 POP JUMP JUMPDEST PUSH2 0x1BBE DUP2 PUSH2 0x1BAA JUMP JUMPDEST DUP3 MSTORE POP POP JUMP JUMPDEST PUSH0 PUSH1 0x20 DUP3 ADD SWAP1 POP PUSH2 0x1BD7 PUSH0 DUP4 ADD DUP5 PUSH2 0x1BB5 JUMP JUMPDEST SWAP3 SWAP2 POP POP JUMP JUMPDEST PUSH0 DUP1 REVERT JUMPDEST PUSH0 DUP1 REVERT JUMPDEST PUSH32 0x4E487B7100000000000000000000000000000000000000000000000000000000 PUSH0 MSTORE PUSH1 0x41 PUSH1 0x4 MSTORE PUSH1 0x24 PUSH0 REVERT JUMPDEST PUSH2 0x1C1B DUP3 PUSH2 0x1885 JUMP JUMPDEST DUP2 ADD DUP2 DUP2 LT PUSH8 0xFFFFFFFFFFFFFFFF DUP3 GT OR ISZERO PUSH2 0x1C3A JUMPI PUSH2 0x1C39 PUSH2 0x1BE5 JUMP JUMPDEST JUMPDEST DUP1 PUSH1 0x40 MSTORE POP POP POP JUMP JUMPDEST PUSH0 PUSH2 0x1C4C PUSH2 0x17DF JUMP JUMPDEST SWAP1 POP PUSH2 0x1C58 DUP3 DUP3 PUSH2 0x1C12 JUMP JUMPDEST SWAP2 SWAP1 POP JUMP JUMPDEST PUSH0 PUSH8 0xFFFFFFFFFFFFFFFF DUP3 GT ISZERO PUSH2 0x1C77 JUMPI PUSH2 0x1C76 PUSH2 0x1BE5 JUMP JUMPDEST JUMPDEST PUSH2 0x1C80 DUP3 PUSH2 0x1885 JUMP JUMPDEST SWAP1 POP PUSH1 0x20 DUP2 ADD SWAP1 POP SWAP2 SWAP1 POP JUMP JUMPDEST DUP3 DUP2 DUP4 CALLDATACOPY PUSH0 DUP4 DUP4 ADD MSTORE POP POP POP JUMP JUMPDEST PUSH0 PUSH2 0x1CAD PUSH2 0x1CA8 DUP5 PUSH2 0x1C5D JUMP JUMPDEST PUSH2 0x1C43 JUMP JUMPDEST SWAP1 POP DUP3 DUP2 MSTORE PUSH1 0x20 DUP2 ADD DUP5 DUP5 DUP5 ADD GT ISZERO PUSH2 0x1CC9 JUMPI PUSH2 0x1CC8 PUSH2 0x1BE1 JUMP JUMPDEST JUMPDEST PUSH2 0x1CD4 DUP5 DUP3 DUP6 PUSH2 0x1C8D JUMP JUMPDEST POP SWAP4 SWAP3 POP POP POP JUMP JUMPDEST PUSH0 DUP3 PUSH1 0x1F DUP4 ADD SLT PUSH2 0x1CF0 JUMPI PUSH2 0x1CEF PUSH2 0x1BDD JUMP JUMPDEST JUMPDEST DUP2 CALLDATALOAD PUSH2 0x1D00 DUP5 DUP3 PUSH1 0x20 DUP7 ADD PUSH2 0x1C9B JUMP JUMPDEST SWAP2 POP POP SWAP3 SWAP2 POP POP JUMP JUMPDEST PUSH0 DUP1 PUSH0 PUSH1 0x60 DUP5 DUP7 SUB SLT ISZERO PUSH2 0x1D20 JUMPI PUSH2 0x1D1F PUSH2 0x17E8 JUMP JUMPDEST JUMPDEST PUSH0 DUP5 ADD CALLDATALOAD PUSH8 0xFFFFFFFFFFFFFFFF DUP2 GT ISZERO PUSH2 0x1D3D JUMPI PUSH2 0x1D3C PUSH2 0x17EC JUMP JUMPDEST JUMPDEST PUSH2 0x1D49 DUP7 DUP3 DUP8 ADD PUSH2 0x1CDC JUMP JUMPDEST SWAP4 POP POP PUSH1 0x20 DUP5 ADD CALLDATALOAD PUSH8 0xFFFFFFFFFFFFFFFF DUP2 GT ISZERO PUSH2 0x1D6A JUMPI PUSH2 0x1D69 PUSH2 0x17EC JUMP JUMPDEST JUMPDEST PUSH2 0x1D76 DUP7 DUP3 DUP8 ADD PUSH2 0x1CDC JUMP JUMPDEST SWAP3 POP POP PUSH1 0x40 DUP5 ADD CALLDATALOAD PUSH8 0xFFFFFFFFFFFFFFFF DUP2 GT ISZERO PUSH2 0x1D97 JUMPI PUSH2 0x1D96 PUSH2 0x17EC JUMP JUMPDEST JUMPDEST PUSH2 0x1DA3 DUP7 DUP3 DUP8 ADD PUSH2 0x1CDC JUMP JUMPDEST SWAP2 POP POP SWAP3 POP SWAP3 POP SWAP3 JUMP JUMPDEST PUSH0 PUSH1 0x20 DUP3 ADD SWAP1 POP PUSH2 0x1DC0 PUSH0 DUP4 ADD DUP5 PUSH2 0x18FD JUMP JUMPDEST SWAP3 SWAP2 POP POP JUMP JUMPDEST PUSH0 DUP1 PUSH1 0x40 DUP4 DUP6 SUB SLT ISZERO PUSH2 0x1DDC JUMPI PUSH2 0x1DDB PUSH2 0x17E8 JUMP JUMPDEST JUMPDEST PUSH0 PUSH2 0x1DE9 DUP6 DUP3 DUP7 ADD PUSH2 0x1996 JUMP JUMPDEST SWAP3 POP POP PUSH1 0x20 PUSH2 0x1DFA DUP6 DUP3 DUP7 ADD PUSH2 0x180F JUMP JUMPDEST SWAP2 POP POP SWAP3 POP SWAP3 SWAP1 POP JUMP JUMPDEST PUSH0 PUSH1 0x40 DUP3 ADD SWAP1 POP DUP2 DUP2 SUB PUSH0 DUP4 ADD MSTORE PUSH2 0x1E1C DUP2 DUP6 PUSH2 0x1895 JUMP JUMPDEST SWAP1 POP DUP2 DUP2 SUB PUSH1 0x20 DUP4 ADD MSTORE PUSH2 0x1E30 DUP2 DUP5 PUSH2 0x1895 JUMP JUMPDEST SWAP1 POP SWAP4 SWAP3 POP POP POP JUMP JUMPDEST PUSH0 DUP1 REVERT JUMPDEST PUSH0 DUP1 REVERT JUMPDEST PUSH0 PUSH2 0x1E53 PUSH2 0x1E4E DUP5 PUSH2 0x1C5D JUMP JUMPDEST PUSH2 0x1C43 JUMP JUMPDEST SWAP1 POP DUP3 DUP2 MSTORE PUSH1 0x20 DUP2 ADD DUP5 DUP5 DUP5 ADD GT ISZERO PUSH2 0x1E6F JUMPI PUSH2 0x1E6E PUSH2 0x1BE1 JUMP JUMPDEST JUMPDEST PUSH2 0x1E7A DUP5 DUP3 DUP6 PUSH2 0x1877 JUMP JUMPDEST POP SWAP4 SWAP3 POP POP POP JUMP JUMPDEST PUSH0 DUP3 PUSH1 0x1F DUP4 ADD SLT PUSH2 0x1E96 JUMPI PUSH2 0x1E95 PUSH2 0x1BDD JUMP JUMPDEST JUMPDEST DUP2 MLOAD PUSH2 0x1EA6 DUP5 DUP3 PUSH1 0x20 DUP7 ADD PUSH2 0x1E41 JUMP JUMPDEST SWAP2 POP POP SWAP3 SWAP2 POP POP JUMP JUMPDEST PUSH2 0x1EB8 DUP2 PUSH2 0x1BAA JUMP JUMPDEST DUP2 EQ PUSH2 0x1EC2 JUMPI PUSH0 DUP1 REVERT JUMPDEST POP JUMP JUMPDEST PUSH0 DUP2 MLOAD SWAP1 POP PUSH2 0x1ED3 DUP2 PUSH2 0x1EAF JUMP JUMPDEST SWAP3 SWAP2 POP POP JUMP JUMPDEST PUSH0 PUSH1 0x60 DUP3 DUP5 SUB SLT ISZERO PUSH2 0x1EEE JUMPI PUSH2 0x1EED PUSH2 0x1E39 JUMP JUMPDEST JUMPDEST PUSH2 0x1EF8 PUSH1 0x60 PUSH2 0x1C43 JUMP JUMPDEST SWAP1 POP PUSH0 DUP3 ADD MLOAD PUSH8 0xFFFFFFFFFFFFFFFF DUP2 GT ISZERO PUSH2 0x1F17 JUMPI PUSH2 0x1F16 PUSH2 0x1E3D JUMP JUMPDEST JUMPDEST PUSH2 0x1F23 DUP5 DUP3 DUP6 ADD PUSH2 0x1E82 JUMP JUMPDEST PUSH0 DUP4 ADD MSTORE POP PUSH1 0x20 DUP3 ADD MLOAD PUSH8 0xFFFFFFFFFFFFFFFF DUP2 GT ISZERO PUSH2 0x1F46 JUMPI PUSH2 0x1F45 PUSH2 0x1E3D JUMP JUMPDEST JUMPDEST PUSH2 0x1F52 DUP5 DUP3 DUP6 ADD PUSH2 0x1E82 JUMP JUMPDEST PUSH1 0x20 DUP4 ADD MSTORE POP PUSH1 0x40 PUSH2 0x1F66 DUP5 DUP3 DUP6 ADD PUSH2 0x1EC5 JUMP JUMPDEST PUSH1 0x40 DUP4 ADD MSTORE POP SWAP3 SWAP2 POP POP JUMP JUMPDEST PUSH0 PUSH1 0x20 DUP3 DUP5 SUB SLT ISZERO PUSH2 0x1F87 JUMPI PUSH2 0x1F86 PUSH2 0x17E8 JUMP JUMPDEST JUMPDEST PUSH0 DUP3 ADD MLOAD PUSH8 0xFFFFFFFFFFFFFFFF DUP2 GT ISZERO PUSH2 0x1FA4 JUMPI PUSH2 0x1FA3 PUSH2 0x17EC JUMP JUMPDEST JUMPDEST PUSH2 0x1FB0 DUP5 DUP3 DUP6 ADD PUSH2 0x1ED9 JUMP JUMPDEST SWAP2 POP POP SWAP3 SWAP2 POP POP JUMP JUMPDEST PUSH32 0x596F75206861766520746F205265676973746572640000000000000000000000 PUSH0 DUP3 ADD MSTORE POP JUMP JUMPDEST PUSH0 PUSH2 0x1FED PUSH1 0x15 DUP4 PUSH2 0x1867 JUMP JUMPDEST SWAP2 POP PUSH2 0x1FF8 DUP3 PUSH2 0x1FB9 JUMP JUMPDEST PUSH1 0x20 DUP3 ADD SWAP1 POP SWAP2 SWAP1 POP JUMP JUMPDEST PUSH0 PUSH1 0x20 DUP3 ADD SWAP1 POP DUP2 DUP2 SUB PUSH0 DUP4 ADD MSTORE PUSH2 0x201A DUP2 PUSH2 0x1FE1 JUMP JUMPDEST SWAP1 POP SWAP2 SWAP1 POP JUMP JUMPDEST PUSH32 0x596F752061726520616C726561647920566F7465642100000000000000000000 PUSH0 DUP3 ADD MSTORE POP JUMP JUMPDEST PUSH0 PUSH2 0x2055 PUSH1 0x16 DUP4 PUSH2 0x1867 JUMP JUMPDEST SWAP2 POP PUSH2 0x2060 DUP3 PUSH2 0x2021 JUMP JUMPDEST PUSH1 0x20 DUP3 ADD SWAP1 POP SWAP2 SWAP1 POP JUMP JUMPDEST PUSH0 PUSH1 0x20 DUP3 ADD SWAP1 POP DUP2 DUP2 SUB PUSH0 DUP4 ADD MSTORE PUSH2 0x2082 DUP2 PUSH2 0x2049 JUMP JUMPDEST SWAP1 POP SWAP2 SWAP1 POP JUMP JUMPDEST PUSH32 0x4E487B7100000000000000000000000000000000000000000000000000000000 PUSH0 MSTORE PUSH1 0x11 PUSH1 0x4 MSTORE PUSH1 0x24 PUSH0 REVERT JUMPDEST PUSH0 PUSH2 0x20C0 DUP3 PUSH2 0x17F0 JUMP JUMPDEST SWAP2 POP PUSH2 0x20CB DUP4 PUSH2 0x17F0 JUMP JUMPDEST SWAP3 POP DUP3 DUP3 ADD SWAP1 POP DUP1 DUP3 GT ISZERO PUSH2 0x20E3 JUMPI PUSH2 0x20E2 PUSH2 0x2089 JUMP JUMPDEST JUMPDEST SWAP3 SWAP2 POP POP JUMP JUMPDEST PUSH32 0x4E487B7100000000000000000000000000000000000000000000000000000000 PUSH0 MSTORE PUSH1 0x22 PUSH1 0x4 MSTORE PUSH1 0x24 PUSH0 REVERT JUMPDEST PUSH0 PUSH1 0x2 DUP3 DIV SWAP1 POP PUSH1 0x1 DUP3 AND DUP1 PUSH2 0x212D JUMPI PUSH1 0x7F DUP3 AND SWAP2 POP JUMPDEST PUSH1 0x20 DUP3 LT DUP2 SUB PUSH2 0x2140 JUMPI PUSH2 0x213F PUSH2 0x20E9 JUMP JUMPDEST JUMPDEST POP SWAP2 SWAP1 POP JUMP JUMPDEST PUSH0 DUP2 SWAP1 POP DUP2 PUSH0 MSTORE PUSH1 0x20 PUSH0 KECCAK256 SWAP1 POP SWAP2 SWAP1 POP JUMP JUMPDEST PUSH0 PUSH1 0x20 PUSH1 0x1F DUP4 ADD DIV SWAP1 POP SWAP2 SWAP1 POP JUMP JUMPDEST PUSH0 DUP3 DUP3 SHL SWAP1 POP SWAP3 SWAP2 POP POP JUMP JUMPDEST PUSH0 PUSH1 0x8 DUP4 MUL PUSH2 0x21A2 PUSH32 0xFFFFFFFFFFFFFFFFFFFFFFFFFFFFFFFFFFFFFFFFFFFFFFFFFFFFFFFFFFFFFFFF DUP3 PUSH2 0x2167 JUMP JUMPDEST PUSH2 0x21AC DUP7 DUP4 PUSH2 0x2167 JUMP JUMPDEST SWAP6 POP DUP1 NOT DUP5 AND SWAP4 POP DUP1 DUP7 AND DUP5 OR SWAP3 POP POP POP SWAP4 SWAP3 POP POP POP JUMP JUMPDEST PUSH0 DUP2 SWAP1 POP SWAP2 SWAP1 POP JUMP JUMPDEST PUSH0 PUSH2 0x21E7 PUSH2 0x21E2 PUSH2 0x21DD DUP5 PUSH2 0x17F0 JUMP JUMPDEST PUSH2 0x21C4 JUMP JUMPDEST PUSH2 0x17F0 JUMP JUMPDEST SWAP1 POP SWAP2 SWAP1 POP JUMP JUMPDEST PUSH0 DUP2 SWAP1 POP SWAP2 SWAP1 POP JUMP JUMPDEST PUSH2 0x2200 DUP4 PUSH2 0x21CD JUMP JUMPDEST PUSH2 0x2214 PUSH2 0x220C DUP3 PUSH2 0x21EE JUMP JUMPDEST DUP5 DUP5 SLOAD PUSH2 0x2173 JUMP JUMPDEST DUP3 SSTORE POP POP POP POP JUMP JUMPDEST PUSH0 SWAP1 JUMP JUMPDEST PUSH2 0x2228 PUSH2 0x221C JUMP JUMPDEST PUSH2 0x2233 DUP2 DUP5 DUP5 PUSH2 0x21F7 JUMP JUMPDEST POP POP POP JUMP JUMPDEST JUMPDEST DUP2 DUP2 LT ISZERO PUSH2 0x2256 JUMPI PUSH2 0x224B PUSH0 DUP3 PUSH2 0x2220 JUMP JUMPDEST PUSH1 0x1 DUP2 ADD SWAP1 POP PUSH2 0x2239 JUMP JUMPDEST POP POP JUMP JUMPDEST PUSH1 0x1F DUP3 GT ISZERO PUSH2 0x229B JUMPI PUSH2 0x226C DUP2 PUSH2 0x2146 JUMP JUMPDEST PUSH2 0x2275 DUP5 PUSH2 0x2158 JUMP JUMPDEST DUP2 ADD PUSH1 0x20 DUP6 LT ISZERO PUSH2 0x2284 JUMPI DUP2 SWAP1 POP JUMPDEST PUSH2 0x2298 PUSH2 0x2290 DUP6 PUSH2 0x2158 JUMP JUMPDEST DUP4 ADD DUP3 PUSH2 0x2238 JUMP JUMPDEST POP POP JUMPDEST POP POP POP JUMP JUMPDEST PUSH0 DUP3 DUP3 SHR SWAP1 POP SWAP3 SWAP2 POP POP JUMP JUMPDEST PUSH0 PUSH2 0x22BB PUSH0 NOT DUP5 PUSH1 0x8 MUL PUSH2 0x22A0 JUMP JUMPDEST NOT DUP1 DUP4 AND SWAP2 POP POP SWAP3 SWAP2 POP POP JUMP JUMPDEST PUSH0 PUSH2 0x22D3 DUP4 DUP4 PUSH2 0x22AC JUMP JUMPDEST SWAP2 POP DUP3 PUSH1 0x2 MUL DUP3 OR SWAP1 POP SWAP3 SWAP2 POP POP JUMP JUMPDEST PUSH2 0x22EC DUP3 PUSH2 0x185D JUMP JUMPDEST PUSH8 0xFFFFFFFFFFFFFFFF DUP2 GT ISZERO PUSH2 0x2305 JUMPI PUSH2 0x2304 PUSH2 0x1BE5 JUMP JUMPDEST JUMPDEST PUSH2 0x230F DUP3 SLOAD PUSH2 0x2116 JUMP JUMPDEST PUSH2 0x231A DUP3 DUP3 DUP6 PUSH2 0x225A JUMP JUMPDEST PUSH0 PUSH1 0x20 SWAP1 POP PUSH1 0x1F DUP4 GT PUSH1 0x1 DUP2 EQ PUSH2 0x234B JUMPI PUSH0 DUP5 ISZERO PUSH2 0x2339 JUMPI DUP3 DUP8 ADD MLOAD SWAP1 POP JUMPDEST PUSH2 0x2343 DUP6 DUP3 PUSH2 0x22C8 JUMP JUMPDEST DUP7 SSTORE POP PUSH2 0x23AA JUMP JUMPDEST PUSH1 0x1F NOT DUP5 AND PUSH2 0x2359 DUP7 PUSH2 0x2146 JUMP JUMPDEST PUSH0 JUMPDEST DUP3 DUP2 LT ISZERO PUSH2 0x2380 JUMPI DUP5 DUP10 ADD MLOAD DUP3 SSTORE PUSH1 0x1 DUP3 ADD SWAP2 POP PUSH1 0x20 DUP6 ADD SWAP5 POP PUSH1 0x20 DUP2 ADD SWAP1 POP PUSH2 0x235B JUMP JUMPDEST DUP7 DUP4 LT ISZERO PUSH2 0x239D JUMPI DUP5 DUP10 ADD MLOAD PUSH2 0x2399 PUSH1 0x1F DUP10 AND DUP3 PUSH2 0x22AC JUMP JUMPDEST DUP4 SSTORE POP JUMPDEST PUSH1 0x1 PUSH1 0x2 DUP9 MUL ADD DUP9 SSTORE POP POP POP JUMPDEST POP POP POP POP POP POP JUMP JUMPDEST PUSH0 DUP2 SLOAD SWAP1 POP PUSH2 0x23C0 DUP2 PUSH2 0x2116 JUMP JUMPDEST SWAP1 POP SWAP2 SWAP1 POP JUMP JUMPDEST DUP2 DUP2 SUB PUSH2 0x23D5 JUMPI POP POP PUSH2 0x24AA JUMP JUMPDEST PUSH2 0x23DE DUP3 PUSH2 0x23B2 JUMP JUMPDEST PUSH8 0xFFFFFFFFFFFFFFFF DUP2 GT ISZERO PUSH2 0x23F7 JUMPI PUSH2 0x23F6 PUSH2 0x1BE5 JUMP JUMPDEST JUMPDEST PUSH2 0x2401 DUP3 SLOAD PUSH2 0x2116 JUMP JUMPDEST PUSH2 0x240C DUP3 DUP3 DUP6 PUSH2 0x225A JUMP JUMPDEST PUSH0 PUSH1 0x1F DUP4 GT PUSH1 0x1 DUP2 EQ PUSH2 0x2439 JUMPI PUSH0 DUP5 ISZERO PUSH2 0x2427 JUMPI DUP3 DUP8 ADD SLOAD SWAP1 POP JUMPDEST PUSH2 0x2431 DUP6 DUP3 PUSH2 0x22C8 JUMP JUMPDEST DUP7 SSTORE POP PUSH2 0x24A3 JUMP JUMPDEST PUSH1 0x1F NOT DUP5 AND PUSH2 0x2447 DUP8 PUSH2 0x2146 JUMP JUMPDEST SWAP7 POP PUSH2 0x2452 DUP7 PUSH2 0x2146 JUMP JUMPDEST PUSH0 JUMPDEST DUP3 DUP2 LT ISZERO PUSH2 0x2479 JUMPI DUP5 DUP10 ADD SLOAD DUP3 SSTORE PUSH1 0x1 DUP3 ADD SWAP2 POP PUSH1 0x1 DUP6 ADD SWAP5 POP PUSH1 0x20 DUP2 ADD SWAP1 POP PUSH2 0x2454 JUMP JUMPDEST DUP7 DUP4 LT ISZERO PUSH2 0x2496 JUMPI DUP5 DUP10 ADD SLOAD PUSH2 0x2492 PUSH1 0x1F DUP10 AND DUP3 PUSH2 0x22AC JUMP JUMPDEST DUP4 SSTORE POP JUMPDEST PUSH1 0x1 PUSH1 0x2 DUP9 MUL ADD DUP9 SSTORE POP POP POP JUMPDEST POP POP POP POP POP POP JUMPDEST JUMP JUMPDEST PUSH0 PUSH2 0x24B6 DUP3 PUSH2 0x17F0 JUMP JUMPDEST SWAP2 POP PUSH32 0xFFFFFFFFFFFFFFFFFFFFFFFFFFFFFFFFFFFFFFFFFFFFFFFFFFFFFFFFFFFFFFFF DUP3 SUB PUSH2 0x24E8 JUMPI PUSH2 0x24E7 PUSH2 0x2089 JUMP JUMPDEST JUMPDEST PUSH1 0x1 DUP3 ADD SWAP1 POP SWAP2 SWAP1 POP JUMP INVALID LOG2 PUSH5 0x6970667358 0x22 SLT KECCAK256 SWAP13 EXTCODESIZE 0xEB PUSH17 0x68B2B8F59006C84D2E486C957807C7C229 0xE7 0xC4 PC 0x25 DUP8 PUSH30 0x6FB2F929D264736F6C634300081A00330000000000000000000000000000 "
				},
				"gasEstimates": {
					"creation": {
						"codeDepositCost": "1902600",
						"executionCost": "infinite",
						"totalCost": "infinite"
					},
					"external": {
						"createProposal(string,string,string)": "infinite",
						"gerAllProposal()": "infinite",
						"getMyProposal(address)": "infinite",
						"getProposal(uint256)": "infinite",
						"hasvoted(address)": "2900",
						"myProposal(address,uint256)": "infinite",
						"owner()": "2515",
						"proposalList(uint256)": "infinite",
						"proposals(uint256)": "infinite",
						"renounceOwnership()": "infinite",
						"transferOwnership(address)": "infinite",
						"vote(uint256)": "infinite"
					}
				},
				"methodIdentifiers": {
					"createProposal(string,string,string)": "583cf379",
					"gerAllProposal()": "f30282a1",
					"getMyProposal(address)": "159428d1",
					"getProposal(uint256)": "c7f758a8",
					"hasvoted(address)": "2b499cab",
					"myProposal(address,uint256)": "be07d1d9",
					"owner()": "8da5cb5b",
					"proposalList(uint256)": "c6311e3f",
					"proposals(uint256)": "013cf08b",
					"renounceOwnership()": "715018a6",
					"transferOwnership(address)": "f2fde38b",
					"vote(uint256)": "0121b93f"
				}
			},
			"storageLayout": {
				"storage": [
					{
						"astId": 8,
						"contract": "contracts/Voting.sol:Voting",
						"label": "_owner",
						"offset": 0,
						"slot": "0",
						"type": "t_address"
					},
					{
						"astId": 211,
						"contract": "contracts/Voting.sol:Voting",
						"label": "profileContract",
						"offset": 0,
						"slot": "1",
						"type": "t_contract(IProfile)202"
					},
					{
						"astId": 243,
						"contract": "contracts/Voting.sol:Voting",
						"label": "counterProposal",
						"offset": 0,
						"slot": "2",
						"type": "t_uint256"
					},
					{
						"astId": 261,
						"contract": "contracts/Voting.sol:Voting",
						"label": "myProposal",
						"offset": 0,
						"slot": "3",
						"type": "t_mapping(t_address,t_array(t_struct(Proposal)240_storage)dyn_storage)"
					},
					{
						"astId": 266,
						"contract": "contracts/Voting.sol:Voting",
						"label": "proposals",
						"offset": 0,
						"slot": "4",
						"type": "t_mapping(t_uint256,t_struct(Proposal)240_storage)"
					},
					{
						"astId": 270,
						"contract": "contracts/Voting.sol:Voting",
						"label": "hasvoted",
						"offset": 0,
						"slot": "5",
						"type": "t_mapping(t_address,t_bool)"
					},
					{
						"astId": 274,
						"contract": "contracts/Voting.sol:Voting",
						"label": "proposalList",
						"offset": 0,
						"slot": "6",
						"type": "t_array(t_struct(Proposal)240_storage)dyn_storage"
					}
				],
				"types": {
					"t_address": {
						"encoding": "inplace",
						"label": "address",
						"numberOfBytes": "20"
					},
					"t_array(t_struct(Proposal)240_storage)dyn_storage": {
						"base": "t_struct(Proposal)240_storage",
						"encoding": "dynamic_array",
						"label": "struct Voting.Proposal[]",
						"numberOfBytes": "32"
					},
					"t_bool": {
						"encoding": "inplace",
						"label": "bool",
						"numberOfBytes": "1"
					},
					"t_contract(IProfile)202": {
						"encoding": "inplace",
						"label": "contract IProfile",
						"numberOfBytes": "20"
					},
					"t_mapping(t_address,t_array(t_struct(Proposal)240_storage)dyn_storage)": {
						"encoding": "mapping",
						"key": "t_address",
						"label": "mapping(address => struct Voting.Proposal[])",
						"numberOfBytes": "32",
						"value": "t_array(t_struct(Proposal)240_storage)dyn_storage"
					},
					"t_mapping(t_address,t_bool)": {
						"encoding": "mapping",
						"key": "t_address",
						"label": "mapping(address => bool)",
						"numberOfBytes": "32",
						"value": "t_bool"
					},
					"t_mapping(t_uint256,t_struct(Proposal)240_storage)": {
						"encoding": "mapping",
						"key": "t_uint256",
						"label": "mapping(uint256 => struct Voting.Proposal)",
						"numberOfBytes": "32",
						"value": "t_struct(Proposal)240_storage"
					},
					"t_string_storage": {
						"encoding": "bytes",
						"label": "string",
						"numberOfBytes": "32"
					},
					"t_struct(Proposal)240_storage": {
						"encoding": "inplace",
						"label": "struct Voting.Proposal",
						"members": [
							{
								"astId": 229,
								"contract": "contracts/Voting.sol:Voting",
								"label": "id",
								"offset": 0,
								"slot": "0",
								"type": "t_uint256"
							},
							{
								"astId": 231,
								"contract": "contracts/Voting.sol:Voting",
								"label": "title",
								"offset": 0,
								"slot": "1",
								"type": "t_string_storage"
							},
							{
								"astId": 233,
								"contract": "contracts/Voting.sol:Voting",
								"label": "description",
								"offset": 0,
								"slot": "2",
								"type": "t_string_storage"
							},
							{
								"astId": 235,
								"contract": "contracts/Voting.sol:Voting",
								"label": "imgUrl",
								"offset": 0,
								"slot": "3",
								"type": "t_string_storage"
							},
							{
								"astId": 237,
								"contract": "contracts/Voting.sol:Voting",
								"label": "votes",
								"offset": 0,
								"slot": "4",
								"type": "t_uint256"
							},
							{
								"astId": 239,
								"contract": "contracts/Voting.sol:Voting",
								"label": "author",
								"offset": 0,
								"slot": "5",
								"type": "t_address"
							}
						],
						"numberOfBytes": "192"
					},
					"t_uint256": {
						"encoding": "inplace",
						"label": "uint256",
						"numberOfBytes": "32"
					}
				}
			},
			"userdoc": {
				"kind": "user",
				"methods": {},
				"version": 1
			}
		}
	}
}