{
	"data": {
		"bytecode": {
			"linkReferences": {},
			"object": "60806040525f600255348015610013575f80fd5b5060405161288c38038061288c8339818101604052810190610035919061021b565b335f73ffffffffffffffffffffffffffffffffffffffff168173ffffffffffffffffffffffffffffffffffffffff16036100a6575f6040517f1e4fbdf700000000000000000000000000000000000000000000000000000000815260040161009d9190610255565b60405180910390fd5b6100b5816100fc60201b60201c565b508060015f6101000a81548173ffffffffffffffffffffffffffffffffffffffff021916908373ffffffffffffffffffffffffffffffffffffffff1602179055505061026e565b5f805f9054906101000a900473ffffffffffffffffffffffffffffffffffffffff169050815f806101000a81548173ffffffffffffffffffffffffffffffffffffffff021916908373ffffffffffffffffffffffffffffffffffffffff1602179055508173ffffffffffffffffffffffffffffffffffffffff168173ffffffffffffffffffffffffffffffffffffffff167f8be0079c531659141344cd1fd0a4f28419497f9722a3daafe3b4186f6b6457e060405160405180910390a35050565b5f80fd5b5f73ffffffffffffffffffffffffffffffffffffffff82169050919050565b5f6101ea826101c1565b9050919050565b6101fa816101e0565b8114610204575f80fd5b50565b5f81519050610215816101f1565b92915050565b5f602082840312156102305761022f6101bd565b5b5f61023d84828501610207565b91505092915050565b61024f816101e0565b82525050565b5f6020820190506102685f830184610246565b92915050565b6126118061027b5f395ff3fe608060405234801561000f575f80fd5b50600436106100cd575f3560e01c80638da5cb5b1161008a578063c6311e3f11610064578063c6311e3f1461022b578063c7f758a814610260578063f2fde38b14610291578063f30282a1146102ad576100cd565b80638da5cb5b146101a8578063b3db05c8146101c6578063be07d1d9146101f6576100cd565b80630121b93f146100d1578063013cf08b146100ed578063159428d1146101225780632b499cab14610152578063583cf37914610182578063715018a61461019e575b5f80fd5b6100eb60048036038101906100e69190611894565b6102cb565b005b61010760048036038101906101029190611894565b6104bc565b6040516101199695949392919061197d565b60405180910390f35b61013c60048036038101906101379190611a1b565b6106a5565b6040516101499190611bfb565b60405180910390f35b61016c60048036038101906101679190611a1b565b610956565b6040516101799190611c35565b60405180910390f35b61019c60048036038101906101979190611d7a565b610973565b005b6101a6610d60565b005b6101b0610d73565b6040516101bd9190611e1e565b60405180910390f35b6101e060048036038101906101db9190611e37565b610d9a565b6040516101ed9190611bfb565b60405180910390f35b610210600480360381019061020b9190611e7e565b610dc0565b6040516102229695949392919061197d565b60405180910390f35b61024560048036038101906102409190611894565b610fc3565b6040516102579695949392919061197d565b60405180910390f35b61027a60048036038101906102759190611894565b6111bb565b604051610288929190611ebc565b60405180910390f35b6102ab60048036038101906102a69190611a1b565b611409565b005b6102b561148d565b6040516102c29190611bfb565b60405180910390f35b5f60015f9054906101000a900473ffffffffffffffffffffffffffffffffffffffff1673ffffffffffffffffffffffffffffffffffffffff16630f53a470336040518263ffffffff1660e01b81526004016103269190611e1e565b5f60405180830381865afa158015610340573d5f803e3d5ffd5b505050506040513d5f823e3d601f19601f82011682018060405250810190610368919061205a565b905080606001516103ae576040517f08c379a00000000000000000000000000000000000000000000000000000000081526004016103a5906120eb565b60405180910390fd5b60055f3373ffffffffffffffffffffffffffffffffffffffff1673ffffffffffffffffffffffffffffffffffffffff1681526020019081526020015f205f9054906101000a900460ff1615610438576040517f08c379a000000000000000000000000000000000000000000000000000000000815260040161042f90612153565b60405180910390fd5b600160045f8481526020019081526020015f206004015f82825461045c919061219e565b92505081905550600160055f3373ffffffffffffffffffffffffffffffffffffffff1673ffffffffffffffffffffffffffffffffffffffff1681526020019081526020015f205f6101000a81548160ff0219169083151502179055505050565b6004602052805f5260405f205f91509050805f0154908060010180546104e1906121fe565b80601f016020809104026020016040519081016040528092919081815260200182805461050d906121fe565b80156105585780601f1061052f57610100808354040283529160200191610558565b820191905f5260205f20905b81548152906001019060200180831161053b57829003601f168201915b50505050509080600201805461056d906121fe565b80601f0160208091040260200160405190810160405280929190818152602001828054610599906121fe565b80156105e45780601f106105bb576101008083540402835291602001916105e4565b820191905f5260205f20905b8154815290600101906020018083116105c757829003601f168201915b5050505050908060030180546105f9906121fe565b80601f0160208091040260200160405190810160405280929190818152602001828054610625906121fe565b80156106705780601f1061064757610100808354040283529160200191610670565b820191905f5260205f20905b81548152906001019060200180831161065357829003601f168201915b505050505090806004015490806005015f9054906101000a900473ffffffffffffffffffffffffffffffffffffffff16905086565b606060035f8373ffffffffffffffffffffffffffffffffffffffff1673ffffffffffffffffffffffffffffffffffffffff1681526020019081526020015f20805480602002602001604051908101604052809291908181526020015f905b8282101561094b578382905f5260205f2090600602016040518060c00160405290815f820154815260200160018201805461073d906121fe565b80601f0160208091040260200160405190810160405280929190818152602001828054610769906121fe565b80156107b45780601f1061078b576101008083540402835291602001916107b4565b820191905f5260205f20905b81548152906001019060200180831161079757829003601f168201915b505050505081526020016002820180546107cd906121fe565b80601f01602080910402602001604051908101604052809291908181526020018280546107f9906121fe565b80156108445780601f1061081b57610100808354040283529160200191610844565b820191905f5260205f20905b81548152906001019060200180831161082757829003601f168201915b5050505050815260200160038201805461085d906121fe565b80601f0160208091040260200160405190810160405280929190818152602001828054610889906121fe565b80156108d45780601f106108ab576101008083540402835291602001916108d4565b820191905f5260205f20905b8154815290600101906020018083116108b757829003601f168201915b5050505050815260200160048201548152602001600582015f9054906101000a900473ffffffffffffffffffffffffffffffffffffffff1673ffffffffffffffffffffffffffffffffffffffff1673ffffffffffffffffffffffffffffffffffffffff168152505081526020019060010190610703565b505050509050919050565b6005602052805f5260405f205f915054906101000a900460ff1681565b5f60015f9054906101000a900473ffffffffffffffffffffffffffffffffffffffff1673ffffffffffffffffffffffffffffffffffffffff16630f53a470336040518263ffffffff1660e01b81526004016109ce9190611e1e565b5f60405180830381865afa1580156109e8573d5f803e3d5ffd5b505050506040513d5f823e3d601f19601f82011682018060405250810190610a10919061205a565b90508060600151610a56576040517f08c379a0000000000000000000000000000000000000000000000000000000008152600401610a4d906120eb565b60405180910390fd5b5f6040518060c0016040528060025481526020018681526020018581526020018481526020015f81526020013373ffffffffffffffffffffffffffffffffffffffff1681525090508060045f60025481526020019081526020015f205f820151815f01556020820151816001019081610acf91906123cb565b506040820151816002019081610ae591906123cb565b506060820151816003019081610afb91906123cb565b506080820151816004015560a0820151816005015f6101000a81548173ffffffffffffffffffffffffffffffffffffffff021916908373ffffffffffffffffffffffffffffffffffffffff16021790555090505060035f3373ffffffffffffffffffffffffffffffffffffffff1673ffffffffffffffffffffffffffffffffffffffff1681526020019081526020015f2081908060018154018082558091505060019003905f5260205f2090600602015f909190919091505f820151815f01556020820151816001019081610bd091906123cb565b506040820151816002019081610be691906123cb565b506060820151816003019081610bfc91906123cb565b506080820151816004015560a0820151816005015f6101000a81548173ffffffffffffffffffffffffffffffffffffffff021916908373ffffffffffffffffffffffffffffffffffffffff1602179055505050600660045f60025481526020019081526020015f20908060018154018082558091505060019003905f5260205f2090600602015f909190919091505f820154815f015560018201816001019081610ca691906124af565b5060028201816002019081610cbb91906124af565b5060038201816003019081610cd091906124af565b5060048201548160040155600582015f9054906101000a900473ffffffffffffffffffffffffffffffffffffffff16816005015f6101000a81548173ffffffffffffffffffffffffffffffffffffffff021916908373ffffffffffffffffffffffffffffffffffffffff160217905550505060025f815480929190610d5490612594565b91905055505050505050565b610d68611701565b610d715f611788565b565b5f805f9054906101000a900473ffffffffffffffffffffffffffffffffffffffff16905090565b60605f805b600680549050811015610db9578080600101915050610d9f565b5050919050565b6003602052815f5260405f208181548110610dd9575f80fd5b905f5260205f2090600602015f9150915050805f015490806001018054610dff906121fe565b80601f0160208091040260200160405190810160405280929190818152602001828054610e2b906121fe565b8015610e765780601f10610e4d57610100808354040283529160200191610e76565b820191905f5260205f20905b815481529060010190602001808311610e5957829003601f168201915b505050505090806002018054610e8b906121fe565b80601f0160208091040260200160405190810160405280929190818152602001828054610eb7906121fe565b8015610f025780601f10610ed957610100808354040283529160200191610f02565b820191905f5260205f20905b815481529060010190602001808311610ee557829003601f168201915b505050505090806003018054610f17906121fe565b80601f0160208091040260200160405190810160405280929190818152602001828054610f43906121fe565b8015610f8e5780601f10610f6557610100808354040283529160200191610f8e565b820191905f5260205f20905b815481529060010190602001808311610f7157829003601f168201915b505050505090806004015490806005015f9054906101000a900473ffffffffffffffffffffffffffffffffffffffff16905086565b60068181548110610fd2575f80fd5b905f5260205f2090600602015f91509050805f015490806001018054610ff7906121fe565b80601f0160208091040260200160405190810160405280929190818152602001828054611023906121fe565b801561106e5780601f106110455761010080835404028352916020019161106e565b820191905f5260205f20905b81548152906001019060200180831161105157829003601f168201915b505050505090806002018054611083906121fe565b80601f01602080910402602001604051908101604052809291908181526020018280546110af906121fe565b80156110fa5780601f106110d1576101008083540402835291602001916110fa565b820191905f5260205f20905b8154815290600101906020018083116110dd57829003601f168201915b50505050509080600301805461110f906121fe565b80601f016020809104026020016040519081016040528092919081815260200182805461113b906121fe565b80156111865780601f1061115d57610100808354040283529160200191611186565b820191905f5260205f20905b81548152906001019060200180831161116957829003601f168201915b505050505090806004015490806005015f9054906101000a900473ffffffffffffffffffffffffffffffffffffffff16905086565b6060805f60045f8581526020019081526020015f206040518060c00160405290815f82015481526020016001820180546111f4906121fe565b80601f0160208091040260200160405190810160405280929190818152602001828054611220906121fe565b801561126b5780601f106112425761010080835404028352916020019161126b565b820191905f5260205f20905b81548152906001019060200180831161124e57829003601f168201915b50505050508152602001600282018054611284906121fe565b80601f01602080910402602001604051908101604052809291908181526020018280546112b0906121fe565b80156112fb5780601f106112d2576101008083540402835291602001916112fb565b820191905f5260205f20905b8154815290600101906020018083116112de57829003601f168201915b50505050508152602001600382018054611314906121fe565b80601f0160208091040260200160405190810160405280929190818152602001828054611340906121fe565b801561138b5780601f106113625761010080835404028352916020019161138b565b820191905f5260205f20905b81548152906001019060200180831161136e57829003601f168201915b5050505050815260200160048201548152602001600582015f9054906101000a900473ffffffffffffffffffffffffffffffffffffffff1673ffffffffffffffffffffffffffffffffffffffff1673ffffffffffffffffffffffffffffffffffffffff16815250509050806020015181604001519250925050915091565b611411611701565b5f73ffffffffffffffffffffffffffffffffffffffff168173ffffffffffffffffffffffffffffffffffffffff1603611481575f6040517f1e4fbdf70000000000000000000000000000000000000000000000000000000081526004016114789190611e1e565b60405180910390fd5b61148a81611788565b50565b60606006805480602002602001604051908101604052809291908181526020015f905b828210156116f8578382905f5260205f2090600602016040518060c00160405290815f82015481526020016001820180546114ea906121fe565b80601f0160208091040260200160405190810160405280929190818152602001828054611516906121fe565b80156115615780601f1061153857610100808354040283529160200191611561565b820191905f5260205f20905b81548152906001019060200180831161154457829003601f168201915b5050505050815260200160028201805461157a906121fe565b80601f01602080910402602001604051908101604052809291908181526020018280546115a6906121fe565b80156115f15780601f106115c8576101008083540402835291602001916115f1565b820191905f5260205f20905b8154815290600101906020018083116115d457829003601f168201915b5050505050815260200160038201805461160a906121fe565b80601f0160208091040260200160405190810160405280929190818152602001828054611636906121fe565b80156116815780601f1061165857610100808354040283529160200191611681565b820191905f5260205f20905b81548152906001019060200180831161166457829003601f168201915b5050505050815260200160048201548152602001600582015f9054906101000a900473ffffffffffffffffffffffffffffffffffffffff1673ffffffffffffffffffffffffffffffffffffffff1673ffffffffffffffffffffffffffffffffffffffff1681525050815260200190600101906114b0565b50505050905090565b611709611849565b73ffffffffffffffffffffffffffffffffffffffff16611727610d73565b73ffffffffffffffffffffffffffffffffffffffff16146117865761174a611849565b6040517f118cdaa700000000000000000000000000000000000000000000000000000000815260040161177d9190611e1e565b60405180910390fd5b565b5f805f9054906101000a900473ffffffffffffffffffffffffffffffffffffffff169050815f806101000a81548173ffffffffffffffffffffffffffffffffffffffff021916908373ffffffffffffffffffffffffffffffffffffffff1602179055508173ffffffffffffffffffffffffffffffffffffffff168173ffffffffffffffffffffffffffffffffffffffff167f8be0079c531659141344cd1fd0a4f28419497f9722a3daafe3b4186f6b6457e060405160405180910390a35050565b5f33905090565b5f604051905090565b5f80fd5b5f80fd5b5f819050919050565b61187381611861565b811461187d575f80fd5b50565b5f8135905061188e8161186a565b92915050565b5f602082840312156118a9576118a8611859565b5b5f6118b684828501611880565b91505092915050565b6118c881611861565b82525050565b5f81519050919050565b5f82825260208201905092915050565b8281835e5f83830152505050565b5f601f19601f8301169050919050565b5f611910826118ce565b61191a81856118d8565b935061192a8185602086016118e8565b611933816118f6565b840191505092915050565b5f73ffffffffffffffffffffffffffffffffffffffff82169050919050565b5f6119678261193e565b9050919050565b6119778161195d565b82525050565b5f60c0820190506119905f8301896118bf565b81810360208301526119a28188611906565b905081810360408301526119b68187611906565b905081810360608301526119ca8186611906565b90506119d960808301856118bf565b6119e660a083018461196e565b979650505050505050565b6119fa8161195d565b8114611a04575f80fd5b50565b5f81359050611a15816119f1565b92915050565b5f60208284031215611a3057611a2f611859565b5b5f611a3d84828501611a07565b91505092915050565b5f81519050919050565b5f82825260208201905092915050565b5f819050602082019050919050565b611a7881611861565b82525050565b5f82825260208201905092915050565b5f611a98826118ce565b611aa28185611a7e565b9350611ab28185602086016118e8565b611abb816118f6565b840191505092915050565b611acf8161195d565b82525050565b5f60c083015f830151611aea5f860182611a6f565b5060208301518482036020860152611b028282611a8e565b91505060408301518482036040860152611b1c8282611a8e565b91505060608301518482036060860152611b368282611a8e565b9150506080830151611b4b6080860182611a6f565b5060a0830151611b5e60a0860182611ac6565b508091505092915050565b5f611b748383611ad5565b905092915050565b5f602082019050919050565b5f611b9282611a46565b611b9c8185611a50565b935083602082028501611bae85611a60565b805f5b85811015611be95784840389528151611bca8582611b69565b9450611bd583611b7c565b925060208a01995050600181019050611bb1565b50829750879550505050505092915050565b5f6020820190508181035f830152611c138184611b88565b905092915050565b5f8115159050919050565b611c2f81611c1b565b82525050565b5f602082019050611c485f830184611c26565b92915050565b5f80fd5b5f80fd5b7f4e487b71000000000000000000000000000000000000000000000000000000005f52604160045260245ffd5b611c8c826118f6565b810181811067ffffffffffffffff82111715611cab57611caa611c56565b5b80604052505050565b5f611cbd611850565b9050611cc98282611c83565b919050565b5f67ffffffffffffffff821115611ce857611ce7611c56565b5b611cf1826118f6565b9050602081019050919050565b828183375f83830152505050565b5f611d1e611d1984611cce565b611cb4565b905082815260208101848484011115611d3a57611d39611c52565b5b611d45848285611cfe565b509392505050565b5f82601f830112611d6157611d60611c4e565b5b8135611d71848260208601611d0c565b91505092915050565b5f805f60608486031215611d9157611d90611859565b5b5f84013567ffffffffffffffff811115611dae57611dad61185d565b5b611dba86828701611d4d565b935050602084013567ffffffffffffffff811115611ddb57611dda61185d565b5b611de786828701611d4d565b925050604084013567ffffffffffffffff811115611e0857611e0761185d565b5b611e1486828701611d4d565b9150509250925092565b5f602082019050611e315f83018461196e565b92915050565b5f60208284031215611e4c57611e4b611859565b5b5f82013567ffffffffffffffff811115611e6957611e6861185d565b5b611e7584828501611d4d565b91505092915050565b5f8060408385031215611e9457611e93611859565b5b5f611ea185828601611a07565b9250506020611eb285828601611880565b9150509250929050565b5f6040820190508181035f830152611ed48185611906565b90508181036020830152611ee88184611906565b90509392505050565b5f80fd5b5f80fd5b5f611f0b611f0684611cce565b611cb4565b905082815260208101848484011115611f2757611f26611c52565b5b611f328482856118e8565b509392505050565b5f82601f830112611f4e57611f4d611c4e565b5b8151611f5e848260208601611ef9565b91505092915050565b611f7081611c1b565b8114611f7a575f80fd5b50565b5f81519050611f8b81611f67565b92915050565b5f60808284031215611fa657611fa5611ef1565b5b611fb06080611cb4565b90505f82015167ffffffffffffffff811115611fcf57611fce611ef5565b5b611fdb84828501611f3a565b5f83015250602082015167ffffffffffffffff811115611ffe57611ffd611ef5565b5b61200a84828501611f3a565b602083015250604082015167ffffffffffffffff81111561202e5761202d611ef5565b5b61203a84828501611f3a565b604083015250606061204e84828501611f7d565b60608301525092915050565b5f6020828403121561206f5761206e611859565b5b5f82015167ffffffffffffffff81111561208c5761208b61185d565b5b61209884828501611f91565b91505092915050565b7f596f75206861766520746f2052656769737465726400000000000000000000005f82015250565b5f6120d56015836118d8565b91506120e0826120a1565b602082019050919050565b5f6020820190508181035f830152612102816120c9565b9050919050565b7f596f752061726520616c726561647920566f74656421000000000000000000005f82015250565b5f61213d6016836118d8565b915061214882612109565b602082019050919050565b5f6020820190508181035f83015261216a81612131565b9050919050565b7f4e487b71000000000000000000000000000000000000000000000000000000005f52601160045260245ffd5b5f6121a882611861565b91506121b383611861565b92508282019050808211156121cb576121ca612171565b5b92915050565b7f4e487b71000000000000000000000000000000000000000000000000000000005f52602260045260245ffd5b5f600282049050600182168061221557607f821691505b602082108103612228576122276121d1565b5b50919050565b5f819050815f5260205f209050919050565b5f6020601f8301049050919050565b5f82821b905092915050565b5f6008830261228a7fffffffffffffffffffffffffffffffffffffffffffffffffffffffffffffffff8261224f565b612294868361224f565b95508019841693508086168417925050509392505050565b5f819050919050565b5f6122cf6122ca6122c584611861565b6122ac565b611861565b9050919050565b5f819050919050565b6122e8836122b5565b6122fc6122f4826122d6565b84845461225b565b825550505050565b5f90565b612310612304565b61231b8184846122df565b505050565b5b8181101561233e576123335f82612308565b600181019050612321565b5050565b601f821115612383576123548161222e565b61235d84612240565b8101602085101561236c578190505b61238061237885612240565b830182612320565b50505b505050565b5f82821c905092915050565b5f6123a35f1984600802612388565b1980831691505092915050565b5f6123bb8383612394565b9150826002028217905092915050565b6123d4826118ce565b67ffffffffffffffff8111156123ed576123ec611c56565b5b6123f782546121fe565b612402828285612342565b5f60209050601f831160018114612433575f8415612421578287015190505b61242b85826123b0565b865550612492565b601f1984166124418661222e565b5f5b8281101561246857848901518255600182019150602085019450602081019050612443565b868310156124855784890151612481601f891682612394565b8355505b6001600288020188555050505b505050505050565b5f815490506124a8816121fe565b9050919050565b8181036124bd575050612592565b6124c68261249a565b67ffffffffffffffff8111156124df576124de611c56565b5b6124e982546121fe565b6124f4828285612342565b5f601f831160018114612521575f841561250f578287015490505b61251985826123b0565b86555061258b565b601f19841661252f8761222e565b965061253a8661222e565b5f5b828110156125615784890154825560018201915060018501945060208101905061253c565b8683101561257e578489015461257a601f891682612394565b8355505b6001600288020188555050505b5050505050505b565b5f61259e82611861565b91507fffffffffffffffffffffffffffffffffffffffffffffffffffffffffffffffff82036125d0576125cf612171565b5b60018201905091905056fea2646970667358221220150415d533d20e0c401a88f61fd9cf32f73f7fa35c505c2907b0ced9295e062a64736f6c634300081a0033",
			"opcodes": "PUSH1 0x80 PUSH1 0x40 MSTORE PUSH0 PUSH1 0x2 SSTORE CALLVALUE DUP1 ISZERO PUSH2 0x13 JUMPI PUSH0 DUP1 REVERT JUMPDEST POP PUSH1 0x40 MLOAD PUSH2 0x288C CODESIZE SUB DUP1 PUSH2 0x288C DUP4 CODECOPY DUP2 DUP2 ADD PUSH1 0x40 MSTORE DUP2 ADD SWAP1 PUSH2 0x35 SWAP2 SWAP1 PUSH2 0x21B JUMP JUMPDEST CALLER PUSH0 PUSH20 0xFFFFFFFFFFFFFFFFFFFFFFFFFFFFFFFFFFFFFFFF AND DUP2 PUSH20 0xFFFFFFFFFFFFFFFFFFFFFFFFFFFFFFFFFFFFFFFF AND SUB PUSH2 0xA6 JUMPI PUSH0 PUSH1 0x40 MLOAD PUSH32 0x1E4FBDF700000000000000000000000000000000000000000000000000000000 DUP2 MSTORE PUSH1 0x4 ADD PUSH2 0x9D SWAP2 SWAP1 PUSH2 0x255 JUMP JUMPDEST PUSH1 0x40 MLOAD DUP1 SWAP2 SUB SWAP1 REVERT JUMPDEST PUSH2 0xB5 DUP2 PUSH2 0xFC PUSH1 0x20 SHL PUSH1 0x20 SHR JUMP JUMPDEST POP DUP1 PUSH1 0x1 PUSH0 PUSH2 0x100 EXP DUP2 SLOAD DUP2 PUSH20 0xFFFFFFFFFFFFFFFFFFFFFFFFFFFFFFFFFFFFFFFF MUL NOT AND SWAP1 DUP4 PUSH20 0xFFFFFFFFFFFFFFFFFFFFFFFFFFFFFFFFFFFFFFFF AND MUL OR SWAP1 SSTORE POP POP PUSH2 0x26E JUMP JUMPDEST PUSH0 DUP1 PUSH0 SWAP1 SLOAD SWAP1 PUSH2 0x100 EXP SWAP1 DIV PUSH20 0xFFFFFFFFFFFFFFFFFFFFFFFFFFFFFFFFFFFFFFFF AND SWAP1 POP DUP2 PUSH0 DUP1 PUSH2 0x100 EXP DUP2 SLOAD DUP2 PUSH20 0xFFFFFFFFFFFFFFFFFFFFFFFFFFFFFFFFFFFFFFFF MUL NOT AND SWAP1 DUP4 PUSH20 0xFFFFFFFFFFFFFFFFFFFFFFFFFFFFFFFFFFFFFFFF AND MUL OR SWAP1 SSTORE POP DUP2 PUSH20 0xFFFFFFFFFFFFFFFFFFFFFFFFFFFFFFFFFFFFFFFF AND DUP2 PUSH20 0xFFFFFFFFFFFFFFFFFFFFFFFFFFFFFFFFFFFFFFFF AND PUSH32 0x8BE0079C531659141344CD1FD0A4F28419497F9722A3DAAFE3B4186F6B6457E0 PUSH1 0x40 MLOAD PUSH1 0x40 MLOAD DUP1 SWAP2 SUB SWAP1 LOG3 POP POP JUMP JUMPDEST PUSH0 DUP1 REVERT JUMPDEST PUSH0 PUSH20 0xFFFFFFFFFFFFFFFFFFFFFFFFFFFFFFFFFFFFFFFF DUP3 AND SWAP1 POP SWAP2 SWAP1 POP JUMP JUMPDEST PUSH0 PUSH2 0x1EA DUP3 PUSH2 0x1C1 JUMP JUMPDEST SWAP1 POP SWAP2 SWAP1 POP JUMP JUMPDEST PUSH2 0x1FA DUP2 PUSH2 0x1E0 JUMP JUMPDEST DUP2 EQ PUSH2 0x204 JUMPI PUSH0 DUP1 REVERT JUMPDEST POP JUMP JUMPDEST PUSH0 DUP2 MLOAD SWAP1 POP PUSH2 0x215 DUP2 PUSH2 0x1F1 JUMP JUMPDEST SWAP3 SWAP2 POP POP JUMP JUMPDEST PUSH0 PUSH1 0x20 DUP3 DUP5 SUB SLT ISZERO PUSH2 0x230 JUMPI PUSH2 0x22F PUSH2 0x1BD JUMP JUMPDEST JUMPDEST PUSH0 PUSH2 0x23D DUP5 DUP3 DUP6 ADD PUSH2 0x207 JUMP JUMPDEST SWAP2 POP POP SWAP3 SWAP2 POP POP JUMP JUMPDEST PUSH2 0x24F DUP2 PUSH2 0x1E0 JUMP JUMPDEST DUP3 MSTORE POP POP JUMP JUMPDEST PUSH0 PUSH1 0x20 DUP3 ADD SWAP1 POP PUSH2 0x268 PUSH0 DUP4 ADD DUP5 PUSH2 0x246 JUMP JUMPDEST SWAP3 SWAP2 POP POP JUMP JUMPDEST PUSH2 0x2611 DUP1 PUSH2 0x27B PUSH0 CODECOPY PUSH0 RETURN INVALID PUSH1 0x80 PUSH1 0x40 MSTORE CALLVALUE DUP1 ISZERO PUSH2 0xF JUMPI PUSH0 DUP1 REVERT JUMPDEST POP PUSH1 0x4 CALLDATASIZE LT PUSH2 0xCD JUMPI PUSH0 CALLDATALOAD PUSH1 0xE0 SHR DUP1 PUSH4 0x8DA5CB5B GT PUSH2 0x8A JUMPI DUP1 PUSH4 0xC6311E3F GT PUSH2 0x64 JUMPI DUP1 PUSH4 0xC6311E3F EQ PUSH2 0x22B JUMPI DUP1 PUSH4 0xC7F758A8 EQ PUSH2 0x260 JUMPI DUP1 PUSH4 0xF2FDE38B EQ PUSH2 0x291 JUMPI DUP1 PUSH4 0xF30282A1 EQ PUSH2 0x2AD JUMPI PUSH2 0xCD JUMP JUMPDEST DUP1 PUSH4 0x8DA5CB5B EQ PUSH2 0x1A8 JUMPI DUP1 PUSH4 0xB3DB05C8 EQ PUSH2 0x1C6 JUMPI DUP1 PUSH4 0xBE07D1D9 EQ PUSH2 0x1F6 JUMPI PUSH2 0xCD JUMP JUMPDEST DUP1 PUSH4 0x121B93F EQ PUSH2 0xD1 JUMPI DUP1 PUSH4 0x13CF08B EQ PUSH2 0xED JUMPI DUP1 PUSH4 0x159428D1 EQ PUSH2 0x122 JUMPI DUP1 PUSH4 0x2B499CAB EQ PUSH2 0x152 JUMPI DUP1 PUSH4 0x583CF379 EQ PUSH2 0x182 JUMPI DUP1 PUSH4 0x715018A6 EQ PUSH2 0x19E JUMPI JUMPDEST PUSH0 DUP1 REVERT JUMPDEST PUSH2 0xEB PUSH1 0x4 DUP1 CALLDATASIZE SUB DUP2 ADD SWAP1 PUSH2 0xE6 SWAP2 SWAP1 PUSH2 0x1894 JUMP JUMPDEST PUSH2 0x2CB JUMP JUMPDEST STOP JUMPDEST PUSH2 0x107 PUSH1 0x4 DUP1 CALLDATASIZE SUB DUP2 ADD SWAP1 PUSH2 0x102 SWAP2 SWAP1 PUSH2 0x1894 JUMP JUMPDEST PUSH2 0x4BC JUMP JUMPDEST PUSH1 0x40 MLOAD PUSH2 0x119 SWAP7 SWAP6 SWAP5 SWAP4 SWAP3 SWAP2 SWAP1 PUSH2 0x197D JUMP JUMPDEST PUSH1 0x40 MLOAD DUP1 SWAP2 SUB SWAP1 RETURN JUMPDEST PUSH2 0x13C PUSH1 0x4 DUP1 CALLDATASIZE SUB DUP2 ADD SWAP1 PUSH2 0x137 SWAP2 SWAP1 PUSH2 0x1A1B JUMP JUMPDEST PUSH2 0x6A5 JUMP JUMPDEST PUSH1 0x40 MLOAD PUSH2 0x149 SWAP2 SWAP1 PUSH2 0x1BFB JUMP JUMPDEST PUSH1 0x40 MLOAD DUP1 SWAP2 SUB SWAP1 RETURN JUMPDEST PUSH2 0x16C PUSH1 0x4 DUP1 CALLDATASIZE SUB DUP2 ADD SWAP1 PUSH2 0x167 SWAP2 SWAP1 PUSH2 0x1A1B JUMP JUMPDEST PUSH2 0x956 JUMP JUMPDEST PUSH1 0x40 MLOAD PUSH2 0x179 SWAP2 SWAP1 PUSH2 0x1C35 JUMP JUMPDEST PUSH1 0x40 MLOAD DUP1 SWAP2 SUB SWAP1 RETURN JUMPDEST PUSH2 0x19C PUSH1 0x4 DUP1 CALLDATASIZE SUB DUP2 ADD SWAP1 PUSH2 0x197 SWAP2 SWAP1 PUSH2 0x1D7A JUMP JUMPDEST PUSH2 0x973 JUMP JUMPDEST STOP JUMPDEST PUSH2 0x1A6 PUSH2 0xD60 JUMP JUMPDEST STOP JUMPDEST PUSH2 0x1B0 PUSH2 0xD73 JUMP JUMPDEST PUSH1 0x40 MLOAD PUSH2 0x1BD SWAP2 SWAP1 PUSH2 0x1E1E JUMP JUMPDEST PUSH1 0x40 MLOAD DUP1 SWAP2 SUB SWAP1 RETURN JUMPDEST PUSH2 0x1E0 PUSH1 0x4 DUP1 CALLDATASIZE SUB DUP2 ADD SWAP1 PUSH2 0x1DB SWAP2 SWAP1 PUSH2 0x1E37 JUMP JUMPDEST PUSH2 0xD9A JUMP JUMPDEST PUSH1 0x40 MLOAD PUSH2 0x1ED SWAP2 SWAP1 PUSH2 0x1BFB JUMP JUMPDEST PUSH1 0x40 MLOAD DUP1 SWAP2 SUB SWAP1 RETURN JUMPDEST PUSH2 0x210 PUSH1 0x4 DUP1 CALLDATASIZE SUB DUP2 ADD SWAP1 PUSH2 0x20B SWAP2 SWAP1 PUSH2 0x1E7E JUMP JUMPDEST PUSH2 0xDC0 JUMP JUMPDEST PUSH1 0x40 MLOAD PUSH2 0x222 SWAP7 SWAP6 SWAP5 SWAP4 SWAP3 SWAP2 SWAP1 PUSH2 0x197D JUMP JUMPDEST PUSH1 0x40 MLOAD DUP1 SWAP2 SUB SWAP1 RETURN JUMPDEST PUSH2 0x245 PUSH1 0x4 DUP1 CALLDATASIZE SUB DUP2 ADD SWAP1 PUSH2 0x240 SWAP2 SWAP1 PUSH2 0x1894 JUMP JUMPDEST PUSH2 0xFC3 JUMP JUMPDEST PUSH1 0x40 MLOAD PUSH2 0x257 SWAP7 SWAP6 SWAP5 SWAP4 SWAP3 SWAP2 SWAP1 PUSH2 0x197D JUMP JUMPDEST PUSH1 0x40 MLOAD DUP1 SWAP2 SUB SWAP1 RETURN JUMPDEST PUSH2 0x27A PUSH1 0x4 DUP1 CALLDATASIZE SUB DUP2 ADD SWAP1 PUSH2 0x275 SWAP2 SWAP1 PUSH2 0x1894 JUMP JUMPDEST PUSH2 0x11BB JUMP JUMPDEST PUSH1 0x40 MLOAD PUSH2 0x288 SWAP3 SWAP2 SWAP1 PUSH2 0x1EBC JUMP JUMPDEST PUSH1 0x40 MLOAD DUP1 SWAP2 SUB SWAP1 RETURN JUMPDEST PUSH2 0x2AB PUSH1 0x4 DUP1 CALLDATASIZE SUB DUP2 ADD SWAP1 PUSH2 0x2A6 SWAP2 SWAP1 PUSH2 0x1A1B JUMP JUMPDEST PUSH2 0x1409 JUMP JUMPDEST STOP JUMPDEST PUSH2 0x2B5 PUSH2 0x148D JUMP JUMPDEST PUSH1 0x40 MLOAD PUSH2 0x2C2 SWAP2 SWAP1 PUSH2 0x1BFB JUMP JUMPDEST PUSH1 0x40 MLOAD DUP1 SWAP2 SUB SWAP1 RETURN JUMPDEST PUSH0 PUSH1 0x1 PUSH0 SWAP1 SLOAD SWAP1 PUSH2 0x100 EXP SWAP1 DIV PUSH20 0xFFFFFFFFFFFFFFFFFFFFFFFFFFFFFFFFFFFFFFFF AND PUSH20 0xFFFFFFFFFFFFFFFFFFFFFFFFFFFFFFFFFFFFFFFF AND PUSH4 0xF53A470 CALLER PUSH1 0x40 MLOAD DUP3 PUSH4 0xFFFFFFFF AND PUSH1 0xE0 SHL DUP2 MSTORE PUSH1 0x4 ADD PUSH2 0x326 SWAP2 SWAP1 PUSH2 0x1E1E JUMP JUMPDEST PUSH0 PUSH1 0x40 MLOAD DUP1 DUP4 SUB DUP2 DUP7 GAS STATICCALL ISZERO DUP1 ISZERO PUSH2 0x340 JUMPI RETURNDATASIZE PUSH0 DUP1 RETURNDATACOPY RETURNDATASIZE PUSH0 REVERT JUMPDEST POP POP POP POP PUSH1 0x40 MLOAD RETURNDATASIZE PUSH0 DUP3 RETURNDATACOPY RETURNDATASIZE PUSH1 0x1F NOT PUSH1 0x1F DUP3 ADD AND DUP3 ADD DUP1 PUSH1 0x40 MSTORE POP DUP2 ADD SWAP1 PUSH2 0x368 SWAP2 SWAP1 PUSH2 0x205A JUMP JUMPDEST SWAP1 POP DUP1 PUSH1 0x60 ADD MLOAD PUSH2 0x3AE JUMPI PUSH1 0x40 MLOAD PUSH32 0x8C379A000000000000000000000000000000000000000000000000000000000 DUP2 MSTORE PUSH1 0x4 ADD PUSH2 0x3A5 SWAP1 PUSH2 0x20EB JUMP JUMPDEST PUSH1 0x40 MLOAD DUP1 SWAP2 SUB SWAP1 REVERT JUMPDEST PUSH1 0x5 PUSH0 CALLER PUSH20 0xFFFFFFFFFFFFFFFFFFFFFFFFFFFFFFFFFFFFFFFF AND PUSH20 0xFFFFFFFFFFFFFFFFFFFFFFFFFFFFFFFFFFFFFFFF AND DUP2 MSTORE PUSH1 0x20 ADD SWAP1 DUP2 MSTORE PUSH1 0x20 ADD PUSH0 KECCAK256 PUSH0 SWAP1 SLOAD SWAP1 PUSH2 0x100 EXP SWAP1 DIV PUSH1 0xFF AND ISZERO PUSH2 0x438 JUMPI PUSH1 0x40 MLOAD PUSH32 0x8C379A000000000000000000000000000000000000000000000000000000000 DUP2 MSTORE PUSH1 0x4 ADD PUSH2 0x42F SWAP1 PUSH2 0x2153 JUMP JUMPDEST PUSH1 0x40 MLOAD DUP1 SWAP2 SUB SWAP1 REVERT JUMPDEST PUSH1 0x1 PUSH1 0x4 PUSH0 DUP5 DUP2 MSTORE PUSH1 0x20 ADD SWAP1 DUP2 MSTORE PUSH1 0x20 ADD PUSH0 KECCAK256 PUSH1 0x4 ADD PUSH0 DUP3 DUP3 SLOAD PUSH2 0x45C SWAP2 SWAP1 PUSH2 0x219E JUMP JUMPDEST SWAP3 POP POP DUP2 SWAP1 SSTORE POP PUSH1 0x1 PUSH1 0x5 PUSH0 CALLER PUSH20 0xFFFFFFFFFFFFFFFFFFFFFFFFFFFFFFFFFFFFFFFF AND PUSH20 0xFFFFFFFFFFFFFFFFFFFFFFFFFFFFFFFFFFFFFFFF AND DUP2 MSTORE PUSH1 0x20 ADD SWAP1 DUP2 MSTORE PUSH1 0x20 ADD PUSH0 KECCAK256 PUSH0 PUSH2 0x100 EXP DUP2 SLOAD DUP2 PUSH1 0xFF MUL NOT AND SWAP1 DUP4 ISZERO ISZERO MUL OR SWAP1 SSTORE POP POP POP JUMP JUMPDEST PUSH1 0x4 PUSH1 0x20 MSTORE DUP1 PUSH0 MSTORE PUSH1 0x40 PUSH0 KECCAK256 PUSH0 SWAP2 POP SWAP1 POP DUP1 PUSH0 ADD SLOAD SWAP1 DUP1 PUSH1 0x1 ADD DUP1 SLOAD PUSH2 0x4E1 SWAP1 PUSH2 0x21FE JUMP JUMPDEST DUP1 PUSH1 0x1F ADD PUSH1 0x20 DUP1 SWAP2 DIV MUL PUSH1 0x20 ADD PUSH1 0x40 MLOAD SWAP1 DUP2 ADD PUSH1 0x40 MSTORE DUP1 SWAP3 SWAP2 SWAP1 DUP2 DUP2 MSTORE PUSH1 0x20 ADD DUP3 DUP1 SLOAD PUSH2 0x50D SWAP1 PUSH2 0x21FE JUMP JUMPDEST DUP1 ISZERO PUSH2 0x558 JUMPI DUP1 PUSH1 0x1F LT PUSH2 0x52F JUMPI PUSH2 0x100 DUP1 DUP4 SLOAD DIV MUL DUP4 MSTORE SWAP2 PUSH1 0x20 ADD SWAP2 PUSH2 0x558 JUMP JUMPDEST DUP3 ADD SWAP2 SWAP1 PUSH0 MSTORE PUSH1 0x20 PUSH0 KECCAK256 SWAP1 JUMPDEST DUP2 SLOAD DUP2 MSTORE SWAP1 PUSH1 0x1 ADD SWAP1 PUSH1 0x20 ADD DUP1 DUP4 GT PUSH2 0x53B JUMPI DUP3 SWAP1 SUB PUSH1 0x1F AND DUP3 ADD SWAP2 JUMPDEST POP POP POP POP POP SWAP1 DUP1 PUSH1 0x2 ADD DUP1 SLOAD PUSH2 0x56D SWAP1 PUSH2 0x21FE JUMP JUMPDEST DUP1 PUSH1 0x1F ADD PUSH1 0x20 DUP1 SWAP2 DIV MUL PUSH1 0x20 ADD PUSH1 0x40 MLOAD SWAP1 DUP2 ADD PUSH1 0x40 MSTORE DUP1 SWAP3 SWAP2 SWAP1 DUP2 DUP2 MSTORE PUSH1 0x20 ADD DUP3 DUP1 SLOAD PUSH2 0x599 SWAP1 PUSH2 0x21FE JUMP JUMPDEST DUP1 ISZERO PUSH2 0x5E4 JUMPI DUP1 PUSH1 0x1F LT PUSH2 0x5BB JUMPI PUSH2 0x100 DUP1 DUP4 SLOAD DIV MUL DUP4 MSTORE SWAP2 PUSH1 0x20 ADD SWAP2 PUSH2 0x5E4 JUMP JUMPDEST DUP3 ADD SWAP2 SWAP1 PUSH0 MSTORE PUSH1 0x20 PUSH0 KECCAK256 SWAP1 JUMPDEST DUP2 SLOAD DUP2 MSTORE SWAP1 PUSH1 0x1 ADD SWAP1 PUSH1 0x20 ADD DUP1 DUP4 GT PUSH2 0x5C7 JUMPI DUP3 SWAP1 SUB PUSH1 0x1F AND DUP3 ADD SWAP2 JUMPDEST POP POP POP POP POP SWAP1 DUP1 PUSH1 0x3 ADD DUP1 SLOAD PUSH2 0x5F9 SWAP1 PUSH2 0x21FE JUMP JUMPDEST DUP1 PUSH1 0x1F ADD PUSH1 0x20 DUP1 SWAP2 DIV MUL PUSH1 0x20 ADD PUSH1 0x40 MLOAD SWAP1 DUP2 ADD PUSH1 0x40 MSTORE DUP1 SWAP3 SWAP2 SWAP1 DUP2 DUP2 MSTORE PUSH1 0x20 ADD DUP3 DUP1 SLOAD PUSH2 0x625 SWAP1 PUSH2 0x21FE JUMP JUMPDEST DUP1 ISZERO PUSH2 0x670 JUMPI DUP1 PUSH1 0x1F LT PUSH2 0x647 JUMPI PUSH2 0x100 DUP1 DUP4 SLOAD DIV MUL DUP4 MSTORE SWAP2 PUSH1 0x20 ADD SWAP2 PUSH2 0x670 JUMP JUMPDEST DUP3 ADD SWAP2 SWAP1 PUSH0 MSTORE PUSH1 0x20 PUSH0 KECCAK256 SWAP1 JUMPDEST DUP2 SLOAD DUP2 MSTORE SWAP1 PUSH1 0x1 ADD SWAP1 PUSH1 0x20 ADD DUP1 DUP4 GT PUSH2 0x653 JUMPI DUP3 SWAP1 SUB PUSH1 0x1F AND DUP3 ADD SWAP2 JUMPDEST POP POP POP POP POP SWAP1 DUP1 PUSH1 0x4 ADD SLOAD SWAP1 DUP1 PUSH1 0x5 ADD PUSH0 SWAP1 SLOAD SWAP1 PUSH2 0x100 EXP SWAP1 DIV PUSH20 0xFFFFFFFFFFFFFFFFFFFFFFFFFFFFFFFFFFFFFFFF AND SWAP1 POP DUP7 JUMP JUMPDEST PUSH1 0x60 PUSH1 0x3 PUSH0 DUP4 PUSH20 0xFFFFFFFFFFFFFFFFFFFFFFFFFFFFFFFFFFFFFFFF AND PUSH20 0xFFFFFFFFFFFFFFFFFFFFFFFFFFFFFFFFFFFFFFFF AND DUP2 MSTORE PUSH1 0x20 ADD SWAP1 DUP2 MSTORE PUSH1 0x20 ADD PUSH0 KECCAK256 DUP1 SLOAD DUP1 PUSH1 0x20 MUL PUSH1 0x20 ADD PUSH1 0x40 MLOAD SWAP1 DUP2 ADD PUSH1 0x40 MSTORE DUP1 SWAP3 SWAP2 SWAP1 DUP2 DUP2 MSTORE PUSH1 0x20 ADD PUSH0 SWAP1 JUMPDEST DUP3 DUP3 LT ISZERO PUSH2 0x94B JUMPI DUP4 DUP3 SWAP1 PUSH0 MSTORE PUSH1 0x20 PUSH0 KECCAK256 SWAP1 PUSH1 0x6 MUL ADD PUSH1 0x40 MLOAD DUP1 PUSH1 0xC0 ADD PUSH1 0x40 MSTORE SWAP1 DUP2 PUSH0 DUP3 ADD SLOAD DUP2 MSTORE PUSH1 0x20 ADD PUSH1 0x1 DUP3 ADD DUP1 SLOAD PUSH2 0x73D SWAP1 PUSH2 0x21FE JUMP JUMPDEST DUP1 PUSH1 0x1F ADD PUSH1 0x20 DUP1 SWAP2 DIV MUL PUSH1 0x20 ADD PUSH1 0x40 MLOAD SWAP1 DUP2 ADD PUSH1 0x40 MSTORE DUP1 SWAP3 SWAP2 SWAP1 DUP2 DUP2 MSTORE PUSH1 0x20 ADD DUP3 DUP1 SLOAD PUSH2 0x769 SWAP1 PUSH2 0x21FE JUMP JUMPDEST DUP1 ISZERO PUSH2 0x7B4 JUMPI DUP1 PUSH1 0x1F LT PUSH2 0x78B JUMPI PUSH2 0x100 DUP1 DUP4 SLOAD DIV MUL DUP4 MSTORE SWAP2 PUSH1 0x20 ADD SWAP2 PUSH2 0x7B4 JUMP JUMPDEST DUP3 ADD SWAP2 SWAP1 PUSH0 MSTORE PUSH1 0x20 PUSH0 KECCAK256 SWAP1 JUMPDEST DUP2 SLOAD DUP2 MSTORE SWAP1 PUSH1 0x1 ADD SWAP1 PUSH1 0x20 ADD DUP1 DUP4 GT PUSH2 0x797 JUMPI DUP3 SWAP1 SUB PUSH1 0x1F AND DUP3 ADD SWAP2 JUMPDEST POP POP POP POP POP DUP2 MSTORE PUSH1 0x20 ADD PUSH1 0x2 DUP3 ADD DUP1 SLOAD PUSH2 0x7CD SWAP1 PUSH2 0x21FE JUMP JUMPDEST DUP1 PUSH1 0x1F ADD PUSH1 0x20 DUP1 SWAP2 DIV MUL PUSH1 0x20 ADD PUSH1 0x40 MLOAD SWAP1 DUP2 ADD PUSH1 0x40 MSTORE DUP1 SWAP3 SWAP2 SWAP1 DUP2 DUP2 MSTORE PUSH1 0x20 ADD DUP3 DUP1 SLOAD PUSH2 0x7F9 SWAP1 PUSH2 0x21FE JUMP JUMPDEST DUP1 ISZERO PUSH2 0x844 JUMPI DUP1 PUSH1 0x1F LT PUSH2 0x81B JUMPI PUSH2 0x100 DUP1 DUP4 SLOAD DIV MUL DUP4 MSTORE SWAP2 PUSH1 0x20 ADD SWAP2 PUSH2 0x844 JUMP JUMPDEST DUP3 ADD SWAP2 SWAP1 PUSH0 MSTORE PUSH1 0x20 PUSH0 KECCAK256 SWAP1 JUMPDEST DUP2 SLOAD DUP2 MSTORE SWAP1 PUSH1 0x1 ADD SWAP1 PUSH1 0x20 ADD DUP1 DUP4 GT PUSH2 0x827 JUMPI DUP3 SWAP1 SUB PUSH1 0x1F AND DUP3 ADD SWAP2 JUMPDEST POP POP POP POP POP DUP2 MSTORE PUSH1 0x20 ADD PUSH1 0x3 DUP3 ADD DUP1 SLOAD PUSH2 0x85D SWAP1 PUSH2 0x21FE JUMP JUMPDEST DUP1 PUSH1 0x1F ADD PUSH1 0x20 DUP1 SWAP2 DIV MUL PUSH1 0x20 ADD PUSH1 0x40 MLOAD SWAP1 DUP2 ADD PUSH1 0x40 MSTORE DUP1 SWAP3 SWAP2 SWAP1 DUP2 DUP2 MSTORE PUSH1 0x20 ADD DUP3 DUP1 SLOAD PUSH2 0x889 SWAP1 PUSH2 0x21FE JUMP JUMPDEST DUP1 ISZERO PUSH2 0x8D4 JUMPI DUP1 PUSH1 0x1F LT PUSH2 0x8AB JUMPI PUSH2 0x100 DUP1 DUP4 SLOAD DIV MUL DUP4 MSTORE SWAP2 PUSH1 0x20 ADD SWAP2 PUSH2 0x8D4 JUMP JUMPDEST DUP3 ADD SWAP2 SWAP1 PUSH0 MSTORE PUSH1 0x20 PUSH0 KECCAK256 SWAP1 JUMPDEST DUP2 SLOAD DUP2 MSTORE SWAP1 PUSH1 0x1 ADD SWAP1 PUSH1 0x20 ADD DUP1 DUP4 GT PUSH2 0x8B7 JUMPI DUP3 SWAP1 SUB PUSH1 0x1F AND DUP3 ADD SWAP2 JUMPDEST POP POP POP POP POP DUP2 MSTORE PUSH1 0x20 ADD PUSH1 0x4 DUP3 ADD SLOAD DUP2 MSTORE PUSH1 0x20 ADD PUSH1 0x5 DUP3 ADD PUSH0 SWAP1 SLOAD SWAP1 PUSH2 0x100 EXP SWAP1 DIV PUSH20 0xFFFFFFFFFFFFFFFFFFFFFFFFFFFFFFFFFFFFFFFF AND PUSH20 0xFFFFFFFFFFFFFFFFFFFFFFFFFFFFFFFFFFFFFFFF AND PUSH20 0xFFFFFFFFFFFFFFFFFFFFFFFFFFFFFFFFFFFFFFFF AND DUP2 MSTORE POP POP DUP2 MSTORE PUSH1 0x20 ADD SWAP1 PUSH1 0x1 ADD SWAP1 PUSH2 0x703 JUMP JUMPDEST POP POP POP POP SWAP1 POP SWAP2 SWAP1 POP JUMP JUMPDEST PUSH1 0x5 PUSH1 0x20 MSTORE DUP1 PUSH0 MSTORE PUSH1 0x40 PUSH0 KECCAK256 PUSH0 SWAP2 POP SLOAD SWAP1 PUSH2 0x100 EXP SWAP1 DIV PUSH1 0xFF AND DUP2 JUMP JUMPDEST PUSH0 PUSH1 0x1 PUSH0 SWAP1 SLOAD SWAP1 PUSH2 0x100 EXP SWAP1 DIV PUSH20 0xFFFFFFFFFFFFFFFFFFFFFFFFFFFFFFFFFFFFFFFF AND PUSH20 0xFFFFFFFFFFFFFFFFFFFFFFFFFFFFFFFFFFFFFFFF AND PUSH4 0xF53A470 CALLER PUSH1 0x40 MLOAD DUP3 PUSH4 0xFFFFFFFF AND PUSH1 0xE0 SHL DUP2 MSTORE PUSH1 0x4 ADD PUSH2 0x9CE SWAP2 SWAP1 PUSH2 0x1E1E JUMP JUMPDEST PUSH0 PUSH1 0x40 MLOAD DUP1 DUP4 SUB DUP2 DUP7 GAS STATICCALL ISZERO DUP1 ISZERO PUSH2 0x9E8 JUMPI RETURNDATASIZE PUSH0 DUP1 RETURNDATACOPY RETURNDATASIZE PUSH0 REVERT JUMPDEST POP POP POP POP PUSH1 0x40 MLOAD RETURNDATASIZE PUSH0 DUP3 RETURNDATACOPY RETURNDATASIZE PUSH1 0x1F NOT PUSH1 0x1F DUP3 ADD AND DUP3 ADD DUP1 PUSH1 0x40 MSTORE POP DUP2 ADD SWAP1 PUSH2 0xA10 SWAP2 SWAP1 PUSH2 0x205A JUMP JUMPDEST SWAP1 POP DUP1 PUSH1 0x60 ADD MLOAD PUSH2 0xA56 JUMPI PUSH1 0x40 MLOAD PUSH32 0x8C379A000000000000000000000000000000000000000000000000000000000 DUP2 MSTORE PUSH1 0x4 ADD PUSH2 0xA4D SWAP1 PUSH2 0x20EB JUMP JUMPDEST PUSH1 0x40 MLOAD DUP1 SWAP2 SUB SWAP1 REVERT JUMPDEST PUSH0 PUSH1 0x40 MLOAD DUP1 PUSH1 0xC0 ADD PUSH1 0x40 MSTORE DUP1 PUSH1 0x2 SLOAD DUP2 MSTORE PUSH1 0x20 ADD DUP7 DUP2 MSTORE PUSH1 0x20 ADD DUP6 DUP2 MSTORE PUSH1 0x20 ADD DUP5 DUP2 MSTORE PUSH1 0x20 ADD PUSH0 DUP2 MSTORE PUSH1 0x20 ADD CALLER PUSH20 0xFFFFFFFFFFFFFFFFFFFFFFFFFFFFFFFFFFFFFFFF AND DUP2 MSTORE POP SWAP1 POP DUP1 PUSH1 0x4 PUSH0 PUSH1 0x2 SLOAD DUP2 MSTORE PUSH1 0x20 ADD SWAP1 DUP2 MSTORE PUSH1 0x20 ADD PUSH0 KECCAK256 PUSH0 DUP3 ADD MLOAD DUP2 PUSH0 ADD SSTORE PUSH1 0x20 DUP3 ADD MLOAD DUP2 PUSH1 0x1 ADD SWAP1 DUP2 PUSH2 0xACF SWAP2 SWAP1 PUSH2 0x23CB JUMP JUMPDEST POP PUSH1 0x40 DUP3 ADD MLOAD DUP2 PUSH1 0x2 ADD SWAP1 DUP2 PUSH2 0xAE5 SWAP2 SWAP1 PUSH2 0x23CB JUMP JUMPDEST POP PUSH1 0x60 DUP3 ADD MLOAD DUP2 PUSH1 0x3 ADD SWAP1 DUP2 PUSH2 0xAFB SWAP2 SWAP1 PUSH2 0x23CB JUMP JUMPDEST POP PUSH1 0x80 DUP3 ADD MLOAD DUP2 PUSH1 0x4 ADD SSTORE PUSH1 0xA0 DUP3 ADD MLOAD DUP2 PUSH1 0x5 ADD PUSH0 PUSH2 0x100 EXP DUP2 SLOAD DUP2 PUSH20 0xFFFFFFFFFFFFFFFFFFFFFFFFFFFFFFFFFFFFFFFF MUL NOT AND SWAP1 DUP4 PUSH20 0xFFFFFFFFFFFFFFFFFFFFFFFFFFFFFFFFFFFFFFFF AND MUL OR SWAP1 SSTORE POP SWAP1 POP POP PUSH1 0x3 PUSH0 CALLER PUSH20 0xFFFFFFFFFFFFFFFFFFFFFFFFFFFFFFFFFFFFFFFF AND PUSH20 0xFFFFFFFFFFFFFFFFFFFFFFFFFFFFFFFFFFFFFFFF AND DUP2 MSTORE PUSH1 0x20 ADD SWAP1 DUP2 MSTORE PUSH1 0x20 ADD PUSH0 KECCAK256 DUP2 SWAP1 DUP1 PUSH1 0x1 DUP2 SLOAD ADD DUP1 DUP3 SSTORE DUP1 SWAP2 POP POP PUSH1 0x1 SWAP1 SUB SWAP1 PUSH0 MSTORE PUSH1 0x20 PUSH0 KECCAK256 SWAP1 PUSH1 0x6 MUL ADD PUSH0 SWAP1 SWAP2 SWAP1 SWAP2 SWAP1 SWAP2 POP PUSH0 DUP3 ADD MLOAD DUP2 PUSH0 ADD SSTORE PUSH1 0x20 DUP3 ADD MLOAD DUP2 PUSH1 0x1 ADD SWAP1 DUP2 PUSH2 0xBD0 SWAP2 SWAP1 PUSH2 0x23CB JUMP JUMPDEST POP PUSH1 0x40 DUP3 ADD MLOAD DUP2 PUSH1 0x2 ADD SWAP1 DUP2 PUSH2 0xBE6 SWAP2 SWAP1 PUSH2 0x23CB JUMP JUMPDEST POP PUSH1 0x60 DUP3 ADD MLOAD DUP2 PUSH1 0x3 ADD SWAP1 DUP2 PUSH2 0xBFC SWAP2 SWAP1 PUSH2 0x23CB JUMP JUMPDEST POP PUSH1 0x80 DUP3 ADD MLOAD DUP2 PUSH1 0x4 ADD SSTORE PUSH1 0xA0 DUP3 ADD MLOAD DUP2 PUSH1 0x5 ADD PUSH0 PUSH2 0x100 EXP DUP2 SLOAD DUP2 PUSH20 0xFFFFFFFFFFFFFFFFFFFFFFFFFFFFFFFFFFFFFFFF MUL NOT AND SWAP1 DUP4 PUSH20 0xFFFFFFFFFFFFFFFFFFFFFFFFFFFFFFFFFFFFFFFF AND MUL OR SWAP1 SSTORE POP POP POP PUSH1 0x6 PUSH1 0x4 PUSH0 PUSH1 0x2 SLOAD DUP2 MSTORE PUSH1 0x20 ADD SWAP1 DUP2 MSTORE PUSH1 0x20 ADD PUSH0 KECCAK256 SWAP1 DUP1 PUSH1 0x1 DUP2 SLOAD ADD DUP1 DUP3 SSTORE DUP1 SWAP2 POP POP PUSH1 0x1 SWAP1 SUB SWAP1 PUSH0 MSTORE PUSH1 0x20 PUSH0 KECCAK256 SWAP1 PUSH1 0x6 MUL ADD PUSH0 SWAP1 SWAP2 SWAP1 SWAP2 SWAP1 SWAP2 POP PUSH0 DUP3 ADD SLOAD DUP2 PUSH0 ADD SSTORE PUSH1 0x1 DUP3 ADD DUP2 PUSH1 0x1 ADD SWAP1 DUP2 PUSH2 0xCA6 SWAP2 SWAP1 PUSH2 0x24AF JUMP JUMPDEST POP PUSH1 0x2 DUP3 ADD DUP2 PUSH1 0x2 ADD SWAP1 DUP2 PUSH2 0xCBB SWAP2 SWAP1 PUSH2 0x24AF JUMP JUMPDEST POP PUSH1 0x3 DUP3 ADD DUP2 PUSH1 0x3 ADD SWAP1 DUP2 PUSH2 0xCD0 SWAP2 SWAP1 PUSH2 0x24AF JUMP JUMPDEST POP PUSH1 0x4 DUP3 ADD SLOAD DUP2 PUSH1 0x4 ADD SSTORE PUSH1 0x5 DUP3 ADD PUSH0 SWAP1 SLOAD SWAP1 PUSH2 0x100 EXP SWAP1 DIV PUSH20 0xFFFFFFFFFFFFFFFFFFFFFFFFFFFFFFFFFFFFFFFF AND DUP2 PUSH1 0x5 ADD PUSH0 PUSH2 0x100 EXP DUP2 SLOAD DUP2 PUSH20 0xFFFFFFFFFFFFFFFFFFFFFFFFFFFFFFFFFFFFFFFF MUL NOT AND SWAP1 DUP4 PUSH20 0xFFFFFFFFFFFFFFFFFFFFFFFFFFFFFFFFFFFFFFFF AND MUL OR SWAP1 SSTORE POP POP POP PUSH1 0x2 PUSH0 DUP2 SLOAD DUP1 SWAP3 SWAP2 SWAP1 PUSH2 0xD54 SWAP1 PUSH2 0x2594 JUMP JUMPDEST SWAP2 SWAP1 POP SSTORE POP POP POP POP POP POP JUMP JUMPDEST PUSH2 0xD68 PUSH2 0x1701 JUMP JUMPDEST PUSH2 0xD71 PUSH0 PUSH2 0x1788 JUMP JUMPDEST JUMP JUMPDEST PUSH0 DUP1 PUSH0 SWAP1 SLOAD SWAP1 PUSH2 0x100 EXP SWAP1 DIV PUSH20 0xFFFFFFFFFFFFFFFFFFFFFFFFFFFFFFFFFFFFFFFF AND SWAP1 POP SWAP1 JUMP JUMPDEST PUSH1 0x60 PUSH0 DUP1 JUMPDEST PUSH1 0x6 DUP1 SLOAD SWAP1 POP DUP2 LT ISZERO PUSH2 0xDB9 JUMPI DUP1 DUP1 PUSH1 0x1 ADD SWAP2 POP POP PUSH2 0xD9F JUMP JUMPDEST POP POP SWAP2 SWAP1 POP JUMP JUMPDEST PUSH1 0x3 PUSH1 0x20 MSTORE DUP2 PUSH0 MSTORE PUSH1 0x40 PUSH0 KECCAK256 DUP2 DUP2 SLOAD DUP2 LT PUSH2 0xDD9 JUMPI PUSH0 DUP1 REVERT JUMPDEST SWAP1 PUSH0 MSTORE PUSH1 0x20 PUSH0 KECCAK256 SWAP1 PUSH1 0x6 MUL ADD PUSH0 SWAP2 POP SWAP2 POP POP DUP1 PUSH0 ADD SLOAD SWAP1 DUP1 PUSH1 0x1 ADD DUP1 SLOAD PUSH2 0xDFF SWAP1 PUSH2 0x21FE JUMP JUMPDEST DUP1 PUSH1 0x1F ADD PUSH1 0x20 DUP1 SWAP2 DIV MUL PUSH1 0x20 ADD PUSH1 0x40 MLOAD SWAP1 DUP2 ADD PUSH1 0x40 MSTORE DUP1 SWAP3 SWAP2 SWAP1 DUP2 DUP2 MSTORE PUSH1 0x20 ADD DUP3 DUP1 SLOAD PUSH2 0xE2B SWAP1 PUSH2 0x21FE JUMP JUMPDEST DUP1 ISZERO PUSH2 0xE76 JUMPI DUP1 PUSH1 0x1F LT PUSH2 0xE4D JUMPI PUSH2 0x100 DUP1 DUP4 SLOAD DIV MUL DUP4 MSTORE SWAP2 PUSH1 0x20 ADD SWAP2 PUSH2 0xE76 JUMP JUMPDEST DUP3 ADD SWAP2 SWAP1 PUSH0 MSTORE PUSH1 0x20 PUSH0 KECCAK256 SWAP1 JUMPDEST DUP2 SLOAD DUP2 MSTORE SWAP1 PUSH1 0x1 ADD SWAP1 PUSH1 0x20 ADD DUP1 DUP4 GT PUSH2 0xE59 JUMPI DUP3 SWAP1 SUB PUSH1 0x1F AND DUP3 ADD SWAP2 JUMPDEST POP POP POP POP POP SWAP1 DUP1 PUSH1 0x2 ADD DUP1 SLOAD PUSH2 0xE8B SWAP1 PUSH2 0x21FE JUMP JUMPDEST DUP1 PUSH1 0x1F ADD PUSH1 0x20 DUP1 SWAP2 DIV MUL PUSH1 0x20 ADD PUSH1 0x40 MLOAD SWAP1 DUP2 ADD PUSH1 0x40 MSTORE DUP1 SWAP3 SWAP2 SWAP1 DUP2 DUP2 MSTORE PUSH1 0x20 ADD DUP3 DUP1 SLOAD PUSH2 0xEB7 SWAP1 PUSH2 0x21FE JUMP JUMPDEST DUP1 ISZERO PUSH2 0xF02 JUMPI DUP1 PUSH1 0x1F LT PUSH2 0xED9 JUMPI PUSH2 0x100 DUP1 DUP4 SLOAD DIV MUL DUP4 MSTORE SWAP2 PUSH1 0x20 ADD SWAP2 PUSH2 0xF02 JUMP JUMPDEST DUP3 ADD SWAP2 SWAP1 PUSH0 MSTORE PUSH1 0x20 PUSH0 KECCAK256 SWAP1 JUMPDEST DUP2 SLOAD DUP2 MSTORE SWAP1 PUSH1 0x1 ADD SWAP1 PUSH1 0x20 ADD DUP1 DUP4 GT PUSH2 0xEE5 JUMPI DUP3 SWAP1 SUB PUSH1 0x1F AND DUP3 ADD SWAP2 JUMPDEST POP POP POP POP POP SWAP1 DUP1 PUSH1 0x3 ADD DUP1 SLOAD PUSH2 0xF17 SWAP1 PUSH2 0x21FE JUMP JUMPDEST DUP1 PUSH1 0x1F ADD PUSH1 0x20 DUP1 SWAP2 DIV MUL PUSH1 0x20 ADD PUSH1 0x40 MLOAD SWAP1 DUP2 ADD PUSH1 0x40 MSTORE DUP1 SWAP3 SWAP2 SWAP1 DUP2 DUP2 MSTORE PUSH1 0x20 ADD DUP3 DUP1 SLOAD PUSH2 0xF43 SWAP1 PUSH2 0x21FE JUMP JUMPDEST DUP1 ISZERO PUSH2 0xF8E JUMPI DUP1 PUSH1 0x1F LT PUSH2 0xF65 JUMPI PUSH2 0x100 DUP1 DUP4 SLOAD DIV MUL DUP4 MSTORE SWAP2 PUSH1 0x20 ADD SWAP2 PUSH2 0xF8E JUMP JUMPDEST DUP3 ADD SWAP2 SWAP1 PUSH0 MSTORE PUSH1 0x20 PUSH0 KECCAK256 SWAP1 JUMPDEST DUP2 SLOAD DUP2 MSTORE SWAP1 PUSH1 0x1 ADD SWAP1 PUSH1 0x20 ADD DUP1 DUP4 GT PUSH2 0xF71 JUMPI DUP3 SWAP1 SUB PUSH1 0x1F AND DUP3 ADD SWAP2 JUMPDEST POP POP POP POP POP SWAP1 DUP1 PUSH1 0x4 ADD SLOAD SWAP1 DUP1 PUSH1 0x5 ADD PUSH0 SWAP1 SLOAD SWAP1 PUSH2 0x100 EXP SWAP1 DIV PUSH20 0xFFFFFFFFFFFFFFFFFFFFFFFFFFFFFFFFFFFFFFFF AND SWAP1 POP DUP7 JUMP JUMPDEST PUSH1 0x6 DUP2 DUP2 SLOAD DUP2 LT PUSH2 0xFD2 JUMPI PUSH0 DUP1 REVERT JUMPDEST SWAP1 PUSH0 MSTORE PUSH1 0x20 PUSH0 KECCAK256 SWAP1 PUSH1 0x6 MUL ADD PUSH0 SWAP2 POP SWAP1 POP DUP1 PUSH0 ADD SLOAD SWAP1 DUP1 PUSH1 0x1 ADD DUP1 SLOAD PUSH2 0xFF7 SWAP1 PUSH2 0x21FE JUMP JUMPDEST DUP1 PUSH1 0x1F ADD PUSH1 0x20 DUP1 SWAP2 DIV MUL PUSH1 0x20 ADD PUSH1 0x40 MLOAD SWAP1 DUP2 ADD PUSH1 0x40 MSTORE DUP1 SWAP3 SWAP2 SWAP1 DUP2 DUP2 MSTORE PUSH1 0x20 ADD DUP3 DUP1 SLOAD PUSH2 0x1023 SWAP1 PUSH2 0x21FE JUMP JUMPDEST DUP1 ISZERO PUSH2 0x106E JUMPI DUP1 PUSH1 0x1F LT PUSH2 0x1045 JUMPI PUSH2 0x100 DUP1 DUP4 SLOAD DIV MUL DUP4 MSTORE SWAP2 PUSH1 0x20 ADD SWAP2 PUSH2 0x106E JUMP JUMPDEST DUP3 ADD SWAP2 SWAP1 PUSH0 MSTORE PUSH1 0x20 PUSH0 KECCAK256 SWAP1 JUMPDEST DUP2 SLOAD DUP2 MSTORE SWAP1 PUSH1 0x1 ADD SWAP1 PUSH1 0x20 ADD DUP1 DUP4 GT PUSH2 0x1051 JUMPI DUP3 SWAP1 SUB PUSH1 0x1F AND DUP3 ADD SWAP2 JUMPDEST POP POP POP POP POP SWAP1 DUP1 PUSH1 0x2 ADD DUP1 SLOAD PUSH2 0x1083 SWAP1 PUSH2 0x21FE JUMP JUMPDEST DUP1 PUSH1 0x1F ADD PUSH1 0x20 DUP1 SWAP2 DIV MUL PUSH1 0x20 ADD PUSH1 0x40 MLOAD SWAP1 DUP2 ADD PUSH1 0x40 MSTORE DUP1 SWAP3 SWAP2 SWAP1 DUP2 DUP2 MSTORE PUSH1 0x20 ADD DUP3 DUP1 SLOAD PUSH2 0x10AF SWAP1 PUSH2 0x21FE JUMP JUMPDEST DUP1 ISZERO PUSH2 0x10FA JUMPI DUP1 PUSH1 0x1F LT PUSH2 0x10D1 JUMPI PUSH2 0x100 DUP1 DUP4 SLOAD DIV MUL DUP4 MSTORE SWAP2 PUSH1 0x20 ADD SWAP2 PUSH2 0x10FA JUMP JUMPDEST DUP3 ADD SWAP2 SWAP1 PUSH0 MSTORE PUSH1 0x20 PUSH0 KECCAK256 SWAP1 JUMPDEST DUP2 SLOAD DUP2 MSTORE SWAP1 PUSH1 0x1 ADD SWAP1 PUSH1 0x20 ADD DUP1 DUP4 GT PUSH2 0x10DD JUMPI DUP3 SWAP1 SUB PUSH1 0x1F AND DUP3 ADD SWAP2 JUMPDEST POP POP POP POP POP SWAP1 DUP1 PUSH1 0x3 ADD DUP1 SLOAD PUSH2 0x110F SWAP1 PUSH2 0x21FE JUMP JUMPDEST DUP1 PUSH1 0x1F ADD PUSH1 0x20 DUP1 SWAP2 DIV MUL PUSH1 0x20 ADD PUSH1 0x40 MLOAD SWAP1 DUP2 ADD PUSH1 0x40 MSTORE DUP1 SWAP3 SWAP2 SWAP1 DUP2 DUP2 MSTORE PUSH1 0x20 ADD DUP3 DUP1 SLOAD PUSH2 0x113B SWAP1 PUSH2 0x21FE JUMP JUMPDEST DUP1 ISZERO PUSH2 0x1186 JUMPI DUP1 PUSH1 0x1F LT PUSH2 0x115D JUMPI PUSH2 0x100 DUP1 DUP4 SLOAD DIV MUL DUP4 MSTORE SWAP2 PUSH1 0x20 ADD SWAP2 PUSH2 0x1186 JUMP JUMPDEST DUP3 ADD SWAP2 SWAP1 PUSH0 MSTORE PUSH1 0x20 PUSH0 KECCAK256 SWAP1 JUMPDEST DUP2 SLOAD DUP2 MSTORE SWAP1 PUSH1 0x1 ADD SWAP1 PUSH1 0x20 ADD DUP1 DUP4 GT PUSH2 0x1169 JUMPI DUP3 SWAP1 SUB PUSH1 0x1F AND DUP3 ADD SWAP2 JUMPDEST POP POP POP POP POP SWAP1 DUP1 PUSH1 0x4 ADD SLOAD SWAP1 DUP1 PUSH1 0x5 ADD PUSH0 SWAP1 SLOAD SWAP1 PUSH2 0x100 EXP SWAP1 DIV PUSH20 0xFFFFFFFFFFFFFFFFFFFFFFFFFFFFFFFFFFFFFFFF AND SWAP1 POP DUP7 JUMP JUMPDEST PUSH1 0x60 DUP1 PUSH0 PUSH1 0x4 PUSH0 DUP6 DUP2 MSTORE PUSH1 0x20 ADD SWAP1 DUP2 MSTORE PUSH1 0x20 ADD PUSH0 KECCAK256 PUSH1 0x40 MLOAD DUP1 PUSH1 0xC0 ADD PUSH1 0x40 MSTORE SWAP1 DUP2 PUSH0 DUP3 ADD SLOAD DUP2 MSTORE PUSH1 0x20 ADD PUSH1 0x1 DUP3 ADD DUP1 SLOAD PUSH2 0x11F4 SWAP1 PUSH2 0x21FE JUMP JUMPDEST DUP1 PUSH1 0x1F ADD PUSH1 0x20 DUP1 SWAP2 DIV MUL PUSH1 0x20 ADD PUSH1 0x40 MLOAD SWAP1 DUP2 ADD PUSH1 0x40 MSTORE DUP1 SWAP3 SWAP2 SWAP1 DUP2 DUP2 MSTORE PUSH1 0x20 ADD DUP3 DUP1 SLOAD PUSH2 0x1220 SWAP1 PUSH2 0x21FE JUMP JUMPDEST DUP1 ISZERO PUSH2 0x126B JUMPI DUP1 PUSH1 0x1F LT PUSH2 0x1242 JUMPI PUSH2 0x100 DUP1 DUP4 SLOAD DIV MUL DUP4 MSTORE SWAP2 PUSH1 0x20 ADD SWAP2 PUSH2 0x126B JUMP JUMPDEST DUP3 ADD SWAP2 SWAP1 PUSH0 MSTORE PUSH1 0x20 PUSH0 KECCAK256 SWAP1 JUMPDEST DUP2 SLOAD DUP2 MSTORE SWAP1 PUSH1 0x1 ADD SWAP1 PUSH1 0x20 ADD DUP1 DUP4 GT PUSH2 0x124E JUMPI DUP3 SWAP1 SUB PUSH1 0x1F AND DUP3 ADD SWAP2 JUMPDEST POP POP POP POP POP DUP2 MSTORE PUSH1 0x20 ADD PUSH1 0x2 DUP3 ADD DUP1 SLOAD PUSH2 0x1284 SWAP1 PUSH2 0x21FE JUMP JUMPDEST DUP1 PUSH1 0x1F ADD PUSH1 0x20 DUP1 SWAP2 DIV MUL PUSH1 0x20 ADD PUSH1 0x40 MLOAD SWAP1 DUP2 ADD PUSH1 0x40 MSTORE DUP1 SWAP3 SWAP2 SWAP1 DUP2 DUP2 MSTORE PUSH1 0x20 ADD DUP3 DUP1 SLOAD PUSH2 0x12B0 SWAP1 PUSH2 0x21FE JUMP JUMPDEST DUP1 ISZERO PUSH2 0x12FB JUMPI DUP1 PUSH1 0x1F LT PUSH2 0x12D2 JUMPI PUSH2 0x100 DUP1 DUP4 SLOAD DIV MUL DUP4 MSTORE SWAP2 PUSH1 0x20 ADD SWAP2 PUSH2 0x12FB JUMP JUMPDEST DUP3 ADD SWAP2 SWAP1 PUSH0 MSTORE PUSH1 0x20 PUSH0 KECCAK256 SWAP1 JUMPDEST DUP2 SLOAD DUP2 MSTORE SWAP1 PUSH1 0x1 ADD SWAP1 PUSH1 0x20 ADD DUP1 DUP4 GT PUSH2 0x12DE JUMPI DUP3 SWAP1 SUB PUSH1 0x1F AND DUP3 ADD SWAP2 JUMPDEST POP POP POP POP POP DUP2 MSTORE PUSH1 0x20 ADD PUSH1 0x3 DUP3 ADD DUP1 SLOAD PUSH2 0x1314 SWAP1 PUSH2 0x21FE JUMP JUMPDEST DUP1 PUSH1 0x1F ADD PUSH1 0x20 DUP1 SWAP2 DIV MUL PUSH1 0x20 ADD PUSH1 0x40 MLOAD SWAP1 DUP2 ADD PUSH1 0x40 MSTORE DUP1 SWAP3 SWAP2 SWAP1 DUP2 DUP2 MSTORE PUSH1 0x20 ADD DUP3 DUP1 SLOAD PUSH2 0x1340 SWAP1 PUSH2 0x21FE JUMP JUMPDEST DUP1 ISZERO PUSH2 0x138B JUMPI DUP1 PUSH1 0x1F LT PUSH2 0x1362 JUMPI PUSH2 0x100 DUP1 DUP4 SLOAD DIV MUL DUP4 MSTORE SWAP2 PUSH1 0x20 ADD SWAP2 PUSH2 0x138B JUMP JUMPDEST DUP3 ADD SWAP2 SWAP1 PUSH0 MSTORE PUSH1 0x20 PUSH0 KECCAK256 SWAP1 JUMPDEST DUP2 SLOAD DUP2 MSTORE SWAP1 PUSH1 0x1 ADD SWAP1 PUSH1 0x20 ADD DUP1 DUP4 GT PUSH2 0x136E JUMPI DUP3 SWAP1 SUB PUSH1 0x1F AND DUP3 ADD SWAP2 JUMPDEST POP POP POP POP POP DUP2 MSTORE PUSH1 0x20 ADD PUSH1 0x4 DUP3 ADD SLOAD DUP2 MSTORE PUSH1 0x20 ADD PUSH1 0x5 DUP3 ADD PUSH0 SWAP1 SLOAD SWAP1 PUSH2 0x100 EXP SWAP1 DIV PUSH20 0xFFFFFFFFFFFFFFFFFFFFFFFFFFFFFFFFFFFFFFFF AND PUSH20 0xFFFFFFFFFFFFFFFFFFFFFFFFFFFFFFFFFFFFFFFF AND PUSH20 0xFFFFFFFFFFFFFFFFFFFFFFFFFFFFFFFFFFFFFFFF AND DUP2 MSTORE POP POP SWAP1 POP DUP1 PUSH1 0x20 ADD MLOAD DUP2 PUSH1 0x40 ADD MLOAD SWAP3 POP SWAP3 POP POP SWAP2 POP SWAP2 JUMP JUMPDEST PUSH2 0x1411 PUSH2 0x1701 JUMP JUMPDEST PUSH0 PUSH20 0xFFFFFFFFFFFFFFFFFFFFFFFFFFFFFFFFFFFFFFFF AND DUP2 PUSH20 0xFFFFFFFFFFFFFFFFFFFFFFFFFFFFFFFFFFFFFFFF AND SUB PUSH2 0x1481 JUMPI PUSH0 PUSH1 0x40 MLOAD PUSH32 0x1E4FBDF700000000000000000000000000000000000000000000000000000000 DUP2 MSTORE PUSH1 0x4 ADD PUSH2 0x1478 SWAP2 SWAP1 PUSH2 0x1E1E JUMP JUMPDEST PUSH1 0x40 MLOAD DUP1 SWAP2 SUB SWAP1 REVERT JUMPDEST PUSH2 0x148A DUP2 PUSH2 0x1788 JUMP JUMPDEST POP JUMP JUMPDEST PUSH1 0x60 PUSH1 0x6 DUP1 SLOAD DUP1 PUSH1 0x20 MUL PUSH1 0x20 ADD PUSH1 0x40 MLOAD SWAP1 DUP2 ADD PUSH1 0x40 MSTORE DUP1 SWAP3 SWAP2 SWAP1 DUP2 DUP2 MSTORE PUSH1 0x20 ADD PUSH0 SWAP1 JUMPDEST DUP3 DUP3 LT ISZERO PUSH2 0x16F8 JUMPI DUP4 DUP3 SWAP1 PUSH0 MSTORE PUSH1 0x20 PUSH0 KECCAK256 SWAP1 PUSH1 0x6 MUL ADD PUSH1 0x40 MLOAD DUP1 PUSH1 0xC0 ADD PUSH1 0x40 MSTORE SWAP1 DUP2 PUSH0 DUP3 ADD SLOAD DUP2 MSTORE PUSH1 0x20 ADD PUSH1 0x1 DUP3 ADD DUP1 SLOAD PUSH2 0x14EA SWAP1 PUSH2 0x21FE JUMP JUMPDEST DUP1 PUSH1 0x1F ADD PUSH1 0x20 DUP1 SWAP2 DIV MUL PUSH1 0x20 ADD PUSH1 0x40 MLOAD SWAP1 DUP2 ADD PUSH1 0x40 MSTORE DUP1 SWAP3 SWAP2 SWAP1 DUP2 DUP2 MSTORE PUSH1 0x20 ADD DUP3 DUP1 SLOAD PUSH2 0x1516 SWAP1 PUSH2 0x21FE JUMP JUMPDEST DUP1 ISZERO PUSH2 0x1561 JUMPI DUP1 PUSH1 0x1F LT PUSH2 0x1538 JUMPI PUSH2 0x100 DUP1 DUP4 SLOAD DIV MUL DUP4 MSTORE SWAP2 PUSH1 0x20 ADD SWAP2 PUSH2 0x1561 JUMP JUMPDEST DUP3 ADD SWAP2 SWAP1 PUSH0 MSTORE PUSH1 0x20 PUSH0 KECCAK256 SWAP1 JUMPDEST DUP2 SLOAD DUP2 MSTORE SWAP1 PUSH1 0x1 ADD SWAP1 PUSH1 0x20 ADD DUP1 DUP4 GT PUSH2 0x1544 JUMPI DUP3 SWAP1 SUB PUSH1 0x1F AND DUP3 ADD SWAP2 JUMPDEST POP POP POP POP POP DUP2 MSTORE PUSH1 0x20 ADD PUSH1 0x2 DUP3 ADD DUP1 SLOAD PUSH2 0x157A SWAP1 PUSH2 0x21FE JUMP JUMPDEST DUP1 PUSH1 0x1F ADD PUSH1 0x20 DUP1 SWAP2 DIV MUL PUSH1 0x20 ADD PUSH1 0x40 MLOAD SWAP1 DUP2 ADD PUSH1 0x40 MSTORE DUP1 SWAP3 SWAP2 SWAP1 DUP2 DUP2 MSTORE PUSH1 0x20 ADD DUP3 DUP1 SLOAD PUSH2 0x15A6 SWAP1 PUSH2 0x21FE JUMP JUMPDEST DUP1 ISZERO PUSH2 0x15F1 JUMPI DUP1 PUSH1 0x1F LT PUSH2 0x15C8 JUMPI PUSH2 0x100 DUP1 DUP4 SLOAD DIV MUL DUP4 MSTORE SWAP2 PUSH1 0x20 ADD SWAP2 PUSH2 0x15F1 JUMP JUMPDEST DUP3 ADD SWAP2 SWAP1 PUSH0 MSTORE PUSH1 0x20 PUSH0 KECCAK256 SWAP1 JUMPDEST DUP2 SLOAD DUP2 MSTORE SWAP1 PUSH1 0x1 ADD SWAP1 PUSH1 0x20 ADD DUP1 DUP4 GT PUSH2 0x15D4 JUMPI DUP3 SWAP1 SUB PUSH1 0x1F AND DUP3 ADD SWAP2 JUMPDEST POP POP POP POP POP DUP2 MSTORE PUSH1 0x20 ADD PUSH1 0x3 DUP3 ADD DUP1 SLOAD PUSH2 0x160A SWAP1 PUSH2 0x21FE JUMP JUMPDEST DUP1 PUSH1 0x1F ADD PUSH1 0x20 DUP1 SWAP2 DIV MUL PUSH1 0x20 ADD PUSH1 0x40 MLOAD SWAP1 DUP2 ADD PUSH1 0x40 MSTORE DUP1 SWAP3 SWAP2 SWAP1 DUP2 DUP2 MSTORE PUSH1 0x20 ADD DUP3 DUP1 SLOAD PUSH2 0x1636 SWAP1 PUSH2 0x21FE JUMP JUMPDEST DUP1 ISZERO PUSH2 0x1681 JUMPI DUP1 PUSH1 0x1F LT PUSH2 0x1658 JUMPI PUSH2 0x100 DUP1 DUP4 SLOAD DIV MUL DUP4 MSTORE SWAP2 PUSH1 0x20 ADD SWAP2 PUSH2 0x1681 JUMP JUMPDEST DUP3 ADD SWAP2 SWAP1 PUSH0 MSTORE PUSH1 0x20 PUSH0 KECCAK256 SWAP1 JUMPDEST DUP2 SLOAD DUP2 MSTORE SWAP1 PUSH1 0x1 ADD SWAP1 PUSH1 0x20 ADD DUP1 DUP4 GT PUSH2 0x1664 JUMPI DUP3 SWAP1 SUB PUSH1 0x1F AND DUP3 ADD SWAP2 JUMPDEST POP POP POP POP POP DUP2 MSTORE PUSH1 0x20 ADD PUSH1 0x4 DUP3 ADD SLOAD DUP2 MSTORE PUSH1 0x20 ADD PUSH1 0x5 DUP3 ADD PUSH0 SWAP1 SLOAD SWAP1 PUSH2 0x100 EXP SWAP1 DIV PUSH20 0xFFFFFFFFFFFFFFFFFFFFFFFFFFFFFFFFFFFFFFFF AND PUSH20 0xFFFFFFFFFFFFFFFFFFFFFFFFFFFFFFFFFFFFFFFF AND PUSH20 0xFFFFFFFFFFFFFFFFFFFFFFFFFFFFFFFFFFFFFFFF AND DUP2 MSTORE POP POP DUP2 MSTORE PUSH1 0x20 ADD SWAP1 PUSH1 0x1 ADD SWAP1 PUSH2 0x14B0 JUMP JUMPDEST POP POP POP POP SWAP1 POP SWAP1 JUMP JUMPDEST PUSH2 0x1709 PUSH2 0x1849 JUMP JUMPDEST PUSH20 0xFFFFFFFFFFFFFFFFFFFFFFFFFFFFFFFFFFFFFFFF AND PUSH2 0x1727 PUSH2 0xD73 JUMP JUMPDEST PUSH20 0xFFFFFFFFFFFFFFFFFFFFFFFFFFFFFFFFFFFFFFFF AND EQ PUSH2 0x1786 JUMPI PUSH2 0x174A PUSH2 0x1849 JUMP JUMPDEST PUSH1 0x40 MLOAD PUSH32 0x118CDAA700000000000000000000000000000000000000000000000000000000 DUP2 MSTORE PUSH1 0x4 ADD PUSH2 0x177D SWAP2 SWAP1 PUSH2 0x1E1E JUMP JUMPDEST PUSH1 0x40 MLOAD DUP1 SWAP2 SUB SWAP1 REVERT JUMPDEST JUMP JUMPDEST PUSH0 DUP1 PUSH0 SWAP1 SLOAD SWAP1 PUSH2 0x100 EXP SWAP1 DIV PUSH20 0xFFFFFFFFFFFFFFFFFFFFFFFFFFFFFFFFFFFFFFFF AND SWAP1 POP DUP2 PUSH0 DUP1 PUSH2 0x100 EXP DUP2 SLOAD DUP2 PUSH20 0xFFFFFFFFFFFFFFFFFFFFFFFFFFFFFFFFFFFFFFFF MUL NOT AND SWAP1 DUP4 PUSH20 0xFFFFFFFFFFFFFFFFFFFFFFFFFFFFFFFFFFFFFFFF AND MUL OR SWAP1 SSTORE POP DUP2 PUSH20 0xFFFFFFFFFFFFFFFFFFFFFFFFFFFFFFFFFFFFFFFF AND DUP2 PUSH20 0xFFFFFFFFFFFFFFFFFFFFFFFFFFFFFFFFFFFFFFFF AND PUSH32 0x8BE0079C531659141344CD1FD0A4F28419497F9722A3DAAFE3B4186F6B6457E0 PUSH1 0x40 MLOAD PUSH1 0x40 MLOAD DUP1 SWAP2 SUB SWAP1 LOG3 POP POP JUMP JUMPDEST PUSH0 CALLER SWAP1 POP SWAP1 JUMP JUMPDEST PUSH0 PUSH1 0x40 MLOAD SWAP1 POP SWAP1 JUMP JUMPDEST PUSH0 DUP1 REVERT JUMPDEST PUSH0 DUP1 REVERT JUMPDEST PUSH0 DUP2 SWAP1 POP SWAP2 SWAP1 POP JUMP JUMPDEST PUSH2 0x1873 DUP2 PUSH2 0x1861 JUMP JUMPDEST DUP2 EQ PUSH2 0x187D JUMPI PUSH0 DUP1 REVERT JUMPDEST POP JUMP JUMPDEST PUSH0 DUP2 CALLDATALOAD SWAP1 POP PUSH2 0x188E DUP2 PUSH2 0x186A JUMP JUMPDEST SWAP3 SWAP2 POP POP JUMP JUMPDEST PUSH0 PUSH1 0x20 DUP3 DUP5 SUB SLT ISZERO PUSH2 0x18A9 JUMPI PUSH2 0x18A8 PUSH2 0x1859 JUMP JUMPDEST JUMPDEST PUSH0 PUSH2 0x18B6 DUP5 DUP3 DUP6 ADD PUSH2 0x1880 JUMP JUMPDEST SWAP2 POP POP SWAP3 SWAP2 POP POP JUMP JUMPDEST PUSH2 0x18C8 DUP2 PUSH2 0x1861 JUMP JUMPDEST DUP3 MSTORE POP POP JUMP JUMPDEST PUSH0 DUP2 MLOAD SWAP1 POP SWAP2 SWAP1 POP JUMP JUMPDEST PUSH0 DUP3 DUP3 MSTORE PUSH1 0x20 DUP3 ADD SWAP1 POP SWAP3 SWAP2 POP POP JUMP JUMPDEST DUP3 DUP2 DUP4 MCOPY PUSH0 DUP4 DUP4 ADD MSTORE POP POP POP JUMP JUMPDEST PUSH0 PUSH1 0x1F NOT PUSH1 0x1F DUP4 ADD AND SWAP1 POP SWAP2 SWAP1 POP JUMP JUMPDEST PUSH0 PUSH2 0x1910 DUP3 PUSH2 0x18CE JUMP JUMPDEST PUSH2 0x191A DUP2 DUP6 PUSH2 0x18D8 JUMP JUMPDEST SWAP4 POP PUSH2 0x192A DUP2 DUP6 PUSH1 0x20 DUP7 ADD PUSH2 0x18E8 JUMP JUMPDEST PUSH2 0x1933 DUP2 PUSH2 0x18F6 JUMP JUMPDEST DUP5 ADD SWAP2 POP POP SWAP3 SWAP2 POP POP JUMP JUMPDEST PUSH0 PUSH20 0xFFFFFFFFFFFFFFFFFFFFFFFFFFFFFFFFFFFFFFFF DUP3 AND SWAP1 POP SWAP2 SWAP1 POP JUMP JUMPDEST PUSH0 PUSH2 0x1967 DUP3 PUSH2 0x193E JUMP JUMPDEST SWAP1 POP SWAP2 SWAP1 POP JUMP JUMPDEST PUSH2 0x1977 DUP2 PUSH2 0x195D JUMP JUMPDEST DUP3 MSTORE POP POP JUMP JUMPDEST PUSH0 PUSH1 0xC0 DUP3 ADD SWAP1 POP PUSH2 0x1990 PUSH0 DUP4 ADD DUP10 PUSH2 0x18BF JUMP JUMPDEST DUP2 DUP2 SUB PUSH1 0x20 DUP4 ADD MSTORE PUSH2 0x19A2 DUP2 DUP9 PUSH2 0x1906 JUMP JUMPDEST SWAP1 POP DUP2 DUP2 SUB PUSH1 0x40 DUP4 ADD MSTORE PUSH2 0x19B6 DUP2 DUP8 PUSH2 0x1906 JUMP JUMPDEST SWAP1 POP DUP2 DUP2 SUB PUSH1 0x60 DUP4 ADD MSTORE PUSH2 0x19CA DUP2 DUP7 PUSH2 0x1906 JUMP JUMPDEST SWAP1 POP PUSH2 0x19D9 PUSH1 0x80 DUP4 ADD DUP6 PUSH2 0x18BF JUMP JUMPDEST PUSH2 0x19E6 PUSH1 0xA0 DUP4 ADD DUP5 PUSH2 0x196E JUMP JUMPDEST SWAP8 SWAP7 POP POP POP POP POP POP POP JUMP JUMPDEST PUSH2 0x19FA DUP2 PUSH2 0x195D JUMP JUMPDEST DUP2 EQ PUSH2 0x1A04 JUMPI PUSH0 DUP1 REVERT JUMPDEST POP JUMP JUMPDEST PUSH0 DUP2 CALLDATALOAD SWAP1 POP PUSH2 0x1A15 DUP2 PUSH2 0x19F1 JUMP JUMPDEST SWAP3 SWAP2 POP POP JUMP JUMPDEST PUSH0 PUSH1 0x20 DUP3 DUP5 SUB SLT ISZERO PUSH2 0x1A30 JUMPI PUSH2 0x1A2F PUSH2 0x1859 JUMP JUMPDEST JUMPDEST PUSH0 PUSH2 0x1A3D DUP5 DUP3 DUP6 ADD PUSH2 0x1A07 JUMP JUMPDEST SWAP2 POP POP SWAP3 SWAP2 POP POP JUMP JUMPDEST PUSH0 DUP2 MLOAD SWAP1 POP SWAP2 SWAP1 POP JUMP JUMPDEST PUSH0 DUP3 DUP3 MSTORE PUSH1 0x20 DUP3 ADD SWAP1 POP SWAP3 SWAP2 POP POP JUMP JUMPDEST PUSH0 DUP2 SWAP1 POP PUSH1 0x20 DUP3 ADD SWAP1 POP SWAP2 SWAP1 POP JUMP JUMPDEST PUSH2 0x1A78 DUP2 PUSH2 0x1861 JUMP JUMPDEST DUP3 MSTORE POP POP JUMP JUMPDEST PUSH0 DUP3 DUP3 MSTORE PUSH1 0x20 DUP3 ADD SWAP1 POP SWAP3 SWAP2 POP POP JUMP JUMPDEST PUSH0 PUSH2 0x1A98 DUP3 PUSH2 0x18CE JUMP JUMPDEST PUSH2 0x1AA2 DUP2 DUP6 PUSH2 0x1A7E JUMP JUMPDEST SWAP4 POP PUSH2 0x1AB2 DUP2 DUP6 PUSH1 0x20 DUP7 ADD PUSH2 0x18E8 JUMP JUMPDEST PUSH2 0x1ABB DUP2 PUSH2 0x18F6 JUMP JUMPDEST DUP5 ADD SWAP2 POP POP SWAP3 SWAP2 POP POP JUMP JUMPDEST PUSH2 0x1ACF DUP2 PUSH2 0x195D JUMP JUMPDEST DUP3 MSTORE POP POP JUMP JUMPDEST PUSH0 PUSH1 0xC0 DUP4 ADD PUSH0 DUP4 ADD MLOAD PUSH2 0x1AEA PUSH0 DUP7 ADD DUP3 PUSH2 0x1A6F JUMP JUMPDEST POP PUSH1 0x20 DUP4 ADD MLOAD DUP5 DUP3 SUB PUSH1 0x20 DUP7 ADD MSTORE PUSH2 0x1B02 DUP3 DUP3 PUSH2 0x1A8E JUMP JUMPDEST SWAP2 POP POP PUSH1 0x40 DUP4 ADD MLOAD DUP5 DUP3 SUB PUSH1 0x40 DUP7 ADD MSTORE PUSH2 0x1B1C DUP3 DUP3 PUSH2 0x1A8E JUMP JUMPDEST SWAP2 POP POP PUSH1 0x60 DUP4 ADD MLOAD DUP5 DUP3 SUB PUSH1 0x60 DUP7 ADD MSTORE PUSH2 0x1B36 DUP3 DUP3 PUSH2 0x1A8E JUMP JUMPDEST SWAP2 POP POP PUSH1 0x80 DUP4 ADD MLOAD PUSH2 0x1B4B PUSH1 0x80 DUP7 ADD DUP3 PUSH2 0x1A6F JUMP JUMPDEST POP PUSH1 0xA0 DUP4 ADD MLOAD PUSH2 0x1B5E PUSH1 0xA0 DUP7 ADD DUP3 PUSH2 0x1AC6 JUMP JUMPDEST POP DUP1 SWAP2 POP POP SWAP3 SWAP2 POP POP JUMP JUMPDEST PUSH0 PUSH2 0x1B74 DUP4 DUP4 PUSH2 0x1AD5 JUMP JUMPDEST SWAP1 POP SWAP3 SWAP2 POP POP JUMP JUMPDEST PUSH0 PUSH1 0x20 DUP3 ADD SWAP1 POP SWAP2 SWAP1 POP JUMP JUMPDEST PUSH0 PUSH2 0x1B92 DUP3 PUSH2 0x1A46 JUMP JUMPDEST PUSH2 0x1B9C DUP2 DUP6 PUSH2 0x1A50 JUMP JUMPDEST SWAP4 POP DUP4 PUSH1 0x20 DUP3 MUL DUP6 ADD PUSH2 0x1BAE DUP6 PUSH2 0x1A60 JUMP JUMPDEST DUP1 PUSH0 JUMPDEST DUP6 DUP2 LT ISZERO PUSH2 0x1BE9 JUMPI DUP5 DUP5 SUB DUP10 MSTORE DUP2 MLOAD PUSH2 0x1BCA DUP6 DUP3 PUSH2 0x1B69 JUMP JUMPDEST SWAP5 POP PUSH2 0x1BD5 DUP4 PUSH2 0x1B7C JUMP JUMPDEST SWAP3 POP PUSH1 0x20 DUP11 ADD SWAP10 POP POP PUSH1 0x1 DUP2 ADD SWAP1 POP PUSH2 0x1BB1 JUMP JUMPDEST POP DUP3 SWAP8 POP DUP8 SWAP6 POP POP POP POP POP POP SWAP3 SWAP2 POP POP JUMP JUMPDEST PUSH0 PUSH1 0x20 DUP3 ADD SWAP1 POP DUP2 DUP2 SUB PUSH0 DUP4 ADD MSTORE PUSH2 0x1C13 DUP2 DUP5 PUSH2 0x1B88 JUMP JUMPDEST SWAP1 POP SWAP3 SWAP2 POP POP JUMP JUMPDEST PUSH0 DUP2 ISZERO ISZERO SWAP1 POP SWAP2 SWAP1 POP JUMP JUMPDEST PUSH2 0x1C2F DUP2 PUSH2 0x1C1B JUMP JUMPDEST DUP3 MSTORE POP POP JUMP JUMPDEST PUSH0 PUSH1 0x20 DUP3 ADD SWAP1 POP PUSH2 0x1C48 PUSH0 DUP4 ADD DUP5 PUSH2 0x1C26 JUMP JUMPDEST SWAP3 SWAP2 POP POP JUMP JUMPDEST PUSH0 DUP1 REVERT JUMPDEST PUSH0 DUP1 REVERT JUMPDEST PUSH32 0x4E487B7100000000000000000000000000000000000000000000000000000000 PUSH0 MSTORE PUSH1 0x41 PUSH1 0x4 MSTORE PUSH1 0x24 PUSH0 REVERT JUMPDEST PUSH2 0x1C8C DUP3 PUSH2 0x18F6 JUMP JUMPDEST DUP2 ADD DUP2 DUP2 LT PUSH8 0xFFFFFFFFFFFFFFFF DUP3 GT OR ISZERO PUSH2 0x1CAB JUMPI PUSH2 0x1CAA PUSH2 0x1C56 JUMP JUMPDEST JUMPDEST DUP1 PUSH1 0x40 MSTORE POP POP POP JUMP JUMPDEST PUSH0 PUSH2 0x1CBD PUSH2 0x1850 JUMP JUMPDEST SWAP1 POP PUSH2 0x1CC9 DUP3 DUP3 PUSH2 0x1C83 JUMP JUMPDEST SWAP2 SWAP1 POP JUMP JUMPDEST PUSH0 PUSH8 0xFFFFFFFFFFFFFFFF DUP3 GT ISZERO PUSH2 0x1CE8 JUMPI PUSH2 0x1CE7 PUSH2 0x1C56 JUMP JUMPDEST JUMPDEST PUSH2 0x1CF1 DUP3 PUSH2 0x18F6 JUMP JUMPDEST SWAP1 POP PUSH1 0x20 DUP2 ADD SWAP1 POP SWAP2 SWAP1 POP JUMP JUMPDEST DUP3 DUP2 DUP4 CALLDATACOPY PUSH0 DUP4 DUP4 ADD MSTORE POP POP POP JUMP JUMPDEST PUSH0 PUSH2 0x1D1E PUSH2 0x1D19 DUP5 PUSH2 0x1CCE JUMP JUMPDEST PUSH2 0x1CB4 JUMP JUMPDEST SWAP1 POP DUP3 DUP2 MSTORE PUSH1 0x20 DUP2 ADD DUP5 DUP5 DUP5 ADD GT ISZERO PUSH2 0x1D3A JUMPI PUSH2 0x1D39 PUSH2 0x1C52 JUMP JUMPDEST JUMPDEST PUSH2 0x1D45 DUP5 DUP3 DUP6 PUSH2 0x1CFE JUMP JUMPDEST POP SWAP4 SWAP3 POP POP POP JUMP JUMPDEST PUSH0 DUP3 PUSH1 0x1F DUP4 ADD SLT PUSH2 0x1D61 JUMPI PUSH2 0x1D60 PUSH2 0x1C4E JUMP JUMPDEST JUMPDEST DUP2 CALLDATALOAD PUSH2 0x1D71 DUP5 DUP3 PUSH1 0x20 DUP7 ADD PUSH2 0x1D0C JUMP JUMPDEST SWAP2 POP POP SWAP3 SWAP2 POP POP JUMP JUMPDEST PUSH0 DUP1 PUSH0 PUSH1 0x60 DUP5 DUP7 SUB SLT ISZERO PUSH2 0x1D91 JUMPI PUSH2 0x1D90 PUSH2 0x1859 JUMP JUMPDEST JUMPDEST PUSH0 DUP5 ADD CALLDATALOAD PUSH8 0xFFFFFFFFFFFFFFFF DUP2 GT ISZERO PUSH2 0x1DAE JUMPI PUSH2 0x1DAD PUSH2 0x185D JUMP JUMPDEST JUMPDEST PUSH2 0x1DBA DUP7 DUP3 DUP8 ADD PUSH2 0x1D4D JUMP JUMPDEST SWAP4 POP POP PUSH1 0x20 DUP5 ADD CALLDATALOAD PUSH8 0xFFFFFFFFFFFFFFFF DUP2 GT ISZERO PUSH2 0x1DDB JUMPI PUSH2 0x1DDA PUSH2 0x185D JUMP JUMPDEST JUMPDEST PUSH2 0x1DE7 DUP7 DUP3 DUP8 ADD PUSH2 0x1D4D JUMP JUMPDEST SWAP3 POP POP PUSH1 0x40 DUP5 ADD CALLDATALOAD PUSH8 0xFFFFFFFFFFFFFFFF DUP2 GT ISZERO PUSH2 0x1E08 JUMPI PUSH2 0x1E07 PUSH2 0x185D JUMP JUMPDEST JUMPDEST PUSH2 0x1E14 DUP7 DUP3 DUP8 ADD PUSH2 0x1D4D JUMP JUMPDEST SWAP2 POP POP SWAP3 POP SWAP3 POP SWAP3 JUMP JUMPDEST PUSH0 PUSH1 0x20 DUP3 ADD SWAP1 POP PUSH2 0x1E31 PUSH0 DUP4 ADD DUP5 PUSH2 0x196E JUMP JUMPDEST SWAP3 SWAP2 POP POP JUMP JUMPDEST PUSH0 PUSH1 0x20 DUP3 DUP5 SUB SLT ISZERO PUSH2 0x1E4C JUMPI PUSH2 0x1E4B PUSH2 0x1859 JUMP JUMPDEST JUMPDEST PUSH0 DUP3 ADD CALLDATALOAD PUSH8 0xFFFFFFFFFFFFFFFF DUP2 GT ISZERO PUSH2 0x1E69 JUMPI PUSH2 0x1E68 PUSH2 0x185D JUMP JUMPDEST JUMPDEST PUSH2 0x1E75 DUP5 DUP3 DUP6 ADD PUSH2 0x1D4D JUMP JUMPDEST SWAP2 POP POP SWAP3 SWAP2 POP POP JUMP JUMPDEST PUSH0 DUP1 PUSH1 0x40 DUP4 DUP6 SUB SLT ISZERO PUSH2 0x1E94 JUMPI PUSH2 0x1E93 PUSH2 0x1859 JUMP JUMPDEST JUMPDEST PUSH0 PUSH2 0x1EA1 DUP6 DUP3 DUP7 ADD PUSH2 0x1A07 JUMP JUMPDEST SWAP3 POP POP PUSH1 0x20 PUSH2 0x1EB2 DUP6 DUP3 DUP7 ADD PUSH2 0x1880 JUMP JUMPDEST SWAP2 POP POP SWAP3 POP SWAP3 SWAP1 POP JUMP JUMPDEST PUSH0 PUSH1 0x40 DUP3 ADD SWAP1 POP DUP2 DUP2 SUB PUSH0 DUP4 ADD MSTORE PUSH2 0x1ED4 DUP2 DUP6 PUSH2 0x1906 JUMP JUMPDEST SWAP1 POP DUP2 DUP2 SUB PUSH1 0x20 DUP4 ADD MSTORE PUSH2 0x1EE8 DUP2 DUP5 PUSH2 0x1906 JUMP JUMPDEST SWAP1 POP SWAP4 SWAP3 POP POP POP JUMP JUMPDEST PUSH0 DUP1 REVERT JUMPDEST PUSH0 DUP1 REVERT JUMPDEST PUSH0 PUSH2 0x1F0B PUSH2 0x1F06 DUP5 PUSH2 0x1CCE JUMP JUMPDEST PUSH2 0x1CB4 JUMP JUMPDEST SWAP1 POP DUP3 DUP2 MSTORE PUSH1 0x20 DUP2 ADD DUP5 DUP5 DUP5 ADD GT ISZERO PUSH2 0x1F27 JUMPI PUSH2 0x1F26 PUSH2 0x1C52 JUMP JUMPDEST JUMPDEST PUSH2 0x1F32 DUP5 DUP3 DUP6 PUSH2 0x18E8 JUMP JUMPDEST POP SWAP4 SWAP3 POP POP POP JUMP JUMPDEST PUSH0 DUP3 PUSH1 0x1F DUP4 ADD SLT PUSH2 0x1F4E JUMPI PUSH2 0x1F4D PUSH2 0x1C4E JUMP JUMPDEST JUMPDEST DUP2 MLOAD PUSH2 0x1F5E DUP5 DUP3 PUSH1 0x20 DUP7 ADD PUSH2 0x1EF9 JUMP JUMPDEST SWAP2 POP POP SWAP3 SWAP2 POP POP JUMP JUMPDEST PUSH2 0x1F70 DUP2 PUSH2 0x1C1B JUMP JUMPDEST DUP2 EQ PUSH2 0x1F7A JUMPI PUSH0 DUP1 REVERT JUMPDEST POP JUMP JUMPDEST PUSH0 DUP2 MLOAD SWAP1 POP PUSH2 0x1F8B DUP2 PUSH2 0x1F67 JUMP JUMPDEST SWAP3 SWAP2 POP POP JUMP JUMPDEST PUSH0 PUSH1 0x80 DUP3 DUP5 SUB SLT ISZERO PUSH2 0x1FA6 JUMPI PUSH2 0x1FA5 PUSH2 0x1EF1 JUMP JUMPDEST JUMPDEST PUSH2 0x1FB0 PUSH1 0x80 PUSH2 0x1CB4 JUMP JUMPDEST SWAP1 POP PUSH0 DUP3 ADD MLOAD PUSH8 0xFFFFFFFFFFFFFFFF DUP2 GT ISZERO PUSH2 0x1FCF JUMPI PUSH2 0x1FCE PUSH2 0x1EF5 JUMP JUMPDEST JUMPDEST PUSH2 0x1FDB DUP5 DUP3 DUP6 ADD PUSH2 0x1F3A JUMP JUMPDEST PUSH0 DUP4 ADD MSTORE POP PUSH1 0x20 DUP3 ADD MLOAD PUSH8 0xFFFFFFFFFFFFFFFF DUP2 GT ISZERO PUSH2 0x1FFE JUMPI PUSH2 0x1FFD PUSH2 0x1EF5 JUMP JUMPDEST JUMPDEST PUSH2 0x200A DUP5 DUP3 DUP6 ADD PUSH2 0x1F3A JUMP JUMPDEST PUSH1 0x20 DUP4 ADD MSTORE POP PUSH1 0x40 DUP3 ADD MLOAD PUSH8 0xFFFFFFFFFFFFFFFF DUP2 GT ISZERO PUSH2 0x202E JUMPI PUSH2 0x202D PUSH2 0x1EF5 JUMP JUMPDEST JUMPDEST PUSH2 0x203A DUP5 DUP3 DUP6 ADD PUSH2 0x1F3A JUMP JUMPDEST PUSH1 0x40 DUP4 ADD MSTORE POP PUSH1 0x60 PUSH2 0x204E DUP5 DUP3 DUP6 ADD PUSH2 0x1F7D JUMP JUMPDEST PUSH1 0x60 DUP4 ADD MSTORE POP SWAP3 SWAP2 POP POP JUMP JUMPDEST PUSH0 PUSH1 0x20 DUP3 DUP5 SUB SLT ISZERO PUSH2 0x206F JUMPI PUSH2 0x206E PUSH2 0x1859 JUMP JUMPDEST JUMPDEST PUSH0 DUP3 ADD MLOAD PUSH8 0xFFFFFFFFFFFFFFFF DUP2 GT ISZERO PUSH2 0x208C JUMPI PUSH2 0x208B PUSH2 0x185D JUMP JUMPDEST JUMPDEST PUSH2 0x2098 DUP5 DUP3 DUP6 ADD PUSH2 0x1F91 JUMP JUMPDEST SWAP2 POP POP SWAP3 SWAP2 POP POP JUMP JUMPDEST PUSH32 0x596F75206861766520746F205265676973746572640000000000000000000000 PUSH0 DUP3 ADD MSTORE POP JUMP JUMPDEST PUSH0 PUSH2 0x20D5 PUSH1 0x15 DUP4 PUSH2 0x18D8 JUMP JUMPDEST SWAP2 POP PUSH2 0x20E0 DUP3 PUSH2 0x20A1 JUMP JUMPDEST PUSH1 0x20 DUP3 ADD SWAP1 POP SWAP2 SWAP1 POP JUMP JUMPDEST PUSH0 PUSH1 0x20 DUP3 ADD SWAP1 POP DUP2 DUP2 SUB PUSH0 DUP4 ADD MSTORE PUSH2 0x2102 DUP2 PUSH2 0x20C9 JUMP JUMPDEST SWAP1 POP SWAP2 SWAP1 POP JUMP JUMPDEST PUSH32 0x596F752061726520616C726561647920566F7465642100000000000000000000 PUSH0 DUP3 ADD MSTORE POP JUMP JUMPDEST PUSH0 PUSH2 0x213D PUSH1 0x16 DUP4 PUSH2 0x18D8 JUMP JUMPDEST SWAP2 POP PUSH2 0x2148 DUP3 PUSH2 0x2109 JUMP JUMPDEST PUSH1 0x20 DUP3 ADD SWAP1 POP SWAP2 SWAP1 POP JUMP JUMPDEST PUSH0 PUSH1 0x20 DUP3 ADD SWAP1 POP DUP2 DUP2 SUB PUSH0 DUP4 ADD MSTORE PUSH2 0x216A DUP2 PUSH2 0x2131 JUMP JUMPDEST SWAP1 POP SWAP2 SWAP1 POP JUMP JUMPDEST PUSH32 0x4E487B7100000000000000000000000000000000000000000000000000000000 PUSH0 MSTORE PUSH1 0x11 PUSH1 0x4 MSTORE PUSH1 0x24 PUSH0 REVERT JUMPDEST PUSH0 PUSH2 0x21A8 DUP3 PUSH2 0x1861 JUMP JUMPDEST SWAP2 POP PUSH2 0x21B3 DUP4 PUSH2 0x1861 JUMP JUMPDEST SWAP3 POP DUP3 DUP3 ADD SWAP1 POP DUP1 DUP3 GT ISZERO PUSH2 0x21CB JUMPI PUSH2 0x21CA PUSH2 0x2171 JUMP JUMPDEST JUMPDEST SWAP3 SWAP2 POP POP JUMP JUMPDEST PUSH32 0x4E487B7100000000000000000000000000000000000000000000000000000000 PUSH0 MSTORE PUSH1 0x22 PUSH1 0x4 MSTORE PUSH1 0x24 PUSH0 REVERT JUMPDEST PUSH0 PUSH1 0x2 DUP3 DIV SWAP1 POP PUSH1 0x1 DUP3 AND DUP1 PUSH2 0x2215 JUMPI PUSH1 0x7F DUP3 AND SWAP2 POP JUMPDEST PUSH1 0x20 DUP3 LT DUP2 SUB PUSH2 0x2228 JUMPI PUSH2 0x2227 PUSH2 0x21D1 JUMP JUMPDEST JUMPDEST POP SWAP2 SWAP1 POP JUMP JUMPDEST PUSH0 DUP2 SWAP1 POP DUP2 PUSH0 MSTORE PUSH1 0x20 PUSH0 KECCAK256 SWAP1 POP SWAP2 SWAP1 POP JUMP JUMPDEST PUSH0 PUSH1 0x20 PUSH1 0x1F DUP4 ADD DIV SWAP1 POP SWAP2 SWAP1 POP JUMP JUMPDEST PUSH0 DUP3 DUP3 SHL SWAP1 POP SWAP3 SWAP2 POP POP JUMP JUMPDEST PUSH0 PUSH1 0x8 DUP4 MUL PUSH2 0x228A PUSH32 0xFFFFFFFFFFFFFFFFFFFFFFFFFFFFFFFFFFFFFFFFFFFFFFFFFFFFFFFFFFFFFFFF DUP3 PUSH2 0x224F JUMP JUMPDEST PUSH2 0x2294 DUP7 DUP4 PUSH2 0x224F JUMP JUMPDEST SWAP6 POP DUP1 NOT DUP5 AND SWAP4 POP DUP1 DUP7 AND DUP5 OR SWAP3 POP POP POP SWAP4 SWAP3 POP POP POP JUMP JUMPDEST PUSH0 DUP2 SWAP1 POP SWAP2 SWAP1 POP JUMP JUMPDEST PUSH0 PUSH2 0x22CF PUSH2 0x22CA PUSH2 0x22C5 DUP5 PUSH2 0x1861 JUMP JUMPDEST PUSH2 0x22AC JUMP JUMPDEST PUSH2 0x1861 JUMP JUMPDEST SWAP1 POP SWAP2 SWAP1 POP JUMP JUMPDEST PUSH0 DUP2 SWAP1 POP SWAP2 SWAP1 POP JUMP JUMPDEST PUSH2 0x22E8 DUP4 PUSH2 0x22B5 JUMP JUMPDEST PUSH2 0x22FC PUSH2 0x22F4 DUP3 PUSH2 0x22D6 JUMP JUMPDEST DUP5 DUP5 SLOAD PUSH2 0x225B JUMP JUMPDEST DUP3 SSTORE POP POP POP POP JUMP JUMPDEST PUSH0 SWAP1 JUMP JUMPDEST PUSH2 0x2310 PUSH2 0x2304 JUMP JUMPDEST PUSH2 0x231B DUP2 DUP5 DUP5 PUSH2 0x22DF JUMP JUMPDEST POP POP POP JUMP JUMPDEST JUMPDEST DUP2 DUP2 LT ISZERO PUSH2 0x233E JUMPI PUSH2 0x2333 PUSH0 DUP3 PUSH2 0x2308 JUMP JUMPDEST PUSH1 0x1 DUP2 ADD SWAP1 POP PUSH2 0x2321 JUMP JUMPDEST POP POP JUMP JUMPDEST PUSH1 0x1F DUP3 GT ISZERO PUSH2 0x2383 JUMPI PUSH2 0x2354 DUP2 PUSH2 0x222E JUMP JUMPDEST PUSH2 0x235D DUP5 PUSH2 0x2240 JUMP JUMPDEST DUP2 ADD PUSH1 0x20 DUP6 LT ISZERO PUSH2 0x236C JUMPI DUP2 SWAP1 POP JUMPDEST PUSH2 0x2380 PUSH2 0x2378 DUP6 PUSH2 0x2240 JUMP JUMPDEST DUP4 ADD DUP3 PUSH2 0x2320 JUMP JUMPDEST POP POP JUMPDEST POP POP POP JUMP JUMPDEST PUSH0 DUP3 DUP3 SHR SWAP1 POP SWAP3 SWAP2 POP POP JUMP JUMPDEST PUSH0 PUSH2 0x23A3 PUSH0 NOT DUP5 PUSH1 0x8 MUL PUSH2 0x2388 JUMP JUMPDEST NOT DUP1 DUP4 AND SWAP2 POP POP SWAP3 SWAP2 POP POP JUMP JUMPDEST PUSH0 PUSH2 0x23BB DUP4 DUP4 PUSH2 0x2394 JUMP JUMPDEST SWAP2 POP DUP3 PUSH1 0x2 MUL DUP3 OR SWAP1 POP SWAP3 SWAP2 POP POP JUMP JUMPDEST PUSH2 0x23D4 DUP3 PUSH2 0x18CE JUMP JUMPDEST PUSH8 0xFFFFFFFFFFFFFFFF DUP2 GT ISZERO PUSH2 0x23ED JUMPI PUSH2 0x23EC PUSH2 0x1C56 JUMP JUMPDEST JUMPDEST PUSH2 0x23F7 DUP3 SLOAD PUSH2 0x21FE JUMP JUMPDEST PUSH2 0x2402 DUP3 DUP3 DUP6 PUSH2 0x2342 JUMP JUMPDEST PUSH0 PUSH1 0x20 SWAP1 POP PUSH1 0x1F DUP4 GT PUSH1 0x1 DUP2 EQ PUSH2 0x2433 JUMPI PUSH0 DUP5 ISZERO PUSH2 0x2421 JUMPI DUP3 DUP8 ADD MLOAD SWAP1 POP JUMPDEST PUSH2 0x242B DUP6 DUP3 PUSH2 0x23B0 JUMP JUMPDEST DUP7 SSTORE POP PUSH2 0x2492 JUMP JUMPDEST PUSH1 0x1F NOT DUP5 AND PUSH2 0x2441 DUP7 PUSH2 0x222E JUMP JUMPDEST PUSH0 JUMPDEST DUP3 DUP2 LT ISZERO PUSH2 0x2468 JUMPI DUP5 DUP10 ADD MLOAD DUP3 SSTORE PUSH1 0x1 DUP3 ADD SWAP2 POP PUSH1 0x20 DUP6 ADD SWAP5 POP PUSH1 0x20 DUP2 ADD SWAP1 POP PUSH2 0x2443 JUMP JUMPDEST DUP7 DUP4 LT ISZERO PUSH2 0x2485 JUMPI DUP5 DUP10 ADD MLOAD PUSH2 0x2481 PUSH1 0x1F DUP10 AND DUP3 PUSH2 0x2394 JUMP JUMPDEST DUP4 SSTORE POP JUMPDEST PUSH1 0x1 PUSH1 0x2 DUP9 MUL ADD DUP9 SSTORE POP POP POP JUMPDEST POP POP POP POP POP POP JUMP JUMPDEST PUSH0 DUP2 SLOAD SWAP1 POP PUSH2 0x24A8 DUP2 PUSH2 0x21FE JUMP JUMPDEST SWAP1 POP SWAP2 SWAP1 POP JUMP JUMPDEST DUP2 DUP2 SUB PUSH2 0x24BD JUMPI POP POP PUSH2 0x2592 JUMP JUMPDEST PUSH2 0x24C6 DUP3 PUSH2 0x249A JUMP JUMPDEST PUSH8 0xFFFFFFFFFFFFFFFF DUP2 GT ISZERO PUSH2 0x24DF JUMPI PUSH2 0x24DE PUSH2 0x1C56 JUMP JUMPDEST JUMPDEST PUSH2 0x24E9 DUP3 SLOAD PUSH2 0x21FE JUMP JUMPDEST PUSH2 0x24F4 DUP3 DUP3 DUP6 PUSH2 0x2342 JUMP JUMPDEST PUSH0 PUSH1 0x1F DUP4 GT PUSH1 0x1 DUP2 EQ PUSH2 0x2521 JUMPI PUSH0 DUP5 ISZERO PUSH2 0x250F JUMPI DUP3 DUP8 ADD SLOAD SWAP1 POP JUMPDEST PUSH2 0x2519 DUP6 DUP3 PUSH2 0x23B0 JUMP JUMPDEST DUP7 SSTORE POP PUSH2 0x258B JUMP JUMPDEST PUSH1 0x1F NOT DUP5 AND PUSH2 0x252F DUP8 PUSH2 0x222E JUMP JUMPDEST SWAP7 POP PUSH2 0x253A DUP7 PUSH2 0x222E JUMP JUMPDEST PUSH0 JUMPDEST DUP3 DUP2 LT ISZERO PUSH2 0x2561 JUMPI DUP5 DUP10 ADD SLOAD DUP3 SSTORE PUSH1 0x1 DUP3 ADD SWAP2 POP PUSH1 0x1 DUP6 ADD SWAP5 POP PUSH1 0x20 DUP2 ADD SWAP1 POP PUSH2 0x253C JUMP JUMPDEST DUP7 DUP4 LT ISZERO PUSH2 0x257E JUMPI DUP5 DUP10 ADD SLOAD PUSH2 0x257A PUSH1 0x1F DUP10 AND DUP3 PUSH2 0x2394 JUMP JUMPDEST DUP4 SSTORE POP JUMPDEST PUSH1 0x1 PUSH1 0x2 DUP9 MUL ADD DUP9 SSTORE POP POP POP JUMPDEST POP POP POP POP POP POP JUMPDEST JUMP JUMPDEST PUSH0 PUSH2 0x259E DUP3 PUSH2 0x1861 JUMP JUMPDEST SWAP2 POP PUSH32 0xFFFFFFFFFFFFFFFFFFFFFFFFFFFFFFFFFFFFFFFFFFFFFFFFFFFFFFFFFFFFFFFF DUP3 SUB PUSH2 0x25D0 JUMPI PUSH2 0x25CF PUSH2 0x2171 JUMP JUMPDEST JUMPDEST PUSH1 0x1 DUP3 ADD SWAP1 POP SWAP2 SWAP1 POP JUMP INVALID LOG2 PUSH5 0x6970667358 0x22 SLT KECCAK256 ISZERO DIV ISZERO 0xD5 CALLER 0xD2 0xE 0xC BLOCKHASH BYTE DUP9 0xF6 0x1F 0xD9 0xCF ORIGIN 0xF7 EXTCODEHASH PUSH32 0xA35C505C2907B0CED9295E062A64736F6C634300081A00330000000000000000 "
		},
		"gasEstimates": {
			"creation": {
				"codeDepositCost": "1949000",
				"executionCost": "infinite",
				"totalCost": "infinite"
			},
			"external": {
				"createProposal(string,string,string)": "infinite",
				"gerAllProposal()": "infinite",
				"getMyProposal(address)": "infinite",
				"getProposal(uint256)": "infinite",
				"hasvoted(address)": "2900",
				"myProposal(address,uint256)": "infinite",
				"owner()": "2538",
				"proposalList(uint256)": "infinite",
				"proposals(uint256)": "infinite",
				"renounceOwnership()": "infinite",
				"serach(string)": "infinite",
				"transferOwnership(address)": "infinite",
				"vote(uint256)": "infinite"
			},
			"internal": {
				"contains(string memory,string memory)": "infinite"
			}
		},
		"methodIdentifiers": {
			"createProposal(string,string,string)": "583cf379",
			"gerAllProposal()": "f30282a1",
			"getMyProposal(address)": "159428d1",
			"getProposal(uint256)": "c7f758a8",
			"hasvoted(address)": "2b499cab",
			"myProposal(address,uint256)": "be07d1d9",
			"owner()": "8da5cb5b",
			"proposalList(uint256)": "c6311e3f",
			"proposals(uint256)": "013cf08b",
			"renounceOwnership()": "715018a6",
			"serach(string)": "b3db05c8",
			"transferOwnership(address)": "f2fde38b",
			"vote(uint256)": "0121b93f"
		}
	},
	"abi": [
		{
			"inputs": [
				{
					"internalType": "address",
					"name": "_profileContract",
					"type": "address"
				}
			],
			"stateMutability": "nonpayable",
			"type": "constructor"
		},
		{
			"inputs": [
				{
					"internalType": "address",
					"name": "owner",
					"type": "address"
				}
			],
			"name": "OwnableInvalidOwner",
			"type": "error"
		},
		{
			"inputs": [
				{
					"internalType": "address",
					"name": "account",
					"type": "address"
				}
			],
			"name": "OwnableUnauthorizedAccount",
			"type": "error"
		},
		{
			"anonymous": false,
			"inputs": [
				{
					"indexed": true,
					"internalType": "address",
					"name": "previousOwner",
					"type": "address"
				},
				{
					"indexed": true,
					"internalType": "address",
					"name": "newOwner",
					"type": "address"
				}
			],
			"name": "OwnershipTransferred",
			"type": "event"
		},
		{
			"anonymous": false,
			"inputs": [
				{
					"indexed": false,
					"internalType": "uint256",
					"name": "id",
					"type": "uint256"
				},
				{
					"indexed": false,
					"internalType": "string",
					"name": "title",
					"type": "string"
				},
				{
					"indexed": false,
					"internalType": "string",
					"name": "description",
					"type": "string"
				},
				{
					"indexed": false,
					"internalType": "uint256",
					"name": "votes",
					"type": "uint256"
				},
				{
					"indexed": false,
					"internalType": "address",
					"name": "author",
					"type": "address"
				}
			],
			"name": "proposalCreated",
			"type": "event"
		},
		{
			"inputs": [
				{
					"internalType": "string",
					"name": "_title",
					"type": "string"
				},
				{
					"internalType": "string",
					"name": "_description",
					"type": "string"
				},
				{
					"internalType": "string",
					"name": "_imgUrl",
					"type": "string"
				}
			],
			"name": "createProposal",
			"outputs": [],
			"stateMutability": "nonpayable",
			"type": "function"
		},
		{
			"inputs": [],
			"name": "gerAllProposal",
			"outputs": [
				{
					"components": [
						{
							"internalType": "uint256",
							"name": "id",
							"type": "uint256"
						},
						{
							"internalType": "string",
							"name": "title",
							"type": "string"
						},
						{
							"internalType": "string",
							"name": "description",
							"type": "string"
						},
						{
							"internalType": "string",
							"name": "imgUrl",
							"type": "string"
						},
						{
							"internalType": "uint256",
							"name": "votes",
							"type": "uint256"
						},
						{
							"internalType": "address",
							"name": "author",
							"type": "address"
						}
					],
					"internalType": "struct Voting.Proposal[]",
					"name": "",
					"type": "tuple[]"
				}
			],
			"stateMutability": "view",
			"type": "function"
		},
		{
			"inputs": [
				{
					"internalType": "address",
					"name": "_user",
					"type": "address"
				}
			],
			"name": "getMyProposal",
			"outputs": [
				{
					"components": [
						{
							"internalType": "uint256",
							"name": "id",
							"type": "uint256"
						},
						{
							"internalType": "string",
							"name": "title",
							"type": "string"
						},
						{
							"internalType": "string",
							"name": "description",
							"type": "string"
						},
						{
							"internalType": "string",
							"name": "imgUrl",
							"type": "string"
						},
						{
							"internalType": "uint256",
							"name": "votes",
							"type": "uint256"
						},
						{
							"internalType": "address",
							"name": "author",
							"type": "address"
						}
					],
					"internalType": "struct Voting.Proposal[]",
					"name": "",
					"type": "tuple[]"
				}
			],
			"stateMutability": "view",
			"type": "function"
		},
		{
			"inputs": [
				{
					"internalType": "uint256",
					"name": "_id",
					"type": "uint256"
				}
			],
			"name": "getProposal",
			"outputs": [
				{
					"internalType": "string",
					"name": "",
					"type": "string"
				},
				{
					"internalType": "string",
					"name": "",
					"type": "string"
				}
			],
			"stateMutability": "view",
			"type": "function"
		},
		{
			"inputs": [
				{
					"internalType": "address",
					"name": "",
					"type": "address"
				}
			],
			"name": "hasvoted",
			"outputs": [
				{
					"internalType": "bool",
					"name": "",
					"type": "bool"
				}
			],
			"stateMutability": "view",
			"type": "function"
		},
		{
			"inputs": [
				{
					"internalType": "address",
					"name": "",
					"type": "address"
				},
				{
					"internalType": "uint256",
					"name": "",
					"type": "uint256"
				}
			],
			"name": "myProposal",
			"outputs": [
				{
					"internalType": "uint256",
					"name": "id",
					"type": "uint256"
				},
				{
					"internalType": "string",
					"name": "title",
					"type": "string"
				},
				{
					"internalType": "string",
					"name": "description",
					"type": "string"
				},
				{
					"internalType": "string",
					"name": "imgUrl",
					"type": "string"
				},
				{
					"internalType": "uint256",
					"name": "votes",
					"type": "uint256"
				},
				{
					"internalType": "address",
					"name": "author",
					"type": "address"
				}
			],
			"stateMutability": "view",
			"type": "function"
		},
		{
			"inputs": [],
			"name": "owner",
			"outputs": [
				{
					"internalType": "address",
					"name": "",
					"type": "address"
				}
			],
			"stateMutability": "view",
			"type": "function"
		},
		{
			"inputs": [
				{
					"internalType": "uint256",
					"name": "",
					"type": "uint256"
				}
			],
			"name": "proposalList",
			"outputs": [
				{
					"internalType": "uint256",
					"name": "id",
					"type": "uint256"
				},
				{
					"internalType": "string",
					"name": "title",
					"type": "string"
				},
				{
					"internalType": "string",
					"name": "description",
					"type": "string"
				},
				{
					"internalType": "string",
					"name": "imgUrl",
					"type": "string"
				},
				{
					"internalType": "uint256",
					"name": "votes",
					"type": "uint256"
				},
				{
					"internalType": "address",
					"name": "author",
					"type": "address"
				}
			],
			"stateMutability": "view",
			"type": "function"
		},
		{
			"inputs": [
				{
					"internalType": "uint256",
					"name": "",
					"type": "uint256"
				}
			],
			"name": "proposals",
			"outputs": [
				{
					"internalType": "uint256",
					"name": "id",
					"type": "uint256"
				},
				{
					"internalType": "string",
					"name": "title",
					"type": "string"
				},
				{
					"internalType": "string",
					"name": "description",
					"type": "string"
				},
				{
					"internalType": "string",
					"name": "imgUrl",
					"type": "string"
				},
				{
					"internalType": "uint256",
					"name": "votes",
					"type": "uint256"
				},
				{
					"internalType": "address",
					"name": "author",
					"type": "address"
				}
			],
			"stateMutability": "view",
			"type": "function"
		},
		{
			"inputs": [],
			"name": "renounceOwnership",
			"outputs": [],
			"stateMutability": "nonpayable",
			"type": "function"
		},
		{
			"inputs": [
				{
					"internalType": "string",
					"name": "keyword",
					"type": "string"
				}
			],
			"name": "serach",
			"outputs": [
				{
					"components": [
						{
							"internalType": "uint256",
							"name": "id",
							"type": "uint256"
						},
						{
							"internalType": "string",
							"name": "title",
							"type": "string"
						},
						{
							"internalType": "string",
							"name": "description",
							"type": "string"
						},
						{
							"internalType": "string",
							"name": "imgUrl",
							"type": "string"
						},
						{
							"internalType": "uint256",
							"name": "votes",
							"type": "uint256"
						},
						{
							"internalType": "address",
							"name": "author",
							"type": "address"
						}
					],
					"internalType": "struct Voting.Proposal[]",
					"name": "result",
					"type": "tuple[]"
				}
			],
			"stateMutability": "view",
			"type": "function"
		},
		{
			"inputs": [
				{
					"internalType": "address",
					"name": "newOwner",
					"type": "address"
				}
			],
			"name": "transferOwnership",
			"outputs": [],
			"stateMutability": "nonpayable",
			"type": "function"
		},
		{
			"inputs": [
				{
					"internalType": "uint256",
					"name": "_id",
					"type": "uint256"
				}
			],
			"name": "vote",
			"outputs": [],
			"stateMutability": "nonpayable",
			"type": "function"
		}
	]
}